{
	"data": {
		"bytecode": {
			"linkReferences": {},
			"object": "608060405234801561001057600080fd5b50600080546001600160a01b0319163317905561581b806100326000396000f3fe608060405260043610620001515760003560e01c80635e56fb0111620000bb578063acb3c0731162000079578063acb3c07314620003be578063b16e68eb14620003e3578063bff390a714620003fa578063c79d19211462000422578063e8ca64f41462000439578063fe5f2e88146200046f5762000151565b80635e56fb0114620002f057806366f61fb914620003295780637a328a7e146200035d57806395a16979146200038257806399fcd6e414620003a75762000151565b806334d30e40116200011557806334d30e40146200022957806334e8e57b146200024e578063430fe9c1146200028557806348569ee9146200029d578063512518b514620002b457806356bf994214620002cb5762000151565b8062d0502914620001565780631218bfff146200018657806315282c9e14620001ac5780632019240214620001d35780632df7917214620001ea575b600080fd5b6200016d620001673660046200414b565b62000486565b6040516200017d92919062004a37565b60405180910390f35b6200019d62000197366004620040d9565b620004c0565b6040516200017d9190620049db565b348015620001b957600080fd5b50620001d1620001cb366004620041db565b62000bd2565b005b6200019d620001e43660046200414b565b62000c0d565b348015620001f757600080fd5b506200020f62000209366004620040d9565b62000f75565b6040516200017d9c9b9a999897969594939291906200482c565b3480156200023657600080fd5b506200016d62000248366004620040d9565b62001109565b3480156200025b57600080fd5b50620002736200026d3660046200414b565b620011ee565b6040516200017d94939291906200469e565b3480156200029257600080fd5b506200019d6200124e565b620001d1620002ae366004620041a2565b62001253565b620001d1620002c5366004620040d9565b62001616565b348015620002d857600080fd5b506200019d620002ea36600462003fc7565b62001ae0565b348015620002fd57600080fd5b50620003156200030f366004620040d9565b62001c12565b6040516200017d9695949392919062004764565b3480156200033657600080fd5b506200034e6200034836600462003fc7565b62001c60565b6040516200017d9190620047b0565b3480156200036a57600080fd5b50620001d16200037c36600462003fc7565b62001ce8565b3480156200038f57600080fd5b506200019d620003a136600462003fc7565b620020cf565b6200016d620003b83660046200400d565b620021f2565b348015620003cb57600080fd5b50620001d1620003dd36600462003f5c565b620025af565b620001d1620003f43660046200414b565b620025fe565b620004116200040b36600462004068565b62002a80565b6040516200017d9392919062004a47565b620001d162000433366004620040d9565b62002ef3565b3480156200044657600080fd5b506200045e62000458366004620040d9565b62003472565b6040516200017d9392919062004736565b620001d162000480366004620040d9565b620034a5565b600080620004948462001616565b6000620004a2858562000c0d565b90506000620004b186620004c0565b919350909150505b9250929050565b6000620004cc62003b01565b600383604051620004de91906200461d565b9081526040805160209281900383018120805460026001821615610100026000190190911604601f810185900490940282016101a090810190935261018082018481529193909284929184918401828280156200057f5780601f1062000553576101008083540402835291602001916200057f565b820191906000526020600020905b8154815290600101906020018083116200056157829003601f168201915b50505091835250506001828101546001600160a01b0390811660208085019190915260028086015490921660408086019190915260038601805482516101009682161596909602600019011693909304601f8101839004830285018301909152808452606090940193908301828280156200063e5780601f1062000612576101008083540402835291602001916200063e565b820191906000526020600020905b8154815290600101906020018083116200062057829003601f168201915b50505050508152602001600482015481526020016005820154815260200160068201548152602001600782015481526020016008820154815260200160098201548152602001600a8201548152602001600b820154815250509050620006a362003b74565b600684604051620006b591906200461d565b90815260408051918290036020908101832060c08401835280546001600160a01b03908116855260018201548116928501929092526002810154909116838301526003810154606080850191909152600480830154608086015260059092015460a0850152915192935090916200072e9087906200461d565b9081526020016040518091039020805480602002602001604051908101604052809291908181526020016000905b82821015620007c0576000848152602090819020604080516080810182526004860290920180546001600160a01b03168352600180820154848601526002820154928401929092526003015460ff161515606083015290835290920191016200075c565b5050505060208301519091506000805b835181101562000a4757620007e462003bc5565b848281518110620007f157fe5b602002602001015190508060600151156200080d575062000a3e565b60006200084162015180620008348a60800151856040015162003a0d90919063ffffffff16565b9063ffffffff62003a3316565b905060006200085e828a60e0015162003a0d90919063ffffffff16565b9050600081116200086d575060005b6000620008b46064620008346200088c85600163ffffffff62003a6916565b60608d01516020890151620008a79163ffffffff62003a8f16565b9063ffffffff62003a8f16565b895160405163e1f21c6760e01b81529192506001600160a01b03169063e1f21c6790620008ea908a9030908690600401620047c0565b600060405180830381600087803b1580156200090557600080fd5b505af11580156200091a573d6000803e3d6000fd5b50505050866001600160a01b03166323b872dd8a600001516001600160a01b031663026b1d5f6040518163ffffffff1660e01b815260040160206040518083038186803b1580156200096b57600080fd5b505afa15801562000980573d6000803e3d6000fd5b505050506040513d601f19601f82011682018060405250620009a6919081019062003f85565b86516040516001600160e01b031960e085901b168152620009ce929190869060040162004632565b602060405180830381600087803b158015620009e957600080fd5b505af1158015620009fe573d6000803e3d6000fd5b505050506040513d601f19601f8201168201806040525062000a24919081019062003fa6565b5062000a37868263ffffffff62003a6916565b9550505050505b600101620007d0565b50610160850151819003801562000bc757845160405163e1f21c6760e01b81526001600160a01b039091169063e1f21c679062000a8d90869030908690600401620047c0565b600060405180830381600087803b15801562000aa857600080fd5b505af115801562000abd573d6000803e3d6000fd5b50505050826001600160a01b03166323b872dd86600001516001600160a01b031663026b1d5f6040518163ffffffff1660e01b815260040160206040518083038186803b15801562000b0e57600080fd5b505afa15801562000b23573d6000803e3d6000fd5b505050506040513d601f19601f8201168201806040525062000b49919081019062003f85565b8760400151846040518463ffffffff1660e01b815260040162000b6f9392919062004632565b602060405180830381600087803b15801562000b8a57600080fd5b505af115801562000b9f573d6000803e3d6000fd5b505050506040513d601f19601f8201168201806040525062000bc5919081019062003fa6565b505b979650505050505050565b6000546001600160a01b0316331462000c085760405162461bcd60e51b815260040162000bff906200496f565b60405180910390fd5b600255565b600062000c1962003b01565b60038460405162000c2b91906200461d565b9081526040805160209281900383018120805460026001821615610100026000190190911604601f810185900490940282016101a0908101909352610180820184815291939092849291849184018282801562000ccc5780601f1062000ca05761010080835404028352916020019162000ccc565b820191906000526020600020905b81548152906001019060200180831162000cae57829003601f168201915b50505091835250506001828101546001600160a01b0390811660208085019190915260028086015490921660408086019190915260038601805482516101009682161596909602600019011693909304601f81018390048302850183019091528084526060909401939083018282801562000d8b5780601f1062000d5f5761010080835404028352916020019162000d8b565b820191906000526020600020905b81548152906001019060200180831162000d6d57829003601f168201915b50505050508152602001600482015481526020016005820154815260200160068201548152602001600782015481526020016008820154815260200160098201548152602001600a8201548152602001600b82015481525050905062000df062003b74565b60068560405162000e0291906200461d565b908152604080516020928190038301812060c08201835280546001600160a01b0390811680845260018301548216958401959095526002808301549091169383019390935260038101546060830152600481015460808301526005015460a0820152925060009062000e7e906064906200083490899062003a8f565b9050801562000ef257604051634f95a04b60e01b81526001600160a01b03831690634f95a04b9062000eb89060009085906004016200467f565b600060405180830381600087803b15801562000ed357600080fd5b505af115801562000ee8573d6000803e3d6000fd5b5050505080860395505b60808301516020850151604051634f95a04b60e01b815283890392909203916001600160a01b03851691634f95a04b9162000f33919085906004016200467f565b600060405180830381600087803b15801562000f4e57600080fd5b505af115801562000f63573d6000803e3d6000fd5b50939750505050505050505b92915050565b805160208183018101805160038252928201938201939093209190925280546040805160026001841615610100026000190190931692909204601f81018590048502830185019091528082529192909183918301828280156200101c5780601f1062000ff0576101008083540402835291602001916200101c565b820191906000526020600020905b81548152906001019060200180831162000ffe57829003601f168201915b505050600180850154600280870154600388018054604080516020601f60001999851615610100029990990190931695909504968701829004820285018201905285845297986001600160a01b0394851698929094169650929450909290830182828015620010cf5780601f10620010a357610100808354040283529160200191620010cf565b820191906000526020600020905b815481529060010190602001808311620010b157829003601f168201915b50505050509080600401549080600501549080600601549080600701549080600801549080600901549080600a01549080600b015490508c565b6000808080805b6004866040516200112291906200461d565b90815260405190819003602001902054811015620011e4576200114462003bc5565b6004876040516200115691906200461d565b908152602001604051809103902082815481106200117057fe5b600091825260209182902060408051608081018252600490930290910180546001600160a01b0316835260018101549383019390935260028301549082015260039091015460ff16151560608201819052909150620011da57602081015193909301926001909201915b5060010162001110565b5092509050915091565b815160208184018101805160048252928201918501919091209190528054829081106200121757fe5b600091825260209091206004909102018054600182015460028301546003909301546001600160a01b039092169450925060ff1684565b425b90565b8051516200126057600080fd5b6200126a62003bf8565b50604080516060810182526000808252602082018190528183015282519151909183916003916200129b916200461d565b90815260200160405180910390206000820151816000019080519060200190620012c792919062003c18565b506020828101516001830180546001600160a01b039283166001600160a01b0319918216179091556040850151600285018054919093169116179055606083015180516200131c926003850192019062003c18565b506080820151816004015560a0820151816005015560c0820151816006015560e082015181600701556101008201518160080155610120820151816009015561014082015181600a015561016082015181600b015590505080600583600001516040516200138b91906200461d565b908152604080519182900360209081018320845181549286015195909301511515620100000262ff0000199515156101000261ff001994151560ff1990941693909317939093169190911793909316179091558251600091620013ee9062003c9d565b620013fa9190620047f5565b604051809103906000f08015801562001417573d6000803e3d6000fd5b50604080850151905163144fa6d760e01b8152919250906001600160a01b0383169063144fa6d7906200144f908490600401620047b0565b600060405180830381600087803b1580156200146a57600080fd5b505af11580156200147f573d6000803e3d6000fd5b505060015460405163acb3c07360e01b81526001600160a01b03808716945063acb3c0739350620014b5921690600401620047b0565b600060405180830381600087803b158015620014d057600080fd5b505af1158015620014e5573d6000803e3d6000fd5b50505050620014f362003b74565b6040518060c00160405280846001600160a01b03168152602001836001600160a01b0316815260200160006001600160a01b0316815260200160008152602001600081526020016000815250905080600686600001516040516200155891906200461d565b9081526040805160209281900383018120845181546001600160a01b03199081166001600160a01b0392831617835594860151600183018054871691831691909117905592850151600282018054909516931692909217909255606083015160038201556080830151600482015560a09092015160059092019190915585517ff7e24b64c3d2ed7d191ce3009c2e12632005b58578ce39e23f97eaec9fd6c3e191620016079190869062004903565b60405180910390a15050505050565b6200162062003b01565b6003826040516200163291906200461d565b9081526040805160209281900383018120805460026001821615610100026000190190911604601f810185900490940282016101a09081019093526101808201848152919390928492918491840182828015620016d35780601f10620016a757610100808354040283529160200191620016d3565b820191906000526020600020905b815481529060010190602001808311620016b557829003601f168201915b50505091835250506001828101546001600160a01b0390811660208085019190915260028086015490921660408086019190915260038601805482516101009682161596909602600019011693909304601f810183900483028501830190915280845260609094019390830182828015620017925780601f10620017665761010080835404028352916020019162001792565b820191906000526020600020905b8154815290600101906020018083116200177457829003601f168201915b50505050508152602001600482015481526020016005820154815260200160068201548152602001600782015481526020016008820154815260200160098201548152602001600a8201548152602001600b820154815250509050620017f762003b74565b6006836040516200180991906200461d565b908152604080516020928190038301812060c08201835280546001600160a01b03908116808452600183015482169584019590955260028201541692820192909252600382015460608201526004820154608082015260059091015460a0820152915060006200187a603c62003acb565b90506000620018898662001109565b602086015160015461010089015160405163e1f21c6760e01b81529395506001600160a01b03808916955063e1f21c6794620018ce94939091169190600401620047c0565b600060405180830381600087803b158015620018e957600080fd5b505af1158015620018fe573d6000803e3d6000fd5b505050506000620019246064620008348861014001518562003a8f90919063ffffffff16565b600154604051634f95a04b60e01b81529192506001600160a01b0380871692634f95a04b926200195b92169085906004016200467f565b600060405180830381600087803b1580156200197657600080fd5b505af11580156200198b573d6000803e3d6000fd5b505050610100870151865160405163bb8a88bb60e01b815260009350839283926001600160a01b038a169263bb8a88bb928892620019d292879182918e90600401620049eb565b6060604051808303818588803b158015620019ec57600080fd5b505af115801562001a01573d6000803e3d6000fd5b50505050506040513d601f19601f8201168201806040525062001a28919081019062004252565b60608b0181905260a08b0183905260808b018290526040519295509093509150889060069062001a5a908d906200461d565b9081526040805160209281900383019020835181546001600160a01b03199081166001600160a01b0392831617835593850151600183018054861691831691909117905591840151600282018054909416921691909117909155606082015160038201556080820151600482015560a09091015160059091015550505050505050505050565b600080546001600160a01b0316331462001b0e5760405162461bcd60e51b815260040162000bff906200496f565b62001b1862003b74565b6006848460405162001b2c9291906200460e565b908152604080516020928190038301812060c08201835280546001600160a01b039081168084526001830154821695840186905260028301549091168385015260038201546060840152600480830154608085015260059092015460a0840152925163776e4b3560e11b8152919450919291839163eedc966a9162001bb491859101620047b0565b60206040518083038186803b15801562001bcd57600080fd5b505afa15801562001be2573d6000803e3d6000fd5b505050506040513d601f19601f8201168201806040525062001c089190810190620041fc565b9695505050505050565b80516020818301810180516006825292820191909301209152805460018201546002830154600384015460048501546005909501546001600160a01b03948516959385169490921692909186565b600062001c6c62003b74565b6006848460405162001c809291906200460e565b908152604080516020928190038301812060c08201835280546001600160a01b0390811683526001820154811694830185905260028201541692820192909252600382015460608201526004820154608082015260059091015460a090910152949350505050565b60006005838360405162001cfe9291906200460e565b908152604051908190036020019020805490915060ff1615801562001d2a5750805462010000900460ff165b62001d3457600080fd5b805460ff19166001178155604080516020601f850181900481028201810190925283815260009162001d82919086908690819084018382808284376000920191909152506200110992505050565b91505062001d8f62003b01565b6003858560405162001da39291906200460e565b9081526040805160209281900383018120805460026001821615610100026000190190911604601f810185900490940282016101a0908101909352610180820184815291939092849291849184018282801562001e445780601f1062001e185761010080835404028352916020019162001e44565b820191906000526020600020905b81548152906001019060200180831162001e2657829003601f168201915b50505091835250506001828101546001600160a01b0390811660208085019190915260028086015490921660408086019190915260038601805482516101009682161596909602600019011693909304601f81018390048302850183019091528084526060909401939083018282801562001f035780601f1062001ed75761010080835404028352916020019162001f03565b820191906000526020600020905b81548152906001019060200180831162001ee557829003601f168201915b50505050508152602001600482015481526020016005820154815260200160068201548152602001600782015481526020016008820154815260200160098201548152602001600a8201548152602001600b8201548152505090508061012001518210158360000160016101000a81548160ff021916908315150217905550826005868660405162001f979291906200460e565b9081526040519081900360200190208154815460ff918216151560ff199091161780835583546101009081900483161515810261ff00199092169190911780845593546201000090819004831615150262ff0000199094169390931790915584549190910416156200204e576200204685858080601f01602080910402602001604051908101604052809392919081815260200183838082843760009201919091525086925062000486915050565b50506200208f565b6200208f85858080601f016020809104026020016040519081016040528093929190818152602001838380828437600092019190915250620034a592505050565b82546040517f35714766e4544afd4526bc1bbe6a503c6b0f871ab72fb6939be49b8e3419e89e9162001607918891889161010090910460ff1690620047d0565b600080546001600160a01b03163314620020fd5760405162461bcd60e51b815260040162000bff906200496f565b6200210762003b74565b600684846040516200211b9291906200460e565b908152604080516020928190038301812060c08201835280546001600160a01b03908116808452600183015482168685015260028301549091168385015260038201546060840152600480830154608085015260059092015460a084015283516304e6630b60e41b81529351929550938493634e6630b093818401939091829003018186803b158015620021ae57600080fd5b505afa158015620021c3573d6000803e3d6000fd5b505050506040513d601f19601f82011682018060405250620021e99190810190620041fc565b95945050505050565b60015460009081906001600160a01b0316620022225760405162461bcd60e51b815260040162000bff90620049a5565b6200222c62003b74565b60068686604051620022409291906200460e565b908152604080516020928190038301812060c08201835280546001600160a01b0390811683526001808301548216958401869052600283015482168486015260038301546060850152600480840154608086015260059093015460a085015254935163095ea7b360e01b815292955063095ea7b393620022c6939116918991016200467f565b602060405180830381600087803b158015620022e157600080fd5b505af1158015620022f6573d6000803e3d6000fd5b505050506040513d601f19601f820116820180604052506200231c919081019062003fa6565b506200232762003b01565b600387876040516200233b9291906200460e565b9081526040805160209281900383018120805460026001821615610100026000190190911604601f810185900490940282016101a09081019093526101808201848152919390928492918491840182828015620023dc5780601f10620023b057610100808354040283529160200191620023dc565b820191906000526020600020905b815481529060010190602001808311620023be57829003601f168201915b50505091835250506001828101546001600160a01b0390811660208085019190915260028086015490921660408086019190915260038601805482516101009682161596909602600019011693909304601f8101839004830285018301909152808452606090940193908301828280156200249b5780601f106200246f576101008083540402835291602001916200249b565b820191906000526020600020905b8154815290600101906020018083116200247d57829003601f168201915b50505050508152602001600482015481526020016005820154815260200160068201548152602001600782015481526020016008820154815260200160098201548152602001600a8201548152602001600b820154815250509050600062002504607862003acb565b6001546040808501519051629d473b60e21b815292935060009283926001600160a01b0316916302751cec916200254991908c908690819033908b90600401620046db565b6040805180830381600087803b1580156200256357600080fd5b505af115801562002578573d6000803e3d6000fd5b505050506040513d601f19601f820116820180604052506200259e91908101906200421d565b909b909a5098505050505050505050565b6000546001600160a01b03163314620025dc5760405162461bcd60e51b815260040162000bff906200496f565b600180546001600160a01b0319166001600160a01b0392909216919091179055565b8160006200260b6200124e565b90506200261762003bf8565b6005836040516200262991906200461d565b9081526040805191829003602090810183206060840183525460ff80821615158552610100820481161515928501929092526201000090041615159082015290506200267462003b01565b6003846040516200268691906200461d565b9081526040805160209281900383018120805460026001821615610100026000190190911604601f810185900490940282016101a09081019093526101808201848152919390928492918491840182828015620027275780601f10620026fb5761010080835404028352916020019162002727565b820191906000526020600020905b8154815290600101906020018083116200270957829003601f168201915b50505091835250506001828101546001600160a01b0390811660208085019190915260028086015490921660408086019190915260038601805482516101009682161596909602600019011693909304601f810183900483028501830190915280845260609094019390830182828015620027e65780601f10620027ba57610100808354040283529160200191620027e6565b820191906000526020600020905b815481529060010190602001808311620027c857829003601f168201915b50505050508152602001600482015481526020016005820154815260200160068201548152602001600782015481526020016008820154815260200160098201548152602001600a8201548152602001600b820154815250509050816040015180156200285257508151155b6200285c57600080fd5b82816080015110620028825760405162461bcd60e51b815260040162000bff9062004939565b828160a0015111620028a85760405162461bcd60e51b815260040162000bff90620049b7565b620028b262003bc5565b6040518060800160405280336001600160a01b031681526020013481526020018781526020016000151581525090506000600688604051620028f591906200461d565b90815260408051602092819003830181205463026b1d5f60e01b825291516001600160a01b039092169350839263026b1d5f92600480840193829003018186803b1580156200294357600080fd5b505afa15801562002958573d6000803e3d6000fd5b505050506040513d601f19601f820116820180604052506200297e919081019062003f85565b6001600160a01b03166108fc349081150290604051600060405180830381858888f19350505050158015620029b7573d6000803e3d6000fd5b50600488604051620029ca91906200461d565b90815260408051602092819003830181208054600180820183556000928352858320885160049093020180546001600160a01b0319166001600160a01b03938416178155958801519086015592860151600285015560608601516003909401805460ff19169415159490941790935591547f5fec6c2d2d376aa6f4c793e34f6cc71d65285bd07d1e709292fafc2b28bf2fbe9262002a6e928c921690349062004808565b60405180910390a15050505050505050565b600154600090819081906001600160a01b031662002ab25760405162461bcd60e51b815260040162000bff90620049a5565b62002abc62003b74565b6006888860405162002ad09291906200460e565b908152604080516020928190038301812060c08201835280546001600160a01b039081168352600182015481169483018590526002820154168284015260038101546060830152600480820154608084015260059091015460a083015291516323b872dd60e01b81529093506323b872dd9162002b5491339130918b910162004660565b602060405180830381600087803b15801562002b6f57600080fd5b505af115801562002b84573d6000803e3d6000fd5b505050506040513d601f19601f8201168201806040525062002baa919081019062003fa6565b62002bb457600080fd5b62002bbe62003b01565b6003898960405162002bd29291906200460e565b9081526040805160209281900383018120805460026001821615610100026000190190911604601f810185900490940282016101a0908101909352610180820184815291939092849291849184018282801562002c735780601f1062002c475761010080835404028352916020019162002c73565b820191906000526020600020905b81548152906001019060200180831162002c5557829003601f168201915b50505091835250506001828101546001600160a01b0390811660208085019190915260028086015490921660408086019190915260038601805482516101009682161596909602600019011693909304601f81018390048302850183019091528084526060909401939083018282801562002d325780601f1062002d065761010080835404028352916020019162002d32565b820191906000526020600020905b81548152906001019060200180831162002d1457829003601f168201915b50505050508152602001600482015481526020016005820154815260200160068201548152602001600782015481526020016008820154815260200160098201548152602001600a8201548152602001600b82015481525050905081602001516001600160a01b031663095ea7b3600160009054906101000a90046001600160a01b0316886040518363ffffffff1660e01b815260040162002dd69291906200467f565b602060405180830381600087803b15801562002df157600080fd5b505af115801562002e06573d6000803e3d6000fd5b505050506040513d601f19601f8201168201806040525062002e2c919081019062003fa6565b50600062002e3b607862003acb565b600154604080850151905163f305d71960e01b8152929350600092839283926001600160a01b039091169163f305d719918e9162002e8791908f908790819033908d90600401620046db565b6060604051808303818588803b15801562002ea157600080fd5b505af115801562002eb6573d6000803e3d6000fd5b50505050506040513d601f19601f8201168201806040525062002edd919081019062004252565b919f909e50909c509a5050505050505050505050565b600062002eff62003adf565b90508034101562002f245760405162461bcd60e51b815260040162000bff90620049c9565b600062002f306200124e565b905062002f3c62003b01565b60038460405162002f4e91906200461d565b9081526040805160209281900383018120805460026001821615610100026000190190911604601f810185900490940282016101a0908101909352610180820184815291939092849291849184018282801562002fef5780601f1062002fc35761010080835404028352916020019162002fef565b820191906000526020600020905b81548152906001019060200180831162002fd157829003601f168201915b50505091835250506001828101546001600160a01b0390811660208085019190915260028086015490921660408086019190915260038601805482516101009682161596909602600019011693909304601f810183900483028501830190915280845260609094019390830182828015620030ae5780601f106200308257610100808354040283529160200191620030ae565b820191906000526020600020905b8154815290600101906020018083116200309057829003601f168201915b50505050508152602001600482015481526020016005820154815260200160068201548152602001600782015481526020016008820154815260200160098201548152602001600a8201548152602001600b820154815250509050818160800151106200312f5760405162461bcd60e51b815260040162000bff9062004939565b818160a0015111620031555760405162461bcd60e51b815260040162000bff90620049b7565b6200315f62003bf8565b6005856040516200317191906200461d565b9081526040805191829003602090810183206060840183525460ff80821615158552610100820481161515928501929092526201000090041615801591830191909152909150620031d65760405162461bcd60e51b815260040162000bff9062004993565b6000600686604051620031ea91906200461d565b9081526040805160209281900383018120805463026b1d5f60e01b835292519094506001600160a01b0390921692839263026b1d5f926004808201939291829003018186803b1580156200323d57600080fd5b505afa15801562003252573d6000803e3d6000fd5b505050506040513d601f19601f8201168201806040525062003278919081019062003f85565b6001600160a01b03166108fc879081150290604051600060405180830381858888f19350505050158015620032b1573d6000803e3d6000fd5b5060018201546040805163026b1d5f60e01b815290516001600160a01b039283169283926323b872dd92339287169163026b1d5f916004808301926020929190829003018186803b1580156200330657600080fd5b505afa1580156200331b573d6000803e3d6000fd5b505050506040513d601f19601f8201168201806040525062003341919081019062003f85565b8861016001516040518463ffffffff1660e01b8152600401620033679392919062004632565b602060405180830381600087803b1580156200338257600080fd5b505af115801562003397573d6000803e3d6000fd5b505050506040513d601f19601f82011682018060405250620033bd919081019062003fa6565b506001604080860191909152518490600590620033dc908b906200461d565b908152604080519182900360209081018320845181549286015195909301511515620100000262ff0000199515156101000261ff001994151560ff1990941693909317939093169190911793909316179091556002840180546001600160a01b031916331790557f44ec18e6fb6c9893aa22a7236add99d912e21075f568b1f65c6b3d7a65e285d89062002a6e908a90620047f5565b805160208183018101805160058252928201919093012091525460ff808216916101008104821691620100009091041683565b8051620034b157600080fd5b620034bb62003b74565b600682604051620034cd91906200461d565b908152604080516020928190038301812060c08201835280546001600160a01b0390811680845260018301548216958401959095526002820154168284015260038101546060830152600480820154608084015260059091015460a08301528251637d8f353160e11b81529251919450839263fb1e6a629281830192600092829003018186803b1580156200356157600080fd5b505afa15801562003576573d6000803e3d6000fd5b505050506040513d6000823e601f3d908101601f19168201604052620035a0919081019062004112565b51620035ab57600080fd5b60408201516001600160a01b0316620035c357600080fd5b60005b600484604051620035d891906200461d565b90815260405190819003602001902054811015620036b45760006004856040516200360491906200461d565b908152602001604051809103902082815481106200361e57fe5b6000918252602090912060049182020180546001820154604051634f95a04b60e01b81529294506001600160a01b0380881694634f95a04b9462003668949092169291016200467f565b600060405180830381600087803b1580156200368357600080fd5b505af115801562003698573d6000803e3d6000fd5b50505050600301805460ff1916600190811790915501620035c6565b50620036bf62003b01565b600384604051620036d191906200461d565b9081526040805160209281900383018120805460026001821615610100026000190190911604601f810185900490940282016101a09081019093526101808201848152919390928492918491840182828015620037725780601f10620037465761010080835404028352916020019162003772565b820191906000526020600020905b8154815290600101906020018083116200375457829003601f168201915b50505091835250506001828101546001600160a01b0390811660208085019190915260028086015490921660408086019190915260038601805482516101009682161596909602600019011693909304601f810183900483028501830190915280845260609094019390830182828015620038315780601f10620038055761010080835404028352916020019162003831565b820191906000526020600020905b8154815290600101906020018083116200381357829003601f168201915b50505050508152602001600482015481526020016005820154815260200160068201548152602001600782015481526020016008820154815260200160098201548152602001600a8201548152602001600b820154815250509050600083602001519050826001600160a01b031663e1f21c6782308561016001516040518463ffffffff1660e01b8152600401620038cc93929190620047c0565b600060405180830381600087803b158015620038e757600080fd5b505af1158015620038fc573d6000803e3d6000fd5b50505050806001600160a01b03166323b872dd846001600160a01b031663026b1d5f6040518163ffffffff1660e01b815260040160206040518083038186803b1580156200394957600080fd5b505afa1580156200395e573d6000803e3d6000fd5b505050506040513d601f19601f8201168201806040525062003984919081019062003f85565b86604001518561016001516040518463ffffffff1660e01b8152600401620039af9392919062004632565b602060405180830381600087803b158015620039ca57600080fd5b505af1158015620039df573d6000803e3d6000fd5b505050506040513d601f19601f8201168201806040525062003a05919081019062003fa6565b505050505050565b8082038281111562000f6f5760405162461bcd60e51b815260040162000bff9062004927565b600080821162003a575760405162461bcd60e51b815260040162000bff9062004981565b81838162003a6157fe5b049392505050565b8082018281101562000f6f5760405162461bcd60e51b815260040162000bff906200495d565b600081158062003aac5750508082028282828162003aa957fe5b04145b62000f6f5760405162461bcd60e51b815260040162000bff906200494b565b60008162003ad86200124e565b0192915050565b60006002546000141562003afa5767016345785d8a00006002555b5060025490565b6040518061018001604052806060815260200160006001600160a01b0316815260200160006001600160a01b031681526020016060815260200160008152602001600081526020016000815260200160008152602001600081526020016000815260200160008152602001600081525090565b6040518060c0016040528060006001600160a01b0316815260200160006001600160a01b0316815260200160006001600160a01b031681526020016000815260200160008152602001600081525090565b604051806080016040528060006001600160a01b0316815260200160008152602001600081526020016000151581525090565b604080516060810182526000808252602082018190529181019190915290565b828054600181600116156101000203166002900490600052602060002090601f016020900481019282601f1062003c5b57805160ff191683800117855562003c8b565b8280016001018555821562003c8b579182015b8281111562003c8b57825182559160200191906001019062003c6e565b5062003c9992915062003cab565b5090565b610c568062004b8383390190565b6200125091905b8082111562003c99576000815560010162003cb2565b803562000f6f8162004b52565b805162000f6f8162004b52565b805162000f6f8162004b6c565b60008083601f84011262003d0257600080fd5b50813567ffffffffffffffff81111562003d1b57600080fd5b602083019150836001820283011115620004b957600080fd5b600082601f83011262003d4657600080fd5b813562003d5d62003d578262004a8e565b62004a66565b9150808252602083016020830185838301111562003d7a57600080fd5b62003d8783828462004b09565b50505092915050565b600082601f83011262003da257600080fd5b815162003db362003d578262004a8e565b9150808252602083016020830185838301111562003dd057600080fd5b62003d8783828462004b15565b6000610180828403121562003df157600080fd5b62003dfe61018062004a66565b9050813567ffffffffffffffff81111562003e1857600080fd5b62003e268482850162003d34565b825250602062003e398484830162003cc8565b602083015250604062003e4f8482850162003cc8565b604083015250606082013567ffffffffffffffff81111562003e7057600080fd5b62003e7e8482850162003d34565b606083015250608062003e948482850162003f42565b60808301525060a062003eaa8482850162003f42565b60a08301525060c062003ec08482850162003f42565b60c08301525060e062003ed68482850162003f42565b60e08301525061010062003eed8482850162003f42565b6101008301525061012062003f058482850162003f42565b6101208301525061014062003f1d8482850162003f42565b6101408301525061016062003f358482850162003f42565b6101608301525092915050565b803562000f6f8162004b77565b805162000f6f8162004b77565b60006020828403121562003f6f57600080fd5b600062003f7d848462003cc8565b949350505050565b60006020828403121562003f9857600080fd5b600062003f7d848462003cd5565b60006020828403121562003fb957600080fd5b600062003f7d848462003ce2565b6000806020838503121562003fdb57600080fd5b823567ffffffffffffffff81111562003ff357600080fd5b620040018582860162003cef565b92509250509250929050565b6000806000604084860312156200402357600080fd5b833567ffffffffffffffff8111156200403b57600080fd5b620040498682870162003cef565b935093505060206200405e8682870162003f42565b9150509250925092565b600080600080606085870312156200407f57600080fd5b843567ffffffffffffffff8111156200409757600080fd5b620040a58782880162003cef565b94509450506020620040ba8782880162003f42565b9250506040620040cd8782880162003f42565b91505092959194509250565b600060208284031215620040ec57600080fd5b813567ffffffffffffffff8111156200410457600080fd5b62003f7d8482850162003d34565b6000602082840312156200412557600080fd5b815167ffffffffffffffff8111156200413d57600080fd5b62003f7d8482850162003d90565b600080604083850312156200415f57600080fd5b823567ffffffffffffffff8111156200417757600080fd5b620041858582860162003d34565b9250506020620041988582860162003f42565b9150509250929050565b600060208284031215620041b557600080fd5b813567ffffffffffffffff811115620041cd57600080fd5b62003f7d8482850162003ddd565b600060208284031215620041ee57600080fd5b600062003f7d848462003f42565b6000602082840312156200420f57600080fd5b600062003f7d848462003f4f565b600080604083850312156200423157600080fd5b60006200423f858562003f4f565b9250506020620041988582860162003f4f565b6000806000606084860312156200426857600080fd5b600062004276868662003f4f565b9350506020620042898682870162003f4f565b92505060406200405e8682870162003f4f565b620042a78162004ae7565b82525050565b620042a78162004ac9565b620042a78162004ad6565b620042a78162004aef565b620042a78162004afc565b6000620042e7838562004abb565b9350620042f683858462004b09565b620043018362004b48565b9093019392505050565b600062004319838562004ac4565b93506200432883858462004b09565b50500190565b60006200433b8262004ab7565b62004347818562004abb565b93506200435981856020860162004b15565b620043018162004b48565b6000620043718262004ab7565b6200437d818562004ac4565b93506200438f81856020860162004b15565b9290920192915050565b6000620043a860158362004abb565b7464732d6d6174682d7375622d756e646572666c6f7760581b815260200192915050565b6000620043db60378362004abb565b7f6e6f77206d7573742067726561746572207468616e2074686520646973636f2081527f66756e642072616973696e672073746172742074696d65000000000000000000602082015260400192915050565b60006200443c60148362004abb565b7364732d6d6174682d6d756c2d6f766572666c6f7760601b815260200192915050565b60006200446e60148362004abb565b7364732d6d6174682d6164642d6f766572666c6f7760601b815260200192915050565b6000620044a060148362004abb565b7343616c6c6572206973206e6f74206f776e65722160601b815260200192915050565b6000620044d2601a8362004abb565b7f536166654d6174683a206469766973696f6e206279207a65726f000000000000815260200192915050565b60006200450d60238362004abb565b7f74686520646973636f206d75737420686173206e6f74206265656e20737461728152621d195960ea1b602082015260400192915050565b60006200455460188362004abb565b7f556e6973776170206e6f7420696e697469616c697a65642e0000000000000000815260200192915050565b60006200458f60328362004abb565b7f6e6f77206d757374206c657373207468616e2074686520646973636f2066756e815271642072616973696e6720656e642074696d6560701b602082015260400192915050565b6000620045e5600f8362004abb565b6e666565206e6f7420656e6f7567682160881b815260200192915050565b620042a78162001250565b600062003f7d8284866200430b565b60006200462b828462004364565b9392505050565b606081016200464282866200429c565b6200465160208301856200429c565b62003f7d604083018462004603565b606081016200467082866200429c565b620046516020830185620042ad565b604081016200468f8285620042ad565b6200462b602083018462004603565b60808101620046ae8287620042ad565b620046bd602083018662004603565b620046cc604083018562004603565b620021e96060830184620042b8565b60c08101620046eb8289620042ad565b620046fa602083018862004603565b620047096040830187620042ce565b620047186060830186620042ce565b6200472760808301856200429c565b62000bc760a083018462004603565b60608101620047468286620042b8565b620047556020830185620042b8565b62003f7d6040830184620042b8565b60c08101620047748289620042c3565b620047836020830188620042c3565b620047926040830187620042ad565b620047a1606083018662004603565b62004727608083018562004603565b6020810162000f6f8284620042c3565b60608101620046708286620042c3565b60408082528101620047e4818587620042d9565b905062003f7d6020830184620042b8565b602080825281016200462b81846200432e565b606080825281016200481b81866200432e565b9050620046516020830185620042ad565b610180808252810162004840818f6200432e565b905062004851602083018e620042ad565b62004860604083018d620042ad565b818103606083015262004874818c6200432e565b905062004885608083018b62004603565b6200489460a083018a62004603565b620048a360c083018962004603565b620048b260e083018862004603565b620048c261010083018762004603565b620048d261012083018662004603565b620048e261014083018562004603565b620048f261016083018462004603565b9d9c50505050505050505050505050565b604080825281016200491681856200432e565b90506200462b6020830184620042c3565b6020808252810162000f6f8162004399565b6020808252810162000f6f81620043cc565b6020808252810162000f6f816200442d565b6020808252810162000f6f816200445f565b6020808252810162000f6f8162004491565b6020808252810162000f6f81620044c3565b6020808252810162000f6f81620044fe565b6020808252810162000f6f8162004545565b6020808252810162000f6f8162004580565b6020808252810162000f6f81620045d6565b6020810162000f6f828462004603565b60a08101620049fb828862004603565b62004a0a6020830187620042ce565b62004a196040830186620042ce565b62004a2860608301856200429c565b62001c08608083018462004603565b604081016200468f828562004603565b6060810162004a57828662004603565b62004651602083018562004603565b60405181810167ffffffffffffffff8111828210171562004a8657600080fd5b604052919050565b600067ffffffffffffffff82111562004aa657600080fd5b506020601f91909101601f19160190565b5190565b90815260200190565b919050565b600062000f6f8262004adb565b151590565b6001600160a01b031690565b600062000f6f825b600062000f6f8262004ac9565b600062000f6f8262001250565b82818337506000910152565b60005b8381101562004b3257818101518382015260200162004b18565b8381111562004b42576000848401525b50505050565b601f01601f191690565b62004b5d8162004ac9565b811462004b6957600080fd5b50565b62004b5d8162004ad6565b62004b5d816200125056fe60806040523480156200001157600080fd5b5060405162000c5638038062000c5683398101604081905262000034916200016b565b805181906200004b9060009060208401906200006a565b50508051620000629060019060208401906200006a565b50506200022d565b828054600181600116156101000203166002900490600052602060002090601f016020900481019282601f10620000ad57805160ff1916838001178555620000dd565b82800160010185558215620000dd579182015b82811115620000dd578251825591602001919060010190620000c0565b50620000eb929150620000ef565b5090565b6200010c91905b80821115620000eb5760008155600101620000f6565b90565b600082601f8301126200012157600080fd5b8151620001386200013282620001d2565b620001ab565b915080825260208301602083018583830111156200015557600080fd5b62000162838284620001fa565b50505092915050565b6000602082840312156200017e57600080fd5b81516001600160401b038111156200019557600080fd5b620001a3848285016200010f565b949350505050565b6040518181016001600160401b0381118282101715620001ca57600080fd5b604052919050565b60006001600160401b03821115620001e957600080fd5b506020601f91909101601f19160190565b60005b8381101562000217578181015183820152602001620001fd565b8381111562000227576000848401525b50505050565b610a19806200023d6000396000f3fe6080604052600436106100c25760003560e01c8063acb3c0731161007f578063beabacc811610059578063beabacc8146101c8578063e1f21c67146101e8578063eedc966a14610208578063fb1e6a6214610228576100c2565b8063acb3c07314610164578063af640d0f14610184578063bb8a88bb146101a6576100c2565b8063026b1d5f146100c4578063144fa6d7146100ef57806323b872dd1461010f57806338cc4831146100c45780634e6630b01461012f5780634f95a04b14610151575b005b3480156100d057600080fd5b506100d961023d565b6040516100e6919061083c565b60405180910390f35b3480156100fb57600080fd5b506100c261010a366004610694565b610241565b34801561011b57600080fd5b506100c261012a3660046106b2565b610263565b34801561013b57600080fd5b506101446102f3565b6040516100e691906108ff565b6100c261015f366004610634565b6102f7565b34801561017057600080fd5b506100c261017f366004610694565b61032d565b34801561019057600080fd5b5061019961034f565b6040516100e691906108ee565b6101b96101b4366004610760565b6103dc565b6040516100e69392919061090d565b3480156101d457600080fd5b506100c26101e33660046106b2565b610487565b3480156101f457600080fd5b506100c26102033660046106b2565b6104b5565b34801561021457600080fd5b50610144610223366004610694565b6104e3565b34801561023457600080fd5b50610199610568565b3090565b600380546001600160a01b0319166001600160a01b0392909216919091179055565b6040516323b872dd60e01b81526001600160a01b038416906323b872dd906102939030908690869060040161084a565b602060405180830381600087803b1580156102ad57600080fd5b505af11580156102c1573d6000803e3d6000fd5b505050506040513d601f19601f820116820180604052506102e5919081019061066e565b6102ee57600080fd5b505050565b4790565b6040516001600160a01b0383169082156108fc029083906000818181858888f193505050501580156102ee573d6000803e3d6000fd5b600280546001600160a01b0319166001600160a01b0392909216919091179055565b60018054604080516020600284861615610100026000190190941693909304601f810184900484028201840190925281815292918301828280156103d45780601f106103a9576101008083540402835291602001916103d4565b820191906000526020600020905b8154815290600101906020018083116103b757829003601f168201915b505050505081565b60025460035460405163f305d71960e01b8152600092839283926001600160a01b039283169263f305d71992349261042492909116908d908d908d908d908d90600401610894565b6060604051808303818588803b15801561043d57600080fd5b505af1158015610451573d6000803e3d6000fd5b50505050506040513d601f19601f82011682018060405250610476919081019061071d565b925092509250955095509592505050565b60405163a9059cbb60e01b81526001600160a01b0384169063a9059cbb906102939085908590600401610872565b60405163095ea7b360e01b81526001600160a01b0384169063095ea7b3906102939085908590600401610872565b6040516370a0823160e01b81526000906001600160a01b038316906370a082319061051290309060040161082e565b60206040518083038186803b15801561052a57600080fd5b505afa15801561053e573d6000803e3d6000fd5b505050506040513d601f19601f8201168201806040525061056291908101906106ff565b92915050565b60018054604080516020601f600260001961010087891615020190951694909404938401819004810282018101909252828152606093909290918301828280156105f35780601f106105c8576101008083540402835291602001916105f3565b820191906000526020600020905b8154815290600101906020018083116105d657829003601f168201915b5050505050905090565b8035610562816109a4565b8051610562816109bb565b8035610562816109c4565b8035610562816109cd565b8051610562816109cd565b6000806040838503121561064757600080fd5b600061065385856105fd565b92505060206106648582860161061e565b9150509250929050565b60006020828403121561068057600080fd5b600061068c8484610608565b949350505050565b6000602082840312156106a657600080fd5b600061068c8484610613565b6000806000606084860312156106c757600080fd5b60006106d38686610613565b93505060206106e4868287016105fd565b92505060406106f58682870161061e565b9150509250925092565b60006020828403121561071157600080fd5b600061068c8484610629565b60008060006060848603121561073257600080fd5b600061073e8686610629565b935050602061074f86828701610629565b92505060406106f586828701610629565b600080600080600060a0868803121561077857600080fd5b6000610784888861061e565b95505060206107958882890161061e565b94505060406107a68882890161061e565b93505060606107b7888289016105fd565b92505060806107c88882890161061e565b9150509295509295909350565b6107de8161095f565b82525050565b6107de81610935565b60006107f882610928565b610802818561092c565b935061081281856020860161096a565b61081b8161099a565b9093019392505050565b6107de8161095c565b6020810161056282846107d5565b6020810161056282846107e4565b6060810161085882866107d5565b61086560208301856107e4565b61068c6040830184610825565b6040810161088082856107e4565b61088d6020830184610825565b9392505050565b60c081016108a282896107e4565b6108af6020830188610825565b6108bc6040830187610825565b6108c96060830186610825565b6108d660808301856107e4565b6108e360a0830184610825565b979650505050505050565b6020808252810161088d81846107ed565b602081016105628284610825565b6060810161091b8286610825565b6108656020830185610825565b5190565b90815260200190565b600061056282610950565b151590565b600061056282610935565b6001600160a01b031690565b90565b600061056282610945565b60005b8381101561098557818101518382015260200161096d565b83811115610994576000848401525b50505050565b601f01601f191690565b6109ad81610935565b81146109b857600080fd5b50565b6109ad81610940565b6109ad81610945565b6109ad8161095c56fea365627a7a723158201e15559ff05987868874faec5eb70c2473453f215ff17500c3371cafa739d23b6c6578706572696d656e74616cf564736f6c63430005100040a365627a7a72315820c64436bb21431f2e73a0e6763f023e223849bb75dfce51d023c180ede0a5e4196c6578706572696d656e74616cf564736f6c63430005100040",
			"opcodes": "PUSH1 0x80 PUSH1 0x40 MSTORE CALLVALUE DUP1 ISZERO PUSH2 0x10 JUMPI PUSH1 0x0 DUP1 REVERT JUMPDEST POP PUSH1 0x0 DUP1 SLOAD PUSH1 0x1 PUSH1 0x1 PUSH1 0xA0 SHL SUB NOT AND CALLER OR SWAP1 SSTORE PUSH2 0x581B DUP1 PUSH2 0x32 PUSH1 0x0 CODECOPY PUSH1 0x0 RETURN INVALID PUSH1 0x80 PUSH1 0x40 MSTORE PUSH1 0x4 CALLDATASIZE LT PUSH3 0x151 JUMPI PUSH1 0x0 CALLDATALOAD PUSH1 0xE0 SHR DUP1 PUSH4 0x5E56FB01 GT PUSH3 0xBB JUMPI DUP1 PUSH4 0xACB3C073 GT PUSH3 0x79 JUMPI DUP1 PUSH4 0xACB3C073 EQ PUSH3 0x3BE JUMPI DUP1 PUSH4 0xB16E68EB EQ PUSH3 0x3E3 JUMPI DUP1 PUSH4 0xBFF390A7 EQ PUSH3 0x3FA JUMPI DUP1 PUSH4 0xC79D1921 EQ PUSH3 0x422 JUMPI DUP1 PUSH4 0xE8CA64F4 EQ PUSH3 0x439 JUMPI DUP1 PUSH4 0xFE5F2E88 EQ PUSH3 0x46F JUMPI PUSH3 0x151 JUMP JUMPDEST DUP1 PUSH4 0x5E56FB01 EQ PUSH3 0x2F0 JUMPI DUP1 PUSH4 0x66F61FB9 EQ PUSH3 0x329 JUMPI DUP1 PUSH4 0x7A328A7E EQ PUSH3 0x35D JUMPI DUP1 PUSH4 0x95A16979 EQ PUSH3 0x382 JUMPI DUP1 PUSH4 0x99FCD6E4 EQ PUSH3 0x3A7 JUMPI PUSH3 0x151 JUMP JUMPDEST DUP1 PUSH4 0x34D30E40 GT PUSH3 0x115 JUMPI DUP1 PUSH4 0x34D30E40 EQ PUSH3 0x229 JUMPI DUP1 PUSH4 0x34E8E57B EQ PUSH3 0x24E JUMPI DUP1 PUSH4 0x430FE9C1 EQ PUSH3 0x285 JUMPI DUP1 PUSH4 0x48569EE9 EQ PUSH3 0x29D JUMPI DUP1 PUSH4 0x512518B5 EQ PUSH3 0x2B4 JUMPI DUP1 PUSH4 0x56BF9942 EQ PUSH3 0x2CB JUMPI PUSH3 0x151 JUMP JUMPDEST DUP1 PUSH3 0xD05029 EQ PUSH3 0x156 JUMPI DUP1 PUSH4 0x1218BFFF EQ PUSH3 0x186 JUMPI DUP1 PUSH4 0x15282C9E EQ PUSH3 0x1AC JUMPI DUP1 PUSH4 0x20192402 EQ PUSH3 0x1D3 JUMPI DUP1 PUSH4 0x2DF79172 EQ PUSH3 0x1EA JUMPI JUMPDEST PUSH1 0x0 DUP1 REVERT JUMPDEST PUSH3 0x16D PUSH3 0x167 CALLDATASIZE PUSH1 0x4 PUSH3 0x414B JUMP JUMPDEST PUSH3 0x486 JUMP JUMPDEST PUSH1 0x40 MLOAD PUSH3 0x17D SWAP3 SWAP2 SWAP1 PUSH3 0x4A37 JUMP JUMPDEST PUSH1 0x40 MLOAD DUP1 SWAP2 SUB SWAP1 RETURN JUMPDEST PUSH3 0x19D PUSH3 0x197 CALLDATASIZE PUSH1 0x4 PUSH3 0x40D9 JUMP JUMPDEST PUSH3 0x4C0 JUMP JUMPDEST PUSH1 0x40 MLOAD PUSH3 0x17D SWAP2 SWAP1 PUSH3 0x49DB JUMP JUMPDEST CALLVALUE DUP1 ISZERO PUSH3 0x1B9 JUMPI PUSH1 0x0 DUP1 REVERT JUMPDEST POP PUSH3 0x1D1 PUSH3 0x1CB CALLDATASIZE PUSH1 0x4 PUSH3 0x41DB JUMP JUMPDEST PUSH3 0xBD2 JUMP JUMPDEST STOP JUMPDEST PUSH3 0x19D PUSH3 0x1E4 CALLDATASIZE PUSH1 0x4 PUSH3 0x414B JUMP JUMPDEST PUSH3 0xC0D JUMP JUMPDEST CALLVALUE DUP1 ISZERO PUSH3 0x1F7 JUMPI PUSH1 0x0 DUP1 REVERT JUMPDEST POP PUSH3 0x20F PUSH3 0x209 CALLDATASIZE PUSH1 0x4 PUSH3 0x40D9 JUMP JUMPDEST PUSH3 0xF75 JUMP JUMPDEST PUSH1 0x40 MLOAD PUSH3 0x17D SWAP13 SWAP12 SWAP11 SWAP10 SWAP9 SWAP8 SWAP7 SWAP6 SWAP5 SWAP4 SWAP3 SWAP2 SWAP1 PUSH3 0x482C JUMP JUMPDEST CALLVALUE DUP1 ISZERO PUSH3 0x236 JUMPI PUSH1 0x0 DUP1 REVERT JUMPDEST POP PUSH3 0x16D PUSH3 0x248 CALLDATASIZE PUSH1 0x4 PUSH3 0x40D9 JUMP JUMPDEST PUSH3 0x1109 JUMP JUMPDEST CALLVALUE DUP1 ISZERO PUSH3 0x25B JUMPI PUSH1 0x0 DUP1 REVERT JUMPDEST POP PUSH3 0x273 PUSH3 0x26D CALLDATASIZE PUSH1 0x4 PUSH3 0x414B JUMP JUMPDEST PUSH3 0x11EE JUMP JUMPDEST PUSH1 0x40 MLOAD PUSH3 0x17D SWAP5 SWAP4 SWAP3 SWAP2 SWAP1 PUSH3 0x469E JUMP JUMPDEST CALLVALUE DUP1 ISZERO PUSH3 0x292 JUMPI PUSH1 0x0 DUP1 REVERT JUMPDEST POP PUSH3 0x19D PUSH3 0x124E JUMP JUMPDEST PUSH3 0x1D1 PUSH3 0x2AE CALLDATASIZE PUSH1 0x4 PUSH3 0x41A2 JUMP JUMPDEST PUSH3 0x1253 JUMP JUMPDEST PUSH3 0x1D1 PUSH3 0x2C5 CALLDATASIZE PUSH1 0x4 PUSH3 0x40D9 JUMP JUMPDEST PUSH3 0x1616 JUMP JUMPDEST CALLVALUE DUP1 ISZERO PUSH3 0x2D8 JUMPI PUSH1 0x0 DUP1 REVERT JUMPDEST POP PUSH3 0x19D PUSH3 0x2EA CALLDATASIZE PUSH1 0x4 PUSH3 0x3FC7 JUMP JUMPDEST PUSH3 0x1AE0 JUMP JUMPDEST CALLVALUE DUP1 ISZERO PUSH3 0x2FD JUMPI PUSH1 0x0 DUP1 REVERT JUMPDEST POP PUSH3 0x315 PUSH3 0x30F CALLDATASIZE PUSH1 0x4 PUSH3 0x40D9 JUMP JUMPDEST PUSH3 0x1C12 JUMP JUMPDEST PUSH1 0x40 MLOAD PUSH3 0x17D SWAP7 SWAP6 SWAP5 SWAP4 SWAP3 SWAP2 SWAP1 PUSH3 0x4764 JUMP JUMPDEST CALLVALUE DUP1 ISZERO PUSH3 0x336 JUMPI PUSH1 0x0 DUP1 REVERT JUMPDEST POP PUSH3 0x34E PUSH3 0x348 CALLDATASIZE PUSH1 0x4 PUSH3 0x3FC7 JUMP JUMPDEST PUSH3 0x1C60 JUMP JUMPDEST PUSH1 0x40 MLOAD PUSH3 0x17D SWAP2 SWAP1 PUSH3 0x47B0 JUMP JUMPDEST CALLVALUE DUP1 ISZERO PUSH3 0x36A JUMPI PUSH1 0x0 DUP1 REVERT JUMPDEST POP PUSH3 0x1D1 PUSH3 0x37C CALLDATASIZE PUSH1 0x4 PUSH3 0x3FC7 JUMP JUMPDEST PUSH3 0x1CE8 JUMP JUMPDEST CALLVALUE DUP1 ISZERO PUSH3 0x38F JUMPI PUSH1 0x0 DUP1 REVERT JUMPDEST POP PUSH3 0x19D PUSH3 0x3A1 CALLDATASIZE PUSH1 0x4 PUSH3 0x3FC7 JUMP JUMPDEST PUSH3 0x20CF JUMP JUMPDEST PUSH3 0x16D PUSH3 0x3B8 CALLDATASIZE PUSH1 0x4 PUSH3 0x400D JUMP JUMPDEST PUSH3 0x21F2 JUMP JUMPDEST CALLVALUE DUP1 ISZERO PUSH3 0x3CB JUMPI PUSH1 0x0 DUP1 REVERT JUMPDEST POP PUSH3 0x1D1 PUSH3 0x3DD CALLDATASIZE PUSH1 0x4 PUSH3 0x3F5C JUMP JUMPDEST PUSH3 0x25AF JUMP JUMPDEST PUSH3 0x1D1 PUSH3 0x3F4 CALLDATASIZE PUSH1 0x4 PUSH3 0x414B JUMP JUMPDEST PUSH3 0x25FE JUMP JUMPDEST PUSH3 0x411 PUSH3 0x40B CALLDATASIZE PUSH1 0x4 PUSH3 0x4068 JUMP JUMPDEST PUSH3 0x2A80 JUMP JUMPDEST PUSH1 0x40 MLOAD PUSH3 0x17D SWAP4 SWAP3 SWAP2 SWAP1 PUSH3 0x4A47 JUMP JUMPDEST PUSH3 0x1D1 PUSH3 0x433 CALLDATASIZE PUSH1 0x4 PUSH3 0x40D9 JUMP JUMPDEST PUSH3 0x2EF3 JUMP JUMPDEST CALLVALUE DUP1 ISZERO PUSH3 0x446 JUMPI PUSH1 0x0 DUP1 REVERT JUMPDEST POP PUSH3 0x45E PUSH3 0x458 CALLDATASIZE PUSH1 0x4 PUSH3 0x40D9 JUMP JUMPDEST PUSH3 0x3472 JUMP JUMPDEST PUSH1 0x40 MLOAD PUSH3 0x17D SWAP4 SWAP3 SWAP2 SWAP1 PUSH3 0x4736 JUMP JUMPDEST PUSH3 0x1D1 PUSH3 0x480 CALLDATASIZE PUSH1 0x4 PUSH3 0x40D9 JUMP JUMPDEST PUSH3 0x34A5 JUMP JUMPDEST PUSH1 0x0 DUP1 PUSH3 0x494 DUP5 PUSH3 0x1616 JUMP JUMPDEST PUSH1 0x0 PUSH3 0x4A2 DUP6 DUP6 PUSH3 0xC0D JUMP JUMPDEST SWAP1 POP PUSH1 0x0 PUSH3 0x4B1 DUP7 PUSH3 0x4C0 JUMP JUMPDEST SWAP2 SWAP4 POP SWAP1 SWAP2 POP POP JUMPDEST SWAP3 POP SWAP3 SWAP1 POP JUMP JUMPDEST PUSH1 0x0 PUSH3 0x4CC PUSH3 0x3B01 JUMP JUMPDEST PUSH1 0x3 DUP4 PUSH1 0x40 MLOAD PUSH3 0x4DE SWAP2 SWAP1 PUSH3 0x461D JUMP JUMPDEST SWAP1 DUP2 MSTORE PUSH1 0x40 DUP1 MLOAD PUSH1 0x20 SWAP3 DUP2 SWAP1 SUB DUP4 ADD DUP2 KECCAK256 DUP1 SLOAD PUSH1 0x2 PUSH1 0x1 DUP3 AND ISZERO PUSH2 0x100 MUL PUSH1 0x0 NOT ADD SWAP1 SWAP2 AND DIV PUSH1 0x1F DUP2 ADD DUP6 SWAP1 DIV SWAP1 SWAP5 MUL DUP3 ADD PUSH2 0x1A0 SWAP1 DUP2 ADD SWAP1 SWAP4 MSTORE PUSH2 0x180 DUP3 ADD DUP5 DUP2 MSTORE SWAP2 SWAP4 SWAP1 SWAP3 DUP5 SWAP3 SWAP2 DUP5 SWAP2 DUP5 ADD DUP3 DUP3 DUP1 ISZERO PUSH3 0x57F JUMPI DUP1 PUSH1 0x1F LT PUSH3 0x553 JUMPI PUSH2 0x100 DUP1 DUP4 SLOAD DIV MUL DUP4 MSTORE SWAP2 PUSH1 0x20 ADD SWAP2 PUSH3 0x57F JUMP JUMPDEST DUP3 ADD SWAP2 SWAP1 PUSH1 0x0 MSTORE PUSH1 0x20 PUSH1 0x0 KECCAK256 SWAP1 JUMPDEST DUP2 SLOAD DUP2 MSTORE SWAP1 PUSH1 0x1 ADD SWAP1 PUSH1 0x20 ADD DUP1 DUP4 GT PUSH3 0x561 JUMPI DUP3 SWAP1 SUB PUSH1 0x1F AND DUP3 ADD SWAP2 JUMPDEST POP POP POP SWAP2 DUP4 MSTORE POP POP PUSH1 0x1 DUP3 DUP2 ADD SLOAD PUSH1 0x1 PUSH1 0x1 PUSH1 0xA0 SHL SUB SWAP1 DUP2 AND PUSH1 0x20 DUP1 DUP6 ADD SWAP2 SWAP1 SWAP2 MSTORE PUSH1 0x2 DUP1 DUP7 ADD SLOAD SWAP1 SWAP3 AND PUSH1 0x40 DUP1 DUP7 ADD SWAP2 SWAP1 SWAP2 MSTORE PUSH1 0x3 DUP7 ADD DUP1 SLOAD DUP3 MLOAD PUSH2 0x100 SWAP7 DUP3 AND ISZERO SWAP7 SWAP1 SWAP7 MUL PUSH1 0x0 NOT ADD AND SWAP4 SWAP1 SWAP4 DIV PUSH1 0x1F DUP2 ADD DUP4 SWAP1 DIV DUP4 MUL DUP6 ADD DUP4 ADD SWAP1 SWAP2 MSTORE DUP1 DUP5 MSTORE PUSH1 0x60 SWAP1 SWAP5 ADD SWAP4 SWAP1 DUP4 ADD DUP3 DUP3 DUP1 ISZERO PUSH3 0x63E JUMPI DUP1 PUSH1 0x1F LT PUSH3 0x612 JUMPI PUSH2 0x100 DUP1 DUP4 SLOAD DIV MUL DUP4 MSTORE SWAP2 PUSH1 0x20 ADD SWAP2 PUSH3 0x63E JUMP JUMPDEST DUP3 ADD SWAP2 SWAP1 PUSH1 0x0 MSTORE PUSH1 0x20 PUSH1 0x0 KECCAK256 SWAP1 JUMPDEST DUP2 SLOAD DUP2 MSTORE SWAP1 PUSH1 0x1 ADD SWAP1 PUSH1 0x20 ADD DUP1 DUP4 GT PUSH3 0x620 JUMPI DUP3 SWAP1 SUB PUSH1 0x1F AND DUP3 ADD SWAP2 JUMPDEST POP POP POP POP POP DUP2 MSTORE PUSH1 0x20 ADD PUSH1 0x4 DUP3 ADD SLOAD DUP2 MSTORE PUSH1 0x20 ADD PUSH1 0x5 DUP3 ADD SLOAD DUP2 MSTORE PUSH1 0x20 ADD PUSH1 0x6 DUP3 ADD SLOAD DUP2 MSTORE PUSH1 0x20 ADD PUSH1 0x7 DUP3 ADD SLOAD DUP2 MSTORE PUSH1 0x20 ADD PUSH1 0x8 DUP3 ADD SLOAD DUP2 MSTORE PUSH1 0x20 ADD PUSH1 0x9 DUP3 ADD SLOAD DUP2 MSTORE PUSH1 0x20 ADD PUSH1 0xA DUP3 ADD SLOAD DUP2 MSTORE PUSH1 0x20 ADD PUSH1 0xB DUP3 ADD SLOAD DUP2 MSTORE POP POP SWAP1 POP PUSH3 0x6A3 PUSH3 0x3B74 JUMP JUMPDEST PUSH1 0x6 DUP5 PUSH1 0x40 MLOAD PUSH3 0x6B5 SWAP2 SWAP1 PUSH3 0x461D JUMP JUMPDEST SWAP1 DUP2 MSTORE PUSH1 0x40 DUP1 MLOAD SWAP2 DUP3 SWAP1 SUB PUSH1 0x20 SWAP1 DUP2 ADD DUP4 KECCAK256 PUSH1 0xC0 DUP5 ADD DUP4 MSTORE DUP1 SLOAD PUSH1 0x1 PUSH1 0x1 PUSH1 0xA0 SHL SUB SWAP1 DUP2 AND DUP6 MSTORE PUSH1 0x1 DUP3 ADD SLOAD DUP2 AND SWAP3 DUP6 ADD SWAP3 SWAP1 SWAP3 MSTORE PUSH1 0x2 DUP2 ADD SLOAD SWAP1 SWAP2 AND DUP4 DUP4 ADD MSTORE PUSH1 0x3 DUP2 ADD SLOAD PUSH1 0x60 DUP1 DUP6 ADD SWAP2 SWAP1 SWAP2 MSTORE PUSH1 0x4 DUP1 DUP4 ADD SLOAD PUSH1 0x80 DUP7 ADD MSTORE PUSH1 0x5 SWAP1 SWAP3 ADD SLOAD PUSH1 0xA0 DUP6 ADD MSTORE SWAP2 MLOAD SWAP3 SWAP4 POP SWAP1 SWAP2 PUSH3 0x72E SWAP1 DUP8 SWAP1 PUSH3 0x461D JUMP JUMPDEST SWAP1 DUP2 MSTORE PUSH1 0x20 ADD PUSH1 0x40 MLOAD DUP1 SWAP2 SUB SWAP1 KECCAK256 DUP1 SLOAD DUP1 PUSH1 0x20 MUL PUSH1 0x20 ADD PUSH1 0x40 MLOAD SWAP1 DUP2 ADD PUSH1 0x40 MSTORE DUP1 SWAP3 SWAP2 SWAP1 DUP2 DUP2 MSTORE PUSH1 0x20 ADD PUSH1 0x0 SWAP1 JUMPDEST DUP3 DUP3 LT ISZERO PUSH3 0x7C0 JUMPI PUSH1 0x0 DUP5 DUP2 MSTORE PUSH1 0x20 SWAP1 DUP2 SWAP1 KECCAK256 PUSH1 0x40 DUP1 MLOAD PUSH1 0x80 DUP2 ADD DUP3 MSTORE PUSH1 0x4 DUP7 MUL SWAP1 SWAP3 ADD DUP1 SLOAD PUSH1 0x1 PUSH1 0x1 PUSH1 0xA0 SHL SUB AND DUP4 MSTORE PUSH1 0x1 DUP1 DUP3 ADD SLOAD DUP5 DUP7 ADD MSTORE PUSH1 0x2 DUP3 ADD SLOAD SWAP3 DUP5 ADD SWAP3 SWAP1 SWAP3 MSTORE PUSH1 0x3 ADD SLOAD PUSH1 0xFF AND ISZERO ISZERO PUSH1 0x60 DUP4 ADD MSTORE SWAP1 DUP4 MSTORE SWAP1 SWAP3 ADD SWAP2 ADD PUSH3 0x75C JUMP JUMPDEST POP POP POP POP PUSH1 0x20 DUP4 ADD MLOAD SWAP1 SWAP2 POP PUSH1 0x0 DUP1 JUMPDEST DUP4 MLOAD DUP2 LT ISZERO PUSH3 0xA47 JUMPI PUSH3 0x7E4 PUSH3 0x3BC5 JUMP JUMPDEST DUP5 DUP3 DUP2 MLOAD DUP2 LT PUSH3 0x7F1 JUMPI INVALID JUMPDEST PUSH1 0x20 MUL PUSH1 0x20 ADD ADD MLOAD SWAP1 POP DUP1 PUSH1 0x60 ADD MLOAD ISZERO PUSH3 0x80D JUMPI POP PUSH3 0xA3E JUMP JUMPDEST PUSH1 0x0 PUSH3 0x841 PUSH3 0x15180 PUSH3 0x834 DUP11 PUSH1 0x80 ADD MLOAD DUP6 PUSH1 0x40 ADD MLOAD PUSH3 0x3A0D SWAP1 SWAP2 SWAP1 PUSH4 0xFFFFFFFF AND JUMP JUMPDEST SWAP1 PUSH4 0xFFFFFFFF PUSH3 0x3A33 AND JUMP JUMPDEST SWAP1 POP PUSH1 0x0 PUSH3 0x85E DUP3 DUP11 PUSH1 0xE0 ADD MLOAD PUSH3 0x3A0D SWAP1 SWAP2 SWAP1 PUSH4 0xFFFFFFFF AND JUMP JUMPDEST SWAP1 POP PUSH1 0x0 DUP2 GT PUSH3 0x86D JUMPI POP PUSH1 0x0 JUMPDEST PUSH1 0x0 PUSH3 0x8B4 PUSH1 0x64 PUSH3 0x834 PUSH3 0x88C DUP6 PUSH1 0x1 PUSH4 0xFFFFFFFF PUSH3 0x3A69 AND JUMP JUMPDEST PUSH1 0x60 DUP14 ADD MLOAD PUSH1 0x20 DUP10 ADD MLOAD PUSH3 0x8A7 SWAP2 PUSH4 0xFFFFFFFF PUSH3 0x3A8F AND JUMP JUMPDEST SWAP1 PUSH4 0xFFFFFFFF PUSH3 0x3A8F AND JUMP JUMPDEST DUP10 MLOAD PUSH1 0x40 MLOAD PUSH4 0xE1F21C67 PUSH1 0xE0 SHL DUP2 MSTORE SWAP2 SWAP3 POP PUSH1 0x1 PUSH1 0x1 PUSH1 0xA0 SHL SUB AND SWAP1 PUSH4 0xE1F21C67 SWAP1 PUSH3 0x8EA SWAP1 DUP11 SWAP1 ADDRESS SWAP1 DUP7 SWAP1 PUSH1 0x4 ADD PUSH3 0x47C0 JUMP JUMPDEST PUSH1 0x0 PUSH1 0x40 MLOAD DUP1 DUP4 SUB DUP2 PUSH1 0x0 DUP8 DUP1 EXTCODESIZE ISZERO DUP1 ISZERO PUSH3 0x905 JUMPI PUSH1 0x0 DUP1 REVERT JUMPDEST POP GAS CALL ISZERO DUP1 ISZERO PUSH3 0x91A JUMPI RETURNDATASIZE PUSH1 0x0 DUP1 RETURNDATACOPY RETURNDATASIZE PUSH1 0x0 REVERT JUMPDEST POP POP POP POP DUP7 PUSH1 0x1 PUSH1 0x1 PUSH1 0xA0 SHL SUB AND PUSH4 0x23B872DD DUP11 PUSH1 0x0 ADD MLOAD PUSH1 0x1 PUSH1 0x1 PUSH1 0xA0 SHL SUB AND PUSH4 0x26B1D5F PUSH1 0x40 MLOAD DUP2 PUSH4 0xFFFFFFFF AND PUSH1 0xE0 SHL DUP2 MSTORE PUSH1 0x4 ADD PUSH1 0x20 PUSH1 0x40 MLOAD DUP1 DUP4 SUB DUP2 DUP7 DUP1 EXTCODESIZE ISZERO DUP1 ISZERO PUSH3 0x96B JUMPI PUSH1 0x0 DUP1 REVERT JUMPDEST POP GAS STATICCALL ISZERO DUP1 ISZERO PUSH3 0x980 JUMPI RETURNDATASIZE PUSH1 0x0 DUP1 RETURNDATACOPY RETURNDATASIZE PUSH1 0x0 REVERT JUMPDEST POP POP POP POP PUSH1 0x40 MLOAD RETURNDATASIZE PUSH1 0x1F NOT PUSH1 0x1F DUP3 ADD AND DUP3 ADD DUP1 PUSH1 0x40 MSTORE POP PUSH3 0x9A6 SWAP2 SWAP1 DUP2 ADD SWAP1 PUSH3 0x3F85 JUMP JUMPDEST DUP7 MLOAD PUSH1 0x40 MLOAD PUSH1 0x1 PUSH1 0x1 PUSH1 0xE0 SHL SUB NOT PUSH1 0xE0 DUP6 SWAP1 SHL AND DUP2 MSTORE PUSH3 0x9CE SWAP3 SWAP2 SWAP1 DUP7 SWAP1 PUSH1 0x4 ADD PUSH3 0x4632 JUMP JUMPDEST PUSH1 0x20 PUSH1 0x40 MLOAD DUP1 DUP4 SUB DUP2 PUSH1 0x0 DUP8 DUP1 EXTCODESIZE ISZERO DUP1 ISZERO PUSH3 0x9E9 JUMPI PUSH1 0x0 DUP1 REVERT JUMPDEST POP GAS CALL ISZERO DUP1 ISZERO PUSH3 0x9FE JUMPI RETURNDATASIZE PUSH1 0x0 DUP1 RETURNDATACOPY RETURNDATASIZE PUSH1 0x0 REVERT JUMPDEST POP POP POP POP PUSH1 0x40 MLOAD RETURNDATASIZE PUSH1 0x1F NOT PUSH1 0x1F DUP3 ADD AND DUP3 ADD DUP1 PUSH1 0x40 MSTORE POP PUSH3 0xA24 SWAP2 SWAP1 DUP2 ADD SWAP1 PUSH3 0x3FA6 JUMP JUMPDEST POP PUSH3 0xA37 DUP7 DUP3 PUSH4 0xFFFFFFFF PUSH3 0x3A69 AND JUMP JUMPDEST SWAP6 POP POP POP POP POP JUMPDEST PUSH1 0x1 ADD PUSH3 0x7D0 JUMP JUMPDEST POP PUSH2 0x160 DUP6 ADD MLOAD DUP2 SWAP1 SUB DUP1 ISZERO PUSH3 0xBC7 JUMPI DUP5 MLOAD PUSH1 0x40 MLOAD PUSH4 0xE1F21C67 PUSH1 0xE0 SHL DUP2 MSTORE PUSH1 0x1 PUSH1 0x1 PUSH1 0xA0 SHL SUB SWAP1 SWAP2 AND SWAP1 PUSH4 0xE1F21C67 SWAP1 PUSH3 0xA8D SWAP1 DUP7 SWAP1 ADDRESS SWAP1 DUP7 SWAP1 PUSH1 0x4 ADD PUSH3 0x47C0 JUMP JUMPDEST PUSH1 0x0 PUSH1 0x40 MLOAD DUP1 DUP4 SUB DUP2 PUSH1 0x0 DUP8 DUP1 EXTCODESIZE ISZERO DUP1 ISZERO PUSH3 0xAA8 JUMPI PUSH1 0x0 DUP1 REVERT JUMPDEST POP GAS CALL ISZERO DUP1 ISZERO PUSH3 0xABD JUMPI RETURNDATASIZE PUSH1 0x0 DUP1 RETURNDATACOPY RETURNDATASIZE PUSH1 0x0 REVERT JUMPDEST POP POP POP POP DUP3 PUSH1 0x1 PUSH1 0x1 PUSH1 0xA0 SHL SUB AND PUSH4 0x23B872DD DUP7 PUSH1 0x0 ADD MLOAD PUSH1 0x1 PUSH1 0x1 PUSH1 0xA0 SHL SUB AND PUSH4 0x26B1D5F PUSH1 0x40 MLOAD DUP2 PUSH4 0xFFFFFFFF AND PUSH1 0xE0 SHL DUP2 MSTORE PUSH1 0x4 ADD PUSH1 0x20 PUSH1 0x40 MLOAD DUP1 DUP4 SUB DUP2 DUP7 DUP1 EXTCODESIZE ISZERO DUP1 ISZERO PUSH3 0xB0E JUMPI PUSH1 0x0 DUP1 REVERT JUMPDEST POP GAS STATICCALL ISZERO DUP1 ISZERO PUSH3 0xB23 JUMPI RETURNDATASIZE PUSH1 0x0 DUP1 RETURNDATACOPY RETURNDATASIZE PUSH1 0x0 REVERT JUMPDEST POP POP POP POP PUSH1 0x40 MLOAD RETURNDATASIZE PUSH1 0x1F NOT PUSH1 0x1F DUP3 ADD AND DUP3 ADD DUP1 PUSH1 0x40 MSTORE POP PUSH3 0xB49 SWAP2 SWAP1 DUP2 ADD SWAP1 PUSH3 0x3F85 JUMP JUMPDEST DUP8 PUSH1 0x40 ADD MLOAD DUP5 PUSH1 0x40 MLOAD DUP5 PUSH4 0xFFFFFFFF AND PUSH1 0xE0 SHL DUP2 MSTORE PUSH1 0x4 ADD PUSH3 0xB6F SWAP4 SWAP3 SWAP2 SWAP1 PUSH3 0x4632 JUMP JUMPDEST PUSH1 0x20 PUSH1 0x40 MLOAD DUP1 DUP4 SUB DUP2 PUSH1 0x0 DUP8 DUP1 EXTCODESIZE ISZERO DUP1 ISZERO PUSH3 0xB8A JUMPI PUSH1 0x0 DUP1 REVERT JUMPDEST POP GAS CALL ISZERO DUP1 ISZERO PUSH3 0xB9F JUMPI RETURNDATASIZE PUSH1 0x0 DUP1 RETURNDATACOPY RETURNDATASIZE PUSH1 0x0 REVERT JUMPDEST POP POP POP POP PUSH1 0x40 MLOAD RETURNDATASIZE PUSH1 0x1F NOT PUSH1 0x1F DUP3 ADD AND DUP3 ADD DUP1 PUSH1 0x40 MSTORE POP PUSH3 0xBC5 SWAP2 SWAP1 DUP2 ADD SWAP1 PUSH3 0x3FA6 JUMP JUMPDEST POP JUMPDEST SWAP8 SWAP7 POP POP POP POP POP POP POP JUMP JUMPDEST PUSH1 0x0 SLOAD PUSH1 0x1 PUSH1 0x1 PUSH1 0xA0 SHL SUB AND CALLER EQ PUSH3 0xC08 JUMPI PUSH1 0x40 MLOAD PUSH3 0x461BCD PUSH1 0xE5 SHL DUP2 MSTORE PUSH1 0x4 ADD PUSH3 0xBFF SWAP1 PUSH3 0x496F JUMP JUMPDEST PUSH1 0x40 MLOAD DUP1 SWAP2 SUB SWAP1 REVERT JUMPDEST PUSH1 0x2 SSTORE JUMP JUMPDEST PUSH1 0x0 PUSH3 0xC19 PUSH3 0x3B01 JUMP JUMPDEST PUSH1 0x3 DUP5 PUSH1 0x40 MLOAD PUSH3 0xC2B SWAP2 SWAP1 PUSH3 0x461D JUMP JUMPDEST SWAP1 DUP2 MSTORE PUSH1 0x40 DUP1 MLOAD PUSH1 0x20 SWAP3 DUP2 SWAP1 SUB DUP4 ADD DUP2 KECCAK256 DUP1 SLOAD PUSH1 0x2 PUSH1 0x1 DUP3 AND ISZERO PUSH2 0x100 MUL PUSH1 0x0 NOT ADD SWAP1 SWAP2 AND DIV PUSH1 0x1F DUP2 ADD DUP6 SWAP1 DIV SWAP1 SWAP5 MUL DUP3 ADD PUSH2 0x1A0 SWAP1 DUP2 ADD SWAP1 SWAP4 MSTORE PUSH2 0x180 DUP3 ADD DUP5 DUP2 MSTORE SWAP2 SWAP4 SWAP1 SWAP3 DUP5 SWAP3 SWAP2 DUP5 SWAP2 DUP5 ADD DUP3 DUP3 DUP1 ISZERO PUSH3 0xCCC JUMPI DUP1 PUSH1 0x1F LT PUSH3 0xCA0 JUMPI PUSH2 0x100 DUP1 DUP4 SLOAD DIV MUL DUP4 MSTORE SWAP2 PUSH1 0x20 ADD SWAP2 PUSH3 0xCCC JUMP JUMPDEST DUP3 ADD SWAP2 SWAP1 PUSH1 0x0 MSTORE PUSH1 0x20 PUSH1 0x0 KECCAK256 SWAP1 JUMPDEST DUP2 SLOAD DUP2 MSTORE SWAP1 PUSH1 0x1 ADD SWAP1 PUSH1 0x20 ADD DUP1 DUP4 GT PUSH3 0xCAE JUMPI DUP3 SWAP1 SUB PUSH1 0x1F AND DUP3 ADD SWAP2 JUMPDEST POP POP POP SWAP2 DUP4 MSTORE POP POP PUSH1 0x1 DUP3 DUP2 ADD SLOAD PUSH1 0x1 PUSH1 0x1 PUSH1 0xA0 SHL SUB SWAP1 DUP2 AND PUSH1 0x20 DUP1 DUP6 ADD SWAP2 SWAP1 SWAP2 MSTORE PUSH1 0x2 DUP1 DUP7 ADD SLOAD SWAP1 SWAP3 AND PUSH1 0x40 DUP1 DUP7 ADD SWAP2 SWAP1 SWAP2 MSTORE PUSH1 0x3 DUP7 ADD DUP1 SLOAD DUP3 MLOAD PUSH2 0x100 SWAP7 DUP3 AND ISZERO SWAP7 SWAP1 SWAP7 MUL PUSH1 0x0 NOT ADD AND SWAP4 SWAP1 SWAP4 DIV PUSH1 0x1F DUP2 ADD DUP4 SWAP1 DIV DUP4 MUL DUP6 ADD DUP4 ADD SWAP1 SWAP2 MSTORE DUP1 DUP5 MSTORE PUSH1 0x60 SWAP1 SWAP5 ADD SWAP4 SWAP1 DUP4 ADD DUP3 DUP3 DUP1 ISZERO PUSH3 0xD8B JUMPI DUP1 PUSH1 0x1F LT PUSH3 0xD5F JUMPI PUSH2 0x100 DUP1 DUP4 SLOAD DIV MUL DUP4 MSTORE SWAP2 PUSH1 0x20 ADD SWAP2 PUSH3 0xD8B JUMP JUMPDEST DUP3 ADD SWAP2 SWAP1 PUSH1 0x0 MSTORE PUSH1 0x20 PUSH1 0x0 KECCAK256 SWAP1 JUMPDEST DUP2 SLOAD DUP2 MSTORE SWAP1 PUSH1 0x1 ADD SWAP1 PUSH1 0x20 ADD DUP1 DUP4 GT PUSH3 0xD6D JUMPI DUP3 SWAP1 SUB PUSH1 0x1F AND DUP3 ADD SWAP2 JUMPDEST POP POP POP POP POP DUP2 MSTORE PUSH1 0x20 ADD PUSH1 0x4 DUP3 ADD SLOAD DUP2 MSTORE PUSH1 0x20 ADD PUSH1 0x5 DUP3 ADD SLOAD DUP2 MSTORE PUSH1 0x20 ADD PUSH1 0x6 DUP3 ADD SLOAD DUP2 MSTORE PUSH1 0x20 ADD PUSH1 0x7 DUP3 ADD SLOAD DUP2 MSTORE PUSH1 0x20 ADD PUSH1 0x8 DUP3 ADD SLOAD DUP2 MSTORE PUSH1 0x20 ADD PUSH1 0x9 DUP3 ADD SLOAD DUP2 MSTORE PUSH1 0x20 ADD PUSH1 0xA DUP3 ADD SLOAD DUP2 MSTORE PUSH1 0x20 ADD PUSH1 0xB DUP3 ADD SLOAD DUP2 MSTORE POP POP SWAP1 POP PUSH3 0xDF0 PUSH3 0x3B74 JUMP JUMPDEST PUSH1 0x6 DUP6 PUSH1 0x40 MLOAD PUSH3 0xE02 SWAP2 SWAP1 PUSH3 0x461D JUMP JUMPDEST SWAP1 DUP2 MSTORE PUSH1 0x40 DUP1 MLOAD PUSH1 0x20 SWAP3 DUP2 SWAP1 SUB DUP4 ADD DUP2 KECCAK256 PUSH1 0xC0 DUP3 ADD DUP4 MSTORE DUP1 SLOAD PUSH1 0x1 PUSH1 0x1 PUSH1 0xA0 SHL SUB SWAP1 DUP2 AND DUP1 DUP5 MSTORE PUSH1 0x1 DUP4 ADD SLOAD DUP3 AND SWAP6 DUP5 ADD SWAP6 SWAP1 SWAP6 MSTORE PUSH1 0x2 DUP1 DUP4 ADD SLOAD SWAP1 SWAP2 AND SWAP4 DUP4 ADD SWAP4 SWAP1 SWAP4 MSTORE PUSH1 0x3 DUP2 ADD SLOAD PUSH1 0x60 DUP4 ADD MSTORE PUSH1 0x4 DUP2 ADD SLOAD PUSH1 0x80 DUP4 ADD MSTORE PUSH1 0x5 ADD SLOAD PUSH1 0xA0 DUP3 ADD MSTORE SWAP3 POP PUSH1 0x0 SWAP1 PUSH3 0xE7E SWAP1 PUSH1 0x64 SWAP1 PUSH3 0x834 SWAP1 DUP10 SWAP1 PUSH3 0x3A8F JUMP JUMPDEST SWAP1 POP DUP1 ISZERO PUSH3 0xEF2 JUMPI PUSH1 0x40 MLOAD PUSH4 0x4F95A04B PUSH1 0xE0 SHL DUP2 MSTORE PUSH1 0x1 PUSH1 0x1 PUSH1 0xA0 SHL SUB DUP4 AND SWAP1 PUSH4 0x4F95A04B SWAP1 PUSH3 0xEB8 SWAP1 PUSH1 0x0 SWAP1 DUP6 SWAP1 PUSH1 0x4 ADD PUSH3 0x467F JUMP JUMPDEST PUSH1 0x0 PUSH1 0x40 MLOAD DUP1 DUP4 SUB DUP2 PUSH1 0x0 DUP8 DUP1 EXTCODESIZE ISZERO DUP1 ISZERO PUSH3 0xED3 JUMPI PUSH1 0x0 DUP1 REVERT JUMPDEST POP GAS CALL ISZERO DUP1 ISZERO PUSH3 0xEE8 JUMPI RETURNDATASIZE PUSH1 0x0 DUP1 RETURNDATACOPY RETURNDATASIZE PUSH1 0x0 REVERT JUMPDEST POP POP POP POP DUP1 DUP7 SUB SWAP6 POP JUMPDEST PUSH1 0x80 DUP4 ADD MLOAD PUSH1 0x20 DUP6 ADD MLOAD PUSH1 0x40 MLOAD PUSH4 0x4F95A04B PUSH1 0xE0 SHL DUP2 MSTORE DUP4 DUP10 SUB SWAP3 SWAP1 SWAP3 SUB SWAP2 PUSH1 0x1 PUSH1 0x1 PUSH1 0xA0 SHL SUB DUP6 AND SWAP2 PUSH4 0x4F95A04B SWAP2 PUSH3 0xF33 SWAP2 SWAP1 DUP6 SWAP1 PUSH1 0x4 ADD PUSH3 0x467F JUMP JUMPDEST PUSH1 0x0 PUSH1 0x40 MLOAD DUP1 DUP4 SUB DUP2 PUSH1 0x0 DUP8 DUP1 EXTCODESIZE ISZERO DUP1 ISZERO PUSH3 0xF4E JUMPI PUSH1 0x0 DUP1 REVERT JUMPDEST POP GAS CALL ISZERO DUP1 ISZERO PUSH3 0xF63 JUMPI RETURNDATASIZE PUSH1 0x0 DUP1 RETURNDATACOPY RETURNDATASIZE PUSH1 0x0 REVERT JUMPDEST POP SWAP4 SWAP8 POP POP POP POP POP POP POP POP JUMPDEST SWAP3 SWAP2 POP POP JUMP JUMPDEST DUP1 MLOAD PUSH1 0x20 DUP2 DUP4 ADD DUP2 ADD DUP1 MLOAD PUSH1 0x3 DUP3 MSTORE SWAP3 DUP3 ADD SWAP4 DUP3 ADD SWAP4 SWAP1 SWAP4 KECCAK256 SWAP2 SWAP1 SWAP3 MSTORE DUP1 SLOAD PUSH1 0x40 DUP1 MLOAD PUSH1 0x2 PUSH1 0x1 DUP5 AND ISZERO PUSH2 0x100 MUL PUSH1 0x0 NOT ADD SWAP1 SWAP4 AND SWAP3 SWAP1 SWAP3 DIV PUSH1 0x1F DUP2 ADD DUP6 SWAP1 DIV DUP6 MUL DUP4 ADD DUP6 ADD SWAP1 SWAP2 MSTORE DUP1 DUP3 MSTORE SWAP2 SWAP3 SWAP1 SWAP2 DUP4 SWAP2 DUP4 ADD DUP3 DUP3 DUP1 ISZERO PUSH3 0x101C JUMPI DUP1 PUSH1 0x1F LT PUSH3 0xFF0 JUMPI PUSH2 0x100 DUP1 DUP4 SLOAD DIV MUL DUP4 MSTORE SWAP2 PUSH1 0x20 ADD SWAP2 PUSH3 0x101C JUMP JUMPDEST DUP3 ADD SWAP2 SWAP1 PUSH1 0x0 MSTORE PUSH1 0x20 PUSH1 0x0 KECCAK256 SWAP1 JUMPDEST DUP2 SLOAD DUP2 MSTORE SWAP1 PUSH1 0x1 ADD SWAP1 PUSH1 0x20 ADD DUP1 DUP4 GT PUSH3 0xFFE JUMPI DUP3 SWAP1 SUB PUSH1 0x1F AND DUP3 ADD SWAP2 JUMPDEST POP POP POP PUSH1 0x1 DUP1 DUP6 ADD SLOAD PUSH1 0x2 DUP1 DUP8 ADD SLOAD PUSH1 0x3 DUP9 ADD DUP1 SLOAD PUSH1 0x40 DUP1 MLOAD PUSH1 0x20 PUSH1 0x1F PUSH1 0x0 NOT SWAP10 DUP6 AND ISZERO PUSH2 0x100 MUL SWAP10 SWAP1 SWAP10 ADD SWAP1 SWAP4 AND SWAP6 SWAP1 SWAP6 DIV SWAP7 DUP8 ADD DUP3 SWAP1 DIV DUP3 MUL DUP6 ADD DUP3 ADD SWAP1 MSTORE DUP6 DUP5 MSTORE SWAP8 SWAP9 PUSH1 0x1 PUSH1 0x1 PUSH1 0xA0 SHL SUB SWAP5 DUP6 AND SWAP9 SWAP3 SWAP1 SWAP5 AND SWAP7 POP SWAP3 SWAP5 POP SWAP1 SWAP3 SWAP1 DUP4 ADD DUP3 DUP3 DUP1 ISZERO PUSH3 0x10CF JUMPI DUP1 PUSH1 0x1F LT PUSH3 0x10A3 JUMPI PUSH2 0x100 DUP1 DUP4 SLOAD DIV MUL DUP4 MSTORE SWAP2 PUSH1 0x20 ADD SWAP2 PUSH3 0x10CF JUMP JUMPDEST DUP3 ADD SWAP2 SWAP1 PUSH1 0x0 MSTORE PUSH1 0x20 PUSH1 0x0 KECCAK256 SWAP1 JUMPDEST DUP2 SLOAD DUP2 MSTORE SWAP1 PUSH1 0x1 ADD SWAP1 PUSH1 0x20 ADD DUP1 DUP4 GT PUSH3 0x10B1 JUMPI DUP3 SWAP1 SUB PUSH1 0x1F AND DUP3 ADD SWAP2 JUMPDEST POP POP POP POP POP SWAP1 DUP1 PUSH1 0x4 ADD SLOAD SWAP1 DUP1 PUSH1 0x5 ADD SLOAD SWAP1 DUP1 PUSH1 0x6 ADD SLOAD SWAP1 DUP1 PUSH1 0x7 ADD SLOAD SWAP1 DUP1 PUSH1 0x8 ADD SLOAD SWAP1 DUP1 PUSH1 0x9 ADD SLOAD SWAP1 DUP1 PUSH1 0xA ADD SLOAD SWAP1 DUP1 PUSH1 0xB ADD SLOAD SWAP1 POP DUP13 JUMP JUMPDEST PUSH1 0x0 DUP1 DUP1 DUP1 DUP1 JUMPDEST PUSH1 0x4 DUP7 PUSH1 0x40 MLOAD PUSH3 0x1122 SWAP2 SWAP1 PUSH3 0x461D JUMP JUMPDEST SWAP1 DUP2 MSTORE PUSH1 0x40 MLOAD SWAP1 DUP2 SWAP1 SUB PUSH1 0x20 ADD SWAP1 KECCAK256 SLOAD DUP2 LT ISZERO PUSH3 0x11E4 JUMPI PUSH3 0x1144 PUSH3 0x3BC5 JUMP JUMPDEST PUSH1 0x4 DUP8 PUSH1 0x40 MLOAD PUSH3 0x1156 SWAP2 SWAP1 PUSH3 0x461D JUMP JUMPDEST SWAP1 DUP2 MSTORE PUSH1 0x20 ADD PUSH1 0x40 MLOAD DUP1 SWAP2 SUB SWAP1 KECCAK256 DUP3 DUP2 SLOAD DUP2 LT PUSH3 0x1170 JUMPI INVALID JUMPDEST PUSH1 0x0 SWAP2 DUP3 MSTORE PUSH1 0x20 SWAP2 DUP3 SWAP1 KECCAK256 PUSH1 0x40 DUP1 MLOAD PUSH1 0x80 DUP2 ADD DUP3 MSTORE PUSH1 0x4 SWAP1 SWAP4 MUL SWAP1 SWAP2 ADD DUP1 SLOAD PUSH1 0x1 PUSH1 0x1 PUSH1 0xA0 SHL SUB AND DUP4 MSTORE PUSH1 0x1 DUP2 ADD SLOAD SWAP4 DUP4 ADD SWAP4 SWAP1 SWAP4 MSTORE PUSH1 0x2 DUP4 ADD SLOAD SWAP1 DUP3 ADD MSTORE PUSH1 0x3 SWAP1 SWAP2 ADD SLOAD PUSH1 0xFF AND ISZERO ISZERO PUSH1 0x60 DUP3 ADD DUP2 SWAP1 MSTORE SWAP1 SWAP2 POP PUSH3 0x11DA JUMPI PUSH1 0x20 DUP2 ADD MLOAD SWAP4 SWAP1 SWAP4 ADD SWAP3 PUSH1 0x1 SWAP1 SWAP3 ADD SWAP2 JUMPDEST POP PUSH1 0x1 ADD PUSH3 0x1110 JUMP JUMPDEST POP SWAP3 POP SWAP1 POP SWAP2 POP SWAP2 JUMP JUMPDEST DUP2 MLOAD PUSH1 0x20 DUP2 DUP5 ADD DUP2 ADD DUP1 MLOAD PUSH1 0x4 DUP3 MSTORE SWAP3 DUP3 ADD SWAP2 DUP6 ADD SWAP2 SWAP1 SWAP2 KECCAK256 SWAP2 SWAP1 MSTORE DUP1 SLOAD DUP3 SWAP1 DUP2 LT PUSH3 0x1217 JUMPI INVALID JUMPDEST PUSH1 0x0 SWAP2 DUP3 MSTORE PUSH1 0x20 SWAP1 SWAP2 KECCAK256 PUSH1 0x4 SWAP1 SWAP2 MUL ADD DUP1 SLOAD PUSH1 0x1 DUP3 ADD SLOAD PUSH1 0x2 DUP4 ADD SLOAD PUSH1 0x3 SWAP1 SWAP4 ADD SLOAD PUSH1 0x1 PUSH1 0x1 PUSH1 0xA0 SHL SUB SWAP1 SWAP3 AND SWAP5 POP SWAP3 POP PUSH1 0xFF AND DUP5 JUMP JUMPDEST TIMESTAMP JUMPDEST SWAP1 JUMP JUMPDEST DUP1 MLOAD MLOAD PUSH3 0x1260 JUMPI PUSH1 0x0 DUP1 REVERT JUMPDEST PUSH3 0x126A PUSH3 0x3BF8 JUMP JUMPDEST POP PUSH1 0x40 DUP1 MLOAD PUSH1 0x60 DUP2 ADD DUP3 MSTORE PUSH1 0x0 DUP1 DUP3 MSTORE PUSH1 0x20 DUP3 ADD DUP2 SWAP1 MSTORE DUP2 DUP4 ADD MSTORE DUP3 MLOAD SWAP2 MLOAD SWAP1 SWAP2 DUP4 SWAP2 PUSH1 0x3 SWAP2 PUSH3 0x129B SWAP2 PUSH3 0x461D JUMP JUMPDEST SWAP1 DUP2 MSTORE PUSH1 0x20 ADD PUSH1 0x40 MLOAD DUP1 SWAP2 SUB SWAP1 KECCAK256 PUSH1 0x0 DUP3 ADD MLOAD DUP2 PUSH1 0x0 ADD SWAP1 DUP1 MLOAD SWAP1 PUSH1 0x20 ADD SWAP1 PUSH3 0x12C7 SWAP3 SWAP2 SWAP1 PUSH3 0x3C18 JUMP JUMPDEST POP PUSH1 0x20 DUP3 DUP2 ADD MLOAD PUSH1 0x1 DUP4 ADD DUP1 SLOAD PUSH1 0x1 PUSH1 0x1 PUSH1 0xA0 SHL SUB SWAP3 DUP4 AND PUSH1 0x1 PUSH1 0x1 PUSH1 0xA0 SHL SUB NOT SWAP2 DUP3 AND OR SWAP1 SWAP2 SSTORE PUSH1 0x40 DUP6 ADD MLOAD PUSH1 0x2 DUP6 ADD DUP1 SLOAD SWAP2 SWAP1 SWAP4 AND SWAP2 AND OR SWAP1 SSTORE PUSH1 0x60 DUP4 ADD MLOAD DUP1 MLOAD PUSH3 0x131C SWAP3 PUSH1 0x3 DUP6 ADD SWAP3 ADD SWAP1 PUSH3 0x3C18 JUMP JUMPDEST POP PUSH1 0x80 DUP3 ADD MLOAD DUP2 PUSH1 0x4 ADD SSTORE PUSH1 0xA0 DUP3 ADD MLOAD DUP2 PUSH1 0x5 ADD SSTORE PUSH1 0xC0 DUP3 ADD MLOAD DUP2 PUSH1 0x6 ADD SSTORE PUSH1 0xE0 DUP3 ADD MLOAD DUP2 PUSH1 0x7 ADD SSTORE PUSH2 0x100 DUP3 ADD MLOAD DUP2 PUSH1 0x8 ADD SSTORE PUSH2 0x120 DUP3 ADD MLOAD DUP2 PUSH1 0x9 ADD SSTORE PUSH2 0x140 DUP3 ADD MLOAD DUP2 PUSH1 0xA ADD SSTORE PUSH2 0x160 DUP3 ADD MLOAD DUP2 PUSH1 0xB ADD SSTORE SWAP1 POP POP DUP1 PUSH1 0x5 DUP4 PUSH1 0x0 ADD MLOAD PUSH1 0x40 MLOAD PUSH3 0x138B SWAP2 SWAP1 PUSH3 0x461D JUMP JUMPDEST SWAP1 DUP2 MSTORE PUSH1 0x40 DUP1 MLOAD SWAP2 DUP3 SWAP1 SUB PUSH1 0x20 SWAP1 DUP2 ADD DUP4 KECCAK256 DUP5 MLOAD DUP2 SLOAD SWAP3 DUP7 ADD MLOAD SWAP6 SWAP1 SWAP4 ADD MLOAD ISZERO ISZERO PUSH3 0x10000 MUL PUSH3 0xFF0000 NOT SWAP6 ISZERO ISZERO PUSH2 0x100 MUL PUSH2 0xFF00 NOT SWAP5 ISZERO ISZERO PUSH1 0xFF NOT SWAP1 SWAP5 AND SWAP4 SWAP1 SWAP4 OR SWAP4 SWAP1 SWAP4 AND SWAP2 SWAP1 SWAP2 OR SWAP4 SWAP1 SWAP4 AND OR SWAP1 SWAP2 SSTORE DUP3 MLOAD PUSH1 0x0 SWAP2 PUSH3 0x13EE SWAP1 PUSH3 0x3C9D JUMP JUMPDEST PUSH3 0x13FA SWAP2 SWAP1 PUSH3 0x47F5 JUMP JUMPDEST PUSH1 0x40 MLOAD DUP1 SWAP2 SUB SWAP1 PUSH1 0x0 CREATE DUP1 ISZERO DUP1 ISZERO PUSH3 0x1417 JUMPI RETURNDATASIZE PUSH1 0x0 DUP1 RETURNDATACOPY RETURNDATASIZE PUSH1 0x0 REVERT JUMPDEST POP PUSH1 0x40 DUP1 DUP6 ADD MLOAD SWAP1 MLOAD PUSH4 0x144FA6D7 PUSH1 0xE0 SHL DUP2 MSTORE SWAP2 SWAP3 POP SWAP1 PUSH1 0x1 PUSH1 0x1 PUSH1 0xA0 SHL SUB DUP4 AND SWAP1 PUSH4 0x144FA6D7 SWAP1 PUSH3 0x144F SWAP1 DUP5 SWAP1 PUSH1 0x4 ADD PUSH3 0x47B0 JUMP JUMPDEST PUSH1 0x0 PUSH1 0x40 MLOAD DUP1 DUP4 SUB DUP2 PUSH1 0x0 DUP8 DUP1 EXTCODESIZE ISZERO DUP1 ISZERO PUSH3 0x146A JUMPI PUSH1 0x0 DUP1 REVERT JUMPDEST POP GAS CALL ISZERO DUP1 ISZERO PUSH3 0x147F JUMPI RETURNDATASIZE PUSH1 0x0 DUP1 RETURNDATACOPY RETURNDATASIZE PUSH1 0x0 REVERT JUMPDEST POP POP PUSH1 0x1 SLOAD PUSH1 0x40 MLOAD PUSH4 0xACB3C073 PUSH1 0xE0 SHL DUP2 MSTORE PUSH1 0x1 PUSH1 0x1 PUSH1 0xA0 SHL SUB DUP1 DUP8 AND SWAP5 POP PUSH4 0xACB3C073 SWAP4 POP PUSH3 0x14B5 SWAP3 AND SWAP1 PUSH1 0x4 ADD PUSH3 0x47B0 JUMP JUMPDEST PUSH1 0x0 PUSH1 0x40 MLOAD DUP1 DUP4 SUB DUP2 PUSH1 0x0 DUP8 DUP1 EXTCODESIZE ISZERO DUP1 ISZERO PUSH3 0x14D0 JUMPI PUSH1 0x0 DUP1 REVERT JUMPDEST POP GAS CALL ISZERO DUP1 ISZERO PUSH3 0x14E5 JUMPI RETURNDATASIZE PUSH1 0x0 DUP1 RETURNDATACOPY RETURNDATASIZE PUSH1 0x0 REVERT JUMPDEST POP POP POP POP PUSH3 0x14F3 PUSH3 0x3B74 JUMP JUMPDEST PUSH1 0x40 MLOAD DUP1 PUSH1 0xC0 ADD PUSH1 0x40 MSTORE DUP1 DUP5 PUSH1 0x1 PUSH1 0x1 PUSH1 0xA0 SHL SUB AND DUP2 MSTORE PUSH1 0x20 ADD DUP4 PUSH1 0x1 PUSH1 0x1 PUSH1 0xA0 SHL SUB AND DUP2 MSTORE PUSH1 0x20 ADD PUSH1 0x0 PUSH1 0x1 PUSH1 0x1 PUSH1 0xA0 SHL SUB AND DUP2 MSTORE PUSH1 0x20 ADD PUSH1 0x0 DUP2 MSTORE PUSH1 0x20 ADD PUSH1 0x0 DUP2 MSTORE PUSH1 0x20 ADD PUSH1 0x0 DUP2 MSTORE POP SWAP1 POP DUP1 PUSH1 0x6 DUP7 PUSH1 0x0 ADD MLOAD PUSH1 0x40 MLOAD PUSH3 0x1558 SWAP2 SWAP1 PUSH3 0x461D JUMP JUMPDEST SWAP1 DUP2 MSTORE PUSH1 0x40 DUP1 MLOAD PUSH1 0x20 SWAP3 DUP2 SWAP1 SUB DUP4 ADD DUP2 KECCAK256 DUP5 MLOAD DUP2 SLOAD PUSH1 0x1 PUSH1 0x1 PUSH1 0xA0 SHL SUB NOT SWAP1 DUP2 AND PUSH1 0x1 PUSH1 0x1 PUSH1 0xA0 SHL SUB SWAP3 DUP4 AND OR DUP4 SSTORE SWAP5 DUP7 ADD MLOAD PUSH1 0x1 DUP4 ADD DUP1 SLOAD DUP8 AND SWAP2 DUP4 AND SWAP2 SWAP1 SWAP2 OR SWAP1 SSTORE SWAP3 DUP6 ADD MLOAD PUSH1 0x2 DUP3 ADD DUP1 SLOAD SWAP1 SWAP6 AND SWAP4 AND SWAP3 SWAP1 SWAP3 OR SWAP1 SWAP3 SSTORE PUSH1 0x60 DUP4 ADD MLOAD PUSH1 0x3 DUP3 ADD SSTORE PUSH1 0x80 DUP4 ADD MLOAD PUSH1 0x4 DUP3 ADD SSTORE PUSH1 0xA0 SWAP1 SWAP3 ADD MLOAD PUSH1 0x5 SWAP1 SWAP3 ADD SWAP2 SWAP1 SWAP2 SSTORE DUP6 MLOAD PUSH32 0xF7E24B64C3D2ED7D191CE3009C2E12632005B58578CE39E23F97EAEC9FD6C3E1 SWAP2 PUSH3 0x1607 SWAP2 SWAP1 DUP7 SWAP1 PUSH3 0x4903 JUMP JUMPDEST PUSH1 0x40 MLOAD DUP1 SWAP2 SUB SWAP1 LOG1 POP POP POP POP POP JUMP JUMPDEST PUSH3 0x1620 PUSH3 0x3B01 JUMP JUMPDEST PUSH1 0x3 DUP3 PUSH1 0x40 MLOAD PUSH3 0x1632 SWAP2 SWAP1 PUSH3 0x461D JUMP JUMPDEST SWAP1 DUP2 MSTORE PUSH1 0x40 DUP1 MLOAD PUSH1 0x20 SWAP3 DUP2 SWAP1 SUB DUP4 ADD DUP2 KECCAK256 DUP1 SLOAD PUSH1 0x2 PUSH1 0x1 DUP3 AND ISZERO PUSH2 0x100 MUL PUSH1 0x0 NOT ADD SWAP1 SWAP2 AND DIV PUSH1 0x1F DUP2 ADD DUP6 SWAP1 DIV SWAP1 SWAP5 MUL DUP3 ADD PUSH2 0x1A0 SWAP1 DUP2 ADD SWAP1 SWAP4 MSTORE PUSH2 0x180 DUP3 ADD DUP5 DUP2 MSTORE SWAP2 SWAP4 SWAP1 SWAP3 DUP5 SWAP3 SWAP2 DUP5 SWAP2 DUP5 ADD DUP3 DUP3 DUP1 ISZERO PUSH3 0x16D3 JUMPI DUP1 PUSH1 0x1F LT PUSH3 0x16A7 JUMPI PUSH2 0x100 DUP1 DUP4 SLOAD DIV MUL DUP4 MSTORE SWAP2 PUSH1 0x20 ADD SWAP2 PUSH3 0x16D3 JUMP JUMPDEST DUP3 ADD SWAP2 SWAP1 PUSH1 0x0 MSTORE PUSH1 0x20 PUSH1 0x0 KECCAK256 SWAP1 JUMPDEST DUP2 SLOAD DUP2 MSTORE SWAP1 PUSH1 0x1 ADD SWAP1 PUSH1 0x20 ADD DUP1 DUP4 GT PUSH3 0x16B5 JUMPI DUP3 SWAP1 SUB PUSH1 0x1F AND DUP3 ADD SWAP2 JUMPDEST POP POP POP SWAP2 DUP4 MSTORE POP POP PUSH1 0x1 DUP3 DUP2 ADD SLOAD PUSH1 0x1 PUSH1 0x1 PUSH1 0xA0 SHL SUB SWAP1 DUP2 AND PUSH1 0x20 DUP1 DUP6 ADD SWAP2 SWAP1 SWAP2 MSTORE PUSH1 0x2 DUP1 DUP7 ADD SLOAD SWAP1 SWAP3 AND PUSH1 0x40 DUP1 DUP7 ADD SWAP2 SWAP1 SWAP2 MSTORE PUSH1 0x3 DUP7 ADD DUP1 SLOAD DUP3 MLOAD PUSH2 0x100 SWAP7 DUP3 AND ISZERO SWAP7 SWAP1 SWAP7 MUL PUSH1 0x0 NOT ADD AND SWAP4 SWAP1 SWAP4 DIV PUSH1 0x1F DUP2 ADD DUP4 SWAP1 DIV DUP4 MUL DUP6 ADD DUP4 ADD SWAP1 SWAP2 MSTORE DUP1 DUP5 MSTORE PUSH1 0x60 SWAP1 SWAP5 ADD SWAP4 SWAP1 DUP4 ADD DUP3 DUP3 DUP1 ISZERO PUSH3 0x1792 JUMPI DUP1 PUSH1 0x1F LT PUSH3 0x1766 JUMPI PUSH2 0x100 DUP1 DUP4 SLOAD DIV MUL DUP4 MSTORE SWAP2 PUSH1 0x20 ADD SWAP2 PUSH3 0x1792 JUMP JUMPDEST DUP3 ADD SWAP2 SWAP1 PUSH1 0x0 MSTORE PUSH1 0x20 PUSH1 0x0 KECCAK256 SWAP1 JUMPDEST DUP2 SLOAD DUP2 MSTORE SWAP1 PUSH1 0x1 ADD SWAP1 PUSH1 0x20 ADD DUP1 DUP4 GT PUSH3 0x1774 JUMPI DUP3 SWAP1 SUB PUSH1 0x1F AND DUP3 ADD SWAP2 JUMPDEST POP POP POP POP POP DUP2 MSTORE PUSH1 0x20 ADD PUSH1 0x4 DUP3 ADD SLOAD DUP2 MSTORE PUSH1 0x20 ADD PUSH1 0x5 DUP3 ADD SLOAD DUP2 MSTORE PUSH1 0x20 ADD PUSH1 0x6 DUP3 ADD SLOAD DUP2 MSTORE PUSH1 0x20 ADD PUSH1 0x7 DUP3 ADD SLOAD DUP2 MSTORE PUSH1 0x20 ADD PUSH1 0x8 DUP3 ADD SLOAD DUP2 MSTORE PUSH1 0x20 ADD PUSH1 0x9 DUP3 ADD SLOAD DUP2 MSTORE PUSH1 0x20 ADD PUSH1 0xA DUP3 ADD SLOAD DUP2 MSTORE PUSH1 0x20 ADD PUSH1 0xB DUP3 ADD SLOAD DUP2 MSTORE POP POP SWAP1 POP PUSH3 0x17F7 PUSH3 0x3B74 JUMP JUMPDEST PUSH1 0x6 DUP4 PUSH1 0x40 MLOAD PUSH3 0x1809 SWAP2 SWAP1 PUSH3 0x461D JUMP JUMPDEST SWAP1 DUP2 MSTORE PUSH1 0x40 DUP1 MLOAD PUSH1 0x20 SWAP3 DUP2 SWAP1 SUB DUP4 ADD DUP2 KECCAK256 PUSH1 0xC0 DUP3 ADD DUP4 MSTORE DUP1 SLOAD PUSH1 0x1 PUSH1 0x1 PUSH1 0xA0 SHL SUB SWAP1 DUP2 AND DUP1 DUP5 MSTORE PUSH1 0x1 DUP4 ADD SLOAD DUP3 AND SWAP6 DUP5 ADD SWAP6 SWAP1 SWAP6 MSTORE PUSH1 0x2 DUP3 ADD SLOAD AND SWAP3 DUP3 ADD SWAP3 SWAP1 SWAP3 MSTORE PUSH1 0x3 DUP3 ADD SLOAD PUSH1 0x60 DUP3 ADD MSTORE PUSH1 0x4 DUP3 ADD SLOAD PUSH1 0x80 DUP3 ADD MSTORE PUSH1 0x5 SWAP1 SWAP2 ADD SLOAD PUSH1 0xA0 DUP3 ADD MSTORE SWAP2 POP PUSH1 0x0 PUSH3 0x187A PUSH1 0x3C PUSH3 0x3ACB JUMP JUMPDEST SWAP1 POP PUSH1 0x0 PUSH3 0x1889 DUP7 PUSH3 0x1109 JUMP JUMPDEST PUSH1 0x20 DUP7 ADD MLOAD PUSH1 0x1 SLOAD PUSH2 0x100 DUP10 ADD MLOAD PUSH1 0x40 MLOAD PUSH4 0xE1F21C67 PUSH1 0xE0 SHL DUP2 MSTORE SWAP4 SWAP6 POP PUSH1 0x1 PUSH1 0x1 PUSH1 0xA0 SHL SUB DUP1 DUP10 AND SWAP6 POP PUSH4 0xE1F21C67 SWAP5 PUSH3 0x18CE SWAP5 SWAP4 SWAP1 SWAP2 AND SWAP2 SWAP1 PUSH1 0x4 ADD PUSH3 0x47C0 JUMP JUMPDEST PUSH1 0x0 PUSH1 0x40 MLOAD DUP1 DUP4 SUB DUP2 PUSH1 0x0 DUP8 DUP1 EXTCODESIZE ISZERO DUP1 ISZERO PUSH3 0x18E9 JUMPI PUSH1 0x0 DUP1 REVERT JUMPDEST POP GAS CALL ISZERO DUP1 ISZERO PUSH3 0x18FE JUMPI RETURNDATASIZE PUSH1 0x0 DUP1 RETURNDATACOPY RETURNDATASIZE PUSH1 0x0 REVERT JUMPDEST POP POP POP POP PUSH1 0x0 PUSH3 0x1924 PUSH1 0x64 PUSH3 0x834 DUP9 PUSH2 0x140 ADD MLOAD DUP6 PUSH3 0x3A8F SWAP1 SWAP2 SWAP1 PUSH4 0xFFFFFFFF AND JUMP JUMPDEST PUSH1 0x1 SLOAD PUSH1 0x40 MLOAD PUSH4 0x4F95A04B PUSH1 0xE0 SHL DUP2 MSTORE SWAP2 SWAP3 POP PUSH1 0x1 PUSH1 0x1 PUSH1 0xA0 SHL SUB DUP1 DUP8 AND SWAP3 PUSH4 0x4F95A04B SWAP3 PUSH3 0x195B SWAP3 AND SWAP1 DUP6 SWAP1 PUSH1 0x4 ADD PUSH3 0x467F JUMP JUMPDEST PUSH1 0x0 PUSH1 0x40 MLOAD DUP1 DUP4 SUB DUP2 PUSH1 0x0 DUP8 DUP1 EXTCODESIZE ISZERO DUP1 ISZERO PUSH3 0x1976 JUMPI PUSH1 0x0 DUP1 REVERT JUMPDEST POP GAS CALL ISZERO DUP1 ISZERO PUSH3 0x198B JUMPI RETURNDATASIZE PUSH1 0x0 DUP1 RETURNDATACOPY RETURNDATASIZE PUSH1 0x0 REVERT JUMPDEST POP POP POP PUSH2 0x100 DUP8 ADD MLOAD DUP7 MLOAD PUSH1 0x40 MLOAD PUSH4 0xBB8A88BB PUSH1 0xE0 SHL DUP2 MSTORE PUSH1 0x0 SWAP4 POP DUP4 SWAP3 DUP4 SWAP3 PUSH1 0x1 PUSH1 0x1 PUSH1 0xA0 SHL SUB DUP11 AND SWAP3 PUSH4 0xBB8A88BB SWAP3 DUP9 SWAP3 PUSH3 0x19D2 SWAP3 DUP8 SWAP2 DUP3 SWAP2 DUP15 SWAP1 PUSH1 0x4 ADD PUSH3 0x49EB JUMP JUMPDEST PUSH1 0x60 PUSH1 0x40 MLOAD DUP1 DUP4 SUB DUP2 DUP6 DUP9 DUP1 EXTCODESIZE ISZERO DUP1 ISZERO PUSH3 0x19EC JUMPI PUSH1 0x0 DUP1 REVERT JUMPDEST POP GAS CALL ISZERO DUP1 ISZERO PUSH3 0x1A01 JUMPI RETURNDATASIZE PUSH1 0x0 DUP1 RETURNDATACOPY RETURNDATASIZE PUSH1 0x0 REVERT JUMPDEST POP POP POP POP POP PUSH1 0x40 MLOAD RETURNDATASIZE PUSH1 0x1F NOT PUSH1 0x1F DUP3 ADD AND DUP3 ADD DUP1 PUSH1 0x40 MSTORE POP PUSH3 0x1A28 SWAP2 SWAP1 DUP2 ADD SWAP1 PUSH3 0x4252 JUMP JUMPDEST PUSH1 0x60 DUP12 ADD DUP2 SWAP1 MSTORE PUSH1 0xA0 DUP12 ADD DUP4 SWAP1 MSTORE PUSH1 0x80 DUP12 ADD DUP3 SWAP1 MSTORE PUSH1 0x40 MLOAD SWAP3 SWAP6 POP SWAP1 SWAP4 POP SWAP2 POP DUP9 SWAP1 PUSH1 0x6 SWAP1 PUSH3 0x1A5A SWAP1 DUP14 SWAP1 PUSH3 0x461D JUMP JUMPDEST SWAP1 DUP2 MSTORE PUSH1 0x40 DUP1 MLOAD PUSH1 0x20 SWAP3 DUP2 SWAP1 SUB DUP4 ADD SWAP1 KECCAK256 DUP4 MLOAD DUP2 SLOAD PUSH1 0x1 PUSH1 0x1 PUSH1 0xA0 SHL SUB NOT SWAP1 DUP2 AND PUSH1 0x1 PUSH1 0x1 PUSH1 0xA0 SHL SUB SWAP3 DUP4 AND OR DUP4 SSTORE SWAP4 DUP6 ADD MLOAD PUSH1 0x1 DUP4 ADD DUP1 SLOAD DUP7 AND SWAP2 DUP4 AND SWAP2 SWAP1 SWAP2 OR SWAP1 SSTORE SWAP2 DUP5 ADD MLOAD PUSH1 0x2 DUP3 ADD DUP1 SLOAD SWAP1 SWAP5 AND SWAP3 AND SWAP2 SWAP1 SWAP2 OR SWAP1 SWAP2 SSTORE PUSH1 0x60 DUP3 ADD MLOAD PUSH1 0x3 DUP3 ADD SSTORE PUSH1 0x80 DUP3 ADD MLOAD PUSH1 0x4 DUP3 ADD SSTORE PUSH1 0xA0 SWAP1 SWAP2 ADD MLOAD PUSH1 0x5 SWAP1 SWAP2 ADD SSTORE POP POP POP POP POP POP POP POP POP POP JUMP JUMPDEST PUSH1 0x0 DUP1 SLOAD PUSH1 0x1 PUSH1 0x1 PUSH1 0xA0 SHL SUB AND CALLER EQ PUSH3 0x1B0E JUMPI PUSH1 0x40 MLOAD PUSH3 0x461BCD PUSH1 0xE5 SHL DUP2 MSTORE PUSH1 0x4 ADD PUSH3 0xBFF SWAP1 PUSH3 0x496F JUMP JUMPDEST PUSH3 0x1B18 PUSH3 0x3B74 JUMP JUMPDEST PUSH1 0x6 DUP5 DUP5 PUSH1 0x40 MLOAD PUSH3 0x1B2C SWAP3 SWAP2 SWAP1 PUSH3 0x460E JUMP JUMPDEST SWAP1 DUP2 MSTORE PUSH1 0x40 DUP1 MLOAD PUSH1 0x20 SWAP3 DUP2 SWAP1 SUB DUP4 ADD DUP2 KECCAK256 PUSH1 0xC0 DUP3 ADD DUP4 MSTORE DUP1 SLOAD PUSH1 0x1 PUSH1 0x1 PUSH1 0xA0 SHL SUB SWAP1 DUP2 AND DUP1 DUP5 MSTORE PUSH1 0x1 DUP4 ADD SLOAD DUP3 AND SWAP6 DUP5 ADD DUP7 SWAP1 MSTORE PUSH1 0x2 DUP4 ADD SLOAD SWAP1 SWAP2 AND DUP4 DUP6 ADD MSTORE PUSH1 0x3 DUP3 ADD SLOAD PUSH1 0x60 DUP5 ADD MSTORE PUSH1 0x4 DUP1 DUP4 ADD SLOAD PUSH1 0x80 DUP6 ADD MSTORE PUSH1 0x5 SWAP1 SWAP3 ADD SLOAD PUSH1 0xA0 DUP5 ADD MSTORE SWAP3 MLOAD PUSH4 0x776E4B35 PUSH1 0xE1 SHL DUP2 MSTORE SWAP2 SWAP5 POP SWAP2 SWAP3 SWAP2 DUP4 SWAP2 PUSH4 0xEEDC966A SWAP2 PUSH3 0x1BB4 SWAP2 DUP6 SWAP2 ADD PUSH3 0x47B0 JUMP JUMPDEST PUSH1 0x20 PUSH1 0x40 MLOAD DUP1 DUP4 SUB DUP2 DUP7 DUP1 EXTCODESIZE ISZERO DUP1 ISZERO PUSH3 0x1BCD JUMPI PUSH1 0x0 DUP1 REVERT JUMPDEST POP GAS STATICCALL ISZERO DUP1 ISZERO PUSH3 0x1BE2 JUMPI RETURNDATASIZE PUSH1 0x0 DUP1 RETURNDATACOPY RETURNDATASIZE PUSH1 0x0 REVERT JUMPDEST POP POP POP POP PUSH1 0x40 MLOAD RETURNDATASIZE PUSH1 0x1F NOT PUSH1 0x1F DUP3 ADD AND DUP3 ADD DUP1 PUSH1 0x40 MSTORE POP PUSH3 0x1C08 SWAP2 SWAP1 DUP2 ADD SWAP1 PUSH3 0x41FC JUMP JUMPDEST SWAP7 SWAP6 POP POP POP POP POP POP JUMP JUMPDEST DUP1 MLOAD PUSH1 0x20 DUP2 DUP4 ADD DUP2 ADD DUP1 MLOAD PUSH1 0x6 DUP3 MSTORE SWAP3 DUP3 ADD SWAP2 SWAP1 SWAP4 ADD KECCAK256 SWAP2 MSTORE DUP1 SLOAD PUSH1 0x1 DUP3 ADD SLOAD PUSH1 0x2 DUP4 ADD SLOAD PUSH1 0x3 DUP5 ADD SLOAD PUSH1 0x4 DUP6 ADD SLOAD PUSH1 0x5 SWAP1 SWAP6 ADD SLOAD PUSH1 0x1 PUSH1 0x1 PUSH1 0xA0 SHL SUB SWAP5 DUP6 AND SWAP6 SWAP4 DUP6 AND SWAP5 SWAP1 SWAP3 AND SWAP3 SWAP1 SWAP2 DUP7 JUMP JUMPDEST PUSH1 0x0 PUSH3 0x1C6C PUSH3 0x3B74 JUMP JUMPDEST PUSH1 0x6 DUP5 DUP5 PUSH1 0x40 MLOAD PUSH3 0x1C80 SWAP3 SWAP2 SWAP1 PUSH3 0x460E JUMP JUMPDEST SWAP1 DUP2 MSTORE PUSH1 0x40 DUP1 MLOAD PUSH1 0x20 SWAP3 DUP2 SWAP1 SUB DUP4 ADD DUP2 KECCAK256 PUSH1 0xC0 DUP3 ADD DUP4 MSTORE DUP1 SLOAD PUSH1 0x1 PUSH1 0x1 PUSH1 0xA0 SHL SUB SWAP1 DUP2 AND DUP4 MSTORE PUSH1 0x1 DUP3 ADD SLOAD DUP2 AND SWAP5 DUP4 ADD DUP6 SWAP1 MSTORE PUSH1 0x2 DUP3 ADD SLOAD AND SWAP3 DUP3 ADD SWAP3 SWAP1 SWAP3 MSTORE PUSH1 0x3 DUP3 ADD SLOAD PUSH1 0x60 DUP3 ADD MSTORE PUSH1 0x4 DUP3 ADD SLOAD PUSH1 0x80 DUP3 ADD MSTORE PUSH1 0x5 SWAP1 SWAP2 ADD SLOAD PUSH1 0xA0 SWAP1 SWAP2 ADD MSTORE SWAP5 SWAP4 POP POP POP POP JUMP JUMPDEST PUSH1 0x0 PUSH1 0x5 DUP4 DUP4 PUSH1 0x40 MLOAD PUSH3 0x1CFE SWAP3 SWAP2 SWAP1 PUSH3 0x460E JUMP JUMPDEST SWAP1 DUP2 MSTORE PUSH1 0x40 MLOAD SWAP1 DUP2 SWAP1 SUB PUSH1 0x20 ADD SWAP1 KECCAK256 DUP1 SLOAD SWAP1 SWAP2 POP PUSH1 0xFF AND ISZERO DUP1 ISZERO PUSH3 0x1D2A JUMPI POP DUP1 SLOAD PUSH3 0x10000 SWAP1 DIV PUSH1 0xFF AND JUMPDEST PUSH3 0x1D34 JUMPI PUSH1 0x0 DUP1 REVERT JUMPDEST DUP1 SLOAD PUSH1 0xFF NOT AND PUSH1 0x1 OR DUP2 SSTORE PUSH1 0x40 DUP1 MLOAD PUSH1 0x20 PUSH1 0x1F DUP6 ADD DUP2 SWAP1 DIV DUP2 MUL DUP3 ADD DUP2 ADD SWAP1 SWAP3 MSTORE DUP4 DUP2 MSTORE PUSH1 0x0 SWAP2 PUSH3 0x1D82 SWAP2 SWAP1 DUP7 SWAP1 DUP7 SWAP1 DUP2 SWAP1 DUP5 ADD DUP4 DUP3 DUP1 DUP3 DUP5 CALLDATACOPY PUSH1 0x0 SWAP3 ADD SWAP2 SWAP1 SWAP2 MSTORE POP PUSH3 0x1109 SWAP3 POP POP POP JUMP JUMPDEST SWAP2 POP POP PUSH3 0x1D8F PUSH3 0x3B01 JUMP JUMPDEST PUSH1 0x3 DUP6 DUP6 PUSH1 0x40 MLOAD PUSH3 0x1DA3 SWAP3 SWAP2 SWAP1 PUSH3 0x460E JUMP JUMPDEST SWAP1 DUP2 MSTORE PUSH1 0x40 DUP1 MLOAD PUSH1 0x20 SWAP3 DUP2 SWAP1 SUB DUP4 ADD DUP2 KECCAK256 DUP1 SLOAD PUSH1 0x2 PUSH1 0x1 DUP3 AND ISZERO PUSH2 0x100 MUL PUSH1 0x0 NOT ADD SWAP1 SWAP2 AND DIV PUSH1 0x1F DUP2 ADD DUP6 SWAP1 DIV SWAP1 SWAP5 MUL DUP3 ADD PUSH2 0x1A0 SWAP1 DUP2 ADD SWAP1 SWAP4 MSTORE PUSH2 0x180 DUP3 ADD DUP5 DUP2 MSTORE SWAP2 SWAP4 SWAP1 SWAP3 DUP5 SWAP3 SWAP2 DUP5 SWAP2 DUP5 ADD DUP3 DUP3 DUP1 ISZERO PUSH3 0x1E44 JUMPI DUP1 PUSH1 0x1F LT PUSH3 0x1E18 JUMPI PUSH2 0x100 DUP1 DUP4 SLOAD DIV MUL DUP4 MSTORE SWAP2 PUSH1 0x20 ADD SWAP2 PUSH3 0x1E44 JUMP JUMPDEST DUP3 ADD SWAP2 SWAP1 PUSH1 0x0 MSTORE PUSH1 0x20 PUSH1 0x0 KECCAK256 SWAP1 JUMPDEST DUP2 SLOAD DUP2 MSTORE SWAP1 PUSH1 0x1 ADD SWAP1 PUSH1 0x20 ADD DUP1 DUP4 GT PUSH3 0x1E26 JUMPI DUP3 SWAP1 SUB PUSH1 0x1F AND DUP3 ADD SWAP2 JUMPDEST POP POP POP SWAP2 DUP4 MSTORE POP POP PUSH1 0x1 DUP3 DUP2 ADD SLOAD PUSH1 0x1 PUSH1 0x1 PUSH1 0xA0 SHL SUB SWAP1 DUP2 AND PUSH1 0x20 DUP1 DUP6 ADD SWAP2 SWAP1 SWAP2 MSTORE PUSH1 0x2 DUP1 DUP7 ADD SLOAD SWAP1 SWAP3 AND PUSH1 0x40 DUP1 DUP7 ADD SWAP2 SWAP1 SWAP2 MSTORE PUSH1 0x3 DUP7 ADD DUP1 SLOAD DUP3 MLOAD PUSH2 0x100 SWAP7 DUP3 AND ISZERO SWAP7 SWAP1 SWAP7 MUL PUSH1 0x0 NOT ADD AND SWAP4 SWAP1 SWAP4 DIV PUSH1 0x1F DUP2 ADD DUP4 SWAP1 DIV DUP4 MUL DUP6 ADD DUP4 ADD SWAP1 SWAP2 MSTORE DUP1 DUP5 MSTORE PUSH1 0x60 SWAP1 SWAP5 ADD SWAP4 SWAP1 DUP4 ADD DUP3 DUP3 DUP1 ISZERO PUSH3 0x1F03 JUMPI DUP1 PUSH1 0x1F LT PUSH3 0x1ED7 JUMPI PUSH2 0x100 DUP1 DUP4 SLOAD DIV MUL DUP4 MSTORE SWAP2 PUSH1 0x20 ADD SWAP2 PUSH3 0x1F03 JUMP JUMPDEST DUP3 ADD SWAP2 SWAP1 PUSH1 0x0 MSTORE PUSH1 0x20 PUSH1 0x0 KECCAK256 SWAP1 JUMPDEST DUP2 SLOAD DUP2 MSTORE SWAP1 PUSH1 0x1 ADD SWAP1 PUSH1 0x20 ADD DUP1 DUP4 GT PUSH3 0x1EE5 JUMPI DUP3 SWAP1 SUB PUSH1 0x1F AND DUP3 ADD SWAP2 JUMPDEST POP POP POP POP POP DUP2 MSTORE PUSH1 0x20 ADD PUSH1 0x4 DUP3 ADD SLOAD DUP2 MSTORE PUSH1 0x20 ADD PUSH1 0x5 DUP3 ADD SLOAD DUP2 MSTORE PUSH1 0x20 ADD PUSH1 0x6 DUP3 ADD SLOAD DUP2 MSTORE PUSH1 0x20 ADD PUSH1 0x7 DUP3 ADD SLOAD DUP2 MSTORE PUSH1 0x20 ADD PUSH1 0x8 DUP3 ADD SLOAD DUP2 MSTORE PUSH1 0x20 ADD PUSH1 0x9 DUP3 ADD SLOAD DUP2 MSTORE PUSH1 0x20 ADD PUSH1 0xA DUP3 ADD SLOAD DUP2 MSTORE PUSH1 0x20 ADD PUSH1 0xB DUP3 ADD SLOAD DUP2 MSTORE POP POP SWAP1 POP DUP1 PUSH2 0x120 ADD MLOAD DUP3 LT ISZERO DUP4 PUSH1 0x0 ADD PUSH1 0x1 PUSH2 0x100 EXP DUP2 SLOAD DUP2 PUSH1 0xFF MUL NOT AND SWAP1 DUP4 ISZERO ISZERO MUL OR SWAP1 SSTORE POP DUP3 PUSH1 0x5 DUP7 DUP7 PUSH1 0x40 MLOAD PUSH3 0x1F97 SWAP3 SWAP2 SWAP1 PUSH3 0x460E JUMP JUMPDEST SWAP1 DUP2 MSTORE PUSH1 0x40 MLOAD SWAP1 DUP2 SWAP1 SUB PUSH1 0x20 ADD SWAP1 KECCAK256 DUP2 SLOAD DUP2 SLOAD PUSH1 0xFF SWAP2 DUP3 AND ISZERO ISZERO PUSH1 0xFF NOT SWAP1 SWAP2 AND OR DUP1 DUP4 SSTORE DUP4 SLOAD PUSH2 0x100 SWAP1 DUP2 SWAP1 DIV DUP4 AND ISZERO ISZERO DUP2 MUL PUSH2 0xFF00 NOT SWAP1 SWAP3 AND SWAP2 SWAP1 SWAP2 OR DUP1 DUP5 SSTORE SWAP4 SLOAD PUSH3 0x10000 SWAP1 DUP2 SWAP1 DIV DUP4 AND ISZERO ISZERO MUL PUSH3 0xFF0000 NOT SWAP1 SWAP5 AND SWAP4 SWAP1 SWAP4 OR SWAP1 SWAP2 SSTORE DUP5 SLOAD SWAP2 SWAP1 SWAP2 DIV AND ISZERO PUSH3 0x204E JUMPI PUSH3 0x2046 DUP6 DUP6 DUP1 DUP1 PUSH1 0x1F ADD PUSH1 0x20 DUP1 SWAP2 DIV MUL PUSH1 0x20 ADD PUSH1 0x40 MLOAD SWAP1 DUP2 ADD PUSH1 0x40 MSTORE DUP1 SWAP4 SWAP3 SWAP2 SWAP1 DUP2 DUP2 MSTORE PUSH1 0x20 ADD DUP4 DUP4 DUP1 DUP3 DUP5 CALLDATACOPY PUSH1 0x0 SWAP3 ADD SWAP2 SWAP1 SWAP2 MSTORE POP DUP7 SWAP3 POP PUSH3 0x486 SWAP2 POP POP JUMP JUMPDEST POP POP PUSH3 0x208F JUMP JUMPDEST PUSH3 0x208F DUP6 DUP6 DUP1 DUP1 PUSH1 0x1F ADD PUSH1 0x20 DUP1 SWAP2 DIV MUL PUSH1 0x20 ADD PUSH1 0x40 MLOAD SWAP1 DUP2 ADD PUSH1 0x40 MSTORE DUP1 SWAP4 SWAP3 SWAP2 SWAP1 DUP2 DUP2 MSTORE PUSH1 0x20 ADD DUP4 DUP4 DUP1 DUP3 DUP5 CALLDATACOPY PUSH1 0x0 SWAP3 ADD SWAP2 SWAP1 SWAP2 MSTORE POP PUSH3 0x34A5 SWAP3 POP POP POP JUMP JUMPDEST DUP3 SLOAD PUSH1 0x40 MLOAD PUSH32 0x35714766E4544AFD4526BC1BBE6A503C6B0F871AB72FB6939BE49B8E3419E89E SWAP2 PUSH3 0x1607 SWAP2 DUP9 SWAP2 DUP9 SWAP2 PUSH2 0x100 SWAP1 SWAP2 DIV PUSH1 0xFF AND SWAP1 PUSH3 0x47D0 JUMP JUMPDEST PUSH1 0x0 DUP1 SLOAD PUSH1 0x1 PUSH1 0x1 PUSH1 0xA0 SHL SUB AND CALLER EQ PUSH3 0x20FD JUMPI PUSH1 0x40 MLOAD PUSH3 0x461BCD PUSH1 0xE5 SHL DUP2 MSTORE PUSH1 0x4 ADD PUSH3 0xBFF SWAP1 PUSH3 0x496F JUMP JUMPDEST PUSH3 0x2107 PUSH3 0x3B74 JUMP JUMPDEST PUSH1 0x6 DUP5 DUP5 PUSH1 0x40 MLOAD PUSH3 0x211B SWAP3 SWAP2 SWAP1 PUSH3 0x460E JUMP JUMPDEST SWAP1 DUP2 MSTORE PUSH1 0x40 DUP1 MLOAD PUSH1 0x20 SWAP3 DUP2 SWAP1 SUB DUP4 ADD DUP2 KECCAK256 PUSH1 0xC0 DUP3 ADD DUP4 MSTORE DUP1 SLOAD PUSH1 0x1 PUSH1 0x1 PUSH1 0xA0 SHL SUB SWAP1 DUP2 AND DUP1 DUP5 MSTORE PUSH1 0x1 DUP4 ADD SLOAD DUP3 AND DUP7 DUP6 ADD MSTORE PUSH1 0x2 DUP4 ADD SLOAD SWAP1 SWAP2 AND DUP4 DUP6 ADD MSTORE PUSH1 0x3 DUP3 ADD SLOAD PUSH1 0x60 DUP5 ADD MSTORE PUSH1 0x4 DUP1 DUP4 ADD SLOAD PUSH1 0x80 DUP6 ADD MSTORE PUSH1 0x5 SWAP1 SWAP3 ADD SLOAD PUSH1 0xA0 DUP5 ADD MSTORE DUP4 MLOAD PUSH4 0x4E6630B PUSH1 0xE4 SHL DUP2 MSTORE SWAP4 MLOAD SWAP3 SWAP6 POP SWAP4 DUP5 SWAP4 PUSH4 0x4E6630B0 SWAP4 DUP2 DUP5 ADD SWAP4 SWAP1 SWAP2 DUP3 SWAP1 SUB ADD DUP2 DUP7 DUP1 EXTCODESIZE ISZERO DUP1 ISZERO PUSH3 0x21AE JUMPI PUSH1 0x0 DUP1 REVERT JUMPDEST POP GAS STATICCALL ISZERO DUP1 ISZERO PUSH3 0x21C3 JUMPI RETURNDATASIZE PUSH1 0x0 DUP1 RETURNDATACOPY RETURNDATASIZE PUSH1 0x0 REVERT JUMPDEST POP POP POP POP PUSH1 0x40 MLOAD RETURNDATASIZE PUSH1 0x1F NOT PUSH1 0x1F DUP3 ADD AND DUP3 ADD DUP1 PUSH1 0x40 MSTORE POP PUSH3 0x21E9 SWAP2 SWAP1 DUP2 ADD SWAP1 PUSH3 0x41FC JUMP JUMPDEST SWAP6 SWAP5 POP POP POP POP POP JUMP JUMPDEST PUSH1 0x1 SLOAD PUSH1 0x0 SWAP1 DUP2 SWAP1 PUSH1 0x1 PUSH1 0x1 PUSH1 0xA0 SHL SUB AND PUSH3 0x2222 JUMPI PUSH1 0x40 MLOAD PUSH3 0x461BCD PUSH1 0xE5 SHL DUP2 MSTORE PUSH1 0x4 ADD PUSH3 0xBFF SWAP1 PUSH3 0x49A5 JUMP JUMPDEST PUSH3 0x222C PUSH3 0x3B74 JUMP JUMPDEST PUSH1 0x6 DUP7 DUP7 PUSH1 0x40 MLOAD PUSH3 0x2240 SWAP3 SWAP2 SWAP1 PUSH3 0x460E JUMP JUMPDEST SWAP1 DUP2 MSTORE PUSH1 0x40 DUP1 MLOAD PUSH1 0x20 SWAP3 DUP2 SWAP1 SUB DUP4 ADD DUP2 KECCAK256 PUSH1 0xC0 DUP3 ADD DUP4 MSTORE DUP1 SLOAD PUSH1 0x1 PUSH1 0x1 PUSH1 0xA0 SHL SUB SWAP1 DUP2 AND DUP4 MSTORE PUSH1 0x1 DUP1 DUP4 ADD SLOAD DUP3 AND SWAP6 DUP5 ADD DUP7 SWAP1 MSTORE PUSH1 0x2 DUP4 ADD SLOAD DUP3 AND DUP5 DUP7 ADD MSTORE PUSH1 0x3 DUP4 ADD SLOAD PUSH1 0x60 DUP6 ADD MSTORE PUSH1 0x4 DUP1 DUP5 ADD SLOAD PUSH1 0x80 DUP7 ADD MSTORE PUSH1 0x5 SWAP1 SWAP4 ADD SLOAD PUSH1 0xA0 DUP6 ADD MSTORE SLOAD SWAP4 MLOAD PUSH4 0x95EA7B3 PUSH1 0xE0 SHL DUP2 MSTORE SWAP3 SWAP6 POP PUSH4 0x95EA7B3 SWAP4 PUSH3 0x22C6 SWAP4 SWAP2 AND SWAP2 DUP10 SWAP2 ADD PUSH3 0x467F JUMP JUMPDEST PUSH1 0x20 PUSH1 0x40 MLOAD DUP1 DUP4 SUB DUP2 PUSH1 0x0 DUP8 DUP1 EXTCODESIZE ISZERO DUP1 ISZERO PUSH3 0x22E1 JUMPI PUSH1 0x0 DUP1 REVERT JUMPDEST POP GAS CALL ISZERO DUP1 ISZERO PUSH3 0x22F6 JUMPI RETURNDATASIZE PUSH1 0x0 DUP1 RETURNDATACOPY RETURNDATASIZE PUSH1 0x0 REVERT JUMPDEST POP POP POP POP PUSH1 0x40 MLOAD RETURNDATASIZE PUSH1 0x1F NOT PUSH1 0x1F DUP3 ADD AND DUP3 ADD DUP1 PUSH1 0x40 MSTORE POP PUSH3 0x231C SWAP2 SWAP1 DUP2 ADD SWAP1 PUSH3 0x3FA6 JUMP JUMPDEST POP PUSH3 0x2327 PUSH3 0x3B01 JUMP JUMPDEST PUSH1 0x3 DUP8 DUP8 PUSH1 0x40 MLOAD PUSH3 0x233B SWAP3 SWAP2 SWAP1 PUSH3 0x460E JUMP JUMPDEST SWAP1 DUP2 MSTORE PUSH1 0x40 DUP1 MLOAD PUSH1 0x20 SWAP3 DUP2 SWAP1 SUB DUP4 ADD DUP2 KECCAK256 DUP1 SLOAD PUSH1 0x2 PUSH1 0x1 DUP3 AND ISZERO PUSH2 0x100 MUL PUSH1 0x0 NOT ADD SWAP1 SWAP2 AND DIV PUSH1 0x1F DUP2 ADD DUP6 SWAP1 DIV SWAP1 SWAP5 MUL DUP3 ADD PUSH2 0x1A0 SWAP1 DUP2 ADD SWAP1 SWAP4 MSTORE PUSH2 0x180 DUP3 ADD DUP5 DUP2 MSTORE SWAP2 SWAP4 SWAP1 SWAP3 DUP5 SWAP3 SWAP2 DUP5 SWAP2 DUP5 ADD DUP3 DUP3 DUP1 ISZERO PUSH3 0x23DC JUMPI DUP1 PUSH1 0x1F LT PUSH3 0x23B0 JUMPI PUSH2 0x100 DUP1 DUP4 SLOAD DIV MUL DUP4 MSTORE SWAP2 PUSH1 0x20 ADD SWAP2 PUSH3 0x23DC JUMP JUMPDEST DUP3 ADD SWAP2 SWAP1 PUSH1 0x0 MSTORE PUSH1 0x20 PUSH1 0x0 KECCAK256 SWAP1 JUMPDEST DUP2 SLOAD DUP2 MSTORE SWAP1 PUSH1 0x1 ADD SWAP1 PUSH1 0x20 ADD DUP1 DUP4 GT PUSH3 0x23BE JUMPI DUP3 SWAP1 SUB PUSH1 0x1F AND DUP3 ADD SWAP2 JUMPDEST POP POP POP SWAP2 DUP4 MSTORE POP POP PUSH1 0x1 DUP3 DUP2 ADD SLOAD PUSH1 0x1 PUSH1 0x1 PUSH1 0xA0 SHL SUB SWAP1 DUP2 AND PUSH1 0x20 DUP1 DUP6 ADD SWAP2 SWAP1 SWAP2 MSTORE PUSH1 0x2 DUP1 DUP7 ADD SLOAD SWAP1 SWAP3 AND PUSH1 0x40 DUP1 DUP7 ADD SWAP2 SWAP1 SWAP2 MSTORE PUSH1 0x3 DUP7 ADD DUP1 SLOAD DUP3 MLOAD PUSH2 0x100 SWAP7 DUP3 AND ISZERO SWAP7 SWAP1 SWAP7 MUL PUSH1 0x0 NOT ADD AND SWAP4 SWAP1 SWAP4 DIV PUSH1 0x1F DUP2 ADD DUP4 SWAP1 DIV DUP4 MUL DUP6 ADD DUP4 ADD SWAP1 SWAP2 MSTORE DUP1 DUP5 MSTORE PUSH1 0x60 SWAP1 SWAP5 ADD SWAP4 SWAP1 DUP4 ADD DUP3 DUP3 DUP1 ISZERO PUSH3 0x249B JUMPI DUP1 PUSH1 0x1F LT PUSH3 0x246F JUMPI PUSH2 0x100 DUP1 DUP4 SLOAD DIV MUL DUP4 MSTORE SWAP2 PUSH1 0x20 ADD SWAP2 PUSH3 0x249B JUMP JUMPDEST DUP3 ADD SWAP2 SWAP1 PUSH1 0x0 MSTORE PUSH1 0x20 PUSH1 0x0 KECCAK256 SWAP1 JUMPDEST DUP2 SLOAD DUP2 MSTORE SWAP1 PUSH1 0x1 ADD SWAP1 PUSH1 0x20 ADD DUP1 DUP4 GT PUSH3 0x247D JUMPI DUP3 SWAP1 SUB PUSH1 0x1F AND DUP3 ADD SWAP2 JUMPDEST POP POP POP POP POP DUP2 MSTORE PUSH1 0x20 ADD PUSH1 0x4 DUP3 ADD SLOAD DUP2 MSTORE PUSH1 0x20 ADD PUSH1 0x5 DUP3 ADD SLOAD DUP2 MSTORE PUSH1 0x20 ADD PUSH1 0x6 DUP3 ADD SLOAD DUP2 MSTORE PUSH1 0x20 ADD PUSH1 0x7 DUP3 ADD SLOAD DUP2 MSTORE PUSH1 0x20 ADD PUSH1 0x8 DUP3 ADD SLOAD DUP2 MSTORE PUSH1 0x20 ADD PUSH1 0x9 DUP3 ADD SLOAD DUP2 MSTORE PUSH1 0x20 ADD PUSH1 0xA DUP3 ADD SLOAD DUP2 MSTORE PUSH1 0x20 ADD PUSH1 0xB DUP3 ADD SLOAD DUP2 MSTORE POP POP SWAP1 POP PUSH1 0x0 PUSH3 0x2504 PUSH1 0x78 PUSH3 0x3ACB JUMP JUMPDEST PUSH1 0x1 SLOAD PUSH1 0x40 DUP1 DUP6 ADD MLOAD SWAP1 MLOAD PUSH3 0x9D473B PUSH1 0xE2 SHL DUP2 MSTORE SWAP3 SWAP4 POP PUSH1 0x0 SWAP3 DUP4 SWAP3 PUSH1 0x1 PUSH1 0x1 PUSH1 0xA0 SHL SUB AND SWAP2 PUSH4 0x2751CEC SWAP2 PUSH3 0x2549 SWAP2 SWAP1 DUP13 SWAP1 DUP7 SWAP1 DUP2 SWAP1 CALLER SWAP1 DUP12 SWAP1 PUSH1 0x4 ADD PUSH3 0x46DB JUMP JUMPDEST PUSH1 0x40 DUP1 MLOAD DUP1 DUP4 SUB DUP2 PUSH1 0x0 DUP8 DUP1 EXTCODESIZE ISZERO DUP1 ISZERO PUSH3 0x2563 JUMPI PUSH1 0x0 DUP1 REVERT JUMPDEST POP GAS CALL ISZERO DUP1 ISZERO PUSH3 0x2578 JUMPI RETURNDATASIZE PUSH1 0x0 DUP1 RETURNDATACOPY RETURNDATASIZE PUSH1 0x0 REVERT JUMPDEST POP POP POP POP PUSH1 0x40 MLOAD RETURNDATASIZE PUSH1 0x1F NOT PUSH1 0x1F DUP3 ADD AND DUP3 ADD DUP1 PUSH1 0x40 MSTORE POP PUSH3 0x259E SWAP2 SWAP1 DUP2 ADD SWAP1 PUSH3 0x421D JUMP JUMPDEST SWAP1 SWAP12 SWAP1 SWAP11 POP SWAP9 POP POP POP POP POP POP POP POP POP JUMP JUMPDEST PUSH1 0x0 SLOAD PUSH1 0x1 PUSH1 0x1 PUSH1 0xA0 SHL SUB AND CALLER EQ PUSH3 0x25DC JUMPI PUSH1 0x40 MLOAD PUSH3 0x461BCD PUSH1 0xE5 SHL DUP2 MSTORE PUSH1 0x4 ADD PUSH3 0xBFF SWAP1 PUSH3 0x496F JUMP JUMPDEST PUSH1 0x1 DUP1 SLOAD PUSH1 0x1 PUSH1 0x1 PUSH1 0xA0 SHL SUB NOT AND PUSH1 0x1 PUSH1 0x1 PUSH1 0xA0 SHL SUB SWAP3 SWAP1 SWAP3 AND SWAP2 SWAP1 SWAP2 OR SWAP1 SSTORE JUMP JUMPDEST DUP2 PUSH1 0x0 PUSH3 0x260B PUSH3 0x124E JUMP JUMPDEST SWAP1 POP PUSH3 0x2617 PUSH3 0x3BF8 JUMP JUMPDEST PUSH1 0x5 DUP4 PUSH1 0x40 MLOAD PUSH3 0x2629 SWAP2 SWAP1 PUSH3 0x461D JUMP JUMPDEST SWAP1 DUP2 MSTORE PUSH1 0x40 DUP1 MLOAD SWAP2 DUP3 SWAP1 SUB PUSH1 0x20 SWAP1 DUP2 ADD DUP4 KECCAK256 PUSH1 0x60 DUP5 ADD DUP4 MSTORE SLOAD PUSH1 0xFF DUP1 DUP3 AND ISZERO ISZERO DUP6 MSTORE PUSH2 0x100 DUP3 DIV DUP2 AND ISZERO ISZERO SWAP3 DUP6 ADD SWAP3 SWAP1 SWAP3 MSTORE PUSH3 0x10000 SWAP1 DIV AND ISZERO ISZERO SWAP1 DUP3 ADD MSTORE SWAP1 POP PUSH3 0x2674 PUSH3 0x3B01 JUMP JUMPDEST PUSH1 0x3 DUP5 PUSH1 0x40 MLOAD PUSH3 0x2686 SWAP2 SWAP1 PUSH3 0x461D JUMP JUMPDEST SWAP1 DUP2 MSTORE PUSH1 0x40 DUP1 MLOAD PUSH1 0x20 SWAP3 DUP2 SWAP1 SUB DUP4 ADD DUP2 KECCAK256 DUP1 SLOAD PUSH1 0x2 PUSH1 0x1 DUP3 AND ISZERO PUSH2 0x100 MUL PUSH1 0x0 NOT ADD SWAP1 SWAP2 AND DIV PUSH1 0x1F DUP2 ADD DUP6 SWAP1 DIV SWAP1 SWAP5 MUL DUP3 ADD PUSH2 0x1A0 SWAP1 DUP2 ADD SWAP1 SWAP4 MSTORE PUSH2 0x180 DUP3 ADD DUP5 DUP2 MSTORE SWAP2 SWAP4 SWAP1 SWAP3 DUP5 SWAP3 SWAP2 DUP5 SWAP2 DUP5 ADD DUP3 DUP3 DUP1 ISZERO PUSH3 0x2727 JUMPI DUP1 PUSH1 0x1F LT PUSH3 0x26FB JUMPI PUSH2 0x100 DUP1 DUP4 SLOAD DIV MUL DUP4 MSTORE SWAP2 PUSH1 0x20 ADD SWAP2 PUSH3 0x2727 JUMP JUMPDEST DUP3 ADD SWAP2 SWAP1 PUSH1 0x0 MSTORE PUSH1 0x20 PUSH1 0x0 KECCAK256 SWAP1 JUMPDEST DUP2 SLOAD DUP2 MSTORE SWAP1 PUSH1 0x1 ADD SWAP1 PUSH1 0x20 ADD DUP1 DUP4 GT PUSH3 0x2709 JUMPI DUP3 SWAP1 SUB PUSH1 0x1F AND DUP3 ADD SWAP2 JUMPDEST POP POP POP SWAP2 DUP4 MSTORE POP POP PUSH1 0x1 DUP3 DUP2 ADD SLOAD PUSH1 0x1 PUSH1 0x1 PUSH1 0xA0 SHL SUB SWAP1 DUP2 AND PUSH1 0x20 DUP1 DUP6 ADD SWAP2 SWAP1 SWAP2 MSTORE PUSH1 0x2 DUP1 DUP7 ADD SLOAD SWAP1 SWAP3 AND PUSH1 0x40 DUP1 DUP7 ADD SWAP2 SWAP1 SWAP2 MSTORE PUSH1 0x3 DUP7 ADD DUP1 SLOAD DUP3 MLOAD PUSH2 0x100 SWAP7 DUP3 AND ISZERO SWAP7 SWAP1 SWAP7 MUL PUSH1 0x0 NOT ADD AND SWAP4 SWAP1 SWAP4 DIV PUSH1 0x1F DUP2 ADD DUP4 SWAP1 DIV DUP4 MUL DUP6 ADD DUP4 ADD SWAP1 SWAP2 MSTORE DUP1 DUP5 MSTORE PUSH1 0x60 SWAP1 SWAP5 ADD SWAP4 SWAP1 DUP4 ADD DUP3 DUP3 DUP1 ISZERO PUSH3 0x27E6 JUMPI DUP1 PUSH1 0x1F LT PUSH3 0x27BA JUMPI PUSH2 0x100 DUP1 DUP4 SLOAD DIV MUL DUP4 MSTORE SWAP2 PUSH1 0x20 ADD SWAP2 PUSH3 0x27E6 JUMP JUMPDEST DUP3 ADD SWAP2 SWAP1 PUSH1 0x0 MSTORE PUSH1 0x20 PUSH1 0x0 KECCAK256 SWAP1 JUMPDEST DUP2 SLOAD DUP2 MSTORE SWAP1 PUSH1 0x1 ADD SWAP1 PUSH1 0x20 ADD DUP1 DUP4 GT PUSH3 0x27C8 JUMPI DUP3 SWAP1 SUB PUSH1 0x1F AND DUP3 ADD SWAP2 JUMPDEST POP POP POP POP POP DUP2 MSTORE PUSH1 0x20 ADD PUSH1 0x4 DUP3 ADD SLOAD DUP2 MSTORE PUSH1 0x20 ADD PUSH1 0x5 DUP3 ADD SLOAD DUP2 MSTORE PUSH1 0x20 ADD PUSH1 0x6 DUP3 ADD SLOAD DUP2 MSTORE PUSH1 0x20 ADD PUSH1 0x7 DUP3 ADD SLOAD DUP2 MSTORE PUSH1 0x20 ADD PUSH1 0x8 DUP3 ADD SLOAD DUP2 MSTORE PUSH1 0x20 ADD PUSH1 0x9 DUP3 ADD SLOAD DUP2 MSTORE PUSH1 0x20 ADD PUSH1 0xA DUP3 ADD SLOAD DUP2 MSTORE PUSH1 0x20 ADD PUSH1 0xB DUP3 ADD SLOAD DUP2 MSTORE POP POP SWAP1 POP DUP2 PUSH1 0x40 ADD MLOAD DUP1 ISZERO PUSH3 0x2852 JUMPI POP DUP2 MLOAD ISZERO JUMPDEST PUSH3 0x285C JUMPI PUSH1 0x0 DUP1 REVERT JUMPDEST DUP3 DUP2 PUSH1 0x80 ADD MLOAD LT PUSH3 0x2882 JUMPI PUSH1 0x40 MLOAD PUSH3 0x461BCD PUSH1 0xE5 SHL DUP2 MSTORE PUSH1 0x4 ADD PUSH3 0xBFF SWAP1 PUSH3 0x4939 JUMP JUMPDEST DUP3 DUP2 PUSH1 0xA0 ADD MLOAD GT PUSH3 0x28A8 JUMPI PUSH1 0x40 MLOAD PUSH3 0x461BCD PUSH1 0xE5 SHL DUP2 MSTORE PUSH1 0x4 ADD PUSH3 0xBFF SWAP1 PUSH3 0x49B7 JUMP JUMPDEST PUSH3 0x28B2 PUSH3 0x3BC5 JUMP JUMPDEST PUSH1 0x40 MLOAD DUP1 PUSH1 0x80 ADD PUSH1 0x40 MSTORE DUP1 CALLER PUSH1 0x1 PUSH1 0x1 PUSH1 0xA0 SHL SUB AND DUP2 MSTORE PUSH1 0x20 ADD CALLVALUE DUP2 MSTORE PUSH1 0x20 ADD DUP8 DUP2 MSTORE PUSH1 0x20 ADD PUSH1 0x0 ISZERO ISZERO DUP2 MSTORE POP SWAP1 POP PUSH1 0x0 PUSH1 0x6 DUP9 PUSH1 0x40 MLOAD PUSH3 0x28F5 SWAP2 SWAP1 PUSH3 0x461D JUMP JUMPDEST SWAP1 DUP2 MSTORE PUSH1 0x40 DUP1 MLOAD PUSH1 0x20 SWAP3 DUP2 SWAP1 SUB DUP4 ADD DUP2 KECCAK256 SLOAD PUSH4 0x26B1D5F PUSH1 0xE0 SHL DUP3 MSTORE SWAP2 MLOAD PUSH1 0x1 PUSH1 0x1 PUSH1 0xA0 SHL SUB SWAP1 SWAP3 AND SWAP4 POP DUP4 SWAP3 PUSH4 0x26B1D5F SWAP3 PUSH1 0x4 DUP1 DUP5 ADD SWAP4 DUP3 SWAP1 SUB ADD DUP2 DUP7 DUP1 EXTCODESIZE ISZERO DUP1 ISZERO PUSH3 0x2943 JUMPI PUSH1 0x0 DUP1 REVERT JUMPDEST POP GAS STATICCALL ISZERO DUP1 ISZERO PUSH3 0x2958 JUMPI RETURNDATASIZE PUSH1 0x0 DUP1 RETURNDATACOPY RETURNDATASIZE PUSH1 0x0 REVERT JUMPDEST POP POP POP POP PUSH1 0x40 MLOAD RETURNDATASIZE PUSH1 0x1F NOT PUSH1 0x1F DUP3 ADD AND DUP3 ADD DUP1 PUSH1 0x40 MSTORE POP PUSH3 0x297E SWAP2 SWAP1 DUP2 ADD SWAP1 PUSH3 0x3F85 JUMP JUMPDEST PUSH1 0x1 PUSH1 0x1 PUSH1 0xA0 SHL SUB AND PUSH2 0x8FC CALLVALUE SWAP1 DUP2 ISZERO MUL SWAP1 PUSH1 0x40 MLOAD PUSH1 0x0 PUSH1 0x40 MLOAD DUP1 DUP4 SUB DUP2 DUP6 DUP9 DUP9 CALL SWAP4 POP POP POP POP ISZERO DUP1 ISZERO PUSH3 0x29B7 JUMPI RETURNDATASIZE PUSH1 0x0 DUP1 RETURNDATACOPY RETURNDATASIZE PUSH1 0x0 REVERT JUMPDEST POP PUSH1 0x4 DUP9 PUSH1 0x40 MLOAD PUSH3 0x29CA SWAP2 SWAP1 PUSH3 0x461D JUMP JUMPDEST SWAP1 DUP2 MSTORE PUSH1 0x40 DUP1 MLOAD PUSH1 0x20 SWAP3 DUP2 SWAP1 SUB DUP4 ADD DUP2 KECCAK256 DUP1 SLOAD PUSH1 0x1 DUP1 DUP3 ADD DUP4 SSTORE PUSH1 0x0 SWAP3 DUP4 MSTORE DUP6 DUP4 KECCAK256 DUP9 MLOAD PUSH1 0x4 SWAP1 SWAP4 MUL ADD DUP1 SLOAD PUSH1 0x1 PUSH1 0x1 PUSH1 0xA0 SHL SUB NOT AND PUSH1 0x1 PUSH1 0x1 PUSH1 0xA0 SHL SUB SWAP4 DUP5 AND OR DUP2 SSTORE SWAP6 DUP9 ADD MLOAD SWAP1 DUP7 ADD SSTORE SWAP3 DUP7 ADD MLOAD PUSH1 0x2 DUP6 ADD SSTORE PUSH1 0x60 DUP7 ADD MLOAD PUSH1 0x3 SWAP1 SWAP5 ADD DUP1 SLOAD PUSH1 0xFF NOT AND SWAP5 ISZERO ISZERO SWAP5 SWAP1 SWAP5 OR SWAP1 SWAP4 SSTORE SWAP2 SLOAD PUSH32 0x5FEC6C2D2D376AA6F4C793E34F6CC71D65285BD07D1E709292FAFC2B28BF2FBE SWAP3 PUSH3 0x2A6E SWAP3 DUP13 SWAP3 AND SWAP1 CALLVALUE SWAP1 PUSH3 0x4808 JUMP JUMPDEST PUSH1 0x40 MLOAD DUP1 SWAP2 SUB SWAP1 LOG1 POP POP POP POP POP POP POP POP JUMP JUMPDEST PUSH1 0x1 SLOAD PUSH1 0x0 SWAP1 DUP2 SWAP1 DUP2 SWAP1 PUSH1 0x1 PUSH1 0x1 PUSH1 0xA0 SHL SUB AND PUSH3 0x2AB2 JUMPI PUSH1 0x40 MLOAD PUSH3 0x461BCD PUSH1 0xE5 SHL DUP2 MSTORE PUSH1 0x4 ADD PUSH3 0xBFF SWAP1 PUSH3 0x49A5 JUMP JUMPDEST PUSH3 0x2ABC PUSH3 0x3B74 JUMP JUMPDEST PUSH1 0x6 DUP9 DUP9 PUSH1 0x40 MLOAD PUSH3 0x2AD0 SWAP3 SWAP2 SWAP1 PUSH3 0x460E JUMP JUMPDEST SWAP1 DUP2 MSTORE PUSH1 0x40 DUP1 MLOAD PUSH1 0x20 SWAP3 DUP2 SWAP1 SUB DUP4 ADD DUP2 KECCAK256 PUSH1 0xC0 DUP3 ADD DUP4 MSTORE DUP1 SLOAD PUSH1 0x1 PUSH1 0x1 PUSH1 0xA0 SHL SUB SWAP1 DUP2 AND DUP4 MSTORE PUSH1 0x1 DUP3 ADD SLOAD DUP2 AND SWAP5 DUP4 ADD DUP6 SWAP1 MSTORE PUSH1 0x2 DUP3 ADD SLOAD AND DUP3 DUP5 ADD MSTORE PUSH1 0x3 DUP2 ADD SLOAD PUSH1 0x60 DUP4 ADD MSTORE PUSH1 0x4 DUP1 DUP3 ADD SLOAD PUSH1 0x80 DUP5 ADD MSTORE PUSH1 0x5 SWAP1 SWAP2 ADD SLOAD PUSH1 0xA0 DUP4 ADD MSTORE SWAP2 MLOAD PUSH4 0x23B872DD PUSH1 0xE0 SHL DUP2 MSTORE SWAP1 SWAP4 POP PUSH4 0x23B872DD SWAP2 PUSH3 0x2B54 SWAP2 CALLER SWAP2 ADDRESS SWAP2 DUP12 SWAP2 ADD PUSH3 0x4660 JUMP JUMPDEST PUSH1 0x20 PUSH1 0x40 MLOAD DUP1 DUP4 SUB DUP2 PUSH1 0x0 DUP8 DUP1 EXTCODESIZE ISZERO DUP1 ISZERO PUSH3 0x2B6F JUMPI PUSH1 0x0 DUP1 REVERT JUMPDEST POP GAS CALL ISZERO DUP1 ISZERO PUSH3 0x2B84 JUMPI RETURNDATASIZE PUSH1 0x0 DUP1 RETURNDATACOPY RETURNDATASIZE PUSH1 0x0 REVERT JUMPDEST POP POP POP POP PUSH1 0x40 MLOAD RETURNDATASIZE PUSH1 0x1F NOT PUSH1 0x1F DUP3 ADD AND DUP3 ADD DUP1 PUSH1 0x40 MSTORE POP PUSH3 0x2BAA SWAP2 SWAP1 DUP2 ADD SWAP1 PUSH3 0x3FA6 JUMP JUMPDEST PUSH3 0x2BB4 JUMPI PUSH1 0x0 DUP1 REVERT JUMPDEST PUSH3 0x2BBE PUSH3 0x3B01 JUMP JUMPDEST PUSH1 0x3 DUP10 DUP10 PUSH1 0x40 MLOAD PUSH3 0x2BD2 SWAP3 SWAP2 SWAP1 PUSH3 0x460E JUMP JUMPDEST SWAP1 DUP2 MSTORE PUSH1 0x40 DUP1 MLOAD PUSH1 0x20 SWAP3 DUP2 SWAP1 SUB DUP4 ADD DUP2 KECCAK256 DUP1 SLOAD PUSH1 0x2 PUSH1 0x1 DUP3 AND ISZERO PUSH2 0x100 MUL PUSH1 0x0 NOT ADD SWAP1 SWAP2 AND DIV PUSH1 0x1F DUP2 ADD DUP6 SWAP1 DIV SWAP1 SWAP5 MUL DUP3 ADD PUSH2 0x1A0 SWAP1 DUP2 ADD SWAP1 SWAP4 MSTORE PUSH2 0x180 DUP3 ADD DUP5 DUP2 MSTORE SWAP2 SWAP4 SWAP1 SWAP3 DUP5 SWAP3 SWAP2 DUP5 SWAP2 DUP5 ADD DUP3 DUP3 DUP1 ISZERO PUSH3 0x2C73 JUMPI DUP1 PUSH1 0x1F LT PUSH3 0x2C47 JUMPI PUSH2 0x100 DUP1 DUP4 SLOAD DIV MUL DUP4 MSTORE SWAP2 PUSH1 0x20 ADD SWAP2 PUSH3 0x2C73 JUMP JUMPDEST DUP3 ADD SWAP2 SWAP1 PUSH1 0x0 MSTORE PUSH1 0x20 PUSH1 0x0 KECCAK256 SWAP1 JUMPDEST DUP2 SLOAD DUP2 MSTORE SWAP1 PUSH1 0x1 ADD SWAP1 PUSH1 0x20 ADD DUP1 DUP4 GT PUSH3 0x2C55 JUMPI DUP3 SWAP1 SUB PUSH1 0x1F AND DUP3 ADD SWAP2 JUMPDEST POP POP POP SWAP2 DUP4 MSTORE POP POP PUSH1 0x1 DUP3 DUP2 ADD SLOAD PUSH1 0x1 PUSH1 0x1 PUSH1 0xA0 SHL SUB SWAP1 DUP2 AND PUSH1 0x20 DUP1 DUP6 ADD SWAP2 SWAP1 SWAP2 MSTORE PUSH1 0x2 DUP1 DUP7 ADD SLOAD SWAP1 SWAP3 AND PUSH1 0x40 DUP1 DUP7 ADD SWAP2 SWAP1 SWAP2 MSTORE PUSH1 0x3 DUP7 ADD DUP1 SLOAD DUP3 MLOAD PUSH2 0x100 SWAP7 DUP3 AND ISZERO SWAP7 SWAP1 SWAP7 MUL PUSH1 0x0 NOT ADD AND SWAP4 SWAP1 SWAP4 DIV PUSH1 0x1F DUP2 ADD DUP4 SWAP1 DIV DUP4 MUL DUP6 ADD DUP4 ADD SWAP1 SWAP2 MSTORE DUP1 DUP5 MSTORE PUSH1 0x60 SWAP1 SWAP5 ADD SWAP4 SWAP1 DUP4 ADD DUP3 DUP3 DUP1 ISZERO PUSH3 0x2D32 JUMPI DUP1 PUSH1 0x1F LT PUSH3 0x2D06 JUMPI PUSH2 0x100 DUP1 DUP4 SLOAD DIV MUL DUP4 MSTORE SWAP2 PUSH1 0x20 ADD SWAP2 PUSH3 0x2D32 JUMP JUMPDEST DUP3 ADD SWAP2 SWAP1 PUSH1 0x0 MSTORE PUSH1 0x20 PUSH1 0x0 KECCAK256 SWAP1 JUMPDEST DUP2 SLOAD DUP2 MSTORE SWAP1 PUSH1 0x1 ADD SWAP1 PUSH1 0x20 ADD DUP1 DUP4 GT PUSH3 0x2D14 JUMPI DUP3 SWAP1 SUB PUSH1 0x1F AND DUP3 ADD SWAP2 JUMPDEST POP POP POP POP POP DUP2 MSTORE PUSH1 0x20 ADD PUSH1 0x4 DUP3 ADD SLOAD DUP2 MSTORE PUSH1 0x20 ADD PUSH1 0x5 DUP3 ADD SLOAD DUP2 MSTORE PUSH1 0x20 ADD PUSH1 0x6 DUP3 ADD SLOAD DUP2 MSTORE PUSH1 0x20 ADD PUSH1 0x7 DUP3 ADD SLOAD DUP2 MSTORE PUSH1 0x20 ADD PUSH1 0x8 DUP3 ADD SLOAD DUP2 MSTORE PUSH1 0x20 ADD PUSH1 0x9 DUP3 ADD SLOAD DUP2 MSTORE PUSH1 0x20 ADD PUSH1 0xA DUP3 ADD SLOAD DUP2 MSTORE PUSH1 0x20 ADD PUSH1 0xB DUP3 ADD SLOAD DUP2 MSTORE POP POP SWAP1 POP DUP2 PUSH1 0x20 ADD MLOAD PUSH1 0x1 PUSH1 0x1 PUSH1 0xA0 SHL SUB AND PUSH4 0x95EA7B3 PUSH1 0x1 PUSH1 0x0 SWAP1 SLOAD SWAP1 PUSH2 0x100 EXP SWAP1 DIV PUSH1 0x1 PUSH1 0x1 PUSH1 0xA0 SHL SUB AND DUP9 PUSH1 0x40 MLOAD DUP4 PUSH4 0xFFFFFFFF AND PUSH1 0xE0 SHL DUP2 MSTORE PUSH1 0x4 ADD PUSH3 0x2DD6 SWAP3 SWAP2 SWAP1 PUSH3 0x467F JUMP JUMPDEST PUSH1 0x20 PUSH1 0x40 MLOAD DUP1 DUP4 SUB DUP2 PUSH1 0x0 DUP8 DUP1 EXTCODESIZE ISZERO DUP1 ISZERO PUSH3 0x2DF1 JUMPI PUSH1 0x0 DUP1 REVERT JUMPDEST POP GAS CALL ISZERO DUP1 ISZERO PUSH3 0x2E06 JUMPI RETURNDATASIZE PUSH1 0x0 DUP1 RETURNDATACOPY RETURNDATASIZE PUSH1 0x0 REVERT JUMPDEST POP POP POP POP PUSH1 0x40 MLOAD RETURNDATASIZE PUSH1 0x1F NOT PUSH1 0x1F DUP3 ADD AND DUP3 ADD DUP1 PUSH1 0x40 MSTORE POP PUSH3 0x2E2C SWAP2 SWAP1 DUP2 ADD SWAP1 PUSH3 0x3FA6 JUMP JUMPDEST POP PUSH1 0x0 PUSH3 0x2E3B PUSH1 0x78 PUSH3 0x3ACB JUMP JUMPDEST PUSH1 0x1 SLOAD PUSH1 0x40 DUP1 DUP6 ADD MLOAD SWAP1 MLOAD PUSH4 0xF305D719 PUSH1 0xE0 SHL DUP2 MSTORE SWAP3 SWAP4 POP PUSH1 0x0 SWAP3 DUP4 SWAP3 DUP4 SWAP3 PUSH1 0x1 PUSH1 0x1 PUSH1 0xA0 SHL SUB SWAP1 SWAP2 AND SWAP2 PUSH4 0xF305D719 SWAP2 DUP15 SWAP2 PUSH3 0x2E87 SWAP2 SWAP1 DUP16 SWAP1 DUP8 SWAP1 DUP2 SWAP1 CALLER SWAP1 DUP14 SWAP1 PUSH1 0x4 ADD PUSH3 0x46DB JUMP JUMPDEST PUSH1 0x60 PUSH1 0x40 MLOAD DUP1 DUP4 SUB DUP2 DUP6 DUP9 DUP1 EXTCODESIZE ISZERO DUP1 ISZERO PUSH3 0x2EA1 JUMPI PUSH1 0x0 DUP1 REVERT JUMPDEST POP GAS CALL ISZERO DUP1 ISZERO PUSH3 0x2EB6 JUMPI RETURNDATASIZE PUSH1 0x0 DUP1 RETURNDATACOPY RETURNDATASIZE PUSH1 0x0 REVERT JUMPDEST POP POP POP POP POP PUSH1 0x40 MLOAD RETURNDATASIZE PUSH1 0x1F NOT PUSH1 0x1F DUP3 ADD AND DUP3 ADD DUP1 PUSH1 0x40 MSTORE POP PUSH3 0x2EDD SWAP2 SWAP1 DUP2 ADD SWAP1 PUSH3 0x4252 JUMP JUMPDEST SWAP2 SWAP16 SWAP1 SWAP15 POP SWAP1 SWAP13 POP SWAP11 POP POP POP POP POP POP POP POP POP POP POP JUMP JUMPDEST PUSH1 0x0 PUSH3 0x2EFF PUSH3 0x3ADF JUMP JUMPDEST SWAP1 POP DUP1 CALLVALUE LT ISZERO PUSH3 0x2F24 JUMPI PUSH1 0x40 MLOAD PUSH3 0x461BCD PUSH1 0xE5 SHL DUP2 MSTORE PUSH1 0x4 ADD PUSH3 0xBFF SWAP1 PUSH3 0x49C9 JUMP JUMPDEST PUSH1 0x0 PUSH3 0x2F30 PUSH3 0x124E JUMP JUMPDEST SWAP1 POP PUSH3 0x2F3C PUSH3 0x3B01 JUMP JUMPDEST PUSH1 0x3 DUP5 PUSH1 0x40 MLOAD PUSH3 0x2F4E SWAP2 SWAP1 PUSH3 0x461D JUMP JUMPDEST SWAP1 DUP2 MSTORE PUSH1 0x40 DUP1 MLOAD PUSH1 0x20 SWAP3 DUP2 SWAP1 SUB DUP4 ADD DUP2 KECCAK256 DUP1 SLOAD PUSH1 0x2 PUSH1 0x1 DUP3 AND ISZERO PUSH2 0x100 MUL PUSH1 0x0 NOT ADD SWAP1 SWAP2 AND DIV PUSH1 0x1F DUP2 ADD DUP6 SWAP1 DIV SWAP1 SWAP5 MUL DUP3 ADD PUSH2 0x1A0 SWAP1 DUP2 ADD SWAP1 SWAP4 MSTORE PUSH2 0x180 DUP3 ADD DUP5 DUP2 MSTORE SWAP2 SWAP4 SWAP1 SWAP3 DUP5 SWAP3 SWAP2 DUP5 SWAP2 DUP5 ADD DUP3 DUP3 DUP1 ISZERO PUSH3 0x2FEF JUMPI DUP1 PUSH1 0x1F LT PUSH3 0x2FC3 JUMPI PUSH2 0x100 DUP1 DUP4 SLOAD DIV MUL DUP4 MSTORE SWAP2 PUSH1 0x20 ADD SWAP2 PUSH3 0x2FEF JUMP JUMPDEST DUP3 ADD SWAP2 SWAP1 PUSH1 0x0 MSTORE PUSH1 0x20 PUSH1 0x0 KECCAK256 SWAP1 JUMPDEST DUP2 SLOAD DUP2 MSTORE SWAP1 PUSH1 0x1 ADD SWAP1 PUSH1 0x20 ADD DUP1 DUP4 GT PUSH3 0x2FD1 JUMPI DUP3 SWAP1 SUB PUSH1 0x1F AND DUP3 ADD SWAP2 JUMPDEST POP POP POP SWAP2 DUP4 MSTORE POP POP PUSH1 0x1 DUP3 DUP2 ADD SLOAD PUSH1 0x1 PUSH1 0x1 PUSH1 0xA0 SHL SUB SWAP1 DUP2 AND PUSH1 0x20 DUP1 DUP6 ADD SWAP2 SWAP1 SWAP2 MSTORE PUSH1 0x2 DUP1 DUP7 ADD SLOAD SWAP1 SWAP3 AND PUSH1 0x40 DUP1 DUP7 ADD SWAP2 SWAP1 SWAP2 MSTORE PUSH1 0x3 DUP7 ADD DUP1 SLOAD DUP3 MLOAD PUSH2 0x100 SWAP7 DUP3 AND ISZERO SWAP7 SWAP1 SWAP7 MUL PUSH1 0x0 NOT ADD AND SWAP4 SWAP1 SWAP4 DIV PUSH1 0x1F DUP2 ADD DUP4 SWAP1 DIV DUP4 MUL DUP6 ADD DUP4 ADD SWAP1 SWAP2 MSTORE DUP1 DUP5 MSTORE PUSH1 0x60 SWAP1 SWAP5 ADD SWAP4 SWAP1 DUP4 ADD DUP3 DUP3 DUP1 ISZERO PUSH3 0x30AE JUMPI DUP1 PUSH1 0x1F LT PUSH3 0x3082 JUMPI PUSH2 0x100 DUP1 DUP4 SLOAD DIV MUL DUP4 MSTORE SWAP2 PUSH1 0x20 ADD SWAP2 PUSH3 0x30AE JUMP JUMPDEST DUP3 ADD SWAP2 SWAP1 PUSH1 0x0 MSTORE PUSH1 0x20 PUSH1 0x0 KECCAK256 SWAP1 JUMPDEST DUP2 SLOAD DUP2 MSTORE SWAP1 PUSH1 0x1 ADD SWAP1 PUSH1 0x20 ADD DUP1 DUP4 GT PUSH3 0x3090 JUMPI DUP3 SWAP1 SUB PUSH1 0x1F AND DUP3 ADD SWAP2 JUMPDEST POP POP POP POP POP DUP2 MSTORE PUSH1 0x20 ADD PUSH1 0x4 DUP3 ADD SLOAD DUP2 MSTORE PUSH1 0x20 ADD PUSH1 0x5 DUP3 ADD SLOAD DUP2 MSTORE PUSH1 0x20 ADD PUSH1 0x6 DUP3 ADD SLOAD DUP2 MSTORE PUSH1 0x20 ADD PUSH1 0x7 DUP3 ADD SLOAD DUP2 MSTORE PUSH1 0x20 ADD PUSH1 0x8 DUP3 ADD SLOAD DUP2 MSTORE PUSH1 0x20 ADD PUSH1 0x9 DUP3 ADD SLOAD DUP2 MSTORE PUSH1 0x20 ADD PUSH1 0xA DUP3 ADD SLOAD DUP2 MSTORE PUSH1 0x20 ADD PUSH1 0xB DUP3 ADD SLOAD DUP2 MSTORE POP POP SWAP1 POP DUP2 DUP2 PUSH1 0x80 ADD MLOAD LT PUSH3 0x312F JUMPI PUSH1 0x40 MLOAD PUSH3 0x461BCD PUSH1 0xE5 SHL DUP2 MSTORE PUSH1 0x4 ADD PUSH3 0xBFF SWAP1 PUSH3 0x4939 JUMP JUMPDEST DUP2 DUP2 PUSH1 0xA0 ADD MLOAD GT PUSH3 0x3155 JUMPI PUSH1 0x40 MLOAD PUSH3 0x461BCD PUSH1 0xE5 SHL DUP2 MSTORE PUSH1 0x4 ADD PUSH3 0xBFF SWAP1 PUSH3 0x49B7 JUMP JUMPDEST PUSH3 0x315F PUSH3 0x3BF8 JUMP JUMPDEST PUSH1 0x5 DUP6 PUSH1 0x40 MLOAD PUSH3 0x3171 SWAP2 SWAP1 PUSH3 0x461D JUMP JUMPDEST SWAP1 DUP2 MSTORE PUSH1 0x40 DUP1 MLOAD SWAP2 DUP3 SWAP1 SUB PUSH1 0x20 SWAP1 DUP2 ADD DUP4 KECCAK256 PUSH1 0x60 DUP5 ADD DUP4 MSTORE SLOAD PUSH1 0xFF DUP1 DUP3 AND ISZERO ISZERO DUP6 MSTORE PUSH2 0x100 DUP3 DIV DUP2 AND ISZERO ISZERO SWAP3 DUP6 ADD SWAP3 SWAP1 SWAP3 MSTORE PUSH3 0x10000 SWAP1 DIV AND ISZERO DUP1 ISZERO SWAP2 DUP4 ADD SWAP2 SWAP1 SWAP2 MSTORE SWAP1 SWAP2 POP PUSH3 0x31D6 JUMPI PUSH1 0x40 MLOAD PUSH3 0x461BCD PUSH1 0xE5 SHL DUP2 MSTORE PUSH1 0x4 ADD PUSH3 0xBFF SWAP1 PUSH3 0x4993 JUMP JUMPDEST PUSH1 0x0 PUSH1 0x6 DUP7 PUSH1 0x40 MLOAD PUSH3 0x31EA SWAP2 SWAP1 PUSH3 0x461D JUMP JUMPDEST SWAP1 DUP2 MSTORE PUSH1 0x40 DUP1 MLOAD PUSH1 0x20 SWAP3 DUP2 SWAP1 SUB DUP4 ADD DUP2 KECCAK256 DUP1 SLOAD PUSH4 0x26B1D5F PUSH1 0xE0 SHL DUP4 MSTORE SWAP3 MLOAD SWAP1 SWAP5 POP PUSH1 0x1 PUSH1 0x1 PUSH1 0xA0 SHL SUB SWAP1 SWAP3 AND SWAP3 DUP4 SWAP3 PUSH4 0x26B1D5F SWAP3 PUSH1 0x4 DUP1 DUP3 ADD SWAP4 SWAP3 SWAP2 DUP3 SWAP1 SUB ADD DUP2 DUP7 DUP1 EXTCODESIZE ISZERO DUP1 ISZERO PUSH3 0x323D JUMPI PUSH1 0x0 DUP1 REVERT JUMPDEST POP GAS STATICCALL ISZERO DUP1 ISZERO PUSH3 0x3252 JUMPI RETURNDATASIZE PUSH1 0x0 DUP1 RETURNDATACOPY RETURNDATASIZE PUSH1 0x0 REVERT JUMPDEST POP POP POP POP PUSH1 0x40 MLOAD RETURNDATASIZE PUSH1 0x1F NOT PUSH1 0x1F DUP3 ADD AND DUP3 ADD DUP1 PUSH1 0x40 MSTORE POP PUSH3 0x3278 SWAP2 SWAP1 DUP2 ADD SWAP1 PUSH3 0x3F85 JUMP JUMPDEST PUSH1 0x1 PUSH1 0x1 PUSH1 0xA0 SHL SUB AND PUSH2 0x8FC DUP8 SWAP1 DUP2 ISZERO MUL SWAP1 PUSH1 0x40 MLOAD PUSH1 0x0 PUSH1 0x40 MLOAD DUP1 DUP4 SUB DUP2 DUP6 DUP9 DUP9 CALL SWAP4 POP POP POP POP ISZERO DUP1 ISZERO PUSH3 0x32B1 JUMPI RETURNDATASIZE PUSH1 0x0 DUP1 RETURNDATACOPY RETURNDATASIZE PUSH1 0x0 REVERT JUMPDEST POP PUSH1 0x1 DUP3 ADD SLOAD PUSH1 0x40 DUP1 MLOAD PUSH4 0x26B1D5F PUSH1 0xE0 SHL DUP2 MSTORE SWAP1 MLOAD PUSH1 0x1 PUSH1 0x1 PUSH1 0xA0 SHL SUB SWAP3 DUP4 AND SWAP3 DUP4 SWAP3 PUSH4 0x23B872DD SWAP3 CALLER SWAP3 DUP8 AND SWAP2 PUSH4 0x26B1D5F SWAP2 PUSH1 0x4 DUP1 DUP4 ADD SWAP3 PUSH1 0x20 SWAP3 SWAP2 SWAP1 DUP3 SWAP1 SUB ADD DUP2 DUP7 DUP1 EXTCODESIZE ISZERO DUP1 ISZERO PUSH3 0x3306 JUMPI PUSH1 0x0 DUP1 REVERT JUMPDEST POP GAS STATICCALL ISZERO DUP1 ISZERO PUSH3 0x331B JUMPI RETURNDATASIZE PUSH1 0x0 DUP1 RETURNDATACOPY RETURNDATASIZE PUSH1 0x0 REVERT JUMPDEST POP POP POP POP PUSH1 0x40 MLOAD RETURNDATASIZE PUSH1 0x1F NOT PUSH1 0x1F DUP3 ADD AND DUP3 ADD DUP1 PUSH1 0x40 MSTORE POP PUSH3 0x3341 SWAP2 SWAP1 DUP2 ADD SWAP1 PUSH3 0x3F85 JUMP JUMPDEST DUP9 PUSH2 0x160 ADD MLOAD PUSH1 0x40 MLOAD DUP5 PUSH4 0xFFFFFFFF AND PUSH1 0xE0 SHL DUP2 MSTORE PUSH1 0x4 ADD PUSH3 0x3367 SWAP4 SWAP3 SWAP2 SWAP1 PUSH3 0x4632 JUMP JUMPDEST PUSH1 0x20 PUSH1 0x40 MLOAD DUP1 DUP4 SUB DUP2 PUSH1 0x0 DUP8 DUP1 EXTCODESIZE ISZERO DUP1 ISZERO PUSH3 0x3382 JUMPI PUSH1 0x0 DUP1 REVERT JUMPDEST POP GAS CALL ISZERO DUP1 ISZERO PUSH3 0x3397 JUMPI RETURNDATASIZE PUSH1 0x0 DUP1 RETURNDATACOPY RETURNDATASIZE PUSH1 0x0 REVERT JUMPDEST POP POP POP POP PUSH1 0x40 MLOAD RETURNDATASIZE PUSH1 0x1F NOT PUSH1 0x1F DUP3 ADD AND DUP3 ADD DUP1 PUSH1 0x40 MSTORE POP PUSH3 0x33BD SWAP2 SWAP1 DUP2 ADD SWAP1 PUSH3 0x3FA6 JUMP JUMPDEST POP PUSH1 0x1 PUSH1 0x40 DUP1 DUP7 ADD SWAP2 SWAP1 SWAP2 MSTORE MLOAD DUP5 SWAP1 PUSH1 0x5 SWAP1 PUSH3 0x33DC SWAP1 DUP12 SWAP1 PUSH3 0x461D JUMP JUMPDEST SWAP1 DUP2 MSTORE PUSH1 0x40 DUP1 MLOAD SWAP2 DUP3 SWAP1 SUB PUSH1 0x20 SWAP1 DUP2 ADD DUP4 KECCAK256 DUP5 MLOAD DUP2 SLOAD SWAP3 DUP7 ADD MLOAD SWAP6 SWAP1 SWAP4 ADD MLOAD ISZERO ISZERO PUSH3 0x10000 MUL PUSH3 0xFF0000 NOT SWAP6 ISZERO ISZERO PUSH2 0x100 MUL PUSH2 0xFF00 NOT SWAP5 ISZERO ISZERO PUSH1 0xFF NOT SWAP1 SWAP5 AND SWAP4 SWAP1 SWAP4 OR SWAP4 SWAP1 SWAP4 AND SWAP2 SWAP1 SWAP2 OR SWAP4 SWAP1 SWAP4 AND OR SWAP1 SWAP2 SSTORE PUSH1 0x2 DUP5 ADD DUP1 SLOAD PUSH1 0x1 PUSH1 0x1 PUSH1 0xA0 SHL SUB NOT AND CALLER OR SWAP1 SSTORE PUSH32 0x44EC18E6FB6C9893AA22A7236ADD99D912E21075F568B1F65C6B3D7A65E285D8 SWAP1 PUSH3 0x2A6E SWAP1 DUP11 SWAP1 PUSH3 0x47F5 JUMP JUMPDEST DUP1 MLOAD PUSH1 0x20 DUP2 DUP4 ADD DUP2 ADD DUP1 MLOAD PUSH1 0x5 DUP3 MSTORE SWAP3 DUP3 ADD SWAP2 SWAP1 SWAP4 ADD KECCAK256 SWAP2 MSTORE SLOAD PUSH1 0xFF DUP1 DUP3 AND SWAP2 PUSH2 0x100 DUP2 DIV DUP3 AND SWAP2 PUSH3 0x10000 SWAP1 SWAP2 DIV AND DUP4 JUMP JUMPDEST DUP1 MLOAD PUSH3 0x34B1 JUMPI PUSH1 0x0 DUP1 REVERT JUMPDEST PUSH3 0x34BB PUSH3 0x3B74 JUMP JUMPDEST PUSH1 0x6 DUP3 PUSH1 0x40 MLOAD PUSH3 0x34CD SWAP2 SWAP1 PUSH3 0x461D JUMP JUMPDEST SWAP1 DUP2 MSTORE PUSH1 0x40 DUP1 MLOAD PUSH1 0x20 SWAP3 DUP2 SWAP1 SUB DUP4 ADD DUP2 KECCAK256 PUSH1 0xC0 DUP3 ADD DUP4 MSTORE DUP1 SLOAD PUSH1 0x1 PUSH1 0x1 PUSH1 0xA0 SHL SUB SWAP1 DUP2 AND DUP1 DUP5 MSTORE PUSH1 0x1 DUP4 ADD SLOAD DUP3 AND SWAP6 DUP5 ADD SWAP6 SWAP1 SWAP6 MSTORE PUSH1 0x2 DUP3 ADD SLOAD AND DUP3 DUP5 ADD MSTORE PUSH1 0x3 DUP2 ADD SLOAD PUSH1 0x60 DUP4 ADD MSTORE PUSH1 0x4 DUP1 DUP3 ADD SLOAD PUSH1 0x80 DUP5 ADD MSTORE PUSH1 0x5 SWAP1 SWAP2 ADD SLOAD PUSH1 0xA0 DUP4 ADD MSTORE DUP3 MLOAD PUSH4 0x7D8F3531 PUSH1 0xE1 SHL DUP2 MSTORE SWAP3 MLOAD SWAP2 SWAP5 POP DUP4 SWAP3 PUSH4 0xFB1E6A62 SWAP3 DUP2 DUP4 ADD SWAP3 PUSH1 0x0 SWAP3 DUP3 SWAP1 SUB ADD DUP2 DUP7 DUP1 EXTCODESIZE ISZERO DUP1 ISZERO PUSH3 0x3561 JUMPI PUSH1 0x0 DUP1 REVERT JUMPDEST POP GAS STATICCALL ISZERO DUP1 ISZERO PUSH3 0x3576 JUMPI RETURNDATASIZE PUSH1 0x0 DUP1 RETURNDATACOPY RETURNDATASIZE PUSH1 0x0 REVERT JUMPDEST POP POP POP POP PUSH1 0x40 MLOAD RETURNDATASIZE PUSH1 0x0 DUP3 RETURNDATACOPY PUSH1 0x1F RETURNDATASIZE SWAP1 DUP2 ADD PUSH1 0x1F NOT AND DUP3 ADD PUSH1 0x40 MSTORE PUSH3 0x35A0 SWAP2 SWAP1 DUP2 ADD SWAP1 PUSH3 0x4112 JUMP JUMPDEST MLOAD PUSH3 0x35AB JUMPI PUSH1 0x0 DUP1 REVERT JUMPDEST PUSH1 0x40 DUP3 ADD MLOAD PUSH1 0x1 PUSH1 0x1 PUSH1 0xA0 SHL SUB AND PUSH3 0x35C3 JUMPI PUSH1 0x0 DUP1 REVERT JUMPDEST PUSH1 0x0 JUMPDEST PUSH1 0x4 DUP5 PUSH1 0x40 MLOAD PUSH3 0x35D8 SWAP2 SWAP1 PUSH3 0x461D JUMP JUMPDEST SWAP1 DUP2 MSTORE PUSH1 0x40 MLOAD SWAP1 DUP2 SWAP1 SUB PUSH1 0x20 ADD SWAP1 KECCAK256 SLOAD DUP2 LT ISZERO PUSH3 0x36B4 JUMPI PUSH1 0x0 PUSH1 0x4 DUP6 PUSH1 0x40 MLOAD PUSH3 0x3604 SWAP2 SWAP1 PUSH3 0x461D JUMP JUMPDEST SWAP1 DUP2 MSTORE PUSH1 0x20 ADD PUSH1 0x40 MLOAD DUP1 SWAP2 SUB SWAP1 KECCAK256 DUP3 DUP2 SLOAD DUP2 LT PUSH3 0x361E JUMPI INVALID JUMPDEST PUSH1 0x0 SWAP2 DUP3 MSTORE PUSH1 0x20 SWAP1 SWAP2 KECCAK256 PUSH1 0x4 SWAP2 DUP3 MUL ADD DUP1 SLOAD PUSH1 0x1 DUP3 ADD SLOAD PUSH1 0x40 MLOAD PUSH4 0x4F95A04B PUSH1 0xE0 SHL DUP2 MSTORE SWAP3 SWAP5 POP PUSH1 0x1 PUSH1 0x1 PUSH1 0xA0 SHL SUB DUP1 DUP9 AND SWAP5 PUSH4 0x4F95A04B SWAP5 PUSH3 0x3668 SWAP5 SWAP1 SWAP3 AND SWAP3 SWAP2 ADD PUSH3 0x467F JUMP JUMPDEST PUSH1 0x0 PUSH1 0x40 MLOAD DUP1 DUP4 SUB DUP2 PUSH1 0x0 DUP8 DUP1 EXTCODESIZE ISZERO DUP1 ISZERO PUSH3 0x3683 JUMPI PUSH1 0x0 DUP1 REVERT JUMPDEST POP GAS CALL ISZERO DUP1 ISZERO PUSH3 0x3698 JUMPI RETURNDATASIZE PUSH1 0x0 DUP1 RETURNDATACOPY RETURNDATASIZE PUSH1 0x0 REVERT JUMPDEST POP POP POP POP PUSH1 0x3 ADD DUP1 SLOAD PUSH1 0xFF NOT AND PUSH1 0x1 SWAP1 DUP2 OR SWAP1 SWAP2 SSTORE ADD PUSH3 0x35C6 JUMP JUMPDEST POP PUSH3 0x36BF PUSH3 0x3B01 JUMP JUMPDEST PUSH1 0x3 DUP5 PUSH1 0x40 MLOAD PUSH3 0x36D1 SWAP2 SWAP1 PUSH3 0x461D JUMP JUMPDEST SWAP1 DUP2 MSTORE PUSH1 0x40 DUP1 MLOAD PUSH1 0x20 SWAP3 DUP2 SWAP1 SUB DUP4 ADD DUP2 KECCAK256 DUP1 SLOAD PUSH1 0x2 PUSH1 0x1 DUP3 AND ISZERO PUSH2 0x100 MUL PUSH1 0x0 NOT ADD SWAP1 SWAP2 AND DIV PUSH1 0x1F DUP2 ADD DUP6 SWAP1 DIV SWAP1 SWAP5 MUL DUP3 ADD PUSH2 0x1A0 SWAP1 DUP2 ADD SWAP1 SWAP4 MSTORE PUSH2 0x180 DUP3 ADD DUP5 DUP2 MSTORE SWAP2 SWAP4 SWAP1 SWAP3 DUP5 SWAP3 SWAP2 DUP5 SWAP2 DUP5 ADD DUP3 DUP3 DUP1 ISZERO PUSH3 0x3772 JUMPI DUP1 PUSH1 0x1F LT PUSH3 0x3746 JUMPI PUSH2 0x100 DUP1 DUP4 SLOAD DIV MUL DUP4 MSTORE SWAP2 PUSH1 0x20 ADD SWAP2 PUSH3 0x3772 JUMP JUMPDEST DUP3 ADD SWAP2 SWAP1 PUSH1 0x0 MSTORE PUSH1 0x20 PUSH1 0x0 KECCAK256 SWAP1 JUMPDEST DUP2 SLOAD DUP2 MSTORE SWAP1 PUSH1 0x1 ADD SWAP1 PUSH1 0x20 ADD DUP1 DUP4 GT PUSH3 0x3754 JUMPI DUP3 SWAP1 SUB PUSH1 0x1F AND DUP3 ADD SWAP2 JUMPDEST POP POP POP SWAP2 DUP4 MSTORE POP POP PUSH1 0x1 DUP3 DUP2 ADD SLOAD PUSH1 0x1 PUSH1 0x1 PUSH1 0xA0 SHL SUB SWAP1 DUP2 AND PUSH1 0x20 DUP1 DUP6 ADD SWAP2 SWAP1 SWAP2 MSTORE PUSH1 0x2 DUP1 DUP7 ADD SLOAD SWAP1 SWAP3 AND PUSH1 0x40 DUP1 DUP7 ADD SWAP2 SWAP1 SWAP2 MSTORE PUSH1 0x3 DUP7 ADD DUP1 SLOAD DUP3 MLOAD PUSH2 0x100 SWAP7 DUP3 AND ISZERO SWAP7 SWAP1 SWAP7 MUL PUSH1 0x0 NOT ADD AND SWAP4 SWAP1 SWAP4 DIV PUSH1 0x1F DUP2 ADD DUP4 SWAP1 DIV DUP4 MUL DUP6 ADD DUP4 ADD SWAP1 SWAP2 MSTORE DUP1 DUP5 MSTORE PUSH1 0x60 SWAP1 SWAP5 ADD SWAP4 SWAP1 DUP4 ADD DUP3 DUP3 DUP1 ISZERO PUSH3 0x3831 JUMPI DUP1 PUSH1 0x1F LT PUSH3 0x3805 JUMPI PUSH2 0x100 DUP1 DUP4 SLOAD DIV MUL DUP4 MSTORE SWAP2 PUSH1 0x20 ADD SWAP2 PUSH3 0x3831 JUMP JUMPDEST DUP3 ADD SWAP2 SWAP1 PUSH1 0x0 MSTORE PUSH1 0x20 PUSH1 0x0 KECCAK256 SWAP1 JUMPDEST DUP2 SLOAD DUP2 MSTORE SWAP1 PUSH1 0x1 ADD SWAP1 PUSH1 0x20 ADD DUP1 DUP4 GT PUSH3 0x3813 JUMPI DUP3 SWAP1 SUB PUSH1 0x1F AND DUP3 ADD SWAP2 JUMPDEST POP POP POP POP POP DUP2 MSTORE PUSH1 0x20 ADD PUSH1 0x4 DUP3 ADD SLOAD DUP2 MSTORE PUSH1 0x20 ADD PUSH1 0x5 DUP3 ADD SLOAD DUP2 MSTORE PUSH1 0x20 ADD PUSH1 0x6 DUP3 ADD SLOAD DUP2 MSTORE PUSH1 0x20 ADD PUSH1 0x7 DUP3 ADD SLOAD DUP2 MSTORE PUSH1 0x20 ADD PUSH1 0x8 DUP3 ADD SLOAD DUP2 MSTORE PUSH1 0x20 ADD PUSH1 0x9 DUP3 ADD SLOAD DUP2 MSTORE PUSH1 0x20 ADD PUSH1 0xA DUP3 ADD SLOAD DUP2 MSTORE PUSH1 0x20 ADD PUSH1 0xB DUP3 ADD SLOAD DUP2 MSTORE POP POP SWAP1 POP PUSH1 0x0 DUP4 PUSH1 0x20 ADD MLOAD SWAP1 POP DUP3 PUSH1 0x1 PUSH1 0x1 PUSH1 0xA0 SHL SUB AND PUSH4 0xE1F21C67 DUP3 ADDRESS DUP6 PUSH2 0x160 ADD MLOAD PUSH1 0x40 MLOAD DUP5 PUSH4 0xFFFFFFFF AND PUSH1 0xE0 SHL DUP2 MSTORE PUSH1 0x4 ADD PUSH3 0x38CC SWAP4 SWAP3 SWAP2 SWAP1 PUSH3 0x47C0 JUMP JUMPDEST PUSH1 0x0 PUSH1 0x40 MLOAD DUP1 DUP4 SUB DUP2 PUSH1 0x0 DUP8 DUP1 EXTCODESIZE ISZERO DUP1 ISZERO PUSH3 0x38E7 JUMPI PUSH1 0x0 DUP1 REVERT JUMPDEST POP GAS CALL ISZERO DUP1 ISZERO PUSH3 0x38FC JUMPI RETURNDATASIZE PUSH1 0x0 DUP1 RETURNDATACOPY RETURNDATASIZE PUSH1 0x0 REVERT JUMPDEST POP POP POP POP DUP1 PUSH1 0x1 PUSH1 0x1 PUSH1 0xA0 SHL SUB AND PUSH4 0x23B872DD DUP5 PUSH1 0x1 PUSH1 0x1 PUSH1 0xA0 SHL SUB AND PUSH4 0x26B1D5F PUSH1 0x40 MLOAD DUP2 PUSH4 0xFFFFFFFF AND PUSH1 0xE0 SHL DUP2 MSTORE PUSH1 0x4 ADD PUSH1 0x20 PUSH1 0x40 MLOAD DUP1 DUP4 SUB DUP2 DUP7 DUP1 EXTCODESIZE ISZERO DUP1 ISZERO PUSH3 0x3949 JUMPI PUSH1 0x0 DUP1 REVERT JUMPDEST POP GAS STATICCALL ISZERO DUP1 ISZERO PUSH3 0x395E JUMPI RETURNDATASIZE PUSH1 0x0 DUP1 RETURNDATACOPY RETURNDATASIZE PUSH1 0x0 REVERT JUMPDEST POP POP POP POP PUSH1 0x40 MLOAD RETURNDATASIZE PUSH1 0x1F NOT PUSH1 0x1F DUP3 ADD AND DUP3 ADD DUP1 PUSH1 0x40 MSTORE POP PUSH3 0x3984 SWAP2 SWAP1 DUP2 ADD SWAP1 PUSH3 0x3F85 JUMP JUMPDEST DUP7 PUSH1 0x40 ADD MLOAD DUP6 PUSH2 0x160 ADD MLOAD PUSH1 0x40 MLOAD DUP5 PUSH4 0xFFFFFFFF AND PUSH1 0xE0 SHL DUP2 MSTORE PUSH1 0x4 ADD PUSH3 0x39AF SWAP4 SWAP3 SWAP2 SWAP1 PUSH3 0x4632 JUMP JUMPDEST PUSH1 0x20 PUSH1 0x40 MLOAD DUP1 DUP4 SUB DUP2 PUSH1 0x0 DUP8 DUP1 EXTCODESIZE ISZERO DUP1 ISZERO PUSH3 0x39CA JUMPI PUSH1 0x0 DUP1 REVERT JUMPDEST POP GAS CALL ISZERO DUP1 ISZERO PUSH3 0x39DF JUMPI RETURNDATASIZE PUSH1 0x0 DUP1 RETURNDATACOPY RETURNDATASIZE PUSH1 0x0 REVERT JUMPDEST POP POP POP POP PUSH1 0x40 MLOAD RETURNDATASIZE PUSH1 0x1F NOT PUSH1 0x1F DUP3 ADD AND DUP3 ADD DUP1 PUSH1 0x40 MSTORE POP PUSH3 0x3A05 SWAP2 SWAP1 DUP2 ADD SWAP1 PUSH3 0x3FA6 JUMP JUMPDEST POP POP POP POP POP POP JUMP JUMPDEST DUP1 DUP3 SUB DUP3 DUP2 GT ISZERO PUSH3 0xF6F JUMPI PUSH1 0x40 MLOAD PUSH3 0x461BCD PUSH1 0xE5 SHL DUP2 MSTORE PUSH1 0x4 ADD PUSH3 0xBFF SWAP1 PUSH3 0x4927 JUMP JUMPDEST PUSH1 0x0 DUP1 DUP3 GT PUSH3 0x3A57 JUMPI PUSH1 0x40 MLOAD PUSH3 0x461BCD PUSH1 0xE5 SHL DUP2 MSTORE PUSH1 0x4 ADD PUSH3 0xBFF SWAP1 PUSH3 0x4981 JUMP JUMPDEST DUP2 DUP4 DUP2 PUSH3 0x3A61 JUMPI INVALID JUMPDEST DIV SWAP4 SWAP3 POP POP POP JUMP JUMPDEST DUP1 DUP3 ADD DUP3 DUP2 LT ISZERO PUSH3 0xF6F JUMPI PUSH1 0x40 MLOAD PUSH3 0x461BCD PUSH1 0xE5 SHL DUP2 MSTORE PUSH1 0x4 ADD PUSH3 0xBFF SWAP1 PUSH3 0x495D JUMP JUMPDEST PUSH1 0x0 DUP2 ISZERO DUP1 PUSH3 0x3AAC JUMPI POP POP DUP1 DUP3 MUL DUP3 DUP3 DUP3 DUP2 PUSH3 0x3AA9 JUMPI INVALID JUMPDEST DIV EQ JUMPDEST PUSH3 0xF6F JUMPI PUSH1 0x40 MLOAD PUSH3 0x461BCD PUSH1 0xE5 SHL DUP2 MSTORE PUSH1 0x4 ADD PUSH3 0xBFF SWAP1 PUSH3 0x494B JUMP JUMPDEST PUSH1 0x0 DUP2 PUSH3 0x3AD8 PUSH3 0x124E JUMP JUMPDEST ADD SWAP3 SWAP2 POP POP JUMP JUMPDEST PUSH1 0x0 PUSH1 0x2 SLOAD PUSH1 0x0 EQ ISZERO PUSH3 0x3AFA JUMPI PUSH8 0x16345785D8A0000 PUSH1 0x2 SSTORE JUMPDEST POP PUSH1 0x2 SLOAD SWAP1 JUMP JUMPDEST PUSH1 0x40 MLOAD DUP1 PUSH2 0x180 ADD PUSH1 0x40 MSTORE DUP1 PUSH1 0x60 DUP2 MSTORE PUSH1 0x20 ADD PUSH1 0x0 PUSH1 0x1 PUSH1 0x1 PUSH1 0xA0 SHL SUB AND DUP2 MSTORE PUSH1 0x20 ADD PUSH1 0x0 PUSH1 0x1 PUSH1 0x1 PUSH1 0xA0 SHL SUB AND DUP2 MSTORE PUSH1 0x20 ADD PUSH1 0x60 DUP2 MSTORE PUSH1 0x20 ADD PUSH1 0x0 DUP2 MSTORE PUSH1 0x20 ADD PUSH1 0x0 DUP2 MSTORE PUSH1 0x20 ADD PUSH1 0x0 DUP2 MSTORE PUSH1 0x20 ADD PUSH1 0x0 DUP2 MSTORE PUSH1 0x20 ADD PUSH1 0x0 DUP2 MSTORE PUSH1 0x20 ADD PUSH1 0x0 DUP2 MSTORE PUSH1 0x20 ADD PUSH1 0x0 DUP2 MSTORE PUSH1 0x20 ADD PUSH1 0x0 DUP2 MSTORE POP SWAP1 JUMP JUMPDEST PUSH1 0x40 MLOAD DUP1 PUSH1 0xC0 ADD PUSH1 0x40 MSTORE DUP1 PUSH1 0x0 PUSH1 0x1 PUSH1 0x1 PUSH1 0xA0 SHL SUB AND DUP2 MSTORE PUSH1 0x20 ADD PUSH1 0x0 PUSH1 0x1 PUSH1 0x1 PUSH1 0xA0 SHL SUB AND DUP2 MSTORE PUSH1 0x20 ADD PUSH1 0x0 PUSH1 0x1 PUSH1 0x1 PUSH1 0xA0 SHL SUB AND DUP2 MSTORE PUSH1 0x20 ADD PUSH1 0x0 DUP2 MSTORE PUSH1 0x20 ADD PUSH1 0x0 DUP2 MSTORE PUSH1 0x20 ADD PUSH1 0x0 DUP2 MSTORE POP SWAP1 JUMP JUMPDEST PUSH1 0x40 MLOAD DUP1 PUSH1 0x80 ADD PUSH1 0x40 MSTORE DUP1 PUSH1 0x0 PUSH1 0x1 PUSH1 0x1 PUSH1 0xA0 SHL SUB AND DUP2 MSTORE PUSH1 0x20 ADD PUSH1 0x0 DUP2 MSTORE PUSH1 0x20 ADD PUSH1 0x0 DUP2 MSTORE PUSH1 0x20 ADD PUSH1 0x0 ISZERO ISZERO DUP2 MSTORE POP SWAP1 JUMP JUMPDEST PUSH1 0x40 DUP1 MLOAD PUSH1 0x60 DUP2 ADD DUP3 MSTORE PUSH1 0x0 DUP1 DUP3 MSTORE PUSH1 0x20 DUP3 ADD DUP2 SWAP1 MSTORE SWAP2 DUP2 ADD SWAP2 SWAP1 SWAP2 MSTORE SWAP1 JUMP JUMPDEST DUP3 DUP1 SLOAD PUSH1 0x1 DUP2 PUSH1 0x1 AND ISZERO PUSH2 0x100 MUL SUB AND PUSH1 0x2 SWAP1 DIV SWAP1 PUSH1 0x0 MSTORE PUSH1 0x20 PUSH1 0x0 KECCAK256 SWAP1 PUSH1 0x1F ADD PUSH1 0x20 SWAP1 DIV DUP2 ADD SWAP3 DUP3 PUSH1 0x1F LT PUSH3 0x3C5B JUMPI DUP1 MLOAD PUSH1 0xFF NOT AND DUP4 DUP1 ADD OR DUP6 SSTORE PUSH3 0x3C8B JUMP JUMPDEST DUP3 DUP1 ADD PUSH1 0x1 ADD DUP6 SSTORE DUP3 ISZERO PUSH3 0x3C8B JUMPI SWAP2 DUP3 ADD JUMPDEST DUP3 DUP2 GT ISZERO PUSH3 0x3C8B JUMPI DUP3 MLOAD DUP3 SSTORE SWAP2 PUSH1 0x20 ADD SWAP2 SWAP1 PUSH1 0x1 ADD SWAP1 PUSH3 0x3C6E JUMP JUMPDEST POP PUSH3 0x3C99 SWAP3 SWAP2 POP PUSH3 0x3CAB JUMP JUMPDEST POP SWAP1 JUMP JUMPDEST PUSH2 0xC56 DUP1 PUSH3 0x4B83 DUP4 CODECOPY ADD SWAP1 JUMP JUMPDEST PUSH3 0x1250 SWAP2 SWAP1 JUMPDEST DUP1 DUP3 GT ISZERO PUSH3 0x3C99 JUMPI PUSH1 0x0 DUP2 SSTORE PUSH1 0x1 ADD PUSH3 0x3CB2 JUMP JUMPDEST DUP1 CALLDATALOAD PUSH3 0xF6F DUP2 PUSH3 0x4B52 JUMP JUMPDEST DUP1 MLOAD PUSH3 0xF6F DUP2 PUSH3 0x4B52 JUMP JUMPDEST DUP1 MLOAD PUSH3 0xF6F DUP2 PUSH3 0x4B6C JUMP JUMPDEST PUSH1 0x0 DUP1 DUP4 PUSH1 0x1F DUP5 ADD SLT PUSH3 0x3D02 JUMPI PUSH1 0x0 DUP1 REVERT JUMPDEST POP DUP2 CALLDATALOAD PUSH8 0xFFFFFFFFFFFFFFFF DUP2 GT ISZERO PUSH3 0x3D1B JUMPI PUSH1 0x0 DUP1 REVERT JUMPDEST PUSH1 0x20 DUP4 ADD SWAP2 POP DUP4 PUSH1 0x1 DUP3 MUL DUP4 ADD GT ISZERO PUSH3 0x4B9 JUMPI PUSH1 0x0 DUP1 REVERT JUMPDEST PUSH1 0x0 DUP3 PUSH1 0x1F DUP4 ADD SLT PUSH3 0x3D46 JUMPI PUSH1 0x0 DUP1 REVERT JUMPDEST DUP2 CALLDATALOAD PUSH3 0x3D5D PUSH3 0x3D57 DUP3 PUSH3 0x4A8E JUMP JUMPDEST PUSH3 0x4A66 JUMP JUMPDEST SWAP2 POP DUP1 DUP3 MSTORE PUSH1 0x20 DUP4 ADD PUSH1 0x20 DUP4 ADD DUP6 DUP4 DUP4 ADD GT ISZERO PUSH3 0x3D7A JUMPI PUSH1 0x0 DUP1 REVERT JUMPDEST PUSH3 0x3D87 DUP4 DUP3 DUP5 PUSH3 0x4B09 JUMP JUMPDEST POP POP POP SWAP3 SWAP2 POP POP JUMP JUMPDEST PUSH1 0x0 DUP3 PUSH1 0x1F DUP4 ADD SLT PUSH3 0x3DA2 JUMPI PUSH1 0x0 DUP1 REVERT JUMPDEST DUP2 MLOAD PUSH3 0x3DB3 PUSH3 0x3D57 DUP3 PUSH3 0x4A8E JUMP JUMPDEST SWAP2 POP DUP1 DUP3 MSTORE PUSH1 0x20 DUP4 ADD PUSH1 0x20 DUP4 ADD DUP6 DUP4 DUP4 ADD GT ISZERO PUSH3 0x3DD0 JUMPI PUSH1 0x0 DUP1 REVERT JUMPDEST PUSH3 0x3D87 DUP4 DUP3 DUP5 PUSH3 0x4B15 JUMP JUMPDEST PUSH1 0x0 PUSH2 0x180 DUP3 DUP5 SUB SLT ISZERO PUSH3 0x3DF1 JUMPI PUSH1 0x0 DUP1 REVERT JUMPDEST PUSH3 0x3DFE PUSH2 0x180 PUSH3 0x4A66 JUMP JUMPDEST SWAP1 POP DUP2 CALLDATALOAD PUSH8 0xFFFFFFFFFFFFFFFF DUP2 GT ISZERO PUSH3 0x3E18 JUMPI PUSH1 0x0 DUP1 REVERT JUMPDEST PUSH3 0x3E26 DUP5 DUP3 DUP6 ADD PUSH3 0x3D34 JUMP JUMPDEST DUP3 MSTORE POP PUSH1 0x20 PUSH3 0x3E39 DUP5 DUP5 DUP4 ADD PUSH3 0x3CC8 JUMP JUMPDEST PUSH1 0x20 DUP4 ADD MSTORE POP PUSH1 0x40 PUSH3 0x3E4F DUP5 DUP3 DUP6 ADD PUSH3 0x3CC8 JUMP JUMPDEST PUSH1 0x40 DUP4 ADD MSTORE POP PUSH1 0x60 DUP3 ADD CALLDATALOAD PUSH8 0xFFFFFFFFFFFFFFFF DUP2 GT ISZERO PUSH3 0x3E70 JUMPI PUSH1 0x0 DUP1 REVERT JUMPDEST PUSH3 0x3E7E DUP5 DUP3 DUP6 ADD PUSH3 0x3D34 JUMP JUMPDEST PUSH1 0x60 DUP4 ADD MSTORE POP PUSH1 0x80 PUSH3 0x3E94 DUP5 DUP3 DUP6 ADD PUSH3 0x3F42 JUMP JUMPDEST PUSH1 0x80 DUP4 ADD MSTORE POP PUSH1 0xA0 PUSH3 0x3EAA DUP5 DUP3 DUP6 ADD PUSH3 0x3F42 JUMP JUMPDEST PUSH1 0xA0 DUP4 ADD MSTORE POP PUSH1 0xC0 PUSH3 0x3EC0 DUP5 DUP3 DUP6 ADD PUSH3 0x3F42 JUMP JUMPDEST PUSH1 0xC0 DUP4 ADD MSTORE POP PUSH1 0xE0 PUSH3 0x3ED6 DUP5 DUP3 DUP6 ADD PUSH3 0x3F42 JUMP JUMPDEST PUSH1 0xE0 DUP4 ADD MSTORE POP PUSH2 0x100 PUSH3 0x3EED DUP5 DUP3 DUP6 ADD PUSH3 0x3F42 JUMP JUMPDEST PUSH2 0x100 DUP4 ADD MSTORE POP PUSH2 0x120 PUSH3 0x3F05 DUP5 DUP3 DUP6 ADD PUSH3 0x3F42 JUMP JUMPDEST PUSH2 0x120 DUP4 ADD MSTORE POP PUSH2 0x140 PUSH3 0x3F1D DUP5 DUP3 DUP6 ADD PUSH3 0x3F42 JUMP JUMPDEST PUSH2 0x140 DUP4 ADD MSTORE POP PUSH2 0x160 PUSH3 0x3F35 DUP5 DUP3 DUP6 ADD PUSH3 0x3F42 JUMP JUMPDEST PUSH2 0x160 DUP4 ADD MSTORE POP SWAP3 SWAP2 POP POP JUMP JUMPDEST DUP1 CALLDATALOAD PUSH3 0xF6F DUP2 PUSH3 0x4B77 JUMP JUMPDEST DUP1 MLOAD PUSH3 0xF6F DUP2 PUSH3 0x4B77 JUMP JUMPDEST PUSH1 0x0 PUSH1 0x20 DUP3 DUP5 SUB SLT ISZERO PUSH3 0x3F6F JUMPI PUSH1 0x0 DUP1 REVERT JUMPDEST PUSH1 0x0 PUSH3 0x3F7D DUP5 DUP5 PUSH3 0x3CC8 JUMP JUMPDEST SWAP5 SWAP4 POP POP POP POP JUMP JUMPDEST PUSH1 0x0 PUSH1 0x20 DUP3 DUP5 SUB SLT ISZERO PUSH3 0x3F98 JUMPI PUSH1 0x0 DUP1 REVERT JUMPDEST PUSH1 0x0 PUSH3 0x3F7D DUP5 DUP5 PUSH3 0x3CD5 JUMP JUMPDEST PUSH1 0x0 PUSH1 0x20 DUP3 DUP5 SUB SLT ISZERO PUSH3 0x3FB9 JUMPI PUSH1 0x0 DUP1 REVERT JUMPDEST PUSH1 0x0 PUSH3 0x3F7D DUP5 DUP5 PUSH3 0x3CE2 JUMP JUMPDEST PUSH1 0x0 DUP1 PUSH1 0x20 DUP4 DUP6 SUB SLT ISZERO PUSH3 0x3FDB JUMPI PUSH1 0x0 DUP1 REVERT JUMPDEST DUP3 CALLDATALOAD PUSH8 0xFFFFFFFFFFFFFFFF DUP2 GT ISZERO PUSH3 0x3FF3 JUMPI PUSH1 0x0 DUP1 REVERT JUMPDEST PUSH3 0x4001 DUP6 DUP3 DUP7 ADD PUSH3 0x3CEF JUMP JUMPDEST SWAP3 POP SWAP3 POP POP SWAP3 POP SWAP3 SWAP1 POP JUMP JUMPDEST PUSH1 0x0 DUP1 PUSH1 0x0 PUSH1 0x40 DUP5 DUP7 SUB SLT ISZERO PUSH3 0x4023 JUMPI PUSH1 0x0 DUP1 REVERT JUMPDEST DUP4 CALLDATALOAD PUSH8 0xFFFFFFFFFFFFFFFF DUP2 GT ISZERO PUSH3 0x403B JUMPI PUSH1 0x0 DUP1 REVERT JUMPDEST PUSH3 0x4049 DUP7 DUP3 DUP8 ADD PUSH3 0x3CEF JUMP JUMPDEST SWAP4 POP SWAP4 POP POP PUSH1 0x20 PUSH3 0x405E DUP7 DUP3 DUP8 ADD PUSH3 0x3F42 JUMP JUMPDEST SWAP2 POP POP SWAP3 POP SWAP3 POP SWAP3 JUMP JUMPDEST PUSH1 0x0 DUP1 PUSH1 0x0 DUP1 PUSH1 0x60 DUP6 DUP8 SUB SLT ISZERO PUSH3 0x407F JUMPI PUSH1 0x0 DUP1 REVERT JUMPDEST DUP5 CALLDATALOAD PUSH8 0xFFFFFFFFFFFFFFFF DUP2 GT ISZERO PUSH3 0x4097 JUMPI PUSH1 0x0 DUP1 REVERT JUMPDEST PUSH3 0x40A5 DUP8 DUP3 DUP9 ADD PUSH3 0x3CEF JUMP JUMPDEST SWAP5 POP SWAP5 POP POP PUSH1 0x20 PUSH3 0x40BA DUP8 DUP3 DUP9 ADD PUSH3 0x3F42 JUMP JUMPDEST SWAP3 POP POP PUSH1 0x40 PUSH3 0x40CD DUP8 DUP3 DUP9 ADD PUSH3 0x3F42 JUMP JUMPDEST SWAP2 POP POP SWAP3 SWAP6 SWAP2 SWAP5 POP SWAP3 POP JUMP JUMPDEST PUSH1 0x0 PUSH1 0x20 DUP3 DUP5 SUB SLT ISZERO PUSH3 0x40EC JUMPI PUSH1 0x0 DUP1 REVERT JUMPDEST DUP2 CALLDATALOAD PUSH8 0xFFFFFFFFFFFFFFFF DUP2 GT ISZERO PUSH3 0x4104 JUMPI PUSH1 0x0 DUP1 REVERT JUMPDEST PUSH3 0x3F7D DUP5 DUP3 DUP6 ADD PUSH3 0x3D34 JUMP JUMPDEST PUSH1 0x0 PUSH1 0x20 DUP3 DUP5 SUB SLT ISZERO PUSH3 0x4125 JUMPI PUSH1 0x0 DUP1 REVERT JUMPDEST DUP2 MLOAD PUSH8 0xFFFFFFFFFFFFFFFF DUP2 GT ISZERO PUSH3 0x413D JUMPI PUSH1 0x0 DUP1 REVERT JUMPDEST PUSH3 0x3F7D DUP5 DUP3 DUP6 ADD PUSH3 0x3D90 JUMP JUMPDEST PUSH1 0x0 DUP1 PUSH1 0x40 DUP4 DUP6 SUB SLT ISZERO PUSH3 0x415F JUMPI PUSH1 0x0 DUP1 REVERT JUMPDEST DUP3 CALLDATALOAD PUSH8 0xFFFFFFFFFFFFFFFF DUP2 GT ISZERO PUSH3 0x4177 JUMPI PUSH1 0x0 DUP1 REVERT JUMPDEST PUSH3 0x4185 DUP6 DUP3 DUP7 ADD PUSH3 0x3D34 JUMP JUMPDEST SWAP3 POP POP PUSH1 0x20 PUSH3 0x4198 DUP6 DUP3 DUP7 ADD PUSH3 0x3F42 JUMP JUMPDEST SWAP2 POP POP SWAP3 POP SWAP3 SWAP1 POP JUMP JUMPDEST PUSH1 0x0 PUSH1 0x20 DUP3 DUP5 SUB SLT ISZERO PUSH3 0x41B5 JUMPI PUSH1 0x0 DUP1 REVERT JUMPDEST DUP2 CALLDATALOAD PUSH8 0xFFFFFFFFFFFFFFFF DUP2 GT ISZERO PUSH3 0x41CD JUMPI PUSH1 0x0 DUP1 REVERT JUMPDEST PUSH3 0x3F7D DUP5 DUP3 DUP6 ADD PUSH3 0x3DDD JUMP JUMPDEST PUSH1 0x0 PUSH1 0x20 DUP3 DUP5 SUB SLT ISZERO PUSH3 0x41EE JUMPI PUSH1 0x0 DUP1 REVERT JUMPDEST PUSH1 0x0 PUSH3 0x3F7D DUP5 DUP5 PUSH3 0x3F42 JUMP JUMPDEST PUSH1 0x0 PUSH1 0x20 DUP3 DUP5 SUB SLT ISZERO PUSH3 0x420F JUMPI PUSH1 0x0 DUP1 REVERT JUMPDEST PUSH1 0x0 PUSH3 0x3F7D DUP5 DUP5 PUSH3 0x3F4F JUMP JUMPDEST PUSH1 0x0 DUP1 PUSH1 0x40 DUP4 DUP6 SUB SLT ISZERO PUSH3 0x4231 JUMPI PUSH1 0x0 DUP1 REVERT JUMPDEST PUSH1 0x0 PUSH3 0x423F DUP6 DUP6 PUSH3 0x3F4F JUMP JUMPDEST SWAP3 POP POP PUSH1 0x20 PUSH3 0x4198 DUP6 DUP3 DUP7 ADD PUSH3 0x3F4F JUMP JUMPDEST PUSH1 0x0 DUP1 PUSH1 0x0 PUSH1 0x60 DUP5 DUP7 SUB SLT ISZERO PUSH3 0x4268 JUMPI PUSH1 0x0 DUP1 REVERT JUMPDEST PUSH1 0x0 PUSH3 0x4276 DUP7 DUP7 PUSH3 0x3F4F JUMP JUMPDEST SWAP4 POP POP PUSH1 0x20 PUSH3 0x4289 DUP7 DUP3 DUP8 ADD PUSH3 0x3F4F JUMP JUMPDEST SWAP3 POP POP PUSH1 0x40 PUSH3 0x405E DUP7 DUP3 DUP8 ADD PUSH3 0x3F4F JUMP JUMPDEST PUSH3 0x42A7 DUP2 PUSH3 0x4AE7 JUMP JUMPDEST DUP3 MSTORE POP POP JUMP JUMPDEST PUSH3 0x42A7 DUP2 PUSH3 0x4AC9 JUMP JUMPDEST PUSH3 0x42A7 DUP2 PUSH3 0x4AD6 JUMP JUMPDEST PUSH3 0x42A7 DUP2 PUSH3 0x4AEF JUMP JUMPDEST PUSH3 0x42A7 DUP2 PUSH3 0x4AFC JUMP JUMPDEST PUSH1 0x0 PUSH3 0x42E7 DUP4 DUP6 PUSH3 0x4ABB JUMP JUMPDEST SWAP4 POP PUSH3 0x42F6 DUP4 DUP6 DUP5 PUSH3 0x4B09 JUMP JUMPDEST PUSH3 0x4301 DUP4 PUSH3 0x4B48 JUMP JUMPDEST SWAP1 SWAP4 ADD SWAP4 SWAP3 POP POP POP JUMP JUMPDEST PUSH1 0x0 PUSH3 0x4319 DUP4 DUP6 PUSH3 0x4AC4 JUMP JUMPDEST SWAP4 POP PUSH3 0x4328 DUP4 DUP6 DUP5 PUSH3 0x4B09 JUMP JUMPDEST POP POP ADD SWAP1 JUMP JUMPDEST PUSH1 0x0 PUSH3 0x433B DUP3 PUSH3 0x4AB7 JUMP JUMPDEST PUSH3 0x4347 DUP2 DUP6 PUSH3 0x4ABB JUMP JUMPDEST SWAP4 POP PUSH3 0x4359 DUP2 DUP6 PUSH1 0x20 DUP7 ADD PUSH3 0x4B15 JUMP JUMPDEST PUSH3 0x4301 DUP2 PUSH3 0x4B48 JUMP JUMPDEST PUSH1 0x0 PUSH3 0x4371 DUP3 PUSH3 0x4AB7 JUMP JUMPDEST PUSH3 0x437D DUP2 DUP6 PUSH3 0x4AC4 JUMP JUMPDEST SWAP4 POP PUSH3 0x438F DUP2 DUP6 PUSH1 0x20 DUP7 ADD PUSH3 0x4B15 JUMP JUMPDEST SWAP3 SWAP1 SWAP3 ADD SWAP3 SWAP2 POP POP JUMP JUMPDEST PUSH1 0x0 PUSH3 0x43A8 PUSH1 0x15 DUP4 PUSH3 0x4ABB JUMP JUMPDEST PUSH21 0x64732D6D6174682D7375622D756E646572666C6F77 PUSH1 0x58 SHL DUP2 MSTORE PUSH1 0x20 ADD SWAP3 SWAP2 POP POP JUMP JUMPDEST PUSH1 0x0 PUSH3 0x43DB PUSH1 0x37 DUP4 PUSH3 0x4ABB JUMP JUMPDEST PUSH32 0x6E6F77206D7573742067726561746572207468616E2074686520646973636F20 DUP2 MSTORE PUSH32 0x66756E642072616973696E672073746172742074696D65000000000000000000 PUSH1 0x20 DUP3 ADD MSTORE PUSH1 0x40 ADD SWAP3 SWAP2 POP POP JUMP JUMPDEST PUSH1 0x0 PUSH3 0x443C PUSH1 0x14 DUP4 PUSH3 0x4ABB JUMP JUMPDEST PUSH20 0x64732D6D6174682D6D756C2D6F766572666C6F77 PUSH1 0x60 SHL DUP2 MSTORE PUSH1 0x20 ADD SWAP3 SWAP2 POP POP JUMP JUMPDEST PUSH1 0x0 PUSH3 0x446E PUSH1 0x14 DUP4 PUSH3 0x4ABB JUMP JUMPDEST PUSH20 0x64732D6D6174682D6164642D6F766572666C6F77 PUSH1 0x60 SHL DUP2 MSTORE PUSH1 0x20 ADD SWAP3 SWAP2 POP POP JUMP JUMPDEST PUSH1 0x0 PUSH3 0x44A0 PUSH1 0x14 DUP4 PUSH3 0x4ABB JUMP JUMPDEST PUSH20 0x43616C6C6572206973206E6F74206F776E657221 PUSH1 0x60 SHL DUP2 MSTORE PUSH1 0x20 ADD SWAP3 SWAP2 POP POP JUMP JUMPDEST PUSH1 0x0 PUSH3 0x44D2 PUSH1 0x1A DUP4 PUSH3 0x4ABB JUMP JUMPDEST PUSH32 0x536166654D6174683A206469766973696F6E206279207A65726F000000000000 DUP2 MSTORE PUSH1 0x20 ADD SWAP3 SWAP2 POP POP JUMP JUMPDEST PUSH1 0x0 PUSH3 0x450D PUSH1 0x23 DUP4 PUSH3 0x4ABB JUMP JUMPDEST PUSH32 0x74686520646973636F206D75737420686173206E6F74206265656E2073746172 DUP2 MSTORE PUSH3 0x1D1959 PUSH1 0xEA SHL PUSH1 0x20 DUP3 ADD MSTORE PUSH1 0x40 ADD SWAP3 SWAP2 POP POP JUMP JUMPDEST PUSH1 0x0 PUSH3 0x4554 PUSH1 0x18 DUP4 PUSH3 0x4ABB JUMP JUMPDEST PUSH32 0x556E6973776170206E6F7420696E697469616C697A65642E0000000000000000 DUP2 MSTORE PUSH1 0x20 ADD SWAP3 SWAP2 POP POP JUMP JUMPDEST PUSH1 0x0 PUSH3 0x458F PUSH1 0x32 DUP4 PUSH3 0x4ABB JUMP JUMPDEST PUSH32 0x6E6F77206D757374206C657373207468616E2074686520646973636F2066756E DUP2 MSTORE PUSH18 0x642072616973696E6720656E642074696D65 PUSH1 0x70 SHL PUSH1 0x20 DUP3 ADD MSTORE PUSH1 0x40 ADD SWAP3 SWAP2 POP POP JUMP JUMPDEST PUSH1 0x0 PUSH3 0x45E5 PUSH1 0xF DUP4 PUSH3 0x4ABB JUMP JUMPDEST PUSH15 0x666565206E6F7420656E6F75676821 PUSH1 0x88 SHL DUP2 MSTORE PUSH1 0x20 ADD SWAP3 SWAP2 POP POP JUMP JUMPDEST PUSH3 0x42A7 DUP2 PUSH3 0x1250 JUMP JUMPDEST PUSH1 0x0 PUSH3 0x3F7D DUP3 DUP5 DUP7 PUSH3 0x430B JUMP JUMPDEST PUSH1 0x0 PUSH3 0x462B DUP3 DUP5 PUSH3 0x4364 JUMP JUMPDEST SWAP4 SWAP3 POP POP POP JUMP JUMPDEST PUSH1 0x60 DUP2 ADD PUSH3 0x4642 DUP3 DUP7 PUSH3 0x429C JUMP JUMPDEST PUSH3 0x4651 PUSH1 0x20 DUP4 ADD DUP6 PUSH3 0x429C JUMP JUMPDEST PUSH3 0x3F7D PUSH1 0x40 DUP4 ADD DUP5 PUSH3 0x4603 JUMP JUMPDEST PUSH1 0x60 DUP2 ADD PUSH3 0x4670 DUP3 DUP7 PUSH3 0x429C JUMP JUMPDEST PUSH3 0x4651 PUSH1 0x20 DUP4 ADD DUP6 PUSH3 0x42AD JUMP JUMPDEST PUSH1 0x40 DUP2 ADD PUSH3 0x468F DUP3 DUP6 PUSH3 0x42AD JUMP JUMPDEST PUSH3 0x462B PUSH1 0x20 DUP4 ADD DUP5 PUSH3 0x4603 JUMP JUMPDEST PUSH1 0x80 DUP2 ADD PUSH3 0x46AE DUP3 DUP8 PUSH3 0x42AD JUMP JUMPDEST PUSH3 0x46BD PUSH1 0x20 DUP4 ADD DUP7 PUSH3 0x4603 JUMP JUMPDEST PUSH3 0x46CC PUSH1 0x40 DUP4 ADD DUP6 PUSH3 0x4603 JUMP JUMPDEST PUSH3 0x21E9 PUSH1 0x60 DUP4 ADD DUP5 PUSH3 0x42B8 JUMP JUMPDEST PUSH1 0xC0 DUP2 ADD PUSH3 0x46EB DUP3 DUP10 PUSH3 0x42AD JUMP JUMPDEST PUSH3 0x46FA PUSH1 0x20 DUP4 ADD DUP9 PUSH3 0x4603 JUMP JUMPDEST PUSH3 0x4709 PUSH1 0x40 DUP4 ADD DUP8 PUSH3 0x42CE JUMP JUMPDEST PUSH3 0x4718 PUSH1 0x60 DUP4 ADD DUP7 PUSH3 0x42CE JUMP JUMPDEST PUSH3 0x4727 PUSH1 0x80 DUP4 ADD DUP6 PUSH3 0x429C JUMP JUMPDEST PUSH3 0xBC7 PUSH1 0xA0 DUP4 ADD DUP5 PUSH3 0x4603 JUMP JUMPDEST PUSH1 0x60 DUP2 ADD PUSH3 0x4746 DUP3 DUP7 PUSH3 0x42B8 JUMP JUMPDEST PUSH3 0x4755 PUSH1 0x20 DUP4 ADD DUP6 PUSH3 0x42B8 JUMP JUMPDEST PUSH3 0x3F7D PUSH1 0x40 DUP4 ADD DUP5 PUSH3 0x42B8 JUMP JUMPDEST PUSH1 0xC0 DUP2 ADD PUSH3 0x4774 DUP3 DUP10 PUSH3 0x42C3 JUMP JUMPDEST PUSH3 0x4783 PUSH1 0x20 DUP4 ADD DUP9 PUSH3 0x42C3 JUMP JUMPDEST PUSH3 0x4792 PUSH1 0x40 DUP4 ADD DUP8 PUSH3 0x42AD JUMP JUMPDEST PUSH3 0x47A1 PUSH1 0x60 DUP4 ADD DUP7 PUSH3 0x4603 JUMP JUMPDEST PUSH3 0x4727 PUSH1 0x80 DUP4 ADD DUP6 PUSH3 0x4603 JUMP JUMPDEST PUSH1 0x20 DUP2 ADD PUSH3 0xF6F DUP3 DUP5 PUSH3 0x42C3 JUMP JUMPDEST PUSH1 0x60 DUP2 ADD PUSH3 0x4670 DUP3 DUP7 PUSH3 0x42C3 JUMP JUMPDEST PUSH1 0x40 DUP1 DUP3 MSTORE DUP2 ADD PUSH3 0x47E4 DUP2 DUP6 DUP8 PUSH3 0x42D9 JUMP JUMPDEST SWAP1 POP PUSH3 0x3F7D PUSH1 0x20 DUP4 ADD DUP5 PUSH3 0x42B8 JUMP JUMPDEST PUSH1 0x20 DUP1 DUP3 MSTORE DUP2 ADD PUSH3 0x462B DUP2 DUP5 PUSH3 0x432E JUMP JUMPDEST PUSH1 0x60 DUP1 DUP3 MSTORE DUP2 ADD PUSH3 0x481B DUP2 DUP7 PUSH3 0x432E JUMP JUMPDEST SWAP1 POP PUSH3 0x4651 PUSH1 0x20 DUP4 ADD DUP6 PUSH3 0x42AD JUMP JUMPDEST PUSH2 0x180 DUP1 DUP3 MSTORE DUP2 ADD PUSH3 0x4840 DUP2 DUP16 PUSH3 0x432E JUMP JUMPDEST SWAP1 POP PUSH3 0x4851 PUSH1 0x20 DUP4 ADD DUP15 PUSH3 0x42AD JUMP JUMPDEST PUSH3 0x4860 PUSH1 0x40 DUP4 ADD DUP14 PUSH3 0x42AD JUMP JUMPDEST DUP2 DUP2 SUB PUSH1 0x60 DUP4 ADD MSTORE PUSH3 0x4874 DUP2 DUP13 PUSH3 0x432E JUMP JUMPDEST SWAP1 POP PUSH3 0x4885 PUSH1 0x80 DUP4 ADD DUP12 PUSH3 0x4603 JUMP JUMPDEST PUSH3 0x4894 PUSH1 0xA0 DUP4 ADD DUP11 PUSH3 0x4603 JUMP JUMPDEST PUSH3 0x48A3 PUSH1 0xC0 DUP4 ADD DUP10 PUSH3 0x4603 JUMP JUMPDEST PUSH3 0x48B2 PUSH1 0xE0 DUP4 ADD DUP9 PUSH3 0x4603 JUMP JUMPDEST PUSH3 0x48C2 PUSH2 0x100 DUP4 ADD DUP8 PUSH3 0x4603 JUMP JUMPDEST PUSH3 0x48D2 PUSH2 0x120 DUP4 ADD DUP7 PUSH3 0x4603 JUMP JUMPDEST PUSH3 0x48E2 PUSH2 0x140 DUP4 ADD DUP6 PUSH3 0x4603 JUMP JUMPDEST PUSH3 0x48F2 PUSH2 0x160 DUP4 ADD DUP5 PUSH3 0x4603 JUMP JUMPDEST SWAP14 SWAP13 POP POP POP POP POP POP POP POP POP POP POP POP POP JUMP JUMPDEST PUSH1 0x40 DUP1 DUP3 MSTORE DUP2 ADD PUSH3 0x4916 DUP2 DUP6 PUSH3 0x432E JUMP JUMPDEST SWAP1 POP PUSH3 0x462B PUSH1 0x20 DUP4 ADD DUP5 PUSH3 0x42C3 JUMP JUMPDEST PUSH1 0x20 DUP1 DUP3 MSTORE DUP2 ADD PUSH3 0xF6F DUP2 PUSH3 0x4399 JUMP JUMPDEST PUSH1 0x20 DUP1 DUP3 MSTORE DUP2 ADD PUSH3 0xF6F DUP2 PUSH3 0x43CC JUMP JUMPDEST PUSH1 0x20 DUP1 DUP3 MSTORE DUP2 ADD PUSH3 0xF6F DUP2 PUSH3 0x442D JUMP JUMPDEST PUSH1 0x20 DUP1 DUP3 MSTORE DUP2 ADD PUSH3 0xF6F DUP2 PUSH3 0x445F JUMP JUMPDEST PUSH1 0x20 DUP1 DUP3 MSTORE DUP2 ADD PUSH3 0xF6F DUP2 PUSH3 0x4491 JUMP JUMPDEST PUSH1 0x20 DUP1 DUP3 MSTORE DUP2 ADD PUSH3 0xF6F DUP2 PUSH3 0x44C3 JUMP JUMPDEST PUSH1 0x20 DUP1 DUP3 MSTORE DUP2 ADD PUSH3 0xF6F DUP2 PUSH3 0x44FE JUMP JUMPDEST PUSH1 0x20 DUP1 DUP3 MSTORE DUP2 ADD PUSH3 0xF6F DUP2 PUSH3 0x4545 JUMP JUMPDEST PUSH1 0x20 DUP1 DUP3 MSTORE DUP2 ADD PUSH3 0xF6F DUP2 PUSH3 0x4580 JUMP JUMPDEST PUSH1 0x20 DUP1 DUP3 MSTORE DUP2 ADD PUSH3 0xF6F DUP2 PUSH3 0x45D6 JUMP JUMPDEST PUSH1 0x20 DUP2 ADD PUSH3 0xF6F DUP3 DUP5 PUSH3 0x4603 JUMP JUMPDEST PUSH1 0xA0 DUP2 ADD PUSH3 0x49FB DUP3 DUP9 PUSH3 0x4603 JUMP JUMPDEST PUSH3 0x4A0A PUSH1 0x20 DUP4 ADD DUP8 PUSH3 0x42CE JUMP JUMPDEST PUSH3 0x4A19 PUSH1 0x40 DUP4 ADD DUP7 PUSH3 0x42CE JUMP JUMPDEST PUSH3 0x4A28 PUSH1 0x60 DUP4 ADD DUP6 PUSH3 0x429C JUMP JUMPDEST PUSH3 0x1C08 PUSH1 0x80 DUP4 ADD DUP5 PUSH3 0x4603 JUMP JUMPDEST PUSH1 0x40 DUP2 ADD PUSH3 0x468F DUP3 DUP6 PUSH3 0x4603 JUMP JUMPDEST PUSH1 0x60 DUP2 ADD PUSH3 0x4A57 DUP3 DUP7 PUSH3 0x4603 JUMP JUMPDEST PUSH3 0x4651 PUSH1 0x20 DUP4 ADD DUP6 PUSH3 0x4603 JUMP JUMPDEST PUSH1 0x40 MLOAD DUP2 DUP2 ADD PUSH8 0xFFFFFFFFFFFFFFFF DUP2 GT DUP3 DUP3 LT OR ISZERO PUSH3 0x4A86 JUMPI PUSH1 0x0 DUP1 REVERT JUMPDEST PUSH1 0x40 MSTORE SWAP2 SWAP1 POP JUMP JUMPDEST PUSH1 0x0 PUSH8 0xFFFFFFFFFFFFFFFF DUP3 GT ISZERO PUSH3 0x4AA6 JUMPI PUSH1 0x0 DUP1 REVERT JUMPDEST POP PUSH1 0x20 PUSH1 0x1F SWAP2 SWAP1 SWAP2 ADD PUSH1 0x1F NOT AND ADD SWAP1 JUMP JUMPDEST MLOAD SWAP1 JUMP JUMPDEST SWAP1 DUP2 MSTORE PUSH1 0x20 ADD SWAP1 JUMP JUMPDEST SWAP2 SWAP1 POP JUMP JUMPDEST PUSH1 0x0 PUSH3 0xF6F DUP3 PUSH3 0x4ADB JUMP JUMPDEST ISZERO ISZERO SWAP1 JUMP JUMPDEST PUSH1 0x1 PUSH1 0x1 PUSH1 0xA0 SHL SUB AND SWAP1 JUMP JUMPDEST PUSH1 0x0 PUSH3 0xF6F DUP3 JUMPDEST PUSH1 0x0 PUSH3 0xF6F DUP3 PUSH3 0x4AC9 JUMP JUMPDEST PUSH1 0x0 PUSH3 0xF6F DUP3 PUSH3 0x1250 JUMP JUMPDEST DUP3 DUP2 DUP4 CALLDATACOPY POP PUSH1 0x0 SWAP2 ADD MSTORE JUMP JUMPDEST PUSH1 0x0 JUMPDEST DUP4 DUP2 LT ISZERO PUSH3 0x4B32 JUMPI DUP2 DUP2 ADD MLOAD DUP4 DUP3 ADD MSTORE PUSH1 0x20 ADD PUSH3 0x4B18 JUMP JUMPDEST DUP4 DUP2 GT ISZERO PUSH3 0x4B42 JUMPI PUSH1 0x0 DUP5 DUP5 ADD MSTORE JUMPDEST POP POP POP POP JUMP JUMPDEST PUSH1 0x1F ADD PUSH1 0x1F NOT AND SWAP1 JUMP JUMPDEST PUSH3 0x4B5D DUP2 PUSH3 0x4AC9 JUMP JUMPDEST DUP2 EQ PUSH3 0x4B69 JUMPI PUSH1 0x0 DUP1 REVERT JUMPDEST POP JUMP JUMPDEST PUSH3 0x4B5D DUP2 PUSH3 0x4AD6 JUMP JUMPDEST PUSH3 0x4B5D DUP2 PUSH3 0x1250 JUMP INVALID PUSH1 0x80 PUSH1 0x40 MSTORE CALLVALUE DUP1 ISZERO PUSH3 0x11 JUMPI PUSH1 0x0 DUP1 REVERT JUMPDEST POP PUSH1 0x40 MLOAD PUSH3 0xC56 CODESIZE SUB DUP1 PUSH3 0xC56 DUP4 CODECOPY DUP2 ADD PUSH1 0x40 DUP2 SWAP1 MSTORE PUSH3 0x34 SWAP2 PUSH3 0x16B JUMP JUMPDEST DUP1 MLOAD DUP2 SWAP1 PUSH3 0x4B SWAP1 PUSH1 0x0 SWAP1 PUSH1 0x20 DUP5 ADD SWAP1 PUSH3 0x6A JUMP JUMPDEST POP POP DUP1 MLOAD PUSH3 0x62 SWAP1 PUSH1 0x1 SWAP1 PUSH1 0x20 DUP5 ADD SWAP1 PUSH3 0x6A JUMP JUMPDEST POP POP PUSH3 0x22D JUMP JUMPDEST DUP3 DUP1 SLOAD PUSH1 0x1 DUP2 PUSH1 0x1 AND ISZERO PUSH2 0x100 MUL SUB AND PUSH1 0x2 SWAP1 DIV SWAP1 PUSH1 0x0 MSTORE PUSH1 0x20 PUSH1 0x0 KECCAK256 SWAP1 PUSH1 0x1F ADD PUSH1 0x20 SWAP1 DIV DUP2 ADD SWAP3 DUP3 PUSH1 0x1F LT PUSH3 0xAD JUMPI DUP1 MLOAD PUSH1 0xFF NOT AND DUP4 DUP1 ADD OR DUP6 SSTORE PUSH3 0xDD JUMP JUMPDEST DUP3 DUP1 ADD PUSH1 0x1 ADD DUP6 SSTORE DUP3 ISZERO PUSH3 0xDD JUMPI SWAP2 DUP3 ADD JUMPDEST DUP3 DUP2 GT ISZERO PUSH3 0xDD JUMPI DUP3 MLOAD DUP3 SSTORE SWAP2 PUSH1 0x20 ADD SWAP2 SWAP1 PUSH1 0x1 ADD SWAP1 PUSH3 0xC0 JUMP JUMPDEST POP PUSH3 0xEB SWAP3 SWAP2 POP PUSH3 0xEF JUMP JUMPDEST POP SWAP1 JUMP JUMPDEST PUSH3 0x10C SWAP2 SWAP1 JUMPDEST DUP1 DUP3 GT ISZERO PUSH3 0xEB JUMPI PUSH1 0x0 DUP2 SSTORE PUSH1 0x1 ADD PUSH3 0xF6 JUMP JUMPDEST SWAP1 JUMP JUMPDEST PUSH1 0x0 DUP3 PUSH1 0x1F DUP4 ADD SLT PUSH3 0x121 JUMPI PUSH1 0x0 DUP1 REVERT JUMPDEST DUP2 MLOAD PUSH3 0x138 PUSH3 0x132 DUP3 PUSH3 0x1D2 JUMP JUMPDEST PUSH3 0x1AB JUMP JUMPDEST SWAP2 POP DUP1 DUP3 MSTORE PUSH1 0x20 DUP4 ADD PUSH1 0x20 DUP4 ADD DUP6 DUP4 DUP4 ADD GT ISZERO PUSH3 0x155 JUMPI PUSH1 0x0 DUP1 REVERT JUMPDEST PUSH3 0x162 DUP4 DUP3 DUP5 PUSH3 0x1FA JUMP JUMPDEST POP POP POP SWAP3 SWAP2 POP POP JUMP JUMPDEST PUSH1 0x0 PUSH1 0x20 DUP3 DUP5 SUB SLT ISZERO PUSH3 0x17E JUMPI PUSH1 0x0 DUP1 REVERT JUMPDEST DUP2 MLOAD PUSH1 0x1 PUSH1 0x1 PUSH1 0x40 SHL SUB DUP2 GT ISZERO PUSH3 0x195 JUMPI PUSH1 0x0 DUP1 REVERT JUMPDEST PUSH3 0x1A3 DUP5 DUP3 DUP6 ADD PUSH3 0x10F JUMP JUMPDEST SWAP5 SWAP4 POP POP POP POP JUMP JUMPDEST PUSH1 0x40 MLOAD DUP2 DUP2 ADD PUSH1 0x1 PUSH1 0x1 PUSH1 0x40 SHL SUB DUP2 GT DUP3 DUP3 LT OR ISZERO PUSH3 0x1CA JUMPI PUSH1 0x0 DUP1 REVERT JUMPDEST PUSH1 0x40 MSTORE SWAP2 SWAP1 POP JUMP JUMPDEST PUSH1 0x0 PUSH1 0x1 PUSH1 0x1 PUSH1 0x40 SHL SUB DUP3 GT ISZERO PUSH3 0x1E9 JUMPI PUSH1 0x0 DUP1 REVERT JUMPDEST POP PUSH1 0x20 PUSH1 0x1F SWAP2 SWAP1 SWAP2 ADD PUSH1 0x1F NOT AND ADD SWAP1 JUMP JUMPDEST PUSH1 0x0 JUMPDEST DUP4 DUP2 LT ISZERO PUSH3 0x217 JUMPI DUP2 DUP2 ADD MLOAD DUP4 DUP3 ADD MSTORE PUSH1 0x20 ADD PUSH3 0x1FD JUMP JUMPDEST DUP4 DUP2 GT ISZERO PUSH3 0x227 JUMPI PUSH1 0x0 DUP5 DUP5 ADD MSTORE JUMPDEST POP POP POP POP JUMP JUMPDEST PUSH2 0xA19 DUP1 PUSH3 0x23D PUSH1 0x0 CODECOPY PUSH1 0x0 RETURN INVALID PUSH1 0x80 PUSH1 0x40 MSTORE PUSH1 0x4 CALLDATASIZE LT PUSH2 0xC2 JUMPI PUSH1 0x0 CALLDATALOAD PUSH1 0xE0 SHR DUP1 PUSH4 0xACB3C073 GT PUSH2 0x7F JUMPI DUP1 PUSH4 0xBEABACC8 GT PUSH2 0x59 JUMPI DUP1 PUSH4 0xBEABACC8 EQ PUSH2 0x1C8 JUMPI DUP1 PUSH4 0xE1F21C67 EQ PUSH2 0x1E8 JUMPI DUP1 PUSH4 0xEEDC966A EQ PUSH2 0x208 JUMPI DUP1 PUSH4 0xFB1E6A62 EQ PUSH2 0x228 JUMPI PUSH2 0xC2 JUMP JUMPDEST DUP1 PUSH4 0xACB3C073 EQ PUSH2 0x164 JUMPI DUP1 PUSH4 0xAF640D0F EQ PUSH2 0x184 JUMPI DUP1 PUSH4 0xBB8A88BB EQ PUSH2 0x1A6 JUMPI PUSH2 0xC2 JUMP JUMPDEST DUP1 PUSH4 0x26B1D5F EQ PUSH2 0xC4 JUMPI DUP1 PUSH4 0x144FA6D7 EQ PUSH2 0xEF JUMPI DUP1 PUSH4 0x23B872DD EQ PUSH2 0x10F JUMPI DUP1 PUSH4 0x38CC4831 EQ PUSH2 0xC4 JUMPI DUP1 PUSH4 0x4E6630B0 EQ PUSH2 0x12F JUMPI DUP1 PUSH4 0x4F95A04B EQ PUSH2 0x151 JUMPI JUMPDEST STOP JUMPDEST CALLVALUE DUP1 ISZERO PUSH2 0xD0 JUMPI PUSH1 0x0 DUP1 REVERT JUMPDEST POP PUSH2 0xD9 PUSH2 0x23D JUMP JUMPDEST PUSH1 0x40 MLOAD PUSH2 0xE6 SWAP2 SWAP1 PUSH2 0x83C JUMP JUMPDEST PUSH1 0x40 MLOAD DUP1 SWAP2 SUB SWAP1 RETURN JUMPDEST CALLVALUE DUP1 ISZERO PUSH2 0xFB JUMPI PUSH1 0x0 DUP1 REVERT JUMPDEST POP PUSH2 0xC2 PUSH2 0x10A CALLDATASIZE PUSH1 0x4 PUSH2 0x694 JUMP JUMPDEST PUSH2 0x241 JUMP JUMPDEST CALLVALUE DUP1 ISZERO PUSH2 0x11B JUMPI PUSH1 0x0 DUP1 REVERT JUMPDEST POP PUSH2 0xC2 PUSH2 0x12A CALLDATASIZE PUSH1 0x4 PUSH2 0x6B2 JUMP JUMPDEST PUSH2 0x263 JUMP JUMPDEST CALLVALUE DUP1 ISZERO PUSH2 0x13B JUMPI PUSH1 0x0 DUP1 REVERT JUMPDEST POP PUSH2 0x144 PUSH2 0x2F3 JUMP JUMPDEST PUSH1 0x40 MLOAD PUSH2 0xE6 SWAP2 SWAP1 PUSH2 0x8FF JUMP JUMPDEST PUSH2 0xC2 PUSH2 0x15F CALLDATASIZE PUSH1 0x4 PUSH2 0x634 JUMP JUMPDEST PUSH2 0x2F7 JUMP JUMPDEST CALLVALUE DUP1 ISZERO PUSH2 0x170 JUMPI PUSH1 0x0 DUP1 REVERT JUMPDEST POP PUSH2 0xC2 PUSH2 0x17F CALLDATASIZE PUSH1 0x4 PUSH2 0x694 JUMP JUMPDEST PUSH2 0x32D JUMP JUMPDEST CALLVALUE DUP1 ISZERO PUSH2 0x190 JUMPI PUSH1 0x0 DUP1 REVERT JUMPDEST POP PUSH2 0x199 PUSH2 0x34F JUMP JUMPDEST PUSH1 0x40 MLOAD PUSH2 0xE6 SWAP2 SWAP1 PUSH2 0x8EE JUMP JUMPDEST PUSH2 0x1B9 PUSH2 0x1B4 CALLDATASIZE PUSH1 0x4 PUSH2 0x760 JUMP JUMPDEST PUSH2 0x3DC JUMP JUMPDEST PUSH1 0x40 MLOAD PUSH2 0xE6 SWAP4 SWAP3 SWAP2 SWAP1 PUSH2 0x90D JUMP JUMPDEST CALLVALUE DUP1 ISZERO PUSH2 0x1D4 JUMPI PUSH1 0x0 DUP1 REVERT JUMPDEST POP PUSH2 0xC2 PUSH2 0x1E3 CALLDATASIZE PUSH1 0x4 PUSH2 0x6B2 JUMP JUMPDEST PUSH2 0x487 JUMP JUMPDEST CALLVALUE DUP1 ISZERO PUSH2 0x1F4 JUMPI PUSH1 0x0 DUP1 REVERT JUMPDEST POP PUSH2 0xC2 PUSH2 0x203 CALLDATASIZE PUSH1 0x4 PUSH2 0x6B2 JUMP JUMPDEST PUSH2 0x4B5 JUMP JUMPDEST CALLVALUE DUP1 ISZERO PUSH2 0x214 JUMPI PUSH1 0x0 DUP1 REVERT JUMPDEST POP PUSH2 0x144 PUSH2 0x223 CALLDATASIZE PUSH1 0x4 PUSH2 0x694 JUMP JUMPDEST PUSH2 0x4E3 JUMP JUMPDEST CALLVALUE DUP1 ISZERO PUSH2 0x234 JUMPI PUSH1 0x0 DUP1 REVERT JUMPDEST POP PUSH2 0x199 PUSH2 0x568 JUMP JUMPDEST ADDRESS SWAP1 JUMP JUMPDEST PUSH1 0x3 DUP1 SLOAD PUSH1 0x1 PUSH1 0x1 PUSH1 0xA0 SHL SUB NOT AND PUSH1 0x1 PUSH1 0x1 PUSH1 0xA0 SHL SUB SWAP3 SWAP1 SWAP3 AND SWAP2 SWAP1 SWAP2 OR SWAP1 SSTORE JUMP JUMPDEST PUSH1 0x40 MLOAD PUSH4 0x23B872DD PUSH1 0xE0 SHL DUP2 MSTORE PUSH1 0x1 PUSH1 0x1 PUSH1 0xA0 SHL SUB DUP5 AND SWAP1 PUSH4 0x23B872DD SWAP1 PUSH2 0x293 SWAP1 ADDRESS SWAP1 DUP7 SWAP1 DUP7 SWAP1 PUSH1 0x4 ADD PUSH2 0x84A JUMP JUMPDEST PUSH1 0x20 PUSH1 0x40 MLOAD DUP1 DUP4 SUB DUP2 PUSH1 0x0 DUP8 DUP1 EXTCODESIZE ISZERO DUP1 ISZERO PUSH2 0x2AD JUMPI PUSH1 0x0 DUP1 REVERT JUMPDEST POP GAS CALL ISZERO DUP1 ISZERO PUSH2 0x2C1 JUMPI RETURNDATASIZE PUSH1 0x0 DUP1 RETURNDATACOPY RETURNDATASIZE PUSH1 0x0 REVERT JUMPDEST POP POP POP POP PUSH1 0x40 MLOAD RETURNDATASIZE PUSH1 0x1F NOT PUSH1 0x1F DUP3 ADD AND DUP3 ADD DUP1 PUSH1 0x40 MSTORE POP PUSH2 0x2E5 SWAP2 SWAP1 DUP2 ADD SWAP1 PUSH2 0x66E JUMP JUMPDEST PUSH2 0x2EE JUMPI PUSH1 0x0 DUP1 REVERT JUMPDEST POP POP POP JUMP JUMPDEST SELFBALANCE SWAP1 JUMP JUMPDEST PUSH1 0x40 MLOAD PUSH1 0x1 PUSH1 0x1 PUSH1 0xA0 SHL SUB DUP4 AND SWAP1 DUP3 ISZERO PUSH2 0x8FC MUL SWAP1 DUP4 SWAP1 PUSH1 0x0 DUP2 DUP2 DUP2 DUP6 DUP9 DUP9 CALL SWAP4 POP POP POP POP ISZERO DUP1 ISZERO PUSH2 0x2EE JUMPI RETURNDATASIZE PUSH1 0x0 DUP1 RETURNDATACOPY RETURNDATASIZE PUSH1 0x0 REVERT JUMPDEST PUSH1 0x2 DUP1 SLOAD PUSH1 0x1 PUSH1 0x1 PUSH1 0xA0 SHL SUB NOT AND PUSH1 0x1 PUSH1 0x1 PUSH1 0xA0 SHL SUB SWAP3 SWAP1 SWAP3 AND SWAP2 SWAP1 SWAP2 OR SWAP1 SSTORE JUMP JUMPDEST PUSH1 0x1 DUP1 SLOAD PUSH1 0x40 DUP1 MLOAD PUSH1 0x20 PUSH1 0x2 DUP5 DUP7 AND ISZERO PUSH2 0x100 MUL PUSH1 0x0 NOT ADD SWAP1 SWAP5 AND SWAP4 SWAP1 SWAP4 DIV PUSH1 0x1F DUP2 ADD DUP5 SWAP1 DIV DUP5 MUL DUP3 ADD DUP5 ADD SWAP1 SWAP3 MSTORE DUP2 DUP2 MSTORE SWAP3 SWAP2 DUP4 ADD DUP3 DUP3 DUP1 ISZERO PUSH2 0x3D4 JUMPI DUP1 PUSH1 0x1F LT PUSH2 0x3A9 JUMPI PUSH2 0x100 DUP1 DUP4 SLOAD DIV MUL DUP4 MSTORE SWAP2 PUSH1 0x20 ADD SWAP2 PUSH2 0x3D4 JUMP JUMPDEST DUP3 ADD SWAP2 SWAP1 PUSH1 0x0 MSTORE PUSH1 0x20 PUSH1 0x0 KECCAK256 SWAP1 JUMPDEST DUP2 SLOAD DUP2 MSTORE SWAP1 PUSH1 0x1 ADD SWAP1 PUSH1 0x20 ADD DUP1 DUP4 GT PUSH2 0x3B7 JUMPI DUP3 SWAP1 SUB PUSH1 0x1F AND DUP3 ADD SWAP2 JUMPDEST POP POP POP POP POP DUP2 JUMP JUMPDEST PUSH1 0x2 SLOAD PUSH1 0x3 SLOAD PUSH1 0x40 MLOAD PUSH4 0xF305D719 PUSH1 0xE0 SHL DUP2 MSTORE PUSH1 0x0 SWAP3 DUP4 SWAP3 DUP4 SWAP3 PUSH1 0x1 PUSH1 0x1 PUSH1 0xA0 SHL SUB SWAP3 DUP4 AND SWAP3 PUSH4 0xF305D719 SWAP3 CALLVALUE SWAP3 PUSH2 0x424 SWAP3 SWAP1 SWAP2 AND SWAP1 DUP14 SWAP1 DUP14 SWAP1 DUP14 SWAP1 DUP14 SWAP1 DUP14 SWAP1 PUSH1 0x4 ADD PUSH2 0x894 JUMP JUMPDEST PUSH1 0x60 PUSH1 0x40 MLOAD DUP1 DUP4 SUB DUP2 DUP6 DUP9 DUP1 EXTCODESIZE ISZERO DUP1 ISZERO PUSH2 0x43D JUMPI PUSH1 0x0 DUP1 REVERT JUMPDEST POP GAS CALL ISZERO DUP1 ISZERO PUSH2 0x451 JUMPI RETURNDATASIZE PUSH1 0x0 DUP1 RETURNDATACOPY RETURNDATASIZE PUSH1 0x0 REVERT JUMPDEST POP POP POP POP POP PUSH1 0x40 MLOAD RETURNDATASIZE PUSH1 0x1F NOT PUSH1 0x1F DUP3 ADD AND DUP3 ADD DUP1 PUSH1 0x40 MSTORE POP PUSH2 0x476 SWAP2 SWAP1 DUP2 ADD SWAP1 PUSH2 0x71D JUMP JUMPDEST SWAP3 POP SWAP3 POP SWAP3 POP SWAP6 POP SWAP6 POP SWAP6 SWAP3 POP POP POP JUMP JUMPDEST PUSH1 0x40 MLOAD PUSH4 0xA9059CBB PUSH1 0xE0 SHL DUP2 MSTORE PUSH1 0x1 PUSH1 0x1 PUSH1 0xA0 SHL SUB DUP5 AND SWAP1 PUSH4 0xA9059CBB SWAP1 PUSH2 0x293 SWAP1 DUP6 SWAP1 DUP6 SWAP1 PUSH1 0x4 ADD PUSH2 0x872 JUMP JUMPDEST PUSH1 0x40 MLOAD PUSH4 0x95EA7B3 PUSH1 0xE0 SHL DUP2 MSTORE PUSH1 0x1 PUSH1 0x1 PUSH1 0xA0 SHL SUB DUP5 AND SWAP1 PUSH4 0x95EA7B3 SWAP1 PUSH2 0x293 SWAP1 DUP6 SWAP1 DUP6 SWAP1 PUSH1 0x4 ADD PUSH2 0x872 JUMP JUMPDEST PUSH1 0x40 MLOAD PUSH4 0x70A08231 PUSH1 0xE0 SHL DUP2 MSTORE PUSH1 0x0 SWAP1 PUSH1 0x1 PUSH1 0x1 PUSH1 0xA0 SHL SUB DUP4 AND SWAP1 PUSH4 0x70A08231 SWAP1 PUSH2 0x512 SWAP1 ADDRESS SWAP1 PUSH1 0x4 ADD PUSH2 0x82E JUMP JUMPDEST PUSH1 0x20 PUSH1 0x40 MLOAD DUP1 DUP4 SUB DUP2 DUP7 DUP1 EXTCODESIZE ISZERO DUP1 ISZERO PUSH2 0x52A JUMPI PUSH1 0x0 DUP1 REVERT JUMPDEST POP GAS STATICCALL ISZERO DUP1 ISZERO PUSH2 0x53E JUMPI RETURNDATASIZE PUSH1 0x0 DUP1 RETURNDATACOPY RETURNDATASIZE PUSH1 0x0 REVERT JUMPDEST POP POP POP POP PUSH1 0x40 MLOAD RETURNDATASIZE PUSH1 0x1F NOT PUSH1 0x1F DUP3 ADD AND DUP3 ADD DUP1 PUSH1 0x40 MSTORE POP PUSH2 0x562 SWAP2 SWAP1 DUP2 ADD SWAP1 PUSH2 0x6FF JUMP JUMPDEST SWAP3 SWAP2 POP POP JUMP JUMPDEST PUSH1 0x1 DUP1 SLOAD PUSH1 0x40 DUP1 MLOAD PUSH1 0x20 PUSH1 0x1F PUSH1 0x2 PUSH1 0x0 NOT PUSH2 0x100 DUP8 DUP10 AND ISZERO MUL ADD SWAP1 SWAP6 AND SWAP5 SWAP1 SWAP5 DIV SWAP4 DUP5 ADD DUP2 SWAP1 DIV DUP2 MUL DUP3 ADD DUP2 ADD SWAP1 SWAP3 MSTORE DUP3 DUP2 MSTORE PUSH1 0x60 SWAP4 SWAP1 SWAP3 SWAP1 SWAP2 DUP4 ADD DUP3 DUP3 DUP1 ISZERO PUSH2 0x5F3 JUMPI DUP1 PUSH1 0x1F LT PUSH2 0x5C8 JUMPI PUSH2 0x100 DUP1 DUP4 SLOAD DIV MUL DUP4 MSTORE SWAP2 PUSH1 0x20 ADD SWAP2 PUSH2 0x5F3 JUMP JUMPDEST DUP3 ADD SWAP2 SWAP1 PUSH1 0x0 MSTORE PUSH1 0x20 PUSH1 0x0 KECCAK256 SWAP1 JUMPDEST DUP2 SLOAD DUP2 MSTORE SWAP1 PUSH1 0x1 ADD SWAP1 PUSH1 0x20 ADD DUP1 DUP4 GT PUSH2 0x5D6 JUMPI DUP3 SWAP1 SUB PUSH1 0x1F AND DUP3 ADD SWAP2 JUMPDEST POP POP POP POP POP SWAP1 POP SWAP1 JUMP JUMPDEST DUP1 CALLDATALOAD PUSH2 0x562 DUP2 PUSH2 0x9A4 JUMP JUMPDEST DUP1 MLOAD PUSH2 0x562 DUP2 PUSH2 0x9BB JUMP JUMPDEST DUP1 CALLDATALOAD PUSH2 0x562 DUP2 PUSH2 0x9C4 JUMP JUMPDEST DUP1 CALLDATALOAD PUSH2 0x562 DUP2 PUSH2 0x9CD JUMP JUMPDEST DUP1 MLOAD PUSH2 0x562 DUP2 PUSH2 0x9CD JUMP JUMPDEST PUSH1 0x0 DUP1 PUSH1 0x40 DUP4 DUP6 SUB SLT ISZERO PUSH2 0x647 JUMPI PUSH1 0x0 DUP1 REVERT JUMPDEST PUSH1 0x0 PUSH2 0x653 DUP6 DUP6 PUSH2 0x5FD JUMP JUMPDEST SWAP3 POP POP PUSH1 0x20 PUSH2 0x664 DUP6 DUP3 DUP7 ADD PUSH2 0x61E JUMP JUMPDEST SWAP2 POP POP SWAP3 POP SWAP3 SWAP1 POP JUMP JUMPDEST PUSH1 0x0 PUSH1 0x20 DUP3 DUP5 SUB SLT ISZERO PUSH2 0x680 JUMPI PUSH1 0x0 DUP1 REVERT JUMPDEST PUSH1 0x0 PUSH2 0x68C DUP5 DUP5 PUSH2 0x608 JUMP JUMPDEST SWAP5 SWAP4 POP POP POP POP JUMP JUMPDEST PUSH1 0x0 PUSH1 0x20 DUP3 DUP5 SUB SLT ISZERO PUSH2 0x6A6 JUMPI PUSH1 0x0 DUP1 REVERT JUMPDEST PUSH1 0x0 PUSH2 0x68C DUP5 DUP5 PUSH2 0x613 JUMP JUMPDEST PUSH1 0x0 DUP1 PUSH1 0x0 PUSH1 0x60 DUP5 DUP7 SUB SLT ISZERO PUSH2 0x6C7 JUMPI PUSH1 0x0 DUP1 REVERT JUMPDEST PUSH1 0x0 PUSH2 0x6D3 DUP7 DUP7 PUSH2 0x613 JUMP JUMPDEST SWAP4 POP POP PUSH1 0x20 PUSH2 0x6E4 DUP7 DUP3 DUP8 ADD PUSH2 0x5FD JUMP JUMPDEST SWAP3 POP POP PUSH1 0x40 PUSH2 0x6F5 DUP7 DUP3 DUP8 ADD PUSH2 0x61E JUMP JUMPDEST SWAP2 POP POP SWAP3 POP SWAP3 POP SWAP3 JUMP JUMPDEST PUSH1 0x0 PUSH1 0x20 DUP3 DUP5 SUB SLT ISZERO PUSH2 0x711 JUMPI PUSH1 0x0 DUP1 REVERT JUMPDEST PUSH1 0x0 PUSH2 0x68C DUP5 DUP5 PUSH2 0x629 JUMP JUMPDEST PUSH1 0x0 DUP1 PUSH1 0x0 PUSH1 0x60 DUP5 DUP7 SUB SLT ISZERO PUSH2 0x732 JUMPI PUSH1 0x0 DUP1 REVERT JUMPDEST PUSH1 0x0 PUSH2 0x73E DUP7 DUP7 PUSH2 0x629 JUMP JUMPDEST SWAP4 POP POP PUSH1 0x20 PUSH2 0x74F DUP7 DUP3 DUP8 ADD PUSH2 0x629 JUMP JUMPDEST SWAP3 POP POP PUSH1 0x40 PUSH2 0x6F5 DUP7 DUP3 DUP8 ADD PUSH2 0x629 JUMP JUMPDEST PUSH1 0x0 DUP1 PUSH1 0x0 DUP1 PUSH1 0x0 PUSH1 0xA0 DUP7 DUP9 SUB SLT ISZERO PUSH2 0x778 JUMPI PUSH1 0x0 DUP1 REVERT JUMPDEST PUSH1 0x0 PUSH2 0x784 DUP9 DUP9 PUSH2 0x61E JUMP JUMPDEST SWAP6 POP POP PUSH1 0x20 PUSH2 0x795 DUP9 DUP3 DUP10 ADD PUSH2 0x61E JUMP JUMPDEST SWAP5 POP POP PUSH1 0x40 PUSH2 0x7A6 DUP9 DUP3 DUP10 ADD PUSH2 0x61E JUMP JUMPDEST SWAP4 POP POP PUSH1 0x60 PUSH2 0x7B7 DUP9 DUP3 DUP10 ADD PUSH2 0x5FD JUMP JUMPDEST SWAP3 POP POP PUSH1 0x80 PUSH2 0x7C8 DUP9 DUP3 DUP10 ADD PUSH2 0x61E JUMP JUMPDEST SWAP2 POP POP SWAP3 SWAP6 POP SWAP3 SWAP6 SWAP1 SWAP4 POP JUMP JUMPDEST PUSH2 0x7DE DUP2 PUSH2 0x95F JUMP JUMPDEST DUP3 MSTORE POP POP JUMP JUMPDEST PUSH2 0x7DE DUP2 PUSH2 0x935 JUMP JUMPDEST PUSH1 0x0 PUSH2 0x7F8 DUP3 PUSH2 0x928 JUMP JUMPDEST PUSH2 0x802 DUP2 DUP6 PUSH2 0x92C JUMP JUMPDEST SWAP4 POP PUSH2 0x812 DUP2 DUP6 PUSH1 0x20 DUP7 ADD PUSH2 0x96A JUMP JUMPDEST PUSH2 0x81B DUP2 PUSH2 0x99A JUMP JUMPDEST SWAP1 SWAP4 ADD SWAP4 SWAP3 POP POP POP JUMP JUMPDEST PUSH2 0x7DE DUP2 PUSH2 0x95C JUMP JUMPDEST PUSH1 0x20 DUP2 ADD PUSH2 0x562 DUP3 DUP5 PUSH2 0x7D5 JUMP JUMPDEST PUSH1 0x20 DUP2 ADD PUSH2 0x562 DUP3 DUP5 PUSH2 0x7E4 JUMP JUMPDEST PUSH1 0x60 DUP2 ADD PUSH2 0x858 DUP3 DUP7 PUSH2 0x7D5 JUMP JUMPDEST PUSH2 0x865 PUSH1 0x20 DUP4 ADD DUP6 PUSH2 0x7E4 JUMP JUMPDEST PUSH2 0x68C PUSH1 0x40 DUP4 ADD DUP5 PUSH2 0x825 JUMP JUMPDEST PUSH1 0x40 DUP2 ADD PUSH2 0x880 DUP3 DUP6 PUSH2 0x7E4 JUMP JUMPDEST PUSH2 0x88D PUSH1 0x20 DUP4 ADD DUP5 PUSH2 0x825 JUMP JUMPDEST SWAP4 SWAP3 POP POP POP JUMP JUMPDEST PUSH1 0xC0 DUP2 ADD PUSH2 0x8A2 DUP3 DUP10 PUSH2 0x7E4 JUMP JUMPDEST PUSH2 0x8AF PUSH1 0x20 DUP4 ADD DUP9 PUSH2 0x825 JUMP JUMPDEST PUSH2 0x8BC PUSH1 0x40 DUP4 ADD DUP8 PUSH2 0x825 JUMP JUMPDEST PUSH2 0x8C9 PUSH1 0x60 DUP4 ADD DUP7 PUSH2 0x825 JUMP JUMPDEST PUSH2 0x8D6 PUSH1 0x80 DUP4 ADD DUP6 PUSH2 0x7E4 JUMP JUMPDEST PUSH2 0x8E3 PUSH1 0xA0 DUP4 ADD DUP5 PUSH2 0x825 JUMP JUMPDEST SWAP8 SWAP7 POP POP POP POP POP POP POP JUMP JUMPDEST PUSH1 0x20 DUP1 DUP3 MSTORE DUP2 ADD PUSH2 0x88D DUP2 DUP5 PUSH2 0x7ED JUMP JUMPDEST PUSH1 0x20 DUP2 ADD PUSH2 0x562 DUP3 DUP5 PUSH2 0x825 JUMP JUMPDEST PUSH1 0x60 DUP2 ADD PUSH2 0x91B DUP3 DUP7 PUSH2 0x825 JUMP JUMPDEST PUSH2 0x865 PUSH1 0x20 DUP4 ADD DUP6 PUSH2 0x825 JUMP JUMPDEST MLOAD SWAP1 JUMP JUMPDEST SWAP1 DUP2 MSTORE PUSH1 0x20 ADD SWAP1 JUMP JUMPDEST PUSH1 0x0 PUSH2 0x562 DUP3 PUSH2 0x950 JUMP JUMPDEST ISZERO ISZERO SWAP1 JUMP JUMPDEST PUSH1 0x0 PUSH2 0x562 DUP3 PUSH2 0x935 JUMP JUMPDEST PUSH1 0x1 PUSH1 0x1 PUSH1 0xA0 SHL SUB AND SWAP1 JUMP JUMPDEST SWAP1 JUMP JUMPDEST PUSH1 0x0 PUSH2 0x562 DUP3 PUSH2 0x945 JUMP JUMPDEST PUSH1 0x0 JUMPDEST DUP4 DUP2 LT ISZERO PUSH2 0x985 JUMPI DUP2 DUP2 ADD MLOAD DUP4 DUP3 ADD MSTORE PUSH1 0x20 ADD PUSH2 0x96D JUMP JUMPDEST DUP4 DUP2 GT ISZERO PUSH2 0x994 JUMPI PUSH1 0x0 DUP5 DUP5 ADD MSTORE JUMPDEST POP POP POP POP JUMP JUMPDEST PUSH1 0x1F ADD PUSH1 0x1F NOT AND SWAP1 JUMP JUMPDEST PUSH2 0x9AD DUP2 PUSH2 0x935 JUMP JUMPDEST DUP2 EQ PUSH2 0x9B8 JUMPI PUSH1 0x0 DUP1 REVERT JUMPDEST POP JUMP JUMPDEST PUSH2 0x9AD DUP2 PUSH2 0x940 JUMP JUMPDEST PUSH2 0x9AD DUP2 PUSH2 0x945 JUMP JUMPDEST PUSH2 0x9AD DUP2 PUSH2 0x95C JUMP INVALID LOG3 PUSH6 0x627A7A723158 KECCAK256 0x1E ISZERO SSTORE SWAP16 CREATE MSIZE DUP8 DUP7 DUP9 PUSH21 0xFAEC5EB70C2473453F215FF17500C3371CAFA739D2 EXTCODESIZE PUSH13 0x6578706572696D656E74616CF5 PUSH5 0x736F6C6343 STOP SDIV LT STOP BLOCKHASH LOG3 PUSH6 0x627A7A723158 KECCAK256 0xC6 DIFFICULTY CALLDATASIZE 0xBB 0x21 NUMBER 0x1F 0x2E PUSH20 0xA0E6763F023E223849BB75DFCE51D023C180EDE0 0xA5 0xE4 NOT PUSH13 0x6578706572696D656E74616CF5 PUSH5 0x736F6C6343 STOP SDIV LT STOP BLOCKHASH "
		},
		"gasEstimates": {
			"creation": {
				"codeDepositCost": "4511000",
				"executionCost": "26086",
				"totalCost": "4537086"
			},
			"external": {
				"addLiquidity(string,uint256,uint256)": "infinite",
				"assign(string,uint256)": "infinite",
				"assignEth(string,uint256)": "infinite",
				"assignLiquidity(string)": "infinite",
				"assignToken(string)": "infinite",
				"discoAddress(string)": "infinite",
				"discoToken(string)": "infinite",
				"discos(string)": "infinite",
				"enableDisco(string)": "infinite",
				"finishedDisco(string)": "infinite",
				"getDate()": "infinite",
				"getInvestAmt(string)": "infinite",
				"investor(string,uint256)": "infinite",
				"investors(string,uint256)": "infinite",
				"newDisco((string,address,address,string,uint256,uint256,uint256,uint256,uint256,uint256,uint256,uint256))": "infinite",
				"poolEthBalance(string)": "infinite",
				"poolTokenBalance(string)": "infinite",
				"refund(string)": "infinite",
				"removeLiquidity(string,uint256)": "infinite",
				"setPreFee(uint256)": "infinite",
				"setSwap(address)": "infinite",
				"status(string)": "infinite"
			},
			"internal": {
				"getDeadline(uint256)": "58",
				"getPreFee()": "21652"
			}
		},
		"methodIdentifiers": {
			"addLiquidity(string,uint256,uint256)": "bff390a7",
			"assign(string,uint256)": "00d05029",
			"assignEth(string,uint256)": "20192402",
			"assignLiquidity(string)": "512518b5",
			"assignToken(string)": "1218bfff",
			"discoAddress(string)": "5e56fb01",
			"discoToken(string)": "66f61fb9",
			"discos(string)": "2df79172",
			"enableDisco(string)": "c79d1921",
			"finishedDisco(string)": "7a328a7e",
			"getDate()": "430fe9c1",
			"getInvestAmt(string)": "34d30e40",
			"investor(string,uint256)": "b16e68eb",
			"investors(string,uint256)": "34e8e57b",
			"newDisco((string,address,address,string,uint256,uint256,uint256,uint256,uint256,uint256,uint256,uint256))": "48569ee9",
			"poolEthBalance(string)": "95a16979",
			"poolTokenBalance(string)": "56bf9942",
			"refund(string)": "fe5f2e88",
			"removeLiquidity(string,uint256)": "99fcd6e4",
			"setPreFee(uint256)": "15282c9e",
			"setSwap(address)": "acb3c073",
			"status(string)": "e8ca64f4"
		}
	},
	"abi": [
		{
			"inputs": [],
			"payable": false,
			"stateMutability": "nonpayable",
			"type": "constructor"
		},
		{
			"anonymous": false,
			"inputs": [
				{
					"indexed": false,
					"internalType": "string",
					"name": "discoId",
					"type": "string"
				},
				{
					"indexed": false,
					"internalType": "contract DiscoAddr",
					"name": "addr",
					"type": "address"
				}
			],
			"name": "createdDisco",
			"type": "event"
		},
		{
			"anonymous": false,
			"inputs": [
				{
					"indexed": false,
					"internalType": "string",
					"name": "discoId",
					"type": "string"
				}
			],
			"name": "enabledDisco",
			"type": "event"
		},
		{
			"anonymous": false,
			"inputs": [
				{
					"indexed": false,
					"internalType": "string",
					"name": "discoId",
					"type": "string"
				}
			],
			"name": "fundraisingFailed",
			"type": "event"
		},
		{
			"anonymous": false,
			"inputs": [
				{
					"indexed": false,
					"internalType": "string",
					"name": "discoIdo",
					"type": "string"
				},
				{
					"indexed": false,
					"internalType": "bool",
					"name": "success",
					"type": "bool"
				}
			],
			"name": "fundraisingFinished",
			"type": "event"
		},
		{
			"anonymous": false,
			"inputs": [
				{
					"indexed": false,
					"internalType": "string",
					"name": "discoId",
					"type": "string"
				}
			],
			"name": "fundraisingSucceed",
			"type": "event"
		},
		{
			"anonymous": false,
			"inputs": [
				{
					"indexed": false,
					"internalType": "string",
					"name": "discoId",
					"type": "string"
				},
				{
					"indexed": false,
					"internalType": "address",
					"name": "investorAddr",
					"type": "address"
				},
				{
					"indexed": false,
					"internalType": "uint256",
					"name": "amount",
					"type": "uint256"
				}
			],
			"name": "investToDisco",
			"type": "event"
		},
		{
			"constant": false,
			"inputs": [
				{
					"internalType": "string",
					"name": "id",
					"type": "string"
				},
				{
					"internalType": "uint256",
					"name": "eth",
					"type": "uint256"
				},
				{
					"internalType": "uint256",
					"name": "token",
					"type": "uint256"
				}
			],
			"name": "addLiquidity",
			"outputs": [
				{
					"internalType": "uint256",
					"name": "",
					"type": "uint256"
				},
				{
					"internalType": "uint256",
					"name": "",
					"type": "uint256"
				},
				{
					"internalType": "uint256",
					"name": "",
					"type": "uint256"
				}
			],
			"payable": true,
			"stateMutability": "payable",
			"type": "function"
		},
		{
			"constant": false,
			"inputs": [
				{
					"internalType": "string",
					"name": "id",
					"type": "string"
				},
				{
					"internalType": "uint256",
					"name": "investAmt",
					"type": "uint256"
				}
			],
			"name": "assign",
			"outputs": [
				{
					"internalType": "uint256",
					"name": "",
					"type": "uint256"
				},
				{
					"internalType": "uint256",
					"name": "",
					"type": "uint256"
				}
			],
			"payable": true,
			"stateMutability": "payable",
			"type": "function"
		},
		{
			"constant": false,
			"inputs": [
				{
					"internalType": "string",
					"name": "id",
					"type": "string"
				},
				{
					"internalType": "uint256",
					"name": "investAmt",
					"type": "uint256"
				}
			],
			"name": "assignEth",
			"outputs": [
				{
					"internalType": "uint256",
					"name": "",
					"type": "uint256"
				}
			],
			"payable": true,
			"stateMutability": "payable",
			"type": "function"
		},
		{
			"constant": false,
			"inputs": [
				{
					"internalType": "string",
					"name": "id",
					"type": "string"
				}
			],
			"name": "assignLiquidity",
			"outputs": [],
			"payable": true,
			"stateMutability": "payable",
			"type": "function"
		},
		{
			"constant": false,
			"inputs": [
				{
					"internalType": "string",
					"name": "id",
					"type": "string"
				}
			],
			"name": "assignToken",
			"outputs": [
				{
					"internalType": "uint256",
					"name": "",
					"type": "uint256"
				}
			],
			"payable": true,
			"stateMutability": "payable",
			"type": "function"
		},
		{
			"constant": true,
			"inputs": [
				{
					"internalType": "string",
					"name": "",
					"type": "string"
				}
			],
			"name": "discoAddress",
			"outputs": [
				{
					"internalType": "contract DiscoAddr",
					"name": "discoAddr",
					"type": "address"
				},
				{
					"internalType": "contract IERC20",
					"name": "token",
					"type": "address"
				},
				{
					"internalType": "address payable",
					"name": "depositAccount",
					"type": "address"
				},
				{
					"internalType": "uint256",
					"name": "initLiquidity",
					"type": "uint256"
				},
				{
					"internalType": "uint256",
					"name": "swapEth",
					"type": "uint256"
				},
				{
					"internalType": "uint256",
					"name": "swapToken",
					"type": "uint256"
				}
			],
			"payable": false,
			"stateMutability": "view",
			"type": "function"
		},
		{
			"constant": true,
			"inputs": [
				{
					"internalType": "string",
					"name": "id",
					"type": "string"
				}
			],
			"name": "discoToken",
			"outputs": [
				{
					"internalType": "contract IERC20",
					"name": "",
					"type": "address"
				}
			],
			"payable": false,
			"stateMutability": "view",
			"type": "function"
		},
		{
			"constant": true,
			"inputs": [
				{
					"internalType": "string",
					"name": "",
					"type": "string"
				}
			],
			"name": "discos",
			"outputs": [
				{
					"internalType": "string",
					"name": "id",
					"type": "string"
				},
				{
					"internalType": "address payable",
					"name": "walletAddr",
					"type": "address"
				},
				{
					"internalType": "address",
					"name": "tokenAddr",
					"type": "address"
				},
				{
					"internalType": "string",
					"name": "description",
					"type": "string"
				},
				{
					"internalType": "uint256",
					"name": "fundRaisingStartedAt",
					"type": "uint256"
				},
				{
					"internalType": "uint256",
					"name": "fundRaisingEndedAt",
					"type": "uint256"
				},
				{
					"internalType": "uint256",
					"name": "investmentReward",
					"type": "uint256"
				},
				{
					"internalType": "uint256",
					"name": "rewardDeclineRate",
					"type": "uint256"
				},
				{
					"internalType": "uint256",
					"name": "shareToken",
					"type": "uint256"
				},
				{
					"internalType": "uint256",
					"name": "minFundRaising",
					"type": "uint256"
				},
				{
					"internalType": "uint256",
					"name": "addLiquidityPool",
					"type": "uint256"
				},
				{
					"internalType": "uint256",
					"name": "totalDepositToken",
					"type": "uint256"
				}
			],
			"payable": false,
			"stateMutability": "view",
			"type": "function"
		},
		{
			"constant": false,
			"inputs": [
				{
					"internalType": "string",
					"name": "id",
					"type": "string"
				}
			],
			"name": "enableDisco",
			"outputs": [],
			"payable": true,
			"stateMutability": "payable",
			"type": "function"
		},
		{
			"constant": false,
			"inputs": [
				{
					"internalType": "string",
					"name": "id",
					"type": "string"
				}
			],
			"name": "finishedDisco",
			"outputs": [],
			"payable": false,
			"stateMutability": "nonpayable",
			"type": "function"
		},
		{
			"constant": true,
			"inputs": [],
			"name": "getDate",
			"outputs": [
				{
					"internalType": "uint256",
					"name": "",
					"type": "uint256"
				}
			],
			"payable": false,
			"stateMutability": "view",
			"type": "function"
		},
		{
			"constant": true,
			"inputs": [
				{
					"internalType": "string",
					"name": "id",
					"type": "string"
				}
			],
			"name": "getInvestAmt",
			"outputs": [
				{
					"internalType": "uint256",
					"name": "",
					"type": "uint256"
				},
				{
					"internalType": "uint256",
					"name": "",
					"type": "uint256"
				}
			],
			"payable": false,
			"stateMutability": "view",
			"type": "function"
		},
		{
			"constant": false,
			"inputs": [
				{
					"internalType": "string",
					"name": "id",
					"type": "string"
				},
				{
					"internalType": "uint256",
					"name": "time",
					"type": "uint256"
				}
			],
			"name": "investor",
			"outputs": [],
			"payable": true,
			"stateMutability": "payable",
			"type": "function"
		},
		{
			"constant": true,
			"inputs": [
				{
					"internalType": "string",
					"name": "",
					"type": "string"
				},
				{
					"internalType": "uint256",
					"name": "",
					"type": "uint256"
				}
			],
			"name": "investors",
			"outputs": [
				{
					"internalType": "address payable",
					"name": "investor",
					"type": "address"
				},
				{
					"internalType": "uint256",
					"name": "value",
					"type": "uint256"
				},
				{
					"internalType": "uint256",
					"name": "time",
					"type": "uint256"
				},
				{
					"internalType": "bool",
					"name": "isDead",
					"type": "bool"
				}
			],
			"payable": false,
			"stateMutability": "view",
			"type": "function"
		},
		{
			"constant": false,
			"inputs": [
				{
					"components": [
						{
							"internalType": "string",
							"name": "id",
							"type": "string"
						},
						{
							"internalType": "address payable",
							"name": "walletAddr",
							"type": "address"
						},
						{
							"internalType": "address",
							"name": "tokenAddr",
							"type": "address"
						},
						{
							"internalType": "string",
							"name": "description",
							"type": "string"
						},
						{
							"internalType": "uint256",
							"name": "fundRaisingStartedAt",
							"type": "uint256"
						},
						{
							"internalType": "uint256",
							"name": "fundRaisingEndedAt",
							"type": "uint256"
						},
						{
							"internalType": "uint256",
							"name": "investmentReward",
							"type": "uint256"
						},
						{
							"internalType": "uint256",
							"name": "rewardDeclineRate",
							"type": "uint256"
						},
						{
							"internalType": "uint256",
							"name": "shareToken",
							"type": "uint256"
						},
						{
							"internalType": "uint256",
							"name": "minFundRaising",
							"type": "uint256"
						},
						{
							"internalType": "uint256",
							"name": "addLiquidityPool",
							"type": "uint256"
						},
						{
							"internalType": "uint256",
							"name": "totalDepositToken",
							"type": "uint256"
						}
					],
					"internalType": "struct Disco.DiscoInfo",
					"name": "d",
					"type": "tuple"
				}
			],
			"name": "newDisco",
			"outputs": [],
			"payable": true,
			"stateMutability": "payable",
			"type": "function"
		},
		{
			"constant": true,
			"inputs": [
				{
					"internalType": "string",
					"name": "id",
					"type": "string"
				}
			],
			"name": "poolEthBalance",
			"outputs": [
				{
					"internalType": "uint256",
					"name": "",
					"type": "uint256"
				}
			],
			"payable": false,
			"stateMutability": "view",
			"type": "function"
		},
		{
			"constant": true,
			"inputs": [
				{
					"internalType": "string",
					"name": "id",
					"type": "string"
				}
			],
			"name": "poolTokenBalance",
			"outputs": [
				{
					"internalType": "uint256",
					"name": "",
					"type": "uint256"
				}
			],
			"payable": false,
			"stateMutability": "view",
			"type": "function"
		},
		{
			"constant": false,
			"inputs": [
				{
					"internalType": "string",
					"name": "id",
					"type": "string"
				}
			],
			"name": "refund",
			"outputs": [],
			"payable": true,
			"stateMutability": "payable",
			"type": "function"
		},
		{
			"constant": false,
			"inputs": [
				{
					"internalType": "string",
					"name": "id",
					"type": "string"
				},
				{
					"internalType": "uint256",
					"name": "token",
					"type": "uint256"
				}
			],
			"name": "removeLiquidity",
			"outputs": [
				{
					"internalType": "uint256",
					"name": "",
					"type": "uint256"
				},
				{
					"internalType": "uint256",
					"name": "",
					"type": "uint256"
				}
			],
			"payable": true,
			"stateMutability": "payable",
			"type": "function"
		},
		{
			"constant": false,
			"inputs": [
				{
					"internalType": "uint256",
					"name": "pf",
					"type": "uint256"
				}
			],
			"name": "setPreFee",
			"outputs": [],
			"payable": false,
			"stateMutability": "nonpayable",
			"type": "function"
		},
		{
			"constant": false,
			"inputs": [
				{
					"internalType": "address",
					"name": "swapAddr",
					"type": "address"
				}
			],
			"name": "setSwap",
			"outputs": [],
			"payable": false,
			"stateMutability": "nonpayable",
			"type": "function"
		},
		{
			"constant": true,
			"inputs": [
				{
					"internalType": "string",
					"name": "",
					"type": "string"
				}
			],
			"name": "status",
			"outputs": [
				{
					"internalType": "bool",
					"name": "isFinished",
					"type": "bool"
				},
				{
					"internalType": "bool",
					"name": "isSuccess",
					"type": "bool"
				},
				{
					"internalType": "bool",
					"name": "isEnabled",
					"type": "bool"
				}
			],
			"payable": false,
			"stateMutability": "view",
			"type": "function"
		}
	]
}