{
	"data": {
		"bytecode": {
			"linkReferences": {},
			"object": "60806040523480156200001157600080fd5b5060405162000fe338038062000fe383398101604081905262000034916200016b565b805181906200004b9060009060208401906200006a565b50508051620000629060019060208401906200006a565b50506200022d565b828054600181600116156101000203166002900490600052602060002090601f016020900481019282601f10620000ad57805160ff1916838001178555620000dd565b82800160010185558215620000dd579182015b82811115620000dd578251825591602001919060010190620000c0565b50620000eb929150620000ef565b5090565b6200010c91905b80821115620000eb5760008155600101620000f6565b90565b600082601f8301126200012157600080fd5b8151620001386200013282620001d2565b620001ab565b915080825260208301602083018583830111156200015557600080fd5b62000162838284620001fa565b50505092915050565b6000602082840312156200017e57600080fd5b81516001600160401b038111156200019557600080fd5b620001a3848285016200010f565b949350505050565b6040518181016001600160401b0381118282101715620001ca57600080fd5b604052919050565b60006001600160401b03821115620001e957600080fd5b506020601f91909101601f19160190565b60005b8381101562000217578181015183820152602001620001fd565b8381111562000227576000848401525b50505050565b610da6806200023d6000396000f3fe6080604052600436106100dd5760003560e01c8063acb3c0731161007f578063beabacc811610059578063beabacc8146101f6578063e1f21c6714610216578063eedc966a14610236578063fb1e6a6214610256576100dd565b8063acb3c07314610192578063af640d0f146101b2578063be574484146101d4576100dd565b806338cc4831116100bb57806338cc4831146100df5780634e6630b01461014a5780634f95a04b1461016c57806366dd0f241461017f576100dd565b8063026b1d5f146100df578063144fa6d71461010a57806323b872dd1461012a575b005b3480156100eb57600080fd5b506100f461026b565b6040516101019190610bac565b60405180910390f35b34801561011657600080fd5b506100dd6101253660046109d4565b61026f565b34801561013657600080fd5b506100dd6101453660046109f2565b610291565b34801561015657600080fd5b5061015f610321565b6040516101019190610c8c565b6100dd61017a36600461097c565b610325565b6100dd61018d366004610a3f565b61035b565b34801561019e57600080fd5b506100dd6101ad3660046109d4565b610432565b3480156101be57600080fd5b506101c7610454565b6040516101019190610c7b565b6101e76101e2366004610abe565b6104e1565b60405161010193929190610c9a565b34801561020257600080fd5b506100dd6102113660046109f2565b61079e565b34801561022257600080fd5b506100dd6102313660046109f2565b6107cc565b34801561024257600080fd5b5061015f6102513660046109d4565b6107fa565b34801561026257600080fd5b506101c761087f565b3090565b600380546001600160a01b0319166001600160a01b0392909216919091179055565b6040516323b872dd60e01b81526001600160a01b038416906323b872dd906102c190309086908690600401610bba565b602060405180830381600087803b1580156102db57600080fd5b505af11580156102ef573d6000803e3d6000fd5b505050506040513d601f19601f8201168201806040525061031391908101906109b6565b61031c57600080fd5b505050565b4790565b6040516001600160a01b0383169082156108fc029083906000818181858888f1935050505015801561031c573d6000803e3d6000fd5b600254604080516315ab88c960e31b815290516000926001600160a01b03169163ad5c4648916004808301926020929190829003018186803b1580156103a057600080fd5b505afa1580156103b4573d6000803e3d6000fd5b505050506040513d601f19601f820116820180604052506103d89190810190610956565b9050806001600160a01b031663d0e30db0836040518263ffffffff1660e01b81526004016000604051808303818588803b15801561041557600080fd5b505af1158015610429573d6000803e3d6000fd5b50505050505050565b600280546001600160a01b0319166001600160a01b0392909216919091179055565b60018054604080516020600284861615610100026000190190941693909304601f810184900484028201840190925281815292918301828280156104d95780601f106104ae576101008083540402835291602001916104d9565b820191906000526020600020905b8154815290600101906020018083116104bc57829003601f168201915b505050505081565b60035460025460405163095ea7b360e01b8152600092839283926001600160a01b039283169263095ea7b39261051e929116908d90600401610c59565b602060405180830381600087803b15801561053857600080fd5b505af115801561054c573d6000803e3d6000fd5b505050506040513d601f19601f8201168201806040525061057091908101906109b6565b61057957600080fd5b600254604080516315ab88c960e31b815290516000926001600160a01b03169163ad5c4648916004808301926020929190829003018186803b1580156105be57600080fd5b505afa1580156105d2573d6000803e3d6000fd5b505050506040513d601f19601f820116820180604052506105f69190810190610956565b60025460405163095ea7b360e01b81529192506001600160a01b038084169263095ea7b39261062b9216908d90600401610c59565b602060405180830381600087803b15801561064557600080fd5b505af1158015610659573d6000803e3d6000fd5b505050506040513d601f19601f8201168201806040525061067d91908101906109b6565b61068657600080fd5b600254600354604080516315ab88c960e31b815290516001600160a01b039384169363e8e33700931691849163ad5c464891600480820192602092909190829003018186803b1580156106d857600080fd5b505afa1580156106ec573d6000803e3d6000fd5b505050506040513d601f19601f820116820180604052506107109190810190610956565b8d8d8d8d8d8d6040518963ffffffff1660e01b8152600401610739989796959493929190610be2565b606060405180830381600087803b15801561075357600080fd5b505af1158015610767573d6000803e3d6000fd5b505050506040513d601f19601f8201168201806040525061078b9190810190610a7b565b9350935093505096509650969350505050565b60405163a9059cbb60e01b81526001600160a01b0384169063a9059cbb906102c19085908590600401610c59565b60405163095ea7b360e01b81526001600160a01b0384169063095ea7b3906102c19085908590600401610c59565b6040516370a0823160e01b81526000906001600160a01b038316906370a0823190610829903090600401610b9e565b60206040518083038186803b15801561084157600080fd5b505afa158015610855573d6000803e3d6000fd5b505050506040513d601f19601f820116820180604052506108799190810190610a5d565b92915050565b60018054604080516020601f6002600019610100878916150201909516949094049384018190048102820181019092528281526060939092909183018282801561090a5780601f106108df5761010080835404028352916020019161090a565b820191906000526020600020905b8154815290600101906020018083116108ed57829003601f168201915b5050505050905090565b803561087981610d31565b805161087981610d31565b805161087981610d48565b803561087981610d51565b803561087981610d5a565b805161087981610d5a565b60006020828403121561096857600080fd5b6000610974848461091f565b949350505050565b6000806040838503121561098f57600080fd5b600061099b8585610914565b92505060206109ac85828601610940565b9150509250929050565b6000602082840312156109c857600080fd5b6000610974848461092a565b6000602082840312156109e657600080fd5b60006109748484610935565b600080600060608486031215610a0757600080fd5b6000610a138686610935565b9350506020610a2486828701610914565b9250506040610a3586828701610940565b9150509250925092565b600060208284031215610a5157600080fd5b60006109748484610940565b600060208284031215610a6f57600080fd5b6000610974848461094b565b600080600060608486031215610a9057600080fd5b6000610a9c868661094b565b9350506020610aad8682870161094b565b9250506040610a358682870161094b565b60008060008060008060c08789031215610ad757600080fd5b6000610ae38989610940565b9650506020610af489828a01610940565b9550506040610b0589828a01610940565b9450506060610b1689828a01610940565b9350506080610b2789828a01610914565b92505060a0610b3889828a01610940565b9150509295509295509295565b610b4e81610cec565b82525050565b610b4e81610cc2565b6000610b6882610cb5565b610b728185610cb9565b9350610b82818560208601610cf7565b610b8b81610d27565b9093019392505050565b610b4e81610ce9565b602081016108798284610b45565b602081016108798284610b54565b60608101610bc88286610b45565b610bd56020830185610b54565b6109746040830184610b95565b6101008101610bf1828b610b54565b610bfe602083018a610b54565b610c0b6040830189610b95565b610c186060830188610b95565b610c256080830187610b95565b610c3260a0830186610b95565b610c3f60c0830185610b54565b610c4c60e0830184610b95565b9998505050505050505050565b60408101610c678285610b54565b610c746020830184610b95565b9392505050565b60208082528101610c748184610b5d565b602081016108798284610b95565b60608101610ca88286610b95565b610bd56020830185610b95565b5190565b90815260200190565b600061087982610cdd565b151590565b600061087982610cc2565b6001600160a01b031690565b90565b600061087982610cd2565b60005b83811015610d12578181015183820152602001610cfa565b83811115610d21576000848401525b50505050565b601f01601f191690565b610d3a81610cc2565b8114610d4557600080fd5b50565b610d3a81610ccd565b610d3a81610cd2565b610d3a81610ce956fea365627a7a72315820f04765aed3a15ea24c758b12df617040093b983e5708bb08645577271466af5e6c6578706572696d656e74616cf564736f6c63430005100040",
			"opcodes": "PUSH1 0x80 PUSH1 0x40 MSTORE CALLVALUE DUP1 ISZERO PUSH3 0x11 JUMPI PUSH1 0x0 DUP1 REVERT JUMPDEST POP PUSH1 0x40 MLOAD PUSH3 0xFE3 CODESIZE SUB DUP1 PUSH3 0xFE3 DUP4 CODECOPY DUP2 ADD PUSH1 0x40 DUP2 SWAP1 MSTORE PUSH3 0x34 SWAP2 PUSH3 0x16B JUMP JUMPDEST DUP1 MLOAD DUP2 SWAP1 PUSH3 0x4B SWAP1 PUSH1 0x0 SWAP1 PUSH1 0x20 DUP5 ADD SWAP1 PUSH3 0x6A JUMP JUMPDEST POP POP DUP1 MLOAD PUSH3 0x62 SWAP1 PUSH1 0x1 SWAP1 PUSH1 0x20 DUP5 ADD SWAP1 PUSH3 0x6A JUMP JUMPDEST POP POP PUSH3 0x22D JUMP JUMPDEST DUP3 DUP1 SLOAD PUSH1 0x1 DUP2 PUSH1 0x1 AND ISZERO PUSH2 0x100 MUL SUB AND PUSH1 0x2 SWAP1 DIV SWAP1 PUSH1 0x0 MSTORE PUSH1 0x20 PUSH1 0x0 KECCAK256 SWAP1 PUSH1 0x1F ADD PUSH1 0x20 SWAP1 DIV DUP2 ADD SWAP3 DUP3 PUSH1 0x1F LT PUSH3 0xAD JUMPI DUP1 MLOAD PUSH1 0xFF NOT AND DUP4 DUP1 ADD OR DUP6 SSTORE PUSH3 0xDD JUMP JUMPDEST DUP3 DUP1 ADD PUSH1 0x1 ADD DUP6 SSTORE DUP3 ISZERO PUSH3 0xDD JUMPI SWAP2 DUP3 ADD JUMPDEST DUP3 DUP2 GT ISZERO PUSH3 0xDD JUMPI DUP3 MLOAD DUP3 SSTORE SWAP2 PUSH1 0x20 ADD SWAP2 SWAP1 PUSH1 0x1 ADD SWAP1 PUSH3 0xC0 JUMP JUMPDEST POP PUSH3 0xEB SWAP3 SWAP2 POP PUSH3 0xEF JUMP JUMPDEST POP SWAP1 JUMP JUMPDEST PUSH3 0x10C SWAP2 SWAP1 JUMPDEST DUP1 DUP3 GT ISZERO PUSH3 0xEB JUMPI PUSH1 0x0 DUP2 SSTORE PUSH1 0x1 ADD PUSH3 0xF6 JUMP JUMPDEST SWAP1 JUMP JUMPDEST PUSH1 0x0 DUP3 PUSH1 0x1F DUP4 ADD SLT PUSH3 0x121 JUMPI PUSH1 0x0 DUP1 REVERT JUMPDEST DUP2 MLOAD PUSH3 0x138 PUSH3 0x132 DUP3 PUSH3 0x1D2 JUMP JUMPDEST PUSH3 0x1AB JUMP JUMPDEST SWAP2 POP DUP1 DUP3 MSTORE PUSH1 0x20 DUP4 ADD PUSH1 0x20 DUP4 ADD DUP6 DUP4 DUP4 ADD GT ISZERO PUSH3 0x155 JUMPI PUSH1 0x0 DUP1 REVERT JUMPDEST PUSH3 0x162 DUP4 DUP3 DUP5 PUSH3 0x1FA JUMP JUMPDEST POP POP POP SWAP3 SWAP2 POP POP JUMP JUMPDEST PUSH1 0x0 PUSH1 0x20 DUP3 DUP5 SUB SLT ISZERO PUSH3 0x17E JUMPI PUSH1 0x0 DUP1 REVERT JUMPDEST DUP2 MLOAD PUSH1 0x1 PUSH1 0x1 PUSH1 0x40 SHL SUB DUP2 GT ISZERO PUSH3 0x195 JUMPI PUSH1 0x0 DUP1 REVERT JUMPDEST PUSH3 0x1A3 DUP5 DUP3 DUP6 ADD PUSH3 0x10F JUMP JUMPDEST SWAP5 SWAP4 POP POP POP POP JUMP JUMPDEST PUSH1 0x40 MLOAD DUP2 DUP2 ADD PUSH1 0x1 PUSH1 0x1 PUSH1 0x40 SHL SUB DUP2 GT DUP3 DUP3 LT OR ISZERO PUSH3 0x1CA JUMPI PUSH1 0x0 DUP1 REVERT JUMPDEST PUSH1 0x40 MSTORE SWAP2 SWAP1 POP JUMP JUMPDEST PUSH1 0x0 PUSH1 0x1 PUSH1 0x1 PUSH1 0x40 SHL SUB DUP3 GT ISZERO PUSH3 0x1E9 JUMPI PUSH1 0x0 DUP1 REVERT JUMPDEST POP PUSH1 0x20 PUSH1 0x1F SWAP2 SWAP1 SWAP2 ADD PUSH1 0x1F NOT AND ADD SWAP1 JUMP JUMPDEST PUSH1 0x0 JUMPDEST DUP4 DUP2 LT ISZERO PUSH3 0x217 JUMPI DUP2 DUP2 ADD MLOAD DUP4 DUP3 ADD MSTORE PUSH1 0x20 ADD PUSH3 0x1FD JUMP JUMPDEST DUP4 DUP2 GT ISZERO PUSH3 0x227 JUMPI PUSH1 0x0 DUP5 DUP5 ADD MSTORE JUMPDEST POP POP POP POP JUMP JUMPDEST PUSH2 0xDA6 DUP1 PUSH3 0x23D PUSH1 0x0 CODECOPY PUSH1 0x0 RETURN INVALID PUSH1 0x80 PUSH1 0x40 MSTORE PUSH1 0x4 CALLDATASIZE LT PUSH2 0xDD JUMPI PUSH1 0x0 CALLDATALOAD PUSH1 0xE0 SHR DUP1 PUSH4 0xACB3C073 GT PUSH2 0x7F JUMPI DUP1 PUSH4 0xBEABACC8 GT PUSH2 0x59 JUMPI DUP1 PUSH4 0xBEABACC8 EQ PUSH2 0x1F6 JUMPI DUP1 PUSH4 0xE1F21C67 EQ PUSH2 0x216 JUMPI DUP1 PUSH4 0xEEDC966A EQ PUSH2 0x236 JUMPI DUP1 PUSH4 0xFB1E6A62 EQ PUSH2 0x256 JUMPI PUSH2 0xDD JUMP JUMPDEST DUP1 PUSH4 0xACB3C073 EQ PUSH2 0x192 JUMPI DUP1 PUSH4 0xAF640D0F EQ PUSH2 0x1B2 JUMPI DUP1 PUSH4 0xBE574484 EQ PUSH2 0x1D4 JUMPI PUSH2 0xDD JUMP JUMPDEST DUP1 PUSH4 0x38CC4831 GT PUSH2 0xBB JUMPI DUP1 PUSH4 0x38CC4831 EQ PUSH2 0xDF JUMPI DUP1 PUSH4 0x4E6630B0 EQ PUSH2 0x14A JUMPI DUP1 PUSH4 0x4F95A04B EQ PUSH2 0x16C JUMPI DUP1 PUSH4 0x66DD0F24 EQ PUSH2 0x17F JUMPI PUSH2 0xDD JUMP JUMPDEST DUP1 PUSH4 0x26B1D5F EQ PUSH2 0xDF JUMPI DUP1 PUSH4 0x144FA6D7 EQ PUSH2 0x10A JUMPI DUP1 PUSH4 0x23B872DD EQ PUSH2 0x12A JUMPI JUMPDEST STOP JUMPDEST CALLVALUE DUP1 ISZERO PUSH2 0xEB JUMPI PUSH1 0x0 DUP1 REVERT JUMPDEST POP PUSH2 0xF4 PUSH2 0x26B JUMP JUMPDEST PUSH1 0x40 MLOAD PUSH2 0x101 SWAP2 SWAP1 PUSH2 0xBAC JUMP JUMPDEST PUSH1 0x40 MLOAD DUP1 SWAP2 SUB SWAP1 RETURN JUMPDEST CALLVALUE DUP1 ISZERO PUSH2 0x116 JUMPI PUSH1 0x0 DUP1 REVERT JUMPDEST POP PUSH2 0xDD PUSH2 0x125 CALLDATASIZE PUSH1 0x4 PUSH2 0x9D4 JUMP JUMPDEST PUSH2 0x26F JUMP JUMPDEST CALLVALUE DUP1 ISZERO PUSH2 0x136 JUMPI PUSH1 0x0 DUP1 REVERT JUMPDEST POP PUSH2 0xDD PUSH2 0x145 CALLDATASIZE PUSH1 0x4 PUSH2 0x9F2 JUMP JUMPDEST PUSH2 0x291 JUMP JUMPDEST CALLVALUE DUP1 ISZERO PUSH2 0x156 JUMPI PUSH1 0x0 DUP1 REVERT JUMPDEST POP PUSH2 0x15F PUSH2 0x321 JUMP JUMPDEST PUSH1 0x40 MLOAD PUSH2 0x101 SWAP2 SWAP1 PUSH2 0xC8C JUMP JUMPDEST PUSH2 0xDD PUSH2 0x17A CALLDATASIZE PUSH1 0x4 PUSH2 0x97C JUMP JUMPDEST PUSH2 0x325 JUMP JUMPDEST PUSH2 0xDD PUSH2 0x18D CALLDATASIZE PUSH1 0x4 PUSH2 0xA3F JUMP JUMPDEST PUSH2 0x35B JUMP JUMPDEST CALLVALUE DUP1 ISZERO PUSH2 0x19E JUMPI PUSH1 0x0 DUP1 REVERT JUMPDEST POP PUSH2 0xDD PUSH2 0x1AD CALLDATASIZE PUSH1 0x4 PUSH2 0x9D4 JUMP JUMPDEST PUSH2 0x432 JUMP JUMPDEST CALLVALUE DUP1 ISZERO PUSH2 0x1BE JUMPI PUSH1 0x0 DUP1 REVERT JUMPDEST POP PUSH2 0x1C7 PUSH2 0x454 JUMP JUMPDEST PUSH1 0x40 MLOAD PUSH2 0x101 SWAP2 SWAP1 PUSH2 0xC7B JUMP JUMPDEST PUSH2 0x1E7 PUSH2 0x1E2 CALLDATASIZE PUSH1 0x4 PUSH2 0xABE JUMP JUMPDEST PUSH2 0x4E1 JUMP JUMPDEST PUSH1 0x40 MLOAD PUSH2 0x101 SWAP4 SWAP3 SWAP2 SWAP1 PUSH2 0xC9A JUMP JUMPDEST CALLVALUE DUP1 ISZERO PUSH2 0x202 JUMPI PUSH1 0x0 DUP1 REVERT JUMPDEST POP PUSH2 0xDD PUSH2 0x211 CALLDATASIZE PUSH1 0x4 PUSH2 0x9F2 JUMP JUMPDEST PUSH2 0x79E JUMP JUMPDEST CALLVALUE DUP1 ISZERO PUSH2 0x222 JUMPI PUSH1 0x0 DUP1 REVERT JUMPDEST POP PUSH2 0xDD PUSH2 0x231 CALLDATASIZE PUSH1 0x4 PUSH2 0x9F2 JUMP JUMPDEST PUSH2 0x7CC JUMP JUMPDEST CALLVALUE DUP1 ISZERO PUSH2 0x242 JUMPI PUSH1 0x0 DUP1 REVERT JUMPDEST POP PUSH2 0x15F PUSH2 0x251 CALLDATASIZE PUSH1 0x4 PUSH2 0x9D4 JUMP JUMPDEST PUSH2 0x7FA JUMP JUMPDEST CALLVALUE DUP1 ISZERO PUSH2 0x262 JUMPI PUSH1 0x0 DUP1 REVERT JUMPDEST POP PUSH2 0x1C7 PUSH2 0x87F JUMP JUMPDEST ADDRESS SWAP1 JUMP JUMPDEST PUSH1 0x3 DUP1 SLOAD PUSH1 0x1 PUSH1 0x1 PUSH1 0xA0 SHL SUB NOT AND PUSH1 0x1 PUSH1 0x1 PUSH1 0xA0 SHL SUB SWAP3 SWAP1 SWAP3 AND SWAP2 SWAP1 SWAP2 OR SWAP1 SSTORE JUMP JUMPDEST PUSH1 0x40 MLOAD PUSH4 0x23B872DD PUSH1 0xE0 SHL DUP2 MSTORE PUSH1 0x1 PUSH1 0x1 PUSH1 0xA0 SHL SUB DUP5 AND SWAP1 PUSH4 0x23B872DD SWAP1 PUSH2 0x2C1 SWAP1 ADDRESS SWAP1 DUP7 SWAP1 DUP7 SWAP1 PUSH1 0x4 ADD PUSH2 0xBBA JUMP JUMPDEST PUSH1 0x20 PUSH1 0x40 MLOAD DUP1 DUP4 SUB DUP2 PUSH1 0x0 DUP8 DUP1 EXTCODESIZE ISZERO DUP1 ISZERO PUSH2 0x2DB JUMPI PUSH1 0x0 DUP1 REVERT JUMPDEST POP GAS CALL ISZERO DUP1 ISZERO PUSH2 0x2EF JUMPI RETURNDATASIZE PUSH1 0x0 DUP1 RETURNDATACOPY RETURNDATASIZE PUSH1 0x0 REVERT JUMPDEST POP POP POP POP PUSH1 0x40 MLOAD RETURNDATASIZE PUSH1 0x1F NOT PUSH1 0x1F DUP3 ADD AND DUP3 ADD DUP1 PUSH1 0x40 MSTORE POP PUSH2 0x313 SWAP2 SWAP1 DUP2 ADD SWAP1 PUSH2 0x9B6 JUMP JUMPDEST PUSH2 0x31C JUMPI PUSH1 0x0 DUP1 REVERT JUMPDEST POP POP POP JUMP JUMPDEST SELFBALANCE SWAP1 JUMP JUMPDEST PUSH1 0x40 MLOAD PUSH1 0x1 PUSH1 0x1 PUSH1 0xA0 SHL SUB DUP4 AND SWAP1 DUP3 ISZERO PUSH2 0x8FC MUL SWAP1 DUP4 SWAP1 PUSH1 0x0 DUP2 DUP2 DUP2 DUP6 DUP9 DUP9 CALL SWAP4 POP POP POP POP ISZERO DUP1 ISZERO PUSH2 0x31C JUMPI RETURNDATASIZE PUSH1 0x0 DUP1 RETURNDATACOPY RETURNDATASIZE PUSH1 0x0 REVERT JUMPDEST PUSH1 0x2 SLOAD PUSH1 0x40 DUP1 MLOAD PUSH4 0x15AB88C9 PUSH1 0xE3 SHL DUP2 MSTORE SWAP1 MLOAD PUSH1 0x0 SWAP3 PUSH1 0x1 PUSH1 0x1 PUSH1 0xA0 SHL SUB AND SWAP2 PUSH4 0xAD5C4648 SWAP2 PUSH1 0x4 DUP1 DUP4 ADD SWAP3 PUSH1 0x20 SWAP3 SWAP2 SWAP1 DUP3 SWAP1 SUB ADD DUP2 DUP7 DUP1 EXTCODESIZE ISZERO DUP1 ISZERO PUSH2 0x3A0 JUMPI PUSH1 0x0 DUP1 REVERT JUMPDEST POP GAS STATICCALL ISZERO DUP1 ISZERO PUSH2 0x3B4 JUMPI RETURNDATASIZE PUSH1 0x0 DUP1 RETURNDATACOPY RETURNDATASIZE PUSH1 0x0 REVERT JUMPDEST POP POP POP POP PUSH1 0x40 MLOAD RETURNDATASIZE PUSH1 0x1F NOT PUSH1 0x1F DUP3 ADD AND DUP3 ADD DUP1 PUSH1 0x40 MSTORE POP PUSH2 0x3D8 SWAP2 SWAP1 DUP2 ADD SWAP1 PUSH2 0x956 JUMP JUMPDEST SWAP1 POP DUP1 PUSH1 0x1 PUSH1 0x1 PUSH1 0xA0 SHL SUB AND PUSH4 0xD0E30DB0 DUP4 PUSH1 0x40 MLOAD DUP3 PUSH4 0xFFFFFFFF AND PUSH1 0xE0 SHL DUP2 MSTORE PUSH1 0x4 ADD PUSH1 0x0 PUSH1 0x40 MLOAD DUP1 DUP4 SUB DUP2 DUP6 DUP9 DUP1 EXTCODESIZE ISZERO DUP1 ISZERO PUSH2 0x415 JUMPI PUSH1 0x0 DUP1 REVERT JUMPDEST POP GAS CALL ISZERO DUP1 ISZERO PUSH2 0x429 JUMPI RETURNDATASIZE PUSH1 0x0 DUP1 RETURNDATACOPY RETURNDATASIZE PUSH1 0x0 REVERT JUMPDEST POP POP POP POP POP POP POP JUMP JUMPDEST PUSH1 0x2 DUP1 SLOAD PUSH1 0x1 PUSH1 0x1 PUSH1 0xA0 SHL SUB NOT AND PUSH1 0x1 PUSH1 0x1 PUSH1 0xA0 SHL SUB SWAP3 SWAP1 SWAP3 AND SWAP2 SWAP1 SWAP2 OR SWAP1 SSTORE JUMP JUMPDEST PUSH1 0x1 DUP1 SLOAD PUSH1 0x40 DUP1 MLOAD PUSH1 0x20 PUSH1 0x2 DUP5 DUP7 AND ISZERO PUSH2 0x100 MUL PUSH1 0x0 NOT ADD SWAP1 SWAP5 AND SWAP4 SWAP1 SWAP4 DIV PUSH1 0x1F DUP2 ADD DUP5 SWAP1 DIV DUP5 MUL DUP3 ADD DUP5 ADD SWAP1 SWAP3 MSTORE DUP2 DUP2 MSTORE SWAP3 SWAP2 DUP4 ADD DUP3 DUP3 DUP1 ISZERO PUSH2 0x4D9 JUMPI DUP1 PUSH1 0x1F LT PUSH2 0x4AE JUMPI PUSH2 0x100 DUP1 DUP4 SLOAD DIV MUL DUP4 MSTORE SWAP2 PUSH1 0x20 ADD SWAP2 PUSH2 0x4D9 JUMP JUMPDEST DUP3 ADD SWAP2 SWAP1 PUSH1 0x0 MSTORE PUSH1 0x20 PUSH1 0x0 KECCAK256 SWAP1 JUMPDEST DUP2 SLOAD DUP2 MSTORE SWAP1 PUSH1 0x1 ADD SWAP1 PUSH1 0x20 ADD DUP1 DUP4 GT PUSH2 0x4BC JUMPI DUP3 SWAP1 SUB PUSH1 0x1F AND DUP3 ADD SWAP2 JUMPDEST POP POP POP POP POP DUP2 JUMP JUMPDEST PUSH1 0x3 SLOAD PUSH1 0x2 SLOAD PUSH1 0x40 MLOAD PUSH4 0x95EA7B3 PUSH1 0xE0 SHL DUP2 MSTORE PUSH1 0x0 SWAP3 DUP4 SWAP3 DUP4 SWAP3 PUSH1 0x1 PUSH1 0x1 PUSH1 0xA0 SHL SUB SWAP3 DUP4 AND SWAP3 PUSH4 0x95EA7B3 SWAP3 PUSH2 0x51E SWAP3 SWAP2 AND SWAP1 DUP14 SWAP1 PUSH1 0x4 ADD PUSH2 0xC59 JUMP JUMPDEST PUSH1 0x20 PUSH1 0x40 MLOAD DUP1 DUP4 SUB DUP2 PUSH1 0x0 DUP8 DUP1 EXTCODESIZE ISZERO DUP1 ISZERO PUSH2 0x538 JUMPI PUSH1 0x0 DUP1 REVERT JUMPDEST POP GAS CALL ISZERO DUP1 ISZERO PUSH2 0x54C JUMPI RETURNDATASIZE PUSH1 0x0 DUP1 RETURNDATACOPY RETURNDATASIZE PUSH1 0x0 REVERT JUMPDEST POP POP POP POP PUSH1 0x40 MLOAD RETURNDATASIZE PUSH1 0x1F NOT PUSH1 0x1F DUP3 ADD AND DUP3 ADD DUP1 PUSH1 0x40 MSTORE POP PUSH2 0x570 SWAP2 SWAP1 DUP2 ADD SWAP1 PUSH2 0x9B6 JUMP JUMPDEST PUSH2 0x579 JUMPI PUSH1 0x0 DUP1 REVERT JUMPDEST PUSH1 0x2 SLOAD PUSH1 0x40 DUP1 MLOAD PUSH4 0x15AB88C9 PUSH1 0xE3 SHL DUP2 MSTORE SWAP1 MLOAD PUSH1 0x0 SWAP3 PUSH1 0x1 PUSH1 0x1 PUSH1 0xA0 SHL SUB AND SWAP2 PUSH4 0xAD5C4648 SWAP2 PUSH1 0x4 DUP1 DUP4 ADD SWAP3 PUSH1 0x20 SWAP3 SWAP2 SWAP1 DUP3 SWAP1 SUB ADD DUP2 DUP7 DUP1 EXTCODESIZE ISZERO DUP1 ISZERO PUSH2 0x5BE JUMPI PUSH1 0x0 DUP1 REVERT JUMPDEST POP GAS STATICCALL ISZERO DUP1 ISZERO PUSH2 0x5D2 JUMPI RETURNDATASIZE PUSH1 0x0 DUP1 RETURNDATACOPY RETURNDATASIZE PUSH1 0x0 REVERT JUMPDEST POP POP POP POP PUSH1 0x40 MLOAD RETURNDATASIZE PUSH1 0x1F NOT PUSH1 0x1F DUP3 ADD AND DUP3 ADD DUP1 PUSH1 0x40 MSTORE POP PUSH2 0x5F6 SWAP2 SWAP1 DUP2 ADD SWAP1 PUSH2 0x956 JUMP JUMPDEST PUSH1 0x2 SLOAD PUSH1 0x40 MLOAD PUSH4 0x95EA7B3 PUSH1 0xE0 SHL DUP2 MSTORE SWAP2 SWAP3 POP PUSH1 0x1 PUSH1 0x1 PUSH1 0xA0 SHL SUB DUP1 DUP5 AND SWAP3 PUSH4 0x95EA7B3 SWAP3 PUSH2 0x62B SWAP3 AND SWAP1 DUP14 SWAP1 PUSH1 0x4 ADD PUSH2 0xC59 JUMP JUMPDEST PUSH1 0x20 PUSH1 0x40 MLOAD DUP1 DUP4 SUB DUP2 PUSH1 0x0 DUP8 DUP1 EXTCODESIZE ISZERO DUP1 ISZERO PUSH2 0x645 JUMPI PUSH1 0x0 DUP1 REVERT JUMPDEST POP GAS CALL ISZERO DUP1 ISZERO PUSH2 0x659 JUMPI RETURNDATASIZE PUSH1 0x0 DUP1 RETURNDATACOPY RETURNDATASIZE PUSH1 0x0 REVERT JUMPDEST POP POP POP POP PUSH1 0x40 MLOAD RETURNDATASIZE PUSH1 0x1F NOT PUSH1 0x1F DUP3 ADD AND DUP3 ADD DUP1 PUSH1 0x40 MSTORE POP PUSH2 0x67D SWAP2 SWAP1 DUP2 ADD SWAP1 PUSH2 0x9B6 JUMP JUMPDEST PUSH2 0x686 JUMPI PUSH1 0x0 DUP1 REVERT JUMPDEST PUSH1 0x2 SLOAD PUSH1 0x3 SLOAD PUSH1 0x40 DUP1 MLOAD PUSH4 0x15AB88C9 PUSH1 0xE3 SHL DUP2 MSTORE SWAP1 MLOAD PUSH1 0x1 PUSH1 0x1 PUSH1 0xA0 SHL SUB SWAP4 DUP5 AND SWAP4 PUSH4 0xE8E33700 SWAP4 AND SWAP2 DUP5 SWAP2 PUSH4 0xAD5C4648 SWAP2 PUSH1 0x4 DUP1 DUP3 ADD SWAP3 PUSH1 0x20 SWAP3 SWAP1 SWAP2 SWAP1 DUP3 SWAP1 SUB ADD DUP2 DUP7 DUP1 EXTCODESIZE ISZERO DUP1 ISZERO PUSH2 0x6D8 JUMPI PUSH1 0x0 DUP1 REVERT JUMPDEST POP GAS STATICCALL ISZERO DUP1 ISZERO PUSH2 0x6EC JUMPI RETURNDATASIZE PUSH1 0x0 DUP1 RETURNDATACOPY RETURNDATASIZE PUSH1 0x0 REVERT JUMPDEST POP POP POP POP PUSH1 0x40 MLOAD RETURNDATASIZE PUSH1 0x1F NOT PUSH1 0x1F DUP3 ADD AND DUP3 ADD DUP1 PUSH1 0x40 MSTORE POP PUSH2 0x710 SWAP2 SWAP1 DUP2 ADD SWAP1 PUSH2 0x956 JUMP JUMPDEST DUP14 DUP14 DUP14 DUP14 DUP14 DUP14 PUSH1 0x40 MLOAD DUP10 PUSH4 0xFFFFFFFF AND PUSH1 0xE0 SHL DUP2 MSTORE PUSH1 0x4 ADD PUSH2 0x739 SWAP9 SWAP8 SWAP7 SWAP6 SWAP5 SWAP4 SWAP3 SWAP2 SWAP1 PUSH2 0xBE2 JUMP JUMPDEST PUSH1 0x60 PUSH1 0x40 MLOAD DUP1 DUP4 SUB DUP2 PUSH1 0x0 DUP8 DUP1 EXTCODESIZE ISZERO DUP1 ISZERO PUSH2 0x753 JUMPI PUSH1 0x0 DUP1 REVERT JUMPDEST POP GAS CALL ISZERO DUP1 ISZERO PUSH2 0x767 JUMPI RETURNDATASIZE PUSH1 0x0 DUP1 RETURNDATACOPY RETURNDATASIZE PUSH1 0x0 REVERT JUMPDEST POP POP POP POP PUSH1 0x40 MLOAD RETURNDATASIZE PUSH1 0x1F NOT PUSH1 0x1F DUP3 ADD AND DUP3 ADD DUP1 PUSH1 0x40 MSTORE POP PUSH2 0x78B SWAP2 SWAP1 DUP2 ADD SWAP1 PUSH2 0xA7B JUMP JUMPDEST SWAP4 POP SWAP4 POP SWAP4 POP POP SWAP7 POP SWAP7 POP SWAP7 SWAP4 POP POP POP POP JUMP JUMPDEST PUSH1 0x40 MLOAD PUSH4 0xA9059CBB PUSH1 0xE0 SHL DUP2 MSTORE PUSH1 0x1 PUSH1 0x1 PUSH1 0xA0 SHL SUB DUP5 AND SWAP1 PUSH4 0xA9059CBB SWAP1 PUSH2 0x2C1 SWAP1 DUP6 SWAP1 DUP6 SWAP1 PUSH1 0x4 ADD PUSH2 0xC59 JUMP JUMPDEST PUSH1 0x40 MLOAD PUSH4 0x95EA7B3 PUSH1 0xE0 SHL DUP2 MSTORE PUSH1 0x1 PUSH1 0x1 PUSH1 0xA0 SHL SUB DUP5 AND SWAP1 PUSH4 0x95EA7B3 SWAP1 PUSH2 0x2C1 SWAP1 DUP6 SWAP1 DUP6 SWAP1 PUSH1 0x4 ADD PUSH2 0xC59 JUMP JUMPDEST PUSH1 0x40 MLOAD PUSH4 0x70A08231 PUSH1 0xE0 SHL DUP2 MSTORE PUSH1 0x0 SWAP1 PUSH1 0x1 PUSH1 0x1 PUSH1 0xA0 SHL SUB DUP4 AND SWAP1 PUSH4 0x70A08231 SWAP1 PUSH2 0x829 SWAP1 ADDRESS SWAP1 PUSH1 0x4 ADD PUSH2 0xB9E JUMP JUMPDEST PUSH1 0x20 PUSH1 0x40 MLOAD DUP1 DUP4 SUB DUP2 DUP7 DUP1 EXTCODESIZE ISZERO DUP1 ISZERO PUSH2 0x841 JUMPI PUSH1 0x0 DUP1 REVERT JUMPDEST POP GAS STATICCALL ISZERO DUP1 ISZERO PUSH2 0x855 JUMPI RETURNDATASIZE PUSH1 0x0 DUP1 RETURNDATACOPY RETURNDATASIZE PUSH1 0x0 REVERT JUMPDEST POP POP POP POP PUSH1 0x40 MLOAD RETURNDATASIZE PUSH1 0x1F NOT PUSH1 0x1F DUP3 ADD AND DUP3 ADD DUP1 PUSH1 0x40 MSTORE POP PUSH2 0x879 SWAP2 SWAP1 DUP2 ADD SWAP1 PUSH2 0xA5D JUMP JUMPDEST SWAP3 SWAP2 POP POP JUMP JUMPDEST PUSH1 0x1 DUP1 SLOAD PUSH1 0x40 DUP1 MLOAD PUSH1 0x20 PUSH1 0x1F PUSH1 0x2 PUSH1 0x0 NOT PUSH2 0x100 DUP8 DUP10 AND ISZERO MUL ADD SWAP1 SWAP6 AND SWAP5 SWAP1 SWAP5 DIV SWAP4 DUP5 ADD DUP2 SWAP1 DIV DUP2 MUL DUP3 ADD DUP2 ADD SWAP1 SWAP3 MSTORE DUP3 DUP2 MSTORE PUSH1 0x60 SWAP4 SWAP1 SWAP3 SWAP1 SWAP2 DUP4 ADD DUP3 DUP3 DUP1 ISZERO PUSH2 0x90A JUMPI DUP1 PUSH1 0x1F LT PUSH2 0x8DF JUMPI PUSH2 0x100 DUP1 DUP4 SLOAD DIV MUL DUP4 MSTORE SWAP2 PUSH1 0x20 ADD SWAP2 PUSH2 0x90A JUMP JUMPDEST DUP3 ADD SWAP2 SWAP1 PUSH1 0x0 MSTORE PUSH1 0x20 PUSH1 0x0 KECCAK256 SWAP1 JUMPDEST DUP2 SLOAD DUP2 MSTORE SWAP1 PUSH1 0x1 ADD SWAP1 PUSH1 0x20 ADD DUP1 DUP4 GT PUSH2 0x8ED JUMPI DUP3 SWAP1 SUB PUSH1 0x1F AND DUP3 ADD SWAP2 JUMPDEST POP POP POP POP POP SWAP1 POP SWAP1 JUMP JUMPDEST DUP1 CALLDATALOAD PUSH2 0x879 DUP2 PUSH2 0xD31 JUMP JUMPDEST DUP1 MLOAD PUSH2 0x879 DUP2 PUSH2 0xD31 JUMP JUMPDEST DUP1 MLOAD PUSH2 0x879 DUP2 PUSH2 0xD48 JUMP JUMPDEST DUP1 CALLDATALOAD PUSH2 0x879 DUP2 PUSH2 0xD51 JUMP JUMPDEST DUP1 CALLDATALOAD PUSH2 0x879 DUP2 PUSH2 0xD5A JUMP JUMPDEST DUP1 MLOAD PUSH2 0x879 DUP2 PUSH2 0xD5A JUMP JUMPDEST PUSH1 0x0 PUSH1 0x20 DUP3 DUP5 SUB SLT ISZERO PUSH2 0x968 JUMPI PUSH1 0x0 DUP1 REVERT JUMPDEST PUSH1 0x0 PUSH2 0x974 DUP5 DUP5 PUSH2 0x91F JUMP JUMPDEST SWAP5 SWAP4 POP POP POP POP JUMP JUMPDEST PUSH1 0x0 DUP1 PUSH1 0x40 DUP4 DUP6 SUB SLT ISZERO PUSH2 0x98F JUMPI PUSH1 0x0 DUP1 REVERT JUMPDEST PUSH1 0x0 PUSH2 0x99B DUP6 DUP6 PUSH2 0x914 JUMP JUMPDEST SWAP3 POP POP PUSH1 0x20 PUSH2 0x9AC DUP6 DUP3 DUP7 ADD PUSH2 0x940 JUMP JUMPDEST SWAP2 POP POP SWAP3 POP SWAP3 SWAP1 POP JUMP JUMPDEST PUSH1 0x0 PUSH1 0x20 DUP3 DUP5 SUB SLT ISZERO PUSH2 0x9C8 JUMPI PUSH1 0x0 DUP1 REVERT JUMPDEST PUSH1 0x0 PUSH2 0x974 DUP5 DUP5 PUSH2 0x92A JUMP JUMPDEST PUSH1 0x0 PUSH1 0x20 DUP3 DUP5 SUB SLT ISZERO PUSH2 0x9E6 JUMPI PUSH1 0x0 DUP1 REVERT JUMPDEST PUSH1 0x0 PUSH2 0x974 DUP5 DUP5 PUSH2 0x935 JUMP JUMPDEST PUSH1 0x0 DUP1 PUSH1 0x0 PUSH1 0x60 DUP5 DUP7 SUB SLT ISZERO PUSH2 0xA07 JUMPI PUSH1 0x0 DUP1 REVERT JUMPDEST PUSH1 0x0 PUSH2 0xA13 DUP7 DUP7 PUSH2 0x935 JUMP JUMPDEST SWAP4 POP POP PUSH1 0x20 PUSH2 0xA24 DUP7 DUP3 DUP8 ADD PUSH2 0x914 JUMP JUMPDEST SWAP3 POP POP PUSH1 0x40 PUSH2 0xA35 DUP7 DUP3 DUP8 ADD PUSH2 0x940 JUMP JUMPDEST SWAP2 POP POP SWAP3 POP SWAP3 POP SWAP3 JUMP JUMPDEST PUSH1 0x0 PUSH1 0x20 DUP3 DUP5 SUB SLT ISZERO PUSH2 0xA51 JUMPI PUSH1 0x0 DUP1 REVERT JUMPDEST PUSH1 0x0 PUSH2 0x974 DUP5 DUP5 PUSH2 0x940 JUMP JUMPDEST PUSH1 0x0 PUSH1 0x20 DUP3 DUP5 SUB SLT ISZERO PUSH2 0xA6F JUMPI PUSH1 0x0 DUP1 REVERT JUMPDEST PUSH1 0x0 PUSH2 0x974 DUP5 DUP5 PUSH2 0x94B JUMP JUMPDEST PUSH1 0x0 DUP1 PUSH1 0x0 PUSH1 0x60 DUP5 DUP7 SUB SLT ISZERO PUSH2 0xA90 JUMPI PUSH1 0x0 DUP1 REVERT JUMPDEST PUSH1 0x0 PUSH2 0xA9C DUP7 DUP7 PUSH2 0x94B JUMP JUMPDEST SWAP4 POP POP PUSH1 0x20 PUSH2 0xAAD DUP7 DUP3 DUP8 ADD PUSH2 0x94B JUMP JUMPDEST SWAP3 POP POP PUSH1 0x40 PUSH2 0xA35 DUP7 DUP3 DUP8 ADD PUSH2 0x94B JUMP JUMPDEST PUSH1 0x0 DUP1 PUSH1 0x0 DUP1 PUSH1 0x0 DUP1 PUSH1 0xC0 DUP8 DUP10 SUB SLT ISZERO PUSH2 0xAD7 JUMPI PUSH1 0x0 DUP1 REVERT JUMPDEST PUSH1 0x0 PUSH2 0xAE3 DUP10 DUP10 PUSH2 0x940 JUMP JUMPDEST SWAP7 POP POP PUSH1 0x20 PUSH2 0xAF4 DUP10 DUP3 DUP11 ADD PUSH2 0x940 JUMP JUMPDEST SWAP6 POP POP PUSH1 0x40 PUSH2 0xB05 DUP10 DUP3 DUP11 ADD PUSH2 0x940 JUMP JUMPDEST SWAP5 POP POP PUSH1 0x60 PUSH2 0xB16 DUP10 DUP3 DUP11 ADD PUSH2 0x940 JUMP JUMPDEST SWAP4 POP POP PUSH1 0x80 PUSH2 0xB27 DUP10 DUP3 DUP11 ADD PUSH2 0x914 JUMP JUMPDEST SWAP3 POP POP PUSH1 0xA0 PUSH2 0xB38 DUP10 DUP3 DUP11 ADD PUSH2 0x940 JUMP JUMPDEST SWAP2 POP POP SWAP3 SWAP6 POP SWAP3 SWAP6 POP SWAP3 SWAP6 JUMP JUMPDEST PUSH2 0xB4E DUP2 PUSH2 0xCEC JUMP JUMPDEST DUP3 MSTORE POP POP JUMP JUMPDEST PUSH2 0xB4E DUP2 PUSH2 0xCC2 JUMP JUMPDEST PUSH1 0x0 PUSH2 0xB68 DUP3 PUSH2 0xCB5 JUMP JUMPDEST PUSH2 0xB72 DUP2 DUP6 PUSH2 0xCB9 JUMP JUMPDEST SWAP4 POP PUSH2 0xB82 DUP2 DUP6 PUSH1 0x20 DUP7 ADD PUSH2 0xCF7 JUMP JUMPDEST PUSH2 0xB8B DUP2 PUSH2 0xD27 JUMP JUMPDEST SWAP1 SWAP4 ADD SWAP4 SWAP3 POP POP POP JUMP JUMPDEST PUSH2 0xB4E DUP2 PUSH2 0xCE9 JUMP JUMPDEST PUSH1 0x20 DUP2 ADD PUSH2 0x879 DUP3 DUP5 PUSH2 0xB45 JUMP JUMPDEST PUSH1 0x20 DUP2 ADD PUSH2 0x879 DUP3 DUP5 PUSH2 0xB54 JUMP JUMPDEST PUSH1 0x60 DUP2 ADD PUSH2 0xBC8 DUP3 DUP7 PUSH2 0xB45 JUMP JUMPDEST PUSH2 0xBD5 PUSH1 0x20 DUP4 ADD DUP6 PUSH2 0xB54 JUMP JUMPDEST PUSH2 0x974 PUSH1 0x40 DUP4 ADD DUP5 PUSH2 0xB95 JUMP JUMPDEST PUSH2 0x100 DUP2 ADD PUSH2 0xBF1 DUP3 DUP12 PUSH2 0xB54 JUMP JUMPDEST PUSH2 0xBFE PUSH1 0x20 DUP4 ADD DUP11 PUSH2 0xB54 JUMP JUMPDEST PUSH2 0xC0B PUSH1 0x40 DUP4 ADD DUP10 PUSH2 0xB95 JUMP JUMPDEST PUSH2 0xC18 PUSH1 0x60 DUP4 ADD DUP9 PUSH2 0xB95 JUMP JUMPDEST PUSH2 0xC25 PUSH1 0x80 DUP4 ADD DUP8 PUSH2 0xB95 JUMP JUMPDEST PUSH2 0xC32 PUSH1 0xA0 DUP4 ADD DUP7 PUSH2 0xB95 JUMP JUMPDEST PUSH2 0xC3F PUSH1 0xC0 DUP4 ADD DUP6 PUSH2 0xB54 JUMP JUMPDEST PUSH2 0xC4C PUSH1 0xE0 DUP4 ADD DUP5 PUSH2 0xB95 JUMP JUMPDEST SWAP10 SWAP9 POP POP POP POP POP POP POP POP POP JUMP JUMPDEST PUSH1 0x40 DUP2 ADD PUSH2 0xC67 DUP3 DUP6 PUSH2 0xB54 JUMP JUMPDEST PUSH2 0xC74 PUSH1 0x20 DUP4 ADD DUP5 PUSH2 0xB95 JUMP JUMPDEST SWAP4 SWAP3 POP POP POP JUMP JUMPDEST PUSH1 0x20 DUP1 DUP3 MSTORE DUP2 ADD PUSH2 0xC74 DUP2 DUP5 PUSH2 0xB5D JUMP JUMPDEST PUSH1 0x20 DUP2 ADD PUSH2 0x879 DUP3 DUP5 PUSH2 0xB95 JUMP JUMPDEST PUSH1 0x60 DUP2 ADD PUSH2 0xCA8 DUP3 DUP7 PUSH2 0xB95 JUMP JUMPDEST PUSH2 0xBD5 PUSH1 0x20 DUP4 ADD DUP6 PUSH2 0xB95 JUMP JUMPDEST MLOAD SWAP1 JUMP JUMPDEST SWAP1 DUP2 MSTORE PUSH1 0x20 ADD SWAP1 JUMP JUMPDEST PUSH1 0x0 PUSH2 0x879 DUP3 PUSH2 0xCDD JUMP JUMPDEST ISZERO ISZERO SWAP1 JUMP JUMPDEST PUSH1 0x0 PUSH2 0x879 DUP3 PUSH2 0xCC2 JUMP JUMPDEST PUSH1 0x1 PUSH1 0x1 PUSH1 0xA0 SHL SUB AND SWAP1 JUMP JUMPDEST SWAP1 JUMP JUMPDEST PUSH1 0x0 PUSH2 0x879 DUP3 PUSH2 0xCD2 JUMP JUMPDEST PUSH1 0x0 JUMPDEST DUP4 DUP2 LT ISZERO PUSH2 0xD12 JUMPI DUP2 DUP2 ADD MLOAD DUP4 DUP3 ADD MSTORE PUSH1 0x20 ADD PUSH2 0xCFA JUMP JUMPDEST DUP4 DUP2 GT ISZERO PUSH2 0xD21 JUMPI PUSH1 0x0 DUP5 DUP5 ADD MSTORE JUMPDEST POP POP POP POP JUMP JUMPDEST PUSH1 0x1F ADD PUSH1 0x1F NOT AND SWAP1 JUMP JUMPDEST PUSH2 0xD3A DUP2 PUSH2 0xCC2 JUMP JUMPDEST DUP2 EQ PUSH2 0xD45 JUMPI PUSH1 0x0 DUP1 REVERT JUMPDEST POP JUMP JUMPDEST PUSH2 0xD3A DUP2 PUSH2 0xCCD JUMP JUMPDEST PUSH2 0xD3A DUP2 PUSH2 0xCD2 JUMP JUMPDEST PUSH2 0xD3A DUP2 PUSH2 0xCE9 JUMP INVALID LOG3 PUSH6 0x627A7A723158 KECCAK256 CREATE SELFBALANCE PUSH6 0xAED3A15EA24C PUSH22 0x8B12DF617040093B983E5708BB08645577271466AF5E PUSH13 0x6578706572696D656E74616CF5 PUSH5 0x736F6C6343 STOP SDIV LT STOP BLOCKHASH "
		},
		"gasEstimates": {
			"creation": {
				"codeDepositCost": "698800",
				"executionCost": "infinite",
				"totalCost": "infinite"
			},
			"external": {
				"": "164",
				"addLiquidityETH(uint256,uint256,uint256,uint256,address,uint256)": "infinite",
				"approve(address,address,uint256)": "infinite",
				"depositWETH(uint256)": "infinite",
				"ethBalance()": "346",
				"ethTransfer(address,uint256)": "infinite",
				"getAddress()": "infinite",
				"getDiscoId()": "infinite",
				"getPool()": "infinite",
				"id()": "infinite",
				"setSwap(address)": "infinite",
				"setToken(address)": "infinite",
				"tokenBalance(address)": "infinite",
				"transfer(address,address,uint256)": "infinite",
				"transferFrom(address,address,uint256)": "infinite"
			}
		},
		"methodIdentifiers": {
			"addLiquidityETH(uint256,uint256,uint256,uint256,address,uint256)": "be574484",
			"approve(address,address,uint256)": "e1f21c67",
			"depositWETH(uint256)": "66dd0f24",
			"ethBalance()": "4e6630b0",
			"ethTransfer(address,uint256)": "4f95a04b",
			"getAddress()": "38cc4831",
			"getDiscoId()": "fb1e6a62",
			"getPool()": "026b1d5f",
			"id()": "af640d0f",
			"setSwap(address)": "acb3c073",
			"setToken(address)": "144fa6d7",
			"tokenBalance(address)": "eedc966a",
			"transfer(address,address,uint256)": "beabacc8",
			"transferFrom(address,address,uint256)": "23b872dd"
		}
	},
	"abi": [
		{
			"inputs": [
				{
					"internalType": "string",
					"name": "discoId",
					"type": "string"
				}
			],
			"payable": false,
			"stateMutability": "nonpayable",
			"type": "constructor"
		},
		{
			"payable": true,
			"stateMutability": "payable",
			"type": "fallback"
		},
		{
			"constant": false,
			"inputs": [
				{
					"internalType": "uint256",
					"name": "amountTokenDesired",
					"type": "uint256"
				},
				{
					"internalType": "uint256",
					"name": "amountETHDesired",
					"type": "uint256"
				},
				{
					"internalType": "uint256",
					"name": "amountTokenMin",
					"type": "uint256"
				},
				{
					"internalType": "uint256",
					"name": "amountETHMin",
					"type": "uint256"
				},
				{
					"internalType": "address",
					"name": "to",
					"type": "address"
				},
				{
					"internalType": "uint256",
					"name": "deadline",
					"type": "uint256"
				}
			],
			"name": "addLiquidityETH",
			"outputs": [
				{
					"internalType": "uint256",
					"name": "amountToken",
					"type": "uint256"
				},
				{
					"internalType": "uint256",
					"name": "amountETH",
					"type": "uint256"
				},
				{
					"internalType": "uint256",
					"name": "liquidity",
					"type": "uint256"
				}
			],
			"payable": true,
			"stateMutability": "payable",
			"type": "function"
		},
		{
			"constant": false,
			"inputs": [
				{
					"internalType": "contract IERC20",
					"name": "token",
					"type": "address"
				},
				{
					"internalType": "address",
					"name": "to",
					"type": "address"
				},
				{
					"internalType": "uint256",
					"name": "amount",
					"type": "uint256"
				}
			],
			"name": "approve",
			"outputs": [],
			"payable": false,
			"stateMutability": "nonpayable",
			"type": "function"
		},
		{
			"constant": false,
			"inputs": [
				{
					"internalType": "uint256",
					"name": "amount",
					"type": "uint256"
				}
			],
			"name": "depositWETH",
			"outputs": [],
			"payable": true,
			"stateMutability": "payable",
			"type": "function"
		},
		{
			"constant": true,
			"inputs": [],
			"name": "ethBalance",
			"outputs": [
				{
					"internalType": "uint256",
					"name": "",
					"type": "uint256"
				}
			],
			"payable": false,
			"stateMutability": "view",
			"type": "function"
		},
		{
			"constant": false,
			"inputs": [
				{
					"internalType": "address payable",
					"name": "to",
					"type": "address"
				},
				{
					"internalType": "uint256",
					"name": "amount",
					"type": "uint256"
				}
			],
			"name": "ethTransfer",
			"outputs": [],
			"payable": true,
			"stateMutability": "payable",
			"type": "function"
		},
		{
			"constant": true,
			"inputs": [],
			"name": "getAddress",
			"outputs": [
				{
					"internalType": "address payable",
					"name": "",
					"type": "address"
				}
			],
			"payable": false,
			"stateMutability": "view",
			"type": "function"
		},
		{
			"constant": true,
			"inputs": [],
			"name": "getDiscoId",
			"outputs": [
				{
					"internalType": "string",
					"name": "",
					"type": "string"
				}
			],
			"payable": false,
			"stateMutability": "view",
			"type": "function"
		},
		{
			"constant": true,
			"inputs": [],
			"name": "getPool",
			"outputs": [
				{
					"internalType": "address payable",
					"name": "",
					"type": "address"
				}
			],
			"payable": false,
			"stateMutability": "view",
			"type": "function"
		},
		{
			"constant": true,
			"inputs": [],
			"name": "id",
			"outputs": [
				{
					"internalType": "string",
					"name": "",
					"type": "string"
				}
			],
			"payable": false,
			"stateMutability": "view",
			"type": "function"
		},
		{
			"constant": false,
			"inputs": [
				{
					"internalType": "contract IUniswapV2Router01",
					"name": "pu",
					"type": "address"
				}
			],
			"name": "setSwap",
			"outputs": [],
			"payable": false,
			"stateMutability": "nonpayable",
			"type": "function"
		},
		{
			"constant": false,
			"inputs": [
				{
					"internalType": "contract IERC20",
					"name": "pt",
					"type": "address"
				}
			],
			"name": "setToken",
			"outputs": [],
			"payable": false,
			"stateMutability": "nonpayable",
			"type": "function"
		},
		{
			"constant": true,
			"inputs": [
				{
					"internalType": "contract IERC20",
					"name": "token",
					"type": "address"
				}
			],
			"name": "tokenBalance",
			"outputs": [
				{
					"internalType": "uint256",
					"name": "",
					"type": "uint256"
				}
			],
			"payable": false,
			"stateMutability": "view",
			"type": "function"
		},
		{
			"constant": false,
			"inputs": [
				{
					"internalType": "contract IERC20",
					"name": "token",
					"type": "address"
				},
				{
					"internalType": "address",
					"name": "to",
					"type": "address"
				},
				{
					"internalType": "uint256",
					"name": "amount",
					"type": "uint256"
				}
			],
			"name": "transfer",
			"outputs": [],
			"payable": false,
			"stateMutability": "nonpayable",
			"type": "function"
		},
		{
			"constant": false,
			"inputs": [
				{
					"internalType": "contract IERC20",
					"name": "token",
					"type": "address"
				},
				{
					"internalType": "address",
					"name": "to",
					"type": "address"
				},
				{
					"internalType": "uint256",
					"name": "amount",
					"type": "uint256"
				}
			],
			"name": "transferFrom",
			"outputs": [],
			"payable": false,
			"stateMutability": "nonpayable",
			"type": "function"
		}
	]
}