{
	"data": {
		"bytecode": {
			"linkReferences": {},
			"object": "608060405234801561001057600080fd5b50600080546001600160a01b031916331790556151d9806100326000396000f3fe608060405260043610620001395760003560e01c806356bf994211620000af578063acb3c073116200006d578063acb3c073146200038f578063b16e68eb14620003b4578063c79d192114620003cb578063e8ca64f414620003e2578063fe5f2e8814620004185762000139565b806356bf994214620002b35780635e56fb0114620002d857806366f61fb914620003115780637a328a7e146200034557806395a16979146200036a5762000139565b806334d30e4011620000fd57806334d30e40146200021157806334e8e57b1462000236578063430fe9c1146200026d57806348569ee91462000285578063512518b5146200029c5762000139565b8062d05029146200013e5780631218bfff146200016e57806315282c9e14620001945780632019240214620001bb5780632df7917214620001d2575b600080fd5b620001556200014f36600462003774565b6200042f565b604051620001659291906200403b565b60405180910390f35b620001856200017f36600462003702565b62000469565b6040516200016591906200402b565b348015620001a157600080fd5b50620001b9620001b336600462003804565b62000b37565b005b62000185620001cc36600462003774565b62000b72565b348015620001df57600080fd5b50620001f7620001f136600462003702565b62000eda565b604051620001659c9b9a9998979695949392919062003e46565b3480156200021e57600080fd5b50620001556200023036600462003702565b6200106e565b3480156200024357600080fd5b506200025b6200025536600462003774565b62001153565b60405162000165949392919062003cf5565b3480156200027a57600080fd5b5062000185620011b3565b620001b962000296366004620037cb565b620011b8565b620001b9620002ad36600462003702565b6200157b565b348015620002c057600080fd5b5062000185620002d2366004620036bc565b620019cd565b348015620002e557600080fd5b50620002fd620002f736600462003702565b62001ad3565b604051620001659695949392919062003d60565b3480156200031e57600080fd5b506200033662000330366004620036bc565b62001b21565b60405162000165919062003dbb565b3480156200035257600080fd5b50620001b962000364366004620036bc565b62001ba9565b3480156200037757600080fd5b506200018562000389366004620036bc565b62001f90565b3480156200039c57600080fd5b50620001b9620003ae36600462003651565b620020b3565b620001b9620003c536600462003774565b62002102565b620001b9620003dc36600462003702565b620025a9565b348015620003ef57600080fd5b50620004076200040136600462003702565b62002b28565b604051620001659392919062003d32565b620001b96200042936600462003702565b62002b5b565b6000806200043d846200157b565b60006200044b858562000b72565b905060006200045a8662000469565b919350909150505b9250929050565b600062000475620031f6565b60038360405162000487919062003c93565b9081526040805160209281900383018120805460026001821615610100026000190190911604601f810185900490940282016101a09081019093526101808201848152919390928492918491840182828015620005285780601f10620004fc5761010080835404028352916020019162000528565b820191906000526020600020905b8154815290600101906020018083116200050a57829003601f168201915b50505091835250506001828101546001600160a01b0390811660208085019190915260028086015490921660408086019190915260038601805482516101009682161596909602600019011693909304601f810183900483028501830190915280845260609094019390830182828015620005e75780601f10620005bb57610100808354040283529160200191620005e7565b820191906000526020600020905b815481529060010190602001808311620005c957829003601f168201915b50505050508152602001600482015481526020016005820154815260200160068201548152602001600782015481526020016008820154815260200160098201548152602001600a8201548152602001600b8201548152505090506200064c62003269565b6006846040516200065e919062003c93565b90815260408051918290036020908101832060c08401835280546001600160a01b03908116855260018201548116928501929092526002810154909116838301526003810154606080850191909152600480830154608086015260059092015460a085015291519293509091620006d790879062003c93565b9081526020016040518091039020805480602002602001604051908101604052809291908181526020016000905b8282101562000769576000848152602090819020604080516080810182526004860290920180546001600160a01b03168352600180820154848601526002820154928401929092526003015460ff1615156060830152908352909201910162000705565b5050505060208301519091506000805b8351811015620009a6576200078d620032ba565b8482815181106200079a57fe5b60200260200101519050806060015115620007b657506200099d565b6040810151600090620007e7906201518090620007da908063ffffffff6200310216565b9063ffffffff6200312816565b9050600062000804828a60e001516200310290919063ffffffff16565b90506000811162000813575060005b875160405163e1f21c6760e01b81526001916001600160a01b03169063e1f21c679062000849908a903090869060040162003dcb565b600060405180830381600087803b1580156200086457600080fd5b505af115801562000879573d6000803e3d6000fd5b50505050866001600160a01b03166323b872dd8a600001516001600160a01b031663026b1d5f6040518163ffffffff1660e01b815260040160206040518083038186803b158015620008ca57600080fd5b505afa158015620008df573d6000803e3d6000fd5b505050506040513d601f19601f820116820180604052506200090591908101906200367a565b86516040516001600160e01b031960e085901b1681526200092d929190869060040162003ca8565b602060405180830381600087803b1580156200094857600080fd5b505af11580156200095d573d6000803e3d6000fd5b505050506040513d601f19601f820116820180604052506200098391908101906200369b565b5062000996868263ffffffff6200315e16565b9550505050505b60010162000779565b5060a084015161016086015103819003801562000b2c57845160405163e1f21c6760e01b81526001600160a01b039091169063e1f21c6790620009f29086903090869060040162003dcb565b600060405180830381600087803b15801562000a0d57600080fd5b505af115801562000a22573d6000803e3d6000fd5b50505050826001600160a01b03166323b872dd86600001516001600160a01b031663026b1d5f6040518163ffffffff1660e01b815260040160206040518083038186803b15801562000a7357600080fd5b505afa15801562000a88573d6000803e3d6000fd5b505050506040513d601f19601f8201168201806040525062000aae91908101906200367a565b8760400151846040518463ffffffff1660e01b815260040162000ad49392919062003ca8565b602060405180830381600087803b15801562000aef57600080fd5b505af115801562000b04573d6000803e3d6000fd5b505050506040513d601f19601f8201168201806040525062000b2a91908101906200369b565b505b979650505050505050565b6000546001600160a01b0316331462000b6d5760405162461bcd60e51b815260040162000b649062003f9b565b60405180910390fd5b600255565b600062000b7e620031f6565b60038460405162000b90919062003c93565b9081526040805160209281900383018120805460026001821615610100026000190190911604601f810185900490940282016101a0908101909352610180820184815291939092849291849184018282801562000c315780601f1062000c055761010080835404028352916020019162000c31565b820191906000526020600020905b81548152906001019060200180831162000c1357829003601f168201915b50505091835250506001828101546001600160a01b0390811660208085019190915260028086015490921660408086019190915260038601805482516101009682161596909602600019011693909304601f81018390048302850183019091528084526060909401939083018282801562000cf05780601f1062000cc45761010080835404028352916020019162000cf0565b820191906000526020600020905b81548152906001019060200180831162000cd257829003601f168201915b50505050508152602001600482015481526020016005820154815260200160068201548152602001600782015481526020016008820154815260200160098201548152602001600a8201548152602001600b82015481525050905062000d5562003269565b60068560405162000d67919062003c93565b908152604080516020928190038301812060c08201835280546001600160a01b0390811680845260018301548216958401959095526002808301549091169383019390935260038101546060830152600481015460808301526005015460a0820152925060009062000de390606490620007da90899062003184565b9050801562000e5757604051634f95a04b60e01b81526001600160a01b03831690634f95a04b9062000e1d90600090859060040162003cd6565b600060405180830381600087803b15801562000e3857600080fd5b505af115801562000e4d573d6000803e3d6000fd5b5050505080860395505b60808301516020850151604051634f95a04b60e01b815283890392909203916001600160a01b03851691634f95a04b9162000e989190859060040162003cd6565b600060405180830381600087803b15801562000eb357600080fd5b505af115801562000ec8573d6000803e3d6000fd5b50939750505050505050505b92915050565b805160208183018101805160038252928201938201939093209190925280546040805160026001841615610100026000190190931692909204601f810185900485028301850190915280825291929091839183018282801562000f815780601f1062000f555761010080835404028352916020019162000f81565b820191906000526020600020905b81548152906001019060200180831162000f6357829003601f168201915b505050600180850154600280870154600388018054604080516020601f60001999851615610100029990990190931695909504968701829004820285018201905285845297986001600160a01b0394851698929094169650929450909290830182828015620010345780601f10620010085761010080835404028352916020019162001034565b820191906000526020600020905b8154815290600101906020018083116200101657829003601f168201915b50505050509080600401549080600501549080600601549080600701549080600801549080600901549080600a01549080600b015490508c565b6000808080805b60048660405162001087919062003c93565b908152604051908190036020019020548110156200114957620010a9620032ba565b600487604051620010bb919062003c93565b90815260200160405180910390208281548110620010d557fe5b600091825260209182902060408051608081018252600490930290910180546001600160a01b0316835260018101549383019390935260028301549082015260039091015460ff161515606082018190529091506200113f57602081015193909301926001909201915b5060010162001075565b5092509050915091565b815160208184018101805160048252928201918501919091209190528054829081106200117c57fe5b600091825260209091206004909102018054600182015460028301546003909301546001600160a01b039092169450925060ff1684565b425b90565b805151620011c557600080fd5b620011cf620032ed565b5060408051606081018252600080825260208201819052818301528251915190918391600391620012009162003c93565b908152602001604051809103902060008201518160000190805190602001906200122c9291906200330d565b506020828101516001830180546001600160a01b039283166001600160a01b0319918216179091556040850151600285018054919093169116179055606083015180516200128192600385019201906200330d565b506080820151816004015560a0820151816005015560c0820151816006015560e082015181600701556101008201518160080155610120820151816009015561014082015181600a015561016082015181600b01559050508060058360000151604051620012f0919062003c93565b908152604080519182900360209081018320845181549286015195909301511515620100000262ff0000199515156101000261ff001994151560ff1990941693909317939093169190911793909316179091558251600091620013539062003392565b6200135f919062003e0f565b604051809103906000f0801580156200137c573d6000803e3d6000fd5b50604080850151905163144fa6d760e01b8152919250906001600160a01b0383169063144fa6d790620013b490849060040162003dbb565b600060405180830381600087803b158015620013cf57600080fd5b505af1158015620013e4573d6000803e3d6000fd5b505060015460405163acb3c07360e01b81526001600160a01b03808716945063acb3c07393506200141a92169060040162003dbb565b600060405180830381600087803b1580156200143557600080fd5b505af11580156200144a573d6000803e3d6000fd5b505050506200145862003269565b6040518060c00160405280846001600160a01b03168152602001836001600160a01b0316815260200160006001600160a01b031681526020016000815260200160008152602001600081525090508060068660000151604051620014bd919062003c93565b9081526040805160209281900383018120845181546001600160a01b03199081166001600160a01b0392831617835594860151600183018054871691831691909117905592850151600282018054909516931692909217909255606083015160038201556080830151600482015560a09092015160059092019190915585517ff7e24b64c3d2ed7d191ce3009c2e12632005b58578ce39e23f97eaec9fd6c3e1916200156c9190869062003f1d565b60405180910390a15050505050565b62001585620031f6565b60038260405162001597919062003c93565b9081526040805160209281900383018120805460026001821615610100026000190190911604601f810185900490940282016101a09081019093526101808201848152919390928492918491840182828015620016385780601f106200160c5761010080835404028352916020019162001638565b820191906000526020600020905b8154815290600101906020018083116200161a57829003601f168201915b50505091835250506001828101546001600160a01b0390811660208085019190915260028086015490921660408086019190915260038601805482516101009682161596909602600019011693909304601f810183900483028501830190915280845260609094019390830182828015620016f75780601f10620016cb57610100808354040283529160200191620016f7565b820191906000526020600020905b815481529060010190602001808311620016d957829003601f168201915b50505050508152602001600482015481526020016005820154815260200160068201548152602001600782015481526020016008820154815260200160098201548152602001600a8201548152602001600b8201548152505090506200175c62003269565b6006836040516200176e919062003c93565b908152604080516020928190038301812060c08201835280546001600160a01b03908116808452600183015482169584019590955260028201541692820192909252600382015460608201526004820154608082015260059091015460a082015291506000620017df603c620031c0565b90506000620017ee866200106e565b9150506000620018136064620007da886101400151856200318490919063ffffffff16565b6040516319b743c960e21b81529091506001600160a01b038516906366dd0f2490620018449084906004016200402b565b600060405180830381600087803b1580156200185f57600080fd5b505af115801562001874573d6000803e3d6000fd5b505050506000806000866001600160a01b031663be5744848a6101000151866000808d600001518c6040518763ffffffff1660e01b8152600401620018bf969594939291906200404b565b606060405180830381600087803b158015620018da57600080fd5b505af1158015620018ef573d6000803e3d6000fd5b505050506040513d601f19601f8201168201806040525062001915919081019062003846565b60608b0181905260a08b0183905260808b018290526040519295509093509150889060069062001947908d9062003c93565b9081526040805160209281900383019020835181546001600160a01b03199081166001600160a01b0392831617835593850151600183018054861691831691909117905591840151600282018054909416921691909117909155606082015160038201556080820151600482015560a09091015160059091015550505050505050505050565b6000620019d962003269565b60068484604051620019ed92919062003c84565b908152604080516020928190038301812060c08201835280546001600160a01b039081168084526001830154821695840186905260028301549091168385015260038201546060840152600480830154608085015260059092015460a0840152925163776e4b3560e11b8152919450919291839163eedc966a9162001a759185910162003dbb565b60206040518083038186803b15801562001a8e57600080fd5b505afa15801562001aa3573d6000803e3d6000fd5b505050506040513d601f19601f8201168201806040525062001ac9919081019062003825565b9695505050505050565b80516020818301810180516006825292820191909301209152805460018201546002830154600384015460048501546005909501546001600160a01b03948516959385169490921692909186565b600062001b2d62003269565b6006848460405162001b4192919062003c84565b908152604080516020928190038301812060c08201835280546001600160a01b0390811683526001820154811694830185905260028201541692820192909252600382015460608201526004820154608082015260059091015460a090910152949350505050565b60006005838360405162001bbf92919062003c84565b908152604051908190036020019020805490915060ff1615801562001beb5750805462010000900460ff165b62001bf557600080fd5b805460ff19166001178155604080516020601f850181900481028201810190925283815260009162001c43919086908690819084018382808284376000920191909152506200106e92505050565b91505062001c50620031f6565b6003858560405162001c6492919062003c84565b9081526040805160209281900383018120805460026001821615610100026000190190911604601f810185900490940282016101a0908101909352610180820184815291939092849291849184018282801562001d055780601f1062001cd95761010080835404028352916020019162001d05565b820191906000526020600020905b81548152906001019060200180831162001ce757829003601f168201915b50505091835250506001828101546001600160a01b0390811660208085019190915260028086015490921660408086019190915260038601805482516101009682161596909602600019011693909304601f81018390048302850183019091528084526060909401939083018282801562001dc45780601f1062001d985761010080835404028352916020019162001dc4565b820191906000526020600020905b81548152906001019060200180831162001da657829003601f168201915b50505050508152602001600482015481526020016005820154815260200160068201548152602001600782015481526020016008820154815260200160098201548152602001600a8201548152602001600b8201548152505090508061012001518210158360000160016101000a81548160ff021916908315150217905550826005868660405162001e5892919062003c84565b9081526040519081900360200190208154815460ff918216151560ff199091161780835583546101009081900483161515810261ff00199092169190911780845593546201000090819004831615150262ff00001990941693909317909155845491909104161562001f0f5762001f0785858080601f0160208091040260200160405190810160405280939291908181526020018383808284376000920191909152508692506200042f915050565b505062001f50565b62001f5085858080601f01602080910402602001604051908101604052809392919081815260200183838082843760009201919091525062002b5b92505050565b82546040517f35714766e4544afd4526bc1bbe6a503c6b0f871ab72fb6939be49b8e3419e89e916200156c918891889161010090910460ff169062003dea565b600080546001600160a01b0316331462001fbe5760405162461bcd60e51b815260040162000b649062003f9b565b62001fc862003269565b6006848460405162001fdc92919062003c84565b908152604080516020928190038301812060c08201835280546001600160a01b03908116808452600183015482168685015260028301549091168385015260038201546060840152600480830154608085015260059092015460a084015283516304e6630b60e41b81529351929550938493634e6630b093818401939091829003018186803b1580156200206f57600080fd5b505afa15801562002084573d6000803e3d6000fd5b505050506040513d601f19601f82011682018060405250620020aa919081019062003825565b95945050505050565b6000546001600160a01b03163314620020e05760405162461bcd60e51b815260040162000b649062003f9b565b600180546001600160a01b0319166001600160a01b0392909216919091179055565b8160006200210f620011b3565b90506200211b620032ed565b6005836040516200212d919062003c93565b9081526040805191829003602090810183206060840183525460ff808216151585526101008204811615159285019290925262010000900416151590820152905062002178620031f6565b6003846040516200218a919062003c93565b9081526040805160209281900383018120805460026001821615610100026000190190911604601f810185900490940282016101a090810190935261018082018481529193909284929184918401828280156200222b5780601f10620021ff576101008083540402835291602001916200222b565b820191906000526020600020905b8154815290600101906020018083116200220d57829003601f168201915b50505091835250506001828101546001600160a01b0390811660208085019190915260028086015490921660408086019190915260038601805482516101009682161596909602600019011693909304601f810183900483028501830190915280845260609094019390830182828015620022ea5780601f10620022be57610100808354040283529160200191620022ea565b820191906000526020600020905b815481529060010190602001808311620022cc57829003601f168201915b50505050508152602001600482015481526020016005820154815260200160068201548152602001600782015481526020016008820154815260200160098201548152602001600a8201548152602001600b820154815250509050816040015180156200235657508151155b6200236057600080fd5b82816080015110620023865760405162461bcd60e51b815260040162000b649062003f53565b828160a0015111620023ac5760405162461bcd60e51b815260040162000b649062003fe3565b60003411620023cf5760405162461bcd60e51b815260040162000b649062003fd1565b620023d9620032ba565b6040518060800160405280336001600160a01b0316815260200134815260200187815260200160001515815250905060006006886040516200241c919062003c93565b90815260408051602092819003830181205463026b1d5f60e01b825291516001600160a01b039092169350839263026b1d5f92600480840193829003018186803b1580156200246a57600080fd5b505afa1580156200247f573d6000803e3d6000fd5b505050506040513d601f19601f82011682018060405250620024a591908101906200367a565b6001600160a01b03166108fc349081150290604051600060405180830381858888f19350505050158015620024de573d6000803e3d6000fd5b50600488604051620024f1919062003c93565b9081526040805160209281900383018120805460018082018355600092835291859020875160049092020180546001600160a01b0319166001600160a01b03909216919091178155938601519084015590840151600283015560608401516003909201805460ff1916921515929092179091557f5fec6c2d2d376aa6f4c793e34f6cc71d65285bd07d1e709292fafc2b28bf2fbe9062002597908a903390349062003e22565b60405180910390a15050505050505050565b6000620025b5620031d4565b905080341015620025da5760405162461bcd60e51b815260040162000b649062004019565b6000620025e6620011b3565b9050620025f2620031f6565b60038460405162002604919062003c93565b9081526040805160209281900383018120805460026001821615610100026000190190911604601f810185900490940282016101a09081019093526101808201848152919390928492918491840182828015620026a55780601f106200267957610100808354040283529160200191620026a5565b820191906000526020600020905b8154815290600101906020018083116200268757829003601f168201915b50505091835250506001828101546001600160a01b0390811660208085019190915260028086015490921660408086019190915260038601805482516101009682161596909602600019011693909304601f810183900483028501830190915280845260609094019390830182828015620027645780601f10620027385761010080835404028352916020019162002764565b820191906000526020600020905b8154815290600101906020018083116200274657829003601f168201915b50505050508152602001600482015481526020016005820154815260200160068201548152602001600782015481526020016008820154815260200160098201548152602001600a8201548152602001600b82015481525050905081816080015110620027e55760405162461bcd60e51b815260040162000b649062003f53565b818160a00151116200280b5760405162461bcd60e51b815260040162000b649062003fe3565b62002815620032ed565b60058560405162002827919062003c93565b9081526040805191829003602090810183206060840183525460ff808216151585526101008204811615159285019290925262010000900416158015918301919091529091506200288c5760405162461bcd60e51b815260040162000b649062003fbf565b6000600686604051620028a0919062003c93565b9081526040805160209281900383018120805463026b1d5f60e01b835292519094506001600160a01b0390921692839263026b1d5f926004808201939291829003018186803b158015620028f357600080fd5b505afa15801562002908573d6000803e3d6000fd5b505050506040513d601f19601f820116820180604052506200292e91908101906200367a565b6001600160a01b03166108fc879081150290604051600060405180830381858888f1935050505015801562002967573d6000803e3d6000fd5b5060018201546040805163026b1d5f60e01b815290516001600160a01b039283169283926323b872dd92339287169163026b1d5f916004808301926020929190829003018186803b158015620029bc57600080fd5b505afa158015620029d1573d6000803e3d6000fd5b505050506040513d601f19601f82011682018060405250620029f791908101906200367a565b8861016001516040518463ffffffff1660e01b815260040162002a1d9392919062003ca8565b602060405180830381600087803b15801562002a3857600080fd5b505af115801562002a4d573d6000803e3d6000fd5b505050506040513d601f19601f8201168201806040525062002a7391908101906200369b565b50600160408086019190915251849060059062002a92908b9062003c93565b908152604080519182900360209081018320845181549286015195909301511515620100000262ff0000199515156101000261ff001994151560ff1990941693909317939093169190911793909316179091556002840180546001600160a01b031916331790557f44ec18e6fb6c9893aa22a7236add99d912e21075f568b1f65c6b3d7a65e285d89062002597908a9062003e0f565b805160208183018101805160058252928201919093012091525460ff808216916101008104821691620100009091041683565b805162002b7c5760405162461bcd60e51b815260040162000b649062004007565b62002b8662003269565b60068260405162002b98919062003c93565b908152604080516020928190038301812060c08201835280546001600160a01b0390811680845260018301548216958401959095526002820154168284015260038101546060830152600480820154608084015260059091015460a08301528251637d8f353160e11b81529251919450839263fb1e6a629281830192600092829003018186803b15801562002c2c57600080fd5b505afa15801562002c41573d6000803e3d6000fd5b505050506040513d6000823e601f3d908101601f1916820160405262002c6b91908101906200373b565b5162002c8b5760405162461bcd60e51b815260040162000b649062003f89565b60408201516001600160a01b031662002cb85760405162461bcd60e51b815260040162000b649062003ff5565b60005b60048460405162002ccd919062003c93565b9081526040519081900360200190205481101562002da957600060048560405162002cf9919062003c93565b9081526020016040518091039020828154811062002d1357fe5b6000918252602090912060049182020180546001820154604051634f95a04b60e01b81529294506001600160a01b0380881694634f95a04b9462002d5d9490921692910162003cd6565b600060405180830381600087803b15801562002d7857600080fd5b505af115801562002d8d573d6000803e3d6000fd5b50505050600301805460ff191660019081179091550162002cbb565b5062002db4620031f6565b60038460405162002dc6919062003c93565b9081526040805160209281900383018120805460026001821615610100026000190190911604601f810185900490940282016101a0908101909352610180820184815291939092849291849184018282801562002e675780601f1062002e3b5761010080835404028352916020019162002e67565b820191906000526020600020905b81548152906001019060200180831162002e4957829003601f168201915b50505091835250506001828101546001600160a01b0390811660208085019190915260028086015490921660408086019190915260038601805482516101009682161596909602600019011693909304601f81018390048302850183019091528084526060909401939083018282801562002f265780601f1062002efa5761010080835404028352916020019162002f26565b820191906000526020600020905b81548152906001019060200180831162002f0857829003601f168201915b50505050508152602001600482015481526020016005820154815260200160068201548152602001600782015481526020016008820154815260200160098201548152602001600a8201548152602001600b820154815250509050600083602001519050826001600160a01b031663e1f21c6782308561016001516040518463ffffffff1660e01b815260040162002fc19392919062003dcb565b600060405180830381600087803b15801562002fdc57600080fd5b505af115801562002ff1573d6000803e3d6000fd5b50505050806001600160a01b03166323b872dd846001600160a01b031663026b1d5f6040518163ffffffff1660e01b815260040160206040518083038186803b1580156200303e57600080fd5b505afa15801562003053573d6000803e3d6000fd5b505050506040513d601f19601f820116820180604052506200307991908101906200367a565b86604001518561016001516040518463ffffffff1660e01b8152600401620030a49392919062003ca8565b602060405180830381600087803b158015620030bf57600080fd5b505af1158015620030d4573d6000803e3d6000fd5b505050506040513d601f19601f82011682018060405250620030fa91908101906200369b565b505050505050565b8082038281111562000ed45760405162461bcd60e51b815260040162000b649062003f41565b60008082116200314c5760405162461bcd60e51b815260040162000b649062003fad565b8183816200315657fe5b049392505050565b8082018281101562000ed45760405162461bcd60e51b815260040162000b649062003f77565b6000811580620031a1575050808202828282816200319e57fe5b04145b62000ed45760405162461bcd60e51b815260040162000b649062003f65565b600081620031cd620011b3565b0192915050565b600060025460001415620031ef5767016345785d8a00006002555b5060025490565b6040518061018001604052806060815260200160006001600160a01b0316815260200160006001600160a01b031681526020016060815260200160008152602001600081526020016000815260200160008152602001600081526020016000815260200160008152602001600081525090565b6040518060c0016040528060006001600160a01b0316815260200160006001600160a01b0316815260200160006001600160a01b031681526020016000815260200160008152602001600081525090565b604051806080016040528060006001600160a01b0316815260200160008152602001600081526020016000151581525090565b604080516060810182526000808252602082018190529181019190915290565b828054600181600116156101000203166002900490600052602060002090601f016020900481019282601f106200335057805160ff191683800117855562003380565b8280016001018555821562003380579182015b828111156200338057825182559160200191906001019062003363565b506200338e929150620033a0565b5090565b610fe380620041b483390190565b620011b591905b808211156200338e5760008155600101620033a7565b803562000ed48162004183565b805162000ed48162004183565b805162000ed4816200419d565b60008083601f840112620033f757600080fd5b50813567ffffffffffffffff8111156200341057600080fd5b6020830191508360018202830111156200046257600080fd5b600082601f8301126200343b57600080fd5b8135620034526200344c82620040bf565b62004097565b915080825260208301602083018583830111156200346f57600080fd5b6200347c8382846200413a565b50505092915050565b600082601f8301126200349757600080fd5b8151620034a86200344c82620040bf565b91508082526020830160208301858383011115620034c557600080fd5b6200347c83828462004146565b60006101808284031215620034e657600080fd5b620034f361018062004097565b9050813567ffffffffffffffff8111156200350d57600080fd5b6200351b8482850162003429565b82525060206200352e84848301620033bd565b60208301525060406200354484828501620033bd565b604083015250606082013567ffffffffffffffff8111156200356557600080fd5b620035738482850162003429565b6060830152506080620035898482850162003637565b60808301525060a06200359f8482850162003637565b60a08301525060c0620035b58482850162003637565b60c08301525060e0620035cb8482850162003637565b60e083015250610100620035e28482850162003637565b61010083015250610120620035fa8482850162003637565b61012083015250610140620036128482850162003637565b610140830152506101606200362a8482850162003637565b6101608301525092915050565b803562000ed481620041a8565b805162000ed481620041a8565b6000602082840312156200366457600080fd5b6000620036728484620033bd565b949350505050565b6000602082840312156200368d57600080fd5b6000620036728484620033ca565b600060208284031215620036ae57600080fd5b6000620036728484620033d7565b60008060208385031215620036d057600080fd5b823567ffffffffffffffff811115620036e857600080fd5b620036f685828601620033e4565b92509250509250929050565b6000602082840312156200371557600080fd5b813567ffffffffffffffff8111156200372d57600080fd5b620036728482850162003429565b6000602082840312156200374e57600080fd5b815167ffffffffffffffff8111156200376657600080fd5b620036728482850162003485565b600080604083850312156200378857600080fd5b823567ffffffffffffffff811115620037a057600080fd5b620037ae8582860162003429565b9250506020620037c18582860162003637565b9150509250929050565b600060208284031215620037de57600080fd5b813567ffffffffffffffff811115620037f657600080fd5b6200367284828501620034d2565b6000602082840312156200381757600080fd5b600062003672848462003637565b6000602082840312156200383857600080fd5b600062003672848462003644565b6000806000606084860312156200385c57600080fd5b60006200386a868662003644565b93505060206200387d8682870162003644565b9250506040620038908682870162003644565b9150509250925092565b620038a58162004118565b82525050565b620038a581620040fa565b620038a58162004107565b620038a58162004120565b620038a5816200412d565b6000620038e58385620040ec565b9350620038f48385846200413a565b620038ff8362004179565b9093019392505050565b6000620039178385620040f5565b9350620039268385846200413a565b50500190565b60006200393982620040e8565b620039458185620040ec565b93506200395781856020860162004146565b620038ff8162004179565b60006200396f82620040e8565b6200397b8185620040f5565b93506200398d81856020860162004146565b9290920192915050565b6000620039a6601583620040ec565b7464732d6d6174682d7375622d756e646572666c6f7760581b815260200192915050565b6000620039d9603783620040ec565b7f6e6f77206d7573742067726561746572207468616e2074686520646973636f2081527f66756e642072616973696e672073746172742074696d65000000000000000000602082015260400192915050565b600062003a3a601483620040ec565b7364732d6d6174682d6d756c2d6f766572666c6f7760601b815260200192915050565b600062003a6c601483620040ec565b7364732d6d6174682d6164642d6f766572666c6f7760601b815260200192915050565b600062003a9e600c83620040ec565b6b191a5cd8dbd259081b1bdcdd60a21b815260200192915050565b600062003ac8601483620040ec565b7343616c6c6572206973206e6f74206f776e65722160601b815260200192915050565b600062003afa601a83620040ec565b7f536166654d6174683a206469766973696f6e206279207a65726f000000000000815260200192915050565b600062003b35602383620040ec565b7f74686520646973636f206d75737420686173206e6f74206265656e20737461728152621d195960ea1b602082015260400192915050565b600062003b7c601483620040ec565b7334b73b32b9ba1030b6ba1036bab9ba101f10181760611b815260200192915050565b600062003bae603283620040ec565b7f6e6f77206d757374206c657373207468616e2074686520646973636f2066756e815271642072616973696e6720656e642074696d6560701b602082015260400192915050565b600062003c04601383620040ec565b7219195c1bdcda5d1058d8dbdd5b9d081b1bdcdd606a1b815260200192915050565b600062003c35600883620040ec565b67195b5c1d1e481a5960c21b815260200192915050565b600062003c5b600f83620040ec565b6e666565206e6f7420656e6f7567682160881b815260200192915050565b620038a581620011b5565b60006200367282848662003909565b600062003ca1828462003962565b9392505050565b6060810162003cb882866200389a565b62003cc760208301856200389a565b62003672604083018462003c79565b6040810162003ce68285620038ab565b62003ca1602083018462003c79565b6080810162003d058287620038ab565b62003d14602083018662003c79565b62003d23604083018562003c79565b620020aa6060830184620038b6565b6060810162003d428286620038b6565b62003d516020830185620038b6565b620036726040830184620038b6565b60c0810162003d708289620038c1565b62003d7f6020830188620038c1565b62003d8e6040830187620038ab565b62003d9d606083018662003c79565b62003dac608083018562003c79565b62000b2c60a083018462003c79565b6020810162000ed48284620038c1565b6060810162003ddb8286620038c1565b62003cc76020830185620038ab565b6040808252810162003dfe818587620038d7565b9050620036726020830184620038b6565b6020808252810162003ca181846200392c565b6060808252810162003e3581866200392c565b905062003cc760208301856200389a565b610180808252810162003e5a818f6200392c565b905062003e6b602083018e620038ab565b62003e7a604083018d620038ab565b818103606083015262003e8e818c6200392c565b905062003e9f608083018b62003c79565b62003eae60a083018a62003c79565b62003ebd60c083018962003c79565b62003ecc60e083018862003c79565b62003edc61010083018762003c79565b62003eec61012083018662003c79565b62003efc61014083018562003c79565b62003f0c61016083018462003c79565b9d9c50505050505050505050505050565b6040808252810162003f3081856200392c565b905062003ca16020830184620038c1565b6020808252810162000ed48162003997565b6020808252810162000ed481620039ca565b6020808252810162000ed48162003a2b565b6020808252810162000ed48162003a5d565b6020808252810162000ed48162003a8f565b6020808252810162000ed48162003ab9565b6020808252810162000ed48162003aeb565b6020808252810162000ed48162003b26565b6020808252810162000ed48162003b6d565b6020808252810162000ed48162003b9f565b6020808252810162000ed48162003bf5565b6020808252810162000ed48162003c26565b6020808252810162000ed48162003c4c565b6020810162000ed4828462003c79565b6040810162003ce6828562003c79565b60c081016200405b828962003c79565b6200406a602083018862003c79565b620040796040830187620038cc565b620040886060830186620038cc565b62003dac60808301856200389a565b60405181810167ffffffffffffffff81118282101715620040b757600080fd5b604052919050565b600067ffffffffffffffff821115620040d757600080fd5b506020601f91909101601f19160190565b5190565b90815260200190565b919050565b600062000ed4826200410c565b151590565b6001600160a01b031690565b600062000ed4825b600062000ed482620040fa565b600062000ed482620011b5565b82818337506000910152565b60005b838110156200416357818101518382015260200162004149565b8381111562004173576000848401525b50505050565b601f01601f191690565b6200418e81620040fa565b81146200419a57600080fd5b50565b6200418e8162004107565b6200418e81620011b556fe60806040523480156200001157600080fd5b5060405162000fe338038062000fe383398101604081905262000034916200016b565b805181906200004b9060009060208401906200006a565b50508051620000629060019060208401906200006a565b50506200022d565b828054600181600116156101000203166002900490600052602060002090601f016020900481019282601f10620000ad57805160ff1916838001178555620000dd565b82800160010185558215620000dd579182015b82811115620000dd578251825591602001919060010190620000c0565b50620000eb929150620000ef565b5090565b6200010c91905b80821115620000eb5760008155600101620000f6565b90565b600082601f8301126200012157600080fd5b8151620001386200013282620001d2565b620001ab565b915080825260208301602083018583830111156200015557600080fd5b62000162838284620001fa565b50505092915050565b6000602082840312156200017e57600080fd5b81516001600160401b038111156200019557600080fd5b620001a3848285016200010f565b949350505050565b6040518181016001600160401b0381118282101715620001ca57600080fd5b604052919050565b60006001600160401b03821115620001e957600080fd5b506020601f91909101601f19160190565b60005b8381101562000217578181015183820152602001620001fd565b8381111562000227576000848401525b50505050565b610da6806200023d6000396000f3fe6080604052600436106100dd5760003560e01c8063acb3c0731161007f578063beabacc811610059578063beabacc8146101f6578063e1f21c6714610216578063eedc966a14610236578063fb1e6a6214610256576100dd565b8063acb3c07314610192578063af640d0f146101b2578063be574484146101d4576100dd565b806338cc4831116100bb57806338cc4831146100df5780634e6630b01461014a5780634f95a04b1461016c57806366dd0f241461017f576100dd565b8063026b1d5f146100df578063144fa6d71461010a57806323b872dd1461012a575b005b3480156100eb57600080fd5b506100f461026b565b6040516101019190610bac565b60405180910390f35b34801561011657600080fd5b506100dd6101253660046109d4565b61026f565b34801561013657600080fd5b506100dd6101453660046109f2565b610291565b34801561015657600080fd5b5061015f610321565b6040516101019190610c8c565b6100dd61017a36600461097c565b610325565b6100dd61018d366004610a3f565b61035b565b34801561019e57600080fd5b506100dd6101ad3660046109d4565b610432565b3480156101be57600080fd5b506101c7610454565b6040516101019190610c7b565b6101e76101e2366004610abe565b6104e1565b60405161010193929190610c9a565b34801561020257600080fd5b506100dd6102113660046109f2565b61079e565b34801561022257600080fd5b506100dd6102313660046109f2565b6107cc565b34801561024257600080fd5b5061015f6102513660046109d4565b6107fa565b34801561026257600080fd5b506101c761087f565b3090565b600380546001600160a01b0319166001600160a01b0392909216919091179055565b6040516323b872dd60e01b81526001600160a01b038416906323b872dd906102c190309086908690600401610bba565b602060405180830381600087803b1580156102db57600080fd5b505af11580156102ef573d6000803e3d6000fd5b505050506040513d601f19601f8201168201806040525061031391908101906109b6565b61031c57600080fd5b505050565b4790565b6040516001600160a01b0383169082156108fc029083906000818181858888f1935050505015801561031c573d6000803e3d6000fd5b600254604080516315ab88c960e31b815290516000926001600160a01b03169163ad5c4648916004808301926020929190829003018186803b1580156103a057600080fd5b505afa1580156103b4573d6000803e3d6000fd5b505050506040513d601f19601f820116820180604052506103d89190810190610956565b9050806001600160a01b031663d0e30db0836040518263ffffffff1660e01b81526004016000604051808303818588803b15801561041557600080fd5b505af1158015610429573d6000803e3d6000fd5b50505050505050565b600280546001600160a01b0319166001600160a01b0392909216919091179055565b60018054604080516020600284861615610100026000190190941693909304601f810184900484028201840190925281815292918301828280156104d95780601f106104ae576101008083540402835291602001916104d9565b820191906000526020600020905b8154815290600101906020018083116104bc57829003601f168201915b505050505081565b60035460025460405163095ea7b360e01b8152600092839283926001600160a01b039283169263095ea7b39261051e929116908d90600401610c59565b602060405180830381600087803b15801561053857600080fd5b505af115801561054c573d6000803e3d6000fd5b505050506040513d601f19601f8201168201806040525061057091908101906109b6565b61057957600080fd5b600254604080516315ab88c960e31b815290516000926001600160a01b03169163ad5c4648916004808301926020929190829003018186803b1580156105be57600080fd5b505afa1580156105d2573d6000803e3d6000fd5b505050506040513d601f19601f820116820180604052506105f69190810190610956565b60025460405163095ea7b360e01b81529192506001600160a01b038084169263095ea7b39261062b9216908d90600401610c59565b602060405180830381600087803b15801561064557600080fd5b505af1158015610659573d6000803e3d6000fd5b505050506040513d601f19601f8201168201806040525061067d91908101906109b6565b61068657600080fd5b600254600354604080516315ab88c960e31b815290516001600160a01b039384169363e8e33700931691849163ad5c464891600480820192602092909190829003018186803b1580156106d857600080fd5b505afa1580156106ec573d6000803e3d6000fd5b505050506040513d601f19601f820116820180604052506107109190810190610956565b8d8d8d8d8d8d6040518963ffffffff1660e01b8152600401610739989796959493929190610be2565b606060405180830381600087803b15801561075357600080fd5b505af1158015610767573d6000803e3d6000fd5b505050506040513d601f19601f8201168201806040525061078b9190810190610a7b565b9350935093505096509650969350505050565b60405163a9059cbb60e01b81526001600160a01b0384169063a9059cbb906102c19085908590600401610c59565b60405163095ea7b360e01b81526001600160a01b0384169063095ea7b3906102c19085908590600401610c59565b6040516370a0823160e01b81526000906001600160a01b038316906370a0823190610829903090600401610b9e565b60206040518083038186803b15801561084157600080fd5b505afa158015610855573d6000803e3d6000fd5b505050506040513d601f19601f820116820180604052506108799190810190610a5d565b92915050565b60018054604080516020601f6002600019610100878916150201909516949094049384018190048102820181019092528281526060939092909183018282801561090a5780601f106108df5761010080835404028352916020019161090a565b820191906000526020600020905b8154815290600101906020018083116108ed57829003601f168201915b5050505050905090565b803561087981610d31565b805161087981610d31565b805161087981610d48565b803561087981610d51565b803561087981610d5a565b805161087981610d5a565b60006020828403121561096857600080fd5b6000610974848461091f565b949350505050565b6000806040838503121561098f57600080fd5b600061099b8585610914565b92505060206109ac85828601610940565b9150509250929050565b6000602082840312156109c857600080fd5b6000610974848461092a565b6000602082840312156109e657600080fd5b60006109748484610935565b600080600060608486031215610a0757600080fd5b6000610a138686610935565b9350506020610a2486828701610914565b9250506040610a3586828701610940565b9150509250925092565b600060208284031215610a5157600080fd5b60006109748484610940565b600060208284031215610a6f57600080fd5b6000610974848461094b565b600080600060608486031215610a9057600080fd5b6000610a9c868661094b565b9350506020610aad8682870161094b565b9250506040610a358682870161094b565b60008060008060008060c08789031215610ad757600080fd5b6000610ae38989610940565b9650506020610af489828a01610940565b9550506040610b0589828a01610940565b9450506060610b1689828a01610940565b9350506080610b2789828a01610914565b92505060a0610b3889828a01610940565b9150509295509295509295565b610b4e81610cec565b82525050565b610b4e81610cc2565b6000610b6882610cb5565b610b728185610cb9565b9350610b82818560208601610cf7565b610b8b81610d27565b9093019392505050565b610b4e81610ce9565b602081016108798284610b45565b602081016108798284610b54565b60608101610bc88286610b45565b610bd56020830185610b54565b6109746040830184610b95565b6101008101610bf1828b610b54565b610bfe602083018a610b54565b610c0b6040830189610b95565b610c186060830188610b95565b610c256080830187610b95565b610c3260a0830186610b95565b610c3f60c0830185610b54565b610c4c60e0830184610b95565b9998505050505050505050565b60408101610c678285610b54565b610c746020830184610b95565b9392505050565b60208082528101610c748184610b5d565b602081016108798284610b95565b60608101610ca88286610b95565b610bd56020830185610b95565b5190565b90815260200190565b600061087982610cdd565b151590565b600061087982610cc2565b6001600160a01b031690565b90565b600061087982610cd2565b60005b83811015610d12578181015183820152602001610cfa565b83811115610d21576000848401525b50505050565b601f01601f191690565b610d3a81610cc2565b8114610d4557600080fd5b50565b610d3a81610ccd565b610d3a81610cd2565b610d3a81610ce956fea365627a7a72315820f04765aed3a15ea24c758b12df617040093b983e5708bb08645577271466af5e6c6578706572696d656e74616cf564736f6c63430005100040a365627a7a72315820149e3ead967643f232a8322d0ddfa7b9815232163b593803f7c022c640594f646c6578706572696d656e74616cf564736f6c63430005100040",
			"opcodes": "PUSH1 0x80 PUSH1 0x40 MSTORE CALLVALUE DUP1 ISZERO PUSH2 0x10 JUMPI PUSH1 0x0 DUP1 REVERT JUMPDEST POP PUSH1 0x0 DUP1 SLOAD PUSH1 0x1 PUSH1 0x1 PUSH1 0xA0 SHL SUB NOT AND CALLER OR SWAP1 SSTORE PUSH2 0x51D9 DUP1 PUSH2 0x32 PUSH1 0x0 CODECOPY PUSH1 0x0 RETURN INVALID PUSH1 0x80 PUSH1 0x40 MSTORE PUSH1 0x4 CALLDATASIZE LT PUSH3 0x139 JUMPI PUSH1 0x0 CALLDATALOAD PUSH1 0xE0 SHR DUP1 PUSH4 0x56BF9942 GT PUSH3 0xAF JUMPI DUP1 PUSH4 0xACB3C073 GT PUSH3 0x6D JUMPI DUP1 PUSH4 0xACB3C073 EQ PUSH3 0x38F JUMPI DUP1 PUSH4 0xB16E68EB EQ PUSH3 0x3B4 JUMPI DUP1 PUSH4 0xC79D1921 EQ PUSH3 0x3CB JUMPI DUP1 PUSH4 0xE8CA64F4 EQ PUSH3 0x3E2 JUMPI DUP1 PUSH4 0xFE5F2E88 EQ PUSH3 0x418 JUMPI PUSH3 0x139 JUMP JUMPDEST DUP1 PUSH4 0x56BF9942 EQ PUSH3 0x2B3 JUMPI DUP1 PUSH4 0x5E56FB01 EQ PUSH3 0x2D8 JUMPI DUP1 PUSH4 0x66F61FB9 EQ PUSH3 0x311 JUMPI DUP1 PUSH4 0x7A328A7E EQ PUSH3 0x345 JUMPI DUP1 PUSH4 0x95A16979 EQ PUSH3 0x36A JUMPI PUSH3 0x139 JUMP JUMPDEST DUP1 PUSH4 0x34D30E40 GT PUSH3 0xFD JUMPI DUP1 PUSH4 0x34D30E40 EQ PUSH3 0x211 JUMPI DUP1 PUSH4 0x34E8E57B EQ PUSH3 0x236 JUMPI DUP1 PUSH4 0x430FE9C1 EQ PUSH3 0x26D JUMPI DUP1 PUSH4 0x48569EE9 EQ PUSH3 0x285 JUMPI DUP1 PUSH4 0x512518B5 EQ PUSH3 0x29C JUMPI PUSH3 0x139 JUMP JUMPDEST DUP1 PUSH3 0xD05029 EQ PUSH3 0x13E JUMPI DUP1 PUSH4 0x1218BFFF EQ PUSH3 0x16E JUMPI DUP1 PUSH4 0x15282C9E EQ PUSH3 0x194 JUMPI DUP1 PUSH4 0x20192402 EQ PUSH3 0x1BB JUMPI DUP1 PUSH4 0x2DF79172 EQ PUSH3 0x1D2 JUMPI JUMPDEST PUSH1 0x0 DUP1 REVERT JUMPDEST PUSH3 0x155 PUSH3 0x14F CALLDATASIZE PUSH1 0x4 PUSH3 0x3774 JUMP JUMPDEST PUSH3 0x42F JUMP JUMPDEST PUSH1 0x40 MLOAD PUSH3 0x165 SWAP3 SWAP2 SWAP1 PUSH3 0x403B JUMP JUMPDEST PUSH1 0x40 MLOAD DUP1 SWAP2 SUB SWAP1 RETURN JUMPDEST PUSH3 0x185 PUSH3 0x17F CALLDATASIZE PUSH1 0x4 PUSH3 0x3702 JUMP JUMPDEST PUSH3 0x469 JUMP JUMPDEST PUSH1 0x40 MLOAD PUSH3 0x165 SWAP2 SWAP1 PUSH3 0x402B JUMP JUMPDEST CALLVALUE DUP1 ISZERO PUSH3 0x1A1 JUMPI PUSH1 0x0 DUP1 REVERT JUMPDEST POP PUSH3 0x1B9 PUSH3 0x1B3 CALLDATASIZE PUSH1 0x4 PUSH3 0x3804 JUMP JUMPDEST PUSH3 0xB37 JUMP JUMPDEST STOP JUMPDEST PUSH3 0x185 PUSH3 0x1CC CALLDATASIZE PUSH1 0x4 PUSH3 0x3774 JUMP JUMPDEST PUSH3 0xB72 JUMP JUMPDEST CALLVALUE DUP1 ISZERO PUSH3 0x1DF JUMPI PUSH1 0x0 DUP1 REVERT JUMPDEST POP PUSH3 0x1F7 PUSH3 0x1F1 CALLDATASIZE PUSH1 0x4 PUSH3 0x3702 JUMP JUMPDEST PUSH3 0xEDA JUMP JUMPDEST PUSH1 0x40 MLOAD PUSH3 0x165 SWAP13 SWAP12 SWAP11 SWAP10 SWAP9 SWAP8 SWAP7 SWAP6 SWAP5 SWAP4 SWAP3 SWAP2 SWAP1 PUSH3 0x3E46 JUMP JUMPDEST CALLVALUE DUP1 ISZERO PUSH3 0x21E JUMPI PUSH1 0x0 DUP1 REVERT JUMPDEST POP PUSH3 0x155 PUSH3 0x230 CALLDATASIZE PUSH1 0x4 PUSH3 0x3702 JUMP JUMPDEST PUSH3 0x106E JUMP JUMPDEST CALLVALUE DUP1 ISZERO PUSH3 0x243 JUMPI PUSH1 0x0 DUP1 REVERT JUMPDEST POP PUSH3 0x25B PUSH3 0x255 CALLDATASIZE PUSH1 0x4 PUSH3 0x3774 JUMP JUMPDEST PUSH3 0x1153 JUMP JUMPDEST PUSH1 0x40 MLOAD PUSH3 0x165 SWAP5 SWAP4 SWAP3 SWAP2 SWAP1 PUSH3 0x3CF5 JUMP JUMPDEST CALLVALUE DUP1 ISZERO PUSH3 0x27A JUMPI PUSH1 0x0 DUP1 REVERT JUMPDEST POP PUSH3 0x185 PUSH3 0x11B3 JUMP JUMPDEST PUSH3 0x1B9 PUSH3 0x296 CALLDATASIZE PUSH1 0x4 PUSH3 0x37CB JUMP JUMPDEST PUSH3 0x11B8 JUMP JUMPDEST PUSH3 0x1B9 PUSH3 0x2AD CALLDATASIZE PUSH1 0x4 PUSH3 0x3702 JUMP JUMPDEST PUSH3 0x157B JUMP JUMPDEST CALLVALUE DUP1 ISZERO PUSH3 0x2C0 JUMPI PUSH1 0x0 DUP1 REVERT JUMPDEST POP PUSH3 0x185 PUSH3 0x2D2 CALLDATASIZE PUSH1 0x4 PUSH3 0x36BC JUMP JUMPDEST PUSH3 0x19CD JUMP JUMPDEST CALLVALUE DUP1 ISZERO PUSH3 0x2E5 JUMPI PUSH1 0x0 DUP1 REVERT JUMPDEST POP PUSH3 0x2FD PUSH3 0x2F7 CALLDATASIZE PUSH1 0x4 PUSH3 0x3702 JUMP JUMPDEST PUSH3 0x1AD3 JUMP JUMPDEST PUSH1 0x40 MLOAD PUSH3 0x165 SWAP7 SWAP6 SWAP5 SWAP4 SWAP3 SWAP2 SWAP1 PUSH3 0x3D60 JUMP JUMPDEST CALLVALUE DUP1 ISZERO PUSH3 0x31E JUMPI PUSH1 0x0 DUP1 REVERT JUMPDEST POP PUSH3 0x336 PUSH3 0x330 CALLDATASIZE PUSH1 0x4 PUSH3 0x36BC JUMP JUMPDEST PUSH3 0x1B21 JUMP JUMPDEST PUSH1 0x40 MLOAD PUSH3 0x165 SWAP2 SWAP1 PUSH3 0x3DBB JUMP JUMPDEST CALLVALUE DUP1 ISZERO PUSH3 0x352 JUMPI PUSH1 0x0 DUP1 REVERT JUMPDEST POP PUSH3 0x1B9 PUSH3 0x364 CALLDATASIZE PUSH1 0x4 PUSH3 0x36BC JUMP JUMPDEST PUSH3 0x1BA9 JUMP JUMPDEST CALLVALUE DUP1 ISZERO PUSH3 0x377 JUMPI PUSH1 0x0 DUP1 REVERT JUMPDEST POP PUSH3 0x185 PUSH3 0x389 CALLDATASIZE PUSH1 0x4 PUSH3 0x36BC JUMP JUMPDEST PUSH3 0x1F90 JUMP JUMPDEST CALLVALUE DUP1 ISZERO PUSH3 0x39C JUMPI PUSH1 0x0 DUP1 REVERT JUMPDEST POP PUSH3 0x1B9 PUSH3 0x3AE CALLDATASIZE PUSH1 0x4 PUSH3 0x3651 JUMP JUMPDEST PUSH3 0x20B3 JUMP JUMPDEST PUSH3 0x1B9 PUSH3 0x3C5 CALLDATASIZE PUSH1 0x4 PUSH3 0x3774 JUMP JUMPDEST PUSH3 0x2102 JUMP JUMPDEST PUSH3 0x1B9 PUSH3 0x3DC CALLDATASIZE PUSH1 0x4 PUSH3 0x3702 JUMP JUMPDEST PUSH3 0x25A9 JUMP JUMPDEST CALLVALUE DUP1 ISZERO PUSH3 0x3EF JUMPI PUSH1 0x0 DUP1 REVERT JUMPDEST POP PUSH3 0x407 PUSH3 0x401 CALLDATASIZE PUSH1 0x4 PUSH3 0x3702 JUMP JUMPDEST PUSH3 0x2B28 JUMP JUMPDEST PUSH1 0x40 MLOAD PUSH3 0x165 SWAP4 SWAP3 SWAP2 SWAP1 PUSH3 0x3D32 JUMP JUMPDEST PUSH3 0x1B9 PUSH3 0x429 CALLDATASIZE PUSH1 0x4 PUSH3 0x3702 JUMP JUMPDEST PUSH3 0x2B5B JUMP JUMPDEST PUSH1 0x0 DUP1 PUSH3 0x43D DUP5 PUSH3 0x157B JUMP JUMPDEST PUSH1 0x0 PUSH3 0x44B DUP6 DUP6 PUSH3 0xB72 JUMP JUMPDEST SWAP1 POP PUSH1 0x0 PUSH3 0x45A DUP7 PUSH3 0x469 JUMP JUMPDEST SWAP2 SWAP4 POP SWAP1 SWAP2 POP POP JUMPDEST SWAP3 POP SWAP3 SWAP1 POP JUMP JUMPDEST PUSH1 0x0 PUSH3 0x475 PUSH3 0x31F6 JUMP JUMPDEST PUSH1 0x3 DUP4 PUSH1 0x40 MLOAD PUSH3 0x487 SWAP2 SWAP1 PUSH3 0x3C93 JUMP JUMPDEST SWAP1 DUP2 MSTORE PUSH1 0x40 DUP1 MLOAD PUSH1 0x20 SWAP3 DUP2 SWAP1 SUB DUP4 ADD DUP2 KECCAK256 DUP1 SLOAD PUSH1 0x2 PUSH1 0x1 DUP3 AND ISZERO PUSH2 0x100 MUL PUSH1 0x0 NOT ADD SWAP1 SWAP2 AND DIV PUSH1 0x1F DUP2 ADD DUP6 SWAP1 DIV SWAP1 SWAP5 MUL DUP3 ADD PUSH2 0x1A0 SWAP1 DUP2 ADD SWAP1 SWAP4 MSTORE PUSH2 0x180 DUP3 ADD DUP5 DUP2 MSTORE SWAP2 SWAP4 SWAP1 SWAP3 DUP5 SWAP3 SWAP2 DUP5 SWAP2 DUP5 ADD DUP3 DUP3 DUP1 ISZERO PUSH3 0x528 JUMPI DUP1 PUSH1 0x1F LT PUSH3 0x4FC JUMPI PUSH2 0x100 DUP1 DUP4 SLOAD DIV MUL DUP4 MSTORE SWAP2 PUSH1 0x20 ADD SWAP2 PUSH3 0x528 JUMP JUMPDEST DUP3 ADD SWAP2 SWAP1 PUSH1 0x0 MSTORE PUSH1 0x20 PUSH1 0x0 KECCAK256 SWAP1 JUMPDEST DUP2 SLOAD DUP2 MSTORE SWAP1 PUSH1 0x1 ADD SWAP1 PUSH1 0x20 ADD DUP1 DUP4 GT PUSH3 0x50A JUMPI DUP3 SWAP1 SUB PUSH1 0x1F AND DUP3 ADD SWAP2 JUMPDEST POP POP POP SWAP2 DUP4 MSTORE POP POP PUSH1 0x1 DUP3 DUP2 ADD SLOAD PUSH1 0x1 PUSH1 0x1 PUSH1 0xA0 SHL SUB SWAP1 DUP2 AND PUSH1 0x20 DUP1 DUP6 ADD SWAP2 SWAP1 SWAP2 MSTORE PUSH1 0x2 DUP1 DUP7 ADD SLOAD SWAP1 SWAP3 AND PUSH1 0x40 DUP1 DUP7 ADD SWAP2 SWAP1 SWAP2 MSTORE PUSH1 0x3 DUP7 ADD DUP1 SLOAD DUP3 MLOAD PUSH2 0x100 SWAP7 DUP3 AND ISZERO SWAP7 SWAP1 SWAP7 MUL PUSH1 0x0 NOT ADD AND SWAP4 SWAP1 SWAP4 DIV PUSH1 0x1F DUP2 ADD DUP4 SWAP1 DIV DUP4 MUL DUP6 ADD DUP4 ADD SWAP1 SWAP2 MSTORE DUP1 DUP5 MSTORE PUSH1 0x60 SWAP1 SWAP5 ADD SWAP4 SWAP1 DUP4 ADD DUP3 DUP3 DUP1 ISZERO PUSH3 0x5E7 JUMPI DUP1 PUSH1 0x1F LT PUSH3 0x5BB JUMPI PUSH2 0x100 DUP1 DUP4 SLOAD DIV MUL DUP4 MSTORE SWAP2 PUSH1 0x20 ADD SWAP2 PUSH3 0x5E7 JUMP JUMPDEST DUP3 ADD SWAP2 SWAP1 PUSH1 0x0 MSTORE PUSH1 0x20 PUSH1 0x0 KECCAK256 SWAP1 JUMPDEST DUP2 SLOAD DUP2 MSTORE SWAP1 PUSH1 0x1 ADD SWAP1 PUSH1 0x20 ADD DUP1 DUP4 GT PUSH3 0x5C9 JUMPI DUP3 SWAP1 SUB PUSH1 0x1F AND DUP3 ADD SWAP2 JUMPDEST POP POP POP POP POP DUP2 MSTORE PUSH1 0x20 ADD PUSH1 0x4 DUP3 ADD SLOAD DUP2 MSTORE PUSH1 0x20 ADD PUSH1 0x5 DUP3 ADD SLOAD DUP2 MSTORE PUSH1 0x20 ADD PUSH1 0x6 DUP3 ADD SLOAD DUP2 MSTORE PUSH1 0x20 ADD PUSH1 0x7 DUP3 ADD SLOAD DUP2 MSTORE PUSH1 0x20 ADD PUSH1 0x8 DUP3 ADD SLOAD DUP2 MSTORE PUSH1 0x20 ADD PUSH1 0x9 DUP3 ADD SLOAD DUP2 MSTORE PUSH1 0x20 ADD PUSH1 0xA DUP3 ADD SLOAD DUP2 MSTORE PUSH1 0x20 ADD PUSH1 0xB DUP3 ADD SLOAD DUP2 MSTORE POP POP SWAP1 POP PUSH3 0x64C PUSH3 0x3269 JUMP JUMPDEST PUSH1 0x6 DUP5 PUSH1 0x40 MLOAD PUSH3 0x65E SWAP2 SWAP1 PUSH3 0x3C93 JUMP JUMPDEST SWAP1 DUP2 MSTORE PUSH1 0x40 DUP1 MLOAD SWAP2 DUP3 SWAP1 SUB PUSH1 0x20 SWAP1 DUP2 ADD DUP4 KECCAK256 PUSH1 0xC0 DUP5 ADD DUP4 MSTORE DUP1 SLOAD PUSH1 0x1 PUSH1 0x1 PUSH1 0xA0 SHL SUB SWAP1 DUP2 AND DUP6 MSTORE PUSH1 0x1 DUP3 ADD SLOAD DUP2 AND SWAP3 DUP6 ADD SWAP3 SWAP1 SWAP3 MSTORE PUSH1 0x2 DUP2 ADD SLOAD SWAP1 SWAP2 AND DUP4 DUP4 ADD MSTORE PUSH1 0x3 DUP2 ADD SLOAD PUSH1 0x60 DUP1 DUP6 ADD SWAP2 SWAP1 SWAP2 MSTORE PUSH1 0x4 DUP1 DUP4 ADD SLOAD PUSH1 0x80 DUP7 ADD MSTORE PUSH1 0x5 SWAP1 SWAP3 ADD SLOAD PUSH1 0xA0 DUP6 ADD MSTORE SWAP2 MLOAD SWAP3 SWAP4 POP SWAP1 SWAP2 PUSH3 0x6D7 SWAP1 DUP8 SWAP1 PUSH3 0x3C93 JUMP JUMPDEST SWAP1 DUP2 MSTORE PUSH1 0x20 ADD PUSH1 0x40 MLOAD DUP1 SWAP2 SUB SWAP1 KECCAK256 DUP1 SLOAD DUP1 PUSH1 0x20 MUL PUSH1 0x20 ADD PUSH1 0x40 MLOAD SWAP1 DUP2 ADD PUSH1 0x40 MSTORE DUP1 SWAP3 SWAP2 SWAP1 DUP2 DUP2 MSTORE PUSH1 0x20 ADD PUSH1 0x0 SWAP1 JUMPDEST DUP3 DUP3 LT ISZERO PUSH3 0x769 JUMPI PUSH1 0x0 DUP5 DUP2 MSTORE PUSH1 0x20 SWAP1 DUP2 SWAP1 KECCAK256 PUSH1 0x40 DUP1 MLOAD PUSH1 0x80 DUP2 ADD DUP3 MSTORE PUSH1 0x4 DUP7 MUL SWAP1 SWAP3 ADD DUP1 SLOAD PUSH1 0x1 PUSH1 0x1 PUSH1 0xA0 SHL SUB AND DUP4 MSTORE PUSH1 0x1 DUP1 DUP3 ADD SLOAD DUP5 DUP7 ADD MSTORE PUSH1 0x2 DUP3 ADD SLOAD SWAP3 DUP5 ADD SWAP3 SWAP1 SWAP3 MSTORE PUSH1 0x3 ADD SLOAD PUSH1 0xFF AND ISZERO ISZERO PUSH1 0x60 DUP4 ADD MSTORE SWAP1 DUP4 MSTORE SWAP1 SWAP3 ADD SWAP2 ADD PUSH3 0x705 JUMP JUMPDEST POP POP POP POP PUSH1 0x20 DUP4 ADD MLOAD SWAP1 SWAP2 POP PUSH1 0x0 DUP1 JUMPDEST DUP4 MLOAD DUP2 LT ISZERO PUSH3 0x9A6 JUMPI PUSH3 0x78D PUSH3 0x32BA JUMP JUMPDEST DUP5 DUP3 DUP2 MLOAD DUP2 LT PUSH3 0x79A JUMPI INVALID JUMPDEST PUSH1 0x20 MUL PUSH1 0x20 ADD ADD MLOAD SWAP1 POP DUP1 PUSH1 0x60 ADD MLOAD ISZERO PUSH3 0x7B6 JUMPI POP PUSH3 0x99D JUMP JUMPDEST PUSH1 0x40 DUP2 ADD MLOAD PUSH1 0x0 SWAP1 PUSH3 0x7E7 SWAP1 PUSH3 0x15180 SWAP1 PUSH3 0x7DA SWAP1 DUP1 PUSH4 0xFFFFFFFF PUSH3 0x3102 AND JUMP JUMPDEST SWAP1 PUSH4 0xFFFFFFFF PUSH3 0x3128 AND JUMP JUMPDEST SWAP1 POP PUSH1 0x0 PUSH3 0x804 DUP3 DUP11 PUSH1 0xE0 ADD MLOAD PUSH3 0x3102 SWAP1 SWAP2 SWAP1 PUSH4 0xFFFFFFFF AND JUMP JUMPDEST SWAP1 POP PUSH1 0x0 DUP2 GT PUSH3 0x813 JUMPI POP PUSH1 0x0 JUMPDEST DUP8 MLOAD PUSH1 0x40 MLOAD PUSH4 0xE1F21C67 PUSH1 0xE0 SHL DUP2 MSTORE PUSH1 0x1 SWAP2 PUSH1 0x1 PUSH1 0x1 PUSH1 0xA0 SHL SUB AND SWAP1 PUSH4 0xE1F21C67 SWAP1 PUSH3 0x849 SWAP1 DUP11 SWAP1 ADDRESS SWAP1 DUP7 SWAP1 PUSH1 0x4 ADD PUSH3 0x3DCB JUMP JUMPDEST PUSH1 0x0 PUSH1 0x40 MLOAD DUP1 DUP4 SUB DUP2 PUSH1 0x0 DUP8 DUP1 EXTCODESIZE ISZERO DUP1 ISZERO PUSH3 0x864 JUMPI PUSH1 0x0 DUP1 REVERT JUMPDEST POP GAS CALL ISZERO DUP1 ISZERO PUSH3 0x879 JUMPI RETURNDATASIZE PUSH1 0x0 DUP1 RETURNDATACOPY RETURNDATASIZE PUSH1 0x0 REVERT JUMPDEST POP POP POP POP DUP7 PUSH1 0x1 PUSH1 0x1 PUSH1 0xA0 SHL SUB AND PUSH4 0x23B872DD DUP11 PUSH1 0x0 ADD MLOAD PUSH1 0x1 PUSH1 0x1 PUSH1 0xA0 SHL SUB AND PUSH4 0x26B1D5F PUSH1 0x40 MLOAD DUP2 PUSH4 0xFFFFFFFF AND PUSH1 0xE0 SHL DUP2 MSTORE PUSH1 0x4 ADD PUSH1 0x20 PUSH1 0x40 MLOAD DUP1 DUP4 SUB DUP2 DUP7 DUP1 EXTCODESIZE ISZERO DUP1 ISZERO PUSH3 0x8CA JUMPI PUSH1 0x0 DUP1 REVERT JUMPDEST POP GAS STATICCALL ISZERO DUP1 ISZERO PUSH3 0x8DF JUMPI RETURNDATASIZE PUSH1 0x0 DUP1 RETURNDATACOPY RETURNDATASIZE PUSH1 0x0 REVERT JUMPDEST POP POP POP POP PUSH1 0x40 MLOAD RETURNDATASIZE PUSH1 0x1F NOT PUSH1 0x1F DUP3 ADD AND DUP3 ADD DUP1 PUSH1 0x40 MSTORE POP PUSH3 0x905 SWAP2 SWAP1 DUP2 ADD SWAP1 PUSH3 0x367A JUMP JUMPDEST DUP7 MLOAD PUSH1 0x40 MLOAD PUSH1 0x1 PUSH1 0x1 PUSH1 0xE0 SHL SUB NOT PUSH1 0xE0 DUP6 SWAP1 SHL AND DUP2 MSTORE PUSH3 0x92D SWAP3 SWAP2 SWAP1 DUP7 SWAP1 PUSH1 0x4 ADD PUSH3 0x3CA8 JUMP JUMPDEST PUSH1 0x20 PUSH1 0x40 MLOAD DUP1 DUP4 SUB DUP2 PUSH1 0x0 DUP8 DUP1 EXTCODESIZE ISZERO DUP1 ISZERO PUSH3 0x948 JUMPI PUSH1 0x0 DUP1 REVERT JUMPDEST POP GAS CALL ISZERO DUP1 ISZERO PUSH3 0x95D JUMPI RETURNDATASIZE PUSH1 0x0 DUP1 RETURNDATACOPY RETURNDATASIZE PUSH1 0x0 REVERT JUMPDEST POP POP POP POP PUSH1 0x40 MLOAD RETURNDATASIZE PUSH1 0x1F NOT PUSH1 0x1F DUP3 ADD AND DUP3 ADD DUP1 PUSH1 0x40 MSTORE POP PUSH3 0x983 SWAP2 SWAP1 DUP2 ADD SWAP1 PUSH3 0x369B JUMP JUMPDEST POP PUSH3 0x996 DUP7 DUP3 PUSH4 0xFFFFFFFF PUSH3 0x315E AND JUMP JUMPDEST SWAP6 POP POP POP POP POP JUMPDEST PUSH1 0x1 ADD PUSH3 0x779 JUMP JUMPDEST POP PUSH1 0xA0 DUP5 ADD MLOAD PUSH2 0x160 DUP7 ADD MLOAD SUB DUP2 SWAP1 SUB DUP1 ISZERO PUSH3 0xB2C JUMPI DUP5 MLOAD PUSH1 0x40 MLOAD PUSH4 0xE1F21C67 PUSH1 0xE0 SHL DUP2 MSTORE PUSH1 0x1 PUSH1 0x1 PUSH1 0xA0 SHL SUB SWAP1 SWAP2 AND SWAP1 PUSH4 0xE1F21C67 SWAP1 PUSH3 0x9F2 SWAP1 DUP7 SWAP1 ADDRESS SWAP1 DUP7 SWAP1 PUSH1 0x4 ADD PUSH3 0x3DCB JUMP JUMPDEST PUSH1 0x0 PUSH1 0x40 MLOAD DUP1 DUP4 SUB DUP2 PUSH1 0x0 DUP8 DUP1 EXTCODESIZE ISZERO DUP1 ISZERO PUSH3 0xA0D JUMPI PUSH1 0x0 DUP1 REVERT JUMPDEST POP GAS CALL ISZERO DUP1 ISZERO PUSH3 0xA22 JUMPI RETURNDATASIZE PUSH1 0x0 DUP1 RETURNDATACOPY RETURNDATASIZE PUSH1 0x0 REVERT JUMPDEST POP POP POP POP DUP3 PUSH1 0x1 PUSH1 0x1 PUSH1 0xA0 SHL SUB AND PUSH4 0x23B872DD DUP7 PUSH1 0x0 ADD MLOAD PUSH1 0x1 PUSH1 0x1 PUSH1 0xA0 SHL SUB AND PUSH4 0x26B1D5F PUSH1 0x40 MLOAD DUP2 PUSH4 0xFFFFFFFF AND PUSH1 0xE0 SHL DUP2 MSTORE PUSH1 0x4 ADD PUSH1 0x20 PUSH1 0x40 MLOAD DUP1 DUP4 SUB DUP2 DUP7 DUP1 EXTCODESIZE ISZERO DUP1 ISZERO PUSH3 0xA73 JUMPI PUSH1 0x0 DUP1 REVERT JUMPDEST POP GAS STATICCALL ISZERO DUP1 ISZERO PUSH3 0xA88 JUMPI RETURNDATASIZE PUSH1 0x0 DUP1 RETURNDATACOPY RETURNDATASIZE PUSH1 0x0 REVERT JUMPDEST POP POP POP POP PUSH1 0x40 MLOAD RETURNDATASIZE PUSH1 0x1F NOT PUSH1 0x1F DUP3 ADD AND DUP3 ADD DUP1 PUSH1 0x40 MSTORE POP PUSH3 0xAAE SWAP2 SWAP1 DUP2 ADD SWAP1 PUSH3 0x367A JUMP JUMPDEST DUP8 PUSH1 0x40 ADD MLOAD DUP5 PUSH1 0x40 MLOAD DUP5 PUSH4 0xFFFFFFFF AND PUSH1 0xE0 SHL DUP2 MSTORE PUSH1 0x4 ADD PUSH3 0xAD4 SWAP4 SWAP3 SWAP2 SWAP1 PUSH3 0x3CA8 JUMP JUMPDEST PUSH1 0x20 PUSH1 0x40 MLOAD DUP1 DUP4 SUB DUP2 PUSH1 0x0 DUP8 DUP1 EXTCODESIZE ISZERO DUP1 ISZERO PUSH3 0xAEF JUMPI PUSH1 0x0 DUP1 REVERT JUMPDEST POP GAS CALL ISZERO DUP1 ISZERO PUSH3 0xB04 JUMPI RETURNDATASIZE PUSH1 0x0 DUP1 RETURNDATACOPY RETURNDATASIZE PUSH1 0x0 REVERT JUMPDEST POP POP POP POP PUSH1 0x40 MLOAD RETURNDATASIZE PUSH1 0x1F NOT PUSH1 0x1F DUP3 ADD AND DUP3 ADD DUP1 PUSH1 0x40 MSTORE POP PUSH3 0xB2A SWAP2 SWAP1 DUP2 ADD SWAP1 PUSH3 0x369B JUMP JUMPDEST POP JUMPDEST SWAP8 SWAP7 POP POP POP POP POP POP POP JUMP JUMPDEST PUSH1 0x0 SLOAD PUSH1 0x1 PUSH1 0x1 PUSH1 0xA0 SHL SUB AND CALLER EQ PUSH3 0xB6D JUMPI PUSH1 0x40 MLOAD PUSH3 0x461BCD PUSH1 0xE5 SHL DUP2 MSTORE PUSH1 0x4 ADD PUSH3 0xB64 SWAP1 PUSH3 0x3F9B JUMP JUMPDEST PUSH1 0x40 MLOAD DUP1 SWAP2 SUB SWAP1 REVERT JUMPDEST PUSH1 0x2 SSTORE JUMP JUMPDEST PUSH1 0x0 PUSH3 0xB7E PUSH3 0x31F6 JUMP JUMPDEST PUSH1 0x3 DUP5 PUSH1 0x40 MLOAD PUSH3 0xB90 SWAP2 SWAP1 PUSH3 0x3C93 JUMP JUMPDEST SWAP1 DUP2 MSTORE PUSH1 0x40 DUP1 MLOAD PUSH1 0x20 SWAP3 DUP2 SWAP1 SUB DUP4 ADD DUP2 KECCAK256 DUP1 SLOAD PUSH1 0x2 PUSH1 0x1 DUP3 AND ISZERO PUSH2 0x100 MUL PUSH1 0x0 NOT ADD SWAP1 SWAP2 AND DIV PUSH1 0x1F DUP2 ADD DUP6 SWAP1 DIV SWAP1 SWAP5 MUL DUP3 ADD PUSH2 0x1A0 SWAP1 DUP2 ADD SWAP1 SWAP4 MSTORE PUSH2 0x180 DUP3 ADD DUP5 DUP2 MSTORE SWAP2 SWAP4 SWAP1 SWAP3 DUP5 SWAP3 SWAP2 DUP5 SWAP2 DUP5 ADD DUP3 DUP3 DUP1 ISZERO PUSH3 0xC31 JUMPI DUP1 PUSH1 0x1F LT PUSH3 0xC05 JUMPI PUSH2 0x100 DUP1 DUP4 SLOAD DIV MUL DUP4 MSTORE SWAP2 PUSH1 0x20 ADD SWAP2 PUSH3 0xC31 JUMP JUMPDEST DUP3 ADD SWAP2 SWAP1 PUSH1 0x0 MSTORE PUSH1 0x20 PUSH1 0x0 KECCAK256 SWAP1 JUMPDEST DUP2 SLOAD DUP2 MSTORE SWAP1 PUSH1 0x1 ADD SWAP1 PUSH1 0x20 ADD DUP1 DUP4 GT PUSH3 0xC13 JUMPI DUP3 SWAP1 SUB PUSH1 0x1F AND DUP3 ADD SWAP2 JUMPDEST POP POP POP SWAP2 DUP4 MSTORE POP POP PUSH1 0x1 DUP3 DUP2 ADD SLOAD PUSH1 0x1 PUSH1 0x1 PUSH1 0xA0 SHL SUB SWAP1 DUP2 AND PUSH1 0x20 DUP1 DUP6 ADD SWAP2 SWAP1 SWAP2 MSTORE PUSH1 0x2 DUP1 DUP7 ADD SLOAD SWAP1 SWAP3 AND PUSH1 0x40 DUP1 DUP7 ADD SWAP2 SWAP1 SWAP2 MSTORE PUSH1 0x3 DUP7 ADD DUP1 SLOAD DUP3 MLOAD PUSH2 0x100 SWAP7 DUP3 AND ISZERO SWAP7 SWAP1 SWAP7 MUL PUSH1 0x0 NOT ADD AND SWAP4 SWAP1 SWAP4 DIV PUSH1 0x1F DUP2 ADD DUP4 SWAP1 DIV DUP4 MUL DUP6 ADD DUP4 ADD SWAP1 SWAP2 MSTORE DUP1 DUP5 MSTORE PUSH1 0x60 SWAP1 SWAP5 ADD SWAP4 SWAP1 DUP4 ADD DUP3 DUP3 DUP1 ISZERO PUSH3 0xCF0 JUMPI DUP1 PUSH1 0x1F LT PUSH3 0xCC4 JUMPI PUSH2 0x100 DUP1 DUP4 SLOAD DIV MUL DUP4 MSTORE SWAP2 PUSH1 0x20 ADD SWAP2 PUSH3 0xCF0 JUMP JUMPDEST DUP3 ADD SWAP2 SWAP1 PUSH1 0x0 MSTORE PUSH1 0x20 PUSH1 0x0 KECCAK256 SWAP1 JUMPDEST DUP2 SLOAD DUP2 MSTORE SWAP1 PUSH1 0x1 ADD SWAP1 PUSH1 0x20 ADD DUP1 DUP4 GT PUSH3 0xCD2 JUMPI DUP3 SWAP1 SUB PUSH1 0x1F AND DUP3 ADD SWAP2 JUMPDEST POP POP POP POP POP DUP2 MSTORE PUSH1 0x20 ADD PUSH1 0x4 DUP3 ADD SLOAD DUP2 MSTORE PUSH1 0x20 ADD PUSH1 0x5 DUP3 ADD SLOAD DUP2 MSTORE PUSH1 0x20 ADD PUSH1 0x6 DUP3 ADD SLOAD DUP2 MSTORE PUSH1 0x20 ADD PUSH1 0x7 DUP3 ADD SLOAD DUP2 MSTORE PUSH1 0x20 ADD PUSH1 0x8 DUP3 ADD SLOAD DUP2 MSTORE PUSH1 0x20 ADD PUSH1 0x9 DUP3 ADD SLOAD DUP2 MSTORE PUSH1 0x20 ADD PUSH1 0xA DUP3 ADD SLOAD DUP2 MSTORE PUSH1 0x20 ADD PUSH1 0xB DUP3 ADD SLOAD DUP2 MSTORE POP POP SWAP1 POP PUSH3 0xD55 PUSH3 0x3269 JUMP JUMPDEST PUSH1 0x6 DUP6 PUSH1 0x40 MLOAD PUSH3 0xD67 SWAP2 SWAP1 PUSH3 0x3C93 JUMP JUMPDEST SWAP1 DUP2 MSTORE PUSH1 0x40 DUP1 MLOAD PUSH1 0x20 SWAP3 DUP2 SWAP1 SUB DUP4 ADD DUP2 KECCAK256 PUSH1 0xC0 DUP3 ADD DUP4 MSTORE DUP1 SLOAD PUSH1 0x1 PUSH1 0x1 PUSH1 0xA0 SHL SUB SWAP1 DUP2 AND DUP1 DUP5 MSTORE PUSH1 0x1 DUP4 ADD SLOAD DUP3 AND SWAP6 DUP5 ADD SWAP6 SWAP1 SWAP6 MSTORE PUSH1 0x2 DUP1 DUP4 ADD SLOAD SWAP1 SWAP2 AND SWAP4 DUP4 ADD SWAP4 SWAP1 SWAP4 MSTORE PUSH1 0x3 DUP2 ADD SLOAD PUSH1 0x60 DUP4 ADD MSTORE PUSH1 0x4 DUP2 ADD SLOAD PUSH1 0x80 DUP4 ADD MSTORE PUSH1 0x5 ADD SLOAD PUSH1 0xA0 DUP3 ADD MSTORE SWAP3 POP PUSH1 0x0 SWAP1 PUSH3 0xDE3 SWAP1 PUSH1 0x64 SWAP1 PUSH3 0x7DA SWAP1 DUP10 SWAP1 PUSH3 0x3184 JUMP JUMPDEST SWAP1 POP DUP1 ISZERO PUSH3 0xE57 JUMPI PUSH1 0x40 MLOAD PUSH4 0x4F95A04B PUSH1 0xE0 SHL DUP2 MSTORE PUSH1 0x1 PUSH1 0x1 PUSH1 0xA0 SHL SUB DUP4 AND SWAP1 PUSH4 0x4F95A04B SWAP1 PUSH3 0xE1D SWAP1 PUSH1 0x0 SWAP1 DUP6 SWAP1 PUSH1 0x4 ADD PUSH3 0x3CD6 JUMP JUMPDEST PUSH1 0x0 PUSH1 0x40 MLOAD DUP1 DUP4 SUB DUP2 PUSH1 0x0 DUP8 DUP1 EXTCODESIZE ISZERO DUP1 ISZERO PUSH3 0xE38 JUMPI PUSH1 0x0 DUP1 REVERT JUMPDEST POP GAS CALL ISZERO DUP1 ISZERO PUSH3 0xE4D JUMPI RETURNDATASIZE PUSH1 0x0 DUP1 RETURNDATACOPY RETURNDATASIZE PUSH1 0x0 REVERT JUMPDEST POP POP POP POP DUP1 DUP7 SUB SWAP6 POP JUMPDEST PUSH1 0x80 DUP4 ADD MLOAD PUSH1 0x20 DUP6 ADD MLOAD PUSH1 0x40 MLOAD PUSH4 0x4F95A04B PUSH1 0xE0 SHL DUP2 MSTORE DUP4 DUP10 SUB SWAP3 SWAP1 SWAP3 SUB SWAP2 PUSH1 0x1 PUSH1 0x1 PUSH1 0xA0 SHL SUB DUP6 AND SWAP2 PUSH4 0x4F95A04B SWAP2 PUSH3 0xE98 SWAP2 SWAP1 DUP6 SWAP1 PUSH1 0x4 ADD PUSH3 0x3CD6 JUMP JUMPDEST PUSH1 0x0 PUSH1 0x40 MLOAD DUP1 DUP4 SUB DUP2 PUSH1 0x0 DUP8 DUP1 EXTCODESIZE ISZERO DUP1 ISZERO PUSH3 0xEB3 JUMPI PUSH1 0x0 DUP1 REVERT JUMPDEST POP GAS CALL ISZERO DUP1 ISZERO PUSH3 0xEC8 JUMPI RETURNDATASIZE PUSH1 0x0 DUP1 RETURNDATACOPY RETURNDATASIZE PUSH1 0x0 REVERT JUMPDEST POP SWAP4 SWAP8 POP POP POP POP POP POP POP POP JUMPDEST SWAP3 SWAP2 POP POP JUMP JUMPDEST DUP1 MLOAD PUSH1 0x20 DUP2 DUP4 ADD DUP2 ADD DUP1 MLOAD PUSH1 0x3 DUP3 MSTORE SWAP3 DUP3 ADD SWAP4 DUP3 ADD SWAP4 SWAP1 SWAP4 KECCAK256 SWAP2 SWAP1 SWAP3 MSTORE DUP1 SLOAD PUSH1 0x40 DUP1 MLOAD PUSH1 0x2 PUSH1 0x1 DUP5 AND ISZERO PUSH2 0x100 MUL PUSH1 0x0 NOT ADD SWAP1 SWAP4 AND SWAP3 SWAP1 SWAP3 DIV PUSH1 0x1F DUP2 ADD DUP6 SWAP1 DIV DUP6 MUL DUP4 ADD DUP6 ADD SWAP1 SWAP2 MSTORE DUP1 DUP3 MSTORE SWAP2 SWAP3 SWAP1 SWAP2 DUP4 SWAP2 DUP4 ADD DUP3 DUP3 DUP1 ISZERO PUSH3 0xF81 JUMPI DUP1 PUSH1 0x1F LT PUSH3 0xF55 JUMPI PUSH2 0x100 DUP1 DUP4 SLOAD DIV MUL DUP4 MSTORE SWAP2 PUSH1 0x20 ADD SWAP2 PUSH3 0xF81 JUMP JUMPDEST DUP3 ADD SWAP2 SWAP1 PUSH1 0x0 MSTORE PUSH1 0x20 PUSH1 0x0 KECCAK256 SWAP1 JUMPDEST DUP2 SLOAD DUP2 MSTORE SWAP1 PUSH1 0x1 ADD SWAP1 PUSH1 0x20 ADD DUP1 DUP4 GT PUSH3 0xF63 JUMPI DUP3 SWAP1 SUB PUSH1 0x1F AND DUP3 ADD SWAP2 JUMPDEST POP POP POP PUSH1 0x1 DUP1 DUP6 ADD SLOAD PUSH1 0x2 DUP1 DUP8 ADD SLOAD PUSH1 0x3 DUP9 ADD DUP1 SLOAD PUSH1 0x40 DUP1 MLOAD PUSH1 0x20 PUSH1 0x1F PUSH1 0x0 NOT SWAP10 DUP6 AND ISZERO PUSH2 0x100 MUL SWAP10 SWAP1 SWAP10 ADD SWAP1 SWAP4 AND SWAP6 SWAP1 SWAP6 DIV SWAP7 DUP8 ADD DUP3 SWAP1 DIV DUP3 MUL DUP6 ADD DUP3 ADD SWAP1 MSTORE DUP6 DUP5 MSTORE SWAP8 SWAP9 PUSH1 0x1 PUSH1 0x1 PUSH1 0xA0 SHL SUB SWAP5 DUP6 AND SWAP9 SWAP3 SWAP1 SWAP5 AND SWAP7 POP SWAP3 SWAP5 POP SWAP1 SWAP3 SWAP1 DUP4 ADD DUP3 DUP3 DUP1 ISZERO PUSH3 0x1034 JUMPI DUP1 PUSH1 0x1F LT PUSH3 0x1008 JUMPI PUSH2 0x100 DUP1 DUP4 SLOAD DIV MUL DUP4 MSTORE SWAP2 PUSH1 0x20 ADD SWAP2 PUSH3 0x1034 JUMP JUMPDEST DUP3 ADD SWAP2 SWAP1 PUSH1 0x0 MSTORE PUSH1 0x20 PUSH1 0x0 KECCAK256 SWAP1 JUMPDEST DUP2 SLOAD DUP2 MSTORE SWAP1 PUSH1 0x1 ADD SWAP1 PUSH1 0x20 ADD DUP1 DUP4 GT PUSH3 0x1016 JUMPI DUP3 SWAP1 SUB PUSH1 0x1F AND DUP3 ADD SWAP2 JUMPDEST POP POP POP POP POP SWAP1 DUP1 PUSH1 0x4 ADD SLOAD SWAP1 DUP1 PUSH1 0x5 ADD SLOAD SWAP1 DUP1 PUSH1 0x6 ADD SLOAD SWAP1 DUP1 PUSH1 0x7 ADD SLOAD SWAP1 DUP1 PUSH1 0x8 ADD SLOAD SWAP1 DUP1 PUSH1 0x9 ADD SLOAD SWAP1 DUP1 PUSH1 0xA ADD SLOAD SWAP1 DUP1 PUSH1 0xB ADD SLOAD SWAP1 POP DUP13 JUMP JUMPDEST PUSH1 0x0 DUP1 DUP1 DUP1 DUP1 JUMPDEST PUSH1 0x4 DUP7 PUSH1 0x40 MLOAD PUSH3 0x1087 SWAP2 SWAP1 PUSH3 0x3C93 JUMP JUMPDEST SWAP1 DUP2 MSTORE PUSH1 0x40 MLOAD SWAP1 DUP2 SWAP1 SUB PUSH1 0x20 ADD SWAP1 KECCAK256 SLOAD DUP2 LT ISZERO PUSH3 0x1149 JUMPI PUSH3 0x10A9 PUSH3 0x32BA JUMP JUMPDEST PUSH1 0x4 DUP8 PUSH1 0x40 MLOAD PUSH3 0x10BB SWAP2 SWAP1 PUSH3 0x3C93 JUMP JUMPDEST SWAP1 DUP2 MSTORE PUSH1 0x20 ADD PUSH1 0x40 MLOAD DUP1 SWAP2 SUB SWAP1 KECCAK256 DUP3 DUP2 SLOAD DUP2 LT PUSH3 0x10D5 JUMPI INVALID JUMPDEST PUSH1 0x0 SWAP2 DUP3 MSTORE PUSH1 0x20 SWAP2 DUP3 SWAP1 KECCAK256 PUSH1 0x40 DUP1 MLOAD PUSH1 0x80 DUP2 ADD DUP3 MSTORE PUSH1 0x4 SWAP1 SWAP4 MUL SWAP1 SWAP2 ADD DUP1 SLOAD PUSH1 0x1 PUSH1 0x1 PUSH1 0xA0 SHL SUB AND DUP4 MSTORE PUSH1 0x1 DUP2 ADD SLOAD SWAP4 DUP4 ADD SWAP4 SWAP1 SWAP4 MSTORE PUSH1 0x2 DUP4 ADD SLOAD SWAP1 DUP3 ADD MSTORE PUSH1 0x3 SWAP1 SWAP2 ADD SLOAD PUSH1 0xFF AND ISZERO ISZERO PUSH1 0x60 DUP3 ADD DUP2 SWAP1 MSTORE SWAP1 SWAP2 POP PUSH3 0x113F JUMPI PUSH1 0x20 DUP2 ADD MLOAD SWAP4 SWAP1 SWAP4 ADD SWAP3 PUSH1 0x1 SWAP1 SWAP3 ADD SWAP2 JUMPDEST POP PUSH1 0x1 ADD PUSH3 0x1075 JUMP JUMPDEST POP SWAP3 POP SWAP1 POP SWAP2 POP SWAP2 JUMP JUMPDEST DUP2 MLOAD PUSH1 0x20 DUP2 DUP5 ADD DUP2 ADD DUP1 MLOAD PUSH1 0x4 DUP3 MSTORE SWAP3 DUP3 ADD SWAP2 DUP6 ADD SWAP2 SWAP1 SWAP2 KECCAK256 SWAP2 SWAP1 MSTORE DUP1 SLOAD DUP3 SWAP1 DUP2 LT PUSH3 0x117C JUMPI INVALID JUMPDEST PUSH1 0x0 SWAP2 DUP3 MSTORE PUSH1 0x20 SWAP1 SWAP2 KECCAK256 PUSH1 0x4 SWAP1 SWAP2 MUL ADD DUP1 SLOAD PUSH1 0x1 DUP3 ADD SLOAD PUSH1 0x2 DUP4 ADD SLOAD PUSH1 0x3 SWAP1 SWAP4 ADD SLOAD PUSH1 0x1 PUSH1 0x1 PUSH1 0xA0 SHL SUB SWAP1 SWAP3 AND SWAP5 POP SWAP3 POP PUSH1 0xFF AND DUP5 JUMP JUMPDEST TIMESTAMP JUMPDEST SWAP1 JUMP JUMPDEST DUP1 MLOAD MLOAD PUSH3 0x11C5 JUMPI PUSH1 0x0 DUP1 REVERT JUMPDEST PUSH3 0x11CF PUSH3 0x32ED JUMP JUMPDEST POP PUSH1 0x40 DUP1 MLOAD PUSH1 0x60 DUP2 ADD DUP3 MSTORE PUSH1 0x0 DUP1 DUP3 MSTORE PUSH1 0x20 DUP3 ADD DUP2 SWAP1 MSTORE DUP2 DUP4 ADD MSTORE DUP3 MLOAD SWAP2 MLOAD SWAP1 SWAP2 DUP4 SWAP2 PUSH1 0x3 SWAP2 PUSH3 0x1200 SWAP2 PUSH3 0x3C93 JUMP JUMPDEST SWAP1 DUP2 MSTORE PUSH1 0x20 ADD PUSH1 0x40 MLOAD DUP1 SWAP2 SUB SWAP1 KECCAK256 PUSH1 0x0 DUP3 ADD MLOAD DUP2 PUSH1 0x0 ADD SWAP1 DUP1 MLOAD SWAP1 PUSH1 0x20 ADD SWAP1 PUSH3 0x122C SWAP3 SWAP2 SWAP1 PUSH3 0x330D JUMP JUMPDEST POP PUSH1 0x20 DUP3 DUP2 ADD MLOAD PUSH1 0x1 DUP4 ADD DUP1 SLOAD PUSH1 0x1 PUSH1 0x1 PUSH1 0xA0 SHL SUB SWAP3 DUP4 AND PUSH1 0x1 PUSH1 0x1 PUSH1 0xA0 SHL SUB NOT SWAP2 DUP3 AND OR SWAP1 SWAP2 SSTORE PUSH1 0x40 DUP6 ADD MLOAD PUSH1 0x2 DUP6 ADD DUP1 SLOAD SWAP2 SWAP1 SWAP4 AND SWAP2 AND OR SWAP1 SSTORE PUSH1 0x60 DUP4 ADD MLOAD DUP1 MLOAD PUSH3 0x1281 SWAP3 PUSH1 0x3 DUP6 ADD SWAP3 ADD SWAP1 PUSH3 0x330D JUMP JUMPDEST POP PUSH1 0x80 DUP3 ADD MLOAD DUP2 PUSH1 0x4 ADD SSTORE PUSH1 0xA0 DUP3 ADD MLOAD DUP2 PUSH1 0x5 ADD SSTORE PUSH1 0xC0 DUP3 ADD MLOAD DUP2 PUSH1 0x6 ADD SSTORE PUSH1 0xE0 DUP3 ADD MLOAD DUP2 PUSH1 0x7 ADD SSTORE PUSH2 0x100 DUP3 ADD MLOAD DUP2 PUSH1 0x8 ADD SSTORE PUSH2 0x120 DUP3 ADD MLOAD DUP2 PUSH1 0x9 ADD SSTORE PUSH2 0x140 DUP3 ADD MLOAD DUP2 PUSH1 0xA ADD SSTORE PUSH2 0x160 DUP3 ADD MLOAD DUP2 PUSH1 0xB ADD SSTORE SWAP1 POP POP DUP1 PUSH1 0x5 DUP4 PUSH1 0x0 ADD MLOAD PUSH1 0x40 MLOAD PUSH3 0x12F0 SWAP2 SWAP1 PUSH3 0x3C93 JUMP JUMPDEST SWAP1 DUP2 MSTORE PUSH1 0x40 DUP1 MLOAD SWAP2 DUP3 SWAP1 SUB PUSH1 0x20 SWAP1 DUP2 ADD DUP4 KECCAK256 DUP5 MLOAD DUP2 SLOAD SWAP3 DUP7 ADD MLOAD SWAP6 SWAP1 SWAP4 ADD MLOAD ISZERO ISZERO PUSH3 0x10000 MUL PUSH3 0xFF0000 NOT SWAP6 ISZERO ISZERO PUSH2 0x100 MUL PUSH2 0xFF00 NOT SWAP5 ISZERO ISZERO PUSH1 0xFF NOT SWAP1 SWAP5 AND SWAP4 SWAP1 SWAP4 OR SWAP4 SWAP1 SWAP4 AND SWAP2 SWAP1 SWAP2 OR SWAP4 SWAP1 SWAP4 AND OR SWAP1 SWAP2 SSTORE DUP3 MLOAD PUSH1 0x0 SWAP2 PUSH3 0x1353 SWAP1 PUSH3 0x3392 JUMP JUMPDEST PUSH3 0x135F SWAP2 SWAP1 PUSH3 0x3E0F JUMP JUMPDEST PUSH1 0x40 MLOAD DUP1 SWAP2 SUB SWAP1 PUSH1 0x0 CREATE DUP1 ISZERO DUP1 ISZERO PUSH3 0x137C JUMPI RETURNDATASIZE PUSH1 0x0 DUP1 RETURNDATACOPY RETURNDATASIZE PUSH1 0x0 REVERT JUMPDEST POP PUSH1 0x40 DUP1 DUP6 ADD MLOAD SWAP1 MLOAD PUSH4 0x144FA6D7 PUSH1 0xE0 SHL DUP2 MSTORE SWAP2 SWAP3 POP SWAP1 PUSH1 0x1 PUSH1 0x1 PUSH1 0xA0 SHL SUB DUP4 AND SWAP1 PUSH4 0x144FA6D7 SWAP1 PUSH3 0x13B4 SWAP1 DUP5 SWAP1 PUSH1 0x4 ADD PUSH3 0x3DBB JUMP JUMPDEST PUSH1 0x0 PUSH1 0x40 MLOAD DUP1 DUP4 SUB DUP2 PUSH1 0x0 DUP8 DUP1 EXTCODESIZE ISZERO DUP1 ISZERO PUSH3 0x13CF JUMPI PUSH1 0x0 DUP1 REVERT JUMPDEST POP GAS CALL ISZERO DUP1 ISZERO PUSH3 0x13E4 JUMPI RETURNDATASIZE PUSH1 0x0 DUP1 RETURNDATACOPY RETURNDATASIZE PUSH1 0x0 REVERT JUMPDEST POP POP PUSH1 0x1 SLOAD PUSH1 0x40 MLOAD PUSH4 0xACB3C073 PUSH1 0xE0 SHL DUP2 MSTORE PUSH1 0x1 PUSH1 0x1 PUSH1 0xA0 SHL SUB DUP1 DUP8 AND SWAP5 POP PUSH4 0xACB3C073 SWAP4 POP PUSH3 0x141A SWAP3 AND SWAP1 PUSH1 0x4 ADD PUSH3 0x3DBB JUMP JUMPDEST PUSH1 0x0 PUSH1 0x40 MLOAD DUP1 DUP4 SUB DUP2 PUSH1 0x0 DUP8 DUP1 EXTCODESIZE ISZERO DUP1 ISZERO PUSH3 0x1435 JUMPI PUSH1 0x0 DUP1 REVERT JUMPDEST POP GAS CALL ISZERO DUP1 ISZERO PUSH3 0x144A JUMPI RETURNDATASIZE PUSH1 0x0 DUP1 RETURNDATACOPY RETURNDATASIZE PUSH1 0x0 REVERT JUMPDEST POP POP POP POP PUSH3 0x1458 PUSH3 0x3269 JUMP JUMPDEST PUSH1 0x40 MLOAD DUP1 PUSH1 0xC0 ADD PUSH1 0x40 MSTORE DUP1 DUP5 PUSH1 0x1 PUSH1 0x1 PUSH1 0xA0 SHL SUB AND DUP2 MSTORE PUSH1 0x20 ADD DUP4 PUSH1 0x1 PUSH1 0x1 PUSH1 0xA0 SHL SUB AND DUP2 MSTORE PUSH1 0x20 ADD PUSH1 0x0 PUSH1 0x1 PUSH1 0x1 PUSH1 0xA0 SHL SUB AND DUP2 MSTORE PUSH1 0x20 ADD PUSH1 0x0 DUP2 MSTORE PUSH1 0x20 ADD PUSH1 0x0 DUP2 MSTORE PUSH1 0x20 ADD PUSH1 0x0 DUP2 MSTORE POP SWAP1 POP DUP1 PUSH1 0x6 DUP7 PUSH1 0x0 ADD MLOAD PUSH1 0x40 MLOAD PUSH3 0x14BD SWAP2 SWAP1 PUSH3 0x3C93 JUMP JUMPDEST SWAP1 DUP2 MSTORE PUSH1 0x40 DUP1 MLOAD PUSH1 0x20 SWAP3 DUP2 SWAP1 SUB DUP4 ADD DUP2 KECCAK256 DUP5 MLOAD DUP2 SLOAD PUSH1 0x1 PUSH1 0x1 PUSH1 0xA0 SHL SUB NOT SWAP1 DUP2 AND PUSH1 0x1 PUSH1 0x1 PUSH1 0xA0 SHL SUB SWAP3 DUP4 AND OR DUP4 SSTORE SWAP5 DUP7 ADD MLOAD PUSH1 0x1 DUP4 ADD DUP1 SLOAD DUP8 AND SWAP2 DUP4 AND SWAP2 SWAP1 SWAP2 OR SWAP1 SSTORE SWAP3 DUP6 ADD MLOAD PUSH1 0x2 DUP3 ADD DUP1 SLOAD SWAP1 SWAP6 AND SWAP4 AND SWAP3 SWAP1 SWAP3 OR SWAP1 SWAP3 SSTORE PUSH1 0x60 DUP4 ADD MLOAD PUSH1 0x3 DUP3 ADD SSTORE PUSH1 0x80 DUP4 ADD MLOAD PUSH1 0x4 DUP3 ADD SSTORE PUSH1 0xA0 SWAP1 SWAP3 ADD MLOAD PUSH1 0x5 SWAP1 SWAP3 ADD SWAP2 SWAP1 SWAP2 SSTORE DUP6 MLOAD PUSH32 0xF7E24B64C3D2ED7D191CE3009C2E12632005B58578CE39E23F97EAEC9FD6C3E1 SWAP2 PUSH3 0x156C SWAP2 SWAP1 DUP7 SWAP1 PUSH3 0x3F1D JUMP JUMPDEST PUSH1 0x40 MLOAD DUP1 SWAP2 SUB SWAP1 LOG1 POP POP POP POP POP JUMP JUMPDEST PUSH3 0x1585 PUSH3 0x31F6 JUMP JUMPDEST PUSH1 0x3 DUP3 PUSH1 0x40 MLOAD PUSH3 0x1597 SWAP2 SWAP1 PUSH3 0x3C93 JUMP JUMPDEST SWAP1 DUP2 MSTORE PUSH1 0x40 DUP1 MLOAD PUSH1 0x20 SWAP3 DUP2 SWAP1 SUB DUP4 ADD DUP2 KECCAK256 DUP1 SLOAD PUSH1 0x2 PUSH1 0x1 DUP3 AND ISZERO PUSH2 0x100 MUL PUSH1 0x0 NOT ADD SWAP1 SWAP2 AND DIV PUSH1 0x1F DUP2 ADD DUP6 SWAP1 DIV SWAP1 SWAP5 MUL DUP3 ADD PUSH2 0x1A0 SWAP1 DUP2 ADD SWAP1 SWAP4 MSTORE PUSH2 0x180 DUP3 ADD DUP5 DUP2 MSTORE SWAP2 SWAP4 SWAP1 SWAP3 DUP5 SWAP3 SWAP2 DUP5 SWAP2 DUP5 ADD DUP3 DUP3 DUP1 ISZERO PUSH3 0x1638 JUMPI DUP1 PUSH1 0x1F LT PUSH3 0x160C JUMPI PUSH2 0x100 DUP1 DUP4 SLOAD DIV MUL DUP4 MSTORE SWAP2 PUSH1 0x20 ADD SWAP2 PUSH3 0x1638 JUMP JUMPDEST DUP3 ADD SWAP2 SWAP1 PUSH1 0x0 MSTORE PUSH1 0x20 PUSH1 0x0 KECCAK256 SWAP1 JUMPDEST DUP2 SLOAD DUP2 MSTORE SWAP1 PUSH1 0x1 ADD SWAP1 PUSH1 0x20 ADD DUP1 DUP4 GT PUSH3 0x161A JUMPI DUP3 SWAP1 SUB PUSH1 0x1F AND DUP3 ADD SWAP2 JUMPDEST POP POP POP SWAP2 DUP4 MSTORE POP POP PUSH1 0x1 DUP3 DUP2 ADD SLOAD PUSH1 0x1 PUSH1 0x1 PUSH1 0xA0 SHL SUB SWAP1 DUP2 AND PUSH1 0x20 DUP1 DUP6 ADD SWAP2 SWAP1 SWAP2 MSTORE PUSH1 0x2 DUP1 DUP7 ADD SLOAD SWAP1 SWAP3 AND PUSH1 0x40 DUP1 DUP7 ADD SWAP2 SWAP1 SWAP2 MSTORE PUSH1 0x3 DUP7 ADD DUP1 SLOAD DUP3 MLOAD PUSH2 0x100 SWAP7 DUP3 AND ISZERO SWAP7 SWAP1 SWAP7 MUL PUSH1 0x0 NOT ADD AND SWAP4 SWAP1 SWAP4 DIV PUSH1 0x1F DUP2 ADD DUP4 SWAP1 DIV DUP4 MUL DUP6 ADD DUP4 ADD SWAP1 SWAP2 MSTORE DUP1 DUP5 MSTORE PUSH1 0x60 SWAP1 SWAP5 ADD SWAP4 SWAP1 DUP4 ADD DUP3 DUP3 DUP1 ISZERO PUSH3 0x16F7 JUMPI DUP1 PUSH1 0x1F LT PUSH3 0x16CB JUMPI PUSH2 0x100 DUP1 DUP4 SLOAD DIV MUL DUP4 MSTORE SWAP2 PUSH1 0x20 ADD SWAP2 PUSH3 0x16F7 JUMP JUMPDEST DUP3 ADD SWAP2 SWAP1 PUSH1 0x0 MSTORE PUSH1 0x20 PUSH1 0x0 KECCAK256 SWAP1 JUMPDEST DUP2 SLOAD DUP2 MSTORE SWAP1 PUSH1 0x1 ADD SWAP1 PUSH1 0x20 ADD DUP1 DUP4 GT PUSH3 0x16D9 JUMPI DUP3 SWAP1 SUB PUSH1 0x1F AND DUP3 ADD SWAP2 JUMPDEST POP POP POP POP POP DUP2 MSTORE PUSH1 0x20 ADD PUSH1 0x4 DUP3 ADD SLOAD DUP2 MSTORE PUSH1 0x20 ADD PUSH1 0x5 DUP3 ADD SLOAD DUP2 MSTORE PUSH1 0x20 ADD PUSH1 0x6 DUP3 ADD SLOAD DUP2 MSTORE PUSH1 0x20 ADD PUSH1 0x7 DUP3 ADD SLOAD DUP2 MSTORE PUSH1 0x20 ADD PUSH1 0x8 DUP3 ADD SLOAD DUP2 MSTORE PUSH1 0x20 ADD PUSH1 0x9 DUP3 ADD SLOAD DUP2 MSTORE PUSH1 0x20 ADD PUSH1 0xA DUP3 ADD SLOAD DUP2 MSTORE PUSH1 0x20 ADD PUSH1 0xB DUP3 ADD SLOAD DUP2 MSTORE POP POP SWAP1 POP PUSH3 0x175C PUSH3 0x3269 JUMP JUMPDEST PUSH1 0x6 DUP4 PUSH1 0x40 MLOAD PUSH3 0x176E SWAP2 SWAP1 PUSH3 0x3C93 JUMP JUMPDEST SWAP1 DUP2 MSTORE PUSH1 0x40 DUP1 MLOAD PUSH1 0x20 SWAP3 DUP2 SWAP1 SUB DUP4 ADD DUP2 KECCAK256 PUSH1 0xC0 DUP3 ADD DUP4 MSTORE DUP1 SLOAD PUSH1 0x1 PUSH1 0x1 PUSH1 0xA0 SHL SUB SWAP1 DUP2 AND DUP1 DUP5 MSTORE PUSH1 0x1 DUP4 ADD SLOAD DUP3 AND SWAP6 DUP5 ADD SWAP6 SWAP1 SWAP6 MSTORE PUSH1 0x2 DUP3 ADD SLOAD AND SWAP3 DUP3 ADD SWAP3 SWAP1 SWAP3 MSTORE PUSH1 0x3 DUP3 ADD SLOAD PUSH1 0x60 DUP3 ADD MSTORE PUSH1 0x4 DUP3 ADD SLOAD PUSH1 0x80 DUP3 ADD MSTORE PUSH1 0x5 SWAP1 SWAP2 ADD SLOAD PUSH1 0xA0 DUP3 ADD MSTORE SWAP2 POP PUSH1 0x0 PUSH3 0x17DF PUSH1 0x3C PUSH3 0x31C0 JUMP JUMPDEST SWAP1 POP PUSH1 0x0 PUSH3 0x17EE DUP7 PUSH3 0x106E JUMP JUMPDEST SWAP2 POP POP PUSH1 0x0 PUSH3 0x1813 PUSH1 0x64 PUSH3 0x7DA DUP9 PUSH2 0x140 ADD MLOAD DUP6 PUSH3 0x3184 SWAP1 SWAP2 SWAP1 PUSH4 0xFFFFFFFF AND JUMP JUMPDEST PUSH1 0x40 MLOAD PUSH4 0x19B743C9 PUSH1 0xE2 SHL DUP2 MSTORE SWAP1 SWAP2 POP PUSH1 0x1 PUSH1 0x1 PUSH1 0xA0 SHL SUB DUP6 AND SWAP1 PUSH4 0x66DD0F24 SWAP1 PUSH3 0x1844 SWAP1 DUP5 SWAP1 PUSH1 0x4 ADD PUSH3 0x402B JUMP JUMPDEST PUSH1 0x0 PUSH1 0x40 MLOAD DUP1 DUP4 SUB DUP2 PUSH1 0x0 DUP8 DUP1 EXTCODESIZE ISZERO DUP1 ISZERO PUSH3 0x185F JUMPI PUSH1 0x0 DUP1 REVERT JUMPDEST POP GAS CALL ISZERO DUP1 ISZERO PUSH3 0x1874 JUMPI RETURNDATASIZE PUSH1 0x0 DUP1 RETURNDATACOPY RETURNDATASIZE PUSH1 0x0 REVERT JUMPDEST POP POP POP POP PUSH1 0x0 DUP1 PUSH1 0x0 DUP7 PUSH1 0x1 PUSH1 0x1 PUSH1 0xA0 SHL SUB AND PUSH4 0xBE574484 DUP11 PUSH2 0x100 ADD MLOAD DUP7 PUSH1 0x0 DUP1 DUP14 PUSH1 0x0 ADD MLOAD DUP13 PUSH1 0x40 MLOAD DUP8 PUSH4 0xFFFFFFFF AND PUSH1 0xE0 SHL DUP2 MSTORE PUSH1 0x4 ADD PUSH3 0x18BF SWAP7 SWAP6 SWAP5 SWAP4 SWAP3 SWAP2 SWAP1 PUSH3 0x404B JUMP JUMPDEST PUSH1 0x60 PUSH1 0x40 MLOAD DUP1 DUP4 SUB DUP2 PUSH1 0x0 DUP8 DUP1 EXTCODESIZE ISZERO DUP1 ISZERO PUSH3 0x18DA JUMPI PUSH1 0x0 DUP1 REVERT JUMPDEST POP GAS CALL ISZERO DUP1 ISZERO PUSH3 0x18EF JUMPI RETURNDATASIZE PUSH1 0x0 DUP1 RETURNDATACOPY RETURNDATASIZE PUSH1 0x0 REVERT JUMPDEST POP POP POP POP PUSH1 0x40 MLOAD RETURNDATASIZE PUSH1 0x1F NOT PUSH1 0x1F DUP3 ADD AND DUP3 ADD DUP1 PUSH1 0x40 MSTORE POP PUSH3 0x1915 SWAP2 SWAP1 DUP2 ADD SWAP1 PUSH3 0x3846 JUMP JUMPDEST PUSH1 0x60 DUP12 ADD DUP2 SWAP1 MSTORE PUSH1 0xA0 DUP12 ADD DUP4 SWAP1 MSTORE PUSH1 0x80 DUP12 ADD DUP3 SWAP1 MSTORE PUSH1 0x40 MLOAD SWAP3 SWAP6 POP SWAP1 SWAP4 POP SWAP2 POP DUP9 SWAP1 PUSH1 0x6 SWAP1 PUSH3 0x1947 SWAP1 DUP14 SWAP1 PUSH3 0x3C93 JUMP JUMPDEST SWAP1 DUP2 MSTORE PUSH1 0x40 DUP1 MLOAD PUSH1 0x20 SWAP3 DUP2 SWAP1 SUB DUP4 ADD SWAP1 KECCAK256 DUP4 MLOAD DUP2 SLOAD PUSH1 0x1 PUSH1 0x1 PUSH1 0xA0 SHL SUB NOT SWAP1 DUP2 AND PUSH1 0x1 PUSH1 0x1 PUSH1 0xA0 SHL SUB SWAP3 DUP4 AND OR DUP4 SSTORE SWAP4 DUP6 ADD MLOAD PUSH1 0x1 DUP4 ADD DUP1 SLOAD DUP7 AND SWAP2 DUP4 AND SWAP2 SWAP1 SWAP2 OR SWAP1 SSTORE SWAP2 DUP5 ADD MLOAD PUSH1 0x2 DUP3 ADD DUP1 SLOAD SWAP1 SWAP5 AND SWAP3 AND SWAP2 SWAP1 SWAP2 OR SWAP1 SWAP2 SSTORE PUSH1 0x60 DUP3 ADD MLOAD PUSH1 0x3 DUP3 ADD SSTORE PUSH1 0x80 DUP3 ADD MLOAD PUSH1 0x4 DUP3 ADD SSTORE PUSH1 0xA0 SWAP1 SWAP2 ADD MLOAD PUSH1 0x5 SWAP1 SWAP2 ADD SSTORE POP POP POP POP POP POP POP POP POP POP JUMP JUMPDEST PUSH1 0x0 PUSH3 0x19D9 PUSH3 0x3269 JUMP JUMPDEST PUSH1 0x6 DUP5 DUP5 PUSH1 0x40 MLOAD PUSH3 0x19ED SWAP3 SWAP2 SWAP1 PUSH3 0x3C84 JUMP JUMPDEST SWAP1 DUP2 MSTORE PUSH1 0x40 DUP1 MLOAD PUSH1 0x20 SWAP3 DUP2 SWAP1 SUB DUP4 ADD DUP2 KECCAK256 PUSH1 0xC0 DUP3 ADD DUP4 MSTORE DUP1 SLOAD PUSH1 0x1 PUSH1 0x1 PUSH1 0xA0 SHL SUB SWAP1 DUP2 AND DUP1 DUP5 MSTORE PUSH1 0x1 DUP4 ADD SLOAD DUP3 AND SWAP6 DUP5 ADD DUP7 SWAP1 MSTORE PUSH1 0x2 DUP4 ADD SLOAD SWAP1 SWAP2 AND DUP4 DUP6 ADD MSTORE PUSH1 0x3 DUP3 ADD SLOAD PUSH1 0x60 DUP5 ADD MSTORE PUSH1 0x4 DUP1 DUP4 ADD SLOAD PUSH1 0x80 DUP6 ADD MSTORE PUSH1 0x5 SWAP1 SWAP3 ADD SLOAD PUSH1 0xA0 DUP5 ADD MSTORE SWAP3 MLOAD PUSH4 0x776E4B35 PUSH1 0xE1 SHL DUP2 MSTORE SWAP2 SWAP5 POP SWAP2 SWAP3 SWAP2 DUP4 SWAP2 PUSH4 0xEEDC966A SWAP2 PUSH3 0x1A75 SWAP2 DUP6 SWAP2 ADD PUSH3 0x3DBB JUMP JUMPDEST PUSH1 0x20 PUSH1 0x40 MLOAD DUP1 DUP4 SUB DUP2 DUP7 DUP1 EXTCODESIZE ISZERO DUP1 ISZERO PUSH3 0x1A8E JUMPI PUSH1 0x0 DUP1 REVERT JUMPDEST POP GAS STATICCALL ISZERO DUP1 ISZERO PUSH3 0x1AA3 JUMPI RETURNDATASIZE PUSH1 0x0 DUP1 RETURNDATACOPY RETURNDATASIZE PUSH1 0x0 REVERT JUMPDEST POP POP POP POP PUSH1 0x40 MLOAD RETURNDATASIZE PUSH1 0x1F NOT PUSH1 0x1F DUP3 ADD AND DUP3 ADD DUP1 PUSH1 0x40 MSTORE POP PUSH3 0x1AC9 SWAP2 SWAP1 DUP2 ADD SWAP1 PUSH3 0x3825 JUMP JUMPDEST SWAP7 SWAP6 POP POP POP POP POP POP JUMP JUMPDEST DUP1 MLOAD PUSH1 0x20 DUP2 DUP4 ADD DUP2 ADD DUP1 MLOAD PUSH1 0x6 DUP3 MSTORE SWAP3 DUP3 ADD SWAP2 SWAP1 SWAP4 ADD KECCAK256 SWAP2 MSTORE DUP1 SLOAD PUSH1 0x1 DUP3 ADD SLOAD PUSH1 0x2 DUP4 ADD SLOAD PUSH1 0x3 DUP5 ADD SLOAD PUSH1 0x4 DUP6 ADD SLOAD PUSH1 0x5 SWAP1 SWAP6 ADD SLOAD PUSH1 0x1 PUSH1 0x1 PUSH1 0xA0 SHL SUB SWAP5 DUP6 AND SWAP6 SWAP4 DUP6 AND SWAP5 SWAP1 SWAP3 AND SWAP3 SWAP1 SWAP2 DUP7 JUMP JUMPDEST PUSH1 0x0 PUSH3 0x1B2D PUSH3 0x3269 JUMP JUMPDEST PUSH1 0x6 DUP5 DUP5 PUSH1 0x40 MLOAD PUSH3 0x1B41 SWAP3 SWAP2 SWAP1 PUSH3 0x3C84 JUMP JUMPDEST SWAP1 DUP2 MSTORE PUSH1 0x40 DUP1 MLOAD PUSH1 0x20 SWAP3 DUP2 SWAP1 SUB DUP4 ADD DUP2 KECCAK256 PUSH1 0xC0 DUP3 ADD DUP4 MSTORE DUP1 SLOAD PUSH1 0x1 PUSH1 0x1 PUSH1 0xA0 SHL SUB SWAP1 DUP2 AND DUP4 MSTORE PUSH1 0x1 DUP3 ADD SLOAD DUP2 AND SWAP5 DUP4 ADD DUP6 SWAP1 MSTORE PUSH1 0x2 DUP3 ADD SLOAD AND SWAP3 DUP3 ADD SWAP3 SWAP1 SWAP3 MSTORE PUSH1 0x3 DUP3 ADD SLOAD PUSH1 0x60 DUP3 ADD MSTORE PUSH1 0x4 DUP3 ADD SLOAD PUSH1 0x80 DUP3 ADD MSTORE PUSH1 0x5 SWAP1 SWAP2 ADD SLOAD PUSH1 0xA0 SWAP1 SWAP2 ADD MSTORE SWAP5 SWAP4 POP POP POP POP JUMP JUMPDEST PUSH1 0x0 PUSH1 0x5 DUP4 DUP4 PUSH1 0x40 MLOAD PUSH3 0x1BBF SWAP3 SWAP2 SWAP1 PUSH3 0x3C84 JUMP JUMPDEST SWAP1 DUP2 MSTORE PUSH1 0x40 MLOAD SWAP1 DUP2 SWAP1 SUB PUSH1 0x20 ADD SWAP1 KECCAK256 DUP1 SLOAD SWAP1 SWAP2 POP PUSH1 0xFF AND ISZERO DUP1 ISZERO PUSH3 0x1BEB JUMPI POP DUP1 SLOAD PUSH3 0x10000 SWAP1 DIV PUSH1 0xFF AND JUMPDEST PUSH3 0x1BF5 JUMPI PUSH1 0x0 DUP1 REVERT JUMPDEST DUP1 SLOAD PUSH1 0xFF NOT AND PUSH1 0x1 OR DUP2 SSTORE PUSH1 0x40 DUP1 MLOAD PUSH1 0x20 PUSH1 0x1F DUP6 ADD DUP2 SWAP1 DIV DUP2 MUL DUP3 ADD DUP2 ADD SWAP1 SWAP3 MSTORE DUP4 DUP2 MSTORE PUSH1 0x0 SWAP2 PUSH3 0x1C43 SWAP2 SWAP1 DUP7 SWAP1 DUP7 SWAP1 DUP2 SWAP1 DUP5 ADD DUP4 DUP3 DUP1 DUP3 DUP5 CALLDATACOPY PUSH1 0x0 SWAP3 ADD SWAP2 SWAP1 SWAP2 MSTORE POP PUSH3 0x106E SWAP3 POP POP POP JUMP JUMPDEST SWAP2 POP POP PUSH3 0x1C50 PUSH3 0x31F6 JUMP JUMPDEST PUSH1 0x3 DUP6 DUP6 PUSH1 0x40 MLOAD PUSH3 0x1C64 SWAP3 SWAP2 SWAP1 PUSH3 0x3C84 JUMP JUMPDEST SWAP1 DUP2 MSTORE PUSH1 0x40 DUP1 MLOAD PUSH1 0x20 SWAP3 DUP2 SWAP1 SUB DUP4 ADD DUP2 KECCAK256 DUP1 SLOAD PUSH1 0x2 PUSH1 0x1 DUP3 AND ISZERO PUSH2 0x100 MUL PUSH1 0x0 NOT ADD SWAP1 SWAP2 AND DIV PUSH1 0x1F DUP2 ADD DUP6 SWAP1 DIV SWAP1 SWAP5 MUL DUP3 ADD PUSH2 0x1A0 SWAP1 DUP2 ADD SWAP1 SWAP4 MSTORE PUSH2 0x180 DUP3 ADD DUP5 DUP2 MSTORE SWAP2 SWAP4 SWAP1 SWAP3 DUP5 SWAP3 SWAP2 DUP5 SWAP2 DUP5 ADD DUP3 DUP3 DUP1 ISZERO PUSH3 0x1D05 JUMPI DUP1 PUSH1 0x1F LT PUSH3 0x1CD9 JUMPI PUSH2 0x100 DUP1 DUP4 SLOAD DIV MUL DUP4 MSTORE SWAP2 PUSH1 0x20 ADD SWAP2 PUSH3 0x1D05 JUMP JUMPDEST DUP3 ADD SWAP2 SWAP1 PUSH1 0x0 MSTORE PUSH1 0x20 PUSH1 0x0 KECCAK256 SWAP1 JUMPDEST DUP2 SLOAD DUP2 MSTORE SWAP1 PUSH1 0x1 ADD SWAP1 PUSH1 0x20 ADD DUP1 DUP4 GT PUSH3 0x1CE7 JUMPI DUP3 SWAP1 SUB PUSH1 0x1F AND DUP3 ADD SWAP2 JUMPDEST POP POP POP SWAP2 DUP4 MSTORE POP POP PUSH1 0x1 DUP3 DUP2 ADD SLOAD PUSH1 0x1 PUSH1 0x1 PUSH1 0xA0 SHL SUB SWAP1 DUP2 AND PUSH1 0x20 DUP1 DUP6 ADD SWAP2 SWAP1 SWAP2 MSTORE PUSH1 0x2 DUP1 DUP7 ADD SLOAD SWAP1 SWAP3 AND PUSH1 0x40 DUP1 DUP7 ADD SWAP2 SWAP1 SWAP2 MSTORE PUSH1 0x3 DUP7 ADD DUP1 SLOAD DUP3 MLOAD PUSH2 0x100 SWAP7 DUP3 AND ISZERO SWAP7 SWAP1 SWAP7 MUL PUSH1 0x0 NOT ADD AND SWAP4 SWAP1 SWAP4 DIV PUSH1 0x1F DUP2 ADD DUP4 SWAP1 DIV DUP4 MUL DUP6 ADD DUP4 ADD SWAP1 SWAP2 MSTORE DUP1 DUP5 MSTORE PUSH1 0x60 SWAP1 SWAP5 ADD SWAP4 SWAP1 DUP4 ADD DUP3 DUP3 DUP1 ISZERO PUSH3 0x1DC4 JUMPI DUP1 PUSH1 0x1F LT PUSH3 0x1D98 JUMPI PUSH2 0x100 DUP1 DUP4 SLOAD DIV MUL DUP4 MSTORE SWAP2 PUSH1 0x20 ADD SWAP2 PUSH3 0x1DC4 JUMP JUMPDEST DUP3 ADD SWAP2 SWAP1 PUSH1 0x0 MSTORE PUSH1 0x20 PUSH1 0x0 KECCAK256 SWAP1 JUMPDEST DUP2 SLOAD DUP2 MSTORE SWAP1 PUSH1 0x1 ADD SWAP1 PUSH1 0x20 ADD DUP1 DUP4 GT PUSH3 0x1DA6 JUMPI DUP3 SWAP1 SUB PUSH1 0x1F AND DUP3 ADD SWAP2 JUMPDEST POP POP POP POP POP DUP2 MSTORE PUSH1 0x20 ADD PUSH1 0x4 DUP3 ADD SLOAD DUP2 MSTORE PUSH1 0x20 ADD PUSH1 0x5 DUP3 ADD SLOAD DUP2 MSTORE PUSH1 0x20 ADD PUSH1 0x6 DUP3 ADD SLOAD DUP2 MSTORE PUSH1 0x20 ADD PUSH1 0x7 DUP3 ADD SLOAD DUP2 MSTORE PUSH1 0x20 ADD PUSH1 0x8 DUP3 ADD SLOAD DUP2 MSTORE PUSH1 0x20 ADD PUSH1 0x9 DUP3 ADD SLOAD DUP2 MSTORE PUSH1 0x20 ADD PUSH1 0xA DUP3 ADD SLOAD DUP2 MSTORE PUSH1 0x20 ADD PUSH1 0xB DUP3 ADD SLOAD DUP2 MSTORE POP POP SWAP1 POP DUP1 PUSH2 0x120 ADD MLOAD DUP3 LT ISZERO DUP4 PUSH1 0x0 ADD PUSH1 0x1 PUSH2 0x100 EXP DUP2 SLOAD DUP2 PUSH1 0xFF MUL NOT AND SWAP1 DUP4 ISZERO ISZERO MUL OR SWAP1 SSTORE POP DUP3 PUSH1 0x5 DUP7 DUP7 PUSH1 0x40 MLOAD PUSH3 0x1E58 SWAP3 SWAP2 SWAP1 PUSH3 0x3C84 JUMP JUMPDEST SWAP1 DUP2 MSTORE PUSH1 0x40 MLOAD SWAP1 DUP2 SWAP1 SUB PUSH1 0x20 ADD SWAP1 KECCAK256 DUP2 SLOAD DUP2 SLOAD PUSH1 0xFF SWAP2 DUP3 AND ISZERO ISZERO PUSH1 0xFF NOT SWAP1 SWAP2 AND OR DUP1 DUP4 SSTORE DUP4 SLOAD PUSH2 0x100 SWAP1 DUP2 SWAP1 DIV DUP4 AND ISZERO ISZERO DUP2 MUL PUSH2 0xFF00 NOT SWAP1 SWAP3 AND SWAP2 SWAP1 SWAP2 OR DUP1 DUP5 SSTORE SWAP4 SLOAD PUSH3 0x10000 SWAP1 DUP2 SWAP1 DIV DUP4 AND ISZERO ISZERO MUL PUSH3 0xFF0000 NOT SWAP1 SWAP5 AND SWAP4 SWAP1 SWAP4 OR SWAP1 SWAP2 SSTORE DUP5 SLOAD SWAP2 SWAP1 SWAP2 DIV AND ISZERO PUSH3 0x1F0F JUMPI PUSH3 0x1F07 DUP6 DUP6 DUP1 DUP1 PUSH1 0x1F ADD PUSH1 0x20 DUP1 SWAP2 DIV MUL PUSH1 0x20 ADD PUSH1 0x40 MLOAD SWAP1 DUP2 ADD PUSH1 0x40 MSTORE DUP1 SWAP4 SWAP3 SWAP2 SWAP1 DUP2 DUP2 MSTORE PUSH1 0x20 ADD DUP4 DUP4 DUP1 DUP3 DUP5 CALLDATACOPY PUSH1 0x0 SWAP3 ADD SWAP2 SWAP1 SWAP2 MSTORE POP DUP7 SWAP3 POP PUSH3 0x42F SWAP2 POP POP JUMP JUMPDEST POP POP PUSH3 0x1F50 JUMP JUMPDEST PUSH3 0x1F50 DUP6 DUP6 DUP1 DUP1 PUSH1 0x1F ADD PUSH1 0x20 DUP1 SWAP2 DIV MUL PUSH1 0x20 ADD PUSH1 0x40 MLOAD SWAP1 DUP2 ADD PUSH1 0x40 MSTORE DUP1 SWAP4 SWAP3 SWAP2 SWAP1 DUP2 DUP2 MSTORE PUSH1 0x20 ADD DUP4 DUP4 DUP1 DUP3 DUP5 CALLDATACOPY PUSH1 0x0 SWAP3 ADD SWAP2 SWAP1 SWAP2 MSTORE POP PUSH3 0x2B5B SWAP3 POP POP POP JUMP JUMPDEST DUP3 SLOAD PUSH1 0x40 MLOAD PUSH32 0x35714766E4544AFD4526BC1BBE6A503C6B0F871AB72FB6939BE49B8E3419E89E SWAP2 PUSH3 0x156C SWAP2 DUP9 SWAP2 DUP9 SWAP2 PUSH2 0x100 SWAP1 SWAP2 DIV PUSH1 0xFF AND SWAP1 PUSH3 0x3DEA JUMP JUMPDEST PUSH1 0x0 DUP1 SLOAD PUSH1 0x1 PUSH1 0x1 PUSH1 0xA0 SHL SUB AND CALLER EQ PUSH3 0x1FBE JUMPI PUSH1 0x40 MLOAD PUSH3 0x461BCD PUSH1 0xE5 SHL DUP2 MSTORE PUSH1 0x4 ADD PUSH3 0xB64 SWAP1 PUSH3 0x3F9B JUMP JUMPDEST PUSH3 0x1FC8 PUSH3 0x3269 JUMP JUMPDEST PUSH1 0x6 DUP5 DUP5 PUSH1 0x40 MLOAD PUSH3 0x1FDC SWAP3 SWAP2 SWAP1 PUSH3 0x3C84 JUMP JUMPDEST SWAP1 DUP2 MSTORE PUSH1 0x40 DUP1 MLOAD PUSH1 0x20 SWAP3 DUP2 SWAP1 SUB DUP4 ADD DUP2 KECCAK256 PUSH1 0xC0 DUP3 ADD DUP4 MSTORE DUP1 SLOAD PUSH1 0x1 PUSH1 0x1 PUSH1 0xA0 SHL SUB SWAP1 DUP2 AND DUP1 DUP5 MSTORE PUSH1 0x1 DUP4 ADD SLOAD DUP3 AND DUP7 DUP6 ADD MSTORE PUSH1 0x2 DUP4 ADD SLOAD SWAP1 SWAP2 AND DUP4 DUP6 ADD MSTORE PUSH1 0x3 DUP3 ADD SLOAD PUSH1 0x60 DUP5 ADD MSTORE PUSH1 0x4 DUP1 DUP4 ADD SLOAD PUSH1 0x80 DUP6 ADD MSTORE PUSH1 0x5 SWAP1 SWAP3 ADD SLOAD PUSH1 0xA0 DUP5 ADD MSTORE DUP4 MLOAD PUSH4 0x4E6630B PUSH1 0xE4 SHL DUP2 MSTORE SWAP4 MLOAD SWAP3 SWAP6 POP SWAP4 DUP5 SWAP4 PUSH4 0x4E6630B0 SWAP4 DUP2 DUP5 ADD SWAP4 SWAP1 SWAP2 DUP3 SWAP1 SUB ADD DUP2 DUP7 DUP1 EXTCODESIZE ISZERO DUP1 ISZERO PUSH3 0x206F JUMPI PUSH1 0x0 DUP1 REVERT JUMPDEST POP GAS STATICCALL ISZERO DUP1 ISZERO PUSH3 0x2084 JUMPI RETURNDATASIZE PUSH1 0x0 DUP1 RETURNDATACOPY RETURNDATASIZE PUSH1 0x0 REVERT JUMPDEST POP POP POP POP PUSH1 0x40 MLOAD RETURNDATASIZE PUSH1 0x1F NOT PUSH1 0x1F DUP3 ADD AND DUP3 ADD DUP1 PUSH1 0x40 MSTORE POP PUSH3 0x20AA SWAP2 SWAP1 DUP2 ADD SWAP1 PUSH3 0x3825 JUMP JUMPDEST SWAP6 SWAP5 POP POP POP POP POP JUMP JUMPDEST PUSH1 0x0 SLOAD PUSH1 0x1 PUSH1 0x1 PUSH1 0xA0 SHL SUB AND CALLER EQ PUSH3 0x20E0 JUMPI PUSH1 0x40 MLOAD PUSH3 0x461BCD PUSH1 0xE5 SHL DUP2 MSTORE PUSH1 0x4 ADD PUSH3 0xB64 SWAP1 PUSH3 0x3F9B JUMP JUMPDEST PUSH1 0x1 DUP1 SLOAD PUSH1 0x1 PUSH1 0x1 PUSH1 0xA0 SHL SUB NOT AND PUSH1 0x1 PUSH1 0x1 PUSH1 0xA0 SHL SUB SWAP3 SWAP1 SWAP3 AND SWAP2 SWAP1 SWAP2 OR SWAP1 SSTORE JUMP JUMPDEST DUP2 PUSH1 0x0 PUSH3 0x210F PUSH3 0x11B3 JUMP JUMPDEST SWAP1 POP PUSH3 0x211B PUSH3 0x32ED JUMP JUMPDEST PUSH1 0x5 DUP4 PUSH1 0x40 MLOAD PUSH3 0x212D SWAP2 SWAP1 PUSH3 0x3C93 JUMP JUMPDEST SWAP1 DUP2 MSTORE PUSH1 0x40 DUP1 MLOAD SWAP2 DUP3 SWAP1 SUB PUSH1 0x20 SWAP1 DUP2 ADD DUP4 KECCAK256 PUSH1 0x60 DUP5 ADD DUP4 MSTORE SLOAD PUSH1 0xFF DUP1 DUP3 AND ISZERO ISZERO DUP6 MSTORE PUSH2 0x100 DUP3 DIV DUP2 AND ISZERO ISZERO SWAP3 DUP6 ADD SWAP3 SWAP1 SWAP3 MSTORE PUSH3 0x10000 SWAP1 DIV AND ISZERO ISZERO SWAP1 DUP3 ADD MSTORE SWAP1 POP PUSH3 0x2178 PUSH3 0x31F6 JUMP JUMPDEST PUSH1 0x3 DUP5 PUSH1 0x40 MLOAD PUSH3 0x218A SWAP2 SWAP1 PUSH3 0x3C93 JUMP JUMPDEST SWAP1 DUP2 MSTORE PUSH1 0x40 DUP1 MLOAD PUSH1 0x20 SWAP3 DUP2 SWAP1 SUB DUP4 ADD DUP2 KECCAK256 DUP1 SLOAD PUSH1 0x2 PUSH1 0x1 DUP3 AND ISZERO PUSH2 0x100 MUL PUSH1 0x0 NOT ADD SWAP1 SWAP2 AND DIV PUSH1 0x1F DUP2 ADD DUP6 SWAP1 DIV SWAP1 SWAP5 MUL DUP3 ADD PUSH2 0x1A0 SWAP1 DUP2 ADD SWAP1 SWAP4 MSTORE PUSH2 0x180 DUP3 ADD DUP5 DUP2 MSTORE SWAP2 SWAP4 SWAP1 SWAP3 DUP5 SWAP3 SWAP2 DUP5 SWAP2 DUP5 ADD DUP3 DUP3 DUP1 ISZERO PUSH3 0x222B JUMPI DUP1 PUSH1 0x1F LT PUSH3 0x21FF JUMPI PUSH2 0x100 DUP1 DUP4 SLOAD DIV MUL DUP4 MSTORE SWAP2 PUSH1 0x20 ADD SWAP2 PUSH3 0x222B JUMP JUMPDEST DUP3 ADD SWAP2 SWAP1 PUSH1 0x0 MSTORE PUSH1 0x20 PUSH1 0x0 KECCAK256 SWAP1 JUMPDEST DUP2 SLOAD DUP2 MSTORE SWAP1 PUSH1 0x1 ADD SWAP1 PUSH1 0x20 ADD DUP1 DUP4 GT PUSH3 0x220D JUMPI DUP3 SWAP1 SUB PUSH1 0x1F AND DUP3 ADD SWAP2 JUMPDEST POP POP POP SWAP2 DUP4 MSTORE POP POP PUSH1 0x1 DUP3 DUP2 ADD SLOAD PUSH1 0x1 PUSH1 0x1 PUSH1 0xA0 SHL SUB SWAP1 DUP2 AND PUSH1 0x20 DUP1 DUP6 ADD SWAP2 SWAP1 SWAP2 MSTORE PUSH1 0x2 DUP1 DUP7 ADD SLOAD SWAP1 SWAP3 AND PUSH1 0x40 DUP1 DUP7 ADD SWAP2 SWAP1 SWAP2 MSTORE PUSH1 0x3 DUP7 ADD DUP1 SLOAD DUP3 MLOAD PUSH2 0x100 SWAP7 DUP3 AND ISZERO SWAP7 SWAP1 SWAP7 MUL PUSH1 0x0 NOT ADD AND SWAP4 SWAP1 SWAP4 DIV PUSH1 0x1F DUP2 ADD DUP4 SWAP1 DIV DUP4 MUL DUP6 ADD DUP4 ADD SWAP1 SWAP2 MSTORE DUP1 DUP5 MSTORE PUSH1 0x60 SWAP1 SWAP5 ADD SWAP4 SWAP1 DUP4 ADD DUP3 DUP3 DUP1 ISZERO PUSH3 0x22EA JUMPI DUP1 PUSH1 0x1F LT PUSH3 0x22BE JUMPI PUSH2 0x100 DUP1 DUP4 SLOAD DIV MUL DUP4 MSTORE SWAP2 PUSH1 0x20 ADD SWAP2 PUSH3 0x22EA JUMP JUMPDEST DUP3 ADD SWAP2 SWAP1 PUSH1 0x0 MSTORE PUSH1 0x20 PUSH1 0x0 KECCAK256 SWAP1 JUMPDEST DUP2 SLOAD DUP2 MSTORE SWAP1 PUSH1 0x1 ADD SWAP1 PUSH1 0x20 ADD DUP1 DUP4 GT PUSH3 0x22CC JUMPI DUP3 SWAP1 SUB PUSH1 0x1F AND DUP3 ADD SWAP2 JUMPDEST POP POP POP POP POP DUP2 MSTORE PUSH1 0x20 ADD PUSH1 0x4 DUP3 ADD SLOAD DUP2 MSTORE PUSH1 0x20 ADD PUSH1 0x5 DUP3 ADD SLOAD DUP2 MSTORE PUSH1 0x20 ADD PUSH1 0x6 DUP3 ADD SLOAD DUP2 MSTORE PUSH1 0x20 ADD PUSH1 0x7 DUP3 ADD SLOAD DUP2 MSTORE PUSH1 0x20 ADD PUSH1 0x8 DUP3 ADD SLOAD DUP2 MSTORE PUSH1 0x20 ADD PUSH1 0x9 DUP3 ADD SLOAD DUP2 MSTORE PUSH1 0x20 ADD PUSH1 0xA DUP3 ADD SLOAD DUP2 MSTORE PUSH1 0x20 ADD PUSH1 0xB DUP3 ADD SLOAD DUP2 MSTORE POP POP SWAP1 POP DUP2 PUSH1 0x40 ADD MLOAD DUP1 ISZERO PUSH3 0x2356 JUMPI POP DUP2 MLOAD ISZERO JUMPDEST PUSH3 0x2360 JUMPI PUSH1 0x0 DUP1 REVERT JUMPDEST DUP3 DUP2 PUSH1 0x80 ADD MLOAD LT PUSH3 0x2386 JUMPI PUSH1 0x40 MLOAD PUSH3 0x461BCD PUSH1 0xE5 SHL DUP2 MSTORE PUSH1 0x4 ADD PUSH3 0xB64 SWAP1 PUSH3 0x3F53 JUMP JUMPDEST DUP3 DUP2 PUSH1 0xA0 ADD MLOAD GT PUSH3 0x23AC JUMPI PUSH1 0x40 MLOAD PUSH3 0x461BCD PUSH1 0xE5 SHL DUP2 MSTORE PUSH1 0x4 ADD PUSH3 0xB64 SWAP1 PUSH3 0x3FE3 JUMP JUMPDEST PUSH1 0x0 CALLVALUE GT PUSH3 0x23CF JUMPI PUSH1 0x40 MLOAD PUSH3 0x461BCD PUSH1 0xE5 SHL DUP2 MSTORE PUSH1 0x4 ADD PUSH3 0xB64 SWAP1 PUSH3 0x3FD1 JUMP JUMPDEST PUSH3 0x23D9 PUSH3 0x32BA JUMP JUMPDEST PUSH1 0x40 MLOAD DUP1 PUSH1 0x80 ADD PUSH1 0x40 MSTORE DUP1 CALLER PUSH1 0x1 PUSH1 0x1 PUSH1 0xA0 SHL SUB AND DUP2 MSTORE PUSH1 0x20 ADD CALLVALUE DUP2 MSTORE PUSH1 0x20 ADD DUP8 DUP2 MSTORE PUSH1 0x20 ADD PUSH1 0x0 ISZERO ISZERO DUP2 MSTORE POP SWAP1 POP PUSH1 0x0 PUSH1 0x6 DUP9 PUSH1 0x40 MLOAD PUSH3 0x241C SWAP2 SWAP1 PUSH3 0x3C93 JUMP JUMPDEST SWAP1 DUP2 MSTORE PUSH1 0x40 DUP1 MLOAD PUSH1 0x20 SWAP3 DUP2 SWAP1 SUB DUP4 ADD DUP2 KECCAK256 SLOAD PUSH4 0x26B1D5F PUSH1 0xE0 SHL DUP3 MSTORE SWAP2 MLOAD PUSH1 0x1 PUSH1 0x1 PUSH1 0xA0 SHL SUB SWAP1 SWAP3 AND SWAP4 POP DUP4 SWAP3 PUSH4 0x26B1D5F SWAP3 PUSH1 0x4 DUP1 DUP5 ADD SWAP4 DUP3 SWAP1 SUB ADD DUP2 DUP7 DUP1 EXTCODESIZE ISZERO DUP1 ISZERO PUSH3 0x246A JUMPI PUSH1 0x0 DUP1 REVERT JUMPDEST POP GAS STATICCALL ISZERO DUP1 ISZERO PUSH3 0x247F JUMPI RETURNDATASIZE PUSH1 0x0 DUP1 RETURNDATACOPY RETURNDATASIZE PUSH1 0x0 REVERT JUMPDEST POP POP POP POP PUSH1 0x40 MLOAD RETURNDATASIZE PUSH1 0x1F NOT PUSH1 0x1F DUP3 ADD AND DUP3 ADD DUP1 PUSH1 0x40 MSTORE POP PUSH3 0x24A5 SWAP2 SWAP1 DUP2 ADD SWAP1 PUSH3 0x367A JUMP JUMPDEST PUSH1 0x1 PUSH1 0x1 PUSH1 0xA0 SHL SUB AND PUSH2 0x8FC CALLVALUE SWAP1 DUP2 ISZERO MUL SWAP1 PUSH1 0x40 MLOAD PUSH1 0x0 PUSH1 0x40 MLOAD DUP1 DUP4 SUB DUP2 DUP6 DUP9 DUP9 CALL SWAP4 POP POP POP POP ISZERO DUP1 ISZERO PUSH3 0x24DE JUMPI RETURNDATASIZE PUSH1 0x0 DUP1 RETURNDATACOPY RETURNDATASIZE PUSH1 0x0 REVERT JUMPDEST POP PUSH1 0x4 DUP9 PUSH1 0x40 MLOAD PUSH3 0x24F1 SWAP2 SWAP1 PUSH3 0x3C93 JUMP JUMPDEST SWAP1 DUP2 MSTORE PUSH1 0x40 DUP1 MLOAD PUSH1 0x20 SWAP3 DUP2 SWAP1 SUB DUP4 ADD DUP2 KECCAK256 DUP1 SLOAD PUSH1 0x1 DUP1 DUP3 ADD DUP4 SSTORE PUSH1 0x0 SWAP3 DUP4 MSTORE SWAP2 DUP6 SWAP1 KECCAK256 DUP8 MLOAD PUSH1 0x4 SWAP1 SWAP3 MUL ADD DUP1 SLOAD PUSH1 0x1 PUSH1 0x1 PUSH1 0xA0 SHL SUB NOT AND PUSH1 0x1 PUSH1 0x1 PUSH1 0xA0 SHL SUB SWAP1 SWAP3 AND SWAP2 SWAP1 SWAP2 OR DUP2 SSTORE SWAP4 DUP7 ADD MLOAD SWAP1 DUP5 ADD SSTORE SWAP1 DUP5 ADD MLOAD PUSH1 0x2 DUP4 ADD SSTORE PUSH1 0x60 DUP5 ADD MLOAD PUSH1 0x3 SWAP1 SWAP3 ADD DUP1 SLOAD PUSH1 0xFF NOT AND SWAP3 ISZERO ISZERO SWAP3 SWAP1 SWAP3 OR SWAP1 SWAP2 SSTORE PUSH32 0x5FEC6C2D2D376AA6F4C793E34F6CC71D65285BD07D1E709292FAFC2B28BF2FBE SWAP1 PUSH3 0x2597 SWAP1 DUP11 SWAP1 CALLER SWAP1 CALLVALUE SWAP1 PUSH3 0x3E22 JUMP JUMPDEST PUSH1 0x40 MLOAD DUP1 SWAP2 SUB SWAP1 LOG1 POP POP POP POP POP POP POP POP JUMP JUMPDEST PUSH1 0x0 PUSH3 0x25B5 PUSH3 0x31D4 JUMP JUMPDEST SWAP1 POP DUP1 CALLVALUE LT ISZERO PUSH3 0x25DA JUMPI PUSH1 0x40 MLOAD PUSH3 0x461BCD PUSH1 0xE5 SHL DUP2 MSTORE PUSH1 0x4 ADD PUSH3 0xB64 SWAP1 PUSH3 0x4019 JUMP JUMPDEST PUSH1 0x0 PUSH3 0x25E6 PUSH3 0x11B3 JUMP JUMPDEST SWAP1 POP PUSH3 0x25F2 PUSH3 0x31F6 JUMP JUMPDEST PUSH1 0x3 DUP5 PUSH1 0x40 MLOAD PUSH3 0x2604 SWAP2 SWAP1 PUSH3 0x3C93 JUMP JUMPDEST SWAP1 DUP2 MSTORE PUSH1 0x40 DUP1 MLOAD PUSH1 0x20 SWAP3 DUP2 SWAP1 SUB DUP4 ADD DUP2 KECCAK256 DUP1 SLOAD PUSH1 0x2 PUSH1 0x1 DUP3 AND ISZERO PUSH2 0x100 MUL PUSH1 0x0 NOT ADD SWAP1 SWAP2 AND DIV PUSH1 0x1F DUP2 ADD DUP6 SWAP1 DIV SWAP1 SWAP5 MUL DUP3 ADD PUSH2 0x1A0 SWAP1 DUP2 ADD SWAP1 SWAP4 MSTORE PUSH2 0x180 DUP3 ADD DUP5 DUP2 MSTORE SWAP2 SWAP4 SWAP1 SWAP3 DUP5 SWAP3 SWAP2 DUP5 SWAP2 DUP5 ADD DUP3 DUP3 DUP1 ISZERO PUSH3 0x26A5 JUMPI DUP1 PUSH1 0x1F LT PUSH3 0x2679 JUMPI PUSH2 0x100 DUP1 DUP4 SLOAD DIV MUL DUP4 MSTORE SWAP2 PUSH1 0x20 ADD SWAP2 PUSH3 0x26A5 JUMP JUMPDEST DUP3 ADD SWAP2 SWAP1 PUSH1 0x0 MSTORE PUSH1 0x20 PUSH1 0x0 KECCAK256 SWAP1 JUMPDEST DUP2 SLOAD DUP2 MSTORE SWAP1 PUSH1 0x1 ADD SWAP1 PUSH1 0x20 ADD DUP1 DUP4 GT PUSH3 0x2687 JUMPI DUP3 SWAP1 SUB PUSH1 0x1F AND DUP3 ADD SWAP2 JUMPDEST POP POP POP SWAP2 DUP4 MSTORE POP POP PUSH1 0x1 DUP3 DUP2 ADD SLOAD PUSH1 0x1 PUSH1 0x1 PUSH1 0xA0 SHL SUB SWAP1 DUP2 AND PUSH1 0x20 DUP1 DUP6 ADD SWAP2 SWAP1 SWAP2 MSTORE PUSH1 0x2 DUP1 DUP7 ADD SLOAD SWAP1 SWAP3 AND PUSH1 0x40 DUP1 DUP7 ADD SWAP2 SWAP1 SWAP2 MSTORE PUSH1 0x3 DUP7 ADD DUP1 SLOAD DUP3 MLOAD PUSH2 0x100 SWAP7 DUP3 AND ISZERO SWAP7 SWAP1 SWAP7 MUL PUSH1 0x0 NOT ADD AND SWAP4 SWAP1 SWAP4 DIV PUSH1 0x1F DUP2 ADD DUP4 SWAP1 DIV DUP4 MUL DUP6 ADD DUP4 ADD SWAP1 SWAP2 MSTORE DUP1 DUP5 MSTORE PUSH1 0x60 SWAP1 SWAP5 ADD SWAP4 SWAP1 DUP4 ADD DUP3 DUP3 DUP1 ISZERO PUSH3 0x2764 JUMPI DUP1 PUSH1 0x1F LT PUSH3 0x2738 JUMPI PUSH2 0x100 DUP1 DUP4 SLOAD DIV MUL DUP4 MSTORE SWAP2 PUSH1 0x20 ADD SWAP2 PUSH3 0x2764 JUMP JUMPDEST DUP3 ADD SWAP2 SWAP1 PUSH1 0x0 MSTORE PUSH1 0x20 PUSH1 0x0 KECCAK256 SWAP1 JUMPDEST DUP2 SLOAD DUP2 MSTORE SWAP1 PUSH1 0x1 ADD SWAP1 PUSH1 0x20 ADD DUP1 DUP4 GT PUSH3 0x2746 JUMPI DUP3 SWAP1 SUB PUSH1 0x1F AND DUP3 ADD SWAP2 JUMPDEST POP POP POP POP POP DUP2 MSTORE PUSH1 0x20 ADD PUSH1 0x4 DUP3 ADD SLOAD DUP2 MSTORE PUSH1 0x20 ADD PUSH1 0x5 DUP3 ADD SLOAD DUP2 MSTORE PUSH1 0x20 ADD PUSH1 0x6 DUP3 ADD SLOAD DUP2 MSTORE PUSH1 0x20 ADD PUSH1 0x7 DUP3 ADD SLOAD DUP2 MSTORE PUSH1 0x20 ADD PUSH1 0x8 DUP3 ADD SLOAD DUP2 MSTORE PUSH1 0x20 ADD PUSH1 0x9 DUP3 ADD SLOAD DUP2 MSTORE PUSH1 0x20 ADD PUSH1 0xA DUP3 ADD SLOAD DUP2 MSTORE PUSH1 0x20 ADD PUSH1 0xB DUP3 ADD SLOAD DUP2 MSTORE POP POP SWAP1 POP DUP2 DUP2 PUSH1 0x80 ADD MLOAD LT PUSH3 0x27E5 JUMPI PUSH1 0x40 MLOAD PUSH3 0x461BCD PUSH1 0xE5 SHL DUP2 MSTORE PUSH1 0x4 ADD PUSH3 0xB64 SWAP1 PUSH3 0x3F53 JUMP JUMPDEST DUP2 DUP2 PUSH1 0xA0 ADD MLOAD GT PUSH3 0x280B JUMPI PUSH1 0x40 MLOAD PUSH3 0x461BCD PUSH1 0xE5 SHL DUP2 MSTORE PUSH1 0x4 ADD PUSH3 0xB64 SWAP1 PUSH3 0x3FE3 JUMP JUMPDEST PUSH3 0x2815 PUSH3 0x32ED JUMP JUMPDEST PUSH1 0x5 DUP6 PUSH1 0x40 MLOAD PUSH3 0x2827 SWAP2 SWAP1 PUSH3 0x3C93 JUMP JUMPDEST SWAP1 DUP2 MSTORE PUSH1 0x40 DUP1 MLOAD SWAP2 DUP3 SWAP1 SUB PUSH1 0x20 SWAP1 DUP2 ADD DUP4 KECCAK256 PUSH1 0x60 DUP5 ADD DUP4 MSTORE SLOAD PUSH1 0xFF DUP1 DUP3 AND ISZERO ISZERO DUP6 MSTORE PUSH2 0x100 DUP3 DIV DUP2 AND ISZERO ISZERO SWAP3 DUP6 ADD SWAP3 SWAP1 SWAP3 MSTORE PUSH3 0x10000 SWAP1 DIV AND ISZERO DUP1 ISZERO SWAP2 DUP4 ADD SWAP2 SWAP1 SWAP2 MSTORE SWAP1 SWAP2 POP PUSH3 0x288C JUMPI PUSH1 0x40 MLOAD PUSH3 0x461BCD PUSH1 0xE5 SHL DUP2 MSTORE PUSH1 0x4 ADD PUSH3 0xB64 SWAP1 PUSH3 0x3FBF JUMP JUMPDEST PUSH1 0x0 PUSH1 0x6 DUP7 PUSH1 0x40 MLOAD PUSH3 0x28A0 SWAP2 SWAP1 PUSH3 0x3C93 JUMP JUMPDEST SWAP1 DUP2 MSTORE PUSH1 0x40 DUP1 MLOAD PUSH1 0x20 SWAP3 DUP2 SWAP1 SUB DUP4 ADD DUP2 KECCAK256 DUP1 SLOAD PUSH4 0x26B1D5F PUSH1 0xE0 SHL DUP4 MSTORE SWAP3 MLOAD SWAP1 SWAP5 POP PUSH1 0x1 PUSH1 0x1 PUSH1 0xA0 SHL SUB SWAP1 SWAP3 AND SWAP3 DUP4 SWAP3 PUSH4 0x26B1D5F SWAP3 PUSH1 0x4 DUP1 DUP3 ADD SWAP4 SWAP3 SWAP2 DUP3 SWAP1 SUB ADD DUP2 DUP7 DUP1 EXTCODESIZE ISZERO DUP1 ISZERO PUSH3 0x28F3 JUMPI PUSH1 0x0 DUP1 REVERT JUMPDEST POP GAS STATICCALL ISZERO DUP1 ISZERO PUSH3 0x2908 JUMPI RETURNDATASIZE PUSH1 0x0 DUP1 RETURNDATACOPY RETURNDATASIZE PUSH1 0x0 REVERT JUMPDEST POP POP POP POP PUSH1 0x40 MLOAD RETURNDATASIZE PUSH1 0x1F NOT PUSH1 0x1F DUP3 ADD AND DUP3 ADD DUP1 PUSH1 0x40 MSTORE POP PUSH3 0x292E SWAP2 SWAP1 DUP2 ADD SWAP1 PUSH3 0x367A JUMP JUMPDEST PUSH1 0x1 PUSH1 0x1 PUSH1 0xA0 SHL SUB AND PUSH2 0x8FC DUP8 SWAP1 DUP2 ISZERO MUL SWAP1 PUSH1 0x40 MLOAD PUSH1 0x0 PUSH1 0x40 MLOAD DUP1 DUP4 SUB DUP2 DUP6 DUP9 DUP9 CALL SWAP4 POP POP POP POP ISZERO DUP1 ISZERO PUSH3 0x2967 JUMPI RETURNDATASIZE PUSH1 0x0 DUP1 RETURNDATACOPY RETURNDATASIZE PUSH1 0x0 REVERT JUMPDEST POP PUSH1 0x1 DUP3 ADD SLOAD PUSH1 0x40 DUP1 MLOAD PUSH4 0x26B1D5F PUSH1 0xE0 SHL DUP2 MSTORE SWAP1 MLOAD PUSH1 0x1 PUSH1 0x1 PUSH1 0xA0 SHL SUB SWAP3 DUP4 AND SWAP3 DUP4 SWAP3 PUSH4 0x23B872DD SWAP3 CALLER SWAP3 DUP8 AND SWAP2 PUSH4 0x26B1D5F SWAP2 PUSH1 0x4 DUP1 DUP4 ADD SWAP3 PUSH1 0x20 SWAP3 SWAP2 SWAP1 DUP3 SWAP1 SUB ADD DUP2 DUP7 DUP1 EXTCODESIZE ISZERO DUP1 ISZERO PUSH3 0x29BC JUMPI PUSH1 0x0 DUP1 REVERT JUMPDEST POP GAS STATICCALL ISZERO DUP1 ISZERO PUSH3 0x29D1 JUMPI RETURNDATASIZE PUSH1 0x0 DUP1 RETURNDATACOPY RETURNDATASIZE PUSH1 0x0 REVERT JUMPDEST POP POP POP POP PUSH1 0x40 MLOAD RETURNDATASIZE PUSH1 0x1F NOT PUSH1 0x1F DUP3 ADD AND DUP3 ADD DUP1 PUSH1 0x40 MSTORE POP PUSH3 0x29F7 SWAP2 SWAP1 DUP2 ADD SWAP1 PUSH3 0x367A JUMP JUMPDEST DUP9 PUSH2 0x160 ADD MLOAD PUSH1 0x40 MLOAD DUP5 PUSH4 0xFFFFFFFF AND PUSH1 0xE0 SHL DUP2 MSTORE PUSH1 0x4 ADD PUSH3 0x2A1D SWAP4 SWAP3 SWAP2 SWAP1 PUSH3 0x3CA8 JUMP JUMPDEST PUSH1 0x20 PUSH1 0x40 MLOAD DUP1 DUP4 SUB DUP2 PUSH1 0x0 DUP8 DUP1 EXTCODESIZE ISZERO DUP1 ISZERO PUSH3 0x2A38 JUMPI PUSH1 0x0 DUP1 REVERT JUMPDEST POP GAS CALL ISZERO DUP1 ISZERO PUSH3 0x2A4D JUMPI RETURNDATASIZE PUSH1 0x0 DUP1 RETURNDATACOPY RETURNDATASIZE PUSH1 0x0 REVERT JUMPDEST POP POP POP POP PUSH1 0x40 MLOAD RETURNDATASIZE PUSH1 0x1F NOT PUSH1 0x1F DUP3 ADD AND DUP3 ADD DUP1 PUSH1 0x40 MSTORE POP PUSH3 0x2A73 SWAP2 SWAP1 DUP2 ADD SWAP1 PUSH3 0x369B JUMP JUMPDEST POP PUSH1 0x1 PUSH1 0x40 DUP1 DUP7 ADD SWAP2 SWAP1 SWAP2 MSTORE MLOAD DUP5 SWAP1 PUSH1 0x5 SWAP1 PUSH3 0x2A92 SWAP1 DUP12 SWAP1 PUSH3 0x3C93 JUMP JUMPDEST SWAP1 DUP2 MSTORE PUSH1 0x40 DUP1 MLOAD SWAP2 DUP3 SWAP1 SUB PUSH1 0x20 SWAP1 DUP2 ADD DUP4 KECCAK256 DUP5 MLOAD DUP2 SLOAD SWAP3 DUP7 ADD MLOAD SWAP6 SWAP1 SWAP4 ADD MLOAD ISZERO ISZERO PUSH3 0x10000 MUL PUSH3 0xFF0000 NOT SWAP6 ISZERO ISZERO PUSH2 0x100 MUL PUSH2 0xFF00 NOT SWAP5 ISZERO ISZERO PUSH1 0xFF NOT SWAP1 SWAP5 AND SWAP4 SWAP1 SWAP4 OR SWAP4 SWAP1 SWAP4 AND SWAP2 SWAP1 SWAP2 OR SWAP4 SWAP1 SWAP4 AND OR SWAP1 SWAP2 SSTORE PUSH1 0x2 DUP5 ADD DUP1 SLOAD PUSH1 0x1 PUSH1 0x1 PUSH1 0xA0 SHL SUB NOT AND CALLER OR SWAP1 SSTORE PUSH32 0x44EC18E6FB6C9893AA22A7236ADD99D912E21075F568B1F65C6B3D7A65E285D8 SWAP1 PUSH3 0x2597 SWAP1 DUP11 SWAP1 PUSH3 0x3E0F JUMP JUMPDEST DUP1 MLOAD PUSH1 0x20 DUP2 DUP4 ADD DUP2 ADD DUP1 MLOAD PUSH1 0x5 DUP3 MSTORE SWAP3 DUP3 ADD SWAP2 SWAP1 SWAP4 ADD KECCAK256 SWAP2 MSTORE SLOAD PUSH1 0xFF DUP1 DUP3 AND SWAP2 PUSH2 0x100 DUP2 DIV DUP3 AND SWAP2 PUSH3 0x10000 SWAP1 SWAP2 DIV AND DUP4 JUMP JUMPDEST DUP1 MLOAD PUSH3 0x2B7C JUMPI PUSH1 0x40 MLOAD PUSH3 0x461BCD PUSH1 0xE5 SHL DUP2 MSTORE PUSH1 0x4 ADD PUSH3 0xB64 SWAP1 PUSH3 0x4007 JUMP JUMPDEST PUSH3 0x2B86 PUSH3 0x3269 JUMP JUMPDEST PUSH1 0x6 DUP3 PUSH1 0x40 MLOAD PUSH3 0x2B98 SWAP2 SWAP1 PUSH3 0x3C93 JUMP JUMPDEST SWAP1 DUP2 MSTORE PUSH1 0x40 DUP1 MLOAD PUSH1 0x20 SWAP3 DUP2 SWAP1 SUB DUP4 ADD DUP2 KECCAK256 PUSH1 0xC0 DUP3 ADD DUP4 MSTORE DUP1 SLOAD PUSH1 0x1 PUSH1 0x1 PUSH1 0xA0 SHL SUB SWAP1 DUP2 AND DUP1 DUP5 MSTORE PUSH1 0x1 DUP4 ADD SLOAD DUP3 AND SWAP6 DUP5 ADD SWAP6 SWAP1 SWAP6 MSTORE PUSH1 0x2 DUP3 ADD SLOAD AND DUP3 DUP5 ADD MSTORE PUSH1 0x3 DUP2 ADD SLOAD PUSH1 0x60 DUP4 ADD MSTORE PUSH1 0x4 DUP1 DUP3 ADD SLOAD PUSH1 0x80 DUP5 ADD MSTORE PUSH1 0x5 SWAP1 SWAP2 ADD SLOAD PUSH1 0xA0 DUP4 ADD MSTORE DUP3 MLOAD PUSH4 0x7D8F3531 PUSH1 0xE1 SHL DUP2 MSTORE SWAP3 MLOAD SWAP2 SWAP5 POP DUP4 SWAP3 PUSH4 0xFB1E6A62 SWAP3 DUP2 DUP4 ADD SWAP3 PUSH1 0x0 SWAP3 DUP3 SWAP1 SUB ADD DUP2 DUP7 DUP1 EXTCODESIZE ISZERO DUP1 ISZERO PUSH3 0x2C2C JUMPI PUSH1 0x0 DUP1 REVERT JUMPDEST POP GAS STATICCALL ISZERO DUP1 ISZERO PUSH3 0x2C41 JUMPI RETURNDATASIZE PUSH1 0x0 DUP1 RETURNDATACOPY RETURNDATASIZE PUSH1 0x0 REVERT JUMPDEST POP POP POP POP PUSH1 0x40 MLOAD RETURNDATASIZE PUSH1 0x0 DUP3 RETURNDATACOPY PUSH1 0x1F RETURNDATASIZE SWAP1 DUP2 ADD PUSH1 0x1F NOT AND DUP3 ADD PUSH1 0x40 MSTORE PUSH3 0x2C6B SWAP2 SWAP1 DUP2 ADD SWAP1 PUSH3 0x373B JUMP JUMPDEST MLOAD PUSH3 0x2C8B JUMPI PUSH1 0x40 MLOAD PUSH3 0x461BCD PUSH1 0xE5 SHL DUP2 MSTORE PUSH1 0x4 ADD PUSH3 0xB64 SWAP1 PUSH3 0x3F89 JUMP JUMPDEST PUSH1 0x40 DUP3 ADD MLOAD PUSH1 0x1 PUSH1 0x1 PUSH1 0xA0 SHL SUB AND PUSH3 0x2CB8 JUMPI PUSH1 0x40 MLOAD PUSH3 0x461BCD PUSH1 0xE5 SHL DUP2 MSTORE PUSH1 0x4 ADD PUSH3 0xB64 SWAP1 PUSH3 0x3FF5 JUMP JUMPDEST PUSH1 0x0 JUMPDEST PUSH1 0x4 DUP5 PUSH1 0x40 MLOAD PUSH3 0x2CCD SWAP2 SWAP1 PUSH3 0x3C93 JUMP JUMPDEST SWAP1 DUP2 MSTORE PUSH1 0x40 MLOAD SWAP1 DUP2 SWAP1 SUB PUSH1 0x20 ADD SWAP1 KECCAK256 SLOAD DUP2 LT ISZERO PUSH3 0x2DA9 JUMPI PUSH1 0x0 PUSH1 0x4 DUP6 PUSH1 0x40 MLOAD PUSH3 0x2CF9 SWAP2 SWAP1 PUSH3 0x3C93 JUMP JUMPDEST SWAP1 DUP2 MSTORE PUSH1 0x20 ADD PUSH1 0x40 MLOAD DUP1 SWAP2 SUB SWAP1 KECCAK256 DUP3 DUP2 SLOAD DUP2 LT PUSH3 0x2D13 JUMPI INVALID JUMPDEST PUSH1 0x0 SWAP2 DUP3 MSTORE PUSH1 0x20 SWAP1 SWAP2 KECCAK256 PUSH1 0x4 SWAP2 DUP3 MUL ADD DUP1 SLOAD PUSH1 0x1 DUP3 ADD SLOAD PUSH1 0x40 MLOAD PUSH4 0x4F95A04B PUSH1 0xE0 SHL DUP2 MSTORE SWAP3 SWAP5 POP PUSH1 0x1 PUSH1 0x1 PUSH1 0xA0 SHL SUB DUP1 DUP9 AND SWAP5 PUSH4 0x4F95A04B SWAP5 PUSH3 0x2D5D SWAP5 SWAP1 SWAP3 AND SWAP3 SWAP2 ADD PUSH3 0x3CD6 JUMP JUMPDEST PUSH1 0x0 PUSH1 0x40 MLOAD DUP1 DUP4 SUB DUP2 PUSH1 0x0 DUP8 DUP1 EXTCODESIZE ISZERO DUP1 ISZERO PUSH3 0x2D78 JUMPI PUSH1 0x0 DUP1 REVERT JUMPDEST POP GAS CALL ISZERO DUP1 ISZERO PUSH3 0x2D8D JUMPI RETURNDATASIZE PUSH1 0x0 DUP1 RETURNDATACOPY RETURNDATASIZE PUSH1 0x0 REVERT JUMPDEST POP POP POP POP PUSH1 0x3 ADD DUP1 SLOAD PUSH1 0xFF NOT AND PUSH1 0x1 SWAP1 DUP2 OR SWAP1 SWAP2 SSTORE ADD PUSH3 0x2CBB JUMP JUMPDEST POP PUSH3 0x2DB4 PUSH3 0x31F6 JUMP JUMPDEST PUSH1 0x3 DUP5 PUSH1 0x40 MLOAD PUSH3 0x2DC6 SWAP2 SWAP1 PUSH3 0x3C93 JUMP JUMPDEST SWAP1 DUP2 MSTORE PUSH1 0x40 DUP1 MLOAD PUSH1 0x20 SWAP3 DUP2 SWAP1 SUB DUP4 ADD DUP2 KECCAK256 DUP1 SLOAD PUSH1 0x2 PUSH1 0x1 DUP3 AND ISZERO PUSH2 0x100 MUL PUSH1 0x0 NOT ADD SWAP1 SWAP2 AND DIV PUSH1 0x1F DUP2 ADD DUP6 SWAP1 DIV SWAP1 SWAP5 MUL DUP3 ADD PUSH2 0x1A0 SWAP1 DUP2 ADD SWAP1 SWAP4 MSTORE PUSH2 0x180 DUP3 ADD DUP5 DUP2 MSTORE SWAP2 SWAP4 SWAP1 SWAP3 DUP5 SWAP3 SWAP2 DUP5 SWAP2 DUP5 ADD DUP3 DUP3 DUP1 ISZERO PUSH3 0x2E67 JUMPI DUP1 PUSH1 0x1F LT PUSH3 0x2E3B JUMPI PUSH2 0x100 DUP1 DUP4 SLOAD DIV MUL DUP4 MSTORE SWAP2 PUSH1 0x20 ADD SWAP2 PUSH3 0x2E67 JUMP JUMPDEST DUP3 ADD SWAP2 SWAP1 PUSH1 0x0 MSTORE PUSH1 0x20 PUSH1 0x0 KECCAK256 SWAP1 JUMPDEST DUP2 SLOAD DUP2 MSTORE SWAP1 PUSH1 0x1 ADD SWAP1 PUSH1 0x20 ADD DUP1 DUP4 GT PUSH3 0x2E49 JUMPI DUP3 SWAP1 SUB PUSH1 0x1F AND DUP3 ADD SWAP2 JUMPDEST POP POP POP SWAP2 DUP4 MSTORE POP POP PUSH1 0x1 DUP3 DUP2 ADD SLOAD PUSH1 0x1 PUSH1 0x1 PUSH1 0xA0 SHL SUB SWAP1 DUP2 AND PUSH1 0x20 DUP1 DUP6 ADD SWAP2 SWAP1 SWAP2 MSTORE PUSH1 0x2 DUP1 DUP7 ADD SLOAD SWAP1 SWAP3 AND PUSH1 0x40 DUP1 DUP7 ADD SWAP2 SWAP1 SWAP2 MSTORE PUSH1 0x3 DUP7 ADD DUP1 SLOAD DUP3 MLOAD PUSH2 0x100 SWAP7 DUP3 AND ISZERO SWAP7 SWAP1 SWAP7 MUL PUSH1 0x0 NOT ADD AND SWAP4 SWAP1 SWAP4 DIV PUSH1 0x1F DUP2 ADD DUP4 SWAP1 DIV DUP4 MUL DUP6 ADD DUP4 ADD SWAP1 SWAP2 MSTORE DUP1 DUP5 MSTORE PUSH1 0x60 SWAP1 SWAP5 ADD SWAP4 SWAP1 DUP4 ADD DUP3 DUP3 DUP1 ISZERO PUSH3 0x2F26 JUMPI DUP1 PUSH1 0x1F LT PUSH3 0x2EFA JUMPI PUSH2 0x100 DUP1 DUP4 SLOAD DIV MUL DUP4 MSTORE SWAP2 PUSH1 0x20 ADD SWAP2 PUSH3 0x2F26 JUMP JUMPDEST DUP3 ADD SWAP2 SWAP1 PUSH1 0x0 MSTORE PUSH1 0x20 PUSH1 0x0 KECCAK256 SWAP1 JUMPDEST DUP2 SLOAD DUP2 MSTORE SWAP1 PUSH1 0x1 ADD SWAP1 PUSH1 0x20 ADD DUP1 DUP4 GT PUSH3 0x2F08 JUMPI DUP3 SWAP1 SUB PUSH1 0x1F AND DUP3 ADD SWAP2 JUMPDEST POP POP POP POP POP DUP2 MSTORE PUSH1 0x20 ADD PUSH1 0x4 DUP3 ADD SLOAD DUP2 MSTORE PUSH1 0x20 ADD PUSH1 0x5 DUP3 ADD SLOAD DUP2 MSTORE PUSH1 0x20 ADD PUSH1 0x6 DUP3 ADD SLOAD DUP2 MSTORE PUSH1 0x20 ADD PUSH1 0x7 DUP3 ADD SLOAD DUP2 MSTORE PUSH1 0x20 ADD PUSH1 0x8 DUP3 ADD SLOAD DUP2 MSTORE PUSH1 0x20 ADD PUSH1 0x9 DUP3 ADD SLOAD DUP2 MSTORE PUSH1 0x20 ADD PUSH1 0xA DUP3 ADD SLOAD DUP2 MSTORE PUSH1 0x20 ADD PUSH1 0xB DUP3 ADD SLOAD DUP2 MSTORE POP POP SWAP1 POP PUSH1 0x0 DUP4 PUSH1 0x20 ADD MLOAD SWAP1 POP DUP3 PUSH1 0x1 PUSH1 0x1 PUSH1 0xA0 SHL SUB AND PUSH4 0xE1F21C67 DUP3 ADDRESS DUP6 PUSH2 0x160 ADD MLOAD PUSH1 0x40 MLOAD DUP5 PUSH4 0xFFFFFFFF AND PUSH1 0xE0 SHL DUP2 MSTORE PUSH1 0x4 ADD PUSH3 0x2FC1 SWAP4 SWAP3 SWAP2 SWAP1 PUSH3 0x3DCB JUMP JUMPDEST PUSH1 0x0 PUSH1 0x40 MLOAD DUP1 DUP4 SUB DUP2 PUSH1 0x0 DUP8 DUP1 EXTCODESIZE ISZERO DUP1 ISZERO PUSH3 0x2FDC JUMPI PUSH1 0x0 DUP1 REVERT JUMPDEST POP GAS CALL ISZERO DUP1 ISZERO PUSH3 0x2FF1 JUMPI RETURNDATASIZE PUSH1 0x0 DUP1 RETURNDATACOPY RETURNDATASIZE PUSH1 0x0 REVERT JUMPDEST POP POP POP POP DUP1 PUSH1 0x1 PUSH1 0x1 PUSH1 0xA0 SHL SUB AND PUSH4 0x23B872DD DUP5 PUSH1 0x1 PUSH1 0x1 PUSH1 0xA0 SHL SUB AND PUSH4 0x26B1D5F PUSH1 0x40 MLOAD DUP2 PUSH4 0xFFFFFFFF AND PUSH1 0xE0 SHL DUP2 MSTORE PUSH1 0x4 ADD PUSH1 0x20 PUSH1 0x40 MLOAD DUP1 DUP4 SUB DUP2 DUP7 DUP1 EXTCODESIZE ISZERO DUP1 ISZERO PUSH3 0x303E JUMPI PUSH1 0x0 DUP1 REVERT JUMPDEST POP GAS STATICCALL ISZERO DUP1 ISZERO PUSH3 0x3053 JUMPI RETURNDATASIZE PUSH1 0x0 DUP1 RETURNDATACOPY RETURNDATASIZE PUSH1 0x0 REVERT JUMPDEST POP POP POP POP PUSH1 0x40 MLOAD RETURNDATASIZE PUSH1 0x1F NOT PUSH1 0x1F DUP3 ADD AND DUP3 ADD DUP1 PUSH1 0x40 MSTORE POP PUSH3 0x3079 SWAP2 SWAP1 DUP2 ADD SWAP1 PUSH3 0x367A JUMP JUMPDEST DUP7 PUSH1 0x40 ADD MLOAD DUP6 PUSH2 0x160 ADD MLOAD PUSH1 0x40 MLOAD DUP5 PUSH4 0xFFFFFFFF AND PUSH1 0xE0 SHL DUP2 MSTORE PUSH1 0x4 ADD PUSH3 0x30A4 SWAP4 SWAP3 SWAP2 SWAP1 PUSH3 0x3CA8 JUMP JUMPDEST PUSH1 0x20 PUSH1 0x40 MLOAD DUP1 DUP4 SUB DUP2 PUSH1 0x0 DUP8 DUP1 EXTCODESIZE ISZERO DUP1 ISZERO PUSH3 0x30BF JUMPI PUSH1 0x0 DUP1 REVERT JUMPDEST POP GAS CALL ISZERO DUP1 ISZERO PUSH3 0x30D4 JUMPI RETURNDATASIZE PUSH1 0x0 DUP1 RETURNDATACOPY RETURNDATASIZE PUSH1 0x0 REVERT JUMPDEST POP POP POP POP PUSH1 0x40 MLOAD RETURNDATASIZE PUSH1 0x1F NOT PUSH1 0x1F DUP3 ADD AND DUP3 ADD DUP1 PUSH1 0x40 MSTORE POP PUSH3 0x30FA SWAP2 SWAP1 DUP2 ADD SWAP1 PUSH3 0x369B JUMP JUMPDEST POP POP POP POP POP POP JUMP JUMPDEST DUP1 DUP3 SUB DUP3 DUP2 GT ISZERO PUSH3 0xED4 JUMPI PUSH1 0x40 MLOAD PUSH3 0x461BCD PUSH1 0xE5 SHL DUP2 MSTORE PUSH1 0x4 ADD PUSH3 0xB64 SWAP1 PUSH3 0x3F41 JUMP JUMPDEST PUSH1 0x0 DUP1 DUP3 GT PUSH3 0x314C JUMPI PUSH1 0x40 MLOAD PUSH3 0x461BCD PUSH1 0xE5 SHL DUP2 MSTORE PUSH1 0x4 ADD PUSH3 0xB64 SWAP1 PUSH3 0x3FAD JUMP JUMPDEST DUP2 DUP4 DUP2 PUSH3 0x3156 JUMPI INVALID JUMPDEST DIV SWAP4 SWAP3 POP POP POP JUMP JUMPDEST DUP1 DUP3 ADD DUP3 DUP2 LT ISZERO PUSH3 0xED4 JUMPI PUSH1 0x40 MLOAD PUSH3 0x461BCD PUSH1 0xE5 SHL DUP2 MSTORE PUSH1 0x4 ADD PUSH3 0xB64 SWAP1 PUSH3 0x3F77 JUMP JUMPDEST PUSH1 0x0 DUP2 ISZERO DUP1 PUSH3 0x31A1 JUMPI POP POP DUP1 DUP3 MUL DUP3 DUP3 DUP3 DUP2 PUSH3 0x319E JUMPI INVALID JUMPDEST DIV EQ JUMPDEST PUSH3 0xED4 JUMPI PUSH1 0x40 MLOAD PUSH3 0x461BCD PUSH1 0xE5 SHL DUP2 MSTORE PUSH1 0x4 ADD PUSH3 0xB64 SWAP1 PUSH3 0x3F65 JUMP JUMPDEST PUSH1 0x0 DUP2 PUSH3 0x31CD PUSH3 0x11B3 JUMP JUMPDEST ADD SWAP3 SWAP2 POP POP JUMP JUMPDEST PUSH1 0x0 PUSH1 0x2 SLOAD PUSH1 0x0 EQ ISZERO PUSH3 0x31EF JUMPI PUSH8 0x16345785D8A0000 PUSH1 0x2 SSTORE JUMPDEST POP PUSH1 0x2 SLOAD SWAP1 JUMP JUMPDEST PUSH1 0x40 MLOAD DUP1 PUSH2 0x180 ADD PUSH1 0x40 MSTORE DUP1 PUSH1 0x60 DUP2 MSTORE PUSH1 0x20 ADD PUSH1 0x0 PUSH1 0x1 PUSH1 0x1 PUSH1 0xA0 SHL SUB AND DUP2 MSTORE PUSH1 0x20 ADD PUSH1 0x0 PUSH1 0x1 PUSH1 0x1 PUSH1 0xA0 SHL SUB AND DUP2 MSTORE PUSH1 0x20 ADD PUSH1 0x60 DUP2 MSTORE PUSH1 0x20 ADD PUSH1 0x0 DUP2 MSTORE PUSH1 0x20 ADD PUSH1 0x0 DUP2 MSTORE PUSH1 0x20 ADD PUSH1 0x0 DUP2 MSTORE PUSH1 0x20 ADD PUSH1 0x0 DUP2 MSTORE PUSH1 0x20 ADD PUSH1 0x0 DUP2 MSTORE PUSH1 0x20 ADD PUSH1 0x0 DUP2 MSTORE PUSH1 0x20 ADD PUSH1 0x0 DUP2 MSTORE PUSH1 0x20 ADD PUSH1 0x0 DUP2 MSTORE POP SWAP1 JUMP JUMPDEST PUSH1 0x40 MLOAD DUP1 PUSH1 0xC0 ADD PUSH1 0x40 MSTORE DUP1 PUSH1 0x0 PUSH1 0x1 PUSH1 0x1 PUSH1 0xA0 SHL SUB AND DUP2 MSTORE PUSH1 0x20 ADD PUSH1 0x0 PUSH1 0x1 PUSH1 0x1 PUSH1 0xA0 SHL SUB AND DUP2 MSTORE PUSH1 0x20 ADD PUSH1 0x0 PUSH1 0x1 PUSH1 0x1 PUSH1 0xA0 SHL SUB AND DUP2 MSTORE PUSH1 0x20 ADD PUSH1 0x0 DUP2 MSTORE PUSH1 0x20 ADD PUSH1 0x0 DUP2 MSTORE PUSH1 0x20 ADD PUSH1 0x0 DUP2 MSTORE POP SWAP1 JUMP JUMPDEST PUSH1 0x40 MLOAD DUP1 PUSH1 0x80 ADD PUSH1 0x40 MSTORE DUP1 PUSH1 0x0 PUSH1 0x1 PUSH1 0x1 PUSH1 0xA0 SHL SUB AND DUP2 MSTORE PUSH1 0x20 ADD PUSH1 0x0 DUP2 MSTORE PUSH1 0x20 ADD PUSH1 0x0 DUP2 MSTORE PUSH1 0x20 ADD PUSH1 0x0 ISZERO ISZERO DUP2 MSTORE POP SWAP1 JUMP JUMPDEST PUSH1 0x40 DUP1 MLOAD PUSH1 0x60 DUP2 ADD DUP3 MSTORE PUSH1 0x0 DUP1 DUP3 MSTORE PUSH1 0x20 DUP3 ADD DUP2 SWAP1 MSTORE SWAP2 DUP2 ADD SWAP2 SWAP1 SWAP2 MSTORE SWAP1 JUMP JUMPDEST DUP3 DUP1 SLOAD PUSH1 0x1 DUP2 PUSH1 0x1 AND ISZERO PUSH2 0x100 MUL SUB AND PUSH1 0x2 SWAP1 DIV SWAP1 PUSH1 0x0 MSTORE PUSH1 0x20 PUSH1 0x0 KECCAK256 SWAP1 PUSH1 0x1F ADD PUSH1 0x20 SWAP1 DIV DUP2 ADD SWAP3 DUP3 PUSH1 0x1F LT PUSH3 0x3350 JUMPI DUP1 MLOAD PUSH1 0xFF NOT AND DUP4 DUP1 ADD OR DUP6 SSTORE PUSH3 0x3380 JUMP JUMPDEST DUP3 DUP1 ADD PUSH1 0x1 ADD DUP6 SSTORE DUP3 ISZERO PUSH3 0x3380 JUMPI SWAP2 DUP3 ADD JUMPDEST DUP3 DUP2 GT ISZERO PUSH3 0x3380 JUMPI DUP3 MLOAD DUP3 SSTORE SWAP2 PUSH1 0x20 ADD SWAP2 SWAP1 PUSH1 0x1 ADD SWAP1 PUSH3 0x3363 JUMP JUMPDEST POP PUSH3 0x338E SWAP3 SWAP2 POP PUSH3 0x33A0 JUMP JUMPDEST POP SWAP1 JUMP JUMPDEST PUSH2 0xFE3 DUP1 PUSH3 0x41B4 DUP4 CODECOPY ADD SWAP1 JUMP JUMPDEST PUSH3 0x11B5 SWAP2 SWAP1 JUMPDEST DUP1 DUP3 GT ISZERO PUSH3 0x338E JUMPI PUSH1 0x0 DUP2 SSTORE PUSH1 0x1 ADD PUSH3 0x33A7 JUMP JUMPDEST DUP1 CALLDATALOAD PUSH3 0xED4 DUP2 PUSH3 0x4183 JUMP JUMPDEST DUP1 MLOAD PUSH3 0xED4 DUP2 PUSH3 0x4183 JUMP JUMPDEST DUP1 MLOAD PUSH3 0xED4 DUP2 PUSH3 0x419D JUMP JUMPDEST PUSH1 0x0 DUP1 DUP4 PUSH1 0x1F DUP5 ADD SLT PUSH3 0x33F7 JUMPI PUSH1 0x0 DUP1 REVERT JUMPDEST POP DUP2 CALLDATALOAD PUSH8 0xFFFFFFFFFFFFFFFF DUP2 GT ISZERO PUSH3 0x3410 JUMPI PUSH1 0x0 DUP1 REVERT JUMPDEST PUSH1 0x20 DUP4 ADD SWAP2 POP DUP4 PUSH1 0x1 DUP3 MUL DUP4 ADD GT ISZERO PUSH3 0x462 JUMPI PUSH1 0x0 DUP1 REVERT JUMPDEST PUSH1 0x0 DUP3 PUSH1 0x1F DUP4 ADD SLT PUSH3 0x343B JUMPI PUSH1 0x0 DUP1 REVERT JUMPDEST DUP2 CALLDATALOAD PUSH3 0x3452 PUSH3 0x344C DUP3 PUSH3 0x40BF JUMP JUMPDEST PUSH3 0x4097 JUMP JUMPDEST SWAP2 POP DUP1 DUP3 MSTORE PUSH1 0x20 DUP4 ADD PUSH1 0x20 DUP4 ADD DUP6 DUP4 DUP4 ADD GT ISZERO PUSH3 0x346F JUMPI PUSH1 0x0 DUP1 REVERT JUMPDEST PUSH3 0x347C DUP4 DUP3 DUP5 PUSH3 0x413A JUMP JUMPDEST POP POP POP SWAP3 SWAP2 POP POP JUMP JUMPDEST PUSH1 0x0 DUP3 PUSH1 0x1F DUP4 ADD SLT PUSH3 0x3497 JUMPI PUSH1 0x0 DUP1 REVERT JUMPDEST DUP2 MLOAD PUSH3 0x34A8 PUSH3 0x344C DUP3 PUSH3 0x40BF JUMP JUMPDEST SWAP2 POP DUP1 DUP3 MSTORE PUSH1 0x20 DUP4 ADD PUSH1 0x20 DUP4 ADD DUP6 DUP4 DUP4 ADD GT ISZERO PUSH3 0x34C5 JUMPI PUSH1 0x0 DUP1 REVERT JUMPDEST PUSH3 0x347C DUP4 DUP3 DUP5 PUSH3 0x4146 JUMP JUMPDEST PUSH1 0x0 PUSH2 0x180 DUP3 DUP5 SUB SLT ISZERO PUSH3 0x34E6 JUMPI PUSH1 0x0 DUP1 REVERT JUMPDEST PUSH3 0x34F3 PUSH2 0x180 PUSH3 0x4097 JUMP JUMPDEST SWAP1 POP DUP2 CALLDATALOAD PUSH8 0xFFFFFFFFFFFFFFFF DUP2 GT ISZERO PUSH3 0x350D JUMPI PUSH1 0x0 DUP1 REVERT JUMPDEST PUSH3 0x351B DUP5 DUP3 DUP6 ADD PUSH3 0x3429 JUMP JUMPDEST DUP3 MSTORE POP PUSH1 0x20 PUSH3 0x352E DUP5 DUP5 DUP4 ADD PUSH3 0x33BD JUMP JUMPDEST PUSH1 0x20 DUP4 ADD MSTORE POP PUSH1 0x40 PUSH3 0x3544 DUP5 DUP3 DUP6 ADD PUSH3 0x33BD JUMP JUMPDEST PUSH1 0x40 DUP4 ADD MSTORE POP PUSH1 0x60 DUP3 ADD CALLDATALOAD PUSH8 0xFFFFFFFFFFFFFFFF DUP2 GT ISZERO PUSH3 0x3565 JUMPI PUSH1 0x0 DUP1 REVERT JUMPDEST PUSH3 0x3573 DUP5 DUP3 DUP6 ADD PUSH3 0x3429 JUMP JUMPDEST PUSH1 0x60 DUP4 ADD MSTORE POP PUSH1 0x80 PUSH3 0x3589 DUP5 DUP3 DUP6 ADD PUSH3 0x3637 JUMP JUMPDEST PUSH1 0x80 DUP4 ADD MSTORE POP PUSH1 0xA0 PUSH3 0x359F DUP5 DUP3 DUP6 ADD PUSH3 0x3637 JUMP JUMPDEST PUSH1 0xA0 DUP4 ADD MSTORE POP PUSH1 0xC0 PUSH3 0x35B5 DUP5 DUP3 DUP6 ADD PUSH3 0x3637 JUMP JUMPDEST PUSH1 0xC0 DUP4 ADD MSTORE POP PUSH1 0xE0 PUSH3 0x35CB DUP5 DUP3 DUP6 ADD PUSH3 0x3637 JUMP JUMPDEST PUSH1 0xE0 DUP4 ADD MSTORE POP PUSH2 0x100 PUSH3 0x35E2 DUP5 DUP3 DUP6 ADD PUSH3 0x3637 JUMP JUMPDEST PUSH2 0x100 DUP4 ADD MSTORE POP PUSH2 0x120 PUSH3 0x35FA DUP5 DUP3 DUP6 ADD PUSH3 0x3637 JUMP JUMPDEST PUSH2 0x120 DUP4 ADD MSTORE POP PUSH2 0x140 PUSH3 0x3612 DUP5 DUP3 DUP6 ADD PUSH3 0x3637 JUMP JUMPDEST PUSH2 0x140 DUP4 ADD MSTORE POP PUSH2 0x160 PUSH3 0x362A DUP5 DUP3 DUP6 ADD PUSH3 0x3637 JUMP JUMPDEST PUSH2 0x160 DUP4 ADD MSTORE POP SWAP3 SWAP2 POP POP JUMP JUMPDEST DUP1 CALLDATALOAD PUSH3 0xED4 DUP2 PUSH3 0x41A8 JUMP JUMPDEST DUP1 MLOAD PUSH3 0xED4 DUP2 PUSH3 0x41A8 JUMP JUMPDEST PUSH1 0x0 PUSH1 0x20 DUP3 DUP5 SUB SLT ISZERO PUSH3 0x3664 JUMPI PUSH1 0x0 DUP1 REVERT JUMPDEST PUSH1 0x0 PUSH3 0x3672 DUP5 DUP5 PUSH3 0x33BD JUMP JUMPDEST SWAP5 SWAP4 POP POP POP POP JUMP JUMPDEST PUSH1 0x0 PUSH1 0x20 DUP3 DUP5 SUB SLT ISZERO PUSH3 0x368D JUMPI PUSH1 0x0 DUP1 REVERT JUMPDEST PUSH1 0x0 PUSH3 0x3672 DUP5 DUP5 PUSH3 0x33CA JUMP JUMPDEST PUSH1 0x0 PUSH1 0x20 DUP3 DUP5 SUB SLT ISZERO PUSH3 0x36AE JUMPI PUSH1 0x0 DUP1 REVERT JUMPDEST PUSH1 0x0 PUSH3 0x3672 DUP5 DUP5 PUSH3 0x33D7 JUMP JUMPDEST PUSH1 0x0 DUP1 PUSH1 0x20 DUP4 DUP6 SUB SLT ISZERO PUSH3 0x36D0 JUMPI PUSH1 0x0 DUP1 REVERT JUMPDEST DUP3 CALLDATALOAD PUSH8 0xFFFFFFFFFFFFFFFF DUP2 GT ISZERO PUSH3 0x36E8 JUMPI PUSH1 0x0 DUP1 REVERT JUMPDEST PUSH3 0x36F6 DUP6 DUP3 DUP7 ADD PUSH3 0x33E4 JUMP JUMPDEST SWAP3 POP SWAP3 POP POP SWAP3 POP SWAP3 SWAP1 POP JUMP JUMPDEST PUSH1 0x0 PUSH1 0x20 DUP3 DUP5 SUB SLT ISZERO PUSH3 0x3715 JUMPI PUSH1 0x0 DUP1 REVERT JUMPDEST DUP2 CALLDATALOAD PUSH8 0xFFFFFFFFFFFFFFFF DUP2 GT ISZERO PUSH3 0x372D JUMPI PUSH1 0x0 DUP1 REVERT JUMPDEST PUSH3 0x3672 DUP5 DUP3 DUP6 ADD PUSH3 0x3429 JUMP JUMPDEST PUSH1 0x0 PUSH1 0x20 DUP3 DUP5 SUB SLT ISZERO PUSH3 0x374E JUMPI PUSH1 0x0 DUP1 REVERT JUMPDEST DUP2 MLOAD PUSH8 0xFFFFFFFFFFFFFFFF DUP2 GT ISZERO PUSH3 0x3766 JUMPI PUSH1 0x0 DUP1 REVERT JUMPDEST PUSH3 0x3672 DUP5 DUP3 DUP6 ADD PUSH3 0x3485 JUMP JUMPDEST PUSH1 0x0 DUP1 PUSH1 0x40 DUP4 DUP6 SUB SLT ISZERO PUSH3 0x3788 JUMPI PUSH1 0x0 DUP1 REVERT JUMPDEST DUP3 CALLDATALOAD PUSH8 0xFFFFFFFFFFFFFFFF DUP2 GT ISZERO PUSH3 0x37A0 JUMPI PUSH1 0x0 DUP1 REVERT JUMPDEST PUSH3 0x37AE DUP6 DUP3 DUP7 ADD PUSH3 0x3429 JUMP JUMPDEST SWAP3 POP POP PUSH1 0x20 PUSH3 0x37C1 DUP6 DUP3 DUP7 ADD PUSH3 0x3637 JUMP JUMPDEST SWAP2 POP POP SWAP3 POP SWAP3 SWAP1 POP JUMP JUMPDEST PUSH1 0x0 PUSH1 0x20 DUP3 DUP5 SUB SLT ISZERO PUSH3 0x37DE JUMPI PUSH1 0x0 DUP1 REVERT JUMPDEST DUP2 CALLDATALOAD PUSH8 0xFFFFFFFFFFFFFFFF DUP2 GT ISZERO PUSH3 0x37F6 JUMPI PUSH1 0x0 DUP1 REVERT JUMPDEST PUSH3 0x3672 DUP5 DUP3 DUP6 ADD PUSH3 0x34D2 JUMP JUMPDEST PUSH1 0x0 PUSH1 0x20 DUP3 DUP5 SUB SLT ISZERO PUSH3 0x3817 JUMPI PUSH1 0x0 DUP1 REVERT JUMPDEST PUSH1 0x0 PUSH3 0x3672 DUP5 DUP5 PUSH3 0x3637 JUMP JUMPDEST PUSH1 0x0 PUSH1 0x20 DUP3 DUP5 SUB SLT ISZERO PUSH3 0x3838 JUMPI PUSH1 0x0 DUP1 REVERT JUMPDEST PUSH1 0x0 PUSH3 0x3672 DUP5 DUP5 PUSH3 0x3644 JUMP JUMPDEST PUSH1 0x0 DUP1 PUSH1 0x0 PUSH1 0x60 DUP5 DUP7 SUB SLT ISZERO PUSH3 0x385C JUMPI PUSH1 0x0 DUP1 REVERT JUMPDEST PUSH1 0x0 PUSH3 0x386A DUP7 DUP7 PUSH3 0x3644 JUMP JUMPDEST SWAP4 POP POP PUSH1 0x20 PUSH3 0x387D DUP7 DUP3 DUP8 ADD PUSH3 0x3644 JUMP JUMPDEST SWAP3 POP POP PUSH1 0x40 PUSH3 0x3890 DUP7 DUP3 DUP8 ADD PUSH3 0x3644 JUMP JUMPDEST SWAP2 POP POP SWAP3 POP SWAP3 POP SWAP3 JUMP JUMPDEST PUSH3 0x38A5 DUP2 PUSH3 0x4118 JUMP JUMPDEST DUP3 MSTORE POP POP JUMP JUMPDEST PUSH3 0x38A5 DUP2 PUSH3 0x40FA JUMP JUMPDEST PUSH3 0x38A5 DUP2 PUSH3 0x4107 JUMP JUMPDEST PUSH3 0x38A5 DUP2 PUSH3 0x4120 JUMP JUMPDEST PUSH3 0x38A5 DUP2 PUSH3 0x412D JUMP JUMPDEST PUSH1 0x0 PUSH3 0x38E5 DUP4 DUP6 PUSH3 0x40EC JUMP JUMPDEST SWAP4 POP PUSH3 0x38F4 DUP4 DUP6 DUP5 PUSH3 0x413A JUMP JUMPDEST PUSH3 0x38FF DUP4 PUSH3 0x4179 JUMP JUMPDEST SWAP1 SWAP4 ADD SWAP4 SWAP3 POP POP POP JUMP JUMPDEST PUSH1 0x0 PUSH3 0x3917 DUP4 DUP6 PUSH3 0x40F5 JUMP JUMPDEST SWAP4 POP PUSH3 0x3926 DUP4 DUP6 DUP5 PUSH3 0x413A JUMP JUMPDEST POP POP ADD SWAP1 JUMP JUMPDEST PUSH1 0x0 PUSH3 0x3939 DUP3 PUSH3 0x40E8 JUMP JUMPDEST PUSH3 0x3945 DUP2 DUP6 PUSH3 0x40EC JUMP JUMPDEST SWAP4 POP PUSH3 0x3957 DUP2 DUP6 PUSH1 0x20 DUP7 ADD PUSH3 0x4146 JUMP JUMPDEST PUSH3 0x38FF DUP2 PUSH3 0x4179 JUMP JUMPDEST PUSH1 0x0 PUSH3 0x396F DUP3 PUSH3 0x40E8 JUMP JUMPDEST PUSH3 0x397B DUP2 DUP6 PUSH3 0x40F5 JUMP JUMPDEST SWAP4 POP PUSH3 0x398D DUP2 DUP6 PUSH1 0x20 DUP7 ADD PUSH3 0x4146 JUMP JUMPDEST SWAP3 SWAP1 SWAP3 ADD SWAP3 SWAP2 POP POP JUMP JUMPDEST PUSH1 0x0 PUSH3 0x39A6 PUSH1 0x15 DUP4 PUSH3 0x40EC JUMP JUMPDEST PUSH21 0x64732D6D6174682D7375622D756E646572666C6F77 PUSH1 0x58 SHL DUP2 MSTORE PUSH1 0x20 ADD SWAP3 SWAP2 POP POP JUMP JUMPDEST PUSH1 0x0 PUSH3 0x39D9 PUSH1 0x37 DUP4 PUSH3 0x40EC JUMP JUMPDEST PUSH32 0x6E6F77206D7573742067726561746572207468616E2074686520646973636F20 DUP2 MSTORE PUSH32 0x66756E642072616973696E672073746172742074696D65000000000000000000 PUSH1 0x20 DUP3 ADD MSTORE PUSH1 0x40 ADD SWAP3 SWAP2 POP POP JUMP JUMPDEST PUSH1 0x0 PUSH3 0x3A3A PUSH1 0x14 DUP4 PUSH3 0x40EC JUMP JUMPDEST PUSH20 0x64732D6D6174682D6D756C2D6F766572666C6F77 PUSH1 0x60 SHL DUP2 MSTORE PUSH1 0x20 ADD SWAP3 SWAP2 POP POP JUMP JUMPDEST PUSH1 0x0 PUSH3 0x3A6C PUSH1 0x14 DUP4 PUSH3 0x40EC JUMP JUMPDEST PUSH20 0x64732D6D6174682D6164642D6F766572666C6F77 PUSH1 0x60 SHL DUP2 MSTORE PUSH1 0x20 ADD SWAP3 SWAP2 POP POP JUMP JUMPDEST PUSH1 0x0 PUSH3 0x3A9E PUSH1 0xC DUP4 PUSH3 0x40EC JUMP JUMPDEST PUSH12 0x191A5CD8DBD259081B1BDCDD PUSH1 0xA2 SHL DUP2 MSTORE PUSH1 0x20 ADD SWAP3 SWAP2 POP POP JUMP JUMPDEST PUSH1 0x0 PUSH3 0x3AC8 PUSH1 0x14 DUP4 PUSH3 0x40EC JUMP JUMPDEST PUSH20 0x43616C6C6572206973206E6F74206F776E657221 PUSH1 0x60 SHL DUP2 MSTORE PUSH1 0x20 ADD SWAP3 SWAP2 POP POP JUMP JUMPDEST PUSH1 0x0 PUSH3 0x3AFA PUSH1 0x1A DUP4 PUSH3 0x40EC JUMP JUMPDEST PUSH32 0x536166654D6174683A206469766973696F6E206279207A65726F000000000000 DUP2 MSTORE PUSH1 0x20 ADD SWAP3 SWAP2 POP POP JUMP JUMPDEST PUSH1 0x0 PUSH3 0x3B35 PUSH1 0x23 DUP4 PUSH3 0x40EC JUMP JUMPDEST PUSH32 0x74686520646973636F206D75737420686173206E6F74206265656E2073746172 DUP2 MSTORE PUSH3 0x1D1959 PUSH1 0xEA SHL PUSH1 0x20 DUP3 ADD MSTORE PUSH1 0x40 ADD SWAP3 SWAP2 POP POP JUMP JUMPDEST PUSH1 0x0 PUSH3 0x3B7C PUSH1 0x14 DUP4 PUSH3 0x40EC JUMP JUMPDEST PUSH20 0x34B73B32B9BA1030B6BA1036BAB9BA101F101817 PUSH1 0x61 SHL DUP2 MSTORE PUSH1 0x20 ADD SWAP3 SWAP2 POP POP JUMP JUMPDEST PUSH1 0x0 PUSH3 0x3BAE PUSH1 0x32 DUP4 PUSH3 0x40EC JUMP JUMPDEST PUSH32 0x6E6F77206D757374206C657373207468616E2074686520646973636F2066756E DUP2 MSTORE PUSH18 0x642072616973696E6720656E642074696D65 PUSH1 0x70 SHL PUSH1 0x20 DUP3 ADD MSTORE PUSH1 0x40 ADD SWAP3 SWAP2 POP POP JUMP JUMPDEST PUSH1 0x0 PUSH3 0x3C04 PUSH1 0x13 DUP4 PUSH3 0x40EC JUMP JUMPDEST PUSH19 0x19195C1BDCDA5D1058D8DBDD5B9D081B1BDCDD PUSH1 0x6A SHL DUP2 MSTORE PUSH1 0x20 ADD SWAP3 SWAP2 POP POP JUMP JUMPDEST PUSH1 0x0 PUSH3 0x3C35 PUSH1 0x8 DUP4 PUSH3 0x40EC JUMP JUMPDEST PUSH8 0x195B5C1D1E481A59 PUSH1 0xC2 SHL DUP2 MSTORE PUSH1 0x20 ADD SWAP3 SWAP2 POP POP JUMP JUMPDEST PUSH1 0x0 PUSH3 0x3C5B PUSH1 0xF DUP4 PUSH3 0x40EC JUMP JUMPDEST PUSH15 0x666565206E6F7420656E6F75676821 PUSH1 0x88 SHL DUP2 MSTORE PUSH1 0x20 ADD SWAP3 SWAP2 POP POP JUMP JUMPDEST PUSH3 0x38A5 DUP2 PUSH3 0x11B5 JUMP JUMPDEST PUSH1 0x0 PUSH3 0x3672 DUP3 DUP5 DUP7 PUSH3 0x3909 JUMP JUMPDEST PUSH1 0x0 PUSH3 0x3CA1 DUP3 DUP5 PUSH3 0x3962 JUMP JUMPDEST SWAP4 SWAP3 POP POP POP JUMP JUMPDEST PUSH1 0x60 DUP2 ADD PUSH3 0x3CB8 DUP3 DUP7 PUSH3 0x389A JUMP JUMPDEST PUSH3 0x3CC7 PUSH1 0x20 DUP4 ADD DUP6 PUSH3 0x389A JUMP JUMPDEST PUSH3 0x3672 PUSH1 0x40 DUP4 ADD DUP5 PUSH3 0x3C79 JUMP JUMPDEST PUSH1 0x40 DUP2 ADD PUSH3 0x3CE6 DUP3 DUP6 PUSH3 0x38AB JUMP JUMPDEST PUSH3 0x3CA1 PUSH1 0x20 DUP4 ADD DUP5 PUSH3 0x3C79 JUMP JUMPDEST PUSH1 0x80 DUP2 ADD PUSH3 0x3D05 DUP3 DUP8 PUSH3 0x38AB JUMP JUMPDEST PUSH3 0x3D14 PUSH1 0x20 DUP4 ADD DUP7 PUSH3 0x3C79 JUMP JUMPDEST PUSH3 0x3D23 PUSH1 0x40 DUP4 ADD DUP6 PUSH3 0x3C79 JUMP JUMPDEST PUSH3 0x20AA PUSH1 0x60 DUP4 ADD DUP5 PUSH3 0x38B6 JUMP JUMPDEST PUSH1 0x60 DUP2 ADD PUSH3 0x3D42 DUP3 DUP7 PUSH3 0x38B6 JUMP JUMPDEST PUSH3 0x3D51 PUSH1 0x20 DUP4 ADD DUP6 PUSH3 0x38B6 JUMP JUMPDEST PUSH3 0x3672 PUSH1 0x40 DUP4 ADD DUP5 PUSH3 0x38B6 JUMP JUMPDEST PUSH1 0xC0 DUP2 ADD PUSH3 0x3D70 DUP3 DUP10 PUSH3 0x38C1 JUMP JUMPDEST PUSH3 0x3D7F PUSH1 0x20 DUP4 ADD DUP9 PUSH3 0x38C1 JUMP JUMPDEST PUSH3 0x3D8E PUSH1 0x40 DUP4 ADD DUP8 PUSH3 0x38AB JUMP JUMPDEST PUSH3 0x3D9D PUSH1 0x60 DUP4 ADD DUP7 PUSH3 0x3C79 JUMP JUMPDEST PUSH3 0x3DAC PUSH1 0x80 DUP4 ADD DUP6 PUSH3 0x3C79 JUMP JUMPDEST PUSH3 0xB2C PUSH1 0xA0 DUP4 ADD DUP5 PUSH3 0x3C79 JUMP JUMPDEST PUSH1 0x20 DUP2 ADD PUSH3 0xED4 DUP3 DUP5 PUSH3 0x38C1 JUMP JUMPDEST PUSH1 0x60 DUP2 ADD PUSH3 0x3DDB DUP3 DUP7 PUSH3 0x38C1 JUMP JUMPDEST PUSH3 0x3CC7 PUSH1 0x20 DUP4 ADD DUP6 PUSH3 0x38AB JUMP JUMPDEST PUSH1 0x40 DUP1 DUP3 MSTORE DUP2 ADD PUSH3 0x3DFE DUP2 DUP6 DUP8 PUSH3 0x38D7 JUMP JUMPDEST SWAP1 POP PUSH3 0x3672 PUSH1 0x20 DUP4 ADD DUP5 PUSH3 0x38B6 JUMP JUMPDEST PUSH1 0x20 DUP1 DUP3 MSTORE DUP2 ADD PUSH3 0x3CA1 DUP2 DUP5 PUSH3 0x392C JUMP JUMPDEST PUSH1 0x60 DUP1 DUP3 MSTORE DUP2 ADD PUSH3 0x3E35 DUP2 DUP7 PUSH3 0x392C JUMP JUMPDEST SWAP1 POP PUSH3 0x3CC7 PUSH1 0x20 DUP4 ADD DUP6 PUSH3 0x389A JUMP JUMPDEST PUSH2 0x180 DUP1 DUP3 MSTORE DUP2 ADD PUSH3 0x3E5A DUP2 DUP16 PUSH3 0x392C JUMP JUMPDEST SWAP1 POP PUSH3 0x3E6B PUSH1 0x20 DUP4 ADD DUP15 PUSH3 0x38AB JUMP JUMPDEST PUSH3 0x3E7A PUSH1 0x40 DUP4 ADD DUP14 PUSH3 0x38AB JUMP JUMPDEST DUP2 DUP2 SUB PUSH1 0x60 DUP4 ADD MSTORE PUSH3 0x3E8E DUP2 DUP13 PUSH3 0x392C JUMP JUMPDEST SWAP1 POP PUSH3 0x3E9F PUSH1 0x80 DUP4 ADD DUP12 PUSH3 0x3C79 JUMP JUMPDEST PUSH3 0x3EAE PUSH1 0xA0 DUP4 ADD DUP11 PUSH3 0x3C79 JUMP JUMPDEST PUSH3 0x3EBD PUSH1 0xC0 DUP4 ADD DUP10 PUSH3 0x3C79 JUMP JUMPDEST PUSH3 0x3ECC PUSH1 0xE0 DUP4 ADD DUP9 PUSH3 0x3C79 JUMP JUMPDEST PUSH3 0x3EDC PUSH2 0x100 DUP4 ADD DUP8 PUSH3 0x3C79 JUMP JUMPDEST PUSH3 0x3EEC PUSH2 0x120 DUP4 ADD DUP7 PUSH3 0x3C79 JUMP JUMPDEST PUSH3 0x3EFC PUSH2 0x140 DUP4 ADD DUP6 PUSH3 0x3C79 JUMP JUMPDEST PUSH3 0x3F0C PUSH2 0x160 DUP4 ADD DUP5 PUSH3 0x3C79 JUMP JUMPDEST SWAP14 SWAP13 POP POP POP POP POP POP POP POP POP POP POP POP POP JUMP JUMPDEST PUSH1 0x40 DUP1 DUP3 MSTORE DUP2 ADD PUSH3 0x3F30 DUP2 DUP6 PUSH3 0x392C JUMP JUMPDEST SWAP1 POP PUSH3 0x3CA1 PUSH1 0x20 DUP4 ADD DUP5 PUSH3 0x38C1 JUMP JUMPDEST PUSH1 0x20 DUP1 DUP3 MSTORE DUP2 ADD PUSH3 0xED4 DUP2 PUSH3 0x3997 JUMP JUMPDEST PUSH1 0x20 DUP1 DUP3 MSTORE DUP2 ADD PUSH3 0xED4 DUP2 PUSH3 0x39CA JUMP JUMPDEST PUSH1 0x20 DUP1 DUP3 MSTORE DUP2 ADD PUSH3 0xED4 DUP2 PUSH3 0x3A2B JUMP JUMPDEST PUSH1 0x20 DUP1 DUP3 MSTORE DUP2 ADD PUSH3 0xED4 DUP2 PUSH3 0x3A5D JUMP JUMPDEST PUSH1 0x20 DUP1 DUP3 MSTORE DUP2 ADD PUSH3 0xED4 DUP2 PUSH3 0x3A8F JUMP JUMPDEST PUSH1 0x20 DUP1 DUP3 MSTORE DUP2 ADD PUSH3 0xED4 DUP2 PUSH3 0x3AB9 JUMP JUMPDEST PUSH1 0x20 DUP1 DUP3 MSTORE DUP2 ADD PUSH3 0xED4 DUP2 PUSH3 0x3AEB JUMP JUMPDEST PUSH1 0x20 DUP1 DUP3 MSTORE DUP2 ADD PUSH3 0xED4 DUP2 PUSH3 0x3B26 JUMP JUMPDEST PUSH1 0x20 DUP1 DUP3 MSTORE DUP2 ADD PUSH3 0xED4 DUP2 PUSH3 0x3B6D JUMP JUMPDEST PUSH1 0x20 DUP1 DUP3 MSTORE DUP2 ADD PUSH3 0xED4 DUP2 PUSH3 0x3B9F JUMP JUMPDEST PUSH1 0x20 DUP1 DUP3 MSTORE DUP2 ADD PUSH3 0xED4 DUP2 PUSH3 0x3BF5 JUMP JUMPDEST PUSH1 0x20 DUP1 DUP3 MSTORE DUP2 ADD PUSH3 0xED4 DUP2 PUSH3 0x3C26 JUMP JUMPDEST PUSH1 0x20 DUP1 DUP3 MSTORE DUP2 ADD PUSH3 0xED4 DUP2 PUSH3 0x3C4C JUMP JUMPDEST PUSH1 0x20 DUP2 ADD PUSH3 0xED4 DUP3 DUP5 PUSH3 0x3C79 JUMP JUMPDEST PUSH1 0x40 DUP2 ADD PUSH3 0x3CE6 DUP3 DUP6 PUSH3 0x3C79 JUMP JUMPDEST PUSH1 0xC0 DUP2 ADD PUSH3 0x405B DUP3 DUP10 PUSH3 0x3C79 JUMP JUMPDEST PUSH3 0x406A PUSH1 0x20 DUP4 ADD DUP9 PUSH3 0x3C79 JUMP JUMPDEST PUSH3 0x4079 PUSH1 0x40 DUP4 ADD DUP8 PUSH3 0x38CC JUMP JUMPDEST PUSH3 0x4088 PUSH1 0x60 DUP4 ADD DUP7 PUSH3 0x38CC JUMP JUMPDEST PUSH3 0x3DAC PUSH1 0x80 DUP4 ADD DUP6 PUSH3 0x389A JUMP JUMPDEST PUSH1 0x40 MLOAD DUP2 DUP2 ADD PUSH8 0xFFFFFFFFFFFFFFFF DUP2 GT DUP3 DUP3 LT OR ISZERO PUSH3 0x40B7 JUMPI PUSH1 0x0 DUP1 REVERT JUMPDEST PUSH1 0x40 MSTORE SWAP2 SWAP1 POP JUMP JUMPDEST PUSH1 0x0 PUSH8 0xFFFFFFFFFFFFFFFF DUP3 GT ISZERO PUSH3 0x40D7 JUMPI PUSH1 0x0 DUP1 REVERT JUMPDEST POP PUSH1 0x20 PUSH1 0x1F SWAP2 SWAP1 SWAP2 ADD PUSH1 0x1F NOT AND ADD SWAP1 JUMP JUMPDEST MLOAD SWAP1 JUMP JUMPDEST SWAP1 DUP2 MSTORE PUSH1 0x20 ADD SWAP1 JUMP JUMPDEST SWAP2 SWAP1 POP JUMP JUMPDEST PUSH1 0x0 PUSH3 0xED4 DUP3 PUSH3 0x410C JUMP JUMPDEST ISZERO ISZERO SWAP1 JUMP JUMPDEST PUSH1 0x1 PUSH1 0x1 PUSH1 0xA0 SHL SUB AND SWAP1 JUMP JUMPDEST PUSH1 0x0 PUSH3 0xED4 DUP3 JUMPDEST PUSH1 0x0 PUSH3 0xED4 DUP3 PUSH3 0x40FA JUMP JUMPDEST PUSH1 0x0 PUSH3 0xED4 DUP3 PUSH3 0x11B5 JUMP JUMPDEST DUP3 DUP2 DUP4 CALLDATACOPY POP PUSH1 0x0 SWAP2 ADD MSTORE JUMP JUMPDEST PUSH1 0x0 JUMPDEST DUP4 DUP2 LT ISZERO PUSH3 0x4163 JUMPI DUP2 DUP2 ADD MLOAD DUP4 DUP3 ADD MSTORE PUSH1 0x20 ADD PUSH3 0x4149 JUMP JUMPDEST DUP4 DUP2 GT ISZERO PUSH3 0x4173 JUMPI PUSH1 0x0 DUP5 DUP5 ADD MSTORE JUMPDEST POP POP POP POP JUMP JUMPDEST PUSH1 0x1F ADD PUSH1 0x1F NOT AND SWAP1 JUMP JUMPDEST PUSH3 0x418E DUP2 PUSH3 0x40FA JUMP JUMPDEST DUP2 EQ PUSH3 0x419A JUMPI PUSH1 0x0 DUP1 REVERT JUMPDEST POP JUMP JUMPDEST PUSH3 0x418E DUP2 PUSH3 0x4107 JUMP JUMPDEST PUSH3 0x418E DUP2 PUSH3 0x11B5 JUMP INVALID PUSH1 0x80 PUSH1 0x40 MSTORE CALLVALUE DUP1 ISZERO PUSH3 0x11 JUMPI PUSH1 0x0 DUP1 REVERT JUMPDEST POP PUSH1 0x40 MLOAD PUSH3 0xFE3 CODESIZE SUB DUP1 PUSH3 0xFE3 DUP4 CODECOPY DUP2 ADD PUSH1 0x40 DUP2 SWAP1 MSTORE PUSH3 0x34 SWAP2 PUSH3 0x16B JUMP JUMPDEST DUP1 MLOAD DUP2 SWAP1 PUSH3 0x4B SWAP1 PUSH1 0x0 SWAP1 PUSH1 0x20 DUP5 ADD SWAP1 PUSH3 0x6A JUMP JUMPDEST POP POP DUP1 MLOAD PUSH3 0x62 SWAP1 PUSH1 0x1 SWAP1 PUSH1 0x20 DUP5 ADD SWAP1 PUSH3 0x6A JUMP JUMPDEST POP POP PUSH3 0x22D JUMP JUMPDEST DUP3 DUP1 SLOAD PUSH1 0x1 DUP2 PUSH1 0x1 AND ISZERO PUSH2 0x100 MUL SUB AND PUSH1 0x2 SWAP1 DIV SWAP1 PUSH1 0x0 MSTORE PUSH1 0x20 PUSH1 0x0 KECCAK256 SWAP1 PUSH1 0x1F ADD PUSH1 0x20 SWAP1 DIV DUP2 ADD SWAP3 DUP3 PUSH1 0x1F LT PUSH3 0xAD JUMPI DUP1 MLOAD PUSH1 0xFF NOT AND DUP4 DUP1 ADD OR DUP6 SSTORE PUSH3 0xDD JUMP JUMPDEST DUP3 DUP1 ADD PUSH1 0x1 ADD DUP6 SSTORE DUP3 ISZERO PUSH3 0xDD JUMPI SWAP2 DUP3 ADD JUMPDEST DUP3 DUP2 GT ISZERO PUSH3 0xDD JUMPI DUP3 MLOAD DUP3 SSTORE SWAP2 PUSH1 0x20 ADD SWAP2 SWAP1 PUSH1 0x1 ADD SWAP1 PUSH3 0xC0 JUMP JUMPDEST POP PUSH3 0xEB SWAP3 SWAP2 POP PUSH3 0xEF JUMP JUMPDEST POP SWAP1 JUMP JUMPDEST PUSH3 0x10C SWAP2 SWAP1 JUMPDEST DUP1 DUP3 GT ISZERO PUSH3 0xEB JUMPI PUSH1 0x0 DUP2 SSTORE PUSH1 0x1 ADD PUSH3 0xF6 JUMP JUMPDEST SWAP1 JUMP JUMPDEST PUSH1 0x0 DUP3 PUSH1 0x1F DUP4 ADD SLT PUSH3 0x121 JUMPI PUSH1 0x0 DUP1 REVERT JUMPDEST DUP2 MLOAD PUSH3 0x138 PUSH3 0x132 DUP3 PUSH3 0x1D2 JUMP JUMPDEST PUSH3 0x1AB JUMP JUMPDEST SWAP2 POP DUP1 DUP3 MSTORE PUSH1 0x20 DUP4 ADD PUSH1 0x20 DUP4 ADD DUP6 DUP4 DUP4 ADD GT ISZERO PUSH3 0x155 JUMPI PUSH1 0x0 DUP1 REVERT JUMPDEST PUSH3 0x162 DUP4 DUP3 DUP5 PUSH3 0x1FA JUMP JUMPDEST POP POP POP SWAP3 SWAP2 POP POP JUMP JUMPDEST PUSH1 0x0 PUSH1 0x20 DUP3 DUP5 SUB SLT ISZERO PUSH3 0x17E JUMPI PUSH1 0x0 DUP1 REVERT JUMPDEST DUP2 MLOAD PUSH1 0x1 PUSH1 0x1 PUSH1 0x40 SHL SUB DUP2 GT ISZERO PUSH3 0x195 JUMPI PUSH1 0x0 DUP1 REVERT JUMPDEST PUSH3 0x1A3 DUP5 DUP3 DUP6 ADD PUSH3 0x10F JUMP JUMPDEST SWAP5 SWAP4 POP POP POP POP JUMP JUMPDEST PUSH1 0x40 MLOAD DUP2 DUP2 ADD PUSH1 0x1 PUSH1 0x1 PUSH1 0x40 SHL SUB DUP2 GT DUP3 DUP3 LT OR ISZERO PUSH3 0x1CA JUMPI PUSH1 0x0 DUP1 REVERT JUMPDEST PUSH1 0x40 MSTORE SWAP2 SWAP1 POP JUMP JUMPDEST PUSH1 0x0 PUSH1 0x1 PUSH1 0x1 PUSH1 0x40 SHL SUB DUP3 GT ISZERO PUSH3 0x1E9 JUMPI PUSH1 0x0 DUP1 REVERT JUMPDEST POP PUSH1 0x20 PUSH1 0x1F SWAP2 SWAP1 SWAP2 ADD PUSH1 0x1F NOT AND ADD SWAP1 JUMP JUMPDEST PUSH1 0x0 JUMPDEST DUP4 DUP2 LT ISZERO PUSH3 0x217 JUMPI DUP2 DUP2 ADD MLOAD DUP4 DUP3 ADD MSTORE PUSH1 0x20 ADD PUSH3 0x1FD JUMP JUMPDEST DUP4 DUP2 GT ISZERO PUSH3 0x227 JUMPI PUSH1 0x0 DUP5 DUP5 ADD MSTORE JUMPDEST POP POP POP POP JUMP JUMPDEST PUSH2 0xDA6 DUP1 PUSH3 0x23D PUSH1 0x0 CODECOPY PUSH1 0x0 RETURN INVALID PUSH1 0x80 PUSH1 0x40 MSTORE PUSH1 0x4 CALLDATASIZE LT PUSH2 0xDD JUMPI PUSH1 0x0 CALLDATALOAD PUSH1 0xE0 SHR DUP1 PUSH4 0xACB3C073 GT PUSH2 0x7F JUMPI DUP1 PUSH4 0xBEABACC8 GT PUSH2 0x59 JUMPI DUP1 PUSH4 0xBEABACC8 EQ PUSH2 0x1F6 JUMPI DUP1 PUSH4 0xE1F21C67 EQ PUSH2 0x216 JUMPI DUP1 PUSH4 0xEEDC966A EQ PUSH2 0x236 JUMPI DUP1 PUSH4 0xFB1E6A62 EQ PUSH2 0x256 JUMPI PUSH2 0xDD JUMP JUMPDEST DUP1 PUSH4 0xACB3C073 EQ PUSH2 0x192 JUMPI DUP1 PUSH4 0xAF640D0F EQ PUSH2 0x1B2 JUMPI DUP1 PUSH4 0xBE574484 EQ PUSH2 0x1D4 JUMPI PUSH2 0xDD JUMP JUMPDEST DUP1 PUSH4 0x38CC4831 GT PUSH2 0xBB JUMPI DUP1 PUSH4 0x38CC4831 EQ PUSH2 0xDF JUMPI DUP1 PUSH4 0x4E6630B0 EQ PUSH2 0x14A JUMPI DUP1 PUSH4 0x4F95A04B EQ PUSH2 0x16C JUMPI DUP1 PUSH4 0x66DD0F24 EQ PUSH2 0x17F JUMPI PUSH2 0xDD JUMP JUMPDEST DUP1 PUSH4 0x26B1D5F EQ PUSH2 0xDF JUMPI DUP1 PUSH4 0x144FA6D7 EQ PUSH2 0x10A JUMPI DUP1 PUSH4 0x23B872DD EQ PUSH2 0x12A JUMPI JUMPDEST STOP JUMPDEST CALLVALUE DUP1 ISZERO PUSH2 0xEB JUMPI PUSH1 0x0 DUP1 REVERT JUMPDEST POP PUSH2 0xF4 PUSH2 0x26B JUMP JUMPDEST PUSH1 0x40 MLOAD PUSH2 0x101 SWAP2 SWAP1 PUSH2 0xBAC JUMP JUMPDEST PUSH1 0x40 MLOAD DUP1 SWAP2 SUB SWAP1 RETURN JUMPDEST CALLVALUE DUP1 ISZERO PUSH2 0x116 JUMPI PUSH1 0x0 DUP1 REVERT JUMPDEST POP PUSH2 0xDD PUSH2 0x125 CALLDATASIZE PUSH1 0x4 PUSH2 0x9D4 JUMP JUMPDEST PUSH2 0x26F JUMP JUMPDEST CALLVALUE DUP1 ISZERO PUSH2 0x136 JUMPI PUSH1 0x0 DUP1 REVERT JUMPDEST POP PUSH2 0xDD PUSH2 0x145 CALLDATASIZE PUSH1 0x4 PUSH2 0x9F2 JUMP JUMPDEST PUSH2 0x291 JUMP JUMPDEST CALLVALUE DUP1 ISZERO PUSH2 0x156 JUMPI PUSH1 0x0 DUP1 REVERT JUMPDEST POP PUSH2 0x15F PUSH2 0x321 JUMP JUMPDEST PUSH1 0x40 MLOAD PUSH2 0x101 SWAP2 SWAP1 PUSH2 0xC8C JUMP JUMPDEST PUSH2 0xDD PUSH2 0x17A CALLDATASIZE PUSH1 0x4 PUSH2 0x97C JUMP JUMPDEST PUSH2 0x325 JUMP JUMPDEST PUSH2 0xDD PUSH2 0x18D CALLDATASIZE PUSH1 0x4 PUSH2 0xA3F JUMP JUMPDEST PUSH2 0x35B JUMP JUMPDEST CALLVALUE DUP1 ISZERO PUSH2 0x19E JUMPI PUSH1 0x0 DUP1 REVERT JUMPDEST POP PUSH2 0xDD PUSH2 0x1AD CALLDATASIZE PUSH1 0x4 PUSH2 0x9D4 JUMP JUMPDEST PUSH2 0x432 JUMP JUMPDEST CALLVALUE DUP1 ISZERO PUSH2 0x1BE JUMPI PUSH1 0x0 DUP1 REVERT JUMPDEST POP PUSH2 0x1C7 PUSH2 0x454 JUMP JUMPDEST PUSH1 0x40 MLOAD PUSH2 0x101 SWAP2 SWAP1 PUSH2 0xC7B JUMP JUMPDEST PUSH2 0x1E7 PUSH2 0x1E2 CALLDATASIZE PUSH1 0x4 PUSH2 0xABE JUMP JUMPDEST PUSH2 0x4E1 JUMP JUMPDEST PUSH1 0x40 MLOAD PUSH2 0x101 SWAP4 SWAP3 SWAP2 SWAP1 PUSH2 0xC9A JUMP JUMPDEST CALLVALUE DUP1 ISZERO PUSH2 0x202 JUMPI PUSH1 0x0 DUP1 REVERT JUMPDEST POP PUSH2 0xDD PUSH2 0x211 CALLDATASIZE PUSH1 0x4 PUSH2 0x9F2 JUMP JUMPDEST PUSH2 0x79E JUMP JUMPDEST CALLVALUE DUP1 ISZERO PUSH2 0x222 JUMPI PUSH1 0x0 DUP1 REVERT JUMPDEST POP PUSH2 0xDD PUSH2 0x231 CALLDATASIZE PUSH1 0x4 PUSH2 0x9F2 JUMP JUMPDEST PUSH2 0x7CC JUMP JUMPDEST CALLVALUE DUP1 ISZERO PUSH2 0x242 JUMPI PUSH1 0x0 DUP1 REVERT JUMPDEST POP PUSH2 0x15F PUSH2 0x251 CALLDATASIZE PUSH1 0x4 PUSH2 0x9D4 JUMP JUMPDEST PUSH2 0x7FA JUMP JUMPDEST CALLVALUE DUP1 ISZERO PUSH2 0x262 JUMPI PUSH1 0x0 DUP1 REVERT JUMPDEST POP PUSH2 0x1C7 PUSH2 0x87F JUMP JUMPDEST ADDRESS SWAP1 JUMP JUMPDEST PUSH1 0x3 DUP1 SLOAD PUSH1 0x1 PUSH1 0x1 PUSH1 0xA0 SHL SUB NOT AND PUSH1 0x1 PUSH1 0x1 PUSH1 0xA0 SHL SUB SWAP3 SWAP1 SWAP3 AND SWAP2 SWAP1 SWAP2 OR SWAP1 SSTORE JUMP JUMPDEST PUSH1 0x40 MLOAD PUSH4 0x23B872DD PUSH1 0xE0 SHL DUP2 MSTORE PUSH1 0x1 PUSH1 0x1 PUSH1 0xA0 SHL SUB DUP5 AND SWAP1 PUSH4 0x23B872DD SWAP1 PUSH2 0x2C1 SWAP1 ADDRESS SWAP1 DUP7 SWAP1 DUP7 SWAP1 PUSH1 0x4 ADD PUSH2 0xBBA JUMP JUMPDEST PUSH1 0x20 PUSH1 0x40 MLOAD DUP1 DUP4 SUB DUP2 PUSH1 0x0 DUP8 DUP1 EXTCODESIZE ISZERO DUP1 ISZERO PUSH2 0x2DB JUMPI PUSH1 0x0 DUP1 REVERT JUMPDEST POP GAS CALL ISZERO DUP1 ISZERO PUSH2 0x2EF JUMPI RETURNDATASIZE PUSH1 0x0 DUP1 RETURNDATACOPY RETURNDATASIZE PUSH1 0x0 REVERT JUMPDEST POP POP POP POP PUSH1 0x40 MLOAD RETURNDATASIZE PUSH1 0x1F NOT PUSH1 0x1F DUP3 ADD AND DUP3 ADD DUP1 PUSH1 0x40 MSTORE POP PUSH2 0x313 SWAP2 SWAP1 DUP2 ADD SWAP1 PUSH2 0x9B6 JUMP JUMPDEST PUSH2 0x31C JUMPI PUSH1 0x0 DUP1 REVERT JUMPDEST POP POP POP JUMP JUMPDEST SELFBALANCE SWAP1 JUMP JUMPDEST PUSH1 0x40 MLOAD PUSH1 0x1 PUSH1 0x1 PUSH1 0xA0 SHL SUB DUP4 AND SWAP1 DUP3 ISZERO PUSH2 0x8FC MUL SWAP1 DUP4 SWAP1 PUSH1 0x0 DUP2 DUP2 DUP2 DUP6 DUP9 DUP9 CALL SWAP4 POP POP POP POP ISZERO DUP1 ISZERO PUSH2 0x31C JUMPI RETURNDATASIZE PUSH1 0x0 DUP1 RETURNDATACOPY RETURNDATASIZE PUSH1 0x0 REVERT JUMPDEST PUSH1 0x2 SLOAD PUSH1 0x40 DUP1 MLOAD PUSH4 0x15AB88C9 PUSH1 0xE3 SHL DUP2 MSTORE SWAP1 MLOAD PUSH1 0x0 SWAP3 PUSH1 0x1 PUSH1 0x1 PUSH1 0xA0 SHL SUB AND SWAP2 PUSH4 0xAD5C4648 SWAP2 PUSH1 0x4 DUP1 DUP4 ADD SWAP3 PUSH1 0x20 SWAP3 SWAP2 SWAP1 DUP3 SWAP1 SUB ADD DUP2 DUP7 DUP1 EXTCODESIZE ISZERO DUP1 ISZERO PUSH2 0x3A0 JUMPI PUSH1 0x0 DUP1 REVERT JUMPDEST POP GAS STATICCALL ISZERO DUP1 ISZERO PUSH2 0x3B4 JUMPI RETURNDATASIZE PUSH1 0x0 DUP1 RETURNDATACOPY RETURNDATASIZE PUSH1 0x0 REVERT JUMPDEST POP POP POP POP PUSH1 0x40 MLOAD RETURNDATASIZE PUSH1 0x1F NOT PUSH1 0x1F DUP3 ADD AND DUP3 ADD DUP1 PUSH1 0x40 MSTORE POP PUSH2 0x3D8 SWAP2 SWAP1 DUP2 ADD SWAP1 PUSH2 0x956 JUMP JUMPDEST SWAP1 POP DUP1 PUSH1 0x1 PUSH1 0x1 PUSH1 0xA0 SHL SUB AND PUSH4 0xD0E30DB0 DUP4 PUSH1 0x40 MLOAD DUP3 PUSH4 0xFFFFFFFF AND PUSH1 0xE0 SHL DUP2 MSTORE PUSH1 0x4 ADD PUSH1 0x0 PUSH1 0x40 MLOAD DUP1 DUP4 SUB DUP2 DUP6 DUP9 DUP1 EXTCODESIZE ISZERO DUP1 ISZERO PUSH2 0x415 JUMPI PUSH1 0x0 DUP1 REVERT JUMPDEST POP GAS CALL ISZERO DUP1 ISZERO PUSH2 0x429 JUMPI RETURNDATASIZE PUSH1 0x0 DUP1 RETURNDATACOPY RETURNDATASIZE PUSH1 0x0 REVERT JUMPDEST POP POP POP POP POP POP POP JUMP JUMPDEST PUSH1 0x2 DUP1 SLOAD PUSH1 0x1 PUSH1 0x1 PUSH1 0xA0 SHL SUB NOT AND PUSH1 0x1 PUSH1 0x1 PUSH1 0xA0 SHL SUB SWAP3 SWAP1 SWAP3 AND SWAP2 SWAP1 SWAP2 OR SWAP1 SSTORE JUMP JUMPDEST PUSH1 0x1 DUP1 SLOAD PUSH1 0x40 DUP1 MLOAD PUSH1 0x20 PUSH1 0x2 DUP5 DUP7 AND ISZERO PUSH2 0x100 MUL PUSH1 0x0 NOT ADD SWAP1 SWAP5 AND SWAP4 SWAP1 SWAP4 DIV PUSH1 0x1F DUP2 ADD DUP5 SWAP1 DIV DUP5 MUL DUP3 ADD DUP5 ADD SWAP1 SWAP3 MSTORE DUP2 DUP2 MSTORE SWAP3 SWAP2 DUP4 ADD DUP3 DUP3 DUP1 ISZERO PUSH2 0x4D9 JUMPI DUP1 PUSH1 0x1F LT PUSH2 0x4AE JUMPI PUSH2 0x100 DUP1 DUP4 SLOAD DIV MUL DUP4 MSTORE SWAP2 PUSH1 0x20 ADD SWAP2 PUSH2 0x4D9 JUMP JUMPDEST DUP3 ADD SWAP2 SWAP1 PUSH1 0x0 MSTORE PUSH1 0x20 PUSH1 0x0 KECCAK256 SWAP1 JUMPDEST DUP2 SLOAD DUP2 MSTORE SWAP1 PUSH1 0x1 ADD SWAP1 PUSH1 0x20 ADD DUP1 DUP4 GT PUSH2 0x4BC JUMPI DUP3 SWAP1 SUB PUSH1 0x1F AND DUP3 ADD SWAP2 JUMPDEST POP POP POP POP POP DUP2 JUMP JUMPDEST PUSH1 0x3 SLOAD PUSH1 0x2 SLOAD PUSH1 0x40 MLOAD PUSH4 0x95EA7B3 PUSH1 0xE0 SHL DUP2 MSTORE PUSH1 0x0 SWAP3 DUP4 SWAP3 DUP4 SWAP3 PUSH1 0x1 PUSH1 0x1 PUSH1 0xA0 SHL SUB SWAP3 DUP4 AND SWAP3 PUSH4 0x95EA7B3 SWAP3 PUSH2 0x51E SWAP3 SWAP2 AND SWAP1 DUP14 SWAP1 PUSH1 0x4 ADD PUSH2 0xC59 JUMP JUMPDEST PUSH1 0x20 PUSH1 0x40 MLOAD DUP1 DUP4 SUB DUP2 PUSH1 0x0 DUP8 DUP1 EXTCODESIZE ISZERO DUP1 ISZERO PUSH2 0x538 JUMPI PUSH1 0x0 DUP1 REVERT JUMPDEST POP GAS CALL ISZERO DUP1 ISZERO PUSH2 0x54C JUMPI RETURNDATASIZE PUSH1 0x0 DUP1 RETURNDATACOPY RETURNDATASIZE PUSH1 0x0 REVERT JUMPDEST POP POP POP POP PUSH1 0x40 MLOAD RETURNDATASIZE PUSH1 0x1F NOT PUSH1 0x1F DUP3 ADD AND DUP3 ADD DUP1 PUSH1 0x40 MSTORE POP PUSH2 0x570 SWAP2 SWAP1 DUP2 ADD SWAP1 PUSH2 0x9B6 JUMP JUMPDEST PUSH2 0x579 JUMPI PUSH1 0x0 DUP1 REVERT JUMPDEST PUSH1 0x2 SLOAD PUSH1 0x40 DUP1 MLOAD PUSH4 0x15AB88C9 PUSH1 0xE3 SHL DUP2 MSTORE SWAP1 MLOAD PUSH1 0x0 SWAP3 PUSH1 0x1 PUSH1 0x1 PUSH1 0xA0 SHL SUB AND SWAP2 PUSH4 0xAD5C4648 SWAP2 PUSH1 0x4 DUP1 DUP4 ADD SWAP3 PUSH1 0x20 SWAP3 SWAP2 SWAP1 DUP3 SWAP1 SUB ADD DUP2 DUP7 DUP1 EXTCODESIZE ISZERO DUP1 ISZERO PUSH2 0x5BE JUMPI PUSH1 0x0 DUP1 REVERT JUMPDEST POP GAS STATICCALL ISZERO DUP1 ISZERO PUSH2 0x5D2 JUMPI RETURNDATASIZE PUSH1 0x0 DUP1 RETURNDATACOPY RETURNDATASIZE PUSH1 0x0 REVERT JUMPDEST POP POP POP POP PUSH1 0x40 MLOAD RETURNDATASIZE PUSH1 0x1F NOT PUSH1 0x1F DUP3 ADD AND DUP3 ADD DUP1 PUSH1 0x40 MSTORE POP PUSH2 0x5F6 SWAP2 SWAP1 DUP2 ADD SWAP1 PUSH2 0x956 JUMP JUMPDEST PUSH1 0x2 SLOAD PUSH1 0x40 MLOAD PUSH4 0x95EA7B3 PUSH1 0xE0 SHL DUP2 MSTORE SWAP2 SWAP3 POP PUSH1 0x1 PUSH1 0x1 PUSH1 0xA0 SHL SUB DUP1 DUP5 AND SWAP3 PUSH4 0x95EA7B3 SWAP3 PUSH2 0x62B SWAP3 AND SWAP1 DUP14 SWAP1 PUSH1 0x4 ADD PUSH2 0xC59 JUMP JUMPDEST PUSH1 0x20 PUSH1 0x40 MLOAD DUP1 DUP4 SUB DUP2 PUSH1 0x0 DUP8 DUP1 EXTCODESIZE ISZERO DUP1 ISZERO PUSH2 0x645 JUMPI PUSH1 0x0 DUP1 REVERT JUMPDEST POP GAS CALL ISZERO DUP1 ISZERO PUSH2 0x659 JUMPI RETURNDATASIZE PUSH1 0x0 DUP1 RETURNDATACOPY RETURNDATASIZE PUSH1 0x0 REVERT JUMPDEST POP POP POP POP PUSH1 0x40 MLOAD RETURNDATASIZE PUSH1 0x1F NOT PUSH1 0x1F DUP3 ADD AND DUP3 ADD DUP1 PUSH1 0x40 MSTORE POP PUSH2 0x67D SWAP2 SWAP1 DUP2 ADD SWAP1 PUSH2 0x9B6 JUMP JUMPDEST PUSH2 0x686 JUMPI PUSH1 0x0 DUP1 REVERT JUMPDEST PUSH1 0x2 SLOAD PUSH1 0x3 SLOAD PUSH1 0x40 DUP1 MLOAD PUSH4 0x15AB88C9 PUSH1 0xE3 SHL DUP2 MSTORE SWAP1 MLOAD PUSH1 0x1 PUSH1 0x1 PUSH1 0xA0 SHL SUB SWAP4 DUP5 AND SWAP4 PUSH4 0xE8E33700 SWAP4 AND SWAP2 DUP5 SWAP2 PUSH4 0xAD5C4648 SWAP2 PUSH1 0x4 DUP1 DUP3 ADD SWAP3 PUSH1 0x20 SWAP3 SWAP1 SWAP2 SWAP1 DUP3 SWAP1 SUB ADD DUP2 DUP7 DUP1 EXTCODESIZE ISZERO DUP1 ISZERO PUSH2 0x6D8 JUMPI PUSH1 0x0 DUP1 REVERT JUMPDEST POP GAS STATICCALL ISZERO DUP1 ISZERO PUSH2 0x6EC JUMPI RETURNDATASIZE PUSH1 0x0 DUP1 RETURNDATACOPY RETURNDATASIZE PUSH1 0x0 REVERT JUMPDEST POP POP POP POP PUSH1 0x40 MLOAD RETURNDATASIZE PUSH1 0x1F NOT PUSH1 0x1F DUP3 ADD AND DUP3 ADD DUP1 PUSH1 0x40 MSTORE POP PUSH2 0x710 SWAP2 SWAP1 DUP2 ADD SWAP1 PUSH2 0x956 JUMP JUMPDEST DUP14 DUP14 DUP14 DUP14 DUP14 DUP14 PUSH1 0x40 MLOAD DUP10 PUSH4 0xFFFFFFFF AND PUSH1 0xE0 SHL DUP2 MSTORE PUSH1 0x4 ADD PUSH2 0x739 SWAP9 SWAP8 SWAP7 SWAP6 SWAP5 SWAP4 SWAP3 SWAP2 SWAP1 PUSH2 0xBE2 JUMP JUMPDEST PUSH1 0x60 PUSH1 0x40 MLOAD DUP1 DUP4 SUB DUP2 PUSH1 0x0 DUP8 DUP1 EXTCODESIZE ISZERO DUP1 ISZERO PUSH2 0x753 JUMPI PUSH1 0x0 DUP1 REVERT JUMPDEST POP GAS CALL ISZERO DUP1 ISZERO PUSH2 0x767 JUMPI RETURNDATASIZE PUSH1 0x0 DUP1 RETURNDATACOPY RETURNDATASIZE PUSH1 0x0 REVERT JUMPDEST POP POP POP POP PUSH1 0x40 MLOAD RETURNDATASIZE PUSH1 0x1F NOT PUSH1 0x1F DUP3 ADD AND DUP3 ADD DUP1 PUSH1 0x40 MSTORE POP PUSH2 0x78B SWAP2 SWAP1 DUP2 ADD SWAP1 PUSH2 0xA7B JUMP JUMPDEST SWAP4 POP SWAP4 POP SWAP4 POP POP SWAP7 POP SWAP7 POP SWAP7 SWAP4 POP POP POP POP JUMP JUMPDEST PUSH1 0x40 MLOAD PUSH4 0xA9059CBB PUSH1 0xE0 SHL DUP2 MSTORE PUSH1 0x1 PUSH1 0x1 PUSH1 0xA0 SHL SUB DUP5 AND SWAP1 PUSH4 0xA9059CBB SWAP1 PUSH2 0x2C1 SWAP1 DUP6 SWAP1 DUP6 SWAP1 PUSH1 0x4 ADD PUSH2 0xC59 JUMP JUMPDEST PUSH1 0x40 MLOAD PUSH4 0x95EA7B3 PUSH1 0xE0 SHL DUP2 MSTORE PUSH1 0x1 PUSH1 0x1 PUSH1 0xA0 SHL SUB DUP5 AND SWAP1 PUSH4 0x95EA7B3 SWAP1 PUSH2 0x2C1 SWAP1 DUP6 SWAP1 DUP6 SWAP1 PUSH1 0x4 ADD PUSH2 0xC59 JUMP JUMPDEST PUSH1 0x40 MLOAD PUSH4 0x70A08231 PUSH1 0xE0 SHL DUP2 MSTORE PUSH1 0x0 SWAP1 PUSH1 0x1 PUSH1 0x1 PUSH1 0xA0 SHL SUB DUP4 AND SWAP1 PUSH4 0x70A08231 SWAP1 PUSH2 0x829 SWAP1 ADDRESS SWAP1 PUSH1 0x4 ADD PUSH2 0xB9E JUMP JUMPDEST PUSH1 0x20 PUSH1 0x40 MLOAD DUP1 DUP4 SUB DUP2 DUP7 DUP1 EXTCODESIZE ISZERO DUP1 ISZERO PUSH2 0x841 JUMPI PUSH1 0x0 DUP1 REVERT JUMPDEST POP GAS STATICCALL ISZERO DUP1 ISZERO PUSH2 0x855 JUMPI RETURNDATASIZE PUSH1 0x0 DUP1 RETURNDATACOPY RETURNDATASIZE PUSH1 0x0 REVERT JUMPDEST POP POP POP POP PUSH1 0x40 MLOAD RETURNDATASIZE PUSH1 0x1F NOT PUSH1 0x1F DUP3 ADD AND DUP3 ADD DUP1 PUSH1 0x40 MSTORE POP PUSH2 0x879 SWAP2 SWAP1 DUP2 ADD SWAP1 PUSH2 0xA5D JUMP JUMPDEST SWAP3 SWAP2 POP POP JUMP JUMPDEST PUSH1 0x1 DUP1 SLOAD PUSH1 0x40 DUP1 MLOAD PUSH1 0x20 PUSH1 0x1F PUSH1 0x2 PUSH1 0x0 NOT PUSH2 0x100 DUP8 DUP10 AND ISZERO MUL ADD SWAP1 SWAP6 AND SWAP5 SWAP1 SWAP5 DIV SWAP4 DUP5 ADD DUP2 SWAP1 DIV DUP2 MUL DUP3 ADD DUP2 ADD SWAP1 SWAP3 MSTORE DUP3 DUP2 MSTORE PUSH1 0x60 SWAP4 SWAP1 SWAP3 SWAP1 SWAP2 DUP4 ADD DUP3 DUP3 DUP1 ISZERO PUSH2 0x90A JUMPI DUP1 PUSH1 0x1F LT PUSH2 0x8DF JUMPI PUSH2 0x100 DUP1 DUP4 SLOAD DIV MUL DUP4 MSTORE SWAP2 PUSH1 0x20 ADD SWAP2 PUSH2 0x90A JUMP JUMPDEST DUP3 ADD SWAP2 SWAP1 PUSH1 0x0 MSTORE PUSH1 0x20 PUSH1 0x0 KECCAK256 SWAP1 JUMPDEST DUP2 SLOAD DUP2 MSTORE SWAP1 PUSH1 0x1 ADD SWAP1 PUSH1 0x20 ADD DUP1 DUP4 GT PUSH2 0x8ED JUMPI DUP3 SWAP1 SUB PUSH1 0x1F AND DUP3 ADD SWAP2 JUMPDEST POP POP POP POP POP SWAP1 POP SWAP1 JUMP JUMPDEST DUP1 CALLDATALOAD PUSH2 0x879 DUP2 PUSH2 0xD31 JUMP JUMPDEST DUP1 MLOAD PUSH2 0x879 DUP2 PUSH2 0xD31 JUMP JUMPDEST DUP1 MLOAD PUSH2 0x879 DUP2 PUSH2 0xD48 JUMP JUMPDEST DUP1 CALLDATALOAD PUSH2 0x879 DUP2 PUSH2 0xD51 JUMP JUMPDEST DUP1 CALLDATALOAD PUSH2 0x879 DUP2 PUSH2 0xD5A JUMP JUMPDEST DUP1 MLOAD PUSH2 0x879 DUP2 PUSH2 0xD5A JUMP JUMPDEST PUSH1 0x0 PUSH1 0x20 DUP3 DUP5 SUB SLT ISZERO PUSH2 0x968 JUMPI PUSH1 0x0 DUP1 REVERT JUMPDEST PUSH1 0x0 PUSH2 0x974 DUP5 DUP5 PUSH2 0x91F JUMP JUMPDEST SWAP5 SWAP4 POP POP POP POP JUMP JUMPDEST PUSH1 0x0 DUP1 PUSH1 0x40 DUP4 DUP6 SUB SLT ISZERO PUSH2 0x98F JUMPI PUSH1 0x0 DUP1 REVERT JUMPDEST PUSH1 0x0 PUSH2 0x99B DUP6 DUP6 PUSH2 0x914 JUMP JUMPDEST SWAP3 POP POP PUSH1 0x20 PUSH2 0x9AC DUP6 DUP3 DUP7 ADD PUSH2 0x940 JUMP JUMPDEST SWAP2 POP POP SWAP3 POP SWAP3 SWAP1 POP JUMP JUMPDEST PUSH1 0x0 PUSH1 0x20 DUP3 DUP5 SUB SLT ISZERO PUSH2 0x9C8 JUMPI PUSH1 0x0 DUP1 REVERT JUMPDEST PUSH1 0x0 PUSH2 0x974 DUP5 DUP5 PUSH2 0x92A JUMP JUMPDEST PUSH1 0x0 PUSH1 0x20 DUP3 DUP5 SUB SLT ISZERO PUSH2 0x9E6 JUMPI PUSH1 0x0 DUP1 REVERT JUMPDEST PUSH1 0x0 PUSH2 0x974 DUP5 DUP5 PUSH2 0x935 JUMP JUMPDEST PUSH1 0x0 DUP1 PUSH1 0x0 PUSH1 0x60 DUP5 DUP7 SUB SLT ISZERO PUSH2 0xA07 JUMPI PUSH1 0x0 DUP1 REVERT JUMPDEST PUSH1 0x0 PUSH2 0xA13 DUP7 DUP7 PUSH2 0x935 JUMP JUMPDEST SWAP4 POP POP PUSH1 0x20 PUSH2 0xA24 DUP7 DUP3 DUP8 ADD PUSH2 0x914 JUMP JUMPDEST SWAP3 POP POP PUSH1 0x40 PUSH2 0xA35 DUP7 DUP3 DUP8 ADD PUSH2 0x940 JUMP JUMPDEST SWAP2 POP POP SWAP3 POP SWAP3 POP SWAP3 JUMP JUMPDEST PUSH1 0x0 PUSH1 0x20 DUP3 DUP5 SUB SLT ISZERO PUSH2 0xA51 JUMPI PUSH1 0x0 DUP1 REVERT JUMPDEST PUSH1 0x0 PUSH2 0x974 DUP5 DUP5 PUSH2 0x940 JUMP JUMPDEST PUSH1 0x0 PUSH1 0x20 DUP3 DUP5 SUB SLT ISZERO PUSH2 0xA6F JUMPI PUSH1 0x0 DUP1 REVERT JUMPDEST PUSH1 0x0 PUSH2 0x974 DUP5 DUP5 PUSH2 0x94B JUMP JUMPDEST PUSH1 0x0 DUP1 PUSH1 0x0 PUSH1 0x60 DUP5 DUP7 SUB SLT ISZERO PUSH2 0xA90 JUMPI PUSH1 0x0 DUP1 REVERT JUMPDEST PUSH1 0x0 PUSH2 0xA9C DUP7 DUP7 PUSH2 0x94B JUMP JUMPDEST SWAP4 POP POP PUSH1 0x20 PUSH2 0xAAD DUP7 DUP3 DUP8 ADD PUSH2 0x94B JUMP JUMPDEST SWAP3 POP POP PUSH1 0x40 PUSH2 0xA35 DUP7 DUP3 DUP8 ADD PUSH2 0x94B JUMP JUMPDEST PUSH1 0x0 DUP1 PUSH1 0x0 DUP1 PUSH1 0x0 DUP1 PUSH1 0xC0 DUP8 DUP10 SUB SLT ISZERO PUSH2 0xAD7 JUMPI PUSH1 0x0 DUP1 REVERT JUMPDEST PUSH1 0x0 PUSH2 0xAE3 DUP10 DUP10 PUSH2 0x940 JUMP JUMPDEST SWAP7 POP POP PUSH1 0x20 PUSH2 0xAF4 DUP10 DUP3 DUP11 ADD PUSH2 0x940 JUMP JUMPDEST SWAP6 POP POP PUSH1 0x40 PUSH2 0xB05 DUP10 DUP3 DUP11 ADD PUSH2 0x940 JUMP JUMPDEST SWAP5 POP POP PUSH1 0x60 PUSH2 0xB16 DUP10 DUP3 DUP11 ADD PUSH2 0x940 JUMP JUMPDEST SWAP4 POP POP PUSH1 0x80 PUSH2 0xB27 DUP10 DUP3 DUP11 ADD PUSH2 0x914 JUMP JUMPDEST SWAP3 POP POP PUSH1 0xA0 PUSH2 0xB38 DUP10 DUP3 DUP11 ADD PUSH2 0x940 JUMP JUMPDEST SWAP2 POP POP SWAP3 SWAP6 POP SWAP3 SWAP6 POP SWAP3 SWAP6 JUMP JUMPDEST PUSH2 0xB4E DUP2 PUSH2 0xCEC JUMP JUMPDEST DUP3 MSTORE POP POP JUMP JUMPDEST PUSH2 0xB4E DUP2 PUSH2 0xCC2 JUMP JUMPDEST PUSH1 0x0 PUSH2 0xB68 DUP3 PUSH2 0xCB5 JUMP JUMPDEST PUSH2 0xB72 DUP2 DUP6 PUSH2 0xCB9 JUMP JUMPDEST SWAP4 POP PUSH2 0xB82 DUP2 DUP6 PUSH1 0x20 DUP7 ADD PUSH2 0xCF7 JUMP JUMPDEST PUSH2 0xB8B DUP2 PUSH2 0xD27 JUMP JUMPDEST SWAP1 SWAP4 ADD SWAP4 SWAP3 POP POP POP JUMP JUMPDEST PUSH2 0xB4E DUP2 PUSH2 0xCE9 JUMP JUMPDEST PUSH1 0x20 DUP2 ADD PUSH2 0x879 DUP3 DUP5 PUSH2 0xB45 JUMP JUMPDEST PUSH1 0x20 DUP2 ADD PUSH2 0x879 DUP3 DUP5 PUSH2 0xB54 JUMP JUMPDEST PUSH1 0x60 DUP2 ADD PUSH2 0xBC8 DUP3 DUP7 PUSH2 0xB45 JUMP JUMPDEST PUSH2 0xBD5 PUSH1 0x20 DUP4 ADD DUP6 PUSH2 0xB54 JUMP JUMPDEST PUSH2 0x974 PUSH1 0x40 DUP4 ADD DUP5 PUSH2 0xB95 JUMP JUMPDEST PUSH2 0x100 DUP2 ADD PUSH2 0xBF1 DUP3 DUP12 PUSH2 0xB54 JUMP JUMPDEST PUSH2 0xBFE PUSH1 0x20 DUP4 ADD DUP11 PUSH2 0xB54 JUMP JUMPDEST PUSH2 0xC0B PUSH1 0x40 DUP4 ADD DUP10 PUSH2 0xB95 JUMP JUMPDEST PUSH2 0xC18 PUSH1 0x60 DUP4 ADD DUP9 PUSH2 0xB95 JUMP JUMPDEST PUSH2 0xC25 PUSH1 0x80 DUP4 ADD DUP8 PUSH2 0xB95 JUMP JUMPDEST PUSH2 0xC32 PUSH1 0xA0 DUP4 ADD DUP7 PUSH2 0xB95 JUMP JUMPDEST PUSH2 0xC3F PUSH1 0xC0 DUP4 ADD DUP6 PUSH2 0xB54 JUMP JUMPDEST PUSH2 0xC4C PUSH1 0xE0 DUP4 ADD DUP5 PUSH2 0xB95 JUMP JUMPDEST SWAP10 SWAP9 POP POP POP POP POP POP POP POP POP JUMP JUMPDEST PUSH1 0x40 DUP2 ADD PUSH2 0xC67 DUP3 DUP6 PUSH2 0xB54 JUMP JUMPDEST PUSH2 0xC74 PUSH1 0x20 DUP4 ADD DUP5 PUSH2 0xB95 JUMP JUMPDEST SWAP4 SWAP3 POP POP POP JUMP JUMPDEST PUSH1 0x20 DUP1 DUP3 MSTORE DUP2 ADD PUSH2 0xC74 DUP2 DUP5 PUSH2 0xB5D JUMP JUMPDEST PUSH1 0x20 DUP2 ADD PUSH2 0x879 DUP3 DUP5 PUSH2 0xB95 JUMP JUMPDEST PUSH1 0x60 DUP2 ADD PUSH2 0xCA8 DUP3 DUP7 PUSH2 0xB95 JUMP JUMPDEST PUSH2 0xBD5 PUSH1 0x20 DUP4 ADD DUP6 PUSH2 0xB95 JUMP JUMPDEST MLOAD SWAP1 JUMP JUMPDEST SWAP1 DUP2 MSTORE PUSH1 0x20 ADD SWAP1 JUMP JUMPDEST PUSH1 0x0 PUSH2 0x879 DUP3 PUSH2 0xCDD JUMP JUMPDEST ISZERO ISZERO SWAP1 JUMP JUMPDEST PUSH1 0x0 PUSH2 0x879 DUP3 PUSH2 0xCC2 JUMP JUMPDEST PUSH1 0x1 PUSH1 0x1 PUSH1 0xA0 SHL SUB AND SWAP1 JUMP JUMPDEST SWAP1 JUMP JUMPDEST PUSH1 0x0 PUSH2 0x879 DUP3 PUSH2 0xCD2 JUMP JUMPDEST PUSH1 0x0 JUMPDEST DUP4 DUP2 LT ISZERO PUSH2 0xD12 JUMPI DUP2 DUP2 ADD MLOAD DUP4 DUP3 ADD MSTORE PUSH1 0x20 ADD PUSH2 0xCFA JUMP JUMPDEST DUP4 DUP2 GT ISZERO PUSH2 0xD21 JUMPI PUSH1 0x0 DUP5 DUP5 ADD MSTORE JUMPDEST POP POP POP POP JUMP JUMPDEST PUSH1 0x1F ADD PUSH1 0x1F NOT AND SWAP1 JUMP JUMPDEST PUSH2 0xD3A DUP2 PUSH2 0xCC2 JUMP JUMPDEST DUP2 EQ PUSH2 0xD45 JUMPI PUSH1 0x0 DUP1 REVERT JUMPDEST POP JUMP JUMPDEST PUSH2 0xD3A DUP2 PUSH2 0xCCD JUMP JUMPDEST PUSH2 0xD3A DUP2 PUSH2 0xCD2 JUMP JUMPDEST PUSH2 0xD3A DUP2 PUSH2 0xCE9 JUMP INVALID LOG3 PUSH6 0x627A7A723158 KECCAK256 CREATE SELFBALANCE PUSH6 0xAED3A15EA24C PUSH22 0x8B12DF617040093B983E5708BB08645577271466AF5E PUSH13 0x6578706572696D656E74616CF5 PUSH5 0x736F6C6343 STOP SDIV LT STOP BLOCKHASH LOG3 PUSH6 0x627A7A723158 KECCAK256 EQ SWAP15 RETURNDATACOPY 0xAD SWAP7 PUSH23 0x43F232A8322D0DDFA7B9815232163B593803F7C022C640 MSIZE 0x4F PUSH5 0x6C65787065 PUSH19 0x696D656E74616CF564736F6C63430005100040 "
		},
		"gasEstimates": {
			"creation": {
				"codeDepositCost": "4190600",
				"executionCost": "25653",
				"totalCost": "4216253"
			},
			"external": {
				"assign(string,uint256)": "infinite",
				"assignEth(string,uint256)": "infinite",
				"assignLiquidity(string)": "infinite",
				"assignToken(string)": "infinite",
				"discoAddress(string)": "infinite",
				"discoToken(string)": "infinite",
				"discos(string)": "infinite",
				"enableDisco(string)": "infinite",
				"finishedDisco(string)": "infinite",
				"getDate()": "infinite",
				"getInvestAmt(string)": "infinite",
				"investor(string,uint256)": "infinite",
				"investors(string,uint256)": "infinite",
				"newDisco((string,address,address,string,uint256,uint256,uint256,uint256,uint256,uint256,uint256,uint256))": "infinite",
				"poolEthBalance(string)": "infinite",
				"poolTokenBalance(string)": "infinite",
				"refund(string)": "infinite",
				"setPreFee(uint256)": "infinite",
				"setSwap(address)": "infinite",
				"status(string)": "infinite"
			},
			"internal": {
				"getDeadline(uint256)": "58",
				"getPreFee()": "21652"
			}
		},
		"methodIdentifiers": {
			"assign(string,uint256)": "00d05029",
			"assignEth(string,uint256)": "20192402",
			"assignLiquidity(string)": "512518b5",
			"assignToken(string)": "1218bfff",
			"discoAddress(string)": "5e56fb01",
			"discoToken(string)": "66f61fb9",
			"discos(string)": "2df79172",
			"enableDisco(string)": "c79d1921",
			"finishedDisco(string)": "7a328a7e",
			"getDate()": "430fe9c1",
			"getInvestAmt(string)": "34d30e40",
			"investor(string,uint256)": "b16e68eb",
			"investors(string,uint256)": "34e8e57b",
			"newDisco((string,address,address,string,uint256,uint256,uint256,uint256,uint256,uint256,uint256,uint256))": "48569ee9",
			"poolEthBalance(string)": "95a16979",
			"poolTokenBalance(string)": "56bf9942",
			"refund(string)": "fe5f2e88",
			"setPreFee(uint256)": "15282c9e",
			"setSwap(address)": "acb3c073",
			"status(string)": "e8ca64f4"
		}
	},
	"abi": [
		{
			"inputs": [],
			"payable": false,
			"stateMutability": "nonpayable",
			"type": "constructor"
		},
		{
			"anonymous": false,
			"inputs": [
				{
					"indexed": false,
					"internalType": "string",
					"name": "discoId",
					"type": "string"
				},
				{
					"indexed": false,
					"internalType": "contract DiscoAddr",
					"name": "addr",
					"type": "address"
				}
			],
			"name": "createdDisco",
			"type": "event"
		},
		{
			"anonymous": false,
			"inputs": [
				{
					"indexed": false,
					"internalType": "string",
					"name": "discoId",
					"type": "string"
				}
			],
			"name": "enabledDisco",
			"type": "event"
		},
		{
			"anonymous": false,
			"inputs": [
				{
					"indexed": false,
					"internalType": "string",
					"name": "discoId",
					"type": "string"
				}
			],
			"name": "fundraisingFailed",
			"type": "event"
		},
		{
			"anonymous": false,
			"inputs": [
				{
					"indexed": false,
					"internalType": "string",
					"name": "discoIdo",
					"type": "string"
				},
				{
					"indexed": false,
					"internalType": "bool",
					"name": "success",
					"type": "bool"
				}
			],
			"name": "fundraisingFinished",
			"type": "event"
		},
		{
			"anonymous": false,
			"inputs": [
				{
					"indexed": false,
					"internalType": "string",
					"name": "discoId",
					"type": "string"
				}
			],
			"name": "fundraisingSucceed",
			"type": "event"
		},
		{
			"anonymous": false,
			"inputs": [
				{
					"indexed": false,
					"internalType": "string",
					"name": "discoId",
					"type": "string"
				},
				{
					"indexed": false,
					"internalType": "address",
					"name": "investorAddr",
					"type": "address"
				},
				{
					"indexed": false,
					"internalType": "uint256",
					"name": "amount",
					"type": "uint256"
				}
			],
			"name": "investToDisco",
			"type": "event"
		},
		{
			"constant": false,
			"inputs": [
				{
					"internalType": "string",
					"name": "id",
					"type": "string"
				},
				{
					"internalType": "uint256",
					"name": "investAmt",
					"type": "uint256"
				}
			],
			"name": "assign",
			"outputs": [
				{
					"internalType": "uint256",
					"name": "",
					"type": "uint256"
				},
				{
					"internalType": "uint256",
					"name": "",
					"type": "uint256"
				}
			],
			"payable": true,
			"stateMutability": "payable",
			"type": "function"
		},
		{
			"constant": false,
			"inputs": [
				{
					"internalType": "string",
					"name": "id",
					"type": "string"
				},
				{
					"internalType": "uint256",
					"name": "investAmt",
					"type": "uint256"
				}
			],
			"name": "assignEth",
			"outputs": [
				{
					"internalType": "uint256",
					"name": "",
					"type": "uint256"
				}
			],
			"payable": true,
			"stateMutability": "payable",
			"type": "function"
		},
		{
			"constant": false,
			"inputs": [
				{
					"internalType": "string",
					"name": "id",
					"type": "string"
				}
			],
			"name": "assignLiquidity",
			"outputs": [],
			"payable": true,
			"stateMutability": "payable",
			"type": "function"
		},
		{
			"constant": false,
			"inputs": [
				{
					"internalType": "string",
					"name": "id",
					"type": "string"
				}
			],
			"name": "assignToken",
			"outputs": [
				{
					"internalType": "uint256",
					"name": "",
					"type": "uint256"
				}
			],
			"payable": true,
			"stateMutability": "payable",
			"type": "function"
		},
		{
			"constant": true,
			"inputs": [
				{
					"internalType": "string",
					"name": "",
					"type": "string"
				}
			],
			"name": "discoAddress",
			"outputs": [
				{
					"internalType": "contract DiscoAddr",
					"name": "discoAddr",
					"type": "address"
				},
				{
					"internalType": "contract IERC20",
					"name": "token",
					"type": "address"
				},
				{
					"internalType": "address payable",
					"name": "depositAccount",
					"type": "address"
				},
				{
					"internalType": "uint256",
					"name": "initLiquidity",
					"type": "uint256"
				},
				{
					"internalType": "uint256",
					"name": "swapEth",
					"type": "uint256"
				},
				{
					"internalType": "uint256",
					"name": "swapToken",
					"type": "uint256"
				}
			],
			"payable": false,
			"stateMutability": "view",
			"type": "function"
		},
		{
			"constant": true,
			"inputs": [
				{
					"internalType": "string",
					"name": "id",
					"type": "string"
				}
			],
			"name": "discoToken",
			"outputs": [
				{
					"internalType": "contract IERC20",
					"name": "",
					"type": "address"
				}
			],
			"payable": false,
			"stateMutability": "view",
			"type": "function"
		},
		{
			"constant": true,
			"inputs": [
				{
					"internalType": "string",
					"name": "",
					"type": "string"
				}
			],
			"name": "discos",
			"outputs": [
				{
					"internalType": "string",
					"name": "id",
					"type": "string"
				},
				{
					"internalType": "address payable",
					"name": "walletAddr",
					"type": "address"
				},
				{
					"internalType": "address",
					"name": "tokenAddr",
					"type": "address"
				},
				{
					"internalType": "string",
					"name": "description",
					"type": "string"
				},
				{
					"internalType": "uint256",
					"name": "fundRaisingStartedAt",
					"type": "uint256"
				},
				{
					"internalType": "uint256",
					"name": "fundRaisingEndedAt",
					"type": "uint256"
				},
				{
					"internalType": "uint256",
					"name": "investmentReward",
					"type": "uint256"
				},
				{
					"internalType": "uint256",
					"name": "rewardDeclineRate",
					"type": "uint256"
				},
				{
					"internalType": "uint256",
					"name": "shareToken",
					"type": "uint256"
				},
				{
					"internalType": "uint256",
					"name": "minFundRaising",
					"type": "uint256"
				},
				{
					"internalType": "uint256",
					"name": "addLiquidityPool",
					"type": "uint256"
				},
				{
					"internalType": "uint256",
					"name": "totalDepositToken",
					"type": "uint256"
				}
			],
			"payable": false,
			"stateMutability": "view",
			"type": "function"
		},
		{
			"constant": false,
			"inputs": [
				{
					"internalType": "string",
					"name": "id",
					"type": "string"
				}
			],
			"name": "enableDisco",
			"outputs": [],
			"payable": true,
			"stateMutability": "payable",
			"type": "function"
		},
		{
			"constant": false,
			"inputs": [
				{
					"internalType": "string",
					"name": "id",
					"type": "string"
				}
			],
			"name": "finishedDisco",
			"outputs": [],
			"payable": false,
			"stateMutability": "nonpayable",
			"type": "function"
		},
		{
			"constant": true,
			"inputs": [],
			"name": "getDate",
			"outputs": [
				{
					"internalType": "uint256",
					"name": "",
					"type": "uint256"
				}
			],
			"payable": false,
			"stateMutability": "view",
			"type": "function"
		},
		{
			"constant": true,
			"inputs": [
				{
					"internalType": "string",
					"name": "id",
					"type": "string"
				}
			],
			"name": "getInvestAmt",
			"outputs": [
				{
					"internalType": "uint256",
					"name": "",
					"type": "uint256"
				},
				{
					"internalType": "uint256",
					"name": "",
					"type": "uint256"
				}
			],
			"payable": false,
			"stateMutability": "view",
			"type": "function"
		},
		{
			"constant": false,
			"inputs": [
				{
					"internalType": "string",
					"name": "id",
					"type": "string"
				},
				{
					"internalType": "uint256",
					"name": "time",
					"type": "uint256"
				}
			],
			"name": "investor",
			"outputs": [],
			"payable": true,
			"stateMutability": "payable",
			"type": "function"
		},
		{
			"constant": true,
			"inputs": [
				{
					"internalType": "string",
					"name": "",
					"type": "string"
				},
				{
					"internalType": "uint256",
					"name": "",
					"type": "uint256"
				}
			],
			"name": "investors",
			"outputs": [
				{
					"internalType": "address payable",
					"name": "investor",
					"type": "address"
				},
				{
					"internalType": "uint256",
					"name": "value",
					"type": "uint256"
				},
				{
					"internalType": "uint256",
					"name": "time",
					"type": "uint256"
				},
				{
					"internalType": "bool",
					"name": "isDead",
					"type": "bool"
				}
			],
			"payable": false,
			"stateMutability": "view",
			"type": "function"
		},
		{
			"constant": false,
			"inputs": [
				{
					"components": [
						{
							"internalType": "string",
							"name": "id",
							"type": "string"
						},
						{
							"internalType": "address payable",
							"name": "walletAddr",
							"type": "address"
						},
						{
							"internalType": "address",
							"name": "tokenAddr",
							"type": "address"
						},
						{
							"internalType": "string",
							"name": "description",
							"type": "string"
						},
						{
							"internalType": "uint256",
							"name": "fundRaisingStartedAt",
							"type": "uint256"
						},
						{
							"internalType": "uint256",
							"name": "fundRaisingEndedAt",
							"type": "uint256"
						},
						{
							"internalType": "uint256",
							"name": "investmentReward",
							"type": "uint256"
						},
						{
							"internalType": "uint256",
							"name": "rewardDeclineRate",
							"type": "uint256"
						},
						{
							"internalType": "uint256",
							"name": "shareToken",
							"type": "uint256"
						},
						{
							"internalType": "uint256",
							"name": "minFundRaising",
							"type": "uint256"
						},
						{
							"internalType": "uint256",
							"name": "addLiquidityPool",
							"type": "uint256"
						},
						{
							"internalType": "uint256",
							"name": "totalDepositToken",
							"type": "uint256"
						}
					],
					"internalType": "struct Disco.DiscoInfo",
					"name": "d",
					"type": "tuple"
				}
			],
			"name": "newDisco",
			"outputs": [],
			"payable": true,
			"stateMutability": "payable",
			"type": "function"
		},
		{
			"constant": true,
			"inputs": [
				{
					"internalType": "string",
					"name": "id",
					"type": "string"
				}
			],
			"name": "poolEthBalance",
			"outputs": [
				{
					"internalType": "uint256",
					"name": "",
					"type": "uint256"
				}
			],
			"payable": false,
			"stateMutability": "view",
			"type": "function"
		},
		{
			"constant": true,
			"inputs": [
				{
					"internalType": "string",
					"name": "id",
					"type": "string"
				}
			],
			"name": "poolTokenBalance",
			"outputs": [
				{
					"internalType": "uint256",
					"name": "",
					"type": "uint256"
				}
			],
			"payable": false,
			"stateMutability": "view",
			"type": "function"
		},
		{
			"constant": false,
			"inputs": [
				{
					"internalType": "string",
					"name": "id",
					"type": "string"
				}
			],
			"name": "refund",
			"outputs": [],
			"payable": true,
			"stateMutability": "payable",
			"type": "function"
		},
		{
			"constant": false,
			"inputs": [
				{
					"internalType": "uint256",
					"name": "pf",
					"type": "uint256"
				}
			],
			"name": "setPreFee",
			"outputs": [],
			"payable": false,
			"stateMutability": "nonpayable",
			"type": "function"
		},
		{
			"constant": false,
			"inputs": [
				{
					"internalType": "address",
					"name": "swapAddr",
					"type": "address"
				}
			],
			"name": "setSwap",
			"outputs": [],
			"payable": false,
			"stateMutability": "nonpayable",
			"type": "function"
		},
		{
			"constant": true,
			"inputs": [
				{
					"internalType": "string",
					"name": "",
					"type": "string"
				}
			],
			"name": "status",
			"outputs": [
				{
					"internalType": "bool",
					"name": "isFinished",
					"type": "bool"
				},
				{
					"internalType": "bool",
					"name": "isSuccess",
					"type": "bool"
				},
				{
					"internalType": "bool",
					"name": "isEnabled",
					"type": "bool"
				}
			],
			"payable": false,
			"stateMutability": "view",
			"type": "function"
		}
	]
}