{
	"data": {
		"bytecode": {
			"linkReferences": {
				"contracts/libraries/NumUtils.sol": {
					"NumUtils": [
						{
							"length": 20,
							"start": 4400
						}
					]
				}
			},
			"object": "60806040523480156200001157600080fd5b506040516200501738038062005017833981016040819052620000349162000128565b600080546001600160a01b031916331790556200005a826001600160e01b036200007616565b6200006e816001600160e01b03620000ca16565b505062000236565b6001600160a01b038116620000a85760405162461bcd60e51b81526004016200009f90620001dd565b60405180910390fd5b600180546001600160a01b0319166001600160a01b0392909216919091179055565b6001600160a01b038116620000f35760405162461bcd60e51b81526004016200009f90620001ef565b600280546001600160a01b0319166001600160a01b0392909216919091179055565b805162000122816200021c565b92915050565b600080604083850312156200013c57600080fd5b60006200014a858562000115565b92505060206200015d8582860162000115565b9150509250929050565b60006200017660158362000201565b7f69726f206164647265737320697320656d7074792e0000000000000000000000815260200192915050565b6000620001b160178362000201565b7f646973636f206164647265737320697320656d7074792e000000000000000000815260200192915050565b60208082528101620001228162000167565b602080825281016200012281620001a2565b90815260200190565b60006001600160a01b03821662000122565b62000227816200020a565b81146200023357600080fd5b50565b614dd180620002466000396000f3fe6080604052600436106200009e5760003560e01c806359f7f240116200006157806359f7f240146200018757806372d92f28146200019e5780638f65e69714620001c3578063d46d6d8a14620001f7578063ffb135a8146200021c576200009e565b80630f5e184914620000a3578063268d792c14620000ca5780632b4a249f14620000f95780633122fef1146200011e578063474b58c21462000153575b600080fd5b348015620000b057600080fd5b50620000c8620000c236600462003839565b62000241565b005b620000e1620000db3660046200393b565b620006d3565b604051620000f0919062004490565b60405180910390f35b3480156200010657600080fd5b50620000e1620001183660046200393b565b62001476565b3480156200012b57600080fd5b50620001436200013d36600462003839565b62001874565b604051620000f0929190620044a3565b3480156200016057600080fd5b50620001786200017236600462003839565b62001a55565b604051620000f0919062004340565b620000c862000198366004620039e1565b62001b0a565b348015620001ab57600080fd5b50620000c8620001bd36600462003770565b62001eb6565b348015620001d057600080fd5b50620001e8620001e2366004620037f4565b62001f01565b604051620000f09190620044df565b3480156200020457600080fd5b50620000c862000216366004620038ae565b62001f2e565b3480156200022957600080fd5b50620000c86200023b36600462003770565b62002319565b6200024b62002a16565b620002c085858080601f01602080910402602001604051908101604052809392919081815260200183838082843760009201919091525050604080516020601f890181900481028201810190925287815292508791508690819084018382808284376000920191909152506200236492505050565b905083620002eb5760405162461bcd60e51b8152600401620002e29062004412565b60405180910390fd5b600081606001516003811115620002fe57fe5b14156200031f5760405162461bcd60e51b8152600401620002e29062004400565b60025481516040516366f61fb960e01b81526000926001600160a01b0316916366f61fb9916200035391906004016200436f565b60206040518083038186803b1580156200036c57600080fd5b505afa15801562000381573d6000803e3d6000fd5b505050506040513d601f19601f82011682018060405250620003a79190810190620037d3565b905060606200042087878080601f01602080910402602001604051908101604052809392919081815260200183838082843760009201919091525050604080516020601f8b018190048102820181019092528981529250899150889081908401838280828437600092019190915250620029ca92505050565b90506060600682604051620004369190620042bc565b9081526020016040518091039020805480602002602001604051908101604052809291908181526020016000905b82821015620006085760008481526020908190206040805160068602909201805460026001821615610100026000190190911604601f8101859004909402830160e090810190925260c0830184815292939092849290918491840182828015620005125780601f10620004e65761010080835404028352916020019162000512565b820191906000526020600020905b815481529060010190602001808311620004f457829003601f168201915b50505050508152602001600182018054600181600116156101000203166002900480601f016020809104026020016040519081016040528092919081815260200182805460018160011615610100020316600290048015620005b85780601f106200058c57610100808354040283529160200191620005b8565b820191906000526020600020905b8154815290600101906020018083116200059a57829003601f168201915b505050918352505060028201546001600160a01b03166020808301919091526003830154604083015260048301546060830152600590920154608090910152908252600192909201910162000464565b5050505060e085810151015190915060005b8251811015620006c7576200062e62002a9b565b8382815181106200063b57fe5b60200260200101519050826001600160a01b031663beabacc887836040015184608001518560600151016040518463ffffffff1660e01b8152600401620006859392919062004321565b600060405180830381600087803b158015620006a057600080fd5b505af1158015620006b5573d6000803e3d6000fd5b5050600190930192506200061a915050565b50505050505050505050565b620006dd62002a16565b602083015151620007025760405162461bcd60e51b8152600401620002e29062004436565b825151620007245760405162461bcd60e51b8152600401620002e290620043b8565b6000600384600001516040516200073c9190620042bc565b908152602001604051809103902090506200075662002a16565b8185602001516040516200076b9190620042bc565b9081526040805160209281900383018120805460026001821615610100026000190190911604601f810185900490940282016101a090810190935261018082018481529193909284929184918401828280156200080c5780601f10620007e0576101008083540402835291602001916200080c565b820191906000526020600020905b815481529060010190602001808311620007ee57829003601f168201915b50505050508152602001600182018054600181600116156101000203166002900480601f016020809104026020016040519081016040528092919081815260200182805460018160011615610100020316600290048015620008b25780601f106200088657610100808354040283529160200191620008b2565b820191906000526020600020905b8154815290600101906020018083116200089457829003601f168201915b5050509183525050600282810180546040805160206001841615610100026000190190931694909404601f81018390048302850183019091528084529381019390830182828015620009485780601f106200091c5761010080835404028352916020019162000948565b820191906000526020600020905b8154815290600101906020018083116200092a57829003601f168201915b505050918352505060038281015460209092019160ff16908111156200096a57fe5b60038111156200097657fe5b81526020016003820160019054906101000a900460ff1660068111156200099957fe5b6006811115620009a557fe5b815260048201805460408051602060026001851615610100026000190190941693909304601f810184900484028201840190925281815293820193929183018282801562000a375780601f1062000a0b5761010080835404028352916020019162000a37565b820191906000526020600020905b81548152906001019060200180831162000a1957829003601f168201915b505050918352505060058201805460408051602060026001851615610100026000190190941693909304601f810184900484028201840190925281815293820193929183018282801562000acf5780601f1062000aa35761010080835404028352916020019162000acf565b820191906000526020600020905b81548152906001019060200180831162000ab157829003601f168201915b50505091835250506040805161010081019091526006830180546001600160a01b0381168352602093840193830190600160a01b900460ff16600181111562000b1457fe5b600181111562000b2057fe5b815260200160018201548152602001600282018054600181600116156101000203166002900480601f01602080910402602001604051908101604052809291908181526020018280546001816001161561010002031660029004801562000bcb5780601f1062000b9f5761010080835404028352916020019162000bcb565b820191906000526020600020905b81548152906001019060200180831162000bad57829003601f168201915b5050509183525050600382810154602080840191909152600484015460408085019190915260058501546001600160a01b0390811660608601526006909501549094166080909301929092529284528151808201909252600d85018054949091019391929091839160ff9091169081111562000c4357fe5b600381111562000c4f57fe5b905250815260408051608081018252600e840180548252600f850180548451602060026001841615610100026000190190931692909204601f810183900483028201830190965285815295810195939492938186019390929183018282801562000cfd5780601f1062000cd15761010080835404028352916020019162000cfd565b820191906000526020600020905b81548152906001019060200180831162000cdf57829003601f168201915b505050918352505060028201546020808301919091526003909201546040918201529183526012840154908301526013909201546001600160a01b03169101528051519091501562000d635760405162461bcd60e51b8152600401620002e29062004424565b62000d6d62002ada565b600154865160405163ef7ae53f60e01b81526001600160a01b039092169163ef7ae53f9162000d9f916004016200436f565b60006040518083038186803b15801562000db857600080fd5b505afa15801562000dcd573d6000803e3d6000fd5b505050506040513d6000823e601f3d908101601f1916820160405262000df79190810190620039a9565b80515190915062000e1c5760405162461bcd60e51b8152600401620002e29062004394565b62000e2662002b19565b50604081015160008151600381111562000e3c57fe5b141562000e5d5760405162461bcd60e51b8152600401620002e290620043a6565b60405180602001604052808260000151600381111562000e7957fe5b905261010088015262000e8b62002b3b565b50606082015160008151600381111562000ea157fe5b141562000ec25760405162461bcd60e51b8152600401620002e2906200446c565b61012088015160400151429060009062000f6f5760a0830151604051631bd9515560e01b815273__$b7c937b1c964930440937011c7042b2cdd$__91631bd951559162000f1391906004016200436f565b60206040518083038186803b15801562000f2c57600080fd5b505af415801562000f41573d6000803e3d6000fd5b505050506040513d601f19601f8201168201806040525062000f67919081019062003a19565b905062000f7b565b50610120890151604001515b60408051608080820183526060808701518352908601516020830152818301849052610e1084028501908201526101208c01526002548b5191516366f61fb960e01b81526000926001600160a01b03909216916366f61fb99162000fe391906004016200436f565b60206040518083038186803b15801562000ffc57600080fd5b505afa15801562001011573d6000803e3d6000fd5b505050506040513d601f19601f82011682018060405250620010379190810190620037d3565b60e08c01516001600160a01b03821660c090910152905060606200105b8c620029f8565b9050806040516200106c9062002b79565b6200107891906200436f565b604051809103906000f08015801562001095573d6000803e3d6000fd5b5060e0808e01516001600160a01b039092169101528a5160005b818110156200114557600483604051620010ca9190620042bc565b90815260200160405180910390208d8281518110620010e557fe5b6020908102919091018101518254600181810180865560009586529484902083516003909302019182558284015190820155604082015180519293919262001134926002850192019062002b87565b505060019092019150620010af9050565b506101608d01516001600160a01b03166200116257336101608e01525b6101408d0185905260208d01516040518e918c91620011829190620042bc565b90815260200160405180910390206000820151816000019080519060200190620011ae92919062002b87565b506020828101518051620011c9926001850192019062002b87565b5060408201518051620011e791600284019160209091019062002b87565b5060608201518160030160006101000a81548160ff021916908360038111156200120d57fe5b0217905550608082015160038201805461ff0019166101008360068111156200123257fe5b021790555060a082015180516200125491600484019160209091019062002b87565b5060c082015180516200127291600584019160209091019062002b87565b5060e082015180516006830180546001600160a01b0319166001600160a01b0390921691909117808255602083015190829060ff60a01b1916600160a01b836001811115620012bd57fe5b02179055506040820151600182015560608201518051620012e991600284019160209091019062002b87565b50608082015160038281019190915560a0830151600483015560c08301516005830180546001600160a01b03199081166001600160a01b039384161790915560e090940151600690930180549094169216919091179091556101008301518051600d8401805492939092839160ff199091169060019084908111156200136b57fe5b021790555050506101208201518051600e830190815560208083015180516200139b92600f870192019062002b87565b506040828101516002830155606090920151600390910155610140830151601283015561016090920151601390910180546001600160a01b0319166001600160a01b039092169190911790558d519051600591620013f991620042bc565b9081526040519081900360209081018220805460010190558e01516200141f91620042bc565b60405180910390207f74b2e2a4d866c513222fe0222feef41e081ec60e6879885dd70b6b7a305c3c1e8e8e6040516200145a929190620044a3565b60405180910390a28c9a50505050505050505050505b92915050565b6200148062002a16565b602083015151620014a55760405162461bcd60e51b8152600401620002e29062004436565b825151620014c75760405162461bcd60e51b8152600401620002e290620043b8565b600060038460000151604051620014df9190620042bc565b9081526020016040518091039020905083818560200151604051620015059190620042bc565b908152602001604051809103902060008201518160000190805190602001906200153192919062002b87565b5060208281015180516200154c926001850192019062002b87565b50604082015180516200156a91600284019160209091019062002b87565b5060608201518160030160006101000a81548160ff021916908360038111156200159057fe5b0217905550608082015160038201805461ff001916610100836006811115620015b557fe5b021790555060a08201518051620015d791600484019160209091019062002b87565b5060c08201518051620015f591600584019160209091019062002b87565b5060e082015180516006830180546001600160a01b0319166001600160a01b0390921691909117808255602083015190829060ff60a01b1916600160a01b8360018111156200164057fe5b021790555060408201516001820155606082015180516200166c91600284019160209091019062002b87565b50608082015160038281019190915560a0830151600483015560c08301516005830180546001600160a01b03199081166001600160a01b039384161790915560e090940151600690930180549094169216919091179091556101008301518051600d8401805492939092839160ff19909116906001908490811115620016ee57fe5b021790555050506101208201518051600e830190815560208083015180516200171e92600f870192019062002b87565b5060408201516002820155606091820151600390910155610140830151601283015561016090920151601390910180546001600160a01b0319166001600160a01b039092169190911790556200177485620029f8565b845190915060005b818110156200181257600483604051620017979190620042bc565b9081526020016040518091039020868281518110620017b257fe5b6020908102919091018101518254600181810180865560009586529484902083516003909302019182558284015190820155604082015180519293919262001801926002850192019062002b87565b5050600190920191506200177c9050565b508560200151604051620018279190620042bc565b60405180910390207f74b2e2a4d866c513222fe0222feef41e081ec60e6879885dd70b6b7a305c3c1e878760405162001862929190620044a3565b60405180910390a25093949350505050565b6200187e62002a16565b60606200188a62002a16565b620018ff87878080601f01602080910402602001604051908101604052809392919081815260200183838082843760009201919091525050604080516020601f8b0181900481028201810190925289815292508991508890819084018382808284376000920191909152506200236492505050565b905060606200190e82620029f8565b905081600482604051620019239190620042bc565b908152602001604051809103902080805480602002602001604051908101604052809291908181526020016000905b8282101562001a4057838290600052602060002090600302016040518060600160405290816000820154815260200160018201548152602001600282018054600181600116156101000203166002900480601f01602080910402602001604051908101604052809291908181526020018280546001816001161561010002031660029004801562001a275780601f10620019fb5761010080835404028352916020019162001a27565b820191906000526020600020905b81548152906001019060200180831162001a0957829003601f168201915b5050505050815250508152602001906001019062001952565b50505050905093509350505094509492505050565b600062001a6162002a16565b62001ad686868080601f01602080910402602001604051908101604052809392919081815260200183838082843760009201919091525050604080516020601f8a0181900481028201810190925288815292508891508790819084018382808284376000920191909152506200236492505050565b80515190915062001afb5760405162461bcd60e51b8152600401620002e29062004412565b6060015190505b949350505050565b62001b1462002a16565b62001b288260000151836020015162002364565b82515190915062001b4d5760405162461bcd60e51b8152600401620002e29062004412565b60008160600151600381111562001b6057fe5b1462001b805760405162461bcd60e51b8152600401620002e2906200447e565b62001b8a62002c0c565b506101208101516060810151429081111562001bba5760405162461bcd60e51b8152600401620002e29062004448565b600084608001518560600151011162001be75760405162461bcd60e51b8152600401620002e290620043ee565b60025483516040516366f61fb960e01b81526000926001600160a01b0316916366f61fb99162001c1b91906004016200436f565b60206040518083038186803b15801562001c3457600080fd5b505afa15801562001c49573d6000803e3d6000fd5b505050506040513d601f19601f8201168201806040525062001c6f9190810190620037d3565b9050806001600160a01b03166323b872dd338660e0015160e001516001600160a01b03166338cc48316040518163ffffffff1660e01b815260040160206040518083038186803b15801562001cc357600080fd5b505afa15801562001cd8573d6000803e3d6000fd5b505050506040513d601f19601f8201168201806040525062001cfe919081019062003791565b88608001518960600151016040518463ffffffff1660e01b815260040162001d2993929190620042f3565b602060405180830381600087803b15801562001d4457600080fd5b505af115801562001d59573d6000803e3d6000fd5b505050506040513d601f19601f8201168201806040525062001d7f9190810190620037b2565b504260a08601523360408601528451602086015160609162001da191620029ca565b905060068160405162001db59190620042bc565b908152604051602091819003820190208054600181018083556000928352918390208951805193948b9460069094029092019262001df7928492019062002b87565b50602082810151805162001e12926001850192019062002b87565b506040828101516002830180546001600160a01b0319166001600160a01b03909216919091179055606083015160038301556080830151600483015560a0909201516005909101556020870151905162001e6d9250620042bc565b60405180910390207f1fc2188cf86b2fdff0c37c3a4cc9ac40d660cb3ed78875f759054aa66515180f8760405162001ea69190620044cc565b60405180910390a2505050505050565b6001600160a01b03811662001edf5760405162461bcd60e51b8152600401620002e2906200445a565b600280546001600160a01b0319166001600160a01b0392909216919091179055565b60006005838360405162001f17929190620042ad565b908152602001604051809103902054905092915050565b62001f3862002a16565b62001fad86868080601f01602080910402602001604051908101604052809392919081815260200183838082843760009201919091525050604080516020601f8a0181900481028201810190925288815292508891508790819084018382808284376000920191909152506200236492505050565b80515190915062001fd25760405162461bcd60e51b8152600401620002e29062004382565b8060600151600381111562001fe357fe5b82600381111562001ff057fe5b146200231157606081018051908360038111156200200a57fe5b908160038111156200201857fe5b9052508151604051600091600391620020329190620042bc565b908152602001604051809103902090508281878760405162002056929190620042ad565b908152602001604051809103902060008201518160000190805190602001906200208292919062002b87565b5060208281015180516200209d926001850192019062002b87565b5060408201518051620020bb91600284019160209091019062002b87565b5060608201518160030160006101000a81548160ff02191690836003811115620020e157fe5b0217905550608082015160038201805461ff0019166101008360068111156200210657fe5b021790555060a082015180516200212891600484019160209091019062002b87565b5060c082015180516200214691600584019160209091019062002b87565b5060e082015180516006830180546001600160a01b0319166001600160a01b0390921691909117808255602083015190829060ff60a01b1916600160a01b8360018111156200219157fe5b02179055506040820151600182015560608201518051620021bd91600284019160209091019062002b87565b50608082015160038281019190915560a0830151600483015560c08301516005830180546001600160a01b03199081166001600160a01b039384161790915560e090940151600690930180549094169216919091179091556101008301518051600d8401805492939092839160ff199091169060019084908111156200223f57fe5b021790555050506101208201518051600e830190815560208083015180516200226f92600f870192019062002b87565b506040828101516002830155606090920151600390910155610140830151601283015561016090920151601390910180546001600160a01b0319166001600160a01b0390921691909117905551620022cb9089908990620042ad565b60405180910390207f984b6675ffc22e1f752662b0ce0a6e95adb7944d816aa2d09e6995c9b20a198a83866040516200230692919062004350565b60405180910390a250505b505050505050565b6001600160a01b038116620023425760405162461bcd60e51b8152600401620002e290620043dc565b600180546001600160a01b0319166001600160a01b0392909216919091179055565b6200236e62002a16565b82516200238f5760405162461bcd60e51b8152600401620002e290620043ca565b8151620023b05760405162461bcd60e51b8152600401620002e29062004436565b6000600384604051620023c49190620042bc565b90815260200160405180910390209050620023de62002a16565b8184604051620023ef9190620042bc565b9081526040805160209281900383018120805460026001821615610100026000190190911604601f810185900490940282016101a09081019093526101808201848152919390928492918491840182828015620024905780601f10620024645761010080835404028352916020019162002490565b820191906000526020600020905b8154815290600101906020018083116200247257829003601f168201915b50505050508152602001600182018054600181600116156101000203166002900480601f016020809104026020016040519081016040528092919081815260200182805460018160011615610100020316600290048015620025365780601f106200250a5761010080835404028352916020019162002536565b820191906000526020600020905b8154815290600101906020018083116200251857829003601f168201915b5050509183525050600282810180546040805160206001841615610100026000190190931694909404601f81018390048302850183019091528084529381019390830182828015620025cc5780601f10620025a057610100808354040283529160200191620025cc565b820191906000526020600020905b815481529060010190602001808311620025ae57829003601f168201915b505050918352505060038281015460209092019160ff1690811115620025ee57fe5b6003811115620025fa57fe5b81526020016003820160019054906101000a900460ff1660068111156200261d57fe5b60068111156200262957fe5b815260048201805460408051602060026001851615610100026000190190941693909304601f8101849004840282018401909252818152938201939291830182828015620026bb5780601f106200268f57610100808354040283529160200191620026bb565b820191906000526020600020905b8154815290600101906020018083116200269d57829003601f168201915b505050918352505060058201805460408051602060026001851615610100026000190190941693909304601f8101849004840282018401909252818152938201939291830182828015620027535780601f10620027275761010080835404028352916020019162002753565b820191906000526020600020905b8154815290600101906020018083116200273557829003601f168201915b50505091835250506040805161010081019091526006830180546001600160a01b0381168352602093840193830190600160a01b900460ff1660018111156200279857fe5b6001811115620027a457fe5b815260200160018201548152602001600282018054600181600116156101000203166002900480601f0160208091040260200160405190810160405280929190818152602001828054600181600116156101000203166002900480156200284f5780601f1062002823576101008083540402835291602001916200284f565b820191906000526020600020905b8154815290600101906020018083116200283157829003601f168201915b5050509183525050600382810154602080840191909152600484015460408085019190915260058501546001600160a01b0390811660608601526006909501549094166080909301929092529284528151808201909252600d85018054949091019391929091839160ff90911690811115620028c757fe5b6003811115620028d357fe5b905250815260408051608081018252600e840180548252600f850180548451602060026001841615610100026000190190931692909204601f8101839004830282018301909652858152958101959394929381860193909291830182828015620029815780601f10620029555761010080835404028352916020019162002981565b820191906000526020600020905b8154815290600101906020018083116200296357829003601f168201915b505050918352505060028201546020808301919091526003909201546040918201529183526012840154908301526013909201546001600160a01b031691015295945050505050565b60608282604051602001620029e1929190620042ca565b604051602081830303815290604052905092915050565b606062002a0e82600001518360200151620029ca565b90505b919050565b6040518061018001604052806060815260200160608152602001606081526020016000600381111562002a4557fe5b815260200160008152602001606081526020016060815260200162002a6962002c34565b815260200162002a7862002c8c565b815260200162002a8762002c0c565b815260006020820181905260409091015290565b6040518060c00160405280606081526020016060815260200160006001600160a01b031681526020016000815260200160008152602001600081525090565b60405180608001604052806060815260200162002af662002ca0565b815260200162002b0562002b19565b815260200162002b1462002b3b565b905290565b6040805160608101909152806000815260200160008152602001606081525090565b6040805160e0810190915280600081526020016060815260200160608152602001600081526020016060815260200160608152602001606081525090565b6106ce80620046c183390190565b828054600181600116156101000203166002900490600052602060002090601f016020900481019282601f1062002bca57805160ff191683800117855562002bfa565b8280016001018555821562002bfa579182015b8281111562002bfa57825182559160200191906001019062002bdd565b5062002c0892915062002cc8565b5090565b6040518060800160405280600081526020016060815260200160008152602001600081525090565b6040805161010081019091526000808252602082019081526020016000815260200160608152602001600081526020016000815260200160006001600160a01b0316815260200160006001600160a01b031681525090565b604080516020810190915280600062002b14565b6040518060800160405280606081526020016060815260200160608152602001606081525090565b62002ce591905b8082111562002c08576000815560010162002ccf565b90565b803562001470816200465e565b805162001470816200465e565b600082601f83011262002d1457600080fd5b815162002d2b62002d258262004516565b620044ef565b9150818183526020840193506020810190508385602084028201111562002d5157600080fd5b60005b8381101562002d81578162002d6a888262002cf5565b845250602092830192919091019060010162002d54565b5050505092915050565b600082601f83011262002d9d57600080fd5b813562002dae62002d258262004516565b81815260209384019390925082018360005b8381101562002d81578135860162002dd9888262002f39565b845250602092830192919091019060010162002dc0565b8051620014708162004675565b8035620014708162004680565b8051620014708162004680565b803562001470816200468b565b8035620014708162004699565b80356200147081620046a7565b80516200147081620046a7565b60008083601f84011262002e5e57600080fd5b5081356001600160401b0381111562002e7657600080fd5b60208301915083600182028301111562002e8f57600080fd5b9250929050565b600082601f83011262002ea857600080fd5b813562002eb962002d258262004537565b9150808252602083016020830185838301111562002ed657600080fd5b62002ee3838284620045f5565b50505092915050565b600082601f83011262002efe57600080fd5b815162002f0f62002d258262004537565b9150808252602083016020830185838301111562002f2c57600080fd5b62002ee383828462004601565b60006060828403121562002f4c57600080fd5b62002f586060620044ef565b9050600062002f68848462003756565b825250602062002f7b8484830162003756565b60208301525060408201356001600160401b0381111562002f9b57600080fd5b62002fa98482850162002e96565b60408301525092915050565b6000610100828403121562002fc957600080fd5b62002fd6610100620044ef565b9050600062002fe6848462002ce8565b825250602062002ff98484830162002e17565b60208301525060406200300f8482850162003756565b60408301525060608201356001600160401b038111156200302f57600080fd5b6200303d8482850162002e96565b6060830152506080620030538482850162003756565b60808301525060a0620030698482850162003756565b60a08301525060c06200307f8482850162002dfd565b60c08301525060e0620030958482850162002dfd565b60e08301525092915050565b60006101808284031215620030b557600080fd5b620030c2610180620044ef565b905081356001600160401b03811115620030db57600080fd5b620030e98482850162002e96565b82525060208201356001600160401b038111156200310657600080fd5b620031148482850162002e96565b60208301525060408201356001600160401b038111156200313457600080fd5b620031428482850162002e96565b6040830152506060620031588482850162002e31565b60608301525060806200316e8482850162002e24565b60808301525060a08201356001600160401b038111156200318e57600080fd5b6200319c8482850162002e96565b60a08301525060c08201356001600160401b03811115620031bc57600080fd5b620031ca8482850162002e96565b60c08301525060e08201356001600160401b03811115620031ea57600080fd5b620031f88482850162002fb5565b60e0830152506101006200320f84828501620032ec565b610100830152506101208201356001600160401b038111156200323157600080fd5b6200323f84828501620036d5565b61012083015250610140620032578482850162003756565b610140830152506101606200326f8482850162002ce8565b6101608301525092915050565b6000606082840312156200328f57600080fd5b6200329b6060620044ef565b90506000620032ab848462002e3e565b8252506020620032be8484830162003763565b60208301525060408201516001600160401b03811115620032de57600080fd5b62002fa98482850162002d02565b600060208284031215620032ff57600080fd5b6200330b6020620044ef565b905060006200331b848462002e31565b82525092915050565b6000608082840312156200333757600080fd5b620033436080620044ef565b82519091506001600160401b038111156200335d57600080fd5b6200336b8482850162002eec565b82525060208201516001600160401b038111156200338857600080fd5b6200339684828501620033fe565b60208301525060408201516001600160401b03811115620033b657600080fd5b620033c4848285016200327c565b60408301525060608201516001600160401b03811115620033e457600080fd5b620033f284828501620035a1565b60608301525092915050565b6000608082840312156200341157600080fd5b6200341d6080620044ef565b82519091506001600160401b038111156200343757600080fd5b620034458482850162002eec565b82525060208201516001600160401b038111156200346257600080fd5b620034708482850162002eec565b60208301525060408201516001600160401b038111156200349057600080fd5b6200349e8482850162002eec565b60408301525060608201516001600160401b03811115620034be57600080fd5b620033f28482850162002d02565b600060c08284031215620034df57600080fd5b620034eb60c0620044ef565b905081356001600160401b038111156200350457600080fd5b620035128482850162002e96565b82525060208201356001600160401b038111156200352f57600080fd5b6200353d8482850162002e96565b6020830152506040620035538482850162002ce8565b6040830152506060620035698482850162003756565b60608301525060806200357f8482850162003756565b60808301525060a0620035958482850162003756565b60a08301525092915050565b600060e08284031215620035b457600080fd5b620035c060e0620044ef565b90506000620035d0848462002e3e565b82525060208201516001600160401b03811115620035ed57600080fd5b620035fb8482850162002eec565b60208301525060408201516001600160401b038111156200361b57600080fd5b620036298482850162002d02565b60408301525060606200363f8482850162003763565b60608301525060808201516001600160401b038111156200365f57600080fd5b6200366d8482850162002eec565b60808301525060a08201516001600160401b038111156200368d57600080fd5b6200369b8482850162002eec565b60a08301525060c08201516001600160401b03811115620036bb57600080fd5b620036c98482850162002eec565b60c08301525092915050565b600060808284031215620036e857600080fd5b620036f46080620044ef565b9050600062003704848462003756565b82525060208201356001600160401b038111156200372157600080fd5b6200372f8482850162002e96565b6020830152506040620037458482850162003756565b6040830152506060620033f2848285015b80356200147081620046b5565b80516200147081620046b5565b6000602082840312156200378357600080fd5b600062001b02848462002ce8565b600060208284031215620037a457600080fd5b600062001b02848462002cf5565b600060208284031215620037c557600080fd5b600062001b02848462002df0565b600060208284031215620037e657600080fd5b600062001b02848462002e0a565b600080602083850312156200380857600080fd5b82356001600160401b038111156200381f57600080fd5b6200382d8582860162002e4b565b92509250509250929050565b600080600080604085870312156200385057600080fd5b84356001600160401b038111156200386757600080fd5b620038758782880162002e4b565b945094505060208501356001600160401b038111156200389457600080fd5b620038a28782880162002e4b565b95989497509550505050565b600080600080600060608688031215620038c757600080fd5b85356001600160401b03811115620038de57600080fd5b620038ec8882890162002e4b565b955095505060208601356001600160401b038111156200390b57600080fd5b620039198882890162002e4b565b935093505060406200392e8882890162002e31565b9150509295509295909350565b600080604083850312156200394f57600080fd5b82356001600160401b038111156200396657600080fd5b6200397485828601620030a1565b92505060208301356001600160401b038111156200399157600080fd5b6200399f8582860162002d8b565b9150509250929050565b600060208284031215620039bc57600080fd5b81516001600160401b03811115620039d357600080fd5b62001b028482850162003324565b600060208284031215620039f457600080fd5b81356001600160401b0381111562003a0b57600080fd5b62001b0284828501620034cc565b60006020828403121562003a2c57600080fd5b600062001b02848462003763565b600062003a48838362003f69565b9392505050565b62003a5a81620045c1565b82525050565b62003a5a8162004572565b600062003a788262004565565b62003a84818562004569565b93508360208202850162003a98856200455f565b8060005b8581101562003ad8578484038952815162003ab8858262003a3a565b945062003ac5836200455f565b60209a909a019992505060010162003a9c565b5091979650505050505050565b62003a5a8162004584565b62003a5a81620045ce565b62003a5a81620045db565b62003a5a81620045e8565b600062003b1f838562002a11565b935062003b2e838584620045f5565b50500190565b600062003b418262004565565b62003b4d818562004569565b935062003b5f81856020860162004601565b62003b6a8162004630565b9093019392505050565b600062003b818262004565565b62003b8d818562002a11565b935062003b9f81856020860162004601565b9290920192915050565b600062003bb860118362004569565b70383937b837b9b0b61036b4b9b9b4b7339760791b815260200192915050565b600062003be760188362004569565b7f626173652073657474696e67206e6f74206578697374732e0000000000000000815260200192915050565b600062003c22601c8362004569565b7f70726f706f7365722073657474696e67206e6f74206578697374732e00000000815260200192915050565b600062003c5d601a8362004569565b7f70726f706f73616c20646973636f496420697320656d70747921000000000000815260200192915050565b600062003c9860128362004569565b71646973636f20696420697320656d7074792160701b815260200192915050565b600062003cc860158362004569565b7434b9379030b2323932b9b99034b99032b6b83a3c9760591b815260200192915050565b600062003cfb601e8362004569565b7f6120696e76616c696420766f74652c20766f7465206e756d203c3d20302e0000815260200192915050565b600062003d3660238362004569565b7f7468652070726f706f73616c20636f756c64206e6f742062652072656c65617381526232b21760e91b602082015260400192915050565b600062003d7d601e8362004569565b7f70726f706f73616c206d697373696e672c20636865636b2066697273742e0000815260200192915050565b600062003db8603f8362004569565b7f70726f706f73616c20616c7265616479206578697374732c20706c656173652081527f7265706c61636520776974682074686520636f6e7472616374206f776e657200602082015260400192915050565b600062003e19601b8362004569565b7f70726f706f73616c2073657269616c496420697320656d707479210000000000815260200192915050565b600062003e5460108362004569565b6f3b37ba329034b99032bc3834b932b21760811b815260200192915050565b600062003e8260178362004569565b7f646973636f206164647265737320697320656d7074792e000000000000000000815260200192915050565b600062003ebd60198362004569565b7f766f7465722073657474696e67206e6f74206578697374732e00000000000000815260200192915050565b600062003ef860018362002a11565b600160fe1b815260010192915050565b600062003f17603a8362004569565b7f7468652070726f706f73616c20636f756c64206e6f7420626520766f7465642081527f7768656e20737461747573206973206e6f7420766f74696e672e000000000000602082015260400192915050565b8051600090606084019062003f7f8582620042a2565b50602083015162003f946020860182620042a2565b506040830151848203604086015262003fae828262003b34565b95945050505050565b805160009061010084019062003fce858262003a60565b50602083015162003fe3602086018262003af0565b50604083015162003ff86040860182620042a2565b506060830151848203606086015262004012828262003b34565b9150506080830151620040296080860182620042a2565b5060a08301516200403e60a0860182620042a2565b5060c08301516200405360c086018262003ae5565b5060e08301516200406860e086018262003ae5565b509392505050565b8051610180808452600091908401906200408b828262003b34565b91505060208301518482036020860152620040a7828262003b34565b91505060408301518482036040860152620040c3828262003b34565b9150506060830151620040da606086018262003b06565b506080830151620040ef608086018262003afb565b5060a083015184820360a086015262004109828262003b34565b91505060c083015184820360c086015262004125828262003b34565b91505060e083015184820360e086015262004141828262003fb7565b9150506101008301516200415a610100860182620041a6565b506101208301518482036101208601526200417682826200424b565b9150506101408301516200418f610140860182620042a2565b506101608301516200406861016086018262003a60565b80516020830190620041b9848262003b06565b50505050565b805160c080845260009190840190620041d9828262003b34565b91505060208301518482036020860152620041f5828262003b34565b91505060408301516200420c604086018262003a60565b506060830151620042216060860182620042a2565b506080830151620042366080860182620042a2565b5060a08301516200406860a0860182620042a2565b80516000906080840190620042618582620042a2565b50602083015184820360208601526200427b828262003b34565b9150506040830151620042926040860182620042a2565b5060608301516200406860608601825b62003a5a8162002ce5565b600062001b0282848662003b11565b600062003a48828462003b74565b6000620042d8828562003b74565b9150620042e58262003ee9565b915062001b02828462003b74565b6060810162004303828662003a4f565b62004312602083018562003a4f565b62001b026040830184620042a2565b6060810162004331828662003ae5565b62004312602083018562003a60565b6020810162001470828462003b06565b6040810162004360828562003b06565b62003a48602083018462003b06565b6020808252810162003a48818462003b34565b6020808252810162002a0e8162003ba9565b6020808252810162002a0e8162003bd8565b6020808252810162002a0e8162003c13565b6020808252810162002a0e8162003c4e565b6020808252810162002a0e8162003c89565b6020808252810162002a0e8162003cb9565b6020808252810162002a0e8162003cec565b6020808252810162002a0e8162003d27565b6020808252810162002a0e8162003d6e565b6020808252810162002a0e8162003da9565b6020808252810162002a0e8162003e0a565b6020808252810162002a0e8162003e45565b6020808252810162002a0e8162003e73565b6020808252810162002a0e8162003eae565b6020808252810162002a0e8162003f08565b6020808252810162003a48818462004070565b60408082528101620044b6818562004070565b9050818103602083015262001b02818462003a6b565b6020808252810162003a488184620041bf565b60208101620014708284620042a2565b6040518181016001600160401b03811182821017156200450e57600080fd5b604052919050565b60006001600160401b038211156200452d57600080fd5b5060209081020190565b60006001600160401b038211156200454e57600080fd5b506020601f91909101601f19160190565b60200190565b5190565b90815260200190565b600062002a0e82620045b5565b151590565b600062002a0e8262004572565b8062002a11816200463a565b8062002a118162004648565b8062002a118162004653565b6001600160a01b031690565b600062002a0e8262004584565b600062002a0e8262004591565b600062002a0e826200459d565b600062002a0e82620045a9565b82818337506000910152565b60005b838110156200461e57818101518382015260200162004604565b83811115620041b95750506000910152565b601f01601f191690565b600281106200464557fe5b50565b600781106200464557fe5b600481106200464557fe5b620046698162004572565b81146200464557600080fd5b62004669816200457f565b620046698162004584565b600281106200464557600080fd5b600781106200464557600080fd5b600481106200464557600080fd5b620046698162002ce556fe608060405234801561001057600080fd5b506040516106ce3803806106ce83398101604081905261002f91610138565b8051610042906000906020840190610049565b50506101f1565b828054600181600116156101000203166002900490600052602060002090601f016020900481019282601f1061008a57805160ff19168380011785556100b7565b828001600101855582156100b7579182015b828111156100b757825182559160200191906001019061009c565b506100c39291506100c7565b5090565b6100e191905b808211156100c357600081556001016100cd565b90565b600082601f8301126100f557600080fd5b81516101086101038261019a565b610174565b9150808252602083016020830185838301111561012457600080fd5b61012f8382846101c1565b50505092915050565b60006020828403121561014a57600080fd5b81516001600160401b0381111561016057600080fd5b61016c848285016100e4565b949350505050565b6040518181016001600160401b038111828210171561019257600080fd5b604052919050565b60006001600160401b038211156101b057600080fd5b506020601f91909101601f19160190565b60005b838110156101dc5781810151838201526020016101c4565b838111156101eb576000848401525b50505050565b6104ce806102006000396000f3fe60806040526004361061004a5760003560e01c806338cc48311461004c5780634f95a04b14610077578063beabacc81461008a578063e1f21c67146100aa578063fb1e6a62146100ca575b005b34801561005857600080fd5b506100616100ec565b60405161006e91906103a7565b60405180910390f35b61004a6100853660046102aa565b6100f0565b34801561009657600080fd5b5061004a6100a536600461030a565b61012b565b3480156100b657600080fd5b5061004a6100c536600461030a565b6101b4565b3480156100d657600080fd5b506100df6101e2565b60405161006e91906103d7565b3090565b6040516001600160a01b0383169082156108fc029083906000818181858888f19350505050158015610126573d6000803e3d6000fd5b505050565b60405163a9059cbb60e01b81526001600160a01b0384169063a9059cbb9061015990859085906004016103b5565b602060405180830381600087803b15801561017357600080fd5b505af1158015610187573d6000803e3d6000fd5b505050506040513d601f19601f820116820180604052506101ab91908101906102e4565b61012657600080fd5b60405163095ea7b360e01b81526001600160a01b0384169063095ea7b39061015990859085906004016103b5565b60008054604080516020601f600260001961010060018816150201909516949094049384018190048102820181019092528281526060939092909183018282801561026e5780601f106102435761010080835404028352916020019161026e565b820191906000526020600020905b81548152906001019060200180831161025157829003601f168201915b5050505050905090565b803561028381610459565b92915050565b805161028381610470565b803561028381610479565b803561028381610482565b600080604083850312156102bd57600080fd5b60006102c98585610278565b92505060206102da8582860161029f565b9150509250929050565b6000602082840312156102f657600080fd5b60006103028484610289565b949350505050565b60008060006060848603121561031f57600080fd5b600061032b8686610294565b935050602061033c86828701610278565b925050604061034d8682870161029f565b9150509250925092565b610360816103f5565b82525050565b6000610371826103e8565b61037b81856103ec565b935061038b81856020860161041f565b6103948161044f565b9093019392505050565b6103608161041c565b602081016102838284610357565b604081016103c38285610357565b6103d0602083018461039e565b9392505050565b602080825281016103d08184610366565b5190565b90815260200190565b600061028382610410565b151590565b6000610283826103f5565b6001600160a01b031690565b90565b60005b8381101561043a578181015183820152602001610422565b83811115610449576000848401525b50505050565b601f01601f191690565b610462816103f5565b811461046d57600080fd5b50565b61046281610400565b61046281610405565b6104628161041c56fea365627a7a72315820f6315cc6116b02d7069f7a0b053c44ba791d26e6954faeaacc7072ee6acce2076c6578706572696d656e74616cf564736f6c63430005100040a365627a7a72315820c3f745d80d87d7478b4b619e2fd59c87c247d12e2b634227b7f61fb533a69e6e6c6578706572696d656e74616cf564736f6c63430005100040",
			"opcodes": "PUSH1 0x80 PUSH1 0x40 MSTORE CALLVALUE DUP1 ISZERO PUSH3 0x11 JUMPI PUSH1 0x0 DUP1 REVERT JUMPDEST POP PUSH1 0x40 MLOAD PUSH3 0x5017 CODESIZE SUB DUP1 PUSH3 0x5017 DUP4 CODECOPY DUP2 ADD PUSH1 0x40 DUP2 SWAP1 MSTORE PUSH3 0x34 SWAP2 PUSH3 0x128 JUMP JUMPDEST PUSH1 0x0 DUP1 SLOAD PUSH1 0x1 PUSH1 0x1 PUSH1 0xA0 SHL SUB NOT AND CALLER OR SWAP1 SSTORE PUSH3 0x5A DUP3 PUSH1 0x1 PUSH1 0x1 PUSH1 0xE0 SHL SUB PUSH3 0x76 AND JUMP JUMPDEST PUSH3 0x6E DUP2 PUSH1 0x1 PUSH1 0x1 PUSH1 0xE0 SHL SUB PUSH3 0xCA AND JUMP JUMPDEST POP POP PUSH3 0x236 JUMP JUMPDEST PUSH1 0x1 PUSH1 0x1 PUSH1 0xA0 SHL SUB DUP2 AND PUSH3 0xA8 JUMPI PUSH1 0x40 MLOAD PUSH3 0x461BCD PUSH1 0xE5 SHL DUP2 MSTORE PUSH1 0x4 ADD PUSH3 0x9F SWAP1 PUSH3 0x1DD JUMP JUMPDEST PUSH1 0x40 MLOAD DUP1 SWAP2 SUB SWAP1 REVERT JUMPDEST PUSH1 0x1 DUP1 SLOAD PUSH1 0x1 PUSH1 0x1 PUSH1 0xA0 SHL SUB NOT AND PUSH1 0x1 PUSH1 0x1 PUSH1 0xA0 SHL SUB SWAP3 SWAP1 SWAP3 AND SWAP2 SWAP1 SWAP2 OR SWAP1 SSTORE JUMP JUMPDEST PUSH1 0x1 PUSH1 0x1 PUSH1 0xA0 SHL SUB DUP2 AND PUSH3 0xF3 JUMPI PUSH1 0x40 MLOAD PUSH3 0x461BCD PUSH1 0xE5 SHL DUP2 MSTORE PUSH1 0x4 ADD PUSH3 0x9F SWAP1 PUSH3 0x1EF JUMP JUMPDEST PUSH1 0x2 DUP1 SLOAD PUSH1 0x1 PUSH1 0x1 PUSH1 0xA0 SHL SUB NOT AND PUSH1 0x1 PUSH1 0x1 PUSH1 0xA0 SHL SUB SWAP3 SWAP1 SWAP3 AND SWAP2 SWAP1 SWAP2 OR SWAP1 SSTORE JUMP JUMPDEST DUP1 MLOAD PUSH3 0x122 DUP2 PUSH3 0x21C JUMP JUMPDEST SWAP3 SWAP2 POP POP JUMP JUMPDEST PUSH1 0x0 DUP1 PUSH1 0x40 DUP4 DUP6 SUB SLT ISZERO PUSH3 0x13C JUMPI PUSH1 0x0 DUP1 REVERT JUMPDEST PUSH1 0x0 PUSH3 0x14A DUP6 DUP6 PUSH3 0x115 JUMP JUMPDEST SWAP3 POP POP PUSH1 0x20 PUSH3 0x15D DUP6 DUP3 DUP7 ADD PUSH3 0x115 JUMP JUMPDEST SWAP2 POP POP SWAP3 POP SWAP3 SWAP1 POP JUMP JUMPDEST PUSH1 0x0 PUSH3 0x176 PUSH1 0x15 DUP4 PUSH3 0x201 JUMP JUMPDEST PUSH32 0x69726F206164647265737320697320656D7074792E0000000000000000000000 DUP2 MSTORE PUSH1 0x20 ADD SWAP3 SWAP2 POP POP JUMP JUMPDEST PUSH1 0x0 PUSH3 0x1B1 PUSH1 0x17 DUP4 PUSH3 0x201 JUMP JUMPDEST PUSH32 0x646973636F206164647265737320697320656D7074792E000000000000000000 DUP2 MSTORE PUSH1 0x20 ADD SWAP3 SWAP2 POP POP JUMP JUMPDEST PUSH1 0x20 DUP1 DUP3 MSTORE DUP2 ADD PUSH3 0x122 DUP2 PUSH3 0x167 JUMP JUMPDEST PUSH1 0x20 DUP1 DUP3 MSTORE DUP2 ADD PUSH3 0x122 DUP2 PUSH3 0x1A2 JUMP JUMPDEST SWAP1 DUP2 MSTORE PUSH1 0x20 ADD SWAP1 JUMP JUMPDEST PUSH1 0x0 PUSH1 0x1 PUSH1 0x1 PUSH1 0xA0 SHL SUB DUP3 AND PUSH3 0x122 JUMP JUMPDEST PUSH3 0x227 DUP2 PUSH3 0x20A JUMP JUMPDEST DUP2 EQ PUSH3 0x233 JUMPI PUSH1 0x0 DUP1 REVERT JUMPDEST POP JUMP JUMPDEST PUSH2 0x4DD1 DUP1 PUSH3 0x246 PUSH1 0x0 CODECOPY PUSH1 0x0 RETURN INVALID PUSH1 0x80 PUSH1 0x40 MSTORE PUSH1 0x4 CALLDATASIZE LT PUSH3 0x9E JUMPI PUSH1 0x0 CALLDATALOAD PUSH1 0xE0 SHR DUP1 PUSH4 0x59F7F240 GT PUSH3 0x61 JUMPI DUP1 PUSH4 0x59F7F240 EQ PUSH3 0x187 JUMPI DUP1 PUSH4 0x72D92F28 EQ PUSH3 0x19E JUMPI DUP1 PUSH4 0x8F65E697 EQ PUSH3 0x1C3 JUMPI DUP1 PUSH4 0xD46D6D8A EQ PUSH3 0x1F7 JUMPI DUP1 PUSH4 0xFFB135A8 EQ PUSH3 0x21C JUMPI PUSH3 0x9E JUMP JUMPDEST DUP1 PUSH4 0xF5E1849 EQ PUSH3 0xA3 JUMPI DUP1 PUSH4 0x268D792C EQ PUSH3 0xCA JUMPI DUP1 PUSH4 0x2B4A249F EQ PUSH3 0xF9 JUMPI DUP1 PUSH4 0x3122FEF1 EQ PUSH3 0x11E JUMPI DUP1 PUSH4 0x474B58C2 EQ PUSH3 0x153 JUMPI JUMPDEST PUSH1 0x0 DUP1 REVERT JUMPDEST CALLVALUE DUP1 ISZERO PUSH3 0xB0 JUMPI PUSH1 0x0 DUP1 REVERT JUMPDEST POP PUSH3 0xC8 PUSH3 0xC2 CALLDATASIZE PUSH1 0x4 PUSH3 0x3839 JUMP JUMPDEST PUSH3 0x241 JUMP JUMPDEST STOP JUMPDEST PUSH3 0xE1 PUSH3 0xDB CALLDATASIZE PUSH1 0x4 PUSH3 0x393B JUMP JUMPDEST PUSH3 0x6D3 JUMP JUMPDEST PUSH1 0x40 MLOAD PUSH3 0xF0 SWAP2 SWAP1 PUSH3 0x4490 JUMP JUMPDEST PUSH1 0x40 MLOAD DUP1 SWAP2 SUB SWAP1 RETURN JUMPDEST CALLVALUE DUP1 ISZERO PUSH3 0x106 JUMPI PUSH1 0x0 DUP1 REVERT JUMPDEST POP PUSH3 0xE1 PUSH3 0x118 CALLDATASIZE PUSH1 0x4 PUSH3 0x393B JUMP JUMPDEST PUSH3 0x1476 JUMP JUMPDEST CALLVALUE DUP1 ISZERO PUSH3 0x12B JUMPI PUSH1 0x0 DUP1 REVERT JUMPDEST POP PUSH3 0x143 PUSH3 0x13D CALLDATASIZE PUSH1 0x4 PUSH3 0x3839 JUMP JUMPDEST PUSH3 0x1874 JUMP JUMPDEST PUSH1 0x40 MLOAD PUSH3 0xF0 SWAP3 SWAP2 SWAP1 PUSH3 0x44A3 JUMP JUMPDEST CALLVALUE DUP1 ISZERO PUSH3 0x160 JUMPI PUSH1 0x0 DUP1 REVERT JUMPDEST POP PUSH3 0x178 PUSH3 0x172 CALLDATASIZE PUSH1 0x4 PUSH3 0x3839 JUMP JUMPDEST PUSH3 0x1A55 JUMP JUMPDEST PUSH1 0x40 MLOAD PUSH3 0xF0 SWAP2 SWAP1 PUSH3 0x4340 JUMP JUMPDEST PUSH3 0xC8 PUSH3 0x198 CALLDATASIZE PUSH1 0x4 PUSH3 0x39E1 JUMP JUMPDEST PUSH3 0x1B0A JUMP JUMPDEST CALLVALUE DUP1 ISZERO PUSH3 0x1AB JUMPI PUSH1 0x0 DUP1 REVERT JUMPDEST POP PUSH3 0xC8 PUSH3 0x1BD CALLDATASIZE PUSH1 0x4 PUSH3 0x3770 JUMP JUMPDEST PUSH3 0x1EB6 JUMP JUMPDEST CALLVALUE DUP1 ISZERO PUSH3 0x1D0 JUMPI PUSH1 0x0 DUP1 REVERT JUMPDEST POP PUSH3 0x1E8 PUSH3 0x1E2 CALLDATASIZE PUSH1 0x4 PUSH3 0x37F4 JUMP JUMPDEST PUSH3 0x1F01 JUMP JUMPDEST PUSH1 0x40 MLOAD PUSH3 0xF0 SWAP2 SWAP1 PUSH3 0x44DF JUMP JUMPDEST CALLVALUE DUP1 ISZERO PUSH3 0x204 JUMPI PUSH1 0x0 DUP1 REVERT JUMPDEST POP PUSH3 0xC8 PUSH3 0x216 CALLDATASIZE PUSH1 0x4 PUSH3 0x38AE JUMP JUMPDEST PUSH3 0x1F2E JUMP JUMPDEST CALLVALUE DUP1 ISZERO PUSH3 0x229 JUMPI PUSH1 0x0 DUP1 REVERT JUMPDEST POP PUSH3 0xC8 PUSH3 0x23B CALLDATASIZE PUSH1 0x4 PUSH3 0x3770 JUMP JUMPDEST PUSH3 0x2319 JUMP JUMPDEST PUSH3 0x24B PUSH3 0x2A16 JUMP JUMPDEST PUSH3 0x2C0 DUP6 DUP6 DUP1 DUP1 PUSH1 0x1F ADD PUSH1 0x20 DUP1 SWAP2 DIV MUL PUSH1 0x20 ADD PUSH1 0x40 MLOAD SWAP1 DUP2 ADD PUSH1 0x40 MSTORE DUP1 SWAP4 SWAP3 SWAP2 SWAP1 DUP2 DUP2 MSTORE PUSH1 0x20 ADD DUP4 DUP4 DUP1 DUP3 DUP5 CALLDATACOPY PUSH1 0x0 SWAP3 ADD SWAP2 SWAP1 SWAP2 MSTORE POP POP PUSH1 0x40 DUP1 MLOAD PUSH1 0x20 PUSH1 0x1F DUP10 ADD DUP2 SWAP1 DIV DUP2 MUL DUP3 ADD DUP2 ADD SWAP1 SWAP3 MSTORE DUP8 DUP2 MSTORE SWAP3 POP DUP8 SWAP2 POP DUP7 SWAP1 DUP2 SWAP1 DUP5 ADD DUP4 DUP3 DUP1 DUP3 DUP5 CALLDATACOPY PUSH1 0x0 SWAP3 ADD SWAP2 SWAP1 SWAP2 MSTORE POP PUSH3 0x2364 SWAP3 POP POP POP JUMP JUMPDEST SWAP1 POP DUP4 PUSH3 0x2EB JUMPI PUSH1 0x40 MLOAD PUSH3 0x461BCD PUSH1 0xE5 SHL DUP2 MSTORE PUSH1 0x4 ADD PUSH3 0x2E2 SWAP1 PUSH3 0x4412 JUMP JUMPDEST PUSH1 0x40 MLOAD DUP1 SWAP2 SUB SWAP1 REVERT JUMPDEST PUSH1 0x0 DUP2 PUSH1 0x60 ADD MLOAD PUSH1 0x3 DUP2 GT ISZERO PUSH3 0x2FE JUMPI INVALID JUMPDEST EQ ISZERO PUSH3 0x31F JUMPI PUSH1 0x40 MLOAD PUSH3 0x461BCD PUSH1 0xE5 SHL DUP2 MSTORE PUSH1 0x4 ADD PUSH3 0x2E2 SWAP1 PUSH3 0x4400 JUMP JUMPDEST PUSH1 0x2 SLOAD DUP2 MLOAD PUSH1 0x40 MLOAD PUSH4 0x66F61FB9 PUSH1 0xE0 SHL DUP2 MSTORE PUSH1 0x0 SWAP3 PUSH1 0x1 PUSH1 0x1 PUSH1 0xA0 SHL SUB AND SWAP2 PUSH4 0x66F61FB9 SWAP2 PUSH3 0x353 SWAP2 SWAP1 PUSH1 0x4 ADD PUSH3 0x436F JUMP JUMPDEST PUSH1 0x20 PUSH1 0x40 MLOAD DUP1 DUP4 SUB DUP2 DUP7 DUP1 EXTCODESIZE ISZERO DUP1 ISZERO PUSH3 0x36C JUMPI PUSH1 0x0 DUP1 REVERT JUMPDEST POP GAS STATICCALL ISZERO DUP1 ISZERO PUSH3 0x381 JUMPI RETURNDATASIZE PUSH1 0x0 DUP1 RETURNDATACOPY RETURNDATASIZE PUSH1 0x0 REVERT JUMPDEST POP POP POP POP PUSH1 0x40 MLOAD RETURNDATASIZE PUSH1 0x1F NOT PUSH1 0x1F DUP3 ADD AND DUP3 ADD DUP1 PUSH1 0x40 MSTORE POP PUSH3 0x3A7 SWAP2 SWAP1 DUP2 ADD SWAP1 PUSH3 0x37D3 JUMP JUMPDEST SWAP1 POP PUSH1 0x60 PUSH3 0x420 DUP8 DUP8 DUP1 DUP1 PUSH1 0x1F ADD PUSH1 0x20 DUP1 SWAP2 DIV MUL PUSH1 0x20 ADD PUSH1 0x40 MLOAD SWAP1 DUP2 ADD PUSH1 0x40 MSTORE DUP1 SWAP4 SWAP3 SWAP2 SWAP1 DUP2 DUP2 MSTORE PUSH1 0x20 ADD DUP4 DUP4 DUP1 DUP3 DUP5 CALLDATACOPY PUSH1 0x0 SWAP3 ADD SWAP2 SWAP1 SWAP2 MSTORE POP POP PUSH1 0x40 DUP1 MLOAD PUSH1 0x20 PUSH1 0x1F DUP12 ADD DUP2 SWAP1 DIV DUP2 MUL DUP3 ADD DUP2 ADD SWAP1 SWAP3 MSTORE DUP10 DUP2 MSTORE SWAP3 POP DUP10 SWAP2 POP DUP9 SWAP1 DUP2 SWAP1 DUP5 ADD DUP4 DUP3 DUP1 DUP3 DUP5 CALLDATACOPY PUSH1 0x0 SWAP3 ADD SWAP2 SWAP1 SWAP2 MSTORE POP PUSH3 0x29CA SWAP3 POP POP POP JUMP JUMPDEST SWAP1 POP PUSH1 0x60 PUSH1 0x6 DUP3 PUSH1 0x40 MLOAD PUSH3 0x436 SWAP2 SWAP1 PUSH3 0x42BC JUMP JUMPDEST SWAP1 DUP2 MSTORE PUSH1 0x20 ADD PUSH1 0x40 MLOAD DUP1 SWAP2 SUB SWAP1 KECCAK256 DUP1 SLOAD DUP1 PUSH1 0x20 MUL PUSH1 0x20 ADD PUSH1 0x40 MLOAD SWAP1 DUP2 ADD PUSH1 0x40 MSTORE DUP1 SWAP3 SWAP2 SWAP1 DUP2 DUP2 MSTORE PUSH1 0x20 ADD PUSH1 0x0 SWAP1 JUMPDEST DUP3 DUP3 LT ISZERO PUSH3 0x608 JUMPI PUSH1 0x0 DUP5 DUP2 MSTORE PUSH1 0x20 SWAP1 DUP2 SWAP1 KECCAK256 PUSH1 0x40 DUP1 MLOAD PUSH1 0x6 DUP7 MUL SWAP1 SWAP3 ADD DUP1 SLOAD PUSH1 0x2 PUSH1 0x1 DUP3 AND ISZERO PUSH2 0x100 MUL PUSH1 0x0 NOT ADD SWAP1 SWAP2 AND DIV PUSH1 0x1F DUP2 ADD DUP6 SWAP1 DIV SWAP1 SWAP5 MUL DUP4 ADD PUSH1 0xE0 SWAP1 DUP2 ADD SWAP1 SWAP3 MSTORE PUSH1 0xC0 DUP4 ADD DUP5 DUP2 MSTORE SWAP3 SWAP4 SWAP1 SWAP3 DUP5 SWAP3 SWAP1 SWAP2 DUP5 SWAP2 DUP5 ADD DUP3 DUP3 DUP1 ISZERO PUSH3 0x512 JUMPI DUP1 PUSH1 0x1F LT PUSH3 0x4E6 JUMPI PUSH2 0x100 DUP1 DUP4 SLOAD DIV MUL DUP4 MSTORE SWAP2 PUSH1 0x20 ADD SWAP2 PUSH3 0x512 JUMP JUMPDEST DUP3 ADD SWAP2 SWAP1 PUSH1 0x0 MSTORE PUSH1 0x20 PUSH1 0x0 KECCAK256 SWAP1 JUMPDEST DUP2 SLOAD DUP2 MSTORE SWAP1 PUSH1 0x1 ADD SWAP1 PUSH1 0x20 ADD DUP1 DUP4 GT PUSH3 0x4F4 JUMPI DUP3 SWAP1 SUB PUSH1 0x1F AND DUP3 ADD SWAP2 JUMPDEST POP POP POP POP POP DUP2 MSTORE PUSH1 0x20 ADD PUSH1 0x1 DUP3 ADD DUP1 SLOAD PUSH1 0x1 DUP2 PUSH1 0x1 AND ISZERO PUSH2 0x100 MUL SUB AND PUSH1 0x2 SWAP1 DIV DUP1 PUSH1 0x1F ADD PUSH1 0x20 DUP1 SWAP2 DIV MUL PUSH1 0x20 ADD PUSH1 0x40 MLOAD SWAP1 DUP2 ADD PUSH1 0x40 MSTORE DUP1 SWAP3 SWAP2 SWAP1 DUP2 DUP2 MSTORE PUSH1 0x20 ADD DUP3 DUP1 SLOAD PUSH1 0x1 DUP2 PUSH1 0x1 AND ISZERO PUSH2 0x100 MUL SUB AND PUSH1 0x2 SWAP1 DIV DUP1 ISZERO PUSH3 0x5B8 JUMPI DUP1 PUSH1 0x1F LT PUSH3 0x58C JUMPI PUSH2 0x100 DUP1 DUP4 SLOAD DIV MUL DUP4 MSTORE SWAP2 PUSH1 0x20 ADD SWAP2 PUSH3 0x5B8 JUMP JUMPDEST DUP3 ADD SWAP2 SWAP1 PUSH1 0x0 MSTORE PUSH1 0x20 PUSH1 0x0 KECCAK256 SWAP1 JUMPDEST DUP2 SLOAD DUP2 MSTORE SWAP1 PUSH1 0x1 ADD SWAP1 PUSH1 0x20 ADD DUP1 DUP4 GT PUSH3 0x59A JUMPI DUP3 SWAP1 SUB PUSH1 0x1F AND DUP3 ADD SWAP2 JUMPDEST POP POP POP SWAP2 DUP4 MSTORE POP POP PUSH1 0x2 DUP3 ADD SLOAD PUSH1 0x1 PUSH1 0x1 PUSH1 0xA0 SHL SUB AND PUSH1 0x20 DUP1 DUP4 ADD SWAP2 SWAP1 SWAP2 MSTORE PUSH1 0x3 DUP4 ADD SLOAD PUSH1 0x40 DUP4 ADD MSTORE PUSH1 0x4 DUP4 ADD SLOAD PUSH1 0x60 DUP4 ADD MSTORE PUSH1 0x5 SWAP1 SWAP3 ADD SLOAD PUSH1 0x80 SWAP1 SWAP2 ADD MSTORE SWAP1 DUP3 MSTORE PUSH1 0x1 SWAP3 SWAP1 SWAP3 ADD SWAP2 ADD PUSH3 0x464 JUMP JUMPDEST POP POP POP POP PUSH1 0xE0 DUP6 DUP2 ADD MLOAD ADD MLOAD SWAP1 SWAP2 POP PUSH1 0x0 JUMPDEST DUP3 MLOAD DUP2 LT ISZERO PUSH3 0x6C7 JUMPI PUSH3 0x62E PUSH3 0x2A9B JUMP JUMPDEST DUP4 DUP3 DUP2 MLOAD DUP2 LT PUSH3 0x63B JUMPI INVALID JUMPDEST PUSH1 0x20 MUL PUSH1 0x20 ADD ADD MLOAD SWAP1 POP DUP3 PUSH1 0x1 PUSH1 0x1 PUSH1 0xA0 SHL SUB AND PUSH4 0xBEABACC8 DUP8 DUP4 PUSH1 0x40 ADD MLOAD DUP5 PUSH1 0x80 ADD MLOAD DUP6 PUSH1 0x60 ADD MLOAD ADD PUSH1 0x40 MLOAD DUP5 PUSH4 0xFFFFFFFF AND PUSH1 0xE0 SHL DUP2 MSTORE PUSH1 0x4 ADD PUSH3 0x685 SWAP4 SWAP3 SWAP2 SWAP1 PUSH3 0x4321 JUMP JUMPDEST PUSH1 0x0 PUSH1 0x40 MLOAD DUP1 DUP4 SUB DUP2 PUSH1 0x0 DUP8 DUP1 EXTCODESIZE ISZERO DUP1 ISZERO PUSH3 0x6A0 JUMPI PUSH1 0x0 DUP1 REVERT JUMPDEST POP GAS CALL ISZERO DUP1 ISZERO PUSH3 0x6B5 JUMPI RETURNDATASIZE PUSH1 0x0 DUP1 RETURNDATACOPY RETURNDATASIZE PUSH1 0x0 REVERT JUMPDEST POP POP PUSH1 0x1 SWAP1 SWAP4 ADD SWAP3 POP PUSH3 0x61A SWAP2 POP POP JUMP JUMPDEST POP POP POP POP POP POP POP POP POP POP JUMP JUMPDEST PUSH3 0x6DD PUSH3 0x2A16 JUMP JUMPDEST PUSH1 0x20 DUP4 ADD MLOAD MLOAD PUSH3 0x702 JUMPI PUSH1 0x40 MLOAD PUSH3 0x461BCD PUSH1 0xE5 SHL DUP2 MSTORE PUSH1 0x4 ADD PUSH3 0x2E2 SWAP1 PUSH3 0x4436 JUMP JUMPDEST DUP3 MLOAD MLOAD PUSH3 0x724 JUMPI PUSH1 0x40 MLOAD PUSH3 0x461BCD PUSH1 0xE5 SHL DUP2 MSTORE PUSH1 0x4 ADD PUSH3 0x2E2 SWAP1 PUSH3 0x43B8 JUMP JUMPDEST PUSH1 0x0 PUSH1 0x3 DUP5 PUSH1 0x0 ADD MLOAD PUSH1 0x40 MLOAD PUSH3 0x73C SWAP2 SWAP1 PUSH3 0x42BC JUMP JUMPDEST SWAP1 DUP2 MSTORE PUSH1 0x20 ADD PUSH1 0x40 MLOAD DUP1 SWAP2 SUB SWAP1 KECCAK256 SWAP1 POP PUSH3 0x756 PUSH3 0x2A16 JUMP JUMPDEST DUP2 DUP6 PUSH1 0x20 ADD MLOAD PUSH1 0x40 MLOAD PUSH3 0x76B SWAP2 SWAP1 PUSH3 0x42BC JUMP JUMPDEST SWAP1 DUP2 MSTORE PUSH1 0x40 DUP1 MLOAD PUSH1 0x20 SWAP3 DUP2 SWAP1 SUB DUP4 ADD DUP2 KECCAK256 DUP1 SLOAD PUSH1 0x2 PUSH1 0x1 DUP3 AND ISZERO PUSH2 0x100 MUL PUSH1 0x0 NOT ADD SWAP1 SWAP2 AND DIV PUSH1 0x1F DUP2 ADD DUP6 SWAP1 DIV SWAP1 SWAP5 MUL DUP3 ADD PUSH2 0x1A0 SWAP1 DUP2 ADD SWAP1 SWAP4 MSTORE PUSH2 0x180 DUP3 ADD DUP5 DUP2 MSTORE SWAP2 SWAP4 SWAP1 SWAP3 DUP5 SWAP3 SWAP2 DUP5 SWAP2 DUP5 ADD DUP3 DUP3 DUP1 ISZERO PUSH3 0x80C JUMPI DUP1 PUSH1 0x1F LT PUSH3 0x7E0 JUMPI PUSH2 0x100 DUP1 DUP4 SLOAD DIV MUL DUP4 MSTORE SWAP2 PUSH1 0x20 ADD SWAP2 PUSH3 0x80C JUMP JUMPDEST DUP3 ADD SWAP2 SWAP1 PUSH1 0x0 MSTORE PUSH1 0x20 PUSH1 0x0 KECCAK256 SWAP1 JUMPDEST DUP2 SLOAD DUP2 MSTORE SWAP1 PUSH1 0x1 ADD SWAP1 PUSH1 0x20 ADD DUP1 DUP4 GT PUSH3 0x7EE JUMPI DUP3 SWAP1 SUB PUSH1 0x1F AND DUP3 ADD SWAP2 JUMPDEST POP POP POP POP POP DUP2 MSTORE PUSH1 0x20 ADD PUSH1 0x1 DUP3 ADD DUP1 SLOAD PUSH1 0x1 DUP2 PUSH1 0x1 AND ISZERO PUSH2 0x100 MUL SUB AND PUSH1 0x2 SWAP1 DIV DUP1 PUSH1 0x1F ADD PUSH1 0x20 DUP1 SWAP2 DIV MUL PUSH1 0x20 ADD PUSH1 0x40 MLOAD SWAP1 DUP2 ADD PUSH1 0x40 MSTORE DUP1 SWAP3 SWAP2 SWAP1 DUP2 DUP2 MSTORE PUSH1 0x20 ADD DUP3 DUP1 SLOAD PUSH1 0x1 DUP2 PUSH1 0x1 AND ISZERO PUSH2 0x100 MUL SUB AND PUSH1 0x2 SWAP1 DIV DUP1 ISZERO PUSH3 0x8B2 JUMPI DUP1 PUSH1 0x1F LT PUSH3 0x886 JUMPI PUSH2 0x100 DUP1 DUP4 SLOAD DIV MUL DUP4 MSTORE SWAP2 PUSH1 0x20 ADD SWAP2 PUSH3 0x8B2 JUMP JUMPDEST DUP3 ADD SWAP2 SWAP1 PUSH1 0x0 MSTORE PUSH1 0x20 PUSH1 0x0 KECCAK256 SWAP1 JUMPDEST DUP2 SLOAD DUP2 MSTORE SWAP1 PUSH1 0x1 ADD SWAP1 PUSH1 0x20 ADD DUP1 DUP4 GT PUSH3 0x894 JUMPI DUP3 SWAP1 SUB PUSH1 0x1F AND DUP3 ADD SWAP2 JUMPDEST POP POP POP SWAP2 DUP4 MSTORE POP POP PUSH1 0x2 DUP3 DUP2 ADD DUP1 SLOAD PUSH1 0x40 DUP1 MLOAD PUSH1 0x20 PUSH1 0x1 DUP5 AND ISZERO PUSH2 0x100 MUL PUSH1 0x0 NOT ADD SWAP1 SWAP4 AND SWAP5 SWAP1 SWAP5 DIV PUSH1 0x1F DUP2 ADD DUP4 SWAP1 DIV DUP4 MUL DUP6 ADD DUP4 ADD SWAP1 SWAP2 MSTORE DUP1 DUP5 MSTORE SWAP4 DUP2 ADD SWAP4 SWAP1 DUP4 ADD DUP3 DUP3 DUP1 ISZERO PUSH3 0x948 JUMPI DUP1 PUSH1 0x1F LT PUSH3 0x91C JUMPI PUSH2 0x100 DUP1 DUP4 SLOAD DIV MUL DUP4 MSTORE SWAP2 PUSH1 0x20 ADD SWAP2 PUSH3 0x948 JUMP JUMPDEST DUP3 ADD SWAP2 SWAP1 PUSH1 0x0 MSTORE PUSH1 0x20 PUSH1 0x0 KECCAK256 SWAP1 JUMPDEST DUP2 SLOAD DUP2 MSTORE SWAP1 PUSH1 0x1 ADD SWAP1 PUSH1 0x20 ADD DUP1 DUP4 GT PUSH3 0x92A JUMPI DUP3 SWAP1 SUB PUSH1 0x1F AND DUP3 ADD SWAP2 JUMPDEST POP POP POP SWAP2 DUP4 MSTORE POP POP PUSH1 0x3 DUP3 DUP2 ADD SLOAD PUSH1 0x20 SWAP1 SWAP3 ADD SWAP2 PUSH1 0xFF AND SWAP1 DUP2 GT ISZERO PUSH3 0x96A JUMPI INVALID JUMPDEST PUSH1 0x3 DUP2 GT ISZERO PUSH3 0x976 JUMPI INVALID JUMPDEST DUP2 MSTORE PUSH1 0x20 ADD PUSH1 0x3 DUP3 ADD PUSH1 0x1 SWAP1 SLOAD SWAP1 PUSH2 0x100 EXP SWAP1 DIV PUSH1 0xFF AND PUSH1 0x6 DUP2 GT ISZERO PUSH3 0x999 JUMPI INVALID JUMPDEST PUSH1 0x6 DUP2 GT ISZERO PUSH3 0x9A5 JUMPI INVALID JUMPDEST DUP2 MSTORE PUSH1 0x4 DUP3 ADD DUP1 SLOAD PUSH1 0x40 DUP1 MLOAD PUSH1 0x20 PUSH1 0x2 PUSH1 0x1 DUP6 AND ISZERO PUSH2 0x100 MUL PUSH1 0x0 NOT ADD SWAP1 SWAP5 AND SWAP4 SWAP1 SWAP4 DIV PUSH1 0x1F DUP2 ADD DUP5 SWAP1 DIV DUP5 MUL DUP3 ADD DUP5 ADD SWAP1 SWAP3 MSTORE DUP2 DUP2 MSTORE SWAP4 DUP3 ADD SWAP4 SWAP3 SWAP2 DUP4 ADD DUP3 DUP3 DUP1 ISZERO PUSH3 0xA37 JUMPI DUP1 PUSH1 0x1F LT PUSH3 0xA0B JUMPI PUSH2 0x100 DUP1 DUP4 SLOAD DIV MUL DUP4 MSTORE SWAP2 PUSH1 0x20 ADD SWAP2 PUSH3 0xA37 JUMP JUMPDEST DUP3 ADD SWAP2 SWAP1 PUSH1 0x0 MSTORE PUSH1 0x20 PUSH1 0x0 KECCAK256 SWAP1 JUMPDEST DUP2 SLOAD DUP2 MSTORE SWAP1 PUSH1 0x1 ADD SWAP1 PUSH1 0x20 ADD DUP1 DUP4 GT PUSH3 0xA19 JUMPI DUP3 SWAP1 SUB PUSH1 0x1F AND DUP3 ADD SWAP2 JUMPDEST POP POP POP SWAP2 DUP4 MSTORE POP POP PUSH1 0x5 DUP3 ADD DUP1 SLOAD PUSH1 0x40 DUP1 MLOAD PUSH1 0x20 PUSH1 0x2 PUSH1 0x1 DUP6 AND ISZERO PUSH2 0x100 MUL PUSH1 0x0 NOT ADD SWAP1 SWAP5 AND SWAP4 SWAP1 SWAP4 DIV PUSH1 0x1F DUP2 ADD DUP5 SWAP1 DIV DUP5 MUL DUP3 ADD DUP5 ADD SWAP1 SWAP3 MSTORE DUP2 DUP2 MSTORE SWAP4 DUP3 ADD SWAP4 SWAP3 SWAP2 DUP4 ADD DUP3 DUP3 DUP1 ISZERO PUSH3 0xACF JUMPI DUP1 PUSH1 0x1F LT PUSH3 0xAA3 JUMPI PUSH2 0x100 DUP1 DUP4 SLOAD DIV MUL DUP4 MSTORE SWAP2 PUSH1 0x20 ADD SWAP2 PUSH3 0xACF JUMP JUMPDEST DUP3 ADD SWAP2 SWAP1 PUSH1 0x0 MSTORE PUSH1 0x20 PUSH1 0x0 KECCAK256 SWAP1 JUMPDEST DUP2 SLOAD DUP2 MSTORE SWAP1 PUSH1 0x1 ADD SWAP1 PUSH1 0x20 ADD DUP1 DUP4 GT PUSH3 0xAB1 JUMPI DUP3 SWAP1 SUB PUSH1 0x1F AND DUP3 ADD SWAP2 JUMPDEST POP POP POP SWAP2 DUP4 MSTORE POP POP PUSH1 0x40 DUP1 MLOAD PUSH2 0x100 DUP2 ADD SWAP1 SWAP2 MSTORE PUSH1 0x6 DUP4 ADD DUP1 SLOAD PUSH1 0x1 PUSH1 0x1 PUSH1 0xA0 SHL SUB DUP2 AND DUP4 MSTORE PUSH1 0x20 SWAP4 DUP5 ADD SWAP4 DUP4 ADD SWAP1 PUSH1 0x1 PUSH1 0xA0 SHL SWAP1 DIV PUSH1 0xFF AND PUSH1 0x1 DUP2 GT ISZERO PUSH3 0xB14 JUMPI INVALID JUMPDEST PUSH1 0x1 DUP2 GT ISZERO PUSH3 0xB20 JUMPI INVALID JUMPDEST DUP2 MSTORE PUSH1 0x20 ADD PUSH1 0x1 DUP3 ADD SLOAD DUP2 MSTORE PUSH1 0x20 ADD PUSH1 0x2 DUP3 ADD DUP1 SLOAD PUSH1 0x1 DUP2 PUSH1 0x1 AND ISZERO PUSH2 0x100 MUL SUB AND PUSH1 0x2 SWAP1 DIV DUP1 PUSH1 0x1F ADD PUSH1 0x20 DUP1 SWAP2 DIV MUL PUSH1 0x20 ADD PUSH1 0x40 MLOAD SWAP1 DUP2 ADD PUSH1 0x40 MSTORE DUP1 SWAP3 SWAP2 SWAP1 DUP2 DUP2 MSTORE PUSH1 0x20 ADD DUP3 DUP1 SLOAD PUSH1 0x1 DUP2 PUSH1 0x1 AND ISZERO PUSH2 0x100 MUL SUB AND PUSH1 0x2 SWAP1 DIV DUP1 ISZERO PUSH3 0xBCB JUMPI DUP1 PUSH1 0x1F LT PUSH3 0xB9F JUMPI PUSH2 0x100 DUP1 DUP4 SLOAD DIV MUL DUP4 MSTORE SWAP2 PUSH1 0x20 ADD SWAP2 PUSH3 0xBCB JUMP JUMPDEST DUP3 ADD SWAP2 SWAP1 PUSH1 0x0 MSTORE PUSH1 0x20 PUSH1 0x0 KECCAK256 SWAP1 JUMPDEST DUP2 SLOAD DUP2 MSTORE SWAP1 PUSH1 0x1 ADD SWAP1 PUSH1 0x20 ADD DUP1 DUP4 GT PUSH3 0xBAD JUMPI DUP3 SWAP1 SUB PUSH1 0x1F AND DUP3 ADD SWAP2 JUMPDEST POP POP POP SWAP2 DUP4 MSTORE POP POP PUSH1 0x3 DUP3 DUP2 ADD SLOAD PUSH1 0x20 DUP1 DUP5 ADD SWAP2 SWAP1 SWAP2 MSTORE PUSH1 0x4 DUP5 ADD SLOAD PUSH1 0x40 DUP1 DUP6 ADD SWAP2 SWAP1 SWAP2 MSTORE PUSH1 0x5 DUP6 ADD SLOAD PUSH1 0x1 PUSH1 0x1 PUSH1 0xA0 SHL SUB SWAP1 DUP2 AND PUSH1 0x60 DUP7 ADD MSTORE PUSH1 0x6 SWAP1 SWAP6 ADD SLOAD SWAP1 SWAP5 AND PUSH1 0x80 SWAP1 SWAP4 ADD SWAP3 SWAP1 SWAP3 MSTORE SWAP3 DUP5 MSTORE DUP2 MLOAD DUP1 DUP3 ADD SWAP1 SWAP3 MSTORE PUSH1 0xD DUP6 ADD DUP1 SLOAD SWAP5 SWAP1 SWAP2 ADD SWAP4 SWAP2 SWAP3 SWAP1 SWAP2 DUP4 SWAP2 PUSH1 0xFF SWAP1 SWAP2 AND SWAP1 DUP2 GT ISZERO PUSH3 0xC43 JUMPI INVALID JUMPDEST PUSH1 0x3 DUP2 GT ISZERO PUSH3 0xC4F JUMPI INVALID JUMPDEST SWAP1 MSTORE POP DUP2 MSTORE PUSH1 0x40 DUP1 MLOAD PUSH1 0x80 DUP2 ADD DUP3 MSTORE PUSH1 0xE DUP5 ADD DUP1 SLOAD DUP3 MSTORE PUSH1 0xF DUP6 ADD DUP1 SLOAD DUP5 MLOAD PUSH1 0x20 PUSH1 0x2 PUSH1 0x1 DUP5 AND ISZERO PUSH2 0x100 MUL PUSH1 0x0 NOT ADD SWAP1 SWAP4 AND SWAP3 SWAP1 SWAP3 DIV PUSH1 0x1F DUP2 ADD DUP4 SWAP1 DIV DUP4 MUL DUP3 ADD DUP4 ADD SWAP1 SWAP7 MSTORE DUP6 DUP2 MSTORE SWAP6 DUP2 ADD SWAP6 SWAP4 SWAP5 SWAP3 SWAP4 DUP2 DUP7 ADD SWAP4 SWAP1 SWAP3 SWAP2 DUP4 ADD DUP3 DUP3 DUP1 ISZERO PUSH3 0xCFD JUMPI DUP1 PUSH1 0x1F LT PUSH3 0xCD1 JUMPI PUSH2 0x100 DUP1 DUP4 SLOAD DIV MUL DUP4 MSTORE SWAP2 PUSH1 0x20 ADD SWAP2 PUSH3 0xCFD JUMP JUMPDEST DUP3 ADD SWAP2 SWAP1 PUSH1 0x0 MSTORE PUSH1 0x20 PUSH1 0x0 KECCAK256 SWAP1 JUMPDEST DUP2 SLOAD DUP2 MSTORE SWAP1 PUSH1 0x1 ADD SWAP1 PUSH1 0x20 ADD DUP1 DUP4 GT PUSH3 0xCDF JUMPI DUP3 SWAP1 SUB PUSH1 0x1F AND DUP3 ADD SWAP2 JUMPDEST POP POP POP SWAP2 DUP4 MSTORE POP POP PUSH1 0x2 DUP3 ADD SLOAD PUSH1 0x20 DUP1 DUP4 ADD SWAP2 SWAP1 SWAP2 MSTORE PUSH1 0x3 SWAP1 SWAP3 ADD SLOAD PUSH1 0x40 SWAP2 DUP3 ADD MSTORE SWAP2 DUP4 MSTORE PUSH1 0x12 DUP5 ADD SLOAD SWAP1 DUP4 ADD MSTORE PUSH1 0x13 SWAP1 SWAP3 ADD SLOAD PUSH1 0x1 PUSH1 0x1 PUSH1 0xA0 SHL SUB AND SWAP2 ADD MSTORE DUP1 MLOAD MLOAD SWAP1 SWAP2 POP ISZERO PUSH3 0xD63 JUMPI PUSH1 0x40 MLOAD PUSH3 0x461BCD PUSH1 0xE5 SHL DUP2 MSTORE PUSH1 0x4 ADD PUSH3 0x2E2 SWAP1 PUSH3 0x4424 JUMP JUMPDEST PUSH3 0xD6D PUSH3 0x2ADA JUMP JUMPDEST PUSH1 0x1 SLOAD DUP7 MLOAD PUSH1 0x40 MLOAD PUSH4 0xEF7AE53F PUSH1 0xE0 SHL DUP2 MSTORE PUSH1 0x1 PUSH1 0x1 PUSH1 0xA0 SHL SUB SWAP1 SWAP3 AND SWAP2 PUSH4 0xEF7AE53F SWAP2 PUSH3 0xD9F SWAP2 PUSH1 0x4 ADD PUSH3 0x436F JUMP JUMPDEST PUSH1 0x0 PUSH1 0x40 MLOAD DUP1 DUP4 SUB DUP2 DUP7 DUP1 EXTCODESIZE ISZERO DUP1 ISZERO PUSH3 0xDB8 JUMPI PUSH1 0x0 DUP1 REVERT JUMPDEST POP GAS STATICCALL ISZERO DUP1 ISZERO PUSH3 0xDCD JUMPI RETURNDATASIZE PUSH1 0x0 DUP1 RETURNDATACOPY RETURNDATASIZE PUSH1 0x0 REVERT JUMPDEST POP POP POP POP PUSH1 0x40 MLOAD RETURNDATASIZE PUSH1 0x0 DUP3 RETURNDATACOPY PUSH1 0x1F RETURNDATASIZE SWAP1 DUP2 ADD PUSH1 0x1F NOT AND DUP3 ADD PUSH1 0x40 MSTORE PUSH3 0xDF7 SWAP2 SWAP1 DUP2 ADD SWAP1 PUSH3 0x39A9 JUMP JUMPDEST DUP1 MLOAD MLOAD SWAP1 SWAP2 POP PUSH3 0xE1C JUMPI PUSH1 0x40 MLOAD PUSH3 0x461BCD PUSH1 0xE5 SHL DUP2 MSTORE PUSH1 0x4 ADD PUSH3 0x2E2 SWAP1 PUSH3 0x4394 JUMP JUMPDEST PUSH3 0xE26 PUSH3 0x2B19 JUMP JUMPDEST POP PUSH1 0x40 DUP2 ADD MLOAD PUSH1 0x0 DUP2 MLOAD PUSH1 0x3 DUP2 GT ISZERO PUSH3 0xE3C JUMPI INVALID JUMPDEST EQ ISZERO PUSH3 0xE5D JUMPI PUSH1 0x40 MLOAD PUSH3 0x461BCD PUSH1 0xE5 SHL DUP2 MSTORE PUSH1 0x4 ADD PUSH3 0x2E2 SWAP1 PUSH3 0x43A6 JUMP JUMPDEST PUSH1 0x40 MLOAD DUP1 PUSH1 0x20 ADD PUSH1 0x40 MSTORE DUP1 DUP3 PUSH1 0x0 ADD MLOAD PUSH1 0x3 DUP2 GT ISZERO PUSH3 0xE79 JUMPI INVALID JUMPDEST SWAP1 MSTORE PUSH2 0x100 DUP9 ADD MSTORE PUSH3 0xE8B PUSH3 0x2B3B JUMP JUMPDEST POP PUSH1 0x60 DUP3 ADD MLOAD PUSH1 0x0 DUP2 MLOAD PUSH1 0x3 DUP2 GT ISZERO PUSH3 0xEA1 JUMPI INVALID JUMPDEST EQ ISZERO PUSH3 0xEC2 JUMPI PUSH1 0x40 MLOAD PUSH3 0x461BCD PUSH1 0xE5 SHL DUP2 MSTORE PUSH1 0x4 ADD PUSH3 0x2E2 SWAP1 PUSH3 0x446C JUMP JUMPDEST PUSH2 0x120 DUP9 ADD MLOAD PUSH1 0x40 ADD MLOAD TIMESTAMP SWAP1 PUSH1 0x0 SWAP1 PUSH3 0xF6F JUMPI PUSH1 0xA0 DUP4 ADD MLOAD PUSH1 0x40 MLOAD PUSH4 0x1BD95155 PUSH1 0xE0 SHL DUP2 MSTORE PUSH20 0x0 SWAP2 PUSH4 0x1BD95155 SWAP2 PUSH3 0xF13 SWAP2 SWAP1 PUSH1 0x4 ADD PUSH3 0x436F JUMP JUMPDEST PUSH1 0x20 PUSH1 0x40 MLOAD DUP1 DUP4 SUB DUP2 DUP7 DUP1 EXTCODESIZE ISZERO DUP1 ISZERO PUSH3 0xF2C JUMPI PUSH1 0x0 DUP1 REVERT JUMPDEST POP GAS DELEGATECALL ISZERO DUP1 ISZERO PUSH3 0xF41 JUMPI RETURNDATASIZE PUSH1 0x0 DUP1 RETURNDATACOPY RETURNDATASIZE PUSH1 0x0 REVERT JUMPDEST POP POP POP POP PUSH1 0x40 MLOAD RETURNDATASIZE PUSH1 0x1F NOT PUSH1 0x1F DUP3 ADD AND DUP3 ADD DUP1 PUSH1 0x40 MSTORE POP PUSH3 0xF67 SWAP2 SWAP1 DUP2 ADD SWAP1 PUSH3 0x3A19 JUMP JUMPDEST SWAP1 POP PUSH3 0xF7B JUMP JUMPDEST POP PUSH2 0x120 DUP10 ADD MLOAD PUSH1 0x40 ADD MLOAD JUMPDEST PUSH1 0x40 DUP1 MLOAD PUSH1 0x80 DUP1 DUP3 ADD DUP4 MSTORE PUSH1 0x60 DUP1 DUP8 ADD MLOAD DUP4 MSTORE SWAP1 DUP7 ADD MLOAD PUSH1 0x20 DUP4 ADD MSTORE DUP2 DUP4 ADD DUP5 SWAP1 MSTORE PUSH2 0xE10 DUP5 MUL DUP6 ADD SWAP1 DUP3 ADD MSTORE PUSH2 0x120 DUP13 ADD MSTORE PUSH1 0x2 SLOAD DUP12 MLOAD SWAP2 MLOAD PUSH4 0x66F61FB9 PUSH1 0xE0 SHL DUP2 MSTORE PUSH1 0x0 SWAP3 PUSH1 0x1 PUSH1 0x1 PUSH1 0xA0 SHL SUB SWAP1 SWAP3 AND SWAP2 PUSH4 0x66F61FB9 SWAP2 PUSH3 0xFE3 SWAP2 SWAP1 PUSH1 0x4 ADD PUSH3 0x436F JUMP JUMPDEST PUSH1 0x20 PUSH1 0x40 MLOAD DUP1 DUP4 SUB DUP2 DUP7 DUP1 EXTCODESIZE ISZERO DUP1 ISZERO PUSH3 0xFFC JUMPI PUSH1 0x0 DUP1 REVERT JUMPDEST POP GAS STATICCALL ISZERO DUP1 ISZERO PUSH3 0x1011 JUMPI RETURNDATASIZE PUSH1 0x0 DUP1 RETURNDATACOPY RETURNDATASIZE PUSH1 0x0 REVERT JUMPDEST POP POP POP POP PUSH1 0x40 MLOAD RETURNDATASIZE PUSH1 0x1F NOT PUSH1 0x1F DUP3 ADD AND DUP3 ADD DUP1 PUSH1 0x40 MSTORE POP PUSH3 0x1037 SWAP2 SWAP1 DUP2 ADD SWAP1 PUSH3 0x37D3 JUMP JUMPDEST PUSH1 0xE0 DUP13 ADD MLOAD PUSH1 0x1 PUSH1 0x1 PUSH1 0xA0 SHL SUB DUP3 AND PUSH1 0xC0 SWAP1 SWAP2 ADD MSTORE SWAP1 POP PUSH1 0x60 PUSH3 0x105B DUP13 PUSH3 0x29F8 JUMP JUMPDEST SWAP1 POP DUP1 PUSH1 0x40 MLOAD PUSH3 0x106C SWAP1 PUSH3 0x2B79 JUMP JUMPDEST PUSH3 0x1078 SWAP2 SWAP1 PUSH3 0x436F JUMP JUMPDEST PUSH1 0x40 MLOAD DUP1 SWAP2 SUB SWAP1 PUSH1 0x0 CREATE DUP1 ISZERO DUP1 ISZERO PUSH3 0x1095 JUMPI RETURNDATASIZE PUSH1 0x0 DUP1 RETURNDATACOPY RETURNDATASIZE PUSH1 0x0 REVERT JUMPDEST POP PUSH1 0xE0 DUP1 DUP15 ADD MLOAD PUSH1 0x1 PUSH1 0x1 PUSH1 0xA0 SHL SUB SWAP1 SWAP3 AND SWAP2 ADD MSTORE DUP11 MLOAD PUSH1 0x0 JUMPDEST DUP2 DUP2 LT ISZERO PUSH3 0x1145 JUMPI PUSH1 0x4 DUP4 PUSH1 0x40 MLOAD PUSH3 0x10CA SWAP2 SWAP1 PUSH3 0x42BC JUMP JUMPDEST SWAP1 DUP2 MSTORE PUSH1 0x20 ADD PUSH1 0x40 MLOAD DUP1 SWAP2 SUB SWAP1 KECCAK256 DUP14 DUP3 DUP2 MLOAD DUP2 LT PUSH3 0x10E5 JUMPI INVALID JUMPDEST PUSH1 0x20 SWAP1 DUP2 MUL SWAP2 SWAP1 SWAP2 ADD DUP2 ADD MLOAD DUP3 SLOAD PUSH1 0x1 DUP2 DUP2 ADD DUP1 DUP7 SSTORE PUSH1 0x0 SWAP6 DUP7 MSTORE SWAP5 DUP5 SWAP1 KECCAK256 DUP4 MLOAD PUSH1 0x3 SWAP1 SWAP4 MUL ADD SWAP2 DUP3 SSTORE DUP3 DUP5 ADD MLOAD SWAP1 DUP3 ADD SSTORE PUSH1 0x40 DUP3 ADD MLOAD DUP1 MLOAD SWAP3 SWAP4 SWAP2 SWAP3 PUSH3 0x1134 SWAP3 PUSH1 0x2 DUP6 ADD SWAP3 ADD SWAP1 PUSH3 0x2B87 JUMP JUMPDEST POP POP PUSH1 0x1 SWAP1 SWAP3 ADD SWAP2 POP PUSH3 0x10AF SWAP1 POP JUMP JUMPDEST POP PUSH2 0x160 DUP14 ADD MLOAD PUSH1 0x1 PUSH1 0x1 PUSH1 0xA0 SHL SUB AND PUSH3 0x1162 JUMPI CALLER PUSH2 0x160 DUP15 ADD MSTORE JUMPDEST PUSH2 0x140 DUP14 ADD DUP6 SWAP1 MSTORE PUSH1 0x20 DUP14 ADD MLOAD PUSH1 0x40 MLOAD DUP15 SWAP2 DUP13 SWAP2 PUSH3 0x1182 SWAP2 SWAP1 PUSH3 0x42BC JUMP JUMPDEST SWAP1 DUP2 MSTORE PUSH1 0x20 ADD PUSH1 0x40 MLOAD DUP1 SWAP2 SUB SWAP1 KECCAK256 PUSH1 0x0 DUP3 ADD MLOAD DUP2 PUSH1 0x0 ADD SWAP1 DUP1 MLOAD SWAP1 PUSH1 0x20 ADD SWAP1 PUSH3 0x11AE SWAP3 SWAP2 SWAP1 PUSH3 0x2B87 JUMP JUMPDEST POP PUSH1 0x20 DUP3 DUP2 ADD MLOAD DUP1 MLOAD PUSH3 0x11C9 SWAP3 PUSH1 0x1 DUP6 ADD SWAP3 ADD SWAP1 PUSH3 0x2B87 JUMP JUMPDEST POP PUSH1 0x40 DUP3 ADD MLOAD DUP1 MLOAD PUSH3 0x11E7 SWAP2 PUSH1 0x2 DUP5 ADD SWAP2 PUSH1 0x20 SWAP1 SWAP2 ADD SWAP1 PUSH3 0x2B87 JUMP JUMPDEST POP PUSH1 0x60 DUP3 ADD MLOAD DUP2 PUSH1 0x3 ADD PUSH1 0x0 PUSH2 0x100 EXP DUP2 SLOAD DUP2 PUSH1 0xFF MUL NOT AND SWAP1 DUP4 PUSH1 0x3 DUP2 GT ISZERO PUSH3 0x120D JUMPI INVALID JUMPDEST MUL OR SWAP1 SSTORE POP PUSH1 0x80 DUP3 ADD MLOAD PUSH1 0x3 DUP3 ADD DUP1 SLOAD PUSH2 0xFF00 NOT AND PUSH2 0x100 DUP4 PUSH1 0x6 DUP2 GT ISZERO PUSH3 0x1232 JUMPI INVALID JUMPDEST MUL OR SWAP1 SSTORE POP PUSH1 0xA0 DUP3 ADD MLOAD DUP1 MLOAD PUSH3 0x1254 SWAP2 PUSH1 0x4 DUP5 ADD SWAP2 PUSH1 0x20 SWAP1 SWAP2 ADD SWAP1 PUSH3 0x2B87 JUMP JUMPDEST POP PUSH1 0xC0 DUP3 ADD MLOAD DUP1 MLOAD PUSH3 0x1272 SWAP2 PUSH1 0x5 DUP5 ADD SWAP2 PUSH1 0x20 SWAP1 SWAP2 ADD SWAP1 PUSH3 0x2B87 JUMP JUMPDEST POP PUSH1 0xE0 DUP3 ADD MLOAD DUP1 MLOAD PUSH1 0x6 DUP4 ADD DUP1 SLOAD PUSH1 0x1 PUSH1 0x1 PUSH1 0xA0 SHL SUB NOT AND PUSH1 0x1 PUSH1 0x1 PUSH1 0xA0 SHL SUB SWAP1 SWAP3 AND SWAP2 SWAP1 SWAP2 OR DUP1 DUP3 SSTORE PUSH1 0x20 DUP4 ADD MLOAD SWAP1 DUP3 SWAP1 PUSH1 0xFF PUSH1 0xA0 SHL NOT AND PUSH1 0x1 PUSH1 0xA0 SHL DUP4 PUSH1 0x1 DUP2 GT ISZERO PUSH3 0x12BD JUMPI INVALID JUMPDEST MUL OR SWAP1 SSTORE POP PUSH1 0x40 DUP3 ADD MLOAD PUSH1 0x1 DUP3 ADD SSTORE PUSH1 0x60 DUP3 ADD MLOAD DUP1 MLOAD PUSH3 0x12E9 SWAP2 PUSH1 0x2 DUP5 ADD SWAP2 PUSH1 0x20 SWAP1 SWAP2 ADD SWAP1 PUSH3 0x2B87 JUMP JUMPDEST POP PUSH1 0x80 DUP3 ADD MLOAD PUSH1 0x3 DUP3 DUP2 ADD SWAP2 SWAP1 SWAP2 SSTORE PUSH1 0xA0 DUP4 ADD MLOAD PUSH1 0x4 DUP4 ADD SSTORE PUSH1 0xC0 DUP4 ADD MLOAD PUSH1 0x5 DUP4 ADD DUP1 SLOAD PUSH1 0x1 PUSH1 0x1 PUSH1 0xA0 SHL SUB NOT SWAP1 DUP2 AND PUSH1 0x1 PUSH1 0x1 PUSH1 0xA0 SHL SUB SWAP4 DUP5 AND OR SWAP1 SWAP2 SSTORE PUSH1 0xE0 SWAP1 SWAP5 ADD MLOAD PUSH1 0x6 SWAP1 SWAP4 ADD DUP1 SLOAD SWAP1 SWAP5 AND SWAP3 AND SWAP2 SWAP1 SWAP2 OR SWAP1 SWAP2 SSTORE PUSH2 0x100 DUP4 ADD MLOAD DUP1 MLOAD PUSH1 0xD DUP5 ADD DUP1 SLOAD SWAP3 SWAP4 SWAP1 SWAP3 DUP4 SWAP2 PUSH1 0xFF NOT SWAP1 SWAP2 AND SWAP1 PUSH1 0x1 SWAP1 DUP5 SWAP1 DUP2 GT ISZERO PUSH3 0x136B JUMPI INVALID JUMPDEST MUL OR SWAP1 SSTORE POP POP POP PUSH2 0x120 DUP3 ADD MLOAD DUP1 MLOAD PUSH1 0xE DUP4 ADD SWAP1 DUP2 SSTORE PUSH1 0x20 DUP1 DUP4 ADD MLOAD DUP1 MLOAD PUSH3 0x139B SWAP3 PUSH1 0xF DUP8 ADD SWAP3 ADD SWAP1 PUSH3 0x2B87 JUMP JUMPDEST POP PUSH1 0x40 DUP3 DUP2 ADD MLOAD PUSH1 0x2 DUP4 ADD SSTORE PUSH1 0x60 SWAP1 SWAP3 ADD MLOAD PUSH1 0x3 SWAP1 SWAP2 ADD SSTORE PUSH2 0x140 DUP4 ADD MLOAD PUSH1 0x12 DUP4 ADD SSTORE PUSH2 0x160 SWAP1 SWAP3 ADD MLOAD PUSH1 0x13 SWAP1 SWAP2 ADD DUP1 SLOAD PUSH1 0x1 PUSH1 0x1 PUSH1 0xA0 SHL SUB NOT AND PUSH1 0x1 PUSH1 0x1 PUSH1 0xA0 SHL SUB SWAP1 SWAP3 AND SWAP2 SWAP1 SWAP2 OR SWAP1 SSTORE DUP14 MLOAD SWAP1 MLOAD PUSH1 0x5 SWAP2 PUSH3 0x13F9 SWAP2 PUSH3 0x42BC JUMP JUMPDEST SWAP1 DUP2 MSTORE PUSH1 0x40 MLOAD SWAP1 DUP2 SWAP1 SUB PUSH1 0x20 SWAP1 DUP2 ADD DUP3 KECCAK256 DUP1 SLOAD PUSH1 0x1 ADD SWAP1 SSTORE DUP15 ADD MLOAD PUSH3 0x141F SWAP2 PUSH3 0x42BC JUMP JUMPDEST PUSH1 0x40 MLOAD DUP1 SWAP2 SUB SWAP1 KECCAK256 PUSH32 0x74B2E2A4D866C513222FE0222FEEF41E081EC60E6879885DD70B6B7A305C3C1E DUP15 DUP15 PUSH1 0x40 MLOAD PUSH3 0x145A SWAP3 SWAP2 SWAP1 PUSH3 0x44A3 JUMP JUMPDEST PUSH1 0x40 MLOAD DUP1 SWAP2 SUB SWAP1 LOG2 DUP13 SWAP11 POP POP POP POP POP POP POP POP POP POP POP JUMPDEST SWAP3 SWAP2 POP POP JUMP JUMPDEST PUSH3 0x1480 PUSH3 0x2A16 JUMP JUMPDEST PUSH1 0x20 DUP4 ADD MLOAD MLOAD PUSH3 0x14A5 JUMPI PUSH1 0x40 MLOAD PUSH3 0x461BCD PUSH1 0xE5 SHL DUP2 MSTORE PUSH1 0x4 ADD PUSH3 0x2E2 SWAP1 PUSH3 0x4436 JUMP JUMPDEST DUP3 MLOAD MLOAD PUSH3 0x14C7 JUMPI PUSH1 0x40 MLOAD PUSH3 0x461BCD PUSH1 0xE5 SHL DUP2 MSTORE PUSH1 0x4 ADD PUSH3 0x2E2 SWAP1 PUSH3 0x43B8 JUMP JUMPDEST PUSH1 0x0 PUSH1 0x3 DUP5 PUSH1 0x0 ADD MLOAD PUSH1 0x40 MLOAD PUSH3 0x14DF SWAP2 SWAP1 PUSH3 0x42BC JUMP JUMPDEST SWAP1 DUP2 MSTORE PUSH1 0x20 ADD PUSH1 0x40 MLOAD DUP1 SWAP2 SUB SWAP1 KECCAK256 SWAP1 POP DUP4 DUP2 DUP6 PUSH1 0x20 ADD MLOAD PUSH1 0x40 MLOAD PUSH3 0x1505 SWAP2 SWAP1 PUSH3 0x42BC JUMP JUMPDEST SWAP1 DUP2 MSTORE PUSH1 0x20 ADD PUSH1 0x40 MLOAD DUP1 SWAP2 SUB SWAP1 KECCAK256 PUSH1 0x0 DUP3 ADD MLOAD DUP2 PUSH1 0x0 ADD SWAP1 DUP1 MLOAD SWAP1 PUSH1 0x20 ADD SWAP1 PUSH3 0x1531 SWAP3 SWAP2 SWAP1 PUSH3 0x2B87 JUMP JUMPDEST POP PUSH1 0x20 DUP3 DUP2 ADD MLOAD DUP1 MLOAD PUSH3 0x154C SWAP3 PUSH1 0x1 DUP6 ADD SWAP3 ADD SWAP1 PUSH3 0x2B87 JUMP JUMPDEST POP PUSH1 0x40 DUP3 ADD MLOAD DUP1 MLOAD PUSH3 0x156A SWAP2 PUSH1 0x2 DUP5 ADD SWAP2 PUSH1 0x20 SWAP1 SWAP2 ADD SWAP1 PUSH3 0x2B87 JUMP JUMPDEST POP PUSH1 0x60 DUP3 ADD MLOAD DUP2 PUSH1 0x3 ADD PUSH1 0x0 PUSH2 0x100 EXP DUP2 SLOAD DUP2 PUSH1 0xFF MUL NOT AND SWAP1 DUP4 PUSH1 0x3 DUP2 GT ISZERO PUSH3 0x1590 JUMPI INVALID JUMPDEST MUL OR SWAP1 SSTORE POP PUSH1 0x80 DUP3 ADD MLOAD PUSH1 0x3 DUP3 ADD DUP1 SLOAD PUSH2 0xFF00 NOT AND PUSH2 0x100 DUP4 PUSH1 0x6 DUP2 GT ISZERO PUSH3 0x15B5 JUMPI INVALID JUMPDEST MUL OR SWAP1 SSTORE POP PUSH1 0xA0 DUP3 ADD MLOAD DUP1 MLOAD PUSH3 0x15D7 SWAP2 PUSH1 0x4 DUP5 ADD SWAP2 PUSH1 0x20 SWAP1 SWAP2 ADD SWAP1 PUSH3 0x2B87 JUMP JUMPDEST POP PUSH1 0xC0 DUP3 ADD MLOAD DUP1 MLOAD PUSH3 0x15F5 SWAP2 PUSH1 0x5 DUP5 ADD SWAP2 PUSH1 0x20 SWAP1 SWAP2 ADD SWAP1 PUSH3 0x2B87 JUMP JUMPDEST POP PUSH1 0xE0 DUP3 ADD MLOAD DUP1 MLOAD PUSH1 0x6 DUP4 ADD DUP1 SLOAD PUSH1 0x1 PUSH1 0x1 PUSH1 0xA0 SHL SUB NOT AND PUSH1 0x1 PUSH1 0x1 PUSH1 0xA0 SHL SUB SWAP1 SWAP3 AND SWAP2 SWAP1 SWAP2 OR DUP1 DUP3 SSTORE PUSH1 0x20 DUP4 ADD MLOAD SWAP1 DUP3 SWAP1 PUSH1 0xFF PUSH1 0xA0 SHL NOT AND PUSH1 0x1 PUSH1 0xA0 SHL DUP4 PUSH1 0x1 DUP2 GT ISZERO PUSH3 0x1640 JUMPI INVALID JUMPDEST MUL OR SWAP1 SSTORE POP PUSH1 0x40 DUP3 ADD MLOAD PUSH1 0x1 DUP3 ADD SSTORE PUSH1 0x60 DUP3 ADD MLOAD DUP1 MLOAD PUSH3 0x166C SWAP2 PUSH1 0x2 DUP5 ADD SWAP2 PUSH1 0x20 SWAP1 SWAP2 ADD SWAP1 PUSH3 0x2B87 JUMP JUMPDEST POP PUSH1 0x80 DUP3 ADD MLOAD PUSH1 0x3 DUP3 DUP2 ADD SWAP2 SWAP1 SWAP2 SSTORE PUSH1 0xA0 DUP4 ADD MLOAD PUSH1 0x4 DUP4 ADD SSTORE PUSH1 0xC0 DUP4 ADD MLOAD PUSH1 0x5 DUP4 ADD DUP1 SLOAD PUSH1 0x1 PUSH1 0x1 PUSH1 0xA0 SHL SUB NOT SWAP1 DUP2 AND PUSH1 0x1 PUSH1 0x1 PUSH1 0xA0 SHL SUB SWAP4 DUP5 AND OR SWAP1 SWAP2 SSTORE PUSH1 0xE0 SWAP1 SWAP5 ADD MLOAD PUSH1 0x6 SWAP1 SWAP4 ADD DUP1 SLOAD SWAP1 SWAP5 AND SWAP3 AND SWAP2 SWAP1 SWAP2 OR SWAP1 SWAP2 SSTORE PUSH2 0x100 DUP4 ADD MLOAD DUP1 MLOAD PUSH1 0xD DUP5 ADD DUP1 SLOAD SWAP3 SWAP4 SWAP1 SWAP3 DUP4 SWAP2 PUSH1 0xFF NOT SWAP1 SWAP2 AND SWAP1 PUSH1 0x1 SWAP1 DUP5 SWAP1 DUP2 GT ISZERO PUSH3 0x16EE JUMPI INVALID JUMPDEST MUL OR SWAP1 SSTORE POP POP POP PUSH2 0x120 DUP3 ADD MLOAD DUP1 MLOAD PUSH1 0xE DUP4 ADD SWAP1 DUP2 SSTORE PUSH1 0x20 DUP1 DUP4 ADD MLOAD DUP1 MLOAD PUSH3 0x171E SWAP3 PUSH1 0xF DUP8 ADD SWAP3 ADD SWAP1 PUSH3 0x2B87 JUMP JUMPDEST POP PUSH1 0x40 DUP3 ADD MLOAD PUSH1 0x2 DUP3 ADD SSTORE PUSH1 0x60 SWAP2 DUP3 ADD MLOAD PUSH1 0x3 SWAP1 SWAP2 ADD SSTORE PUSH2 0x140 DUP4 ADD MLOAD PUSH1 0x12 DUP4 ADD SSTORE PUSH2 0x160 SWAP1 SWAP3 ADD MLOAD PUSH1 0x13 SWAP1 SWAP2 ADD DUP1 SLOAD PUSH1 0x1 PUSH1 0x1 PUSH1 0xA0 SHL SUB NOT AND PUSH1 0x1 PUSH1 0x1 PUSH1 0xA0 SHL SUB SWAP1 SWAP3 AND SWAP2 SWAP1 SWAP2 OR SWAP1 SSTORE PUSH3 0x1774 DUP6 PUSH3 0x29F8 JUMP JUMPDEST DUP5 MLOAD SWAP1 SWAP2 POP PUSH1 0x0 JUMPDEST DUP2 DUP2 LT ISZERO PUSH3 0x1812 JUMPI PUSH1 0x4 DUP4 PUSH1 0x40 MLOAD PUSH3 0x1797 SWAP2 SWAP1 PUSH3 0x42BC JUMP JUMPDEST SWAP1 DUP2 MSTORE PUSH1 0x20 ADD PUSH1 0x40 MLOAD DUP1 SWAP2 SUB SWAP1 KECCAK256 DUP7 DUP3 DUP2 MLOAD DUP2 LT PUSH3 0x17B2 JUMPI INVALID JUMPDEST PUSH1 0x20 SWAP1 DUP2 MUL SWAP2 SWAP1 SWAP2 ADD DUP2 ADD MLOAD DUP3 SLOAD PUSH1 0x1 DUP2 DUP2 ADD DUP1 DUP7 SSTORE PUSH1 0x0 SWAP6 DUP7 MSTORE SWAP5 DUP5 SWAP1 KECCAK256 DUP4 MLOAD PUSH1 0x3 SWAP1 SWAP4 MUL ADD SWAP2 DUP3 SSTORE DUP3 DUP5 ADD MLOAD SWAP1 DUP3 ADD SSTORE PUSH1 0x40 DUP3 ADD MLOAD DUP1 MLOAD SWAP3 SWAP4 SWAP2 SWAP3 PUSH3 0x1801 SWAP3 PUSH1 0x2 DUP6 ADD SWAP3 ADD SWAP1 PUSH3 0x2B87 JUMP JUMPDEST POP POP PUSH1 0x1 SWAP1 SWAP3 ADD SWAP2 POP PUSH3 0x177C SWAP1 POP JUMP JUMPDEST POP DUP6 PUSH1 0x20 ADD MLOAD PUSH1 0x40 MLOAD PUSH3 0x1827 SWAP2 SWAP1 PUSH3 0x42BC JUMP JUMPDEST PUSH1 0x40 MLOAD DUP1 SWAP2 SUB SWAP1 KECCAK256 PUSH32 0x74B2E2A4D866C513222FE0222FEEF41E081EC60E6879885DD70B6B7A305C3C1E DUP8 DUP8 PUSH1 0x40 MLOAD PUSH3 0x1862 SWAP3 SWAP2 SWAP1 PUSH3 0x44A3 JUMP JUMPDEST PUSH1 0x40 MLOAD DUP1 SWAP2 SUB SWAP1 LOG2 POP SWAP4 SWAP5 SWAP4 POP POP POP POP JUMP JUMPDEST PUSH3 0x187E PUSH3 0x2A16 JUMP JUMPDEST PUSH1 0x60 PUSH3 0x188A PUSH3 0x2A16 JUMP JUMPDEST PUSH3 0x18FF DUP8 DUP8 DUP1 DUP1 PUSH1 0x1F ADD PUSH1 0x20 DUP1 SWAP2 DIV MUL PUSH1 0x20 ADD PUSH1 0x40 MLOAD SWAP1 DUP2 ADD PUSH1 0x40 MSTORE DUP1 SWAP4 SWAP3 SWAP2 SWAP1 DUP2 DUP2 MSTORE PUSH1 0x20 ADD DUP4 DUP4 DUP1 DUP3 DUP5 CALLDATACOPY PUSH1 0x0 SWAP3 ADD SWAP2 SWAP1 SWAP2 MSTORE POP POP PUSH1 0x40 DUP1 MLOAD PUSH1 0x20 PUSH1 0x1F DUP12 ADD DUP2 SWAP1 DIV DUP2 MUL DUP3 ADD DUP2 ADD SWAP1 SWAP3 MSTORE DUP10 DUP2 MSTORE SWAP3 POP DUP10 SWAP2 POP DUP9 SWAP1 DUP2 SWAP1 DUP5 ADD DUP4 DUP3 DUP1 DUP3 DUP5 CALLDATACOPY PUSH1 0x0 SWAP3 ADD SWAP2 SWAP1 SWAP2 MSTORE POP PUSH3 0x2364 SWAP3 POP POP POP JUMP JUMPDEST SWAP1 POP PUSH1 0x60 PUSH3 0x190E DUP3 PUSH3 0x29F8 JUMP JUMPDEST SWAP1 POP DUP2 PUSH1 0x4 DUP3 PUSH1 0x40 MLOAD PUSH3 0x1923 SWAP2 SWAP1 PUSH3 0x42BC JUMP JUMPDEST SWAP1 DUP2 MSTORE PUSH1 0x20 ADD PUSH1 0x40 MLOAD DUP1 SWAP2 SUB SWAP1 KECCAK256 DUP1 DUP1 SLOAD DUP1 PUSH1 0x20 MUL PUSH1 0x20 ADD PUSH1 0x40 MLOAD SWAP1 DUP2 ADD PUSH1 0x40 MSTORE DUP1 SWAP3 SWAP2 SWAP1 DUP2 DUP2 MSTORE PUSH1 0x20 ADD PUSH1 0x0 SWAP1 JUMPDEST DUP3 DUP3 LT ISZERO PUSH3 0x1A40 JUMPI DUP4 DUP3 SWAP1 PUSH1 0x0 MSTORE PUSH1 0x20 PUSH1 0x0 KECCAK256 SWAP1 PUSH1 0x3 MUL ADD PUSH1 0x40 MLOAD DUP1 PUSH1 0x60 ADD PUSH1 0x40 MSTORE SWAP1 DUP2 PUSH1 0x0 DUP3 ADD SLOAD DUP2 MSTORE PUSH1 0x20 ADD PUSH1 0x1 DUP3 ADD SLOAD DUP2 MSTORE PUSH1 0x20 ADD PUSH1 0x2 DUP3 ADD DUP1 SLOAD PUSH1 0x1 DUP2 PUSH1 0x1 AND ISZERO PUSH2 0x100 MUL SUB AND PUSH1 0x2 SWAP1 DIV DUP1 PUSH1 0x1F ADD PUSH1 0x20 DUP1 SWAP2 DIV MUL PUSH1 0x20 ADD PUSH1 0x40 MLOAD SWAP1 DUP2 ADD PUSH1 0x40 MSTORE DUP1 SWAP3 SWAP2 SWAP1 DUP2 DUP2 MSTORE PUSH1 0x20 ADD DUP3 DUP1 SLOAD PUSH1 0x1 DUP2 PUSH1 0x1 AND ISZERO PUSH2 0x100 MUL SUB AND PUSH1 0x2 SWAP1 DIV DUP1 ISZERO PUSH3 0x1A27 JUMPI DUP1 PUSH1 0x1F LT PUSH3 0x19FB JUMPI PUSH2 0x100 DUP1 DUP4 SLOAD DIV MUL DUP4 MSTORE SWAP2 PUSH1 0x20 ADD SWAP2 PUSH3 0x1A27 JUMP JUMPDEST DUP3 ADD SWAP2 SWAP1 PUSH1 0x0 MSTORE PUSH1 0x20 PUSH1 0x0 KECCAK256 SWAP1 JUMPDEST DUP2 SLOAD DUP2 MSTORE SWAP1 PUSH1 0x1 ADD SWAP1 PUSH1 0x20 ADD DUP1 DUP4 GT PUSH3 0x1A09 JUMPI DUP3 SWAP1 SUB PUSH1 0x1F AND DUP3 ADD SWAP2 JUMPDEST POP POP POP POP POP DUP2 MSTORE POP POP DUP2 MSTORE PUSH1 0x20 ADD SWAP1 PUSH1 0x1 ADD SWAP1 PUSH3 0x1952 JUMP JUMPDEST POP POP POP POP SWAP1 POP SWAP4 POP SWAP4 POP POP POP SWAP5 POP SWAP5 SWAP3 POP POP POP JUMP JUMPDEST PUSH1 0x0 PUSH3 0x1A61 PUSH3 0x2A16 JUMP JUMPDEST PUSH3 0x1AD6 DUP7 DUP7 DUP1 DUP1 PUSH1 0x1F ADD PUSH1 0x20 DUP1 SWAP2 DIV MUL PUSH1 0x20 ADD PUSH1 0x40 MLOAD SWAP1 DUP2 ADD PUSH1 0x40 MSTORE DUP1 SWAP4 SWAP3 SWAP2 SWAP1 DUP2 DUP2 MSTORE PUSH1 0x20 ADD DUP4 DUP4 DUP1 DUP3 DUP5 CALLDATACOPY PUSH1 0x0 SWAP3 ADD SWAP2 SWAP1 SWAP2 MSTORE POP POP PUSH1 0x40 DUP1 MLOAD PUSH1 0x20 PUSH1 0x1F DUP11 ADD DUP2 SWAP1 DIV DUP2 MUL DUP3 ADD DUP2 ADD SWAP1 SWAP3 MSTORE DUP9 DUP2 MSTORE SWAP3 POP DUP9 SWAP2 POP DUP8 SWAP1 DUP2 SWAP1 DUP5 ADD DUP4 DUP3 DUP1 DUP3 DUP5 CALLDATACOPY PUSH1 0x0 SWAP3 ADD SWAP2 SWAP1 SWAP2 MSTORE POP PUSH3 0x2364 SWAP3 POP POP POP JUMP JUMPDEST DUP1 MLOAD MLOAD SWAP1 SWAP2 POP PUSH3 0x1AFB JUMPI PUSH1 0x40 MLOAD PUSH3 0x461BCD PUSH1 0xE5 SHL DUP2 MSTORE PUSH1 0x4 ADD PUSH3 0x2E2 SWAP1 PUSH3 0x4412 JUMP JUMPDEST PUSH1 0x60 ADD MLOAD SWAP1 POP JUMPDEST SWAP5 SWAP4 POP POP POP POP JUMP JUMPDEST PUSH3 0x1B14 PUSH3 0x2A16 JUMP JUMPDEST PUSH3 0x1B28 DUP3 PUSH1 0x0 ADD MLOAD DUP4 PUSH1 0x20 ADD MLOAD PUSH3 0x2364 JUMP JUMPDEST DUP3 MLOAD MLOAD SWAP1 SWAP2 POP PUSH3 0x1B4D JUMPI PUSH1 0x40 MLOAD PUSH3 0x461BCD PUSH1 0xE5 SHL DUP2 MSTORE PUSH1 0x4 ADD PUSH3 0x2E2 SWAP1 PUSH3 0x4412 JUMP JUMPDEST PUSH1 0x0 DUP2 PUSH1 0x60 ADD MLOAD PUSH1 0x3 DUP2 GT ISZERO PUSH3 0x1B60 JUMPI INVALID JUMPDEST EQ PUSH3 0x1B80 JUMPI PUSH1 0x40 MLOAD PUSH3 0x461BCD PUSH1 0xE5 SHL DUP2 MSTORE PUSH1 0x4 ADD PUSH3 0x2E2 SWAP1 PUSH3 0x447E JUMP JUMPDEST PUSH3 0x1B8A PUSH3 0x2C0C JUMP JUMPDEST POP PUSH2 0x120 DUP2 ADD MLOAD PUSH1 0x60 DUP2 ADD MLOAD TIMESTAMP SWAP1 DUP2 GT ISZERO PUSH3 0x1BBA JUMPI PUSH1 0x40 MLOAD PUSH3 0x461BCD PUSH1 0xE5 SHL DUP2 MSTORE PUSH1 0x4 ADD PUSH3 0x2E2 SWAP1 PUSH3 0x4448 JUMP JUMPDEST PUSH1 0x0 DUP5 PUSH1 0x80 ADD MLOAD DUP6 PUSH1 0x60 ADD MLOAD ADD GT PUSH3 0x1BE7 JUMPI PUSH1 0x40 MLOAD PUSH3 0x461BCD PUSH1 0xE5 SHL DUP2 MSTORE PUSH1 0x4 ADD PUSH3 0x2E2 SWAP1 PUSH3 0x43EE JUMP JUMPDEST PUSH1 0x2 SLOAD DUP4 MLOAD PUSH1 0x40 MLOAD PUSH4 0x66F61FB9 PUSH1 0xE0 SHL DUP2 MSTORE PUSH1 0x0 SWAP3 PUSH1 0x1 PUSH1 0x1 PUSH1 0xA0 SHL SUB AND SWAP2 PUSH4 0x66F61FB9 SWAP2 PUSH3 0x1C1B SWAP2 SWAP1 PUSH1 0x4 ADD PUSH3 0x436F JUMP JUMPDEST PUSH1 0x20 PUSH1 0x40 MLOAD DUP1 DUP4 SUB DUP2 DUP7 DUP1 EXTCODESIZE ISZERO DUP1 ISZERO PUSH3 0x1C34 JUMPI PUSH1 0x0 DUP1 REVERT JUMPDEST POP GAS STATICCALL ISZERO DUP1 ISZERO PUSH3 0x1C49 JUMPI RETURNDATASIZE PUSH1 0x0 DUP1 RETURNDATACOPY RETURNDATASIZE PUSH1 0x0 REVERT JUMPDEST POP POP POP POP PUSH1 0x40 MLOAD RETURNDATASIZE PUSH1 0x1F NOT PUSH1 0x1F DUP3 ADD AND DUP3 ADD DUP1 PUSH1 0x40 MSTORE POP PUSH3 0x1C6F SWAP2 SWAP1 DUP2 ADD SWAP1 PUSH3 0x37D3 JUMP JUMPDEST SWAP1 POP DUP1 PUSH1 0x1 PUSH1 0x1 PUSH1 0xA0 SHL SUB AND PUSH4 0x23B872DD CALLER DUP7 PUSH1 0xE0 ADD MLOAD PUSH1 0xE0 ADD MLOAD PUSH1 0x1 PUSH1 0x1 PUSH1 0xA0 SHL SUB AND PUSH4 0x38CC4831 PUSH1 0x40 MLOAD DUP2 PUSH4 0xFFFFFFFF AND PUSH1 0xE0 SHL DUP2 MSTORE PUSH1 0x4 ADD PUSH1 0x20 PUSH1 0x40 MLOAD DUP1 DUP4 SUB DUP2 DUP7 DUP1 EXTCODESIZE ISZERO DUP1 ISZERO PUSH3 0x1CC3 JUMPI PUSH1 0x0 DUP1 REVERT JUMPDEST POP GAS STATICCALL ISZERO DUP1 ISZERO PUSH3 0x1CD8 JUMPI RETURNDATASIZE PUSH1 0x0 DUP1 RETURNDATACOPY RETURNDATASIZE PUSH1 0x0 REVERT JUMPDEST POP POP POP POP PUSH1 0x40 MLOAD RETURNDATASIZE PUSH1 0x1F NOT PUSH1 0x1F DUP3 ADD AND DUP3 ADD DUP1 PUSH1 0x40 MSTORE POP PUSH3 0x1CFE SWAP2 SWAP1 DUP2 ADD SWAP1 PUSH3 0x3791 JUMP JUMPDEST DUP9 PUSH1 0x80 ADD MLOAD DUP10 PUSH1 0x60 ADD MLOAD ADD PUSH1 0x40 MLOAD DUP5 PUSH4 0xFFFFFFFF AND PUSH1 0xE0 SHL DUP2 MSTORE PUSH1 0x4 ADD PUSH3 0x1D29 SWAP4 SWAP3 SWAP2 SWAP1 PUSH3 0x42F3 JUMP JUMPDEST PUSH1 0x20 PUSH1 0x40 MLOAD DUP1 DUP4 SUB DUP2 PUSH1 0x0 DUP8 DUP1 EXTCODESIZE ISZERO DUP1 ISZERO PUSH3 0x1D44 JUMPI PUSH1 0x0 DUP1 REVERT JUMPDEST POP GAS CALL ISZERO DUP1 ISZERO PUSH3 0x1D59 JUMPI RETURNDATASIZE PUSH1 0x0 DUP1 RETURNDATACOPY RETURNDATASIZE PUSH1 0x0 REVERT JUMPDEST POP POP POP POP PUSH1 0x40 MLOAD RETURNDATASIZE PUSH1 0x1F NOT PUSH1 0x1F DUP3 ADD AND DUP3 ADD DUP1 PUSH1 0x40 MSTORE POP PUSH3 0x1D7F SWAP2 SWAP1 DUP2 ADD SWAP1 PUSH3 0x37B2 JUMP JUMPDEST POP TIMESTAMP PUSH1 0xA0 DUP7 ADD MSTORE CALLER PUSH1 0x40 DUP7 ADD MSTORE DUP5 MLOAD PUSH1 0x20 DUP7 ADD MLOAD PUSH1 0x60 SWAP2 PUSH3 0x1DA1 SWAP2 PUSH3 0x29CA JUMP JUMPDEST SWAP1 POP PUSH1 0x6 DUP2 PUSH1 0x40 MLOAD PUSH3 0x1DB5 SWAP2 SWAP1 PUSH3 0x42BC JUMP JUMPDEST SWAP1 DUP2 MSTORE PUSH1 0x40 MLOAD PUSH1 0x20 SWAP2 DUP2 SWAP1 SUB DUP3 ADD SWAP1 KECCAK256 DUP1 SLOAD PUSH1 0x1 DUP2 ADD DUP1 DUP4 SSTORE PUSH1 0x0 SWAP3 DUP4 MSTORE SWAP2 DUP4 SWAP1 KECCAK256 DUP10 MLOAD DUP1 MLOAD SWAP4 SWAP5 DUP12 SWAP5 PUSH1 0x6 SWAP1 SWAP5 MUL SWAP1 SWAP3 ADD SWAP3 PUSH3 0x1DF7 SWAP3 DUP5 SWAP3 ADD SWAP1 PUSH3 0x2B87 JUMP JUMPDEST POP PUSH1 0x20 DUP3 DUP2 ADD MLOAD DUP1 MLOAD PUSH3 0x1E12 SWAP3 PUSH1 0x1 DUP6 ADD SWAP3 ADD SWAP1 PUSH3 0x2B87 JUMP JUMPDEST POP PUSH1 0x40 DUP3 DUP2 ADD MLOAD PUSH1 0x2 DUP4 ADD DUP1 SLOAD PUSH1 0x1 PUSH1 0x1 PUSH1 0xA0 SHL SUB NOT AND PUSH1 0x1 PUSH1 0x1 PUSH1 0xA0 SHL SUB SWAP1 SWAP3 AND SWAP2 SWAP1 SWAP2 OR SWAP1 SSTORE PUSH1 0x60 DUP4 ADD MLOAD PUSH1 0x3 DUP4 ADD SSTORE PUSH1 0x80 DUP4 ADD MLOAD PUSH1 0x4 DUP4 ADD SSTORE PUSH1 0xA0 SWAP1 SWAP3 ADD MLOAD PUSH1 0x5 SWAP1 SWAP2 ADD SSTORE PUSH1 0x20 DUP8 ADD MLOAD SWAP1 MLOAD PUSH3 0x1E6D SWAP3 POP PUSH3 0x42BC JUMP JUMPDEST PUSH1 0x40 MLOAD DUP1 SWAP2 SUB SWAP1 KECCAK256 PUSH32 0x1FC2188CF86B2FDFF0C37C3A4CC9AC40D660CB3ED78875F759054AA66515180F DUP8 PUSH1 0x40 MLOAD PUSH3 0x1EA6 SWAP2 SWAP1 PUSH3 0x44CC JUMP JUMPDEST PUSH1 0x40 MLOAD DUP1 SWAP2 SUB SWAP1 LOG2 POP POP POP POP POP POP JUMP JUMPDEST PUSH1 0x1 PUSH1 0x1 PUSH1 0xA0 SHL SUB DUP2 AND PUSH3 0x1EDF JUMPI PUSH1 0x40 MLOAD PUSH3 0x461BCD PUSH1 0xE5 SHL DUP2 MSTORE PUSH1 0x4 ADD PUSH3 0x2E2 SWAP1 PUSH3 0x445A JUMP JUMPDEST PUSH1 0x2 DUP1 SLOAD PUSH1 0x1 PUSH1 0x1 PUSH1 0xA0 SHL SUB NOT AND PUSH1 0x1 PUSH1 0x1 PUSH1 0xA0 SHL SUB SWAP3 SWAP1 SWAP3 AND SWAP2 SWAP1 SWAP2 OR SWAP1 SSTORE JUMP JUMPDEST PUSH1 0x0 PUSH1 0x5 DUP4 DUP4 PUSH1 0x40 MLOAD PUSH3 0x1F17 SWAP3 SWAP2 SWAP1 PUSH3 0x42AD JUMP JUMPDEST SWAP1 DUP2 MSTORE PUSH1 0x20 ADD PUSH1 0x40 MLOAD DUP1 SWAP2 SUB SWAP1 KECCAK256 SLOAD SWAP1 POP SWAP3 SWAP2 POP POP JUMP JUMPDEST PUSH3 0x1F38 PUSH3 0x2A16 JUMP JUMPDEST PUSH3 0x1FAD DUP7 DUP7 DUP1 DUP1 PUSH1 0x1F ADD PUSH1 0x20 DUP1 SWAP2 DIV MUL PUSH1 0x20 ADD PUSH1 0x40 MLOAD SWAP1 DUP2 ADD PUSH1 0x40 MSTORE DUP1 SWAP4 SWAP3 SWAP2 SWAP1 DUP2 DUP2 MSTORE PUSH1 0x20 ADD DUP4 DUP4 DUP1 DUP3 DUP5 CALLDATACOPY PUSH1 0x0 SWAP3 ADD SWAP2 SWAP1 SWAP2 MSTORE POP POP PUSH1 0x40 DUP1 MLOAD PUSH1 0x20 PUSH1 0x1F DUP11 ADD DUP2 SWAP1 DIV DUP2 MUL DUP3 ADD DUP2 ADD SWAP1 SWAP3 MSTORE DUP9 DUP2 MSTORE SWAP3 POP DUP9 SWAP2 POP DUP8 SWAP1 DUP2 SWAP1 DUP5 ADD DUP4 DUP3 DUP1 DUP3 DUP5 CALLDATACOPY PUSH1 0x0 SWAP3 ADD SWAP2 SWAP1 SWAP2 MSTORE POP PUSH3 0x2364 SWAP3 POP POP POP JUMP JUMPDEST DUP1 MLOAD MLOAD SWAP1 SWAP2 POP PUSH3 0x1FD2 JUMPI PUSH1 0x40 MLOAD PUSH3 0x461BCD PUSH1 0xE5 SHL DUP2 MSTORE PUSH1 0x4 ADD PUSH3 0x2E2 SWAP1 PUSH3 0x4382 JUMP JUMPDEST DUP1 PUSH1 0x60 ADD MLOAD PUSH1 0x3 DUP2 GT ISZERO PUSH3 0x1FE3 JUMPI INVALID JUMPDEST DUP3 PUSH1 0x3 DUP2 GT ISZERO PUSH3 0x1FF0 JUMPI INVALID JUMPDEST EQ PUSH3 0x2311 JUMPI PUSH1 0x60 DUP2 ADD DUP1 MLOAD SWAP1 DUP4 PUSH1 0x3 DUP2 GT ISZERO PUSH3 0x200A JUMPI INVALID JUMPDEST SWAP1 DUP2 PUSH1 0x3 DUP2 GT ISZERO PUSH3 0x2018 JUMPI INVALID JUMPDEST SWAP1 MSTORE POP DUP2 MLOAD PUSH1 0x40 MLOAD PUSH1 0x0 SWAP2 PUSH1 0x3 SWAP2 PUSH3 0x2032 SWAP2 SWAP1 PUSH3 0x42BC JUMP JUMPDEST SWAP1 DUP2 MSTORE PUSH1 0x20 ADD PUSH1 0x40 MLOAD DUP1 SWAP2 SUB SWAP1 KECCAK256 SWAP1 POP DUP3 DUP2 DUP8 DUP8 PUSH1 0x40 MLOAD PUSH3 0x2056 SWAP3 SWAP2 SWAP1 PUSH3 0x42AD JUMP JUMPDEST SWAP1 DUP2 MSTORE PUSH1 0x20 ADD PUSH1 0x40 MLOAD DUP1 SWAP2 SUB SWAP1 KECCAK256 PUSH1 0x0 DUP3 ADD MLOAD DUP2 PUSH1 0x0 ADD SWAP1 DUP1 MLOAD SWAP1 PUSH1 0x20 ADD SWAP1 PUSH3 0x2082 SWAP3 SWAP2 SWAP1 PUSH3 0x2B87 JUMP JUMPDEST POP PUSH1 0x20 DUP3 DUP2 ADD MLOAD DUP1 MLOAD PUSH3 0x209D SWAP3 PUSH1 0x1 DUP6 ADD SWAP3 ADD SWAP1 PUSH3 0x2B87 JUMP JUMPDEST POP PUSH1 0x40 DUP3 ADD MLOAD DUP1 MLOAD PUSH3 0x20BB SWAP2 PUSH1 0x2 DUP5 ADD SWAP2 PUSH1 0x20 SWAP1 SWAP2 ADD SWAP1 PUSH3 0x2B87 JUMP JUMPDEST POP PUSH1 0x60 DUP3 ADD MLOAD DUP2 PUSH1 0x3 ADD PUSH1 0x0 PUSH2 0x100 EXP DUP2 SLOAD DUP2 PUSH1 0xFF MUL NOT AND SWAP1 DUP4 PUSH1 0x3 DUP2 GT ISZERO PUSH3 0x20E1 JUMPI INVALID JUMPDEST MUL OR SWAP1 SSTORE POP PUSH1 0x80 DUP3 ADD MLOAD PUSH1 0x3 DUP3 ADD DUP1 SLOAD PUSH2 0xFF00 NOT AND PUSH2 0x100 DUP4 PUSH1 0x6 DUP2 GT ISZERO PUSH3 0x2106 JUMPI INVALID JUMPDEST MUL OR SWAP1 SSTORE POP PUSH1 0xA0 DUP3 ADD MLOAD DUP1 MLOAD PUSH3 0x2128 SWAP2 PUSH1 0x4 DUP5 ADD SWAP2 PUSH1 0x20 SWAP1 SWAP2 ADD SWAP1 PUSH3 0x2B87 JUMP JUMPDEST POP PUSH1 0xC0 DUP3 ADD MLOAD DUP1 MLOAD PUSH3 0x2146 SWAP2 PUSH1 0x5 DUP5 ADD SWAP2 PUSH1 0x20 SWAP1 SWAP2 ADD SWAP1 PUSH3 0x2B87 JUMP JUMPDEST POP PUSH1 0xE0 DUP3 ADD MLOAD DUP1 MLOAD PUSH1 0x6 DUP4 ADD DUP1 SLOAD PUSH1 0x1 PUSH1 0x1 PUSH1 0xA0 SHL SUB NOT AND PUSH1 0x1 PUSH1 0x1 PUSH1 0xA0 SHL SUB SWAP1 SWAP3 AND SWAP2 SWAP1 SWAP2 OR DUP1 DUP3 SSTORE PUSH1 0x20 DUP4 ADD MLOAD SWAP1 DUP3 SWAP1 PUSH1 0xFF PUSH1 0xA0 SHL NOT AND PUSH1 0x1 PUSH1 0xA0 SHL DUP4 PUSH1 0x1 DUP2 GT ISZERO PUSH3 0x2191 JUMPI INVALID JUMPDEST MUL OR SWAP1 SSTORE POP PUSH1 0x40 DUP3 ADD MLOAD PUSH1 0x1 DUP3 ADD SSTORE PUSH1 0x60 DUP3 ADD MLOAD DUP1 MLOAD PUSH3 0x21BD SWAP2 PUSH1 0x2 DUP5 ADD SWAP2 PUSH1 0x20 SWAP1 SWAP2 ADD SWAP1 PUSH3 0x2B87 JUMP JUMPDEST POP PUSH1 0x80 DUP3 ADD MLOAD PUSH1 0x3 DUP3 DUP2 ADD SWAP2 SWAP1 SWAP2 SSTORE PUSH1 0xA0 DUP4 ADD MLOAD PUSH1 0x4 DUP4 ADD SSTORE PUSH1 0xC0 DUP4 ADD MLOAD PUSH1 0x5 DUP4 ADD DUP1 SLOAD PUSH1 0x1 PUSH1 0x1 PUSH1 0xA0 SHL SUB NOT SWAP1 DUP2 AND PUSH1 0x1 PUSH1 0x1 PUSH1 0xA0 SHL SUB SWAP4 DUP5 AND OR SWAP1 SWAP2 SSTORE PUSH1 0xE0 SWAP1 SWAP5 ADD MLOAD PUSH1 0x6 SWAP1 SWAP4 ADD DUP1 SLOAD SWAP1 SWAP5 AND SWAP3 AND SWAP2 SWAP1 SWAP2 OR SWAP1 SWAP2 SSTORE PUSH2 0x100 DUP4 ADD MLOAD DUP1 MLOAD PUSH1 0xD DUP5 ADD DUP1 SLOAD SWAP3 SWAP4 SWAP1 SWAP3 DUP4 SWAP2 PUSH1 0xFF NOT SWAP1 SWAP2 AND SWAP1 PUSH1 0x1 SWAP1 DUP5 SWAP1 DUP2 GT ISZERO PUSH3 0x223F JUMPI INVALID JUMPDEST MUL OR SWAP1 SSTORE POP POP POP PUSH2 0x120 DUP3 ADD MLOAD DUP1 MLOAD PUSH1 0xE DUP4 ADD SWAP1 DUP2 SSTORE PUSH1 0x20 DUP1 DUP4 ADD MLOAD DUP1 MLOAD PUSH3 0x226F SWAP3 PUSH1 0xF DUP8 ADD SWAP3 ADD SWAP1 PUSH3 0x2B87 JUMP JUMPDEST POP PUSH1 0x40 DUP3 DUP2 ADD MLOAD PUSH1 0x2 DUP4 ADD SSTORE PUSH1 0x60 SWAP1 SWAP3 ADD MLOAD PUSH1 0x3 SWAP1 SWAP2 ADD SSTORE PUSH2 0x140 DUP4 ADD MLOAD PUSH1 0x12 DUP4 ADD SSTORE PUSH2 0x160 SWAP1 SWAP3 ADD MLOAD PUSH1 0x13 SWAP1 SWAP2 ADD DUP1 SLOAD PUSH1 0x1 PUSH1 0x1 PUSH1 0xA0 SHL SUB NOT AND PUSH1 0x1 PUSH1 0x1 PUSH1 0xA0 SHL SUB SWAP1 SWAP3 AND SWAP2 SWAP1 SWAP2 OR SWAP1 SSTORE MLOAD PUSH3 0x22CB SWAP1 DUP10 SWAP1 DUP10 SWAP1 PUSH3 0x42AD JUMP JUMPDEST PUSH1 0x40 MLOAD DUP1 SWAP2 SUB SWAP1 KECCAK256 PUSH32 0x984B6675FFC22E1F752662B0CE0A6E95ADB7944D816AA2D09E6995C9B20A198A DUP4 DUP7 PUSH1 0x40 MLOAD PUSH3 0x2306 SWAP3 SWAP2 SWAP1 PUSH3 0x4350 JUMP JUMPDEST PUSH1 0x40 MLOAD DUP1 SWAP2 SUB SWAP1 LOG2 POP POP JUMPDEST POP POP POP POP POP POP JUMP JUMPDEST PUSH1 0x1 PUSH1 0x1 PUSH1 0xA0 SHL SUB DUP2 AND PUSH3 0x2342 JUMPI PUSH1 0x40 MLOAD PUSH3 0x461BCD PUSH1 0xE5 SHL DUP2 MSTORE PUSH1 0x4 ADD PUSH3 0x2E2 SWAP1 PUSH3 0x43DC JUMP JUMPDEST PUSH1 0x1 DUP1 SLOAD PUSH1 0x1 PUSH1 0x1 PUSH1 0xA0 SHL SUB NOT AND PUSH1 0x1 PUSH1 0x1 PUSH1 0xA0 SHL SUB SWAP3 SWAP1 SWAP3 AND SWAP2 SWAP1 SWAP2 OR SWAP1 SSTORE JUMP JUMPDEST PUSH3 0x236E PUSH3 0x2A16 JUMP JUMPDEST DUP3 MLOAD PUSH3 0x238F JUMPI PUSH1 0x40 MLOAD PUSH3 0x461BCD PUSH1 0xE5 SHL DUP2 MSTORE PUSH1 0x4 ADD PUSH3 0x2E2 SWAP1 PUSH3 0x43CA JUMP JUMPDEST DUP2 MLOAD PUSH3 0x23B0 JUMPI PUSH1 0x40 MLOAD PUSH3 0x461BCD PUSH1 0xE5 SHL DUP2 MSTORE PUSH1 0x4 ADD PUSH3 0x2E2 SWAP1 PUSH3 0x4436 JUMP JUMPDEST PUSH1 0x0 PUSH1 0x3 DUP5 PUSH1 0x40 MLOAD PUSH3 0x23C4 SWAP2 SWAP1 PUSH3 0x42BC JUMP JUMPDEST SWAP1 DUP2 MSTORE PUSH1 0x20 ADD PUSH1 0x40 MLOAD DUP1 SWAP2 SUB SWAP1 KECCAK256 SWAP1 POP PUSH3 0x23DE PUSH3 0x2A16 JUMP JUMPDEST DUP2 DUP5 PUSH1 0x40 MLOAD PUSH3 0x23EF SWAP2 SWAP1 PUSH3 0x42BC JUMP JUMPDEST SWAP1 DUP2 MSTORE PUSH1 0x40 DUP1 MLOAD PUSH1 0x20 SWAP3 DUP2 SWAP1 SUB DUP4 ADD DUP2 KECCAK256 DUP1 SLOAD PUSH1 0x2 PUSH1 0x1 DUP3 AND ISZERO PUSH2 0x100 MUL PUSH1 0x0 NOT ADD SWAP1 SWAP2 AND DIV PUSH1 0x1F DUP2 ADD DUP6 SWAP1 DIV SWAP1 SWAP5 MUL DUP3 ADD PUSH2 0x1A0 SWAP1 DUP2 ADD SWAP1 SWAP4 MSTORE PUSH2 0x180 DUP3 ADD DUP5 DUP2 MSTORE SWAP2 SWAP4 SWAP1 SWAP3 DUP5 SWAP3 SWAP2 DUP5 SWAP2 DUP5 ADD DUP3 DUP3 DUP1 ISZERO PUSH3 0x2490 JUMPI DUP1 PUSH1 0x1F LT PUSH3 0x2464 JUMPI PUSH2 0x100 DUP1 DUP4 SLOAD DIV MUL DUP4 MSTORE SWAP2 PUSH1 0x20 ADD SWAP2 PUSH3 0x2490 JUMP JUMPDEST DUP3 ADD SWAP2 SWAP1 PUSH1 0x0 MSTORE PUSH1 0x20 PUSH1 0x0 KECCAK256 SWAP1 JUMPDEST DUP2 SLOAD DUP2 MSTORE SWAP1 PUSH1 0x1 ADD SWAP1 PUSH1 0x20 ADD DUP1 DUP4 GT PUSH3 0x2472 JUMPI DUP3 SWAP1 SUB PUSH1 0x1F AND DUP3 ADD SWAP2 JUMPDEST POP POP POP POP POP DUP2 MSTORE PUSH1 0x20 ADD PUSH1 0x1 DUP3 ADD DUP1 SLOAD PUSH1 0x1 DUP2 PUSH1 0x1 AND ISZERO PUSH2 0x100 MUL SUB AND PUSH1 0x2 SWAP1 DIV DUP1 PUSH1 0x1F ADD PUSH1 0x20 DUP1 SWAP2 DIV MUL PUSH1 0x20 ADD PUSH1 0x40 MLOAD SWAP1 DUP2 ADD PUSH1 0x40 MSTORE DUP1 SWAP3 SWAP2 SWAP1 DUP2 DUP2 MSTORE PUSH1 0x20 ADD DUP3 DUP1 SLOAD PUSH1 0x1 DUP2 PUSH1 0x1 AND ISZERO PUSH2 0x100 MUL SUB AND PUSH1 0x2 SWAP1 DIV DUP1 ISZERO PUSH3 0x2536 JUMPI DUP1 PUSH1 0x1F LT PUSH3 0x250A JUMPI PUSH2 0x100 DUP1 DUP4 SLOAD DIV MUL DUP4 MSTORE SWAP2 PUSH1 0x20 ADD SWAP2 PUSH3 0x2536 JUMP JUMPDEST DUP3 ADD SWAP2 SWAP1 PUSH1 0x0 MSTORE PUSH1 0x20 PUSH1 0x0 KECCAK256 SWAP1 JUMPDEST DUP2 SLOAD DUP2 MSTORE SWAP1 PUSH1 0x1 ADD SWAP1 PUSH1 0x20 ADD DUP1 DUP4 GT PUSH3 0x2518 JUMPI DUP3 SWAP1 SUB PUSH1 0x1F AND DUP3 ADD SWAP2 JUMPDEST POP POP POP SWAP2 DUP4 MSTORE POP POP PUSH1 0x2 DUP3 DUP2 ADD DUP1 SLOAD PUSH1 0x40 DUP1 MLOAD PUSH1 0x20 PUSH1 0x1 DUP5 AND ISZERO PUSH2 0x100 MUL PUSH1 0x0 NOT ADD SWAP1 SWAP4 AND SWAP5 SWAP1 SWAP5 DIV PUSH1 0x1F DUP2 ADD DUP4 SWAP1 DIV DUP4 MUL DUP6 ADD DUP4 ADD SWAP1 SWAP2 MSTORE DUP1 DUP5 MSTORE SWAP4 DUP2 ADD SWAP4 SWAP1 DUP4 ADD DUP3 DUP3 DUP1 ISZERO PUSH3 0x25CC JUMPI DUP1 PUSH1 0x1F LT PUSH3 0x25A0 JUMPI PUSH2 0x100 DUP1 DUP4 SLOAD DIV MUL DUP4 MSTORE SWAP2 PUSH1 0x20 ADD SWAP2 PUSH3 0x25CC JUMP JUMPDEST DUP3 ADD SWAP2 SWAP1 PUSH1 0x0 MSTORE PUSH1 0x20 PUSH1 0x0 KECCAK256 SWAP1 JUMPDEST DUP2 SLOAD DUP2 MSTORE SWAP1 PUSH1 0x1 ADD SWAP1 PUSH1 0x20 ADD DUP1 DUP4 GT PUSH3 0x25AE JUMPI DUP3 SWAP1 SUB PUSH1 0x1F AND DUP3 ADD SWAP2 JUMPDEST POP POP POP SWAP2 DUP4 MSTORE POP POP PUSH1 0x3 DUP3 DUP2 ADD SLOAD PUSH1 0x20 SWAP1 SWAP3 ADD SWAP2 PUSH1 0xFF AND SWAP1 DUP2 GT ISZERO PUSH3 0x25EE JUMPI INVALID JUMPDEST PUSH1 0x3 DUP2 GT ISZERO PUSH3 0x25FA JUMPI INVALID JUMPDEST DUP2 MSTORE PUSH1 0x20 ADD PUSH1 0x3 DUP3 ADD PUSH1 0x1 SWAP1 SLOAD SWAP1 PUSH2 0x100 EXP SWAP1 DIV PUSH1 0xFF AND PUSH1 0x6 DUP2 GT ISZERO PUSH3 0x261D JUMPI INVALID JUMPDEST PUSH1 0x6 DUP2 GT ISZERO PUSH3 0x2629 JUMPI INVALID JUMPDEST DUP2 MSTORE PUSH1 0x4 DUP3 ADD DUP1 SLOAD PUSH1 0x40 DUP1 MLOAD PUSH1 0x20 PUSH1 0x2 PUSH1 0x1 DUP6 AND ISZERO PUSH2 0x100 MUL PUSH1 0x0 NOT ADD SWAP1 SWAP5 AND SWAP4 SWAP1 SWAP4 DIV PUSH1 0x1F DUP2 ADD DUP5 SWAP1 DIV DUP5 MUL DUP3 ADD DUP5 ADD SWAP1 SWAP3 MSTORE DUP2 DUP2 MSTORE SWAP4 DUP3 ADD SWAP4 SWAP3 SWAP2 DUP4 ADD DUP3 DUP3 DUP1 ISZERO PUSH3 0x26BB JUMPI DUP1 PUSH1 0x1F LT PUSH3 0x268F JUMPI PUSH2 0x100 DUP1 DUP4 SLOAD DIV MUL DUP4 MSTORE SWAP2 PUSH1 0x20 ADD SWAP2 PUSH3 0x26BB JUMP JUMPDEST DUP3 ADD SWAP2 SWAP1 PUSH1 0x0 MSTORE PUSH1 0x20 PUSH1 0x0 KECCAK256 SWAP1 JUMPDEST DUP2 SLOAD DUP2 MSTORE SWAP1 PUSH1 0x1 ADD SWAP1 PUSH1 0x20 ADD DUP1 DUP4 GT PUSH3 0x269D JUMPI DUP3 SWAP1 SUB PUSH1 0x1F AND DUP3 ADD SWAP2 JUMPDEST POP POP POP SWAP2 DUP4 MSTORE POP POP PUSH1 0x5 DUP3 ADD DUP1 SLOAD PUSH1 0x40 DUP1 MLOAD PUSH1 0x20 PUSH1 0x2 PUSH1 0x1 DUP6 AND ISZERO PUSH2 0x100 MUL PUSH1 0x0 NOT ADD SWAP1 SWAP5 AND SWAP4 SWAP1 SWAP4 DIV PUSH1 0x1F DUP2 ADD DUP5 SWAP1 DIV DUP5 MUL DUP3 ADD DUP5 ADD SWAP1 SWAP3 MSTORE DUP2 DUP2 MSTORE SWAP4 DUP3 ADD SWAP4 SWAP3 SWAP2 DUP4 ADD DUP3 DUP3 DUP1 ISZERO PUSH3 0x2753 JUMPI DUP1 PUSH1 0x1F LT PUSH3 0x2727 JUMPI PUSH2 0x100 DUP1 DUP4 SLOAD DIV MUL DUP4 MSTORE SWAP2 PUSH1 0x20 ADD SWAP2 PUSH3 0x2753 JUMP JUMPDEST DUP3 ADD SWAP2 SWAP1 PUSH1 0x0 MSTORE PUSH1 0x20 PUSH1 0x0 KECCAK256 SWAP1 JUMPDEST DUP2 SLOAD DUP2 MSTORE SWAP1 PUSH1 0x1 ADD SWAP1 PUSH1 0x20 ADD DUP1 DUP4 GT PUSH3 0x2735 JUMPI DUP3 SWAP1 SUB PUSH1 0x1F AND DUP3 ADD SWAP2 JUMPDEST POP POP POP SWAP2 DUP4 MSTORE POP POP PUSH1 0x40 DUP1 MLOAD PUSH2 0x100 DUP2 ADD SWAP1 SWAP2 MSTORE PUSH1 0x6 DUP4 ADD DUP1 SLOAD PUSH1 0x1 PUSH1 0x1 PUSH1 0xA0 SHL SUB DUP2 AND DUP4 MSTORE PUSH1 0x20 SWAP4 DUP5 ADD SWAP4 DUP4 ADD SWAP1 PUSH1 0x1 PUSH1 0xA0 SHL SWAP1 DIV PUSH1 0xFF AND PUSH1 0x1 DUP2 GT ISZERO PUSH3 0x2798 JUMPI INVALID JUMPDEST PUSH1 0x1 DUP2 GT ISZERO PUSH3 0x27A4 JUMPI INVALID JUMPDEST DUP2 MSTORE PUSH1 0x20 ADD PUSH1 0x1 DUP3 ADD SLOAD DUP2 MSTORE PUSH1 0x20 ADD PUSH1 0x2 DUP3 ADD DUP1 SLOAD PUSH1 0x1 DUP2 PUSH1 0x1 AND ISZERO PUSH2 0x100 MUL SUB AND PUSH1 0x2 SWAP1 DIV DUP1 PUSH1 0x1F ADD PUSH1 0x20 DUP1 SWAP2 DIV MUL PUSH1 0x20 ADD PUSH1 0x40 MLOAD SWAP1 DUP2 ADD PUSH1 0x40 MSTORE DUP1 SWAP3 SWAP2 SWAP1 DUP2 DUP2 MSTORE PUSH1 0x20 ADD DUP3 DUP1 SLOAD PUSH1 0x1 DUP2 PUSH1 0x1 AND ISZERO PUSH2 0x100 MUL SUB AND PUSH1 0x2 SWAP1 DIV DUP1 ISZERO PUSH3 0x284F JUMPI DUP1 PUSH1 0x1F LT PUSH3 0x2823 JUMPI PUSH2 0x100 DUP1 DUP4 SLOAD DIV MUL DUP4 MSTORE SWAP2 PUSH1 0x20 ADD SWAP2 PUSH3 0x284F JUMP JUMPDEST DUP3 ADD SWAP2 SWAP1 PUSH1 0x0 MSTORE PUSH1 0x20 PUSH1 0x0 KECCAK256 SWAP1 JUMPDEST DUP2 SLOAD DUP2 MSTORE SWAP1 PUSH1 0x1 ADD SWAP1 PUSH1 0x20 ADD DUP1 DUP4 GT PUSH3 0x2831 JUMPI DUP3 SWAP1 SUB PUSH1 0x1F AND DUP3 ADD SWAP2 JUMPDEST POP POP POP SWAP2 DUP4 MSTORE POP POP PUSH1 0x3 DUP3 DUP2 ADD SLOAD PUSH1 0x20 DUP1 DUP5 ADD SWAP2 SWAP1 SWAP2 MSTORE PUSH1 0x4 DUP5 ADD SLOAD PUSH1 0x40 DUP1 DUP6 ADD SWAP2 SWAP1 SWAP2 MSTORE PUSH1 0x5 DUP6 ADD SLOAD PUSH1 0x1 PUSH1 0x1 PUSH1 0xA0 SHL SUB SWAP1 DUP2 AND PUSH1 0x60 DUP7 ADD MSTORE PUSH1 0x6 SWAP1 SWAP6 ADD SLOAD SWAP1 SWAP5 AND PUSH1 0x80 SWAP1 SWAP4 ADD SWAP3 SWAP1 SWAP3 MSTORE SWAP3 DUP5 MSTORE DUP2 MLOAD DUP1 DUP3 ADD SWAP1 SWAP3 MSTORE PUSH1 0xD DUP6 ADD DUP1 SLOAD SWAP5 SWAP1 SWAP2 ADD SWAP4 SWAP2 SWAP3 SWAP1 SWAP2 DUP4 SWAP2 PUSH1 0xFF SWAP1 SWAP2 AND SWAP1 DUP2 GT ISZERO PUSH3 0x28C7 JUMPI INVALID JUMPDEST PUSH1 0x3 DUP2 GT ISZERO PUSH3 0x28D3 JUMPI INVALID JUMPDEST SWAP1 MSTORE POP DUP2 MSTORE PUSH1 0x40 DUP1 MLOAD PUSH1 0x80 DUP2 ADD DUP3 MSTORE PUSH1 0xE DUP5 ADD DUP1 SLOAD DUP3 MSTORE PUSH1 0xF DUP6 ADD DUP1 SLOAD DUP5 MLOAD PUSH1 0x20 PUSH1 0x2 PUSH1 0x1 DUP5 AND ISZERO PUSH2 0x100 MUL PUSH1 0x0 NOT ADD SWAP1 SWAP4 AND SWAP3 SWAP1 SWAP3 DIV PUSH1 0x1F DUP2 ADD DUP4 SWAP1 DIV DUP4 MUL DUP3 ADD DUP4 ADD SWAP1 SWAP7 MSTORE DUP6 DUP2 MSTORE SWAP6 DUP2 ADD SWAP6 SWAP4 SWAP5 SWAP3 SWAP4 DUP2 DUP7 ADD SWAP4 SWAP1 SWAP3 SWAP2 DUP4 ADD DUP3 DUP3 DUP1 ISZERO PUSH3 0x2981 JUMPI DUP1 PUSH1 0x1F LT PUSH3 0x2955 JUMPI PUSH2 0x100 DUP1 DUP4 SLOAD DIV MUL DUP4 MSTORE SWAP2 PUSH1 0x20 ADD SWAP2 PUSH3 0x2981 JUMP JUMPDEST DUP3 ADD SWAP2 SWAP1 PUSH1 0x0 MSTORE PUSH1 0x20 PUSH1 0x0 KECCAK256 SWAP1 JUMPDEST DUP2 SLOAD DUP2 MSTORE SWAP1 PUSH1 0x1 ADD SWAP1 PUSH1 0x20 ADD DUP1 DUP4 GT PUSH3 0x2963 JUMPI DUP3 SWAP1 SUB PUSH1 0x1F AND DUP3 ADD SWAP2 JUMPDEST POP POP POP SWAP2 DUP4 MSTORE POP POP PUSH1 0x2 DUP3 ADD SLOAD PUSH1 0x20 DUP1 DUP4 ADD SWAP2 SWAP1 SWAP2 MSTORE PUSH1 0x3 SWAP1 SWAP3 ADD SLOAD PUSH1 0x40 SWAP2 DUP3 ADD MSTORE SWAP2 DUP4 MSTORE PUSH1 0x12 DUP5 ADD SLOAD SWAP1 DUP4 ADD MSTORE PUSH1 0x13 SWAP1 SWAP3 ADD SLOAD PUSH1 0x1 PUSH1 0x1 PUSH1 0xA0 SHL SUB AND SWAP2 ADD MSTORE SWAP6 SWAP5 POP POP POP POP POP JUMP JUMPDEST PUSH1 0x60 DUP3 DUP3 PUSH1 0x40 MLOAD PUSH1 0x20 ADD PUSH3 0x29E1 SWAP3 SWAP2 SWAP1 PUSH3 0x42CA JUMP JUMPDEST PUSH1 0x40 MLOAD PUSH1 0x20 DUP2 DUP4 SUB SUB DUP2 MSTORE SWAP1 PUSH1 0x40 MSTORE SWAP1 POP SWAP3 SWAP2 POP POP JUMP JUMPDEST PUSH1 0x60 PUSH3 0x2A0E DUP3 PUSH1 0x0 ADD MLOAD DUP4 PUSH1 0x20 ADD MLOAD PUSH3 0x29CA JUMP JUMPDEST SWAP1 POP JUMPDEST SWAP2 SWAP1 POP JUMP JUMPDEST PUSH1 0x40 MLOAD DUP1 PUSH2 0x180 ADD PUSH1 0x40 MSTORE DUP1 PUSH1 0x60 DUP2 MSTORE PUSH1 0x20 ADD PUSH1 0x60 DUP2 MSTORE PUSH1 0x20 ADD PUSH1 0x60 DUP2 MSTORE PUSH1 0x20 ADD PUSH1 0x0 PUSH1 0x3 DUP2 GT ISZERO PUSH3 0x2A45 JUMPI INVALID JUMPDEST DUP2 MSTORE PUSH1 0x20 ADD PUSH1 0x0 DUP2 MSTORE PUSH1 0x20 ADD PUSH1 0x60 DUP2 MSTORE PUSH1 0x20 ADD PUSH1 0x60 DUP2 MSTORE PUSH1 0x20 ADD PUSH3 0x2A69 PUSH3 0x2C34 JUMP JUMPDEST DUP2 MSTORE PUSH1 0x20 ADD PUSH3 0x2A78 PUSH3 0x2C8C JUMP JUMPDEST DUP2 MSTORE PUSH1 0x20 ADD PUSH3 0x2A87 PUSH3 0x2C0C JUMP JUMPDEST DUP2 MSTORE PUSH1 0x0 PUSH1 0x20 DUP3 ADD DUP2 SWAP1 MSTORE PUSH1 0x40 SWAP1 SWAP2 ADD MSTORE SWAP1 JUMP JUMPDEST PUSH1 0x40 MLOAD DUP1 PUSH1 0xC0 ADD PUSH1 0x40 MSTORE DUP1 PUSH1 0x60 DUP2 MSTORE PUSH1 0x20 ADD PUSH1 0x60 DUP2 MSTORE PUSH1 0x20 ADD PUSH1 0x0 PUSH1 0x1 PUSH1 0x1 PUSH1 0xA0 SHL SUB AND DUP2 MSTORE PUSH1 0x20 ADD PUSH1 0x0 DUP2 MSTORE PUSH1 0x20 ADD PUSH1 0x0 DUP2 MSTORE PUSH1 0x20 ADD PUSH1 0x0 DUP2 MSTORE POP SWAP1 JUMP JUMPDEST PUSH1 0x40 MLOAD DUP1 PUSH1 0x80 ADD PUSH1 0x40 MSTORE DUP1 PUSH1 0x60 DUP2 MSTORE PUSH1 0x20 ADD PUSH3 0x2AF6 PUSH3 0x2CA0 JUMP JUMPDEST DUP2 MSTORE PUSH1 0x20 ADD PUSH3 0x2B05 PUSH3 0x2B19 JUMP JUMPDEST DUP2 MSTORE PUSH1 0x20 ADD PUSH3 0x2B14 PUSH3 0x2B3B JUMP JUMPDEST SWAP1 MSTORE SWAP1 JUMP JUMPDEST PUSH1 0x40 DUP1 MLOAD PUSH1 0x60 DUP2 ADD SWAP1 SWAP2 MSTORE DUP1 PUSH1 0x0 DUP2 MSTORE PUSH1 0x20 ADD PUSH1 0x0 DUP2 MSTORE PUSH1 0x20 ADD PUSH1 0x60 DUP2 MSTORE POP SWAP1 JUMP JUMPDEST PUSH1 0x40 DUP1 MLOAD PUSH1 0xE0 DUP2 ADD SWAP1 SWAP2 MSTORE DUP1 PUSH1 0x0 DUP2 MSTORE PUSH1 0x20 ADD PUSH1 0x60 DUP2 MSTORE PUSH1 0x20 ADD PUSH1 0x60 DUP2 MSTORE PUSH1 0x20 ADD PUSH1 0x0 DUP2 MSTORE PUSH1 0x20 ADD PUSH1 0x60 DUP2 MSTORE PUSH1 0x20 ADD PUSH1 0x60 DUP2 MSTORE PUSH1 0x20 ADD PUSH1 0x60 DUP2 MSTORE POP SWAP1 JUMP JUMPDEST PUSH2 0x6CE DUP1 PUSH3 0x46C1 DUP4 CODECOPY ADD SWAP1 JUMP JUMPDEST DUP3 DUP1 SLOAD PUSH1 0x1 DUP2 PUSH1 0x1 AND ISZERO PUSH2 0x100 MUL SUB AND PUSH1 0x2 SWAP1 DIV SWAP1 PUSH1 0x0 MSTORE PUSH1 0x20 PUSH1 0x0 KECCAK256 SWAP1 PUSH1 0x1F ADD PUSH1 0x20 SWAP1 DIV DUP2 ADD SWAP3 DUP3 PUSH1 0x1F LT PUSH3 0x2BCA JUMPI DUP1 MLOAD PUSH1 0xFF NOT AND DUP4 DUP1 ADD OR DUP6 SSTORE PUSH3 0x2BFA JUMP JUMPDEST DUP3 DUP1 ADD PUSH1 0x1 ADD DUP6 SSTORE DUP3 ISZERO PUSH3 0x2BFA JUMPI SWAP2 DUP3 ADD JUMPDEST DUP3 DUP2 GT ISZERO PUSH3 0x2BFA JUMPI DUP3 MLOAD DUP3 SSTORE SWAP2 PUSH1 0x20 ADD SWAP2 SWAP1 PUSH1 0x1 ADD SWAP1 PUSH3 0x2BDD JUMP JUMPDEST POP PUSH3 0x2C08 SWAP3 SWAP2 POP PUSH3 0x2CC8 JUMP JUMPDEST POP SWAP1 JUMP JUMPDEST PUSH1 0x40 MLOAD DUP1 PUSH1 0x80 ADD PUSH1 0x40 MSTORE DUP1 PUSH1 0x0 DUP2 MSTORE PUSH1 0x20 ADD PUSH1 0x60 DUP2 MSTORE PUSH1 0x20 ADD PUSH1 0x0 DUP2 MSTORE PUSH1 0x20 ADD PUSH1 0x0 DUP2 MSTORE POP SWAP1 JUMP JUMPDEST PUSH1 0x40 DUP1 MLOAD PUSH2 0x100 DUP2 ADD SWAP1 SWAP2 MSTORE PUSH1 0x0 DUP1 DUP3 MSTORE PUSH1 0x20 DUP3 ADD SWAP1 DUP2 MSTORE PUSH1 0x20 ADD PUSH1 0x0 DUP2 MSTORE PUSH1 0x20 ADD PUSH1 0x60 DUP2 MSTORE PUSH1 0x20 ADD PUSH1 0x0 DUP2 MSTORE PUSH1 0x20 ADD PUSH1 0x0 DUP2 MSTORE PUSH1 0x20 ADD PUSH1 0x0 PUSH1 0x1 PUSH1 0x1 PUSH1 0xA0 SHL SUB AND DUP2 MSTORE PUSH1 0x20 ADD PUSH1 0x0 PUSH1 0x1 PUSH1 0x1 PUSH1 0xA0 SHL SUB AND DUP2 MSTORE POP SWAP1 JUMP JUMPDEST PUSH1 0x40 DUP1 MLOAD PUSH1 0x20 DUP2 ADD SWAP1 SWAP2 MSTORE DUP1 PUSH1 0x0 PUSH3 0x2B14 JUMP JUMPDEST PUSH1 0x40 MLOAD DUP1 PUSH1 0x80 ADD PUSH1 0x40 MSTORE DUP1 PUSH1 0x60 DUP2 MSTORE PUSH1 0x20 ADD PUSH1 0x60 DUP2 MSTORE PUSH1 0x20 ADD PUSH1 0x60 DUP2 MSTORE PUSH1 0x20 ADD PUSH1 0x60 DUP2 MSTORE POP SWAP1 JUMP JUMPDEST PUSH3 0x2CE5 SWAP2 SWAP1 JUMPDEST DUP1 DUP3 GT ISZERO PUSH3 0x2C08 JUMPI PUSH1 0x0 DUP2 SSTORE PUSH1 0x1 ADD PUSH3 0x2CCF JUMP JUMPDEST SWAP1 JUMP JUMPDEST DUP1 CALLDATALOAD PUSH3 0x1470 DUP2 PUSH3 0x465E JUMP JUMPDEST DUP1 MLOAD PUSH3 0x1470 DUP2 PUSH3 0x465E JUMP JUMPDEST PUSH1 0x0 DUP3 PUSH1 0x1F DUP4 ADD SLT PUSH3 0x2D14 JUMPI PUSH1 0x0 DUP1 REVERT JUMPDEST DUP2 MLOAD PUSH3 0x2D2B PUSH3 0x2D25 DUP3 PUSH3 0x4516 JUMP JUMPDEST PUSH3 0x44EF JUMP JUMPDEST SWAP2 POP DUP2 DUP2 DUP4 MSTORE PUSH1 0x20 DUP5 ADD SWAP4 POP PUSH1 0x20 DUP2 ADD SWAP1 POP DUP4 DUP6 PUSH1 0x20 DUP5 MUL DUP3 ADD GT ISZERO PUSH3 0x2D51 JUMPI PUSH1 0x0 DUP1 REVERT JUMPDEST PUSH1 0x0 JUMPDEST DUP4 DUP2 LT ISZERO PUSH3 0x2D81 JUMPI DUP2 PUSH3 0x2D6A DUP9 DUP3 PUSH3 0x2CF5 JUMP JUMPDEST DUP5 MSTORE POP PUSH1 0x20 SWAP3 DUP4 ADD SWAP3 SWAP2 SWAP1 SWAP2 ADD SWAP1 PUSH1 0x1 ADD PUSH3 0x2D54 JUMP JUMPDEST POP POP POP POP SWAP3 SWAP2 POP POP JUMP JUMPDEST PUSH1 0x0 DUP3 PUSH1 0x1F DUP4 ADD SLT PUSH3 0x2D9D JUMPI PUSH1 0x0 DUP1 REVERT JUMPDEST DUP2 CALLDATALOAD PUSH3 0x2DAE PUSH3 0x2D25 DUP3 PUSH3 0x4516 JUMP JUMPDEST DUP2 DUP2 MSTORE PUSH1 0x20 SWAP4 DUP5 ADD SWAP4 SWAP1 SWAP3 POP DUP3 ADD DUP4 PUSH1 0x0 JUMPDEST DUP4 DUP2 LT ISZERO PUSH3 0x2D81 JUMPI DUP2 CALLDATALOAD DUP7 ADD PUSH3 0x2DD9 DUP9 DUP3 PUSH3 0x2F39 JUMP JUMPDEST DUP5 MSTORE POP PUSH1 0x20 SWAP3 DUP4 ADD SWAP3 SWAP2 SWAP1 SWAP2 ADD SWAP1 PUSH1 0x1 ADD PUSH3 0x2DC0 JUMP JUMPDEST DUP1 MLOAD PUSH3 0x1470 DUP2 PUSH3 0x4675 JUMP JUMPDEST DUP1 CALLDATALOAD PUSH3 0x1470 DUP2 PUSH3 0x4680 JUMP JUMPDEST DUP1 MLOAD PUSH3 0x1470 DUP2 PUSH3 0x4680 JUMP JUMPDEST DUP1 CALLDATALOAD PUSH3 0x1470 DUP2 PUSH3 0x468B JUMP JUMPDEST DUP1 CALLDATALOAD PUSH3 0x1470 DUP2 PUSH3 0x4699 JUMP JUMPDEST DUP1 CALLDATALOAD PUSH3 0x1470 DUP2 PUSH3 0x46A7 JUMP JUMPDEST DUP1 MLOAD PUSH3 0x1470 DUP2 PUSH3 0x46A7 JUMP JUMPDEST PUSH1 0x0 DUP1 DUP4 PUSH1 0x1F DUP5 ADD SLT PUSH3 0x2E5E JUMPI PUSH1 0x0 DUP1 REVERT JUMPDEST POP DUP2 CALLDATALOAD PUSH1 0x1 PUSH1 0x1 PUSH1 0x40 SHL SUB DUP2 GT ISZERO PUSH3 0x2E76 JUMPI PUSH1 0x0 DUP1 REVERT JUMPDEST PUSH1 0x20 DUP4 ADD SWAP2 POP DUP4 PUSH1 0x1 DUP3 MUL DUP4 ADD GT ISZERO PUSH3 0x2E8F JUMPI PUSH1 0x0 DUP1 REVERT JUMPDEST SWAP3 POP SWAP3 SWAP1 POP JUMP JUMPDEST PUSH1 0x0 DUP3 PUSH1 0x1F DUP4 ADD SLT PUSH3 0x2EA8 JUMPI PUSH1 0x0 DUP1 REVERT JUMPDEST DUP2 CALLDATALOAD PUSH3 0x2EB9 PUSH3 0x2D25 DUP3 PUSH3 0x4537 JUMP JUMPDEST SWAP2 POP DUP1 DUP3 MSTORE PUSH1 0x20 DUP4 ADD PUSH1 0x20 DUP4 ADD DUP6 DUP4 DUP4 ADD GT ISZERO PUSH3 0x2ED6 JUMPI PUSH1 0x0 DUP1 REVERT JUMPDEST PUSH3 0x2EE3 DUP4 DUP3 DUP5 PUSH3 0x45F5 JUMP JUMPDEST POP POP POP SWAP3 SWAP2 POP POP JUMP JUMPDEST PUSH1 0x0 DUP3 PUSH1 0x1F DUP4 ADD SLT PUSH3 0x2EFE JUMPI PUSH1 0x0 DUP1 REVERT JUMPDEST DUP2 MLOAD PUSH3 0x2F0F PUSH3 0x2D25 DUP3 PUSH3 0x4537 JUMP JUMPDEST SWAP2 POP DUP1 DUP3 MSTORE PUSH1 0x20 DUP4 ADD PUSH1 0x20 DUP4 ADD DUP6 DUP4 DUP4 ADD GT ISZERO PUSH3 0x2F2C JUMPI PUSH1 0x0 DUP1 REVERT JUMPDEST PUSH3 0x2EE3 DUP4 DUP3 DUP5 PUSH3 0x4601 JUMP JUMPDEST PUSH1 0x0 PUSH1 0x60 DUP3 DUP5 SUB SLT ISZERO PUSH3 0x2F4C JUMPI PUSH1 0x0 DUP1 REVERT JUMPDEST PUSH3 0x2F58 PUSH1 0x60 PUSH3 0x44EF JUMP JUMPDEST SWAP1 POP PUSH1 0x0 PUSH3 0x2F68 DUP5 DUP5 PUSH3 0x3756 JUMP JUMPDEST DUP3 MSTORE POP PUSH1 0x20 PUSH3 0x2F7B DUP5 DUP5 DUP4 ADD PUSH3 0x3756 JUMP JUMPDEST PUSH1 0x20 DUP4 ADD MSTORE POP PUSH1 0x40 DUP3 ADD CALLDATALOAD PUSH1 0x1 PUSH1 0x1 PUSH1 0x40 SHL SUB DUP2 GT ISZERO PUSH3 0x2F9B JUMPI PUSH1 0x0 DUP1 REVERT JUMPDEST PUSH3 0x2FA9 DUP5 DUP3 DUP6 ADD PUSH3 0x2E96 JUMP JUMPDEST PUSH1 0x40 DUP4 ADD MSTORE POP SWAP3 SWAP2 POP POP JUMP JUMPDEST PUSH1 0x0 PUSH2 0x100 DUP3 DUP5 SUB SLT ISZERO PUSH3 0x2FC9 JUMPI PUSH1 0x0 DUP1 REVERT JUMPDEST PUSH3 0x2FD6 PUSH2 0x100 PUSH3 0x44EF JUMP JUMPDEST SWAP1 POP PUSH1 0x0 PUSH3 0x2FE6 DUP5 DUP5 PUSH3 0x2CE8 JUMP JUMPDEST DUP3 MSTORE POP PUSH1 0x20 PUSH3 0x2FF9 DUP5 DUP5 DUP4 ADD PUSH3 0x2E17 JUMP JUMPDEST PUSH1 0x20 DUP4 ADD MSTORE POP PUSH1 0x40 PUSH3 0x300F DUP5 DUP3 DUP6 ADD PUSH3 0x3756 JUMP JUMPDEST PUSH1 0x40 DUP4 ADD MSTORE POP PUSH1 0x60 DUP3 ADD CALLDATALOAD PUSH1 0x1 PUSH1 0x1 PUSH1 0x40 SHL SUB DUP2 GT ISZERO PUSH3 0x302F JUMPI PUSH1 0x0 DUP1 REVERT JUMPDEST PUSH3 0x303D DUP5 DUP3 DUP6 ADD PUSH3 0x2E96 JUMP JUMPDEST PUSH1 0x60 DUP4 ADD MSTORE POP PUSH1 0x80 PUSH3 0x3053 DUP5 DUP3 DUP6 ADD PUSH3 0x3756 JUMP JUMPDEST PUSH1 0x80 DUP4 ADD MSTORE POP PUSH1 0xA0 PUSH3 0x3069 DUP5 DUP3 DUP6 ADD PUSH3 0x3756 JUMP JUMPDEST PUSH1 0xA0 DUP4 ADD MSTORE POP PUSH1 0xC0 PUSH3 0x307F DUP5 DUP3 DUP6 ADD PUSH3 0x2DFD JUMP JUMPDEST PUSH1 0xC0 DUP4 ADD MSTORE POP PUSH1 0xE0 PUSH3 0x3095 DUP5 DUP3 DUP6 ADD PUSH3 0x2DFD JUMP JUMPDEST PUSH1 0xE0 DUP4 ADD MSTORE POP SWAP3 SWAP2 POP POP JUMP JUMPDEST PUSH1 0x0 PUSH2 0x180 DUP3 DUP5 SUB SLT ISZERO PUSH3 0x30B5 JUMPI PUSH1 0x0 DUP1 REVERT JUMPDEST PUSH3 0x30C2 PUSH2 0x180 PUSH3 0x44EF JUMP JUMPDEST SWAP1 POP DUP2 CALLDATALOAD PUSH1 0x1 PUSH1 0x1 PUSH1 0x40 SHL SUB DUP2 GT ISZERO PUSH3 0x30DB JUMPI PUSH1 0x0 DUP1 REVERT JUMPDEST PUSH3 0x30E9 DUP5 DUP3 DUP6 ADD PUSH3 0x2E96 JUMP JUMPDEST DUP3 MSTORE POP PUSH1 0x20 DUP3 ADD CALLDATALOAD PUSH1 0x1 PUSH1 0x1 PUSH1 0x40 SHL SUB DUP2 GT ISZERO PUSH3 0x3106 JUMPI PUSH1 0x0 DUP1 REVERT JUMPDEST PUSH3 0x3114 DUP5 DUP3 DUP6 ADD PUSH3 0x2E96 JUMP JUMPDEST PUSH1 0x20 DUP4 ADD MSTORE POP PUSH1 0x40 DUP3 ADD CALLDATALOAD PUSH1 0x1 PUSH1 0x1 PUSH1 0x40 SHL SUB DUP2 GT ISZERO PUSH3 0x3134 JUMPI PUSH1 0x0 DUP1 REVERT JUMPDEST PUSH3 0x3142 DUP5 DUP3 DUP6 ADD PUSH3 0x2E96 JUMP JUMPDEST PUSH1 0x40 DUP4 ADD MSTORE POP PUSH1 0x60 PUSH3 0x3158 DUP5 DUP3 DUP6 ADD PUSH3 0x2E31 JUMP JUMPDEST PUSH1 0x60 DUP4 ADD MSTORE POP PUSH1 0x80 PUSH3 0x316E DUP5 DUP3 DUP6 ADD PUSH3 0x2E24 JUMP JUMPDEST PUSH1 0x80 DUP4 ADD MSTORE POP PUSH1 0xA0 DUP3 ADD CALLDATALOAD PUSH1 0x1 PUSH1 0x1 PUSH1 0x40 SHL SUB DUP2 GT ISZERO PUSH3 0x318E JUMPI PUSH1 0x0 DUP1 REVERT JUMPDEST PUSH3 0x319C DUP5 DUP3 DUP6 ADD PUSH3 0x2E96 JUMP JUMPDEST PUSH1 0xA0 DUP4 ADD MSTORE POP PUSH1 0xC0 DUP3 ADD CALLDATALOAD PUSH1 0x1 PUSH1 0x1 PUSH1 0x40 SHL SUB DUP2 GT ISZERO PUSH3 0x31BC JUMPI PUSH1 0x0 DUP1 REVERT JUMPDEST PUSH3 0x31CA DUP5 DUP3 DUP6 ADD PUSH3 0x2E96 JUMP JUMPDEST PUSH1 0xC0 DUP4 ADD MSTORE POP PUSH1 0xE0 DUP3 ADD CALLDATALOAD PUSH1 0x1 PUSH1 0x1 PUSH1 0x40 SHL SUB DUP2 GT ISZERO PUSH3 0x31EA JUMPI PUSH1 0x0 DUP1 REVERT JUMPDEST PUSH3 0x31F8 DUP5 DUP3 DUP6 ADD PUSH3 0x2FB5 JUMP JUMPDEST PUSH1 0xE0 DUP4 ADD MSTORE POP PUSH2 0x100 PUSH3 0x320F DUP5 DUP3 DUP6 ADD PUSH3 0x32EC JUMP JUMPDEST PUSH2 0x100 DUP4 ADD MSTORE POP PUSH2 0x120 DUP3 ADD CALLDATALOAD PUSH1 0x1 PUSH1 0x1 PUSH1 0x40 SHL SUB DUP2 GT ISZERO PUSH3 0x3231 JUMPI PUSH1 0x0 DUP1 REVERT JUMPDEST PUSH3 0x323F DUP5 DUP3 DUP6 ADD PUSH3 0x36D5 JUMP JUMPDEST PUSH2 0x120 DUP4 ADD MSTORE POP PUSH2 0x140 PUSH3 0x3257 DUP5 DUP3 DUP6 ADD PUSH3 0x3756 JUMP JUMPDEST PUSH2 0x140 DUP4 ADD MSTORE POP PUSH2 0x160 PUSH3 0x326F DUP5 DUP3 DUP6 ADD PUSH3 0x2CE8 JUMP JUMPDEST PUSH2 0x160 DUP4 ADD MSTORE POP SWAP3 SWAP2 POP POP JUMP JUMPDEST PUSH1 0x0 PUSH1 0x60 DUP3 DUP5 SUB SLT ISZERO PUSH3 0x328F JUMPI PUSH1 0x0 DUP1 REVERT JUMPDEST PUSH3 0x329B PUSH1 0x60 PUSH3 0x44EF JUMP JUMPDEST SWAP1 POP PUSH1 0x0 PUSH3 0x32AB DUP5 DUP5 PUSH3 0x2E3E JUMP JUMPDEST DUP3 MSTORE POP PUSH1 0x20 PUSH3 0x32BE DUP5 DUP5 DUP4 ADD PUSH3 0x3763 JUMP JUMPDEST PUSH1 0x20 DUP4 ADD MSTORE POP PUSH1 0x40 DUP3 ADD MLOAD PUSH1 0x1 PUSH1 0x1 PUSH1 0x40 SHL SUB DUP2 GT ISZERO PUSH3 0x32DE JUMPI PUSH1 0x0 DUP1 REVERT JUMPDEST PUSH3 0x2FA9 DUP5 DUP3 DUP6 ADD PUSH3 0x2D02 JUMP JUMPDEST PUSH1 0x0 PUSH1 0x20 DUP3 DUP5 SUB SLT ISZERO PUSH3 0x32FF JUMPI PUSH1 0x0 DUP1 REVERT JUMPDEST PUSH3 0x330B PUSH1 0x20 PUSH3 0x44EF JUMP JUMPDEST SWAP1 POP PUSH1 0x0 PUSH3 0x331B DUP5 DUP5 PUSH3 0x2E31 JUMP JUMPDEST DUP3 MSTORE POP SWAP3 SWAP2 POP POP JUMP JUMPDEST PUSH1 0x0 PUSH1 0x80 DUP3 DUP5 SUB SLT ISZERO PUSH3 0x3337 JUMPI PUSH1 0x0 DUP1 REVERT JUMPDEST PUSH3 0x3343 PUSH1 0x80 PUSH3 0x44EF JUMP JUMPDEST DUP3 MLOAD SWAP1 SWAP2 POP PUSH1 0x1 PUSH1 0x1 PUSH1 0x40 SHL SUB DUP2 GT ISZERO PUSH3 0x335D JUMPI PUSH1 0x0 DUP1 REVERT JUMPDEST PUSH3 0x336B DUP5 DUP3 DUP6 ADD PUSH3 0x2EEC JUMP JUMPDEST DUP3 MSTORE POP PUSH1 0x20 DUP3 ADD MLOAD PUSH1 0x1 PUSH1 0x1 PUSH1 0x40 SHL SUB DUP2 GT ISZERO PUSH3 0x3388 JUMPI PUSH1 0x0 DUP1 REVERT JUMPDEST PUSH3 0x3396 DUP5 DUP3 DUP6 ADD PUSH3 0x33FE JUMP JUMPDEST PUSH1 0x20 DUP4 ADD MSTORE POP PUSH1 0x40 DUP3 ADD MLOAD PUSH1 0x1 PUSH1 0x1 PUSH1 0x40 SHL SUB DUP2 GT ISZERO PUSH3 0x33B6 JUMPI PUSH1 0x0 DUP1 REVERT JUMPDEST PUSH3 0x33C4 DUP5 DUP3 DUP6 ADD PUSH3 0x327C JUMP JUMPDEST PUSH1 0x40 DUP4 ADD MSTORE POP PUSH1 0x60 DUP3 ADD MLOAD PUSH1 0x1 PUSH1 0x1 PUSH1 0x40 SHL SUB DUP2 GT ISZERO PUSH3 0x33E4 JUMPI PUSH1 0x0 DUP1 REVERT JUMPDEST PUSH3 0x33F2 DUP5 DUP3 DUP6 ADD PUSH3 0x35A1 JUMP JUMPDEST PUSH1 0x60 DUP4 ADD MSTORE POP SWAP3 SWAP2 POP POP JUMP JUMPDEST PUSH1 0x0 PUSH1 0x80 DUP3 DUP5 SUB SLT ISZERO PUSH3 0x3411 JUMPI PUSH1 0x0 DUP1 REVERT JUMPDEST PUSH3 0x341D PUSH1 0x80 PUSH3 0x44EF JUMP JUMPDEST DUP3 MLOAD SWAP1 SWAP2 POP PUSH1 0x1 PUSH1 0x1 PUSH1 0x40 SHL SUB DUP2 GT ISZERO PUSH3 0x3437 JUMPI PUSH1 0x0 DUP1 REVERT JUMPDEST PUSH3 0x3445 DUP5 DUP3 DUP6 ADD PUSH3 0x2EEC JUMP JUMPDEST DUP3 MSTORE POP PUSH1 0x20 DUP3 ADD MLOAD PUSH1 0x1 PUSH1 0x1 PUSH1 0x40 SHL SUB DUP2 GT ISZERO PUSH3 0x3462 JUMPI PUSH1 0x0 DUP1 REVERT JUMPDEST PUSH3 0x3470 DUP5 DUP3 DUP6 ADD PUSH3 0x2EEC JUMP JUMPDEST PUSH1 0x20 DUP4 ADD MSTORE POP PUSH1 0x40 DUP3 ADD MLOAD PUSH1 0x1 PUSH1 0x1 PUSH1 0x40 SHL SUB DUP2 GT ISZERO PUSH3 0x3490 JUMPI PUSH1 0x0 DUP1 REVERT JUMPDEST PUSH3 0x349E DUP5 DUP3 DUP6 ADD PUSH3 0x2EEC JUMP JUMPDEST PUSH1 0x40 DUP4 ADD MSTORE POP PUSH1 0x60 DUP3 ADD MLOAD PUSH1 0x1 PUSH1 0x1 PUSH1 0x40 SHL SUB DUP2 GT ISZERO PUSH3 0x34BE JUMPI PUSH1 0x0 DUP1 REVERT JUMPDEST PUSH3 0x33F2 DUP5 DUP3 DUP6 ADD PUSH3 0x2D02 JUMP JUMPDEST PUSH1 0x0 PUSH1 0xC0 DUP3 DUP5 SUB SLT ISZERO PUSH3 0x34DF JUMPI PUSH1 0x0 DUP1 REVERT JUMPDEST PUSH3 0x34EB PUSH1 0xC0 PUSH3 0x44EF JUMP JUMPDEST SWAP1 POP DUP2 CALLDATALOAD PUSH1 0x1 PUSH1 0x1 PUSH1 0x40 SHL SUB DUP2 GT ISZERO PUSH3 0x3504 JUMPI PUSH1 0x0 DUP1 REVERT JUMPDEST PUSH3 0x3512 DUP5 DUP3 DUP6 ADD PUSH3 0x2E96 JUMP JUMPDEST DUP3 MSTORE POP PUSH1 0x20 DUP3 ADD CALLDATALOAD PUSH1 0x1 PUSH1 0x1 PUSH1 0x40 SHL SUB DUP2 GT ISZERO PUSH3 0x352F JUMPI PUSH1 0x0 DUP1 REVERT JUMPDEST PUSH3 0x353D DUP5 DUP3 DUP6 ADD PUSH3 0x2E96 JUMP JUMPDEST PUSH1 0x20 DUP4 ADD MSTORE POP PUSH1 0x40 PUSH3 0x3553 DUP5 DUP3 DUP6 ADD PUSH3 0x2CE8 JUMP JUMPDEST PUSH1 0x40 DUP4 ADD MSTORE POP PUSH1 0x60 PUSH3 0x3569 DUP5 DUP3 DUP6 ADD PUSH3 0x3756 JUMP JUMPDEST PUSH1 0x60 DUP4 ADD MSTORE POP PUSH1 0x80 PUSH3 0x357F DUP5 DUP3 DUP6 ADD PUSH3 0x3756 JUMP JUMPDEST PUSH1 0x80 DUP4 ADD MSTORE POP PUSH1 0xA0 PUSH3 0x3595 DUP5 DUP3 DUP6 ADD PUSH3 0x3756 JUMP JUMPDEST PUSH1 0xA0 DUP4 ADD MSTORE POP SWAP3 SWAP2 POP POP JUMP JUMPDEST PUSH1 0x0 PUSH1 0xE0 DUP3 DUP5 SUB SLT ISZERO PUSH3 0x35B4 JUMPI PUSH1 0x0 DUP1 REVERT JUMPDEST PUSH3 0x35C0 PUSH1 0xE0 PUSH3 0x44EF JUMP JUMPDEST SWAP1 POP PUSH1 0x0 PUSH3 0x35D0 DUP5 DUP5 PUSH3 0x2E3E JUMP JUMPDEST DUP3 MSTORE POP PUSH1 0x20 DUP3 ADD MLOAD PUSH1 0x1 PUSH1 0x1 PUSH1 0x40 SHL SUB DUP2 GT ISZERO PUSH3 0x35ED JUMPI PUSH1 0x0 DUP1 REVERT JUMPDEST PUSH3 0x35FB DUP5 DUP3 DUP6 ADD PUSH3 0x2EEC JUMP JUMPDEST PUSH1 0x20 DUP4 ADD MSTORE POP PUSH1 0x40 DUP3 ADD MLOAD PUSH1 0x1 PUSH1 0x1 PUSH1 0x40 SHL SUB DUP2 GT ISZERO PUSH3 0x361B JUMPI PUSH1 0x0 DUP1 REVERT JUMPDEST PUSH3 0x3629 DUP5 DUP3 DUP6 ADD PUSH3 0x2D02 JUMP JUMPDEST PUSH1 0x40 DUP4 ADD MSTORE POP PUSH1 0x60 PUSH3 0x363F DUP5 DUP3 DUP6 ADD PUSH3 0x3763 JUMP JUMPDEST PUSH1 0x60 DUP4 ADD MSTORE POP PUSH1 0x80 DUP3 ADD MLOAD PUSH1 0x1 PUSH1 0x1 PUSH1 0x40 SHL SUB DUP2 GT ISZERO PUSH3 0x365F JUMPI PUSH1 0x0 DUP1 REVERT JUMPDEST PUSH3 0x366D DUP5 DUP3 DUP6 ADD PUSH3 0x2EEC JUMP JUMPDEST PUSH1 0x80 DUP4 ADD MSTORE POP PUSH1 0xA0 DUP3 ADD MLOAD PUSH1 0x1 PUSH1 0x1 PUSH1 0x40 SHL SUB DUP2 GT ISZERO PUSH3 0x368D JUMPI PUSH1 0x0 DUP1 REVERT JUMPDEST PUSH3 0x369B DUP5 DUP3 DUP6 ADD PUSH3 0x2EEC JUMP JUMPDEST PUSH1 0xA0 DUP4 ADD MSTORE POP PUSH1 0xC0 DUP3 ADD MLOAD PUSH1 0x1 PUSH1 0x1 PUSH1 0x40 SHL SUB DUP2 GT ISZERO PUSH3 0x36BB JUMPI PUSH1 0x0 DUP1 REVERT JUMPDEST PUSH3 0x36C9 DUP5 DUP3 DUP6 ADD PUSH3 0x2EEC JUMP JUMPDEST PUSH1 0xC0 DUP4 ADD MSTORE POP SWAP3 SWAP2 POP POP JUMP JUMPDEST PUSH1 0x0 PUSH1 0x80 DUP3 DUP5 SUB SLT ISZERO PUSH3 0x36E8 JUMPI PUSH1 0x0 DUP1 REVERT JUMPDEST PUSH3 0x36F4 PUSH1 0x80 PUSH3 0x44EF JUMP JUMPDEST SWAP1 POP PUSH1 0x0 PUSH3 0x3704 DUP5 DUP5 PUSH3 0x3756 JUMP JUMPDEST DUP3 MSTORE POP PUSH1 0x20 DUP3 ADD CALLDATALOAD PUSH1 0x1 PUSH1 0x1 PUSH1 0x40 SHL SUB DUP2 GT ISZERO PUSH3 0x3721 JUMPI PUSH1 0x0 DUP1 REVERT JUMPDEST PUSH3 0x372F DUP5 DUP3 DUP6 ADD PUSH3 0x2E96 JUMP JUMPDEST PUSH1 0x20 DUP4 ADD MSTORE POP PUSH1 0x40 PUSH3 0x3745 DUP5 DUP3 DUP6 ADD PUSH3 0x3756 JUMP JUMPDEST PUSH1 0x40 DUP4 ADD MSTORE POP PUSH1 0x60 PUSH3 0x33F2 DUP5 DUP3 DUP6 ADD JUMPDEST DUP1 CALLDATALOAD PUSH3 0x1470 DUP2 PUSH3 0x46B5 JUMP JUMPDEST DUP1 MLOAD PUSH3 0x1470 DUP2 PUSH3 0x46B5 JUMP JUMPDEST PUSH1 0x0 PUSH1 0x20 DUP3 DUP5 SUB SLT ISZERO PUSH3 0x3783 JUMPI PUSH1 0x0 DUP1 REVERT JUMPDEST PUSH1 0x0 PUSH3 0x1B02 DUP5 DUP5 PUSH3 0x2CE8 JUMP JUMPDEST PUSH1 0x0 PUSH1 0x20 DUP3 DUP5 SUB SLT ISZERO PUSH3 0x37A4 JUMPI PUSH1 0x0 DUP1 REVERT JUMPDEST PUSH1 0x0 PUSH3 0x1B02 DUP5 DUP5 PUSH3 0x2CF5 JUMP JUMPDEST PUSH1 0x0 PUSH1 0x20 DUP3 DUP5 SUB SLT ISZERO PUSH3 0x37C5 JUMPI PUSH1 0x0 DUP1 REVERT JUMPDEST PUSH1 0x0 PUSH3 0x1B02 DUP5 DUP5 PUSH3 0x2DF0 JUMP JUMPDEST PUSH1 0x0 PUSH1 0x20 DUP3 DUP5 SUB SLT ISZERO PUSH3 0x37E6 JUMPI PUSH1 0x0 DUP1 REVERT JUMPDEST PUSH1 0x0 PUSH3 0x1B02 DUP5 DUP5 PUSH3 0x2E0A JUMP JUMPDEST PUSH1 0x0 DUP1 PUSH1 0x20 DUP4 DUP6 SUB SLT ISZERO PUSH3 0x3808 JUMPI PUSH1 0x0 DUP1 REVERT JUMPDEST DUP3 CALLDATALOAD PUSH1 0x1 PUSH1 0x1 PUSH1 0x40 SHL SUB DUP2 GT ISZERO PUSH3 0x381F JUMPI PUSH1 0x0 DUP1 REVERT JUMPDEST PUSH3 0x382D DUP6 DUP3 DUP7 ADD PUSH3 0x2E4B JUMP JUMPDEST SWAP3 POP SWAP3 POP POP SWAP3 POP SWAP3 SWAP1 POP JUMP JUMPDEST PUSH1 0x0 DUP1 PUSH1 0x0 DUP1 PUSH1 0x40 DUP6 DUP8 SUB SLT ISZERO PUSH3 0x3850 JUMPI PUSH1 0x0 DUP1 REVERT JUMPDEST DUP5 CALLDATALOAD PUSH1 0x1 PUSH1 0x1 PUSH1 0x40 SHL SUB DUP2 GT ISZERO PUSH3 0x3867 JUMPI PUSH1 0x0 DUP1 REVERT JUMPDEST PUSH3 0x3875 DUP8 DUP3 DUP9 ADD PUSH3 0x2E4B JUMP JUMPDEST SWAP5 POP SWAP5 POP POP PUSH1 0x20 DUP6 ADD CALLDATALOAD PUSH1 0x1 PUSH1 0x1 PUSH1 0x40 SHL SUB DUP2 GT ISZERO PUSH3 0x3894 JUMPI PUSH1 0x0 DUP1 REVERT JUMPDEST PUSH3 0x38A2 DUP8 DUP3 DUP9 ADD PUSH3 0x2E4B JUMP JUMPDEST SWAP6 SWAP9 SWAP5 SWAP8 POP SWAP6 POP POP POP POP JUMP JUMPDEST PUSH1 0x0 DUP1 PUSH1 0x0 DUP1 PUSH1 0x0 PUSH1 0x60 DUP7 DUP9 SUB SLT ISZERO PUSH3 0x38C7 JUMPI PUSH1 0x0 DUP1 REVERT JUMPDEST DUP6 CALLDATALOAD PUSH1 0x1 PUSH1 0x1 PUSH1 0x40 SHL SUB DUP2 GT ISZERO PUSH3 0x38DE JUMPI PUSH1 0x0 DUP1 REVERT JUMPDEST PUSH3 0x38EC DUP9 DUP3 DUP10 ADD PUSH3 0x2E4B JUMP JUMPDEST SWAP6 POP SWAP6 POP POP PUSH1 0x20 DUP7 ADD CALLDATALOAD PUSH1 0x1 PUSH1 0x1 PUSH1 0x40 SHL SUB DUP2 GT ISZERO PUSH3 0x390B JUMPI PUSH1 0x0 DUP1 REVERT JUMPDEST PUSH3 0x3919 DUP9 DUP3 DUP10 ADD PUSH3 0x2E4B JUMP JUMPDEST SWAP4 POP SWAP4 POP POP PUSH1 0x40 PUSH3 0x392E DUP9 DUP3 DUP10 ADD PUSH3 0x2E31 JUMP JUMPDEST SWAP2 POP POP SWAP3 SWAP6 POP SWAP3 SWAP6 SWAP1 SWAP4 POP JUMP JUMPDEST PUSH1 0x0 DUP1 PUSH1 0x40 DUP4 DUP6 SUB SLT ISZERO PUSH3 0x394F JUMPI PUSH1 0x0 DUP1 REVERT JUMPDEST DUP3 CALLDATALOAD PUSH1 0x1 PUSH1 0x1 PUSH1 0x40 SHL SUB DUP2 GT ISZERO PUSH3 0x3966 JUMPI PUSH1 0x0 DUP1 REVERT JUMPDEST PUSH3 0x3974 DUP6 DUP3 DUP7 ADD PUSH3 0x30A1 JUMP JUMPDEST SWAP3 POP POP PUSH1 0x20 DUP4 ADD CALLDATALOAD PUSH1 0x1 PUSH1 0x1 PUSH1 0x40 SHL SUB DUP2 GT ISZERO PUSH3 0x3991 JUMPI PUSH1 0x0 DUP1 REVERT JUMPDEST PUSH3 0x399F DUP6 DUP3 DUP7 ADD PUSH3 0x2D8B JUMP JUMPDEST SWAP2 POP POP SWAP3 POP SWAP3 SWAP1 POP JUMP JUMPDEST PUSH1 0x0 PUSH1 0x20 DUP3 DUP5 SUB SLT ISZERO PUSH3 0x39BC JUMPI PUSH1 0x0 DUP1 REVERT JUMPDEST DUP2 MLOAD PUSH1 0x1 PUSH1 0x1 PUSH1 0x40 SHL SUB DUP2 GT ISZERO PUSH3 0x39D3 JUMPI PUSH1 0x0 DUP1 REVERT JUMPDEST PUSH3 0x1B02 DUP5 DUP3 DUP6 ADD PUSH3 0x3324 JUMP JUMPDEST PUSH1 0x0 PUSH1 0x20 DUP3 DUP5 SUB SLT ISZERO PUSH3 0x39F4 JUMPI PUSH1 0x0 DUP1 REVERT JUMPDEST DUP2 CALLDATALOAD PUSH1 0x1 PUSH1 0x1 PUSH1 0x40 SHL SUB DUP2 GT ISZERO PUSH3 0x3A0B JUMPI PUSH1 0x0 DUP1 REVERT JUMPDEST PUSH3 0x1B02 DUP5 DUP3 DUP6 ADD PUSH3 0x34CC JUMP JUMPDEST PUSH1 0x0 PUSH1 0x20 DUP3 DUP5 SUB SLT ISZERO PUSH3 0x3A2C JUMPI PUSH1 0x0 DUP1 REVERT JUMPDEST PUSH1 0x0 PUSH3 0x1B02 DUP5 DUP5 PUSH3 0x3763 JUMP JUMPDEST PUSH1 0x0 PUSH3 0x3A48 DUP4 DUP4 PUSH3 0x3F69 JUMP JUMPDEST SWAP4 SWAP3 POP POP POP JUMP JUMPDEST PUSH3 0x3A5A DUP2 PUSH3 0x45C1 JUMP JUMPDEST DUP3 MSTORE POP POP JUMP JUMPDEST PUSH3 0x3A5A DUP2 PUSH3 0x4572 JUMP JUMPDEST PUSH1 0x0 PUSH3 0x3A78 DUP3 PUSH3 0x4565 JUMP JUMPDEST PUSH3 0x3A84 DUP2 DUP6 PUSH3 0x4569 JUMP JUMPDEST SWAP4 POP DUP4 PUSH1 0x20 DUP3 MUL DUP6 ADD PUSH3 0x3A98 DUP6 PUSH3 0x455F JUMP JUMPDEST DUP1 PUSH1 0x0 JUMPDEST DUP6 DUP2 LT ISZERO PUSH3 0x3AD8 JUMPI DUP5 DUP5 SUB DUP10 MSTORE DUP2 MLOAD PUSH3 0x3AB8 DUP6 DUP3 PUSH3 0x3A3A JUMP JUMPDEST SWAP5 POP PUSH3 0x3AC5 DUP4 PUSH3 0x455F JUMP JUMPDEST PUSH1 0x20 SWAP11 SWAP1 SWAP11 ADD SWAP10 SWAP3 POP POP PUSH1 0x1 ADD PUSH3 0x3A9C JUMP JUMPDEST POP SWAP2 SWAP8 SWAP7 POP POP POP POP POP POP POP JUMP JUMPDEST PUSH3 0x3A5A DUP2 PUSH3 0x4584 JUMP JUMPDEST PUSH3 0x3A5A DUP2 PUSH3 0x45CE JUMP JUMPDEST PUSH3 0x3A5A DUP2 PUSH3 0x45DB JUMP JUMPDEST PUSH3 0x3A5A DUP2 PUSH3 0x45E8 JUMP JUMPDEST PUSH1 0x0 PUSH3 0x3B1F DUP4 DUP6 PUSH3 0x2A11 JUMP JUMPDEST SWAP4 POP PUSH3 0x3B2E DUP4 DUP6 DUP5 PUSH3 0x45F5 JUMP JUMPDEST POP POP ADD SWAP1 JUMP JUMPDEST PUSH1 0x0 PUSH3 0x3B41 DUP3 PUSH3 0x4565 JUMP JUMPDEST PUSH3 0x3B4D DUP2 DUP6 PUSH3 0x4569 JUMP JUMPDEST SWAP4 POP PUSH3 0x3B5F DUP2 DUP6 PUSH1 0x20 DUP7 ADD PUSH3 0x4601 JUMP JUMPDEST PUSH3 0x3B6A DUP2 PUSH3 0x4630 JUMP JUMPDEST SWAP1 SWAP4 ADD SWAP4 SWAP3 POP POP POP JUMP JUMPDEST PUSH1 0x0 PUSH3 0x3B81 DUP3 PUSH3 0x4565 JUMP JUMPDEST PUSH3 0x3B8D DUP2 DUP6 PUSH3 0x2A11 JUMP JUMPDEST SWAP4 POP PUSH3 0x3B9F DUP2 DUP6 PUSH1 0x20 DUP7 ADD PUSH3 0x4601 JUMP JUMPDEST SWAP3 SWAP1 SWAP3 ADD SWAP3 SWAP2 POP POP JUMP JUMPDEST PUSH1 0x0 PUSH3 0x3BB8 PUSH1 0x11 DUP4 PUSH3 0x4569 JUMP JUMPDEST PUSH17 0x383937B837B9B0B61036B4B9B9B4B73397 PUSH1 0x79 SHL DUP2 MSTORE PUSH1 0x20 ADD SWAP3 SWAP2 POP POP JUMP JUMPDEST PUSH1 0x0 PUSH3 0x3BE7 PUSH1 0x18 DUP4 PUSH3 0x4569 JUMP JUMPDEST PUSH32 0x626173652073657474696E67206E6F74206578697374732E0000000000000000 DUP2 MSTORE PUSH1 0x20 ADD SWAP3 SWAP2 POP POP JUMP JUMPDEST PUSH1 0x0 PUSH3 0x3C22 PUSH1 0x1C DUP4 PUSH3 0x4569 JUMP JUMPDEST PUSH32 0x70726F706F7365722073657474696E67206E6F74206578697374732E00000000 DUP2 MSTORE PUSH1 0x20 ADD SWAP3 SWAP2 POP POP JUMP JUMPDEST PUSH1 0x0 PUSH3 0x3C5D PUSH1 0x1A DUP4 PUSH3 0x4569 JUMP JUMPDEST PUSH32 0x70726F706F73616C20646973636F496420697320656D70747921000000000000 DUP2 MSTORE PUSH1 0x20 ADD SWAP3 SWAP2 POP POP JUMP JUMPDEST PUSH1 0x0 PUSH3 0x3C98 PUSH1 0x12 DUP4 PUSH3 0x4569 JUMP JUMPDEST PUSH18 0x646973636F20696420697320656D70747921 PUSH1 0x70 SHL DUP2 MSTORE PUSH1 0x20 ADD SWAP3 SWAP2 POP POP JUMP JUMPDEST PUSH1 0x0 PUSH3 0x3CC8 PUSH1 0x15 DUP4 PUSH3 0x4569 JUMP JUMPDEST PUSH21 0x34B9379030B2323932B9B99034B99032B6B83A3C97 PUSH1 0x59 SHL DUP2 MSTORE PUSH1 0x20 ADD SWAP3 SWAP2 POP POP JUMP JUMPDEST PUSH1 0x0 PUSH3 0x3CFB PUSH1 0x1E DUP4 PUSH3 0x4569 JUMP JUMPDEST PUSH32 0x6120696E76616C696420766F74652C20766F7465206E756D203C3D20302E0000 DUP2 MSTORE PUSH1 0x20 ADD SWAP3 SWAP2 POP POP JUMP JUMPDEST PUSH1 0x0 PUSH3 0x3D36 PUSH1 0x23 DUP4 PUSH3 0x4569 JUMP JUMPDEST PUSH32 0x7468652070726F706F73616C20636F756C64206E6F742062652072656C656173 DUP2 MSTORE PUSH3 0x32B217 PUSH1 0xE9 SHL PUSH1 0x20 DUP3 ADD MSTORE PUSH1 0x40 ADD SWAP3 SWAP2 POP POP JUMP JUMPDEST PUSH1 0x0 PUSH3 0x3D7D PUSH1 0x1E DUP4 PUSH3 0x4569 JUMP JUMPDEST PUSH32 0x70726F706F73616C206D697373696E672C20636865636B2066697273742E0000 DUP2 MSTORE PUSH1 0x20 ADD SWAP3 SWAP2 POP POP JUMP JUMPDEST PUSH1 0x0 PUSH3 0x3DB8 PUSH1 0x3F DUP4 PUSH3 0x4569 JUMP JUMPDEST PUSH32 0x70726F706F73616C20616C7265616479206578697374732C20706C6561736520 DUP2 MSTORE PUSH32 0x7265706C61636520776974682074686520636F6E7472616374206F776E657200 PUSH1 0x20 DUP3 ADD MSTORE PUSH1 0x40 ADD SWAP3 SWAP2 POP POP JUMP JUMPDEST PUSH1 0x0 PUSH3 0x3E19 PUSH1 0x1B DUP4 PUSH3 0x4569 JUMP JUMPDEST PUSH32 0x70726F706F73616C2073657269616C496420697320656D707479210000000000 DUP2 MSTORE PUSH1 0x20 ADD SWAP3 SWAP2 POP POP JUMP JUMPDEST PUSH1 0x0 PUSH3 0x3E54 PUSH1 0x10 DUP4 PUSH3 0x4569 JUMP JUMPDEST PUSH16 0x3B37BA329034B99032BC3834B932B217 PUSH1 0x81 SHL DUP2 MSTORE PUSH1 0x20 ADD SWAP3 SWAP2 POP POP JUMP JUMPDEST PUSH1 0x0 PUSH3 0x3E82 PUSH1 0x17 DUP4 PUSH3 0x4569 JUMP JUMPDEST PUSH32 0x646973636F206164647265737320697320656D7074792E000000000000000000 DUP2 MSTORE PUSH1 0x20 ADD SWAP3 SWAP2 POP POP JUMP JUMPDEST PUSH1 0x0 PUSH3 0x3EBD PUSH1 0x19 DUP4 PUSH3 0x4569 JUMP JUMPDEST PUSH32 0x766F7465722073657474696E67206E6F74206578697374732E00000000000000 DUP2 MSTORE PUSH1 0x20 ADD SWAP3 SWAP2 POP POP JUMP JUMPDEST PUSH1 0x0 PUSH3 0x3EF8 PUSH1 0x1 DUP4 PUSH3 0x2A11 JUMP JUMPDEST PUSH1 0x1 PUSH1 0xFE SHL DUP2 MSTORE PUSH1 0x1 ADD SWAP3 SWAP2 POP POP JUMP JUMPDEST PUSH1 0x0 PUSH3 0x3F17 PUSH1 0x3A DUP4 PUSH3 0x4569 JUMP JUMPDEST PUSH32 0x7468652070726F706F73616C20636F756C64206E6F7420626520766F74656420 DUP2 MSTORE PUSH32 0x7768656E20737461747573206973206E6F7420766F74696E672E000000000000 PUSH1 0x20 DUP3 ADD MSTORE PUSH1 0x40 ADD SWAP3 SWAP2 POP POP JUMP JUMPDEST DUP1 MLOAD PUSH1 0x0 SWAP1 PUSH1 0x60 DUP5 ADD SWAP1 PUSH3 0x3F7F DUP6 DUP3 PUSH3 0x42A2 JUMP JUMPDEST POP PUSH1 0x20 DUP4 ADD MLOAD PUSH3 0x3F94 PUSH1 0x20 DUP7 ADD DUP3 PUSH3 0x42A2 JUMP JUMPDEST POP PUSH1 0x40 DUP4 ADD MLOAD DUP5 DUP3 SUB PUSH1 0x40 DUP7 ADD MSTORE PUSH3 0x3FAE DUP3 DUP3 PUSH3 0x3B34 JUMP JUMPDEST SWAP6 SWAP5 POP POP POP POP POP JUMP JUMPDEST DUP1 MLOAD PUSH1 0x0 SWAP1 PUSH2 0x100 DUP5 ADD SWAP1 PUSH3 0x3FCE DUP6 DUP3 PUSH3 0x3A60 JUMP JUMPDEST POP PUSH1 0x20 DUP4 ADD MLOAD PUSH3 0x3FE3 PUSH1 0x20 DUP7 ADD DUP3 PUSH3 0x3AF0 JUMP JUMPDEST POP PUSH1 0x40 DUP4 ADD MLOAD PUSH3 0x3FF8 PUSH1 0x40 DUP7 ADD DUP3 PUSH3 0x42A2 JUMP JUMPDEST POP PUSH1 0x60 DUP4 ADD MLOAD DUP5 DUP3 SUB PUSH1 0x60 DUP7 ADD MSTORE PUSH3 0x4012 DUP3 DUP3 PUSH3 0x3B34 JUMP JUMPDEST SWAP2 POP POP PUSH1 0x80 DUP4 ADD MLOAD PUSH3 0x4029 PUSH1 0x80 DUP7 ADD DUP3 PUSH3 0x42A2 JUMP JUMPDEST POP PUSH1 0xA0 DUP4 ADD MLOAD PUSH3 0x403E PUSH1 0xA0 DUP7 ADD DUP3 PUSH3 0x42A2 JUMP JUMPDEST POP PUSH1 0xC0 DUP4 ADD MLOAD PUSH3 0x4053 PUSH1 0xC0 DUP7 ADD DUP3 PUSH3 0x3AE5 JUMP JUMPDEST POP PUSH1 0xE0 DUP4 ADD MLOAD PUSH3 0x4068 PUSH1 0xE0 DUP7 ADD DUP3 PUSH3 0x3AE5 JUMP JUMPDEST POP SWAP4 SWAP3 POP POP POP JUMP JUMPDEST DUP1 MLOAD PUSH2 0x180 DUP1 DUP5 MSTORE PUSH1 0x0 SWAP2 SWAP1 DUP5 ADD SWAP1 PUSH3 0x408B DUP3 DUP3 PUSH3 0x3B34 JUMP JUMPDEST SWAP2 POP POP PUSH1 0x20 DUP4 ADD MLOAD DUP5 DUP3 SUB PUSH1 0x20 DUP7 ADD MSTORE PUSH3 0x40A7 DUP3 DUP3 PUSH3 0x3B34 JUMP JUMPDEST SWAP2 POP POP PUSH1 0x40 DUP4 ADD MLOAD DUP5 DUP3 SUB PUSH1 0x40 DUP7 ADD MSTORE PUSH3 0x40C3 DUP3 DUP3 PUSH3 0x3B34 JUMP JUMPDEST SWAP2 POP POP PUSH1 0x60 DUP4 ADD MLOAD PUSH3 0x40DA PUSH1 0x60 DUP7 ADD DUP3 PUSH3 0x3B06 JUMP JUMPDEST POP PUSH1 0x80 DUP4 ADD MLOAD PUSH3 0x40EF PUSH1 0x80 DUP7 ADD DUP3 PUSH3 0x3AFB JUMP JUMPDEST POP PUSH1 0xA0 DUP4 ADD MLOAD DUP5 DUP3 SUB PUSH1 0xA0 DUP7 ADD MSTORE PUSH3 0x4109 DUP3 DUP3 PUSH3 0x3B34 JUMP JUMPDEST SWAP2 POP POP PUSH1 0xC0 DUP4 ADD MLOAD DUP5 DUP3 SUB PUSH1 0xC0 DUP7 ADD MSTORE PUSH3 0x4125 DUP3 DUP3 PUSH3 0x3B34 JUMP JUMPDEST SWAP2 POP POP PUSH1 0xE0 DUP4 ADD MLOAD DUP5 DUP3 SUB PUSH1 0xE0 DUP7 ADD MSTORE PUSH3 0x4141 DUP3 DUP3 PUSH3 0x3FB7 JUMP JUMPDEST SWAP2 POP POP PUSH2 0x100 DUP4 ADD MLOAD PUSH3 0x415A PUSH2 0x100 DUP7 ADD DUP3 PUSH3 0x41A6 JUMP JUMPDEST POP PUSH2 0x120 DUP4 ADD MLOAD DUP5 DUP3 SUB PUSH2 0x120 DUP7 ADD MSTORE PUSH3 0x4176 DUP3 DUP3 PUSH3 0x424B JUMP JUMPDEST SWAP2 POP POP PUSH2 0x140 DUP4 ADD MLOAD PUSH3 0x418F PUSH2 0x140 DUP7 ADD DUP3 PUSH3 0x42A2 JUMP JUMPDEST POP PUSH2 0x160 DUP4 ADD MLOAD PUSH3 0x4068 PUSH2 0x160 DUP7 ADD DUP3 PUSH3 0x3A60 JUMP JUMPDEST DUP1 MLOAD PUSH1 0x20 DUP4 ADD SWAP1 PUSH3 0x41B9 DUP5 DUP3 PUSH3 0x3B06 JUMP JUMPDEST POP POP POP POP JUMP JUMPDEST DUP1 MLOAD PUSH1 0xC0 DUP1 DUP5 MSTORE PUSH1 0x0 SWAP2 SWAP1 DUP5 ADD SWAP1 PUSH3 0x41D9 DUP3 DUP3 PUSH3 0x3B34 JUMP JUMPDEST SWAP2 POP POP PUSH1 0x20 DUP4 ADD MLOAD DUP5 DUP3 SUB PUSH1 0x20 DUP7 ADD MSTORE PUSH3 0x41F5 DUP3 DUP3 PUSH3 0x3B34 JUMP JUMPDEST SWAP2 POP POP PUSH1 0x40 DUP4 ADD MLOAD PUSH3 0x420C PUSH1 0x40 DUP7 ADD DUP3 PUSH3 0x3A60 JUMP JUMPDEST POP PUSH1 0x60 DUP4 ADD MLOAD PUSH3 0x4221 PUSH1 0x60 DUP7 ADD DUP3 PUSH3 0x42A2 JUMP JUMPDEST POP PUSH1 0x80 DUP4 ADD MLOAD PUSH3 0x4236 PUSH1 0x80 DUP7 ADD DUP3 PUSH3 0x42A2 JUMP JUMPDEST POP PUSH1 0xA0 DUP4 ADD MLOAD PUSH3 0x4068 PUSH1 0xA0 DUP7 ADD DUP3 PUSH3 0x42A2 JUMP JUMPDEST DUP1 MLOAD PUSH1 0x0 SWAP1 PUSH1 0x80 DUP5 ADD SWAP1 PUSH3 0x4261 DUP6 DUP3 PUSH3 0x42A2 JUMP JUMPDEST POP PUSH1 0x20 DUP4 ADD MLOAD DUP5 DUP3 SUB PUSH1 0x20 DUP7 ADD MSTORE PUSH3 0x427B DUP3 DUP3 PUSH3 0x3B34 JUMP JUMPDEST SWAP2 POP POP PUSH1 0x40 DUP4 ADD MLOAD PUSH3 0x4292 PUSH1 0x40 DUP7 ADD DUP3 PUSH3 0x42A2 JUMP JUMPDEST POP PUSH1 0x60 DUP4 ADD MLOAD PUSH3 0x4068 PUSH1 0x60 DUP7 ADD DUP3 JUMPDEST PUSH3 0x3A5A DUP2 PUSH3 0x2CE5 JUMP JUMPDEST PUSH1 0x0 PUSH3 0x1B02 DUP3 DUP5 DUP7 PUSH3 0x3B11 JUMP JUMPDEST PUSH1 0x0 PUSH3 0x3A48 DUP3 DUP5 PUSH3 0x3B74 JUMP JUMPDEST PUSH1 0x0 PUSH3 0x42D8 DUP3 DUP6 PUSH3 0x3B74 JUMP JUMPDEST SWAP2 POP PUSH3 0x42E5 DUP3 PUSH3 0x3EE9 JUMP JUMPDEST SWAP2 POP PUSH3 0x1B02 DUP3 DUP5 PUSH3 0x3B74 JUMP JUMPDEST PUSH1 0x60 DUP2 ADD PUSH3 0x4303 DUP3 DUP7 PUSH3 0x3A4F JUMP JUMPDEST PUSH3 0x4312 PUSH1 0x20 DUP4 ADD DUP6 PUSH3 0x3A4F JUMP JUMPDEST PUSH3 0x1B02 PUSH1 0x40 DUP4 ADD DUP5 PUSH3 0x42A2 JUMP JUMPDEST PUSH1 0x60 DUP2 ADD PUSH3 0x4331 DUP3 DUP7 PUSH3 0x3AE5 JUMP JUMPDEST PUSH3 0x4312 PUSH1 0x20 DUP4 ADD DUP6 PUSH3 0x3A60 JUMP JUMPDEST PUSH1 0x20 DUP2 ADD PUSH3 0x1470 DUP3 DUP5 PUSH3 0x3B06 JUMP JUMPDEST PUSH1 0x40 DUP2 ADD PUSH3 0x4360 DUP3 DUP6 PUSH3 0x3B06 JUMP JUMPDEST PUSH3 0x3A48 PUSH1 0x20 DUP4 ADD DUP5 PUSH3 0x3B06 JUMP JUMPDEST PUSH1 0x20 DUP1 DUP3 MSTORE DUP2 ADD PUSH3 0x3A48 DUP2 DUP5 PUSH3 0x3B34 JUMP JUMPDEST PUSH1 0x20 DUP1 DUP3 MSTORE DUP2 ADD PUSH3 0x2A0E DUP2 PUSH3 0x3BA9 JUMP JUMPDEST PUSH1 0x20 DUP1 DUP3 MSTORE DUP2 ADD PUSH3 0x2A0E DUP2 PUSH3 0x3BD8 JUMP JUMPDEST PUSH1 0x20 DUP1 DUP3 MSTORE DUP2 ADD PUSH3 0x2A0E DUP2 PUSH3 0x3C13 JUMP JUMPDEST PUSH1 0x20 DUP1 DUP3 MSTORE DUP2 ADD PUSH3 0x2A0E DUP2 PUSH3 0x3C4E JUMP JUMPDEST PUSH1 0x20 DUP1 DUP3 MSTORE DUP2 ADD PUSH3 0x2A0E DUP2 PUSH3 0x3C89 JUMP JUMPDEST PUSH1 0x20 DUP1 DUP3 MSTORE DUP2 ADD PUSH3 0x2A0E DUP2 PUSH3 0x3CB9 JUMP JUMPDEST PUSH1 0x20 DUP1 DUP3 MSTORE DUP2 ADD PUSH3 0x2A0E DUP2 PUSH3 0x3CEC JUMP JUMPDEST PUSH1 0x20 DUP1 DUP3 MSTORE DUP2 ADD PUSH3 0x2A0E DUP2 PUSH3 0x3D27 JUMP JUMPDEST PUSH1 0x20 DUP1 DUP3 MSTORE DUP2 ADD PUSH3 0x2A0E DUP2 PUSH3 0x3D6E JUMP JUMPDEST PUSH1 0x20 DUP1 DUP3 MSTORE DUP2 ADD PUSH3 0x2A0E DUP2 PUSH3 0x3DA9 JUMP JUMPDEST PUSH1 0x20 DUP1 DUP3 MSTORE DUP2 ADD PUSH3 0x2A0E DUP2 PUSH3 0x3E0A JUMP JUMPDEST PUSH1 0x20 DUP1 DUP3 MSTORE DUP2 ADD PUSH3 0x2A0E DUP2 PUSH3 0x3E45 JUMP JUMPDEST PUSH1 0x20 DUP1 DUP3 MSTORE DUP2 ADD PUSH3 0x2A0E DUP2 PUSH3 0x3E73 JUMP JUMPDEST PUSH1 0x20 DUP1 DUP3 MSTORE DUP2 ADD PUSH3 0x2A0E DUP2 PUSH3 0x3EAE JUMP JUMPDEST PUSH1 0x20 DUP1 DUP3 MSTORE DUP2 ADD PUSH3 0x2A0E DUP2 PUSH3 0x3F08 JUMP JUMPDEST PUSH1 0x20 DUP1 DUP3 MSTORE DUP2 ADD PUSH3 0x3A48 DUP2 DUP5 PUSH3 0x4070 JUMP JUMPDEST PUSH1 0x40 DUP1 DUP3 MSTORE DUP2 ADD PUSH3 0x44B6 DUP2 DUP6 PUSH3 0x4070 JUMP JUMPDEST SWAP1 POP DUP2 DUP2 SUB PUSH1 0x20 DUP4 ADD MSTORE PUSH3 0x1B02 DUP2 DUP5 PUSH3 0x3A6B JUMP JUMPDEST PUSH1 0x20 DUP1 DUP3 MSTORE DUP2 ADD PUSH3 0x3A48 DUP2 DUP5 PUSH3 0x41BF JUMP JUMPDEST PUSH1 0x20 DUP2 ADD PUSH3 0x1470 DUP3 DUP5 PUSH3 0x42A2 JUMP JUMPDEST PUSH1 0x40 MLOAD DUP2 DUP2 ADD PUSH1 0x1 PUSH1 0x1 PUSH1 0x40 SHL SUB DUP2 GT DUP3 DUP3 LT OR ISZERO PUSH3 0x450E JUMPI PUSH1 0x0 DUP1 REVERT JUMPDEST PUSH1 0x40 MSTORE SWAP2 SWAP1 POP JUMP JUMPDEST PUSH1 0x0 PUSH1 0x1 PUSH1 0x1 PUSH1 0x40 SHL SUB DUP3 GT ISZERO PUSH3 0x452D JUMPI PUSH1 0x0 DUP1 REVERT JUMPDEST POP PUSH1 0x20 SWAP1 DUP2 MUL ADD SWAP1 JUMP JUMPDEST PUSH1 0x0 PUSH1 0x1 PUSH1 0x1 PUSH1 0x40 SHL SUB DUP3 GT ISZERO PUSH3 0x454E JUMPI PUSH1 0x0 DUP1 REVERT JUMPDEST POP PUSH1 0x20 PUSH1 0x1F SWAP2 SWAP1 SWAP2 ADD PUSH1 0x1F NOT AND ADD SWAP1 JUMP JUMPDEST PUSH1 0x20 ADD SWAP1 JUMP JUMPDEST MLOAD SWAP1 JUMP JUMPDEST SWAP1 DUP2 MSTORE PUSH1 0x20 ADD SWAP1 JUMP JUMPDEST PUSH1 0x0 PUSH3 0x2A0E DUP3 PUSH3 0x45B5 JUMP JUMPDEST ISZERO ISZERO SWAP1 JUMP JUMPDEST PUSH1 0x0 PUSH3 0x2A0E DUP3 PUSH3 0x4572 JUMP JUMPDEST DUP1 PUSH3 0x2A11 DUP2 PUSH3 0x463A JUMP JUMPDEST DUP1 PUSH3 0x2A11 DUP2 PUSH3 0x4648 JUMP JUMPDEST DUP1 PUSH3 0x2A11 DUP2 PUSH3 0x4653 JUMP JUMPDEST PUSH1 0x1 PUSH1 0x1 PUSH1 0xA0 SHL SUB AND SWAP1 JUMP JUMPDEST PUSH1 0x0 PUSH3 0x2A0E DUP3 PUSH3 0x4584 JUMP JUMPDEST PUSH1 0x0 PUSH3 0x2A0E DUP3 PUSH3 0x4591 JUMP JUMPDEST PUSH1 0x0 PUSH3 0x2A0E DUP3 PUSH3 0x459D JUMP JUMPDEST PUSH1 0x0 PUSH3 0x2A0E DUP3 PUSH3 0x45A9 JUMP JUMPDEST DUP3 DUP2 DUP4 CALLDATACOPY POP PUSH1 0x0 SWAP2 ADD MSTORE JUMP JUMPDEST PUSH1 0x0 JUMPDEST DUP4 DUP2 LT ISZERO PUSH3 0x461E JUMPI DUP2 DUP2 ADD MLOAD DUP4 DUP3 ADD MSTORE PUSH1 0x20 ADD PUSH3 0x4604 JUMP JUMPDEST DUP4 DUP2 GT ISZERO PUSH3 0x41B9 JUMPI POP POP PUSH1 0x0 SWAP2 ADD MSTORE JUMP JUMPDEST PUSH1 0x1F ADD PUSH1 0x1F NOT AND SWAP1 JUMP JUMPDEST PUSH1 0x2 DUP2 LT PUSH3 0x4645 JUMPI INVALID JUMPDEST POP JUMP JUMPDEST PUSH1 0x7 DUP2 LT PUSH3 0x4645 JUMPI INVALID JUMPDEST PUSH1 0x4 DUP2 LT PUSH3 0x4645 JUMPI INVALID JUMPDEST PUSH3 0x4669 DUP2 PUSH3 0x4572 JUMP JUMPDEST DUP2 EQ PUSH3 0x4645 JUMPI PUSH1 0x0 DUP1 REVERT JUMPDEST PUSH3 0x4669 DUP2 PUSH3 0x457F JUMP JUMPDEST PUSH3 0x4669 DUP2 PUSH3 0x4584 JUMP JUMPDEST PUSH1 0x2 DUP2 LT PUSH3 0x4645 JUMPI PUSH1 0x0 DUP1 REVERT JUMPDEST PUSH1 0x7 DUP2 LT PUSH3 0x4645 JUMPI PUSH1 0x0 DUP1 REVERT JUMPDEST PUSH1 0x4 DUP2 LT PUSH3 0x4645 JUMPI PUSH1 0x0 DUP1 REVERT JUMPDEST PUSH3 0x4669 DUP2 PUSH3 0x2CE5 JUMP INVALID PUSH1 0x80 PUSH1 0x40 MSTORE CALLVALUE DUP1 ISZERO PUSH2 0x10 JUMPI PUSH1 0x0 DUP1 REVERT JUMPDEST POP PUSH1 0x40 MLOAD PUSH2 0x6CE CODESIZE SUB DUP1 PUSH2 0x6CE DUP4 CODECOPY DUP2 ADD PUSH1 0x40 DUP2 SWAP1 MSTORE PUSH2 0x2F SWAP2 PUSH2 0x138 JUMP JUMPDEST DUP1 MLOAD PUSH2 0x42 SWAP1 PUSH1 0x0 SWAP1 PUSH1 0x20 DUP5 ADD SWAP1 PUSH2 0x49 JUMP JUMPDEST POP POP PUSH2 0x1F1 JUMP JUMPDEST DUP3 DUP1 SLOAD PUSH1 0x1 DUP2 PUSH1 0x1 AND ISZERO PUSH2 0x100 MUL SUB AND PUSH1 0x2 SWAP1 DIV SWAP1 PUSH1 0x0 MSTORE PUSH1 0x20 PUSH1 0x0 KECCAK256 SWAP1 PUSH1 0x1F ADD PUSH1 0x20 SWAP1 DIV DUP2 ADD SWAP3 DUP3 PUSH1 0x1F LT PUSH2 0x8A JUMPI DUP1 MLOAD PUSH1 0xFF NOT AND DUP4 DUP1 ADD OR DUP6 SSTORE PUSH2 0xB7 JUMP JUMPDEST DUP3 DUP1 ADD PUSH1 0x1 ADD DUP6 SSTORE DUP3 ISZERO PUSH2 0xB7 JUMPI SWAP2 DUP3 ADD JUMPDEST DUP3 DUP2 GT ISZERO PUSH2 0xB7 JUMPI DUP3 MLOAD DUP3 SSTORE SWAP2 PUSH1 0x20 ADD SWAP2 SWAP1 PUSH1 0x1 ADD SWAP1 PUSH2 0x9C JUMP JUMPDEST POP PUSH2 0xC3 SWAP3 SWAP2 POP PUSH2 0xC7 JUMP JUMPDEST POP SWAP1 JUMP JUMPDEST PUSH2 0xE1 SWAP2 SWAP1 JUMPDEST DUP1 DUP3 GT ISZERO PUSH2 0xC3 JUMPI PUSH1 0x0 DUP2 SSTORE PUSH1 0x1 ADD PUSH2 0xCD JUMP JUMPDEST SWAP1 JUMP JUMPDEST PUSH1 0x0 DUP3 PUSH1 0x1F DUP4 ADD SLT PUSH2 0xF5 JUMPI PUSH1 0x0 DUP1 REVERT JUMPDEST DUP2 MLOAD PUSH2 0x108 PUSH2 0x103 DUP3 PUSH2 0x19A JUMP JUMPDEST PUSH2 0x174 JUMP JUMPDEST SWAP2 POP DUP1 DUP3 MSTORE PUSH1 0x20 DUP4 ADD PUSH1 0x20 DUP4 ADD DUP6 DUP4 DUP4 ADD GT ISZERO PUSH2 0x124 JUMPI PUSH1 0x0 DUP1 REVERT JUMPDEST PUSH2 0x12F DUP4 DUP3 DUP5 PUSH2 0x1C1 JUMP JUMPDEST POP POP POP SWAP3 SWAP2 POP POP JUMP JUMPDEST PUSH1 0x0 PUSH1 0x20 DUP3 DUP5 SUB SLT ISZERO PUSH2 0x14A JUMPI PUSH1 0x0 DUP1 REVERT JUMPDEST DUP2 MLOAD PUSH1 0x1 PUSH1 0x1 PUSH1 0x40 SHL SUB DUP2 GT ISZERO PUSH2 0x160 JUMPI PUSH1 0x0 DUP1 REVERT JUMPDEST PUSH2 0x16C DUP5 DUP3 DUP6 ADD PUSH2 0xE4 JUMP JUMPDEST SWAP5 SWAP4 POP POP POP POP JUMP JUMPDEST PUSH1 0x40 MLOAD DUP2 DUP2 ADD PUSH1 0x1 PUSH1 0x1 PUSH1 0x40 SHL SUB DUP2 GT DUP3 DUP3 LT OR ISZERO PUSH2 0x192 JUMPI PUSH1 0x0 DUP1 REVERT JUMPDEST PUSH1 0x40 MSTORE SWAP2 SWAP1 POP JUMP JUMPDEST PUSH1 0x0 PUSH1 0x1 PUSH1 0x1 PUSH1 0x40 SHL SUB DUP3 GT ISZERO PUSH2 0x1B0 JUMPI PUSH1 0x0 DUP1 REVERT JUMPDEST POP PUSH1 0x20 PUSH1 0x1F SWAP2 SWAP1 SWAP2 ADD PUSH1 0x1F NOT AND ADD SWAP1 JUMP JUMPDEST PUSH1 0x0 JUMPDEST DUP4 DUP2 LT ISZERO PUSH2 0x1DC JUMPI DUP2 DUP2 ADD MLOAD DUP4 DUP3 ADD MSTORE PUSH1 0x20 ADD PUSH2 0x1C4 JUMP JUMPDEST DUP4 DUP2 GT ISZERO PUSH2 0x1EB JUMPI PUSH1 0x0 DUP5 DUP5 ADD MSTORE JUMPDEST POP POP POP POP JUMP JUMPDEST PUSH2 0x4CE DUP1 PUSH2 0x200 PUSH1 0x0 CODECOPY PUSH1 0x0 RETURN INVALID PUSH1 0x80 PUSH1 0x40 MSTORE PUSH1 0x4 CALLDATASIZE LT PUSH2 0x4A JUMPI PUSH1 0x0 CALLDATALOAD PUSH1 0xE0 SHR DUP1 PUSH4 0x38CC4831 EQ PUSH2 0x4C JUMPI DUP1 PUSH4 0x4F95A04B EQ PUSH2 0x77 JUMPI DUP1 PUSH4 0xBEABACC8 EQ PUSH2 0x8A JUMPI DUP1 PUSH4 0xE1F21C67 EQ PUSH2 0xAA JUMPI DUP1 PUSH4 0xFB1E6A62 EQ PUSH2 0xCA JUMPI JUMPDEST STOP JUMPDEST CALLVALUE DUP1 ISZERO PUSH2 0x58 JUMPI PUSH1 0x0 DUP1 REVERT JUMPDEST POP PUSH2 0x61 PUSH2 0xEC JUMP JUMPDEST PUSH1 0x40 MLOAD PUSH2 0x6E SWAP2 SWAP1 PUSH2 0x3A7 JUMP JUMPDEST PUSH1 0x40 MLOAD DUP1 SWAP2 SUB SWAP1 RETURN JUMPDEST PUSH2 0x4A PUSH2 0x85 CALLDATASIZE PUSH1 0x4 PUSH2 0x2AA JUMP JUMPDEST PUSH2 0xF0 JUMP JUMPDEST CALLVALUE DUP1 ISZERO PUSH2 0x96 JUMPI PUSH1 0x0 DUP1 REVERT JUMPDEST POP PUSH2 0x4A PUSH2 0xA5 CALLDATASIZE PUSH1 0x4 PUSH2 0x30A JUMP JUMPDEST PUSH2 0x12B JUMP JUMPDEST CALLVALUE DUP1 ISZERO PUSH2 0xB6 JUMPI PUSH1 0x0 DUP1 REVERT JUMPDEST POP PUSH2 0x4A PUSH2 0xC5 CALLDATASIZE PUSH1 0x4 PUSH2 0x30A JUMP JUMPDEST PUSH2 0x1B4 JUMP JUMPDEST CALLVALUE DUP1 ISZERO PUSH2 0xD6 JUMPI PUSH1 0x0 DUP1 REVERT JUMPDEST POP PUSH2 0xDF PUSH2 0x1E2 JUMP JUMPDEST PUSH1 0x40 MLOAD PUSH2 0x6E SWAP2 SWAP1 PUSH2 0x3D7 JUMP JUMPDEST ADDRESS SWAP1 JUMP JUMPDEST PUSH1 0x40 MLOAD PUSH1 0x1 PUSH1 0x1 PUSH1 0xA0 SHL SUB DUP4 AND SWAP1 DUP3 ISZERO PUSH2 0x8FC MUL SWAP1 DUP4 SWAP1 PUSH1 0x0 DUP2 DUP2 DUP2 DUP6 DUP9 DUP9 CALL SWAP4 POP POP POP POP ISZERO DUP1 ISZERO PUSH2 0x126 JUMPI RETURNDATASIZE PUSH1 0x0 DUP1 RETURNDATACOPY RETURNDATASIZE PUSH1 0x0 REVERT JUMPDEST POP POP POP JUMP JUMPDEST PUSH1 0x40 MLOAD PUSH4 0xA9059CBB PUSH1 0xE0 SHL DUP2 MSTORE PUSH1 0x1 PUSH1 0x1 PUSH1 0xA0 SHL SUB DUP5 AND SWAP1 PUSH4 0xA9059CBB SWAP1 PUSH2 0x159 SWAP1 DUP6 SWAP1 DUP6 SWAP1 PUSH1 0x4 ADD PUSH2 0x3B5 JUMP JUMPDEST PUSH1 0x20 PUSH1 0x40 MLOAD DUP1 DUP4 SUB DUP2 PUSH1 0x0 DUP8 DUP1 EXTCODESIZE ISZERO DUP1 ISZERO PUSH2 0x173 JUMPI PUSH1 0x0 DUP1 REVERT JUMPDEST POP GAS CALL ISZERO DUP1 ISZERO PUSH2 0x187 JUMPI RETURNDATASIZE PUSH1 0x0 DUP1 RETURNDATACOPY RETURNDATASIZE PUSH1 0x0 REVERT JUMPDEST POP POP POP POP PUSH1 0x40 MLOAD RETURNDATASIZE PUSH1 0x1F NOT PUSH1 0x1F DUP3 ADD AND DUP3 ADD DUP1 PUSH1 0x40 MSTORE POP PUSH2 0x1AB SWAP2 SWAP1 DUP2 ADD SWAP1 PUSH2 0x2E4 JUMP JUMPDEST PUSH2 0x126 JUMPI PUSH1 0x0 DUP1 REVERT JUMPDEST PUSH1 0x40 MLOAD PUSH4 0x95EA7B3 PUSH1 0xE0 SHL DUP2 MSTORE PUSH1 0x1 PUSH1 0x1 PUSH1 0xA0 SHL SUB DUP5 AND SWAP1 PUSH4 0x95EA7B3 SWAP1 PUSH2 0x159 SWAP1 DUP6 SWAP1 DUP6 SWAP1 PUSH1 0x4 ADD PUSH2 0x3B5 JUMP JUMPDEST PUSH1 0x0 DUP1 SLOAD PUSH1 0x40 DUP1 MLOAD PUSH1 0x20 PUSH1 0x1F PUSH1 0x2 PUSH1 0x0 NOT PUSH2 0x100 PUSH1 0x1 DUP9 AND ISZERO MUL ADD SWAP1 SWAP6 AND SWAP5 SWAP1 SWAP5 DIV SWAP4 DUP5 ADD DUP2 SWAP1 DIV DUP2 MUL DUP3 ADD DUP2 ADD SWAP1 SWAP3 MSTORE DUP3 DUP2 MSTORE PUSH1 0x60 SWAP4 SWAP1 SWAP3 SWAP1 SWAP2 DUP4 ADD DUP3 DUP3 DUP1 ISZERO PUSH2 0x26E JUMPI DUP1 PUSH1 0x1F LT PUSH2 0x243 JUMPI PUSH2 0x100 DUP1 DUP4 SLOAD DIV MUL DUP4 MSTORE SWAP2 PUSH1 0x20 ADD SWAP2 PUSH2 0x26E JUMP JUMPDEST DUP3 ADD SWAP2 SWAP1 PUSH1 0x0 MSTORE PUSH1 0x20 PUSH1 0x0 KECCAK256 SWAP1 JUMPDEST DUP2 SLOAD DUP2 MSTORE SWAP1 PUSH1 0x1 ADD SWAP1 PUSH1 0x20 ADD DUP1 DUP4 GT PUSH2 0x251 JUMPI DUP3 SWAP1 SUB PUSH1 0x1F AND DUP3 ADD SWAP2 JUMPDEST POP POP POP POP POP SWAP1 POP SWAP1 JUMP JUMPDEST DUP1 CALLDATALOAD PUSH2 0x283 DUP2 PUSH2 0x459 JUMP JUMPDEST SWAP3 SWAP2 POP POP JUMP JUMPDEST DUP1 MLOAD PUSH2 0x283 DUP2 PUSH2 0x470 JUMP JUMPDEST DUP1 CALLDATALOAD PUSH2 0x283 DUP2 PUSH2 0x479 JUMP JUMPDEST DUP1 CALLDATALOAD PUSH2 0x283 DUP2 PUSH2 0x482 JUMP JUMPDEST PUSH1 0x0 DUP1 PUSH1 0x40 DUP4 DUP6 SUB SLT ISZERO PUSH2 0x2BD JUMPI PUSH1 0x0 DUP1 REVERT JUMPDEST PUSH1 0x0 PUSH2 0x2C9 DUP6 DUP6 PUSH2 0x278 JUMP JUMPDEST SWAP3 POP POP PUSH1 0x20 PUSH2 0x2DA DUP6 DUP3 DUP7 ADD PUSH2 0x29F JUMP JUMPDEST SWAP2 POP POP SWAP3 POP SWAP3 SWAP1 POP JUMP JUMPDEST PUSH1 0x0 PUSH1 0x20 DUP3 DUP5 SUB SLT ISZERO PUSH2 0x2F6 JUMPI PUSH1 0x0 DUP1 REVERT JUMPDEST PUSH1 0x0 PUSH2 0x302 DUP5 DUP5 PUSH2 0x289 JUMP JUMPDEST SWAP5 SWAP4 POP POP POP POP JUMP JUMPDEST PUSH1 0x0 DUP1 PUSH1 0x0 PUSH1 0x60 DUP5 DUP7 SUB SLT ISZERO PUSH2 0x31F JUMPI PUSH1 0x0 DUP1 REVERT JUMPDEST PUSH1 0x0 PUSH2 0x32B DUP7 DUP7 PUSH2 0x294 JUMP JUMPDEST SWAP4 POP POP PUSH1 0x20 PUSH2 0x33C DUP7 DUP3 DUP8 ADD PUSH2 0x278 JUMP JUMPDEST SWAP3 POP POP PUSH1 0x40 PUSH2 0x34D DUP7 DUP3 DUP8 ADD PUSH2 0x29F JUMP JUMPDEST SWAP2 POP POP SWAP3 POP SWAP3 POP SWAP3 JUMP JUMPDEST PUSH2 0x360 DUP2 PUSH2 0x3F5 JUMP JUMPDEST DUP3 MSTORE POP POP JUMP JUMPDEST PUSH1 0x0 PUSH2 0x371 DUP3 PUSH2 0x3E8 JUMP JUMPDEST PUSH2 0x37B DUP2 DUP6 PUSH2 0x3EC JUMP JUMPDEST SWAP4 POP PUSH2 0x38B DUP2 DUP6 PUSH1 0x20 DUP7 ADD PUSH2 0x41F JUMP JUMPDEST PUSH2 0x394 DUP2 PUSH2 0x44F JUMP JUMPDEST SWAP1 SWAP4 ADD SWAP4 SWAP3 POP POP POP JUMP JUMPDEST PUSH2 0x360 DUP2 PUSH2 0x41C JUMP JUMPDEST PUSH1 0x20 DUP2 ADD PUSH2 0x283 DUP3 DUP5 PUSH2 0x357 JUMP JUMPDEST PUSH1 0x40 DUP2 ADD PUSH2 0x3C3 DUP3 DUP6 PUSH2 0x357 JUMP JUMPDEST PUSH2 0x3D0 PUSH1 0x20 DUP4 ADD DUP5 PUSH2 0x39E JUMP JUMPDEST SWAP4 SWAP3 POP POP POP JUMP JUMPDEST PUSH1 0x20 DUP1 DUP3 MSTORE DUP2 ADD PUSH2 0x3D0 DUP2 DUP5 PUSH2 0x366 JUMP JUMPDEST MLOAD SWAP1 JUMP JUMPDEST SWAP1 DUP2 MSTORE PUSH1 0x20 ADD SWAP1 JUMP JUMPDEST PUSH1 0x0 PUSH2 0x283 DUP3 PUSH2 0x410 JUMP JUMPDEST ISZERO ISZERO SWAP1 JUMP JUMPDEST PUSH1 0x0 PUSH2 0x283 DUP3 PUSH2 0x3F5 JUMP JUMPDEST PUSH1 0x1 PUSH1 0x1 PUSH1 0xA0 SHL SUB AND SWAP1 JUMP JUMPDEST SWAP1 JUMP JUMPDEST PUSH1 0x0 JUMPDEST DUP4 DUP2 LT ISZERO PUSH2 0x43A JUMPI DUP2 DUP2 ADD MLOAD DUP4 DUP3 ADD MSTORE PUSH1 0x20 ADD PUSH2 0x422 JUMP JUMPDEST DUP4 DUP2 GT ISZERO PUSH2 0x449 JUMPI PUSH1 0x0 DUP5 DUP5 ADD MSTORE JUMPDEST POP POP POP POP JUMP JUMPDEST PUSH1 0x1F ADD PUSH1 0x1F NOT AND SWAP1 JUMP JUMPDEST PUSH2 0x462 DUP2 PUSH2 0x3F5 JUMP JUMPDEST DUP2 EQ PUSH2 0x46D JUMPI PUSH1 0x0 DUP1 REVERT JUMPDEST POP JUMP JUMPDEST PUSH2 0x462 DUP2 PUSH2 0x400 JUMP JUMPDEST PUSH2 0x462 DUP2 PUSH2 0x405 JUMP JUMPDEST PUSH2 0x462 DUP2 PUSH2 0x41C JUMP INVALID LOG3 PUSH6 0x627A7A723158 KECCAK256 0xF6 BALANCE 0x5C 0xC6 GT PUSH12 0x2D7069F7A0B053C44BA791D 0x26 0xE6 SWAP6 0x4F 0xAE 0xAA 0xCC PUSH17 0x72EE6ACCE2076C6578706572696D656E74 PUSH2 0x6CF5 PUSH5 0x736F6C6343 STOP SDIV LT STOP BLOCKHASH LOG3 PUSH6 0x627A7A723158 KECCAK256 0xC3 0xF7 GASLIMIT 0xD8 0xD DUP8 0xD7 SELFBALANCE DUP12 0x4B PUSH2 0x9E2F 0xD5 SWAP13 DUP8 0xC2 SELFBALANCE 0xD1 0x2E 0x2B PUSH4 0x4227B7F6 0x1F 0xB5 CALLER 0xA6 SWAP15 PUSH15 0x6C6578706572696D656E74616CF564 PUSH20 0x6F6C634300051000400000000000000000000000 "
		},
		"gasEstimates": {
			"creation": {
				"codeDepositCost": "3984200",
				"executionCost": "infinite",
				"totalCost": "infinite"
			},
			"external": {
				"accept((string,string,string,uint8,uint8,string,string,(address,uint8,uint256,string,uint256,uint256,address,address),(uint8),(uint256,string,uint256,uint256),uint256,address),(uint256,uint256,string)[])": "infinite",
				"decide(string,string,uint8)": "infinite",
				"discoProposalCount(string)": "infinite",
				"doVote((string,string,address,uint256,uint256,uint256))": "infinite",
				"fullSet((string,string,string,uint8,uint8,string,string,(address,uint8,uint256,string,uint256,uint256,address,address),(uint8),(uint256,string,uint256,uint256),uint256,address),(uint256,uint256,string)[])": "infinite",
				"proposalDetail(string,string)": "infinite",
				"proposalStatus(string,string)": "infinite",
				"releaseProposal(string,string)": "infinite",
				"setDiscoBase(address)": "infinite",
				"setIROBase(address)": "infinite"
			},
			"internal": {
				"getPoolId(string memory,string memory)": "infinite",
				"getPoolId(struct Proposal.ProposalDetail memory)": "infinite",
				"internalDiscoProposalDetail(string memory)": "infinite",
				"internalProposal(string memory,string memory)": "infinite"
			}
		},
		"methodIdentifiers": {
			"accept((string,string,string,uint8,uint8,string,string,(address,uint8,uint256,string,uint256,uint256,address,address),(uint8),(uint256,string,uint256,uint256),uint256,address),(uint256,uint256,string)[])": "268d792c",
			"decide(string,string,uint8)": "d46d6d8a",
			"discoProposalCount(string)": "8f65e697",
			"doVote((string,string,address,uint256,uint256,uint256))": "59f7f240",
			"fullSet((string,string,string,uint8,uint8,string,string,(address,uint8,uint256,string,uint256,uint256,address,address),(uint8),(uint256,string,uint256,uint256),uint256,address),(uint256,uint256,string)[])": "2b4a249f",
			"proposalDetail(string,string)": "3122fef1",
			"proposalStatus(string,string)": "474b58c2",
			"releaseProposal(string,string)": "0f5e1849",
			"setDiscoBase(address)": "72d92f28",
			"setIROBase(address)": "ffb135a8"
		}
	},
	"abi": [
		{
			"inputs": [
				{
					"internalType": "address",
					"name": "_iroAddress",
					"type": "address"
				},
				{
					"internalType": "address",
					"name": "_discoAddress",
					"type": "address"
				}
			],
			"payable": false,
			"stateMutability": "nonpayable",
			"type": "constructor"
		},
		{
			"anonymous": false,
			"inputs": [
				{
					"indexed": true,
					"internalType": "string",
					"name": "id",
					"type": "string"
				},
				{
					"components": [
						{
							"internalType": "string",
							"name": "discoId",
							"type": "string"
						},
						{
							"internalType": "string",
							"name": "serialId",
							"type": "string"
						},
						{
							"internalType": "string",
							"name": "title",
							"type": "string"
						},
						{
							"internalType": "enum Proposal.ProposalStatus",
							"name": "status",
							"type": "uint8"
						},
						{
							"internalType": "enum Proposal.ProposalMode",
							"name": "mode",
							"type": "uint8"
						},
						{
							"internalType": "string",
							"name": "contact",
							"type": "string"
						},
						{
							"internalType": "string",
							"name": "description",
							"type": "string"
						},
						{
							"components": [
								{
									"internalType": "address",
									"name": "payer",
									"type": "address"
								},
								{
									"internalType": "enum Proposal.PaymentMode",
									"name": "mode",
									"type": "uint8"
								},
								{
									"internalType": "uint256",
									"name": "totalMonths",
									"type": "uint256"
								},
								{
									"internalType": "string",
									"name": "date",
									"type": "string"
								},
								{
									"internalType": "uint256",
									"name": "paymentAmount",
									"type": "uint256"
								},
								{
									"internalType": "uint256",
									"name": "totalAmount",
									"type": "uint256"
								},
								{
									"internalType": "contract IERC20",
									"name": "token",
									"type": "address"
								},
								{
									"internalType": "contract FundPool",
									"name": "pool",
									"type": "address"
								}
							],
							"internalType": "struct Proposal.Payment",
							"name": "payment",
							"type": "tuple"
						},
						{
							"components": [
								{
									"internalType": "enum IRO.ProposerDriver",
									"name": "driver",
									"type": "uint8"
								}
							],
							"internalType": "struct Proposal.ProposerSetup",
							"name": "proposerSetup",
							"type": "tuple"
						},
						{
							"components": [
								{
									"internalType": "uint256",
									"name": "voteMinSupporters",
									"type": "uint256"
								},
								{
									"internalType": "string",
									"name": "voteMinApprovalPercent",
									"type": "string"
								},
								{
									"internalType": "uint256",
									"name": "voteDurationHours",
									"type": "uint256"
								},
								{
									"internalType": "uint256",
									"name": "voteEndTime",
									"type": "uint256"
								}
							],
							"internalType": "struct Proposal.VoterSetup",
							"name": "voteSetup",
							"type": "tuple"
						},
						{
							"internalType": "uint256",
							"name": "blockTime",
							"type": "uint256"
						},
						{
							"internalType": "address",
							"name": "proposer",
							"type": "address"
						}
					],
					"indexed": false,
					"internalType": "struct Proposal.ProposalDetail",
					"name": "proposal",
					"type": "tuple"
				},
				{
					"components": [
						{
							"internalType": "uint256",
							"name": "index",
							"type": "uint256"
						},
						{
							"internalType": "uint256",
							"name": "token",
							"type": "uint256"
						},
						{
							"internalType": "string",
							"name": "terms",
							"type": "string"
						}
					],
					"indexed": false,
					"internalType": "struct Proposal.PaymentDetail[]",
					"name": "paymentDetails",
					"type": "tuple[]"
				}
			],
			"name": "accepted",
			"type": "event"
		},
		{
			"anonymous": false,
			"inputs": [
				{
					"indexed": true,
					"internalType": "string",
					"name": "id",
					"type": "string"
				},
				{
					"indexed": false,
					"internalType": "enum Proposal.ProposalStatus",
					"name": "original",
					"type": "uint8"
				},
				{
					"indexed": false,
					"internalType": "enum Proposal.ProposalStatus",
					"name": "target",
					"type": "uint8"
				}
			],
			"name": "statusChanged",
			"type": "event"
		},
		{
			"anonymous": false,
			"inputs": [
				{
					"indexed": true,
					"internalType": "string",
					"name": "id",
					"type": "string"
				},
				{
					"components": [
						{
							"internalType": "string",
							"name": "discoId",
							"type": "string"
						},
						{
							"internalType": "string",
							"name": "serialId",
							"type": "string"
						},
						{
							"internalType": "address",
							"name": "voter",
							"type": "address"
						},
						{
							"internalType": "uint256",
							"name": "pos",
							"type": "uint256"
						},
						{
							"internalType": "uint256",
							"name": "neg",
							"type": "uint256"
						},
						{
							"internalType": "uint256",
							"name": "voteBt",
							"type": "uint256"
						}
					],
					"indexed": false,
					"internalType": "struct Proposal.Vote",
					"name": "v",
					"type": "tuple"
				}
			],
			"name": "voted",
			"type": "event"
		},
		{
			"constant": false,
			"inputs": [
				{
					"components": [
						{
							"internalType": "string",
							"name": "discoId",
							"type": "string"
						},
						{
							"internalType": "string",
							"name": "serialId",
							"type": "string"
						},
						{
							"internalType": "string",
							"name": "title",
							"type": "string"
						},
						{
							"internalType": "enum Proposal.ProposalStatus",
							"name": "status",
							"type": "uint8"
						},
						{
							"internalType": "enum Proposal.ProposalMode",
							"name": "mode",
							"type": "uint8"
						},
						{
							"internalType": "string",
							"name": "contact",
							"type": "string"
						},
						{
							"internalType": "string",
							"name": "description",
							"type": "string"
						},
						{
							"components": [
								{
									"internalType": "address",
									"name": "payer",
									"type": "address"
								},
								{
									"internalType": "enum Proposal.PaymentMode",
									"name": "mode",
									"type": "uint8"
								},
								{
									"internalType": "uint256",
									"name": "totalMonths",
									"type": "uint256"
								},
								{
									"internalType": "string",
									"name": "date",
									"type": "string"
								},
								{
									"internalType": "uint256",
									"name": "paymentAmount",
									"type": "uint256"
								},
								{
									"internalType": "uint256",
									"name": "totalAmount",
									"type": "uint256"
								},
								{
									"internalType": "contract IERC20",
									"name": "token",
									"type": "address"
								},
								{
									"internalType": "contract FundPool",
									"name": "pool",
									"type": "address"
								}
							],
							"internalType": "struct Proposal.Payment",
							"name": "payment",
							"type": "tuple"
						},
						{
							"components": [
								{
									"internalType": "enum IRO.ProposerDriver",
									"name": "driver",
									"type": "uint8"
								}
							],
							"internalType": "struct Proposal.ProposerSetup",
							"name": "proposerSetup",
							"type": "tuple"
						},
						{
							"components": [
								{
									"internalType": "uint256",
									"name": "voteMinSupporters",
									"type": "uint256"
								},
								{
									"internalType": "string",
									"name": "voteMinApprovalPercent",
									"type": "string"
								},
								{
									"internalType": "uint256",
									"name": "voteDurationHours",
									"type": "uint256"
								},
								{
									"internalType": "uint256",
									"name": "voteEndTime",
									"type": "uint256"
								}
							],
							"internalType": "struct Proposal.VoterSetup",
							"name": "voteSetup",
							"type": "tuple"
						},
						{
							"internalType": "uint256",
							"name": "blockTime",
							"type": "uint256"
						},
						{
							"internalType": "address",
							"name": "proposer",
							"type": "address"
						}
					],
					"internalType": "struct Proposal.ProposalDetail",
					"name": "proposal",
					"type": "tuple"
				},
				{
					"components": [
						{
							"internalType": "uint256",
							"name": "index",
							"type": "uint256"
						},
						{
							"internalType": "uint256",
							"name": "token",
							"type": "uint256"
						},
						{
							"internalType": "string",
							"name": "terms",
							"type": "string"
						}
					],
					"internalType": "struct Proposal.PaymentDetail[]",
					"name": "paymentDetails",
					"type": "tuple[]"
				}
			],
			"name": "accept",
			"outputs": [
				{
					"components": [
						{
							"internalType": "string",
							"name": "discoId",
							"type": "string"
						},
						{
							"internalType": "string",
							"name": "serialId",
							"type": "string"
						},
						{
							"internalType": "string",
							"name": "title",
							"type": "string"
						},
						{
							"internalType": "enum Proposal.ProposalStatus",
							"name": "status",
							"type": "uint8"
						},
						{
							"internalType": "enum Proposal.ProposalMode",
							"name": "mode",
							"type": "uint8"
						},
						{
							"internalType": "string",
							"name": "contact",
							"type": "string"
						},
						{
							"internalType": "string",
							"name": "description",
							"type": "string"
						},
						{
							"components": [
								{
									"internalType": "address",
									"name": "payer",
									"type": "address"
								},
								{
									"internalType": "enum Proposal.PaymentMode",
									"name": "mode",
									"type": "uint8"
								},
								{
									"internalType": "uint256",
									"name": "totalMonths",
									"type": "uint256"
								},
								{
									"internalType": "string",
									"name": "date",
									"type": "string"
								},
								{
									"internalType": "uint256",
									"name": "paymentAmount",
									"type": "uint256"
								},
								{
									"internalType": "uint256",
									"name": "totalAmount",
									"type": "uint256"
								},
								{
									"internalType": "contract IERC20",
									"name": "token",
									"type": "address"
								},
								{
									"internalType": "contract FundPool",
									"name": "pool",
									"type": "address"
								}
							],
							"internalType": "struct Proposal.Payment",
							"name": "payment",
							"type": "tuple"
						},
						{
							"components": [
								{
									"internalType": "enum IRO.ProposerDriver",
									"name": "driver",
									"type": "uint8"
								}
							],
							"internalType": "struct Proposal.ProposerSetup",
							"name": "proposerSetup",
							"type": "tuple"
						},
						{
							"components": [
								{
									"internalType": "uint256",
									"name": "voteMinSupporters",
									"type": "uint256"
								},
								{
									"internalType": "string",
									"name": "voteMinApprovalPercent",
									"type": "string"
								},
								{
									"internalType": "uint256",
									"name": "voteDurationHours",
									"type": "uint256"
								},
								{
									"internalType": "uint256",
									"name": "voteEndTime",
									"type": "uint256"
								}
							],
							"internalType": "struct Proposal.VoterSetup",
							"name": "voteSetup",
							"type": "tuple"
						},
						{
							"internalType": "uint256",
							"name": "blockTime",
							"type": "uint256"
						},
						{
							"internalType": "address",
							"name": "proposer",
							"type": "address"
						}
					],
					"internalType": "struct Proposal.ProposalDetail",
					"name": "",
					"type": "tuple"
				}
			],
			"payable": true,
			"stateMutability": "payable",
			"type": "function"
		},
		{
			"constant": false,
			"inputs": [
				{
					"internalType": "string",
					"name": "id",
					"type": "string"
				},
				{
					"internalType": "string",
					"name": "serialId",
					"type": "string"
				},
				{
					"internalType": "enum Proposal.ProposalStatus",
					"name": "target",
					"type": "uint8"
				}
			],
			"name": "decide",
			"outputs": [],
			"payable": false,
			"stateMutability": "nonpayable",
			"type": "function"
		},
		{
			"constant": true,
			"inputs": [
				{
					"internalType": "string",
					"name": "id",
					"type": "string"
				}
			],
			"name": "discoProposalCount",
			"outputs": [
				{
					"internalType": "uint256",
					"name": "",
					"type": "uint256"
				}
			],
			"payable": false,
			"stateMutability": "view",
			"type": "function"
		},
		{
			"constant": false,
			"inputs": [
				{
					"components": [
						{
							"internalType": "string",
							"name": "discoId",
							"type": "string"
						},
						{
							"internalType": "string",
							"name": "serialId",
							"type": "string"
						},
						{
							"internalType": "address",
							"name": "voter",
							"type": "address"
						},
						{
							"internalType": "uint256",
							"name": "pos",
							"type": "uint256"
						},
						{
							"internalType": "uint256",
							"name": "neg",
							"type": "uint256"
						},
						{
							"internalType": "uint256",
							"name": "voteBt",
							"type": "uint256"
						}
					],
					"internalType": "struct Proposal.Vote",
					"name": "v",
					"type": "tuple"
				}
			],
			"name": "doVote",
			"outputs": [],
			"payable": true,
			"stateMutability": "payable",
			"type": "function"
		},
		{
			"constant": false,
			"inputs": [
				{
					"components": [
						{
							"internalType": "string",
							"name": "discoId",
							"type": "string"
						},
						{
							"internalType": "string",
							"name": "serialId",
							"type": "string"
						},
						{
							"internalType": "string",
							"name": "title",
							"type": "string"
						},
						{
							"internalType": "enum Proposal.ProposalStatus",
							"name": "status",
							"type": "uint8"
						},
						{
							"internalType": "enum Proposal.ProposalMode",
							"name": "mode",
							"type": "uint8"
						},
						{
							"internalType": "string",
							"name": "contact",
							"type": "string"
						},
						{
							"internalType": "string",
							"name": "description",
							"type": "string"
						},
						{
							"components": [
								{
									"internalType": "address",
									"name": "payer",
									"type": "address"
								},
								{
									"internalType": "enum Proposal.PaymentMode",
									"name": "mode",
									"type": "uint8"
								},
								{
									"internalType": "uint256",
									"name": "totalMonths",
									"type": "uint256"
								},
								{
									"internalType": "string",
									"name": "date",
									"type": "string"
								},
								{
									"internalType": "uint256",
									"name": "paymentAmount",
									"type": "uint256"
								},
								{
									"internalType": "uint256",
									"name": "totalAmount",
									"type": "uint256"
								},
								{
									"internalType": "contract IERC20",
									"name": "token",
									"type": "address"
								},
								{
									"internalType": "contract FundPool",
									"name": "pool",
									"type": "address"
								}
							],
							"internalType": "struct Proposal.Payment",
							"name": "payment",
							"type": "tuple"
						},
						{
							"components": [
								{
									"internalType": "enum IRO.ProposerDriver",
									"name": "driver",
									"type": "uint8"
								}
							],
							"internalType": "struct Proposal.ProposerSetup",
							"name": "proposerSetup",
							"type": "tuple"
						},
						{
							"components": [
								{
									"internalType": "uint256",
									"name": "voteMinSupporters",
									"type": "uint256"
								},
								{
									"internalType": "string",
									"name": "voteMinApprovalPercent",
									"type": "string"
								},
								{
									"internalType": "uint256",
									"name": "voteDurationHours",
									"type": "uint256"
								},
								{
									"internalType": "uint256",
									"name": "voteEndTime",
									"type": "uint256"
								}
							],
							"internalType": "struct Proposal.VoterSetup",
							"name": "voteSetup",
							"type": "tuple"
						},
						{
							"internalType": "uint256",
							"name": "blockTime",
							"type": "uint256"
						},
						{
							"internalType": "address",
							"name": "proposer",
							"type": "address"
						}
					],
					"internalType": "struct Proposal.ProposalDetail",
					"name": "proposal",
					"type": "tuple"
				},
				{
					"components": [
						{
							"internalType": "uint256",
							"name": "index",
							"type": "uint256"
						},
						{
							"internalType": "uint256",
							"name": "token",
							"type": "uint256"
						},
						{
							"internalType": "string",
							"name": "terms",
							"type": "string"
						}
					],
					"internalType": "struct Proposal.PaymentDetail[]",
					"name": "paymentDetails",
					"type": "tuple[]"
				}
			],
			"name": "fullSet",
			"outputs": [
				{
					"components": [
						{
							"internalType": "string",
							"name": "discoId",
							"type": "string"
						},
						{
							"internalType": "string",
							"name": "serialId",
							"type": "string"
						},
						{
							"internalType": "string",
							"name": "title",
							"type": "string"
						},
						{
							"internalType": "enum Proposal.ProposalStatus",
							"name": "status",
							"type": "uint8"
						},
						{
							"internalType": "enum Proposal.ProposalMode",
							"name": "mode",
							"type": "uint8"
						},
						{
							"internalType": "string",
							"name": "contact",
							"type": "string"
						},
						{
							"internalType": "string",
							"name": "description",
							"type": "string"
						},
						{
							"components": [
								{
									"internalType": "address",
									"name": "payer",
									"type": "address"
								},
								{
									"internalType": "enum Proposal.PaymentMode",
									"name": "mode",
									"type": "uint8"
								},
								{
									"internalType": "uint256",
									"name": "totalMonths",
									"type": "uint256"
								},
								{
									"internalType": "string",
									"name": "date",
									"type": "string"
								},
								{
									"internalType": "uint256",
									"name": "paymentAmount",
									"type": "uint256"
								},
								{
									"internalType": "uint256",
									"name": "totalAmount",
									"type": "uint256"
								},
								{
									"internalType": "contract IERC20",
									"name": "token",
									"type": "address"
								},
								{
									"internalType": "contract FundPool",
									"name": "pool",
									"type": "address"
								}
							],
							"internalType": "struct Proposal.Payment",
							"name": "payment",
							"type": "tuple"
						},
						{
							"components": [
								{
									"internalType": "enum IRO.ProposerDriver",
									"name": "driver",
									"type": "uint8"
								}
							],
							"internalType": "struct Proposal.ProposerSetup",
							"name": "proposerSetup",
							"type": "tuple"
						},
						{
							"components": [
								{
									"internalType": "uint256",
									"name": "voteMinSupporters",
									"type": "uint256"
								},
								{
									"internalType": "string",
									"name": "voteMinApprovalPercent",
									"type": "string"
								},
								{
									"internalType": "uint256",
									"name": "voteDurationHours",
									"type": "uint256"
								},
								{
									"internalType": "uint256",
									"name": "voteEndTime",
									"type": "uint256"
								}
							],
							"internalType": "struct Proposal.VoterSetup",
							"name": "voteSetup",
							"type": "tuple"
						},
						{
							"internalType": "uint256",
							"name": "blockTime",
							"type": "uint256"
						},
						{
							"internalType": "address",
							"name": "proposer",
							"type": "address"
						}
					],
					"internalType": "struct Proposal.ProposalDetail",
					"name": "",
					"type": "tuple"
				}
			],
			"payable": false,
			"stateMutability": "nonpayable",
			"type": "function"
		},
		{
			"constant": true,
			"inputs": [
				{
					"internalType": "string",
					"name": "id",
					"type": "string"
				},
				{
					"internalType": "string",
					"name": "serialId",
					"type": "string"
				}
			],
			"name": "proposalDetail",
			"outputs": [
				{
					"components": [
						{
							"internalType": "string",
							"name": "discoId",
							"type": "string"
						},
						{
							"internalType": "string",
							"name": "serialId",
							"type": "string"
						},
						{
							"internalType": "string",
							"name": "title",
							"type": "string"
						},
						{
							"internalType": "enum Proposal.ProposalStatus",
							"name": "status",
							"type": "uint8"
						},
						{
							"internalType": "enum Proposal.ProposalMode",
							"name": "mode",
							"type": "uint8"
						},
						{
							"internalType": "string",
							"name": "contact",
							"type": "string"
						},
						{
							"internalType": "string",
							"name": "description",
							"type": "string"
						},
						{
							"components": [
								{
									"internalType": "address",
									"name": "payer",
									"type": "address"
								},
								{
									"internalType": "enum Proposal.PaymentMode",
									"name": "mode",
									"type": "uint8"
								},
								{
									"internalType": "uint256",
									"name": "totalMonths",
									"type": "uint256"
								},
								{
									"internalType": "string",
									"name": "date",
									"type": "string"
								},
								{
									"internalType": "uint256",
									"name": "paymentAmount",
									"type": "uint256"
								},
								{
									"internalType": "uint256",
									"name": "totalAmount",
									"type": "uint256"
								},
								{
									"internalType": "contract IERC20",
									"name": "token",
									"type": "address"
								},
								{
									"internalType": "contract FundPool",
									"name": "pool",
									"type": "address"
								}
							],
							"internalType": "struct Proposal.Payment",
							"name": "payment",
							"type": "tuple"
						},
						{
							"components": [
								{
									"internalType": "enum IRO.ProposerDriver",
									"name": "driver",
									"type": "uint8"
								}
							],
							"internalType": "struct Proposal.ProposerSetup",
							"name": "proposerSetup",
							"type": "tuple"
						},
						{
							"components": [
								{
									"internalType": "uint256",
									"name": "voteMinSupporters",
									"type": "uint256"
								},
								{
									"internalType": "string",
									"name": "voteMinApprovalPercent",
									"type": "string"
								},
								{
									"internalType": "uint256",
									"name": "voteDurationHours",
									"type": "uint256"
								},
								{
									"internalType": "uint256",
									"name": "voteEndTime",
									"type": "uint256"
								}
							],
							"internalType": "struct Proposal.VoterSetup",
							"name": "voteSetup",
							"type": "tuple"
						},
						{
							"internalType": "uint256",
							"name": "blockTime",
							"type": "uint256"
						},
						{
							"internalType": "address",
							"name": "proposer",
							"type": "address"
						}
					],
					"internalType": "struct Proposal.ProposalDetail",
					"name": "",
					"type": "tuple"
				},
				{
					"components": [
						{
							"internalType": "uint256",
							"name": "index",
							"type": "uint256"
						},
						{
							"internalType": "uint256",
							"name": "token",
							"type": "uint256"
						},
						{
							"internalType": "string",
							"name": "terms",
							"type": "string"
						}
					],
					"internalType": "struct Proposal.PaymentDetail[]",
					"name": "paymentDetails",
					"type": "tuple[]"
				}
			],
			"payable": false,
			"stateMutability": "view",
			"type": "function"
		},
		{
			"constant": true,
			"inputs": [
				{
					"internalType": "string",
					"name": "id",
					"type": "string"
				},
				{
					"internalType": "string",
					"name": "serialId",
					"type": "string"
				}
			],
			"name": "proposalStatus",
			"outputs": [
				{
					"internalType": "enum Proposal.ProposalStatus",
					"name": "",
					"type": "uint8"
				}
			],
			"payable": false,
			"stateMutability": "view",
			"type": "function"
		},
		{
			"constant": false,
			"inputs": [
				{
					"internalType": "string",
					"name": "discoId",
					"type": "string"
				},
				{
					"internalType": "string",
					"name": "serialId",
					"type": "string"
				}
			],
			"name": "releaseProposal",
			"outputs": [],
			"payable": false,
			"stateMutability": "nonpayable",
			"type": "function"
		},
		{
			"constant": false,
			"inputs": [
				{
					"internalType": "address",
					"name": "_discoAddress",
					"type": "address"
				}
			],
			"name": "setDiscoBase",
			"outputs": [],
			"payable": false,
			"stateMutability": "nonpayable",
			"type": "function"
		},
		{
			"constant": false,
			"inputs": [
				{
					"internalType": "address",
					"name": "_iroAddress",
					"type": "address"
				}
			],
			"name": "setIROBase",
			"outputs": [],
			"payable": false,
			"stateMutability": "nonpayable",
			"type": "function"
		}
	]
}