{
	"data": {
		"bytecode": {
			"linkReferences": {
				"contracts/libraries/NumUtils.sol": {
					"NumUtils": [
						{
							"length": 20,
							"start": 4055
						}
					]
				}
			},
			"object": "60806040523480156200001157600080fd5b5060405162004eb338038062004eb38339810160408190526200003491620000c8565b600080546001600160a01b031916331790556200005a816001600160e01b036200006116565b5062000173565b6001600160a01b038116620000935760405162461bcd60e51b81526004016200008a906200012c565b60405180910390fd5b600180546001600160a01b0319166001600160a01b0392909216919091179055565b8051620000c28162000159565b92915050565b600060208284031215620000db57600080fd5b6000620000e98484620000b5565b949350505050565b6000620001006015836200013e565b7f69726f206164647265737320697320656d7074792e0000000000000000000000815260200192915050565b60208082528101620000c281620000f1565b90815260200190565b60006001600160a01b038216620000c2565b620001648162000147565b81146200017057600080fd5b50565b614d3080620001836000396000f3fe608060405260043610620000925760003560e01c8063474b58c21162000061578063474b58c2146200014757806359f7f240146200017b578063cee696c81462000192578063d46d6d8a14620001c6578063ffb135a814620001eb5762000092565b80630f5e18491462000097578063268d792c14620000be5780632b4a249f14620000ed5780633122fef11462000112575b600080fd5b348015620000a457600080fd5b50620000bc620000b6366004620037e7565b62000210565b005b620000d5620000cf366004620038e9565b6200063d565b604051620000e49190620043ef565b60405180910390f35b348015620000fa57600080fd5b50620000d56200010c366004620038e9565b62001371565b3480156200011f57600080fd5b506200013762000131366004620037e7565b6200176f565b604051620000e492919062004402565b3480156200015457600080fd5b506200016c62000166366004620037e7565b62001950565b604051620000e49190620042b1565b620000bc6200018c3660046200398f565b62001a05565b3480156200019f57600080fd5b50620001b7620001b1366004620037a2565b62001d34565b604051620000e491906200443e565b348015620001d357600080fd5b50620000bc620001e53660046200385c565b62001d61565b348015620001f857600080fd5b50620000bc6200020a3660046200373f565b6200214c565b6000546001600160a01b031633146200022857600080fd5b62000232620029f2565b620002a785858080601f01602080910402602001604051908101604052809392919081815260200183838082843760009201919091525050604080516020601f890181900481028201810190925287815292508791508690819084018382808284376000920191909152506200219792505050565b905083620002d25760405162461bcd60e51b8152600401620002c99062004383565b60405180910390fd5b600081606001516003811115620002e557fe5b1415620003065760405162461bcd60e51b8152600401620002c99062004371565b60008160e0015160c00151905060606200038a87878080601f01602080910402602001604051908101604052809392919081815260200183838082843760009201919091525050604080516020601f8b018190048102820181019092528981529250899150889081908401838280828437600092019190915250620027fd92505050565b90506060600582604051620003a091906200422d565b9081526020016040518091039020805480602002602001604051908101604052809291908181526020016000905b82821015620005725760008481526020908190206040805160068602909201805460026001821615610100026000190190911604601f8101859004909402830160e090810190925260c08301848152929390928492909184918401828280156200047c5780601f1062000450576101008083540402835291602001916200047c565b820191906000526020600020905b8154815290600101906020018083116200045e57829003601f168201915b50505050508152602001600182018054600181600116156101000203166002900480601f016020809104026020016040519081016040528092919081815260200182805460018160011615610100020316600290048015620005225780601f10620004f65761010080835404028352916020019162000522565b820191906000526020600020905b8154815290600101906020018083116200050457829003601f168201915b505050918352505060028201546001600160a01b031660208083019190915260038301546040830152600483015460608301526005909201546080909101529082526001929092019101620003ce565b5050505060e085810151015190915060005b825181101562000631576200059862002a77565b838281518110620005a557fe5b60200260200101519050826001600160a01b031663beabacc887836040015184608001518560600151016040518463ffffffff1660e01b8152600401620005ef9392919062004292565b600060405180830381600087803b1580156200060a57600080fd5b505af11580156200061f573d6000803e3d6000fd5b50506001909301925062000584915050565b50505050505050505050565b62000647620029f2565b6020830151516200066c5760405162461bcd60e51b8152600401620002c990620043a7565b8251516200068e5760405162461bcd60e51b8152600401620002c9906200434d565b600060028460000151604051620006a691906200422d565b90815260200160405180910390209050620006c0620029f2565b818560200151604051620006d591906200422d565b9081526040805160209281900383018120805460026001821615610100026000190190911604601f810185900490940282016101a09081019093526101808201848152919390928492918491840182828015620007765780601f106200074a5761010080835404028352916020019162000776565b820191906000526020600020905b8154815290600101906020018083116200075857829003601f168201915b50505050508152602001600182018054600181600116156101000203166002900480601f0160208091040260200160405190810160405280929190818152602001828054600181600116156101000203166002900480156200081c5780601f10620007f0576101008083540402835291602001916200081c565b820191906000526020600020905b815481529060010190602001808311620007fe57829003601f168201915b5050509183525050600282810180546040805160206001841615610100026000190190931694909404601f81018390048302850183019091528084529381019390830182828015620008b25780601f106200088657610100808354040283529160200191620008b2565b820191906000526020600020905b8154815290600101906020018083116200089457829003601f168201915b505050918352505060038281015460209092019160ff1690811115620008d457fe5b6003811115620008e057fe5b81526020016003820160019054906101000a900460ff1660068111156200090357fe5b60068111156200090f57fe5b815260048201805460408051602060026001851615610100026000190190941693909304601f8101849004840282018401909252818152938201939291830182828015620009a15780601f106200097557610100808354040283529160200191620009a1565b820191906000526020600020905b8154815290600101906020018083116200098357829003601f168201915b505050918352505060058201805460408051602060026001851615610100026000190190941693909304601f810184900484028201840190925281815293820193929183018282801562000a395780601f1062000a0d5761010080835404028352916020019162000a39565b820191906000526020600020905b81548152906001019060200180831162000a1b57829003601f168201915b50505091835250506040805161010081019091526006830180546001600160a01b0381168352602093840193830190600160a01b900460ff16600181111562000a7e57fe5b600181111562000a8a57fe5b815260200160018201548152602001600282018054600181600116156101000203166002900480601f01602080910402602001604051908101604052809291908181526020018280546001816001161561010002031660029004801562000b355780601f1062000b095761010080835404028352916020019162000b35565b820191906000526020600020905b81548152906001019060200180831162000b1757829003601f168201915b5050509183525050600382810154602080840191909152600484015460408085019190915260058501546001600160a01b0390811660608601526006909501549094166080909301929092529284528151808201909252600d85018054949091019391929091839160ff9091169081111562000bad57fe5b600381111562000bb957fe5b905250815260408051608081018252600e840180548252600f850180548451602060026001841615610100026000190190931692909204601f810183900483028201830190965285815295810195939492938186019390929183018282801562000c675780601f1062000c3b5761010080835404028352916020019162000c67565b820191906000526020600020905b81548152906001019060200180831162000c4957829003601f168201915b505050918352505060028201546020808301919091526003909201546040918201529183526012840154908301526013909201546001600160a01b03169101528051519091501562000ccd5760405162461bcd60e51b8152600401620002c99062004395565b62000cd762002ab6565b600154865160405163ef7ae53f60e01b81526001600160a01b039092169163ef7ae53f9162000d0991600401620042e0565b60006040518083038186803b15801562000d2257600080fd5b505afa15801562000d37573d6000803e3d6000fd5b505050506040513d6000823e601f3d908101601f1916820160405262000d61919081019062003957565b80515190915062000d865760405162461bcd60e51b8152600401620002c99062004317565b62000d9062002af5565b50604081015160008151600381111562000da657fe5b141562000dc75760405162461bcd60e51b8152600401620002c99062004329565b60405180602001604052808260000151600381111562000de357fe5b905261010088015262000df562002b17565b50606082015160008151600381111562000e0b57fe5b141562000e2c5760405162461bcd60e51b8152600401620002c990620043cb565b61012088015160400151429060009062000ed95760a0830151604051631bd9515560e01b815273__$b7c937b1c964930440937011c7042b2cdd$__91631bd951559162000e7d9190600401620042e0565b60206040518083038186803b15801562000e9657600080fd5b505af415801562000eab573d6000803e3d6000fd5b505050506040513d601f19601f8201168201806040525062000ed19190810190620039c7565b905062000ee5565b50610120890151604001515b6040518060800160405280846060015181526020018460800151815260200182815260200182610e100284018152508a6101200181905250600062000f328660200151604001516200282b565b60e08c01516001600160a01b03821660c0909101529050606062000f568c620029dc565b90508060405162000f679062002b55565b62000f739190620042e0565b604051809103906000f08015801562000f90573d6000803e3d6000fd5b5060e0808e01516001600160a01b039092169101528a5160005b81811015620010405760038360405162000fc591906200422d565b90815260200160405180910390208d828151811062000fe057fe5b602090810291909101810151825460018181018086556000958652948490208351600390930201918255828401519082015560408201518051929391926200102f926002850192019062002b63565b50506001909201915062000faa9050565b506101608d01516001600160a01b03166200105d57336101608e01525b6101408d0185905260208d01516040518e918c916200107d91906200422d565b90815260200160405180910390206000820151816000019080519060200190620010a992919062002b63565b506020828101518051620010c4926001850192019062002b63565b5060408201518051620010e291600284019160209091019062002b63565b5060608201518160030160006101000a81548160ff021916908360038111156200110857fe5b0217905550608082015160038201805461ff0019166101008360068111156200112d57fe5b021790555060a082015180516200114f91600484019160209091019062002b63565b5060c082015180516200116d91600584019160209091019062002b63565b5060e082015180516006830180546001600160a01b0319166001600160a01b0390921691909117808255602083015190829060ff60a01b1916600160a01b836001811115620011b857fe5b02179055506040820151600182015560608201518051620011e491600284019160209091019062002b63565b50608082015160038281019190915560a0830151600483015560c08301516005830180546001600160a01b03199081166001600160a01b039384161790915560e090940151600690930180549094169216919091179091556101008301518051600d8401805492939092839160ff199091169060019084908111156200126657fe5b021790555050506101208201518051600e830190815560208083015180516200129692600f870192019062002b63565b506040828101516002830155606090920151600390910155610140830151601283015561016090920151601390910180546001600160a01b0319166001600160a01b039092169190911790558d519051600491620012f4916200422d565b9081526040519081900360209081018220805460010190558e01516200131a916200422d565b60405180910390207f74b2e2a4d866c513222fe0222feef41e081ec60e6879885dd70b6b7a305c3c1e8e8e6040516200135592919062004402565b60405180910390a28c9a50505050505050505050505b92915050565b6200137b620029f2565b602083015151620013a05760405162461bcd60e51b8152600401620002c990620043a7565b825151620013c25760405162461bcd60e51b8152600401620002c9906200434d565b600060028460000151604051620013da91906200422d565b90815260200160405180910390209050838185602001516040516200140091906200422d565b908152602001604051809103902060008201518160000190805190602001906200142c92919062002b63565b50602082810151805162001447926001850192019062002b63565b50604082015180516200146591600284019160209091019062002b63565b5060608201518160030160006101000a81548160ff021916908360038111156200148b57fe5b0217905550608082015160038201805461ff001916610100836006811115620014b057fe5b021790555060a08201518051620014d291600484019160209091019062002b63565b5060c08201518051620014f091600584019160209091019062002b63565b5060e082015180516006830180546001600160a01b0319166001600160a01b0390921691909117808255602083015190829060ff60a01b1916600160a01b8360018111156200153b57fe5b021790555060408201516001820155606082015180516200156791600284019160209091019062002b63565b50608082015160038281019190915560a0830151600483015560c08301516005830180546001600160a01b03199081166001600160a01b039384161790915560e090940151600690930180549094169216919091179091556101008301518051600d8401805492939092839160ff19909116906001908490811115620015e957fe5b021790555050506101208201518051600e830190815560208083015180516200161992600f870192019062002b63565b5060408201516002820155606091820151600390910155610140830151601283015561016090920151601390910180546001600160a01b0319166001600160a01b039092169190911790556200166f85620029dc565b845190915060005b818110156200170d576003836040516200169291906200422d565b9081526020016040518091039020868281518110620016ad57fe5b60209081029190910181015182546001818101808655600095865294849020835160039093020191825582840151908201556040820151805192939192620016fc926002850192019062002b63565b505060019092019150620016779050565b5085602001516040516200172291906200422d565b60405180910390207f74b2e2a4d866c513222fe0222feef41e081ec60e6879885dd70b6b7a305c3c1e87876040516200175d92919062004402565b60405180910390a25093949350505050565b62001779620029f2565b606062001785620029f2565b620017fa87878080601f01602080910402602001604051908101604052809392919081815260200183838082843760009201919091525050604080516020601f8b0181900481028201810190925289815292508991508890819084018382808284376000920191909152506200219792505050565b905060606200180982620029dc565b9050816003826040516200181e91906200422d565b908152602001604051809103902080805480602002602001604051908101604052809291908181526020016000905b828210156200193b57838290600052602060002090600302016040518060600160405290816000820154815260200160018201548152602001600282018054600181600116156101000203166002900480601f016020809104026020016040519081016040528092919081815260200182805460018160011615610100020316600290048015620019225780601f10620018f65761010080835404028352916020019162001922565b820191906000526020600020905b8154815290600101906020018083116200190457829003601f168201915b505050505081525050815260200190600101906200184d565b50505050905093509350505094509492505050565b60006200195c620029f2565b620019d186868080601f01602080910402602001604051908101604052809392919081815260200183838082843760009201919091525050604080516020601f8a0181900481028201810190925288815292508891508790819084018382808284376000920191909152506200219792505050565b805151909150620019f65760405162461bcd60e51b8152600401620002c99062004383565b6060015190505b949350505050565b62001a0f620029f2565b62001a238260000151836020015162002197565b82515190915062001a485760405162461bcd60e51b8152600401620002c99062004383565b60008160600151600381111562001a5b57fe5b1462001a7b5760405162461bcd60e51b8152600401620002c990620043dd565b62001a8562002be8565b506101208101516060810151429081111562001ab55760405162461bcd60e51b8152600401620002c990620043b9565b600084608001518560600151011162001ae25760405162461bcd60e51b8152600401620002c9906200435f565b60008360e0015160c001519050806001600160a01b03166323b872dd338660e0015160e001516001600160a01b03166338cc48316040518163ffffffff1660e01b815260040160206040518083038186803b15801562001b4157600080fd5b505afa15801562001b56573d6000803e3d6000fd5b505050506040513d601f19601f8201168201806040525062001b7c919081019062003760565b88608001518960600151016040518463ffffffff1660e01b815260040162001ba79392919062004264565b602060405180830381600087803b15801562001bc257600080fd5b505af115801562001bd7573d6000803e3d6000fd5b505050506040513d601f19601f8201168201806040525062001bfd919081019062003781565b504260a08601523360408601528451602086015160609162001c1f91620027fd565b905060058160405162001c3391906200422d565b908152604051602091819003820190208054600181018083556000928352918390208951805193948b9460069094029092019262001c75928492019062002b63565b50602082810151805162001c90926001850192019062002b63565b506040828101516002830180546001600160a01b0319166001600160a01b03909216919091179055606083015160038301556080830151600483015560a0909201516005909101556020870151905162001ceb92506200422d565b60405180910390207f1fc2188cf86b2fdff0c37c3a4cc9ac40d660cb3ed78875f759054aa66515180f8760405162001d2491906200442b565b60405180910390a2505050505050565b60006004838360405162001d4a9291906200421e565b908152602001604051809103902054905092915050565b62001d6b620029f2565b62001de086868080601f01602080910402602001604051908101604052809392919081815260200183838082843760009201919091525050604080516020601f8a0181900481028201810190925288815292508891508790819084018382808284376000920191909152506200219792505050565b80515190915062001e055760405162461bcd60e51b8152600401620002c99062004305565b8060600151600381111562001e1657fe5b82600381111562001e2357fe5b1462002144576060810180519083600381111562001e3d57fe5b9081600381111562001e4b57fe5b905250815160405160009160029162001e6591906200422d565b908152602001604051809103902090508281878760405162001e899291906200421e565b9081526020016040518091039020600082015181600001908051906020019062001eb592919062002b63565b50602082810151805162001ed0926001850192019062002b63565b506040820151805162001eee91600284019160209091019062002b63565b5060608201518160030160006101000a81548160ff0219169083600381111562001f1457fe5b0217905550608082015160038201805461ff00191661010083600681111562001f3957fe5b021790555060a0820151805162001f5b91600484019160209091019062002b63565b5060c0820151805162001f7991600584019160209091019062002b63565b5060e082015180516006830180546001600160a01b0319166001600160a01b0390921691909117808255602083015190829060ff60a01b1916600160a01b83600181111562001fc457fe5b0217905550604082015160018201556060820151805162001ff091600284019160209091019062002b63565b50608082015160038281019190915560a0830151600483015560c08301516005830180546001600160a01b03199081166001600160a01b039384161790915560e090940151600690930180549094169216919091179091556101008301518051600d8401805492939092839160ff199091169060019084908111156200207257fe5b021790555050506101208201518051600e83019081556020808301518051620020a292600f870192019062002b63565b506040828101516002830155606090920151600390910155610140830151601283015561016090920151601390910180546001600160a01b0319166001600160a01b0390921691909117905551620020fe90899089906200421e565b60405180910390207f984b6675ffc22e1f752662b0ce0a6e95adb7944d816aa2d09e6995c9b20a198a838660405162002139929190620042c1565b60405180910390a250505b505050505050565b6001600160a01b038116620021755760405162461bcd60e51b8152600401620002c9906200433b565b600180546001600160a01b0319166001600160a01b0392909216919091179055565b620021a1620029f2565b8251620021c25760405162461bcd60e51b8152600401620002c990620042f3565b8151620021e35760405162461bcd60e51b8152600401620002c990620043a7565b6000600284604051620021f791906200422d565b9081526020016040518091039020905062002211620029f2565b81846040516200222291906200422d565b9081526040805160209281900383018120805460026001821615610100026000190190911604601f810185900490940282016101a09081019093526101808201848152919390928492918491840182828015620022c35780601f106200229757610100808354040283529160200191620022c3565b820191906000526020600020905b815481529060010190602001808311620022a557829003601f168201915b50505050508152602001600182018054600181600116156101000203166002900480601f016020809104026020016040519081016040528092919081815260200182805460018160011615610100020316600290048015620023695780601f106200233d5761010080835404028352916020019162002369565b820191906000526020600020905b8154815290600101906020018083116200234b57829003601f168201915b5050509183525050600282810180546040805160206001841615610100026000190190931694909404601f81018390048302850183019091528084529381019390830182828015620023ff5780601f10620023d357610100808354040283529160200191620023ff565b820191906000526020600020905b815481529060010190602001808311620023e157829003601f168201915b505050918352505060038281015460209092019160ff16908111156200242157fe5b60038111156200242d57fe5b81526020016003820160019054906101000a900460ff1660068111156200245057fe5b60068111156200245c57fe5b815260048201805460408051602060026001851615610100026000190190941693909304601f8101849004840282018401909252818152938201939291830182828015620024ee5780601f10620024c257610100808354040283529160200191620024ee565b820191906000526020600020905b815481529060010190602001808311620024d057829003601f168201915b505050918352505060058201805460408051602060026001851615610100026000190190941693909304601f8101849004840282018401909252818152938201939291830182828015620025865780601f106200255a5761010080835404028352916020019162002586565b820191906000526020600020905b8154815290600101906020018083116200256857829003601f168201915b50505091835250506040805161010081019091526006830180546001600160a01b0381168352602093840193830190600160a01b900460ff166001811115620025cb57fe5b6001811115620025d757fe5b815260200160018201548152602001600282018054600181600116156101000203166002900480601f016020809104026020016040519081016040528092919081815260200182805460018160011615610100020316600290048015620026825780601f10620026565761010080835404028352916020019162002682565b820191906000526020600020905b8154815290600101906020018083116200266457829003601f168201915b5050509183525050600382810154602080840191909152600484015460408085019190915260058501546001600160a01b0390811660608601526006909501549094166080909301929092529284528151808201909252600d85018054949091019391929091839160ff90911690811115620026fa57fe5b60038111156200270657fe5b905250815260408051608081018252600e840180548252600f850180548451602060026001841615610100026000190190931692909204601f8101839004830282018301909652858152958101959394929381860193909291830182828015620027b45780601f106200278857610100808354040283529160200191620027b4565b820191906000526020600020905b8154815290600101906020018083116200279657829003601f168201915b505050918352505060028201546020808301919091526003909201546040918201529183526012840154908301526013909201546001600160a01b031691015295945050505050565b60608282604051602001620028149291906200423b565b604051602081830303815290604052905092915050565b60008181808060025b602a811015620029cf57610100840293508481815181106200285257fe5b0160200151855160f89190911c93508590600183019081106200287157fe5b016020015160f81c915060616001600160a01b03841610801590620028a057506066836001600160a01b031611155b15620028b2576057830392506200291b565b6041836001600160a01b031610158015620028d757506046836001600160a01b031611155b15620028e9576037830392506200291b565b6030836001600160a01b0316101580156200290e57506039836001600160a01b031611155b156200291b576030830392505b6061826001600160a01b0316101580156200294057506066826001600160a01b031611155b156200295257605782039150620029bb565b6041826001600160a01b0316101580156200297757506046826001600160a01b031611155b156200298957603782039150620029bb565b6030826001600160a01b031610158015620029ae57506039826001600160a01b031611155b15620029bb576030820391505b601083028201939093019260020162002834565b509193505050505b919050565b60606200136b82600001518360200151620027fd565b6040518061018001604052806060815260200160608152602001606081526020016000600381111562002a2157fe5b815260200160008152602001606081526020016060815260200162002a4562002c10565b815260200162002a5462002c68565b815260200162002a6362002be8565b815260006020820181905260409091015290565b6040518060c00160405280606081526020016060815260200160006001600160a01b031681526020016000815260200160008152602001600081525090565b60405180608001604052806060815260200162002ad262002c7c565b815260200162002ae162002af5565b815260200162002af062002b17565b905290565b6040805160608101909152806000815260200160008152602001606081525090565b6040805160e0810190915280600081526020016060815260200160608152602001600081526020016060815260200160608152602001606081525090565b6106ce806200462083390190565b828054600181600116156101000203166002900490600052602060002090601f016020900481019282601f1062002ba657805160ff191683800117855562002bd6565b8280016001018555821562002bd6579182015b8281111562002bd657825182559160200191906001019062002bb9565b5062002be492915062002ca4565b5090565b6040518060800160405280600081526020016060815260200160008152602001600081525090565b6040805161010081019091526000808252602082019081526020016000815260200160608152602001600081526020016000815260200160006001600160a01b0316815260200160006001600160a01b031681525090565b604080516020810190915280600062002af0565b6040518060800160405280606081526020016060815260200160608152602001606081525090565b62002cc191905b8082111562002be4576000815560010162002cab565b90565b80356200136b81620045bd565b80516200136b81620045bd565b600082601f83011262002cf057600080fd5b815162002d0762002d018262004475565b6200444e565b9150818183526020840193506020810190508385602084028201111562002d2d57600080fd5b60005b8381101562002d5d578162002d46888262002cd1565b845250602092830192919091019060010162002d30565b5050505092915050565b600082601f83011262002d7957600080fd5b813562002d8a62002d018262004475565b81815260209384019390925082018360005b8381101562002d5d578135860162002db5888262002f08565b845250602092830192919091019060010162002d9c565b80516200136b81620045d4565b80356200136b81620045df565b80356200136b81620045ea565b80356200136b81620045f8565b80356200136b8162004606565b80516200136b8162004606565b60008083601f84011262002e2d57600080fd5b5081356001600160401b0381111562002e4557600080fd5b60208301915083600182028301111562002e5e57600080fd5b9250929050565b600082601f83011262002e7757600080fd5b813562002e8862002d018262004496565b9150808252602083016020830185838301111562002ea557600080fd5b62002eb283828462004554565b50505092915050565b600082601f83011262002ecd57600080fd5b815162002ede62002d018262004496565b9150808252602083016020830185838301111562002efb57600080fd5b62002eb283828462004560565b60006060828403121562002f1b57600080fd5b62002f2760606200444e565b9050600062002f37848462003725565b825250602062002f4a8484830162003725565b60208301525060408201356001600160401b0381111562002f6a57600080fd5b62002f788482850162002e65565b60408301525092915050565b6000610100828403121562002f9857600080fd5b62002fa56101006200444e565b9050600062002fb5848462002cc4565b825250602062002fc88484830162002de6565b602083015250604062002fde8482850162003725565b60408301525060608201356001600160401b0381111562002ffe57600080fd5b6200300c8482850162002e65565b6060830152506080620030228482850162003725565b60808301525060a0620030388482850162003725565b60a08301525060c06200304e8482850162002dd9565b60c08301525060e0620030648482850162002dd9565b60e08301525092915050565b600061018082840312156200308457600080fd5b620030916101806200444e565b905081356001600160401b03811115620030aa57600080fd5b620030b88482850162002e65565b82525060208201356001600160401b03811115620030d557600080fd5b620030e38482850162002e65565b60208301525060408201356001600160401b038111156200310357600080fd5b620031118482850162002e65565b6040830152506060620031278482850162002e00565b60608301525060806200313d8482850162002df3565b60808301525060a08201356001600160401b038111156200315d57600080fd5b6200316b8482850162002e65565b60a08301525060c08201356001600160401b038111156200318b57600080fd5b620031998482850162002e65565b60c08301525060e08201356001600160401b03811115620031b957600080fd5b620031c78482850162002f84565b60e083015250610100620031de84828501620032bb565b610100830152506101208201356001600160401b038111156200320057600080fd5b6200320e84828501620036a4565b61012083015250610140620032268482850162003725565b610140830152506101606200323e8482850162002cc4565b6101608301525092915050565b6000606082840312156200325e57600080fd5b6200326a60606200444e565b905060006200327a848462002e0d565b82525060206200328d8484830162003732565b60208301525060408201516001600160401b03811115620032ad57600080fd5b62002f788482850162002cde565b600060208284031215620032ce57600080fd5b620032da60206200444e565b90506000620032ea848462002e00565b82525092915050565b6000608082840312156200330657600080fd5b6200331260806200444e565b82519091506001600160401b038111156200332c57600080fd5b6200333a8482850162002ebb565b82525060208201516001600160401b038111156200335757600080fd5b6200336584828501620033cd565b60208301525060408201516001600160401b038111156200338557600080fd5b62003393848285016200324b565b60408301525060608201516001600160401b03811115620033b357600080fd5b620033c18482850162003570565b60608301525092915050565b600060808284031215620033e057600080fd5b620033ec60806200444e565b82519091506001600160401b038111156200340657600080fd5b620034148482850162002ebb565b82525060208201516001600160401b038111156200343157600080fd5b6200343f8482850162002ebb565b60208301525060408201516001600160401b038111156200345f57600080fd5b6200346d8482850162002ebb565b60408301525060608201516001600160401b038111156200348d57600080fd5b620033c18482850162002cde565b600060c08284031215620034ae57600080fd5b620034ba60c06200444e565b905081356001600160401b03811115620034d357600080fd5b620034e18482850162002e65565b82525060208201356001600160401b03811115620034fe57600080fd5b6200350c8482850162002e65565b6020830152506040620035228482850162002cc4565b6040830152506060620035388482850162003725565b60608301525060806200354e8482850162003725565b60808301525060a0620035648482850162003725565b60a08301525092915050565b600060e082840312156200358357600080fd5b6200358f60e06200444e565b905060006200359f848462002e0d565b82525060208201516001600160401b03811115620035bc57600080fd5b620035ca8482850162002ebb565b60208301525060408201516001600160401b03811115620035ea57600080fd5b620035f88482850162002cde565b60408301525060606200360e8482850162003732565b60608301525060808201516001600160401b038111156200362e57600080fd5b6200363c8482850162002ebb565b60808301525060a08201516001600160401b038111156200365c57600080fd5b6200366a8482850162002ebb565b60a08301525060c08201516001600160401b038111156200368a57600080fd5b620036988482850162002ebb565b60c08301525092915050565b600060808284031215620036b757600080fd5b620036c360806200444e565b90506000620036d3848462003725565b82525060208201356001600160401b03811115620036f057600080fd5b620036fe8482850162002e65565b6020830152506040620037148482850162003725565b6040830152506060620033c1848285015b80356200136b8162004614565b80516200136b8162004614565b6000602082840312156200375257600080fd5b6000620019fd848462002cc4565b6000602082840312156200377357600080fd5b6000620019fd848462002cd1565b6000602082840312156200379457600080fd5b6000620019fd848462002dcc565b60008060208385031215620037b657600080fd5b82356001600160401b03811115620037cd57600080fd5b620037db8582860162002e1a565b92509250509250929050565b60008060008060408587031215620037fe57600080fd5b84356001600160401b038111156200381557600080fd5b620038238782880162002e1a565b945094505060208501356001600160401b038111156200384257600080fd5b620038508782880162002e1a565b95989497509550505050565b6000806000806000606086880312156200387557600080fd5b85356001600160401b038111156200388c57600080fd5b6200389a8882890162002e1a565b955095505060208601356001600160401b03811115620038b957600080fd5b620038c78882890162002e1a565b93509350506040620038dc8882890162002e00565b9150509295509295909350565b60008060408385031215620038fd57600080fd5b82356001600160401b038111156200391457600080fd5b620039228582860162003070565b92505060208301356001600160401b038111156200393f57600080fd5b6200394d8582860162002d67565b9150509250929050565b6000602082840312156200396a57600080fd5b81516001600160401b038111156200398157600080fd5b620019fd84828501620032f3565b600060208284031215620039a257600080fd5b81356001600160401b03811115620039b957600080fd5b620019fd848285016200349b565b600060208284031215620039da57600080fd5b6000620019fd848462003732565b6000620039f6838362003eda565b9392505050565b62003a088162004520565b82525050565b62003a0881620044d1565b600062003a2682620044c4565b62003a328185620044c8565b93508360208202850162003a4685620044be565b8060005b8581101562003a86578484038952815162003a668582620039e8565b945062003a7383620044be565b60209a909a019992505060010162003a4a565b5091979650505050505050565b62003a0881620044e3565b62003a08816200452d565b62003a08816200453a565b62003a088162004547565b600062003acd8385620029d7565b935062003adc83858462004554565b50500190565b600062003aef82620044c4565b62003afb8185620044c8565b935062003b0d81856020860162004560565b62003b18816200458f565b9093019392505050565b600062003b2f82620044c4565b62003b3b8185620029d7565b935062003b4d81856020860162004560565b9290920192915050565b600062003b66601083620044c8565b6f69726f20696420697320656d7074792160801b815260200192915050565b600062003b94601183620044c8565b70383937b837b9b0b61036b4b9b9b4b7339760791b815260200192915050565b600062003bc3601883620044c8565b7f626173652073657474696e67206e6f74206578697374732e0000000000000000815260200192915050565b600062003bfe601c83620044c8565b7f70726f706f7365722073657474696e67206e6f74206578697374732e00000000815260200192915050565b600062003c39601583620044c8565b7434b9379030b2323932b9b99034b99032b6b83a3c9760591b815260200192915050565b600062003c6c601883620044c8565b7f70726f706f73616c2069726f496420697320656d707479210000000000000000815260200192915050565b600062003ca7601e83620044c8565b7f6120696e76616c696420766f74652c20766f7465206e756d203c3d20302e0000815260200192915050565b600062003ce2602383620044c8565b7f7468652070726f706f73616c20636f756c64206e6f742062652072656c65617381526232b21760e91b602082015260400192915050565b600062003d29601e83620044c8565b7f70726f706f73616c206d697373696e672c20636865636b2066697273742e0000815260200192915050565b600062003d64603f83620044c8565b7f70726f706f73616c20616c7265616479206578697374732c20706c656173652081527f7265706c61636520776974682074686520636f6e7472616374206f776e657200602082015260400192915050565b600062003dc5601b83620044c8565b7f70726f706f73616c2073657269616c496420697320656d707479210000000000815260200192915050565b600062003e00601083620044c8565b6f3b37ba329034b99032bc3834b932b21760811b815260200192915050565b600062003e2e601983620044c8565b7f766f7465722073657474696e67206e6f74206578697374732e00000000000000815260200192915050565b600062003e69600183620029d7565b600160fe1b815260010192915050565b600062003e88603a83620044c8565b7f7468652070726f706f73616c20636f756c64206e6f7420626520766f7465642081527f7768656e20737461747573206973206e6f7420766f74696e672e000000000000602082015260400192915050565b8051600090606084019062003ef0858262004213565b50602083015162003f05602086018262004213565b506040830151848203604086015262003f1f828262003ae2565b95945050505050565b805160009061010084019062003f3f858262003a0e565b50602083015162003f54602086018262003a9e565b50604083015162003f69604086018262004213565b506060830151848203606086015262003f83828262003ae2565b915050608083015162003f9a608086018262004213565b5060a083015162003faf60a086018262004213565b5060c083015162003fc460c086018262003a93565b5060e083015162003fd960e086018262003a93565b509392505050565b80516101808084526000919084019062003ffc828262003ae2565b9150506020830151848203602086015262004018828262003ae2565b9150506040830151848203604086015262004034828262003ae2565b91505060608301516200404b606086018262003ab4565b50608083015162004060608086018262003aa9565b5060a083015184820360a08601526200407a828262003ae2565b91505060c083015184820360c086015262004096828262003ae2565b91505060e083015184820360e0860152620040b2828262003f28565b915050610100830151620040cb61010086018262004117565b50610120830151848203610120860152620040e78282620041bc565b9150506101408301516200410061014086018262004213565b5061016083015162003fd961016086018262003a0e565b805160208301906200412a848262003ab4565b50505050565b805160c0808452600091908401906200414a828262003ae2565b9150506020830151848203602086015262004166828262003ae2565b91505060408301516200417d604086018262003a0e565b50606083015162004192606086018262004213565b506080830151620041a7608086018262004213565b5060a083015162003fd960a086018262004213565b80516000906080840190620041d2858262004213565b5060208301518482036020860152620041ec828262003ae2565b915050604083015162004203604086018262004213565b50606083015162003fd960608601825b62003a088162002cc1565b6000620019fd82848662003abf565b6000620039f6828462003b22565b600062004249828562003b22565b9150620042568262003e5a565b9150620019fd828462003b22565b60608101620042748286620039fd565b620042836020830185620039fd565b620019fd604083018462004213565b60608101620042a2828662003a93565b62004283602083018562003a0e565b602081016200136b828462003ab4565b60408101620042d1828562003ab4565b620039f6602083018462003ab4565b60208082528101620039f6818462003ae2565b602080825281016200136b8162003b57565b602080825281016200136b8162003b85565b602080825281016200136b8162003bb4565b602080825281016200136b8162003bef565b602080825281016200136b8162003c2a565b602080825281016200136b8162003c5d565b602080825281016200136b8162003c98565b602080825281016200136b8162003cd3565b602080825281016200136b8162003d1a565b602080825281016200136b8162003d55565b602080825281016200136b8162003db6565b602080825281016200136b8162003df1565b602080825281016200136b8162003e1f565b602080825281016200136b8162003e79565b60208082528101620039f6818462003fe1565b6040808252810162004415818562003fe1565b90508181036020830152620019fd818462003a19565b60208082528101620039f6818462004130565b602081016200136b828462004213565b6040518181016001600160401b03811182821017156200446d57600080fd5b604052919050565b60006001600160401b038211156200448c57600080fd5b5060209081020190565b60006001600160401b03821115620044ad57600080fd5b506020601f91909101601f19160190565b60200190565b5190565b90815260200190565b60006200136b8262004514565b151590565b60006200136b82620044d1565b80620029d78162004599565b80620029d781620045a7565b80620029d781620045b2565b6001600160a01b031690565b60006200136b82620044e3565b60006200136b82620044f0565b60006200136b82620044fc565b60006200136b8262004508565b82818337506000910152565b60005b838110156200457d57818101518382015260200162004563565b838111156200412a5750506000910152565b601f01601f191690565b60028110620045a457fe5b50565b60078110620045a457fe5b60048110620045a457fe5b620045c881620044d1565b8114620045a457600080fd5b620045c881620044de565b620045c881620044e3565b60028110620045a457600080fd5b60078110620045a457600080fd5b60048110620045a457600080fd5b620045c88162002cc156fe608060405234801561001057600080fd5b506040516106ce3803806106ce83398101604081905261002f91610138565b8051610042906000906020840190610049565b50506101f1565b828054600181600116156101000203166002900490600052602060002090601f016020900481019282601f1061008a57805160ff19168380011785556100b7565b828001600101855582156100b7579182015b828111156100b757825182559160200191906001019061009c565b506100c39291506100c7565b5090565b6100e191905b808211156100c357600081556001016100cd565b90565b600082601f8301126100f557600080fd5b81516101086101038261019a565b610174565b9150808252602083016020830185838301111561012457600080fd5b61012f8382846101c1565b50505092915050565b60006020828403121561014a57600080fd5b81516001600160401b0381111561016057600080fd5b61016c848285016100e4565b949350505050565b6040518181016001600160401b038111828210171561019257600080fd5b604052919050565b60006001600160401b038211156101b057600080fd5b506020601f91909101601f19160190565b60005b838110156101dc5781810151838201526020016101c4565b838111156101eb576000848401525b50505050565b6104ce806102006000396000f3fe60806040526004361061004a5760003560e01c806338cc48311461004c5780634f95a04b14610077578063beabacc81461008a578063e1f21c67146100aa578063fb1e6a62146100ca575b005b34801561005857600080fd5b506100616100ec565b60405161006e91906103a7565b60405180910390f35b61004a6100853660046102aa565b6100f0565b34801561009657600080fd5b5061004a6100a536600461030a565b61012b565b3480156100b657600080fd5b5061004a6100c536600461030a565b6101b4565b3480156100d657600080fd5b506100df6101e2565b60405161006e91906103d7565b3090565b6040516001600160a01b0383169082156108fc029083906000818181858888f19350505050158015610126573d6000803e3d6000fd5b505050565b60405163a9059cbb60e01b81526001600160a01b0384169063a9059cbb9061015990859085906004016103b5565b602060405180830381600087803b15801561017357600080fd5b505af1158015610187573d6000803e3d6000fd5b505050506040513d601f19601f820116820180604052506101ab91908101906102e4565b61012657600080fd5b60405163095ea7b360e01b81526001600160a01b0384169063095ea7b39061015990859085906004016103b5565b60008054604080516020601f600260001961010060018816150201909516949094049384018190048102820181019092528281526060939092909183018282801561026e5780601f106102435761010080835404028352916020019161026e565b820191906000526020600020905b81548152906001019060200180831161025157829003601f168201915b5050505050905090565b803561028381610459565b92915050565b805161028381610470565b803561028381610479565b803561028381610482565b600080604083850312156102bd57600080fd5b60006102c98585610278565b92505060206102da8582860161029f565b9150509250929050565b6000602082840312156102f657600080fd5b60006103028484610289565b949350505050565b60008060006060848603121561031f57600080fd5b600061032b8686610294565b935050602061033c86828701610278565b925050604061034d8682870161029f565b9150509250925092565b610360816103f5565b82525050565b6000610371826103e8565b61037b81856103ec565b935061038b81856020860161041f565b6103948161044f565b9093019392505050565b6103608161041c565b602081016102838284610357565b604081016103c38285610357565b6103d0602083018461039e565b9392505050565b602080825281016103d08184610366565b5190565b90815260200190565b600061028382610410565b151590565b6000610283826103f5565b6001600160a01b031690565b90565b60005b8381101561043a578181015183820152602001610422565b83811115610449576000848401525b50505050565b601f01601f191690565b610462816103f5565b811461046d57600080fd5b50565b61046281610400565b61046281610405565b6104628161041c56fea365627a7a723158208bd67fbf75f63bdf64cdca5f69809ad9ad9a84ede138d878b066c95a750592976c6578706572696d656e74616cf564736f6c63430005100040a365627a7a72315820964c2beccc49f2307042efcfdbeedfdbdcc24c1b81f73e3f9c02ce4a1b021dc76c6578706572696d656e74616cf564736f6c63430005100040",
			"opcodes": "PUSH1 0x80 PUSH1 0x40 MSTORE CALLVALUE DUP1 ISZERO PUSH3 0x11 JUMPI PUSH1 0x0 DUP1 REVERT JUMPDEST POP PUSH1 0x40 MLOAD PUSH3 0x4EB3 CODESIZE SUB DUP1 PUSH3 0x4EB3 DUP4 CODECOPY DUP2 ADD PUSH1 0x40 DUP2 SWAP1 MSTORE PUSH3 0x34 SWAP2 PUSH3 0xC8 JUMP JUMPDEST PUSH1 0x0 DUP1 SLOAD PUSH1 0x1 PUSH1 0x1 PUSH1 0xA0 SHL SUB NOT AND CALLER OR SWAP1 SSTORE PUSH3 0x5A DUP2 PUSH1 0x1 PUSH1 0x1 PUSH1 0xE0 SHL SUB PUSH3 0x61 AND JUMP JUMPDEST POP PUSH3 0x173 JUMP JUMPDEST PUSH1 0x1 PUSH1 0x1 PUSH1 0xA0 SHL SUB DUP2 AND PUSH3 0x93 JUMPI PUSH1 0x40 MLOAD PUSH3 0x461BCD PUSH1 0xE5 SHL DUP2 MSTORE PUSH1 0x4 ADD PUSH3 0x8A SWAP1 PUSH3 0x12C JUMP JUMPDEST PUSH1 0x40 MLOAD DUP1 SWAP2 SUB SWAP1 REVERT JUMPDEST PUSH1 0x1 DUP1 SLOAD PUSH1 0x1 PUSH1 0x1 PUSH1 0xA0 SHL SUB NOT AND PUSH1 0x1 PUSH1 0x1 PUSH1 0xA0 SHL SUB SWAP3 SWAP1 SWAP3 AND SWAP2 SWAP1 SWAP2 OR SWAP1 SSTORE JUMP JUMPDEST DUP1 MLOAD PUSH3 0xC2 DUP2 PUSH3 0x159 JUMP JUMPDEST SWAP3 SWAP2 POP POP JUMP JUMPDEST PUSH1 0x0 PUSH1 0x20 DUP3 DUP5 SUB SLT ISZERO PUSH3 0xDB JUMPI PUSH1 0x0 DUP1 REVERT JUMPDEST PUSH1 0x0 PUSH3 0xE9 DUP5 DUP5 PUSH3 0xB5 JUMP JUMPDEST SWAP5 SWAP4 POP POP POP POP JUMP JUMPDEST PUSH1 0x0 PUSH3 0x100 PUSH1 0x15 DUP4 PUSH3 0x13E JUMP JUMPDEST PUSH32 0x69726F206164647265737320697320656D7074792E0000000000000000000000 DUP2 MSTORE PUSH1 0x20 ADD SWAP3 SWAP2 POP POP JUMP JUMPDEST PUSH1 0x20 DUP1 DUP3 MSTORE DUP2 ADD PUSH3 0xC2 DUP2 PUSH3 0xF1 JUMP JUMPDEST SWAP1 DUP2 MSTORE PUSH1 0x20 ADD SWAP1 JUMP JUMPDEST PUSH1 0x0 PUSH1 0x1 PUSH1 0x1 PUSH1 0xA0 SHL SUB DUP3 AND PUSH3 0xC2 JUMP JUMPDEST PUSH3 0x164 DUP2 PUSH3 0x147 JUMP JUMPDEST DUP2 EQ PUSH3 0x170 JUMPI PUSH1 0x0 DUP1 REVERT JUMPDEST POP JUMP JUMPDEST PUSH2 0x4D30 DUP1 PUSH3 0x183 PUSH1 0x0 CODECOPY PUSH1 0x0 RETURN INVALID PUSH1 0x80 PUSH1 0x40 MSTORE PUSH1 0x4 CALLDATASIZE LT PUSH3 0x92 JUMPI PUSH1 0x0 CALLDATALOAD PUSH1 0xE0 SHR DUP1 PUSH4 0x474B58C2 GT PUSH3 0x61 JUMPI DUP1 PUSH4 0x474B58C2 EQ PUSH3 0x147 JUMPI DUP1 PUSH4 0x59F7F240 EQ PUSH3 0x17B JUMPI DUP1 PUSH4 0xCEE696C8 EQ PUSH3 0x192 JUMPI DUP1 PUSH4 0xD46D6D8A EQ PUSH3 0x1C6 JUMPI DUP1 PUSH4 0xFFB135A8 EQ PUSH3 0x1EB JUMPI PUSH3 0x92 JUMP JUMPDEST DUP1 PUSH4 0xF5E1849 EQ PUSH3 0x97 JUMPI DUP1 PUSH4 0x268D792C EQ PUSH3 0xBE JUMPI DUP1 PUSH4 0x2B4A249F EQ PUSH3 0xED JUMPI DUP1 PUSH4 0x3122FEF1 EQ PUSH3 0x112 JUMPI JUMPDEST PUSH1 0x0 DUP1 REVERT JUMPDEST CALLVALUE DUP1 ISZERO PUSH3 0xA4 JUMPI PUSH1 0x0 DUP1 REVERT JUMPDEST POP PUSH3 0xBC PUSH3 0xB6 CALLDATASIZE PUSH1 0x4 PUSH3 0x37E7 JUMP JUMPDEST PUSH3 0x210 JUMP JUMPDEST STOP JUMPDEST PUSH3 0xD5 PUSH3 0xCF CALLDATASIZE PUSH1 0x4 PUSH3 0x38E9 JUMP JUMPDEST PUSH3 0x63D JUMP JUMPDEST PUSH1 0x40 MLOAD PUSH3 0xE4 SWAP2 SWAP1 PUSH3 0x43EF JUMP JUMPDEST PUSH1 0x40 MLOAD DUP1 SWAP2 SUB SWAP1 RETURN JUMPDEST CALLVALUE DUP1 ISZERO PUSH3 0xFA JUMPI PUSH1 0x0 DUP1 REVERT JUMPDEST POP PUSH3 0xD5 PUSH3 0x10C CALLDATASIZE PUSH1 0x4 PUSH3 0x38E9 JUMP JUMPDEST PUSH3 0x1371 JUMP JUMPDEST CALLVALUE DUP1 ISZERO PUSH3 0x11F JUMPI PUSH1 0x0 DUP1 REVERT JUMPDEST POP PUSH3 0x137 PUSH3 0x131 CALLDATASIZE PUSH1 0x4 PUSH3 0x37E7 JUMP JUMPDEST PUSH3 0x176F JUMP JUMPDEST PUSH1 0x40 MLOAD PUSH3 0xE4 SWAP3 SWAP2 SWAP1 PUSH3 0x4402 JUMP JUMPDEST CALLVALUE DUP1 ISZERO PUSH3 0x154 JUMPI PUSH1 0x0 DUP1 REVERT JUMPDEST POP PUSH3 0x16C PUSH3 0x166 CALLDATASIZE PUSH1 0x4 PUSH3 0x37E7 JUMP JUMPDEST PUSH3 0x1950 JUMP JUMPDEST PUSH1 0x40 MLOAD PUSH3 0xE4 SWAP2 SWAP1 PUSH3 0x42B1 JUMP JUMPDEST PUSH3 0xBC PUSH3 0x18C CALLDATASIZE PUSH1 0x4 PUSH3 0x398F JUMP JUMPDEST PUSH3 0x1A05 JUMP JUMPDEST CALLVALUE DUP1 ISZERO PUSH3 0x19F JUMPI PUSH1 0x0 DUP1 REVERT JUMPDEST POP PUSH3 0x1B7 PUSH3 0x1B1 CALLDATASIZE PUSH1 0x4 PUSH3 0x37A2 JUMP JUMPDEST PUSH3 0x1D34 JUMP JUMPDEST PUSH1 0x40 MLOAD PUSH3 0xE4 SWAP2 SWAP1 PUSH3 0x443E JUMP JUMPDEST CALLVALUE DUP1 ISZERO PUSH3 0x1D3 JUMPI PUSH1 0x0 DUP1 REVERT JUMPDEST POP PUSH3 0xBC PUSH3 0x1E5 CALLDATASIZE PUSH1 0x4 PUSH3 0x385C JUMP JUMPDEST PUSH3 0x1D61 JUMP JUMPDEST CALLVALUE DUP1 ISZERO PUSH3 0x1F8 JUMPI PUSH1 0x0 DUP1 REVERT JUMPDEST POP PUSH3 0xBC PUSH3 0x20A CALLDATASIZE PUSH1 0x4 PUSH3 0x373F JUMP JUMPDEST PUSH3 0x214C JUMP JUMPDEST PUSH1 0x0 SLOAD PUSH1 0x1 PUSH1 0x1 PUSH1 0xA0 SHL SUB AND CALLER EQ PUSH3 0x228 JUMPI PUSH1 0x0 DUP1 REVERT JUMPDEST PUSH3 0x232 PUSH3 0x29F2 JUMP JUMPDEST PUSH3 0x2A7 DUP6 DUP6 DUP1 DUP1 PUSH1 0x1F ADD PUSH1 0x20 DUP1 SWAP2 DIV MUL PUSH1 0x20 ADD PUSH1 0x40 MLOAD SWAP1 DUP2 ADD PUSH1 0x40 MSTORE DUP1 SWAP4 SWAP3 SWAP2 SWAP1 DUP2 DUP2 MSTORE PUSH1 0x20 ADD DUP4 DUP4 DUP1 DUP3 DUP5 CALLDATACOPY PUSH1 0x0 SWAP3 ADD SWAP2 SWAP1 SWAP2 MSTORE POP POP PUSH1 0x40 DUP1 MLOAD PUSH1 0x20 PUSH1 0x1F DUP10 ADD DUP2 SWAP1 DIV DUP2 MUL DUP3 ADD DUP2 ADD SWAP1 SWAP3 MSTORE DUP8 DUP2 MSTORE SWAP3 POP DUP8 SWAP2 POP DUP7 SWAP1 DUP2 SWAP1 DUP5 ADD DUP4 DUP3 DUP1 DUP3 DUP5 CALLDATACOPY PUSH1 0x0 SWAP3 ADD SWAP2 SWAP1 SWAP2 MSTORE POP PUSH3 0x2197 SWAP3 POP POP POP JUMP JUMPDEST SWAP1 POP DUP4 PUSH3 0x2D2 JUMPI PUSH1 0x40 MLOAD PUSH3 0x461BCD PUSH1 0xE5 SHL DUP2 MSTORE PUSH1 0x4 ADD PUSH3 0x2C9 SWAP1 PUSH3 0x4383 JUMP JUMPDEST PUSH1 0x40 MLOAD DUP1 SWAP2 SUB SWAP1 REVERT JUMPDEST PUSH1 0x0 DUP2 PUSH1 0x60 ADD MLOAD PUSH1 0x3 DUP2 GT ISZERO PUSH3 0x2E5 JUMPI INVALID JUMPDEST EQ ISZERO PUSH3 0x306 JUMPI PUSH1 0x40 MLOAD PUSH3 0x461BCD PUSH1 0xE5 SHL DUP2 MSTORE PUSH1 0x4 ADD PUSH3 0x2C9 SWAP1 PUSH3 0x4371 JUMP JUMPDEST PUSH1 0x0 DUP2 PUSH1 0xE0 ADD MLOAD PUSH1 0xC0 ADD MLOAD SWAP1 POP PUSH1 0x60 PUSH3 0x38A DUP8 DUP8 DUP1 DUP1 PUSH1 0x1F ADD PUSH1 0x20 DUP1 SWAP2 DIV MUL PUSH1 0x20 ADD PUSH1 0x40 MLOAD SWAP1 DUP2 ADD PUSH1 0x40 MSTORE DUP1 SWAP4 SWAP3 SWAP2 SWAP1 DUP2 DUP2 MSTORE PUSH1 0x20 ADD DUP4 DUP4 DUP1 DUP3 DUP5 CALLDATACOPY PUSH1 0x0 SWAP3 ADD SWAP2 SWAP1 SWAP2 MSTORE POP POP PUSH1 0x40 DUP1 MLOAD PUSH1 0x20 PUSH1 0x1F DUP12 ADD DUP2 SWAP1 DIV DUP2 MUL DUP3 ADD DUP2 ADD SWAP1 SWAP3 MSTORE DUP10 DUP2 MSTORE SWAP3 POP DUP10 SWAP2 POP DUP9 SWAP1 DUP2 SWAP1 DUP5 ADD DUP4 DUP3 DUP1 DUP3 DUP5 CALLDATACOPY PUSH1 0x0 SWAP3 ADD SWAP2 SWAP1 SWAP2 MSTORE POP PUSH3 0x27FD SWAP3 POP POP POP JUMP JUMPDEST SWAP1 POP PUSH1 0x60 PUSH1 0x5 DUP3 PUSH1 0x40 MLOAD PUSH3 0x3A0 SWAP2 SWAP1 PUSH3 0x422D JUMP JUMPDEST SWAP1 DUP2 MSTORE PUSH1 0x20 ADD PUSH1 0x40 MLOAD DUP1 SWAP2 SUB SWAP1 KECCAK256 DUP1 SLOAD DUP1 PUSH1 0x20 MUL PUSH1 0x20 ADD PUSH1 0x40 MLOAD SWAP1 DUP2 ADD PUSH1 0x40 MSTORE DUP1 SWAP3 SWAP2 SWAP1 DUP2 DUP2 MSTORE PUSH1 0x20 ADD PUSH1 0x0 SWAP1 JUMPDEST DUP3 DUP3 LT ISZERO PUSH3 0x572 JUMPI PUSH1 0x0 DUP5 DUP2 MSTORE PUSH1 0x20 SWAP1 DUP2 SWAP1 KECCAK256 PUSH1 0x40 DUP1 MLOAD PUSH1 0x6 DUP7 MUL SWAP1 SWAP3 ADD DUP1 SLOAD PUSH1 0x2 PUSH1 0x1 DUP3 AND ISZERO PUSH2 0x100 MUL PUSH1 0x0 NOT ADD SWAP1 SWAP2 AND DIV PUSH1 0x1F DUP2 ADD DUP6 SWAP1 DIV SWAP1 SWAP5 MUL DUP4 ADD PUSH1 0xE0 SWAP1 DUP2 ADD SWAP1 SWAP3 MSTORE PUSH1 0xC0 DUP4 ADD DUP5 DUP2 MSTORE SWAP3 SWAP4 SWAP1 SWAP3 DUP5 SWAP3 SWAP1 SWAP2 DUP5 SWAP2 DUP5 ADD DUP3 DUP3 DUP1 ISZERO PUSH3 0x47C JUMPI DUP1 PUSH1 0x1F LT PUSH3 0x450 JUMPI PUSH2 0x100 DUP1 DUP4 SLOAD DIV MUL DUP4 MSTORE SWAP2 PUSH1 0x20 ADD SWAP2 PUSH3 0x47C JUMP JUMPDEST DUP3 ADD SWAP2 SWAP1 PUSH1 0x0 MSTORE PUSH1 0x20 PUSH1 0x0 KECCAK256 SWAP1 JUMPDEST DUP2 SLOAD DUP2 MSTORE SWAP1 PUSH1 0x1 ADD SWAP1 PUSH1 0x20 ADD DUP1 DUP4 GT PUSH3 0x45E JUMPI DUP3 SWAP1 SUB PUSH1 0x1F AND DUP3 ADD SWAP2 JUMPDEST POP POP POP POP POP DUP2 MSTORE PUSH1 0x20 ADD PUSH1 0x1 DUP3 ADD DUP1 SLOAD PUSH1 0x1 DUP2 PUSH1 0x1 AND ISZERO PUSH2 0x100 MUL SUB AND PUSH1 0x2 SWAP1 DIV DUP1 PUSH1 0x1F ADD PUSH1 0x20 DUP1 SWAP2 DIV MUL PUSH1 0x20 ADD PUSH1 0x40 MLOAD SWAP1 DUP2 ADD PUSH1 0x40 MSTORE DUP1 SWAP3 SWAP2 SWAP1 DUP2 DUP2 MSTORE PUSH1 0x20 ADD DUP3 DUP1 SLOAD PUSH1 0x1 DUP2 PUSH1 0x1 AND ISZERO PUSH2 0x100 MUL SUB AND PUSH1 0x2 SWAP1 DIV DUP1 ISZERO PUSH3 0x522 JUMPI DUP1 PUSH1 0x1F LT PUSH3 0x4F6 JUMPI PUSH2 0x100 DUP1 DUP4 SLOAD DIV MUL DUP4 MSTORE SWAP2 PUSH1 0x20 ADD SWAP2 PUSH3 0x522 JUMP JUMPDEST DUP3 ADD SWAP2 SWAP1 PUSH1 0x0 MSTORE PUSH1 0x20 PUSH1 0x0 KECCAK256 SWAP1 JUMPDEST DUP2 SLOAD DUP2 MSTORE SWAP1 PUSH1 0x1 ADD SWAP1 PUSH1 0x20 ADD DUP1 DUP4 GT PUSH3 0x504 JUMPI DUP3 SWAP1 SUB PUSH1 0x1F AND DUP3 ADD SWAP2 JUMPDEST POP POP POP SWAP2 DUP4 MSTORE POP POP PUSH1 0x2 DUP3 ADD SLOAD PUSH1 0x1 PUSH1 0x1 PUSH1 0xA0 SHL SUB AND PUSH1 0x20 DUP1 DUP4 ADD SWAP2 SWAP1 SWAP2 MSTORE PUSH1 0x3 DUP4 ADD SLOAD PUSH1 0x40 DUP4 ADD MSTORE PUSH1 0x4 DUP4 ADD SLOAD PUSH1 0x60 DUP4 ADD MSTORE PUSH1 0x5 SWAP1 SWAP3 ADD SLOAD PUSH1 0x80 SWAP1 SWAP2 ADD MSTORE SWAP1 DUP3 MSTORE PUSH1 0x1 SWAP3 SWAP1 SWAP3 ADD SWAP2 ADD PUSH3 0x3CE JUMP JUMPDEST POP POP POP POP PUSH1 0xE0 DUP6 DUP2 ADD MLOAD ADD MLOAD SWAP1 SWAP2 POP PUSH1 0x0 JUMPDEST DUP3 MLOAD DUP2 LT ISZERO PUSH3 0x631 JUMPI PUSH3 0x598 PUSH3 0x2A77 JUMP JUMPDEST DUP4 DUP3 DUP2 MLOAD DUP2 LT PUSH3 0x5A5 JUMPI INVALID JUMPDEST PUSH1 0x20 MUL PUSH1 0x20 ADD ADD MLOAD SWAP1 POP DUP3 PUSH1 0x1 PUSH1 0x1 PUSH1 0xA0 SHL SUB AND PUSH4 0xBEABACC8 DUP8 DUP4 PUSH1 0x40 ADD MLOAD DUP5 PUSH1 0x80 ADD MLOAD DUP6 PUSH1 0x60 ADD MLOAD ADD PUSH1 0x40 MLOAD DUP5 PUSH4 0xFFFFFFFF AND PUSH1 0xE0 SHL DUP2 MSTORE PUSH1 0x4 ADD PUSH3 0x5EF SWAP4 SWAP3 SWAP2 SWAP1 PUSH3 0x4292 JUMP JUMPDEST PUSH1 0x0 PUSH1 0x40 MLOAD DUP1 DUP4 SUB DUP2 PUSH1 0x0 DUP8 DUP1 EXTCODESIZE ISZERO DUP1 ISZERO PUSH3 0x60A JUMPI PUSH1 0x0 DUP1 REVERT JUMPDEST POP GAS CALL ISZERO DUP1 ISZERO PUSH3 0x61F JUMPI RETURNDATASIZE PUSH1 0x0 DUP1 RETURNDATACOPY RETURNDATASIZE PUSH1 0x0 REVERT JUMPDEST POP POP PUSH1 0x1 SWAP1 SWAP4 ADD SWAP3 POP PUSH3 0x584 SWAP2 POP POP JUMP JUMPDEST POP POP POP POP POP POP POP POP POP POP JUMP JUMPDEST PUSH3 0x647 PUSH3 0x29F2 JUMP JUMPDEST PUSH1 0x20 DUP4 ADD MLOAD MLOAD PUSH3 0x66C JUMPI PUSH1 0x40 MLOAD PUSH3 0x461BCD PUSH1 0xE5 SHL DUP2 MSTORE PUSH1 0x4 ADD PUSH3 0x2C9 SWAP1 PUSH3 0x43A7 JUMP JUMPDEST DUP3 MLOAD MLOAD PUSH3 0x68E JUMPI PUSH1 0x40 MLOAD PUSH3 0x461BCD PUSH1 0xE5 SHL DUP2 MSTORE PUSH1 0x4 ADD PUSH3 0x2C9 SWAP1 PUSH3 0x434D JUMP JUMPDEST PUSH1 0x0 PUSH1 0x2 DUP5 PUSH1 0x0 ADD MLOAD PUSH1 0x40 MLOAD PUSH3 0x6A6 SWAP2 SWAP1 PUSH3 0x422D JUMP JUMPDEST SWAP1 DUP2 MSTORE PUSH1 0x20 ADD PUSH1 0x40 MLOAD DUP1 SWAP2 SUB SWAP1 KECCAK256 SWAP1 POP PUSH3 0x6C0 PUSH3 0x29F2 JUMP JUMPDEST DUP2 DUP6 PUSH1 0x20 ADD MLOAD PUSH1 0x40 MLOAD PUSH3 0x6D5 SWAP2 SWAP1 PUSH3 0x422D JUMP JUMPDEST SWAP1 DUP2 MSTORE PUSH1 0x40 DUP1 MLOAD PUSH1 0x20 SWAP3 DUP2 SWAP1 SUB DUP4 ADD DUP2 KECCAK256 DUP1 SLOAD PUSH1 0x2 PUSH1 0x1 DUP3 AND ISZERO PUSH2 0x100 MUL PUSH1 0x0 NOT ADD SWAP1 SWAP2 AND DIV PUSH1 0x1F DUP2 ADD DUP6 SWAP1 DIV SWAP1 SWAP5 MUL DUP3 ADD PUSH2 0x1A0 SWAP1 DUP2 ADD SWAP1 SWAP4 MSTORE PUSH2 0x180 DUP3 ADD DUP5 DUP2 MSTORE SWAP2 SWAP4 SWAP1 SWAP3 DUP5 SWAP3 SWAP2 DUP5 SWAP2 DUP5 ADD DUP3 DUP3 DUP1 ISZERO PUSH3 0x776 JUMPI DUP1 PUSH1 0x1F LT PUSH3 0x74A JUMPI PUSH2 0x100 DUP1 DUP4 SLOAD DIV MUL DUP4 MSTORE SWAP2 PUSH1 0x20 ADD SWAP2 PUSH3 0x776 JUMP JUMPDEST DUP3 ADD SWAP2 SWAP1 PUSH1 0x0 MSTORE PUSH1 0x20 PUSH1 0x0 KECCAK256 SWAP1 JUMPDEST DUP2 SLOAD DUP2 MSTORE SWAP1 PUSH1 0x1 ADD SWAP1 PUSH1 0x20 ADD DUP1 DUP4 GT PUSH3 0x758 JUMPI DUP3 SWAP1 SUB PUSH1 0x1F AND DUP3 ADD SWAP2 JUMPDEST POP POP POP POP POP DUP2 MSTORE PUSH1 0x20 ADD PUSH1 0x1 DUP3 ADD DUP1 SLOAD PUSH1 0x1 DUP2 PUSH1 0x1 AND ISZERO PUSH2 0x100 MUL SUB AND PUSH1 0x2 SWAP1 DIV DUP1 PUSH1 0x1F ADD PUSH1 0x20 DUP1 SWAP2 DIV MUL PUSH1 0x20 ADD PUSH1 0x40 MLOAD SWAP1 DUP2 ADD PUSH1 0x40 MSTORE DUP1 SWAP3 SWAP2 SWAP1 DUP2 DUP2 MSTORE PUSH1 0x20 ADD DUP3 DUP1 SLOAD PUSH1 0x1 DUP2 PUSH1 0x1 AND ISZERO PUSH2 0x100 MUL SUB AND PUSH1 0x2 SWAP1 DIV DUP1 ISZERO PUSH3 0x81C JUMPI DUP1 PUSH1 0x1F LT PUSH3 0x7F0 JUMPI PUSH2 0x100 DUP1 DUP4 SLOAD DIV MUL DUP4 MSTORE SWAP2 PUSH1 0x20 ADD SWAP2 PUSH3 0x81C JUMP JUMPDEST DUP3 ADD SWAP2 SWAP1 PUSH1 0x0 MSTORE PUSH1 0x20 PUSH1 0x0 KECCAK256 SWAP1 JUMPDEST DUP2 SLOAD DUP2 MSTORE SWAP1 PUSH1 0x1 ADD SWAP1 PUSH1 0x20 ADD DUP1 DUP4 GT PUSH3 0x7FE JUMPI DUP3 SWAP1 SUB PUSH1 0x1F AND DUP3 ADD SWAP2 JUMPDEST POP POP POP SWAP2 DUP4 MSTORE POP POP PUSH1 0x2 DUP3 DUP2 ADD DUP1 SLOAD PUSH1 0x40 DUP1 MLOAD PUSH1 0x20 PUSH1 0x1 DUP5 AND ISZERO PUSH2 0x100 MUL PUSH1 0x0 NOT ADD SWAP1 SWAP4 AND SWAP5 SWAP1 SWAP5 DIV PUSH1 0x1F DUP2 ADD DUP4 SWAP1 DIV DUP4 MUL DUP6 ADD DUP4 ADD SWAP1 SWAP2 MSTORE DUP1 DUP5 MSTORE SWAP4 DUP2 ADD SWAP4 SWAP1 DUP4 ADD DUP3 DUP3 DUP1 ISZERO PUSH3 0x8B2 JUMPI DUP1 PUSH1 0x1F LT PUSH3 0x886 JUMPI PUSH2 0x100 DUP1 DUP4 SLOAD DIV MUL DUP4 MSTORE SWAP2 PUSH1 0x20 ADD SWAP2 PUSH3 0x8B2 JUMP JUMPDEST DUP3 ADD SWAP2 SWAP1 PUSH1 0x0 MSTORE PUSH1 0x20 PUSH1 0x0 KECCAK256 SWAP1 JUMPDEST DUP2 SLOAD DUP2 MSTORE SWAP1 PUSH1 0x1 ADD SWAP1 PUSH1 0x20 ADD DUP1 DUP4 GT PUSH3 0x894 JUMPI DUP3 SWAP1 SUB PUSH1 0x1F AND DUP3 ADD SWAP2 JUMPDEST POP POP POP SWAP2 DUP4 MSTORE POP POP PUSH1 0x3 DUP3 DUP2 ADD SLOAD PUSH1 0x20 SWAP1 SWAP3 ADD SWAP2 PUSH1 0xFF AND SWAP1 DUP2 GT ISZERO PUSH3 0x8D4 JUMPI INVALID JUMPDEST PUSH1 0x3 DUP2 GT ISZERO PUSH3 0x8E0 JUMPI INVALID JUMPDEST DUP2 MSTORE PUSH1 0x20 ADD PUSH1 0x3 DUP3 ADD PUSH1 0x1 SWAP1 SLOAD SWAP1 PUSH2 0x100 EXP SWAP1 DIV PUSH1 0xFF AND PUSH1 0x6 DUP2 GT ISZERO PUSH3 0x903 JUMPI INVALID JUMPDEST PUSH1 0x6 DUP2 GT ISZERO PUSH3 0x90F JUMPI INVALID JUMPDEST DUP2 MSTORE PUSH1 0x4 DUP3 ADD DUP1 SLOAD PUSH1 0x40 DUP1 MLOAD PUSH1 0x20 PUSH1 0x2 PUSH1 0x1 DUP6 AND ISZERO PUSH2 0x100 MUL PUSH1 0x0 NOT ADD SWAP1 SWAP5 AND SWAP4 SWAP1 SWAP4 DIV PUSH1 0x1F DUP2 ADD DUP5 SWAP1 DIV DUP5 MUL DUP3 ADD DUP5 ADD SWAP1 SWAP3 MSTORE DUP2 DUP2 MSTORE SWAP4 DUP3 ADD SWAP4 SWAP3 SWAP2 DUP4 ADD DUP3 DUP3 DUP1 ISZERO PUSH3 0x9A1 JUMPI DUP1 PUSH1 0x1F LT PUSH3 0x975 JUMPI PUSH2 0x100 DUP1 DUP4 SLOAD DIV MUL DUP4 MSTORE SWAP2 PUSH1 0x20 ADD SWAP2 PUSH3 0x9A1 JUMP JUMPDEST DUP3 ADD SWAP2 SWAP1 PUSH1 0x0 MSTORE PUSH1 0x20 PUSH1 0x0 KECCAK256 SWAP1 JUMPDEST DUP2 SLOAD DUP2 MSTORE SWAP1 PUSH1 0x1 ADD SWAP1 PUSH1 0x20 ADD DUP1 DUP4 GT PUSH3 0x983 JUMPI DUP3 SWAP1 SUB PUSH1 0x1F AND DUP3 ADD SWAP2 JUMPDEST POP POP POP SWAP2 DUP4 MSTORE POP POP PUSH1 0x5 DUP3 ADD DUP1 SLOAD PUSH1 0x40 DUP1 MLOAD PUSH1 0x20 PUSH1 0x2 PUSH1 0x1 DUP6 AND ISZERO PUSH2 0x100 MUL PUSH1 0x0 NOT ADD SWAP1 SWAP5 AND SWAP4 SWAP1 SWAP4 DIV PUSH1 0x1F DUP2 ADD DUP5 SWAP1 DIV DUP5 MUL DUP3 ADD DUP5 ADD SWAP1 SWAP3 MSTORE DUP2 DUP2 MSTORE SWAP4 DUP3 ADD SWAP4 SWAP3 SWAP2 DUP4 ADD DUP3 DUP3 DUP1 ISZERO PUSH3 0xA39 JUMPI DUP1 PUSH1 0x1F LT PUSH3 0xA0D JUMPI PUSH2 0x100 DUP1 DUP4 SLOAD DIV MUL DUP4 MSTORE SWAP2 PUSH1 0x20 ADD SWAP2 PUSH3 0xA39 JUMP JUMPDEST DUP3 ADD SWAP2 SWAP1 PUSH1 0x0 MSTORE PUSH1 0x20 PUSH1 0x0 KECCAK256 SWAP1 JUMPDEST DUP2 SLOAD DUP2 MSTORE SWAP1 PUSH1 0x1 ADD SWAP1 PUSH1 0x20 ADD DUP1 DUP4 GT PUSH3 0xA1B JUMPI DUP3 SWAP1 SUB PUSH1 0x1F AND DUP3 ADD SWAP2 JUMPDEST POP POP POP SWAP2 DUP4 MSTORE POP POP PUSH1 0x40 DUP1 MLOAD PUSH2 0x100 DUP2 ADD SWAP1 SWAP2 MSTORE PUSH1 0x6 DUP4 ADD DUP1 SLOAD PUSH1 0x1 PUSH1 0x1 PUSH1 0xA0 SHL SUB DUP2 AND DUP4 MSTORE PUSH1 0x20 SWAP4 DUP5 ADD SWAP4 DUP4 ADD SWAP1 PUSH1 0x1 PUSH1 0xA0 SHL SWAP1 DIV PUSH1 0xFF AND PUSH1 0x1 DUP2 GT ISZERO PUSH3 0xA7E JUMPI INVALID JUMPDEST PUSH1 0x1 DUP2 GT ISZERO PUSH3 0xA8A JUMPI INVALID JUMPDEST DUP2 MSTORE PUSH1 0x20 ADD PUSH1 0x1 DUP3 ADD SLOAD DUP2 MSTORE PUSH1 0x20 ADD PUSH1 0x2 DUP3 ADD DUP1 SLOAD PUSH1 0x1 DUP2 PUSH1 0x1 AND ISZERO PUSH2 0x100 MUL SUB AND PUSH1 0x2 SWAP1 DIV DUP1 PUSH1 0x1F ADD PUSH1 0x20 DUP1 SWAP2 DIV MUL PUSH1 0x20 ADD PUSH1 0x40 MLOAD SWAP1 DUP2 ADD PUSH1 0x40 MSTORE DUP1 SWAP3 SWAP2 SWAP1 DUP2 DUP2 MSTORE PUSH1 0x20 ADD DUP3 DUP1 SLOAD PUSH1 0x1 DUP2 PUSH1 0x1 AND ISZERO PUSH2 0x100 MUL SUB AND PUSH1 0x2 SWAP1 DIV DUP1 ISZERO PUSH3 0xB35 JUMPI DUP1 PUSH1 0x1F LT PUSH3 0xB09 JUMPI PUSH2 0x100 DUP1 DUP4 SLOAD DIV MUL DUP4 MSTORE SWAP2 PUSH1 0x20 ADD SWAP2 PUSH3 0xB35 JUMP JUMPDEST DUP3 ADD SWAP2 SWAP1 PUSH1 0x0 MSTORE PUSH1 0x20 PUSH1 0x0 KECCAK256 SWAP1 JUMPDEST DUP2 SLOAD DUP2 MSTORE SWAP1 PUSH1 0x1 ADD SWAP1 PUSH1 0x20 ADD DUP1 DUP4 GT PUSH3 0xB17 JUMPI DUP3 SWAP1 SUB PUSH1 0x1F AND DUP3 ADD SWAP2 JUMPDEST POP POP POP SWAP2 DUP4 MSTORE POP POP PUSH1 0x3 DUP3 DUP2 ADD SLOAD PUSH1 0x20 DUP1 DUP5 ADD SWAP2 SWAP1 SWAP2 MSTORE PUSH1 0x4 DUP5 ADD SLOAD PUSH1 0x40 DUP1 DUP6 ADD SWAP2 SWAP1 SWAP2 MSTORE PUSH1 0x5 DUP6 ADD SLOAD PUSH1 0x1 PUSH1 0x1 PUSH1 0xA0 SHL SUB SWAP1 DUP2 AND PUSH1 0x60 DUP7 ADD MSTORE PUSH1 0x6 SWAP1 SWAP6 ADD SLOAD SWAP1 SWAP5 AND PUSH1 0x80 SWAP1 SWAP4 ADD SWAP3 SWAP1 SWAP3 MSTORE SWAP3 DUP5 MSTORE DUP2 MLOAD DUP1 DUP3 ADD SWAP1 SWAP3 MSTORE PUSH1 0xD DUP6 ADD DUP1 SLOAD SWAP5 SWAP1 SWAP2 ADD SWAP4 SWAP2 SWAP3 SWAP1 SWAP2 DUP4 SWAP2 PUSH1 0xFF SWAP1 SWAP2 AND SWAP1 DUP2 GT ISZERO PUSH3 0xBAD JUMPI INVALID JUMPDEST PUSH1 0x3 DUP2 GT ISZERO PUSH3 0xBB9 JUMPI INVALID JUMPDEST SWAP1 MSTORE POP DUP2 MSTORE PUSH1 0x40 DUP1 MLOAD PUSH1 0x80 DUP2 ADD DUP3 MSTORE PUSH1 0xE DUP5 ADD DUP1 SLOAD DUP3 MSTORE PUSH1 0xF DUP6 ADD DUP1 SLOAD DUP5 MLOAD PUSH1 0x20 PUSH1 0x2 PUSH1 0x1 DUP5 AND ISZERO PUSH2 0x100 MUL PUSH1 0x0 NOT ADD SWAP1 SWAP4 AND SWAP3 SWAP1 SWAP3 DIV PUSH1 0x1F DUP2 ADD DUP4 SWAP1 DIV DUP4 MUL DUP3 ADD DUP4 ADD SWAP1 SWAP7 MSTORE DUP6 DUP2 MSTORE SWAP6 DUP2 ADD SWAP6 SWAP4 SWAP5 SWAP3 SWAP4 DUP2 DUP7 ADD SWAP4 SWAP1 SWAP3 SWAP2 DUP4 ADD DUP3 DUP3 DUP1 ISZERO PUSH3 0xC67 JUMPI DUP1 PUSH1 0x1F LT PUSH3 0xC3B JUMPI PUSH2 0x100 DUP1 DUP4 SLOAD DIV MUL DUP4 MSTORE SWAP2 PUSH1 0x20 ADD SWAP2 PUSH3 0xC67 JUMP JUMPDEST DUP3 ADD SWAP2 SWAP1 PUSH1 0x0 MSTORE PUSH1 0x20 PUSH1 0x0 KECCAK256 SWAP1 JUMPDEST DUP2 SLOAD DUP2 MSTORE SWAP1 PUSH1 0x1 ADD SWAP1 PUSH1 0x20 ADD DUP1 DUP4 GT PUSH3 0xC49 JUMPI DUP3 SWAP1 SUB PUSH1 0x1F AND DUP3 ADD SWAP2 JUMPDEST POP POP POP SWAP2 DUP4 MSTORE POP POP PUSH1 0x2 DUP3 ADD SLOAD PUSH1 0x20 DUP1 DUP4 ADD SWAP2 SWAP1 SWAP2 MSTORE PUSH1 0x3 SWAP1 SWAP3 ADD SLOAD PUSH1 0x40 SWAP2 DUP3 ADD MSTORE SWAP2 DUP4 MSTORE PUSH1 0x12 DUP5 ADD SLOAD SWAP1 DUP4 ADD MSTORE PUSH1 0x13 SWAP1 SWAP3 ADD SLOAD PUSH1 0x1 PUSH1 0x1 PUSH1 0xA0 SHL SUB AND SWAP2 ADD MSTORE DUP1 MLOAD MLOAD SWAP1 SWAP2 POP ISZERO PUSH3 0xCCD JUMPI PUSH1 0x40 MLOAD PUSH3 0x461BCD PUSH1 0xE5 SHL DUP2 MSTORE PUSH1 0x4 ADD PUSH3 0x2C9 SWAP1 PUSH3 0x4395 JUMP JUMPDEST PUSH3 0xCD7 PUSH3 0x2AB6 JUMP JUMPDEST PUSH1 0x1 SLOAD DUP7 MLOAD PUSH1 0x40 MLOAD PUSH4 0xEF7AE53F PUSH1 0xE0 SHL DUP2 MSTORE PUSH1 0x1 PUSH1 0x1 PUSH1 0xA0 SHL SUB SWAP1 SWAP3 AND SWAP2 PUSH4 0xEF7AE53F SWAP2 PUSH3 0xD09 SWAP2 PUSH1 0x4 ADD PUSH3 0x42E0 JUMP JUMPDEST PUSH1 0x0 PUSH1 0x40 MLOAD DUP1 DUP4 SUB DUP2 DUP7 DUP1 EXTCODESIZE ISZERO DUP1 ISZERO PUSH3 0xD22 JUMPI PUSH1 0x0 DUP1 REVERT JUMPDEST POP GAS STATICCALL ISZERO DUP1 ISZERO PUSH3 0xD37 JUMPI RETURNDATASIZE PUSH1 0x0 DUP1 RETURNDATACOPY RETURNDATASIZE PUSH1 0x0 REVERT JUMPDEST POP POP POP POP PUSH1 0x40 MLOAD RETURNDATASIZE PUSH1 0x0 DUP3 RETURNDATACOPY PUSH1 0x1F RETURNDATASIZE SWAP1 DUP2 ADD PUSH1 0x1F NOT AND DUP3 ADD PUSH1 0x40 MSTORE PUSH3 0xD61 SWAP2 SWAP1 DUP2 ADD SWAP1 PUSH3 0x3957 JUMP JUMPDEST DUP1 MLOAD MLOAD SWAP1 SWAP2 POP PUSH3 0xD86 JUMPI PUSH1 0x40 MLOAD PUSH3 0x461BCD PUSH1 0xE5 SHL DUP2 MSTORE PUSH1 0x4 ADD PUSH3 0x2C9 SWAP1 PUSH3 0x4317 JUMP JUMPDEST PUSH3 0xD90 PUSH3 0x2AF5 JUMP JUMPDEST POP PUSH1 0x40 DUP2 ADD MLOAD PUSH1 0x0 DUP2 MLOAD PUSH1 0x3 DUP2 GT ISZERO PUSH3 0xDA6 JUMPI INVALID JUMPDEST EQ ISZERO PUSH3 0xDC7 JUMPI PUSH1 0x40 MLOAD PUSH3 0x461BCD PUSH1 0xE5 SHL DUP2 MSTORE PUSH1 0x4 ADD PUSH3 0x2C9 SWAP1 PUSH3 0x4329 JUMP JUMPDEST PUSH1 0x40 MLOAD DUP1 PUSH1 0x20 ADD PUSH1 0x40 MSTORE DUP1 DUP3 PUSH1 0x0 ADD MLOAD PUSH1 0x3 DUP2 GT ISZERO PUSH3 0xDE3 JUMPI INVALID JUMPDEST SWAP1 MSTORE PUSH2 0x100 DUP9 ADD MSTORE PUSH3 0xDF5 PUSH3 0x2B17 JUMP JUMPDEST POP PUSH1 0x60 DUP3 ADD MLOAD PUSH1 0x0 DUP2 MLOAD PUSH1 0x3 DUP2 GT ISZERO PUSH3 0xE0B JUMPI INVALID JUMPDEST EQ ISZERO PUSH3 0xE2C JUMPI PUSH1 0x40 MLOAD PUSH3 0x461BCD PUSH1 0xE5 SHL DUP2 MSTORE PUSH1 0x4 ADD PUSH3 0x2C9 SWAP1 PUSH3 0x43CB JUMP JUMPDEST PUSH2 0x120 DUP9 ADD MLOAD PUSH1 0x40 ADD MLOAD TIMESTAMP SWAP1 PUSH1 0x0 SWAP1 PUSH3 0xED9 JUMPI PUSH1 0xA0 DUP4 ADD MLOAD PUSH1 0x40 MLOAD PUSH4 0x1BD95155 PUSH1 0xE0 SHL DUP2 MSTORE PUSH20 0x0 SWAP2 PUSH4 0x1BD95155 SWAP2 PUSH3 0xE7D SWAP2 SWAP1 PUSH1 0x4 ADD PUSH3 0x42E0 JUMP JUMPDEST PUSH1 0x20 PUSH1 0x40 MLOAD DUP1 DUP4 SUB DUP2 DUP7 DUP1 EXTCODESIZE ISZERO DUP1 ISZERO PUSH3 0xE96 JUMPI PUSH1 0x0 DUP1 REVERT JUMPDEST POP GAS DELEGATECALL ISZERO DUP1 ISZERO PUSH3 0xEAB JUMPI RETURNDATASIZE PUSH1 0x0 DUP1 RETURNDATACOPY RETURNDATASIZE PUSH1 0x0 REVERT JUMPDEST POP POP POP POP PUSH1 0x40 MLOAD RETURNDATASIZE PUSH1 0x1F NOT PUSH1 0x1F DUP3 ADD AND DUP3 ADD DUP1 PUSH1 0x40 MSTORE POP PUSH3 0xED1 SWAP2 SWAP1 DUP2 ADD SWAP1 PUSH3 0x39C7 JUMP JUMPDEST SWAP1 POP PUSH3 0xEE5 JUMP JUMPDEST POP PUSH2 0x120 DUP10 ADD MLOAD PUSH1 0x40 ADD MLOAD JUMPDEST PUSH1 0x40 MLOAD DUP1 PUSH1 0x80 ADD PUSH1 0x40 MSTORE DUP1 DUP5 PUSH1 0x60 ADD MLOAD DUP2 MSTORE PUSH1 0x20 ADD DUP5 PUSH1 0x80 ADD MLOAD DUP2 MSTORE PUSH1 0x20 ADD DUP3 DUP2 MSTORE PUSH1 0x20 ADD DUP3 PUSH2 0xE10 MUL DUP5 ADD DUP2 MSTORE POP DUP11 PUSH2 0x120 ADD DUP2 SWAP1 MSTORE POP PUSH1 0x0 PUSH3 0xF32 DUP7 PUSH1 0x20 ADD MLOAD PUSH1 0x40 ADD MLOAD PUSH3 0x282B JUMP JUMPDEST PUSH1 0xE0 DUP13 ADD MLOAD PUSH1 0x1 PUSH1 0x1 PUSH1 0xA0 SHL SUB DUP3 AND PUSH1 0xC0 SWAP1 SWAP2 ADD MSTORE SWAP1 POP PUSH1 0x60 PUSH3 0xF56 DUP13 PUSH3 0x29DC JUMP JUMPDEST SWAP1 POP DUP1 PUSH1 0x40 MLOAD PUSH3 0xF67 SWAP1 PUSH3 0x2B55 JUMP JUMPDEST PUSH3 0xF73 SWAP2 SWAP1 PUSH3 0x42E0 JUMP JUMPDEST PUSH1 0x40 MLOAD DUP1 SWAP2 SUB SWAP1 PUSH1 0x0 CREATE DUP1 ISZERO DUP1 ISZERO PUSH3 0xF90 JUMPI RETURNDATASIZE PUSH1 0x0 DUP1 RETURNDATACOPY RETURNDATASIZE PUSH1 0x0 REVERT JUMPDEST POP PUSH1 0xE0 DUP1 DUP15 ADD MLOAD PUSH1 0x1 PUSH1 0x1 PUSH1 0xA0 SHL SUB SWAP1 SWAP3 AND SWAP2 ADD MSTORE DUP11 MLOAD PUSH1 0x0 JUMPDEST DUP2 DUP2 LT ISZERO PUSH3 0x1040 JUMPI PUSH1 0x3 DUP4 PUSH1 0x40 MLOAD PUSH3 0xFC5 SWAP2 SWAP1 PUSH3 0x422D JUMP JUMPDEST SWAP1 DUP2 MSTORE PUSH1 0x20 ADD PUSH1 0x40 MLOAD DUP1 SWAP2 SUB SWAP1 KECCAK256 DUP14 DUP3 DUP2 MLOAD DUP2 LT PUSH3 0xFE0 JUMPI INVALID JUMPDEST PUSH1 0x20 SWAP1 DUP2 MUL SWAP2 SWAP1 SWAP2 ADD DUP2 ADD MLOAD DUP3 SLOAD PUSH1 0x1 DUP2 DUP2 ADD DUP1 DUP7 SSTORE PUSH1 0x0 SWAP6 DUP7 MSTORE SWAP5 DUP5 SWAP1 KECCAK256 DUP4 MLOAD PUSH1 0x3 SWAP1 SWAP4 MUL ADD SWAP2 DUP3 SSTORE DUP3 DUP5 ADD MLOAD SWAP1 DUP3 ADD SSTORE PUSH1 0x40 DUP3 ADD MLOAD DUP1 MLOAD SWAP3 SWAP4 SWAP2 SWAP3 PUSH3 0x102F SWAP3 PUSH1 0x2 DUP6 ADD SWAP3 ADD SWAP1 PUSH3 0x2B63 JUMP JUMPDEST POP POP PUSH1 0x1 SWAP1 SWAP3 ADD SWAP2 POP PUSH3 0xFAA SWAP1 POP JUMP JUMPDEST POP PUSH2 0x160 DUP14 ADD MLOAD PUSH1 0x1 PUSH1 0x1 PUSH1 0xA0 SHL SUB AND PUSH3 0x105D JUMPI CALLER PUSH2 0x160 DUP15 ADD MSTORE JUMPDEST PUSH2 0x140 DUP14 ADD DUP6 SWAP1 MSTORE PUSH1 0x20 DUP14 ADD MLOAD PUSH1 0x40 MLOAD DUP15 SWAP2 DUP13 SWAP2 PUSH3 0x107D SWAP2 SWAP1 PUSH3 0x422D JUMP JUMPDEST SWAP1 DUP2 MSTORE PUSH1 0x20 ADD PUSH1 0x40 MLOAD DUP1 SWAP2 SUB SWAP1 KECCAK256 PUSH1 0x0 DUP3 ADD MLOAD DUP2 PUSH1 0x0 ADD SWAP1 DUP1 MLOAD SWAP1 PUSH1 0x20 ADD SWAP1 PUSH3 0x10A9 SWAP3 SWAP2 SWAP1 PUSH3 0x2B63 JUMP JUMPDEST POP PUSH1 0x20 DUP3 DUP2 ADD MLOAD DUP1 MLOAD PUSH3 0x10C4 SWAP3 PUSH1 0x1 DUP6 ADD SWAP3 ADD SWAP1 PUSH3 0x2B63 JUMP JUMPDEST POP PUSH1 0x40 DUP3 ADD MLOAD DUP1 MLOAD PUSH3 0x10E2 SWAP2 PUSH1 0x2 DUP5 ADD SWAP2 PUSH1 0x20 SWAP1 SWAP2 ADD SWAP1 PUSH3 0x2B63 JUMP JUMPDEST POP PUSH1 0x60 DUP3 ADD MLOAD DUP2 PUSH1 0x3 ADD PUSH1 0x0 PUSH2 0x100 EXP DUP2 SLOAD DUP2 PUSH1 0xFF MUL NOT AND SWAP1 DUP4 PUSH1 0x3 DUP2 GT ISZERO PUSH3 0x1108 JUMPI INVALID JUMPDEST MUL OR SWAP1 SSTORE POP PUSH1 0x80 DUP3 ADD MLOAD PUSH1 0x3 DUP3 ADD DUP1 SLOAD PUSH2 0xFF00 NOT AND PUSH2 0x100 DUP4 PUSH1 0x6 DUP2 GT ISZERO PUSH3 0x112D JUMPI INVALID JUMPDEST MUL OR SWAP1 SSTORE POP PUSH1 0xA0 DUP3 ADD MLOAD DUP1 MLOAD PUSH3 0x114F SWAP2 PUSH1 0x4 DUP5 ADD SWAP2 PUSH1 0x20 SWAP1 SWAP2 ADD SWAP1 PUSH3 0x2B63 JUMP JUMPDEST POP PUSH1 0xC0 DUP3 ADD MLOAD DUP1 MLOAD PUSH3 0x116D SWAP2 PUSH1 0x5 DUP5 ADD SWAP2 PUSH1 0x20 SWAP1 SWAP2 ADD SWAP1 PUSH3 0x2B63 JUMP JUMPDEST POP PUSH1 0xE0 DUP3 ADD MLOAD DUP1 MLOAD PUSH1 0x6 DUP4 ADD DUP1 SLOAD PUSH1 0x1 PUSH1 0x1 PUSH1 0xA0 SHL SUB NOT AND PUSH1 0x1 PUSH1 0x1 PUSH1 0xA0 SHL SUB SWAP1 SWAP3 AND SWAP2 SWAP1 SWAP2 OR DUP1 DUP3 SSTORE PUSH1 0x20 DUP4 ADD MLOAD SWAP1 DUP3 SWAP1 PUSH1 0xFF PUSH1 0xA0 SHL NOT AND PUSH1 0x1 PUSH1 0xA0 SHL DUP4 PUSH1 0x1 DUP2 GT ISZERO PUSH3 0x11B8 JUMPI INVALID JUMPDEST MUL OR SWAP1 SSTORE POP PUSH1 0x40 DUP3 ADD MLOAD PUSH1 0x1 DUP3 ADD SSTORE PUSH1 0x60 DUP3 ADD MLOAD DUP1 MLOAD PUSH3 0x11E4 SWAP2 PUSH1 0x2 DUP5 ADD SWAP2 PUSH1 0x20 SWAP1 SWAP2 ADD SWAP1 PUSH3 0x2B63 JUMP JUMPDEST POP PUSH1 0x80 DUP3 ADD MLOAD PUSH1 0x3 DUP3 DUP2 ADD SWAP2 SWAP1 SWAP2 SSTORE PUSH1 0xA0 DUP4 ADD MLOAD PUSH1 0x4 DUP4 ADD SSTORE PUSH1 0xC0 DUP4 ADD MLOAD PUSH1 0x5 DUP4 ADD DUP1 SLOAD PUSH1 0x1 PUSH1 0x1 PUSH1 0xA0 SHL SUB NOT SWAP1 DUP2 AND PUSH1 0x1 PUSH1 0x1 PUSH1 0xA0 SHL SUB SWAP4 DUP5 AND OR SWAP1 SWAP2 SSTORE PUSH1 0xE0 SWAP1 SWAP5 ADD MLOAD PUSH1 0x6 SWAP1 SWAP4 ADD DUP1 SLOAD SWAP1 SWAP5 AND SWAP3 AND SWAP2 SWAP1 SWAP2 OR SWAP1 SWAP2 SSTORE PUSH2 0x100 DUP4 ADD MLOAD DUP1 MLOAD PUSH1 0xD DUP5 ADD DUP1 SLOAD SWAP3 SWAP4 SWAP1 SWAP3 DUP4 SWAP2 PUSH1 0xFF NOT SWAP1 SWAP2 AND SWAP1 PUSH1 0x1 SWAP1 DUP5 SWAP1 DUP2 GT ISZERO PUSH3 0x1266 JUMPI INVALID JUMPDEST MUL OR SWAP1 SSTORE POP POP POP PUSH2 0x120 DUP3 ADD MLOAD DUP1 MLOAD PUSH1 0xE DUP4 ADD SWAP1 DUP2 SSTORE PUSH1 0x20 DUP1 DUP4 ADD MLOAD DUP1 MLOAD PUSH3 0x1296 SWAP3 PUSH1 0xF DUP8 ADD SWAP3 ADD SWAP1 PUSH3 0x2B63 JUMP JUMPDEST POP PUSH1 0x40 DUP3 DUP2 ADD MLOAD PUSH1 0x2 DUP4 ADD SSTORE PUSH1 0x60 SWAP1 SWAP3 ADD MLOAD PUSH1 0x3 SWAP1 SWAP2 ADD SSTORE PUSH2 0x140 DUP4 ADD MLOAD PUSH1 0x12 DUP4 ADD SSTORE PUSH2 0x160 SWAP1 SWAP3 ADD MLOAD PUSH1 0x13 SWAP1 SWAP2 ADD DUP1 SLOAD PUSH1 0x1 PUSH1 0x1 PUSH1 0xA0 SHL SUB NOT AND PUSH1 0x1 PUSH1 0x1 PUSH1 0xA0 SHL SUB SWAP1 SWAP3 AND SWAP2 SWAP1 SWAP2 OR SWAP1 SSTORE DUP14 MLOAD SWAP1 MLOAD PUSH1 0x4 SWAP2 PUSH3 0x12F4 SWAP2 PUSH3 0x422D JUMP JUMPDEST SWAP1 DUP2 MSTORE PUSH1 0x40 MLOAD SWAP1 DUP2 SWAP1 SUB PUSH1 0x20 SWAP1 DUP2 ADD DUP3 KECCAK256 DUP1 SLOAD PUSH1 0x1 ADD SWAP1 SSTORE DUP15 ADD MLOAD PUSH3 0x131A SWAP2 PUSH3 0x422D JUMP JUMPDEST PUSH1 0x40 MLOAD DUP1 SWAP2 SUB SWAP1 KECCAK256 PUSH32 0x74B2E2A4D866C513222FE0222FEEF41E081EC60E6879885DD70B6B7A305C3C1E DUP15 DUP15 PUSH1 0x40 MLOAD PUSH3 0x1355 SWAP3 SWAP2 SWAP1 PUSH3 0x4402 JUMP JUMPDEST PUSH1 0x40 MLOAD DUP1 SWAP2 SUB SWAP1 LOG2 DUP13 SWAP11 POP POP POP POP POP POP POP POP POP POP POP JUMPDEST SWAP3 SWAP2 POP POP JUMP JUMPDEST PUSH3 0x137B PUSH3 0x29F2 JUMP JUMPDEST PUSH1 0x20 DUP4 ADD MLOAD MLOAD PUSH3 0x13A0 JUMPI PUSH1 0x40 MLOAD PUSH3 0x461BCD PUSH1 0xE5 SHL DUP2 MSTORE PUSH1 0x4 ADD PUSH3 0x2C9 SWAP1 PUSH3 0x43A7 JUMP JUMPDEST DUP3 MLOAD MLOAD PUSH3 0x13C2 JUMPI PUSH1 0x40 MLOAD PUSH3 0x461BCD PUSH1 0xE5 SHL DUP2 MSTORE PUSH1 0x4 ADD PUSH3 0x2C9 SWAP1 PUSH3 0x434D JUMP JUMPDEST PUSH1 0x0 PUSH1 0x2 DUP5 PUSH1 0x0 ADD MLOAD PUSH1 0x40 MLOAD PUSH3 0x13DA SWAP2 SWAP1 PUSH3 0x422D JUMP JUMPDEST SWAP1 DUP2 MSTORE PUSH1 0x20 ADD PUSH1 0x40 MLOAD DUP1 SWAP2 SUB SWAP1 KECCAK256 SWAP1 POP DUP4 DUP2 DUP6 PUSH1 0x20 ADD MLOAD PUSH1 0x40 MLOAD PUSH3 0x1400 SWAP2 SWAP1 PUSH3 0x422D JUMP JUMPDEST SWAP1 DUP2 MSTORE PUSH1 0x20 ADD PUSH1 0x40 MLOAD DUP1 SWAP2 SUB SWAP1 KECCAK256 PUSH1 0x0 DUP3 ADD MLOAD DUP2 PUSH1 0x0 ADD SWAP1 DUP1 MLOAD SWAP1 PUSH1 0x20 ADD SWAP1 PUSH3 0x142C SWAP3 SWAP2 SWAP1 PUSH3 0x2B63 JUMP JUMPDEST POP PUSH1 0x20 DUP3 DUP2 ADD MLOAD DUP1 MLOAD PUSH3 0x1447 SWAP3 PUSH1 0x1 DUP6 ADD SWAP3 ADD SWAP1 PUSH3 0x2B63 JUMP JUMPDEST POP PUSH1 0x40 DUP3 ADD MLOAD DUP1 MLOAD PUSH3 0x1465 SWAP2 PUSH1 0x2 DUP5 ADD SWAP2 PUSH1 0x20 SWAP1 SWAP2 ADD SWAP1 PUSH3 0x2B63 JUMP JUMPDEST POP PUSH1 0x60 DUP3 ADD MLOAD DUP2 PUSH1 0x3 ADD PUSH1 0x0 PUSH2 0x100 EXP DUP2 SLOAD DUP2 PUSH1 0xFF MUL NOT AND SWAP1 DUP4 PUSH1 0x3 DUP2 GT ISZERO PUSH3 0x148B JUMPI INVALID JUMPDEST MUL OR SWAP1 SSTORE POP PUSH1 0x80 DUP3 ADD MLOAD PUSH1 0x3 DUP3 ADD DUP1 SLOAD PUSH2 0xFF00 NOT AND PUSH2 0x100 DUP4 PUSH1 0x6 DUP2 GT ISZERO PUSH3 0x14B0 JUMPI INVALID JUMPDEST MUL OR SWAP1 SSTORE POP PUSH1 0xA0 DUP3 ADD MLOAD DUP1 MLOAD PUSH3 0x14D2 SWAP2 PUSH1 0x4 DUP5 ADD SWAP2 PUSH1 0x20 SWAP1 SWAP2 ADD SWAP1 PUSH3 0x2B63 JUMP JUMPDEST POP PUSH1 0xC0 DUP3 ADD MLOAD DUP1 MLOAD PUSH3 0x14F0 SWAP2 PUSH1 0x5 DUP5 ADD SWAP2 PUSH1 0x20 SWAP1 SWAP2 ADD SWAP1 PUSH3 0x2B63 JUMP JUMPDEST POP PUSH1 0xE0 DUP3 ADD MLOAD DUP1 MLOAD PUSH1 0x6 DUP4 ADD DUP1 SLOAD PUSH1 0x1 PUSH1 0x1 PUSH1 0xA0 SHL SUB NOT AND PUSH1 0x1 PUSH1 0x1 PUSH1 0xA0 SHL SUB SWAP1 SWAP3 AND SWAP2 SWAP1 SWAP2 OR DUP1 DUP3 SSTORE PUSH1 0x20 DUP4 ADD MLOAD SWAP1 DUP3 SWAP1 PUSH1 0xFF PUSH1 0xA0 SHL NOT AND PUSH1 0x1 PUSH1 0xA0 SHL DUP4 PUSH1 0x1 DUP2 GT ISZERO PUSH3 0x153B JUMPI INVALID JUMPDEST MUL OR SWAP1 SSTORE POP PUSH1 0x40 DUP3 ADD MLOAD PUSH1 0x1 DUP3 ADD SSTORE PUSH1 0x60 DUP3 ADD MLOAD DUP1 MLOAD PUSH3 0x1567 SWAP2 PUSH1 0x2 DUP5 ADD SWAP2 PUSH1 0x20 SWAP1 SWAP2 ADD SWAP1 PUSH3 0x2B63 JUMP JUMPDEST POP PUSH1 0x80 DUP3 ADD MLOAD PUSH1 0x3 DUP3 DUP2 ADD SWAP2 SWAP1 SWAP2 SSTORE PUSH1 0xA0 DUP4 ADD MLOAD PUSH1 0x4 DUP4 ADD SSTORE PUSH1 0xC0 DUP4 ADD MLOAD PUSH1 0x5 DUP4 ADD DUP1 SLOAD PUSH1 0x1 PUSH1 0x1 PUSH1 0xA0 SHL SUB NOT SWAP1 DUP2 AND PUSH1 0x1 PUSH1 0x1 PUSH1 0xA0 SHL SUB SWAP4 DUP5 AND OR SWAP1 SWAP2 SSTORE PUSH1 0xE0 SWAP1 SWAP5 ADD MLOAD PUSH1 0x6 SWAP1 SWAP4 ADD DUP1 SLOAD SWAP1 SWAP5 AND SWAP3 AND SWAP2 SWAP1 SWAP2 OR SWAP1 SWAP2 SSTORE PUSH2 0x100 DUP4 ADD MLOAD DUP1 MLOAD PUSH1 0xD DUP5 ADD DUP1 SLOAD SWAP3 SWAP4 SWAP1 SWAP3 DUP4 SWAP2 PUSH1 0xFF NOT SWAP1 SWAP2 AND SWAP1 PUSH1 0x1 SWAP1 DUP5 SWAP1 DUP2 GT ISZERO PUSH3 0x15E9 JUMPI INVALID JUMPDEST MUL OR SWAP1 SSTORE POP POP POP PUSH2 0x120 DUP3 ADD MLOAD DUP1 MLOAD PUSH1 0xE DUP4 ADD SWAP1 DUP2 SSTORE PUSH1 0x20 DUP1 DUP4 ADD MLOAD DUP1 MLOAD PUSH3 0x1619 SWAP3 PUSH1 0xF DUP8 ADD SWAP3 ADD SWAP1 PUSH3 0x2B63 JUMP JUMPDEST POP PUSH1 0x40 DUP3 ADD MLOAD PUSH1 0x2 DUP3 ADD SSTORE PUSH1 0x60 SWAP2 DUP3 ADD MLOAD PUSH1 0x3 SWAP1 SWAP2 ADD SSTORE PUSH2 0x140 DUP4 ADD MLOAD PUSH1 0x12 DUP4 ADD SSTORE PUSH2 0x160 SWAP1 SWAP3 ADD MLOAD PUSH1 0x13 SWAP1 SWAP2 ADD DUP1 SLOAD PUSH1 0x1 PUSH1 0x1 PUSH1 0xA0 SHL SUB NOT AND PUSH1 0x1 PUSH1 0x1 PUSH1 0xA0 SHL SUB SWAP1 SWAP3 AND SWAP2 SWAP1 SWAP2 OR SWAP1 SSTORE PUSH3 0x166F DUP6 PUSH3 0x29DC JUMP JUMPDEST DUP5 MLOAD SWAP1 SWAP2 POP PUSH1 0x0 JUMPDEST DUP2 DUP2 LT ISZERO PUSH3 0x170D JUMPI PUSH1 0x3 DUP4 PUSH1 0x40 MLOAD PUSH3 0x1692 SWAP2 SWAP1 PUSH3 0x422D JUMP JUMPDEST SWAP1 DUP2 MSTORE PUSH1 0x20 ADD PUSH1 0x40 MLOAD DUP1 SWAP2 SUB SWAP1 KECCAK256 DUP7 DUP3 DUP2 MLOAD DUP2 LT PUSH3 0x16AD JUMPI INVALID JUMPDEST PUSH1 0x20 SWAP1 DUP2 MUL SWAP2 SWAP1 SWAP2 ADD DUP2 ADD MLOAD DUP3 SLOAD PUSH1 0x1 DUP2 DUP2 ADD DUP1 DUP7 SSTORE PUSH1 0x0 SWAP6 DUP7 MSTORE SWAP5 DUP5 SWAP1 KECCAK256 DUP4 MLOAD PUSH1 0x3 SWAP1 SWAP4 MUL ADD SWAP2 DUP3 SSTORE DUP3 DUP5 ADD MLOAD SWAP1 DUP3 ADD SSTORE PUSH1 0x40 DUP3 ADD MLOAD DUP1 MLOAD SWAP3 SWAP4 SWAP2 SWAP3 PUSH3 0x16FC SWAP3 PUSH1 0x2 DUP6 ADD SWAP3 ADD SWAP1 PUSH3 0x2B63 JUMP JUMPDEST POP POP PUSH1 0x1 SWAP1 SWAP3 ADD SWAP2 POP PUSH3 0x1677 SWAP1 POP JUMP JUMPDEST POP DUP6 PUSH1 0x20 ADD MLOAD PUSH1 0x40 MLOAD PUSH3 0x1722 SWAP2 SWAP1 PUSH3 0x422D JUMP JUMPDEST PUSH1 0x40 MLOAD DUP1 SWAP2 SUB SWAP1 KECCAK256 PUSH32 0x74B2E2A4D866C513222FE0222FEEF41E081EC60E6879885DD70B6B7A305C3C1E DUP8 DUP8 PUSH1 0x40 MLOAD PUSH3 0x175D SWAP3 SWAP2 SWAP1 PUSH3 0x4402 JUMP JUMPDEST PUSH1 0x40 MLOAD DUP1 SWAP2 SUB SWAP1 LOG2 POP SWAP4 SWAP5 SWAP4 POP POP POP POP JUMP JUMPDEST PUSH3 0x1779 PUSH3 0x29F2 JUMP JUMPDEST PUSH1 0x60 PUSH3 0x1785 PUSH3 0x29F2 JUMP JUMPDEST PUSH3 0x17FA DUP8 DUP8 DUP1 DUP1 PUSH1 0x1F ADD PUSH1 0x20 DUP1 SWAP2 DIV MUL PUSH1 0x20 ADD PUSH1 0x40 MLOAD SWAP1 DUP2 ADD PUSH1 0x40 MSTORE DUP1 SWAP4 SWAP3 SWAP2 SWAP1 DUP2 DUP2 MSTORE PUSH1 0x20 ADD DUP4 DUP4 DUP1 DUP3 DUP5 CALLDATACOPY PUSH1 0x0 SWAP3 ADD SWAP2 SWAP1 SWAP2 MSTORE POP POP PUSH1 0x40 DUP1 MLOAD PUSH1 0x20 PUSH1 0x1F DUP12 ADD DUP2 SWAP1 DIV DUP2 MUL DUP3 ADD DUP2 ADD SWAP1 SWAP3 MSTORE DUP10 DUP2 MSTORE SWAP3 POP DUP10 SWAP2 POP DUP9 SWAP1 DUP2 SWAP1 DUP5 ADD DUP4 DUP3 DUP1 DUP3 DUP5 CALLDATACOPY PUSH1 0x0 SWAP3 ADD SWAP2 SWAP1 SWAP2 MSTORE POP PUSH3 0x2197 SWAP3 POP POP POP JUMP JUMPDEST SWAP1 POP PUSH1 0x60 PUSH3 0x1809 DUP3 PUSH3 0x29DC JUMP JUMPDEST SWAP1 POP DUP2 PUSH1 0x3 DUP3 PUSH1 0x40 MLOAD PUSH3 0x181E SWAP2 SWAP1 PUSH3 0x422D JUMP JUMPDEST SWAP1 DUP2 MSTORE PUSH1 0x20 ADD PUSH1 0x40 MLOAD DUP1 SWAP2 SUB SWAP1 KECCAK256 DUP1 DUP1 SLOAD DUP1 PUSH1 0x20 MUL PUSH1 0x20 ADD PUSH1 0x40 MLOAD SWAP1 DUP2 ADD PUSH1 0x40 MSTORE DUP1 SWAP3 SWAP2 SWAP1 DUP2 DUP2 MSTORE PUSH1 0x20 ADD PUSH1 0x0 SWAP1 JUMPDEST DUP3 DUP3 LT ISZERO PUSH3 0x193B JUMPI DUP4 DUP3 SWAP1 PUSH1 0x0 MSTORE PUSH1 0x20 PUSH1 0x0 KECCAK256 SWAP1 PUSH1 0x3 MUL ADD PUSH1 0x40 MLOAD DUP1 PUSH1 0x60 ADD PUSH1 0x40 MSTORE SWAP1 DUP2 PUSH1 0x0 DUP3 ADD SLOAD DUP2 MSTORE PUSH1 0x20 ADD PUSH1 0x1 DUP3 ADD SLOAD DUP2 MSTORE PUSH1 0x20 ADD PUSH1 0x2 DUP3 ADD DUP1 SLOAD PUSH1 0x1 DUP2 PUSH1 0x1 AND ISZERO PUSH2 0x100 MUL SUB AND PUSH1 0x2 SWAP1 DIV DUP1 PUSH1 0x1F ADD PUSH1 0x20 DUP1 SWAP2 DIV MUL PUSH1 0x20 ADD PUSH1 0x40 MLOAD SWAP1 DUP2 ADD PUSH1 0x40 MSTORE DUP1 SWAP3 SWAP2 SWAP1 DUP2 DUP2 MSTORE PUSH1 0x20 ADD DUP3 DUP1 SLOAD PUSH1 0x1 DUP2 PUSH1 0x1 AND ISZERO PUSH2 0x100 MUL SUB AND PUSH1 0x2 SWAP1 DIV DUP1 ISZERO PUSH3 0x1922 JUMPI DUP1 PUSH1 0x1F LT PUSH3 0x18F6 JUMPI PUSH2 0x100 DUP1 DUP4 SLOAD DIV MUL DUP4 MSTORE SWAP2 PUSH1 0x20 ADD SWAP2 PUSH3 0x1922 JUMP JUMPDEST DUP3 ADD SWAP2 SWAP1 PUSH1 0x0 MSTORE PUSH1 0x20 PUSH1 0x0 KECCAK256 SWAP1 JUMPDEST DUP2 SLOAD DUP2 MSTORE SWAP1 PUSH1 0x1 ADD SWAP1 PUSH1 0x20 ADD DUP1 DUP4 GT PUSH3 0x1904 JUMPI DUP3 SWAP1 SUB PUSH1 0x1F AND DUP3 ADD SWAP2 JUMPDEST POP POP POP POP POP DUP2 MSTORE POP POP DUP2 MSTORE PUSH1 0x20 ADD SWAP1 PUSH1 0x1 ADD SWAP1 PUSH3 0x184D JUMP JUMPDEST POP POP POP POP SWAP1 POP SWAP4 POP SWAP4 POP POP POP SWAP5 POP SWAP5 SWAP3 POP POP POP JUMP JUMPDEST PUSH1 0x0 PUSH3 0x195C PUSH3 0x29F2 JUMP JUMPDEST PUSH3 0x19D1 DUP7 DUP7 DUP1 DUP1 PUSH1 0x1F ADD PUSH1 0x20 DUP1 SWAP2 DIV MUL PUSH1 0x20 ADD PUSH1 0x40 MLOAD SWAP1 DUP2 ADD PUSH1 0x40 MSTORE DUP1 SWAP4 SWAP3 SWAP2 SWAP1 DUP2 DUP2 MSTORE PUSH1 0x20 ADD DUP4 DUP4 DUP1 DUP3 DUP5 CALLDATACOPY PUSH1 0x0 SWAP3 ADD SWAP2 SWAP1 SWAP2 MSTORE POP POP PUSH1 0x40 DUP1 MLOAD PUSH1 0x20 PUSH1 0x1F DUP11 ADD DUP2 SWAP1 DIV DUP2 MUL DUP3 ADD DUP2 ADD SWAP1 SWAP3 MSTORE DUP9 DUP2 MSTORE SWAP3 POP DUP9 SWAP2 POP DUP8 SWAP1 DUP2 SWAP1 DUP5 ADD DUP4 DUP3 DUP1 DUP3 DUP5 CALLDATACOPY PUSH1 0x0 SWAP3 ADD SWAP2 SWAP1 SWAP2 MSTORE POP PUSH3 0x2197 SWAP3 POP POP POP JUMP JUMPDEST DUP1 MLOAD MLOAD SWAP1 SWAP2 POP PUSH3 0x19F6 JUMPI PUSH1 0x40 MLOAD PUSH3 0x461BCD PUSH1 0xE5 SHL DUP2 MSTORE PUSH1 0x4 ADD PUSH3 0x2C9 SWAP1 PUSH3 0x4383 JUMP JUMPDEST PUSH1 0x60 ADD MLOAD SWAP1 POP JUMPDEST SWAP5 SWAP4 POP POP POP POP JUMP JUMPDEST PUSH3 0x1A0F PUSH3 0x29F2 JUMP JUMPDEST PUSH3 0x1A23 DUP3 PUSH1 0x0 ADD MLOAD DUP4 PUSH1 0x20 ADD MLOAD PUSH3 0x2197 JUMP JUMPDEST DUP3 MLOAD MLOAD SWAP1 SWAP2 POP PUSH3 0x1A48 JUMPI PUSH1 0x40 MLOAD PUSH3 0x461BCD PUSH1 0xE5 SHL DUP2 MSTORE PUSH1 0x4 ADD PUSH3 0x2C9 SWAP1 PUSH3 0x4383 JUMP JUMPDEST PUSH1 0x0 DUP2 PUSH1 0x60 ADD MLOAD PUSH1 0x3 DUP2 GT ISZERO PUSH3 0x1A5B JUMPI INVALID JUMPDEST EQ PUSH3 0x1A7B JUMPI PUSH1 0x40 MLOAD PUSH3 0x461BCD PUSH1 0xE5 SHL DUP2 MSTORE PUSH1 0x4 ADD PUSH3 0x2C9 SWAP1 PUSH3 0x43DD JUMP JUMPDEST PUSH3 0x1A85 PUSH3 0x2BE8 JUMP JUMPDEST POP PUSH2 0x120 DUP2 ADD MLOAD PUSH1 0x60 DUP2 ADD MLOAD TIMESTAMP SWAP1 DUP2 GT ISZERO PUSH3 0x1AB5 JUMPI PUSH1 0x40 MLOAD PUSH3 0x461BCD PUSH1 0xE5 SHL DUP2 MSTORE PUSH1 0x4 ADD PUSH3 0x2C9 SWAP1 PUSH3 0x43B9 JUMP JUMPDEST PUSH1 0x0 DUP5 PUSH1 0x80 ADD MLOAD DUP6 PUSH1 0x60 ADD MLOAD ADD GT PUSH3 0x1AE2 JUMPI PUSH1 0x40 MLOAD PUSH3 0x461BCD PUSH1 0xE5 SHL DUP2 MSTORE PUSH1 0x4 ADD PUSH3 0x2C9 SWAP1 PUSH3 0x435F JUMP JUMPDEST PUSH1 0x0 DUP4 PUSH1 0xE0 ADD MLOAD PUSH1 0xC0 ADD MLOAD SWAP1 POP DUP1 PUSH1 0x1 PUSH1 0x1 PUSH1 0xA0 SHL SUB AND PUSH4 0x23B872DD CALLER DUP7 PUSH1 0xE0 ADD MLOAD PUSH1 0xE0 ADD MLOAD PUSH1 0x1 PUSH1 0x1 PUSH1 0xA0 SHL SUB AND PUSH4 0x38CC4831 PUSH1 0x40 MLOAD DUP2 PUSH4 0xFFFFFFFF AND PUSH1 0xE0 SHL DUP2 MSTORE PUSH1 0x4 ADD PUSH1 0x20 PUSH1 0x40 MLOAD DUP1 DUP4 SUB DUP2 DUP7 DUP1 EXTCODESIZE ISZERO DUP1 ISZERO PUSH3 0x1B41 JUMPI PUSH1 0x0 DUP1 REVERT JUMPDEST POP GAS STATICCALL ISZERO DUP1 ISZERO PUSH3 0x1B56 JUMPI RETURNDATASIZE PUSH1 0x0 DUP1 RETURNDATACOPY RETURNDATASIZE PUSH1 0x0 REVERT JUMPDEST POP POP POP POP PUSH1 0x40 MLOAD RETURNDATASIZE PUSH1 0x1F NOT PUSH1 0x1F DUP3 ADD AND DUP3 ADD DUP1 PUSH1 0x40 MSTORE POP PUSH3 0x1B7C SWAP2 SWAP1 DUP2 ADD SWAP1 PUSH3 0x3760 JUMP JUMPDEST DUP9 PUSH1 0x80 ADD MLOAD DUP10 PUSH1 0x60 ADD MLOAD ADD PUSH1 0x40 MLOAD DUP5 PUSH4 0xFFFFFFFF AND PUSH1 0xE0 SHL DUP2 MSTORE PUSH1 0x4 ADD PUSH3 0x1BA7 SWAP4 SWAP3 SWAP2 SWAP1 PUSH3 0x4264 JUMP JUMPDEST PUSH1 0x20 PUSH1 0x40 MLOAD DUP1 DUP4 SUB DUP2 PUSH1 0x0 DUP8 DUP1 EXTCODESIZE ISZERO DUP1 ISZERO PUSH3 0x1BC2 JUMPI PUSH1 0x0 DUP1 REVERT JUMPDEST POP GAS CALL ISZERO DUP1 ISZERO PUSH3 0x1BD7 JUMPI RETURNDATASIZE PUSH1 0x0 DUP1 RETURNDATACOPY RETURNDATASIZE PUSH1 0x0 REVERT JUMPDEST POP POP POP POP PUSH1 0x40 MLOAD RETURNDATASIZE PUSH1 0x1F NOT PUSH1 0x1F DUP3 ADD AND DUP3 ADD DUP1 PUSH1 0x40 MSTORE POP PUSH3 0x1BFD SWAP2 SWAP1 DUP2 ADD SWAP1 PUSH3 0x3781 JUMP JUMPDEST POP TIMESTAMP PUSH1 0xA0 DUP7 ADD MSTORE CALLER PUSH1 0x40 DUP7 ADD MSTORE DUP5 MLOAD PUSH1 0x20 DUP7 ADD MLOAD PUSH1 0x60 SWAP2 PUSH3 0x1C1F SWAP2 PUSH3 0x27FD JUMP JUMPDEST SWAP1 POP PUSH1 0x5 DUP2 PUSH1 0x40 MLOAD PUSH3 0x1C33 SWAP2 SWAP1 PUSH3 0x422D JUMP JUMPDEST SWAP1 DUP2 MSTORE PUSH1 0x40 MLOAD PUSH1 0x20 SWAP2 DUP2 SWAP1 SUB DUP3 ADD SWAP1 KECCAK256 DUP1 SLOAD PUSH1 0x1 DUP2 ADD DUP1 DUP4 SSTORE PUSH1 0x0 SWAP3 DUP4 MSTORE SWAP2 DUP4 SWAP1 KECCAK256 DUP10 MLOAD DUP1 MLOAD SWAP4 SWAP5 DUP12 SWAP5 PUSH1 0x6 SWAP1 SWAP5 MUL SWAP1 SWAP3 ADD SWAP3 PUSH3 0x1C75 SWAP3 DUP5 SWAP3 ADD SWAP1 PUSH3 0x2B63 JUMP JUMPDEST POP PUSH1 0x20 DUP3 DUP2 ADD MLOAD DUP1 MLOAD PUSH3 0x1C90 SWAP3 PUSH1 0x1 DUP6 ADD SWAP3 ADD SWAP1 PUSH3 0x2B63 JUMP JUMPDEST POP PUSH1 0x40 DUP3 DUP2 ADD MLOAD PUSH1 0x2 DUP4 ADD DUP1 SLOAD PUSH1 0x1 PUSH1 0x1 PUSH1 0xA0 SHL SUB NOT AND PUSH1 0x1 PUSH1 0x1 PUSH1 0xA0 SHL SUB SWAP1 SWAP3 AND SWAP2 SWAP1 SWAP2 OR SWAP1 SSTORE PUSH1 0x60 DUP4 ADD MLOAD PUSH1 0x3 DUP4 ADD SSTORE PUSH1 0x80 DUP4 ADD MLOAD PUSH1 0x4 DUP4 ADD SSTORE PUSH1 0xA0 SWAP1 SWAP3 ADD MLOAD PUSH1 0x5 SWAP1 SWAP2 ADD SSTORE PUSH1 0x20 DUP8 ADD MLOAD SWAP1 MLOAD PUSH3 0x1CEB SWAP3 POP PUSH3 0x422D JUMP JUMPDEST PUSH1 0x40 MLOAD DUP1 SWAP2 SUB SWAP1 KECCAK256 PUSH32 0x1FC2188CF86B2FDFF0C37C3A4CC9AC40D660CB3ED78875F759054AA66515180F DUP8 PUSH1 0x40 MLOAD PUSH3 0x1D24 SWAP2 SWAP1 PUSH3 0x442B JUMP JUMPDEST PUSH1 0x40 MLOAD DUP1 SWAP2 SUB SWAP1 LOG2 POP POP POP POP POP POP JUMP JUMPDEST PUSH1 0x0 PUSH1 0x4 DUP4 DUP4 PUSH1 0x40 MLOAD PUSH3 0x1D4A SWAP3 SWAP2 SWAP1 PUSH3 0x421E JUMP JUMPDEST SWAP1 DUP2 MSTORE PUSH1 0x20 ADD PUSH1 0x40 MLOAD DUP1 SWAP2 SUB SWAP1 KECCAK256 SLOAD SWAP1 POP SWAP3 SWAP2 POP POP JUMP JUMPDEST PUSH3 0x1D6B PUSH3 0x29F2 JUMP JUMPDEST PUSH3 0x1DE0 DUP7 DUP7 DUP1 DUP1 PUSH1 0x1F ADD PUSH1 0x20 DUP1 SWAP2 DIV MUL PUSH1 0x20 ADD PUSH1 0x40 MLOAD SWAP1 DUP2 ADD PUSH1 0x40 MSTORE DUP1 SWAP4 SWAP3 SWAP2 SWAP1 DUP2 DUP2 MSTORE PUSH1 0x20 ADD DUP4 DUP4 DUP1 DUP3 DUP5 CALLDATACOPY PUSH1 0x0 SWAP3 ADD SWAP2 SWAP1 SWAP2 MSTORE POP POP PUSH1 0x40 DUP1 MLOAD PUSH1 0x20 PUSH1 0x1F DUP11 ADD DUP2 SWAP1 DIV DUP2 MUL DUP3 ADD DUP2 ADD SWAP1 SWAP3 MSTORE DUP9 DUP2 MSTORE SWAP3 POP DUP9 SWAP2 POP DUP8 SWAP1 DUP2 SWAP1 DUP5 ADD DUP4 DUP3 DUP1 DUP3 DUP5 CALLDATACOPY PUSH1 0x0 SWAP3 ADD SWAP2 SWAP1 SWAP2 MSTORE POP PUSH3 0x2197 SWAP3 POP POP POP JUMP JUMPDEST DUP1 MLOAD MLOAD SWAP1 SWAP2 POP PUSH3 0x1E05 JUMPI PUSH1 0x40 MLOAD PUSH3 0x461BCD PUSH1 0xE5 SHL DUP2 MSTORE PUSH1 0x4 ADD PUSH3 0x2C9 SWAP1 PUSH3 0x4305 JUMP JUMPDEST DUP1 PUSH1 0x60 ADD MLOAD PUSH1 0x3 DUP2 GT ISZERO PUSH3 0x1E16 JUMPI INVALID JUMPDEST DUP3 PUSH1 0x3 DUP2 GT ISZERO PUSH3 0x1E23 JUMPI INVALID JUMPDEST EQ PUSH3 0x2144 JUMPI PUSH1 0x60 DUP2 ADD DUP1 MLOAD SWAP1 DUP4 PUSH1 0x3 DUP2 GT ISZERO PUSH3 0x1E3D JUMPI INVALID JUMPDEST SWAP1 DUP2 PUSH1 0x3 DUP2 GT ISZERO PUSH3 0x1E4B JUMPI INVALID JUMPDEST SWAP1 MSTORE POP DUP2 MLOAD PUSH1 0x40 MLOAD PUSH1 0x0 SWAP2 PUSH1 0x2 SWAP2 PUSH3 0x1E65 SWAP2 SWAP1 PUSH3 0x422D JUMP JUMPDEST SWAP1 DUP2 MSTORE PUSH1 0x20 ADD PUSH1 0x40 MLOAD DUP1 SWAP2 SUB SWAP1 KECCAK256 SWAP1 POP DUP3 DUP2 DUP8 DUP8 PUSH1 0x40 MLOAD PUSH3 0x1E89 SWAP3 SWAP2 SWAP1 PUSH3 0x421E JUMP JUMPDEST SWAP1 DUP2 MSTORE PUSH1 0x20 ADD PUSH1 0x40 MLOAD DUP1 SWAP2 SUB SWAP1 KECCAK256 PUSH1 0x0 DUP3 ADD MLOAD DUP2 PUSH1 0x0 ADD SWAP1 DUP1 MLOAD SWAP1 PUSH1 0x20 ADD SWAP1 PUSH3 0x1EB5 SWAP3 SWAP2 SWAP1 PUSH3 0x2B63 JUMP JUMPDEST POP PUSH1 0x20 DUP3 DUP2 ADD MLOAD DUP1 MLOAD PUSH3 0x1ED0 SWAP3 PUSH1 0x1 DUP6 ADD SWAP3 ADD SWAP1 PUSH3 0x2B63 JUMP JUMPDEST POP PUSH1 0x40 DUP3 ADD MLOAD DUP1 MLOAD PUSH3 0x1EEE SWAP2 PUSH1 0x2 DUP5 ADD SWAP2 PUSH1 0x20 SWAP1 SWAP2 ADD SWAP1 PUSH3 0x2B63 JUMP JUMPDEST POP PUSH1 0x60 DUP3 ADD MLOAD DUP2 PUSH1 0x3 ADD PUSH1 0x0 PUSH2 0x100 EXP DUP2 SLOAD DUP2 PUSH1 0xFF MUL NOT AND SWAP1 DUP4 PUSH1 0x3 DUP2 GT ISZERO PUSH3 0x1F14 JUMPI INVALID JUMPDEST MUL OR SWAP1 SSTORE POP PUSH1 0x80 DUP3 ADD MLOAD PUSH1 0x3 DUP3 ADD DUP1 SLOAD PUSH2 0xFF00 NOT AND PUSH2 0x100 DUP4 PUSH1 0x6 DUP2 GT ISZERO PUSH3 0x1F39 JUMPI INVALID JUMPDEST MUL OR SWAP1 SSTORE POP PUSH1 0xA0 DUP3 ADD MLOAD DUP1 MLOAD PUSH3 0x1F5B SWAP2 PUSH1 0x4 DUP5 ADD SWAP2 PUSH1 0x20 SWAP1 SWAP2 ADD SWAP1 PUSH3 0x2B63 JUMP JUMPDEST POP PUSH1 0xC0 DUP3 ADD MLOAD DUP1 MLOAD PUSH3 0x1F79 SWAP2 PUSH1 0x5 DUP5 ADD SWAP2 PUSH1 0x20 SWAP1 SWAP2 ADD SWAP1 PUSH3 0x2B63 JUMP JUMPDEST POP PUSH1 0xE0 DUP3 ADD MLOAD DUP1 MLOAD PUSH1 0x6 DUP4 ADD DUP1 SLOAD PUSH1 0x1 PUSH1 0x1 PUSH1 0xA0 SHL SUB NOT AND PUSH1 0x1 PUSH1 0x1 PUSH1 0xA0 SHL SUB SWAP1 SWAP3 AND SWAP2 SWAP1 SWAP2 OR DUP1 DUP3 SSTORE PUSH1 0x20 DUP4 ADD MLOAD SWAP1 DUP3 SWAP1 PUSH1 0xFF PUSH1 0xA0 SHL NOT AND PUSH1 0x1 PUSH1 0xA0 SHL DUP4 PUSH1 0x1 DUP2 GT ISZERO PUSH3 0x1FC4 JUMPI INVALID JUMPDEST MUL OR SWAP1 SSTORE POP PUSH1 0x40 DUP3 ADD MLOAD PUSH1 0x1 DUP3 ADD SSTORE PUSH1 0x60 DUP3 ADD MLOAD DUP1 MLOAD PUSH3 0x1FF0 SWAP2 PUSH1 0x2 DUP5 ADD SWAP2 PUSH1 0x20 SWAP1 SWAP2 ADD SWAP1 PUSH3 0x2B63 JUMP JUMPDEST POP PUSH1 0x80 DUP3 ADD MLOAD PUSH1 0x3 DUP3 DUP2 ADD SWAP2 SWAP1 SWAP2 SSTORE PUSH1 0xA0 DUP4 ADD MLOAD PUSH1 0x4 DUP4 ADD SSTORE PUSH1 0xC0 DUP4 ADD MLOAD PUSH1 0x5 DUP4 ADD DUP1 SLOAD PUSH1 0x1 PUSH1 0x1 PUSH1 0xA0 SHL SUB NOT SWAP1 DUP2 AND PUSH1 0x1 PUSH1 0x1 PUSH1 0xA0 SHL SUB SWAP4 DUP5 AND OR SWAP1 SWAP2 SSTORE PUSH1 0xE0 SWAP1 SWAP5 ADD MLOAD PUSH1 0x6 SWAP1 SWAP4 ADD DUP1 SLOAD SWAP1 SWAP5 AND SWAP3 AND SWAP2 SWAP1 SWAP2 OR SWAP1 SWAP2 SSTORE PUSH2 0x100 DUP4 ADD MLOAD DUP1 MLOAD PUSH1 0xD DUP5 ADD DUP1 SLOAD SWAP3 SWAP4 SWAP1 SWAP3 DUP4 SWAP2 PUSH1 0xFF NOT SWAP1 SWAP2 AND SWAP1 PUSH1 0x1 SWAP1 DUP5 SWAP1 DUP2 GT ISZERO PUSH3 0x2072 JUMPI INVALID JUMPDEST MUL OR SWAP1 SSTORE POP POP POP PUSH2 0x120 DUP3 ADD MLOAD DUP1 MLOAD PUSH1 0xE DUP4 ADD SWAP1 DUP2 SSTORE PUSH1 0x20 DUP1 DUP4 ADD MLOAD DUP1 MLOAD PUSH3 0x20A2 SWAP3 PUSH1 0xF DUP8 ADD SWAP3 ADD SWAP1 PUSH3 0x2B63 JUMP JUMPDEST POP PUSH1 0x40 DUP3 DUP2 ADD MLOAD PUSH1 0x2 DUP4 ADD SSTORE PUSH1 0x60 SWAP1 SWAP3 ADD MLOAD PUSH1 0x3 SWAP1 SWAP2 ADD SSTORE PUSH2 0x140 DUP4 ADD MLOAD PUSH1 0x12 DUP4 ADD SSTORE PUSH2 0x160 SWAP1 SWAP3 ADD MLOAD PUSH1 0x13 SWAP1 SWAP2 ADD DUP1 SLOAD PUSH1 0x1 PUSH1 0x1 PUSH1 0xA0 SHL SUB NOT AND PUSH1 0x1 PUSH1 0x1 PUSH1 0xA0 SHL SUB SWAP1 SWAP3 AND SWAP2 SWAP1 SWAP2 OR SWAP1 SSTORE MLOAD PUSH3 0x20FE SWAP1 DUP10 SWAP1 DUP10 SWAP1 PUSH3 0x421E JUMP JUMPDEST PUSH1 0x40 MLOAD DUP1 SWAP2 SUB SWAP1 KECCAK256 PUSH32 0x984B6675FFC22E1F752662B0CE0A6E95ADB7944D816AA2D09E6995C9B20A198A DUP4 DUP7 PUSH1 0x40 MLOAD PUSH3 0x2139 SWAP3 SWAP2 SWAP1 PUSH3 0x42C1 JUMP JUMPDEST PUSH1 0x40 MLOAD DUP1 SWAP2 SUB SWAP1 LOG2 POP POP JUMPDEST POP POP POP POP POP POP JUMP JUMPDEST PUSH1 0x1 PUSH1 0x1 PUSH1 0xA0 SHL SUB DUP2 AND PUSH3 0x2175 JUMPI PUSH1 0x40 MLOAD PUSH3 0x461BCD PUSH1 0xE5 SHL DUP2 MSTORE PUSH1 0x4 ADD PUSH3 0x2C9 SWAP1 PUSH3 0x433B JUMP JUMPDEST PUSH1 0x1 DUP1 SLOAD PUSH1 0x1 PUSH1 0x1 PUSH1 0xA0 SHL SUB NOT AND PUSH1 0x1 PUSH1 0x1 PUSH1 0xA0 SHL SUB SWAP3 SWAP1 SWAP3 AND SWAP2 SWAP1 SWAP2 OR SWAP1 SSTORE JUMP JUMPDEST PUSH3 0x21A1 PUSH3 0x29F2 JUMP JUMPDEST DUP3 MLOAD PUSH3 0x21C2 JUMPI PUSH1 0x40 MLOAD PUSH3 0x461BCD PUSH1 0xE5 SHL DUP2 MSTORE PUSH1 0x4 ADD PUSH3 0x2C9 SWAP1 PUSH3 0x42F3 JUMP JUMPDEST DUP2 MLOAD PUSH3 0x21E3 JUMPI PUSH1 0x40 MLOAD PUSH3 0x461BCD PUSH1 0xE5 SHL DUP2 MSTORE PUSH1 0x4 ADD PUSH3 0x2C9 SWAP1 PUSH3 0x43A7 JUMP JUMPDEST PUSH1 0x0 PUSH1 0x2 DUP5 PUSH1 0x40 MLOAD PUSH3 0x21F7 SWAP2 SWAP1 PUSH3 0x422D JUMP JUMPDEST SWAP1 DUP2 MSTORE PUSH1 0x20 ADD PUSH1 0x40 MLOAD DUP1 SWAP2 SUB SWAP1 KECCAK256 SWAP1 POP PUSH3 0x2211 PUSH3 0x29F2 JUMP JUMPDEST DUP2 DUP5 PUSH1 0x40 MLOAD PUSH3 0x2222 SWAP2 SWAP1 PUSH3 0x422D JUMP JUMPDEST SWAP1 DUP2 MSTORE PUSH1 0x40 DUP1 MLOAD PUSH1 0x20 SWAP3 DUP2 SWAP1 SUB DUP4 ADD DUP2 KECCAK256 DUP1 SLOAD PUSH1 0x2 PUSH1 0x1 DUP3 AND ISZERO PUSH2 0x100 MUL PUSH1 0x0 NOT ADD SWAP1 SWAP2 AND DIV PUSH1 0x1F DUP2 ADD DUP6 SWAP1 DIV SWAP1 SWAP5 MUL DUP3 ADD PUSH2 0x1A0 SWAP1 DUP2 ADD SWAP1 SWAP4 MSTORE PUSH2 0x180 DUP3 ADD DUP5 DUP2 MSTORE SWAP2 SWAP4 SWAP1 SWAP3 DUP5 SWAP3 SWAP2 DUP5 SWAP2 DUP5 ADD DUP3 DUP3 DUP1 ISZERO PUSH3 0x22C3 JUMPI DUP1 PUSH1 0x1F LT PUSH3 0x2297 JUMPI PUSH2 0x100 DUP1 DUP4 SLOAD DIV MUL DUP4 MSTORE SWAP2 PUSH1 0x20 ADD SWAP2 PUSH3 0x22C3 JUMP JUMPDEST DUP3 ADD SWAP2 SWAP1 PUSH1 0x0 MSTORE PUSH1 0x20 PUSH1 0x0 KECCAK256 SWAP1 JUMPDEST DUP2 SLOAD DUP2 MSTORE SWAP1 PUSH1 0x1 ADD SWAP1 PUSH1 0x20 ADD DUP1 DUP4 GT PUSH3 0x22A5 JUMPI DUP3 SWAP1 SUB PUSH1 0x1F AND DUP3 ADD SWAP2 JUMPDEST POP POP POP POP POP DUP2 MSTORE PUSH1 0x20 ADD PUSH1 0x1 DUP3 ADD DUP1 SLOAD PUSH1 0x1 DUP2 PUSH1 0x1 AND ISZERO PUSH2 0x100 MUL SUB AND PUSH1 0x2 SWAP1 DIV DUP1 PUSH1 0x1F ADD PUSH1 0x20 DUP1 SWAP2 DIV MUL PUSH1 0x20 ADD PUSH1 0x40 MLOAD SWAP1 DUP2 ADD PUSH1 0x40 MSTORE DUP1 SWAP3 SWAP2 SWAP1 DUP2 DUP2 MSTORE PUSH1 0x20 ADD DUP3 DUP1 SLOAD PUSH1 0x1 DUP2 PUSH1 0x1 AND ISZERO PUSH2 0x100 MUL SUB AND PUSH1 0x2 SWAP1 DIV DUP1 ISZERO PUSH3 0x2369 JUMPI DUP1 PUSH1 0x1F LT PUSH3 0x233D JUMPI PUSH2 0x100 DUP1 DUP4 SLOAD DIV MUL DUP4 MSTORE SWAP2 PUSH1 0x20 ADD SWAP2 PUSH3 0x2369 JUMP JUMPDEST DUP3 ADD SWAP2 SWAP1 PUSH1 0x0 MSTORE PUSH1 0x20 PUSH1 0x0 KECCAK256 SWAP1 JUMPDEST DUP2 SLOAD DUP2 MSTORE SWAP1 PUSH1 0x1 ADD SWAP1 PUSH1 0x20 ADD DUP1 DUP4 GT PUSH3 0x234B JUMPI DUP3 SWAP1 SUB PUSH1 0x1F AND DUP3 ADD SWAP2 JUMPDEST POP POP POP SWAP2 DUP4 MSTORE POP POP PUSH1 0x2 DUP3 DUP2 ADD DUP1 SLOAD PUSH1 0x40 DUP1 MLOAD PUSH1 0x20 PUSH1 0x1 DUP5 AND ISZERO PUSH2 0x100 MUL PUSH1 0x0 NOT ADD SWAP1 SWAP4 AND SWAP5 SWAP1 SWAP5 DIV PUSH1 0x1F DUP2 ADD DUP4 SWAP1 DIV DUP4 MUL DUP6 ADD DUP4 ADD SWAP1 SWAP2 MSTORE DUP1 DUP5 MSTORE SWAP4 DUP2 ADD SWAP4 SWAP1 DUP4 ADD DUP3 DUP3 DUP1 ISZERO PUSH3 0x23FF JUMPI DUP1 PUSH1 0x1F LT PUSH3 0x23D3 JUMPI PUSH2 0x100 DUP1 DUP4 SLOAD DIV MUL DUP4 MSTORE SWAP2 PUSH1 0x20 ADD SWAP2 PUSH3 0x23FF JUMP JUMPDEST DUP3 ADD SWAP2 SWAP1 PUSH1 0x0 MSTORE PUSH1 0x20 PUSH1 0x0 KECCAK256 SWAP1 JUMPDEST DUP2 SLOAD DUP2 MSTORE SWAP1 PUSH1 0x1 ADD SWAP1 PUSH1 0x20 ADD DUP1 DUP4 GT PUSH3 0x23E1 JUMPI DUP3 SWAP1 SUB PUSH1 0x1F AND DUP3 ADD SWAP2 JUMPDEST POP POP POP SWAP2 DUP4 MSTORE POP POP PUSH1 0x3 DUP3 DUP2 ADD SLOAD PUSH1 0x20 SWAP1 SWAP3 ADD SWAP2 PUSH1 0xFF AND SWAP1 DUP2 GT ISZERO PUSH3 0x2421 JUMPI INVALID JUMPDEST PUSH1 0x3 DUP2 GT ISZERO PUSH3 0x242D JUMPI INVALID JUMPDEST DUP2 MSTORE PUSH1 0x20 ADD PUSH1 0x3 DUP3 ADD PUSH1 0x1 SWAP1 SLOAD SWAP1 PUSH2 0x100 EXP SWAP1 DIV PUSH1 0xFF AND PUSH1 0x6 DUP2 GT ISZERO PUSH3 0x2450 JUMPI INVALID JUMPDEST PUSH1 0x6 DUP2 GT ISZERO PUSH3 0x245C JUMPI INVALID JUMPDEST DUP2 MSTORE PUSH1 0x4 DUP3 ADD DUP1 SLOAD PUSH1 0x40 DUP1 MLOAD PUSH1 0x20 PUSH1 0x2 PUSH1 0x1 DUP6 AND ISZERO PUSH2 0x100 MUL PUSH1 0x0 NOT ADD SWAP1 SWAP5 AND SWAP4 SWAP1 SWAP4 DIV PUSH1 0x1F DUP2 ADD DUP5 SWAP1 DIV DUP5 MUL DUP3 ADD DUP5 ADD SWAP1 SWAP3 MSTORE DUP2 DUP2 MSTORE SWAP4 DUP3 ADD SWAP4 SWAP3 SWAP2 DUP4 ADD DUP3 DUP3 DUP1 ISZERO PUSH3 0x24EE JUMPI DUP1 PUSH1 0x1F LT PUSH3 0x24C2 JUMPI PUSH2 0x100 DUP1 DUP4 SLOAD DIV MUL DUP4 MSTORE SWAP2 PUSH1 0x20 ADD SWAP2 PUSH3 0x24EE JUMP JUMPDEST DUP3 ADD SWAP2 SWAP1 PUSH1 0x0 MSTORE PUSH1 0x20 PUSH1 0x0 KECCAK256 SWAP1 JUMPDEST DUP2 SLOAD DUP2 MSTORE SWAP1 PUSH1 0x1 ADD SWAP1 PUSH1 0x20 ADD DUP1 DUP4 GT PUSH3 0x24D0 JUMPI DUP3 SWAP1 SUB PUSH1 0x1F AND DUP3 ADD SWAP2 JUMPDEST POP POP POP SWAP2 DUP4 MSTORE POP POP PUSH1 0x5 DUP3 ADD DUP1 SLOAD PUSH1 0x40 DUP1 MLOAD PUSH1 0x20 PUSH1 0x2 PUSH1 0x1 DUP6 AND ISZERO PUSH2 0x100 MUL PUSH1 0x0 NOT ADD SWAP1 SWAP5 AND SWAP4 SWAP1 SWAP4 DIV PUSH1 0x1F DUP2 ADD DUP5 SWAP1 DIV DUP5 MUL DUP3 ADD DUP5 ADD SWAP1 SWAP3 MSTORE DUP2 DUP2 MSTORE SWAP4 DUP3 ADD SWAP4 SWAP3 SWAP2 DUP4 ADD DUP3 DUP3 DUP1 ISZERO PUSH3 0x2586 JUMPI DUP1 PUSH1 0x1F LT PUSH3 0x255A JUMPI PUSH2 0x100 DUP1 DUP4 SLOAD DIV MUL DUP4 MSTORE SWAP2 PUSH1 0x20 ADD SWAP2 PUSH3 0x2586 JUMP JUMPDEST DUP3 ADD SWAP2 SWAP1 PUSH1 0x0 MSTORE PUSH1 0x20 PUSH1 0x0 KECCAK256 SWAP1 JUMPDEST DUP2 SLOAD DUP2 MSTORE SWAP1 PUSH1 0x1 ADD SWAP1 PUSH1 0x20 ADD DUP1 DUP4 GT PUSH3 0x2568 JUMPI DUP3 SWAP1 SUB PUSH1 0x1F AND DUP3 ADD SWAP2 JUMPDEST POP POP POP SWAP2 DUP4 MSTORE POP POP PUSH1 0x40 DUP1 MLOAD PUSH2 0x100 DUP2 ADD SWAP1 SWAP2 MSTORE PUSH1 0x6 DUP4 ADD DUP1 SLOAD PUSH1 0x1 PUSH1 0x1 PUSH1 0xA0 SHL SUB DUP2 AND DUP4 MSTORE PUSH1 0x20 SWAP4 DUP5 ADD SWAP4 DUP4 ADD SWAP1 PUSH1 0x1 PUSH1 0xA0 SHL SWAP1 DIV PUSH1 0xFF AND PUSH1 0x1 DUP2 GT ISZERO PUSH3 0x25CB JUMPI INVALID JUMPDEST PUSH1 0x1 DUP2 GT ISZERO PUSH3 0x25D7 JUMPI INVALID JUMPDEST DUP2 MSTORE PUSH1 0x20 ADD PUSH1 0x1 DUP3 ADD SLOAD DUP2 MSTORE PUSH1 0x20 ADD PUSH1 0x2 DUP3 ADD DUP1 SLOAD PUSH1 0x1 DUP2 PUSH1 0x1 AND ISZERO PUSH2 0x100 MUL SUB AND PUSH1 0x2 SWAP1 DIV DUP1 PUSH1 0x1F ADD PUSH1 0x20 DUP1 SWAP2 DIV MUL PUSH1 0x20 ADD PUSH1 0x40 MLOAD SWAP1 DUP2 ADD PUSH1 0x40 MSTORE DUP1 SWAP3 SWAP2 SWAP1 DUP2 DUP2 MSTORE PUSH1 0x20 ADD DUP3 DUP1 SLOAD PUSH1 0x1 DUP2 PUSH1 0x1 AND ISZERO PUSH2 0x100 MUL SUB AND PUSH1 0x2 SWAP1 DIV DUP1 ISZERO PUSH3 0x2682 JUMPI DUP1 PUSH1 0x1F LT PUSH3 0x2656 JUMPI PUSH2 0x100 DUP1 DUP4 SLOAD DIV MUL DUP4 MSTORE SWAP2 PUSH1 0x20 ADD SWAP2 PUSH3 0x2682 JUMP JUMPDEST DUP3 ADD SWAP2 SWAP1 PUSH1 0x0 MSTORE PUSH1 0x20 PUSH1 0x0 KECCAK256 SWAP1 JUMPDEST DUP2 SLOAD DUP2 MSTORE SWAP1 PUSH1 0x1 ADD SWAP1 PUSH1 0x20 ADD DUP1 DUP4 GT PUSH3 0x2664 JUMPI DUP3 SWAP1 SUB PUSH1 0x1F AND DUP3 ADD SWAP2 JUMPDEST POP POP POP SWAP2 DUP4 MSTORE POP POP PUSH1 0x3 DUP3 DUP2 ADD SLOAD PUSH1 0x20 DUP1 DUP5 ADD SWAP2 SWAP1 SWAP2 MSTORE PUSH1 0x4 DUP5 ADD SLOAD PUSH1 0x40 DUP1 DUP6 ADD SWAP2 SWAP1 SWAP2 MSTORE PUSH1 0x5 DUP6 ADD SLOAD PUSH1 0x1 PUSH1 0x1 PUSH1 0xA0 SHL SUB SWAP1 DUP2 AND PUSH1 0x60 DUP7 ADD MSTORE PUSH1 0x6 SWAP1 SWAP6 ADD SLOAD SWAP1 SWAP5 AND PUSH1 0x80 SWAP1 SWAP4 ADD SWAP3 SWAP1 SWAP3 MSTORE SWAP3 DUP5 MSTORE DUP2 MLOAD DUP1 DUP3 ADD SWAP1 SWAP3 MSTORE PUSH1 0xD DUP6 ADD DUP1 SLOAD SWAP5 SWAP1 SWAP2 ADD SWAP4 SWAP2 SWAP3 SWAP1 SWAP2 DUP4 SWAP2 PUSH1 0xFF SWAP1 SWAP2 AND SWAP1 DUP2 GT ISZERO PUSH3 0x26FA JUMPI INVALID JUMPDEST PUSH1 0x3 DUP2 GT ISZERO PUSH3 0x2706 JUMPI INVALID JUMPDEST SWAP1 MSTORE POP DUP2 MSTORE PUSH1 0x40 DUP1 MLOAD PUSH1 0x80 DUP2 ADD DUP3 MSTORE PUSH1 0xE DUP5 ADD DUP1 SLOAD DUP3 MSTORE PUSH1 0xF DUP6 ADD DUP1 SLOAD DUP5 MLOAD PUSH1 0x20 PUSH1 0x2 PUSH1 0x1 DUP5 AND ISZERO PUSH2 0x100 MUL PUSH1 0x0 NOT ADD SWAP1 SWAP4 AND SWAP3 SWAP1 SWAP3 DIV PUSH1 0x1F DUP2 ADD DUP4 SWAP1 DIV DUP4 MUL DUP3 ADD DUP4 ADD SWAP1 SWAP7 MSTORE DUP6 DUP2 MSTORE SWAP6 DUP2 ADD SWAP6 SWAP4 SWAP5 SWAP3 SWAP4 DUP2 DUP7 ADD SWAP4 SWAP1 SWAP3 SWAP2 DUP4 ADD DUP3 DUP3 DUP1 ISZERO PUSH3 0x27B4 JUMPI DUP1 PUSH1 0x1F LT PUSH3 0x2788 JUMPI PUSH2 0x100 DUP1 DUP4 SLOAD DIV MUL DUP4 MSTORE SWAP2 PUSH1 0x20 ADD SWAP2 PUSH3 0x27B4 JUMP JUMPDEST DUP3 ADD SWAP2 SWAP1 PUSH1 0x0 MSTORE PUSH1 0x20 PUSH1 0x0 KECCAK256 SWAP1 JUMPDEST DUP2 SLOAD DUP2 MSTORE SWAP1 PUSH1 0x1 ADD SWAP1 PUSH1 0x20 ADD DUP1 DUP4 GT PUSH3 0x2796 JUMPI DUP3 SWAP1 SUB PUSH1 0x1F AND DUP3 ADD SWAP2 JUMPDEST POP POP POP SWAP2 DUP4 MSTORE POP POP PUSH1 0x2 DUP3 ADD SLOAD PUSH1 0x20 DUP1 DUP4 ADD SWAP2 SWAP1 SWAP2 MSTORE PUSH1 0x3 SWAP1 SWAP3 ADD SLOAD PUSH1 0x40 SWAP2 DUP3 ADD MSTORE SWAP2 DUP4 MSTORE PUSH1 0x12 DUP5 ADD SLOAD SWAP1 DUP4 ADD MSTORE PUSH1 0x13 SWAP1 SWAP3 ADD SLOAD PUSH1 0x1 PUSH1 0x1 PUSH1 0xA0 SHL SUB AND SWAP2 ADD MSTORE SWAP6 SWAP5 POP POP POP POP POP JUMP JUMPDEST PUSH1 0x60 DUP3 DUP3 PUSH1 0x40 MLOAD PUSH1 0x20 ADD PUSH3 0x2814 SWAP3 SWAP2 SWAP1 PUSH3 0x423B JUMP JUMPDEST PUSH1 0x40 MLOAD PUSH1 0x20 DUP2 DUP4 SUB SUB DUP2 MSTORE SWAP1 PUSH1 0x40 MSTORE SWAP1 POP SWAP3 SWAP2 POP POP JUMP JUMPDEST PUSH1 0x0 DUP2 DUP2 DUP1 DUP1 PUSH1 0x2 JUMPDEST PUSH1 0x2A DUP2 LT ISZERO PUSH3 0x29CF JUMPI PUSH2 0x100 DUP5 MUL SWAP4 POP DUP5 DUP2 DUP2 MLOAD DUP2 LT PUSH3 0x2852 JUMPI INVALID JUMPDEST ADD PUSH1 0x20 ADD MLOAD DUP6 MLOAD PUSH1 0xF8 SWAP2 SWAP1 SWAP2 SHR SWAP4 POP DUP6 SWAP1 PUSH1 0x1 DUP4 ADD SWAP1 DUP2 LT PUSH3 0x2871 JUMPI INVALID JUMPDEST ADD PUSH1 0x20 ADD MLOAD PUSH1 0xF8 SHR SWAP2 POP PUSH1 0x61 PUSH1 0x1 PUSH1 0x1 PUSH1 0xA0 SHL SUB DUP5 AND LT DUP1 ISZERO SWAP1 PUSH3 0x28A0 JUMPI POP PUSH1 0x66 DUP4 PUSH1 0x1 PUSH1 0x1 PUSH1 0xA0 SHL SUB AND GT ISZERO JUMPDEST ISZERO PUSH3 0x28B2 JUMPI PUSH1 0x57 DUP4 SUB SWAP3 POP PUSH3 0x291B JUMP JUMPDEST PUSH1 0x41 DUP4 PUSH1 0x1 PUSH1 0x1 PUSH1 0xA0 SHL SUB AND LT ISZERO DUP1 ISZERO PUSH3 0x28D7 JUMPI POP PUSH1 0x46 DUP4 PUSH1 0x1 PUSH1 0x1 PUSH1 0xA0 SHL SUB AND GT ISZERO JUMPDEST ISZERO PUSH3 0x28E9 JUMPI PUSH1 0x37 DUP4 SUB SWAP3 POP PUSH3 0x291B JUMP JUMPDEST PUSH1 0x30 DUP4 PUSH1 0x1 PUSH1 0x1 PUSH1 0xA0 SHL SUB AND LT ISZERO DUP1 ISZERO PUSH3 0x290E JUMPI POP PUSH1 0x39 DUP4 PUSH1 0x1 PUSH1 0x1 PUSH1 0xA0 SHL SUB AND GT ISZERO JUMPDEST ISZERO PUSH3 0x291B JUMPI PUSH1 0x30 DUP4 SUB SWAP3 POP JUMPDEST PUSH1 0x61 DUP3 PUSH1 0x1 PUSH1 0x1 PUSH1 0xA0 SHL SUB AND LT ISZERO DUP1 ISZERO PUSH3 0x2940 JUMPI POP PUSH1 0x66 DUP3 PUSH1 0x1 PUSH1 0x1 PUSH1 0xA0 SHL SUB AND GT ISZERO JUMPDEST ISZERO PUSH3 0x2952 JUMPI PUSH1 0x57 DUP3 SUB SWAP2 POP PUSH3 0x29BB JUMP JUMPDEST PUSH1 0x41 DUP3 PUSH1 0x1 PUSH1 0x1 PUSH1 0xA0 SHL SUB AND LT ISZERO DUP1 ISZERO PUSH3 0x2977 JUMPI POP PUSH1 0x46 DUP3 PUSH1 0x1 PUSH1 0x1 PUSH1 0xA0 SHL SUB AND GT ISZERO JUMPDEST ISZERO PUSH3 0x2989 JUMPI PUSH1 0x37 DUP3 SUB SWAP2 POP PUSH3 0x29BB JUMP JUMPDEST PUSH1 0x30 DUP3 PUSH1 0x1 PUSH1 0x1 PUSH1 0xA0 SHL SUB AND LT ISZERO DUP1 ISZERO PUSH3 0x29AE JUMPI POP PUSH1 0x39 DUP3 PUSH1 0x1 PUSH1 0x1 PUSH1 0xA0 SHL SUB AND GT ISZERO JUMPDEST ISZERO PUSH3 0x29BB JUMPI PUSH1 0x30 DUP3 SUB SWAP2 POP JUMPDEST PUSH1 0x10 DUP4 MUL DUP3 ADD SWAP4 SWAP1 SWAP4 ADD SWAP3 PUSH1 0x2 ADD PUSH3 0x2834 JUMP JUMPDEST POP SWAP2 SWAP4 POP POP POP POP JUMPDEST SWAP2 SWAP1 POP JUMP JUMPDEST PUSH1 0x60 PUSH3 0x136B DUP3 PUSH1 0x0 ADD MLOAD DUP4 PUSH1 0x20 ADD MLOAD PUSH3 0x27FD JUMP JUMPDEST PUSH1 0x40 MLOAD DUP1 PUSH2 0x180 ADD PUSH1 0x40 MSTORE DUP1 PUSH1 0x60 DUP2 MSTORE PUSH1 0x20 ADD PUSH1 0x60 DUP2 MSTORE PUSH1 0x20 ADD PUSH1 0x60 DUP2 MSTORE PUSH1 0x20 ADD PUSH1 0x0 PUSH1 0x3 DUP2 GT ISZERO PUSH3 0x2A21 JUMPI INVALID JUMPDEST DUP2 MSTORE PUSH1 0x20 ADD PUSH1 0x0 DUP2 MSTORE PUSH1 0x20 ADD PUSH1 0x60 DUP2 MSTORE PUSH1 0x20 ADD PUSH1 0x60 DUP2 MSTORE PUSH1 0x20 ADD PUSH3 0x2A45 PUSH3 0x2C10 JUMP JUMPDEST DUP2 MSTORE PUSH1 0x20 ADD PUSH3 0x2A54 PUSH3 0x2C68 JUMP JUMPDEST DUP2 MSTORE PUSH1 0x20 ADD PUSH3 0x2A63 PUSH3 0x2BE8 JUMP JUMPDEST DUP2 MSTORE PUSH1 0x0 PUSH1 0x20 DUP3 ADD DUP2 SWAP1 MSTORE PUSH1 0x40 SWAP1 SWAP2 ADD MSTORE SWAP1 JUMP JUMPDEST PUSH1 0x40 MLOAD DUP1 PUSH1 0xC0 ADD PUSH1 0x40 MSTORE DUP1 PUSH1 0x60 DUP2 MSTORE PUSH1 0x20 ADD PUSH1 0x60 DUP2 MSTORE PUSH1 0x20 ADD PUSH1 0x0 PUSH1 0x1 PUSH1 0x1 PUSH1 0xA0 SHL SUB AND DUP2 MSTORE PUSH1 0x20 ADD PUSH1 0x0 DUP2 MSTORE PUSH1 0x20 ADD PUSH1 0x0 DUP2 MSTORE PUSH1 0x20 ADD PUSH1 0x0 DUP2 MSTORE POP SWAP1 JUMP JUMPDEST PUSH1 0x40 MLOAD DUP1 PUSH1 0x80 ADD PUSH1 0x40 MSTORE DUP1 PUSH1 0x60 DUP2 MSTORE PUSH1 0x20 ADD PUSH3 0x2AD2 PUSH3 0x2C7C JUMP JUMPDEST DUP2 MSTORE PUSH1 0x20 ADD PUSH3 0x2AE1 PUSH3 0x2AF5 JUMP JUMPDEST DUP2 MSTORE PUSH1 0x20 ADD PUSH3 0x2AF0 PUSH3 0x2B17 JUMP JUMPDEST SWAP1 MSTORE SWAP1 JUMP JUMPDEST PUSH1 0x40 DUP1 MLOAD PUSH1 0x60 DUP2 ADD SWAP1 SWAP2 MSTORE DUP1 PUSH1 0x0 DUP2 MSTORE PUSH1 0x20 ADD PUSH1 0x0 DUP2 MSTORE PUSH1 0x20 ADD PUSH1 0x60 DUP2 MSTORE POP SWAP1 JUMP JUMPDEST PUSH1 0x40 DUP1 MLOAD PUSH1 0xE0 DUP2 ADD SWAP1 SWAP2 MSTORE DUP1 PUSH1 0x0 DUP2 MSTORE PUSH1 0x20 ADD PUSH1 0x60 DUP2 MSTORE PUSH1 0x20 ADD PUSH1 0x60 DUP2 MSTORE PUSH1 0x20 ADD PUSH1 0x0 DUP2 MSTORE PUSH1 0x20 ADD PUSH1 0x60 DUP2 MSTORE PUSH1 0x20 ADD PUSH1 0x60 DUP2 MSTORE PUSH1 0x20 ADD PUSH1 0x60 DUP2 MSTORE POP SWAP1 JUMP JUMPDEST PUSH2 0x6CE DUP1 PUSH3 0x4620 DUP4 CODECOPY ADD SWAP1 JUMP JUMPDEST DUP3 DUP1 SLOAD PUSH1 0x1 DUP2 PUSH1 0x1 AND ISZERO PUSH2 0x100 MUL SUB AND PUSH1 0x2 SWAP1 DIV SWAP1 PUSH1 0x0 MSTORE PUSH1 0x20 PUSH1 0x0 KECCAK256 SWAP1 PUSH1 0x1F ADD PUSH1 0x20 SWAP1 DIV DUP2 ADD SWAP3 DUP3 PUSH1 0x1F LT PUSH3 0x2BA6 JUMPI DUP1 MLOAD PUSH1 0xFF NOT AND DUP4 DUP1 ADD OR DUP6 SSTORE PUSH3 0x2BD6 JUMP JUMPDEST DUP3 DUP1 ADD PUSH1 0x1 ADD DUP6 SSTORE DUP3 ISZERO PUSH3 0x2BD6 JUMPI SWAP2 DUP3 ADD JUMPDEST DUP3 DUP2 GT ISZERO PUSH3 0x2BD6 JUMPI DUP3 MLOAD DUP3 SSTORE SWAP2 PUSH1 0x20 ADD SWAP2 SWAP1 PUSH1 0x1 ADD SWAP1 PUSH3 0x2BB9 JUMP JUMPDEST POP PUSH3 0x2BE4 SWAP3 SWAP2 POP PUSH3 0x2CA4 JUMP JUMPDEST POP SWAP1 JUMP JUMPDEST PUSH1 0x40 MLOAD DUP1 PUSH1 0x80 ADD PUSH1 0x40 MSTORE DUP1 PUSH1 0x0 DUP2 MSTORE PUSH1 0x20 ADD PUSH1 0x60 DUP2 MSTORE PUSH1 0x20 ADD PUSH1 0x0 DUP2 MSTORE PUSH1 0x20 ADD PUSH1 0x0 DUP2 MSTORE POP SWAP1 JUMP JUMPDEST PUSH1 0x40 DUP1 MLOAD PUSH2 0x100 DUP2 ADD SWAP1 SWAP2 MSTORE PUSH1 0x0 DUP1 DUP3 MSTORE PUSH1 0x20 DUP3 ADD SWAP1 DUP2 MSTORE PUSH1 0x20 ADD PUSH1 0x0 DUP2 MSTORE PUSH1 0x20 ADD PUSH1 0x60 DUP2 MSTORE PUSH1 0x20 ADD PUSH1 0x0 DUP2 MSTORE PUSH1 0x20 ADD PUSH1 0x0 DUP2 MSTORE PUSH1 0x20 ADD PUSH1 0x0 PUSH1 0x1 PUSH1 0x1 PUSH1 0xA0 SHL SUB AND DUP2 MSTORE PUSH1 0x20 ADD PUSH1 0x0 PUSH1 0x1 PUSH1 0x1 PUSH1 0xA0 SHL SUB AND DUP2 MSTORE POP SWAP1 JUMP JUMPDEST PUSH1 0x40 DUP1 MLOAD PUSH1 0x20 DUP2 ADD SWAP1 SWAP2 MSTORE DUP1 PUSH1 0x0 PUSH3 0x2AF0 JUMP JUMPDEST PUSH1 0x40 MLOAD DUP1 PUSH1 0x80 ADD PUSH1 0x40 MSTORE DUP1 PUSH1 0x60 DUP2 MSTORE PUSH1 0x20 ADD PUSH1 0x60 DUP2 MSTORE PUSH1 0x20 ADD PUSH1 0x60 DUP2 MSTORE PUSH1 0x20 ADD PUSH1 0x60 DUP2 MSTORE POP SWAP1 JUMP JUMPDEST PUSH3 0x2CC1 SWAP2 SWAP1 JUMPDEST DUP1 DUP3 GT ISZERO PUSH3 0x2BE4 JUMPI PUSH1 0x0 DUP2 SSTORE PUSH1 0x1 ADD PUSH3 0x2CAB JUMP JUMPDEST SWAP1 JUMP JUMPDEST DUP1 CALLDATALOAD PUSH3 0x136B DUP2 PUSH3 0x45BD JUMP JUMPDEST DUP1 MLOAD PUSH3 0x136B DUP2 PUSH3 0x45BD JUMP JUMPDEST PUSH1 0x0 DUP3 PUSH1 0x1F DUP4 ADD SLT PUSH3 0x2CF0 JUMPI PUSH1 0x0 DUP1 REVERT JUMPDEST DUP2 MLOAD PUSH3 0x2D07 PUSH3 0x2D01 DUP3 PUSH3 0x4475 JUMP JUMPDEST PUSH3 0x444E JUMP JUMPDEST SWAP2 POP DUP2 DUP2 DUP4 MSTORE PUSH1 0x20 DUP5 ADD SWAP4 POP PUSH1 0x20 DUP2 ADD SWAP1 POP DUP4 DUP6 PUSH1 0x20 DUP5 MUL DUP3 ADD GT ISZERO PUSH3 0x2D2D JUMPI PUSH1 0x0 DUP1 REVERT JUMPDEST PUSH1 0x0 JUMPDEST DUP4 DUP2 LT ISZERO PUSH3 0x2D5D JUMPI DUP2 PUSH3 0x2D46 DUP9 DUP3 PUSH3 0x2CD1 JUMP JUMPDEST DUP5 MSTORE POP PUSH1 0x20 SWAP3 DUP4 ADD SWAP3 SWAP2 SWAP1 SWAP2 ADD SWAP1 PUSH1 0x1 ADD PUSH3 0x2D30 JUMP JUMPDEST POP POP POP POP SWAP3 SWAP2 POP POP JUMP JUMPDEST PUSH1 0x0 DUP3 PUSH1 0x1F DUP4 ADD SLT PUSH3 0x2D79 JUMPI PUSH1 0x0 DUP1 REVERT JUMPDEST DUP2 CALLDATALOAD PUSH3 0x2D8A PUSH3 0x2D01 DUP3 PUSH3 0x4475 JUMP JUMPDEST DUP2 DUP2 MSTORE PUSH1 0x20 SWAP4 DUP5 ADD SWAP4 SWAP1 SWAP3 POP DUP3 ADD DUP4 PUSH1 0x0 JUMPDEST DUP4 DUP2 LT ISZERO PUSH3 0x2D5D JUMPI DUP2 CALLDATALOAD DUP7 ADD PUSH3 0x2DB5 DUP9 DUP3 PUSH3 0x2F08 JUMP JUMPDEST DUP5 MSTORE POP PUSH1 0x20 SWAP3 DUP4 ADD SWAP3 SWAP2 SWAP1 SWAP2 ADD SWAP1 PUSH1 0x1 ADD PUSH3 0x2D9C JUMP JUMPDEST DUP1 MLOAD PUSH3 0x136B DUP2 PUSH3 0x45D4 JUMP JUMPDEST DUP1 CALLDATALOAD PUSH3 0x136B DUP2 PUSH3 0x45DF JUMP JUMPDEST DUP1 CALLDATALOAD PUSH3 0x136B DUP2 PUSH3 0x45EA JUMP JUMPDEST DUP1 CALLDATALOAD PUSH3 0x136B DUP2 PUSH3 0x45F8 JUMP JUMPDEST DUP1 CALLDATALOAD PUSH3 0x136B DUP2 PUSH3 0x4606 JUMP JUMPDEST DUP1 MLOAD PUSH3 0x136B DUP2 PUSH3 0x4606 JUMP JUMPDEST PUSH1 0x0 DUP1 DUP4 PUSH1 0x1F DUP5 ADD SLT PUSH3 0x2E2D JUMPI PUSH1 0x0 DUP1 REVERT JUMPDEST POP DUP2 CALLDATALOAD PUSH1 0x1 PUSH1 0x1 PUSH1 0x40 SHL SUB DUP2 GT ISZERO PUSH3 0x2E45 JUMPI PUSH1 0x0 DUP1 REVERT JUMPDEST PUSH1 0x20 DUP4 ADD SWAP2 POP DUP4 PUSH1 0x1 DUP3 MUL DUP4 ADD GT ISZERO PUSH3 0x2E5E JUMPI PUSH1 0x0 DUP1 REVERT JUMPDEST SWAP3 POP SWAP3 SWAP1 POP JUMP JUMPDEST PUSH1 0x0 DUP3 PUSH1 0x1F DUP4 ADD SLT PUSH3 0x2E77 JUMPI PUSH1 0x0 DUP1 REVERT JUMPDEST DUP2 CALLDATALOAD PUSH3 0x2E88 PUSH3 0x2D01 DUP3 PUSH3 0x4496 JUMP JUMPDEST SWAP2 POP DUP1 DUP3 MSTORE PUSH1 0x20 DUP4 ADD PUSH1 0x20 DUP4 ADD DUP6 DUP4 DUP4 ADD GT ISZERO PUSH3 0x2EA5 JUMPI PUSH1 0x0 DUP1 REVERT JUMPDEST PUSH3 0x2EB2 DUP4 DUP3 DUP5 PUSH3 0x4554 JUMP JUMPDEST POP POP POP SWAP3 SWAP2 POP POP JUMP JUMPDEST PUSH1 0x0 DUP3 PUSH1 0x1F DUP4 ADD SLT PUSH3 0x2ECD JUMPI PUSH1 0x0 DUP1 REVERT JUMPDEST DUP2 MLOAD PUSH3 0x2EDE PUSH3 0x2D01 DUP3 PUSH3 0x4496 JUMP JUMPDEST SWAP2 POP DUP1 DUP3 MSTORE PUSH1 0x20 DUP4 ADD PUSH1 0x20 DUP4 ADD DUP6 DUP4 DUP4 ADD GT ISZERO PUSH3 0x2EFB JUMPI PUSH1 0x0 DUP1 REVERT JUMPDEST PUSH3 0x2EB2 DUP4 DUP3 DUP5 PUSH3 0x4560 JUMP JUMPDEST PUSH1 0x0 PUSH1 0x60 DUP3 DUP5 SUB SLT ISZERO PUSH3 0x2F1B JUMPI PUSH1 0x0 DUP1 REVERT JUMPDEST PUSH3 0x2F27 PUSH1 0x60 PUSH3 0x444E JUMP JUMPDEST SWAP1 POP PUSH1 0x0 PUSH3 0x2F37 DUP5 DUP5 PUSH3 0x3725 JUMP JUMPDEST DUP3 MSTORE POP PUSH1 0x20 PUSH3 0x2F4A DUP5 DUP5 DUP4 ADD PUSH3 0x3725 JUMP JUMPDEST PUSH1 0x20 DUP4 ADD MSTORE POP PUSH1 0x40 DUP3 ADD CALLDATALOAD PUSH1 0x1 PUSH1 0x1 PUSH1 0x40 SHL SUB DUP2 GT ISZERO PUSH3 0x2F6A JUMPI PUSH1 0x0 DUP1 REVERT JUMPDEST PUSH3 0x2F78 DUP5 DUP3 DUP6 ADD PUSH3 0x2E65 JUMP JUMPDEST PUSH1 0x40 DUP4 ADD MSTORE POP SWAP3 SWAP2 POP POP JUMP JUMPDEST PUSH1 0x0 PUSH2 0x100 DUP3 DUP5 SUB SLT ISZERO PUSH3 0x2F98 JUMPI PUSH1 0x0 DUP1 REVERT JUMPDEST PUSH3 0x2FA5 PUSH2 0x100 PUSH3 0x444E JUMP JUMPDEST SWAP1 POP PUSH1 0x0 PUSH3 0x2FB5 DUP5 DUP5 PUSH3 0x2CC4 JUMP JUMPDEST DUP3 MSTORE POP PUSH1 0x20 PUSH3 0x2FC8 DUP5 DUP5 DUP4 ADD PUSH3 0x2DE6 JUMP JUMPDEST PUSH1 0x20 DUP4 ADD MSTORE POP PUSH1 0x40 PUSH3 0x2FDE DUP5 DUP3 DUP6 ADD PUSH3 0x3725 JUMP JUMPDEST PUSH1 0x40 DUP4 ADD MSTORE POP PUSH1 0x60 DUP3 ADD CALLDATALOAD PUSH1 0x1 PUSH1 0x1 PUSH1 0x40 SHL SUB DUP2 GT ISZERO PUSH3 0x2FFE JUMPI PUSH1 0x0 DUP1 REVERT JUMPDEST PUSH3 0x300C DUP5 DUP3 DUP6 ADD PUSH3 0x2E65 JUMP JUMPDEST PUSH1 0x60 DUP4 ADD MSTORE POP PUSH1 0x80 PUSH3 0x3022 DUP5 DUP3 DUP6 ADD PUSH3 0x3725 JUMP JUMPDEST PUSH1 0x80 DUP4 ADD MSTORE POP PUSH1 0xA0 PUSH3 0x3038 DUP5 DUP3 DUP6 ADD PUSH3 0x3725 JUMP JUMPDEST PUSH1 0xA0 DUP4 ADD MSTORE POP PUSH1 0xC0 PUSH3 0x304E DUP5 DUP3 DUP6 ADD PUSH3 0x2DD9 JUMP JUMPDEST PUSH1 0xC0 DUP4 ADD MSTORE POP PUSH1 0xE0 PUSH3 0x3064 DUP5 DUP3 DUP6 ADD PUSH3 0x2DD9 JUMP JUMPDEST PUSH1 0xE0 DUP4 ADD MSTORE POP SWAP3 SWAP2 POP POP JUMP JUMPDEST PUSH1 0x0 PUSH2 0x180 DUP3 DUP5 SUB SLT ISZERO PUSH3 0x3084 JUMPI PUSH1 0x0 DUP1 REVERT JUMPDEST PUSH3 0x3091 PUSH2 0x180 PUSH3 0x444E JUMP JUMPDEST SWAP1 POP DUP2 CALLDATALOAD PUSH1 0x1 PUSH1 0x1 PUSH1 0x40 SHL SUB DUP2 GT ISZERO PUSH3 0x30AA JUMPI PUSH1 0x0 DUP1 REVERT JUMPDEST PUSH3 0x30B8 DUP5 DUP3 DUP6 ADD PUSH3 0x2E65 JUMP JUMPDEST DUP3 MSTORE POP PUSH1 0x20 DUP3 ADD CALLDATALOAD PUSH1 0x1 PUSH1 0x1 PUSH1 0x40 SHL SUB DUP2 GT ISZERO PUSH3 0x30D5 JUMPI PUSH1 0x0 DUP1 REVERT JUMPDEST PUSH3 0x30E3 DUP5 DUP3 DUP6 ADD PUSH3 0x2E65 JUMP JUMPDEST PUSH1 0x20 DUP4 ADD MSTORE POP PUSH1 0x40 DUP3 ADD CALLDATALOAD PUSH1 0x1 PUSH1 0x1 PUSH1 0x40 SHL SUB DUP2 GT ISZERO PUSH3 0x3103 JUMPI PUSH1 0x0 DUP1 REVERT JUMPDEST PUSH3 0x3111 DUP5 DUP3 DUP6 ADD PUSH3 0x2E65 JUMP JUMPDEST PUSH1 0x40 DUP4 ADD MSTORE POP PUSH1 0x60 PUSH3 0x3127 DUP5 DUP3 DUP6 ADD PUSH3 0x2E00 JUMP JUMPDEST PUSH1 0x60 DUP4 ADD MSTORE POP PUSH1 0x80 PUSH3 0x313D DUP5 DUP3 DUP6 ADD PUSH3 0x2DF3 JUMP JUMPDEST PUSH1 0x80 DUP4 ADD MSTORE POP PUSH1 0xA0 DUP3 ADD CALLDATALOAD PUSH1 0x1 PUSH1 0x1 PUSH1 0x40 SHL SUB DUP2 GT ISZERO PUSH3 0x315D JUMPI PUSH1 0x0 DUP1 REVERT JUMPDEST PUSH3 0x316B DUP5 DUP3 DUP6 ADD PUSH3 0x2E65 JUMP JUMPDEST PUSH1 0xA0 DUP4 ADD MSTORE POP PUSH1 0xC0 DUP3 ADD CALLDATALOAD PUSH1 0x1 PUSH1 0x1 PUSH1 0x40 SHL SUB DUP2 GT ISZERO PUSH3 0x318B JUMPI PUSH1 0x0 DUP1 REVERT JUMPDEST PUSH3 0x3199 DUP5 DUP3 DUP6 ADD PUSH3 0x2E65 JUMP JUMPDEST PUSH1 0xC0 DUP4 ADD MSTORE POP PUSH1 0xE0 DUP3 ADD CALLDATALOAD PUSH1 0x1 PUSH1 0x1 PUSH1 0x40 SHL SUB DUP2 GT ISZERO PUSH3 0x31B9 JUMPI PUSH1 0x0 DUP1 REVERT JUMPDEST PUSH3 0x31C7 DUP5 DUP3 DUP6 ADD PUSH3 0x2F84 JUMP JUMPDEST PUSH1 0xE0 DUP4 ADD MSTORE POP PUSH2 0x100 PUSH3 0x31DE DUP5 DUP3 DUP6 ADD PUSH3 0x32BB JUMP JUMPDEST PUSH2 0x100 DUP4 ADD MSTORE POP PUSH2 0x120 DUP3 ADD CALLDATALOAD PUSH1 0x1 PUSH1 0x1 PUSH1 0x40 SHL SUB DUP2 GT ISZERO PUSH3 0x3200 JUMPI PUSH1 0x0 DUP1 REVERT JUMPDEST PUSH3 0x320E DUP5 DUP3 DUP6 ADD PUSH3 0x36A4 JUMP JUMPDEST PUSH2 0x120 DUP4 ADD MSTORE POP PUSH2 0x140 PUSH3 0x3226 DUP5 DUP3 DUP6 ADD PUSH3 0x3725 JUMP JUMPDEST PUSH2 0x140 DUP4 ADD MSTORE POP PUSH2 0x160 PUSH3 0x323E DUP5 DUP3 DUP6 ADD PUSH3 0x2CC4 JUMP JUMPDEST PUSH2 0x160 DUP4 ADD MSTORE POP SWAP3 SWAP2 POP POP JUMP JUMPDEST PUSH1 0x0 PUSH1 0x60 DUP3 DUP5 SUB SLT ISZERO PUSH3 0x325E JUMPI PUSH1 0x0 DUP1 REVERT JUMPDEST PUSH3 0x326A PUSH1 0x60 PUSH3 0x444E JUMP JUMPDEST SWAP1 POP PUSH1 0x0 PUSH3 0x327A DUP5 DUP5 PUSH3 0x2E0D JUMP JUMPDEST DUP3 MSTORE POP PUSH1 0x20 PUSH3 0x328D DUP5 DUP5 DUP4 ADD PUSH3 0x3732 JUMP JUMPDEST PUSH1 0x20 DUP4 ADD MSTORE POP PUSH1 0x40 DUP3 ADD MLOAD PUSH1 0x1 PUSH1 0x1 PUSH1 0x40 SHL SUB DUP2 GT ISZERO PUSH3 0x32AD JUMPI PUSH1 0x0 DUP1 REVERT JUMPDEST PUSH3 0x2F78 DUP5 DUP3 DUP6 ADD PUSH3 0x2CDE JUMP JUMPDEST PUSH1 0x0 PUSH1 0x20 DUP3 DUP5 SUB SLT ISZERO PUSH3 0x32CE JUMPI PUSH1 0x0 DUP1 REVERT JUMPDEST PUSH3 0x32DA PUSH1 0x20 PUSH3 0x444E JUMP JUMPDEST SWAP1 POP PUSH1 0x0 PUSH3 0x32EA DUP5 DUP5 PUSH3 0x2E00 JUMP JUMPDEST DUP3 MSTORE POP SWAP3 SWAP2 POP POP JUMP JUMPDEST PUSH1 0x0 PUSH1 0x80 DUP3 DUP5 SUB SLT ISZERO PUSH3 0x3306 JUMPI PUSH1 0x0 DUP1 REVERT JUMPDEST PUSH3 0x3312 PUSH1 0x80 PUSH3 0x444E JUMP JUMPDEST DUP3 MLOAD SWAP1 SWAP2 POP PUSH1 0x1 PUSH1 0x1 PUSH1 0x40 SHL SUB DUP2 GT ISZERO PUSH3 0x332C JUMPI PUSH1 0x0 DUP1 REVERT JUMPDEST PUSH3 0x333A DUP5 DUP3 DUP6 ADD PUSH3 0x2EBB JUMP JUMPDEST DUP3 MSTORE POP PUSH1 0x20 DUP3 ADD MLOAD PUSH1 0x1 PUSH1 0x1 PUSH1 0x40 SHL SUB DUP2 GT ISZERO PUSH3 0x3357 JUMPI PUSH1 0x0 DUP1 REVERT JUMPDEST PUSH3 0x3365 DUP5 DUP3 DUP6 ADD PUSH3 0x33CD JUMP JUMPDEST PUSH1 0x20 DUP4 ADD MSTORE POP PUSH1 0x40 DUP3 ADD MLOAD PUSH1 0x1 PUSH1 0x1 PUSH1 0x40 SHL SUB DUP2 GT ISZERO PUSH3 0x3385 JUMPI PUSH1 0x0 DUP1 REVERT JUMPDEST PUSH3 0x3393 DUP5 DUP3 DUP6 ADD PUSH3 0x324B JUMP JUMPDEST PUSH1 0x40 DUP4 ADD MSTORE POP PUSH1 0x60 DUP3 ADD MLOAD PUSH1 0x1 PUSH1 0x1 PUSH1 0x40 SHL SUB DUP2 GT ISZERO PUSH3 0x33B3 JUMPI PUSH1 0x0 DUP1 REVERT JUMPDEST PUSH3 0x33C1 DUP5 DUP3 DUP6 ADD PUSH3 0x3570 JUMP JUMPDEST PUSH1 0x60 DUP4 ADD MSTORE POP SWAP3 SWAP2 POP POP JUMP JUMPDEST PUSH1 0x0 PUSH1 0x80 DUP3 DUP5 SUB SLT ISZERO PUSH3 0x33E0 JUMPI PUSH1 0x0 DUP1 REVERT JUMPDEST PUSH3 0x33EC PUSH1 0x80 PUSH3 0x444E JUMP JUMPDEST DUP3 MLOAD SWAP1 SWAP2 POP PUSH1 0x1 PUSH1 0x1 PUSH1 0x40 SHL SUB DUP2 GT ISZERO PUSH3 0x3406 JUMPI PUSH1 0x0 DUP1 REVERT JUMPDEST PUSH3 0x3414 DUP5 DUP3 DUP6 ADD PUSH3 0x2EBB JUMP JUMPDEST DUP3 MSTORE POP PUSH1 0x20 DUP3 ADD MLOAD PUSH1 0x1 PUSH1 0x1 PUSH1 0x40 SHL SUB DUP2 GT ISZERO PUSH3 0x3431 JUMPI PUSH1 0x0 DUP1 REVERT JUMPDEST PUSH3 0x343F DUP5 DUP3 DUP6 ADD PUSH3 0x2EBB JUMP JUMPDEST PUSH1 0x20 DUP4 ADD MSTORE POP PUSH1 0x40 DUP3 ADD MLOAD PUSH1 0x1 PUSH1 0x1 PUSH1 0x40 SHL SUB DUP2 GT ISZERO PUSH3 0x345F JUMPI PUSH1 0x0 DUP1 REVERT JUMPDEST PUSH3 0x346D DUP5 DUP3 DUP6 ADD PUSH3 0x2EBB JUMP JUMPDEST PUSH1 0x40 DUP4 ADD MSTORE POP PUSH1 0x60 DUP3 ADD MLOAD PUSH1 0x1 PUSH1 0x1 PUSH1 0x40 SHL SUB DUP2 GT ISZERO PUSH3 0x348D JUMPI PUSH1 0x0 DUP1 REVERT JUMPDEST PUSH3 0x33C1 DUP5 DUP3 DUP6 ADD PUSH3 0x2CDE JUMP JUMPDEST PUSH1 0x0 PUSH1 0xC0 DUP3 DUP5 SUB SLT ISZERO PUSH3 0x34AE JUMPI PUSH1 0x0 DUP1 REVERT JUMPDEST PUSH3 0x34BA PUSH1 0xC0 PUSH3 0x444E JUMP JUMPDEST SWAP1 POP DUP2 CALLDATALOAD PUSH1 0x1 PUSH1 0x1 PUSH1 0x40 SHL SUB DUP2 GT ISZERO PUSH3 0x34D3 JUMPI PUSH1 0x0 DUP1 REVERT JUMPDEST PUSH3 0x34E1 DUP5 DUP3 DUP6 ADD PUSH3 0x2E65 JUMP JUMPDEST DUP3 MSTORE POP PUSH1 0x20 DUP3 ADD CALLDATALOAD PUSH1 0x1 PUSH1 0x1 PUSH1 0x40 SHL SUB DUP2 GT ISZERO PUSH3 0x34FE JUMPI PUSH1 0x0 DUP1 REVERT JUMPDEST PUSH3 0x350C DUP5 DUP3 DUP6 ADD PUSH3 0x2E65 JUMP JUMPDEST PUSH1 0x20 DUP4 ADD MSTORE POP PUSH1 0x40 PUSH3 0x3522 DUP5 DUP3 DUP6 ADD PUSH3 0x2CC4 JUMP JUMPDEST PUSH1 0x40 DUP4 ADD MSTORE POP PUSH1 0x60 PUSH3 0x3538 DUP5 DUP3 DUP6 ADD PUSH3 0x3725 JUMP JUMPDEST PUSH1 0x60 DUP4 ADD MSTORE POP PUSH1 0x80 PUSH3 0x354E DUP5 DUP3 DUP6 ADD PUSH3 0x3725 JUMP JUMPDEST PUSH1 0x80 DUP4 ADD MSTORE POP PUSH1 0xA0 PUSH3 0x3564 DUP5 DUP3 DUP6 ADD PUSH3 0x3725 JUMP JUMPDEST PUSH1 0xA0 DUP4 ADD MSTORE POP SWAP3 SWAP2 POP POP JUMP JUMPDEST PUSH1 0x0 PUSH1 0xE0 DUP3 DUP5 SUB SLT ISZERO PUSH3 0x3583 JUMPI PUSH1 0x0 DUP1 REVERT JUMPDEST PUSH3 0x358F PUSH1 0xE0 PUSH3 0x444E JUMP JUMPDEST SWAP1 POP PUSH1 0x0 PUSH3 0x359F DUP5 DUP5 PUSH3 0x2E0D JUMP JUMPDEST DUP3 MSTORE POP PUSH1 0x20 DUP3 ADD MLOAD PUSH1 0x1 PUSH1 0x1 PUSH1 0x40 SHL SUB DUP2 GT ISZERO PUSH3 0x35BC JUMPI PUSH1 0x0 DUP1 REVERT JUMPDEST PUSH3 0x35CA DUP5 DUP3 DUP6 ADD PUSH3 0x2EBB JUMP JUMPDEST PUSH1 0x20 DUP4 ADD MSTORE POP PUSH1 0x40 DUP3 ADD MLOAD PUSH1 0x1 PUSH1 0x1 PUSH1 0x40 SHL SUB DUP2 GT ISZERO PUSH3 0x35EA JUMPI PUSH1 0x0 DUP1 REVERT JUMPDEST PUSH3 0x35F8 DUP5 DUP3 DUP6 ADD PUSH3 0x2CDE JUMP JUMPDEST PUSH1 0x40 DUP4 ADD MSTORE POP PUSH1 0x60 PUSH3 0x360E DUP5 DUP3 DUP6 ADD PUSH3 0x3732 JUMP JUMPDEST PUSH1 0x60 DUP4 ADD MSTORE POP PUSH1 0x80 DUP3 ADD MLOAD PUSH1 0x1 PUSH1 0x1 PUSH1 0x40 SHL SUB DUP2 GT ISZERO PUSH3 0x362E JUMPI PUSH1 0x0 DUP1 REVERT JUMPDEST PUSH3 0x363C DUP5 DUP3 DUP6 ADD PUSH3 0x2EBB JUMP JUMPDEST PUSH1 0x80 DUP4 ADD MSTORE POP PUSH1 0xA0 DUP3 ADD MLOAD PUSH1 0x1 PUSH1 0x1 PUSH1 0x40 SHL SUB DUP2 GT ISZERO PUSH3 0x365C JUMPI PUSH1 0x0 DUP1 REVERT JUMPDEST PUSH3 0x366A DUP5 DUP3 DUP6 ADD PUSH3 0x2EBB JUMP JUMPDEST PUSH1 0xA0 DUP4 ADD MSTORE POP PUSH1 0xC0 DUP3 ADD MLOAD PUSH1 0x1 PUSH1 0x1 PUSH1 0x40 SHL SUB DUP2 GT ISZERO PUSH3 0x368A JUMPI PUSH1 0x0 DUP1 REVERT JUMPDEST PUSH3 0x3698 DUP5 DUP3 DUP6 ADD PUSH3 0x2EBB JUMP JUMPDEST PUSH1 0xC0 DUP4 ADD MSTORE POP SWAP3 SWAP2 POP POP JUMP JUMPDEST PUSH1 0x0 PUSH1 0x80 DUP3 DUP5 SUB SLT ISZERO PUSH3 0x36B7 JUMPI PUSH1 0x0 DUP1 REVERT JUMPDEST PUSH3 0x36C3 PUSH1 0x80 PUSH3 0x444E JUMP JUMPDEST SWAP1 POP PUSH1 0x0 PUSH3 0x36D3 DUP5 DUP5 PUSH3 0x3725 JUMP JUMPDEST DUP3 MSTORE POP PUSH1 0x20 DUP3 ADD CALLDATALOAD PUSH1 0x1 PUSH1 0x1 PUSH1 0x40 SHL SUB DUP2 GT ISZERO PUSH3 0x36F0 JUMPI PUSH1 0x0 DUP1 REVERT JUMPDEST PUSH3 0x36FE DUP5 DUP3 DUP6 ADD PUSH3 0x2E65 JUMP JUMPDEST PUSH1 0x20 DUP4 ADD MSTORE POP PUSH1 0x40 PUSH3 0x3714 DUP5 DUP3 DUP6 ADD PUSH3 0x3725 JUMP JUMPDEST PUSH1 0x40 DUP4 ADD MSTORE POP PUSH1 0x60 PUSH3 0x33C1 DUP5 DUP3 DUP6 ADD JUMPDEST DUP1 CALLDATALOAD PUSH3 0x136B DUP2 PUSH3 0x4614 JUMP JUMPDEST DUP1 MLOAD PUSH3 0x136B DUP2 PUSH3 0x4614 JUMP JUMPDEST PUSH1 0x0 PUSH1 0x20 DUP3 DUP5 SUB SLT ISZERO PUSH3 0x3752 JUMPI PUSH1 0x0 DUP1 REVERT JUMPDEST PUSH1 0x0 PUSH3 0x19FD DUP5 DUP5 PUSH3 0x2CC4 JUMP JUMPDEST PUSH1 0x0 PUSH1 0x20 DUP3 DUP5 SUB SLT ISZERO PUSH3 0x3773 JUMPI PUSH1 0x0 DUP1 REVERT JUMPDEST PUSH1 0x0 PUSH3 0x19FD DUP5 DUP5 PUSH3 0x2CD1 JUMP JUMPDEST PUSH1 0x0 PUSH1 0x20 DUP3 DUP5 SUB SLT ISZERO PUSH3 0x3794 JUMPI PUSH1 0x0 DUP1 REVERT JUMPDEST PUSH1 0x0 PUSH3 0x19FD DUP5 DUP5 PUSH3 0x2DCC JUMP JUMPDEST PUSH1 0x0 DUP1 PUSH1 0x20 DUP4 DUP6 SUB SLT ISZERO PUSH3 0x37B6 JUMPI PUSH1 0x0 DUP1 REVERT JUMPDEST DUP3 CALLDATALOAD PUSH1 0x1 PUSH1 0x1 PUSH1 0x40 SHL SUB DUP2 GT ISZERO PUSH3 0x37CD JUMPI PUSH1 0x0 DUP1 REVERT JUMPDEST PUSH3 0x37DB DUP6 DUP3 DUP7 ADD PUSH3 0x2E1A JUMP JUMPDEST SWAP3 POP SWAP3 POP POP SWAP3 POP SWAP3 SWAP1 POP JUMP JUMPDEST PUSH1 0x0 DUP1 PUSH1 0x0 DUP1 PUSH1 0x40 DUP6 DUP8 SUB SLT ISZERO PUSH3 0x37FE JUMPI PUSH1 0x0 DUP1 REVERT JUMPDEST DUP5 CALLDATALOAD PUSH1 0x1 PUSH1 0x1 PUSH1 0x40 SHL SUB DUP2 GT ISZERO PUSH3 0x3815 JUMPI PUSH1 0x0 DUP1 REVERT JUMPDEST PUSH3 0x3823 DUP8 DUP3 DUP9 ADD PUSH3 0x2E1A JUMP JUMPDEST SWAP5 POP SWAP5 POP POP PUSH1 0x20 DUP6 ADD CALLDATALOAD PUSH1 0x1 PUSH1 0x1 PUSH1 0x40 SHL SUB DUP2 GT ISZERO PUSH3 0x3842 JUMPI PUSH1 0x0 DUP1 REVERT JUMPDEST PUSH3 0x3850 DUP8 DUP3 DUP9 ADD PUSH3 0x2E1A JUMP JUMPDEST SWAP6 SWAP9 SWAP5 SWAP8 POP SWAP6 POP POP POP POP JUMP JUMPDEST PUSH1 0x0 DUP1 PUSH1 0x0 DUP1 PUSH1 0x0 PUSH1 0x60 DUP7 DUP9 SUB SLT ISZERO PUSH3 0x3875 JUMPI PUSH1 0x0 DUP1 REVERT JUMPDEST DUP6 CALLDATALOAD PUSH1 0x1 PUSH1 0x1 PUSH1 0x40 SHL SUB DUP2 GT ISZERO PUSH3 0x388C JUMPI PUSH1 0x0 DUP1 REVERT JUMPDEST PUSH3 0x389A DUP9 DUP3 DUP10 ADD PUSH3 0x2E1A JUMP JUMPDEST SWAP6 POP SWAP6 POP POP PUSH1 0x20 DUP7 ADD CALLDATALOAD PUSH1 0x1 PUSH1 0x1 PUSH1 0x40 SHL SUB DUP2 GT ISZERO PUSH3 0x38B9 JUMPI PUSH1 0x0 DUP1 REVERT JUMPDEST PUSH3 0x38C7 DUP9 DUP3 DUP10 ADD PUSH3 0x2E1A JUMP JUMPDEST SWAP4 POP SWAP4 POP POP PUSH1 0x40 PUSH3 0x38DC DUP9 DUP3 DUP10 ADD PUSH3 0x2E00 JUMP JUMPDEST SWAP2 POP POP SWAP3 SWAP6 POP SWAP3 SWAP6 SWAP1 SWAP4 POP JUMP JUMPDEST PUSH1 0x0 DUP1 PUSH1 0x40 DUP4 DUP6 SUB SLT ISZERO PUSH3 0x38FD JUMPI PUSH1 0x0 DUP1 REVERT JUMPDEST DUP3 CALLDATALOAD PUSH1 0x1 PUSH1 0x1 PUSH1 0x40 SHL SUB DUP2 GT ISZERO PUSH3 0x3914 JUMPI PUSH1 0x0 DUP1 REVERT JUMPDEST PUSH3 0x3922 DUP6 DUP3 DUP7 ADD PUSH3 0x3070 JUMP JUMPDEST SWAP3 POP POP PUSH1 0x20 DUP4 ADD CALLDATALOAD PUSH1 0x1 PUSH1 0x1 PUSH1 0x40 SHL SUB DUP2 GT ISZERO PUSH3 0x393F JUMPI PUSH1 0x0 DUP1 REVERT JUMPDEST PUSH3 0x394D DUP6 DUP3 DUP7 ADD PUSH3 0x2D67 JUMP JUMPDEST SWAP2 POP POP SWAP3 POP SWAP3 SWAP1 POP JUMP JUMPDEST PUSH1 0x0 PUSH1 0x20 DUP3 DUP5 SUB SLT ISZERO PUSH3 0x396A JUMPI PUSH1 0x0 DUP1 REVERT JUMPDEST DUP2 MLOAD PUSH1 0x1 PUSH1 0x1 PUSH1 0x40 SHL SUB DUP2 GT ISZERO PUSH3 0x3981 JUMPI PUSH1 0x0 DUP1 REVERT JUMPDEST PUSH3 0x19FD DUP5 DUP3 DUP6 ADD PUSH3 0x32F3 JUMP JUMPDEST PUSH1 0x0 PUSH1 0x20 DUP3 DUP5 SUB SLT ISZERO PUSH3 0x39A2 JUMPI PUSH1 0x0 DUP1 REVERT JUMPDEST DUP2 CALLDATALOAD PUSH1 0x1 PUSH1 0x1 PUSH1 0x40 SHL SUB DUP2 GT ISZERO PUSH3 0x39B9 JUMPI PUSH1 0x0 DUP1 REVERT JUMPDEST PUSH3 0x19FD DUP5 DUP3 DUP6 ADD PUSH3 0x349B JUMP JUMPDEST PUSH1 0x0 PUSH1 0x20 DUP3 DUP5 SUB SLT ISZERO PUSH3 0x39DA JUMPI PUSH1 0x0 DUP1 REVERT JUMPDEST PUSH1 0x0 PUSH3 0x19FD DUP5 DUP5 PUSH3 0x3732 JUMP JUMPDEST PUSH1 0x0 PUSH3 0x39F6 DUP4 DUP4 PUSH3 0x3EDA JUMP JUMPDEST SWAP4 SWAP3 POP POP POP JUMP JUMPDEST PUSH3 0x3A08 DUP2 PUSH3 0x4520 JUMP JUMPDEST DUP3 MSTORE POP POP JUMP JUMPDEST PUSH3 0x3A08 DUP2 PUSH3 0x44D1 JUMP JUMPDEST PUSH1 0x0 PUSH3 0x3A26 DUP3 PUSH3 0x44C4 JUMP JUMPDEST PUSH3 0x3A32 DUP2 DUP6 PUSH3 0x44C8 JUMP JUMPDEST SWAP4 POP DUP4 PUSH1 0x20 DUP3 MUL DUP6 ADD PUSH3 0x3A46 DUP6 PUSH3 0x44BE JUMP JUMPDEST DUP1 PUSH1 0x0 JUMPDEST DUP6 DUP2 LT ISZERO PUSH3 0x3A86 JUMPI DUP5 DUP5 SUB DUP10 MSTORE DUP2 MLOAD PUSH3 0x3A66 DUP6 DUP3 PUSH3 0x39E8 JUMP JUMPDEST SWAP5 POP PUSH3 0x3A73 DUP4 PUSH3 0x44BE JUMP JUMPDEST PUSH1 0x20 SWAP11 SWAP1 SWAP11 ADD SWAP10 SWAP3 POP POP PUSH1 0x1 ADD PUSH3 0x3A4A JUMP JUMPDEST POP SWAP2 SWAP8 SWAP7 POP POP POP POP POP POP POP JUMP JUMPDEST PUSH3 0x3A08 DUP2 PUSH3 0x44E3 JUMP JUMPDEST PUSH3 0x3A08 DUP2 PUSH3 0x452D JUMP JUMPDEST PUSH3 0x3A08 DUP2 PUSH3 0x453A JUMP JUMPDEST PUSH3 0x3A08 DUP2 PUSH3 0x4547 JUMP JUMPDEST PUSH1 0x0 PUSH3 0x3ACD DUP4 DUP6 PUSH3 0x29D7 JUMP JUMPDEST SWAP4 POP PUSH3 0x3ADC DUP4 DUP6 DUP5 PUSH3 0x4554 JUMP JUMPDEST POP POP ADD SWAP1 JUMP JUMPDEST PUSH1 0x0 PUSH3 0x3AEF DUP3 PUSH3 0x44C4 JUMP JUMPDEST PUSH3 0x3AFB DUP2 DUP6 PUSH3 0x44C8 JUMP JUMPDEST SWAP4 POP PUSH3 0x3B0D DUP2 DUP6 PUSH1 0x20 DUP7 ADD PUSH3 0x4560 JUMP JUMPDEST PUSH3 0x3B18 DUP2 PUSH3 0x458F JUMP JUMPDEST SWAP1 SWAP4 ADD SWAP4 SWAP3 POP POP POP JUMP JUMPDEST PUSH1 0x0 PUSH3 0x3B2F DUP3 PUSH3 0x44C4 JUMP JUMPDEST PUSH3 0x3B3B DUP2 DUP6 PUSH3 0x29D7 JUMP JUMPDEST SWAP4 POP PUSH3 0x3B4D DUP2 DUP6 PUSH1 0x20 DUP7 ADD PUSH3 0x4560 JUMP JUMPDEST SWAP3 SWAP1 SWAP3 ADD SWAP3 SWAP2 POP POP JUMP JUMPDEST PUSH1 0x0 PUSH3 0x3B66 PUSH1 0x10 DUP4 PUSH3 0x44C8 JUMP JUMPDEST PUSH16 0x69726F20696420697320656D70747921 PUSH1 0x80 SHL DUP2 MSTORE PUSH1 0x20 ADD SWAP3 SWAP2 POP POP JUMP JUMPDEST PUSH1 0x0 PUSH3 0x3B94 PUSH1 0x11 DUP4 PUSH3 0x44C8 JUMP JUMPDEST PUSH17 0x383937B837B9B0B61036B4B9B9B4B73397 PUSH1 0x79 SHL DUP2 MSTORE PUSH1 0x20 ADD SWAP3 SWAP2 POP POP JUMP JUMPDEST PUSH1 0x0 PUSH3 0x3BC3 PUSH1 0x18 DUP4 PUSH3 0x44C8 JUMP JUMPDEST PUSH32 0x626173652073657474696E67206E6F74206578697374732E0000000000000000 DUP2 MSTORE PUSH1 0x20 ADD SWAP3 SWAP2 POP POP JUMP JUMPDEST PUSH1 0x0 PUSH3 0x3BFE PUSH1 0x1C DUP4 PUSH3 0x44C8 JUMP JUMPDEST PUSH32 0x70726F706F7365722073657474696E67206E6F74206578697374732E00000000 DUP2 MSTORE PUSH1 0x20 ADD SWAP3 SWAP2 POP POP JUMP JUMPDEST PUSH1 0x0 PUSH3 0x3C39 PUSH1 0x15 DUP4 PUSH3 0x44C8 JUMP JUMPDEST PUSH21 0x34B9379030B2323932B9B99034B99032B6B83A3C97 PUSH1 0x59 SHL DUP2 MSTORE PUSH1 0x20 ADD SWAP3 SWAP2 POP POP JUMP JUMPDEST PUSH1 0x0 PUSH3 0x3C6C PUSH1 0x18 DUP4 PUSH3 0x44C8 JUMP JUMPDEST PUSH32 0x70726F706F73616C2069726F496420697320656D707479210000000000000000 DUP2 MSTORE PUSH1 0x20 ADD SWAP3 SWAP2 POP POP JUMP JUMPDEST PUSH1 0x0 PUSH3 0x3CA7 PUSH1 0x1E DUP4 PUSH3 0x44C8 JUMP JUMPDEST PUSH32 0x6120696E76616C696420766F74652C20766F7465206E756D203C3D20302E0000 DUP2 MSTORE PUSH1 0x20 ADD SWAP3 SWAP2 POP POP JUMP JUMPDEST PUSH1 0x0 PUSH3 0x3CE2 PUSH1 0x23 DUP4 PUSH3 0x44C8 JUMP JUMPDEST PUSH32 0x7468652070726F706F73616C20636F756C64206E6F742062652072656C656173 DUP2 MSTORE PUSH3 0x32B217 PUSH1 0xE9 SHL PUSH1 0x20 DUP3 ADD MSTORE PUSH1 0x40 ADD SWAP3 SWAP2 POP POP JUMP JUMPDEST PUSH1 0x0 PUSH3 0x3D29 PUSH1 0x1E DUP4 PUSH3 0x44C8 JUMP JUMPDEST PUSH32 0x70726F706F73616C206D697373696E672C20636865636B2066697273742E0000 DUP2 MSTORE PUSH1 0x20 ADD SWAP3 SWAP2 POP POP JUMP JUMPDEST PUSH1 0x0 PUSH3 0x3D64 PUSH1 0x3F DUP4 PUSH3 0x44C8 JUMP JUMPDEST PUSH32 0x70726F706F73616C20616C7265616479206578697374732C20706C6561736520 DUP2 MSTORE PUSH32 0x7265706C61636520776974682074686520636F6E7472616374206F776E657200 PUSH1 0x20 DUP3 ADD MSTORE PUSH1 0x40 ADD SWAP3 SWAP2 POP POP JUMP JUMPDEST PUSH1 0x0 PUSH3 0x3DC5 PUSH1 0x1B DUP4 PUSH3 0x44C8 JUMP JUMPDEST PUSH32 0x70726F706F73616C2073657269616C496420697320656D707479210000000000 DUP2 MSTORE PUSH1 0x20 ADD SWAP3 SWAP2 POP POP JUMP JUMPDEST PUSH1 0x0 PUSH3 0x3E00 PUSH1 0x10 DUP4 PUSH3 0x44C8 JUMP JUMPDEST PUSH16 0x3B37BA329034B99032BC3834B932B217 PUSH1 0x81 SHL DUP2 MSTORE PUSH1 0x20 ADD SWAP3 SWAP2 POP POP JUMP JUMPDEST PUSH1 0x0 PUSH3 0x3E2E PUSH1 0x19 DUP4 PUSH3 0x44C8 JUMP JUMPDEST PUSH32 0x766F7465722073657474696E67206E6F74206578697374732E00000000000000 DUP2 MSTORE PUSH1 0x20 ADD SWAP3 SWAP2 POP POP JUMP JUMPDEST PUSH1 0x0 PUSH3 0x3E69 PUSH1 0x1 DUP4 PUSH3 0x29D7 JUMP JUMPDEST PUSH1 0x1 PUSH1 0xFE SHL DUP2 MSTORE PUSH1 0x1 ADD SWAP3 SWAP2 POP POP JUMP JUMPDEST PUSH1 0x0 PUSH3 0x3E88 PUSH1 0x3A DUP4 PUSH3 0x44C8 JUMP JUMPDEST PUSH32 0x7468652070726F706F73616C20636F756C64206E6F7420626520766F74656420 DUP2 MSTORE PUSH32 0x7768656E20737461747573206973206E6F7420766F74696E672E000000000000 PUSH1 0x20 DUP3 ADD MSTORE PUSH1 0x40 ADD SWAP3 SWAP2 POP POP JUMP JUMPDEST DUP1 MLOAD PUSH1 0x0 SWAP1 PUSH1 0x60 DUP5 ADD SWAP1 PUSH3 0x3EF0 DUP6 DUP3 PUSH3 0x4213 JUMP JUMPDEST POP PUSH1 0x20 DUP4 ADD MLOAD PUSH3 0x3F05 PUSH1 0x20 DUP7 ADD DUP3 PUSH3 0x4213 JUMP JUMPDEST POP PUSH1 0x40 DUP4 ADD MLOAD DUP5 DUP3 SUB PUSH1 0x40 DUP7 ADD MSTORE PUSH3 0x3F1F DUP3 DUP3 PUSH3 0x3AE2 JUMP JUMPDEST SWAP6 SWAP5 POP POP POP POP POP JUMP JUMPDEST DUP1 MLOAD PUSH1 0x0 SWAP1 PUSH2 0x100 DUP5 ADD SWAP1 PUSH3 0x3F3F DUP6 DUP3 PUSH3 0x3A0E JUMP JUMPDEST POP PUSH1 0x20 DUP4 ADD MLOAD PUSH3 0x3F54 PUSH1 0x20 DUP7 ADD DUP3 PUSH3 0x3A9E JUMP JUMPDEST POP PUSH1 0x40 DUP4 ADD MLOAD PUSH3 0x3F69 PUSH1 0x40 DUP7 ADD DUP3 PUSH3 0x4213 JUMP JUMPDEST POP PUSH1 0x60 DUP4 ADD MLOAD DUP5 DUP3 SUB PUSH1 0x60 DUP7 ADD MSTORE PUSH3 0x3F83 DUP3 DUP3 PUSH3 0x3AE2 JUMP JUMPDEST SWAP2 POP POP PUSH1 0x80 DUP4 ADD MLOAD PUSH3 0x3F9A PUSH1 0x80 DUP7 ADD DUP3 PUSH3 0x4213 JUMP JUMPDEST POP PUSH1 0xA0 DUP4 ADD MLOAD PUSH3 0x3FAF PUSH1 0xA0 DUP7 ADD DUP3 PUSH3 0x4213 JUMP JUMPDEST POP PUSH1 0xC0 DUP4 ADD MLOAD PUSH3 0x3FC4 PUSH1 0xC0 DUP7 ADD DUP3 PUSH3 0x3A93 JUMP JUMPDEST POP PUSH1 0xE0 DUP4 ADD MLOAD PUSH3 0x3FD9 PUSH1 0xE0 DUP7 ADD DUP3 PUSH3 0x3A93 JUMP JUMPDEST POP SWAP4 SWAP3 POP POP POP JUMP JUMPDEST DUP1 MLOAD PUSH2 0x180 DUP1 DUP5 MSTORE PUSH1 0x0 SWAP2 SWAP1 DUP5 ADD SWAP1 PUSH3 0x3FFC DUP3 DUP3 PUSH3 0x3AE2 JUMP JUMPDEST SWAP2 POP POP PUSH1 0x20 DUP4 ADD MLOAD DUP5 DUP3 SUB PUSH1 0x20 DUP7 ADD MSTORE PUSH3 0x4018 DUP3 DUP3 PUSH3 0x3AE2 JUMP JUMPDEST SWAP2 POP POP PUSH1 0x40 DUP4 ADD MLOAD DUP5 DUP3 SUB PUSH1 0x40 DUP7 ADD MSTORE PUSH3 0x4034 DUP3 DUP3 PUSH3 0x3AE2 JUMP JUMPDEST SWAP2 POP POP PUSH1 0x60 DUP4 ADD MLOAD PUSH3 0x404B PUSH1 0x60 DUP7 ADD DUP3 PUSH3 0x3AB4 JUMP JUMPDEST POP PUSH1 0x80 DUP4 ADD MLOAD PUSH3 0x4060 PUSH1 0x80 DUP7 ADD DUP3 PUSH3 0x3AA9 JUMP JUMPDEST POP PUSH1 0xA0 DUP4 ADD MLOAD DUP5 DUP3 SUB PUSH1 0xA0 DUP7 ADD MSTORE PUSH3 0x407A DUP3 DUP3 PUSH3 0x3AE2 JUMP JUMPDEST SWAP2 POP POP PUSH1 0xC0 DUP4 ADD MLOAD DUP5 DUP3 SUB PUSH1 0xC0 DUP7 ADD MSTORE PUSH3 0x4096 DUP3 DUP3 PUSH3 0x3AE2 JUMP JUMPDEST SWAP2 POP POP PUSH1 0xE0 DUP4 ADD MLOAD DUP5 DUP3 SUB PUSH1 0xE0 DUP7 ADD MSTORE PUSH3 0x40B2 DUP3 DUP3 PUSH3 0x3F28 JUMP JUMPDEST SWAP2 POP POP PUSH2 0x100 DUP4 ADD MLOAD PUSH3 0x40CB PUSH2 0x100 DUP7 ADD DUP3 PUSH3 0x4117 JUMP JUMPDEST POP PUSH2 0x120 DUP4 ADD MLOAD DUP5 DUP3 SUB PUSH2 0x120 DUP7 ADD MSTORE PUSH3 0x40E7 DUP3 DUP3 PUSH3 0x41BC JUMP JUMPDEST SWAP2 POP POP PUSH2 0x140 DUP4 ADD MLOAD PUSH3 0x4100 PUSH2 0x140 DUP7 ADD DUP3 PUSH3 0x4213 JUMP JUMPDEST POP PUSH2 0x160 DUP4 ADD MLOAD PUSH3 0x3FD9 PUSH2 0x160 DUP7 ADD DUP3 PUSH3 0x3A0E JUMP JUMPDEST DUP1 MLOAD PUSH1 0x20 DUP4 ADD SWAP1 PUSH3 0x412A DUP5 DUP3 PUSH3 0x3AB4 JUMP JUMPDEST POP POP POP POP JUMP JUMPDEST DUP1 MLOAD PUSH1 0xC0 DUP1 DUP5 MSTORE PUSH1 0x0 SWAP2 SWAP1 DUP5 ADD SWAP1 PUSH3 0x414A DUP3 DUP3 PUSH3 0x3AE2 JUMP JUMPDEST SWAP2 POP POP PUSH1 0x20 DUP4 ADD MLOAD DUP5 DUP3 SUB PUSH1 0x20 DUP7 ADD MSTORE PUSH3 0x4166 DUP3 DUP3 PUSH3 0x3AE2 JUMP JUMPDEST SWAP2 POP POP PUSH1 0x40 DUP4 ADD MLOAD PUSH3 0x417D PUSH1 0x40 DUP7 ADD DUP3 PUSH3 0x3A0E JUMP JUMPDEST POP PUSH1 0x60 DUP4 ADD MLOAD PUSH3 0x4192 PUSH1 0x60 DUP7 ADD DUP3 PUSH3 0x4213 JUMP JUMPDEST POP PUSH1 0x80 DUP4 ADD MLOAD PUSH3 0x41A7 PUSH1 0x80 DUP7 ADD DUP3 PUSH3 0x4213 JUMP JUMPDEST POP PUSH1 0xA0 DUP4 ADD MLOAD PUSH3 0x3FD9 PUSH1 0xA0 DUP7 ADD DUP3 PUSH3 0x4213 JUMP JUMPDEST DUP1 MLOAD PUSH1 0x0 SWAP1 PUSH1 0x80 DUP5 ADD SWAP1 PUSH3 0x41D2 DUP6 DUP3 PUSH3 0x4213 JUMP JUMPDEST POP PUSH1 0x20 DUP4 ADD MLOAD DUP5 DUP3 SUB PUSH1 0x20 DUP7 ADD MSTORE PUSH3 0x41EC DUP3 DUP3 PUSH3 0x3AE2 JUMP JUMPDEST SWAP2 POP POP PUSH1 0x40 DUP4 ADD MLOAD PUSH3 0x4203 PUSH1 0x40 DUP7 ADD DUP3 PUSH3 0x4213 JUMP JUMPDEST POP PUSH1 0x60 DUP4 ADD MLOAD PUSH3 0x3FD9 PUSH1 0x60 DUP7 ADD DUP3 JUMPDEST PUSH3 0x3A08 DUP2 PUSH3 0x2CC1 JUMP JUMPDEST PUSH1 0x0 PUSH3 0x19FD DUP3 DUP5 DUP7 PUSH3 0x3ABF JUMP JUMPDEST PUSH1 0x0 PUSH3 0x39F6 DUP3 DUP5 PUSH3 0x3B22 JUMP JUMPDEST PUSH1 0x0 PUSH3 0x4249 DUP3 DUP6 PUSH3 0x3B22 JUMP JUMPDEST SWAP2 POP PUSH3 0x4256 DUP3 PUSH3 0x3E5A JUMP JUMPDEST SWAP2 POP PUSH3 0x19FD DUP3 DUP5 PUSH3 0x3B22 JUMP JUMPDEST PUSH1 0x60 DUP2 ADD PUSH3 0x4274 DUP3 DUP7 PUSH3 0x39FD JUMP JUMPDEST PUSH3 0x4283 PUSH1 0x20 DUP4 ADD DUP6 PUSH3 0x39FD JUMP JUMPDEST PUSH3 0x19FD PUSH1 0x40 DUP4 ADD DUP5 PUSH3 0x4213 JUMP JUMPDEST PUSH1 0x60 DUP2 ADD PUSH3 0x42A2 DUP3 DUP7 PUSH3 0x3A93 JUMP JUMPDEST PUSH3 0x4283 PUSH1 0x20 DUP4 ADD DUP6 PUSH3 0x3A0E JUMP JUMPDEST PUSH1 0x20 DUP2 ADD PUSH3 0x136B DUP3 DUP5 PUSH3 0x3AB4 JUMP JUMPDEST PUSH1 0x40 DUP2 ADD PUSH3 0x42D1 DUP3 DUP6 PUSH3 0x3AB4 JUMP JUMPDEST PUSH3 0x39F6 PUSH1 0x20 DUP4 ADD DUP5 PUSH3 0x3AB4 JUMP JUMPDEST PUSH1 0x20 DUP1 DUP3 MSTORE DUP2 ADD PUSH3 0x39F6 DUP2 DUP5 PUSH3 0x3AE2 JUMP JUMPDEST PUSH1 0x20 DUP1 DUP3 MSTORE DUP2 ADD PUSH3 0x136B DUP2 PUSH3 0x3B57 JUMP JUMPDEST PUSH1 0x20 DUP1 DUP3 MSTORE DUP2 ADD PUSH3 0x136B DUP2 PUSH3 0x3B85 JUMP JUMPDEST PUSH1 0x20 DUP1 DUP3 MSTORE DUP2 ADD PUSH3 0x136B DUP2 PUSH3 0x3BB4 JUMP JUMPDEST PUSH1 0x20 DUP1 DUP3 MSTORE DUP2 ADD PUSH3 0x136B DUP2 PUSH3 0x3BEF JUMP JUMPDEST PUSH1 0x20 DUP1 DUP3 MSTORE DUP2 ADD PUSH3 0x136B DUP2 PUSH3 0x3C2A JUMP JUMPDEST PUSH1 0x20 DUP1 DUP3 MSTORE DUP2 ADD PUSH3 0x136B DUP2 PUSH3 0x3C5D JUMP JUMPDEST PUSH1 0x20 DUP1 DUP3 MSTORE DUP2 ADD PUSH3 0x136B DUP2 PUSH3 0x3C98 JUMP JUMPDEST PUSH1 0x20 DUP1 DUP3 MSTORE DUP2 ADD PUSH3 0x136B DUP2 PUSH3 0x3CD3 JUMP JUMPDEST PUSH1 0x20 DUP1 DUP3 MSTORE DUP2 ADD PUSH3 0x136B DUP2 PUSH3 0x3D1A JUMP JUMPDEST PUSH1 0x20 DUP1 DUP3 MSTORE DUP2 ADD PUSH3 0x136B DUP2 PUSH3 0x3D55 JUMP JUMPDEST PUSH1 0x20 DUP1 DUP3 MSTORE DUP2 ADD PUSH3 0x136B DUP2 PUSH3 0x3DB6 JUMP JUMPDEST PUSH1 0x20 DUP1 DUP3 MSTORE DUP2 ADD PUSH3 0x136B DUP2 PUSH3 0x3DF1 JUMP JUMPDEST PUSH1 0x20 DUP1 DUP3 MSTORE DUP2 ADD PUSH3 0x136B DUP2 PUSH3 0x3E1F JUMP JUMPDEST PUSH1 0x20 DUP1 DUP3 MSTORE DUP2 ADD PUSH3 0x136B DUP2 PUSH3 0x3E79 JUMP JUMPDEST PUSH1 0x20 DUP1 DUP3 MSTORE DUP2 ADD PUSH3 0x39F6 DUP2 DUP5 PUSH3 0x3FE1 JUMP JUMPDEST PUSH1 0x40 DUP1 DUP3 MSTORE DUP2 ADD PUSH3 0x4415 DUP2 DUP6 PUSH3 0x3FE1 JUMP JUMPDEST SWAP1 POP DUP2 DUP2 SUB PUSH1 0x20 DUP4 ADD MSTORE PUSH3 0x19FD DUP2 DUP5 PUSH3 0x3A19 JUMP JUMPDEST PUSH1 0x20 DUP1 DUP3 MSTORE DUP2 ADD PUSH3 0x39F6 DUP2 DUP5 PUSH3 0x4130 JUMP JUMPDEST PUSH1 0x20 DUP2 ADD PUSH3 0x136B DUP3 DUP5 PUSH3 0x4213 JUMP JUMPDEST PUSH1 0x40 MLOAD DUP2 DUP2 ADD PUSH1 0x1 PUSH1 0x1 PUSH1 0x40 SHL SUB DUP2 GT DUP3 DUP3 LT OR ISZERO PUSH3 0x446D JUMPI PUSH1 0x0 DUP1 REVERT JUMPDEST PUSH1 0x40 MSTORE SWAP2 SWAP1 POP JUMP JUMPDEST PUSH1 0x0 PUSH1 0x1 PUSH1 0x1 PUSH1 0x40 SHL SUB DUP3 GT ISZERO PUSH3 0x448C JUMPI PUSH1 0x0 DUP1 REVERT JUMPDEST POP PUSH1 0x20 SWAP1 DUP2 MUL ADD SWAP1 JUMP JUMPDEST PUSH1 0x0 PUSH1 0x1 PUSH1 0x1 PUSH1 0x40 SHL SUB DUP3 GT ISZERO PUSH3 0x44AD JUMPI PUSH1 0x0 DUP1 REVERT JUMPDEST POP PUSH1 0x20 PUSH1 0x1F SWAP2 SWAP1 SWAP2 ADD PUSH1 0x1F NOT AND ADD SWAP1 JUMP JUMPDEST PUSH1 0x20 ADD SWAP1 JUMP JUMPDEST MLOAD SWAP1 JUMP JUMPDEST SWAP1 DUP2 MSTORE PUSH1 0x20 ADD SWAP1 JUMP JUMPDEST PUSH1 0x0 PUSH3 0x136B DUP3 PUSH3 0x4514 JUMP JUMPDEST ISZERO ISZERO SWAP1 JUMP JUMPDEST PUSH1 0x0 PUSH3 0x136B DUP3 PUSH3 0x44D1 JUMP JUMPDEST DUP1 PUSH3 0x29D7 DUP2 PUSH3 0x4599 JUMP JUMPDEST DUP1 PUSH3 0x29D7 DUP2 PUSH3 0x45A7 JUMP JUMPDEST DUP1 PUSH3 0x29D7 DUP2 PUSH3 0x45B2 JUMP JUMPDEST PUSH1 0x1 PUSH1 0x1 PUSH1 0xA0 SHL SUB AND SWAP1 JUMP JUMPDEST PUSH1 0x0 PUSH3 0x136B DUP3 PUSH3 0x44E3 JUMP JUMPDEST PUSH1 0x0 PUSH3 0x136B DUP3 PUSH3 0x44F0 JUMP JUMPDEST PUSH1 0x0 PUSH3 0x136B DUP3 PUSH3 0x44FC JUMP JUMPDEST PUSH1 0x0 PUSH3 0x136B DUP3 PUSH3 0x4508 JUMP JUMPDEST DUP3 DUP2 DUP4 CALLDATACOPY POP PUSH1 0x0 SWAP2 ADD MSTORE JUMP JUMPDEST PUSH1 0x0 JUMPDEST DUP4 DUP2 LT ISZERO PUSH3 0x457D JUMPI DUP2 DUP2 ADD MLOAD DUP4 DUP3 ADD MSTORE PUSH1 0x20 ADD PUSH3 0x4563 JUMP JUMPDEST DUP4 DUP2 GT ISZERO PUSH3 0x412A JUMPI POP POP PUSH1 0x0 SWAP2 ADD MSTORE JUMP JUMPDEST PUSH1 0x1F ADD PUSH1 0x1F NOT AND SWAP1 JUMP JUMPDEST PUSH1 0x2 DUP2 LT PUSH3 0x45A4 JUMPI INVALID JUMPDEST POP JUMP JUMPDEST PUSH1 0x7 DUP2 LT PUSH3 0x45A4 JUMPI INVALID JUMPDEST PUSH1 0x4 DUP2 LT PUSH3 0x45A4 JUMPI INVALID JUMPDEST PUSH3 0x45C8 DUP2 PUSH3 0x44D1 JUMP JUMPDEST DUP2 EQ PUSH3 0x45A4 JUMPI PUSH1 0x0 DUP1 REVERT JUMPDEST PUSH3 0x45C8 DUP2 PUSH3 0x44DE JUMP JUMPDEST PUSH3 0x45C8 DUP2 PUSH3 0x44E3 JUMP JUMPDEST PUSH1 0x2 DUP2 LT PUSH3 0x45A4 JUMPI PUSH1 0x0 DUP1 REVERT JUMPDEST PUSH1 0x7 DUP2 LT PUSH3 0x45A4 JUMPI PUSH1 0x0 DUP1 REVERT JUMPDEST PUSH1 0x4 DUP2 LT PUSH3 0x45A4 JUMPI PUSH1 0x0 DUP1 REVERT JUMPDEST PUSH3 0x45C8 DUP2 PUSH3 0x2CC1 JUMP INVALID PUSH1 0x80 PUSH1 0x40 MSTORE CALLVALUE DUP1 ISZERO PUSH2 0x10 JUMPI PUSH1 0x0 DUP1 REVERT JUMPDEST POP PUSH1 0x40 MLOAD PUSH2 0x6CE CODESIZE SUB DUP1 PUSH2 0x6CE DUP4 CODECOPY DUP2 ADD PUSH1 0x40 DUP2 SWAP1 MSTORE PUSH2 0x2F SWAP2 PUSH2 0x138 JUMP JUMPDEST DUP1 MLOAD PUSH2 0x42 SWAP1 PUSH1 0x0 SWAP1 PUSH1 0x20 DUP5 ADD SWAP1 PUSH2 0x49 JUMP JUMPDEST POP POP PUSH2 0x1F1 JUMP JUMPDEST DUP3 DUP1 SLOAD PUSH1 0x1 DUP2 PUSH1 0x1 AND ISZERO PUSH2 0x100 MUL SUB AND PUSH1 0x2 SWAP1 DIV SWAP1 PUSH1 0x0 MSTORE PUSH1 0x20 PUSH1 0x0 KECCAK256 SWAP1 PUSH1 0x1F ADD PUSH1 0x20 SWAP1 DIV DUP2 ADD SWAP3 DUP3 PUSH1 0x1F LT PUSH2 0x8A JUMPI DUP1 MLOAD PUSH1 0xFF NOT AND DUP4 DUP1 ADD OR DUP6 SSTORE PUSH2 0xB7 JUMP JUMPDEST DUP3 DUP1 ADD PUSH1 0x1 ADD DUP6 SSTORE DUP3 ISZERO PUSH2 0xB7 JUMPI SWAP2 DUP3 ADD JUMPDEST DUP3 DUP2 GT ISZERO PUSH2 0xB7 JUMPI DUP3 MLOAD DUP3 SSTORE SWAP2 PUSH1 0x20 ADD SWAP2 SWAP1 PUSH1 0x1 ADD SWAP1 PUSH2 0x9C JUMP JUMPDEST POP PUSH2 0xC3 SWAP3 SWAP2 POP PUSH2 0xC7 JUMP JUMPDEST POP SWAP1 JUMP JUMPDEST PUSH2 0xE1 SWAP2 SWAP1 JUMPDEST DUP1 DUP3 GT ISZERO PUSH2 0xC3 JUMPI PUSH1 0x0 DUP2 SSTORE PUSH1 0x1 ADD PUSH2 0xCD JUMP JUMPDEST SWAP1 JUMP JUMPDEST PUSH1 0x0 DUP3 PUSH1 0x1F DUP4 ADD SLT PUSH2 0xF5 JUMPI PUSH1 0x0 DUP1 REVERT JUMPDEST DUP2 MLOAD PUSH2 0x108 PUSH2 0x103 DUP3 PUSH2 0x19A JUMP JUMPDEST PUSH2 0x174 JUMP JUMPDEST SWAP2 POP DUP1 DUP3 MSTORE PUSH1 0x20 DUP4 ADD PUSH1 0x20 DUP4 ADD DUP6 DUP4 DUP4 ADD GT ISZERO PUSH2 0x124 JUMPI PUSH1 0x0 DUP1 REVERT JUMPDEST PUSH2 0x12F DUP4 DUP3 DUP5 PUSH2 0x1C1 JUMP JUMPDEST POP POP POP SWAP3 SWAP2 POP POP JUMP JUMPDEST PUSH1 0x0 PUSH1 0x20 DUP3 DUP5 SUB SLT ISZERO PUSH2 0x14A JUMPI PUSH1 0x0 DUP1 REVERT JUMPDEST DUP2 MLOAD PUSH1 0x1 PUSH1 0x1 PUSH1 0x40 SHL SUB DUP2 GT ISZERO PUSH2 0x160 JUMPI PUSH1 0x0 DUP1 REVERT JUMPDEST PUSH2 0x16C DUP5 DUP3 DUP6 ADD PUSH2 0xE4 JUMP JUMPDEST SWAP5 SWAP4 POP POP POP POP JUMP JUMPDEST PUSH1 0x40 MLOAD DUP2 DUP2 ADD PUSH1 0x1 PUSH1 0x1 PUSH1 0x40 SHL SUB DUP2 GT DUP3 DUP3 LT OR ISZERO PUSH2 0x192 JUMPI PUSH1 0x0 DUP1 REVERT JUMPDEST PUSH1 0x40 MSTORE SWAP2 SWAP1 POP JUMP JUMPDEST PUSH1 0x0 PUSH1 0x1 PUSH1 0x1 PUSH1 0x40 SHL SUB DUP3 GT ISZERO PUSH2 0x1B0 JUMPI PUSH1 0x0 DUP1 REVERT JUMPDEST POP PUSH1 0x20 PUSH1 0x1F SWAP2 SWAP1 SWAP2 ADD PUSH1 0x1F NOT AND ADD SWAP1 JUMP JUMPDEST PUSH1 0x0 JUMPDEST DUP4 DUP2 LT ISZERO PUSH2 0x1DC JUMPI DUP2 DUP2 ADD MLOAD DUP4 DUP3 ADD MSTORE PUSH1 0x20 ADD PUSH2 0x1C4 JUMP JUMPDEST DUP4 DUP2 GT ISZERO PUSH2 0x1EB JUMPI PUSH1 0x0 DUP5 DUP5 ADD MSTORE JUMPDEST POP POP POP POP JUMP JUMPDEST PUSH2 0x4CE DUP1 PUSH2 0x200 PUSH1 0x0 CODECOPY PUSH1 0x0 RETURN INVALID PUSH1 0x80 PUSH1 0x40 MSTORE PUSH1 0x4 CALLDATASIZE LT PUSH2 0x4A JUMPI PUSH1 0x0 CALLDATALOAD PUSH1 0xE0 SHR DUP1 PUSH4 0x38CC4831 EQ PUSH2 0x4C JUMPI DUP1 PUSH4 0x4F95A04B EQ PUSH2 0x77 JUMPI DUP1 PUSH4 0xBEABACC8 EQ PUSH2 0x8A JUMPI DUP1 PUSH4 0xE1F21C67 EQ PUSH2 0xAA JUMPI DUP1 PUSH4 0xFB1E6A62 EQ PUSH2 0xCA JUMPI JUMPDEST STOP JUMPDEST CALLVALUE DUP1 ISZERO PUSH2 0x58 JUMPI PUSH1 0x0 DUP1 REVERT JUMPDEST POP PUSH2 0x61 PUSH2 0xEC JUMP JUMPDEST PUSH1 0x40 MLOAD PUSH2 0x6E SWAP2 SWAP1 PUSH2 0x3A7 JUMP JUMPDEST PUSH1 0x40 MLOAD DUP1 SWAP2 SUB SWAP1 RETURN JUMPDEST PUSH2 0x4A PUSH2 0x85 CALLDATASIZE PUSH1 0x4 PUSH2 0x2AA JUMP JUMPDEST PUSH2 0xF0 JUMP JUMPDEST CALLVALUE DUP1 ISZERO PUSH2 0x96 JUMPI PUSH1 0x0 DUP1 REVERT JUMPDEST POP PUSH2 0x4A PUSH2 0xA5 CALLDATASIZE PUSH1 0x4 PUSH2 0x30A JUMP JUMPDEST PUSH2 0x12B JUMP JUMPDEST CALLVALUE DUP1 ISZERO PUSH2 0xB6 JUMPI PUSH1 0x0 DUP1 REVERT JUMPDEST POP PUSH2 0x4A PUSH2 0xC5 CALLDATASIZE PUSH1 0x4 PUSH2 0x30A JUMP JUMPDEST PUSH2 0x1B4 JUMP JUMPDEST CALLVALUE DUP1 ISZERO PUSH2 0xD6 JUMPI PUSH1 0x0 DUP1 REVERT JUMPDEST POP PUSH2 0xDF PUSH2 0x1E2 JUMP JUMPDEST PUSH1 0x40 MLOAD PUSH2 0x6E SWAP2 SWAP1 PUSH2 0x3D7 JUMP JUMPDEST ADDRESS SWAP1 JUMP JUMPDEST PUSH1 0x40 MLOAD PUSH1 0x1 PUSH1 0x1 PUSH1 0xA0 SHL SUB DUP4 AND SWAP1 DUP3 ISZERO PUSH2 0x8FC MUL SWAP1 DUP4 SWAP1 PUSH1 0x0 DUP2 DUP2 DUP2 DUP6 DUP9 DUP9 CALL SWAP4 POP POP POP POP ISZERO DUP1 ISZERO PUSH2 0x126 JUMPI RETURNDATASIZE PUSH1 0x0 DUP1 RETURNDATACOPY RETURNDATASIZE PUSH1 0x0 REVERT JUMPDEST POP POP POP JUMP JUMPDEST PUSH1 0x40 MLOAD PUSH4 0xA9059CBB PUSH1 0xE0 SHL DUP2 MSTORE PUSH1 0x1 PUSH1 0x1 PUSH1 0xA0 SHL SUB DUP5 AND SWAP1 PUSH4 0xA9059CBB SWAP1 PUSH2 0x159 SWAP1 DUP6 SWAP1 DUP6 SWAP1 PUSH1 0x4 ADD PUSH2 0x3B5 JUMP JUMPDEST PUSH1 0x20 PUSH1 0x40 MLOAD DUP1 DUP4 SUB DUP2 PUSH1 0x0 DUP8 DUP1 EXTCODESIZE ISZERO DUP1 ISZERO PUSH2 0x173 JUMPI PUSH1 0x0 DUP1 REVERT JUMPDEST POP GAS CALL ISZERO DUP1 ISZERO PUSH2 0x187 JUMPI RETURNDATASIZE PUSH1 0x0 DUP1 RETURNDATACOPY RETURNDATASIZE PUSH1 0x0 REVERT JUMPDEST POP POP POP POP PUSH1 0x40 MLOAD RETURNDATASIZE PUSH1 0x1F NOT PUSH1 0x1F DUP3 ADD AND DUP3 ADD DUP1 PUSH1 0x40 MSTORE POP PUSH2 0x1AB SWAP2 SWAP1 DUP2 ADD SWAP1 PUSH2 0x2E4 JUMP JUMPDEST PUSH2 0x126 JUMPI PUSH1 0x0 DUP1 REVERT JUMPDEST PUSH1 0x40 MLOAD PUSH4 0x95EA7B3 PUSH1 0xE0 SHL DUP2 MSTORE PUSH1 0x1 PUSH1 0x1 PUSH1 0xA0 SHL SUB DUP5 AND SWAP1 PUSH4 0x95EA7B3 SWAP1 PUSH2 0x159 SWAP1 DUP6 SWAP1 DUP6 SWAP1 PUSH1 0x4 ADD PUSH2 0x3B5 JUMP JUMPDEST PUSH1 0x0 DUP1 SLOAD PUSH1 0x40 DUP1 MLOAD PUSH1 0x20 PUSH1 0x1F PUSH1 0x2 PUSH1 0x0 NOT PUSH2 0x100 PUSH1 0x1 DUP9 AND ISZERO MUL ADD SWAP1 SWAP6 AND SWAP5 SWAP1 SWAP5 DIV SWAP4 DUP5 ADD DUP2 SWAP1 DIV DUP2 MUL DUP3 ADD DUP2 ADD SWAP1 SWAP3 MSTORE DUP3 DUP2 MSTORE PUSH1 0x60 SWAP4 SWAP1 SWAP3 SWAP1 SWAP2 DUP4 ADD DUP3 DUP3 DUP1 ISZERO PUSH2 0x26E JUMPI DUP1 PUSH1 0x1F LT PUSH2 0x243 JUMPI PUSH2 0x100 DUP1 DUP4 SLOAD DIV MUL DUP4 MSTORE SWAP2 PUSH1 0x20 ADD SWAP2 PUSH2 0x26E JUMP JUMPDEST DUP3 ADD SWAP2 SWAP1 PUSH1 0x0 MSTORE PUSH1 0x20 PUSH1 0x0 KECCAK256 SWAP1 JUMPDEST DUP2 SLOAD DUP2 MSTORE SWAP1 PUSH1 0x1 ADD SWAP1 PUSH1 0x20 ADD DUP1 DUP4 GT PUSH2 0x251 JUMPI DUP3 SWAP1 SUB PUSH1 0x1F AND DUP3 ADD SWAP2 JUMPDEST POP POP POP POP POP SWAP1 POP SWAP1 JUMP JUMPDEST DUP1 CALLDATALOAD PUSH2 0x283 DUP2 PUSH2 0x459 JUMP JUMPDEST SWAP3 SWAP2 POP POP JUMP JUMPDEST DUP1 MLOAD PUSH2 0x283 DUP2 PUSH2 0x470 JUMP JUMPDEST DUP1 CALLDATALOAD PUSH2 0x283 DUP2 PUSH2 0x479 JUMP JUMPDEST DUP1 CALLDATALOAD PUSH2 0x283 DUP2 PUSH2 0x482 JUMP JUMPDEST PUSH1 0x0 DUP1 PUSH1 0x40 DUP4 DUP6 SUB SLT ISZERO PUSH2 0x2BD JUMPI PUSH1 0x0 DUP1 REVERT JUMPDEST PUSH1 0x0 PUSH2 0x2C9 DUP6 DUP6 PUSH2 0x278 JUMP JUMPDEST SWAP3 POP POP PUSH1 0x20 PUSH2 0x2DA DUP6 DUP3 DUP7 ADD PUSH2 0x29F JUMP JUMPDEST SWAP2 POP POP SWAP3 POP SWAP3 SWAP1 POP JUMP JUMPDEST PUSH1 0x0 PUSH1 0x20 DUP3 DUP5 SUB SLT ISZERO PUSH2 0x2F6 JUMPI PUSH1 0x0 DUP1 REVERT JUMPDEST PUSH1 0x0 PUSH2 0x302 DUP5 DUP5 PUSH2 0x289 JUMP JUMPDEST SWAP5 SWAP4 POP POP POP POP JUMP JUMPDEST PUSH1 0x0 DUP1 PUSH1 0x0 PUSH1 0x60 DUP5 DUP7 SUB SLT ISZERO PUSH2 0x31F JUMPI PUSH1 0x0 DUP1 REVERT JUMPDEST PUSH1 0x0 PUSH2 0x32B DUP7 DUP7 PUSH2 0x294 JUMP JUMPDEST SWAP4 POP POP PUSH1 0x20 PUSH2 0x33C DUP7 DUP3 DUP8 ADD PUSH2 0x278 JUMP JUMPDEST SWAP3 POP POP PUSH1 0x40 PUSH2 0x34D DUP7 DUP3 DUP8 ADD PUSH2 0x29F JUMP JUMPDEST SWAP2 POP POP SWAP3 POP SWAP3 POP SWAP3 JUMP JUMPDEST PUSH2 0x360 DUP2 PUSH2 0x3F5 JUMP JUMPDEST DUP3 MSTORE POP POP JUMP JUMPDEST PUSH1 0x0 PUSH2 0x371 DUP3 PUSH2 0x3E8 JUMP JUMPDEST PUSH2 0x37B DUP2 DUP6 PUSH2 0x3EC JUMP JUMPDEST SWAP4 POP PUSH2 0x38B DUP2 DUP6 PUSH1 0x20 DUP7 ADD PUSH2 0x41F JUMP JUMPDEST PUSH2 0x394 DUP2 PUSH2 0x44F JUMP JUMPDEST SWAP1 SWAP4 ADD SWAP4 SWAP3 POP POP POP JUMP JUMPDEST PUSH2 0x360 DUP2 PUSH2 0x41C JUMP JUMPDEST PUSH1 0x20 DUP2 ADD PUSH2 0x283 DUP3 DUP5 PUSH2 0x357 JUMP JUMPDEST PUSH1 0x40 DUP2 ADD PUSH2 0x3C3 DUP3 DUP6 PUSH2 0x357 JUMP JUMPDEST PUSH2 0x3D0 PUSH1 0x20 DUP4 ADD DUP5 PUSH2 0x39E JUMP JUMPDEST SWAP4 SWAP3 POP POP POP JUMP JUMPDEST PUSH1 0x20 DUP1 DUP3 MSTORE DUP2 ADD PUSH2 0x3D0 DUP2 DUP5 PUSH2 0x366 JUMP JUMPDEST MLOAD SWAP1 JUMP JUMPDEST SWAP1 DUP2 MSTORE PUSH1 0x20 ADD SWAP1 JUMP JUMPDEST PUSH1 0x0 PUSH2 0x283 DUP3 PUSH2 0x410 JUMP JUMPDEST ISZERO ISZERO SWAP1 JUMP JUMPDEST PUSH1 0x0 PUSH2 0x283 DUP3 PUSH2 0x3F5 JUMP JUMPDEST PUSH1 0x1 PUSH1 0x1 PUSH1 0xA0 SHL SUB AND SWAP1 JUMP JUMPDEST SWAP1 JUMP JUMPDEST PUSH1 0x0 JUMPDEST DUP4 DUP2 LT ISZERO PUSH2 0x43A JUMPI DUP2 DUP2 ADD MLOAD DUP4 DUP3 ADD MSTORE PUSH1 0x20 ADD PUSH2 0x422 JUMP JUMPDEST DUP4 DUP2 GT ISZERO PUSH2 0x449 JUMPI PUSH1 0x0 DUP5 DUP5 ADD MSTORE JUMPDEST POP POP POP POP JUMP JUMPDEST PUSH1 0x1F ADD PUSH1 0x1F NOT AND SWAP1 JUMP JUMPDEST PUSH2 0x462 DUP2 PUSH2 0x3F5 JUMP JUMPDEST DUP2 EQ PUSH2 0x46D JUMPI PUSH1 0x0 DUP1 REVERT JUMPDEST POP JUMP JUMPDEST PUSH2 0x462 DUP2 PUSH2 0x400 JUMP JUMPDEST PUSH2 0x462 DUP2 PUSH2 0x405 JUMP JUMPDEST PUSH2 0x462 DUP2 PUSH2 0x41C JUMP INVALID LOG3 PUSH6 0x627A7A723158 KECCAK256 DUP12 0xD6 PUSH32 0xBF75F63BDF64CDCA5F69809AD9AD9A84EDE138D878B066C95A750592976C6578 PUSH17 0x6572696D656E74616CF564736F6C634300 SDIV LT STOP BLOCKHASH LOG3 PUSH6 0x627A7A723158 KECCAK256 SWAP7 0x4C 0x2B 0xEC 0xCC 0x49 CALLCODE ADDRESS PUSH17 0x42EFCFDBEEDFDBDCC24C1B81F73E3F9C02 0xCE 0x4A SHL MUL SAR 0xC7 PUSH13 0x6578706572696D656E74616CF5 PUSH5 0x736F6C6343 STOP SDIV LT STOP BLOCKHASH "
		},
		"gasEstimates": {
			"creation": {
				"codeDepositCost": "3952000",
				"executionCost": "infinite",
				"totalCost": "infinite"
			},
			"external": {
				"accept((string,string,string,uint8,uint8,string,string,(address,uint8,uint256,string,uint256,uint256,address,address),(uint8),(uint256,string,uint256,uint256),uint256,address),(uint256,uint256,string)[])": "infinite",
				"decide(string,string,uint8)": "infinite",
				"doVote((string,string,address,uint256,uint256,uint256))": "infinite",
				"fullSet((string,string,string,uint8,uint8,string,string,(address,uint8,uint256,string,uint256,uint256,address,address),(uint8),(uint256,string,uint256,uint256),uint256,address),(uint256,uint256,string)[])": "infinite",
				"iroProposalCount(string)": "infinite",
				"proposalDetail(string,string)": "infinite",
				"proposalStatus(string,string)": "infinite",
				"releaseProposal(string,string)": "infinite",
				"setIROBase(address)": "infinite"
			},
			"internal": {
				"getPoolId(string memory,string memory)": "infinite",
				"getPoolId(struct Proposal.ProposalDetail memory)": "infinite",
				"internalIroProposalDetail(string memory)": "infinite",
				"internalProposal(string memory,string memory)": "infinite",
				"parseAddr(string memory)": "infinite"
			}
		},
		"methodIdentifiers": {
			"accept((string,string,string,uint8,uint8,string,string,(address,uint8,uint256,string,uint256,uint256,address,address),(uint8),(uint256,string,uint256,uint256),uint256,address),(uint256,uint256,string)[])": "268d792c",
			"decide(string,string,uint8)": "d46d6d8a",
			"doVote((string,string,address,uint256,uint256,uint256))": "59f7f240",
			"fullSet((string,string,string,uint8,uint8,string,string,(address,uint8,uint256,string,uint256,uint256,address,address),(uint8),(uint256,string,uint256,uint256),uint256,address),(uint256,uint256,string)[])": "2b4a249f",
			"iroProposalCount(string)": "cee696c8",
			"proposalDetail(string,string)": "3122fef1",
			"proposalStatus(string,string)": "474b58c2",
			"releaseProposal(string,string)": "0f5e1849",
			"setIROBase(address)": "ffb135a8"
		}
	},
	"abi": [
		{
			"inputs": [
				{
					"internalType": "address",
					"name": "_iroAddress",
					"type": "address"
				}
			],
			"payable": false,
			"stateMutability": "nonpayable",
			"type": "constructor"
		},
		{
			"anonymous": false,
			"inputs": [
				{
					"indexed": true,
					"internalType": "string",
					"name": "id",
					"type": "string"
				},
				{
					"components": [
						{
							"internalType": "string",
							"name": "iroId",
							"type": "string"
						},
						{
							"internalType": "string",
							"name": "serialId",
							"type": "string"
						},
						{
							"internalType": "string",
							"name": "title",
							"type": "string"
						},
						{
							"internalType": "enum Proposal.ProposalStatus",
							"name": "status",
							"type": "uint8"
						},
						{
							"internalType": "enum Proposal.ProposalMode",
							"name": "mode",
							"type": "uint8"
						},
						{
							"internalType": "string",
							"name": "contact",
							"type": "string"
						},
						{
							"internalType": "string",
							"name": "description",
							"type": "string"
						},
						{
							"components": [
								{
									"internalType": "address",
									"name": "payer",
									"type": "address"
								},
								{
									"internalType": "enum Proposal.PaymentMode",
									"name": "mode",
									"type": "uint8"
								},
								{
									"internalType": "uint256",
									"name": "totalMonths",
									"type": "uint256"
								},
								{
									"internalType": "string",
									"name": "date",
									"type": "string"
								},
								{
									"internalType": "uint256",
									"name": "paymentAmount",
									"type": "uint256"
								},
								{
									"internalType": "uint256",
									"name": "totalAmount",
									"type": "uint256"
								},
								{
									"internalType": "contract IERC20",
									"name": "token",
									"type": "address"
								},
								{
									"internalType": "contract FundPool",
									"name": "pool",
									"type": "address"
								}
							],
							"internalType": "struct Proposal.Payment",
							"name": "payment",
							"type": "tuple"
						},
						{
							"components": [
								{
									"internalType": "enum IRO.ProposerDriver",
									"name": "driver",
									"type": "uint8"
								}
							],
							"internalType": "struct Proposal.ProposerSetup",
							"name": "proposerSetup",
							"type": "tuple"
						},
						{
							"components": [
								{
									"internalType": "uint256",
									"name": "voteMinSupporters",
									"type": "uint256"
								},
								{
									"internalType": "string",
									"name": "voteMinApprovalPercent",
									"type": "string"
								},
								{
									"internalType": "uint256",
									"name": "voteDurationHours",
									"type": "uint256"
								},
								{
									"internalType": "uint256",
									"name": "voteEndTime",
									"type": "uint256"
								}
							],
							"internalType": "struct Proposal.VoterSetup",
							"name": "voteSetup",
							"type": "tuple"
						},
						{
							"internalType": "uint256",
							"name": "blockTime",
							"type": "uint256"
						},
						{
							"internalType": "address",
							"name": "proposer",
							"type": "address"
						}
					],
					"indexed": false,
					"internalType": "struct Proposal.ProposalDetail",
					"name": "proposal",
					"type": "tuple"
				},
				{
					"components": [
						{
							"internalType": "uint256",
							"name": "index",
							"type": "uint256"
						},
						{
							"internalType": "uint256",
							"name": "token",
							"type": "uint256"
						},
						{
							"internalType": "string",
							"name": "terms",
							"type": "string"
						}
					],
					"indexed": false,
					"internalType": "struct Proposal.PaymentDetail[]",
					"name": "paymentDetails",
					"type": "tuple[]"
				}
			],
			"name": "accepted",
			"type": "event"
		},
		{
			"anonymous": false,
			"inputs": [
				{
					"indexed": true,
					"internalType": "string",
					"name": "id",
					"type": "string"
				},
				{
					"indexed": false,
					"internalType": "enum Proposal.ProposalStatus",
					"name": "original",
					"type": "uint8"
				},
				{
					"indexed": false,
					"internalType": "enum Proposal.ProposalStatus",
					"name": "target",
					"type": "uint8"
				}
			],
			"name": "statusChanged",
			"type": "event"
		},
		{
			"anonymous": false,
			"inputs": [
				{
					"indexed": true,
					"internalType": "string",
					"name": "id",
					"type": "string"
				},
				{
					"components": [
						{
							"internalType": "string",
							"name": "iroId",
							"type": "string"
						},
						{
							"internalType": "string",
							"name": "serialId",
							"type": "string"
						},
						{
							"internalType": "address",
							"name": "voter",
							"type": "address"
						},
						{
							"internalType": "uint256",
							"name": "pos",
							"type": "uint256"
						},
						{
							"internalType": "uint256",
							"name": "neg",
							"type": "uint256"
						},
						{
							"internalType": "uint256",
							"name": "voteBt",
							"type": "uint256"
						}
					],
					"indexed": false,
					"internalType": "struct Proposal.Vote",
					"name": "v",
					"type": "tuple"
				}
			],
			"name": "voted",
			"type": "event"
		},
		{
			"constant": false,
			"inputs": [
				{
					"components": [
						{
							"internalType": "string",
							"name": "iroId",
							"type": "string"
						},
						{
							"internalType": "string",
							"name": "serialId",
							"type": "string"
						},
						{
							"internalType": "string",
							"name": "title",
							"type": "string"
						},
						{
							"internalType": "enum Proposal.ProposalStatus",
							"name": "status",
							"type": "uint8"
						},
						{
							"internalType": "enum Proposal.ProposalMode",
							"name": "mode",
							"type": "uint8"
						},
						{
							"internalType": "string",
							"name": "contact",
							"type": "string"
						},
						{
							"internalType": "string",
							"name": "description",
							"type": "string"
						},
						{
							"components": [
								{
									"internalType": "address",
									"name": "payer",
									"type": "address"
								},
								{
									"internalType": "enum Proposal.PaymentMode",
									"name": "mode",
									"type": "uint8"
								},
								{
									"internalType": "uint256",
									"name": "totalMonths",
									"type": "uint256"
								},
								{
									"internalType": "string",
									"name": "date",
									"type": "string"
								},
								{
									"internalType": "uint256",
									"name": "paymentAmount",
									"type": "uint256"
								},
								{
									"internalType": "uint256",
									"name": "totalAmount",
									"type": "uint256"
								},
								{
									"internalType": "contract IERC20",
									"name": "token",
									"type": "address"
								},
								{
									"internalType": "contract FundPool",
									"name": "pool",
									"type": "address"
								}
							],
							"internalType": "struct Proposal.Payment",
							"name": "payment",
							"type": "tuple"
						},
						{
							"components": [
								{
									"internalType": "enum IRO.ProposerDriver",
									"name": "driver",
									"type": "uint8"
								}
							],
							"internalType": "struct Proposal.ProposerSetup",
							"name": "proposerSetup",
							"type": "tuple"
						},
						{
							"components": [
								{
									"internalType": "uint256",
									"name": "voteMinSupporters",
									"type": "uint256"
								},
								{
									"internalType": "string",
									"name": "voteMinApprovalPercent",
									"type": "string"
								},
								{
									"internalType": "uint256",
									"name": "voteDurationHours",
									"type": "uint256"
								},
								{
									"internalType": "uint256",
									"name": "voteEndTime",
									"type": "uint256"
								}
							],
							"internalType": "struct Proposal.VoterSetup",
							"name": "voteSetup",
							"type": "tuple"
						},
						{
							"internalType": "uint256",
							"name": "blockTime",
							"type": "uint256"
						},
						{
							"internalType": "address",
							"name": "proposer",
							"type": "address"
						}
					],
					"internalType": "struct Proposal.ProposalDetail",
					"name": "proposal",
					"type": "tuple"
				},
				{
					"components": [
						{
							"internalType": "uint256",
							"name": "index",
							"type": "uint256"
						},
						{
							"internalType": "uint256",
							"name": "token",
							"type": "uint256"
						},
						{
							"internalType": "string",
							"name": "terms",
							"type": "string"
						}
					],
					"internalType": "struct Proposal.PaymentDetail[]",
					"name": "paymentDetails",
					"type": "tuple[]"
				}
			],
			"name": "accept",
			"outputs": [
				{
					"components": [
						{
							"internalType": "string",
							"name": "iroId",
							"type": "string"
						},
						{
							"internalType": "string",
							"name": "serialId",
							"type": "string"
						},
						{
							"internalType": "string",
							"name": "title",
							"type": "string"
						},
						{
							"internalType": "enum Proposal.ProposalStatus",
							"name": "status",
							"type": "uint8"
						},
						{
							"internalType": "enum Proposal.ProposalMode",
							"name": "mode",
							"type": "uint8"
						},
						{
							"internalType": "string",
							"name": "contact",
							"type": "string"
						},
						{
							"internalType": "string",
							"name": "description",
							"type": "string"
						},
						{
							"components": [
								{
									"internalType": "address",
									"name": "payer",
									"type": "address"
								},
								{
									"internalType": "enum Proposal.PaymentMode",
									"name": "mode",
									"type": "uint8"
								},
								{
									"internalType": "uint256",
									"name": "totalMonths",
									"type": "uint256"
								},
								{
									"internalType": "string",
									"name": "date",
									"type": "string"
								},
								{
									"internalType": "uint256",
									"name": "paymentAmount",
									"type": "uint256"
								},
								{
									"internalType": "uint256",
									"name": "totalAmount",
									"type": "uint256"
								},
								{
									"internalType": "contract IERC20",
									"name": "token",
									"type": "address"
								},
								{
									"internalType": "contract FundPool",
									"name": "pool",
									"type": "address"
								}
							],
							"internalType": "struct Proposal.Payment",
							"name": "payment",
							"type": "tuple"
						},
						{
							"components": [
								{
									"internalType": "enum IRO.ProposerDriver",
									"name": "driver",
									"type": "uint8"
								}
							],
							"internalType": "struct Proposal.ProposerSetup",
							"name": "proposerSetup",
							"type": "tuple"
						},
						{
							"components": [
								{
									"internalType": "uint256",
									"name": "voteMinSupporters",
									"type": "uint256"
								},
								{
									"internalType": "string",
									"name": "voteMinApprovalPercent",
									"type": "string"
								},
								{
									"internalType": "uint256",
									"name": "voteDurationHours",
									"type": "uint256"
								},
								{
									"internalType": "uint256",
									"name": "voteEndTime",
									"type": "uint256"
								}
							],
							"internalType": "struct Proposal.VoterSetup",
							"name": "voteSetup",
							"type": "tuple"
						},
						{
							"internalType": "uint256",
							"name": "blockTime",
							"type": "uint256"
						},
						{
							"internalType": "address",
							"name": "proposer",
							"type": "address"
						}
					],
					"internalType": "struct Proposal.ProposalDetail",
					"name": "",
					"type": "tuple"
				}
			],
			"payable": true,
			"stateMutability": "payable",
			"type": "function"
		},
		{
			"constant": false,
			"inputs": [
				{
					"internalType": "string",
					"name": "id",
					"type": "string"
				},
				{
					"internalType": "string",
					"name": "serialId",
					"type": "string"
				},
				{
					"internalType": "enum Proposal.ProposalStatus",
					"name": "target",
					"type": "uint8"
				}
			],
			"name": "decide",
			"outputs": [],
			"payable": false,
			"stateMutability": "nonpayable",
			"type": "function"
		},
		{
			"constant": false,
			"inputs": [
				{
					"components": [
						{
							"internalType": "string",
							"name": "iroId",
							"type": "string"
						},
						{
							"internalType": "string",
							"name": "serialId",
							"type": "string"
						},
						{
							"internalType": "address",
							"name": "voter",
							"type": "address"
						},
						{
							"internalType": "uint256",
							"name": "pos",
							"type": "uint256"
						},
						{
							"internalType": "uint256",
							"name": "neg",
							"type": "uint256"
						},
						{
							"internalType": "uint256",
							"name": "voteBt",
							"type": "uint256"
						}
					],
					"internalType": "struct Proposal.Vote",
					"name": "v",
					"type": "tuple"
				}
			],
			"name": "doVote",
			"outputs": [],
			"payable": true,
			"stateMutability": "payable",
			"type": "function"
		},
		{
			"constant": false,
			"inputs": [
				{
					"components": [
						{
							"internalType": "string",
							"name": "iroId",
							"type": "string"
						},
						{
							"internalType": "string",
							"name": "serialId",
							"type": "string"
						},
						{
							"internalType": "string",
							"name": "title",
							"type": "string"
						},
						{
							"internalType": "enum Proposal.ProposalStatus",
							"name": "status",
							"type": "uint8"
						},
						{
							"internalType": "enum Proposal.ProposalMode",
							"name": "mode",
							"type": "uint8"
						},
						{
							"internalType": "string",
							"name": "contact",
							"type": "string"
						},
						{
							"internalType": "string",
							"name": "description",
							"type": "string"
						},
						{
							"components": [
								{
									"internalType": "address",
									"name": "payer",
									"type": "address"
								},
								{
									"internalType": "enum Proposal.PaymentMode",
									"name": "mode",
									"type": "uint8"
								},
								{
									"internalType": "uint256",
									"name": "totalMonths",
									"type": "uint256"
								},
								{
									"internalType": "string",
									"name": "date",
									"type": "string"
								},
								{
									"internalType": "uint256",
									"name": "paymentAmount",
									"type": "uint256"
								},
								{
									"internalType": "uint256",
									"name": "totalAmount",
									"type": "uint256"
								},
								{
									"internalType": "contract IERC20",
									"name": "token",
									"type": "address"
								},
								{
									"internalType": "contract FundPool",
									"name": "pool",
									"type": "address"
								}
							],
							"internalType": "struct Proposal.Payment",
							"name": "payment",
							"type": "tuple"
						},
						{
							"components": [
								{
									"internalType": "enum IRO.ProposerDriver",
									"name": "driver",
									"type": "uint8"
								}
							],
							"internalType": "struct Proposal.ProposerSetup",
							"name": "proposerSetup",
							"type": "tuple"
						},
						{
							"components": [
								{
									"internalType": "uint256",
									"name": "voteMinSupporters",
									"type": "uint256"
								},
								{
									"internalType": "string",
									"name": "voteMinApprovalPercent",
									"type": "string"
								},
								{
									"internalType": "uint256",
									"name": "voteDurationHours",
									"type": "uint256"
								},
								{
									"internalType": "uint256",
									"name": "voteEndTime",
									"type": "uint256"
								}
							],
							"internalType": "struct Proposal.VoterSetup",
							"name": "voteSetup",
							"type": "tuple"
						},
						{
							"internalType": "uint256",
							"name": "blockTime",
							"type": "uint256"
						},
						{
							"internalType": "address",
							"name": "proposer",
							"type": "address"
						}
					],
					"internalType": "struct Proposal.ProposalDetail",
					"name": "proposal",
					"type": "tuple"
				},
				{
					"components": [
						{
							"internalType": "uint256",
							"name": "index",
							"type": "uint256"
						},
						{
							"internalType": "uint256",
							"name": "token",
							"type": "uint256"
						},
						{
							"internalType": "string",
							"name": "terms",
							"type": "string"
						}
					],
					"internalType": "struct Proposal.PaymentDetail[]",
					"name": "paymentDetails",
					"type": "tuple[]"
				}
			],
			"name": "fullSet",
			"outputs": [
				{
					"components": [
						{
							"internalType": "string",
							"name": "iroId",
							"type": "string"
						},
						{
							"internalType": "string",
							"name": "serialId",
							"type": "string"
						},
						{
							"internalType": "string",
							"name": "title",
							"type": "string"
						},
						{
							"internalType": "enum Proposal.ProposalStatus",
							"name": "status",
							"type": "uint8"
						},
						{
							"internalType": "enum Proposal.ProposalMode",
							"name": "mode",
							"type": "uint8"
						},
						{
							"internalType": "string",
							"name": "contact",
							"type": "string"
						},
						{
							"internalType": "string",
							"name": "description",
							"type": "string"
						},
						{
							"components": [
								{
									"internalType": "address",
									"name": "payer",
									"type": "address"
								},
								{
									"internalType": "enum Proposal.PaymentMode",
									"name": "mode",
									"type": "uint8"
								},
								{
									"internalType": "uint256",
									"name": "totalMonths",
									"type": "uint256"
								},
								{
									"internalType": "string",
									"name": "date",
									"type": "string"
								},
								{
									"internalType": "uint256",
									"name": "paymentAmount",
									"type": "uint256"
								},
								{
									"internalType": "uint256",
									"name": "totalAmount",
									"type": "uint256"
								},
								{
									"internalType": "contract IERC20",
									"name": "token",
									"type": "address"
								},
								{
									"internalType": "contract FundPool",
									"name": "pool",
									"type": "address"
								}
							],
							"internalType": "struct Proposal.Payment",
							"name": "payment",
							"type": "tuple"
						},
						{
							"components": [
								{
									"internalType": "enum IRO.ProposerDriver",
									"name": "driver",
									"type": "uint8"
								}
							],
							"internalType": "struct Proposal.ProposerSetup",
							"name": "proposerSetup",
							"type": "tuple"
						},
						{
							"components": [
								{
									"internalType": "uint256",
									"name": "voteMinSupporters",
									"type": "uint256"
								},
								{
									"internalType": "string",
									"name": "voteMinApprovalPercent",
									"type": "string"
								},
								{
									"internalType": "uint256",
									"name": "voteDurationHours",
									"type": "uint256"
								},
								{
									"internalType": "uint256",
									"name": "voteEndTime",
									"type": "uint256"
								}
							],
							"internalType": "struct Proposal.VoterSetup",
							"name": "voteSetup",
							"type": "tuple"
						},
						{
							"internalType": "uint256",
							"name": "blockTime",
							"type": "uint256"
						},
						{
							"internalType": "address",
							"name": "proposer",
							"type": "address"
						}
					],
					"internalType": "struct Proposal.ProposalDetail",
					"name": "",
					"type": "tuple"
				}
			],
			"payable": false,
			"stateMutability": "nonpayable",
			"type": "function"
		},
		{
			"constant": true,
			"inputs": [
				{
					"internalType": "string",
					"name": "id",
					"type": "string"
				}
			],
			"name": "iroProposalCount",
			"outputs": [
				{
					"internalType": "uint256",
					"name": "",
					"type": "uint256"
				}
			],
			"payable": false,
			"stateMutability": "view",
			"type": "function"
		},
		{
			"constant": true,
			"inputs": [
				{
					"internalType": "string",
					"name": "id",
					"type": "string"
				},
				{
					"internalType": "string",
					"name": "serialId",
					"type": "string"
				}
			],
			"name": "proposalDetail",
			"outputs": [
				{
					"components": [
						{
							"internalType": "string",
							"name": "iroId",
							"type": "string"
						},
						{
							"internalType": "string",
							"name": "serialId",
							"type": "string"
						},
						{
							"internalType": "string",
							"name": "title",
							"type": "string"
						},
						{
							"internalType": "enum Proposal.ProposalStatus",
							"name": "status",
							"type": "uint8"
						},
						{
							"internalType": "enum Proposal.ProposalMode",
							"name": "mode",
							"type": "uint8"
						},
						{
							"internalType": "string",
							"name": "contact",
							"type": "string"
						},
						{
							"internalType": "string",
							"name": "description",
							"type": "string"
						},
						{
							"components": [
								{
									"internalType": "address",
									"name": "payer",
									"type": "address"
								},
								{
									"internalType": "enum Proposal.PaymentMode",
									"name": "mode",
									"type": "uint8"
								},
								{
									"internalType": "uint256",
									"name": "totalMonths",
									"type": "uint256"
								},
								{
									"internalType": "string",
									"name": "date",
									"type": "string"
								},
								{
									"internalType": "uint256",
									"name": "paymentAmount",
									"type": "uint256"
								},
								{
									"internalType": "uint256",
									"name": "totalAmount",
									"type": "uint256"
								},
								{
									"internalType": "contract IERC20",
									"name": "token",
									"type": "address"
								},
								{
									"internalType": "contract FundPool",
									"name": "pool",
									"type": "address"
								}
							],
							"internalType": "struct Proposal.Payment",
							"name": "payment",
							"type": "tuple"
						},
						{
							"components": [
								{
									"internalType": "enum IRO.ProposerDriver",
									"name": "driver",
									"type": "uint8"
								}
							],
							"internalType": "struct Proposal.ProposerSetup",
							"name": "proposerSetup",
							"type": "tuple"
						},
						{
							"components": [
								{
									"internalType": "uint256",
									"name": "voteMinSupporters",
									"type": "uint256"
								},
								{
									"internalType": "string",
									"name": "voteMinApprovalPercent",
									"type": "string"
								},
								{
									"internalType": "uint256",
									"name": "voteDurationHours",
									"type": "uint256"
								},
								{
									"internalType": "uint256",
									"name": "voteEndTime",
									"type": "uint256"
								}
							],
							"internalType": "struct Proposal.VoterSetup",
							"name": "voteSetup",
							"type": "tuple"
						},
						{
							"internalType": "uint256",
							"name": "blockTime",
							"type": "uint256"
						},
						{
							"internalType": "address",
							"name": "proposer",
							"type": "address"
						}
					],
					"internalType": "struct Proposal.ProposalDetail",
					"name": "",
					"type": "tuple"
				},
				{
					"components": [
						{
							"internalType": "uint256",
							"name": "index",
							"type": "uint256"
						},
						{
							"internalType": "uint256",
							"name": "token",
							"type": "uint256"
						},
						{
							"internalType": "string",
							"name": "terms",
							"type": "string"
						}
					],
					"internalType": "struct Proposal.PaymentDetail[]",
					"name": "paymentDetails",
					"type": "tuple[]"
				}
			],
			"payable": false,
			"stateMutability": "view",
			"type": "function"
		},
		{
			"constant": true,
			"inputs": [
				{
					"internalType": "string",
					"name": "id",
					"type": "string"
				},
				{
					"internalType": "string",
					"name": "serialId",
					"type": "string"
				}
			],
			"name": "proposalStatus",
			"outputs": [
				{
					"internalType": "enum Proposal.ProposalStatus",
					"name": "",
					"type": "uint8"
				}
			],
			"payable": false,
			"stateMutability": "view",
			"type": "function"
		},
		{
			"constant": false,
			"inputs": [
				{
					"internalType": "string",
					"name": "iroId",
					"type": "string"
				},
				{
					"internalType": "string",
					"name": "serialId",
					"type": "string"
				}
			],
			"name": "releaseProposal",
			"outputs": [],
			"payable": false,
			"stateMutability": "nonpayable",
			"type": "function"
		},
		{
			"constant": false,
			"inputs": [
				{
					"internalType": "address",
					"name": "_iroAddress",
					"type": "address"
				}
			],
			"name": "setIROBase",
			"outputs": [],
			"payable": false,
			"stateMutability": "nonpayable",
			"type": "function"
		}
	]
}