{
	"data": {
		"bytecode": {
			"linkReferences": {
				"contracts/libraries/NumUtils.sol": {
					"NumUtils": [
						{
							"length": 20,
							"start": 4691
						}
					]
				}
			},
			"object": "60806040523480156200001157600080fd5b5060405162004d4e38038062004d4e8339810160408190526200003491620000c8565b600080546001600160a01b031916331790556200005a816001600160e01b036200006116565b5062000173565b6001600160a01b038116620000935760405162461bcd60e51b81526004016200008a906200012c565b60405180910390fd5b600180546001600160a01b0319166001600160a01b0392909216919091179055565b8051620000c28162000159565b92915050565b600060208284031215620000db57600080fd5b6000620000e98484620000b5565b949350505050565b6000620001006015836200013e565b7f69726f206164647265737320697320656d7074792e0000000000000000000000815260200192915050565b60208082528101620000c281620000f1565b90815260200190565b60006001600160a01b038216620000c2565b620001648162000147565b81146200017057600080fd5b50565b614bcb80620001836000396000f3fe608060405260043610620000925760003560e01c806359f7f240116200006157806359f7f2401462000156578063c8d22036146200016d578063cee696c81462000192578063d46d6d8a14620001c6578063ffb135a814620001eb5762000092565b80630f5e184914620000975780633122fef114620000be5780633185febf14620000fc578063474b58c21462000122575b600080fd5b348015620000a457600080fd5b50620000bc620000b6366004620036fc565b62000210565b005b348015620000cb57600080fd5b50620000e3620000dd366004620036fc565b62000766565b604051620000f39291906200429d565b60405180910390f35b620001136200010d366004620037f4565b62000947565b604051620000f391906200428a565b3480156200012f57600080fd5b506200014762000141366004620036fc565b620015d9565b604051620000f391906200415e565b620000bc620001673660046200389a565b6200168e565b3480156200017a57600080fd5b50620001136200018c366004620037f4565b620019bd565b3480156200019f57600080fd5b50620001b7620001b1366004620036b7565b62001da7565b604051620000f39190620042d9565b348015620001d357600080fd5b50620000bc620001e536600462003771565b62001dd4565b348015620001f857600080fd5b50620000bc6200020a36600462003654565b62002131565b6000546001600160a01b031633146200022857600080fd5b620002326200294f565b620002a785858080601f01602080910402602001604051908101604052809392919081815260200183838082843760009201919091525050604080516020601f890181900481028201810190925287815292508791508690819084018382808284376000920191909152506200217c92505050565b905083620002d25760405162461bcd60e51b8152600401620002c9906200421e565b60405180910390fd5b60008160e0015160c00151905060606200035687878080601f01602080910402602001604051908101604052809392919081815260200183838082843760009201919091525050604080516020601f8b0181900481028201810190925289815292508991508890819084018382808284376000920191909152506200275492505050565b905060606005826040516200036c9190620040da565b9081526020016040518091039020805480602002602001604051908101604052809291908181526020016000905b828210156200053e5760008481526020908190206040805160068602909201805460026001821615610100026000190190911604601f8101859004909402830160e090810190925260c0830184815292939092849290918491840182828015620004485780601f106200041c5761010080835404028352916020019162000448565b820191906000526020600020905b8154815290600101906020018083116200042a57829003601f168201915b50505050508152602001600182018054600181600116156101000203166002900480601f016020809104026020016040519081016040528092919081815260200182805460018160011615610100020316600290048015620004ee5780601f10620004c257610100808354040283529160200191620004ee565b820191906000526020600020905b815481529060010190602001808311620004d057829003601f168201915b505050918352505060028201546001600160a01b0316602080830191909152600383015460408301526004830154606083015260059092015460809091015290825260019290920191016200039a565b5050505060e085810151015190915060008080805b85518110156200059c5762000567620029d4565b8682815181106200057457fe5b6020908102919091010151606081015160809091015195019493909301925060010162000553565b506101208801515185511015620005b6575060036200061f565b600083118015620005c5575081155b15620005d4575060016200061f565b82158015620005e35750600082115b15620005f2575060026200061f565b876101200151602001518284816200060657fe5b046064021015620006195760026200061c565b60015b90505b620006a78c8c8080601f016020809104026020016040519081016040528093929190818152602001838380828437600081840152601f19601f820116905080830192505050505050508b8b8080601f01602080910402602001604051908101604052809392919081815260200183838082843760009201919091525086925062001dd4915050565b60005b85518110156200075757620006be620029d4565b868281518110620006cb57fe5b60200260200101519050856001600160a01b031663beabacc88a836040015184608001518560600151016040518463ffffffff1660e01b815260040162000715939291906200413f565b600060405180830381600087803b1580156200073057600080fd5b505af115801562000745573d6000803e3d6000fd5b505060019093019250620006aa915050565b50505050505050505050505050565b620007706200294f565b60606200077c6200294f565b620007f187878080601f01602080910402602001604051908101604052809392919081815260200183838082843760009201919091525050604080516020601f8b0181900481028201810190925289815292508991508890819084018382808284376000920191909152506200217c92505050565b90506060620008008262002782565b905081600382604051620008159190620040da565b908152602001604051809103902080805480602002602001604051908101604052809291908181526020016000905b828210156200093257838290600052602060002090600302016040518060600160405290816000820154815260200160018201548152602001600282018054600181600116156101000203166002900480601f016020809104026020016040519081016040528092919081815260200182805460018160011615610100020316600290048015620009195780601f10620008ed5761010080835404028352916020019162000919565b820191906000526020600020905b815481529060010190602001808311620008fb57829003601f168201915b5050505050815250508152602001906001019062000844565b50505050905093509350505094509492505050565b620009516200294f565b602083015151620009765760405162461bcd60e51b8152600401620002c99062004242565b825151620009985760405162461bcd60e51b8152600401620002c990620041fa565b600060028460000151604051620009b09190620040da565b90815260200160405180910390209050620009ca6200294f565b818560200151604051620009df9190620040da565b9081526040805160209281900383018120805460026001821615610100026000190190911604601f810185900490940282016101a0908101909352610180820184815291939092849291849184018282801562000a805780601f1062000a545761010080835404028352916020019162000a80565b820191906000526020600020905b81548152906001019060200180831162000a6257829003601f168201915b50505050508152602001600182018054600181600116156101000203166002900480601f01602080910402602001604051908101604052809291908181526020018280546001816001161561010002031660029004801562000b265780601f1062000afa5761010080835404028352916020019162000b26565b820191906000526020600020905b81548152906001019060200180831162000b0857829003601f168201915b5050509183525050600282810180546040805160206001841615610100026000190190931694909404601f8101839004830285018301909152808452938101939083018282801562000bbc5780601f1062000b905761010080835404028352916020019162000bbc565b820191906000526020600020905b81548152906001019060200180831162000b9e57829003601f168201915b505050918352505060038281015460209092019160ff169081111562000bde57fe5b600381111562000bea57fe5b81526020016003820160019054906101000a900460ff16600681111562000c0d57fe5b600681111562000c1957fe5b815260048201805460408051602060026001851615610100026000190190941693909304601f810184900484028201840190925281815293820193929183018282801562000cab5780601f1062000c7f5761010080835404028352916020019162000cab565b820191906000526020600020905b81548152906001019060200180831162000c8d57829003601f168201915b505050918352505060058201805460408051602060026001851615610100026000190190941693909304601f810184900484028201840190925281815293820193929183018282801562000d435780601f1062000d175761010080835404028352916020019162000d43565b820191906000526020600020905b81548152906001019060200180831162000d2557829003601f168201915b50505091835250506040805161010081019091526006830180546001600160a01b0381168352602093840193830190600160a01b900460ff16600181111562000d8857fe5b600181111562000d9457fe5b815260200160018201548152602001600282018054600181600116156101000203166002900480601f01602080910402602001604051908101604052809291908181526020018280546001816001161561010002031660029004801562000e3f5780601f1062000e135761010080835404028352916020019162000e3f565b820191906000526020600020905b81548152906001019060200180831162000e2157829003601f168201915b5050509183525050600382810154602080840191909152600484015460408085019190915260058501546001600160a01b0390811660608601526006909501549094166080909301929092529284528151808201909252600d85018054949091019391929091839160ff9091169081111562000eb757fe5b600381111562000ec357fe5b905250815260408051608081018252600e8401548152600f8401546020828101919091526010850154828401526011850154606080840191909152908401919091526012840154918301919091526013909201546001600160a01b03169101528051519091501562000f495760405162461bcd60e51b8152600401620002c99062004230565b62000f5362002a13565b600154865160405163ef7ae53f60e01b81526001600160a01b039092169163ef7ae53f9162000f85916004016200418d565b60006040518083038186803b15801562000f9e57600080fd5b505afa15801562000fb3573d6000803e3d6000fd5b505050506040513d6000823e601f3d908101601f1916820160405262000fdd919081019062003862565b805151909150620010025760405162461bcd60e51b8152600401620002c990620041c4565b6200100c62002a52565b5060408101516000815160038111156200102257fe5b1415620010435760405162461bcd60e51b8152600401620002c990620041d6565b6040518060200160405280826000015160038111156200105f57fe5b90526101008801526200107162002a74565b5060608201516000815160038111156200108757fe5b1415620010a85760405162461bcd60e51b8152600401620002c99062004266565b610120880151604001514290600090620011555760a0830151604051631bd9515560e01b815273__$b7c937b1c964930440937011c7042b2cdd$__91631bd9515591620010f991906004016200418d565b60206040518083038186803b1580156200111257600080fd5b505af415801562001127573d6000803e3d6000fd5b505050506040513d601f19601f820116820180604052506200114d9190810190620038d2565b905062001161565b50610120890151604001515b6040518060800160405280846060015181526020018460800151815260200182815260200182610e100284018152508a61012001819052506000620011ae866020015160400151620027a0565b60e08c01516001600160a01b03821660c09091015290506060620011d28c62002782565b905080604051620011e39062002ab2565b620011ef91906200418d565b604051809103906000f0801580156200120c573d6000803e3d6000fd5b5060e0808e01516001600160a01b039092169101528a5160005b81811015620012bc57600383604051620012419190620040da565b90815260200160405180910390208d82815181106200125c57fe5b60209081029190910181015182546001818101808655600095865294849020835160039093020191825582840151908201556040820151805192939192620012ab926002850192019062002ac0565b505060019092019150620012269050565b506101608d01516001600160a01b0316620012d957336101608e01525b6101408d0185905260208d01516040518e918c91620012f99190620040da565b908152602001604051809103902060008201518160000190805190602001906200132592919062002ac0565b50602082810151805162001340926001850192019062002ac0565b50604082015180516200135e91600284019160209091019062002ac0565b5060608201518160030160006101000a81548160ff021916908360038111156200138457fe5b0217905550608082015160038201805461ff001916610100836006811115620013a957fe5b021790555060a08201518051620013cb91600484019160209091019062002ac0565b5060c08201518051620013e991600584019160209091019062002ac0565b5060e082015180516006830180546001600160a01b0319166001600160a01b0390921691909117808255602083015190829060ff60a01b1916600160a01b8360018111156200143457fe5b021790555060408201516001820155606082015180516200146091600284019160209091019062002ac0565b50608082015160038281019190915560a0830151600483015560c08301516005830180546001600160a01b03199081166001600160a01b039384161790915560e090940151600690930180549094169216919091179091556101008301518051600d8401805492939092839160ff19909116906001908490811115620014e257fe5b021790555050506101208201518051600e8301556020810151600f83015560408082015160108401556060909101516011830155610140830151601283015561016090920151601390910180546001600160a01b0319166001600160a01b039092169190911790558d5190516004916200155c91620040da565b9081526040519081900360209081018220805460010190558e01516200158291620040da565b60405180910390207f94da9bb2a8ee001679ab8db37a9e0fc2bdc21f48c172dfbe3d9eabff0a8cfd338e8e604051620015bd9291906200429d565b60405180910390a28c9a50505050505050505050505b92915050565b6000620015e56200294f565b6200165a86868080601f01602080910402602001604051908101604052809392919081815260200183838082843760009201919091525050604080516020601f8a0181900481028201810190925288815292508891508790819084018382808284376000920191909152506200217c92505050565b8051519091506200167f5760405162461bcd60e51b8152600401620002c9906200421e565b6060015190505b949350505050565b620016986200294f565b620016ac826000015183602001516200217c565b825151909150620016d15760405162461bcd60e51b8152600401620002c9906200421e565b600081606001516003811115620016e457fe5b14620017045760405162461bcd60e51b8152600401620002c99062004278565b6200170e62002b45565b50610120810151606081015142908111156200173e5760405162461bcd60e51b8152600401620002c99062004254565b60008460800151856060015101116200176b5760405162461bcd60e51b8152600401620002c9906200420c565b60008360e0015160c001519050806001600160a01b03166323b872dd338660e0015160e001516001600160a01b03166338cc48316040518163ffffffff1660e01b815260040160206040518083038186803b158015620017ca57600080fd5b505afa158015620017df573d6000803e3d6000fd5b505050506040513d601f19601f8201168201806040525062001805919081019062003675565b88608001518960600151016040518463ffffffff1660e01b8152600401620018309392919062004111565b602060405180830381600087803b1580156200184b57600080fd5b505af115801562001860573d6000803e3d6000fd5b505050506040513d601f19601f8201168201806040525062001886919081019062003696565b504260a086015233604086015284516020860151606091620018a89162002754565b9050600581604051620018bc9190620040da565b908152604051602091819003820190208054600181018083556000928352918390208951805193948b94600690940290920192620018fe928492019062002ac0565b50602082810151805162001919926001850192019062002ac0565b506040828101516002830180546001600160a01b0319166001600160a01b03909216919091179055606083015160038301556080830151600483015560a09092015160059091015560208701519051620019749250620040da565b60405180910390207f1fc2188cf86b2fdff0c37c3a4cc9ac40d660cb3ed78875f759054aa66515180f87604051620019ad9190620042c6565b60405180910390a2505050505050565b620019c76200294f565b602083015151620019ec5760405162461bcd60e51b8152600401620002c99062004242565b82515162001a0e5760405162461bcd60e51b8152600401620002c990620041fa565b60006002846000015160405162001a269190620040da565b908152602001604051809103902090508381856020015160405162001a4c9190620040da565b9081526020016040518091039020600082015181600001908051906020019062001a7892919062002ac0565b50602082810151805162001a93926001850192019062002ac0565b506040820151805162001ab191600284019160209091019062002ac0565b5060608201518160030160006101000a81548160ff0219169083600381111562001ad757fe5b0217905550608082015160038201805461ff00191661010083600681111562001afc57fe5b021790555060a0820151805162001b1e91600484019160209091019062002ac0565b5060c0820151805162001b3c91600584019160209091019062002ac0565b5060e082015180516006830180546001600160a01b0319166001600160a01b0390921691909117808255602083015190829060ff60a01b1916600160a01b83600181111562001b8757fe5b0217905550604082015160018201556060820151805162001bb391600284019160209091019062002ac0565b50608082015160038281019190915560a0830151600483015560c08301516005830180546001600160a01b03199081166001600160a01b039384161790915560e090940151600690930180549094169216919091179091556101008301518051600d8401805492939092839160ff1990911690600190849081111562001c3557fe5b021790555050506101208201518051600e8301556020810151600f830155604081015160108301556060908101516011830155610140830151601283015561016090920151601390910180546001600160a01b0319166001600160a01b0390921691909117905562001ca78562002782565b845190915060005b8181101562001d455760038360405162001cca9190620040da565b908152602001604051809103902086828151811062001ce557fe5b6020908102919091018101518254600181810180865560009586529484902083516003909302019182558284015190820155604082015180519293919262001d34926002850192019062002ac0565b50506001909201915062001caf9050565b50856020015160405162001d5a9190620040da565b60405180910390207f94da9bb2a8ee001679ab8db37a9e0fc2bdc21f48c172dfbe3d9eabff0a8cfd33878760405162001d959291906200429d565b60405180910390a25093949350505050565b60006004838360405162001dbd929190620040cb565b908152602001604051809103902054905092915050565b62001dde6200294f565b62001dea84846200217c565b80515190915062001e0f5760405162461bcd60e51b8152600401620002c990620041b2565b8060600151600381111562001e2057fe5b82600381111562001e2d57fe5b146200212b576060810180519083600381111562001e4757fe5b9081600381111562001e5557fe5b905250815160405160009160029162001e6f9190620040da565b9081526020016040518091039020905082818660405162001e919190620040da565b9081526020016040518091039020600082015181600001908051906020019062001ebd92919062002ac0565b50602082810151805162001ed8926001850192019062002ac0565b506040820151805162001ef691600284019160209091019062002ac0565b5060608201518160030160006101000a81548160ff0219169083600381111562001f1c57fe5b0217905550608082015160038201805461ff00191661010083600681111562001f4157fe5b021790555060a0820151805162001f6391600484019160209091019062002ac0565b5060c0820151805162001f8191600584019160209091019062002ac0565b5060e082015180516006830180546001600160a01b0319166001600160a01b0390921691909117808255602083015190829060ff60a01b1916600160a01b83600181111562001fcc57fe5b0217905550604082015160018201556060820151805162001ff891600284019160209091019062002ac0565b50608082015160038281019190915560a0830151600483015560c08301516005830180546001600160a01b03199081166001600160a01b039384161790915560e090940151600690930180549094169216919091179091556101008301518051600d8401805492939092839160ff199091169060019084908111156200207a57fe5b021790555050506101208201518051600e8301556020810151600f83015560408082015160108401556060909101516011830155610140830151601283015561016090920151601390910180546001600160a01b0319166001600160a01b0390921691909117905551620020f0908790620040da565b60405180910390207f984b6675ffc22e1f752662b0ce0a6e95adb7944d816aa2d09e6995c9b20a198a8386604051620019ad9291906200416e565b50505050565b6001600160a01b0381166200215a5760405162461bcd60e51b8152600401620002c990620041e8565b600180546001600160a01b0319166001600160a01b0392909216919091179055565b620021866200294f565b8251620021a75760405162461bcd60e51b8152600401620002c990620041a0565b8151620021c85760405162461bcd60e51b8152600401620002c99062004242565b6000600284604051620021dc9190620040da565b90815260200160405180910390209050620021f66200294f565b8184604051620022079190620040da565b9081526040805160209281900383018120805460026001821615610100026000190190911604601f810185900490940282016101a09081019093526101808201848152919390928492918491840182828015620022a85780601f106200227c57610100808354040283529160200191620022a8565b820191906000526020600020905b8154815290600101906020018083116200228a57829003601f168201915b50505050508152602001600182018054600181600116156101000203166002900480601f0160208091040260200160405190810160405280929190818152602001828054600181600116156101000203166002900480156200234e5780601f1062002322576101008083540402835291602001916200234e565b820191906000526020600020905b8154815290600101906020018083116200233057829003601f168201915b5050509183525050600282810180546040805160206001841615610100026000190190931694909404601f81018390048302850183019091528084529381019390830182828015620023e45780601f10620023b857610100808354040283529160200191620023e4565b820191906000526020600020905b815481529060010190602001808311620023c657829003601f168201915b505050918352505060038281015460209092019160ff16908111156200240657fe5b60038111156200241257fe5b81526020016003820160019054906101000a900460ff1660068111156200243557fe5b60068111156200244157fe5b815260048201805460408051602060026001851615610100026000190190941693909304601f8101849004840282018401909252818152938201939291830182828015620024d35780601f10620024a757610100808354040283529160200191620024d3565b820191906000526020600020905b815481529060010190602001808311620024b557829003601f168201915b505050918352505060058201805460408051602060026001851615610100026000190190941693909304601f81018490048402820184019092528181529382019392918301828280156200256b5780601f106200253f576101008083540402835291602001916200256b565b820191906000526020600020905b8154815290600101906020018083116200254d57829003601f168201915b50505091835250506040805161010081019091526006830180546001600160a01b0381168352602093840193830190600160a01b900460ff166001811115620025b057fe5b6001811115620025bc57fe5b815260200160018201548152602001600282018054600181600116156101000203166002900480601f016020809104026020016040519081016040528092919081815260200182805460018160011615610100020316600290048015620026675780601f106200263b5761010080835404028352916020019162002667565b820191906000526020600020905b8154815290600101906020018083116200264957829003601f168201915b5050509183525050600382810154602080840191909152600484015460408085019190915260058501546001600160a01b0390811660608601526006909501549094166080909301929092529284528151808201909252600d85018054949091019391929091839160ff90911690811115620026df57fe5b6003811115620026eb57fe5b905250815260408051608081018252600e8401548152600f8401546020808301919091526010850154828401526011850154606080840191909152908401919091526012840154918301919091526013909201546001600160a01b031691015295945050505050565b606082826040516020016200276b929190620040e8565b604051602081830303815290604052905092915050565b6060620027988260000151836020015162002754565b90505b919050565b60008181808060025b602a811015620029445761010084029350848181518110620027c757fe5b0160200151855160f89190911c9350859060018301908110620027e657fe5b016020015160f81c915060616001600160a01b038416108015906200281557506066836001600160a01b031611155b15620028275760578303925062002890565b6041836001600160a01b0316101580156200284c57506046836001600160a01b031611155b156200285e5760378303925062002890565b6030836001600160a01b0316101580156200288357506039836001600160a01b031611155b1562002890576030830392505b6061826001600160a01b031610158015620028b557506066826001600160a01b031611155b15620028c75760578203915062002930565b6041826001600160a01b031610158015620028ec57506046826001600160a01b031611155b15620028fe5760378203915062002930565b6030826001600160a01b0316101580156200292357506039826001600160a01b031611155b1562002930576030820391505b6010830282019390930192600201620027a9565b509195945050505050565b604051806101800160405280606081526020016060815260200160608152602001600060038111156200297e57fe5b8152602001600081526020016060815260200160608152602001620029a262002b6d565b8152602001620029b162002bc5565b8152602001620029c062002b45565b815260006020820181905260409091015290565b6040518060c00160405280606081526020016060815260200160006001600160a01b031681526020016000815260200160008152602001600081525090565b60405180608001604052806060815260200162002a2f62002bd9565b815260200162002a3e62002a52565b815260200162002a4d62002a74565b905290565b6040805160608101909152806000815260200160008152602001606081525090565b6040805160e0810190915280600081526020016060815260200160608152602001600081526020016000815260200160608152602001606081525090565b6106ce80620044bb83390190565b828054600181600116156101000203166002900490600052602060002090601f016020900481019282601f1062002b0357805160ff191683800117855562002b33565b8280016001018555821562002b33579182015b8281111562002b3357825182559160200191906001019062002b16565b5062002b4192915062002c01565b5090565b6040518060800160405280600081526020016000815260200160008152602001600081525090565b6040805161010081019091526000808252602082019081526020016000815260200160608152602001600081526020016000815260200160006001600160a01b0316815260200160006001600160a01b031681525090565b604080516020810190915280600062002a4d565b6040518060800160405280606081526020016060815260200160608152602001606081525090565b62002c1e91905b8082111562002b41576000815560010162002c08565b90565b8035620015d38162004458565b8051620015d38162004458565b600082601f83011262002c4d57600080fd5b815162002c6462002c5e8262004310565b620042e9565b9150818183526020840193506020810190508385602084028201111562002c8a57600080fd5b60005b8381101562002cba578162002ca3888262002c2e565b845250602092830192919091019060010162002c8d565b5050505092915050565b600082601f83011262002cd657600080fd5b813562002ce762002c5e8262004310565b81815260209384019390925082018360005b8381101562002cba578135860162002d12888262002e65565b845250602092830192919091019060010162002cf9565b8051620015d3816200446f565b8035620015d3816200447a565b8035620015d38162004485565b8035620015d38162004493565b8035620015d381620044a1565b8051620015d381620044a1565b60008083601f84011262002d8a57600080fd5b5081356001600160401b0381111562002da257600080fd5b60208301915083600182028301111562002dbb57600080fd5b9250929050565b600082601f83011262002dd457600080fd5b813562002de562002c5e8262004331565b9150808252602083016020830185838301111562002e0257600080fd5b62002e0f838284620043ef565b50505092915050565b600082601f83011262002e2a57600080fd5b815162002e3b62002c5e8262004331565b9150808252602083016020830185838301111562002e5857600080fd5b62002e0f838284620043fb565b60006060828403121562002e7857600080fd5b62002e846060620042e9565b9050600062002e9484846200363a565b825250602062002ea7848483016200363a565b60208301525060408201356001600160401b0381111562002ec757600080fd5b62002ed58482850162002dc2565b60408301525092915050565b6000610100828403121562002ef557600080fd5b62002f02610100620042e9565b9050600062002f12848462002c21565b825250602062002f258484830162002d43565b602083015250604062002f3b848285016200363a565b60408301525060608201356001600160401b0381111562002f5b57600080fd5b62002f698482850162002dc2565b606083015250608062002f7f848285016200363a565b60808301525060a062002f95848285016200363a565b60a08301525060c062002fab8482850162002d36565b60c08301525060e062002fc18482850162002d36565b60e08301525092915050565b60006101e0828403121562002fe157600080fd5b62002fee610180620042e9565b905081356001600160401b038111156200300757600080fd5b620030158482850162002dc2565b82525060208201356001600160401b038111156200303257600080fd5b620030408482850162002dc2565b60208301525060408201356001600160401b038111156200306057600080fd5b6200306e8482850162002dc2565b6040830152506060620030848482850162002d5d565b60608301525060806200309a8482850162002d50565b60808301525060a08201356001600160401b03811115620030ba57600080fd5b620030c88482850162002dc2565b60a08301525060c08201356001600160401b03811115620030e857600080fd5b620030f68482850162002dc2565b60c08301525060e08201356001600160401b038111156200311657600080fd5b620031248482850162002ee1565b60e0830152506101006200313b8482850162003200565b610100830152506101206200315384828501620035d1565b610120830152506101a06200316b848285016200363a565b610140830152506101c0620031838482850162002c21565b6101608301525092915050565b600060608284031215620031a357600080fd5b620031af6060620042e9565b90506000620031bf848462002d6a565b8252506020620031d28484830162003647565b60208301525060408201516001600160401b03811115620031f257600080fd5b62002ed58482850162002c3b565b6000602082840312156200321357600080fd5b6200321f6020620042e9565b905060006200322f848462002d5d565b82525092915050565b6000608082840312156200324b57600080fd5b620032576080620042e9565b82519091506001600160401b038111156200327157600080fd5b6200327f8482850162002e18565b82525060208201516001600160401b038111156200329c57600080fd5b620032aa8482850162003312565b60208301525060408201516001600160401b03811115620032ca57600080fd5b620032d88482850162003190565b60408301525060608201516001600160401b03811115620032f857600080fd5b6200330684828501620034b5565b60608301525092915050565b6000608082840312156200332557600080fd5b620033316080620042e9565b82519091506001600160401b038111156200334b57600080fd5b620033598482850162002e18565b82525060208201516001600160401b038111156200337657600080fd5b620033848482850162002e18565b60208301525060408201516001600160401b03811115620033a457600080fd5b620033b28482850162002e18565b60408301525060608201516001600160401b03811115620033d257600080fd5b620033068482850162002c3b565b600060c08284031215620033f357600080fd5b620033ff60c0620042e9565b905081356001600160401b038111156200341857600080fd5b620034268482850162002dc2565b82525060208201356001600160401b038111156200344357600080fd5b620034518482850162002dc2565b6020830152506040620034678482850162002c21565b60408301525060606200347d848285016200363a565b606083015250608062003493848285016200363a565b60808301525060a0620034a9848285016200363a565b60a08301525092915050565b600060e08284031215620034c857600080fd5b620034d460e0620042e9565b90506000620034e4848462002d6a565b82525060208201516001600160401b038111156200350157600080fd5b6200350f8482850162002e18565b60208301525060408201516001600160401b038111156200352f57600080fd5b6200353d8482850162002c3b565b6040830152506060620035538482850162003647565b6060830152506080620035698482850162003647565b60808301525060a08201516001600160401b038111156200358957600080fd5b620035978482850162002e18565b60a08301525060c08201516001600160401b03811115620035b757600080fd5b620035c58482850162002e18565b60c08301525092915050565b600060808284031215620035e457600080fd5b620035f06080620042e9565b905060006200360084846200363a565b825250602062003613848483016200363a565b602083015250604062003629848285016200363a565b604083015250606062003306848285015b8035620015d381620044af565b8051620015d381620044af565b6000602082840312156200366757600080fd5b600062001686848462002c21565b6000602082840312156200368857600080fd5b600062001686848462002c2e565b600060208284031215620036a957600080fd5b600062001686848462002d29565b60008060208385031215620036cb57600080fd5b82356001600160401b03811115620036e257600080fd5b620036f08582860162002d77565b92509250509250929050565b600080600080604085870312156200371357600080fd5b84356001600160401b038111156200372a57600080fd5b620037388782880162002d77565b945094505060208501356001600160401b038111156200375757600080fd5b620037658782880162002d77565b95989497509550505050565b6000806000606084860312156200378757600080fd5b83356001600160401b038111156200379e57600080fd5b620037ac8682870162002dc2565b93505060208401356001600160401b03811115620037c957600080fd5b620037d78682870162002dc2565b9250506040620037ea8682870162002d5d565b9150509250925092565b600080604083850312156200380857600080fd5b82356001600160401b038111156200381f57600080fd5b6200382d8582860162002fcd565b92505060208301356001600160401b038111156200384a57600080fd5b620038588582860162002cc4565b9150509250929050565b6000602082840312156200387557600080fd5b81516001600160401b038111156200388c57600080fd5b620016868482850162003238565b600060208284031215620038ad57600080fd5b81356001600160401b03811115620038c457600080fd5b6200168684828501620033e0565b600060208284031215620038e557600080fd5b600062001686848462003647565b600062003901838362003d9e565b9392505050565b6200391381620043bb565b82525050565b62003913816200436c565b600062003931826200435f565b6200393d818562004363565b935083602082028501620039518562004359565b8060005b85811015620039915784840389528151620039718582620038f3565b94506200397e8362004359565b60209a909a019992505060010162003955565b5091979650505050505050565b62003913816200437e565b6200391381620043c8565b6200391381620043d5565b6200391381620043e2565b6000620039d883856200279b565b9350620039e7838584620043ef565b50500190565b6000620039fa826200435f565b62003a06818562004363565b935062003a18818560208601620043fb565b62003a23816200442a565b9093019392505050565b600062003a3a826200435f565b62003a4681856200279b565b935062003a58818560208601620043fb565b9290920192915050565b600062003a7160108362004363565b6f69726f20696420697320656d7074792160801b815260200192915050565b600062003a9f60118362004363565b70383937b837b9b0b61036b4b9b9b4b7339760791b815260200192915050565b600062003ace60188362004363565b7f626173652073657474696e67206e6f74206578697374732e0000000000000000815260200192915050565b600062003b09601c8362004363565b7f70726f706f7365722073657474696e67206e6f74206578697374732e00000000815260200192915050565b600062003b4460158362004363565b7434b9379030b2323932b9b99034b99032b6b83a3c9760591b815260200192915050565b600062003b7760188362004363565b7f70726f706f73616c2069726f496420697320656d707479210000000000000000815260200192915050565b600062003bb2601e8362004363565b7f6120696e76616c696420766f74652c20766f7465206e756d203c3d20302e0000815260200192915050565b600062003bed601e8362004363565b7f70726f706f73616c206d697373696e672c20636865636b2066697273742e0000815260200192915050565b600062003c28603f8362004363565b7f70726f706f73616c20616c7265616479206578697374732c20706c656173652081527f7265706c61636520776974682074686520636f6e7472616374206f776e657200602082015260400192915050565b600062003c89601b8362004363565b7f70726f706f73616c2073657269616c496420697320656d707479210000000000815260200192915050565b600062003cc460108362004363565b6f3b37ba329034b99032bc3834b932b21760811b815260200192915050565b600062003cf260198362004363565b7f766f7465722073657474696e67206e6f74206578697374732e00000000000000815260200192915050565b600062003d2d6001836200279b565b600160fe1b815260010192915050565b600062003d4c603a8362004363565b7f7468652070726f706f73616c20636f756c64206e6f7420626520766f7465642081527f7768656e20737461747573206973206e6f7420766f74696e672e000000000000602082015260400192915050565b8051600090606084019062003db48582620040c0565b50602083015162003dc96020860182620040c0565b506040830151848203604086015262003de38282620039ed565b95945050505050565b805160009061010084019062003e03858262003919565b50602083015162003e186020860182620039a9565b50604083015162003e2d6040860182620040c0565b506060830151848203606086015262003e478282620039ed565b915050608083015162003e5e6080860182620040c0565b5060a083015162003e7360a0860182620040c0565b5060c083015162003e8860c08601826200399e565b5060e083015162003e9d60e08601826200399e565b509392505050565b80516101e08084526000919084019062003ec08282620039ed565b9150506020830151848203602086015262003edc8282620039ed565b9150506040830151848203604086015262003ef88282620039ed565b915050606083015162003f0f6060860182620039bf565b50608083015162003f246080860182620039b4565b5060a083015184820360a086015262003f3e8282620039ed565b91505060c083015184820360c086015262003f5a8282620039ed565b91505060e083015184820360e086015262003f76828262003dec565b91505061010083015162003f8f61010086018262003fd4565b5061012083015162003fa661012086018262004073565b5061014083015162003fbd6101a0860182620040c0565b5061016083015162003e9d6101c086018262003919565b805160208301906200212b8482620039bf565b805160c080845260009190840190620040018282620039ed565b915050602083015184820360208601526200401d8282620039ed565b915050604083015162004034604086018262003919565b506060830151620040496060860182620040c0565b5060808301516200405e6080860182620040c0565b5060a083015162003e9d60a0860182620040c0565b80516080830190620040868482620040c0565b5060208201516200409b6020850182620040c0565b506040820151620040b06040850182620040c0565b5060608201516200212b60608501825b620039138162002c1e565b600062001686828486620039ca565b600062003901828462003a2d565b6000620040f6828562003a2d565b9150620041038262003d1e565b915062001686828462003a2d565b6060810162004121828662003908565b62004130602083018562003908565b620016866040830184620040c0565b606081016200414f82866200399e565b62004130602083018562003919565b60208101620015d38284620039bf565b604081016200417e8285620039bf565b620039016020830184620039bf565b60208082528101620039018184620039ed565b60208082528101620027988162003a62565b60208082528101620027988162003a90565b60208082528101620027988162003abf565b60208082528101620027988162003afa565b60208082528101620027988162003b35565b60208082528101620027988162003b68565b60208082528101620027988162003ba3565b60208082528101620027988162003bde565b60208082528101620027988162003c19565b60208082528101620027988162003c7a565b60208082528101620027988162003cb5565b60208082528101620027988162003ce3565b60208082528101620027988162003d3d565b6020808252810162003901818462003ea5565b60408082528101620042b0818562003ea5565b9050818103602083015262001686818462003924565b6020808252810162003901818462003fe7565b60208101620015d38284620040c0565b6040518181016001600160401b03811182821017156200430857600080fd5b604052919050565b60006001600160401b038211156200432757600080fd5b5060209081020190565b60006001600160401b038211156200434857600080fd5b506020601f91909101601f19160190565b60200190565b5190565b90815260200190565b60006200279882620043af565b151590565b600062002798826200436c565b806200279b8162004434565b806200279b8162004442565b806200279b816200444d565b6001600160a01b031690565b600062002798826200437e565b600062002798826200438b565b6000620027988262004397565b60006200279882620043a3565b82818337506000910152565b60005b8381101562004418578181015183820152602001620043fe565b838111156200212b5750506000910152565b601f01601f191690565b600281106200443f57fe5b50565b600781106200443f57fe5b600481106200443f57fe5b62004463816200436c565b81146200443f57600080fd5b620044638162004379565b62004463816200437e565b600281106200443f57600080fd5b600781106200443f57600080fd5b600481106200443f57600080fd5b620044638162002c1e56fe608060405234801561001057600080fd5b506040516106ce3803806106ce83398101604081905261002f91610138565b8051610042906000906020840190610049565b50506101f1565b828054600181600116156101000203166002900490600052602060002090601f016020900481019282601f1061008a57805160ff19168380011785556100b7565b828001600101855582156100b7579182015b828111156100b757825182559160200191906001019061009c565b506100c39291506100c7565b5090565b6100e191905b808211156100c357600081556001016100cd565b90565b600082601f8301126100f557600080fd5b81516101086101038261019a565b610174565b9150808252602083016020830185838301111561012457600080fd5b61012f8382846101c1565b50505092915050565b60006020828403121561014a57600080fd5b81516001600160401b0381111561016057600080fd5b61016c848285016100e4565b949350505050565b6040518181016001600160401b038111828210171561019257600080fd5b604052919050565b60006001600160401b038211156101b057600080fd5b506020601f91909101601f19160190565b60005b838110156101dc5781810151838201526020016101c4565b838111156101eb576000848401525b50505050565b6104ce806102006000396000f3fe60806040526004361061004a5760003560e01c806338cc48311461004c5780634f95a04b14610077578063beabacc81461008a578063e1f21c67146100aa578063fb1e6a62146100ca575b005b34801561005857600080fd5b506100616100ec565b60405161006e91906103a7565b60405180910390f35b61004a6100853660046102aa565b6100f0565b34801561009657600080fd5b5061004a6100a536600461030a565b61012b565b3480156100b657600080fd5b5061004a6100c536600461030a565b6101b4565b3480156100d657600080fd5b506100df6101e2565b60405161006e91906103d7565b3090565b6040516001600160a01b0383169082156108fc029083906000818181858888f19350505050158015610126573d6000803e3d6000fd5b505050565b60405163a9059cbb60e01b81526001600160a01b0384169063a9059cbb9061015990859085906004016103b5565b602060405180830381600087803b15801561017357600080fd5b505af1158015610187573d6000803e3d6000fd5b505050506040513d601f19601f820116820180604052506101ab91908101906102e4565b61012657600080fd5b60405163095ea7b360e01b81526001600160a01b0384169063095ea7b39061015990859085906004016103b5565b60008054604080516020601f600260001961010060018816150201909516949094049384018190048102820181019092528281526060939092909183018282801561026e5780601f106102435761010080835404028352916020019161026e565b820191906000526020600020905b81548152906001019060200180831161025157829003601f168201915b5050505050905090565b803561028381610459565b92915050565b805161028381610470565b803561028381610479565b803561028381610482565b600080604083850312156102bd57600080fd5b60006102c98585610278565b92505060206102da8582860161029f565b9150509250929050565b6000602082840312156102f657600080fd5b60006103028484610289565b949350505050565b60008060006060848603121561031f57600080fd5b600061032b8686610294565b935050602061033c86828701610278565b925050604061034d8682870161029f565b9150509250925092565b610360816103f5565b82525050565b6000610371826103e8565b61037b81856103ec565b935061038b81856020860161041f565b6103948161044f565b9093019392505050565b6103608161041c565b602081016102838284610357565b604081016103c38285610357565b6103d0602083018461039e565b9392505050565b602080825281016103d08184610366565b5190565b90815260200190565b600061028382610410565b151590565b6000610283826103f5565b6001600160a01b031690565b90565b60005b8381101561043a578181015183820152602001610422565b83811115610449576000848401525b50505050565b601f01601f191690565b610462816103f5565b811461046d57600080fd5b50565b61046281610400565b61046281610405565b6104628161041c56fea365627a7a723158208bd67fbf75f63bdf64cdca5f69809ad9ad9a84ede138d878b066c95a750592976c6578706572696d656e74616cf564736f6c63430005100040a365627a7a72315820ff4a9ccca15e430c8050f73ba7a1dc866c877bd8812b332295e8d511c44b1db36c6578706572696d656e74616cf564736f6c63430005100040",
			"opcodes": "PUSH1 0x80 PUSH1 0x40 MSTORE CALLVALUE DUP1 ISZERO PUSH3 0x11 JUMPI PUSH1 0x0 DUP1 REVERT JUMPDEST POP PUSH1 0x40 MLOAD PUSH3 0x4D4E CODESIZE SUB DUP1 PUSH3 0x4D4E DUP4 CODECOPY DUP2 ADD PUSH1 0x40 DUP2 SWAP1 MSTORE PUSH3 0x34 SWAP2 PUSH3 0xC8 JUMP JUMPDEST PUSH1 0x0 DUP1 SLOAD PUSH1 0x1 PUSH1 0x1 PUSH1 0xA0 SHL SUB NOT AND CALLER OR SWAP1 SSTORE PUSH3 0x5A DUP2 PUSH1 0x1 PUSH1 0x1 PUSH1 0xE0 SHL SUB PUSH3 0x61 AND JUMP JUMPDEST POP PUSH3 0x173 JUMP JUMPDEST PUSH1 0x1 PUSH1 0x1 PUSH1 0xA0 SHL SUB DUP2 AND PUSH3 0x93 JUMPI PUSH1 0x40 MLOAD PUSH3 0x461BCD PUSH1 0xE5 SHL DUP2 MSTORE PUSH1 0x4 ADD PUSH3 0x8A SWAP1 PUSH3 0x12C JUMP JUMPDEST PUSH1 0x40 MLOAD DUP1 SWAP2 SUB SWAP1 REVERT JUMPDEST PUSH1 0x1 DUP1 SLOAD PUSH1 0x1 PUSH1 0x1 PUSH1 0xA0 SHL SUB NOT AND PUSH1 0x1 PUSH1 0x1 PUSH1 0xA0 SHL SUB SWAP3 SWAP1 SWAP3 AND SWAP2 SWAP1 SWAP2 OR SWAP1 SSTORE JUMP JUMPDEST DUP1 MLOAD PUSH3 0xC2 DUP2 PUSH3 0x159 JUMP JUMPDEST SWAP3 SWAP2 POP POP JUMP JUMPDEST PUSH1 0x0 PUSH1 0x20 DUP3 DUP5 SUB SLT ISZERO PUSH3 0xDB JUMPI PUSH1 0x0 DUP1 REVERT JUMPDEST PUSH1 0x0 PUSH3 0xE9 DUP5 DUP5 PUSH3 0xB5 JUMP JUMPDEST SWAP5 SWAP4 POP POP POP POP JUMP JUMPDEST PUSH1 0x0 PUSH3 0x100 PUSH1 0x15 DUP4 PUSH3 0x13E JUMP JUMPDEST PUSH32 0x69726F206164647265737320697320656D7074792E0000000000000000000000 DUP2 MSTORE PUSH1 0x20 ADD SWAP3 SWAP2 POP POP JUMP JUMPDEST PUSH1 0x20 DUP1 DUP3 MSTORE DUP2 ADD PUSH3 0xC2 DUP2 PUSH3 0xF1 JUMP JUMPDEST SWAP1 DUP2 MSTORE PUSH1 0x20 ADD SWAP1 JUMP JUMPDEST PUSH1 0x0 PUSH1 0x1 PUSH1 0x1 PUSH1 0xA0 SHL SUB DUP3 AND PUSH3 0xC2 JUMP JUMPDEST PUSH3 0x164 DUP2 PUSH3 0x147 JUMP JUMPDEST DUP2 EQ PUSH3 0x170 JUMPI PUSH1 0x0 DUP1 REVERT JUMPDEST POP JUMP JUMPDEST PUSH2 0x4BCB DUP1 PUSH3 0x183 PUSH1 0x0 CODECOPY PUSH1 0x0 RETURN INVALID PUSH1 0x80 PUSH1 0x40 MSTORE PUSH1 0x4 CALLDATASIZE LT PUSH3 0x92 JUMPI PUSH1 0x0 CALLDATALOAD PUSH1 0xE0 SHR DUP1 PUSH4 0x59F7F240 GT PUSH3 0x61 JUMPI DUP1 PUSH4 0x59F7F240 EQ PUSH3 0x156 JUMPI DUP1 PUSH4 0xC8D22036 EQ PUSH3 0x16D JUMPI DUP1 PUSH4 0xCEE696C8 EQ PUSH3 0x192 JUMPI DUP1 PUSH4 0xD46D6D8A EQ PUSH3 0x1C6 JUMPI DUP1 PUSH4 0xFFB135A8 EQ PUSH3 0x1EB JUMPI PUSH3 0x92 JUMP JUMPDEST DUP1 PUSH4 0xF5E1849 EQ PUSH3 0x97 JUMPI DUP1 PUSH4 0x3122FEF1 EQ PUSH3 0xBE JUMPI DUP1 PUSH4 0x3185FEBF EQ PUSH3 0xFC JUMPI DUP1 PUSH4 0x474B58C2 EQ PUSH3 0x122 JUMPI JUMPDEST PUSH1 0x0 DUP1 REVERT JUMPDEST CALLVALUE DUP1 ISZERO PUSH3 0xA4 JUMPI PUSH1 0x0 DUP1 REVERT JUMPDEST POP PUSH3 0xBC PUSH3 0xB6 CALLDATASIZE PUSH1 0x4 PUSH3 0x36FC JUMP JUMPDEST PUSH3 0x210 JUMP JUMPDEST STOP JUMPDEST CALLVALUE DUP1 ISZERO PUSH3 0xCB JUMPI PUSH1 0x0 DUP1 REVERT JUMPDEST POP PUSH3 0xE3 PUSH3 0xDD CALLDATASIZE PUSH1 0x4 PUSH3 0x36FC JUMP JUMPDEST PUSH3 0x766 JUMP JUMPDEST PUSH1 0x40 MLOAD PUSH3 0xF3 SWAP3 SWAP2 SWAP1 PUSH3 0x429D JUMP JUMPDEST PUSH1 0x40 MLOAD DUP1 SWAP2 SUB SWAP1 RETURN JUMPDEST PUSH3 0x113 PUSH3 0x10D CALLDATASIZE PUSH1 0x4 PUSH3 0x37F4 JUMP JUMPDEST PUSH3 0x947 JUMP JUMPDEST PUSH1 0x40 MLOAD PUSH3 0xF3 SWAP2 SWAP1 PUSH3 0x428A JUMP JUMPDEST CALLVALUE DUP1 ISZERO PUSH3 0x12F JUMPI PUSH1 0x0 DUP1 REVERT JUMPDEST POP PUSH3 0x147 PUSH3 0x141 CALLDATASIZE PUSH1 0x4 PUSH3 0x36FC JUMP JUMPDEST PUSH3 0x15D9 JUMP JUMPDEST PUSH1 0x40 MLOAD PUSH3 0xF3 SWAP2 SWAP1 PUSH3 0x415E JUMP JUMPDEST PUSH3 0xBC PUSH3 0x167 CALLDATASIZE PUSH1 0x4 PUSH3 0x389A JUMP JUMPDEST PUSH3 0x168E JUMP JUMPDEST CALLVALUE DUP1 ISZERO PUSH3 0x17A JUMPI PUSH1 0x0 DUP1 REVERT JUMPDEST POP PUSH3 0x113 PUSH3 0x18C CALLDATASIZE PUSH1 0x4 PUSH3 0x37F4 JUMP JUMPDEST PUSH3 0x19BD JUMP JUMPDEST CALLVALUE DUP1 ISZERO PUSH3 0x19F JUMPI PUSH1 0x0 DUP1 REVERT JUMPDEST POP PUSH3 0x1B7 PUSH3 0x1B1 CALLDATASIZE PUSH1 0x4 PUSH3 0x36B7 JUMP JUMPDEST PUSH3 0x1DA7 JUMP JUMPDEST PUSH1 0x40 MLOAD PUSH3 0xF3 SWAP2 SWAP1 PUSH3 0x42D9 JUMP JUMPDEST CALLVALUE DUP1 ISZERO PUSH3 0x1D3 JUMPI PUSH1 0x0 DUP1 REVERT JUMPDEST POP PUSH3 0xBC PUSH3 0x1E5 CALLDATASIZE PUSH1 0x4 PUSH3 0x3771 JUMP JUMPDEST PUSH3 0x1DD4 JUMP JUMPDEST CALLVALUE DUP1 ISZERO PUSH3 0x1F8 JUMPI PUSH1 0x0 DUP1 REVERT JUMPDEST POP PUSH3 0xBC PUSH3 0x20A CALLDATASIZE PUSH1 0x4 PUSH3 0x3654 JUMP JUMPDEST PUSH3 0x2131 JUMP JUMPDEST PUSH1 0x0 SLOAD PUSH1 0x1 PUSH1 0x1 PUSH1 0xA0 SHL SUB AND CALLER EQ PUSH3 0x228 JUMPI PUSH1 0x0 DUP1 REVERT JUMPDEST PUSH3 0x232 PUSH3 0x294F JUMP JUMPDEST PUSH3 0x2A7 DUP6 DUP6 DUP1 DUP1 PUSH1 0x1F ADD PUSH1 0x20 DUP1 SWAP2 DIV MUL PUSH1 0x20 ADD PUSH1 0x40 MLOAD SWAP1 DUP2 ADD PUSH1 0x40 MSTORE DUP1 SWAP4 SWAP3 SWAP2 SWAP1 DUP2 DUP2 MSTORE PUSH1 0x20 ADD DUP4 DUP4 DUP1 DUP3 DUP5 CALLDATACOPY PUSH1 0x0 SWAP3 ADD SWAP2 SWAP1 SWAP2 MSTORE POP POP PUSH1 0x40 DUP1 MLOAD PUSH1 0x20 PUSH1 0x1F DUP10 ADD DUP2 SWAP1 DIV DUP2 MUL DUP3 ADD DUP2 ADD SWAP1 SWAP3 MSTORE DUP8 DUP2 MSTORE SWAP3 POP DUP8 SWAP2 POP DUP7 SWAP1 DUP2 SWAP1 DUP5 ADD DUP4 DUP3 DUP1 DUP3 DUP5 CALLDATACOPY PUSH1 0x0 SWAP3 ADD SWAP2 SWAP1 SWAP2 MSTORE POP PUSH3 0x217C SWAP3 POP POP POP JUMP JUMPDEST SWAP1 POP DUP4 PUSH3 0x2D2 JUMPI PUSH1 0x40 MLOAD PUSH3 0x461BCD PUSH1 0xE5 SHL DUP2 MSTORE PUSH1 0x4 ADD PUSH3 0x2C9 SWAP1 PUSH3 0x421E JUMP JUMPDEST PUSH1 0x40 MLOAD DUP1 SWAP2 SUB SWAP1 REVERT JUMPDEST PUSH1 0x0 DUP2 PUSH1 0xE0 ADD MLOAD PUSH1 0xC0 ADD MLOAD SWAP1 POP PUSH1 0x60 PUSH3 0x356 DUP8 DUP8 DUP1 DUP1 PUSH1 0x1F ADD PUSH1 0x20 DUP1 SWAP2 DIV MUL PUSH1 0x20 ADD PUSH1 0x40 MLOAD SWAP1 DUP2 ADD PUSH1 0x40 MSTORE DUP1 SWAP4 SWAP3 SWAP2 SWAP1 DUP2 DUP2 MSTORE PUSH1 0x20 ADD DUP4 DUP4 DUP1 DUP3 DUP5 CALLDATACOPY PUSH1 0x0 SWAP3 ADD SWAP2 SWAP1 SWAP2 MSTORE POP POP PUSH1 0x40 DUP1 MLOAD PUSH1 0x20 PUSH1 0x1F DUP12 ADD DUP2 SWAP1 DIV DUP2 MUL DUP3 ADD DUP2 ADD SWAP1 SWAP3 MSTORE DUP10 DUP2 MSTORE SWAP3 POP DUP10 SWAP2 POP DUP9 SWAP1 DUP2 SWAP1 DUP5 ADD DUP4 DUP3 DUP1 DUP3 DUP5 CALLDATACOPY PUSH1 0x0 SWAP3 ADD SWAP2 SWAP1 SWAP2 MSTORE POP PUSH3 0x2754 SWAP3 POP POP POP JUMP JUMPDEST SWAP1 POP PUSH1 0x60 PUSH1 0x5 DUP3 PUSH1 0x40 MLOAD PUSH3 0x36C SWAP2 SWAP1 PUSH3 0x40DA JUMP JUMPDEST SWAP1 DUP2 MSTORE PUSH1 0x20 ADD PUSH1 0x40 MLOAD DUP1 SWAP2 SUB SWAP1 KECCAK256 DUP1 SLOAD DUP1 PUSH1 0x20 MUL PUSH1 0x20 ADD PUSH1 0x40 MLOAD SWAP1 DUP2 ADD PUSH1 0x40 MSTORE DUP1 SWAP3 SWAP2 SWAP1 DUP2 DUP2 MSTORE PUSH1 0x20 ADD PUSH1 0x0 SWAP1 JUMPDEST DUP3 DUP3 LT ISZERO PUSH3 0x53E JUMPI PUSH1 0x0 DUP5 DUP2 MSTORE PUSH1 0x20 SWAP1 DUP2 SWAP1 KECCAK256 PUSH1 0x40 DUP1 MLOAD PUSH1 0x6 DUP7 MUL SWAP1 SWAP3 ADD DUP1 SLOAD PUSH1 0x2 PUSH1 0x1 DUP3 AND ISZERO PUSH2 0x100 MUL PUSH1 0x0 NOT ADD SWAP1 SWAP2 AND DIV PUSH1 0x1F DUP2 ADD DUP6 SWAP1 DIV SWAP1 SWAP5 MUL DUP4 ADD PUSH1 0xE0 SWAP1 DUP2 ADD SWAP1 SWAP3 MSTORE PUSH1 0xC0 DUP4 ADD DUP5 DUP2 MSTORE SWAP3 SWAP4 SWAP1 SWAP3 DUP5 SWAP3 SWAP1 SWAP2 DUP5 SWAP2 DUP5 ADD DUP3 DUP3 DUP1 ISZERO PUSH3 0x448 JUMPI DUP1 PUSH1 0x1F LT PUSH3 0x41C JUMPI PUSH2 0x100 DUP1 DUP4 SLOAD DIV MUL DUP4 MSTORE SWAP2 PUSH1 0x20 ADD SWAP2 PUSH3 0x448 JUMP JUMPDEST DUP3 ADD SWAP2 SWAP1 PUSH1 0x0 MSTORE PUSH1 0x20 PUSH1 0x0 KECCAK256 SWAP1 JUMPDEST DUP2 SLOAD DUP2 MSTORE SWAP1 PUSH1 0x1 ADD SWAP1 PUSH1 0x20 ADD DUP1 DUP4 GT PUSH3 0x42A JUMPI DUP3 SWAP1 SUB PUSH1 0x1F AND DUP3 ADD SWAP2 JUMPDEST POP POP POP POP POP DUP2 MSTORE PUSH1 0x20 ADD PUSH1 0x1 DUP3 ADD DUP1 SLOAD PUSH1 0x1 DUP2 PUSH1 0x1 AND ISZERO PUSH2 0x100 MUL SUB AND PUSH1 0x2 SWAP1 DIV DUP1 PUSH1 0x1F ADD PUSH1 0x20 DUP1 SWAP2 DIV MUL PUSH1 0x20 ADD PUSH1 0x40 MLOAD SWAP1 DUP2 ADD PUSH1 0x40 MSTORE DUP1 SWAP3 SWAP2 SWAP1 DUP2 DUP2 MSTORE PUSH1 0x20 ADD DUP3 DUP1 SLOAD PUSH1 0x1 DUP2 PUSH1 0x1 AND ISZERO PUSH2 0x100 MUL SUB AND PUSH1 0x2 SWAP1 DIV DUP1 ISZERO PUSH3 0x4EE JUMPI DUP1 PUSH1 0x1F LT PUSH3 0x4C2 JUMPI PUSH2 0x100 DUP1 DUP4 SLOAD DIV MUL DUP4 MSTORE SWAP2 PUSH1 0x20 ADD SWAP2 PUSH3 0x4EE JUMP JUMPDEST DUP3 ADD SWAP2 SWAP1 PUSH1 0x0 MSTORE PUSH1 0x20 PUSH1 0x0 KECCAK256 SWAP1 JUMPDEST DUP2 SLOAD DUP2 MSTORE SWAP1 PUSH1 0x1 ADD SWAP1 PUSH1 0x20 ADD DUP1 DUP4 GT PUSH3 0x4D0 JUMPI DUP3 SWAP1 SUB PUSH1 0x1F AND DUP3 ADD SWAP2 JUMPDEST POP POP POP SWAP2 DUP4 MSTORE POP POP PUSH1 0x2 DUP3 ADD SLOAD PUSH1 0x1 PUSH1 0x1 PUSH1 0xA0 SHL SUB AND PUSH1 0x20 DUP1 DUP4 ADD SWAP2 SWAP1 SWAP2 MSTORE PUSH1 0x3 DUP4 ADD SLOAD PUSH1 0x40 DUP4 ADD MSTORE PUSH1 0x4 DUP4 ADD SLOAD PUSH1 0x60 DUP4 ADD MSTORE PUSH1 0x5 SWAP1 SWAP3 ADD SLOAD PUSH1 0x80 SWAP1 SWAP2 ADD MSTORE SWAP1 DUP3 MSTORE PUSH1 0x1 SWAP3 SWAP1 SWAP3 ADD SWAP2 ADD PUSH3 0x39A JUMP JUMPDEST POP POP POP POP PUSH1 0xE0 DUP6 DUP2 ADD MLOAD ADD MLOAD SWAP1 SWAP2 POP PUSH1 0x0 DUP1 DUP1 DUP1 JUMPDEST DUP6 MLOAD DUP2 LT ISZERO PUSH3 0x59C JUMPI PUSH3 0x567 PUSH3 0x29D4 JUMP JUMPDEST DUP7 DUP3 DUP2 MLOAD DUP2 LT PUSH3 0x574 JUMPI INVALID JUMPDEST PUSH1 0x20 SWAP1 DUP2 MUL SWAP2 SWAP1 SWAP2 ADD ADD MLOAD PUSH1 0x60 DUP2 ADD MLOAD PUSH1 0x80 SWAP1 SWAP2 ADD MLOAD SWAP6 ADD SWAP5 SWAP4 SWAP1 SWAP4 ADD SWAP3 POP PUSH1 0x1 ADD PUSH3 0x553 JUMP JUMPDEST POP PUSH2 0x120 DUP9 ADD MLOAD MLOAD DUP6 MLOAD LT ISZERO PUSH3 0x5B6 JUMPI POP PUSH1 0x3 PUSH3 0x61F JUMP JUMPDEST PUSH1 0x0 DUP4 GT DUP1 ISZERO PUSH3 0x5C5 JUMPI POP DUP2 ISZERO JUMPDEST ISZERO PUSH3 0x5D4 JUMPI POP PUSH1 0x1 PUSH3 0x61F JUMP JUMPDEST DUP3 ISZERO DUP1 ISZERO PUSH3 0x5E3 JUMPI POP PUSH1 0x0 DUP3 GT JUMPDEST ISZERO PUSH3 0x5F2 JUMPI POP PUSH1 0x2 PUSH3 0x61F JUMP JUMPDEST DUP8 PUSH2 0x120 ADD MLOAD PUSH1 0x20 ADD MLOAD DUP3 DUP5 DUP2 PUSH3 0x606 JUMPI INVALID JUMPDEST DIV PUSH1 0x64 MUL LT ISZERO PUSH3 0x619 JUMPI PUSH1 0x2 PUSH3 0x61C JUMP JUMPDEST PUSH1 0x1 JUMPDEST SWAP1 POP JUMPDEST PUSH3 0x6A7 DUP13 DUP13 DUP1 DUP1 PUSH1 0x1F ADD PUSH1 0x20 DUP1 SWAP2 DIV MUL PUSH1 0x20 ADD PUSH1 0x40 MLOAD SWAP1 DUP2 ADD PUSH1 0x40 MSTORE DUP1 SWAP4 SWAP3 SWAP2 SWAP1 DUP2 DUP2 MSTORE PUSH1 0x20 ADD DUP4 DUP4 DUP1 DUP3 DUP5 CALLDATACOPY PUSH1 0x0 DUP2 DUP5 ADD MSTORE PUSH1 0x1F NOT PUSH1 0x1F DUP3 ADD AND SWAP1 POP DUP1 DUP4 ADD SWAP3 POP POP POP POP POP POP POP DUP12 DUP12 DUP1 DUP1 PUSH1 0x1F ADD PUSH1 0x20 DUP1 SWAP2 DIV MUL PUSH1 0x20 ADD PUSH1 0x40 MLOAD SWAP1 DUP2 ADD PUSH1 0x40 MSTORE DUP1 SWAP4 SWAP3 SWAP2 SWAP1 DUP2 DUP2 MSTORE PUSH1 0x20 ADD DUP4 DUP4 DUP1 DUP3 DUP5 CALLDATACOPY PUSH1 0x0 SWAP3 ADD SWAP2 SWAP1 SWAP2 MSTORE POP DUP7 SWAP3 POP PUSH3 0x1DD4 SWAP2 POP POP JUMP JUMPDEST PUSH1 0x0 JUMPDEST DUP6 MLOAD DUP2 LT ISZERO PUSH3 0x757 JUMPI PUSH3 0x6BE PUSH3 0x29D4 JUMP JUMPDEST DUP7 DUP3 DUP2 MLOAD DUP2 LT PUSH3 0x6CB JUMPI INVALID JUMPDEST PUSH1 0x20 MUL PUSH1 0x20 ADD ADD MLOAD SWAP1 POP DUP6 PUSH1 0x1 PUSH1 0x1 PUSH1 0xA0 SHL SUB AND PUSH4 0xBEABACC8 DUP11 DUP4 PUSH1 0x40 ADD MLOAD DUP5 PUSH1 0x80 ADD MLOAD DUP6 PUSH1 0x60 ADD MLOAD ADD PUSH1 0x40 MLOAD DUP5 PUSH4 0xFFFFFFFF AND PUSH1 0xE0 SHL DUP2 MSTORE PUSH1 0x4 ADD PUSH3 0x715 SWAP4 SWAP3 SWAP2 SWAP1 PUSH3 0x413F JUMP JUMPDEST PUSH1 0x0 PUSH1 0x40 MLOAD DUP1 DUP4 SUB DUP2 PUSH1 0x0 DUP8 DUP1 EXTCODESIZE ISZERO DUP1 ISZERO PUSH3 0x730 JUMPI PUSH1 0x0 DUP1 REVERT JUMPDEST POP GAS CALL ISZERO DUP1 ISZERO PUSH3 0x745 JUMPI RETURNDATASIZE PUSH1 0x0 DUP1 RETURNDATACOPY RETURNDATASIZE PUSH1 0x0 REVERT JUMPDEST POP POP PUSH1 0x1 SWAP1 SWAP4 ADD SWAP3 POP PUSH3 0x6AA SWAP2 POP POP JUMP JUMPDEST POP POP POP POP POP POP POP POP POP POP POP POP POP JUMP JUMPDEST PUSH3 0x770 PUSH3 0x294F JUMP JUMPDEST PUSH1 0x60 PUSH3 0x77C PUSH3 0x294F JUMP JUMPDEST PUSH3 0x7F1 DUP8 DUP8 DUP1 DUP1 PUSH1 0x1F ADD PUSH1 0x20 DUP1 SWAP2 DIV MUL PUSH1 0x20 ADD PUSH1 0x40 MLOAD SWAP1 DUP2 ADD PUSH1 0x40 MSTORE DUP1 SWAP4 SWAP3 SWAP2 SWAP1 DUP2 DUP2 MSTORE PUSH1 0x20 ADD DUP4 DUP4 DUP1 DUP3 DUP5 CALLDATACOPY PUSH1 0x0 SWAP3 ADD SWAP2 SWAP1 SWAP2 MSTORE POP POP PUSH1 0x40 DUP1 MLOAD PUSH1 0x20 PUSH1 0x1F DUP12 ADD DUP2 SWAP1 DIV DUP2 MUL DUP3 ADD DUP2 ADD SWAP1 SWAP3 MSTORE DUP10 DUP2 MSTORE SWAP3 POP DUP10 SWAP2 POP DUP9 SWAP1 DUP2 SWAP1 DUP5 ADD DUP4 DUP3 DUP1 DUP3 DUP5 CALLDATACOPY PUSH1 0x0 SWAP3 ADD SWAP2 SWAP1 SWAP2 MSTORE POP PUSH3 0x217C SWAP3 POP POP POP JUMP JUMPDEST SWAP1 POP PUSH1 0x60 PUSH3 0x800 DUP3 PUSH3 0x2782 JUMP JUMPDEST SWAP1 POP DUP2 PUSH1 0x3 DUP3 PUSH1 0x40 MLOAD PUSH3 0x815 SWAP2 SWAP1 PUSH3 0x40DA JUMP JUMPDEST SWAP1 DUP2 MSTORE PUSH1 0x20 ADD PUSH1 0x40 MLOAD DUP1 SWAP2 SUB SWAP1 KECCAK256 DUP1 DUP1 SLOAD DUP1 PUSH1 0x20 MUL PUSH1 0x20 ADD PUSH1 0x40 MLOAD SWAP1 DUP2 ADD PUSH1 0x40 MSTORE DUP1 SWAP3 SWAP2 SWAP1 DUP2 DUP2 MSTORE PUSH1 0x20 ADD PUSH1 0x0 SWAP1 JUMPDEST DUP3 DUP3 LT ISZERO PUSH3 0x932 JUMPI DUP4 DUP3 SWAP1 PUSH1 0x0 MSTORE PUSH1 0x20 PUSH1 0x0 KECCAK256 SWAP1 PUSH1 0x3 MUL ADD PUSH1 0x40 MLOAD DUP1 PUSH1 0x60 ADD PUSH1 0x40 MSTORE SWAP1 DUP2 PUSH1 0x0 DUP3 ADD SLOAD DUP2 MSTORE PUSH1 0x20 ADD PUSH1 0x1 DUP3 ADD SLOAD DUP2 MSTORE PUSH1 0x20 ADD PUSH1 0x2 DUP3 ADD DUP1 SLOAD PUSH1 0x1 DUP2 PUSH1 0x1 AND ISZERO PUSH2 0x100 MUL SUB AND PUSH1 0x2 SWAP1 DIV DUP1 PUSH1 0x1F ADD PUSH1 0x20 DUP1 SWAP2 DIV MUL PUSH1 0x20 ADD PUSH1 0x40 MLOAD SWAP1 DUP2 ADD PUSH1 0x40 MSTORE DUP1 SWAP3 SWAP2 SWAP1 DUP2 DUP2 MSTORE PUSH1 0x20 ADD DUP3 DUP1 SLOAD PUSH1 0x1 DUP2 PUSH1 0x1 AND ISZERO PUSH2 0x100 MUL SUB AND PUSH1 0x2 SWAP1 DIV DUP1 ISZERO PUSH3 0x919 JUMPI DUP1 PUSH1 0x1F LT PUSH3 0x8ED JUMPI PUSH2 0x100 DUP1 DUP4 SLOAD DIV MUL DUP4 MSTORE SWAP2 PUSH1 0x20 ADD SWAP2 PUSH3 0x919 JUMP JUMPDEST DUP3 ADD SWAP2 SWAP1 PUSH1 0x0 MSTORE PUSH1 0x20 PUSH1 0x0 KECCAK256 SWAP1 JUMPDEST DUP2 SLOAD DUP2 MSTORE SWAP1 PUSH1 0x1 ADD SWAP1 PUSH1 0x20 ADD DUP1 DUP4 GT PUSH3 0x8FB JUMPI DUP3 SWAP1 SUB PUSH1 0x1F AND DUP3 ADD SWAP2 JUMPDEST POP POP POP POP POP DUP2 MSTORE POP POP DUP2 MSTORE PUSH1 0x20 ADD SWAP1 PUSH1 0x1 ADD SWAP1 PUSH3 0x844 JUMP JUMPDEST POP POP POP POP SWAP1 POP SWAP4 POP SWAP4 POP POP POP SWAP5 POP SWAP5 SWAP3 POP POP POP JUMP JUMPDEST PUSH3 0x951 PUSH3 0x294F JUMP JUMPDEST PUSH1 0x20 DUP4 ADD MLOAD MLOAD PUSH3 0x976 JUMPI PUSH1 0x40 MLOAD PUSH3 0x461BCD PUSH1 0xE5 SHL DUP2 MSTORE PUSH1 0x4 ADD PUSH3 0x2C9 SWAP1 PUSH3 0x4242 JUMP JUMPDEST DUP3 MLOAD MLOAD PUSH3 0x998 JUMPI PUSH1 0x40 MLOAD PUSH3 0x461BCD PUSH1 0xE5 SHL DUP2 MSTORE PUSH1 0x4 ADD PUSH3 0x2C9 SWAP1 PUSH3 0x41FA JUMP JUMPDEST PUSH1 0x0 PUSH1 0x2 DUP5 PUSH1 0x0 ADD MLOAD PUSH1 0x40 MLOAD PUSH3 0x9B0 SWAP2 SWAP1 PUSH3 0x40DA JUMP JUMPDEST SWAP1 DUP2 MSTORE PUSH1 0x20 ADD PUSH1 0x40 MLOAD DUP1 SWAP2 SUB SWAP1 KECCAK256 SWAP1 POP PUSH3 0x9CA PUSH3 0x294F JUMP JUMPDEST DUP2 DUP6 PUSH1 0x20 ADD MLOAD PUSH1 0x40 MLOAD PUSH3 0x9DF SWAP2 SWAP1 PUSH3 0x40DA JUMP JUMPDEST SWAP1 DUP2 MSTORE PUSH1 0x40 DUP1 MLOAD PUSH1 0x20 SWAP3 DUP2 SWAP1 SUB DUP4 ADD DUP2 KECCAK256 DUP1 SLOAD PUSH1 0x2 PUSH1 0x1 DUP3 AND ISZERO PUSH2 0x100 MUL PUSH1 0x0 NOT ADD SWAP1 SWAP2 AND DIV PUSH1 0x1F DUP2 ADD DUP6 SWAP1 DIV SWAP1 SWAP5 MUL DUP3 ADD PUSH2 0x1A0 SWAP1 DUP2 ADD SWAP1 SWAP4 MSTORE PUSH2 0x180 DUP3 ADD DUP5 DUP2 MSTORE SWAP2 SWAP4 SWAP1 SWAP3 DUP5 SWAP3 SWAP2 DUP5 SWAP2 DUP5 ADD DUP3 DUP3 DUP1 ISZERO PUSH3 0xA80 JUMPI DUP1 PUSH1 0x1F LT PUSH3 0xA54 JUMPI PUSH2 0x100 DUP1 DUP4 SLOAD DIV MUL DUP4 MSTORE SWAP2 PUSH1 0x20 ADD SWAP2 PUSH3 0xA80 JUMP JUMPDEST DUP3 ADD SWAP2 SWAP1 PUSH1 0x0 MSTORE PUSH1 0x20 PUSH1 0x0 KECCAK256 SWAP1 JUMPDEST DUP2 SLOAD DUP2 MSTORE SWAP1 PUSH1 0x1 ADD SWAP1 PUSH1 0x20 ADD DUP1 DUP4 GT PUSH3 0xA62 JUMPI DUP3 SWAP1 SUB PUSH1 0x1F AND DUP3 ADD SWAP2 JUMPDEST POP POP POP POP POP DUP2 MSTORE PUSH1 0x20 ADD PUSH1 0x1 DUP3 ADD DUP1 SLOAD PUSH1 0x1 DUP2 PUSH1 0x1 AND ISZERO PUSH2 0x100 MUL SUB AND PUSH1 0x2 SWAP1 DIV DUP1 PUSH1 0x1F ADD PUSH1 0x20 DUP1 SWAP2 DIV MUL PUSH1 0x20 ADD PUSH1 0x40 MLOAD SWAP1 DUP2 ADD PUSH1 0x40 MSTORE DUP1 SWAP3 SWAP2 SWAP1 DUP2 DUP2 MSTORE PUSH1 0x20 ADD DUP3 DUP1 SLOAD PUSH1 0x1 DUP2 PUSH1 0x1 AND ISZERO PUSH2 0x100 MUL SUB AND PUSH1 0x2 SWAP1 DIV DUP1 ISZERO PUSH3 0xB26 JUMPI DUP1 PUSH1 0x1F LT PUSH3 0xAFA JUMPI PUSH2 0x100 DUP1 DUP4 SLOAD DIV MUL DUP4 MSTORE SWAP2 PUSH1 0x20 ADD SWAP2 PUSH3 0xB26 JUMP JUMPDEST DUP3 ADD SWAP2 SWAP1 PUSH1 0x0 MSTORE PUSH1 0x20 PUSH1 0x0 KECCAK256 SWAP1 JUMPDEST DUP2 SLOAD DUP2 MSTORE SWAP1 PUSH1 0x1 ADD SWAP1 PUSH1 0x20 ADD DUP1 DUP4 GT PUSH3 0xB08 JUMPI DUP3 SWAP1 SUB PUSH1 0x1F AND DUP3 ADD SWAP2 JUMPDEST POP POP POP SWAP2 DUP4 MSTORE POP POP PUSH1 0x2 DUP3 DUP2 ADD DUP1 SLOAD PUSH1 0x40 DUP1 MLOAD PUSH1 0x20 PUSH1 0x1 DUP5 AND ISZERO PUSH2 0x100 MUL PUSH1 0x0 NOT ADD SWAP1 SWAP4 AND SWAP5 SWAP1 SWAP5 DIV PUSH1 0x1F DUP2 ADD DUP4 SWAP1 DIV DUP4 MUL DUP6 ADD DUP4 ADD SWAP1 SWAP2 MSTORE DUP1 DUP5 MSTORE SWAP4 DUP2 ADD SWAP4 SWAP1 DUP4 ADD DUP3 DUP3 DUP1 ISZERO PUSH3 0xBBC JUMPI DUP1 PUSH1 0x1F LT PUSH3 0xB90 JUMPI PUSH2 0x100 DUP1 DUP4 SLOAD DIV MUL DUP4 MSTORE SWAP2 PUSH1 0x20 ADD SWAP2 PUSH3 0xBBC JUMP JUMPDEST DUP3 ADD SWAP2 SWAP1 PUSH1 0x0 MSTORE PUSH1 0x20 PUSH1 0x0 KECCAK256 SWAP1 JUMPDEST DUP2 SLOAD DUP2 MSTORE SWAP1 PUSH1 0x1 ADD SWAP1 PUSH1 0x20 ADD DUP1 DUP4 GT PUSH3 0xB9E JUMPI DUP3 SWAP1 SUB PUSH1 0x1F AND DUP3 ADD SWAP2 JUMPDEST POP POP POP SWAP2 DUP4 MSTORE POP POP PUSH1 0x3 DUP3 DUP2 ADD SLOAD PUSH1 0x20 SWAP1 SWAP3 ADD SWAP2 PUSH1 0xFF AND SWAP1 DUP2 GT ISZERO PUSH3 0xBDE JUMPI INVALID JUMPDEST PUSH1 0x3 DUP2 GT ISZERO PUSH3 0xBEA JUMPI INVALID JUMPDEST DUP2 MSTORE PUSH1 0x20 ADD PUSH1 0x3 DUP3 ADD PUSH1 0x1 SWAP1 SLOAD SWAP1 PUSH2 0x100 EXP SWAP1 DIV PUSH1 0xFF AND PUSH1 0x6 DUP2 GT ISZERO PUSH3 0xC0D JUMPI INVALID JUMPDEST PUSH1 0x6 DUP2 GT ISZERO PUSH3 0xC19 JUMPI INVALID JUMPDEST DUP2 MSTORE PUSH1 0x4 DUP3 ADD DUP1 SLOAD PUSH1 0x40 DUP1 MLOAD PUSH1 0x20 PUSH1 0x2 PUSH1 0x1 DUP6 AND ISZERO PUSH2 0x100 MUL PUSH1 0x0 NOT ADD SWAP1 SWAP5 AND SWAP4 SWAP1 SWAP4 DIV PUSH1 0x1F DUP2 ADD DUP5 SWAP1 DIV DUP5 MUL DUP3 ADD DUP5 ADD SWAP1 SWAP3 MSTORE DUP2 DUP2 MSTORE SWAP4 DUP3 ADD SWAP4 SWAP3 SWAP2 DUP4 ADD DUP3 DUP3 DUP1 ISZERO PUSH3 0xCAB JUMPI DUP1 PUSH1 0x1F LT PUSH3 0xC7F JUMPI PUSH2 0x100 DUP1 DUP4 SLOAD DIV MUL DUP4 MSTORE SWAP2 PUSH1 0x20 ADD SWAP2 PUSH3 0xCAB JUMP JUMPDEST DUP3 ADD SWAP2 SWAP1 PUSH1 0x0 MSTORE PUSH1 0x20 PUSH1 0x0 KECCAK256 SWAP1 JUMPDEST DUP2 SLOAD DUP2 MSTORE SWAP1 PUSH1 0x1 ADD SWAP1 PUSH1 0x20 ADD DUP1 DUP4 GT PUSH3 0xC8D JUMPI DUP3 SWAP1 SUB PUSH1 0x1F AND DUP3 ADD SWAP2 JUMPDEST POP POP POP SWAP2 DUP4 MSTORE POP POP PUSH1 0x5 DUP3 ADD DUP1 SLOAD PUSH1 0x40 DUP1 MLOAD PUSH1 0x20 PUSH1 0x2 PUSH1 0x1 DUP6 AND ISZERO PUSH2 0x100 MUL PUSH1 0x0 NOT ADD SWAP1 SWAP5 AND SWAP4 SWAP1 SWAP4 DIV PUSH1 0x1F DUP2 ADD DUP5 SWAP1 DIV DUP5 MUL DUP3 ADD DUP5 ADD SWAP1 SWAP3 MSTORE DUP2 DUP2 MSTORE SWAP4 DUP3 ADD SWAP4 SWAP3 SWAP2 DUP4 ADD DUP3 DUP3 DUP1 ISZERO PUSH3 0xD43 JUMPI DUP1 PUSH1 0x1F LT PUSH3 0xD17 JUMPI PUSH2 0x100 DUP1 DUP4 SLOAD DIV MUL DUP4 MSTORE SWAP2 PUSH1 0x20 ADD SWAP2 PUSH3 0xD43 JUMP JUMPDEST DUP3 ADD SWAP2 SWAP1 PUSH1 0x0 MSTORE PUSH1 0x20 PUSH1 0x0 KECCAK256 SWAP1 JUMPDEST DUP2 SLOAD DUP2 MSTORE SWAP1 PUSH1 0x1 ADD SWAP1 PUSH1 0x20 ADD DUP1 DUP4 GT PUSH3 0xD25 JUMPI DUP3 SWAP1 SUB PUSH1 0x1F AND DUP3 ADD SWAP2 JUMPDEST POP POP POP SWAP2 DUP4 MSTORE POP POP PUSH1 0x40 DUP1 MLOAD PUSH2 0x100 DUP2 ADD SWAP1 SWAP2 MSTORE PUSH1 0x6 DUP4 ADD DUP1 SLOAD PUSH1 0x1 PUSH1 0x1 PUSH1 0xA0 SHL SUB DUP2 AND DUP4 MSTORE PUSH1 0x20 SWAP4 DUP5 ADD SWAP4 DUP4 ADD SWAP1 PUSH1 0x1 PUSH1 0xA0 SHL SWAP1 DIV PUSH1 0xFF AND PUSH1 0x1 DUP2 GT ISZERO PUSH3 0xD88 JUMPI INVALID JUMPDEST PUSH1 0x1 DUP2 GT ISZERO PUSH3 0xD94 JUMPI INVALID JUMPDEST DUP2 MSTORE PUSH1 0x20 ADD PUSH1 0x1 DUP3 ADD SLOAD DUP2 MSTORE PUSH1 0x20 ADD PUSH1 0x2 DUP3 ADD DUP1 SLOAD PUSH1 0x1 DUP2 PUSH1 0x1 AND ISZERO PUSH2 0x100 MUL SUB AND PUSH1 0x2 SWAP1 DIV DUP1 PUSH1 0x1F ADD PUSH1 0x20 DUP1 SWAP2 DIV MUL PUSH1 0x20 ADD PUSH1 0x40 MLOAD SWAP1 DUP2 ADD PUSH1 0x40 MSTORE DUP1 SWAP3 SWAP2 SWAP1 DUP2 DUP2 MSTORE PUSH1 0x20 ADD DUP3 DUP1 SLOAD PUSH1 0x1 DUP2 PUSH1 0x1 AND ISZERO PUSH2 0x100 MUL SUB AND PUSH1 0x2 SWAP1 DIV DUP1 ISZERO PUSH3 0xE3F JUMPI DUP1 PUSH1 0x1F LT PUSH3 0xE13 JUMPI PUSH2 0x100 DUP1 DUP4 SLOAD DIV MUL DUP4 MSTORE SWAP2 PUSH1 0x20 ADD SWAP2 PUSH3 0xE3F JUMP JUMPDEST DUP3 ADD SWAP2 SWAP1 PUSH1 0x0 MSTORE PUSH1 0x20 PUSH1 0x0 KECCAK256 SWAP1 JUMPDEST DUP2 SLOAD DUP2 MSTORE SWAP1 PUSH1 0x1 ADD SWAP1 PUSH1 0x20 ADD DUP1 DUP4 GT PUSH3 0xE21 JUMPI DUP3 SWAP1 SUB PUSH1 0x1F AND DUP3 ADD SWAP2 JUMPDEST POP POP POP SWAP2 DUP4 MSTORE POP POP PUSH1 0x3 DUP3 DUP2 ADD SLOAD PUSH1 0x20 DUP1 DUP5 ADD SWAP2 SWAP1 SWAP2 MSTORE PUSH1 0x4 DUP5 ADD SLOAD PUSH1 0x40 DUP1 DUP6 ADD SWAP2 SWAP1 SWAP2 MSTORE PUSH1 0x5 DUP6 ADD SLOAD PUSH1 0x1 PUSH1 0x1 PUSH1 0xA0 SHL SUB SWAP1 DUP2 AND PUSH1 0x60 DUP7 ADD MSTORE PUSH1 0x6 SWAP1 SWAP6 ADD SLOAD SWAP1 SWAP5 AND PUSH1 0x80 SWAP1 SWAP4 ADD SWAP3 SWAP1 SWAP3 MSTORE SWAP3 DUP5 MSTORE DUP2 MLOAD DUP1 DUP3 ADD SWAP1 SWAP3 MSTORE PUSH1 0xD DUP6 ADD DUP1 SLOAD SWAP5 SWAP1 SWAP2 ADD SWAP4 SWAP2 SWAP3 SWAP1 SWAP2 DUP4 SWAP2 PUSH1 0xFF SWAP1 SWAP2 AND SWAP1 DUP2 GT ISZERO PUSH3 0xEB7 JUMPI INVALID JUMPDEST PUSH1 0x3 DUP2 GT ISZERO PUSH3 0xEC3 JUMPI INVALID JUMPDEST SWAP1 MSTORE POP DUP2 MSTORE PUSH1 0x40 DUP1 MLOAD PUSH1 0x80 DUP2 ADD DUP3 MSTORE PUSH1 0xE DUP5 ADD SLOAD DUP2 MSTORE PUSH1 0xF DUP5 ADD SLOAD PUSH1 0x20 DUP3 DUP2 ADD SWAP2 SWAP1 SWAP2 MSTORE PUSH1 0x10 DUP6 ADD SLOAD DUP3 DUP5 ADD MSTORE PUSH1 0x11 DUP6 ADD SLOAD PUSH1 0x60 DUP1 DUP5 ADD SWAP2 SWAP1 SWAP2 MSTORE SWAP1 DUP5 ADD SWAP2 SWAP1 SWAP2 MSTORE PUSH1 0x12 DUP5 ADD SLOAD SWAP2 DUP4 ADD SWAP2 SWAP1 SWAP2 MSTORE PUSH1 0x13 SWAP1 SWAP3 ADD SLOAD PUSH1 0x1 PUSH1 0x1 PUSH1 0xA0 SHL SUB AND SWAP2 ADD MSTORE DUP1 MLOAD MLOAD SWAP1 SWAP2 POP ISZERO PUSH3 0xF49 JUMPI PUSH1 0x40 MLOAD PUSH3 0x461BCD PUSH1 0xE5 SHL DUP2 MSTORE PUSH1 0x4 ADD PUSH3 0x2C9 SWAP1 PUSH3 0x4230 JUMP JUMPDEST PUSH3 0xF53 PUSH3 0x2A13 JUMP JUMPDEST PUSH1 0x1 SLOAD DUP7 MLOAD PUSH1 0x40 MLOAD PUSH4 0xEF7AE53F PUSH1 0xE0 SHL DUP2 MSTORE PUSH1 0x1 PUSH1 0x1 PUSH1 0xA0 SHL SUB SWAP1 SWAP3 AND SWAP2 PUSH4 0xEF7AE53F SWAP2 PUSH3 0xF85 SWAP2 PUSH1 0x4 ADD PUSH3 0x418D JUMP JUMPDEST PUSH1 0x0 PUSH1 0x40 MLOAD DUP1 DUP4 SUB DUP2 DUP7 DUP1 EXTCODESIZE ISZERO DUP1 ISZERO PUSH3 0xF9E JUMPI PUSH1 0x0 DUP1 REVERT JUMPDEST POP GAS STATICCALL ISZERO DUP1 ISZERO PUSH3 0xFB3 JUMPI RETURNDATASIZE PUSH1 0x0 DUP1 RETURNDATACOPY RETURNDATASIZE PUSH1 0x0 REVERT JUMPDEST POP POP POP POP PUSH1 0x40 MLOAD RETURNDATASIZE PUSH1 0x0 DUP3 RETURNDATACOPY PUSH1 0x1F RETURNDATASIZE SWAP1 DUP2 ADD PUSH1 0x1F NOT AND DUP3 ADD PUSH1 0x40 MSTORE PUSH3 0xFDD SWAP2 SWAP1 DUP2 ADD SWAP1 PUSH3 0x3862 JUMP JUMPDEST DUP1 MLOAD MLOAD SWAP1 SWAP2 POP PUSH3 0x1002 JUMPI PUSH1 0x40 MLOAD PUSH3 0x461BCD PUSH1 0xE5 SHL DUP2 MSTORE PUSH1 0x4 ADD PUSH3 0x2C9 SWAP1 PUSH3 0x41C4 JUMP JUMPDEST PUSH3 0x100C PUSH3 0x2A52 JUMP JUMPDEST POP PUSH1 0x40 DUP2 ADD MLOAD PUSH1 0x0 DUP2 MLOAD PUSH1 0x3 DUP2 GT ISZERO PUSH3 0x1022 JUMPI INVALID JUMPDEST EQ ISZERO PUSH3 0x1043 JUMPI PUSH1 0x40 MLOAD PUSH3 0x461BCD PUSH1 0xE5 SHL DUP2 MSTORE PUSH1 0x4 ADD PUSH3 0x2C9 SWAP1 PUSH3 0x41D6 JUMP JUMPDEST PUSH1 0x40 MLOAD DUP1 PUSH1 0x20 ADD PUSH1 0x40 MSTORE DUP1 DUP3 PUSH1 0x0 ADD MLOAD PUSH1 0x3 DUP2 GT ISZERO PUSH3 0x105F JUMPI INVALID JUMPDEST SWAP1 MSTORE PUSH2 0x100 DUP9 ADD MSTORE PUSH3 0x1071 PUSH3 0x2A74 JUMP JUMPDEST POP PUSH1 0x60 DUP3 ADD MLOAD PUSH1 0x0 DUP2 MLOAD PUSH1 0x3 DUP2 GT ISZERO PUSH3 0x1087 JUMPI INVALID JUMPDEST EQ ISZERO PUSH3 0x10A8 JUMPI PUSH1 0x40 MLOAD PUSH3 0x461BCD PUSH1 0xE5 SHL DUP2 MSTORE PUSH1 0x4 ADD PUSH3 0x2C9 SWAP1 PUSH3 0x4266 JUMP JUMPDEST PUSH2 0x120 DUP9 ADD MLOAD PUSH1 0x40 ADD MLOAD TIMESTAMP SWAP1 PUSH1 0x0 SWAP1 PUSH3 0x1155 JUMPI PUSH1 0xA0 DUP4 ADD MLOAD PUSH1 0x40 MLOAD PUSH4 0x1BD95155 PUSH1 0xE0 SHL DUP2 MSTORE PUSH20 0x0 SWAP2 PUSH4 0x1BD95155 SWAP2 PUSH3 0x10F9 SWAP2 SWAP1 PUSH1 0x4 ADD PUSH3 0x418D JUMP JUMPDEST PUSH1 0x20 PUSH1 0x40 MLOAD DUP1 DUP4 SUB DUP2 DUP7 DUP1 EXTCODESIZE ISZERO DUP1 ISZERO PUSH3 0x1112 JUMPI PUSH1 0x0 DUP1 REVERT JUMPDEST POP GAS DELEGATECALL ISZERO DUP1 ISZERO PUSH3 0x1127 JUMPI RETURNDATASIZE PUSH1 0x0 DUP1 RETURNDATACOPY RETURNDATASIZE PUSH1 0x0 REVERT JUMPDEST POP POP POP POP PUSH1 0x40 MLOAD RETURNDATASIZE PUSH1 0x1F NOT PUSH1 0x1F DUP3 ADD AND DUP3 ADD DUP1 PUSH1 0x40 MSTORE POP PUSH3 0x114D SWAP2 SWAP1 DUP2 ADD SWAP1 PUSH3 0x38D2 JUMP JUMPDEST SWAP1 POP PUSH3 0x1161 JUMP JUMPDEST POP PUSH2 0x120 DUP10 ADD MLOAD PUSH1 0x40 ADD MLOAD JUMPDEST PUSH1 0x40 MLOAD DUP1 PUSH1 0x80 ADD PUSH1 0x40 MSTORE DUP1 DUP5 PUSH1 0x60 ADD MLOAD DUP2 MSTORE PUSH1 0x20 ADD DUP5 PUSH1 0x80 ADD MLOAD DUP2 MSTORE PUSH1 0x20 ADD DUP3 DUP2 MSTORE PUSH1 0x20 ADD DUP3 PUSH2 0xE10 MUL DUP5 ADD DUP2 MSTORE POP DUP11 PUSH2 0x120 ADD DUP2 SWAP1 MSTORE POP PUSH1 0x0 PUSH3 0x11AE DUP7 PUSH1 0x20 ADD MLOAD PUSH1 0x40 ADD MLOAD PUSH3 0x27A0 JUMP JUMPDEST PUSH1 0xE0 DUP13 ADD MLOAD PUSH1 0x1 PUSH1 0x1 PUSH1 0xA0 SHL SUB DUP3 AND PUSH1 0xC0 SWAP1 SWAP2 ADD MSTORE SWAP1 POP PUSH1 0x60 PUSH3 0x11D2 DUP13 PUSH3 0x2782 JUMP JUMPDEST SWAP1 POP DUP1 PUSH1 0x40 MLOAD PUSH3 0x11E3 SWAP1 PUSH3 0x2AB2 JUMP JUMPDEST PUSH3 0x11EF SWAP2 SWAP1 PUSH3 0x418D JUMP JUMPDEST PUSH1 0x40 MLOAD DUP1 SWAP2 SUB SWAP1 PUSH1 0x0 CREATE DUP1 ISZERO DUP1 ISZERO PUSH3 0x120C JUMPI RETURNDATASIZE PUSH1 0x0 DUP1 RETURNDATACOPY RETURNDATASIZE PUSH1 0x0 REVERT JUMPDEST POP PUSH1 0xE0 DUP1 DUP15 ADD MLOAD PUSH1 0x1 PUSH1 0x1 PUSH1 0xA0 SHL SUB SWAP1 SWAP3 AND SWAP2 ADD MSTORE DUP11 MLOAD PUSH1 0x0 JUMPDEST DUP2 DUP2 LT ISZERO PUSH3 0x12BC JUMPI PUSH1 0x3 DUP4 PUSH1 0x40 MLOAD PUSH3 0x1241 SWAP2 SWAP1 PUSH3 0x40DA JUMP JUMPDEST SWAP1 DUP2 MSTORE PUSH1 0x20 ADD PUSH1 0x40 MLOAD DUP1 SWAP2 SUB SWAP1 KECCAK256 DUP14 DUP3 DUP2 MLOAD DUP2 LT PUSH3 0x125C JUMPI INVALID JUMPDEST PUSH1 0x20 SWAP1 DUP2 MUL SWAP2 SWAP1 SWAP2 ADD DUP2 ADD MLOAD DUP3 SLOAD PUSH1 0x1 DUP2 DUP2 ADD DUP1 DUP7 SSTORE PUSH1 0x0 SWAP6 DUP7 MSTORE SWAP5 DUP5 SWAP1 KECCAK256 DUP4 MLOAD PUSH1 0x3 SWAP1 SWAP4 MUL ADD SWAP2 DUP3 SSTORE DUP3 DUP5 ADD MLOAD SWAP1 DUP3 ADD SSTORE PUSH1 0x40 DUP3 ADD MLOAD DUP1 MLOAD SWAP3 SWAP4 SWAP2 SWAP3 PUSH3 0x12AB SWAP3 PUSH1 0x2 DUP6 ADD SWAP3 ADD SWAP1 PUSH3 0x2AC0 JUMP JUMPDEST POP POP PUSH1 0x1 SWAP1 SWAP3 ADD SWAP2 POP PUSH3 0x1226 SWAP1 POP JUMP JUMPDEST POP PUSH2 0x160 DUP14 ADD MLOAD PUSH1 0x1 PUSH1 0x1 PUSH1 0xA0 SHL SUB AND PUSH3 0x12D9 JUMPI CALLER PUSH2 0x160 DUP15 ADD MSTORE JUMPDEST PUSH2 0x140 DUP14 ADD DUP6 SWAP1 MSTORE PUSH1 0x20 DUP14 ADD MLOAD PUSH1 0x40 MLOAD DUP15 SWAP2 DUP13 SWAP2 PUSH3 0x12F9 SWAP2 SWAP1 PUSH3 0x40DA JUMP JUMPDEST SWAP1 DUP2 MSTORE PUSH1 0x20 ADD PUSH1 0x40 MLOAD DUP1 SWAP2 SUB SWAP1 KECCAK256 PUSH1 0x0 DUP3 ADD MLOAD DUP2 PUSH1 0x0 ADD SWAP1 DUP1 MLOAD SWAP1 PUSH1 0x20 ADD SWAP1 PUSH3 0x1325 SWAP3 SWAP2 SWAP1 PUSH3 0x2AC0 JUMP JUMPDEST POP PUSH1 0x20 DUP3 DUP2 ADD MLOAD DUP1 MLOAD PUSH3 0x1340 SWAP3 PUSH1 0x1 DUP6 ADD SWAP3 ADD SWAP1 PUSH3 0x2AC0 JUMP JUMPDEST POP PUSH1 0x40 DUP3 ADD MLOAD DUP1 MLOAD PUSH3 0x135E SWAP2 PUSH1 0x2 DUP5 ADD SWAP2 PUSH1 0x20 SWAP1 SWAP2 ADD SWAP1 PUSH3 0x2AC0 JUMP JUMPDEST POP PUSH1 0x60 DUP3 ADD MLOAD DUP2 PUSH1 0x3 ADD PUSH1 0x0 PUSH2 0x100 EXP DUP2 SLOAD DUP2 PUSH1 0xFF MUL NOT AND SWAP1 DUP4 PUSH1 0x3 DUP2 GT ISZERO PUSH3 0x1384 JUMPI INVALID JUMPDEST MUL OR SWAP1 SSTORE POP PUSH1 0x80 DUP3 ADD MLOAD PUSH1 0x3 DUP3 ADD DUP1 SLOAD PUSH2 0xFF00 NOT AND PUSH2 0x100 DUP4 PUSH1 0x6 DUP2 GT ISZERO PUSH3 0x13A9 JUMPI INVALID JUMPDEST MUL OR SWAP1 SSTORE POP PUSH1 0xA0 DUP3 ADD MLOAD DUP1 MLOAD PUSH3 0x13CB SWAP2 PUSH1 0x4 DUP5 ADD SWAP2 PUSH1 0x20 SWAP1 SWAP2 ADD SWAP1 PUSH3 0x2AC0 JUMP JUMPDEST POP PUSH1 0xC0 DUP3 ADD MLOAD DUP1 MLOAD PUSH3 0x13E9 SWAP2 PUSH1 0x5 DUP5 ADD SWAP2 PUSH1 0x20 SWAP1 SWAP2 ADD SWAP1 PUSH3 0x2AC0 JUMP JUMPDEST POP PUSH1 0xE0 DUP3 ADD MLOAD DUP1 MLOAD PUSH1 0x6 DUP4 ADD DUP1 SLOAD PUSH1 0x1 PUSH1 0x1 PUSH1 0xA0 SHL SUB NOT AND PUSH1 0x1 PUSH1 0x1 PUSH1 0xA0 SHL SUB SWAP1 SWAP3 AND SWAP2 SWAP1 SWAP2 OR DUP1 DUP3 SSTORE PUSH1 0x20 DUP4 ADD MLOAD SWAP1 DUP3 SWAP1 PUSH1 0xFF PUSH1 0xA0 SHL NOT AND PUSH1 0x1 PUSH1 0xA0 SHL DUP4 PUSH1 0x1 DUP2 GT ISZERO PUSH3 0x1434 JUMPI INVALID JUMPDEST MUL OR SWAP1 SSTORE POP PUSH1 0x40 DUP3 ADD MLOAD PUSH1 0x1 DUP3 ADD SSTORE PUSH1 0x60 DUP3 ADD MLOAD DUP1 MLOAD PUSH3 0x1460 SWAP2 PUSH1 0x2 DUP5 ADD SWAP2 PUSH1 0x20 SWAP1 SWAP2 ADD SWAP1 PUSH3 0x2AC0 JUMP JUMPDEST POP PUSH1 0x80 DUP3 ADD MLOAD PUSH1 0x3 DUP3 DUP2 ADD SWAP2 SWAP1 SWAP2 SSTORE PUSH1 0xA0 DUP4 ADD MLOAD PUSH1 0x4 DUP4 ADD SSTORE PUSH1 0xC0 DUP4 ADD MLOAD PUSH1 0x5 DUP4 ADD DUP1 SLOAD PUSH1 0x1 PUSH1 0x1 PUSH1 0xA0 SHL SUB NOT SWAP1 DUP2 AND PUSH1 0x1 PUSH1 0x1 PUSH1 0xA0 SHL SUB SWAP4 DUP5 AND OR SWAP1 SWAP2 SSTORE PUSH1 0xE0 SWAP1 SWAP5 ADD MLOAD PUSH1 0x6 SWAP1 SWAP4 ADD DUP1 SLOAD SWAP1 SWAP5 AND SWAP3 AND SWAP2 SWAP1 SWAP2 OR SWAP1 SWAP2 SSTORE PUSH2 0x100 DUP4 ADD MLOAD DUP1 MLOAD PUSH1 0xD DUP5 ADD DUP1 SLOAD SWAP3 SWAP4 SWAP1 SWAP3 DUP4 SWAP2 PUSH1 0xFF NOT SWAP1 SWAP2 AND SWAP1 PUSH1 0x1 SWAP1 DUP5 SWAP1 DUP2 GT ISZERO PUSH3 0x14E2 JUMPI INVALID JUMPDEST MUL OR SWAP1 SSTORE POP POP POP PUSH2 0x120 DUP3 ADD MLOAD DUP1 MLOAD PUSH1 0xE DUP4 ADD SSTORE PUSH1 0x20 DUP2 ADD MLOAD PUSH1 0xF DUP4 ADD SSTORE PUSH1 0x40 DUP1 DUP3 ADD MLOAD PUSH1 0x10 DUP5 ADD SSTORE PUSH1 0x60 SWAP1 SWAP2 ADD MLOAD PUSH1 0x11 DUP4 ADD SSTORE PUSH2 0x140 DUP4 ADD MLOAD PUSH1 0x12 DUP4 ADD SSTORE PUSH2 0x160 SWAP1 SWAP3 ADD MLOAD PUSH1 0x13 SWAP1 SWAP2 ADD DUP1 SLOAD PUSH1 0x1 PUSH1 0x1 PUSH1 0xA0 SHL SUB NOT AND PUSH1 0x1 PUSH1 0x1 PUSH1 0xA0 SHL SUB SWAP1 SWAP3 AND SWAP2 SWAP1 SWAP2 OR SWAP1 SSTORE DUP14 MLOAD SWAP1 MLOAD PUSH1 0x4 SWAP2 PUSH3 0x155C SWAP2 PUSH3 0x40DA JUMP JUMPDEST SWAP1 DUP2 MSTORE PUSH1 0x40 MLOAD SWAP1 DUP2 SWAP1 SUB PUSH1 0x20 SWAP1 DUP2 ADD DUP3 KECCAK256 DUP1 SLOAD PUSH1 0x1 ADD SWAP1 SSTORE DUP15 ADD MLOAD PUSH3 0x1582 SWAP2 PUSH3 0x40DA JUMP JUMPDEST PUSH1 0x40 MLOAD DUP1 SWAP2 SUB SWAP1 KECCAK256 PUSH32 0x94DA9BB2A8EE001679AB8DB37A9E0FC2BDC21F48C172DFBE3D9EABFF0A8CFD33 DUP15 DUP15 PUSH1 0x40 MLOAD PUSH3 0x15BD SWAP3 SWAP2 SWAP1 PUSH3 0x429D JUMP JUMPDEST PUSH1 0x40 MLOAD DUP1 SWAP2 SUB SWAP1 LOG2 DUP13 SWAP11 POP POP POP POP POP POP POP POP POP POP POP JUMPDEST SWAP3 SWAP2 POP POP JUMP JUMPDEST PUSH1 0x0 PUSH3 0x15E5 PUSH3 0x294F JUMP JUMPDEST PUSH3 0x165A DUP7 DUP7 DUP1 DUP1 PUSH1 0x1F ADD PUSH1 0x20 DUP1 SWAP2 DIV MUL PUSH1 0x20 ADD PUSH1 0x40 MLOAD SWAP1 DUP2 ADD PUSH1 0x40 MSTORE DUP1 SWAP4 SWAP3 SWAP2 SWAP1 DUP2 DUP2 MSTORE PUSH1 0x20 ADD DUP4 DUP4 DUP1 DUP3 DUP5 CALLDATACOPY PUSH1 0x0 SWAP3 ADD SWAP2 SWAP1 SWAP2 MSTORE POP POP PUSH1 0x40 DUP1 MLOAD PUSH1 0x20 PUSH1 0x1F DUP11 ADD DUP2 SWAP1 DIV DUP2 MUL DUP3 ADD DUP2 ADD SWAP1 SWAP3 MSTORE DUP9 DUP2 MSTORE SWAP3 POP DUP9 SWAP2 POP DUP8 SWAP1 DUP2 SWAP1 DUP5 ADD DUP4 DUP3 DUP1 DUP3 DUP5 CALLDATACOPY PUSH1 0x0 SWAP3 ADD SWAP2 SWAP1 SWAP2 MSTORE POP PUSH3 0x217C SWAP3 POP POP POP JUMP JUMPDEST DUP1 MLOAD MLOAD SWAP1 SWAP2 POP PUSH3 0x167F JUMPI PUSH1 0x40 MLOAD PUSH3 0x461BCD PUSH1 0xE5 SHL DUP2 MSTORE PUSH1 0x4 ADD PUSH3 0x2C9 SWAP1 PUSH3 0x421E JUMP JUMPDEST PUSH1 0x60 ADD MLOAD SWAP1 POP JUMPDEST SWAP5 SWAP4 POP POP POP POP JUMP JUMPDEST PUSH3 0x1698 PUSH3 0x294F JUMP JUMPDEST PUSH3 0x16AC DUP3 PUSH1 0x0 ADD MLOAD DUP4 PUSH1 0x20 ADD MLOAD PUSH3 0x217C JUMP JUMPDEST DUP3 MLOAD MLOAD SWAP1 SWAP2 POP PUSH3 0x16D1 JUMPI PUSH1 0x40 MLOAD PUSH3 0x461BCD PUSH1 0xE5 SHL DUP2 MSTORE PUSH1 0x4 ADD PUSH3 0x2C9 SWAP1 PUSH3 0x421E JUMP JUMPDEST PUSH1 0x0 DUP2 PUSH1 0x60 ADD MLOAD PUSH1 0x3 DUP2 GT ISZERO PUSH3 0x16E4 JUMPI INVALID JUMPDEST EQ PUSH3 0x1704 JUMPI PUSH1 0x40 MLOAD PUSH3 0x461BCD PUSH1 0xE5 SHL DUP2 MSTORE PUSH1 0x4 ADD PUSH3 0x2C9 SWAP1 PUSH3 0x4278 JUMP JUMPDEST PUSH3 0x170E PUSH3 0x2B45 JUMP JUMPDEST POP PUSH2 0x120 DUP2 ADD MLOAD PUSH1 0x60 DUP2 ADD MLOAD TIMESTAMP SWAP1 DUP2 GT ISZERO PUSH3 0x173E JUMPI PUSH1 0x40 MLOAD PUSH3 0x461BCD PUSH1 0xE5 SHL DUP2 MSTORE PUSH1 0x4 ADD PUSH3 0x2C9 SWAP1 PUSH3 0x4254 JUMP JUMPDEST PUSH1 0x0 DUP5 PUSH1 0x80 ADD MLOAD DUP6 PUSH1 0x60 ADD MLOAD ADD GT PUSH3 0x176B JUMPI PUSH1 0x40 MLOAD PUSH3 0x461BCD PUSH1 0xE5 SHL DUP2 MSTORE PUSH1 0x4 ADD PUSH3 0x2C9 SWAP1 PUSH3 0x420C JUMP JUMPDEST PUSH1 0x0 DUP4 PUSH1 0xE0 ADD MLOAD PUSH1 0xC0 ADD MLOAD SWAP1 POP DUP1 PUSH1 0x1 PUSH1 0x1 PUSH1 0xA0 SHL SUB AND PUSH4 0x23B872DD CALLER DUP7 PUSH1 0xE0 ADD MLOAD PUSH1 0xE0 ADD MLOAD PUSH1 0x1 PUSH1 0x1 PUSH1 0xA0 SHL SUB AND PUSH4 0x38CC4831 PUSH1 0x40 MLOAD DUP2 PUSH4 0xFFFFFFFF AND PUSH1 0xE0 SHL DUP2 MSTORE PUSH1 0x4 ADD PUSH1 0x20 PUSH1 0x40 MLOAD DUP1 DUP4 SUB DUP2 DUP7 DUP1 EXTCODESIZE ISZERO DUP1 ISZERO PUSH3 0x17CA JUMPI PUSH1 0x0 DUP1 REVERT JUMPDEST POP GAS STATICCALL ISZERO DUP1 ISZERO PUSH3 0x17DF JUMPI RETURNDATASIZE PUSH1 0x0 DUP1 RETURNDATACOPY RETURNDATASIZE PUSH1 0x0 REVERT JUMPDEST POP POP POP POP PUSH1 0x40 MLOAD RETURNDATASIZE PUSH1 0x1F NOT PUSH1 0x1F DUP3 ADD AND DUP3 ADD DUP1 PUSH1 0x40 MSTORE POP PUSH3 0x1805 SWAP2 SWAP1 DUP2 ADD SWAP1 PUSH3 0x3675 JUMP JUMPDEST DUP9 PUSH1 0x80 ADD MLOAD DUP10 PUSH1 0x60 ADD MLOAD ADD PUSH1 0x40 MLOAD DUP5 PUSH4 0xFFFFFFFF AND PUSH1 0xE0 SHL DUP2 MSTORE PUSH1 0x4 ADD PUSH3 0x1830 SWAP4 SWAP3 SWAP2 SWAP1 PUSH3 0x4111 JUMP JUMPDEST PUSH1 0x20 PUSH1 0x40 MLOAD DUP1 DUP4 SUB DUP2 PUSH1 0x0 DUP8 DUP1 EXTCODESIZE ISZERO DUP1 ISZERO PUSH3 0x184B JUMPI PUSH1 0x0 DUP1 REVERT JUMPDEST POP GAS CALL ISZERO DUP1 ISZERO PUSH3 0x1860 JUMPI RETURNDATASIZE PUSH1 0x0 DUP1 RETURNDATACOPY RETURNDATASIZE PUSH1 0x0 REVERT JUMPDEST POP POP POP POP PUSH1 0x40 MLOAD RETURNDATASIZE PUSH1 0x1F NOT PUSH1 0x1F DUP3 ADD AND DUP3 ADD DUP1 PUSH1 0x40 MSTORE POP PUSH3 0x1886 SWAP2 SWAP1 DUP2 ADD SWAP1 PUSH3 0x3696 JUMP JUMPDEST POP TIMESTAMP PUSH1 0xA0 DUP7 ADD MSTORE CALLER PUSH1 0x40 DUP7 ADD MSTORE DUP5 MLOAD PUSH1 0x20 DUP7 ADD MLOAD PUSH1 0x60 SWAP2 PUSH3 0x18A8 SWAP2 PUSH3 0x2754 JUMP JUMPDEST SWAP1 POP PUSH1 0x5 DUP2 PUSH1 0x40 MLOAD PUSH3 0x18BC SWAP2 SWAP1 PUSH3 0x40DA JUMP JUMPDEST SWAP1 DUP2 MSTORE PUSH1 0x40 MLOAD PUSH1 0x20 SWAP2 DUP2 SWAP1 SUB DUP3 ADD SWAP1 KECCAK256 DUP1 SLOAD PUSH1 0x1 DUP2 ADD DUP1 DUP4 SSTORE PUSH1 0x0 SWAP3 DUP4 MSTORE SWAP2 DUP4 SWAP1 KECCAK256 DUP10 MLOAD DUP1 MLOAD SWAP4 SWAP5 DUP12 SWAP5 PUSH1 0x6 SWAP1 SWAP5 MUL SWAP1 SWAP3 ADD SWAP3 PUSH3 0x18FE SWAP3 DUP5 SWAP3 ADD SWAP1 PUSH3 0x2AC0 JUMP JUMPDEST POP PUSH1 0x20 DUP3 DUP2 ADD MLOAD DUP1 MLOAD PUSH3 0x1919 SWAP3 PUSH1 0x1 DUP6 ADD SWAP3 ADD SWAP1 PUSH3 0x2AC0 JUMP JUMPDEST POP PUSH1 0x40 DUP3 DUP2 ADD MLOAD PUSH1 0x2 DUP4 ADD DUP1 SLOAD PUSH1 0x1 PUSH1 0x1 PUSH1 0xA0 SHL SUB NOT AND PUSH1 0x1 PUSH1 0x1 PUSH1 0xA0 SHL SUB SWAP1 SWAP3 AND SWAP2 SWAP1 SWAP2 OR SWAP1 SSTORE PUSH1 0x60 DUP4 ADD MLOAD PUSH1 0x3 DUP4 ADD SSTORE PUSH1 0x80 DUP4 ADD MLOAD PUSH1 0x4 DUP4 ADD SSTORE PUSH1 0xA0 SWAP1 SWAP3 ADD MLOAD PUSH1 0x5 SWAP1 SWAP2 ADD SSTORE PUSH1 0x20 DUP8 ADD MLOAD SWAP1 MLOAD PUSH3 0x1974 SWAP3 POP PUSH3 0x40DA JUMP JUMPDEST PUSH1 0x40 MLOAD DUP1 SWAP2 SUB SWAP1 KECCAK256 PUSH32 0x1FC2188CF86B2FDFF0C37C3A4CC9AC40D660CB3ED78875F759054AA66515180F DUP8 PUSH1 0x40 MLOAD PUSH3 0x19AD SWAP2 SWAP1 PUSH3 0x42C6 JUMP JUMPDEST PUSH1 0x40 MLOAD DUP1 SWAP2 SUB SWAP1 LOG2 POP POP POP POP POP POP JUMP JUMPDEST PUSH3 0x19C7 PUSH3 0x294F JUMP JUMPDEST PUSH1 0x20 DUP4 ADD MLOAD MLOAD PUSH3 0x19EC JUMPI PUSH1 0x40 MLOAD PUSH3 0x461BCD PUSH1 0xE5 SHL DUP2 MSTORE PUSH1 0x4 ADD PUSH3 0x2C9 SWAP1 PUSH3 0x4242 JUMP JUMPDEST DUP3 MLOAD MLOAD PUSH3 0x1A0E JUMPI PUSH1 0x40 MLOAD PUSH3 0x461BCD PUSH1 0xE5 SHL DUP2 MSTORE PUSH1 0x4 ADD PUSH3 0x2C9 SWAP1 PUSH3 0x41FA JUMP JUMPDEST PUSH1 0x0 PUSH1 0x2 DUP5 PUSH1 0x0 ADD MLOAD PUSH1 0x40 MLOAD PUSH3 0x1A26 SWAP2 SWAP1 PUSH3 0x40DA JUMP JUMPDEST SWAP1 DUP2 MSTORE PUSH1 0x20 ADD PUSH1 0x40 MLOAD DUP1 SWAP2 SUB SWAP1 KECCAK256 SWAP1 POP DUP4 DUP2 DUP6 PUSH1 0x20 ADD MLOAD PUSH1 0x40 MLOAD PUSH3 0x1A4C SWAP2 SWAP1 PUSH3 0x40DA JUMP JUMPDEST SWAP1 DUP2 MSTORE PUSH1 0x20 ADD PUSH1 0x40 MLOAD DUP1 SWAP2 SUB SWAP1 KECCAK256 PUSH1 0x0 DUP3 ADD MLOAD DUP2 PUSH1 0x0 ADD SWAP1 DUP1 MLOAD SWAP1 PUSH1 0x20 ADD SWAP1 PUSH3 0x1A78 SWAP3 SWAP2 SWAP1 PUSH3 0x2AC0 JUMP JUMPDEST POP PUSH1 0x20 DUP3 DUP2 ADD MLOAD DUP1 MLOAD PUSH3 0x1A93 SWAP3 PUSH1 0x1 DUP6 ADD SWAP3 ADD SWAP1 PUSH3 0x2AC0 JUMP JUMPDEST POP PUSH1 0x40 DUP3 ADD MLOAD DUP1 MLOAD PUSH3 0x1AB1 SWAP2 PUSH1 0x2 DUP5 ADD SWAP2 PUSH1 0x20 SWAP1 SWAP2 ADD SWAP1 PUSH3 0x2AC0 JUMP JUMPDEST POP PUSH1 0x60 DUP3 ADD MLOAD DUP2 PUSH1 0x3 ADD PUSH1 0x0 PUSH2 0x100 EXP DUP2 SLOAD DUP2 PUSH1 0xFF MUL NOT AND SWAP1 DUP4 PUSH1 0x3 DUP2 GT ISZERO PUSH3 0x1AD7 JUMPI INVALID JUMPDEST MUL OR SWAP1 SSTORE POP PUSH1 0x80 DUP3 ADD MLOAD PUSH1 0x3 DUP3 ADD DUP1 SLOAD PUSH2 0xFF00 NOT AND PUSH2 0x100 DUP4 PUSH1 0x6 DUP2 GT ISZERO PUSH3 0x1AFC JUMPI INVALID JUMPDEST MUL OR SWAP1 SSTORE POP PUSH1 0xA0 DUP3 ADD MLOAD DUP1 MLOAD PUSH3 0x1B1E SWAP2 PUSH1 0x4 DUP5 ADD SWAP2 PUSH1 0x20 SWAP1 SWAP2 ADD SWAP1 PUSH3 0x2AC0 JUMP JUMPDEST POP PUSH1 0xC0 DUP3 ADD MLOAD DUP1 MLOAD PUSH3 0x1B3C SWAP2 PUSH1 0x5 DUP5 ADD SWAP2 PUSH1 0x20 SWAP1 SWAP2 ADD SWAP1 PUSH3 0x2AC0 JUMP JUMPDEST POP PUSH1 0xE0 DUP3 ADD MLOAD DUP1 MLOAD PUSH1 0x6 DUP4 ADD DUP1 SLOAD PUSH1 0x1 PUSH1 0x1 PUSH1 0xA0 SHL SUB NOT AND PUSH1 0x1 PUSH1 0x1 PUSH1 0xA0 SHL SUB SWAP1 SWAP3 AND SWAP2 SWAP1 SWAP2 OR DUP1 DUP3 SSTORE PUSH1 0x20 DUP4 ADD MLOAD SWAP1 DUP3 SWAP1 PUSH1 0xFF PUSH1 0xA0 SHL NOT AND PUSH1 0x1 PUSH1 0xA0 SHL DUP4 PUSH1 0x1 DUP2 GT ISZERO PUSH3 0x1B87 JUMPI INVALID JUMPDEST MUL OR SWAP1 SSTORE POP PUSH1 0x40 DUP3 ADD MLOAD PUSH1 0x1 DUP3 ADD SSTORE PUSH1 0x60 DUP3 ADD MLOAD DUP1 MLOAD PUSH3 0x1BB3 SWAP2 PUSH1 0x2 DUP5 ADD SWAP2 PUSH1 0x20 SWAP1 SWAP2 ADD SWAP1 PUSH3 0x2AC0 JUMP JUMPDEST POP PUSH1 0x80 DUP3 ADD MLOAD PUSH1 0x3 DUP3 DUP2 ADD SWAP2 SWAP1 SWAP2 SSTORE PUSH1 0xA0 DUP4 ADD MLOAD PUSH1 0x4 DUP4 ADD SSTORE PUSH1 0xC0 DUP4 ADD MLOAD PUSH1 0x5 DUP4 ADD DUP1 SLOAD PUSH1 0x1 PUSH1 0x1 PUSH1 0xA0 SHL SUB NOT SWAP1 DUP2 AND PUSH1 0x1 PUSH1 0x1 PUSH1 0xA0 SHL SUB SWAP4 DUP5 AND OR SWAP1 SWAP2 SSTORE PUSH1 0xE0 SWAP1 SWAP5 ADD MLOAD PUSH1 0x6 SWAP1 SWAP4 ADD DUP1 SLOAD SWAP1 SWAP5 AND SWAP3 AND SWAP2 SWAP1 SWAP2 OR SWAP1 SWAP2 SSTORE PUSH2 0x100 DUP4 ADD MLOAD DUP1 MLOAD PUSH1 0xD DUP5 ADD DUP1 SLOAD SWAP3 SWAP4 SWAP1 SWAP3 DUP4 SWAP2 PUSH1 0xFF NOT SWAP1 SWAP2 AND SWAP1 PUSH1 0x1 SWAP1 DUP5 SWAP1 DUP2 GT ISZERO PUSH3 0x1C35 JUMPI INVALID JUMPDEST MUL OR SWAP1 SSTORE POP POP POP PUSH2 0x120 DUP3 ADD MLOAD DUP1 MLOAD PUSH1 0xE DUP4 ADD SSTORE PUSH1 0x20 DUP2 ADD MLOAD PUSH1 0xF DUP4 ADD SSTORE PUSH1 0x40 DUP2 ADD MLOAD PUSH1 0x10 DUP4 ADD SSTORE PUSH1 0x60 SWAP1 DUP2 ADD MLOAD PUSH1 0x11 DUP4 ADD SSTORE PUSH2 0x140 DUP4 ADD MLOAD PUSH1 0x12 DUP4 ADD SSTORE PUSH2 0x160 SWAP1 SWAP3 ADD MLOAD PUSH1 0x13 SWAP1 SWAP2 ADD DUP1 SLOAD PUSH1 0x1 PUSH1 0x1 PUSH1 0xA0 SHL SUB NOT AND PUSH1 0x1 PUSH1 0x1 PUSH1 0xA0 SHL SUB SWAP1 SWAP3 AND SWAP2 SWAP1 SWAP2 OR SWAP1 SSTORE PUSH3 0x1CA7 DUP6 PUSH3 0x2782 JUMP JUMPDEST DUP5 MLOAD SWAP1 SWAP2 POP PUSH1 0x0 JUMPDEST DUP2 DUP2 LT ISZERO PUSH3 0x1D45 JUMPI PUSH1 0x3 DUP4 PUSH1 0x40 MLOAD PUSH3 0x1CCA SWAP2 SWAP1 PUSH3 0x40DA JUMP JUMPDEST SWAP1 DUP2 MSTORE PUSH1 0x20 ADD PUSH1 0x40 MLOAD DUP1 SWAP2 SUB SWAP1 KECCAK256 DUP7 DUP3 DUP2 MLOAD DUP2 LT PUSH3 0x1CE5 JUMPI INVALID JUMPDEST PUSH1 0x20 SWAP1 DUP2 MUL SWAP2 SWAP1 SWAP2 ADD DUP2 ADD MLOAD DUP3 SLOAD PUSH1 0x1 DUP2 DUP2 ADD DUP1 DUP7 SSTORE PUSH1 0x0 SWAP6 DUP7 MSTORE SWAP5 DUP5 SWAP1 KECCAK256 DUP4 MLOAD PUSH1 0x3 SWAP1 SWAP4 MUL ADD SWAP2 DUP3 SSTORE DUP3 DUP5 ADD MLOAD SWAP1 DUP3 ADD SSTORE PUSH1 0x40 DUP3 ADD MLOAD DUP1 MLOAD SWAP3 SWAP4 SWAP2 SWAP3 PUSH3 0x1D34 SWAP3 PUSH1 0x2 DUP6 ADD SWAP3 ADD SWAP1 PUSH3 0x2AC0 JUMP JUMPDEST POP POP PUSH1 0x1 SWAP1 SWAP3 ADD SWAP2 POP PUSH3 0x1CAF SWAP1 POP JUMP JUMPDEST POP DUP6 PUSH1 0x20 ADD MLOAD PUSH1 0x40 MLOAD PUSH3 0x1D5A SWAP2 SWAP1 PUSH3 0x40DA JUMP JUMPDEST PUSH1 0x40 MLOAD DUP1 SWAP2 SUB SWAP1 KECCAK256 PUSH32 0x94DA9BB2A8EE001679AB8DB37A9E0FC2BDC21F48C172DFBE3D9EABFF0A8CFD33 DUP8 DUP8 PUSH1 0x40 MLOAD PUSH3 0x1D95 SWAP3 SWAP2 SWAP1 PUSH3 0x429D JUMP JUMPDEST PUSH1 0x40 MLOAD DUP1 SWAP2 SUB SWAP1 LOG2 POP SWAP4 SWAP5 SWAP4 POP POP POP POP JUMP JUMPDEST PUSH1 0x0 PUSH1 0x4 DUP4 DUP4 PUSH1 0x40 MLOAD PUSH3 0x1DBD SWAP3 SWAP2 SWAP1 PUSH3 0x40CB JUMP JUMPDEST SWAP1 DUP2 MSTORE PUSH1 0x20 ADD PUSH1 0x40 MLOAD DUP1 SWAP2 SUB SWAP1 KECCAK256 SLOAD SWAP1 POP SWAP3 SWAP2 POP POP JUMP JUMPDEST PUSH3 0x1DDE PUSH3 0x294F JUMP JUMPDEST PUSH3 0x1DEA DUP5 DUP5 PUSH3 0x217C JUMP JUMPDEST DUP1 MLOAD MLOAD SWAP1 SWAP2 POP PUSH3 0x1E0F JUMPI PUSH1 0x40 MLOAD PUSH3 0x461BCD PUSH1 0xE5 SHL DUP2 MSTORE PUSH1 0x4 ADD PUSH3 0x2C9 SWAP1 PUSH3 0x41B2 JUMP JUMPDEST DUP1 PUSH1 0x60 ADD MLOAD PUSH1 0x3 DUP2 GT ISZERO PUSH3 0x1E20 JUMPI INVALID JUMPDEST DUP3 PUSH1 0x3 DUP2 GT ISZERO PUSH3 0x1E2D JUMPI INVALID JUMPDEST EQ PUSH3 0x212B JUMPI PUSH1 0x60 DUP2 ADD DUP1 MLOAD SWAP1 DUP4 PUSH1 0x3 DUP2 GT ISZERO PUSH3 0x1E47 JUMPI INVALID JUMPDEST SWAP1 DUP2 PUSH1 0x3 DUP2 GT ISZERO PUSH3 0x1E55 JUMPI INVALID JUMPDEST SWAP1 MSTORE POP DUP2 MLOAD PUSH1 0x40 MLOAD PUSH1 0x0 SWAP2 PUSH1 0x2 SWAP2 PUSH3 0x1E6F SWAP2 SWAP1 PUSH3 0x40DA JUMP JUMPDEST SWAP1 DUP2 MSTORE PUSH1 0x20 ADD PUSH1 0x40 MLOAD DUP1 SWAP2 SUB SWAP1 KECCAK256 SWAP1 POP DUP3 DUP2 DUP7 PUSH1 0x40 MLOAD PUSH3 0x1E91 SWAP2 SWAP1 PUSH3 0x40DA JUMP JUMPDEST SWAP1 DUP2 MSTORE PUSH1 0x20 ADD PUSH1 0x40 MLOAD DUP1 SWAP2 SUB SWAP1 KECCAK256 PUSH1 0x0 DUP3 ADD MLOAD DUP2 PUSH1 0x0 ADD SWAP1 DUP1 MLOAD SWAP1 PUSH1 0x20 ADD SWAP1 PUSH3 0x1EBD SWAP3 SWAP2 SWAP1 PUSH3 0x2AC0 JUMP JUMPDEST POP PUSH1 0x20 DUP3 DUP2 ADD MLOAD DUP1 MLOAD PUSH3 0x1ED8 SWAP3 PUSH1 0x1 DUP6 ADD SWAP3 ADD SWAP1 PUSH3 0x2AC0 JUMP JUMPDEST POP PUSH1 0x40 DUP3 ADD MLOAD DUP1 MLOAD PUSH3 0x1EF6 SWAP2 PUSH1 0x2 DUP5 ADD SWAP2 PUSH1 0x20 SWAP1 SWAP2 ADD SWAP1 PUSH3 0x2AC0 JUMP JUMPDEST POP PUSH1 0x60 DUP3 ADD MLOAD DUP2 PUSH1 0x3 ADD PUSH1 0x0 PUSH2 0x100 EXP DUP2 SLOAD DUP2 PUSH1 0xFF MUL NOT AND SWAP1 DUP4 PUSH1 0x3 DUP2 GT ISZERO PUSH3 0x1F1C JUMPI INVALID JUMPDEST MUL OR SWAP1 SSTORE POP PUSH1 0x80 DUP3 ADD MLOAD PUSH1 0x3 DUP3 ADD DUP1 SLOAD PUSH2 0xFF00 NOT AND PUSH2 0x100 DUP4 PUSH1 0x6 DUP2 GT ISZERO PUSH3 0x1F41 JUMPI INVALID JUMPDEST MUL OR SWAP1 SSTORE POP PUSH1 0xA0 DUP3 ADD MLOAD DUP1 MLOAD PUSH3 0x1F63 SWAP2 PUSH1 0x4 DUP5 ADD SWAP2 PUSH1 0x20 SWAP1 SWAP2 ADD SWAP1 PUSH3 0x2AC0 JUMP JUMPDEST POP PUSH1 0xC0 DUP3 ADD MLOAD DUP1 MLOAD PUSH3 0x1F81 SWAP2 PUSH1 0x5 DUP5 ADD SWAP2 PUSH1 0x20 SWAP1 SWAP2 ADD SWAP1 PUSH3 0x2AC0 JUMP JUMPDEST POP PUSH1 0xE0 DUP3 ADD MLOAD DUP1 MLOAD PUSH1 0x6 DUP4 ADD DUP1 SLOAD PUSH1 0x1 PUSH1 0x1 PUSH1 0xA0 SHL SUB NOT AND PUSH1 0x1 PUSH1 0x1 PUSH1 0xA0 SHL SUB SWAP1 SWAP3 AND SWAP2 SWAP1 SWAP2 OR DUP1 DUP3 SSTORE PUSH1 0x20 DUP4 ADD MLOAD SWAP1 DUP3 SWAP1 PUSH1 0xFF PUSH1 0xA0 SHL NOT AND PUSH1 0x1 PUSH1 0xA0 SHL DUP4 PUSH1 0x1 DUP2 GT ISZERO PUSH3 0x1FCC JUMPI INVALID JUMPDEST MUL OR SWAP1 SSTORE POP PUSH1 0x40 DUP3 ADD MLOAD PUSH1 0x1 DUP3 ADD SSTORE PUSH1 0x60 DUP3 ADD MLOAD DUP1 MLOAD PUSH3 0x1FF8 SWAP2 PUSH1 0x2 DUP5 ADD SWAP2 PUSH1 0x20 SWAP1 SWAP2 ADD SWAP1 PUSH3 0x2AC0 JUMP JUMPDEST POP PUSH1 0x80 DUP3 ADD MLOAD PUSH1 0x3 DUP3 DUP2 ADD SWAP2 SWAP1 SWAP2 SSTORE PUSH1 0xA0 DUP4 ADD MLOAD PUSH1 0x4 DUP4 ADD SSTORE PUSH1 0xC0 DUP4 ADD MLOAD PUSH1 0x5 DUP4 ADD DUP1 SLOAD PUSH1 0x1 PUSH1 0x1 PUSH1 0xA0 SHL SUB NOT SWAP1 DUP2 AND PUSH1 0x1 PUSH1 0x1 PUSH1 0xA0 SHL SUB SWAP4 DUP5 AND OR SWAP1 SWAP2 SSTORE PUSH1 0xE0 SWAP1 SWAP5 ADD MLOAD PUSH1 0x6 SWAP1 SWAP4 ADD DUP1 SLOAD SWAP1 SWAP5 AND SWAP3 AND SWAP2 SWAP1 SWAP2 OR SWAP1 SWAP2 SSTORE PUSH2 0x100 DUP4 ADD MLOAD DUP1 MLOAD PUSH1 0xD DUP5 ADD DUP1 SLOAD SWAP3 SWAP4 SWAP1 SWAP3 DUP4 SWAP2 PUSH1 0xFF NOT SWAP1 SWAP2 AND SWAP1 PUSH1 0x1 SWAP1 DUP5 SWAP1 DUP2 GT ISZERO PUSH3 0x207A JUMPI INVALID JUMPDEST MUL OR SWAP1 SSTORE POP POP POP PUSH2 0x120 DUP3 ADD MLOAD DUP1 MLOAD PUSH1 0xE DUP4 ADD SSTORE PUSH1 0x20 DUP2 ADD MLOAD PUSH1 0xF DUP4 ADD SSTORE PUSH1 0x40 DUP1 DUP3 ADD MLOAD PUSH1 0x10 DUP5 ADD SSTORE PUSH1 0x60 SWAP1 SWAP2 ADD MLOAD PUSH1 0x11 DUP4 ADD SSTORE PUSH2 0x140 DUP4 ADD MLOAD PUSH1 0x12 DUP4 ADD SSTORE PUSH2 0x160 SWAP1 SWAP3 ADD MLOAD PUSH1 0x13 SWAP1 SWAP2 ADD DUP1 SLOAD PUSH1 0x1 PUSH1 0x1 PUSH1 0xA0 SHL SUB NOT AND PUSH1 0x1 PUSH1 0x1 PUSH1 0xA0 SHL SUB SWAP1 SWAP3 AND SWAP2 SWAP1 SWAP2 OR SWAP1 SSTORE MLOAD PUSH3 0x20F0 SWAP1 DUP8 SWAP1 PUSH3 0x40DA JUMP JUMPDEST PUSH1 0x40 MLOAD DUP1 SWAP2 SUB SWAP1 KECCAK256 PUSH32 0x984B6675FFC22E1F752662B0CE0A6E95ADB7944D816AA2D09E6995C9B20A198A DUP4 DUP7 PUSH1 0x40 MLOAD PUSH3 0x19AD SWAP3 SWAP2 SWAP1 PUSH3 0x416E JUMP JUMPDEST POP POP POP POP JUMP JUMPDEST PUSH1 0x1 PUSH1 0x1 PUSH1 0xA0 SHL SUB DUP2 AND PUSH3 0x215A JUMPI PUSH1 0x40 MLOAD PUSH3 0x461BCD PUSH1 0xE5 SHL DUP2 MSTORE PUSH1 0x4 ADD PUSH3 0x2C9 SWAP1 PUSH3 0x41E8 JUMP JUMPDEST PUSH1 0x1 DUP1 SLOAD PUSH1 0x1 PUSH1 0x1 PUSH1 0xA0 SHL SUB NOT AND PUSH1 0x1 PUSH1 0x1 PUSH1 0xA0 SHL SUB SWAP3 SWAP1 SWAP3 AND SWAP2 SWAP1 SWAP2 OR SWAP1 SSTORE JUMP JUMPDEST PUSH3 0x2186 PUSH3 0x294F JUMP JUMPDEST DUP3 MLOAD PUSH3 0x21A7 JUMPI PUSH1 0x40 MLOAD PUSH3 0x461BCD PUSH1 0xE5 SHL DUP2 MSTORE PUSH1 0x4 ADD PUSH3 0x2C9 SWAP1 PUSH3 0x41A0 JUMP JUMPDEST DUP2 MLOAD PUSH3 0x21C8 JUMPI PUSH1 0x40 MLOAD PUSH3 0x461BCD PUSH1 0xE5 SHL DUP2 MSTORE PUSH1 0x4 ADD PUSH3 0x2C9 SWAP1 PUSH3 0x4242 JUMP JUMPDEST PUSH1 0x0 PUSH1 0x2 DUP5 PUSH1 0x40 MLOAD PUSH3 0x21DC SWAP2 SWAP1 PUSH3 0x40DA JUMP JUMPDEST SWAP1 DUP2 MSTORE PUSH1 0x20 ADD PUSH1 0x40 MLOAD DUP1 SWAP2 SUB SWAP1 KECCAK256 SWAP1 POP PUSH3 0x21F6 PUSH3 0x294F JUMP JUMPDEST DUP2 DUP5 PUSH1 0x40 MLOAD PUSH3 0x2207 SWAP2 SWAP1 PUSH3 0x40DA JUMP JUMPDEST SWAP1 DUP2 MSTORE PUSH1 0x40 DUP1 MLOAD PUSH1 0x20 SWAP3 DUP2 SWAP1 SUB DUP4 ADD DUP2 KECCAK256 DUP1 SLOAD PUSH1 0x2 PUSH1 0x1 DUP3 AND ISZERO PUSH2 0x100 MUL PUSH1 0x0 NOT ADD SWAP1 SWAP2 AND DIV PUSH1 0x1F DUP2 ADD DUP6 SWAP1 DIV SWAP1 SWAP5 MUL DUP3 ADD PUSH2 0x1A0 SWAP1 DUP2 ADD SWAP1 SWAP4 MSTORE PUSH2 0x180 DUP3 ADD DUP5 DUP2 MSTORE SWAP2 SWAP4 SWAP1 SWAP3 DUP5 SWAP3 SWAP2 DUP5 SWAP2 DUP5 ADD DUP3 DUP3 DUP1 ISZERO PUSH3 0x22A8 JUMPI DUP1 PUSH1 0x1F LT PUSH3 0x227C JUMPI PUSH2 0x100 DUP1 DUP4 SLOAD DIV MUL DUP4 MSTORE SWAP2 PUSH1 0x20 ADD SWAP2 PUSH3 0x22A8 JUMP JUMPDEST DUP3 ADD SWAP2 SWAP1 PUSH1 0x0 MSTORE PUSH1 0x20 PUSH1 0x0 KECCAK256 SWAP1 JUMPDEST DUP2 SLOAD DUP2 MSTORE SWAP1 PUSH1 0x1 ADD SWAP1 PUSH1 0x20 ADD DUP1 DUP4 GT PUSH3 0x228A JUMPI DUP3 SWAP1 SUB PUSH1 0x1F AND DUP3 ADD SWAP2 JUMPDEST POP POP POP POP POP DUP2 MSTORE PUSH1 0x20 ADD PUSH1 0x1 DUP3 ADD DUP1 SLOAD PUSH1 0x1 DUP2 PUSH1 0x1 AND ISZERO PUSH2 0x100 MUL SUB AND PUSH1 0x2 SWAP1 DIV DUP1 PUSH1 0x1F ADD PUSH1 0x20 DUP1 SWAP2 DIV MUL PUSH1 0x20 ADD PUSH1 0x40 MLOAD SWAP1 DUP2 ADD PUSH1 0x40 MSTORE DUP1 SWAP3 SWAP2 SWAP1 DUP2 DUP2 MSTORE PUSH1 0x20 ADD DUP3 DUP1 SLOAD PUSH1 0x1 DUP2 PUSH1 0x1 AND ISZERO PUSH2 0x100 MUL SUB AND PUSH1 0x2 SWAP1 DIV DUP1 ISZERO PUSH3 0x234E JUMPI DUP1 PUSH1 0x1F LT PUSH3 0x2322 JUMPI PUSH2 0x100 DUP1 DUP4 SLOAD DIV MUL DUP4 MSTORE SWAP2 PUSH1 0x20 ADD SWAP2 PUSH3 0x234E JUMP JUMPDEST DUP3 ADD SWAP2 SWAP1 PUSH1 0x0 MSTORE PUSH1 0x20 PUSH1 0x0 KECCAK256 SWAP1 JUMPDEST DUP2 SLOAD DUP2 MSTORE SWAP1 PUSH1 0x1 ADD SWAP1 PUSH1 0x20 ADD DUP1 DUP4 GT PUSH3 0x2330 JUMPI DUP3 SWAP1 SUB PUSH1 0x1F AND DUP3 ADD SWAP2 JUMPDEST POP POP POP SWAP2 DUP4 MSTORE POP POP PUSH1 0x2 DUP3 DUP2 ADD DUP1 SLOAD PUSH1 0x40 DUP1 MLOAD PUSH1 0x20 PUSH1 0x1 DUP5 AND ISZERO PUSH2 0x100 MUL PUSH1 0x0 NOT ADD SWAP1 SWAP4 AND SWAP5 SWAP1 SWAP5 DIV PUSH1 0x1F DUP2 ADD DUP4 SWAP1 DIV DUP4 MUL DUP6 ADD DUP4 ADD SWAP1 SWAP2 MSTORE DUP1 DUP5 MSTORE SWAP4 DUP2 ADD SWAP4 SWAP1 DUP4 ADD DUP3 DUP3 DUP1 ISZERO PUSH3 0x23E4 JUMPI DUP1 PUSH1 0x1F LT PUSH3 0x23B8 JUMPI PUSH2 0x100 DUP1 DUP4 SLOAD DIV MUL DUP4 MSTORE SWAP2 PUSH1 0x20 ADD SWAP2 PUSH3 0x23E4 JUMP JUMPDEST DUP3 ADD SWAP2 SWAP1 PUSH1 0x0 MSTORE PUSH1 0x20 PUSH1 0x0 KECCAK256 SWAP1 JUMPDEST DUP2 SLOAD DUP2 MSTORE SWAP1 PUSH1 0x1 ADD SWAP1 PUSH1 0x20 ADD DUP1 DUP4 GT PUSH3 0x23C6 JUMPI DUP3 SWAP1 SUB PUSH1 0x1F AND DUP3 ADD SWAP2 JUMPDEST POP POP POP SWAP2 DUP4 MSTORE POP POP PUSH1 0x3 DUP3 DUP2 ADD SLOAD PUSH1 0x20 SWAP1 SWAP3 ADD SWAP2 PUSH1 0xFF AND SWAP1 DUP2 GT ISZERO PUSH3 0x2406 JUMPI INVALID JUMPDEST PUSH1 0x3 DUP2 GT ISZERO PUSH3 0x2412 JUMPI INVALID JUMPDEST DUP2 MSTORE PUSH1 0x20 ADD PUSH1 0x3 DUP3 ADD PUSH1 0x1 SWAP1 SLOAD SWAP1 PUSH2 0x100 EXP SWAP1 DIV PUSH1 0xFF AND PUSH1 0x6 DUP2 GT ISZERO PUSH3 0x2435 JUMPI INVALID JUMPDEST PUSH1 0x6 DUP2 GT ISZERO PUSH3 0x2441 JUMPI INVALID JUMPDEST DUP2 MSTORE PUSH1 0x4 DUP3 ADD DUP1 SLOAD PUSH1 0x40 DUP1 MLOAD PUSH1 0x20 PUSH1 0x2 PUSH1 0x1 DUP6 AND ISZERO PUSH2 0x100 MUL PUSH1 0x0 NOT ADD SWAP1 SWAP5 AND SWAP4 SWAP1 SWAP4 DIV PUSH1 0x1F DUP2 ADD DUP5 SWAP1 DIV DUP5 MUL DUP3 ADD DUP5 ADD SWAP1 SWAP3 MSTORE DUP2 DUP2 MSTORE SWAP4 DUP3 ADD SWAP4 SWAP3 SWAP2 DUP4 ADD DUP3 DUP3 DUP1 ISZERO PUSH3 0x24D3 JUMPI DUP1 PUSH1 0x1F LT PUSH3 0x24A7 JUMPI PUSH2 0x100 DUP1 DUP4 SLOAD DIV MUL DUP4 MSTORE SWAP2 PUSH1 0x20 ADD SWAP2 PUSH3 0x24D3 JUMP JUMPDEST DUP3 ADD SWAP2 SWAP1 PUSH1 0x0 MSTORE PUSH1 0x20 PUSH1 0x0 KECCAK256 SWAP1 JUMPDEST DUP2 SLOAD DUP2 MSTORE SWAP1 PUSH1 0x1 ADD SWAP1 PUSH1 0x20 ADD DUP1 DUP4 GT PUSH3 0x24B5 JUMPI DUP3 SWAP1 SUB PUSH1 0x1F AND DUP3 ADD SWAP2 JUMPDEST POP POP POP SWAP2 DUP4 MSTORE POP POP PUSH1 0x5 DUP3 ADD DUP1 SLOAD PUSH1 0x40 DUP1 MLOAD PUSH1 0x20 PUSH1 0x2 PUSH1 0x1 DUP6 AND ISZERO PUSH2 0x100 MUL PUSH1 0x0 NOT ADD SWAP1 SWAP5 AND SWAP4 SWAP1 SWAP4 DIV PUSH1 0x1F DUP2 ADD DUP5 SWAP1 DIV DUP5 MUL DUP3 ADD DUP5 ADD SWAP1 SWAP3 MSTORE DUP2 DUP2 MSTORE SWAP4 DUP3 ADD SWAP4 SWAP3 SWAP2 DUP4 ADD DUP3 DUP3 DUP1 ISZERO PUSH3 0x256B JUMPI DUP1 PUSH1 0x1F LT PUSH3 0x253F JUMPI PUSH2 0x100 DUP1 DUP4 SLOAD DIV MUL DUP4 MSTORE SWAP2 PUSH1 0x20 ADD SWAP2 PUSH3 0x256B JUMP JUMPDEST DUP3 ADD SWAP2 SWAP1 PUSH1 0x0 MSTORE PUSH1 0x20 PUSH1 0x0 KECCAK256 SWAP1 JUMPDEST DUP2 SLOAD DUP2 MSTORE SWAP1 PUSH1 0x1 ADD SWAP1 PUSH1 0x20 ADD DUP1 DUP4 GT PUSH3 0x254D JUMPI DUP3 SWAP1 SUB PUSH1 0x1F AND DUP3 ADD SWAP2 JUMPDEST POP POP POP SWAP2 DUP4 MSTORE POP POP PUSH1 0x40 DUP1 MLOAD PUSH2 0x100 DUP2 ADD SWAP1 SWAP2 MSTORE PUSH1 0x6 DUP4 ADD DUP1 SLOAD PUSH1 0x1 PUSH1 0x1 PUSH1 0xA0 SHL SUB DUP2 AND DUP4 MSTORE PUSH1 0x20 SWAP4 DUP5 ADD SWAP4 DUP4 ADD SWAP1 PUSH1 0x1 PUSH1 0xA0 SHL SWAP1 DIV PUSH1 0xFF AND PUSH1 0x1 DUP2 GT ISZERO PUSH3 0x25B0 JUMPI INVALID JUMPDEST PUSH1 0x1 DUP2 GT ISZERO PUSH3 0x25BC JUMPI INVALID JUMPDEST DUP2 MSTORE PUSH1 0x20 ADD PUSH1 0x1 DUP3 ADD SLOAD DUP2 MSTORE PUSH1 0x20 ADD PUSH1 0x2 DUP3 ADD DUP1 SLOAD PUSH1 0x1 DUP2 PUSH1 0x1 AND ISZERO PUSH2 0x100 MUL SUB AND PUSH1 0x2 SWAP1 DIV DUP1 PUSH1 0x1F ADD PUSH1 0x20 DUP1 SWAP2 DIV MUL PUSH1 0x20 ADD PUSH1 0x40 MLOAD SWAP1 DUP2 ADD PUSH1 0x40 MSTORE DUP1 SWAP3 SWAP2 SWAP1 DUP2 DUP2 MSTORE PUSH1 0x20 ADD DUP3 DUP1 SLOAD PUSH1 0x1 DUP2 PUSH1 0x1 AND ISZERO PUSH2 0x100 MUL SUB AND PUSH1 0x2 SWAP1 DIV DUP1 ISZERO PUSH3 0x2667 JUMPI DUP1 PUSH1 0x1F LT PUSH3 0x263B JUMPI PUSH2 0x100 DUP1 DUP4 SLOAD DIV MUL DUP4 MSTORE SWAP2 PUSH1 0x20 ADD SWAP2 PUSH3 0x2667 JUMP JUMPDEST DUP3 ADD SWAP2 SWAP1 PUSH1 0x0 MSTORE PUSH1 0x20 PUSH1 0x0 KECCAK256 SWAP1 JUMPDEST DUP2 SLOAD DUP2 MSTORE SWAP1 PUSH1 0x1 ADD SWAP1 PUSH1 0x20 ADD DUP1 DUP4 GT PUSH3 0x2649 JUMPI DUP3 SWAP1 SUB PUSH1 0x1F AND DUP3 ADD SWAP2 JUMPDEST POP POP POP SWAP2 DUP4 MSTORE POP POP PUSH1 0x3 DUP3 DUP2 ADD SLOAD PUSH1 0x20 DUP1 DUP5 ADD SWAP2 SWAP1 SWAP2 MSTORE PUSH1 0x4 DUP5 ADD SLOAD PUSH1 0x40 DUP1 DUP6 ADD SWAP2 SWAP1 SWAP2 MSTORE PUSH1 0x5 DUP6 ADD SLOAD PUSH1 0x1 PUSH1 0x1 PUSH1 0xA0 SHL SUB SWAP1 DUP2 AND PUSH1 0x60 DUP7 ADD MSTORE PUSH1 0x6 SWAP1 SWAP6 ADD SLOAD SWAP1 SWAP5 AND PUSH1 0x80 SWAP1 SWAP4 ADD SWAP3 SWAP1 SWAP3 MSTORE SWAP3 DUP5 MSTORE DUP2 MLOAD DUP1 DUP3 ADD SWAP1 SWAP3 MSTORE PUSH1 0xD DUP6 ADD DUP1 SLOAD SWAP5 SWAP1 SWAP2 ADD SWAP4 SWAP2 SWAP3 SWAP1 SWAP2 DUP4 SWAP2 PUSH1 0xFF SWAP1 SWAP2 AND SWAP1 DUP2 GT ISZERO PUSH3 0x26DF JUMPI INVALID JUMPDEST PUSH1 0x3 DUP2 GT ISZERO PUSH3 0x26EB JUMPI INVALID JUMPDEST SWAP1 MSTORE POP DUP2 MSTORE PUSH1 0x40 DUP1 MLOAD PUSH1 0x80 DUP2 ADD DUP3 MSTORE PUSH1 0xE DUP5 ADD SLOAD DUP2 MSTORE PUSH1 0xF DUP5 ADD SLOAD PUSH1 0x20 DUP1 DUP4 ADD SWAP2 SWAP1 SWAP2 MSTORE PUSH1 0x10 DUP6 ADD SLOAD DUP3 DUP5 ADD MSTORE PUSH1 0x11 DUP6 ADD SLOAD PUSH1 0x60 DUP1 DUP5 ADD SWAP2 SWAP1 SWAP2 MSTORE SWAP1 DUP5 ADD SWAP2 SWAP1 SWAP2 MSTORE PUSH1 0x12 DUP5 ADD SLOAD SWAP2 DUP4 ADD SWAP2 SWAP1 SWAP2 MSTORE PUSH1 0x13 SWAP1 SWAP3 ADD SLOAD PUSH1 0x1 PUSH1 0x1 PUSH1 0xA0 SHL SUB AND SWAP2 ADD MSTORE SWAP6 SWAP5 POP POP POP POP POP JUMP JUMPDEST PUSH1 0x60 DUP3 DUP3 PUSH1 0x40 MLOAD PUSH1 0x20 ADD PUSH3 0x276B SWAP3 SWAP2 SWAP1 PUSH3 0x40E8 JUMP JUMPDEST PUSH1 0x40 MLOAD PUSH1 0x20 DUP2 DUP4 SUB SUB DUP2 MSTORE SWAP1 PUSH1 0x40 MSTORE SWAP1 POP SWAP3 SWAP2 POP POP JUMP JUMPDEST PUSH1 0x60 PUSH3 0x2798 DUP3 PUSH1 0x0 ADD MLOAD DUP4 PUSH1 0x20 ADD MLOAD PUSH3 0x2754 JUMP JUMPDEST SWAP1 POP JUMPDEST SWAP2 SWAP1 POP JUMP JUMPDEST PUSH1 0x0 DUP2 DUP2 DUP1 DUP1 PUSH1 0x2 JUMPDEST PUSH1 0x2A DUP2 LT ISZERO PUSH3 0x2944 JUMPI PUSH2 0x100 DUP5 MUL SWAP4 POP DUP5 DUP2 DUP2 MLOAD DUP2 LT PUSH3 0x27C7 JUMPI INVALID JUMPDEST ADD PUSH1 0x20 ADD MLOAD DUP6 MLOAD PUSH1 0xF8 SWAP2 SWAP1 SWAP2 SHR SWAP4 POP DUP6 SWAP1 PUSH1 0x1 DUP4 ADD SWAP1 DUP2 LT PUSH3 0x27E6 JUMPI INVALID JUMPDEST ADD PUSH1 0x20 ADD MLOAD PUSH1 0xF8 SHR SWAP2 POP PUSH1 0x61 PUSH1 0x1 PUSH1 0x1 PUSH1 0xA0 SHL SUB DUP5 AND LT DUP1 ISZERO SWAP1 PUSH3 0x2815 JUMPI POP PUSH1 0x66 DUP4 PUSH1 0x1 PUSH1 0x1 PUSH1 0xA0 SHL SUB AND GT ISZERO JUMPDEST ISZERO PUSH3 0x2827 JUMPI PUSH1 0x57 DUP4 SUB SWAP3 POP PUSH3 0x2890 JUMP JUMPDEST PUSH1 0x41 DUP4 PUSH1 0x1 PUSH1 0x1 PUSH1 0xA0 SHL SUB AND LT ISZERO DUP1 ISZERO PUSH3 0x284C JUMPI POP PUSH1 0x46 DUP4 PUSH1 0x1 PUSH1 0x1 PUSH1 0xA0 SHL SUB AND GT ISZERO JUMPDEST ISZERO PUSH3 0x285E JUMPI PUSH1 0x37 DUP4 SUB SWAP3 POP PUSH3 0x2890 JUMP JUMPDEST PUSH1 0x30 DUP4 PUSH1 0x1 PUSH1 0x1 PUSH1 0xA0 SHL SUB AND LT ISZERO DUP1 ISZERO PUSH3 0x2883 JUMPI POP PUSH1 0x39 DUP4 PUSH1 0x1 PUSH1 0x1 PUSH1 0xA0 SHL SUB AND GT ISZERO JUMPDEST ISZERO PUSH3 0x2890 JUMPI PUSH1 0x30 DUP4 SUB SWAP3 POP JUMPDEST PUSH1 0x61 DUP3 PUSH1 0x1 PUSH1 0x1 PUSH1 0xA0 SHL SUB AND LT ISZERO DUP1 ISZERO PUSH3 0x28B5 JUMPI POP PUSH1 0x66 DUP3 PUSH1 0x1 PUSH1 0x1 PUSH1 0xA0 SHL SUB AND GT ISZERO JUMPDEST ISZERO PUSH3 0x28C7 JUMPI PUSH1 0x57 DUP3 SUB SWAP2 POP PUSH3 0x2930 JUMP JUMPDEST PUSH1 0x41 DUP3 PUSH1 0x1 PUSH1 0x1 PUSH1 0xA0 SHL SUB AND LT ISZERO DUP1 ISZERO PUSH3 0x28EC JUMPI POP PUSH1 0x46 DUP3 PUSH1 0x1 PUSH1 0x1 PUSH1 0xA0 SHL SUB AND GT ISZERO JUMPDEST ISZERO PUSH3 0x28FE JUMPI PUSH1 0x37 DUP3 SUB SWAP2 POP PUSH3 0x2930 JUMP JUMPDEST PUSH1 0x30 DUP3 PUSH1 0x1 PUSH1 0x1 PUSH1 0xA0 SHL SUB AND LT ISZERO DUP1 ISZERO PUSH3 0x2923 JUMPI POP PUSH1 0x39 DUP3 PUSH1 0x1 PUSH1 0x1 PUSH1 0xA0 SHL SUB AND GT ISZERO JUMPDEST ISZERO PUSH3 0x2930 JUMPI PUSH1 0x30 DUP3 SUB SWAP2 POP JUMPDEST PUSH1 0x10 DUP4 MUL DUP3 ADD SWAP4 SWAP1 SWAP4 ADD SWAP3 PUSH1 0x2 ADD PUSH3 0x27A9 JUMP JUMPDEST POP SWAP2 SWAP6 SWAP5 POP POP POP POP POP JUMP JUMPDEST PUSH1 0x40 MLOAD DUP1 PUSH2 0x180 ADD PUSH1 0x40 MSTORE DUP1 PUSH1 0x60 DUP2 MSTORE PUSH1 0x20 ADD PUSH1 0x60 DUP2 MSTORE PUSH1 0x20 ADD PUSH1 0x60 DUP2 MSTORE PUSH1 0x20 ADD PUSH1 0x0 PUSH1 0x3 DUP2 GT ISZERO PUSH3 0x297E JUMPI INVALID JUMPDEST DUP2 MSTORE PUSH1 0x20 ADD PUSH1 0x0 DUP2 MSTORE PUSH1 0x20 ADD PUSH1 0x60 DUP2 MSTORE PUSH1 0x20 ADD PUSH1 0x60 DUP2 MSTORE PUSH1 0x20 ADD PUSH3 0x29A2 PUSH3 0x2B6D JUMP JUMPDEST DUP2 MSTORE PUSH1 0x20 ADD PUSH3 0x29B1 PUSH3 0x2BC5 JUMP JUMPDEST DUP2 MSTORE PUSH1 0x20 ADD PUSH3 0x29C0 PUSH3 0x2B45 JUMP JUMPDEST DUP2 MSTORE PUSH1 0x0 PUSH1 0x20 DUP3 ADD DUP2 SWAP1 MSTORE PUSH1 0x40 SWAP1 SWAP2 ADD MSTORE SWAP1 JUMP JUMPDEST PUSH1 0x40 MLOAD DUP1 PUSH1 0xC0 ADD PUSH1 0x40 MSTORE DUP1 PUSH1 0x60 DUP2 MSTORE PUSH1 0x20 ADD PUSH1 0x60 DUP2 MSTORE PUSH1 0x20 ADD PUSH1 0x0 PUSH1 0x1 PUSH1 0x1 PUSH1 0xA0 SHL SUB AND DUP2 MSTORE PUSH1 0x20 ADD PUSH1 0x0 DUP2 MSTORE PUSH1 0x20 ADD PUSH1 0x0 DUP2 MSTORE PUSH1 0x20 ADD PUSH1 0x0 DUP2 MSTORE POP SWAP1 JUMP JUMPDEST PUSH1 0x40 MLOAD DUP1 PUSH1 0x80 ADD PUSH1 0x40 MSTORE DUP1 PUSH1 0x60 DUP2 MSTORE PUSH1 0x20 ADD PUSH3 0x2A2F PUSH3 0x2BD9 JUMP JUMPDEST DUP2 MSTORE PUSH1 0x20 ADD PUSH3 0x2A3E PUSH3 0x2A52 JUMP JUMPDEST DUP2 MSTORE PUSH1 0x20 ADD PUSH3 0x2A4D PUSH3 0x2A74 JUMP JUMPDEST SWAP1 MSTORE SWAP1 JUMP JUMPDEST PUSH1 0x40 DUP1 MLOAD PUSH1 0x60 DUP2 ADD SWAP1 SWAP2 MSTORE DUP1 PUSH1 0x0 DUP2 MSTORE PUSH1 0x20 ADD PUSH1 0x0 DUP2 MSTORE PUSH1 0x20 ADD PUSH1 0x60 DUP2 MSTORE POP SWAP1 JUMP JUMPDEST PUSH1 0x40 DUP1 MLOAD PUSH1 0xE0 DUP2 ADD SWAP1 SWAP2 MSTORE DUP1 PUSH1 0x0 DUP2 MSTORE PUSH1 0x20 ADD PUSH1 0x60 DUP2 MSTORE PUSH1 0x20 ADD PUSH1 0x60 DUP2 MSTORE PUSH1 0x20 ADD PUSH1 0x0 DUP2 MSTORE PUSH1 0x20 ADD PUSH1 0x0 DUP2 MSTORE PUSH1 0x20 ADD PUSH1 0x60 DUP2 MSTORE PUSH1 0x20 ADD PUSH1 0x60 DUP2 MSTORE POP SWAP1 JUMP JUMPDEST PUSH2 0x6CE DUP1 PUSH3 0x44BB DUP4 CODECOPY ADD SWAP1 JUMP JUMPDEST DUP3 DUP1 SLOAD PUSH1 0x1 DUP2 PUSH1 0x1 AND ISZERO PUSH2 0x100 MUL SUB AND PUSH1 0x2 SWAP1 DIV SWAP1 PUSH1 0x0 MSTORE PUSH1 0x20 PUSH1 0x0 KECCAK256 SWAP1 PUSH1 0x1F ADD PUSH1 0x20 SWAP1 DIV DUP2 ADD SWAP3 DUP3 PUSH1 0x1F LT PUSH3 0x2B03 JUMPI DUP1 MLOAD PUSH1 0xFF NOT AND DUP4 DUP1 ADD OR DUP6 SSTORE PUSH3 0x2B33 JUMP JUMPDEST DUP3 DUP1 ADD PUSH1 0x1 ADD DUP6 SSTORE DUP3 ISZERO PUSH3 0x2B33 JUMPI SWAP2 DUP3 ADD JUMPDEST DUP3 DUP2 GT ISZERO PUSH3 0x2B33 JUMPI DUP3 MLOAD DUP3 SSTORE SWAP2 PUSH1 0x20 ADD SWAP2 SWAP1 PUSH1 0x1 ADD SWAP1 PUSH3 0x2B16 JUMP JUMPDEST POP PUSH3 0x2B41 SWAP3 SWAP2 POP PUSH3 0x2C01 JUMP JUMPDEST POP SWAP1 JUMP JUMPDEST PUSH1 0x40 MLOAD DUP1 PUSH1 0x80 ADD PUSH1 0x40 MSTORE DUP1 PUSH1 0x0 DUP2 MSTORE PUSH1 0x20 ADD PUSH1 0x0 DUP2 MSTORE PUSH1 0x20 ADD PUSH1 0x0 DUP2 MSTORE PUSH1 0x20 ADD PUSH1 0x0 DUP2 MSTORE POP SWAP1 JUMP JUMPDEST PUSH1 0x40 DUP1 MLOAD PUSH2 0x100 DUP2 ADD SWAP1 SWAP2 MSTORE PUSH1 0x0 DUP1 DUP3 MSTORE PUSH1 0x20 DUP3 ADD SWAP1 DUP2 MSTORE PUSH1 0x20 ADD PUSH1 0x0 DUP2 MSTORE PUSH1 0x20 ADD PUSH1 0x60 DUP2 MSTORE PUSH1 0x20 ADD PUSH1 0x0 DUP2 MSTORE PUSH1 0x20 ADD PUSH1 0x0 DUP2 MSTORE PUSH1 0x20 ADD PUSH1 0x0 PUSH1 0x1 PUSH1 0x1 PUSH1 0xA0 SHL SUB AND DUP2 MSTORE PUSH1 0x20 ADD PUSH1 0x0 PUSH1 0x1 PUSH1 0x1 PUSH1 0xA0 SHL SUB AND DUP2 MSTORE POP SWAP1 JUMP JUMPDEST PUSH1 0x40 DUP1 MLOAD PUSH1 0x20 DUP2 ADD SWAP1 SWAP2 MSTORE DUP1 PUSH1 0x0 PUSH3 0x2A4D JUMP JUMPDEST PUSH1 0x40 MLOAD DUP1 PUSH1 0x80 ADD PUSH1 0x40 MSTORE DUP1 PUSH1 0x60 DUP2 MSTORE PUSH1 0x20 ADD PUSH1 0x60 DUP2 MSTORE PUSH1 0x20 ADD PUSH1 0x60 DUP2 MSTORE PUSH1 0x20 ADD PUSH1 0x60 DUP2 MSTORE POP SWAP1 JUMP JUMPDEST PUSH3 0x2C1E SWAP2 SWAP1 JUMPDEST DUP1 DUP3 GT ISZERO PUSH3 0x2B41 JUMPI PUSH1 0x0 DUP2 SSTORE PUSH1 0x1 ADD PUSH3 0x2C08 JUMP JUMPDEST SWAP1 JUMP JUMPDEST DUP1 CALLDATALOAD PUSH3 0x15D3 DUP2 PUSH3 0x4458 JUMP JUMPDEST DUP1 MLOAD PUSH3 0x15D3 DUP2 PUSH3 0x4458 JUMP JUMPDEST PUSH1 0x0 DUP3 PUSH1 0x1F DUP4 ADD SLT PUSH3 0x2C4D JUMPI PUSH1 0x0 DUP1 REVERT JUMPDEST DUP2 MLOAD PUSH3 0x2C64 PUSH3 0x2C5E DUP3 PUSH3 0x4310 JUMP JUMPDEST PUSH3 0x42E9 JUMP JUMPDEST SWAP2 POP DUP2 DUP2 DUP4 MSTORE PUSH1 0x20 DUP5 ADD SWAP4 POP PUSH1 0x20 DUP2 ADD SWAP1 POP DUP4 DUP6 PUSH1 0x20 DUP5 MUL DUP3 ADD GT ISZERO PUSH3 0x2C8A JUMPI PUSH1 0x0 DUP1 REVERT JUMPDEST PUSH1 0x0 JUMPDEST DUP4 DUP2 LT ISZERO PUSH3 0x2CBA JUMPI DUP2 PUSH3 0x2CA3 DUP9 DUP3 PUSH3 0x2C2E JUMP JUMPDEST DUP5 MSTORE POP PUSH1 0x20 SWAP3 DUP4 ADD SWAP3 SWAP2 SWAP1 SWAP2 ADD SWAP1 PUSH1 0x1 ADD PUSH3 0x2C8D JUMP JUMPDEST POP POP POP POP SWAP3 SWAP2 POP POP JUMP JUMPDEST PUSH1 0x0 DUP3 PUSH1 0x1F DUP4 ADD SLT PUSH3 0x2CD6 JUMPI PUSH1 0x0 DUP1 REVERT JUMPDEST DUP2 CALLDATALOAD PUSH3 0x2CE7 PUSH3 0x2C5E DUP3 PUSH3 0x4310 JUMP JUMPDEST DUP2 DUP2 MSTORE PUSH1 0x20 SWAP4 DUP5 ADD SWAP4 SWAP1 SWAP3 POP DUP3 ADD DUP4 PUSH1 0x0 JUMPDEST DUP4 DUP2 LT ISZERO PUSH3 0x2CBA JUMPI DUP2 CALLDATALOAD DUP7 ADD PUSH3 0x2D12 DUP9 DUP3 PUSH3 0x2E65 JUMP JUMPDEST DUP5 MSTORE POP PUSH1 0x20 SWAP3 DUP4 ADD SWAP3 SWAP2 SWAP1 SWAP2 ADD SWAP1 PUSH1 0x1 ADD PUSH3 0x2CF9 JUMP JUMPDEST DUP1 MLOAD PUSH3 0x15D3 DUP2 PUSH3 0x446F JUMP JUMPDEST DUP1 CALLDATALOAD PUSH3 0x15D3 DUP2 PUSH3 0x447A JUMP JUMPDEST DUP1 CALLDATALOAD PUSH3 0x15D3 DUP2 PUSH3 0x4485 JUMP JUMPDEST DUP1 CALLDATALOAD PUSH3 0x15D3 DUP2 PUSH3 0x4493 JUMP JUMPDEST DUP1 CALLDATALOAD PUSH3 0x15D3 DUP2 PUSH3 0x44A1 JUMP JUMPDEST DUP1 MLOAD PUSH3 0x15D3 DUP2 PUSH3 0x44A1 JUMP JUMPDEST PUSH1 0x0 DUP1 DUP4 PUSH1 0x1F DUP5 ADD SLT PUSH3 0x2D8A JUMPI PUSH1 0x0 DUP1 REVERT JUMPDEST POP DUP2 CALLDATALOAD PUSH1 0x1 PUSH1 0x1 PUSH1 0x40 SHL SUB DUP2 GT ISZERO PUSH3 0x2DA2 JUMPI PUSH1 0x0 DUP1 REVERT JUMPDEST PUSH1 0x20 DUP4 ADD SWAP2 POP DUP4 PUSH1 0x1 DUP3 MUL DUP4 ADD GT ISZERO PUSH3 0x2DBB JUMPI PUSH1 0x0 DUP1 REVERT JUMPDEST SWAP3 POP SWAP3 SWAP1 POP JUMP JUMPDEST PUSH1 0x0 DUP3 PUSH1 0x1F DUP4 ADD SLT PUSH3 0x2DD4 JUMPI PUSH1 0x0 DUP1 REVERT JUMPDEST DUP2 CALLDATALOAD PUSH3 0x2DE5 PUSH3 0x2C5E DUP3 PUSH3 0x4331 JUMP JUMPDEST SWAP2 POP DUP1 DUP3 MSTORE PUSH1 0x20 DUP4 ADD PUSH1 0x20 DUP4 ADD DUP6 DUP4 DUP4 ADD GT ISZERO PUSH3 0x2E02 JUMPI PUSH1 0x0 DUP1 REVERT JUMPDEST PUSH3 0x2E0F DUP4 DUP3 DUP5 PUSH3 0x43EF JUMP JUMPDEST POP POP POP SWAP3 SWAP2 POP POP JUMP JUMPDEST PUSH1 0x0 DUP3 PUSH1 0x1F DUP4 ADD SLT PUSH3 0x2E2A JUMPI PUSH1 0x0 DUP1 REVERT JUMPDEST DUP2 MLOAD PUSH3 0x2E3B PUSH3 0x2C5E DUP3 PUSH3 0x4331 JUMP JUMPDEST SWAP2 POP DUP1 DUP3 MSTORE PUSH1 0x20 DUP4 ADD PUSH1 0x20 DUP4 ADD DUP6 DUP4 DUP4 ADD GT ISZERO PUSH3 0x2E58 JUMPI PUSH1 0x0 DUP1 REVERT JUMPDEST PUSH3 0x2E0F DUP4 DUP3 DUP5 PUSH3 0x43FB JUMP JUMPDEST PUSH1 0x0 PUSH1 0x60 DUP3 DUP5 SUB SLT ISZERO PUSH3 0x2E78 JUMPI PUSH1 0x0 DUP1 REVERT JUMPDEST PUSH3 0x2E84 PUSH1 0x60 PUSH3 0x42E9 JUMP JUMPDEST SWAP1 POP PUSH1 0x0 PUSH3 0x2E94 DUP5 DUP5 PUSH3 0x363A JUMP JUMPDEST DUP3 MSTORE POP PUSH1 0x20 PUSH3 0x2EA7 DUP5 DUP5 DUP4 ADD PUSH3 0x363A JUMP JUMPDEST PUSH1 0x20 DUP4 ADD MSTORE POP PUSH1 0x40 DUP3 ADD CALLDATALOAD PUSH1 0x1 PUSH1 0x1 PUSH1 0x40 SHL SUB DUP2 GT ISZERO PUSH3 0x2EC7 JUMPI PUSH1 0x0 DUP1 REVERT JUMPDEST PUSH3 0x2ED5 DUP5 DUP3 DUP6 ADD PUSH3 0x2DC2 JUMP JUMPDEST PUSH1 0x40 DUP4 ADD MSTORE POP SWAP3 SWAP2 POP POP JUMP JUMPDEST PUSH1 0x0 PUSH2 0x100 DUP3 DUP5 SUB SLT ISZERO PUSH3 0x2EF5 JUMPI PUSH1 0x0 DUP1 REVERT JUMPDEST PUSH3 0x2F02 PUSH2 0x100 PUSH3 0x42E9 JUMP JUMPDEST SWAP1 POP PUSH1 0x0 PUSH3 0x2F12 DUP5 DUP5 PUSH3 0x2C21 JUMP JUMPDEST DUP3 MSTORE POP PUSH1 0x20 PUSH3 0x2F25 DUP5 DUP5 DUP4 ADD PUSH3 0x2D43 JUMP JUMPDEST PUSH1 0x20 DUP4 ADD MSTORE POP PUSH1 0x40 PUSH3 0x2F3B DUP5 DUP3 DUP6 ADD PUSH3 0x363A JUMP JUMPDEST PUSH1 0x40 DUP4 ADD MSTORE POP PUSH1 0x60 DUP3 ADD CALLDATALOAD PUSH1 0x1 PUSH1 0x1 PUSH1 0x40 SHL SUB DUP2 GT ISZERO PUSH3 0x2F5B JUMPI PUSH1 0x0 DUP1 REVERT JUMPDEST PUSH3 0x2F69 DUP5 DUP3 DUP6 ADD PUSH3 0x2DC2 JUMP JUMPDEST PUSH1 0x60 DUP4 ADD MSTORE POP PUSH1 0x80 PUSH3 0x2F7F DUP5 DUP3 DUP6 ADD PUSH3 0x363A JUMP JUMPDEST PUSH1 0x80 DUP4 ADD MSTORE POP PUSH1 0xA0 PUSH3 0x2F95 DUP5 DUP3 DUP6 ADD PUSH3 0x363A JUMP JUMPDEST PUSH1 0xA0 DUP4 ADD MSTORE POP PUSH1 0xC0 PUSH3 0x2FAB DUP5 DUP3 DUP6 ADD PUSH3 0x2D36 JUMP JUMPDEST PUSH1 0xC0 DUP4 ADD MSTORE POP PUSH1 0xE0 PUSH3 0x2FC1 DUP5 DUP3 DUP6 ADD PUSH3 0x2D36 JUMP JUMPDEST PUSH1 0xE0 DUP4 ADD MSTORE POP SWAP3 SWAP2 POP POP JUMP JUMPDEST PUSH1 0x0 PUSH2 0x1E0 DUP3 DUP5 SUB SLT ISZERO PUSH3 0x2FE1 JUMPI PUSH1 0x0 DUP1 REVERT JUMPDEST PUSH3 0x2FEE PUSH2 0x180 PUSH3 0x42E9 JUMP JUMPDEST SWAP1 POP DUP2 CALLDATALOAD PUSH1 0x1 PUSH1 0x1 PUSH1 0x40 SHL SUB DUP2 GT ISZERO PUSH3 0x3007 JUMPI PUSH1 0x0 DUP1 REVERT JUMPDEST PUSH3 0x3015 DUP5 DUP3 DUP6 ADD PUSH3 0x2DC2 JUMP JUMPDEST DUP3 MSTORE POP PUSH1 0x20 DUP3 ADD CALLDATALOAD PUSH1 0x1 PUSH1 0x1 PUSH1 0x40 SHL SUB DUP2 GT ISZERO PUSH3 0x3032 JUMPI PUSH1 0x0 DUP1 REVERT JUMPDEST PUSH3 0x3040 DUP5 DUP3 DUP6 ADD PUSH3 0x2DC2 JUMP JUMPDEST PUSH1 0x20 DUP4 ADD MSTORE POP PUSH1 0x40 DUP3 ADD CALLDATALOAD PUSH1 0x1 PUSH1 0x1 PUSH1 0x40 SHL SUB DUP2 GT ISZERO PUSH3 0x3060 JUMPI PUSH1 0x0 DUP1 REVERT JUMPDEST PUSH3 0x306E DUP5 DUP3 DUP6 ADD PUSH3 0x2DC2 JUMP JUMPDEST PUSH1 0x40 DUP4 ADD MSTORE POP PUSH1 0x60 PUSH3 0x3084 DUP5 DUP3 DUP6 ADD PUSH3 0x2D5D JUMP JUMPDEST PUSH1 0x60 DUP4 ADD MSTORE POP PUSH1 0x80 PUSH3 0x309A DUP5 DUP3 DUP6 ADD PUSH3 0x2D50 JUMP JUMPDEST PUSH1 0x80 DUP4 ADD MSTORE POP PUSH1 0xA0 DUP3 ADD CALLDATALOAD PUSH1 0x1 PUSH1 0x1 PUSH1 0x40 SHL SUB DUP2 GT ISZERO PUSH3 0x30BA JUMPI PUSH1 0x0 DUP1 REVERT JUMPDEST PUSH3 0x30C8 DUP5 DUP3 DUP6 ADD PUSH3 0x2DC2 JUMP JUMPDEST PUSH1 0xA0 DUP4 ADD MSTORE POP PUSH1 0xC0 DUP3 ADD CALLDATALOAD PUSH1 0x1 PUSH1 0x1 PUSH1 0x40 SHL SUB DUP2 GT ISZERO PUSH3 0x30E8 JUMPI PUSH1 0x0 DUP1 REVERT JUMPDEST PUSH3 0x30F6 DUP5 DUP3 DUP6 ADD PUSH3 0x2DC2 JUMP JUMPDEST PUSH1 0xC0 DUP4 ADD MSTORE POP PUSH1 0xE0 DUP3 ADD CALLDATALOAD PUSH1 0x1 PUSH1 0x1 PUSH1 0x40 SHL SUB DUP2 GT ISZERO PUSH3 0x3116 JUMPI PUSH1 0x0 DUP1 REVERT JUMPDEST PUSH3 0x3124 DUP5 DUP3 DUP6 ADD PUSH3 0x2EE1 JUMP JUMPDEST PUSH1 0xE0 DUP4 ADD MSTORE POP PUSH2 0x100 PUSH3 0x313B DUP5 DUP3 DUP6 ADD PUSH3 0x3200 JUMP JUMPDEST PUSH2 0x100 DUP4 ADD MSTORE POP PUSH2 0x120 PUSH3 0x3153 DUP5 DUP3 DUP6 ADD PUSH3 0x35D1 JUMP JUMPDEST PUSH2 0x120 DUP4 ADD MSTORE POP PUSH2 0x1A0 PUSH3 0x316B DUP5 DUP3 DUP6 ADD PUSH3 0x363A JUMP JUMPDEST PUSH2 0x140 DUP4 ADD MSTORE POP PUSH2 0x1C0 PUSH3 0x3183 DUP5 DUP3 DUP6 ADD PUSH3 0x2C21 JUMP JUMPDEST PUSH2 0x160 DUP4 ADD MSTORE POP SWAP3 SWAP2 POP POP JUMP JUMPDEST PUSH1 0x0 PUSH1 0x60 DUP3 DUP5 SUB SLT ISZERO PUSH3 0x31A3 JUMPI PUSH1 0x0 DUP1 REVERT JUMPDEST PUSH3 0x31AF PUSH1 0x60 PUSH3 0x42E9 JUMP JUMPDEST SWAP1 POP PUSH1 0x0 PUSH3 0x31BF DUP5 DUP5 PUSH3 0x2D6A JUMP JUMPDEST DUP3 MSTORE POP PUSH1 0x20 PUSH3 0x31D2 DUP5 DUP5 DUP4 ADD PUSH3 0x3647 JUMP JUMPDEST PUSH1 0x20 DUP4 ADD MSTORE POP PUSH1 0x40 DUP3 ADD MLOAD PUSH1 0x1 PUSH1 0x1 PUSH1 0x40 SHL SUB DUP2 GT ISZERO PUSH3 0x31F2 JUMPI PUSH1 0x0 DUP1 REVERT JUMPDEST PUSH3 0x2ED5 DUP5 DUP3 DUP6 ADD PUSH3 0x2C3B JUMP JUMPDEST PUSH1 0x0 PUSH1 0x20 DUP3 DUP5 SUB SLT ISZERO PUSH3 0x3213 JUMPI PUSH1 0x0 DUP1 REVERT JUMPDEST PUSH3 0x321F PUSH1 0x20 PUSH3 0x42E9 JUMP JUMPDEST SWAP1 POP PUSH1 0x0 PUSH3 0x322F DUP5 DUP5 PUSH3 0x2D5D JUMP JUMPDEST DUP3 MSTORE POP SWAP3 SWAP2 POP POP JUMP JUMPDEST PUSH1 0x0 PUSH1 0x80 DUP3 DUP5 SUB SLT ISZERO PUSH3 0x324B JUMPI PUSH1 0x0 DUP1 REVERT JUMPDEST PUSH3 0x3257 PUSH1 0x80 PUSH3 0x42E9 JUMP JUMPDEST DUP3 MLOAD SWAP1 SWAP2 POP PUSH1 0x1 PUSH1 0x1 PUSH1 0x40 SHL SUB DUP2 GT ISZERO PUSH3 0x3271 JUMPI PUSH1 0x0 DUP1 REVERT JUMPDEST PUSH3 0x327F DUP5 DUP3 DUP6 ADD PUSH3 0x2E18 JUMP JUMPDEST DUP3 MSTORE POP PUSH1 0x20 DUP3 ADD MLOAD PUSH1 0x1 PUSH1 0x1 PUSH1 0x40 SHL SUB DUP2 GT ISZERO PUSH3 0x329C JUMPI PUSH1 0x0 DUP1 REVERT JUMPDEST PUSH3 0x32AA DUP5 DUP3 DUP6 ADD PUSH3 0x3312 JUMP JUMPDEST PUSH1 0x20 DUP4 ADD MSTORE POP PUSH1 0x40 DUP3 ADD MLOAD PUSH1 0x1 PUSH1 0x1 PUSH1 0x40 SHL SUB DUP2 GT ISZERO PUSH3 0x32CA JUMPI PUSH1 0x0 DUP1 REVERT JUMPDEST PUSH3 0x32D8 DUP5 DUP3 DUP6 ADD PUSH3 0x3190 JUMP JUMPDEST PUSH1 0x40 DUP4 ADD MSTORE POP PUSH1 0x60 DUP3 ADD MLOAD PUSH1 0x1 PUSH1 0x1 PUSH1 0x40 SHL SUB DUP2 GT ISZERO PUSH3 0x32F8 JUMPI PUSH1 0x0 DUP1 REVERT JUMPDEST PUSH3 0x3306 DUP5 DUP3 DUP6 ADD PUSH3 0x34B5 JUMP JUMPDEST PUSH1 0x60 DUP4 ADD MSTORE POP SWAP3 SWAP2 POP POP JUMP JUMPDEST PUSH1 0x0 PUSH1 0x80 DUP3 DUP5 SUB SLT ISZERO PUSH3 0x3325 JUMPI PUSH1 0x0 DUP1 REVERT JUMPDEST PUSH3 0x3331 PUSH1 0x80 PUSH3 0x42E9 JUMP JUMPDEST DUP3 MLOAD SWAP1 SWAP2 POP PUSH1 0x1 PUSH1 0x1 PUSH1 0x40 SHL SUB DUP2 GT ISZERO PUSH3 0x334B JUMPI PUSH1 0x0 DUP1 REVERT JUMPDEST PUSH3 0x3359 DUP5 DUP3 DUP6 ADD PUSH3 0x2E18 JUMP JUMPDEST DUP3 MSTORE POP PUSH1 0x20 DUP3 ADD MLOAD PUSH1 0x1 PUSH1 0x1 PUSH1 0x40 SHL SUB DUP2 GT ISZERO PUSH3 0x3376 JUMPI PUSH1 0x0 DUP1 REVERT JUMPDEST PUSH3 0x3384 DUP5 DUP3 DUP6 ADD PUSH3 0x2E18 JUMP JUMPDEST PUSH1 0x20 DUP4 ADD MSTORE POP PUSH1 0x40 DUP3 ADD MLOAD PUSH1 0x1 PUSH1 0x1 PUSH1 0x40 SHL SUB DUP2 GT ISZERO PUSH3 0x33A4 JUMPI PUSH1 0x0 DUP1 REVERT JUMPDEST PUSH3 0x33B2 DUP5 DUP3 DUP6 ADD PUSH3 0x2E18 JUMP JUMPDEST PUSH1 0x40 DUP4 ADD MSTORE POP PUSH1 0x60 DUP3 ADD MLOAD PUSH1 0x1 PUSH1 0x1 PUSH1 0x40 SHL SUB DUP2 GT ISZERO PUSH3 0x33D2 JUMPI PUSH1 0x0 DUP1 REVERT JUMPDEST PUSH3 0x3306 DUP5 DUP3 DUP6 ADD PUSH3 0x2C3B JUMP JUMPDEST PUSH1 0x0 PUSH1 0xC0 DUP3 DUP5 SUB SLT ISZERO PUSH3 0x33F3 JUMPI PUSH1 0x0 DUP1 REVERT JUMPDEST PUSH3 0x33FF PUSH1 0xC0 PUSH3 0x42E9 JUMP JUMPDEST SWAP1 POP DUP2 CALLDATALOAD PUSH1 0x1 PUSH1 0x1 PUSH1 0x40 SHL SUB DUP2 GT ISZERO PUSH3 0x3418 JUMPI PUSH1 0x0 DUP1 REVERT JUMPDEST PUSH3 0x3426 DUP5 DUP3 DUP6 ADD PUSH3 0x2DC2 JUMP JUMPDEST DUP3 MSTORE POP PUSH1 0x20 DUP3 ADD CALLDATALOAD PUSH1 0x1 PUSH1 0x1 PUSH1 0x40 SHL SUB DUP2 GT ISZERO PUSH3 0x3443 JUMPI PUSH1 0x0 DUP1 REVERT JUMPDEST PUSH3 0x3451 DUP5 DUP3 DUP6 ADD PUSH3 0x2DC2 JUMP JUMPDEST PUSH1 0x20 DUP4 ADD MSTORE POP PUSH1 0x40 PUSH3 0x3467 DUP5 DUP3 DUP6 ADD PUSH3 0x2C21 JUMP JUMPDEST PUSH1 0x40 DUP4 ADD MSTORE POP PUSH1 0x60 PUSH3 0x347D DUP5 DUP3 DUP6 ADD PUSH3 0x363A JUMP JUMPDEST PUSH1 0x60 DUP4 ADD MSTORE POP PUSH1 0x80 PUSH3 0x3493 DUP5 DUP3 DUP6 ADD PUSH3 0x363A JUMP JUMPDEST PUSH1 0x80 DUP4 ADD MSTORE POP PUSH1 0xA0 PUSH3 0x34A9 DUP5 DUP3 DUP6 ADD PUSH3 0x363A JUMP JUMPDEST PUSH1 0xA0 DUP4 ADD MSTORE POP SWAP3 SWAP2 POP POP JUMP JUMPDEST PUSH1 0x0 PUSH1 0xE0 DUP3 DUP5 SUB SLT ISZERO PUSH3 0x34C8 JUMPI PUSH1 0x0 DUP1 REVERT JUMPDEST PUSH3 0x34D4 PUSH1 0xE0 PUSH3 0x42E9 JUMP JUMPDEST SWAP1 POP PUSH1 0x0 PUSH3 0x34E4 DUP5 DUP5 PUSH3 0x2D6A JUMP JUMPDEST DUP3 MSTORE POP PUSH1 0x20 DUP3 ADD MLOAD PUSH1 0x1 PUSH1 0x1 PUSH1 0x40 SHL SUB DUP2 GT ISZERO PUSH3 0x3501 JUMPI PUSH1 0x0 DUP1 REVERT JUMPDEST PUSH3 0x350F DUP5 DUP3 DUP6 ADD PUSH3 0x2E18 JUMP JUMPDEST PUSH1 0x20 DUP4 ADD MSTORE POP PUSH1 0x40 DUP3 ADD MLOAD PUSH1 0x1 PUSH1 0x1 PUSH1 0x40 SHL SUB DUP2 GT ISZERO PUSH3 0x352F JUMPI PUSH1 0x0 DUP1 REVERT JUMPDEST PUSH3 0x353D DUP5 DUP3 DUP6 ADD PUSH3 0x2C3B JUMP JUMPDEST PUSH1 0x40 DUP4 ADD MSTORE POP PUSH1 0x60 PUSH3 0x3553 DUP5 DUP3 DUP6 ADD PUSH3 0x3647 JUMP JUMPDEST PUSH1 0x60 DUP4 ADD MSTORE POP PUSH1 0x80 PUSH3 0x3569 DUP5 DUP3 DUP6 ADD PUSH3 0x3647 JUMP JUMPDEST PUSH1 0x80 DUP4 ADD MSTORE POP PUSH1 0xA0 DUP3 ADD MLOAD PUSH1 0x1 PUSH1 0x1 PUSH1 0x40 SHL SUB DUP2 GT ISZERO PUSH3 0x3589 JUMPI PUSH1 0x0 DUP1 REVERT JUMPDEST PUSH3 0x3597 DUP5 DUP3 DUP6 ADD PUSH3 0x2E18 JUMP JUMPDEST PUSH1 0xA0 DUP4 ADD MSTORE POP PUSH1 0xC0 DUP3 ADD MLOAD PUSH1 0x1 PUSH1 0x1 PUSH1 0x40 SHL SUB DUP2 GT ISZERO PUSH3 0x35B7 JUMPI PUSH1 0x0 DUP1 REVERT JUMPDEST PUSH3 0x35C5 DUP5 DUP3 DUP6 ADD PUSH3 0x2E18 JUMP JUMPDEST PUSH1 0xC0 DUP4 ADD MSTORE POP SWAP3 SWAP2 POP POP JUMP JUMPDEST PUSH1 0x0 PUSH1 0x80 DUP3 DUP5 SUB SLT ISZERO PUSH3 0x35E4 JUMPI PUSH1 0x0 DUP1 REVERT JUMPDEST PUSH3 0x35F0 PUSH1 0x80 PUSH3 0x42E9 JUMP JUMPDEST SWAP1 POP PUSH1 0x0 PUSH3 0x3600 DUP5 DUP5 PUSH3 0x363A JUMP JUMPDEST DUP3 MSTORE POP PUSH1 0x20 PUSH3 0x3613 DUP5 DUP5 DUP4 ADD PUSH3 0x363A JUMP JUMPDEST PUSH1 0x20 DUP4 ADD MSTORE POP PUSH1 0x40 PUSH3 0x3629 DUP5 DUP3 DUP6 ADD PUSH3 0x363A JUMP JUMPDEST PUSH1 0x40 DUP4 ADD MSTORE POP PUSH1 0x60 PUSH3 0x3306 DUP5 DUP3 DUP6 ADD JUMPDEST DUP1 CALLDATALOAD PUSH3 0x15D3 DUP2 PUSH3 0x44AF JUMP JUMPDEST DUP1 MLOAD PUSH3 0x15D3 DUP2 PUSH3 0x44AF JUMP JUMPDEST PUSH1 0x0 PUSH1 0x20 DUP3 DUP5 SUB SLT ISZERO PUSH3 0x3667 JUMPI PUSH1 0x0 DUP1 REVERT JUMPDEST PUSH1 0x0 PUSH3 0x1686 DUP5 DUP5 PUSH3 0x2C21 JUMP JUMPDEST PUSH1 0x0 PUSH1 0x20 DUP3 DUP5 SUB SLT ISZERO PUSH3 0x3688 JUMPI PUSH1 0x0 DUP1 REVERT JUMPDEST PUSH1 0x0 PUSH3 0x1686 DUP5 DUP5 PUSH3 0x2C2E JUMP JUMPDEST PUSH1 0x0 PUSH1 0x20 DUP3 DUP5 SUB SLT ISZERO PUSH3 0x36A9 JUMPI PUSH1 0x0 DUP1 REVERT JUMPDEST PUSH1 0x0 PUSH3 0x1686 DUP5 DUP5 PUSH3 0x2D29 JUMP JUMPDEST PUSH1 0x0 DUP1 PUSH1 0x20 DUP4 DUP6 SUB SLT ISZERO PUSH3 0x36CB JUMPI PUSH1 0x0 DUP1 REVERT JUMPDEST DUP3 CALLDATALOAD PUSH1 0x1 PUSH1 0x1 PUSH1 0x40 SHL SUB DUP2 GT ISZERO PUSH3 0x36E2 JUMPI PUSH1 0x0 DUP1 REVERT JUMPDEST PUSH3 0x36F0 DUP6 DUP3 DUP7 ADD PUSH3 0x2D77 JUMP JUMPDEST SWAP3 POP SWAP3 POP POP SWAP3 POP SWAP3 SWAP1 POP JUMP JUMPDEST PUSH1 0x0 DUP1 PUSH1 0x0 DUP1 PUSH1 0x40 DUP6 DUP8 SUB SLT ISZERO PUSH3 0x3713 JUMPI PUSH1 0x0 DUP1 REVERT JUMPDEST DUP5 CALLDATALOAD PUSH1 0x1 PUSH1 0x1 PUSH1 0x40 SHL SUB DUP2 GT ISZERO PUSH3 0x372A JUMPI PUSH1 0x0 DUP1 REVERT JUMPDEST PUSH3 0x3738 DUP8 DUP3 DUP9 ADD PUSH3 0x2D77 JUMP JUMPDEST SWAP5 POP SWAP5 POP POP PUSH1 0x20 DUP6 ADD CALLDATALOAD PUSH1 0x1 PUSH1 0x1 PUSH1 0x40 SHL SUB DUP2 GT ISZERO PUSH3 0x3757 JUMPI PUSH1 0x0 DUP1 REVERT JUMPDEST PUSH3 0x3765 DUP8 DUP3 DUP9 ADD PUSH3 0x2D77 JUMP JUMPDEST SWAP6 SWAP9 SWAP5 SWAP8 POP SWAP6 POP POP POP POP JUMP JUMPDEST PUSH1 0x0 DUP1 PUSH1 0x0 PUSH1 0x60 DUP5 DUP7 SUB SLT ISZERO PUSH3 0x3787 JUMPI PUSH1 0x0 DUP1 REVERT JUMPDEST DUP4 CALLDATALOAD PUSH1 0x1 PUSH1 0x1 PUSH1 0x40 SHL SUB DUP2 GT ISZERO PUSH3 0x379E JUMPI PUSH1 0x0 DUP1 REVERT JUMPDEST PUSH3 0x37AC DUP7 DUP3 DUP8 ADD PUSH3 0x2DC2 JUMP JUMPDEST SWAP4 POP POP PUSH1 0x20 DUP5 ADD CALLDATALOAD PUSH1 0x1 PUSH1 0x1 PUSH1 0x40 SHL SUB DUP2 GT ISZERO PUSH3 0x37C9 JUMPI PUSH1 0x0 DUP1 REVERT JUMPDEST PUSH3 0x37D7 DUP7 DUP3 DUP8 ADD PUSH3 0x2DC2 JUMP JUMPDEST SWAP3 POP POP PUSH1 0x40 PUSH3 0x37EA DUP7 DUP3 DUP8 ADD PUSH3 0x2D5D JUMP JUMPDEST SWAP2 POP POP SWAP3 POP SWAP3 POP SWAP3 JUMP JUMPDEST PUSH1 0x0 DUP1 PUSH1 0x40 DUP4 DUP6 SUB SLT ISZERO PUSH3 0x3808 JUMPI PUSH1 0x0 DUP1 REVERT JUMPDEST DUP3 CALLDATALOAD PUSH1 0x1 PUSH1 0x1 PUSH1 0x40 SHL SUB DUP2 GT ISZERO PUSH3 0x381F JUMPI PUSH1 0x0 DUP1 REVERT JUMPDEST PUSH3 0x382D DUP6 DUP3 DUP7 ADD PUSH3 0x2FCD JUMP JUMPDEST SWAP3 POP POP PUSH1 0x20 DUP4 ADD CALLDATALOAD PUSH1 0x1 PUSH1 0x1 PUSH1 0x40 SHL SUB DUP2 GT ISZERO PUSH3 0x384A JUMPI PUSH1 0x0 DUP1 REVERT JUMPDEST PUSH3 0x3858 DUP6 DUP3 DUP7 ADD PUSH3 0x2CC4 JUMP JUMPDEST SWAP2 POP POP SWAP3 POP SWAP3 SWAP1 POP JUMP JUMPDEST PUSH1 0x0 PUSH1 0x20 DUP3 DUP5 SUB SLT ISZERO PUSH3 0x3875 JUMPI PUSH1 0x0 DUP1 REVERT JUMPDEST DUP2 MLOAD PUSH1 0x1 PUSH1 0x1 PUSH1 0x40 SHL SUB DUP2 GT ISZERO PUSH3 0x388C JUMPI PUSH1 0x0 DUP1 REVERT JUMPDEST PUSH3 0x1686 DUP5 DUP3 DUP6 ADD PUSH3 0x3238 JUMP JUMPDEST PUSH1 0x0 PUSH1 0x20 DUP3 DUP5 SUB SLT ISZERO PUSH3 0x38AD JUMPI PUSH1 0x0 DUP1 REVERT JUMPDEST DUP2 CALLDATALOAD PUSH1 0x1 PUSH1 0x1 PUSH1 0x40 SHL SUB DUP2 GT ISZERO PUSH3 0x38C4 JUMPI PUSH1 0x0 DUP1 REVERT JUMPDEST PUSH3 0x1686 DUP5 DUP3 DUP6 ADD PUSH3 0x33E0 JUMP JUMPDEST PUSH1 0x0 PUSH1 0x20 DUP3 DUP5 SUB SLT ISZERO PUSH3 0x38E5 JUMPI PUSH1 0x0 DUP1 REVERT JUMPDEST PUSH1 0x0 PUSH3 0x1686 DUP5 DUP5 PUSH3 0x3647 JUMP JUMPDEST PUSH1 0x0 PUSH3 0x3901 DUP4 DUP4 PUSH3 0x3D9E JUMP JUMPDEST SWAP4 SWAP3 POP POP POP JUMP JUMPDEST PUSH3 0x3913 DUP2 PUSH3 0x43BB JUMP JUMPDEST DUP3 MSTORE POP POP JUMP JUMPDEST PUSH3 0x3913 DUP2 PUSH3 0x436C JUMP JUMPDEST PUSH1 0x0 PUSH3 0x3931 DUP3 PUSH3 0x435F JUMP JUMPDEST PUSH3 0x393D DUP2 DUP6 PUSH3 0x4363 JUMP JUMPDEST SWAP4 POP DUP4 PUSH1 0x20 DUP3 MUL DUP6 ADD PUSH3 0x3951 DUP6 PUSH3 0x4359 JUMP JUMPDEST DUP1 PUSH1 0x0 JUMPDEST DUP6 DUP2 LT ISZERO PUSH3 0x3991 JUMPI DUP5 DUP5 SUB DUP10 MSTORE DUP2 MLOAD PUSH3 0x3971 DUP6 DUP3 PUSH3 0x38F3 JUMP JUMPDEST SWAP5 POP PUSH3 0x397E DUP4 PUSH3 0x4359 JUMP JUMPDEST PUSH1 0x20 SWAP11 SWAP1 SWAP11 ADD SWAP10 SWAP3 POP POP PUSH1 0x1 ADD PUSH3 0x3955 JUMP JUMPDEST POP SWAP2 SWAP8 SWAP7 POP POP POP POP POP POP POP JUMP JUMPDEST PUSH3 0x3913 DUP2 PUSH3 0x437E JUMP JUMPDEST PUSH3 0x3913 DUP2 PUSH3 0x43C8 JUMP JUMPDEST PUSH3 0x3913 DUP2 PUSH3 0x43D5 JUMP JUMPDEST PUSH3 0x3913 DUP2 PUSH3 0x43E2 JUMP JUMPDEST PUSH1 0x0 PUSH3 0x39D8 DUP4 DUP6 PUSH3 0x279B JUMP JUMPDEST SWAP4 POP PUSH3 0x39E7 DUP4 DUP6 DUP5 PUSH3 0x43EF JUMP JUMPDEST POP POP ADD SWAP1 JUMP JUMPDEST PUSH1 0x0 PUSH3 0x39FA DUP3 PUSH3 0x435F JUMP JUMPDEST PUSH3 0x3A06 DUP2 DUP6 PUSH3 0x4363 JUMP JUMPDEST SWAP4 POP PUSH3 0x3A18 DUP2 DUP6 PUSH1 0x20 DUP7 ADD PUSH3 0x43FB JUMP JUMPDEST PUSH3 0x3A23 DUP2 PUSH3 0x442A JUMP JUMPDEST SWAP1 SWAP4 ADD SWAP4 SWAP3 POP POP POP JUMP JUMPDEST PUSH1 0x0 PUSH3 0x3A3A DUP3 PUSH3 0x435F JUMP JUMPDEST PUSH3 0x3A46 DUP2 DUP6 PUSH3 0x279B JUMP JUMPDEST SWAP4 POP PUSH3 0x3A58 DUP2 DUP6 PUSH1 0x20 DUP7 ADD PUSH3 0x43FB JUMP JUMPDEST SWAP3 SWAP1 SWAP3 ADD SWAP3 SWAP2 POP POP JUMP JUMPDEST PUSH1 0x0 PUSH3 0x3A71 PUSH1 0x10 DUP4 PUSH3 0x4363 JUMP JUMPDEST PUSH16 0x69726F20696420697320656D70747921 PUSH1 0x80 SHL DUP2 MSTORE PUSH1 0x20 ADD SWAP3 SWAP2 POP POP JUMP JUMPDEST PUSH1 0x0 PUSH3 0x3A9F PUSH1 0x11 DUP4 PUSH3 0x4363 JUMP JUMPDEST PUSH17 0x383937B837B9B0B61036B4B9B9B4B73397 PUSH1 0x79 SHL DUP2 MSTORE PUSH1 0x20 ADD SWAP3 SWAP2 POP POP JUMP JUMPDEST PUSH1 0x0 PUSH3 0x3ACE PUSH1 0x18 DUP4 PUSH3 0x4363 JUMP JUMPDEST PUSH32 0x626173652073657474696E67206E6F74206578697374732E0000000000000000 DUP2 MSTORE PUSH1 0x20 ADD SWAP3 SWAP2 POP POP JUMP JUMPDEST PUSH1 0x0 PUSH3 0x3B09 PUSH1 0x1C DUP4 PUSH3 0x4363 JUMP JUMPDEST PUSH32 0x70726F706F7365722073657474696E67206E6F74206578697374732E00000000 DUP2 MSTORE PUSH1 0x20 ADD SWAP3 SWAP2 POP POP JUMP JUMPDEST PUSH1 0x0 PUSH3 0x3B44 PUSH1 0x15 DUP4 PUSH3 0x4363 JUMP JUMPDEST PUSH21 0x34B9379030B2323932B9B99034B99032B6B83A3C97 PUSH1 0x59 SHL DUP2 MSTORE PUSH1 0x20 ADD SWAP3 SWAP2 POP POP JUMP JUMPDEST PUSH1 0x0 PUSH3 0x3B77 PUSH1 0x18 DUP4 PUSH3 0x4363 JUMP JUMPDEST PUSH32 0x70726F706F73616C2069726F496420697320656D707479210000000000000000 DUP2 MSTORE PUSH1 0x20 ADD SWAP3 SWAP2 POP POP JUMP JUMPDEST PUSH1 0x0 PUSH3 0x3BB2 PUSH1 0x1E DUP4 PUSH3 0x4363 JUMP JUMPDEST PUSH32 0x6120696E76616C696420766F74652C20766F7465206E756D203C3D20302E0000 DUP2 MSTORE PUSH1 0x20 ADD SWAP3 SWAP2 POP POP JUMP JUMPDEST PUSH1 0x0 PUSH3 0x3BED PUSH1 0x1E DUP4 PUSH3 0x4363 JUMP JUMPDEST PUSH32 0x70726F706F73616C206D697373696E672C20636865636B2066697273742E0000 DUP2 MSTORE PUSH1 0x20 ADD SWAP3 SWAP2 POP POP JUMP JUMPDEST PUSH1 0x0 PUSH3 0x3C28 PUSH1 0x3F DUP4 PUSH3 0x4363 JUMP JUMPDEST PUSH32 0x70726F706F73616C20616C7265616479206578697374732C20706C6561736520 DUP2 MSTORE PUSH32 0x7265706C61636520776974682074686520636F6E7472616374206F776E657200 PUSH1 0x20 DUP3 ADD MSTORE PUSH1 0x40 ADD SWAP3 SWAP2 POP POP JUMP JUMPDEST PUSH1 0x0 PUSH3 0x3C89 PUSH1 0x1B DUP4 PUSH3 0x4363 JUMP JUMPDEST PUSH32 0x70726F706F73616C2073657269616C496420697320656D707479210000000000 DUP2 MSTORE PUSH1 0x20 ADD SWAP3 SWAP2 POP POP JUMP JUMPDEST PUSH1 0x0 PUSH3 0x3CC4 PUSH1 0x10 DUP4 PUSH3 0x4363 JUMP JUMPDEST PUSH16 0x3B37BA329034B99032BC3834B932B217 PUSH1 0x81 SHL DUP2 MSTORE PUSH1 0x20 ADD SWAP3 SWAP2 POP POP JUMP JUMPDEST PUSH1 0x0 PUSH3 0x3CF2 PUSH1 0x19 DUP4 PUSH3 0x4363 JUMP JUMPDEST PUSH32 0x766F7465722073657474696E67206E6F74206578697374732E00000000000000 DUP2 MSTORE PUSH1 0x20 ADD SWAP3 SWAP2 POP POP JUMP JUMPDEST PUSH1 0x0 PUSH3 0x3D2D PUSH1 0x1 DUP4 PUSH3 0x279B JUMP JUMPDEST PUSH1 0x1 PUSH1 0xFE SHL DUP2 MSTORE PUSH1 0x1 ADD SWAP3 SWAP2 POP POP JUMP JUMPDEST PUSH1 0x0 PUSH3 0x3D4C PUSH1 0x3A DUP4 PUSH3 0x4363 JUMP JUMPDEST PUSH32 0x7468652070726F706F73616C20636F756C64206E6F7420626520766F74656420 DUP2 MSTORE PUSH32 0x7768656E20737461747573206973206E6F7420766F74696E672E000000000000 PUSH1 0x20 DUP3 ADD MSTORE PUSH1 0x40 ADD SWAP3 SWAP2 POP POP JUMP JUMPDEST DUP1 MLOAD PUSH1 0x0 SWAP1 PUSH1 0x60 DUP5 ADD SWAP1 PUSH3 0x3DB4 DUP6 DUP3 PUSH3 0x40C0 JUMP JUMPDEST POP PUSH1 0x20 DUP4 ADD MLOAD PUSH3 0x3DC9 PUSH1 0x20 DUP7 ADD DUP3 PUSH3 0x40C0 JUMP JUMPDEST POP PUSH1 0x40 DUP4 ADD MLOAD DUP5 DUP3 SUB PUSH1 0x40 DUP7 ADD MSTORE PUSH3 0x3DE3 DUP3 DUP3 PUSH3 0x39ED JUMP JUMPDEST SWAP6 SWAP5 POP POP POP POP POP JUMP JUMPDEST DUP1 MLOAD PUSH1 0x0 SWAP1 PUSH2 0x100 DUP5 ADD SWAP1 PUSH3 0x3E03 DUP6 DUP3 PUSH3 0x3919 JUMP JUMPDEST POP PUSH1 0x20 DUP4 ADD MLOAD PUSH3 0x3E18 PUSH1 0x20 DUP7 ADD DUP3 PUSH3 0x39A9 JUMP JUMPDEST POP PUSH1 0x40 DUP4 ADD MLOAD PUSH3 0x3E2D PUSH1 0x40 DUP7 ADD DUP3 PUSH3 0x40C0 JUMP JUMPDEST POP PUSH1 0x60 DUP4 ADD MLOAD DUP5 DUP3 SUB PUSH1 0x60 DUP7 ADD MSTORE PUSH3 0x3E47 DUP3 DUP3 PUSH3 0x39ED JUMP JUMPDEST SWAP2 POP POP PUSH1 0x80 DUP4 ADD MLOAD PUSH3 0x3E5E PUSH1 0x80 DUP7 ADD DUP3 PUSH3 0x40C0 JUMP JUMPDEST POP PUSH1 0xA0 DUP4 ADD MLOAD PUSH3 0x3E73 PUSH1 0xA0 DUP7 ADD DUP3 PUSH3 0x40C0 JUMP JUMPDEST POP PUSH1 0xC0 DUP4 ADD MLOAD PUSH3 0x3E88 PUSH1 0xC0 DUP7 ADD DUP3 PUSH3 0x399E JUMP JUMPDEST POP PUSH1 0xE0 DUP4 ADD MLOAD PUSH3 0x3E9D PUSH1 0xE0 DUP7 ADD DUP3 PUSH3 0x399E JUMP JUMPDEST POP SWAP4 SWAP3 POP POP POP JUMP JUMPDEST DUP1 MLOAD PUSH2 0x1E0 DUP1 DUP5 MSTORE PUSH1 0x0 SWAP2 SWAP1 DUP5 ADD SWAP1 PUSH3 0x3EC0 DUP3 DUP3 PUSH3 0x39ED JUMP JUMPDEST SWAP2 POP POP PUSH1 0x20 DUP4 ADD MLOAD DUP5 DUP3 SUB PUSH1 0x20 DUP7 ADD MSTORE PUSH3 0x3EDC DUP3 DUP3 PUSH3 0x39ED JUMP JUMPDEST SWAP2 POP POP PUSH1 0x40 DUP4 ADD MLOAD DUP5 DUP3 SUB PUSH1 0x40 DUP7 ADD MSTORE PUSH3 0x3EF8 DUP3 DUP3 PUSH3 0x39ED JUMP JUMPDEST SWAP2 POP POP PUSH1 0x60 DUP4 ADD MLOAD PUSH3 0x3F0F PUSH1 0x60 DUP7 ADD DUP3 PUSH3 0x39BF JUMP JUMPDEST POP PUSH1 0x80 DUP4 ADD MLOAD PUSH3 0x3F24 PUSH1 0x80 DUP7 ADD DUP3 PUSH3 0x39B4 JUMP JUMPDEST POP PUSH1 0xA0 DUP4 ADD MLOAD DUP5 DUP3 SUB PUSH1 0xA0 DUP7 ADD MSTORE PUSH3 0x3F3E DUP3 DUP3 PUSH3 0x39ED JUMP JUMPDEST SWAP2 POP POP PUSH1 0xC0 DUP4 ADD MLOAD DUP5 DUP3 SUB PUSH1 0xC0 DUP7 ADD MSTORE PUSH3 0x3F5A DUP3 DUP3 PUSH3 0x39ED JUMP JUMPDEST SWAP2 POP POP PUSH1 0xE0 DUP4 ADD MLOAD DUP5 DUP3 SUB PUSH1 0xE0 DUP7 ADD MSTORE PUSH3 0x3F76 DUP3 DUP3 PUSH3 0x3DEC JUMP JUMPDEST SWAP2 POP POP PUSH2 0x100 DUP4 ADD MLOAD PUSH3 0x3F8F PUSH2 0x100 DUP7 ADD DUP3 PUSH3 0x3FD4 JUMP JUMPDEST POP PUSH2 0x120 DUP4 ADD MLOAD PUSH3 0x3FA6 PUSH2 0x120 DUP7 ADD DUP3 PUSH3 0x4073 JUMP JUMPDEST POP PUSH2 0x140 DUP4 ADD MLOAD PUSH3 0x3FBD PUSH2 0x1A0 DUP7 ADD DUP3 PUSH3 0x40C0 JUMP JUMPDEST POP PUSH2 0x160 DUP4 ADD MLOAD PUSH3 0x3E9D PUSH2 0x1C0 DUP7 ADD DUP3 PUSH3 0x3919 JUMP JUMPDEST DUP1 MLOAD PUSH1 0x20 DUP4 ADD SWAP1 PUSH3 0x212B DUP5 DUP3 PUSH3 0x39BF JUMP JUMPDEST DUP1 MLOAD PUSH1 0xC0 DUP1 DUP5 MSTORE PUSH1 0x0 SWAP2 SWAP1 DUP5 ADD SWAP1 PUSH3 0x4001 DUP3 DUP3 PUSH3 0x39ED JUMP JUMPDEST SWAP2 POP POP PUSH1 0x20 DUP4 ADD MLOAD DUP5 DUP3 SUB PUSH1 0x20 DUP7 ADD MSTORE PUSH3 0x401D DUP3 DUP3 PUSH3 0x39ED JUMP JUMPDEST SWAP2 POP POP PUSH1 0x40 DUP4 ADD MLOAD PUSH3 0x4034 PUSH1 0x40 DUP7 ADD DUP3 PUSH3 0x3919 JUMP JUMPDEST POP PUSH1 0x60 DUP4 ADD MLOAD PUSH3 0x4049 PUSH1 0x60 DUP7 ADD DUP3 PUSH3 0x40C0 JUMP JUMPDEST POP PUSH1 0x80 DUP4 ADD MLOAD PUSH3 0x405E PUSH1 0x80 DUP7 ADD DUP3 PUSH3 0x40C0 JUMP JUMPDEST POP PUSH1 0xA0 DUP4 ADD MLOAD PUSH3 0x3E9D PUSH1 0xA0 DUP7 ADD DUP3 PUSH3 0x40C0 JUMP JUMPDEST DUP1 MLOAD PUSH1 0x80 DUP4 ADD SWAP1 PUSH3 0x4086 DUP5 DUP3 PUSH3 0x40C0 JUMP JUMPDEST POP PUSH1 0x20 DUP3 ADD MLOAD PUSH3 0x409B PUSH1 0x20 DUP6 ADD DUP3 PUSH3 0x40C0 JUMP JUMPDEST POP PUSH1 0x40 DUP3 ADD MLOAD PUSH3 0x40B0 PUSH1 0x40 DUP6 ADD DUP3 PUSH3 0x40C0 JUMP JUMPDEST POP PUSH1 0x60 DUP3 ADD MLOAD PUSH3 0x212B PUSH1 0x60 DUP6 ADD DUP3 JUMPDEST PUSH3 0x3913 DUP2 PUSH3 0x2C1E JUMP JUMPDEST PUSH1 0x0 PUSH3 0x1686 DUP3 DUP5 DUP7 PUSH3 0x39CA JUMP JUMPDEST PUSH1 0x0 PUSH3 0x3901 DUP3 DUP5 PUSH3 0x3A2D JUMP JUMPDEST PUSH1 0x0 PUSH3 0x40F6 DUP3 DUP6 PUSH3 0x3A2D JUMP JUMPDEST SWAP2 POP PUSH3 0x4103 DUP3 PUSH3 0x3D1E JUMP JUMPDEST SWAP2 POP PUSH3 0x1686 DUP3 DUP5 PUSH3 0x3A2D JUMP JUMPDEST PUSH1 0x60 DUP2 ADD PUSH3 0x4121 DUP3 DUP7 PUSH3 0x3908 JUMP JUMPDEST PUSH3 0x4130 PUSH1 0x20 DUP4 ADD DUP6 PUSH3 0x3908 JUMP JUMPDEST PUSH3 0x1686 PUSH1 0x40 DUP4 ADD DUP5 PUSH3 0x40C0 JUMP JUMPDEST PUSH1 0x60 DUP2 ADD PUSH3 0x414F DUP3 DUP7 PUSH3 0x399E JUMP JUMPDEST PUSH3 0x4130 PUSH1 0x20 DUP4 ADD DUP6 PUSH3 0x3919 JUMP JUMPDEST PUSH1 0x20 DUP2 ADD PUSH3 0x15D3 DUP3 DUP5 PUSH3 0x39BF JUMP JUMPDEST PUSH1 0x40 DUP2 ADD PUSH3 0x417E DUP3 DUP6 PUSH3 0x39BF JUMP JUMPDEST PUSH3 0x3901 PUSH1 0x20 DUP4 ADD DUP5 PUSH3 0x39BF JUMP JUMPDEST PUSH1 0x20 DUP1 DUP3 MSTORE DUP2 ADD PUSH3 0x3901 DUP2 DUP5 PUSH3 0x39ED JUMP JUMPDEST PUSH1 0x20 DUP1 DUP3 MSTORE DUP2 ADD PUSH3 0x2798 DUP2 PUSH3 0x3A62 JUMP JUMPDEST PUSH1 0x20 DUP1 DUP3 MSTORE DUP2 ADD PUSH3 0x2798 DUP2 PUSH3 0x3A90 JUMP JUMPDEST PUSH1 0x20 DUP1 DUP3 MSTORE DUP2 ADD PUSH3 0x2798 DUP2 PUSH3 0x3ABF JUMP JUMPDEST PUSH1 0x20 DUP1 DUP3 MSTORE DUP2 ADD PUSH3 0x2798 DUP2 PUSH3 0x3AFA JUMP JUMPDEST PUSH1 0x20 DUP1 DUP3 MSTORE DUP2 ADD PUSH3 0x2798 DUP2 PUSH3 0x3B35 JUMP JUMPDEST PUSH1 0x20 DUP1 DUP3 MSTORE DUP2 ADD PUSH3 0x2798 DUP2 PUSH3 0x3B68 JUMP JUMPDEST PUSH1 0x20 DUP1 DUP3 MSTORE DUP2 ADD PUSH3 0x2798 DUP2 PUSH3 0x3BA3 JUMP JUMPDEST PUSH1 0x20 DUP1 DUP3 MSTORE DUP2 ADD PUSH3 0x2798 DUP2 PUSH3 0x3BDE JUMP JUMPDEST PUSH1 0x20 DUP1 DUP3 MSTORE DUP2 ADD PUSH3 0x2798 DUP2 PUSH3 0x3C19 JUMP JUMPDEST PUSH1 0x20 DUP1 DUP3 MSTORE DUP2 ADD PUSH3 0x2798 DUP2 PUSH3 0x3C7A JUMP JUMPDEST PUSH1 0x20 DUP1 DUP3 MSTORE DUP2 ADD PUSH3 0x2798 DUP2 PUSH3 0x3CB5 JUMP JUMPDEST PUSH1 0x20 DUP1 DUP3 MSTORE DUP2 ADD PUSH3 0x2798 DUP2 PUSH3 0x3CE3 JUMP JUMPDEST PUSH1 0x20 DUP1 DUP3 MSTORE DUP2 ADD PUSH3 0x2798 DUP2 PUSH3 0x3D3D JUMP JUMPDEST PUSH1 0x20 DUP1 DUP3 MSTORE DUP2 ADD PUSH3 0x3901 DUP2 DUP5 PUSH3 0x3EA5 JUMP JUMPDEST PUSH1 0x40 DUP1 DUP3 MSTORE DUP2 ADD PUSH3 0x42B0 DUP2 DUP6 PUSH3 0x3EA5 JUMP JUMPDEST SWAP1 POP DUP2 DUP2 SUB PUSH1 0x20 DUP4 ADD MSTORE PUSH3 0x1686 DUP2 DUP5 PUSH3 0x3924 JUMP JUMPDEST PUSH1 0x20 DUP1 DUP3 MSTORE DUP2 ADD PUSH3 0x3901 DUP2 DUP5 PUSH3 0x3FE7 JUMP JUMPDEST PUSH1 0x20 DUP2 ADD PUSH3 0x15D3 DUP3 DUP5 PUSH3 0x40C0 JUMP JUMPDEST PUSH1 0x40 MLOAD DUP2 DUP2 ADD PUSH1 0x1 PUSH1 0x1 PUSH1 0x40 SHL SUB DUP2 GT DUP3 DUP3 LT OR ISZERO PUSH3 0x4308 JUMPI PUSH1 0x0 DUP1 REVERT JUMPDEST PUSH1 0x40 MSTORE SWAP2 SWAP1 POP JUMP JUMPDEST PUSH1 0x0 PUSH1 0x1 PUSH1 0x1 PUSH1 0x40 SHL SUB DUP3 GT ISZERO PUSH3 0x4327 JUMPI PUSH1 0x0 DUP1 REVERT JUMPDEST POP PUSH1 0x20 SWAP1 DUP2 MUL ADD SWAP1 JUMP JUMPDEST PUSH1 0x0 PUSH1 0x1 PUSH1 0x1 PUSH1 0x40 SHL SUB DUP3 GT ISZERO PUSH3 0x4348 JUMPI PUSH1 0x0 DUP1 REVERT JUMPDEST POP PUSH1 0x20 PUSH1 0x1F SWAP2 SWAP1 SWAP2 ADD PUSH1 0x1F NOT AND ADD SWAP1 JUMP JUMPDEST PUSH1 0x20 ADD SWAP1 JUMP JUMPDEST MLOAD SWAP1 JUMP JUMPDEST SWAP1 DUP2 MSTORE PUSH1 0x20 ADD SWAP1 JUMP JUMPDEST PUSH1 0x0 PUSH3 0x2798 DUP3 PUSH3 0x43AF JUMP JUMPDEST ISZERO ISZERO SWAP1 JUMP JUMPDEST PUSH1 0x0 PUSH3 0x2798 DUP3 PUSH3 0x436C JUMP JUMPDEST DUP1 PUSH3 0x279B DUP2 PUSH3 0x4434 JUMP JUMPDEST DUP1 PUSH3 0x279B DUP2 PUSH3 0x4442 JUMP JUMPDEST DUP1 PUSH3 0x279B DUP2 PUSH3 0x444D JUMP JUMPDEST PUSH1 0x1 PUSH1 0x1 PUSH1 0xA0 SHL SUB AND SWAP1 JUMP JUMPDEST PUSH1 0x0 PUSH3 0x2798 DUP3 PUSH3 0x437E JUMP JUMPDEST PUSH1 0x0 PUSH3 0x2798 DUP3 PUSH3 0x438B JUMP JUMPDEST PUSH1 0x0 PUSH3 0x2798 DUP3 PUSH3 0x4397 JUMP JUMPDEST PUSH1 0x0 PUSH3 0x2798 DUP3 PUSH3 0x43A3 JUMP JUMPDEST DUP3 DUP2 DUP4 CALLDATACOPY POP PUSH1 0x0 SWAP2 ADD MSTORE JUMP JUMPDEST PUSH1 0x0 JUMPDEST DUP4 DUP2 LT ISZERO PUSH3 0x4418 JUMPI DUP2 DUP2 ADD MLOAD DUP4 DUP3 ADD MSTORE PUSH1 0x20 ADD PUSH3 0x43FE JUMP JUMPDEST DUP4 DUP2 GT ISZERO PUSH3 0x212B JUMPI POP POP PUSH1 0x0 SWAP2 ADD MSTORE JUMP JUMPDEST PUSH1 0x1F ADD PUSH1 0x1F NOT AND SWAP1 JUMP JUMPDEST PUSH1 0x2 DUP2 LT PUSH3 0x443F JUMPI INVALID JUMPDEST POP JUMP JUMPDEST PUSH1 0x7 DUP2 LT PUSH3 0x443F JUMPI INVALID JUMPDEST PUSH1 0x4 DUP2 LT PUSH3 0x443F JUMPI INVALID JUMPDEST PUSH3 0x4463 DUP2 PUSH3 0x436C JUMP JUMPDEST DUP2 EQ PUSH3 0x443F JUMPI PUSH1 0x0 DUP1 REVERT JUMPDEST PUSH3 0x4463 DUP2 PUSH3 0x4379 JUMP JUMPDEST PUSH3 0x4463 DUP2 PUSH3 0x437E JUMP JUMPDEST PUSH1 0x2 DUP2 LT PUSH3 0x443F JUMPI PUSH1 0x0 DUP1 REVERT JUMPDEST PUSH1 0x7 DUP2 LT PUSH3 0x443F JUMPI PUSH1 0x0 DUP1 REVERT JUMPDEST PUSH1 0x4 DUP2 LT PUSH3 0x443F JUMPI PUSH1 0x0 DUP1 REVERT JUMPDEST PUSH3 0x4463 DUP2 PUSH3 0x2C1E JUMP INVALID PUSH1 0x80 PUSH1 0x40 MSTORE CALLVALUE DUP1 ISZERO PUSH2 0x10 JUMPI PUSH1 0x0 DUP1 REVERT JUMPDEST POP PUSH1 0x40 MLOAD PUSH2 0x6CE CODESIZE SUB DUP1 PUSH2 0x6CE DUP4 CODECOPY DUP2 ADD PUSH1 0x40 DUP2 SWAP1 MSTORE PUSH2 0x2F SWAP2 PUSH2 0x138 JUMP JUMPDEST DUP1 MLOAD PUSH2 0x42 SWAP1 PUSH1 0x0 SWAP1 PUSH1 0x20 DUP5 ADD SWAP1 PUSH2 0x49 JUMP JUMPDEST POP POP PUSH2 0x1F1 JUMP JUMPDEST DUP3 DUP1 SLOAD PUSH1 0x1 DUP2 PUSH1 0x1 AND ISZERO PUSH2 0x100 MUL SUB AND PUSH1 0x2 SWAP1 DIV SWAP1 PUSH1 0x0 MSTORE PUSH1 0x20 PUSH1 0x0 KECCAK256 SWAP1 PUSH1 0x1F ADD PUSH1 0x20 SWAP1 DIV DUP2 ADD SWAP3 DUP3 PUSH1 0x1F LT PUSH2 0x8A JUMPI DUP1 MLOAD PUSH1 0xFF NOT AND DUP4 DUP1 ADD OR DUP6 SSTORE PUSH2 0xB7 JUMP JUMPDEST DUP3 DUP1 ADD PUSH1 0x1 ADD DUP6 SSTORE DUP3 ISZERO PUSH2 0xB7 JUMPI SWAP2 DUP3 ADD JUMPDEST DUP3 DUP2 GT ISZERO PUSH2 0xB7 JUMPI DUP3 MLOAD DUP3 SSTORE SWAP2 PUSH1 0x20 ADD SWAP2 SWAP1 PUSH1 0x1 ADD SWAP1 PUSH2 0x9C JUMP JUMPDEST POP PUSH2 0xC3 SWAP3 SWAP2 POP PUSH2 0xC7 JUMP JUMPDEST POP SWAP1 JUMP JUMPDEST PUSH2 0xE1 SWAP2 SWAP1 JUMPDEST DUP1 DUP3 GT ISZERO PUSH2 0xC3 JUMPI PUSH1 0x0 DUP2 SSTORE PUSH1 0x1 ADD PUSH2 0xCD JUMP JUMPDEST SWAP1 JUMP JUMPDEST PUSH1 0x0 DUP3 PUSH1 0x1F DUP4 ADD SLT PUSH2 0xF5 JUMPI PUSH1 0x0 DUP1 REVERT JUMPDEST DUP2 MLOAD PUSH2 0x108 PUSH2 0x103 DUP3 PUSH2 0x19A JUMP JUMPDEST PUSH2 0x174 JUMP JUMPDEST SWAP2 POP DUP1 DUP3 MSTORE PUSH1 0x20 DUP4 ADD PUSH1 0x20 DUP4 ADD DUP6 DUP4 DUP4 ADD GT ISZERO PUSH2 0x124 JUMPI PUSH1 0x0 DUP1 REVERT JUMPDEST PUSH2 0x12F DUP4 DUP3 DUP5 PUSH2 0x1C1 JUMP JUMPDEST POP POP POP SWAP3 SWAP2 POP POP JUMP JUMPDEST PUSH1 0x0 PUSH1 0x20 DUP3 DUP5 SUB SLT ISZERO PUSH2 0x14A JUMPI PUSH1 0x0 DUP1 REVERT JUMPDEST DUP2 MLOAD PUSH1 0x1 PUSH1 0x1 PUSH1 0x40 SHL SUB DUP2 GT ISZERO PUSH2 0x160 JUMPI PUSH1 0x0 DUP1 REVERT JUMPDEST PUSH2 0x16C DUP5 DUP3 DUP6 ADD PUSH2 0xE4 JUMP JUMPDEST SWAP5 SWAP4 POP POP POP POP JUMP JUMPDEST PUSH1 0x40 MLOAD DUP2 DUP2 ADD PUSH1 0x1 PUSH1 0x1 PUSH1 0x40 SHL SUB DUP2 GT DUP3 DUP3 LT OR ISZERO PUSH2 0x192 JUMPI PUSH1 0x0 DUP1 REVERT JUMPDEST PUSH1 0x40 MSTORE SWAP2 SWAP1 POP JUMP JUMPDEST PUSH1 0x0 PUSH1 0x1 PUSH1 0x1 PUSH1 0x40 SHL SUB DUP3 GT ISZERO PUSH2 0x1B0 JUMPI PUSH1 0x0 DUP1 REVERT JUMPDEST POP PUSH1 0x20 PUSH1 0x1F SWAP2 SWAP1 SWAP2 ADD PUSH1 0x1F NOT AND ADD SWAP1 JUMP JUMPDEST PUSH1 0x0 JUMPDEST DUP4 DUP2 LT ISZERO PUSH2 0x1DC JUMPI DUP2 DUP2 ADD MLOAD DUP4 DUP3 ADD MSTORE PUSH1 0x20 ADD PUSH2 0x1C4 JUMP JUMPDEST DUP4 DUP2 GT ISZERO PUSH2 0x1EB JUMPI PUSH1 0x0 DUP5 DUP5 ADD MSTORE JUMPDEST POP POP POP POP JUMP JUMPDEST PUSH2 0x4CE DUP1 PUSH2 0x200 PUSH1 0x0 CODECOPY PUSH1 0x0 RETURN INVALID PUSH1 0x80 PUSH1 0x40 MSTORE PUSH1 0x4 CALLDATASIZE LT PUSH2 0x4A JUMPI PUSH1 0x0 CALLDATALOAD PUSH1 0xE0 SHR DUP1 PUSH4 0x38CC4831 EQ PUSH2 0x4C JUMPI DUP1 PUSH4 0x4F95A04B EQ PUSH2 0x77 JUMPI DUP1 PUSH4 0xBEABACC8 EQ PUSH2 0x8A JUMPI DUP1 PUSH4 0xE1F21C67 EQ PUSH2 0xAA JUMPI DUP1 PUSH4 0xFB1E6A62 EQ PUSH2 0xCA JUMPI JUMPDEST STOP JUMPDEST CALLVALUE DUP1 ISZERO PUSH2 0x58 JUMPI PUSH1 0x0 DUP1 REVERT JUMPDEST POP PUSH2 0x61 PUSH2 0xEC JUMP JUMPDEST PUSH1 0x40 MLOAD PUSH2 0x6E SWAP2 SWAP1 PUSH2 0x3A7 JUMP JUMPDEST PUSH1 0x40 MLOAD DUP1 SWAP2 SUB SWAP1 RETURN JUMPDEST PUSH2 0x4A PUSH2 0x85 CALLDATASIZE PUSH1 0x4 PUSH2 0x2AA JUMP JUMPDEST PUSH2 0xF0 JUMP JUMPDEST CALLVALUE DUP1 ISZERO PUSH2 0x96 JUMPI PUSH1 0x0 DUP1 REVERT JUMPDEST POP PUSH2 0x4A PUSH2 0xA5 CALLDATASIZE PUSH1 0x4 PUSH2 0x30A JUMP JUMPDEST PUSH2 0x12B JUMP JUMPDEST CALLVALUE DUP1 ISZERO PUSH2 0xB6 JUMPI PUSH1 0x0 DUP1 REVERT JUMPDEST POP PUSH2 0x4A PUSH2 0xC5 CALLDATASIZE PUSH1 0x4 PUSH2 0x30A JUMP JUMPDEST PUSH2 0x1B4 JUMP JUMPDEST CALLVALUE DUP1 ISZERO PUSH2 0xD6 JUMPI PUSH1 0x0 DUP1 REVERT JUMPDEST POP PUSH2 0xDF PUSH2 0x1E2 JUMP JUMPDEST PUSH1 0x40 MLOAD PUSH2 0x6E SWAP2 SWAP1 PUSH2 0x3D7 JUMP JUMPDEST ADDRESS SWAP1 JUMP JUMPDEST PUSH1 0x40 MLOAD PUSH1 0x1 PUSH1 0x1 PUSH1 0xA0 SHL SUB DUP4 AND SWAP1 DUP3 ISZERO PUSH2 0x8FC MUL SWAP1 DUP4 SWAP1 PUSH1 0x0 DUP2 DUP2 DUP2 DUP6 DUP9 DUP9 CALL SWAP4 POP POP POP POP ISZERO DUP1 ISZERO PUSH2 0x126 JUMPI RETURNDATASIZE PUSH1 0x0 DUP1 RETURNDATACOPY RETURNDATASIZE PUSH1 0x0 REVERT JUMPDEST POP POP POP JUMP JUMPDEST PUSH1 0x40 MLOAD PUSH4 0xA9059CBB PUSH1 0xE0 SHL DUP2 MSTORE PUSH1 0x1 PUSH1 0x1 PUSH1 0xA0 SHL SUB DUP5 AND SWAP1 PUSH4 0xA9059CBB SWAP1 PUSH2 0x159 SWAP1 DUP6 SWAP1 DUP6 SWAP1 PUSH1 0x4 ADD PUSH2 0x3B5 JUMP JUMPDEST PUSH1 0x20 PUSH1 0x40 MLOAD DUP1 DUP4 SUB DUP2 PUSH1 0x0 DUP8 DUP1 EXTCODESIZE ISZERO DUP1 ISZERO PUSH2 0x173 JUMPI PUSH1 0x0 DUP1 REVERT JUMPDEST POP GAS CALL ISZERO DUP1 ISZERO PUSH2 0x187 JUMPI RETURNDATASIZE PUSH1 0x0 DUP1 RETURNDATACOPY RETURNDATASIZE PUSH1 0x0 REVERT JUMPDEST POP POP POP POP PUSH1 0x40 MLOAD RETURNDATASIZE PUSH1 0x1F NOT PUSH1 0x1F DUP3 ADD AND DUP3 ADD DUP1 PUSH1 0x40 MSTORE POP PUSH2 0x1AB SWAP2 SWAP1 DUP2 ADD SWAP1 PUSH2 0x2E4 JUMP JUMPDEST PUSH2 0x126 JUMPI PUSH1 0x0 DUP1 REVERT JUMPDEST PUSH1 0x40 MLOAD PUSH4 0x95EA7B3 PUSH1 0xE0 SHL DUP2 MSTORE PUSH1 0x1 PUSH1 0x1 PUSH1 0xA0 SHL SUB DUP5 AND SWAP1 PUSH4 0x95EA7B3 SWAP1 PUSH2 0x159 SWAP1 DUP6 SWAP1 DUP6 SWAP1 PUSH1 0x4 ADD PUSH2 0x3B5 JUMP JUMPDEST PUSH1 0x0 DUP1 SLOAD PUSH1 0x40 DUP1 MLOAD PUSH1 0x20 PUSH1 0x1F PUSH1 0x2 PUSH1 0x0 NOT PUSH2 0x100 PUSH1 0x1 DUP9 AND ISZERO MUL ADD SWAP1 SWAP6 AND SWAP5 SWAP1 SWAP5 DIV SWAP4 DUP5 ADD DUP2 SWAP1 DIV DUP2 MUL DUP3 ADD DUP2 ADD SWAP1 SWAP3 MSTORE DUP3 DUP2 MSTORE PUSH1 0x60 SWAP4 SWAP1 SWAP3 SWAP1 SWAP2 DUP4 ADD DUP3 DUP3 DUP1 ISZERO PUSH2 0x26E JUMPI DUP1 PUSH1 0x1F LT PUSH2 0x243 JUMPI PUSH2 0x100 DUP1 DUP4 SLOAD DIV MUL DUP4 MSTORE SWAP2 PUSH1 0x20 ADD SWAP2 PUSH2 0x26E JUMP JUMPDEST DUP3 ADD SWAP2 SWAP1 PUSH1 0x0 MSTORE PUSH1 0x20 PUSH1 0x0 KECCAK256 SWAP1 JUMPDEST DUP2 SLOAD DUP2 MSTORE SWAP1 PUSH1 0x1 ADD SWAP1 PUSH1 0x20 ADD DUP1 DUP4 GT PUSH2 0x251 JUMPI DUP3 SWAP1 SUB PUSH1 0x1F AND DUP3 ADD SWAP2 JUMPDEST POP POP POP POP POP SWAP1 POP SWAP1 JUMP JUMPDEST DUP1 CALLDATALOAD PUSH2 0x283 DUP2 PUSH2 0x459 JUMP JUMPDEST SWAP3 SWAP2 POP POP JUMP JUMPDEST DUP1 MLOAD PUSH2 0x283 DUP2 PUSH2 0x470 JUMP JUMPDEST DUP1 CALLDATALOAD PUSH2 0x283 DUP2 PUSH2 0x479 JUMP JUMPDEST DUP1 CALLDATALOAD PUSH2 0x283 DUP2 PUSH2 0x482 JUMP JUMPDEST PUSH1 0x0 DUP1 PUSH1 0x40 DUP4 DUP6 SUB SLT ISZERO PUSH2 0x2BD JUMPI PUSH1 0x0 DUP1 REVERT JUMPDEST PUSH1 0x0 PUSH2 0x2C9 DUP6 DUP6 PUSH2 0x278 JUMP JUMPDEST SWAP3 POP POP PUSH1 0x20 PUSH2 0x2DA DUP6 DUP3 DUP7 ADD PUSH2 0x29F JUMP JUMPDEST SWAP2 POP POP SWAP3 POP SWAP3 SWAP1 POP JUMP JUMPDEST PUSH1 0x0 PUSH1 0x20 DUP3 DUP5 SUB SLT ISZERO PUSH2 0x2F6 JUMPI PUSH1 0x0 DUP1 REVERT JUMPDEST PUSH1 0x0 PUSH2 0x302 DUP5 DUP5 PUSH2 0x289 JUMP JUMPDEST SWAP5 SWAP4 POP POP POP POP JUMP JUMPDEST PUSH1 0x0 DUP1 PUSH1 0x0 PUSH1 0x60 DUP5 DUP7 SUB SLT ISZERO PUSH2 0x31F JUMPI PUSH1 0x0 DUP1 REVERT JUMPDEST PUSH1 0x0 PUSH2 0x32B DUP7 DUP7 PUSH2 0x294 JUMP JUMPDEST SWAP4 POP POP PUSH1 0x20 PUSH2 0x33C DUP7 DUP3 DUP8 ADD PUSH2 0x278 JUMP JUMPDEST SWAP3 POP POP PUSH1 0x40 PUSH2 0x34D DUP7 DUP3 DUP8 ADD PUSH2 0x29F JUMP JUMPDEST SWAP2 POP POP SWAP3 POP SWAP3 POP SWAP3 JUMP JUMPDEST PUSH2 0x360 DUP2 PUSH2 0x3F5 JUMP JUMPDEST DUP3 MSTORE POP POP JUMP JUMPDEST PUSH1 0x0 PUSH2 0x371 DUP3 PUSH2 0x3E8 JUMP JUMPDEST PUSH2 0x37B DUP2 DUP6 PUSH2 0x3EC JUMP JUMPDEST SWAP4 POP PUSH2 0x38B DUP2 DUP6 PUSH1 0x20 DUP7 ADD PUSH2 0x41F JUMP JUMPDEST PUSH2 0x394 DUP2 PUSH2 0x44F JUMP JUMPDEST SWAP1 SWAP4 ADD SWAP4 SWAP3 POP POP POP JUMP JUMPDEST PUSH2 0x360 DUP2 PUSH2 0x41C JUMP JUMPDEST PUSH1 0x20 DUP2 ADD PUSH2 0x283 DUP3 DUP5 PUSH2 0x357 JUMP JUMPDEST PUSH1 0x40 DUP2 ADD PUSH2 0x3C3 DUP3 DUP6 PUSH2 0x357 JUMP JUMPDEST PUSH2 0x3D0 PUSH1 0x20 DUP4 ADD DUP5 PUSH2 0x39E JUMP JUMPDEST SWAP4 SWAP3 POP POP POP JUMP JUMPDEST PUSH1 0x20 DUP1 DUP3 MSTORE DUP2 ADD PUSH2 0x3D0 DUP2 DUP5 PUSH2 0x366 JUMP JUMPDEST MLOAD SWAP1 JUMP JUMPDEST SWAP1 DUP2 MSTORE PUSH1 0x20 ADD SWAP1 JUMP JUMPDEST PUSH1 0x0 PUSH2 0x283 DUP3 PUSH2 0x410 JUMP JUMPDEST ISZERO ISZERO SWAP1 JUMP JUMPDEST PUSH1 0x0 PUSH2 0x283 DUP3 PUSH2 0x3F5 JUMP JUMPDEST PUSH1 0x1 PUSH1 0x1 PUSH1 0xA0 SHL SUB AND SWAP1 JUMP JUMPDEST SWAP1 JUMP JUMPDEST PUSH1 0x0 JUMPDEST DUP4 DUP2 LT ISZERO PUSH2 0x43A JUMPI DUP2 DUP2 ADD MLOAD DUP4 DUP3 ADD MSTORE PUSH1 0x20 ADD PUSH2 0x422 JUMP JUMPDEST DUP4 DUP2 GT ISZERO PUSH2 0x449 JUMPI PUSH1 0x0 DUP5 DUP5 ADD MSTORE JUMPDEST POP POP POP POP JUMP JUMPDEST PUSH1 0x1F ADD PUSH1 0x1F NOT AND SWAP1 JUMP JUMPDEST PUSH2 0x462 DUP2 PUSH2 0x3F5 JUMP JUMPDEST DUP2 EQ PUSH2 0x46D JUMPI PUSH1 0x0 DUP1 REVERT JUMPDEST POP JUMP JUMPDEST PUSH2 0x462 DUP2 PUSH2 0x400 JUMP JUMPDEST PUSH2 0x462 DUP2 PUSH2 0x405 JUMP JUMPDEST PUSH2 0x462 DUP2 PUSH2 0x41C JUMP INVALID LOG3 PUSH6 0x627A7A723158 KECCAK256 DUP12 0xD6 PUSH32 0xBF75F63BDF64CDCA5F69809AD9AD9A84EDE138D878B066C95A750592976C6578 PUSH17 0x6572696D656E74616CF564736F6C634300 SDIV LT STOP BLOCKHASH LOG3 PUSH6 0x627A7A723158 KECCAK256 SELFDESTRUCT 0x4A SWAP13 0xCC LOG1 0x5E NUMBER 0xC DUP1 POP 0xF7 EXTCODESIZE 0xA7 LOG1 0xDC DUP7 PUSH13 0x877BD8812B332295E8D511C44B SAR 0xB3 PUSH13 0x6578706572696D656E74616CF5 PUSH5 0x736F6C6343 STOP SDIV LT STOP BLOCKHASH "
		},
		"gasEstimates": {
			"creation": {
				"codeDepositCost": "3880600",
				"executionCost": "infinite",
				"totalCost": "infinite"
			},
			"external": {
				"accept((string,string,string,uint8,uint8,string,string,(address,uint8,uint256,string,uint256,uint256,address,address),(uint8),(uint256,uint256,uint256,uint256),uint256,address),(uint256,uint256,string)[])": "infinite",
				"decide(string,string,uint8)": "infinite",
				"doVote((string,string,address,uint256,uint256,uint256))": "infinite",
				"fullSet((string,string,string,uint8,uint8,string,string,(address,uint8,uint256,string,uint256,uint256,address,address),(uint8),(uint256,uint256,uint256,uint256),uint256,address),(uint256,uint256,string)[])": "infinite",
				"iroProposalCount(string)": "infinite",
				"proposalDetail(string,string)": "infinite",
				"proposalStatus(string,string)": "infinite",
				"releaseProposal(string,string)": "infinite",
				"setIROBase(address)": "infinite"
			},
			"internal": {
				"getPoolId(string memory,string memory)": "infinite",
				"getPoolId(struct Proposal.ProposalDetail memory)": "infinite",
				"internalIroProposalDetail(string memory)": "infinite",
				"internalProposal(string memory,string memory)": "infinite",
				"parseAddr(string memory)": "infinite"
			}
		},
		"methodIdentifiers": {
			"accept((string,string,string,uint8,uint8,string,string,(address,uint8,uint256,string,uint256,uint256,address,address),(uint8),(uint256,uint256,uint256,uint256),uint256,address),(uint256,uint256,string)[])": "3185febf",
			"decide(string,string,uint8)": "d46d6d8a",
			"doVote((string,string,address,uint256,uint256,uint256))": "59f7f240",
			"fullSet((string,string,string,uint8,uint8,string,string,(address,uint8,uint256,string,uint256,uint256,address,address),(uint8),(uint256,uint256,uint256,uint256),uint256,address),(uint256,uint256,string)[])": "c8d22036",
			"iroProposalCount(string)": "cee696c8",
			"proposalDetail(string,string)": "3122fef1",
			"proposalStatus(string,string)": "474b58c2",
			"releaseProposal(string,string)": "0f5e1849",
			"setIROBase(address)": "ffb135a8"
		}
	},
	"abi": [
		{
			"inputs": [
				{
					"internalType": "address",
					"name": "_iroAddress",
					"type": "address"
				}
			],
			"payable": false,
			"stateMutability": "nonpayable",
			"type": "constructor"
		},
		{
			"anonymous": false,
			"inputs": [
				{
					"indexed": true,
					"internalType": "string",
					"name": "id",
					"type": "string"
				},
				{
					"components": [
						{
							"internalType": "string",
							"name": "iroId",
							"type": "string"
						},
						{
							"internalType": "string",
							"name": "serialId",
							"type": "string"
						},
						{
							"internalType": "string",
							"name": "title",
							"type": "string"
						},
						{
							"internalType": "enum Proposal.ProposalStatus",
							"name": "status",
							"type": "uint8"
						},
						{
							"internalType": "enum Proposal.ProposalMode",
							"name": "mode",
							"type": "uint8"
						},
						{
							"internalType": "string",
							"name": "contact",
							"type": "string"
						},
						{
							"internalType": "string",
							"name": "description",
							"type": "string"
						},
						{
							"components": [
								{
									"internalType": "address",
									"name": "payer",
									"type": "address"
								},
								{
									"internalType": "enum Proposal.PaymentMode",
									"name": "mode",
									"type": "uint8"
								},
								{
									"internalType": "uint256",
									"name": "totalMonths",
									"type": "uint256"
								},
								{
									"internalType": "string",
									"name": "date",
									"type": "string"
								},
								{
									"internalType": "uint256",
									"name": "paymentAmount",
									"type": "uint256"
								},
								{
									"internalType": "uint256",
									"name": "totalAmount",
									"type": "uint256"
								},
								{
									"internalType": "contract IERC20",
									"name": "token",
									"type": "address"
								},
								{
									"internalType": "contract FundPool",
									"name": "pool",
									"type": "address"
								}
							],
							"internalType": "struct Proposal.Payment",
							"name": "payment",
							"type": "tuple"
						},
						{
							"components": [
								{
									"internalType": "enum IRO.ProposerDriver",
									"name": "driver",
									"type": "uint8"
								}
							],
							"internalType": "struct Proposal.ProposerSetup",
							"name": "proposerSetup",
							"type": "tuple"
						},
						{
							"components": [
								{
									"internalType": "uint256",
									"name": "voteMinSupporters",
									"type": "uint256"
								},
								{
									"internalType": "uint256",
									"name": "voteMinApprovalPercent",
									"type": "uint256"
								},
								{
									"internalType": "uint256",
									"name": "voteDurationHours",
									"type": "uint256"
								},
								{
									"internalType": "uint256",
									"name": "voteEndTime",
									"type": "uint256"
								}
							],
							"internalType": "struct Proposal.VoterSetup",
							"name": "voteSetup",
							"type": "tuple"
						},
						{
							"internalType": "uint256",
							"name": "blockTime",
							"type": "uint256"
						},
						{
							"internalType": "address",
							"name": "proposer",
							"type": "address"
						}
					],
					"indexed": false,
					"internalType": "struct Proposal.ProposalDetail",
					"name": "proposal",
					"type": "tuple"
				},
				{
					"components": [
						{
							"internalType": "uint256",
							"name": "index",
							"type": "uint256"
						},
						{
							"internalType": "uint256",
							"name": "token",
							"type": "uint256"
						},
						{
							"internalType": "string",
							"name": "terms",
							"type": "string"
						}
					],
					"indexed": false,
					"internalType": "struct Proposal.PaymentDetail[]",
					"name": "paymentDetails",
					"type": "tuple[]"
				}
			],
			"name": "accepted",
			"type": "event"
		},
		{
			"anonymous": false,
			"inputs": [
				{
					"indexed": true,
					"internalType": "string",
					"name": "id",
					"type": "string"
				},
				{
					"indexed": false,
					"internalType": "enum Proposal.ProposalStatus",
					"name": "original",
					"type": "uint8"
				},
				{
					"indexed": false,
					"internalType": "enum Proposal.ProposalStatus",
					"name": "target",
					"type": "uint8"
				}
			],
			"name": "statusChanged",
			"type": "event"
		},
		{
			"anonymous": false,
			"inputs": [
				{
					"indexed": true,
					"internalType": "string",
					"name": "id",
					"type": "string"
				},
				{
					"components": [
						{
							"internalType": "string",
							"name": "iroId",
							"type": "string"
						},
						{
							"internalType": "string",
							"name": "serialId",
							"type": "string"
						},
						{
							"internalType": "address",
							"name": "voter",
							"type": "address"
						},
						{
							"internalType": "uint256",
							"name": "pos",
							"type": "uint256"
						},
						{
							"internalType": "uint256",
							"name": "neg",
							"type": "uint256"
						},
						{
							"internalType": "uint256",
							"name": "voteBt",
							"type": "uint256"
						}
					],
					"indexed": false,
					"internalType": "struct Proposal.Vote",
					"name": "v",
					"type": "tuple"
				}
			],
			"name": "voted",
			"type": "event"
		},
		{
			"constant": false,
			"inputs": [
				{
					"components": [
						{
							"internalType": "string",
							"name": "iroId",
							"type": "string"
						},
						{
							"internalType": "string",
							"name": "serialId",
							"type": "string"
						},
						{
							"internalType": "string",
							"name": "title",
							"type": "string"
						},
						{
							"internalType": "enum Proposal.ProposalStatus",
							"name": "status",
							"type": "uint8"
						},
						{
							"internalType": "enum Proposal.ProposalMode",
							"name": "mode",
							"type": "uint8"
						},
						{
							"internalType": "string",
							"name": "contact",
							"type": "string"
						},
						{
							"internalType": "string",
							"name": "description",
							"type": "string"
						},
						{
							"components": [
								{
									"internalType": "address",
									"name": "payer",
									"type": "address"
								},
								{
									"internalType": "enum Proposal.PaymentMode",
									"name": "mode",
									"type": "uint8"
								},
								{
									"internalType": "uint256",
									"name": "totalMonths",
									"type": "uint256"
								},
								{
									"internalType": "string",
									"name": "date",
									"type": "string"
								},
								{
									"internalType": "uint256",
									"name": "paymentAmount",
									"type": "uint256"
								},
								{
									"internalType": "uint256",
									"name": "totalAmount",
									"type": "uint256"
								},
								{
									"internalType": "contract IERC20",
									"name": "token",
									"type": "address"
								},
								{
									"internalType": "contract FundPool",
									"name": "pool",
									"type": "address"
								}
							],
							"internalType": "struct Proposal.Payment",
							"name": "payment",
							"type": "tuple"
						},
						{
							"components": [
								{
									"internalType": "enum IRO.ProposerDriver",
									"name": "driver",
									"type": "uint8"
								}
							],
							"internalType": "struct Proposal.ProposerSetup",
							"name": "proposerSetup",
							"type": "tuple"
						},
						{
							"components": [
								{
									"internalType": "uint256",
									"name": "voteMinSupporters",
									"type": "uint256"
								},
								{
									"internalType": "uint256",
									"name": "voteMinApprovalPercent",
									"type": "uint256"
								},
								{
									"internalType": "uint256",
									"name": "voteDurationHours",
									"type": "uint256"
								},
								{
									"internalType": "uint256",
									"name": "voteEndTime",
									"type": "uint256"
								}
							],
							"internalType": "struct Proposal.VoterSetup",
							"name": "voteSetup",
							"type": "tuple"
						},
						{
							"internalType": "uint256",
							"name": "blockTime",
							"type": "uint256"
						},
						{
							"internalType": "address",
							"name": "proposer",
							"type": "address"
						}
					],
					"internalType": "struct Proposal.ProposalDetail",
					"name": "proposal",
					"type": "tuple"
				},
				{
					"components": [
						{
							"internalType": "uint256",
							"name": "index",
							"type": "uint256"
						},
						{
							"internalType": "uint256",
							"name": "token",
							"type": "uint256"
						},
						{
							"internalType": "string",
							"name": "terms",
							"type": "string"
						}
					],
					"internalType": "struct Proposal.PaymentDetail[]",
					"name": "paymentDetails",
					"type": "tuple[]"
				}
			],
			"name": "accept",
			"outputs": [
				{
					"components": [
						{
							"internalType": "string",
							"name": "iroId",
							"type": "string"
						},
						{
							"internalType": "string",
							"name": "serialId",
							"type": "string"
						},
						{
							"internalType": "string",
							"name": "title",
							"type": "string"
						},
						{
							"internalType": "enum Proposal.ProposalStatus",
							"name": "status",
							"type": "uint8"
						},
						{
							"internalType": "enum Proposal.ProposalMode",
							"name": "mode",
							"type": "uint8"
						},
						{
							"internalType": "string",
							"name": "contact",
							"type": "string"
						},
						{
							"internalType": "string",
							"name": "description",
							"type": "string"
						},
						{
							"components": [
								{
									"internalType": "address",
									"name": "payer",
									"type": "address"
								},
								{
									"internalType": "enum Proposal.PaymentMode",
									"name": "mode",
									"type": "uint8"
								},
								{
									"internalType": "uint256",
									"name": "totalMonths",
									"type": "uint256"
								},
								{
									"internalType": "string",
									"name": "date",
									"type": "string"
								},
								{
									"internalType": "uint256",
									"name": "paymentAmount",
									"type": "uint256"
								},
								{
									"internalType": "uint256",
									"name": "totalAmount",
									"type": "uint256"
								},
								{
									"internalType": "contract IERC20",
									"name": "token",
									"type": "address"
								},
								{
									"internalType": "contract FundPool",
									"name": "pool",
									"type": "address"
								}
							],
							"internalType": "struct Proposal.Payment",
							"name": "payment",
							"type": "tuple"
						},
						{
							"components": [
								{
									"internalType": "enum IRO.ProposerDriver",
									"name": "driver",
									"type": "uint8"
								}
							],
							"internalType": "struct Proposal.ProposerSetup",
							"name": "proposerSetup",
							"type": "tuple"
						},
						{
							"components": [
								{
									"internalType": "uint256",
									"name": "voteMinSupporters",
									"type": "uint256"
								},
								{
									"internalType": "uint256",
									"name": "voteMinApprovalPercent",
									"type": "uint256"
								},
								{
									"internalType": "uint256",
									"name": "voteDurationHours",
									"type": "uint256"
								},
								{
									"internalType": "uint256",
									"name": "voteEndTime",
									"type": "uint256"
								}
							],
							"internalType": "struct Proposal.VoterSetup",
							"name": "voteSetup",
							"type": "tuple"
						},
						{
							"internalType": "uint256",
							"name": "blockTime",
							"type": "uint256"
						},
						{
							"internalType": "address",
							"name": "proposer",
							"type": "address"
						}
					],
					"internalType": "struct Proposal.ProposalDetail",
					"name": "",
					"type": "tuple"
				}
			],
			"payable": true,
			"stateMutability": "payable",
			"type": "function"
		},
		{
			"constant": false,
			"inputs": [
				{
					"internalType": "string",
					"name": "id",
					"type": "string"
				},
				{
					"internalType": "string",
					"name": "serialId",
					"type": "string"
				},
				{
					"internalType": "enum Proposal.ProposalStatus",
					"name": "target",
					"type": "uint8"
				}
			],
			"name": "decide",
			"outputs": [],
			"payable": false,
			"stateMutability": "nonpayable",
			"type": "function"
		},
		{
			"constant": false,
			"inputs": [
				{
					"components": [
						{
							"internalType": "string",
							"name": "iroId",
							"type": "string"
						},
						{
							"internalType": "string",
							"name": "serialId",
							"type": "string"
						},
						{
							"internalType": "address",
							"name": "voter",
							"type": "address"
						},
						{
							"internalType": "uint256",
							"name": "pos",
							"type": "uint256"
						},
						{
							"internalType": "uint256",
							"name": "neg",
							"type": "uint256"
						},
						{
							"internalType": "uint256",
							"name": "voteBt",
							"type": "uint256"
						}
					],
					"internalType": "struct Proposal.Vote",
					"name": "v",
					"type": "tuple"
				}
			],
			"name": "doVote",
			"outputs": [],
			"payable": true,
			"stateMutability": "payable",
			"type": "function"
		},
		{
			"constant": false,
			"inputs": [
				{
					"components": [
						{
							"internalType": "string",
							"name": "iroId",
							"type": "string"
						},
						{
							"internalType": "string",
							"name": "serialId",
							"type": "string"
						},
						{
							"internalType": "string",
							"name": "title",
							"type": "string"
						},
						{
							"internalType": "enum Proposal.ProposalStatus",
							"name": "status",
							"type": "uint8"
						},
						{
							"internalType": "enum Proposal.ProposalMode",
							"name": "mode",
							"type": "uint8"
						},
						{
							"internalType": "string",
							"name": "contact",
							"type": "string"
						},
						{
							"internalType": "string",
							"name": "description",
							"type": "string"
						},
						{
							"components": [
								{
									"internalType": "address",
									"name": "payer",
									"type": "address"
								},
								{
									"internalType": "enum Proposal.PaymentMode",
									"name": "mode",
									"type": "uint8"
								},
								{
									"internalType": "uint256",
									"name": "totalMonths",
									"type": "uint256"
								},
								{
									"internalType": "string",
									"name": "date",
									"type": "string"
								},
								{
									"internalType": "uint256",
									"name": "paymentAmount",
									"type": "uint256"
								},
								{
									"internalType": "uint256",
									"name": "totalAmount",
									"type": "uint256"
								},
								{
									"internalType": "contract IERC20",
									"name": "token",
									"type": "address"
								},
								{
									"internalType": "contract FundPool",
									"name": "pool",
									"type": "address"
								}
							],
							"internalType": "struct Proposal.Payment",
							"name": "payment",
							"type": "tuple"
						},
						{
							"components": [
								{
									"internalType": "enum IRO.ProposerDriver",
									"name": "driver",
									"type": "uint8"
								}
							],
							"internalType": "struct Proposal.ProposerSetup",
							"name": "proposerSetup",
							"type": "tuple"
						},
						{
							"components": [
								{
									"internalType": "uint256",
									"name": "voteMinSupporters",
									"type": "uint256"
								},
								{
									"internalType": "uint256",
									"name": "voteMinApprovalPercent",
									"type": "uint256"
								},
								{
									"internalType": "uint256",
									"name": "voteDurationHours",
									"type": "uint256"
								},
								{
									"internalType": "uint256",
									"name": "voteEndTime",
									"type": "uint256"
								}
							],
							"internalType": "struct Proposal.VoterSetup",
							"name": "voteSetup",
							"type": "tuple"
						},
						{
							"internalType": "uint256",
							"name": "blockTime",
							"type": "uint256"
						},
						{
							"internalType": "address",
							"name": "proposer",
							"type": "address"
						}
					],
					"internalType": "struct Proposal.ProposalDetail",
					"name": "proposal",
					"type": "tuple"
				},
				{
					"components": [
						{
							"internalType": "uint256",
							"name": "index",
							"type": "uint256"
						},
						{
							"internalType": "uint256",
							"name": "token",
							"type": "uint256"
						},
						{
							"internalType": "string",
							"name": "terms",
							"type": "string"
						}
					],
					"internalType": "struct Proposal.PaymentDetail[]",
					"name": "paymentDetails",
					"type": "tuple[]"
				}
			],
			"name": "fullSet",
			"outputs": [
				{
					"components": [
						{
							"internalType": "string",
							"name": "iroId",
							"type": "string"
						},
						{
							"internalType": "string",
							"name": "serialId",
							"type": "string"
						},
						{
							"internalType": "string",
							"name": "title",
							"type": "string"
						},
						{
							"internalType": "enum Proposal.ProposalStatus",
							"name": "status",
							"type": "uint8"
						},
						{
							"internalType": "enum Proposal.ProposalMode",
							"name": "mode",
							"type": "uint8"
						},
						{
							"internalType": "string",
							"name": "contact",
							"type": "string"
						},
						{
							"internalType": "string",
							"name": "description",
							"type": "string"
						},
						{
							"components": [
								{
									"internalType": "address",
									"name": "payer",
									"type": "address"
								},
								{
									"internalType": "enum Proposal.PaymentMode",
									"name": "mode",
									"type": "uint8"
								},
								{
									"internalType": "uint256",
									"name": "totalMonths",
									"type": "uint256"
								},
								{
									"internalType": "string",
									"name": "date",
									"type": "string"
								},
								{
									"internalType": "uint256",
									"name": "paymentAmount",
									"type": "uint256"
								},
								{
									"internalType": "uint256",
									"name": "totalAmount",
									"type": "uint256"
								},
								{
									"internalType": "contract IERC20",
									"name": "token",
									"type": "address"
								},
								{
									"internalType": "contract FundPool",
									"name": "pool",
									"type": "address"
								}
							],
							"internalType": "struct Proposal.Payment",
							"name": "payment",
							"type": "tuple"
						},
						{
							"components": [
								{
									"internalType": "enum IRO.ProposerDriver",
									"name": "driver",
									"type": "uint8"
								}
							],
							"internalType": "struct Proposal.ProposerSetup",
							"name": "proposerSetup",
							"type": "tuple"
						},
						{
							"components": [
								{
									"internalType": "uint256",
									"name": "voteMinSupporters",
									"type": "uint256"
								},
								{
									"internalType": "uint256",
									"name": "voteMinApprovalPercent",
									"type": "uint256"
								},
								{
									"internalType": "uint256",
									"name": "voteDurationHours",
									"type": "uint256"
								},
								{
									"internalType": "uint256",
									"name": "voteEndTime",
									"type": "uint256"
								}
							],
							"internalType": "struct Proposal.VoterSetup",
							"name": "voteSetup",
							"type": "tuple"
						},
						{
							"internalType": "uint256",
							"name": "blockTime",
							"type": "uint256"
						},
						{
							"internalType": "address",
							"name": "proposer",
							"type": "address"
						}
					],
					"internalType": "struct Proposal.ProposalDetail",
					"name": "",
					"type": "tuple"
				}
			],
			"payable": false,
			"stateMutability": "nonpayable",
			"type": "function"
		},
		{
			"constant": true,
			"inputs": [
				{
					"internalType": "string",
					"name": "id",
					"type": "string"
				}
			],
			"name": "iroProposalCount",
			"outputs": [
				{
					"internalType": "uint256",
					"name": "",
					"type": "uint256"
				}
			],
			"payable": false,
			"stateMutability": "view",
			"type": "function"
		},
		{
			"constant": true,
			"inputs": [
				{
					"internalType": "string",
					"name": "id",
					"type": "string"
				},
				{
					"internalType": "string",
					"name": "serialId",
					"type": "string"
				}
			],
			"name": "proposalDetail",
			"outputs": [
				{
					"components": [
						{
							"internalType": "string",
							"name": "iroId",
							"type": "string"
						},
						{
							"internalType": "string",
							"name": "serialId",
							"type": "string"
						},
						{
							"internalType": "string",
							"name": "title",
							"type": "string"
						},
						{
							"internalType": "enum Proposal.ProposalStatus",
							"name": "status",
							"type": "uint8"
						},
						{
							"internalType": "enum Proposal.ProposalMode",
							"name": "mode",
							"type": "uint8"
						},
						{
							"internalType": "string",
							"name": "contact",
							"type": "string"
						},
						{
							"internalType": "string",
							"name": "description",
							"type": "string"
						},
						{
							"components": [
								{
									"internalType": "address",
									"name": "payer",
									"type": "address"
								},
								{
									"internalType": "enum Proposal.PaymentMode",
									"name": "mode",
									"type": "uint8"
								},
								{
									"internalType": "uint256",
									"name": "totalMonths",
									"type": "uint256"
								},
								{
									"internalType": "string",
									"name": "date",
									"type": "string"
								},
								{
									"internalType": "uint256",
									"name": "paymentAmount",
									"type": "uint256"
								},
								{
									"internalType": "uint256",
									"name": "totalAmount",
									"type": "uint256"
								},
								{
									"internalType": "contract IERC20",
									"name": "token",
									"type": "address"
								},
								{
									"internalType": "contract FundPool",
									"name": "pool",
									"type": "address"
								}
							],
							"internalType": "struct Proposal.Payment",
							"name": "payment",
							"type": "tuple"
						},
						{
							"components": [
								{
									"internalType": "enum IRO.ProposerDriver",
									"name": "driver",
									"type": "uint8"
								}
							],
							"internalType": "struct Proposal.ProposerSetup",
							"name": "proposerSetup",
							"type": "tuple"
						},
						{
							"components": [
								{
									"internalType": "uint256",
									"name": "voteMinSupporters",
									"type": "uint256"
								},
								{
									"internalType": "uint256",
									"name": "voteMinApprovalPercent",
									"type": "uint256"
								},
								{
									"internalType": "uint256",
									"name": "voteDurationHours",
									"type": "uint256"
								},
								{
									"internalType": "uint256",
									"name": "voteEndTime",
									"type": "uint256"
								}
							],
							"internalType": "struct Proposal.VoterSetup",
							"name": "voteSetup",
							"type": "tuple"
						},
						{
							"internalType": "uint256",
							"name": "blockTime",
							"type": "uint256"
						},
						{
							"internalType": "address",
							"name": "proposer",
							"type": "address"
						}
					],
					"internalType": "struct Proposal.ProposalDetail",
					"name": "",
					"type": "tuple"
				},
				{
					"components": [
						{
							"internalType": "uint256",
							"name": "index",
							"type": "uint256"
						},
						{
							"internalType": "uint256",
							"name": "token",
							"type": "uint256"
						},
						{
							"internalType": "string",
							"name": "terms",
							"type": "string"
						}
					],
					"internalType": "struct Proposal.PaymentDetail[]",
					"name": "paymentDetails",
					"type": "tuple[]"
				}
			],
			"payable": false,
			"stateMutability": "view",
			"type": "function"
		},
		{
			"constant": true,
			"inputs": [
				{
					"internalType": "string",
					"name": "id",
					"type": "string"
				},
				{
					"internalType": "string",
					"name": "serialId",
					"type": "string"
				}
			],
			"name": "proposalStatus",
			"outputs": [
				{
					"internalType": "enum Proposal.ProposalStatus",
					"name": "",
					"type": "uint8"
				}
			],
			"payable": false,
			"stateMutability": "view",
			"type": "function"
		},
		{
			"constant": false,
			"inputs": [
				{
					"internalType": "string",
					"name": "iroId",
					"type": "string"
				},
				{
					"internalType": "string",
					"name": "serialId",
					"type": "string"
				}
			],
			"name": "releaseProposal",
			"outputs": [],
			"payable": false,
			"stateMutability": "nonpayable",
			"type": "function"
		},
		{
			"constant": false,
			"inputs": [
				{
					"internalType": "address",
					"name": "_iroAddress",
					"type": "address"
				}
			],
			"name": "setIROBase",
			"outputs": [],
			"payable": false,
			"stateMutability": "nonpayable",
			"type": "function"
		}
	]
}