{
	"data": {
		"bytecode": {
			"linkReferences": {
				"contracts/libraries/NumUtils.sol": {
					"NumUtils": [
						{
							"length": 20,
							"start": 5826
						}
					]
				}
			},
			"object": "60806040523480156200001157600080fd5b5060405162006a6338038062006a63833981810160405262000037919081019062000226565b336000806101000a81548173ffffffffffffffffffffffffffffffffffffffff021916908373ffffffffffffffffffffffffffffffffffffffff1602179055506200008882620000a160201b60201c565b62000099816200015860201b60201c565b50506200038e565b600073ffffffffffffffffffffffffffffffffffffffff168173ffffffffffffffffffffffffffffffffffffffff16141562000114576040517f08c379a00000000000000000000000000000000000000000000000000000000081526004016200010b90620002eb565b60405180910390fd5b80600160006101000a81548173ffffffffffffffffffffffffffffffffffffffff021916908373ffffffffffffffffffffffffffffffffffffffff16021790555050565b600073ffffffffffffffffffffffffffffffffffffffff168173ffffffffffffffffffffffffffffffffffffffff161415620001cb576040517f08c379a0000000000000000000000000000000000000000000000000000000008152600401620001c2906200030d565b60405180910390fd5b80600260006101000a81548173ffffffffffffffffffffffffffffffffffffffff021916908373ffffffffffffffffffffffffffffffffffffffff16021790555050565b600081519050620002208162000374565b92915050565b600080604083850312156200023a57600080fd5b60006200024a858286016200020f565b92505060206200025d858286016200020f565b9150509250929050565b6000620002766015836200032f565b91507f69726f206164647265737320697320656d7074792e00000000000000000000006000830152602082019050919050565b6000620002b86017836200032f565b91507f646973636f206164647265737320697320656d7074792e0000000000000000006000830152602082019050919050565b60006020820190508181036000830152620003068162000267565b9050919050565b600060208201905081810360008301526200032881620002a9565b9050919050565b600082825260208201905092915050565b60006200034d8262000354565b9050919050565b600073ffffffffffffffffffffffffffffffffffffffff82169050919050565b6200037f8162000340565b81146200038b57600080fd5b50565b6166c5806200039e6000396000f3fe6080604052600436106200009e5760003560e01c806359f7f240116200006157806359f7f24014620001d457806372d92f2814620001f45780638f65e6971462000222578063d46d6d8a1462000266578063ffb135a81462000294576200009e565b80630f5e184914620000a3578063268d792c14620000d15780632b4a249f14620001075780633122fef1146200014b578063474b58c21462000190575b600080fd5b348015620000b057600080fd5b50620000cf6004803603620000c99190810190620047a0565b620002c2565b005b620000ef6004803603620000e99190810190620048ae565b62000876565b604051620000fe9190620058a9565b60405180910390f35b3480156200011457600080fd5b506200013360048036036200012d9190810190620048ae565b62001a7f565b604051620001429190620058a9565b60405180910390f35b3480156200015857600080fd5b50620001776004803603620001719190810190620047a0565b62001fa4565b60405162000187929190620058cd565b60405180910390f35b3480156200019d57600080fd5b50620001bc6004803603620001b69190810190620047a0565b620021a4565b604051620001cb9190620055f5565b60405180910390f35b620001f26004803603620001ec919081019062004966565b620022a2565b005b3480156200020157600080fd5b506200022060048036036200021a9190810190620046a7565b620027ac565b005b3480156200022f57600080fd5b506200024e600480360362000248919081019062004757565b62002863565b6040516200025d91906200592c565b60405180910390f35b3480156200027357600080fd5b506200029260048036036200028c91908101906200481c565b62002890565b005b348015620002a157600080fd5b50620002c06004803603620002ba9190810190620046a7565b62002d82565b005b620002cc620036a5565b6200036085858080601f016020809104026020016040519081016040528093929190818152602001838380828437600081840152601f19601f8201169050808301925050505050505084848080601f016020809104026020016040519081016040528093929190818152602001838380828437600081840152601f19601f8201169050808301925050505050505062002e39565b90506000858590501415620003ac576040517f08c379a0000000000000000000000000000000000000000000000000000000008152600401620003a390620057bb565b60405180910390fd5b60006003811115620003ba57fe5b81606001516003811115620003cb57fe5b14156200040f576040517f08c379a0000000000000000000000000000000000000000000000000000000008152600401620004069062005799565b60405180910390fd5b6000600260009054906101000a900473ffffffffffffffffffffffffffffffffffffffff1673ffffffffffffffffffffffffffffffffffffffff166366f61fb983600001516040518263ffffffff1660e01b81526004016200047291906200563f565b60206040518083038186803b1580156200048b57600080fd5b505afa158015620004a0573d6000803e3d6000fd5b505050506040513d601f19601f82011682018060405250620004c691908101906200472b565b905060606200055e87878080601f016020809104026020016040519081016040528093929190818152602001838380828437600081840152601f19601f8201169050808301925050505050505086868080601f016020809104026020016040519081016040528093929190818152602001838380828437600081840152601f19601f820116905080830192505050505050506200365a565b905060606006826040516200057491906200552d565b9081526020016040518091039020805480602002602001604051908101604052809291908181526020016000905b828210156200079657838290600052602060002090600602016040518060c0016040529081600082018054600181600116156101000203166002900480601f016020809104026020016040519081016040528092919081815260200182805460018160011615610100020316600290048015620006635780601f10620006375761010080835404028352916020019162000663565b820191906000526020600020905b8154815290600101906020018083116200064557829003601f168201915b50505050508152602001600182018054600181600116156101000203166002900480601f016020809104026020016040519081016040528092919081815260200182805460018160011615610100020316600290048015620007095780601f10620006dd5761010080835404028352916020019162000709565b820191906000526020600020905b815481529060010190602001808311620006eb57829003601f168201915b505050505081526020016002820160009054906101000a900473ffffffffffffffffffffffffffffffffffffffff1673ffffffffffffffffffffffffffffffffffffffff1673ffffffffffffffffffffffffffffffffffffffff168152602001600382015481526020016004820154815260200160058201548152505081526020019060010190620005a2565b50505050905060008460e0015160e00151905060008090505b82518110156200086a57620007c36200374c565b838281518110620007d057fe5b602002602001015190508273ffffffffffffffffffffffffffffffffffffffff1663beabacc887836040015184608001518560600151016040518463ffffffff1660e01b81526004016200082793929190620055b8565b600060405180830381600087803b1580156200084257600080fd5b505af115801562000857573d6000803e3d6000fd5b50505050508080600101915050620007af565b50505050505050505050565b62000880620036a5565b60008360200151511415620008cc576040517f08c379a0000000000000000000000000000000000000000000000000000000008152600401620008c390620057ff565b60405180910390fd5b6000836000015151141562000918576040517f08c379a00000000000000000000000000000000000000000000000000000000081526004016200090f9062005711565b60405180910390fd5b60006003846000015160405162000930919062005514565b908152602001604051809103902090506200094a620036a5565b8185602001516040516200095f919062005514565b908152602001604051809103902060405180610180016040529081600082018054600181600116156101000203166002900480601f01602080910402602001604051908101604052809291908181526020018280546001816001161561010002031660029004801562000a165780601f10620009ea5761010080835404028352916020019162000a16565b820191906000526020600020905b815481529060010190602001808311620009f857829003601f168201915b50505050508152602001600182018054600181600116156101000203166002900480601f01602080910402602001604051908101604052809291908181526020018280546001816001161561010002031660029004801562000abc5780601f1062000a905761010080835404028352916020019162000abc565b820191906000526020600020905b81548152906001019060200180831162000a9e57829003601f168201915b50505050508152602001600282018054600181600116156101000203166002900480601f01602080910402602001604051908101604052809291908181526020018280546001816001161561010002031660029004801562000b625780601f1062000b365761010080835404028352916020019162000b62565b820191906000526020600020905b81548152906001019060200180831162000b4457829003601f168201915b505050505081526020016003820160009054906101000a900460ff16600381111562000b8a57fe5b600381111562000b9657fe5b81526020016003820160019054906101000a900460ff16600681111562000bb957fe5b600681111562000bc557fe5b8152602001600482018054600181600116156101000203166002900480601f01602080910402602001604051908101604052809291908181526020018280546001816001161561010002031660029004801562000c665780601f1062000c3a5761010080835404028352916020019162000c66565b820191906000526020600020905b81548152906001019060200180831162000c4857829003601f168201915b50505050508152602001600582018054600181600116156101000203166002900480601f01602080910402602001604051908101604052809291908181526020018280546001816001161561010002031660029004801562000d0c5780601f1062000ce05761010080835404028352916020019162000d0c565b820191906000526020600020905b81548152906001019060200180831162000cee57829003601f168201915b5050505050815260200160068201604051806101000160405290816000820160009054906101000a900473ffffffffffffffffffffffffffffffffffffffff1673ffffffffffffffffffffffffffffffffffffffff1673ffffffffffffffffffffffffffffffffffffffff1681526020016000820160149054906101000a900460ff16600181111562000d9b57fe5b600181111562000da757fe5b815260200160018201548152602001600282018054600181600116156101000203166002900480601f01602080910402602001604051908101604052809291908181526020018280546001816001161561010002031660029004801562000e525780601f1062000e265761010080835404028352916020019162000e52565b820191906000526020600020905b81548152906001019060200180831162000e3457829003601f168201915b5050505050815260200160038201548152602001600482015481526020016005820160009054906101000a900473ffffffffffffffffffffffffffffffffffffffff1673ffffffffffffffffffffffffffffffffffffffff1673ffffffffffffffffffffffffffffffffffffffff1681526020016006820160009054906101000a900473ffffffffffffffffffffffffffffffffffffffff1673ffffffffffffffffffffffffffffffffffffffff1673ffffffffffffffffffffffffffffffffffffffff16815250508152602001600d82016040518060200160405290816000820160009054906101000a900460ff16600381111562000f4e57fe5b600381111562000f5a57fe5b815250508152602001600e820160405180608001604052908160008201548152602001600182018054600181600116156101000203166002900480601f016020809104026020016040519081016040528092919081815260200182805460018160011615610100020316600290048015620010195780601f1062000fed5761010080835404028352916020019162001019565b820191906000526020600020905b81548152906001019060200180831162000ffb57829003601f168201915b50505050508152602001600282015481526020016003820154815250508152602001601282015481526020016013820160009054906101000a900473ffffffffffffffffffffffffffffffffffffffff1673ffffffffffffffffffffffffffffffffffffffff1673ffffffffffffffffffffffffffffffffffffffff16815250509050600081600001515114620010e7576040517f08c379a0000000000000000000000000000000000000000000000000000000008152600401620010de90620057dd565b60405180910390fd5b620010f162003798565b600160009054906101000a900473ffffffffffffffffffffffffffffffffffffffff1673ffffffffffffffffffffffffffffffffffffffff1663ef7ae53f87600001516040518263ffffffff1660e01b81526004016200115291906200563f565b60006040518083038186803b1580156200116b57600080fd5b505afa15801562001180573d6000803e3d6000fd5b505050506040513d6000823e3d601f19601f82011682018060405250620011ab919081019062004921565b905060008160000151511415620011f9576040517f08c379a0000000000000000000000000000000000000000000000000000000008152600401620011f090620056cd565b60405180910390fd5b62001203620037d8565b81604001519050600060038111156200121857fe5b816000015160038111156200122957fe5b14156200126d576040517f08c379a00000000000000000000000000000000000000000000000000000000081526004016200126490620056ef565b60405180910390fd5b6040518060200160405280826000015160038111156200128957fe5b8152508761010001819052506200129f62003805565b8260600151905060006003811115620012b457fe5b81600001516003811115620012c557fe5b141562001309576040517f08c379a0000000000000000000000000000000000000000000000000000000008152600401620013009062005865565b60405180910390fd5b60004290506000808a6101200151604001511415620013bb5773__$b7c937b1c964930440937011c7042b2cdd$__631bd951558460a001516040518263ffffffff1660e01b81526004016200135f919062005663565b60206040518083038186803b1580156200137857600080fd5b505af41580156200138d573d6000803e3d6000fd5b505050506040513d601f19601f82011682018060405250620013b39190810190620049ab565b9050620013c8565b8961012001516040015190505b60405180608001604052808460600151815260200184608001518152602001828152602001610e10830284018152508a61012001819052506000600260009054906101000a900473ffffffffffffffffffffffffffffffffffffffff1673ffffffffffffffffffffffffffffffffffffffff166366f61fb98c600001516040518263ffffffff1660e01b81526004016200146391906200563f565b60206040518083038186803b1580156200147c57600080fd5b505afa15801562001491573d6000803e3d6000fd5b505050506040513d601f19601f82011682018060405250620014b791908101906200472b565b9050808b60e0015160c0019073ffffffffffffffffffffffffffffffffffffffff16908173ffffffffffffffffffffffffffffffffffffffff16815250506060620015028c62003688565b90508060405162001513906200384e565b6200151f919062005687565b604051809103906000f0801580156200153c573d6000803e3d6000fd5b508c60e0015160e0019073ffffffffffffffffffffffffffffffffffffffff16908173ffffffffffffffffffffffffffffffffffffffff168152505060008b51905060008090505b8181101562001631576004836040516200159f91906200552d565b90815260200160405180910390208d8281518110620015ba57fe5b602002602001015190806001815401808255809150509060018203906000526020600020906003020160009091929091909150600082015181600001556020820151816001015560408201518160020190805190602001906200161f9291906200385c565b50505050808060010191505062001584565b50600073ffffffffffffffffffffffffffffffffffffffff168d610160015173ffffffffffffffffffffffffffffffffffffffff161415620016a757338d610160019073ffffffffffffffffffffffffffffffffffffffff16908173ffffffffffffffffffffffffffffffffffffffff16815250505b848d6101400181815250508c8a8e60200151604051620016c8919062005514565b90815260200160405180910390206000820151816000019080519060200190620016f49291906200385c565b506020820151816001019080519060200190620017139291906200385c565b506040820151816002019080519060200190620017329291906200385c565b5060608201518160030160006101000a81548160ff021916908360038111156200175857fe5b021790555060808201518160030160016101000a81548160ff021916908360068111156200178257fe5b021790555060a0820151816004019080519060200190620017a59291906200385c565b5060c0820151816005019080519060200190620017c49291906200385c565b5060e08201518160060160008201518160000160006101000a81548173ffffffffffffffffffffffffffffffffffffffff021916908373ffffffffffffffffffffffffffffffffffffffff16021790555060208201518160000160146101000a81548160ff021916908360018111156200183a57fe5b0217905550604082015181600101556060820151816002019080519060200190620018679291906200385c565b506080820151816003015560a0820151816004015560c08201518160050160006101000a81548173ffffffffffffffffffffffffffffffffffffffff021916908373ffffffffffffffffffffffffffffffffffffffff16021790555060e08201518160060160006101000a81548173ffffffffffffffffffffffffffffffffffffffff021916908373ffffffffffffffffffffffffffffffffffffffff160217905550505061010082015181600d0160008201518160000160006101000a81548160ff021916908360038111156200193b57fe5b0217905550505061012082015181600e01600082015181600001556020820151816001019080519060200190620019749291906200385c565b506040820151816002015560608201518160030155505061014082015181601201556101608201518160130160006101000a81548173ffffffffffffffffffffffffffffffffffffffff021916908373ffffffffffffffffffffffffffffffffffffffff16021790555090505060058d60000151604051620019f7919062005514565b9081526020016040518091039020600081548092919060010191905055508c6020015160405162001a29919062005514565b60405180910390207f74b2e2a4d866c513222fe0222feef41e081ec60e6879885dd70b6b7a305c3c1e8e8e60405162001a64929190620058cd565b60405180910390a28c9a505050505050505050505092915050565b62001a89620036a5565b6000836020015151141562001ad5576040517f08c379a000000000000000000000000000000000000000000000000000000000815260040162001acc90620057ff565b60405180910390fd5b6000836000015151141562001b21576040517f08c379a000000000000000000000000000000000000000000000000000000000815260040162001b189062005711565b60405180910390fd5b60006003846000015160405162001b39919062005514565b908152602001604051809103902090508381856020015160405162001b5f919062005514565b9081526020016040518091039020600082015181600001908051906020019062001b8b9291906200385c565b50602082015181600101908051906020019062001baa9291906200385c565b50604082015181600201908051906020019062001bc99291906200385c565b5060608201518160030160006101000a81548160ff0219169083600381111562001bef57fe5b021790555060808201518160030160016101000a81548160ff0219169083600681111562001c1957fe5b021790555060a082015181600401908051906020019062001c3c9291906200385c565b5060c082015181600501908051906020019062001c5b9291906200385c565b5060e08201518160060160008201518160000160006101000a81548173ffffffffffffffffffffffffffffffffffffffff021916908373ffffffffffffffffffffffffffffffffffffffff16021790555060208201518160000160146101000a81548160ff0219169083600181111562001cd157fe5b021790555060408201518160010155606082015181600201908051906020019062001cfe9291906200385c565b506080820151816003015560a0820151816004015560c08201518160050160006101000a81548173ffffffffffffffffffffffffffffffffffffffff021916908373ffffffffffffffffffffffffffffffffffffffff16021790555060e08201518160060160006101000a81548173ffffffffffffffffffffffffffffffffffffffff021916908373ffffffffffffffffffffffffffffffffffffffff160217905550505061010082015181600d0160008201518160000160006101000a81548160ff0219169083600381111562001dd257fe5b0217905550505061012082015181600e0160008201518160000155602082015181600101908051906020019062001e0b9291906200385c565b506040820151816002015560608201518160030155505061014082015181601201556101608201518160130160006101000a81548173ffffffffffffffffffffffffffffffffffffffff021916908373ffffffffffffffffffffffffffffffffffffffff160217905550905050606062001e858562003688565b905060008451905060008090505b8181101562001f405760048360405162001eae91906200552d565b908152602001604051809103902086828151811062001ec957fe5b6020026020010151908060018154018082558091505090600182039060005260206000209060030201600090919290919091506000820151816000015560208201518160010155604082015181600201908051906020019062001f2e9291906200385c565b50505050808060010191505062001e93565b50856020015160405162001f55919062005514565b60405180910390207f74b2e2a4d866c513222fe0222feef41e081ec60e6879885dd70b6b7a305c3c1e878760405162001f90929190620058cd565b60405180910390a285935050505092915050565b62001fae620036a5565b606062001fba620036a5565b6200204e87878080601f016020809104026020016040519081016040528093929190818152602001838380828437600081840152601f19601f8201169050808301925050505050505086868080601f016020809104026020016040519081016040528093929190818152602001838380828437600081840152601f19601f8201169050808301925050505050505062002e39565b905060606200205d8262003688565b9050816004826040516200207291906200552d565b908152602001604051809103902080805480602002602001604051908101604052809291908181526020016000905b828210156200218f57838290600052602060002090600302016040518060600160405290816000820154815260200160018201548152602001600282018054600181600116156101000203166002900480601f016020809104026020016040519081016040528092919081815260200182805460018160011615610100020316600290048015620021765780601f106200214a5761010080835404028352916020019162002176565b820191906000526020600020905b8154815290600101906020018083116200215857829003601f168201915b50505050508152505081526020019060010190620020a1565b50505050905093509350505094509492505050565b6000620021b0620036a5565b6200224486868080601f016020809104026020016040519081016040528093929190818152602001838380828437600081840152601f19601f8201169050808301925050505050505085858080601f016020809104026020016040519081016040528093929190818152602001838380828437600081840152601f19601f8201169050808301925050505050505062002e39565b90506000816000015151141562002292576040517f08c379a00000000000000000000000000000000000000000000000000000000081526004016200228990620057bb565b60405180910390fd5b8060600151915050949350505050565b620022ac620036a5565b620022c08260000151836020015162002e39565b9050600082600001515114156200230e576040517f08c379a00000000000000000000000000000000000000000000000000000000081526004016200230590620057bb565b60405180910390fd5b600060038111156200231c57fe5b816060015160038111156200232d57fe5b1462002370576040517f08c379a0000000000000000000000000000000000000000000000000000000008152600401620023679062005887565b60405180910390fd5b6200237a620038e3565b816101200151905060004290508160600151811115620023d1576040517f08c379a0000000000000000000000000000000000000000000000000000000008152600401620023c89062005821565b60405180910390fd5b600084608001518560600151011162002421576040517f08c379a0000000000000000000000000000000000000000000000000000000008152600401620024189062005777565b60405180910390fd5b6000600260009054906101000a900473ffffffffffffffffffffffffffffffffffffffff1673ffffffffffffffffffffffffffffffffffffffff166366f61fb985600001516040518263ffffffff1660e01b81526004016200248491906200563f565b60206040518083038186803b1580156200249d57600080fd5b505afa158015620024b2573d6000803e3d6000fd5b505050506040513d601f19601f82011682018060405250620024d891908101906200472b565b90508073ffffffffffffffffffffffffffffffffffffffff166323b872dd338660e0015160e0015173ffffffffffffffffffffffffffffffffffffffff166338cc48316040518163ffffffff1660e01b815260040160206040518083038186803b1580156200254657600080fd5b505afa1580156200255b573d6000803e3d6000fd5b505050506040513d601f19601f82011682018060405250620025819190810190620046d3565b88608001518960600151016040518463ffffffff1660e01b8152600401620025ac939291906200557b565b602060405180830381600087803b158015620025c757600080fd5b505af1158015620025dc573d6000803e3d6000fd5b505050506040513d601f19601f82011682018060405250620026029190810190620046ff565b50428560a001818152505033856040019073ffffffffffffffffffffffffffffffffffffffff16908173ffffffffffffffffffffffffffffffffffffffff168152505060606200265b866000015187602001516200365a565b90506006816040516200266f91906200552d565b908152602001604051809103902086908060018154018082558091505090600182039060005260206000209060060201600090919290919091506000820151816000019080519060200190620026c79291906200385c565b506020820151816001019080519060200190620026e69291906200385c565b5060408201518160020160006101000a81548173ffffffffffffffffffffffffffffffffffffffff021916908373ffffffffffffffffffffffffffffffffffffffff160217905550606082015181600301556080820151816004015560a08201518160050155505050846020015160405162002763919062005514565b60405180910390207f1fc2188cf86b2fdff0c37c3a4cc9ac40d660cb3ed78875f759054aa66515180f876040516200279c919062005908565b60405180910390a2505050505050565b600073ffffffffffffffffffffffffffffffffffffffff168173ffffffffffffffffffffffffffffffffffffffff1614156200281f576040517f08c379a0000000000000000000000000000000000000000000000000000000008152600401620028169062005843565b60405180910390fd5b80600260006101000a81548173ffffffffffffffffffffffffffffffffffffffff021916908373ffffffffffffffffffffffffffffffffffffffff16021790555050565b60006005838360405162002879929190620054f9565b908152602001604051809103902054905092915050565b6200289a620036a5565b6200292e86868080601f016020809104026020016040519081016040528093929190818152602001838380828437600081840152601f19601f8201169050808301925050505050505085858080601f016020809104026020016040519081016040528093929190818152602001838380828437600081840152601f19601f8201169050808301925050505050505062002e39565b9050600081600001515114156200297c576040517f08c379a00000000000000000000000000000000000000000000000000000000081526004016200297390620056ab565b60405180910390fd5b806060015160038111156200298d57fe5b8260038111156200299a57fe5b1462002d7a576000816060015190508282606001906003811115620029bb57fe5b90816003811115620029c957fe5b81525050600060038360000151604051620029e5919062005514565b908152602001604051809103902090508281878760405162002a09929190620054f9565b9081526020016040518091039020600082015181600001908051906020019062002a359291906200385c565b50602082015181600101908051906020019062002a549291906200385c565b50604082015181600201908051906020019062002a739291906200385c565b5060608201518160030160006101000a81548160ff0219169083600381111562002a9957fe5b021790555060808201518160030160016101000a81548160ff0219169083600681111562002ac357fe5b021790555060a082015181600401908051906020019062002ae69291906200385c565b5060c082015181600501908051906020019062002b059291906200385c565b5060e08201518160060160008201518160000160006101000a81548173ffffffffffffffffffffffffffffffffffffffff021916908373ffffffffffffffffffffffffffffffffffffffff16021790555060208201518160000160146101000a81548160ff0219169083600181111562002b7b57fe5b021790555060408201518160010155606082015181600201908051906020019062002ba89291906200385c565b506080820151816003015560a0820151816004015560c08201518160050160006101000a81548173ffffffffffffffffffffffffffffffffffffffff021916908373ffffffffffffffffffffffffffffffffffffffff16021790555060e08201518160060160006101000a81548173ffffffffffffffffffffffffffffffffffffffff021916908373ffffffffffffffffffffffffffffffffffffffff160217905550505061010082015181600d0160008201518160000160006101000a81548160ff0219169083600381111562002c7c57fe5b0217905550505061012082015181600e0160008201518160000155602082015181600101908051906020019062002cb59291906200385c565b506040820151816002015560608201518160030155505061014082015181601201556101608201518160130160006101000a81548173ffffffffffffffffffffffffffffffffffffffff021916908373ffffffffffffffffffffffffffffffffffffffff160217905550905050878760405162002d34929190620054f9565b60405180910390207f984b6675ffc22e1f752662b0ce0a6e95adb7944d816aa2d09e6995c9b20a198a838660405162002d6f92919062005612565b60405180910390a250505b505050505050565b600073ffffffffffffffffffffffffffffffffffffffff168173ffffffffffffffffffffffffffffffffffffffff16141562002df5576040517f08c379a000000000000000000000000000000000000000000000000000000000815260040162002dec9062005755565b60405180910390fd5b80600160006101000a81548173ffffffffffffffffffffffffffffffffffffffff021916908373ffffffffffffffffffffffffffffffffffffffff16021790555050565b62002e43620036a5565b60008351141562002e8b576040517f08c379a000000000000000000000000000000000000000000000000000000000815260040162002e829062005733565b60405180910390fd5b60008251141562002ed3576040517f08c379a000000000000000000000000000000000000000000000000000000000815260040162002eca90620057ff565b60405180910390fd5b600060038460405162002ee791906200552d565b9081526020016040518091039020905062002f01620036a5565b818460405162002f1291906200552d565b908152602001604051809103902060405180610180016040529081600082018054600181600116156101000203166002900480601f01602080910402602001604051908101604052809291908181526020018280546001816001161561010002031660029004801562002fc95780601f1062002f9d5761010080835404028352916020019162002fc9565b820191906000526020600020905b81548152906001019060200180831162002fab57829003601f168201915b50505050508152602001600182018054600181600116156101000203166002900480601f0160208091040260200160405190810160405280929190818152602001828054600181600116156101000203166002900480156200306f5780601f1062003043576101008083540402835291602001916200306f565b820191906000526020600020905b8154815290600101906020018083116200305157829003601f168201915b50505050508152602001600282018054600181600116156101000203166002900480601f016020809104026020016040519081016040528092919081815260200182805460018160011615610100020316600290048015620031155780601f10620030e95761010080835404028352916020019162003115565b820191906000526020600020905b815481529060010190602001808311620030f757829003601f168201915b505050505081526020016003820160009054906101000a900460ff1660038111156200313d57fe5b60038111156200314957fe5b81526020016003820160019054906101000a900460ff1660068111156200316c57fe5b60068111156200317857fe5b8152602001600482018054600181600116156101000203166002900480601f016020809104026020016040519081016040528092919081815260200182805460018160011615610100020316600290048015620032195780601f10620031ed5761010080835404028352916020019162003219565b820191906000526020600020905b815481529060010190602001808311620031fb57829003601f168201915b50505050508152602001600582018054600181600116156101000203166002900480601f016020809104026020016040519081016040528092919081815260200182805460018160011615610100020316600290048015620032bf5780601f106200329357610100808354040283529160200191620032bf565b820191906000526020600020905b815481529060010190602001808311620032a157829003601f168201915b5050505050815260200160068201604051806101000160405290816000820160009054906101000a900473ffffffffffffffffffffffffffffffffffffffff1673ffffffffffffffffffffffffffffffffffffffff1673ffffffffffffffffffffffffffffffffffffffff1681526020016000820160149054906101000a900460ff1660018111156200334e57fe5b60018111156200335a57fe5b815260200160018201548152602001600282018054600181600116156101000203166002900480601f016020809104026020016040519081016040528092919081815260200182805460018160011615610100020316600290048015620034055780601f10620033d95761010080835404028352916020019162003405565b820191906000526020600020905b815481529060010190602001808311620033e757829003601f168201915b5050505050815260200160038201548152602001600482015481526020016005820160009054906101000a900473ffffffffffffffffffffffffffffffffffffffff1673ffffffffffffffffffffffffffffffffffffffff1673ffffffffffffffffffffffffffffffffffffffff1681526020016006820160009054906101000a900473ffffffffffffffffffffffffffffffffffffffff1673ffffffffffffffffffffffffffffffffffffffff1673ffffffffffffffffffffffffffffffffffffffff16815250508152602001600d82016040518060200160405290816000820160009054906101000a900460ff1660038111156200350157fe5b60038111156200350d57fe5b815250508152602001600e820160405180608001604052908160008201548152602001600182018054600181600116156101000203166002900480601f016020809104026020016040519081016040528092919081815260200182805460018160011615610100020316600290048015620035cc5780601f10620035a057610100808354040283529160200191620035cc565b820191906000526020600020905b815481529060010190602001808311620035ae57829003601f168201915b50505050508152602001600282015481526020016003820154815250508152602001601282015481526020016013820160009054906101000a900473ffffffffffffffffffffffffffffffffffffffff1673ffffffffffffffffffffffffffffffffffffffff1673ffffffffffffffffffffffffffffffffffffffff16815250509050809250505092915050565b606082826040516020016200367192919062005546565b604051602081830303815290604052905092915050565b60606200369e826000015183602001516200365a565b9050919050565b60405180610180016040528060608152602001606081526020016060815260200160006003811115620036d457fe5b815260200160006006811115620036e757fe5b81526020016060815260200160608152602001620037046200390b565b8152602001620037136200399e565b815260200162003722620039bd565b815260200160008152602001600073ffffffffffffffffffffffffffffffffffffffff1681525090565b6040518060c001604052806060815260200160608152602001600073ffffffffffffffffffffffffffffffffffffffff1681526020016000815260200160008152602001600081525090565b604051806080016040528060608152602001620037b4620039e5565b8152602001620037c362003a0d565b8152602001620037d262003a3a565b81525090565b604051806060016040528060006003811115620037f157fe5b815260200160008152602001606081525090565b6040518060e00160405280600060038111156200381e57fe5b81526020016060815260200160608152602001600081526020016060815260200160608152602001606081525090565b6108ca8062005db983390190565b828054600181600116156101000203166002900490600052602060002090601f016020900481019282601f106200389f57805160ff1916838001178555620038d0565b82800160010185558215620038d0579182015b82811115620038cf578251825591602001919060010190620038b2565b5b509050620038df919062003a83565b5090565b6040518060800160405280600081526020016060815260200160008152602001600081525090565b604051806101000160405280600073ffffffffffffffffffffffffffffffffffffffff168152602001600060018111156200394257fe5b815260200160008152602001606081526020016000815260200160008152602001600073ffffffffffffffffffffffffffffffffffffffff168152602001600073ffffffffffffffffffffffffffffffffffffffff1681525090565b604051806020016040528060006003811115620039b757fe5b81525090565b6040518060800160405280600081526020016060815260200160008152602001600081525090565b6040518060800160405280606081526020016060815260200160608152602001606081525090565b60405180606001604052806000600381111562003a2657fe5b815260200160008152602001606081525090565b6040518060e001604052806000600381111562003a5357fe5b81526020016060815260200160608152602001600081526020016060815260200160608152602001606081525090565b62003aa891905b8082111562003aa457600081600090555060010162003a8a565b5090565b90565b60008135905062003abc8162005cc7565b92915050565b60008151905062003ad38162005cc7565b92915050565b60008151905062003aea8162005ce1565b92915050565b600082601f83011262003b0257600080fd5b815162003b1962003b138262005977565b62005949565b9150818183526020840193506020810190508385602084028201111562003b3f57600080fd5b60005b8381101562003b73578162003b58888262003ac2565b84526020840193506020830192505060018101905062003b42565b5050505092915050565b600082601f83011262003b8f57600080fd5b813562003ba662003ba082620059a0565b62005949565b9150818183526020840193506020810190508360005b8381101562003bf0578135860162003bd5888262003de5565b84526020840193506020830192505060018101905062003bbc565b5050505092915050565b60008151905062003c0b8162005cfb565b92915050565b60008135905062003c228162005d15565b92915050565b60008135905062003c398162005d2f565b92915050565b60008151905062003c508162005d2f565b92915050565b60008135905062003c678162005d49565b92915050565b60008135905062003c7e8162005d5a565b92915050565b60008135905062003c958162005d6b565b92915050565b60008135905062003cac8162005d7c565b92915050565b60008151905062003cc38162005d7c565b92915050565b60008151905062003cda8162005d8d565b92915050565b60008083601f84011262003cf357600080fd5b8235905067ffffffffffffffff81111562003d0d57600080fd5b60208301915083600182028301111562003d2657600080fd5b9250929050565b600082601f83011262003d3f57600080fd5b813562003d5662003d5082620059c9565b62005949565b9150808252602083016020830185838301111562003d7357600080fd5b62003d8083828462005c39565b50505092915050565b600082601f83011262003d9b57600080fd5b815162003db262003dac82620059c9565b62005949565b9150808252602083016020830185838301111562003dcf57600080fd5b62003ddc83828462005c48565b50505092915050565b60006060828403121562003df857600080fd5b62003e04606062005949565b9050600062003e168482850162004679565b600083015250602062003e2c8482850162004679565b602083015250604082013567ffffffffffffffff81111562003e4d57600080fd5b62003e5b8482850162003d2d565b60408301525092915050565b6000610100828403121562003e7b57600080fd5b62003e8861010062005949565b9050600062003e9a8482850162003aab565b600083015250602062003eb08482850162003c56565b602083015250604062003ec68482850162004679565b604083015250606082013567ffffffffffffffff81111562003ee757600080fd5b62003ef58482850162003d2d565b606083015250608062003f0b8482850162004679565b60808301525060a062003f218482850162004679565b60a08301525060c062003f378482850162003c28565b60c08301525060e062003f4d8482850162003c11565b60e08301525092915050565b6000610180828403121562003f6d57600080fd5b62003f7a61018062005949565b9050600082013567ffffffffffffffff81111562003f9757600080fd5b62003fa58482850162003d2d565b600083015250602082013567ffffffffffffffff81111562003fc657600080fd5b62003fd48482850162003d2d565b602083015250604082013567ffffffffffffffff81111562003ff557600080fd5b620040038482850162003d2d565b6040830152506060620040198482850162003c84565b60608301525060806200402f8482850162003c6d565b60808301525060a082013567ffffffffffffffff8111156200405057600080fd5b6200405e8482850162003d2d565b60a08301525060c082013567ffffffffffffffff8111156200407f57600080fd5b6200408d8482850162003d2d565b60c08301525060e082013567ffffffffffffffff811115620040ae57600080fd5b620040bc8482850162003e67565b60e083015250610100620040d384828501620041c3565b6101008301525061012082013567ffffffffffffffff811115620040f657600080fd5b6200410484828501620045e1565b610120830152506101406200411c8482850162004679565b61014083015250610160620041348482850162003aab565b6101608301525092915050565b6000606082840312156200415457600080fd5b62004160606062005949565b90506000620041728482850162003cb2565b6000830152506020620041888482850162004690565b602083015250604082015167ffffffffffffffff811115620041a957600080fd5b620041b78482850162003af0565b60408301525092915050565b600060208284031215620041d657600080fd5b620041e2602062005949565b90506000620041f48482850162003c9b565b60008301525092915050565b6000608082840312156200421357600080fd5b6200421f608062005949565b9050600082015167ffffffffffffffff8111156200423c57600080fd5b6200424a8482850162003d89565b600083015250602082015167ffffffffffffffff8111156200426b57600080fd5b6200427984828501620042e3565b602083015250604082015167ffffffffffffffff8111156200429a57600080fd5b620042a88482850162004141565b604083015250606082015167ffffffffffffffff811115620042c957600080fd5b620042d784828501620044a3565b60608301525092915050565b600060808284031215620042f657600080fd5b62004302608062005949565b9050600082015167ffffffffffffffff8111156200431f57600080fd5b6200432d8482850162003d89565b600083015250602082015167ffffffffffffffff8111156200434e57600080fd5b6200435c8482850162003d89565b602083015250604082015167ffffffffffffffff8111156200437d57600080fd5b6200438b8482850162003d89565b604083015250606082015167ffffffffffffffff811115620043ac57600080fd5b620043ba8482850162003af0565b60608301525092915050565b600060c08284031215620043d957600080fd5b620043e560c062005949565b9050600082013567ffffffffffffffff8111156200440257600080fd5b620044108482850162003d2d565b600083015250602082013567ffffffffffffffff8111156200443157600080fd5b6200443f8482850162003d2d565b6020830152506040620044558482850162003aab565b60408301525060606200446b8482850162004679565b6060830152506080620044818482850162004679565b60808301525060a0620044978482850162004679565b60a08301525092915050565b600060e08284031215620044b657600080fd5b620044c260e062005949565b90506000620044d48482850162003cc9565b600083015250602082015167ffffffffffffffff811115620044f557600080fd5b620045038482850162003d89565b602083015250604082015167ffffffffffffffff8111156200452457600080fd5b620045328482850162003af0565b6040830152506060620045488482850162004690565b606083015250608082015167ffffffffffffffff8111156200456957600080fd5b620045778482850162003d89565b60808301525060a082015167ffffffffffffffff8111156200459857600080fd5b620045a68482850162003d89565b60a08301525060c082015167ffffffffffffffff811115620045c757600080fd5b620045d58482850162003d89565b60c08301525092915050565b600060808284031215620045f457600080fd5b62004600608062005949565b90506000620046128482850162004679565b600083015250602082013567ffffffffffffffff8111156200463357600080fd5b620046418482850162003d2d565b6020830152506040620046578482850162004679565b60408301525060606200466d8482850162004679565b60608301525092915050565b6000813590506200468a8162005d9e565b92915050565b600081519050620046a18162005d9e565b92915050565b600060208284031215620046ba57600080fd5b6000620046ca8482850162003aab565b91505092915050565b600060208284031215620046e657600080fd5b6000620046f68482850162003ad9565b91505092915050565b6000602082840312156200471257600080fd5b6000620047228482850162003bfa565b91505092915050565b6000602082840312156200473e57600080fd5b60006200474e8482850162003c3f565b91505092915050565b600080602083850312156200476b57600080fd5b600083013567ffffffffffffffff8111156200478657600080fd5b620047948582860162003ce0565b92509250509250929050565b60008060008060408587031215620047b757600080fd5b600085013567ffffffffffffffff811115620047d257600080fd5b620047e08782880162003ce0565b9450945050602085013567ffffffffffffffff8111156200480057600080fd5b6200480e8782880162003ce0565b925092505092959194509250565b6000806000806000606086880312156200483557600080fd5b600086013567ffffffffffffffff8111156200485057600080fd5b6200485e8882890162003ce0565b9550955050602086013567ffffffffffffffff8111156200487e57600080fd5b6200488c8882890162003ce0565b93509350506040620048a18882890162003c84565b9150509295509295909350565b60008060408385031215620048c257600080fd5b600083013567ffffffffffffffff811115620048dd57600080fd5b620048eb8582860162003f59565b925050602083013567ffffffffffffffff8111156200490957600080fd5b620049178582860162003b7d565b9150509250929050565b6000602082840312156200493457600080fd5b600082015167ffffffffffffffff8111156200494f57600080fd5b6200495d8482850162004200565b91505092915050565b6000602082840312156200497957600080fd5b600082013567ffffffffffffffff8111156200499457600080fd5b620049a284828501620043c6565b91505092915050565b600060208284031215620049be57600080fd5b6000620049ce8482850162004690565b91505092915050565b6000620049e5838362005156565b905092915050565b620049f88162005b5d565b82525050565b62004a098162005a83565b82525050565b62004a1a8162005a83565b82525050565b600062004a2d8262005a06565b62004a39818562005a34565b93508360208202850162004a4d85620059f6565b8060005b8581101562004a8f578484038952815162004a6d8582620049d7565b945062004a7a8362005a27565b925060208a0199505060018101905062004a51565b50829750879550505050505092915050565b62004aac8162005b71565b82525050565b62004abd8162005b99565b82525050565b62004ace8162005b99565b82525050565b62004adf8162005bc1565b82525050565b62004af08162005bd5565b82525050565b62004b018162005be9565b82525050565b62004b128162005be9565b82525050565b62004b238162005bfd565b82525050565b600062004b37838562005a78565b935062004b4683858462005c39565b82840190509392505050565b600062004b5f8262005a1c565b62004b6b818562005a56565b935062004b7d81856020860162005c48565b62004b888162005c7e565b840191505092915050565b600062004ba08262005a1c565b62004bac818562005a78565b935062004bbe81856020860162005c48565b80840191505092915050565b600062004bd78262005a11565b62004be3818562005a45565b935062004bf581856020860162005c48565b62004c008162005c7e565b840191505092915050565b600062004c188262005a11565b62004c24818562005a56565b935062004c3681856020860162005c48565b62004c418162005c7e565b840191505092915050565b600062004c598262005a11565b62004c65818562005a67565b935062004c7781856020860162005c48565b62004c828162005c7e565b840191505092915050565b600062004c9a8262005a11565b62004ca6818562005a78565b935062004cb881856020860162005c48565b80840191505092915050565b600062004cd360118362005a56565b91507f70726f706f73616c206d697373696e672e0000000000000000000000000000006000830152602082019050919050565b600062004d1560188362005a56565b91507f626173652073657474696e67206e6f74206578697374732e00000000000000006000830152602082019050919050565b600062004d57601c8362005a56565b91507f70726f706f7365722073657474696e67206e6f74206578697374732e000000006000830152602082019050919050565b600062004d99601a8362005a56565b91507f70726f706f73616c20646973636f496420697320656d707479210000000000006000830152602082019050919050565b600062004ddb60128362005a56565b91507f646973636f20696420697320656d7074792100000000000000000000000000006000830152602082019050919050565b600062004e1d60158362005a56565b91507f69726f206164647265737320697320656d7074792e00000000000000000000006000830152602082019050919050565b600062004e5f601e8362005a56565b91507f6120696e76616c696420766f74652c20766f7465206e756d203c3d20302e00006000830152602082019050919050565b600062004ea160238362005a56565b91507f7468652070726f706f73616c20636f756c64206e6f742062652072656c65617360008301527f65642e00000000000000000000000000000000000000000000000000000000006020830152604082019050919050565b600062004f09601e8362005a56565b91507f70726f706f73616c206d697373696e672c20636865636b2066697273742e00006000830152602082019050919050565b600062004f4b603f8362005a56565b91507f70726f706f73616c20616c7265616479206578697374732c20706c656173652060008301527f7265706c61636520776974682074686520636f6e7472616374206f776e6572006020830152604082019050919050565b600062004fb3601b8362005a56565b91507f70726f706f73616c2073657269616c496420697320656d7074792100000000006000830152602082019050919050565b600062004ff560108362005a56565b91507f766f746520697320657870697265642e000000000000000000000000000000006000830152602082019050919050565b60006200503760178362005a56565b91507f646973636f206164647265737320697320656d7074792e0000000000000000006000830152602082019050919050565b60006200507960198362005a56565b91507f766f7465722073657474696e67206e6f74206578697374732e000000000000006000830152602082019050919050565b6000620050bb60018362005a78565b91507f40000000000000000000000000000000000000000000000000000000000000006000830152600182019050919050565b6000620050fd603a8362005a56565b91507f7468652070726f706f73616c20636f756c64206e6f7420626520766f7465642060008301527f7768656e20737461747573206973206e6f7420766f74696e672e0000000000006020830152604082019050919050565b6000606083016000830151620051706000860182620054d7565b506020830151620051856020860182620054d7565b50604083015184820360408601526200519f828262004bca565b9150508091505092915050565b600061010083016000830151620051c76000860182620049fe565b506020830151620051dc602086018262004ad4565b506040830151620051f16040860182620054d7565b50606083015184820360608601526200520b828262004bca565b9150506080830151620052226080860182620054d7565b5060a08301516200523760a0860182620054d7565b5060c08301516200524c60c086018262004ab2565b5060e08301516200526160e086018262004aa1565b508091505092915050565b60006101808301600083015184820360008601526200528c828262004bca565b91505060208301518482036020860152620052a8828262004bca565b91505060408301518482036040860152620052c4828262004bca565b9150506060830151620052db606086018262004af6565b506080830151620052f0608086018262004ae5565b5060a083015184820360a08601526200530a828262004bca565b91505060c083015184820360c086015262005326828262004bca565b91505060e083015184820360e0860152620053428282620051ac565b9150506101008301516200535b610100860182620053b2565b506101208301518482036101208601526200537782826200546c565b91505061014083015162005390610140860182620054d7565b50610160830151620053a7610160860182620049fe565b508091505092915050565b602082016000820151620053ca600085018262004b18565b50505050565b600060c0830160008301518482036000860152620053ef828262004bca565b915050602083015184820360208601526200540b828262004bca565b9150506040830151620054226040860182620049fe565b506060830151620054376060860182620054d7565b5060808301516200544c6080860182620054d7565b5060a08301516200546160a0860182620054d7565b508091505092915050565b6000608083016000830151620054866000860182620054d7565b5060208301518482036020860152620054a0828262004bca565b9150506040830151620054b76040860182620054d7565b506060830151620054cc6060860182620054d7565b508091505092915050565b620054e28162005b53565b82525050565b620054f38162005b53565b82525050565b60006200550882848662004b29565b91508190509392505050565b600062005522828462004c8d565b915081905092915050565b60006200553b828462004b93565b915081905092915050565b600062005554828562004b93565b91506200556182620050ac565b91506200556f828462004b93565b91508190509392505050565b6000606082019050620055926000830186620049ed565b620055a16020830185620049ed565b620055b06040830184620054e8565b949350505050565b6000606082019050620055cf600083018662004ac3565b620055de602083018562004a0f565b620055ed6040830184620054e8565b949350505050565b60006020820190506200560c600083018462004b07565b92915050565b600060408201905062005629600083018562004b07565b62005638602083018462004b07565b9392505050565b600060208201905081810360008301526200565b818462004c0b565b905092915050565b600060208201905081810360008301526200567f818462004c4c565b905092915050565b60006020820190508181036000830152620056a3818462004b52565b905092915050565b60006020820190508181036000830152620056c68162004cc4565b9050919050565b60006020820190508181036000830152620056e88162004d06565b9050919050565b600060208201905081810360008301526200570a8162004d48565b9050919050565b600060208201905081810360008301526200572c8162004d8a565b9050919050565b600060208201905081810360008301526200574e8162004dcc565b9050919050565b60006020820190508181036000830152620057708162004e0e565b9050919050565b60006020820190508181036000830152620057928162004e50565b9050919050565b60006020820190508181036000830152620057b48162004e92565b9050919050565b60006020820190508181036000830152620057d68162004efa565b9050919050565b60006020820190508181036000830152620057f88162004f3c565b9050919050565b600060208201905081810360008301526200581a8162004fa4565b9050919050565b600060208201905081810360008301526200583c8162004fe6565b9050919050565b600060208201905081810360008301526200585e8162005028565b9050919050565b6000602082019050818103600083015262005880816200506a565b9050919050565b60006020820190508181036000830152620058a281620050ee565b9050919050565b60006020820190508181036000830152620058c581846200526c565b905092915050565b60006040820190508181036000830152620058e981856200526c565b90508181036020830152620058ff818462004a20565b90509392505050565b60006020820190508181036000830152620059248184620053d0565b905092915050565b6000602082019050620059436000830184620054e8565b92915050565b6000604051905081810181811067ffffffffffffffff821117156200596d57600080fd5b8060405250919050565b600067ffffffffffffffff8211156200598f57600080fd5b602082029050602081019050919050565b600067ffffffffffffffff821115620059b857600080fd5b602082029050602081019050919050565b600067ffffffffffffffff821115620059e157600080fd5b601f19601f8301169050602081019050919050565b6000819050602082019050919050565b600081519050919050565b600081519050919050565b600081519050919050565b6000602082019050919050565b600082825260208201905092915050565b600082825260208201905092915050565b600082825260208201905092915050565b600082825260208201905092915050565b600081905092915050565b600062005a908262005b33565b9050919050565b600062005aa48262005b33565b9050919050565b60008115159050919050565b600062005ac48262005a97565b9050919050565b600062005ad88262005a83565b9050919050565b600081905062005aef8262005c8f565b919050565b600081905062005b048262005c9d565b919050565b600081905062005b198262005cab565b919050565b600081905062005b2e8262005cb9565b919050565b600073ffffffffffffffffffffffffffffffffffffffff82169050919050565b6000819050919050565b600062005b6a8262005c11565b9050919050565b600062005b7e8262005b85565b9050919050565b600062005b928262005b33565b9050919050565b600062005ba68262005bad565b9050919050565b600062005bba8262005b33565b9050919050565b600062005bce8262005adf565b9050919050565b600062005be28262005af4565b9050919050565b600062005bf68262005b09565b9050919050565b600062005c0a8262005b1e565b9050919050565b600062005c1e8262005c25565b9050919050565b600062005c328262005b33565b9050919050565b82818337600083830152505050565b60005b8381101562005c6857808201518184015260208101905062005c4b565b8381111562005c78576000848401525b50505050565b6000601f19601f8301169050919050565b6002811062005c9a57fe5b50565b6007811062005ca857fe5b50565b6004811062005cb657fe5b50565b6004811062005cc457fe5b50565b62005cd28162005a83565b811462005cde57600080fd5b50565b62005cec8162005a97565b811462005cf857600080fd5b50565b62005d068162005aab565b811462005d1257600080fd5b50565b62005d208162005ab7565b811462005d2c57600080fd5b50565b62005d3a8162005acb565b811462005d4657600080fd5b50565b6002811062005d5757600080fd5b50565b6007811062005d6857600080fd5b50565b6004811062005d7957600080fd5b50565b6004811062005d8a57600080fd5b50565b6004811062005d9b57600080fd5b50565b62005da98162005b53565b811462005db557600080fd5b5056fe608060405234801561001057600080fd5b506040516108ca3803806108ca83398181016040526100329190810190610148565b806000908051906020019061004892919061004f565b5050610215565b828054600181600116156101000203166002900490600052602060002090601f016020900481019282601f1061009057805160ff19168380011785556100be565b828001600101855582156100be579182015b828111156100bd5782518255916020019190600101906100a2565b5b5090506100cb91906100cf565b5090565b6100f191905b808211156100ed5760008160009055506001016100d5565b5090565b90565b600082601f83011261010557600080fd5b8151610118610113826101b6565b610189565b9150808252602083016020830185838301111561013457600080fd5b61013f8382846101e2565b50505092915050565b60006020828403121561015a57600080fd5b600082015167ffffffffffffffff81111561017457600080fd5b610180848285016100f4565b91505092915050565b6000604051905081810181811067ffffffffffffffff821117156101ac57600080fd5b8060405250919050565b600067ffffffffffffffff8211156101cd57600080fd5b601f19601f8301169050602081019050919050565b60005b838110156102005780820151818401526020810190506101e5565b8381111561020f576000848401525b50505050565b6106a6806102246000396000f3fe60806040526004361061004a5760003560e01c806338cc48311461004c5780634f95a04b14610077578063beabacc814610093578063e1f21c67146100bc578063fb1e6a62146100e5575b005b34801561005857600080fd5b50610061610110565b60405161006e91906104be565b60405180910390f35b610091600480360361008c91908101906103a4565b610118565b005b34801561009f57600080fd5b506100ba60048036036100b59190810190610409565b610163565b005b3480156100c857600080fd5b506100e360048036036100de9190810190610409565b6101fe565b005b3480156100f157600080fd5b506100fa610299565b6040516101079190610502565b60405180910390f35b600030905090565b8173ffffffffffffffffffffffffffffffffffffffff166108fc829081150290604051600060405180830381858888f1935050505015801561015e573d6000803e3d6000fd5b505050565b8273ffffffffffffffffffffffffffffffffffffffff1663a9059cbb83836040518363ffffffff1660e01b815260040161019e9291906104d9565b602060405180830381600087803b1580156101b857600080fd5b505af11580156101cc573d6000803e3d6000fd5b505050506040513d601f19601f820116820180604052506101f091908101906103e0565b6101f957600080fd5b505050565b8273ffffffffffffffffffffffffffffffffffffffff1663095ea7b383836040518363ffffffff1660e01b81526004016102399291906104d9565b602060405180830381600087803b15801561025357600080fd5b505af1158015610267573d6000803e3d6000fd5b505050506040513d601f19601f8201168201806040525061028b91908101906103e0565b61029457600080fd5b505050565b606060008054600181600116156101000203166002900480601f0160208091040260200160405190810160405280929190818152602001828054600181600116156101000203166002900480156103315780601f1061030657610100808354040283529160200191610331565b820191906000526020600020905b81548152906001019060200180831161031457829003601f168201915b5050505050905090565b60008135905061034a816105f0565b92915050565b60008135905061035f81610607565b92915050565b6000815190506103748161061e565b92915050565b60008135905061038981610635565b92915050565b60008135905061039e8161064c565b92915050565b600080604083850312156103b757600080fd5b60006103c585828601610350565b92505060206103d68582860161038f565b9150509250929050565b6000602082840312156103f257600080fd5b600061040084828501610365565b91505092915050565b60008060006060848603121561041e57600080fd5b600061042c8682870161037a565b935050602061043d8682870161033b565b925050604061044e8682870161038f565b9150509250925092565b61046181610552565b82525050565b61047081610540565b82525050565b600061048182610524565b61048b818561052f565b935061049b8185602086016105ac565b6104a4816105df565b840191505092915050565b6104b8816105a2565b82525050565b60006020820190506104d36000830184610458565b92915050565b60006040820190506104ee6000830185610467565b6104fb60208301846104af565b9392505050565b6000602082019050818103600083015261051c8184610476565b905092915050565b600081519050919050565b600082825260208201905092915050565b600061054b82610582565b9050919050565b600061055d82610582565b9050919050565b60008115159050919050565b600061057b82610540565b9050919050565b600073ffffffffffffffffffffffffffffffffffffffff82169050919050565b6000819050919050565b60005b838110156105ca5780820151818401526020810190506105af565b838111156105d9576000848401525b50505050565b6000601f19601f8301169050919050565b6105f981610540565b811461060457600080fd5b50565b61061081610552565b811461061b57600080fd5b50565b61062781610564565b811461063257600080fd5b50565b61063e81610570565b811461064957600080fd5b50565b610655816105a2565b811461066057600080fd5b5056fea365627a7a72315820a4ced9f3b5fe7c39634e3f948672597c94b23e87ab7fb01c5f9310cbaa7085c76c6578706572696d656e74616cf564736f6c63430005100040a365627a7a72315820a2c305f7c3299ab6c67c0323596ea93b8296d3709ba30a33c6c780df303521136c6578706572696d656e74616cf564736f6c63430005100040",
			"opcodes": "PUSH1 0x80 PUSH1 0x40 MSTORE CALLVALUE DUP1 ISZERO PUSH3 0x11 JUMPI PUSH1 0x0 DUP1 REVERT JUMPDEST POP PUSH1 0x40 MLOAD PUSH3 0x6A63 CODESIZE SUB DUP1 PUSH3 0x6A63 DUP4 CODECOPY DUP2 DUP2 ADD PUSH1 0x40 MSTORE PUSH3 0x37 SWAP2 SWAP1 DUP2 ADD SWAP1 PUSH3 0x226 JUMP JUMPDEST CALLER PUSH1 0x0 DUP1 PUSH2 0x100 EXP DUP2 SLOAD DUP2 PUSH20 0xFFFFFFFFFFFFFFFFFFFFFFFFFFFFFFFFFFFFFFFF MUL NOT AND SWAP1 DUP4 PUSH20 0xFFFFFFFFFFFFFFFFFFFFFFFFFFFFFFFFFFFFFFFF AND MUL OR SWAP1 SSTORE POP PUSH3 0x88 DUP3 PUSH3 0xA1 PUSH1 0x20 SHL PUSH1 0x20 SHR JUMP JUMPDEST PUSH3 0x99 DUP2 PUSH3 0x158 PUSH1 0x20 SHL PUSH1 0x20 SHR JUMP JUMPDEST POP POP PUSH3 0x38E JUMP JUMPDEST PUSH1 0x0 PUSH20 0xFFFFFFFFFFFFFFFFFFFFFFFFFFFFFFFFFFFFFFFF AND DUP2 PUSH20 0xFFFFFFFFFFFFFFFFFFFFFFFFFFFFFFFFFFFFFFFF AND EQ ISZERO PUSH3 0x114 JUMPI PUSH1 0x40 MLOAD PUSH32 0x8C379A000000000000000000000000000000000000000000000000000000000 DUP2 MSTORE PUSH1 0x4 ADD PUSH3 0x10B SWAP1 PUSH3 0x2EB JUMP JUMPDEST PUSH1 0x40 MLOAD DUP1 SWAP2 SUB SWAP1 REVERT JUMPDEST DUP1 PUSH1 0x1 PUSH1 0x0 PUSH2 0x100 EXP DUP2 SLOAD DUP2 PUSH20 0xFFFFFFFFFFFFFFFFFFFFFFFFFFFFFFFFFFFFFFFF MUL NOT AND SWAP1 DUP4 PUSH20 0xFFFFFFFFFFFFFFFFFFFFFFFFFFFFFFFFFFFFFFFF AND MUL OR SWAP1 SSTORE POP POP JUMP JUMPDEST PUSH1 0x0 PUSH20 0xFFFFFFFFFFFFFFFFFFFFFFFFFFFFFFFFFFFFFFFF AND DUP2 PUSH20 0xFFFFFFFFFFFFFFFFFFFFFFFFFFFFFFFFFFFFFFFF AND EQ ISZERO PUSH3 0x1CB JUMPI PUSH1 0x40 MLOAD PUSH32 0x8C379A000000000000000000000000000000000000000000000000000000000 DUP2 MSTORE PUSH1 0x4 ADD PUSH3 0x1C2 SWAP1 PUSH3 0x30D JUMP JUMPDEST PUSH1 0x40 MLOAD DUP1 SWAP2 SUB SWAP1 REVERT JUMPDEST DUP1 PUSH1 0x2 PUSH1 0x0 PUSH2 0x100 EXP DUP2 SLOAD DUP2 PUSH20 0xFFFFFFFFFFFFFFFFFFFFFFFFFFFFFFFFFFFFFFFF MUL NOT AND SWAP1 DUP4 PUSH20 0xFFFFFFFFFFFFFFFFFFFFFFFFFFFFFFFFFFFFFFFF AND MUL OR SWAP1 SSTORE POP POP JUMP JUMPDEST PUSH1 0x0 DUP2 MLOAD SWAP1 POP PUSH3 0x220 DUP2 PUSH3 0x374 JUMP JUMPDEST SWAP3 SWAP2 POP POP JUMP JUMPDEST PUSH1 0x0 DUP1 PUSH1 0x40 DUP4 DUP6 SUB SLT ISZERO PUSH3 0x23A JUMPI PUSH1 0x0 DUP1 REVERT JUMPDEST PUSH1 0x0 PUSH3 0x24A DUP6 DUP3 DUP7 ADD PUSH3 0x20F JUMP JUMPDEST SWAP3 POP POP PUSH1 0x20 PUSH3 0x25D DUP6 DUP3 DUP7 ADD PUSH3 0x20F JUMP JUMPDEST SWAP2 POP POP SWAP3 POP SWAP3 SWAP1 POP JUMP JUMPDEST PUSH1 0x0 PUSH3 0x276 PUSH1 0x15 DUP4 PUSH3 0x32F JUMP JUMPDEST SWAP2 POP PUSH32 0x69726F206164647265737320697320656D7074792E0000000000000000000000 PUSH1 0x0 DUP4 ADD MSTORE PUSH1 0x20 DUP3 ADD SWAP1 POP SWAP2 SWAP1 POP JUMP JUMPDEST PUSH1 0x0 PUSH3 0x2B8 PUSH1 0x17 DUP4 PUSH3 0x32F JUMP JUMPDEST SWAP2 POP PUSH32 0x646973636F206164647265737320697320656D7074792E000000000000000000 PUSH1 0x0 DUP4 ADD MSTORE PUSH1 0x20 DUP3 ADD SWAP1 POP SWAP2 SWAP1 POP JUMP JUMPDEST PUSH1 0x0 PUSH1 0x20 DUP3 ADD SWAP1 POP DUP2 DUP2 SUB PUSH1 0x0 DUP4 ADD MSTORE PUSH3 0x306 DUP2 PUSH3 0x267 JUMP JUMPDEST SWAP1 POP SWAP2 SWAP1 POP JUMP JUMPDEST PUSH1 0x0 PUSH1 0x20 DUP3 ADD SWAP1 POP DUP2 DUP2 SUB PUSH1 0x0 DUP4 ADD MSTORE PUSH3 0x328 DUP2 PUSH3 0x2A9 JUMP JUMPDEST SWAP1 POP SWAP2 SWAP1 POP JUMP JUMPDEST PUSH1 0x0 DUP3 DUP3 MSTORE PUSH1 0x20 DUP3 ADD SWAP1 POP SWAP3 SWAP2 POP POP JUMP JUMPDEST PUSH1 0x0 PUSH3 0x34D DUP3 PUSH3 0x354 JUMP JUMPDEST SWAP1 POP SWAP2 SWAP1 POP JUMP JUMPDEST PUSH1 0x0 PUSH20 0xFFFFFFFFFFFFFFFFFFFFFFFFFFFFFFFFFFFFFFFF DUP3 AND SWAP1 POP SWAP2 SWAP1 POP JUMP JUMPDEST PUSH3 0x37F DUP2 PUSH3 0x340 JUMP JUMPDEST DUP2 EQ PUSH3 0x38B JUMPI PUSH1 0x0 DUP1 REVERT JUMPDEST POP JUMP JUMPDEST PUSH2 0x66C5 DUP1 PUSH3 0x39E PUSH1 0x0 CODECOPY PUSH1 0x0 RETURN INVALID PUSH1 0x80 PUSH1 0x40 MSTORE PUSH1 0x4 CALLDATASIZE LT PUSH3 0x9E JUMPI PUSH1 0x0 CALLDATALOAD PUSH1 0xE0 SHR DUP1 PUSH4 0x59F7F240 GT PUSH3 0x61 JUMPI DUP1 PUSH4 0x59F7F240 EQ PUSH3 0x1D4 JUMPI DUP1 PUSH4 0x72D92F28 EQ PUSH3 0x1F4 JUMPI DUP1 PUSH4 0x8F65E697 EQ PUSH3 0x222 JUMPI DUP1 PUSH4 0xD46D6D8A EQ PUSH3 0x266 JUMPI DUP1 PUSH4 0xFFB135A8 EQ PUSH3 0x294 JUMPI PUSH3 0x9E JUMP JUMPDEST DUP1 PUSH4 0xF5E1849 EQ PUSH3 0xA3 JUMPI DUP1 PUSH4 0x268D792C EQ PUSH3 0xD1 JUMPI DUP1 PUSH4 0x2B4A249F EQ PUSH3 0x107 JUMPI DUP1 PUSH4 0x3122FEF1 EQ PUSH3 0x14B JUMPI DUP1 PUSH4 0x474B58C2 EQ PUSH3 0x190 JUMPI JUMPDEST PUSH1 0x0 DUP1 REVERT JUMPDEST CALLVALUE DUP1 ISZERO PUSH3 0xB0 JUMPI PUSH1 0x0 DUP1 REVERT JUMPDEST POP PUSH3 0xCF PUSH1 0x4 DUP1 CALLDATASIZE SUB PUSH3 0xC9 SWAP2 SWAP1 DUP2 ADD SWAP1 PUSH3 0x47A0 JUMP JUMPDEST PUSH3 0x2C2 JUMP JUMPDEST STOP JUMPDEST PUSH3 0xEF PUSH1 0x4 DUP1 CALLDATASIZE SUB PUSH3 0xE9 SWAP2 SWAP1 DUP2 ADD SWAP1 PUSH3 0x48AE JUMP JUMPDEST PUSH3 0x876 JUMP JUMPDEST PUSH1 0x40 MLOAD PUSH3 0xFE SWAP2 SWAP1 PUSH3 0x58A9 JUMP JUMPDEST PUSH1 0x40 MLOAD DUP1 SWAP2 SUB SWAP1 RETURN JUMPDEST CALLVALUE DUP1 ISZERO PUSH3 0x114 JUMPI PUSH1 0x0 DUP1 REVERT JUMPDEST POP PUSH3 0x133 PUSH1 0x4 DUP1 CALLDATASIZE SUB PUSH3 0x12D SWAP2 SWAP1 DUP2 ADD SWAP1 PUSH3 0x48AE JUMP JUMPDEST PUSH3 0x1A7F JUMP JUMPDEST PUSH1 0x40 MLOAD PUSH3 0x142 SWAP2 SWAP1 PUSH3 0x58A9 JUMP JUMPDEST PUSH1 0x40 MLOAD DUP1 SWAP2 SUB SWAP1 RETURN JUMPDEST CALLVALUE DUP1 ISZERO PUSH3 0x158 JUMPI PUSH1 0x0 DUP1 REVERT JUMPDEST POP PUSH3 0x177 PUSH1 0x4 DUP1 CALLDATASIZE SUB PUSH3 0x171 SWAP2 SWAP1 DUP2 ADD SWAP1 PUSH3 0x47A0 JUMP JUMPDEST PUSH3 0x1FA4 JUMP JUMPDEST PUSH1 0x40 MLOAD PUSH3 0x187 SWAP3 SWAP2 SWAP1 PUSH3 0x58CD JUMP JUMPDEST PUSH1 0x40 MLOAD DUP1 SWAP2 SUB SWAP1 RETURN JUMPDEST CALLVALUE DUP1 ISZERO PUSH3 0x19D JUMPI PUSH1 0x0 DUP1 REVERT JUMPDEST POP PUSH3 0x1BC PUSH1 0x4 DUP1 CALLDATASIZE SUB PUSH3 0x1B6 SWAP2 SWAP1 DUP2 ADD SWAP1 PUSH3 0x47A0 JUMP JUMPDEST PUSH3 0x21A4 JUMP JUMPDEST PUSH1 0x40 MLOAD PUSH3 0x1CB SWAP2 SWAP1 PUSH3 0x55F5 JUMP JUMPDEST PUSH1 0x40 MLOAD DUP1 SWAP2 SUB SWAP1 RETURN JUMPDEST PUSH3 0x1F2 PUSH1 0x4 DUP1 CALLDATASIZE SUB PUSH3 0x1EC SWAP2 SWAP1 DUP2 ADD SWAP1 PUSH3 0x4966 JUMP JUMPDEST PUSH3 0x22A2 JUMP JUMPDEST STOP JUMPDEST CALLVALUE DUP1 ISZERO PUSH3 0x201 JUMPI PUSH1 0x0 DUP1 REVERT JUMPDEST POP PUSH3 0x220 PUSH1 0x4 DUP1 CALLDATASIZE SUB PUSH3 0x21A SWAP2 SWAP1 DUP2 ADD SWAP1 PUSH3 0x46A7 JUMP JUMPDEST PUSH3 0x27AC JUMP JUMPDEST STOP JUMPDEST CALLVALUE DUP1 ISZERO PUSH3 0x22F JUMPI PUSH1 0x0 DUP1 REVERT JUMPDEST POP PUSH3 0x24E PUSH1 0x4 DUP1 CALLDATASIZE SUB PUSH3 0x248 SWAP2 SWAP1 DUP2 ADD SWAP1 PUSH3 0x4757 JUMP JUMPDEST PUSH3 0x2863 JUMP JUMPDEST PUSH1 0x40 MLOAD PUSH3 0x25D SWAP2 SWAP1 PUSH3 0x592C JUMP JUMPDEST PUSH1 0x40 MLOAD DUP1 SWAP2 SUB SWAP1 RETURN JUMPDEST CALLVALUE DUP1 ISZERO PUSH3 0x273 JUMPI PUSH1 0x0 DUP1 REVERT JUMPDEST POP PUSH3 0x292 PUSH1 0x4 DUP1 CALLDATASIZE SUB PUSH3 0x28C SWAP2 SWAP1 DUP2 ADD SWAP1 PUSH3 0x481C JUMP JUMPDEST PUSH3 0x2890 JUMP JUMPDEST STOP JUMPDEST CALLVALUE DUP1 ISZERO PUSH3 0x2A1 JUMPI PUSH1 0x0 DUP1 REVERT JUMPDEST POP PUSH3 0x2C0 PUSH1 0x4 DUP1 CALLDATASIZE SUB PUSH3 0x2BA SWAP2 SWAP1 DUP2 ADD SWAP1 PUSH3 0x46A7 JUMP JUMPDEST PUSH3 0x2D82 JUMP JUMPDEST STOP JUMPDEST PUSH3 0x2CC PUSH3 0x36A5 JUMP JUMPDEST PUSH3 0x360 DUP6 DUP6 DUP1 DUP1 PUSH1 0x1F ADD PUSH1 0x20 DUP1 SWAP2 DIV MUL PUSH1 0x20 ADD PUSH1 0x40 MLOAD SWAP1 DUP2 ADD PUSH1 0x40 MSTORE DUP1 SWAP4 SWAP3 SWAP2 SWAP1 DUP2 DUP2 MSTORE PUSH1 0x20 ADD DUP4 DUP4 DUP1 DUP3 DUP5 CALLDATACOPY PUSH1 0x0 DUP2 DUP5 ADD MSTORE PUSH1 0x1F NOT PUSH1 0x1F DUP3 ADD AND SWAP1 POP DUP1 DUP4 ADD SWAP3 POP POP POP POP POP POP POP DUP5 DUP5 DUP1 DUP1 PUSH1 0x1F ADD PUSH1 0x20 DUP1 SWAP2 DIV MUL PUSH1 0x20 ADD PUSH1 0x40 MLOAD SWAP1 DUP2 ADD PUSH1 0x40 MSTORE DUP1 SWAP4 SWAP3 SWAP2 SWAP1 DUP2 DUP2 MSTORE PUSH1 0x20 ADD DUP4 DUP4 DUP1 DUP3 DUP5 CALLDATACOPY PUSH1 0x0 DUP2 DUP5 ADD MSTORE PUSH1 0x1F NOT PUSH1 0x1F DUP3 ADD AND SWAP1 POP DUP1 DUP4 ADD SWAP3 POP POP POP POP POP POP POP PUSH3 0x2E39 JUMP JUMPDEST SWAP1 POP PUSH1 0x0 DUP6 DUP6 SWAP1 POP EQ ISZERO PUSH3 0x3AC JUMPI PUSH1 0x40 MLOAD PUSH32 0x8C379A000000000000000000000000000000000000000000000000000000000 DUP2 MSTORE PUSH1 0x4 ADD PUSH3 0x3A3 SWAP1 PUSH3 0x57BB JUMP JUMPDEST PUSH1 0x40 MLOAD DUP1 SWAP2 SUB SWAP1 REVERT JUMPDEST PUSH1 0x0 PUSH1 0x3 DUP2 GT ISZERO PUSH3 0x3BA JUMPI INVALID JUMPDEST DUP2 PUSH1 0x60 ADD MLOAD PUSH1 0x3 DUP2 GT ISZERO PUSH3 0x3CB JUMPI INVALID JUMPDEST EQ ISZERO PUSH3 0x40F JUMPI PUSH1 0x40 MLOAD PUSH32 0x8C379A000000000000000000000000000000000000000000000000000000000 DUP2 MSTORE PUSH1 0x4 ADD PUSH3 0x406 SWAP1 PUSH3 0x5799 JUMP JUMPDEST PUSH1 0x40 MLOAD DUP1 SWAP2 SUB SWAP1 REVERT JUMPDEST PUSH1 0x0 PUSH1 0x2 PUSH1 0x0 SWAP1 SLOAD SWAP1 PUSH2 0x100 EXP SWAP1 DIV PUSH20 0xFFFFFFFFFFFFFFFFFFFFFFFFFFFFFFFFFFFFFFFF AND PUSH20 0xFFFFFFFFFFFFFFFFFFFFFFFFFFFFFFFFFFFFFFFF AND PUSH4 0x66F61FB9 DUP4 PUSH1 0x0 ADD MLOAD PUSH1 0x40 MLOAD DUP3 PUSH4 0xFFFFFFFF AND PUSH1 0xE0 SHL DUP2 MSTORE PUSH1 0x4 ADD PUSH3 0x472 SWAP2 SWAP1 PUSH3 0x563F JUMP JUMPDEST PUSH1 0x20 PUSH1 0x40 MLOAD DUP1 DUP4 SUB DUP2 DUP7 DUP1 EXTCODESIZE ISZERO DUP1 ISZERO PUSH3 0x48B JUMPI PUSH1 0x0 DUP1 REVERT JUMPDEST POP GAS STATICCALL ISZERO DUP1 ISZERO PUSH3 0x4A0 JUMPI RETURNDATASIZE PUSH1 0x0 DUP1 RETURNDATACOPY RETURNDATASIZE PUSH1 0x0 REVERT JUMPDEST POP POP POP POP PUSH1 0x40 MLOAD RETURNDATASIZE PUSH1 0x1F NOT PUSH1 0x1F DUP3 ADD AND DUP3 ADD DUP1 PUSH1 0x40 MSTORE POP PUSH3 0x4C6 SWAP2 SWAP1 DUP2 ADD SWAP1 PUSH3 0x472B JUMP JUMPDEST SWAP1 POP PUSH1 0x60 PUSH3 0x55E DUP8 DUP8 DUP1 DUP1 PUSH1 0x1F ADD PUSH1 0x20 DUP1 SWAP2 DIV MUL PUSH1 0x20 ADD PUSH1 0x40 MLOAD SWAP1 DUP2 ADD PUSH1 0x40 MSTORE DUP1 SWAP4 SWAP3 SWAP2 SWAP1 DUP2 DUP2 MSTORE PUSH1 0x20 ADD DUP4 DUP4 DUP1 DUP3 DUP5 CALLDATACOPY PUSH1 0x0 DUP2 DUP5 ADD MSTORE PUSH1 0x1F NOT PUSH1 0x1F DUP3 ADD AND SWAP1 POP DUP1 DUP4 ADD SWAP3 POP POP POP POP POP POP POP DUP7 DUP7 DUP1 DUP1 PUSH1 0x1F ADD PUSH1 0x20 DUP1 SWAP2 DIV MUL PUSH1 0x20 ADD PUSH1 0x40 MLOAD SWAP1 DUP2 ADD PUSH1 0x40 MSTORE DUP1 SWAP4 SWAP3 SWAP2 SWAP1 DUP2 DUP2 MSTORE PUSH1 0x20 ADD DUP4 DUP4 DUP1 DUP3 DUP5 CALLDATACOPY PUSH1 0x0 DUP2 DUP5 ADD MSTORE PUSH1 0x1F NOT PUSH1 0x1F DUP3 ADD AND SWAP1 POP DUP1 DUP4 ADD SWAP3 POP POP POP POP POP POP POP PUSH3 0x365A JUMP JUMPDEST SWAP1 POP PUSH1 0x60 PUSH1 0x6 DUP3 PUSH1 0x40 MLOAD PUSH3 0x574 SWAP2 SWAP1 PUSH3 0x552D JUMP JUMPDEST SWAP1 DUP2 MSTORE PUSH1 0x20 ADD PUSH1 0x40 MLOAD DUP1 SWAP2 SUB SWAP1 KECCAK256 DUP1 SLOAD DUP1 PUSH1 0x20 MUL PUSH1 0x20 ADD PUSH1 0x40 MLOAD SWAP1 DUP2 ADD PUSH1 0x40 MSTORE DUP1 SWAP3 SWAP2 SWAP1 DUP2 DUP2 MSTORE PUSH1 0x20 ADD PUSH1 0x0 SWAP1 JUMPDEST DUP3 DUP3 LT ISZERO PUSH3 0x796 JUMPI DUP4 DUP3 SWAP1 PUSH1 0x0 MSTORE PUSH1 0x20 PUSH1 0x0 KECCAK256 SWAP1 PUSH1 0x6 MUL ADD PUSH1 0x40 MLOAD DUP1 PUSH1 0xC0 ADD PUSH1 0x40 MSTORE SWAP1 DUP2 PUSH1 0x0 DUP3 ADD DUP1 SLOAD PUSH1 0x1 DUP2 PUSH1 0x1 AND ISZERO PUSH2 0x100 MUL SUB AND PUSH1 0x2 SWAP1 DIV DUP1 PUSH1 0x1F ADD PUSH1 0x20 DUP1 SWAP2 DIV MUL PUSH1 0x20 ADD PUSH1 0x40 MLOAD SWAP1 DUP2 ADD PUSH1 0x40 MSTORE DUP1 SWAP3 SWAP2 SWAP1 DUP2 DUP2 MSTORE PUSH1 0x20 ADD DUP3 DUP1 SLOAD PUSH1 0x1 DUP2 PUSH1 0x1 AND ISZERO PUSH2 0x100 MUL SUB AND PUSH1 0x2 SWAP1 DIV DUP1 ISZERO PUSH3 0x663 JUMPI DUP1 PUSH1 0x1F LT PUSH3 0x637 JUMPI PUSH2 0x100 DUP1 DUP4 SLOAD DIV MUL DUP4 MSTORE SWAP2 PUSH1 0x20 ADD SWAP2 PUSH3 0x663 JUMP JUMPDEST DUP3 ADD SWAP2 SWAP1 PUSH1 0x0 MSTORE PUSH1 0x20 PUSH1 0x0 KECCAK256 SWAP1 JUMPDEST DUP2 SLOAD DUP2 MSTORE SWAP1 PUSH1 0x1 ADD SWAP1 PUSH1 0x20 ADD DUP1 DUP4 GT PUSH3 0x645 JUMPI DUP3 SWAP1 SUB PUSH1 0x1F AND DUP3 ADD SWAP2 JUMPDEST POP POP POP POP POP DUP2 MSTORE PUSH1 0x20 ADD PUSH1 0x1 DUP3 ADD DUP1 SLOAD PUSH1 0x1 DUP2 PUSH1 0x1 AND ISZERO PUSH2 0x100 MUL SUB AND PUSH1 0x2 SWAP1 DIV DUP1 PUSH1 0x1F ADD PUSH1 0x20 DUP1 SWAP2 DIV MUL PUSH1 0x20 ADD PUSH1 0x40 MLOAD SWAP1 DUP2 ADD PUSH1 0x40 MSTORE DUP1 SWAP3 SWAP2 SWAP1 DUP2 DUP2 MSTORE PUSH1 0x20 ADD DUP3 DUP1 SLOAD PUSH1 0x1 DUP2 PUSH1 0x1 AND ISZERO PUSH2 0x100 MUL SUB AND PUSH1 0x2 SWAP1 DIV DUP1 ISZERO PUSH3 0x709 JUMPI DUP1 PUSH1 0x1F LT PUSH3 0x6DD JUMPI PUSH2 0x100 DUP1 DUP4 SLOAD DIV MUL DUP4 MSTORE SWAP2 PUSH1 0x20 ADD SWAP2 PUSH3 0x709 JUMP JUMPDEST DUP3 ADD SWAP2 SWAP1 PUSH1 0x0 MSTORE PUSH1 0x20 PUSH1 0x0 KECCAK256 SWAP1 JUMPDEST DUP2 SLOAD DUP2 MSTORE SWAP1 PUSH1 0x1 ADD SWAP1 PUSH1 0x20 ADD DUP1 DUP4 GT PUSH3 0x6EB JUMPI DUP3 SWAP1 SUB PUSH1 0x1F AND DUP3 ADD SWAP2 JUMPDEST POP POP POP POP POP DUP2 MSTORE PUSH1 0x20 ADD PUSH1 0x2 DUP3 ADD PUSH1 0x0 SWAP1 SLOAD SWAP1 PUSH2 0x100 EXP SWAP1 DIV PUSH20 0xFFFFFFFFFFFFFFFFFFFFFFFFFFFFFFFFFFFFFFFF AND PUSH20 0xFFFFFFFFFFFFFFFFFFFFFFFFFFFFFFFFFFFFFFFF AND PUSH20 0xFFFFFFFFFFFFFFFFFFFFFFFFFFFFFFFFFFFFFFFF AND DUP2 MSTORE PUSH1 0x20 ADD PUSH1 0x3 DUP3 ADD SLOAD DUP2 MSTORE PUSH1 0x20 ADD PUSH1 0x4 DUP3 ADD SLOAD DUP2 MSTORE PUSH1 0x20 ADD PUSH1 0x5 DUP3 ADD SLOAD DUP2 MSTORE POP POP DUP2 MSTORE PUSH1 0x20 ADD SWAP1 PUSH1 0x1 ADD SWAP1 PUSH3 0x5A2 JUMP JUMPDEST POP POP POP POP SWAP1 POP PUSH1 0x0 DUP5 PUSH1 0xE0 ADD MLOAD PUSH1 0xE0 ADD MLOAD SWAP1 POP PUSH1 0x0 DUP1 SWAP1 POP JUMPDEST DUP3 MLOAD DUP2 LT ISZERO PUSH3 0x86A JUMPI PUSH3 0x7C3 PUSH3 0x374C JUMP JUMPDEST DUP4 DUP3 DUP2 MLOAD DUP2 LT PUSH3 0x7D0 JUMPI INVALID JUMPDEST PUSH1 0x20 MUL PUSH1 0x20 ADD ADD MLOAD SWAP1 POP DUP3 PUSH20 0xFFFFFFFFFFFFFFFFFFFFFFFFFFFFFFFFFFFFFFFF AND PUSH4 0xBEABACC8 DUP8 DUP4 PUSH1 0x40 ADD MLOAD DUP5 PUSH1 0x80 ADD MLOAD DUP6 PUSH1 0x60 ADD MLOAD ADD PUSH1 0x40 MLOAD DUP5 PUSH4 0xFFFFFFFF AND PUSH1 0xE0 SHL DUP2 MSTORE PUSH1 0x4 ADD PUSH3 0x827 SWAP4 SWAP3 SWAP2 SWAP1 PUSH3 0x55B8 JUMP JUMPDEST PUSH1 0x0 PUSH1 0x40 MLOAD DUP1 DUP4 SUB DUP2 PUSH1 0x0 DUP8 DUP1 EXTCODESIZE ISZERO DUP1 ISZERO PUSH3 0x842 JUMPI PUSH1 0x0 DUP1 REVERT JUMPDEST POP GAS CALL ISZERO DUP1 ISZERO PUSH3 0x857 JUMPI RETURNDATASIZE PUSH1 0x0 DUP1 RETURNDATACOPY RETURNDATASIZE PUSH1 0x0 REVERT JUMPDEST POP POP POP POP POP DUP1 DUP1 PUSH1 0x1 ADD SWAP2 POP POP PUSH3 0x7AF JUMP JUMPDEST POP POP POP POP POP POP POP POP POP POP JUMP JUMPDEST PUSH3 0x880 PUSH3 0x36A5 JUMP JUMPDEST PUSH1 0x0 DUP4 PUSH1 0x20 ADD MLOAD MLOAD EQ ISZERO PUSH3 0x8CC JUMPI PUSH1 0x40 MLOAD PUSH32 0x8C379A000000000000000000000000000000000000000000000000000000000 DUP2 MSTORE PUSH1 0x4 ADD PUSH3 0x8C3 SWAP1 PUSH3 0x57FF JUMP JUMPDEST PUSH1 0x40 MLOAD DUP1 SWAP2 SUB SWAP1 REVERT JUMPDEST PUSH1 0x0 DUP4 PUSH1 0x0 ADD MLOAD MLOAD EQ ISZERO PUSH3 0x918 JUMPI PUSH1 0x40 MLOAD PUSH32 0x8C379A000000000000000000000000000000000000000000000000000000000 DUP2 MSTORE PUSH1 0x4 ADD PUSH3 0x90F SWAP1 PUSH3 0x5711 JUMP JUMPDEST PUSH1 0x40 MLOAD DUP1 SWAP2 SUB SWAP1 REVERT JUMPDEST PUSH1 0x0 PUSH1 0x3 DUP5 PUSH1 0x0 ADD MLOAD PUSH1 0x40 MLOAD PUSH3 0x930 SWAP2 SWAP1 PUSH3 0x5514 JUMP JUMPDEST SWAP1 DUP2 MSTORE PUSH1 0x20 ADD PUSH1 0x40 MLOAD DUP1 SWAP2 SUB SWAP1 KECCAK256 SWAP1 POP PUSH3 0x94A PUSH3 0x36A5 JUMP JUMPDEST DUP2 DUP6 PUSH1 0x20 ADD MLOAD PUSH1 0x40 MLOAD PUSH3 0x95F SWAP2 SWAP1 PUSH3 0x5514 JUMP JUMPDEST SWAP1 DUP2 MSTORE PUSH1 0x20 ADD PUSH1 0x40 MLOAD DUP1 SWAP2 SUB SWAP1 KECCAK256 PUSH1 0x40 MLOAD DUP1 PUSH2 0x180 ADD PUSH1 0x40 MSTORE SWAP1 DUP2 PUSH1 0x0 DUP3 ADD DUP1 SLOAD PUSH1 0x1 DUP2 PUSH1 0x1 AND ISZERO PUSH2 0x100 MUL SUB AND PUSH1 0x2 SWAP1 DIV DUP1 PUSH1 0x1F ADD PUSH1 0x20 DUP1 SWAP2 DIV MUL PUSH1 0x20 ADD PUSH1 0x40 MLOAD SWAP1 DUP2 ADD PUSH1 0x40 MSTORE DUP1 SWAP3 SWAP2 SWAP1 DUP2 DUP2 MSTORE PUSH1 0x20 ADD DUP3 DUP1 SLOAD PUSH1 0x1 DUP2 PUSH1 0x1 AND ISZERO PUSH2 0x100 MUL SUB AND PUSH1 0x2 SWAP1 DIV DUP1 ISZERO PUSH3 0xA16 JUMPI DUP1 PUSH1 0x1F LT PUSH3 0x9EA JUMPI PUSH2 0x100 DUP1 DUP4 SLOAD DIV MUL DUP4 MSTORE SWAP2 PUSH1 0x20 ADD SWAP2 PUSH3 0xA16 JUMP JUMPDEST DUP3 ADD SWAP2 SWAP1 PUSH1 0x0 MSTORE PUSH1 0x20 PUSH1 0x0 KECCAK256 SWAP1 JUMPDEST DUP2 SLOAD DUP2 MSTORE SWAP1 PUSH1 0x1 ADD SWAP1 PUSH1 0x20 ADD DUP1 DUP4 GT PUSH3 0x9F8 JUMPI DUP3 SWAP1 SUB PUSH1 0x1F AND DUP3 ADD SWAP2 JUMPDEST POP POP POP POP POP DUP2 MSTORE PUSH1 0x20 ADD PUSH1 0x1 DUP3 ADD DUP1 SLOAD PUSH1 0x1 DUP2 PUSH1 0x1 AND ISZERO PUSH2 0x100 MUL SUB AND PUSH1 0x2 SWAP1 DIV DUP1 PUSH1 0x1F ADD PUSH1 0x20 DUP1 SWAP2 DIV MUL PUSH1 0x20 ADD PUSH1 0x40 MLOAD SWAP1 DUP2 ADD PUSH1 0x40 MSTORE DUP1 SWAP3 SWAP2 SWAP1 DUP2 DUP2 MSTORE PUSH1 0x20 ADD DUP3 DUP1 SLOAD PUSH1 0x1 DUP2 PUSH1 0x1 AND ISZERO PUSH2 0x100 MUL SUB AND PUSH1 0x2 SWAP1 DIV DUP1 ISZERO PUSH3 0xABC JUMPI DUP1 PUSH1 0x1F LT PUSH3 0xA90 JUMPI PUSH2 0x100 DUP1 DUP4 SLOAD DIV MUL DUP4 MSTORE SWAP2 PUSH1 0x20 ADD SWAP2 PUSH3 0xABC JUMP JUMPDEST DUP3 ADD SWAP2 SWAP1 PUSH1 0x0 MSTORE PUSH1 0x20 PUSH1 0x0 KECCAK256 SWAP1 JUMPDEST DUP2 SLOAD DUP2 MSTORE SWAP1 PUSH1 0x1 ADD SWAP1 PUSH1 0x20 ADD DUP1 DUP4 GT PUSH3 0xA9E JUMPI DUP3 SWAP1 SUB PUSH1 0x1F AND DUP3 ADD SWAP2 JUMPDEST POP POP POP POP POP DUP2 MSTORE PUSH1 0x20 ADD PUSH1 0x2 DUP3 ADD DUP1 SLOAD PUSH1 0x1 DUP2 PUSH1 0x1 AND ISZERO PUSH2 0x100 MUL SUB AND PUSH1 0x2 SWAP1 DIV DUP1 PUSH1 0x1F ADD PUSH1 0x20 DUP1 SWAP2 DIV MUL PUSH1 0x20 ADD PUSH1 0x40 MLOAD SWAP1 DUP2 ADD PUSH1 0x40 MSTORE DUP1 SWAP3 SWAP2 SWAP1 DUP2 DUP2 MSTORE PUSH1 0x20 ADD DUP3 DUP1 SLOAD PUSH1 0x1 DUP2 PUSH1 0x1 AND ISZERO PUSH2 0x100 MUL SUB AND PUSH1 0x2 SWAP1 DIV DUP1 ISZERO PUSH3 0xB62 JUMPI DUP1 PUSH1 0x1F LT PUSH3 0xB36 JUMPI PUSH2 0x100 DUP1 DUP4 SLOAD DIV MUL DUP4 MSTORE SWAP2 PUSH1 0x20 ADD SWAP2 PUSH3 0xB62 JUMP JUMPDEST DUP3 ADD SWAP2 SWAP1 PUSH1 0x0 MSTORE PUSH1 0x20 PUSH1 0x0 KECCAK256 SWAP1 JUMPDEST DUP2 SLOAD DUP2 MSTORE SWAP1 PUSH1 0x1 ADD SWAP1 PUSH1 0x20 ADD DUP1 DUP4 GT PUSH3 0xB44 JUMPI DUP3 SWAP1 SUB PUSH1 0x1F AND DUP3 ADD SWAP2 JUMPDEST POP POP POP POP POP DUP2 MSTORE PUSH1 0x20 ADD PUSH1 0x3 DUP3 ADD PUSH1 0x0 SWAP1 SLOAD SWAP1 PUSH2 0x100 EXP SWAP1 DIV PUSH1 0xFF AND PUSH1 0x3 DUP2 GT ISZERO PUSH3 0xB8A JUMPI INVALID JUMPDEST PUSH1 0x3 DUP2 GT ISZERO PUSH3 0xB96 JUMPI INVALID JUMPDEST DUP2 MSTORE PUSH1 0x20 ADD PUSH1 0x3 DUP3 ADD PUSH1 0x1 SWAP1 SLOAD SWAP1 PUSH2 0x100 EXP SWAP1 DIV PUSH1 0xFF AND PUSH1 0x6 DUP2 GT ISZERO PUSH3 0xBB9 JUMPI INVALID JUMPDEST PUSH1 0x6 DUP2 GT ISZERO PUSH3 0xBC5 JUMPI INVALID JUMPDEST DUP2 MSTORE PUSH1 0x20 ADD PUSH1 0x4 DUP3 ADD DUP1 SLOAD PUSH1 0x1 DUP2 PUSH1 0x1 AND ISZERO PUSH2 0x100 MUL SUB AND PUSH1 0x2 SWAP1 DIV DUP1 PUSH1 0x1F ADD PUSH1 0x20 DUP1 SWAP2 DIV MUL PUSH1 0x20 ADD PUSH1 0x40 MLOAD SWAP1 DUP2 ADD PUSH1 0x40 MSTORE DUP1 SWAP3 SWAP2 SWAP1 DUP2 DUP2 MSTORE PUSH1 0x20 ADD DUP3 DUP1 SLOAD PUSH1 0x1 DUP2 PUSH1 0x1 AND ISZERO PUSH2 0x100 MUL SUB AND PUSH1 0x2 SWAP1 DIV DUP1 ISZERO PUSH3 0xC66 JUMPI DUP1 PUSH1 0x1F LT PUSH3 0xC3A JUMPI PUSH2 0x100 DUP1 DUP4 SLOAD DIV MUL DUP4 MSTORE SWAP2 PUSH1 0x20 ADD SWAP2 PUSH3 0xC66 JUMP JUMPDEST DUP3 ADD SWAP2 SWAP1 PUSH1 0x0 MSTORE PUSH1 0x20 PUSH1 0x0 KECCAK256 SWAP1 JUMPDEST DUP2 SLOAD DUP2 MSTORE SWAP1 PUSH1 0x1 ADD SWAP1 PUSH1 0x20 ADD DUP1 DUP4 GT PUSH3 0xC48 JUMPI DUP3 SWAP1 SUB PUSH1 0x1F AND DUP3 ADD SWAP2 JUMPDEST POP POP POP POP POP DUP2 MSTORE PUSH1 0x20 ADD PUSH1 0x5 DUP3 ADD DUP1 SLOAD PUSH1 0x1 DUP2 PUSH1 0x1 AND ISZERO PUSH2 0x100 MUL SUB AND PUSH1 0x2 SWAP1 DIV DUP1 PUSH1 0x1F ADD PUSH1 0x20 DUP1 SWAP2 DIV MUL PUSH1 0x20 ADD PUSH1 0x40 MLOAD SWAP1 DUP2 ADD PUSH1 0x40 MSTORE DUP1 SWAP3 SWAP2 SWAP1 DUP2 DUP2 MSTORE PUSH1 0x20 ADD DUP3 DUP1 SLOAD PUSH1 0x1 DUP2 PUSH1 0x1 AND ISZERO PUSH2 0x100 MUL SUB AND PUSH1 0x2 SWAP1 DIV DUP1 ISZERO PUSH3 0xD0C JUMPI DUP1 PUSH1 0x1F LT PUSH3 0xCE0 JUMPI PUSH2 0x100 DUP1 DUP4 SLOAD DIV MUL DUP4 MSTORE SWAP2 PUSH1 0x20 ADD SWAP2 PUSH3 0xD0C JUMP JUMPDEST DUP3 ADD SWAP2 SWAP1 PUSH1 0x0 MSTORE PUSH1 0x20 PUSH1 0x0 KECCAK256 SWAP1 JUMPDEST DUP2 SLOAD DUP2 MSTORE SWAP1 PUSH1 0x1 ADD SWAP1 PUSH1 0x20 ADD DUP1 DUP4 GT PUSH3 0xCEE JUMPI DUP3 SWAP1 SUB PUSH1 0x1F AND DUP3 ADD SWAP2 JUMPDEST POP POP POP POP POP DUP2 MSTORE PUSH1 0x20 ADD PUSH1 0x6 DUP3 ADD PUSH1 0x40 MLOAD DUP1 PUSH2 0x100 ADD PUSH1 0x40 MSTORE SWAP1 DUP2 PUSH1 0x0 DUP3 ADD PUSH1 0x0 SWAP1 SLOAD SWAP1 PUSH2 0x100 EXP SWAP1 DIV PUSH20 0xFFFFFFFFFFFFFFFFFFFFFFFFFFFFFFFFFFFFFFFF AND PUSH20 0xFFFFFFFFFFFFFFFFFFFFFFFFFFFFFFFFFFFFFFFF AND PUSH20 0xFFFFFFFFFFFFFFFFFFFFFFFFFFFFFFFFFFFFFFFF AND DUP2 MSTORE PUSH1 0x20 ADD PUSH1 0x0 DUP3 ADD PUSH1 0x14 SWAP1 SLOAD SWAP1 PUSH2 0x100 EXP SWAP1 DIV PUSH1 0xFF AND PUSH1 0x1 DUP2 GT ISZERO PUSH3 0xD9B JUMPI INVALID JUMPDEST PUSH1 0x1 DUP2 GT ISZERO PUSH3 0xDA7 JUMPI INVALID JUMPDEST DUP2 MSTORE PUSH1 0x20 ADD PUSH1 0x1 DUP3 ADD SLOAD DUP2 MSTORE PUSH1 0x20 ADD PUSH1 0x2 DUP3 ADD DUP1 SLOAD PUSH1 0x1 DUP2 PUSH1 0x1 AND ISZERO PUSH2 0x100 MUL SUB AND PUSH1 0x2 SWAP1 DIV DUP1 PUSH1 0x1F ADD PUSH1 0x20 DUP1 SWAP2 DIV MUL PUSH1 0x20 ADD PUSH1 0x40 MLOAD SWAP1 DUP2 ADD PUSH1 0x40 MSTORE DUP1 SWAP3 SWAP2 SWAP1 DUP2 DUP2 MSTORE PUSH1 0x20 ADD DUP3 DUP1 SLOAD PUSH1 0x1 DUP2 PUSH1 0x1 AND ISZERO PUSH2 0x100 MUL SUB AND PUSH1 0x2 SWAP1 DIV DUP1 ISZERO PUSH3 0xE52 JUMPI DUP1 PUSH1 0x1F LT PUSH3 0xE26 JUMPI PUSH2 0x100 DUP1 DUP4 SLOAD DIV MUL DUP4 MSTORE SWAP2 PUSH1 0x20 ADD SWAP2 PUSH3 0xE52 JUMP JUMPDEST DUP3 ADD SWAP2 SWAP1 PUSH1 0x0 MSTORE PUSH1 0x20 PUSH1 0x0 KECCAK256 SWAP1 JUMPDEST DUP2 SLOAD DUP2 MSTORE SWAP1 PUSH1 0x1 ADD SWAP1 PUSH1 0x20 ADD DUP1 DUP4 GT PUSH3 0xE34 JUMPI DUP3 SWAP1 SUB PUSH1 0x1F AND DUP3 ADD SWAP2 JUMPDEST POP POP POP POP POP DUP2 MSTORE PUSH1 0x20 ADD PUSH1 0x3 DUP3 ADD SLOAD DUP2 MSTORE PUSH1 0x20 ADD PUSH1 0x4 DUP3 ADD SLOAD DUP2 MSTORE PUSH1 0x20 ADD PUSH1 0x5 DUP3 ADD PUSH1 0x0 SWAP1 SLOAD SWAP1 PUSH2 0x100 EXP SWAP1 DIV PUSH20 0xFFFFFFFFFFFFFFFFFFFFFFFFFFFFFFFFFFFFFFFF AND PUSH20 0xFFFFFFFFFFFFFFFFFFFFFFFFFFFFFFFFFFFFFFFF AND PUSH20 0xFFFFFFFFFFFFFFFFFFFFFFFFFFFFFFFFFFFFFFFF AND DUP2 MSTORE PUSH1 0x20 ADD PUSH1 0x6 DUP3 ADD PUSH1 0x0 SWAP1 SLOAD SWAP1 PUSH2 0x100 EXP SWAP1 DIV PUSH20 0xFFFFFFFFFFFFFFFFFFFFFFFFFFFFFFFFFFFFFFFF AND PUSH20 0xFFFFFFFFFFFFFFFFFFFFFFFFFFFFFFFFFFFFFFFF AND PUSH20 0xFFFFFFFFFFFFFFFFFFFFFFFFFFFFFFFFFFFFFFFF AND DUP2 MSTORE POP POP DUP2 MSTORE PUSH1 0x20 ADD PUSH1 0xD DUP3 ADD PUSH1 0x40 MLOAD DUP1 PUSH1 0x20 ADD PUSH1 0x40 MSTORE SWAP1 DUP2 PUSH1 0x0 DUP3 ADD PUSH1 0x0 SWAP1 SLOAD SWAP1 PUSH2 0x100 EXP SWAP1 DIV PUSH1 0xFF AND PUSH1 0x3 DUP2 GT ISZERO PUSH3 0xF4E JUMPI INVALID JUMPDEST PUSH1 0x3 DUP2 GT ISZERO PUSH3 0xF5A JUMPI INVALID JUMPDEST DUP2 MSTORE POP POP DUP2 MSTORE PUSH1 0x20 ADD PUSH1 0xE DUP3 ADD PUSH1 0x40 MLOAD DUP1 PUSH1 0x80 ADD PUSH1 0x40 MSTORE SWAP1 DUP2 PUSH1 0x0 DUP3 ADD SLOAD DUP2 MSTORE PUSH1 0x20 ADD PUSH1 0x1 DUP3 ADD DUP1 SLOAD PUSH1 0x1 DUP2 PUSH1 0x1 AND ISZERO PUSH2 0x100 MUL SUB AND PUSH1 0x2 SWAP1 DIV DUP1 PUSH1 0x1F ADD PUSH1 0x20 DUP1 SWAP2 DIV MUL PUSH1 0x20 ADD PUSH1 0x40 MLOAD SWAP1 DUP2 ADD PUSH1 0x40 MSTORE DUP1 SWAP3 SWAP2 SWAP1 DUP2 DUP2 MSTORE PUSH1 0x20 ADD DUP3 DUP1 SLOAD PUSH1 0x1 DUP2 PUSH1 0x1 AND ISZERO PUSH2 0x100 MUL SUB AND PUSH1 0x2 SWAP1 DIV DUP1 ISZERO PUSH3 0x1019 JUMPI DUP1 PUSH1 0x1F LT PUSH3 0xFED JUMPI PUSH2 0x100 DUP1 DUP4 SLOAD DIV MUL DUP4 MSTORE SWAP2 PUSH1 0x20 ADD SWAP2 PUSH3 0x1019 JUMP JUMPDEST DUP3 ADD SWAP2 SWAP1 PUSH1 0x0 MSTORE PUSH1 0x20 PUSH1 0x0 KECCAK256 SWAP1 JUMPDEST DUP2 SLOAD DUP2 MSTORE SWAP1 PUSH1 0x1 ADD SWAP1 PUSH1 0x20 ADD DUP1 DUP4 GT PUSH3 0xFFB JUMPI DUP3 SWAP1 SUB PUSH1 0x1F AND DUP3 ADD SWAP2 JUMPDEST POP POP POP POP POP DUP2 MSTORE PUSH1 0x20 ADD PUSH1 0x2 DUP3 ADD SLOAD DUP2 MSTORE PUSH1 0x20 ADD PUSH1 0x3 DUP3 ADD SLOAD DUP2 MSTORE POP POP DUP2 MSTORE PUSH1 0x20 ADD PUSH1 0x12 DUP3 ADD SLOAD DUP2 MSTORE PUSH1 0x20 ADD PUSH1 0x13 DUP3 ADD PUSH1 0x0 SWAP1 SLOAD SWAP1 PUSH2 0x100 EXP SWAP1 DIV PUSH20 0xFFFFFFFFFFFFFFFFFFFFFFFFFFFFFFFFFFFFFFFF AND PUSH20 0xFFFFFFFFFFFFFFFFFFFFFFFFFFFFFFFFFFFFFFFF AND PUSH20 0xFFFFFFFFFFFFFFFFFFFFFFFFFFFFFFFFFFFFFFFF AND DUP2 MSTORE POP POP SWAP1 POP PUSH1 0x0 DUP2 PUSH1 0x0 ADD MLOAD MLOAD EQ PUSH3 0x10E7 JUMPI PUSH1 0x40 MLOAD PUSH32 0x8C379A000000000000000000000000000000000000000000000000000000000 DUP2 MSTORE PUSH1 0x4 ADD PUSH3 0x10DE SWAP1 PUSH3 0x57DD JUMP JUMPDEST PUSH1 0x40 MLOAD DUP1 SWAP2 SUB SWAP1 REVERT JUMPDEST PUSH3 0x10F1 PUSH3 0x3798 JUMP JUMPDEST PUSH1 0x1 PUSH1 0x0 SWAP1 SLOAD SWAP1 PUSH2 0x100 EXP SWAP1 DIV PUSH20 0xFFFFFFFFFFFFFFFFFFFFFFFFFFFFFFFFFFFFFFFF AND PUSH20 0xFFFFFFFFFFFFFFFFFFFFFFFFFFFFFFFFFFFFFFFF AND PUSH4 0xEF7AE53F DUP8 PUSH1 0x0 ADD MLOAD PUSH1 0x40 MLOAD DUP3 PUSH4 0xFFFFFFFF AND PUSH1 0xE0 SHL DUP2 MSTORE PUSH1 0x4 ADD PUSH3 0x1152 SWAP2 SWAP1 PUSH3 0x563F JUMP JUMPDEST PUSH1 0x0 PUSH1 0x40 MLOAD DUP1 DUP4 SUB DUP2 DUP7 DUP1 EXTCODESIZE ISZERO DUP1 ISZERO PUSH3 0x116B JUMPI PUSH1 0x0 DUP1 REVERT JUMPDEST POP GAS STATICCALL ISZERO DUP1 ISZERO PUSH3 0x1180 JUMPI RETURNDATASIZE PUSH1 0x0 DUP1 RETURNDATACOPY RETURNDATASIZE PUSH1 0x0 REVERT JUMPDEST POP POP POP POP PUSH1 0x40 MLOAD RETURNDATASIZE PUSH1 0x0 DUP3 RETURNDATACOPY RETURNDATASIZE PUSH1 0x1F NOT PUSH1 0x1F DUP3 ADD AND DUP3 ADD DUP1 PUSH1 0x40 MSTORE POP PUSH3 0x11AB SWAP2 SWAP1 DUP2 ADD SWAP1 PUSH3 0x4921 JUMP JUMPDEST SWAP1 POP PUSH1 0x0 DUP2 PUSH1 0x0 ADD MLOAD MLOAD EQ ISZERO PUSH3 0x11F9 JUMPI PUSH1 0x40 MLOAD PUSH32 0x8C379A000000000000000000000000000000000000000000000000000000000 DUP2 MSTORE PUSH1 0x4 ADD PUSH3 0x11F0 SWAP1 PUSH3 0x56CD JUMP JUMPDEST PUSH1 0x40 MLOAD DUP1 SWAP2 SUB SWAP1 REVERT JUMPDEST PUSH3 0x1203 PUSH3 0x37D8 JUMP JUMPDEST DUP2 PUSH1 0x40 ADD MLOAD SWAP1 POP PUSH1 0x0 PUSH1 0x3 DUP2 GT ISZERO PUSH3 0x1218 JUMPI INVALID JUMPDEST DUP2 PUSH1 0x0 ADD MLOAD PUSH1 0x3 DUP2 GT ISZERO PUSH3 0x1229 JUMPI INVALID JUMPDEST EQ ISZERO PUSH3 0x126D JUMPI PUSH1 0x40 MLOAD PUSH32 0x8C379A000000000000000000000000000000000000000000000000000000000 DUP2 MSTORE PUSH1 0x4 ADD PUSH3 0x1264 SWAP1 PUSH3 0x56EF JUMP JUMPDEST PUSH1 0x40 MLOAD DUP1 SWAP2 SUB SWAP1 REVERT JUMPDEST PUSH1 0x40 MLOAD DUP1 PUSH1 0x20 ADD PUSH1 0x40 MSTORE DUP1 DUP3 PUSH1 0x0 ADD MLOAD PUSH1 0x3 DUP2 GT ISZERO PUSH3 0x1289 JUMPI INVALID JUMPDEST DUP2 MSTORE POP DUP8 PUSH2 0x100 ADD DUP2 SWAP1 MSTORE POP PUSH3 0x129F PUSH3 0x3805 JUMP JUMPDEST DUP3 PUSH1 0x60 ADD MLOAD SWAP1 POP PUSH1 0x0 PUSH1 0x3 DUP2 GT ISZERO PUSH3 0x12B4 JUMPI INVALID JUMPDEST DUP2 PUSH1 0x0 ADD MLOAD PUSH1 0x3 DUP2 GT ISZERO PUSH3 0x12C5 JUMPI INVALID JUMPDEST EQ ISZERO PUSH3 0x1309 JUMPI PUSH1 0x40 MLOAD PUSH32 0x8C379A000000000000000000000000000000000000000000000000000000000 DUP2 MSTORE PUSH1 0x4 ADD PUSH3 0x1300 SWAP1 PUSH3 0x5865 JUMP JUMPDEST PUSH1 0x40 MLOAD DUP1 SWAP2 SUB SWAP1 REVERT JUMPDEST PUSH1 0x0 TIMESTAMP SWAP1 POP PUSH1 0x0 DUP1 DUP11 PUSH2 0x120 ADD MLOAD PUSH1 0x40 ADD MLOAD EQ ISZERO PUSH3 0x13BB JUMPI PUSH20 0x0 PUSH4 0x1BD95155 DUP5 PUSH1 0xA0 ADD MLOAD PUSH1 0x40 MLOAD DUP3 PUSH4 0xFFFFFFFF AND PUSH1 0xE0 SHL DUP2 MSTORE PUSH1 0x4 ADD PUSH3 0x135F SWAP2 SWAP1 PUSH3 0x5663 JUMP JUMPDEST PUSH1 0x20 PUSH1 0x40 MLOAD DUP1 DUP4 SUB DUP2 DUP7 DUP1 EXTCODESIZE ISZERO DUP1 ISZERO PUSH3 0x1378 JUMPI PUSH1 0x0 DUP1 REVERT JUMPDEST POP GAS DELEGATECALL ISZERO DUP1 ISZERO PUSH3 0x138D JUMPI RETURNDATASIZE PUSH1 0x0 DUP1 RETURNDATACOPY RETURNDATASIZE PUSH1 0x0 REVERT JUMPDEST POP POP POP POP PUSH1 0x40 MLOAD RETURNDATASIZE PUSH1 0x1F NOT PUSH1 0x1F DUP3 ADD AND DUP3 ADD DUP1 PUSH1 0x40 MSTORE POP PUSH3 0x13B3 SWAP2 SWAP1 DUP2 ADD SWAP1 PUSH3 0x49AB JUMP JUMPDEST SWAP1 POP PUSH3 0x13C8 JUMP JUMPDEST DUP10 PUSH2 0x120 ADD MLOAD PUSH1 0x40 ADD MLOAD SWAP1 POP JUMPDEST PUSH1 0x40 MLOAD DUP1 PUSH1 0x80 ADD PUSH1 0x40 MSTORE DUP1 DUP5 PUSH1 0x60 ADD MLOAD DUP2 MSTORE PUSH1 0x20 ADD DUP5 PUSH1 0x80 ADD MLOAD DUP2 MSTORE PUSH1 0x20 ADD DUP3 DUP2 MSTORE PUSH1 0x20 ADD PUSH2 0xE10 DUP4 MUL DUP5 ADD DUP2 MSTORE POP DUP11 PUSH2 0x120 ADD DUP2 SWAP1 MSTORE POP PUSH1 0x0 PUSH1 0x2 PUSH1 0x0 SWAP1 SLOAD SWAP1 PUSH2 0x100 EXP SWAP1 DIV PUSH20 0xFFFFFFFFFFFFFFFFFFFFFFFFFFFFFFFFFFFFFFFF AND PUSH20 0xFFFFFFFFFFFFFFFFFFFFFFFFFFFFFFFFFFFFFFFF AND PUSH4 0x66F61FB9 DUP13 PUSH1 0x0 ADD MLOAD PUSH1 0x40 MLOAD DUP3 PUSH4 0xFFFFFFFF AND PUSH1 0xE0 SHL DUP2 MSTORE PUSH1 0x4 ADD PUSH3 0x1463 SWAP2 SWAP1 PUSH3 0x563F JUMP JUMPDEST PUSH1 0x20 PUSH1 0x40 MLOAD DUP1 DUP4 SUB DUP2 DUP7 DUP1 EXTCODESIZE ISZERO DUP1 ISZERO PUSH3 0x147C JUMPI PUSH1 0x0 DUP1 REVERT JUMPDEST POP GAS STATICCALL ISZERO DUP1 ISZERO PUSH3 0x1491 JUMPI RETURNDATASIZE PUSH1 0x0 DUP1 RETURNDATACOPY RETURNDATASIZE PUSH1 0x0 REVERT JUMPDEST POP POP POP POP PUSH1 0x40 MLOAD RETURNDATASIZE PUSH1 0x1F NOT PUSH1 0x1F DUP3 ADD AND DUP3 ADD DUP1 PUSH1 0x40 MSTORE POP PUSH3 0x14B7 SWAP2 SWAP1 DUP2 ADD SWAP1 PUSH3 0x472B JUMP JUMPDEST SWAP1 POP DUP1 DUP12 PUSH1 0xE0 ADD MLOAD PUSH1 0xC0 ADD SWAP1 PUSH20 0xFFFFFFFFFFFFFFFFFFFFFFFFFFFFFFFFFFFFFFFF AND SWAP1 DUP2 PUSH20 0xFFFFFFFFFFFFFFFFFFFFFFFFFFFFFFFFFFFFFFFF AND DUP2 MSTORE POP POP PUSH1 0x60 PUSH3 0x1502 DUP13 PUSH3 0x3688 JUMP JUMPDEST SWAP1 POP DUP1 PUSH1 0x40 MLOAD PUSH3 0x1513 SWAP1 PUSH3 0x384E JUMP JUMPDEST PUSH3 0x151F SWAP2 SWAP1 PUSH3 0x5687 JUMP JUMPDEST PUSH1 0x40 MLOAD DUP1 SWAP2 SUB SWAP1 PUSH1 0x0 CREATE DUP1 ISZERO DUP1 ISZERO PUSH3 0x153C JUMPI RETURNDATASIZE PUSH1 0x0 DUP1 RETURNDATACOPY RETURNDATASIZE PUSH1 0x0 REVERT JUMPDEST POP DUP13 PUSH1 0xE0 ADD MLOAD PUSH1 0xE0 ADD SWAP1 PUSH20 0xFFFFFFFFFFFFFFFFFFFFFFFFFFFFFFFFFFFFFFFF AND SWAP1 DUP2 PUSH20 0xFFFFFFFFFFFFFFFFFFFFFFFFFFFFFFFFFFFFFFFF AND DUP2 MSTORE POP POP PUSH1 0x0 DUP12 MLOAD SWAP1 POP PUSH1 0x0 DUP1 SWAP1 POP JUMPDEST DUP2 DUP2 LT ISZERO PUSH3 0x1631 JUMPI PUSH1 0x4 DUP4 PUSH1 0x40 MLOAD PUSH3 0x159F SWAP2 SWAP1 PUSH3 0x552D JUMP JUMPDEST SWAP1 DUP2 MSTORE PUSH1 0x20 ADD PUSH1 0x40 MLOAD DUP1 SWAP2 SUB SWAP1 KECCAK256 DUP14 DUP3 DUP2 MLOAD DUP2 LT PUSH3 0x15BA JUMPI INVALID JUMPDEST PUSH1 0x20 MUL PUSH1 0x20 ADD ADD MLOAD SWAP1 DUP1 PUSH1 0x1 DUP2 SLOAD ADD DUP1 DUP3 SSTORE DUP1 SWAP2 POP POP SWAP1 PUSH1 0x1 DUP3 SUB SWAP1 PUSH1 0x0 MSTORE PUSH1 0x20 PUSH1 0x0 KECCAK256 SWAP1 PUSH1 0x3 MUL ADD PUSH1 0x0 SWAP1 SWAP2 SWAP3 SWAP1 SWAP2 SWAP1 SWAP2 POP PUSH1 0x0 DUP3 ADD MLOAD DUP2 PUSH1 0x0 ADD SSTORE PUSH1 0x20 DUP3 ADD MLOAD DUP2 PUSH1 0x1 ADD SSTORE PUSH1 0x40 DUP3 ADD MLOAD DUP2 PUSH1 0x2 ADD SWAP1 DUP1 MLOAD SWAP1 PUSH1 0x20 ADD SWAP1 PUSH3 0x161F SWAP3 SWAP2 SWAP1 PUSH3 0x385C JUMP JUMPDEST POP POP POP POP DUP1 DUP1 PUSH1 0x1 ADD SWAP2 POP POP PUSH3 0x1584 JUMP JUMPDEST POP PUSH1 0x0 PUSH20 0xFFFFFFFFFFFFFFFFFFFFFFFFFFFFFFFFFFFFFFFF AND DUP14 PUSH2 0x160 ADD MLOAD PUSH20 0xFFFFFFFFFFFFFFFFFFFFFFFFFFFFFFFFFFFFFFFF AND EQ ISZERO PUSH3 0x16A7 JUMPI CALLER DUP14 PUSH2 0x160 ADD SWAP1 PUSH20 0xFFFFFFFFFFFFFFFFFFFFFFFFFFFFFFFFFFFFFFFF AND SWAP1 DUP2 PUSH20 0xFFFFFFFFFFFFFFFFFFFFFFFFFFFFFFFFFFFFFFFF AND DUP2 MSTORE POP POP JUMPDEST DUP5 DUP14 PUSH2 0x140 ADD DUP2 DUP2 MSTORE POP POP DUP13 DUP11 DUP15 PUSH1 0x20 ADD MLOAD PUSH1 0x40 MLOAD PUSH3 0x16C8 SWAP2 SWAP1 PUSH3 0x5514 JUMP JUMPDEST SWAP1 DUP2 MSTORE PUSH1 0x20 ADD PUSH1 0x40 MLOAD DUP1 SWAP2 SUB SWAP1 KECCAK256 PUSH1 0x0 DUP3 ADD MLOAD DUP2 PUSH1 0x0 ADD SWAP1 DUP1 MLOAD SWAP1 PUSH1 0x20 ADD SWAP1 PUSH3 0x16F4 SWAP3 SWAP2 SWAP1 PUSH3 0x385C JUMP JUMPDEST POP PUSH1 0x20 DUP3 ADD MLOAD DUP2 PUSH1 0x1 ADD SWAP1 DUP1 MLOAD SWAP1 PUSH1 0x20 ADD SWAP1 PUSH3 0x1713 SWAP3 SWAP2 SWAP1 PUSH3 0x385C JUMP JUMPDEST POP PUSH1 0x40 DUP3 ADD MLOAD DUP2 PUSH1 0x2 ADD SWAP1 DUP1 MLOAD SWAP1 PUSH1 0x20 ADD SWAP1 PUSH3 0x1732 SWAP3 SWAP2 SWAP1 PUSH3 0x385C JUMP JUMPDEST POP PUSH1 0x60 DUP3 ADD MLOAD DUP2 PUSH1 0x3 ADD PUSH1 0x0 PUSH2 0x100 EXP DUP2 SLOAD DUP2 PUSH1 0xFF MUL NOT AND SWAP1 DUP4 PUSH1 0x3 DUP2 GT ISZERO PUSH3 0x1758 JUMPI INVALID JUMPDEST MUL OR SWAP1 SSTORE POP PUSH1 0x80 DUP3 ADD MLOAD DUP2 PUSH1 0x3 ADD PUSH1 0x1 PUSH2 0x100 EXP DUP2 SLOAD DUP2 PUSH1 0xFF MUL NOT AND SWAP1 DUP4 PUSH1 0x6 DUP2 GT ISZERO PUSH3 0x1782 JUMPI INVALID JUMPDEST MUL OR SWAP1 SSTORE POP PUSH1 0xA0 DUP3 ADD MLOAD DUP2 PUSH1 0x4 ADD SWAP1 DUP1 MLOAD SWAP1 PUSH1 0x20 ADD SWAP1 PUSH3 0x17A5 SWAP3 SWAP2 SWAP1 PUSH3 0x385C JUMP JUMPDEST POP PUSH1 0xC0 DUP3 ADD MLOAD DUP2 PUSH1 0x5 ADD SWAP1 DUP1 MLOAD SWAP1 PUSH1 0x20 ADD SWAP1 PUSH3 0x17C4 SWAP3 SWAP2 SWAP1 PUSH3 0x385C JUMP JUMPDEST POP PUSH1 0xE0 DUP3 ADD MLOAD DUP2 PUSH1 0x6 ADD PUSH1 0x0 DUP3 ADD MLOAD DUP2 PUSH1 0x0 ADD PUSH1 0x0 PUSH2 0x100 EXP DUP2 SLOAD DUP2 PUSH20 0xFFFFFFFFFFFFFFFFFFFFFFFFFFFFFFFFFFFFFFFF MUL NOT AND SWAP1 DUP4 PUSH20 0xFFFFFFFFFFFFFFFFFFFFFFFFFFFFFFFFFFFFFFFF AND MUL OR SWAP1 SSTORE POP PUSH1 0x20 DUP3 ADD MLOAD DUP2 PUSH1 0x0 ADD PUSH1 0x14 PUSH2 0x100 EXP DUP2 SLOAD DUP2 PUSH1 0xFF MUL NOT AND SWAP1 DUP4 PUSH1 0x1 DUP2 GT ISZERO PUSH3 0x183A JUMPI INVALID JUMPDEST MUL OR SWAP1 SSTORE POP PUSH1 0x40 DUP3 ADD MLOAD DUP2 PUSH1 0x1 ADD SSTORE PUSH1 0x60 DUP3 ADD MLOAD DUP2 PUSH1 0x2 ADD SWAP1 DUP1 MLOAD SWAP1 PUSH1 0x20 ADD SWAP1 PUSH3 0x1867 SWAP3 SWAP2 SWAP1 PUSH3 0x385C JUMP JUMPDEST POP PUSH1 0x80 DUP3 ADD MLOAD DUP2 PUSH1 0x3 ADD SSTORE PUSH1 0xA0 DUP3 ADD MLOAD DUP2 PUSH1 0x4 ADD SSTORE PUSH1 0xC0 DUP3 ADD MLOAD DUP2 PUSH1 0x5 ADD PUSH1 0x0 PUSH2 0x100 EXP DUP2 SLOAD DUP2 PUSH20 0xFFFFFFFFFFFFFFFFFFFFFFFFFFFFFFFFFFFFFFFF MUL NOT AND SWAP1 DUP4 PUSH20 0xFFFFFFFFFFFFFFFFFFFFFFFFFFFFFFFFFFFFFFFF AND MUL OR SWAP1 SSTORE POP PUSH1 0xE0 DUP3 ADD MLOAD DUP2 PUSH1 0x6 ADD PUSH1 0x0 PUSH2 0x100 EXP DUP2 SLOAD DUP2 PUSH20 0xFFFFFFFFFFFFFFFFFFFFFFFFFFFFFFFFFFFFFFFF MUL NOT AND SWAP1 DUP4 PUSH20 0xFFFFFFFFFFFFFFFFFFFFFFFFFFFFFFFFFFFFFFFF AND MUL OR SWAP1 SSTORE POP POP POP PUSH2 0x100 DUP3 ADD MLOAD DUP2 PUSH1 0xD ADD PUSH1 0x0 DUP3 ADD MLOAD DUP2 PUSH1 0x0 ADD PUSH1 0x0 PUSH2 0x100 EXP DUP2 SLOAD DUP2 PUSH1 0xFF MUL NOT AND SWAP1 DUP4 PUSH1 0x3 DUP2 GT ISZERO PUSH3 0x193B JUMPI INVALID JUMPDEST MUL OR SWAP1 SSTORE POP POP POP PUSH2 0x120 DUP3 ADD MLOAD DUP2 PUSH1 0xE ADD PUSH1 0x0 DUP3 ADD MLOAD DUP2 PUSH1 0x0 ADD SSTORE PUSH1 0x20 DUP3 ADD MLOAD DUP2 PUSH1 0x1 ADD SWAP1 DUP1 MLOAD SWAP1 PUSH1 0x20 ADD SWAP1 PUSH3 0x1974 SWAP3 SWAP2 SWAP1 PUSH3 0x385C JUMP JUMPDEST POP PUSH1 0x40 DUP3 ADD MLOAD DUP2 PUSH1 0x2 ADD SSTORE PUSH1 0x60 DUP3 ADD MLOAD DUP2 PUSH1 0x3 ADD SSTORE POP POP PUSH2 0x140 DUP3 ADD MLOAD DUP2 PUSH1 0x12 ADD SSTORE PUSH2 0x160 DUP3 ADD MLOAD DUP2 PUSH1 0x13 ADD PUSH1 0x0 PUSH2 0x100 EXP DUP2 SLOAD DUP2 PUSH20 0xFFFFFFFFFFFFFFFFFFFFFFFFFFFFFFFFFFFFFFFF MUL NOT AND SWAP1 DUP4 PUSH20 0xFFFFFFFFFFFFFFFFFFFFFFFFFFFFFFFFFFFFFFFF AND MUL OR SWAP1 SSTORE POP SWAP1 POP POP PUSH1 0x5 DUP14 PUSH1 0x0 ADD MLOAD PUSH1 0x40 MLOAD PUSH3 0x19F7 SWAP2 SWAP1 PUSH3 0x5514 JUMP JUMPDEST SWAP1 DUP2 MSTORE PUSH1 0x20 ADD PUSH1 0x40 MLOAD DUP1 SWAP2 SUB SWAP1 KECCAK256 PUSH1 0x0 DUP2 SLOAD DUP1 SWAP3 SWAP2 SWAP1 PUSH1 0x1 ADD SWAP2 SWAP1 POP SSTORE POP DUP13 PUSH1 0x20 ADD MLOAD PUSH1 0x40 MLOAD PUSH3 0x1A29 SWAP2 SWAP1 PUSH3 0x5514 JUMP JUMPDEST PUSH1 0x40 MLOAD DUP1 SWAP2 SUB SWAP1 KECCAK256 PUSH32 0x74B2E2A4D866C513222FE0222FEEF41E081EC60E6879885DD70B6B7A305C3C1E DUP15 DUP15 PUSH1 0x40 MLOAD PUSH3 0x1A64 SWAP3 SWAP2 SWAP1 PUSH3 0x58CD JUMP JUMPDEST PUSH1 0x40 MLOAD DUP1 SWAP2 SUB SWAP1 LOG2 DUP13 SWAP11 POP POP POP POP POP POP POP POP POP POP POP SWAP3 SWAP2 POP POP JUMP JUMPDEST PUSH3 0x1A89 PUSH3 0x36A5 JUMP JUMPDEST PUSH1 0x0 DUP4 PUSH1 0x20 ADD MLOAD MLOAD EQ ISZERO PUSH3 0x1AD5 JUMPI PUSH1 0x40 MLOAD PUSH32 0x8C379A000000000000000000000000000000000000000000000000000000000 DUP2 MSTORE PUSH1 0x4 ADD PUSH3 0x1ACC SWAP1 PUSH3 0x57FF JUMP JUMPDEST PUSH1 0x40 MLOAD DUP1 SWAP2 SUB SWAP1 REVERT JUMPDEST PUSH1 0x0 DUP4 PUSH1 0x0 ADD MLOAD MLOAD EQ ISZERO PUSH3 0x1B21 JUMPI PUSH1 0x40 MLOAD PUSH32 0x8C379A000000000000000000000000000000000000000000000000000000000 DUP2 MSTORE PUSH1 0x4 ADD PUSH3 0x1B18 SWAP1 PUSH3 0x5711 JUMP JUMPDEST PUSH1 0x40 MLOAD DUP1 SWAP2 SUB SWAP1 REVERT JUMPDEST PUSH1 0x0 PUSH1 0x3 DUP5 PUSH1 0x0 ADD MLOAD PUSH1 0x40 MLOAD PUSH3 0x1B39 SWAP2 SWAP1 PUSH3 0x5514 JUMP JUMPDEST SWAP1 DUP2 MSTORE PUSH1 0x20 ADD PUSH1 0x40 MLOAD DUP1 SWAP2 SUB SWAP1 KECCAK256 SWAP1 POP DUP4 DUP2 DUP6 PUSH1 0x20 ADD MLOAD PUSH1 0x40 MLOAD PUSH3 0x1B5F SWAP2 SWAP1 PUSH3 0x5514 JUMP JUMPDEST SWAP1 DUP2 MSTORE PUSH1 0x20 ADD PUSH1 0x40 MLOAD DUP1 SWAP2 SUB SWAP1 KECCAK256 PUSH1 0x0 DUP3 ADD MLOAD DUP2 PUSH1 0x0 ADD SWAP1 DUP1 MLOAD SWAP1 PUSH1 0x20 ADD SWAP1 PUSH3 0x1B8B SWAP3 SWAP2 SWAP1 PUSH3 0x385C JUMP JUMPDEST POP PUSH1 0x20 DUP3 ADD MLOAD DUP2 PUSH1 0x1 ADD SWAP1 DUP1 MLOAD SWAP1 PUSH1 0x20 ADD SWAP1 PUSH3 0x1BAA SWAP3 SWAP2 SWAP1 PUSH3 0x385C JUMP JUMPDEST POP PUSH1 0x40 DUP3 ADD MLOAD DUP2 PUSH1 0x2 ADD SWAP1 DUP1 MLOAD SWAP1 PUSH1 0x20 ADD SWAP1 PUSH3 0x1BC9 SWAP3 SWAP2 SWAP1 PUSH3 0x385C JUMP JUMPDEST POP PUSH1 0x60 DUP3 ADD MLOAD DUP2 PUSH1 0x3 ADD PUSH1 0x0 PUSH2 0x100 EXP DUP2 SLOAD DUP2 PUSH1 0xFF MUL NOT AND SWAP1 DUP4 PUSH1 0x3 DUP2 GT ISZERO PUSH3 0x1BEF JUMPI INVALID JUMPDEST MUL OR SWAP1 SSTORE POP PUSH1 0x80 DUP3 ADD MLOAD DUP2 PUSH1 0x3 ADD PUSH1 0x1 PUSH2 0x100 EXP DUP2 SLOAD DUP2 PUSH1 0xFF MUL NOT AND SWAP1 DUP4 PUSH1 0x6 DUP2 GT ISZERO PUSH3 0x1C19 JUMPI INVALID JUMPDEST MUL OR SWAP1 SSTORE POP PUSH1 0xA0 DUP3 ADD MLOAD DUP2 PUSH1 0x4 ADD SWAP1 DUP1 MLOAD SWAP1 PUSH1 0x20 ADD SWAP1 PUSH3 0x1C3C SWAP3 SWAP2 SWAP1 PUSH3 0x385C JUMP JUMPDEST POP PUSH1 0xC0 DUP3 ADD MLOAD DUP2 PUSH1 0x5 ADD SWAP1 DUP1 MLOAD SWAP1 PUSH1 0x20 ADD SWAP1 PUSH3 0x1C5B SWAP3 SWAP2 SWAP1 PUSH3 0x385C JUMP JUMPDEST POP PUSH1 0xE0 DUP3 ADD MLOAD DUP2 PUSH1 0x6 ADD PUSH1 0x0 DUP3 ADD MLOAD DUP2 PUSH1 0x0 ADD PUSH1 0x0 PUSH2 0x100 EXP DUP2 SLOAD DUP2 PUSH20 0xFFFFFFFFFFFFFFFFFFFFFFFFFFFFFFFFFFFFFFFF MUL NOT AND SWAP1 DUP4 PUSH20 0xFFFFFFFFFFFFFFFFFFFFFFFFFFFFFFFFFFFFFFFF AND MUL OR SWAP1 SSTORE POP PUSH1 0x20 DUP3 ADD MLOAD DUP2 PUSH1 0x0 ADD PUSH1 0x14 PUSH2 0x100 EXP DUP2 SLOAD DUP2 PUSH1 0xFF MUL NOT AND SWAP1 DUP4 PUSH1 0x1 DUP2 GT ISZERO PUSH3 0x1CD1 JUMPI INVALID JUMPDEST MUL OR SWAP1 SSTORE POP PUSH1 0x40 DUP3 ADD MLOAD DUP2 PUSH1 0x1 ADD SSTORE PUSH1 0x60 DUP3 ADD MLOAD DUP2 PUSH1 0x2 ADD SWAP1 DUP1 MLOAD SWAP1 PUSH1 0x20 ADD SWAP1 PUSH3 0x1CFE SWAP3 SWAP2 SWAP1 PUSH3 0x385C JUMP JUMPDEST POP PUSH1 0x80 DUP3 ADD MLOAD DUP2 PUSH1 0x3 ADD SSTORE PUSH1 0xA0 DUP3 ADD MLOAD DUP2 PUSH1 0x4 ADD SSTORE PUSH1 0xC0 DUP3 ADD MLOAD DUP2 PUSH1 0x5 ADD PUSH1 0x0 PUSH2 0x100 EXP DUP2 SLOAD DUP2 PUSH20 0xFFFFFFFFFFFFFFFFFFFFFFFFFFFFFFFFFFFFFFFF MUL NOT AND SWAP1 DUP4 PUSH20 0xFFFFFFFFFFFFFFFFFFFFFFFFFFFFFFFFFFFFFFFF AND MUL OR SWAP1 SSTORE POP PUSH1 0xE0 DUP3 ADD MLOAD DUP2 PUSH1 0x6 ADD PUSH1 0x0 PUSH2 0x100 EXP DUP2 SLOAD DUP2 PUSH20 0xFFFFFFFFFFFFFFFFFFFFFFFFFFFFFFFFFFFFFFFF MUL NOT AND SWAP1 DUP4 PUSH20 0xFFFFFFFFFFFFFFFFFFFFFFFFFFFFFFFFFFFFFFFF AND MUL OR SWAP1 SSTORE POP POP POP PUSH2 0x100 DUP3 ADD MLOAD DUP2 PUSH1 0xD ADD PUSH1 0x0 DUP3 ADD MLOAD DUP2 PUSH1 0x0 ADD PUSH1 0x0 PUSH2 0x100 EXP DUP2 SLOAD DUP2 PUSH1 0xFF MUL NOT AND SWAP1 DUP4 PUSH1 0x3 DUP2 GT ISZERO PUSH3 0x1DD2 JUMPI INVALID JUMPDEST MUL OR SWAP1 SSTORE POP POP POP PUSH2 0x120 DUP3 ADD MLOAD DUP2 PUSH1 0xE ADD PUSH1 0x0 DUP3 ADD MLOAD DUP2 PUSH1 0x0 ADD SSTORE PUSH1 0x20 DUP3 ADD MLOAD DUP2 PUSH1 0x1 ADD SWAP1 DUP1 MLOAD SWAP1 PUSH1 0x20 ADD SWAP1 PUSH3 0x1E0B SWAP3 SWAP2 SWAP1 PUSH3 0x385C JUMP JUMPDEST POP PUSH1 0x40 DUP3 ADD MLOAD DUP2 PUSH1 0x2 ADD SSTORE PUSH1 0x60 DUP3 ADD MLOAD DUP2 PUSH1 0x3 ADD SSTORE POP POP PUSH2 0x140 DUP3 ADD MLOAD DUP2 PUSH1 0x12 ADD SSTORE PUSH2 0x160 DUP3 ADD MLOAD DUP2 PUSH1 0x13 ADD PUSH1 0x0 PUSH2 0x100 EXP DUP2 SLOAD DUP2 PUSH20 0xFFFFFFFFFFFFFFFFFFFFFFFFFFFFFFFFFFFFFFFF MUL NOT AND SWAP1 DUP4 PUSH20 0xFFFFFFFFFFFFFFFFFFFFFFFFFFFFFFFFFFFFFFFF AND MUL OR SWAP1 SSTORE POP SWAP1 POP POP PUSH1 0x60 PUSH3 0x1E85 DUP6 PUSH3 0x3688 JUMP JUMPDEST SWAP1 POP PUSH1 0x0 DUP5 MLOAD SWAP1 POP PUSH1 0x0 DUP1 SWAP1 POP JUMPDEST DUP2 DUP2 LT ISZERO PUSH3 0x1F40 JUMPI PUSH1 0x4 DUP4 PUSH1 0x40 MLOAD PUSH3 0x1EAE SWAP2 SWAP1 PUSH3 0x552D JUMP JUMPDEST SWAP1 DUP2 MSTORE PUSH1 0x20 ADD PUSH1 0x40 MLOAD DUP1 SWAP2 SUB SWAP1 KECCAK256 DUP7 DUP3 DUP2 MLOAD DUP2 LT PUSH3 0x1EC9 JUMPI INVALID JUMPDEST PUSH1 0x20 MUL PUSH1 0x20 ADD ADD MLOAD SWAP1 DUP1 PUSH1 0x1 DUP2 SLOAD ADD DUP1 DUP3 SSTORE DUP1 SWAP2 POP POP SWAP1 PUSH1 0x1 DUP3 SUB SWAP1 PUSH1 0x0 MSTORE PUSH1 0x20 PUSH1 0x0 KECCAK256 SWAP1 PUSH1 0x3 MUL ADD PUSH1 0x0 SWAP1 SWAP2 SWAP3 SWAP1 SWAP2 SWAP1 SWAP2 POP PUSH1 0x0 DUP3 ADD MLOAD DUP2 PUSH1 0x0 ADD SSTORE PUSH1 0x20 DUP3 ADD MLOAD DUP2 PUSH1 0x1 ADD SSTORE PUSH1 0x40 DUP3 ADD MLOAD DUP2 PUSH1 0x2 ADD SWAP1 DUP1 MLOAD SWAP1 PUSH1 0x20 ADD SWAP1 PUSH3 0x1F2E SWAP3 SWAP2 SWAP1 PUSH3 0x385C JUMP JUMPDEST POP POP POP POP DUP1 DUP1 PUSH1 0x1 ADD SWAP2 POP POP PUSH3 0x1E93 JUMP JUMPDEST POP DUP6 PUSH1 0x20 ADD MLOAD PUSH1 0x40 MLOAD PUSH3 0x1F55 SWAP2 SWAP1 PUSH3 0x5514 JUMP JUMPDEST PUSH1 0x40 MLOAD DUP1 SWAP2 SUB SWAP1 KECCAK256 PUSH32 0x74B2E2A4D866C513222FE0222FEEF41E081EC60E6879885DD70B6B7A305C3C1E DUP8 DUP8 PUSH1 0x40 MLOAD PUSH3 0x1F90 SWAP3 SWAP2 SWAP1 PUSH3 0x58CD JUMP JUMPDEST PUSH1 0x40 MLOAD DUP1 SWAP2 SUB SWAP1 LOG2 DUP6 SWAP4 POP POP POP POP SWAP3 SWAP2 POP POP JUMP JUMPDEST PUSH3 0x1FAE PUSH3 0x36A5 JUMP JUMPDEST PUSH1 0x60 PUSH3 0x1FBA PUSH3 0x36A5 JUMP JUMPDEST PUSH3 0x204E DUP8 DUP8 DUP1 DUP1 PUSH1 0x1F ADD PUSH1 0x20 DUP1 SWAP2 DIV MUL PUSH1 0x20 ADD PUSH1 0x40 MLOAD SWAP1 DUP2 ADD PUSH1 0x40 MSTORE DUP1 SWAP4 SWAP3 SWAP2 SWAP1 DUP2 DUP2 MSTORE PUSH1 0x20 ADD DUP4 DUP4 DUP1 DUP3 DUP5 CALLDATACOPY PUSH1 0x0 DUP2 DUP5 ADD MSTORE PUSH1 0x1F NOT PUSH1 0x1F DUP3 ADD AND SWAP1 POP DUP1 DUP4 ADD SWAP3 POP POP POP POP POP POP POP DUP7 DUP7 DUP1 DUP1 PUSH1 0x1F ADD PUSH1 0x20 DUP1 SWAP2 DIV MUL PUSH1 0x20 ADD PUSH1 0x40 MLOAD SWAP1 DUP2 ADD PUSH1 0x40 MSTORE DUP1 SWAP4 SWAP3 SWAP2 SWAP1 DUP2 DUP2 MSTORE PUSH1 0x20 ADD DUP4 DUP4 DUP1 DUP3 DUP5 CALLDATACOPY PUSH1 0x0 DUP2 DUP5 ADD MSTORE PUSH1 0x1F NOT PUSH1 0x1F DUP3 ADD AND SWAP1 POP DUP1 DUP4 ADD SWAP3 POP POP POP POP POP POP POP PUSH3 0x2E39 JUMP JUMPDEST SWAP1 POP PUSH1 0x60 PUSH3 0x205D DUP3 PUSH3 0x3688 JUMP JUMPDEST SWAP1 POP DUP2 PUSH1 0x4 DUP3 PUSH1 0x40 MLOAD PUSH3 0x2072 SWAP2 SWAP1 PUSH3 0x552D JUMP JUMPDEST SWAP1 DUP2 MSTORE PUSH1 0x20 ADD PUSH1 0x40 MLOAD DUP1 SWAP2 SUB SWAP1 KECCAK256 DUP1 DUP1 SLOAD DUP1 PUSH1 0x20 MUL PUSH1 0x20 ADD PUSH1 0x40 MLOAD SWAP1 DUP2 ADD PUSH1 0x40 MSTORE DUP1 SWAP3 SWAP2 SWAP1 DUP2 DUP2 MSTORE PUSH1 0x20 ADD PUSH1 0x0 SWAP1 JUMPDEST DUP3 DUP3 LT ISZERO PUSH3 0x218F JUMPI DUP4 DUP3 SWAP1 PUSH1 0x0 MSTORE PUSH1 0x20 PUSH1 0x0 KECCAK256 SWAP1 PUSH1 0x3 MUL ADD PUSH1 0x40 MLOAD DUP1 PUSH1 0x60 ADD PUSH1 0x40 MSTORE SWAP1 DUP2 PUSH1 0x0 DUP3 ADD SLOAD DUP2 MSTORE PUSH1 0x20 ADD PUSH1 0x1 DUP3 ADD SLOAD DUP2 MSTORE PUSH1 0x20 ADD PUSH1 0x2 DUP3 ADD DUP1 SLOAD PUSH1 0x1 DUP2 PUSH1 0x1 AND ISZERO PUSH2 0x100 MUL SUB AND PUSH1 0x2 SWAP1 DIV DUP1 PUSH1 0x1F ADD PUSH1 0x20 DUP1 SWAP2 DIV MUL PUSH1 0x20 ADD PUSH1 0x40 MLOAD SWAP1 DUP2 ADD PUSH1 0x40 MSTORE DUP1 SWAP3 SWAP2 SWAP1 DUP2 DUP2 MSTORE PUSH1 0x20 ADD DUP3 DUP1 SLOAD PUSH1 0x1 DUP2 PUSH1 0x1 AND ISZERO PUSH2 0x100 MUL SUB AND PUSH1 0x2 SWAP1 DIV DUP1 ISZERO PUSH3 0x2176 JUMPI DUP1 PUSH1 0x1F LT PUSH3 0x214A JUMPI PUSH2 0x100 DUP1 DUP4 SLOAD DIV MUL DUP4 MSTORE SWAP2 PUSH1 0x20 ADD SWAP2 PUSH3 0x2176 JUMP JUMPDEST DUP3 ADD SWAP2 SWAP1 PUSH1 0x0 MSTORE PUSH1 0x20 PUSH1 0x0 KECCAK256 SWAP1 JUMPDEST DUP2 SLOAD DUP2 MSTORE SWAP1 PUSH1 0x1 ADD SWAP1 PUSH1 0x20 ADD DUP1 DUP4 GT PUSH3 0x2158 JUMPI DUP3 SWAP1 SUB PUSH1 0x1F AND DUP3 ADD SWAP2 JUMPDEST POP POP POP POP POP DUP2 MSTORE POP POP DUP2 MSTORE PUSH1 0x20 ADD SWAP1 PUSH1 0x1 ADD SWAP1 PUSH3 0x20A1 JUMP JUMPDEST POP POP POP POP SWAP1 POP SWAP4 POP SWAP4 POP POP POP SWAP5 POP SWAP5 SWAP3 POP POP POP JUMP JUMPDEST PUSH1 0x0 PUSH3 0x21B0 PUSH3 0x36A5 JUMP JUMPDEST PUSH3 0x2244 DUP7 DUP7 DUP1 DUP1 PUSH1 0x1F ADD PUSH1 0x20 DUP1 SWAP2 DIV MUL PUSH1 0x20 ADD PUSH1 0x40 MLOAD SWAP1 DUP2 ADD PUSH1 0x40 MSTORE DUP1 SWAP4 SWAP3 SWAP2 SWAP1 DUP2 DUP2 MSTORE PUSH1 0x20 ADD DUP4 DUP4 DUP1 DUP3 DUP5 CALLDATACOPY PUSH1 0x0 DUP2 DUP5 ADD MSTORE PUSH1 0x1F NOT PUSH1 0x1F DUP3 ADD AND SWAP1 POP DUP1 DUP4 ADD SWAP3 POP POP POP POP POP POP POP DUP6 DUP6 DUP1 DUP1 PUSH1 0x1F ADD PUSH1 0x20 DUP1 SWAP2 DIV MUL PUSH1 0x20 ADD PUSH1 0x40 MLOAD SWAP1 DUP2 ADD PUSH1 0x40 MSTORE DUP1 SWAP4 SWAP3 SWAP2 SWAP1 DUP2 DUP2 MSTORE PUSH1 0x20 ADD DUP4 DUP4 DUP1 DUP3 DUP5 CALLDATACOPY PUSH1 0x0 DUP2 DUP5 ADD MSTORE PUSH1 0x1F NOT PUSH1 0x1F DUP3 ADD AND SWAP1 POP DUP1 DUP4 ADD SWAP3 POP POP POP POP POP POP POP PUSH3 0x2E39 JUMP JUMPDEST SWAP1 POP PUSH1 0x0 DUP2 PUSH1 0x0 ADD MLOAD MLOAD EQ ISZERO PUSH3 0x2292 JUMPI PUSH1 0x40 MLOAD PUSH32 0x8C379A000000000000000000000000000000000000000000000000000000000 DUP2 MSTORE PUSH1 0x4 ADD PUSH3 0x2289 SWAP1 PUSH3 0x57BB JUMP JUMPDEST PUSH1 0x40 MLOAD DUP1 SWAP2 SUB SWAP1 REVERT JUMPDEST DUP1 PUSH1 0x60 ADD MLOAD SWAP2 POP POP SWAP5 SWAP4 POP POP POP POP JUMP JUMPDEST PUSH3 0x22AC PUSH3 0x36A5 JUMP JUMPDEST PUSH3 0x22C0 DUP3 PUSH1 0x0 ADD MLOAD DUP4 PUSH1 0x20 ADD MLOAD PUSH3 0x2E39 JUMP JUMPDEST SWAP1 POP PUSH1 0x0 DUP3 PUSH1 0x0 ADD MLOAD MLOAD EQ ISZERO PUSH3 0x230E JUMPI PUSH1 0x40 MLOAD PUSH32 0x8C379A000000000000000000000000000000000000000000000000000000000 DUP2 MSTORE PUSH1 0x4 ADD PUSH3 0x2305 SWAP1 PUSH3 0x57BB JUMP JUMPDEST PUSH1 0x40 MLOAD DUP1 SWAP2 SUB SWAP1 REVERT JUMPDEST PUSH1 0x0 PUSH1 0x3 DUP2 GT ISZERO PUSH3 0x231C JUMPI INVALID JUMPDEST DUP2 PUSH1 0x60 ADD MLOAD PUSH1 0x3 DUP2 GT ISZERO PUSH3 0x232D JUMPI INVALID JUMPDEST EQ PUSH3 0x2370 JUMPI PUSH1 0x40 MLOAD PUSH32 0x8C379A000000000000000000000000000000000000000000000000000000000 DUP2 MSTORE PUSH1 0x4 ADD PUSH3 0x2367 SWAP1 PUSH3 0x5887 JUMP JUMPDEST PUSH1 0x40 MLOAD DUP1 SWAP2 SUB SWAP1 REVERT JUMPDEST PUSH3 0x237A PUSH3 0x38E3 JUMP JUMPDEST DUP2 PUSH2 0x120 ADD MLOAD SWAP1 POP PUSH1 0x0 TIMESTAMP SWAP1 POP DUP2 PUSH1 0x60 ADD MLOAD DUP2 GT ISZERO PUSH3 0x23D1 JUMPI PUSH1 0x40 MLOAD PUSH32 0x8C379A000000000000000000000000000000000000000000000000000000000 DUP2 MSTORE PUSH1 0x4 ADD PUSH3 0x23C8 SWAP1 PUSH3 0x5821 JUMP JUMPDEST PUSH1 0x40 MLOAD DUP1 SWAP2 SUB SWAP1 REVERT JUMPDEST PUSH1 0x0 DUP5 PUSH1 0x80 ADD MLOAD DUP6 PUSH1 0x60 ADD MLOAD ADD GT PUSH3 0x2421 JUMPI PUSH1 0x40 MLOAD PUSH32 0x8C379A000000000000000000000000000000000000000000000000000000000 DUP2 MSTORE PUSH1 0x4 ADD PUSH3 0x2418 SWAP1 PUSH3 0x5777 JUMP JUMPDEST PUSH1 0x40 MLOAD DUP1 SWAP2 SUB SWAP1 REVERT JUMPDEST PUSH1 0x0 PUSH1 0x2 PUSH1 0x0 SWAP1 SLOAD SWAP1 PUSH2 0x100 EXP SWAP1 DIV PUSH20 0xFFFFFFFFFFFFFFFFFFFFFFFFFFFFFFFFFFFFFFFF AND PUSH20 0xFFFFFFFFFFFFFFFFFFFFFFFFFFFFFFFFFFFFFFFF AND PUSH4 0x66F61FB9 DUP6 PUSH1 0x0 ADD MLOAD PUSH1 0x40 MLOAD DUP3 PUSH4 0xFFFFFFFF AND PUSH1 0xE0 SHL DUP2 MSTORE PUSH1 0x4 ADD PUSH3 0x2484 SWAP2 SWAP1 PUSH3 0x563F JUMP JUMPDEST PUSH1 0x20 PUSH1 0x40 MLOAD DUP1 DUP4 SUB DUP2 DUP7 DUP1 EXTCODESIZE ISZERO DUP1 ISZERO PUSH3 0x249D JUMPI PUSH1 0x0 DUP1 REVERT JUMPDEST POP GAS STATICCALL ISZERO DUP1 ISZERO PUSH3 0x24B2 JUMPI RETURNDATASIZE PUSH1 0x0 DUP1 RETURNDATACOPY RETURNDATASIZE PUSH1 0x0 REVERT JUMPDEST POP POP POP POP PUSH1 0x40 MLOAD RETURNDATASIZE PUSH1 0x1F NOT PUSH1 0x1F DUP3 ADD AND DUP3 ADD DUP1 PUSH1 0x40 MSTORE POP PUSH3 0x24D8 SWAP2 SWAP1 DUP2 ADD SWAP1 PUSH3 0x472B JUMP JUMPDEST SWAP1 POP DUP1 PUSH20 0xFFFFFFFFFFFFFFFFFFFFFFFFFFFFFFFFFFFFFFFF AND PUSH4 0x23B872DD CALLER DUP7 PUSH1 0xE0 ADD MLOAD PUSH1 0xE0 ADD MLOAD PUSH20 0xFFFFFFFFFFFFFFFFFFFFFFFFFFFFFFFFFFFFFFFF AND PUSH4 0x38CC4831 PUSH1 0x40 MLOAD DUP2 PUSH4 0xFFFFFFFF AND PUSH1 0xE0 SHL DUP2 MSTORE PUSH1 0x4 ADD PUSH1 0x20 PUSH1 0x40 MLOAD DUP1 DUP4 SUB DUP2 DUP7 DUP1 EXTCODESIZE ISZERO DUP1 ISZERO PUSH3 0x2546 JUMPI PUSH1 0x0 DUP1 REVERT JUMPDEST POP GAS STATICCALL ISZERO DUP1 ISZERO PUSH3 0x255B JUMPI RETURNDATASIZE PUSH1 0x0 DUP1 RETURNDATACOPY RETURNDATASIZE PUSH1 0x0 REVERT JUMPDEST POP POP POP POP PUSH1 0x40 MLOAD RETURNDATASIZE PUSH1 0x1F NOT PUSH1 0x1F DUP3 ADD AND DUP3 ADD DUP1 PUSH1 0x40 MSTORE POP PUSH3 0x2581 SWAP2 SWAP1 DUP2 ADD SWAP1 PUSH3 0x46D3 JUMP JUMPDEST DUP9 PUSH1 0x80 ADD MLOAD DUP10 PUSH1 0x60 ADD MLOAD ADD PUSH1 0x40 MLOAD DUP5 PUSH4 0xFFFFFFFF AND PUSH1 0xE0 SHL DUP2 MSTORE PUSH1 0x4 ADD PUSH3 0x25AC SWAP4 SWAP3 SWAP2 SWAP1 PUSH3 0x557B JUMP JUMPDEST PUSH1 0x20 PUSH1 0x40 MLOAD DUP1 DUP4 SUB DUP2 PUSH1 0x0 DUP8 DUP1 EXTCODESIZE ISZERO DUP1 ISZERO PUSH3 0x25C7 JUMPI PUSH1 0x0 DUP1 REVERT JUMPDEST POP GAS CALL ISZERO DUP1 ISZERO PUSH3 0x25DC JUMPI RETURNDATASIZE PUSH1 0x0 DUP1 RETURNDATACOPY RETURNDATASIZE PUSH1 0x0 REVERT JUMPDEST POP POP POP POP PUSH1 0x40 MLOAD RETURNDATASIZE PUSH1 0x1F NOT PUSH1 0x1F DUP3 ADD AND DUP3 ADD DUP1 PUSH1 0x40 MSTORE POP PUSH3 0x2602 SWAP2 SWAP1 DUP2 ADD SWAP1 PUSH3 0x46FF JUMP JUMPDEST POP TIMESTAMP DUP6 PUSH1 0xA0 ADD DUP2 DUP2 MSTORE POP POP CALLER DUP6 PUSH1 0x40 ADD SWAP1 PUSH20 0xFFFFFFFFFFFFFFFFFFFFFFFFFFFFFFFFFFFFFFFF AND SWAP1 DUP2 PUSH20 0xFFFFFFFFFFFFFFFFFFFFFFFFFFFFFFFFFFFFFFFF AND DUP2 MSTORE POP POP PUSH1 0x60 PUSH3 0x265B DUP7 PUSH1 0x0 ADD MLOAD DUP8 PUSH1 0x20 ADD MLOAD PUSH3 0x365A JUMP JUMPDEST SWAP1 POP PUSH1 0x6 DUP2 PUSH1 0x40 MLOAD PUSH3 0x266F SWAP2 SWAP1 PUSH3 0x552D JUMP JUMPDEST SWAP1 DUP2 MSTORE PUSH1 0x20 ADD PUSH1 0x40 MLOAD DUP1 SWAP2 SUB SWAP1 KECCAK256 DUP7 SWAP1 DUP1 PUSH1 0x1 DUP2 SLOAD ADD DUP1 DUP3 SSTORE DUP1 SWAP2 POP POP SWAP1 PUSH1 0x1 DUP3 SUB SWAP1 PUSH1 0x0 MSTORE PUSH1 0x20 PUSH1 0x0 KECCAK256 SWAP1 PUSH1 0x6 MUL ADD PUSH1 0x0 SWAP1 SWAP2 SWAP3 SWAP1 SWAP2 SWAP1 SWAP2 POP PUSH1 0x0 DUP3 ADD MLOAD DUP2 PUSH1 0x0 ADD SWAP1 DUP1 MLOAD SWAP1 PUSH1 0x20 ADD SWAP1 PUSH3 0x26C7 SWAP3 SWAP2 SWAP1 PUSH3 0x385C JUMP JUMPDEST POP PUSH1 0x20 DUP3 ADD MLOAD DUP2 PUSH1 0x1 ADD SWAP1 DUP1 MLOAD SWAP1 PUSH1 0x20 ADD SWAP1 PUSH3 0x26E6 SWAP3 SWAP2 SWAP1 PUSH3 0x385C JUMP JUMPDEST POP PUSH1 0x40 DUP3 ADD MLOAD DUP2 PUSH1 0x2 ADD PUSH1 0x0 PUSH2 0x100 EXP DUP2 SLOAD DUP2 PUSH20 0xFFFFFFFFFFFFFFFFFFFFFFFFFFFFFFFFFFFFFFFF MUL NOT AND SWAP1 DUP4 PUSH20 0xFFFFFFFFFFFFFFFFFFFFFFFFFFFFFFFFFFFFFFFF AND MUL OR SWAP1 SSTORE POP PUSH1 0x60 DUP3 ADD MLOAD DUP2 PUSH1 0x3 ADD SSTORE PUSH1 0x80 DUP3 ADD MLOAD DUP2 PUSH1 0x4 ADD SSTORE PUSH1 0xA0 DUP3 ADD MLOAD DUP2 PUSH1 0x5 ADD SSTORE POP POP POP DUP5 PUSH1 0x20 ADD MLOAD PUSH1 0x40 MLOAD PUSH3 0x2763 SWAP2 SWAP1 PUSH3 0x5514 JUMP JUMPDEST PUSH1 0x40 MLOAD DUP1 SWAP2 SUB SWAP1 KECCAK256 PUSH32 0x1FC2188CF86B2FDFF0C37C3A4CC9AC40D660CB3ED78875F759054AA66515180F DUP8 PUSH1 0x40 MLOAD PUSH3 0x279C SWAP2 SWAP1 PUSH3 0x5908 JUMP JUMPDEST PUSH1 0x40 MLOAD DUP1 SWAP2 SUB SWAP1 LOG2 POP POP POP POP POP POP JUMP JUMPDEST PUSH1 0x0 PUSH20 0xFFFFFFFFFFFFFFFFFFFFFFFFFFFFFFFFFFFFFFFF AND DUP2 PUSH20 0xFFFFFFFFFFFFFFFFFFFFFFFFFFFFFFFFFFFFFFFF AND EQ ISZERO PUSH3 0x281F JUMPI PUSH1 0x40 MLOAD PUSH32 0x8C379A000000000000000000000000000000000000000000000000000000000 DUP2 MSTORE PUSH1 0x4 ADD PUSH3 0x2816 SWAP1 PUSH3 0x5843 JUMP JUMPDEST PUSH1 0x40 MLOAD DUP1 SWAP2 SUB SWAP1 REVERT JUMPDEST DUP1 PUSH1 0x2 PUSH1 0x0 PUSH2 0x100 EXP DUP2 SLOAD DUP2 PUSH20 0xFFFFFFFFFFFFFFFFFFFFFFFFFFFFFFFFFFFFFFFF MUL NOT AND SWAP1 DUP4 PUSH20 0xFFFFFFFFFFFFFFFFFFFFFFFFFFFFFFFFFFFFFFFF AND MUL OR SWAP1 SSTORE POP POP JUMP JUMPDEST PUSH1 0x0 PUSH1 0x5 DUP4 DUP4 PUSH1 0x40 MLOAD PUSH3 0x2879 SWAP3 SWAP2 SWAP1 PUSH3 0x54F9 JUMP JUMPDEST SWAP1 DUP2 MSTORE PUSH1 0x20 ADD PUSH1 0x40 MLOAD DUP1 SWAP2 SUB SWAP1 KECCAK256 SLOAD SWAP1 POP SWAP3 SWAP2 POP POP JUMP JUMPDEST PUSH3 0x289A PUSH3 0x36A5 JUMP JUMPDEST PUSH3 0x292E DUP7 DUP7 DUP1 DUP1 PUSH1 0x1F ADD PUSH1 0x20 DUP1 SWAP2 DIV MUL PUSH1 0x20 ADD PUSH1 0x40 MLOAD SWAP1 DUP2 ADD PUSH1 0x40 MSTORE DUP1 SWAP4 SWAP3 SWAP2 SWAP1 DUP2 DUP2 MSTORE PUSH1 0x20 ADD DUP4 DUP4 DUP1 DUP3 DUP5 CALLDATACOPY PUSH1 0x0 DUP2 DUP5 ADD MSTORE PUSH1 0x1F NOT PUSH1 0x1F DUP3 ADD AND SWAP1 POP DUP1 DUP4 ADD SWAP3 POP POP POP POP POP POP POP DUP6 DUP6 DUP1 DUP1 PUSH1 0x1F ADD PUSH1 0x20 DUP1 SWAP2 DIV MUL PUSH1 0x20 ADD PUSH1 0x40 MLOAD SWAP1 DUP2 ADD PUSH1 0x40 MSTORE DUP1 SWAP4 SWAP3 SWAP2 SWAP1 DUP2 DUP2 MSTORE PUSH1 0x20 ADD DUP4 DUP4 DUP1 DUP3 DUP5 CALLDATACOPY PUSH1 0x0 DUP2 DUP5 ADD MSTORE PUSH1 0x1F NOT PUSH1 0x1F DUP3 ADD AND SWAP1 POP DUP1 DUP4 ADD SWAP3 POP POP POP POP POP POP POP PUSH3 0x2E39 JUMP JUMPDEST SWAP1 POP PUSH1 0x0 DUP2 PUSH1 0x0 ADD MLOAD MLOAD EQ ISZERO PUSH3 0x297C JUMPI PUSH1 0x40 MLOAD PUSH32 0x8C379A000000000000000000000000000000000000000000000000000000000 DUP2 MSTORE PUSH1 0x4 ADD PUSH3 0x2973 SWAP1 PUSH3 0x56AB JUMP JUMPDEST PUSH1 0x40 MLOAD DUP1 SWAP2 SUB SWAP1 REVERT JUMPDEST DUP1 PUSH1 0x60 ADD MLOAD PUSH1 0x3 DUP2 GT ISZERO PUSH3 0x298D JUMPI INVALID JUMPDEST DUP3 PUSH1 0x3 DUP2 GT ISZERO PUSH3 0x299A JUMPI INVALID JUMPDEST EQ PUSH3 0x2D7A JUMPI PUSH1 0x0 DUP2 PUSH1 0x60 ADD MLOAD SWAP1 POP DUP3 DUP3 PUSH1 0x60 ADD SWAP1 PUSH1 0x3 DUP2 GT ISZERO PUSH3 0x29BB JUMPI INVALID JUMPDEST SWAP1 DUP2 PUSH1 0x3 DUP2 GT ISZERO PUSH3 0x29C9 JUMPI INVALID JUMPDEST DUP2 MSTORE POP POP PUSH1 0x0 PUSH1 0x3 DUP4 PUSH1 0x0 ADD MLOAD PUSH1 0x40 MLOAD PUSH3 0x29E5 SWAP2 SWAP1 PUSH3 0x5514 JUMP JUMPDEST SWAP1 DUP2 MSTORE PUSH1 0x20 ADD PUSH1 0x40 MLOAD DUP1 SWAP2 SUB SWAP1 KECCAK256 SWAP1 POP DUP3 DUP2 DUP8 DUP8 PUSH1 0x40 MLOAD PUSH3 0x2A09 SWAP3 SWAP2 SWAP1 PUSH3 0x54F9 JUMP JUMPDEST SWAP1 DUP2 MSTORE PUSH1 0x20 ADD PUSH1 0x40 MLOAD DUP1 SWAP2 SUB SWAP1 KECCAK256 PUSH1 0x0 DUP3 ADD MLOAD DUP2 PUSH1 0x0 ADD SWAP1 DUP1 MLOAD SWAP1 PUSH1 0x20 ADD SWAP1 PUSH3 0x2A35 SWAP3 SWAP2 SWAP1 PUSH3 0x385C JUMP JUMPDEST POP PUSH1 0x20 DUP3 ADD MLOAD DUP2 PUSH1 0x1 ADD SWAP1 DUP1 MLOAD SWAP1 PUSH1 0x20 ADD SWAP1 PUSH3 0x2A54 SWAP3 SWAP2 SWAP1 PUSH3 0x385C JUMP JUMPDEST POP PUSH1 0x40 DUP3 ADD MLOAD DUP2 PUSH1 0x2 ADD SWAP1 DUP1 MLOAD SWAP1 PUSH1 0x20 ADD SWAP1 PUSH3 0x2A73 SWAP3 SWAP2 SWAP1 PUSH3 0x385C JUMP JUMPDEST POP PUSH1 0x60 DUP3 ADD MLOAD DUP2 PUSH1 0x3 ADD PUSH1 0x0 PUSH2 0x100 EXP DUP2 SLOAD DUP2 PUSH1 0xFF MUL NOT AND SWAP1 DUP4 PUSH1 0x3 DUP2 GT ISZERO PUSH3 0x2A99 JUMPI INVALID JUMPDEST MUL OR SWAP1 SSTORE POP PUSH1 0x80 DUP3 ADD MLOAD DUP2 PUSH1 0x3 ADD PUSH1 0x1 PUSH2 0x100 EXP DUP2 SLOAD DUP2 PUSH1 0xFF MUL NOT AND SWAP1 DUP4 PUSH1 0x6 DUP2 GT ISZERO PUSH3 0x2AC3 JUMPI INVALID JUMPDEST MUL OR SWAP1 SSTORE POP PUSH1 0xA0 DUP3 ADD MLOAD DUP2 PUSH1 0x4 ADD SWAP1 DUP1 MLOAD SWAP1 PUSH1 0x20 ADD SWAP1 PUSH3 0x2AE6 SWAP3 SWAP2 SWAP1 PUSH3 0x385C JUMP JUMPDEST POP PUSH1 0xC0 DUP3 ADD MLOAD DUP2 PUSH1 0x5 ADD SWAP1 DUP1 MLOAD SWAP1 PUSH1 0x20 ADD SWAP1 PUSH3 0x2B05 SWAP3 SWAP2 SWAP1 PUSH3 0x385C JUMP JUMPDEST POP PUSH1 0xE0 DUP3 ADD MLOAD DUP2 PUSH1 0x6 ADD PUSH1 0x0 DUP3 ADD MLOAD DUP2 PUSH1 0x0 ADD PUSH1 0x0 PUSH2 0x100 EXP DUP2 SLOAD DUP2 PUSH20 0xFFFFFFFFFFFFFFFFFFFFFFFFFFFFFFFFFFFFFFFF MUL NOT AND SWAP1 DUP4 PUSH20 0xFFFFFFFFFFFFFFFFFFFFFFFFFFFFFFFFFFFFFFFF AND MUL OR SWAP1 SSTORE POP PUSH1 0x20 DUP3 ADD MLOAD DUP2 PUSH1 0x0 ADD PUSH1 0x14 PUSH2 0x100 EXP DUP2 SLOAD DUP2 PUSH1 0xFF MUL NOT AND SWAP1 DUP4 PUSH1 0x1 DUP2 GT ISZERO PUSH3 0x2B7B JUMPI INVALID JUMPDEST MUL OR SWAP1 SSTORE POP PUSH1 0x40 DUP3 ADD MLOAD DUP2 PUSH1 0x1 ADD SSTORE PUSH1 0x60 DUP3 ADD MLOAD DUP2 PUSH1 0x2 ADD SWAP1 DUP1 MLOAD SWAP1 PUSH1 0x20 ADD SWAP1 PUSH3 0x2BA8 SWAP3 SWAP2 SWAP1 PUSH3 0x385C JUMP JUMPDEST POP PUSH1 0x80 DUP3 ADD MLOAD DUP2 PUSH1 0x3 ADD SSTORE PUSH1 0xA0 DUP3 ADD MLOAD DUP2 PUSH1 0x4 ADD SSTORE PUSH1 0xC0 DUP3 ADD MLOAD DUP2 PUSH1 0x5 ADD PUSH1 0x0 PUSH2 0x100 EXP DUP2 SLOAD DUP2 PUSH20 0xFFFFFFFFFFFFFFFFFFFFFFFFFFFFFFFFFFFFFFFF MUL NOT AND SWAP1 DUP4 PUSH20 0xFFFFFFFFFFFFFFFFFFFFFFFFFFFFFFFFFFFFFFFF AND MUL OR SWAP1 SSTORE POP PUSH1 0xE0 DUP3 ADD MLOAD DUP2 PUSH1 0x6 ADD PUSH1 0x0 PUSH2 0x100 EXP DUP2 SLOAD DUP2 PUSH20 0xFFFFFFFFFFFFFFFFFFFFFFFFFFFFFFFFFFFFFFFF MUL NOT AND SWAP1 DUP4 PUSH20 0xFFFFFFFFFFFFFFFFFFFFFFFFFFFFFFFFFFFFFFFF AND MUL OR SWAP1 SSTORE POP POP POP PUSH2 0x100 DUP3 ADD MLOAD DUP2 PUSH1 0xD ADD PUSH1 0x0 DUP3 ADD MLOAD DUP2 PUSH1 0x0 ADD PUSH1 0x0 PUSH2 0x100 EXP DUP2 SLOAD DUP2 PUSH1 0xFF MUL NOT AND SWAP1 DUP4 PUSH1 0x3 DUP2 GT ISZERO PUSH3 0x2C7C JUMPI INVALID JUMPDEST MUL OR SWAP1 SSTORE POP POP POP PUSH2 0x120 DUP3 ADD MLOAD DUP2 PUSH1 0xE ADD PUSH1 0x0 DUP3 ADD MLOAD DUP2 PUSH1 0x0 ADD SSTORE PUSH1 0x20 DUP3 ADD MLOAD DUP2 PUSH1 0x1 ADD SWAP1 DUP1 MLOAD SWAP1 PUSH1 0x20 ADD SWAP1 PUSH3 0x2CB5 SWAP3 SWAP2 SWAP1 PUSH3 0x385C JUMP JUMPDEST POP PUSH1 0x40 DUP3 ADD MLOAD DUP2 PUSH1 0x2 ADD SSTORE PUSH1 0x60 DUP3 ADD MLOAD DUP2 PUSH1 0x3 ADD SSTORE POP POP PUSH2 0x140 DUP3 ADD MLOAD DUP2 PUSH1 0x12 ADD SSTORE PUSH2 0x160 DUP3 ADD MLOAD DUP2 PUSH1 0x13 ADD PUSH1 0x0 PUSH2 0x100 EXP DUP2 SLOAD DUP2 PUSH20 0xFFFFFFFFFFFFFFFFFFFFFFFFFFFFFFFFFFFFFFFF MUL NOT AND SWAP1 DUP4 PUSH20 0xFFFFFFFFFFFFFFFFFFFFFFFFFFFFFFFFFFFFFFFF AND MUL OR SWAP1 SSTORE POP SWAP1 POP POP DUP8 DUP8 PUSH1 0x40 MLOAD PUSH3 0x2D34 SWAP3 SWAP2 SWAP1 PUSH3 0x54F9 JUMP JUMPDEST PUSH1 0x40 MLOAD DUP1 SWAP2 SUB SWAP1 KECCAK256 PUSH32 0x984B6675FFC22E1F752662B0CE0A6E95ADB7944D816AA2D09E6995C9B20A198A DUP4 DUP7 PUSH1 0x40 MLOAD PUSH3 0x2D6F SWAP3 SWAP2 SWAP1 PUSH3 0x5612 JUMP JUMPDEST PUSH1 0x40 MLOAD DUP1 SWAP2 SUB SWAP1 LOG2 POP POP JUMPDEST POP POP POP POP POP POP JUMP JUMPDEST PUSH1 0x0 PUSH20 0xFFFFFFFFFFFFFFFFFFFFFFFFFFFFFFFFFFFFFFFF AND DUP2 PUSH20 0xFFFFFFFFFFFFFFFFFFFFFFFFFFFFFFFFFFFFFFFF AND EQ ISZERO PUSH3 0x2DF5 JUMPI PUSH1 0x40 MLOAD PUSH32 0x8C379A000000000000000000000000000000000000000000000000000000000 DUP2 MSTORE PUSH1 0x4 ADD PUSH3 0x2DEC SWAP1 PUSH3 0x5755 JUMP JUMPDEST PUSH1 0x40 MLOAD DUP1 SWAP2 SUB SWAP1 REVERT JUMPDEST DUP1 PUSH1 0x1 PUSH1 0x0 PUSH2 0x100 EXP DUP2 SLOAD DUP2 PUSH20 0xFFFFFFFFFFFFFFFFFFFFFFFFFFFFFFFFFFFFFFFF MUL NOT AND SWAP1 DUP4 PUSH20 0xFFFFFFFFFFFFFFFFFFFFFFFFFFFFFFFFFFFFFFFF AND MUL OR SWAP1 SSTORE POP POP JUMP JUMPDEST PUSH3 0x2E43 PUSH3 0x36A5 JUMP JUMPDEST PUSH1 0x0 DUP4 MLOAD EQ ISZERO PUSH3 0x2E8B JUMPI PUSH1 0x40 MLOAD PUSH32 0x8C379A000000000000000000000000000000000000000000000000000000000 DUP2 MSTORE PUSH1 0x4 ADD PUSH3 0x2E82 SWAP1 PUSH3 0x5733 JUMP JUMPDEST PUSH1 0x40 MLOAD DUP1 SWAP2 SUB SWAP1 REVERT JUMPDEST PUSH1 0x0 DUP3 MLOAD EQ ISZERO PUSH3 0x2ED3 JUMPI PUSH1 0x40 MLOAD PUSH32 0x8C379A000000000000000000000000000000000000000000000000000000000 DUP2 MSTORE PUSH1 0x4 ADD PUSH3 0x2ECA SWAP1 PUSH3 0x57FF JUMP JUMPDEST PUSH1 0x40 MLOAD DUP1 SWAP2 SUB SWAP1 REVERT JUMPDEST PUSH1 0x0 PUSH1 0x3 DUP5 PUSH1 0x40 MLOAD PUSH3 0x2EE7 SWAP2 SWAP1 PUSH3 0x552D JUMP JUMPDEST SWAP1 DUP2 MSTORE PUSH1 0x20 ADD PUSH1 0x40 MLOAD DUP1 SWAP2 SUB SWAP1 KECCAK256 SWAP1 POP PUSH3 0x2F01 PUSH3 0x36A5 JUMP JUMPDEST DUP2 DUP5 PUSH1 0x40 MLOAD PUSH3 0x2F12 SWAP2 SWAP1 PUSH3 0x552D JUMP JUMPDEST SWAP1 DUP2 MSTORE PUSH1 0x20 ADD PUSH1 0x40 MLOAD DUP1 SWAP2 SUB SWAP1 KECCAK256 PUSH1 0x40 MLOAD DUP1 PUSH2 0x180 ADD PUSH1 0x40 MSTORE SWAP1 DUP2 PUSH1 0x0 DUP3 ADD DUP1 SLOAD PUSH1 0x1 DUP2 PUSH1 0x1 AND ISZERO PUSH2 0x100 MUL SUB AND PUSH1 0x2 SWAP1 DIV DUP1 PUSH1 0x1F ADD PUSH1 0x20 DUP1 SWAP2 DIV MUL PUSH1 0x20 ADD PUSH1 0x40 MLOAD SWAP1 DUP2 ADD PUSH1 0x40 MSTORE DUP1 SWAP3 SWAP2 SWAP1 DUP2 DUP2 MSTORE PUSH1 0x20 ADD DUP3 DUP1 SLOAD PUSH1 0x1 DUP2 PUSH1 0x1 AND ISZERO PUSH2 0x100 MUL SUB AND PUSH1 0x2 SWAP1 DIV DUP1 ISZERO PUSH3 0x2FC9 JUMPI DUP1 PUSH1 0x1F LT PUSH3 0x2F9D JUMPI PUSH2 0x100 DUP1 DUP4 SLOAD DIV MUL DUP4 MSTORE SWAP2 PUSH1 0x20 ADD SWAP2 PUSH3 0x2FC9 JUMP JUMPDEST DUP3 ADD SWAP2 SWAP1 PUSH1 0x0 MSTORE PUSH1 0x20 PUSH1 0x0 KECCAK256 SWAP1 JUMPDEST DUP2 SLOAD DUP2 MSTORE SWAP1 PUSH1 0x1 ADD SWAP1 PUSH1 0x20 ADD DUP1 DUP4 GT PUSH3 0x2FAB JUMPI DUP3 SWAP1 SUB PUSH1 0x1F AND DUP3 ADD SWAP2 JUMPDEST POP POP POP POP POP DUP2 MSTORE PUSH1 0x20 ADD PUSH1 0x1 DUP3 ADD DUP1 SLOAD PUSH1 0x1 DUP2 PUSH1 0x1 AND ISZERO PUSH2 0x100 MUL SUB AND PUSH1 0x2 SWAP1 DIV DUP1 PUSH1 0x1F ADD PUSH1 0x20 DUP1 SWAP2 DIV MUL PUSH1 0x20 ADD PUSH1 0x40 MLOAD SWAP1 DUP2 ADD PUSH1 0x40 MSTORE DUP1 SWAP3 SWAP2 SWAP1 DUP2 DUP2 MSTORE PUSH1 0x20 ADD DUP3 DUP1 SLOAD PUSH1 0x1 DUP2 PUSH1 0x1 AND ISZERO PUSH2 0x100 MUL SUB AND PUSH1 0x2 SWAP1 DIV DUP1 ISZERO PUSH3 0x306F JUMPI DUP1 PUSH1 0x1F LT PUSH3 0x3043 JUMPI PUSH2 0x100 DUP1 DUP4 SLOAD DIV MUL DUP4 MSTORE SWAP2 PUSH1 0x20 ADD SWAP2 PUSH3 0x306F JUMP JUMPDEST DUP3 ADD SWAP2 SWAP1 PUSH1 0x0 MSTORE PUSH1 0x20 PUSH1 0x0 KECCAK256 SWAP1 JUMPDEST DUP2 SLOAD DUP2 MSTORE SWAP1 PUSH1 0x1 ADD SWAP1 PUSH1 0x20 ADD DUP1 DUP4 GT PUSH3 0x3051 JUMPI DUP3 SWAP1 SUB PUSH1 0x1F AND DUP3 ADD SWAP2 JUMPDEST POP POP POP POP POP DUP2 MSTORE PUSH1 0x20 ADD PUSH1 0x2 DUP3 ADD DUP1 SLOAD PUSH1 0x1 DUP2 PUSH1 0x1 AND ISZERO PUSH2 0x100 MUL SUB AND PUSH1 0x2 SWAP1 DIV DUP1 PUSH1 0x1F ADD PUSH1 0x20 DUP1 SWAP2 DIV MUL PUSH1 0x20 ADD PUSH1 0x40 MLOAD SWAP1 DUP2 ADD PUSH1 0x40 MSTORE DUP1 SWAP3 SWAP2 SWAP1 DUP2 DUP2 MSTORE PUSH1 0x20 ADD DUP3 DUP1 SLOAD PUSH1 0x1 DUP2 PUSH1 0x1 AND ISZERO PUSH2 0x100 MUL SUB AND PUSH1 0x2 SWAP1 DIV DUP1 ISZERO PUSH3 0x3115 JUMPI DUP1 PUSH1 0x1F LT PUSH3 0x30E9 JUMPI PUSH2 0x100 DUP1 DUP4 SLOAD DIV MUL DUP4 MSTORE SWAP2 PUSH1 0x20 ADD SWAP2 PUSH3 0x3115 JUMP JUMPDEST DUP3 ADD SWAP2 SWAP1 PUSH1 0x0 MSTORE PUSH1 0x20 PUSH1 0x0 KECCAK256 SWAP1 JUMPDEST DUP2 SLOAD DUP2 MSTORE SWAP1 PUSH1 0x1 ADD SWAP1 PUSH1 0x20 ADD DUP1 DUP4 GT PUSH3 0x30F7 JUMPI DUP3 SWAP1 SUB PUSH1 0x1F AND DUP3 ADD SWAP2 JUMPDEST POP POP POP POP POP DUP2 MSTORE PUSH1 0x20 ADD PUSH1 0x3 DUP3 ADD PUSH1 0x0 SWAP1 SLOAD SWAP1 PUSH2 0x100 EXP SWAP1 DIV PUSH1 0xFF AND PUSH1 0x3 DUP2 GT ISZERO PUSH3 0x313D JUMPI INVALID JUMPDEST PUSH1 0x3 DUP2 GT ISZERO PUSH3 0x3149 JUMPI INVALID JUMPDEST DUP2 MSTORE PUSH1 0x20 ADD PUSH1 0x3 DUP3 ADD PUSH1 0x1 SWAP1 SLOAD SWAP1 PUSH2 0x100 EXP SWAP1 DIV PUSH1 0xFF AND PUSH1 0x6 DUP2 GT ISZERO PUSH3 0x316C JUMPI INVALID JUMPDEST PUSH1 0x6 DUP2 GT ISZERO PUSH3 0x3178 JUMPI INVALID JUMPDEST DUP2 MSTORE PUSH1 0x20 ADD PUSH1 0x4 DUP3 ADD DUP1 SLOAD PUSH1 0x1 DUP2 PUSH1 0x1 AND ISZERO PUSH2 0x100 MUL SUB AND PUSH1 0x2 SWAP1 DIV DUP1 PUSH1 0x1F ADD PUSH1 0x20 DUP1 SWAP2 DIV MUL PUSH1 0x20 ADD PUSH1 0x40 MLOAD SWAP1 DUP2 ADD PUSH1 0x40 MSTORE DUP1 SWAP3 SWAP2 SWAP1 DUP2 DUP2 MSTORE PUSH1 0x20 ADD DUP3 DUP1 SLOAD PUSH1 0x1 DUP2 PUSH1 0x1 AND ISZERO PUSH2 0x100 MUL SUB AND PUSH1 0x2 SWAP1 DIV DUP1 ISZERO PUSH3 0x3219 JUMPI DUP1 PUSH1 0x1F LT PUSH3 0x31ED JUMPI PUSH2 0x100 DUP1 DUP4 SLOAD DIV MUL DUP4 MSTORE SWAP2 PUSH1 0x20 ADD SWAP2 PUSH3 0x3219 JUMP JUMPDEST DUP3 ADD SWAP2 SWAP1 PUSH1 0x0 MSTORE PUSH1 0x20 PUSH1 0x0 KECCAK256 SWAP1 JUMPDEST DUP2 SLOAD DUP2 MSTORE SWAP1 PUSH1 0x1 ADD SWAP1 PUSH1 0x20 ADD DUP1 DUP4 GT PUSH3 0x31FB JUMPI DUP3 SWAP1 SUB PUSH1 0x1F AND DUP3 ADD SWAP2 JUMPDEST POP POP POP POP POP DUP2 MSTORE PUSH1 0x20 ADD PUSH1 0x5 DUP3 ADD DUP1 SLOAD PUSH1 0x1 DUP2 PUSH1 0x1 AND ISZERO PUSH2 0x100 MUL SUB AND PUSH1 0x2 SWAP1 DIV DUP1 PUSH1 0x1F ADD PUSH1 0x20 DUP1 SWAP2 DIV MUL PUSH1 0x20 ADD PUSH1 0x40 MLOAD SWAP1 DUP2 ADD PUSH1 0x40 MSTORE DUP1 SWAP3 SWAP2 SWAP1 DUP2 DUP2 MSTORE PUSH1 0x20 ADD DUP3 DUP1 SLOAD PUSH1 0x1 DUP2 PUSH1 0x1 AND ISZERO PUSH2 0x100 MUL SUB AND PUSH1 0x2 SWAP1 DIV DUP1 ISZERO PUSH3 0x32BF JUMPI DUP1 PUSH1 0x1F LT PUSH3 0x3293 JUMPI PUSH2 0x100 DUP1 DUP4 SLOAD DIV MUL DUP4 MSTORE SWAP2 PUSH1 0x20 ADD SWAP2 PUSH3 0x32BF JUMP JUMPDEST DUP3 ADD SWAP2 SWAP1 PUSH1 0x0 MSTORE PUSH1 0x20 PUSH1 0x0 KECCAK256 SWAP1 JUMPDEST DUP2 SLOAD DUP2 MSTORE SWAP1 PUSH1 0x1 ADD SWAP1 PUSH1 0x20 ADD DUP1 DUP4 GT PUSH3 0x32A1 JUMPI DUP3 SWAP1 SUB PUSH1 0x1F AND DUP3 ADD SWAP2 JUMPDEST POP POP POP POP POP DUP2 MSTORE PUSH1 0x20 ADD PUSH1 0x6 DUP3 ADD PUSH1 0x40 MLOAD DUP1 PUSH2 0x100 ADD PUSH1 0x40 MSTORE SWAP1 DUP2 PUSH1 0x0 DUP3 ADD PUSH1 0x0 SWAP1 SLOAD SWAP1 PUSH2 0x100 EXP SWAP1 DIV PUSH20 0xFFFFFFFFFFFFFFFFFFFFFFFFFFFFFFFFFFFFFFFF AND PUSH20 0xFFFFFFFFFFFFFFFFFFFFFFFFFFFFFFFFFFFFFFFF AND PUSH20 0xFFFFFFFFFFFFFFFFFFFFFFFFFFFFFFFFFFFFFFFF AND DUP2 MSTORE PUSH1 0x20 ADD PUSH1 0x0 DUP3 ADD PUSH1 0x14 SWAP1 SLOAD SWAP1 PUSH2 0x100 EXP SWAP1 DIV PUSH1 0xFF AND PUSH1 0x1 DUP2 GT ISZERO PUSH3 0x334E JUMPI INVALID JUMPDEST PUSH1 0x1 DUP2 GT ISZERO PUSH3 0x335A JUMPI INVALID JUMPDEST DUP2 MSTORE PUSH1 0x20 ADD PUSH1 0x1 DUP3 ADD SLOAD DUP2 MSTORE PUSH1 0x20 ADD PUSH1 0x2 DUP3 ADD DUP1 SLOAD PUSH1 0x1 DUP2 PUSH1 0x1 AND ISZERO PUSH2 0x100 MUL SUB AND PUSH1 0x2 SWAP1 DIV DUP1 PUSH1 0x1F ADD PUSH1 0x20 DUP1 SWAP2 DIV MUL PUSH1 0x20 ADD PUSH1 0x40 MLOAD SWAP1 DUP2 ADD PUSH1 0x40 MSTORE DUP1 SWAP3 SWAP2 SWAP1 DUP2 DUP2 MSTORE PUSH1 0x20 ADD DUP3 DUP1 SLOAD PUSH1 0x1 DUP2 PUSH1 0x1 AND ISZERO PUSH2 0x100 MUL SUB AND PUSH1 0x2 SWAP1 DIV DUP1 ISZERO PUSH3 0x3405 JUMPI DUP1 PUSH1 0x1F LT PUSH3 0x33D9 JUMPI PUSH2 0x100 DUP1 DUP4 SLOAD DIV MUL DUP4 MSTORE SWAP2 PUSH1 0x20 ADD SWAP2 PUSH3 0x3405 JUMP JUMPDEST DUP3 ADD SWAP2 SWAP1 PUSH1 0x0 MSTORE PUSH1 0x20 PUSH1 0x0 KECCAK256 SWAP1 JUMPDEST DUP2 SLOAD DUP2 MSTORE SWAP1 PUSH1 0x1 ADD SWAP1 PUSH1 0x20 ADD DUP1 DUP4 GT PUSH3 0x33E7 JUMPI DUP3 SWAP1 SUB PUSH1 0x1F AND DUP3 ADD SWAP2 JUMPDEST POP POP POP POP POP DUP2 MSTORE PUSH1 0x20 ADD PUSH1 0x3 DUP3 ADD SLOAD DUP2 MSTORE PUSH1 0x20 ADD PUSH1 0x4 DUP3 ADD SLOAD DUP2 MSTORE PUSH1 0x20 ADD PUSH1 0x5 DUP3 ADD PUSH1 0x0 SWAP1 SLOAD SWAP1 PUSH2 0x100 EXP SWAP1 DIV PUSH20 0xFFFFFFFFFFFFFFFFFFFFFFFFFFFFFFFFFFFFFFFF AND PUSH20 0xFFFFFFFFFFFFFFFFFFFFFFFFFFFFFFFFFFFFFFFF AND PUSH20 0xFFFFFFFFFFFFFFFFFFFFFFFFFFFFFFFFFFFFFFFF AND DUP2 MSTORE PUSH1 0x20 ADD PUSH1 0x6 DUP3 ADD PUSH1 0x0 SWAP1 SLOAD SWAP1 PUSH2 0x100 EXP SWAP1 DIV PUSH20 0xFFFFFFFFFFFFFFFFFFFFFFFFFFFFFFFFFFFFFFFF AND PUSH20 0xFFFFFFFFFFFFFFFFFFFFFFFFFFFFFFFFFFFFFFFF AND PUSH20 0xFFFFFFFFFFFFFFFFFFFFFFFFFFFFFFFFFFFFFFFF AND DUP2 MSTORE POP POP DUP2 MSTORE PUSH1 0x20 ADD PUSH1 0xD DUP3 ADD PUSH1 0x40 MLOAD DUP1 PUSH1 0x20 ADD PUSH1 0x40 MSTORE SWAP1 DUP2 PUSH1 0x0 DUP3 ADD PUSH1 0x0 SWAP1 SLOAD SWAP1 PUSH2 0x100 EXP SWAP1 DIV PUSH1 0xFF AND PUSH1 0x3 DUP2 GT ISZERO PUSH3 0x3501 JUMPI INVALID JUMPDEST PUSH1 0x3 DUP2 GT ISZERO PUSH3 0x350D JUMPI INVALID JUMPDEST DUP2 MSTORE POP POP DUP2 MSTORE PUSH1 0x20 ADD PUSH1 0xE DUP3 ADD PUSH1 0x40 MLOAD DUP1 PUSH1 0x80 ADD PUSH1 0x40 MSTORE SWAP1 DUP2 PUSH1 0x0 DUP3 ADD SLOAD DUP2 MSTORE PUSH1 0x20 ADD PUSH1 0x1 DUP3 ADD DUP1 SLOAD PUSH1 0x1 DUP2 PUSH1 0x1 AND ISZERO PUSH2 0x100 MUL SUB AND PUSH1 0x2 SWAP1 DIV DUP1 PUSH1 0x1F ADD PUSH1 0x20 DUP1 SWAP2 DIV MUL PUSH1 0x20 ADD PUSH1 0x40 MLOAD SWAP1 DUP2 ADD PUSH1 0x40 MSTORE DUP1 SWAP3 SWAP2 SWAP1 DUP2 DUP2 MSTORE PUSH1 0x20 ADD DUP3 DUP1 SLOAD PUSH1 0x1 DUP2 PUSH1 0x1 AND ISZERO PUSH2 0x100 MUL SUB AND PUSH1 0x2 SWAP1 DIV DUP1 ISZERO PUSH3 0x35CC JUMPI DUP1 PUSH1 0x1F LT PUSH3 0x35A0 JUMPI PUSH2 0x100 DUP1 DUP4 SLOAD DIV MUL DUP4 MSTORE SWAP2 PUSH1 0x20 ADD SWAP2 PUSH3 0x35CC JUMP JUMPDEST DUP3 ADD SWAP2 SWAP1 PUSH1 0x0 MSTORE PUSH1 0x20 PUSH1 0x0 KECCAK256 SWAP1 JUMPDEST DUP2 SLOAD DUP2 MSTORE SWAP1 PUSH1 0x1 ADD SWAP1 PUSH1 0x20 ADD DUP1 DUP4 GT PUSH3 0x35AE JUMPI DUP3 SWAP1 SUB PUSH1 0x1F AND DUP3 ADD SWAP2 JUMPDEST POP POP POP POP POP DUP2 MSTORE PUSH1 0x20 ADD PUSH1 0x2 DUP3 ADD SLOAD DUP2 MSTORE PUSH1 0x20 ADD PUSH1 0x3 DUP3 ADD SLOAD DUP2 MSTORE POP POP DUP2 MSTORE PUSH1 0x20 ADD PUSH1 0x12 DUP3 ADD SLOAD DUP2 MSTORE PUSH1 0x20 ADD PUSH1 0x13 DUP3 ADD PUSH1 0x0 SWAP1 SLOAD SWAP1 PUSH2 0x100 EXP SWAP1 DIV PUSH20 0xFFFFFFFFFFFFFFFFFFFFFFFFFFFFFFFFFFFFFFFF AND PUSH20 0xFFFFFFFFFFFFFFFFFFFFFFFFFFFFFFFFFFFFFFFF AND PUSH20 0xFFFFFFFFFFFFFFFFFFFFFFFFFFFFFFFFFFFFFFFF AND DUP2 MSTORE POP POP SWAP1 POP DUP1 SWAP3 POP POP POP SWAP3 SWAP2 POP POP JUMP JUMPDEST PUSH1 0x60 DUP3 DUP3 PUSH1 0x40 MLOAD PUSH1 0x20 ADD PUSH3 0x3671 SWAP3 SWAP2 SWAP1 PUSH3 0x5546 JUMP JUMPDEST PUSH1 0x40 MLOAD PUSH1 0x20 DUP2 DUP4 SUB SUB DUP2 MSTORE SWAP1 PUSH1 0x40 MSTORE SWAP1 POP SWAP3 SWAP2 POP POP JUMP JUMPDEST PUSH1 0x60 PUSH3 0x369E DUP3 PUSH1 0x0 ADD MLOAD DUP4 PUSH1 0x20 ADD MLOAD PUSH3 0x365A JUMP JUMPDEST SWAP1 POP SWAP2 SWAP1 POP JUMP JUMPDEST PUSH1 0x40 MLOAD DUP1 PUSH2 0x180 ADD PUSH1 0x40 MSTORE DUP1 PUSH1 0x60 DUP2 MSTORE PUSH1 0x20 ADD PUSH1 0x60 DUP2 MSTORE PUSH1 0x20 ADD PUSH1 0x60 DUP2 MSTORE PUSH1 0x20 ADD PUSH1 0x0 PUSH1 0x3 DUP2 GT ISZERO PUSH3 0x36D4 JUMPI INVALID JUMPDEST DUP2 MSTORE PUSH1 0x20 ADD PUSH1 0x0 PUSH1 0x6 DUP2 GT ISZERO PUSH3 0x36E7 JUMPI INVALID JUMPDEST DUP2 MSTORE PUSH1 0x20 ADD PUSH1 0x60 DUP2 MSTORE PUSH1 0x20 ADD PUSH1 0x60 DUP2 MSTORE PUSH1 0x20 ADD PUSH3 0x3704 PUSH3 0x390B JUMP JUMPDEST DUP2 MSTORE PUSH1 0x20 ADD PUSH3 0x3713 PUSH3 0x399E JUMP JUMPDEST DUP2 MSTORE PUSH1 0x20 ADD PUSH3 0x3722 PUSH3 0x39BD JUMP JUMPDEST DUP2 MSTORE PUSH1 0x20 ADD PUSH1 0x0 DUP2 MSTORE PUSH1 0x20 ADD PUSH1 0x0 PUSH20 0xFFFFFFFFFFFFFFFFFFFFFFFFFFFFFFFFFFFFFFFF AND DUP2 MSTORE POP SWAP1 JUMP JUMPDEST PUSH1 0x40 MLOAD DUP1 PUSH1 0xC0 ADD PUSH1 0x40 MSTORE DUP1 PUSH1 0x60 DUP2 MSTORE PUSH1 0x20 ADD PUSH1 0x60 DUP2 MSTORE PUSH1 0x20 ADD PUSH1 0x0 PUSH20 0xFFFFFFFFFFFFFFFFFFFFFFFFFFFFFFFFFFFFFFFF AND DUP2 MSTORE PUSH1 0x20 ADD PUSH1 0x0 DUP2 MSTORE PUSH1 0x20 ADD PUSH1 0x0 DUP2 MSTORE PUSH1 0x20 ADD PUSH1 0x0 DUP2 MSTORE POP SWAP1 JUMP JUMPDEST PUSH1 0x40 MLOAD DUP1 PUSH1 0x80 ADD PUSH1 0x40 MSTORE DUP1 PUSH1 0x60 DUP2 MSTORE PUSH1 0x20 ADD PUSH3 0x37B4 PUSH3 0x39E5 JUMP JUMPDEST DUP2 MSTORE PUSH1 0x20 ADD PUSH3 0x37C3 PUSH3 0x3A0D JUMP JUMPDEST DUP2 MSTORE PUSH1 0x20 ADD PUSH3 0x37D2 PUSH3 0x3A3A JUMP JUMPDEST DUP2 MSTORE POP SWAP1 JUMP JUMPDEST PUSH1 0x40 MLOAD DUP1 PUSH1 0x60 ADD PUSH1 0x40 MSTORE DUP1 PUSH1 0x0 PUSH1 0x3 DUP2 GT ISZERO PUSH3 0x37F1 JUMPI INVALID JUMPDEST DUP2 MSTORE PUSH1 0x20 ADD PUSH1 0x0 DUP2 MSTORE PUSH1 0x20 ADD PUSH1 0x60 DUP2 MSTORE POP SWAP1 JUMP JUMPDEST PUSH1 0x40 MLOAD DUP1 PUSH1 0xE0 ADD PUSH1 0x40 MSTORE DUP1 PUSH1 0x0 PUSH1 0x3 DUP2 GT ISZERO PUSH3 0x381E JUMPI INVALID JUMPDEST DUP2 MSTORE PUSH1 0x20 ADD PUSH1 0x60 DUP2 MSTORE PUSH1 0x20 ADD PUSH1 0x60 DUP2 MSTORE PUSH1 0x20 ADD PUSH1 0x0 DUP2 MSTORE PUSH1 0x20 ADD PUSH1 0x60 DUP2 MSTORE PUSH1 0x20 ADD PUSH1 0x60 DUP2 MSTORE PUSH1 0x20 ADD PUSH1 0x60 DUP2 MSTORE POP SWAP1 JUMP JUMPDEST PUSH2 0x8CA DUP1 PUSH3 0x5DB9 DUP4 CODECOPY ADD SWAP1 JUMP JUMPDEST DUP3 DUP1 SLOAD PUSH1 0x1 DUP2 PUSH1 0x1 AND ISZERO PUSH2 0x100 MUL SUB AND PUSH1 0x2 SWAP1 DIV SWAP1 PUSH1 0x0 MSTORE PUSH1 0x20 PUSH1 0x0 KECCAK256 SWAP1 PUSH1 0x1F ADD PUSH1 0x20 SWAP1 DIV DUP2 ADD SWAP3 DUP3 PUSH1 0x1F LT PUSH3 0x389F JUMPI DUP1 MLOAD PUSH1 0xFF NOT AND DUP4 DUP1 ADD OR DUP6 SSTORE PUSH3 0x38D0 JUMP JUMPDEST DUP3 DUP1 ADD PUSH1 0x1 ADD DUP6 SSTORE DUP3 ISZERO PUSH3 0x38D0 JUMPI SWAP2 DUP3 ADD JUMPDEST DUP3 DUP2 GT ISZERO PUSH3 0x38CF JUMPI DUP3 MLOAD DUP3 SSTORE SWAP2 PUSH1 0x20 ADD SWAP2 SWAP1 PUSH1 0x1 ADD SWAP1 PUSH3 0x38B2 JUMP JUMPDEST JUMPDEST POP SWAP1 POP PUSH3 0x38DF SWAP2 SWAP1 PUSH3 0x3A83 JUMP JUMPDEST POP SWAP1 JUMP JUMPDEST PUSH1 0x40 MLOAD DUP1 PUSH1 0x80 ADD PUSH1 0x40 MSTORE DUP1 PUSH1 0x0 DUP2 MSTORE PUSH1 0x20 ADD PUSH1 0x60 DUP2 MSTORE PUSH1 0x20 ADD PUSH1 0x0 DUP2 MSTORE PUSH1 0x20 ADD PUSH1 0x0 DUP2 MSTORE POP SWAP1 JUMP JUMPDEST PUSH1 0x40 MLOAD DUP1 PUSH2 0x100 ADD PUSH1 0x40 MSTORE DUP1 PUSH1 0x0 PUSH20 0xFFFFFFFFFFFFFFFFFFFFFFFFFFFFFFFFFFFFFFFF AND DUP2 MSTORE PUSH1 0x20 ADD PUSH1 0x0 PUSH1 0x1 DUP2 GT ISZERO PUSH3 0x3942 JUMPI INVALID JUMPDEST DUP2 MSTORE PUSH1 0x20 ADD PUSH1 0x0 DUP2 MSTORE PUSH1 0x20 ADD PUSH1 0x60 DUP2 MSTORE PUSH1 0x20 ADD PUSH1 0x0 DUP2 MSTORE PUSH1 0x20 ADD PUSH1 0x0 DUP2 MSTORE PUSH1 0x20 ADD PUSH1 0x0 PUSH20 0xFFFFFFFFFFFFFFFFFFFFFFFFFFFFFFFFFFFFFFFF AND DUP2 MSTORE PUSH1 0x20 ADD PUSH1 0x0 PUSH20 0xFFFFFFFFFFFFFFFFFFFFFFFFFFFFFFFFFFFFFFFF AND DUP2 MSTORE POP SWAP1 JUMP JUMPDEST PUSH1 0x40 MLOAD DUP1 PUSH1 0x20 ADD PUSH1 0x40 MSTORE DUP1 PUSH1 0x0 PUSH1 0x3 DUP2 GT ISZERO PUSH3 0x39B7 JUMPI INVALID JUMPDEST DUP2 MSTORE POP SWAP1 JUMP JUMPDEST PUSH1 0x40 MLOAD DUP1 PUSH1 0x80 ADD PUSH1 0x40 MSTORE DUP1 PUSH1 0x0 DUP2 MSTORE PUSH1 0x20 ADD PUSH1 0x60 DUP2 MSTORE PUSH1 0x20 ADD PUSH1 0x0 DUP2 MSTORE PUSH1 0x20 ADD PUSH1 0x0 DUP2 MSTORE POP SWAP1 JUMP JUMPDEST PUSH1 0x40 MLOAD DUP1 PUSH1 0x80 ADD PUSH1 0x40 MSTORE DUP1 PUSH1 0x60 DUP2 MSTORE PUSH1 0x20 ADD PUSH1 0x60 DUP2 MSTORE PUSH1 0x20 ADD PUSH1 0x60 DUP2 MSTORE PUSH1 0x20 ADD PUSH1 0x60 DUP2 MSTORE POP SWAP1 JUMP JUMPDEST PUSH1 0x40 MLOAD DUP1 PUSH1 0x60 ADD PUSH1 0x40 MSTORE DUP1 PUSH1 0x0 PUSH1 0x3 DUP2 GT ISZERO PUSH3 0x3A26 JUMPI INVALID JUMPDEST DUP2 MSTORE PUSH1 0x20 ADD PUSH1 0x0 DUP2 MSTORE PUSH1 0x20 ADD PUSH1 0x60 DUP2 MSTORE POP SWAP1 JUMP JUMPDEST PUSH1 0x40 MLOAD DUP1 PUSH1 0xE0 ADD PUSH1 0x40 MSTORE DUP1 PUSH1 0x0 PUSH1 0x3 DUP2 GT ISZERO PUSH3 0x3A53 JUMPI INVALID JUMPDEST DUP2 MSTORE PUSH1 0x20 ADD PUSH1 0x60 DUP2 MSTORE PUSH1 0x20 ADD PUSH1 0x60 DUP2 MSTORE PUSH1 0x20 ADD PUSH1 0x0 DUP2 MSTORE PUSH1 0x20 ADD PUSH1 0x60 DUP2 MSTORE PUSH1 0x20 ADD PUSH1 0x60 DUP2 MSTORE PUSH1 0x20 ADD PUSH1 0x60 DUP2 MSTORE POP SWAP1 JUMP JUMPDEST PUSH3 0x3AA8 SWAP2 SWAP1 JUMPDEST DUP1 DUP3 GT ISZERO PUSH3 0x3AA4 JUMPI PUSH1 0x0 DUP2 PUSH1 0x0 SWAP1 SSTORE POP PUSH1 0x1 ADD PUSH3 0x3A8A JUMP JUMPDEST POP SWAP1 JUMP JUMPDEST SWAP1 JUMP JUMPDEST PUSH1 0x0 DUP2 CALLDATALOAD SWAP1 POP PUSH3 0x3ABC DUP2 PUSH3 0x5CC7 JUMP JUMPDEST SWAP3 SWAP2 POP POP JUMP JUMPDEST PUSH1 0x0 DUP2 MLOAD SWAP1 POP PUSH3 0x3AD3 DUP2 PUSH3 0x5CC7 JUMP JUMPDEST SWAP3 SWAP2 POP POP JUMP JUMPDEST PUSH1 0x0 DUP2 MLOAD SWAP1 POP PUSH3 0x3AEA DUP2 PUSH3 0x5CE1 JUMP JUMPDEST SWAP3 SWAP2 POP POP JUMP JUMPDEST PUSH1 0x0 DUP3 PUSH1 0x1F DUP4 ADD SLT PUSH3 0x3B02 JUMPI PUSH1 0x0 DUP1 REVERT JUMPDEST DUP2 MLOAD PUSH3 0x3B19 PUSH3 0x3B13 DUP3 PUSH3 0x5977 JUMP JUMPDEST PUSH3 0x5949 JUMP JUMPDEST SWAP2 POP DUP2 DUP2 DUP4 MSTORE PUSH1 0x20 DUP5 ADD SWAP4 POP PUSH1 0x20 DUP2 ADD SWAP1 POP DUP4 DUP6 PUSH1 0x20 DUP5 MUL DUP3 ADD GT ISZERO PUSH3 0x3B3F JUMPI PUSH1 0x0 DUP1 REVERT JUMPDEST PUSH1 0x0 JUMPDEST DUP4 DUP2 LT ISZERO PUSH3 0x3B73 JUMPI DUP2 PUSH3 0x3B58 DUP9 DUP3 PUSH3 0x3AC2 JUMP JUMPDEST DUP5 MSTORE PUSH1 0x20 DUP5 ADD SWAP4 POP PUSH1 0x20 DUP4 ADD SWAP3 POP POP PUSH1 0x1 DUP2 ADD SWAP1 POP PUSH3 0x3B42 JUMP JUMPDEST POP POP POP POP SWAP3 SWAP2 POP POP JUMP JUMPDEST PUSH1 0x0 DUP3 PUSH1 0x1F DUP4 ADD SLT PUSH3 0x3B8F JUMPI PUSH1 0x0 DUP1 REVERT JUMPDEST DUP2 CALLDATALOAD PUSH3 0x3BA6 PUSH3 0x3BA0 DUP3 PUSH3 0x59A0 JUMP JUMPDEST PUSH3 0x5949 JUMP JUMPDEST SWAP2 POP DUP2 DUP2 DUP4 MSTORE PUSH1 0x20 DUP5 ADD SWAP4 POP PUSH1 0x20 DUP2 ADD SWAP1 POP DUP4 PUSH1 0x0 JUMPDEST DUP4 DUP2 LT ISZERO PUSH3 0x3BF0 JUMPI DUP2 CALLDATALOAD DUP7 ADD PUSH3 0x3BD5 DUP9 DUP3 PUSH3 0x3DE5 JUMP JUMPDEST DUP5 MSTORE PUSH1 0x20 DUP5 ADD SWAP4 POP PUSH1 0x20 DUP4 ADD SWAP3 POP POP PUSH1 0x1 DUP2 ADD SWAP1 POP PUSH3 0x3BBC JUMP JUMPDEST POP POP POP POP SWAP3 SWAP2 POP POP JUMP JUMPDEST PUSH1 0x0 DUP2 MLOAD SWAP1 POP PUSH3 0x3C0B DUP2 PUSH3 0x5CFB JUMP JUMPDEST SWAP3 SWAP2 POP POP JUMP JUMPDEST PUSH1 0x0 DUP2 CALLDATALOAD SWAP1 POP PUSH3 0x3C22 DUP2 PUSH3 0x5D15 JUMP JUMPDEST SWAP3 SWAP2 POP POP JUMP JUMPDEST PUSH1 0x0 DUP2 CALLDATALOAD SWAP1 POP PUSH3 0x3C39 DUP2 PUSH3 0x5D2F JUMP JUMPDEST SWAP3 SWAP2 POP POP JUMP JUMPDEST PUSH1 0x0 DUP2 MLOAD SWAP1 POP PUSH3 0x3C50 DUP2 PUSH3 0x5D2F JUMP JUMPDEST SWAP3 SWAP2 POP POP JUMP JUMPDEST PUSH1 0x0 DUP2 CALLDATALOAD SWAP1 POP PUSH3 0x3C67 DUP2 PUSH3 0x5D49 JUMP JUMPDEST SWAP3 SWAP2 POP POP JUMP JUMPDEST PUSH1 0x0 DUP2 CALLDATALOAD SWAP1 POP PUSH3 0x3C7E DUP2 PUSH3 0x5D5A JUMP JUMPDEST SWAP3 SWAP2 POP POP JUMP JUMPDEST PUSH1 0x0 DUP2 CALLDATALOAD SWAP1 POP PUSH3 0x3C95 DUP2 PUSH3 0x5D6B JUMP JUMPDEST SWAP3 SWAP2 POP POP JUMP JUMPDEST PUSH1 0x0 DUP2 CALLDATALOAD SWAP1 POP PUSH3 0x3CAC DUP2 PUSH3 0x5D7C JUMP JUMPDEST SWAP3 SWAP2 POP POP JUMP JUMPDEST PUSH1 0x0 DUP2 MLOAD SWAP1 POP PUSH3 0x3CC3 DUP2 PUSH3 0x5D7C JUMP JUMPDEST SWAP3 SWAP2 POP POP JUMP JUMPDEST PUSH1 0x0 DUP2 MLOAD SWAP1 POP PUSH3 0x3CDA DUP2 PUSH3 0x5D8D JUMP JUMPDEST SWAP3 SWAP2 POP POP JUMP JUMPDEST PUSH1 0x0 DUP1 DUP4 PUSH1 0x1F DUP5 ADD SLT PUSH3 0x3CF3 JUMPI PUSH1 0x0 DUP1 REVERT JUMPDEST DUP3 CALLDATALOAD SWAP1 POP PUSH8 0xFFFFFFFFFFFFFFFF DUP2 GT ISZERO PUSH3 0x3D0D JUMPI PUSH1 0x0 DUP1 REVERT JUMPDEST PUSH1 0x20 DUP4 ADD SWAP2 POP DUP4 PUSH1 0x1 DUP3 MUL DUP4 ADD GT ISZERO PUSH3 0x3D26 JUMPI PUSH1 0x0 DUP1 REVERT JUMPDEST SWAP3 POP SWAP3 SWAP1 POP JUMP JUMPDEST PUSH1 0x0 DUP3 PUSH1 0x1F DUP4 ADD SLT PUSH3 0x3D3F JUMPI PUSH1 0x0 DUP1 REVERT JUMPDEST DUP2 CALLDATALOAD PUSH3 0x3D56 PUSH3 0x3D50 DUP3 PUSH3 0x59C9 JUMP JUMPDEST PUSH3 0x5949 JUMP JUMPDEST SWAP2 POP DUP1 DUP3 MSTORE PUSH1 0x20 DUP4 ADD PUSH1 0x20 DUP4 ADD DUP6 DUP4 DUP4 ADD GT ISZERO PUSH3 0x3D73 JUMPI PUSH1 0x0 DUP1 REVERT JUMPDEST PUSH3 0x3D80 DUP4 DUP3 DUP5 PUSH3 0x5C39 JUMP JUMPDEST POP POP POP SWAP3 SWAP2 POP POP JUMP JUMPDEST PUSH1 0x0 DUP3 PUSH1 0x1F DUP4 ADD SLT PUSH3 0x3D9B JUMPI PUSH1 0x0 DUP1 REVERT JUMPDEST DUP2 MLOAD PUSH3 0x3DB2 PUSH3 0x3DAC DUP3 PUSH3 0x59C9 JUMP JUMPDEST PUSH3 0x5949 JUMP JUMPDEST SWAP2 POP DUP1 DUP3 MSTORE PUSH1 0x20 DUP4 ADD PUSH1 0x20 DUP4 ADD DUP6 DUP4 DUP4 ADD GT ISZERO PUSH3 0x3DCF JUMPI PUSH1 0x0 DUP1 REVERT JUMPDEST PUSH3 0x3DDC DUP4 DUP3 DUP5 PUSH3 0x5C48 JUMP JUMPDEST POP POP POP SWAP3 SWAP2 POP POP JUMP JUMPDEST PUSH1 0x0 PUSH1 0x60 DUP3 DUP5 SUB SLT ISZERO PUSH3 0x3DF8 JUMPI PUSH1 0x0 DUP1 REVERT JUMPDEST PUSH3 0x3E04 PUSH1 0x60 PUSH3 0x5949 JUMP JUMPDEST SWAP1 POP PUSH1 0x0 PUSH3 0x3E16 DUP5 DUP3 DUP6 ADD PUSH3 0x4679 JUMP JUMPDEST PUSH1 0x0 DUP4 ADD MSTORE POP PUSH1 0x20 PUSH3 0x3E2C DUP5 DUP3 DUP6 ADD PUSH3 0x4679 JUMP JUMPDEST PUSH1 0x20 DUP4 ADD MSTORE POP PUSH1 0x40 DUP3 ADD CALLDATALOAD PUSH8 0xFFFFFFFFFFFFFFFF DUP2 GT ISZERO PUSH3 0x3E4D JUMPI PUSH1 0x0 DUP1 REVERT JUMPDEST PUSH3 0x3E5B DUP5 DUP3 DUP6 ADD PUSH3 0x3D2D JUMP JUMPDEST PUSH1 0x40 DUP4 ADD MSTORE POP SWAP3 SWAP2 POP POP JUMP JUMPDEST PUSH1 0x0 PUSH2 0x100 DUP3 DUP5 SUB SLT ISZERO PUSH3 0x3E7B JUMPI PUSH1 0x0 DUP1 REVERT JUMPDEST PUSH3 0x3E88 PUSH2 0x100 PUSH3 0x5949 JUMP JUMPDEST SWAP1 POP PUSH1 0x0 PUSH3 0x3E9A DUP5 DUP3 DUP6 ADD PUSH3 0x3AAB JUMP JUMPDEST PUSH1 0x0 DUP4 ADD MSTORE POP PUSH1 0x20 PUSH3 0x3EB0 DUP5 DUP3 DUP6 ADD PUSH3 0x3C56 JUMP JUMPDEST PUSH1 0x20 DUP4 ADD MSTORE POP PUSH1 0x40 PUSH3 0x3EC6 DUP5 DUP3 DUP6 ADD PUSH3 0x4679 JUMP JUMPDEST PUSH1 0x40 DUP4 ADD MSTORE POP PUSH1 0x60 DUP3 ADD CALLDATALOAD PUSH8 0xFFFFFFFFFFFFFFFF DUP2 GT ISZERO PUSH3 0x3EE7 JUMPI PUSH1 0x0 DUP1 REVERT JUMPDEST PUSH3 0x3EF5 DUP5 DUP3 DUP6 ADD PUSH3 0x3D2D JUMP JUMPDEST PUSH1 0x60 DUP4 ADD MSTORE POP PUSH1 0x80 PUSH3 0x3F0B DUP5 DUP3 DUP6 ADD PUSH3 0x4679 JUMP JUMPDEST PUSH1 0x80 DUP4 ADD MSTORE POP PUSH1 0xA0 PUSH3 0x3F21 DUP5 DUP3 DUP6 ADD PUSH3 0x4679 JUMP JUMPDEST PUSH1 0xA0 DUP4 ADD MSTORE POP PUSH1 0xC0 PUSH3 0x3F37 DUP5 DUP3 DUP6 ADD PUSH3 0x3C28 JUMP JUMPDEST PUSH1 0xC0 DUP4 ADD MSTORE POP PUSH1 0xE0 PUSH3 0x3F4D DUP5 DUP3 DUP6 ADD PUSH3 0x3C11 JUMP JUMPDEST PUSH1 0xE0 DUP4 ADD MSTORE POP SWAP3 SWAP2 POP POP JUMP JUMPDEST PUSH1 0x0 PUSH2 0x180 DUP3 DUP5 SUB SLT ISZERO PUSH3 0x3F6D JUMPI PUSH1 0x0 DUP1 REVERT JUMPDEST PUSH3 0x3F7A PUSH2 0x180 PUSH3 0x5949 JUMP JUMPDEST SWAP1 POP PUSH1 0x0 DUP3 ADD CALLDATALOAD PUSH8 0xFFFFFFFFFFFFFFFF DUP2 GT ISZERO PUSH3 0x3F97 JUMPI PUSH1 0x0 DUP1 REVERT JUMPDEST PUSH3 0x3FA5 DUP5 DUP3 DUP6 ADD PUSH3 0x3D2D JUMP JUMPDEST PUSH1 0x0 DUP4 ADD MSTORE POP PUSH1 0x20 DUP3 ADD CALLDATALOAD PUSH8 0xFFFFFFFFFFFFFFFF DUP2 GT ISZERO PUSH3 0x3FC6 JUMPI PUSH1 0x0 DUP1 REVERT JUMPDEST PUSH3 0x3FD4 DUP5 DUP3 DUP6 ADD PUSH3 0x3D2D JUMP JUMPDEST PUSH1 0x20 DUP4 ADD MSTORE POP PUSH1 0x40 DUP3 ADD CALLDATALOAD PUSH8 0xFFFFFFFFFFFFFFFF DUP2 GT ISZERO PUSH3 0x3FF5 JUMPI PUSH1 0x0 DUP1 REVERT JUMPDEST PUSH3 0x4003 DUP5 DUP3 DUP6 ADD PUSH3 0x3D2D JUMP JUMPDEST PUSH1 0x40 DUP4 ADD MSTORE POP PUSH1 0x60 PUSH3 0x4019 DUP5 DUP3 DUP6 ADD PUSH3 0x3C84 JUMP JUMPDEST PUSH1 0x60 DUP4 ADD MSTORE POP PUSH1 0x80 PUSH3 0x402F DUP5 DUP3 DUP6 ADD PUSH3 0x3C6D JUMP JUMPDEST PUSH1 0x80 DUP4 ADD MSTORE POP PUSH1 0xA0 DUP3 ADD CALLDATALOAD PUSH8 0xFFFFFFFFFFFFFFFF DUP2 GT ISZERO PUSH3 0x4050 JUMPI PUSH1 0x0 DUP1 REVERT JUMPDEST PUSH3 0x405E DUP5 DUP3 DUP6 ADD PUSH3 0x3D2D JUMP JUMPDEST PUSH1 0xA0 DUP4 ADD MSTORE POP PUSH1 0xC0 DUP3 ADD CALLDATALOAD PUSH8 0xFFFFFFFFFFFFFFFF DUP2 GT ISZERO PUSH3 0x407F JUMPI PUSH1 0x0 DUP1 REVERT JUMPDEST PUSH3 0x408D DUP5 DUP3 DUP6 ADD PUSH3 0x3D2D JUMP JUMPDEST PUSH1 0xC0 DUP4 ADD MSTORE POP PUSH1 0xE0 DUP3 ADD CALLDATALOAD PUSH8 0xFFFFFFFFFFFFFFFF DUP2 GT ISZERO PUSH3 0x40AE JUMPI PUSH1 0x0 DUP1 REVERT JUMPDEST PUSH3 0x40BC DUP5 DUP3 DUP6 ADD PUSH3 0x3E67 JUMP JUMPDEST PUSH1 0xE0 DUP4 ADD MSTORE POP PUSH2 0x100 PUSH3 0x40D3 DUP5 DUP3 DUP6 ADD PUSH3 0x41C3 JUMP JUMPDEST PUSH2 0x100 DUP4 ADD MSTORE POP PUSH2 0x120 DUP3 ADD CALLDATALOAD PUSH8 0xFFFFFFFFFFFFFFFF DUP2 GT ISZERO PUSH3 0x40F6 JUMPI PUSH1 0x0 DUP1 REVERT JUMPDEST PUSH3 0x4104 DUP5 DUP3 DUP6 ADD PUSH3 0x45E1 JUMP JUMPDEST PUSH2 0x120 DUP4 ADD MSTORE POP PUSH2 0x140 PUSH3 0x411C DUP5 DUP3 DUP6 ADD PUSH3 0x4679 JUMP JUMPDEST PUSH2 0x140 DUP4 ADD MSTORE POP PUSH2 0x160 PUSH3 0x4134 DUP5 DUP3 DUP6 ADD PUSH3 0x3AAB JUMP JUMPDEST PUSH2 0x160 DUP4 ADD MSTORE POP SWAP3 SWAP2 POP POP JUMP JUMPDEST PUSH1 0x0 PUSH1 0x60 DUP3 DUP5 SUB SLT ISZERO PUSH3 0x4154 JUMPI PUSH1 0x0 DUP1 REVERT JUMPDEST PUSH3 0x4160 PUSH1 0x60 PUSH3 0x5949 JUMP JUMPDEST SWAP1 POP PUSH1 0x0 PUSH3 0x4172 DUP5 DUP3 DUP6 ADD PUSH3 0x3CB2 JUMP JUMPDEST PUSH1 0x0 DUP4 ADD MSTORE POP PUSH1 0x20 PUSH3 0x4188 DUP5 DUP3 DUP6 ADD PUSH3 0x4690 JUMP JUMPDEST PUSH1 0x20 DUP4 ADD MSTORE POP PUSH1 0x40 DUP3 ADD MLOAD PUSH8 0xFFFFFFFFFFFFFFFF DUP2 GT ISZERO PUSH3 0x41A9 JUMPI PUSH1 0x0 DUP1 REVERT JUMPDEST PUSH3 0x41B7 DUP5 DUP3 DUP6 ADD PUSH3 0x3AF0 JUMP JUMPDEST PUSH1 0x40 DUP4 ADD MSTORE POP SWAP3 SWAP2 POP POP JUMP JUMPDEST PUSH1 0x0 PUSH1 0x20 DUP3 DUP5 SUB SLT ISZERO PUSH3 0x41D6 JUMPI PUSH1 0x0 DUP1 REVERT JUMPDEST PUSH3 0x41E2 PUSH1 0x20 PUSH3 0x5949 JUMP JUMPDEST SWAP1 POP PUSH1 0x0 PUSH3 0x41F4 DUP5 DUP3 DUP6 ADD PUSH3 0x3C9B JUMP JUMPDEST PUSH1 0x0 DUP4 ADD MSTORE POP SWAP3 SWAP2 POP POP JUMP JUMPDEST PUSH1 0x0 PUSH1 0x80 DUP3 DUP5 SUB SLT ISZERO PUSH3 0x4213 JUMPI PUSH1 0x0 DUP1 REVERT JUMPDEST PUSH3 0x421F PUSH1 0x80 PUSH3 0x5949 JUMP JUMPDEST SWAP1 POP PUSH1 0x0 DUP3 ADD MLOAD PUSH8 0xFFFFFFFFFFFFFFFF DUP2 GT ISZERO PUSH3 0x423C JUMPI PUSH1 0x0 DUP1 REVERT JUMPDEST PUSH3 0x424A DUP5 DUP3 DUP6 ADD PUSH3 0x3D89 JUMP JUMPDEST PUSH1 0x0 DUP4 ADD MSTORE POP PUSH1 0x20 DUP3 ADD MLOAD PUSH8 0xFFFFFFFFFFFFFFFF DUP2 GT ISZERO PUSH3 0x426B JUMPI PUSH1 0x0 DUP1 REVERT JUMPDEST PUSH3 0x4279 DUP5 DUP3 DUP6 ADD PUSH3 0x42E3 JUMP JUMPDEST PUSH1 0x20 DUP4 ADD MSTORE POP PUSH1 0x40 DUP3 ADD MLOAD PUSH8 0xFFFFFFFFFFFFFFFF DUP2 GT ISZERO PUSH3 0x429A JUMPI PUSH1 0x0 DUP1 REVERT JUMPDEST PUSH3 0x42A8 DUP5 DUP3 DUP6 ADD PUSH3 0x4141 JUMP JUMPDEST PUSH1 0x40 DUP4 ADD MSTORE POP PUSH1 0x60 DUP3 ADD MLOAD PUSH8 0xFFFFFFFFFFFFFFFF DUP2 GT ISZERO PUSH3 0x42C9 JUMPI PUSH1 0x0 DUP1 REVERT JUMPDEST PUSH3 0x42D7 DUP5 DUP3 DUP6 ADD PUSH3 0x44A3 JUMP JUMPDEST PUSH1 0x60 DUP4 ADD MSTORE POP SWAP3 SWAP2 POP POP JUMP JUMPDEST PUSH1 0x0 PUSH1 0x80 DUP3 DUP5 SUB SLT ISZERO PUSH3 0x42F6 JUMPI PUSH1 0x0 DUP1 REVERT JUMPDEST PUSH3 0x4302 PUSH1 0x80 PUSH3 0x5949 JUMP JUMPDEST SWAP1 POP PUSH1 0x0 DUP3 ADD MLOAD PUSH8 0xFFFFFFFFFFFFFFFF DUP2 GT ISZERO PUSH3 0x431F JUMPI PUSH1 0x0 DUP1 REVERT JUMPDEST PUSH3 0x432D DUP5 DUP3 DUP6 ADD PUSH3 0x3D89 JUMP JUMPDEST PUSH1 0x0 DUP4 ADD MSTORE POP PUSH1 0x20 DUP3 ADD MLOAD PUSH8 0xFFFFFFFFFFFFFFFF DUP2 GT ISZERO PUSH3 0x434E JUMPI PUSH1 0x0 DUP1 REVERT JUMPDEST PUSH3 0x435C DUP5 DUP3 DUP6 ADD PUSH3 0x3D89 JUMP JUMPDEST PUSH1 0x20 DUP4 ADD MSTORE POP PUSH1 0x40 DUP3 ADD MLOAD PUSH8 0xFFFFFFFFFFFFFFFF DUP2 GT ISZERO PUSH3 0x437D JUMPI PUSH1 0x0 DUP1 REVERT JUMPDEST PUSH3 0x438B DUP5 DUP3 DUP6 ADD PUSH3 0x3D89 JUMP JUMPDEST PUSH1 0x40 DUP4 ADD MSTORE POP PUSH1 0x60 DUP3 ADD MLOAD PUSH8 0xFFFFFFFFFFFFFFFF DUP2 GT ISZERO PUSH3 0x43AC JUMPI PUSH1 0x0 DUP1 REVERT JUMPDEST PUSH3 0x43BA DUP5 DUP3 DUP6 ADD PUSH3 0x3AF0 JUMP JUMPDEST PUSH1 0x60 DUP4 ADD MSTORE POP SWAP3 SWAP2 POP POP JUMP JUMPDEST PUSH1 0x0 PUSH1 0xC0 DUP3 DUP5 SUB SLT ISZERO PUSH3 0x43D9 JUMPI PUSH1 0x0 DUP1 REVERT JUMPDEST PUSH3 0x43E5 PUSH1 0xC0 PUSH3 0x5949 JUMP JUMPDEST SWAP1 POP PUSH1 0x0 DUP3 ADD CALLDATALOAD PUSH8 0xFFFFFFFFFFFFFFFF DUP2 GT ISZERO PUSH3 0x4402 JUMPI PUSH1 0x0 DUP1 REVERT JUMPDEST PUSH3 0x4410 DUP5 DUP3 DUP6 ADD PUSH3 0x3D2D JUMP JUMPDEST PUSH1 0x0 DUP4 ADD MSTORE POP PUSH1 0x20 DUP3 ADD CALLDATALOAD PUSH8 0xFFFFFFFFFFFFFFFF DUP2 GT ISZERO PUSH3 0x4431 JUMPI PUSH1 0x0 DUP1 REVERT JUMPDEST PUSH3 0x443F DUP5 DUP3 DUP6 ADD PUSH3 0x3D2D JUMP JUMPDEST PUSH1 0x20 DUP4 ADD MSTORE POP PUSH1 0x40 PUSH3 0x4455 DUP5 DUP3 DUP6 ADD PUSH3 0x3AAB JUMP JUMPDEST PUSH1 0x40 DUP4 ADD MSTORE POP PUSH1 0x60 PUSH3 0x446B DUP5 DUP3 DUP6 ADD PUSH3 0x4679 JUMP JUMPDEST PUSH1 0x60 DUP4 ADD MSTORE POP PUSH1 0x80 PUSH3 0x4481 DUP5 DUP3 DUP6 ADD PUSH3 0x4679 JUMP JUMPDEST PUSH1 0x80 DUP4 ADD MSTORE POP PUSH1 0xA0 PUSH3 0x4497 DUP5 DUP3 DUP6 ADD PUSH3 0x4679 JUMP JUMPDEST PUSH1 0xA0 DUP4 ADD MSTORE POP SWAP3 SWAP2 POP POP JUMP JUMPDEST PUSH1 0x0 PUSH1 0xE0 DUP3 DUP5 SUB SLT ISZERO PUSH3 0x44B6 JUMPI PUSH1 0x0 DUP1 REVERT JUMPDEST PUSH3 0x44C2 PUSH1 0xE0 PUSH3 0x5949 JUMP JUMPDEST SWAP1 POP PUSH1 0x0 PUSH3 0x44D4 DUP5 DUP3 DUP6 ADD PUSH3 0x3CC9 JUMP JUMPDEST PUSH1 0x0 DUP4 ADD MSTORE POP PUSH1 0x20 DUP3 ADD MLOAD PUSH8 0xFFFFFFFFFFFFFFFF DUP2 GT ISZERO PUSH3 0x44F5 JUMPI PUSH1 0x0 DUP1 REVERT JUMPDEST PUSH3 0x4503 DUP5 DUP3 DUP6 ADD PUSH3 0x3D89 JUMP JUMPDEST PUSH1 0x20 DUP4 ADD MSTORE POP PUSH1 0x40 DUP3 ADD MLOAD PUSH8 0xFFFFFFFFFFFFFFFF DUP2 GT ISZERO PUSH3 0x4524 JUMPI PUSH1 0x0 DUP1 REVERT JUMPDEST PUSH3 0x4532 DUP5 DUP3 DUP6 ADD PUSH3 0x3AF0 JUMP JUMPDEST PUSH1 0x40 DUP4 ADD MSTORE POP PUSH1 0x60 PUSH3 0x4548 DUP5 DUP3 DUP6 ADD PUSH3 0x4690 JUMP JUMPDEST PUSH1 0x60 DUP4 ADD MSTORE POP PUSH1 0x80 DUP3 ADD MLOAD PUSH8 0xFFFFFFFFFFFFFFFF DUP2 GT ISZERO PUSH3 0x4569 JUMPI PUSH1 0x0 DUP1 REVERT JUMPDEST PUSH3 0x4577 DUP5 DUP3 DUP6 ADD PUSH3 0x3D89 JUMP JUMPDEST PUSH1 0x80 DUP4 ADD MSTORE POP PUSH1 0xA0 DUP3 ADD MLOAD PUSH8 0xFFFFFFFFFFFFFFFF DUP2 GT ISZERO PUSH3 0x4598 JUMPI PUSH1 0x0 DUP1 REVERT JUMPDEST PUSH3 0x45A6 DUP5 DUP3 DUP6 ADD PUSH3 0x3D89 JUMP JUMPDEST PUSH1 0xA0 DUP4 ADD MSTORE POP PUSH1 0xC0 DUP3 ADD MLOAD PUSH8 0xFFFFFFFFFFFFFFFF DUP2 GT ISZERO PUSH3 0x45C7 JUMPI PUSH1 0x0 DUP1 REVERT JUMPDEST PUSH3 0x45D5 DUP5 DUP3 DUP6 ADD PUSH3 0x3D89 JUMP JUMPDEST PUSH1 0xC0 DUP4 ADD MSTORE POP SWAP3 SWAP2 POP POP JUMP JUMPDEST PUSH1 0x0 PUSH1 0x80 DUP3 DUP5 SUB SLT ISZERO PUSH3 0x45F4 JUMPI PUSH1 0x0 DUP1 REVERT JUMPDEST PUSH3 0x4600 PUSH1 0x80 PUSH3 0x5949 JUMP JUMPDEST SWAP1 POP PUSH1 0x0 PUSH3 0x4612 DUP5 DUP3 DUP6 ADD PUSH3 0x4679 JUMP JUMPDEST PUSH1 0x0 DUP4 ADD MSTORE POP PUSH1 0x20 DUP3 ADD CALLDATALOAD PUSH8 0xFFFFFFFFFFFFFFFF DUP2 GT ISZERO PUSH3 0x4633 JUMPI PUSH1 0x0 DUP1 REVERT JUMPDEST PUSH3 0x4641 DUP5 DUP3 DUP6 ADD PUSH3 0x3D2D JUMP JUMPDEST PUSH1 0x20 DUP4 ADD MSTORE POP PUSH1 0x40 PUSH3 0x4657 DUP5 DUP3 DUP6 ADD PUSH3 0x4679 JUMP JUMPDEST PUSH1 0x40 DUP4 ADD MSTORE POP PUSH1 0x60 PUSH3 0x466D DUP5 DUP3 DUP6 ADD PUSH3 0x4679 JUMP JUMPDEST PUSH1 0x60 DUP4 ADD MSTORE POP SWAP3 SWAP2 POP POP JUMP JUMPDEST PUSH1 0x0 DUP2 CALLDATALOAD SWAP1 POP PUSH3 0x468A DUP2 PUSH3 0x5D9E JUMP JUMPDEST SWAP3 SWAP2 POP POP JUMP JUMPDEST PUSH1 0x0 DUP2 MLOAD SWAP1 POP PUSH3 0x46A1 DUP2 PUSH3 0x5D9E JUMP JUMPDEST SWAP3 SWAP2 POP POP JUMP JUMPDEST PUSH1 0x0 PUSH1 0x20 DUP3 DUP5 SUB SLT ISZERO PUSH3 0x46BA JUMPI PUSH1 0x0 DUP1 REVERT JUMPDEST PUSH1 0x0 PUSH3 0x46CA DUP5 DUP3 DUP6 ADD PUSH3 0x3AAB JUMP JUMPDEST SWAP2 POP POP SWAP3 SWAP2 POP POP JUMP JUMPDEST PUSH1 0x0 PUSH1 0x20 DUP3 DUP5 SUB SLT ISZERO PUSH3 0x46E6 JUMPI PUSH1 0x0 DUP1 REVERT JUMPDEST PUSH1 0x0 PUSH3 0x46F6 DUP5 DUP3 DUP6 ADD PUSH3 0x3AD9 JUMP JUMPDEST SWAP2 POP POP SWAP3 SWAP2 POP POP JUMP JUMPDEST PUSH1 0x0 PUSH1 0x20 DUP3 DUP5 SUB SLT ISZERO PUSH3 0x4712 JUMPI PUSH1 0x0 DUP1 REVERT JUMPDEST PUSH1 0x0 PUSH3 0x4722 DUP5 DUP3 DUP6 ADD PUSH3 0x3BFA JUMP JUMPDEST SWAP2 POP POP SWAP3 SWAP2 POP POP JUMP JUMPDEST PUSH1 0x0 PUSH1 0x20 DUP3 DUP5 SUB SLT ISZERO PUSH3 0x473E JUMPI PUSH1 0x0 DUP1 REVERT JUMPDEST PUSH1 0x0 PUSH3 0x474E DUP5 DUP3 DUP6 ADD PUSH3 0x3C3F JUMP JUMPDEST SWAP2 POP POP SWAP3 SWAP2 POP POP JUMP JUMPDEST PUSH1 0x0 DUP1 PUSH1 0x20 DUP4 DUP6 SUB SLT ISZERO PUSH3 0x476B JUMPI PUSH1 0x0 DUP1 REVERT JUMPDEST PUSH1 0x0 DUP4 ADD CALLDATALOAD PUSH8 0xFFFFFFFFFFFFFFFF DUP2 GT ISZERO PUSH3 0x4786 JUMPI PUSH1 0x0 DUP1 REVERT JUMPDEST PUSH3 0x4794 DUP6 DUP3 DUP7 ADD PUSH3 0x3CE0 JUMP JUMPDEST SWAP3 POP SWAP3 POP POP SWAP3 POP SWAP3 SWAP1 POP JUMP JUMPDEST PUSH1 0x0 DUP1 PUSH1 0x0 DUP1 PUSH1 0x40 DUP6 DUP8 SUB SLT ISZERO PUSH3 0x47B7 JUMPI PUSH1 0x0 DUP1 REVERT JUMPDEST PUSH1 0x0 DUP6 ADD CALLDATALOAD PUSH8 0xFFFFFFFFFFFFFFFF DUP2 GT ISZERO PUSH3 0x47D2 JUMPI PUSH1 0x0 DUP1 REVERT JUMPDEST PUSH3 0x47E0 DUP8 DUP3 DUP9 ADD PUSH3 0x3CE0 JUMP JUMPDEST SWAP5 POP SWAP5 POP POP PUSH1 0x20 DUP6 ADD CALLDATALOAD PUSH8 0xFFFFFFFFFFFFFFFF DUP2 GT ISZERO PUSH3 0x4800 JUMPI PUSH1 0x0 DUP1 REVERT JUMPDEST PUSH3 0x480E DUP8 DUP3 DUP9 ADD PUSH3 0x3CE0 JUMP JUMPDEST SWAP3 POP SWAP3 POP POP SWAP3 SWAP6 SWAP2 SWAP5 POP SWAP3 POP JUMP JUMPDEST PUSH1 0x0 DUP1 PUSH1 0x0 DUP1 PUSH1 0x0 PUSH1 0x60 DUP7 DUP9 SUB SLT ISZERO PUSH3 0x4835 JUMPI PUSH1 0x0 DUP1 REVERT JUMPDEST PUSH1 0x0 DUP7 ADD CALLDATALOAD PUSH8 0xFFFFFFFFFFFFFFFF DUP2 GT ISZERO PUSH3 0x4850 JUMPI PUSH1 0x0 DUP1 REVERT JUMPDEST PUSH3 0x485E DUP9 DUP3 DUP10 ADD PUSH3 0x3CE0 JUMP JUMPDEST SWAP6 POP SWAP6 POP POP PUSH1 0x20 DUP7 ADD CALLDATALOAD PUSH8 0xFFFFFFFFFFFFFFFF DUP2 GT ISZERO PUSH3 0x487E JUMPI PUSH1 0x0 DUP1 REVERT JUMPDEST PUSH3 0x488C DUP9 DUP3 DUP10 ADD PUSH3 0x3CE0 JUMP JUMPDEST SWAP4 POP SWAP4 POP POP PUSH1 0x40 PUSH3 0x48A1 DUP9 DUP3 DUP10 ADD PUSH3 0x3C84 JUMP JUMPDEST SWAP2 POP POP SWAP3 SWAP6 POP SWAP3 SWAP6 SWAP1 SWAP4 POP JUMP JUMPDEST PUSH1 0x0 DUP1 PUSH1 0x40 DUP4 DUP6 SUB SLT ISZERO PUSH3 0x48C2 JUMPI PUSH1 0x0 DUP1 REVERT JUMPDEST PUSH1 0x0 DUP4 ADD CALLDATALOAD PUSH8 0xFFFFFFFFFFFFFFFF DUP2 GT ISZERO PUSH3 0x48DD JUMPI PUSH1 0x0 DUP1 REVERT JUMPDEST PUSH3 0x48EB DUP6 DUP3 DUP7 ADD PUSH3 0x3F59 JUMP JUMPDEST SWAP3 POP POP PUSH1 0x20 DUP4 ADD CALLDATALOAD PUSH8 0xFFFFFFFFFFFFFFFF DUP2 GT ISZERO PUSH3 0x4909 JUMPI PUSH1 0x0 DUP1 REVERT JUMPDEST PUSH3 0x4917 DUP6 DUP3 DUP7 ADD PUSH3 0x3B7D JUMP JUMPDEST SWAP2 POP POP SWAP3 POP SWAP3 SWAP1 POP JUMP JUMPDEST PUSH1 0x0 PUSH1 0x20 DUP3 DUP5 SUB SLT ISZERO PUSH3 0x4934 JUMPI PUSH1 0x0 DUP1 REVERT JUMPDEST PUSH1 0x0 DUP3 ADD MLOAD PUSH8 0xFFFFFFFFFFFFFFFF DUP2 GT ISZERO PUSH3 0x494F JUMPI PUSH1 0x0 DUP1 REVERT JUMPDEST PUSH3 0x495D DUP5 DUP3 DUP6 ADD PUSH3 0x4200 JUMP JUMPDEST SWAP2 POP POP SWAP3 SWAP2 POP POP JUMP JUMPDEST PUSH1 0x0 PUSH1 0x20 DUP3 DUP5 SUB SLT ISZERO PUSH3 0x4979 JUMPI PUSH1 0x0 DUP1 REVERT JUMPDEST PUSH1 0x0 DUP3 ADD CALLDATALOAD PUSH8 0xFFFFFFFFFFFFFFFF DUP2 GT ISZERO PUSH3 0x4994 JUMPI PUSH1 0x0 DUP1 REVERT JUMPDEST PUSH3 0x49A2 DUP5 DUP3 DUP6 ADD PUSH3 0x43C6 JUMP JUMPDEST SWAP2 POP POP SWAP3 SWAP2 POP POP JUMP JUMPDEST PUSH1 0x0 PUSH1 0x20 DUP3 DUP5 SUB SLT ISZERO PUSH3 0x49BE JUMPI PUSH1 0x0 DUP1 REVERT JUMPDEST PUSH1 0x0 PUSH3 0x49CE DUP5 DUP3 DUP6 ADD PUSH3 0x4690 JUMP JUMPDEST SWAP2 POP POP SWAP3 SWAP2 POP POP JUMP JUMPDEST PUSH1 0x0 PUSH3 0x49E5 DUP4 DUP4 PUSH3 0x5156 JUMP JUMPDEST SWAP1 POP SWAP3 SWAP2 POP POP JUMP JUMPDEST PUSH3 0x49F8 DUP2 PUSH3 0x5B5D JUMP JUMPDEST DUP3 MSTORE POP POP JUMP JUMPDEST PUSH3 0x4A09 DUP2 PUSH3 0x5A83 JUMP JUMPDEST DUP3 MSTORE POP POP JUMP JUMPDEST PUSH3 0x4A1A DUP2 PUSH3 0x5A83 JUMP JUMPDEST DUP3 MSTORE POP POP JUMP JUMPDEST PUSH1 0x0 PUSH3 0x4A2D DUP3 PUSH3 0x5A06 JUMP JUMPDEST PUSH3 0x4A39 DUP2 DUP6 PUSH3 0x5A34 JUMP JUMPDEST SWAP4 POP DUP4 PUSH1 0x20 DUP3 MUL DUP6 ADD PUSH3 0x4A4D DUP6 PUSH3 0x59F6 JUMP JUMPDEST DUP1 PUSH1 0x0 JUMPDEST DUP6 DUP2 LT ISZERO PUSH3 0x4A8F JUMPI DUP5 DUP5 SUB DUP10 MSTORE DUP2 MLOAD PUSH3 0x4A6D DUP6 DUP3 PUSH3 0x49D7 JUMP JUMPDEST SWAP5 POP PUSH3 0x4A7A DUP4 PUSH3 0x5A27 JUMP JUMPDEST SWAP3 POP PUSH1 0x20 DUP11 ADD SWAP10 POP POP PUSH1 0x1 DUP2 ADD SWAP1 POP PUSH3 0x4A51 JUMP JUMPDEST POP DUP3 SWAP8 POP DUP8 SWAP6 POP POP POP POP POP POP SWAP3 SWAP2 POP POP JUMP JUMPDEST PUSH3 0x4AAC DUP2 PUSH3 0x5B71 JUMP JUMPDEST DUP3 MSTORE POP POP JUMP JUMPDEST PUSH3 0x4ABD DUP2 PUSH3 0x5B99 JUMP JUMPDEST DUP3 MSTORE POP POP JUMP JUMPDEST PUSH3 0x4ACE DUP2 PUSH3 0x5B99 JUMP JUMPDEST DUP3 MSTORE POP POP JUMP JUMPDEST PUSH3 0x4ADF DUP2 PUSH3 0x5BC1 JUMP JUMPDEST DUP3 MSTORE POP POP JUMP JUMPDEST PUSH3 0x4AF0 DUP2 PUSH3 0x5BD5 JUMP JUMPDEST DUP3 MSTORE POP POP JUMP JUMPDEST PUSH3 0x4B01 DUP2 PUSH3 0x5BE9 JUMP JUMPDEST DUP3 MSTORE POP POP JUMP JUMPDEST PUSH3 0x4B12 DUP2 PUSH3 0x5BE9 JUMP JUMPDEST DUP3 MSTORE POP POP JUMP JUMPDEST PUSH3 0x4B23 DUP2 PUSH3 0x5BFD JUMP JUMPDEST DUP3 MSTORE POP POP JUMP JUMPDEST PUSH1 0x0 PUSH3 0x4B37 DUP4 DUP6 PUSH3 0x5A78 JUMP JUMPDEST SWAP4 POP PUSH3 0x4B46 DUP4 DUP6 DUP5 PUSH3 0x5C39 JUMP JUMPDEST DUP3 DUP5 ADD SWAP1 POP SWAP4 SWAP3 POP POP POP JUMP JUMPDEST PUSH1 0x0 PUSH3 0x4B5F DUP3 PUSH3 0x5A1C JUMP JUMPDEST PUSH3 0x4B6B DUP2 DUP6 PUSH3 0x5A56 JUMP JUMPDEST SWAP4 POP PUSH3 0x4B7D DUP2 DUP6 PUSH1 0x20 DUP7 ADD PUSH3 0x5C48 JUMP JUMPDEST PUSH3 0x4B88 DUP2 PUSH3 0x5C7E JUMP JUMPDEST DUP5 ADD SWAP2 POP POP SWAP3 SWAP2 POP POP JUMP JUMPDEST PUSH1 0x0 PUSH3 0x4BA0 DUP3 PUSH3 0x5A1C JUMP JUMPDEST PUSH3 0x4BAC DUP2 DUP6 PUSH3 0x5A78 JUMP JUMPDEST SWAP4 POP PUSH3 0x4BBE DUP2 DUP6 PUSH1 0x20 DUP7 ADD PUSH3 0x5C48 JUMP JUMPDEST DUP1 DUP5 ADD SWAP2 POP POP SWAP3 SWAP2 POP POP JUMP JUMPDEST PUSH1 0x0 PUSH3 0x4BD7 DUP3 PUSH3 0x5A11 JUMP JUMPDEST PUSH3 0x4BE3 DUP2 DUP6 PUSH3 0x5A45 JUMP JUMPDEST SWAP4 POP PUSH3 0x4BF5 DUP2 DUP6 PUSH1 0x20 DUP7 ADD PUSH3 0x5C48 JUMP JUMPDEST PUSH3 0x4C00 DUP2 PUSH3 0x5C7E JUMP JUMPDEST DUP5 ADD SWAP2 POP POP SWAP3 SWAP2 POP POP JUMP JUMPDEST PUSH1 0x0 PUSH3 0x4C18 DUP3 PUSH3 0x5A11 JUMP JUMPDEST PUSH3 0x4C24 DUP2 DUP6 PUSH3 0x5A56 JUMP JUMPDEST SWAP4 POP PUSH3 0x4C36 DUP2 DUP6 PUSH1 0x20 DUP7 ADD PUSH3 0x5C48 JUMP JUMPDEST PUSH3 0x4C41 DUP2 PUSH3 0x5C7E JUMP JUMPDEST DUP5 ADD SWAP2 POP POP SWAP3 SWAP2 POP POP JUMP JUMPDEST PUSH1 0x0 PUSH3 0x4C59 DUP3 PUSH3 0x5A11 JUMP JUMPDEST PUSH3 0x4C65 DUP2 DUP6 PUSH3 0x5A67 JUMP JUMPDEST SWAP4 POP PUSH3 0x4C77 DUP2 DUP6 PUSH1 0x20 DUP7 ADD PUSH3 0x5C48 JUMP JUMPDEST PUSH3 0x4C82 DUP2 PUSH3 0x5C7E JUMP JUMPDEST DUP5 ADD SWAP2 POP POP SWAP3 SWAP2 POP POP JUMP JUMPDEST PUSH1 0x0 PUSH3 0x4C9A DUP3 PUSH3 0x5A11 JUMP JUMPDEST PUSH3 0x4CA6 DUP2 DUP6 PUSH3 0x5A78 JUMP JUMPDEST SWAP4 POP PUSH3 0x4CB8 DUP2 DUP6 PUSH1 0x20 DUP7 ADD PUSH3 0x5C48 JUMP JUMPDEST DUP1 DUP5 ADD SWAP2 POP POP SWAP3 SWAP2 POP POP JUMP JUMPDEST PUSH1 0x0 PUSH3 0x4CD3 PUSH1 0x11 DUP4 PUSH3 0x5A56 JUMP JUMPDEST SWAP2 POP PUSH32 0x70726F706F73616C206D697373696E672E000000000000000000000000000000 PUSH1 0x0 DUP4 ADD MSTORE PUSH1 0x20 DUP3 ADD SWAP1 POP SWAP2 SWAP1 POP JUMP JUMPDEST PUSH1 0x0 PUSH3 0x4D15 PUSH1 0x18 DUP4 PUSH3 0x5A56 JUMP JUMPDEST SWAP2 POP PUSH32 0x626173652073657474696E67206E6F74206578697374732E0000000000000000 PUSH1 0x0 DUP4 ADD MSTORE PUSH1 0x20 DUP3 ADD SWAP1 POP SWAP2 SWAP1 POP JUMP JUMPDEST PUSH1 0x0 PUSH3 0x4D57 PUSH1 0x1C DUP4 PUSH3 0x5A56 JUMP JUMPDEST SWAP2 POP PUSH32 0x70726F706F7365722073657474696E67206E6F74206578697374732E00000000 PUSH1 0x0 DUP4 ADD MSTORE PUSH1 0x20 DUP3 ADD SWAP1 POP SWAP2 SWAP1 POP JUMP JUMPDEST PUSH1 0x0 PUSH3 0x4D99 PUSH1 0x1A DUP4 PUSH3 0x5A56 JUMP JUMPDEST SWAP2 POP PUSH32 0x70726F706F73616C20646973636F496420697320656D70747921000000000000 PUSH1 0x0 DUP4 ADD MSTORE PUSH1 0x20 DUP3 ADD SWAP1 POP SWAP2 SWAP1 POP JUMP JUMPDEST PUSH1 0x0 PUSH3 0x4DDB PUSH1 0x12 DUP4 PUSH3 0x5A56 JUMP JUMPDEST SWAP2 POP PUSH32 0x646973636F20696420697320656D707479210000000000000000000000000000 PUSH1 0x0 DUP4 ADD MSTORE PUSH1 0x20 DUP3 ADD SWAP1 POP SWAP2 SWAP1 POP JUMP JUMPDEST PUSH1 0x0 PUSH3 0x4E1D PUSH1 0x15 DUP4 PUSH3 0x5A56 JUMP JUMPDEST SWAP2 POP PUSH32 0x69726F206164647265737320697320656D7074792E0000000000000000000000 PUSH1 0x0 DUP4 ADD MSTORE PUSH1 0x20 DUP3 ADD SWAP1 POP SWAP2 SWAP1 POP JUMP JUMPDEST PUSH1 0x0 PUSH3 0x4E5F PUSH1 0x1E DUP4 PUSH3 0x5A56 JUMP JUMPDEST SWAP2 POP PUSH32 0x6120696E76616C696420766F74652C20766F7465206E756D203C3D20302E0000 PUSH1 0x0 DUP4 ADD MSTORE PUSH1 0x20 DUP3 ADD SWAP1 POP SWAP2 SWAP1 POP JUMP JUMPDEST PUSH1 0x0 PUSH3 0x4EA1 PUSH1 0x23 DUP4 PUSH3 0x5A56 JUMP JUMPDEST SWAP2 POP PUSH32 0x7468652070726F706F73616C20636F756C64206E6F742062652072656C656173 PUSH1 0x0 DUP4 ADD MSTORE PUSH32 0x65642E0000000000000000000000000000000000000000000000000000000000 PUSH1 0x20 DUP4 ADD MSTORE PUSH1 0x40 DUP3 ADD SWAP1 POP SWAP2 SWAP1 POP JUMP JUMPDEST PUSH1 0x0 PUSH3 0x4F09 PUSH1 0x1E DUP4 PUSH3 0x5A56 JUMP JUMPDEST SWAP2 POP PUSH32 0x70726F706F73616C206D697373696E672C20636865636B2066697273742E0000 PUSH1 0x0 DUP4 ADD MSTORE PUSH1 0x20 DUP3 ADD SWAP1 POP SWAP2 SWAP1 POP JUMP JUMPDEST PUSH1 0x0 PUSH3 0x4F4B PUSH1 0x3F DUP4 PUSH3 0x5A56 JUMP JUMPDEST SWAP2 POP PUSH32 0x70726F706F73616C20616C7265616479206578697374732C20706C6561736520 PUSH1 0x0 DUP4 ADD MSTORE PUSH32 0x7265706C61636520776974682074686520636F6E7472616374206F776E657200 PUSH1 0x20 DUP4 ADD MSTORE PUSH1 0x40 DUP3 ADD SWAP1 POP SWAP2 SWAP1 POP JUMP JUMPDEST PUSH1 0x0 PUSH3 0x4FB3 PUSH1 0x1B DUP4 PUSH3 0x5A56 JUMP JUMPDEST SWAP2 POP PUSH32 0x70726F706F73616C2073657269616C496420697320656D707479210000000000 PUSH1 0x0 DUP4 ADD MSTORE PUSH1 0x20 DUP3 ADD SWAP1 POP SWAP2 SWAP1 POP JUMP JUMPDEST PUSH1 0x0 PUSH3 0x4FF5 PUSH1 0x10 DUP4 PUSH3 0x5A56 JUMP JUMPDEST SWAP2 POP PUSH32 0x766F746520697320657870697265642E00000000000000000000000000000000 PUSH1 0x0 DUP4 ADD MSTORE PUSH1 0x20 DUP3 ADD SWAP1 POP SWAP2 SWAP1 POP JUMP JUMPDEST PUSH1 0x0 PUSH3 0x5037 PUSH1 0x17 DUP4 PUSH3 0x5A56 JUMP JUMPDEST SWAP2 POP PUSH32 0x646973636F206164647265737320697320656D7074792E000000000000000000 PUSH1 0x0 DUP4 ADD MSTORE PUSH1 0x20 DUP3 ADD SWAP1 POP SWAP2 SWAP1 POP JUMP JUMPDEST PUSH1 0x0 PUSH3 0x5079 PUSH1 0x19 DUP4 PUSH3 0x5A56 JUMP JUMPDEST SWAP2 POP PUSH32 0x766F7465722073657474696E67206E6F74206578697374732E00000000000000 PUSH1 0x0 DUP4 ADD MSTORE PUSH1 0x20 DUP3 ADD SWAP1 POP SWAP2 SWAP1 POP JUMP JUMPDEST PUSH1 0x0 PUSH3 0x50BB PUSH1 0x1 DUP4 PUSH3 0x5A78 JUMP JUMPDEST SWAP2 POP PUSH32 0x4000000000000000000000000000000000000000000000000000000000000000 PUSH1 0x0 DUP4 ADD MSTORE PUSH1 0x1 DUP3 ADD SWAP1 POP SWAP2 SWAP1 POP JUMP JUMPDEST PUSH1 0x0 PUSH3 0x50FD PUSH1 0x3A DUP4 PUSH3 0x5A56 JUMP JUMPDEST SWAP2 POP PUSH32 0x7468652070726F706F73616C20636F756C64206E6F7420626520766F74656420 PUSH1 0x0 DUP4 ADD MSTORE PUSH32 0x7768656E20737461747573206973206E6F7420766F74696E672E000000000000 PUSH1 0x20 DUP4 ADD MSTORE PUSH1 0x40 DUP3 ADD SWAP1 POP SWAP2 SWAP1 POP JUMP JUMPDEST PUSH1 0x0 PUSH1 0x60 DUP4 ADD PUSH1 0x0 DUP4 ADD MLOAD PUSH3 0x5170 PUSH1 0x0 DUP7 ADD DUP3 PUSH3 0x54D7 JUMP JUMPDEST POP PUSH1 0x20 DUP4 ADD MLOAD PUSH3 0x5185 PUSH1 0x20 DUP7 ADD DUP3 PUSH3 0x54D7 JUMP JUMPDEST POP PUSH1 0x40 DUP4 ADD MLOAD DUP5 DUP3 SUB PUSH1 0x40 DUP7 ADD MSTORE PUSH3 0x519F DUP3 DUP3 PUSH3 0x4BCA JUMP JUMPDEST SWAP2 POP POP DUP1 SWAP2 POP POP SWAP3 SWAP2 POP POP JUMP JUMPDEST PUSH1 0x0 PUSH2 0x100 DUP4 ADD PUSH1 0x0 DUP4 ADD MLOAD PUSH3 0x51C7 PUSH1 0x0 DUP7 ADD DUP3 PUSH3 0x49FE JUMP JUMPDEST POP PUSH1 0x20 DUP4 ADD MLOAD PUSH3 0x51DC PUSH1 0x20 DUP7 ADD DUP3 PUSH3 0x4AD4 JUMP JUMPDEST POP PUSH1 0x40 DUP4 ADD MLOAD PUSH3 0x51F1 PUSH1 0x40 DUP7 ADD DUP3 PUSH3 0x54D7 JUMP JUMPDEST POP PUSH1 0x60 DUP4 ADD MLOAD DUP5 DUP3 SUB PUSH1 0x60 DUP7 ADD MSTORE PUSH3 0x520B DUP3 DUP3 PUSH3 0x4BCA JUMP JUMPDEST SWAP2 POP POP PUSH1 0x80 DUP4 ADD MLOAD PUSH3 0x5222 PUSH1 0x80 DUP7 ADD DUP3 PUSH3 0x54D7 JUMP JUMPDEST POP PUSH1 0xA0 DUP4 ADD MLOAD PUSH3 0x5237 PUSH1 0xA0 DUP7 ADD DUP3 PUSH3 0x54D7 JUMP JUMPDEST POP PUSH1 0xC0 DUP4 ADD MLOAD PUSH3 0x524C PUSH1 0xC0 DUP7 ADD DUP3 PUSH3 0x4AB2 JUMP JUMPDEST POP PUSH1 0xE0 DUP4 ADD MLOAD PUSH3 0x5261 PUSH1 0xE0 DUP7 ADD DUP3 PUSH3 0x4AA1 JUMP JUMPDEST POP DUP1 SWAP2 POP POP SWAP3 SWAP2 POP POP JUMP JUMPDEST PUSH1 0x0 PUSH2 0x180 DUP4 ADD PUSH1 0x0 DUP4 ADD MLOAD DUP5 DUP3 SUB PUSH1 0x0 DUP7 ADD MSTORE PUSH3 0x528C DUP3 DUP3 PUSH3 0x4BCA JUMP JUMPDEST SWAP2 POP POP PUSH1 0x20 DUP4 ADD MLOAD DUP5 DUP3 SUB PUSH1 0x20 DUP7 ADD MSTORE PUSH3 0x52A8 DUP3 DUP3 PUSH3 0x4BCA JUMP JUMPDEST SWAP2 POP POP PUSH1 0x40 DUP4 ADD MLOAD DUP5 DUP3 SUB PUSH1 0x40 DUP7 ADD MSTORE PUSH3 0x52C4 DUP3 DUP3 PUSH3 0x4BCA JUMP JUMPDEST SWAP2 POP POP PUSH1 0x60 DUP4 ADD MLOAD PUSH3 0x52DB PUSH1 0x60 DUP7 ADD DUP3 PUSH3 0x4AF6 JUMP JUMPDEST POP PUSH1 0x80 DUP4 ADD MLOAD PUSH3 0x52F0 PUSH1 0x80 DUP7 ADD DUP3 PUSH3 0x4AE5 JUMP JUMPDEST POP PUSH1 0xA0 DUP4 ADD MLOAD DUP5 DUP3 SUB PUSH1 0xA0 DUP7 ADD MSTORE PUSH3 0x530A DUP3 DUP3 PUSH3 0x4BCA JUMP JUMPDEST SWAP2 POP POP PUSH1 0xC0 DUP4 ADD MLOAD DUP5 DUP3 SUB PUSH1 0xC0 DUP7 ADD MSTORE PUSH3 0x5326 DUP3 DUP3 PUSH3 0x4BCA JUMP JUMPDEST SWAP2 POP POP PUSH1 0xE0 DUP4 ADD MLOAD DUP5 DUP3 SUB PUSH1 0xE0 DUP7 ADD MSTORE PUSH3 0x5342 DUP3 DUP3 PUSH3 0x51AC JUMP JUMPDEST SWAP2 POP POP PUSH2 0x100 DUP4 ADD MLOAD PUSH3 0x535B PUSH2 0x100 DUP7 ADD DUP3 PUSH3 0x53B2 JUMP JUMPDEST POP PUSH2 0x120 DUP4 ADD MLOAD DUP5 DUP3 SUB PUSH2 0x120 DUP7 ADD MSTORE PUSH3 0x5377 DUP3 DUP3 PUSH3 0x546C JUMP JUMPDEST SWAP2 POP POP PUSH2 0x140 DUP4 ADD MLOAD PUSH3 0x5390 PUSH2 0x140 DUP7 ADD DUP3 PUSH3 0x54D7 JUMP JUMPDEST POP PUSH2 0x160 DUP4 ADD MLOAD PUSH3 0x53A7 PUSH2 0x160 DUP7 ADD DUP3 PUSH3 0x49FE JUMP JUMPDEST POP DUP1 SWAP2 POP POP SWAP3 SWAP2 POP POP JUMP JUMPDEST PUSH1 0x20 DUP3 ADD PUSH1 0x0 DUP3 ADD MLOAD PUSH3 0x53CA PUSH1 0x0 DUP6 ADD DUP3 PUSH3 0x4B18 JUMP JUMPDEST POP POP POP POP JUMP JUMPDEST PUSH1 0x0 PUSH1 0xC0 DUP4 ADD PUSH1 0x0 DUP4 ADD MLOAD DUP5 DUP3 SUB PUSH1 0x0 DUP7 ADD MSTORE PUSH3 0x53EF DUP3 DUP3 PUSH3 0x4BCA JUMP JUMPDEST SWAP2 POP POP PUSH1 0x20 DUP4 ADD MLOAD DUP5 DUP3 SUB PUSH1 0x20 DUP7 ADD MSTORE PUSH3 0x540B DUP3 DUP3 PUSH3 0x4BCA JUMP JUMPDEST SWAP2 POP POP PUSH1 0x40 DUP4 ADD MLOAD PUSH3 0x5422 PUSH1 0x40 DUP7 ADD DUP3 PUSH3 0x49FE JUMP JUMPDEST POP PUSH1 0x60 DUP4 ADD MLOAD PUSH3 0x5437 PUSH1 0x60 DUP7 ADD DUP3 PUSH3 0x54D7 JUMP JUMPDEST POP PUSH1 0x80 DUP4 ADD MLOAD PUSH3 0x544C PUSH1 0x80 DUP7 ADD DUP3 PUSH3 0x54D7 JUMP JUMPDEST POP PUSH1 0xA0 DUP4 ADD MLOAD PUSH3 0x5461 PUSH1 0xA0 DUP7 ADD DUP3 PUSH3 0x54D7 JUMP JUMPDEST POP DUP1 SWAP2 POP POP SWAP3 SWAP2 POP POP JUMP JUMPDEST PUSH1 0x0 PUSH1 0x80 DUP4 ADD PUSH1 0x0 DUP4 ADD MLOAD PUSH3 0x5486 PUSH1 0x0 DUP7 ADD DUP3 PUSH3 0x54D7 JUMP JUMPDEST POP PUSH1 0x20 DUP4 ADD MLOAD DUP5 DUP3 SUB PUSH1 0x20 DUP7 ADD MSTORE PUSH3 0x54A0 DUP3 DUP3 PUSH3 0x4BCA JUMP JUMPDEST SWAP2 POP POP PUSH1 0x40 DUP4 ADD MLOAD PUSH3 0x54B7 PUSH1 0x40 DUP7 ADD DUP3 PUSH3 0x54D7 JUMP JUMPDEST POP PUSH1 0x60 DUP4 ADD MLOAD PUSH3 0x54CC PUSH1 0x60 DUP7 ADD DUP3 PUSH3 0x54D7 JUMP JUMPDEST POP DUP1 SWAP2 POP POP SWAP3 SWAP2 POP POP JUMP JUMPDEST PUSH3 0x54E2 DUP2 PUSH3 0x5B53 JUMP JUMPDEST DUP3 MSTORE POP POP JUMP JUMPDEST PUSH3 0x54F3 DUP2 PUSH3 0x5B53 JUMP JUMPDEST DUP3 MSTORE POP POP JUMP JUMPDEST PUSH1 0x0 PUSH3 0x5508 DUP3 DUP5 DUP7 PUSH3 0x4B29 JUMP JUMPDEST SWAP2 POP DUP2 SWAP1 POP SWAP4 SWAP3 POP POP POP JUMP JUMPDEST PUSH1 0x0 PUSH3 0x5522 DUP3 DUP5 PUSH3 0x4C8D JUMP JUMPDEST SWAP2 POP DUP2 SWAP1 POP SWAP3 SWAP2 POP POP JUMP JUMPDEST PUSH1 0x0 PUSH3 0x553B DUP3 DUP5 PUSH3 0x4B93 JUMP JUMPDEST SWAP2 POP DUP2 SWAP1 POP SWAP3 SWAP2 POP POP JUMP JUMPDEST PUSH1 0x0 PUSH3 0x5554 DUP3 DUP6 PUSH3 0x4B93 JUMP JUMPDEST SWAP2 POP PUSH3 0x5561 DUP3 PUSH3 0x50AC JUMP JUMPDEST SWAP2 POP PUSH3 0x556F DUP3 DUP5 PUSH3 0x4B93 JUMP JUMPDEST SWAP2 POP DUP2 SWAP1 POP SWAP4 SWAP3 POP POP POP JUMP JUMPDEST PUSH1 0x0 PUSH1 0x60 DUP3 ADD SWAP1 POP PUSH3 0x5592 PUSH1 0x0 DUP4 ADD DUP7 PUSH3 0x49ED JUMP JUMPDEST PUSH3 0x55A1 PUSH1 0x20 DUP4 ADD DUP6 PUSH3 0x49ED JUMP JUMPDEST PUSH3 0x55B0 PUSH1 0x40 DUP4 ADD DUP5 PUSH3 0x54E8 JUMP JUMPDEST SWAP5 SWAP4 POP POP POP POP JUMP JUMPDEST PUSH1 0x0 PUSH1 0x60 DUP3 ADD SWAP1 POP PUSH3 0x55CF PUSH1 0x0 DUP4 ADD DUP7 PUSH3 0x4AC3 JUMP JUMPDEST PUSH3 0x55DE PUSH1 0x20 DUP4 ADD DUP6 PUSH3 0x4A0F JUMP JUMPDEST PUSH3 0x55ED PUSH1 0x40 DUP4 ADD DUP5 PUSH3 0x54E8 JUMP JUMPDEST SWAP5 SWAP4 POP POP POP POP JUMP JUMPDEST PUSH1 0x0 PUSH1 0x20 DUP3 ADD SWAP1 POP PUSH3 0x560C PUSH1 0x0 DUP4 ADD DUP5 PUSH3 0x4B07 JUMP JUMPDEST SWAP3 SWAP2 POP POP JUMP JUMPDEST PUSH1 0x0 PUSH1 0x40 DUP3 ADD SWAP1 POP PUSH3 0x5629 PUSH1 0x0 DUP4 ADD DUP6 PUSH3 0x4B07 JUMP JUMPDEST PUSH3 0x5638 PUSH1 0x20 DUP4 ADD DUP5 PUSH3 0x4B07 JUMP JUMPDEST SWAP4 SWAP3 POP POP POP JUMP JUMPDEST PUSH1 0x0 PUSH1 0x20 DUP3 ADD SWAP1 POP DUP2 DUP2 SUB PUSH1 0x0 DUP4 ADD MSTORE PUSH3 0x565B DUP2 DUP5 PUSH3 0x4C0B JUMP JUMPDEST SWAP1 POP SWAP3 SWAP2 POP POP JUMP JUMPDEST PUSH1 0x0 PUSH1 0x20 DUP3 ADD SWAP1 POP DUP2 DUP2 SUB PUSH1 0x0 DUP4 ADD MSTORE PUSH3 0x567F DUP2 DUP5 PUSH3 0x4C4C JUMP JUMPDEST SWAP1 POP SWAP3 SWAP2 POP POP JUMP JUMPDEST PUSH1 0x0 PUSH1 0x20 DUP3 ADD SWAP1 POP DUP2 DUP2 SUB PUSH1 0x0 DUP4 ADD MSTORE PUSH3 0x56A3 DUP2 DUP5 PUSH3 0x4B52 JUMP JUMPDEST SWAP1 POP SWAP3 SWAP2 POP POP JUMP JUMPDEST PUSH1 0x0 PUSH1 0x20 DUP3 ADD SWAP1 POP DUP2 DUP2 SUB PUSH1 0x0 DUP4 ADD MSTORE PUSH3 0x56C6 DUP2 PUSH3 0x4CC4 JUMP JUMPDEST SWAP1 POP SWAP2 SWAP1 POP JUMP JUMPDEST PUSH1 0x0 PUSH1 0x20 DUP3 ADD SWAP1 POP DUP2 DUP2 SUB PUSH1 0x0 DUP4 ADD MSTORE PUSH3 0x56E8 DUP2 PUSH3 0x4D06 JUMP JUMPDEST SWAP1 POP SWAP2 SWAP1 POP JUMP JUMPDEST PUSH1 0x0 PUSH1 0x20 DUP3 ADD SWAP1 POP DUP2 DUP2 SUB PUSH1 0x0 DUP4 ADD MSTORE PUSH3 0x570A DUP2 PUSH3 0x4D48 JUMP JUMPDEST SWAP1 POP SWAP2 SWAP1 POP JUMP JUMPDEST PUSH1 0x0 PUSH1 0x20 DUP3 ADD SWAP1 POP DUP2 DUP2 SUB PUSH1 0x0 DUP4 ADD MSTORE PUSH3 0x572C DUP2 PUSH3 0x4D8A JUMP JUMPDEST SWAP1 POP SWAP2 SWAP1 POP JUMP JUMPDEST PUSH1 0x0 PUSH1 0x20 DUP3 ADD SWAP1 POP DUP2 DUP2 SUB PUSH1 0x0 DUP4 ADD MSTORE PUSH3 0x574E DUP2 PUSH3 0x4DCC JUMP JUMPDEST SWAP1 POP SWAP2 SWAP1 POP JUMP JUMPDEST PUSH1 0x0 PUSH1 0x20 DUP3 ADD SWAP1 POP DUP2 DUP2 SUB PUSH1 0x0 DUP4 ADD MSTORE PUSH3 0x5770 DUP2 PUSH3 0x4E0E JUMP JUMPDEST SWAP1 POP SWAP2 SWAP1 POP JUMP JUMPDEST PUSH1 0x0 PUSH1 0x20 DUP3 ADD SWAP1 POP DUP2 DUP2 SUB PUSH1 0x0 DUP4 ADD MSTORE PUSH3 0x5792 DUP2 PUSH3 0x4E50 JUMP JUMPDEST SWAP1 POP SWAP2 SWAP1 POP JUMP JUMPDEST PUSH1 0x0 PUSH1 0x20 DUP3 ADD SWAP1 POP DUP2 DUP2 SUB PUSH1 0x0 DUP4 ADD MSTORE PUSH3 0x57B4 DUP2 PUSH3 0x4E92 JUMP JUMPDEST SWAP1 POP SWAP2 SWAP1 POP JUMP JUMPDEST PUSH1 0x0 PUSH1 0x20 DUP3 ADD SWAP1 POP DUP2 DUP2 SUB PUSH1 0x0 DUP4 ADD MSTORE PUSH3 0x57D6 DUP2 PUSH3 0x4EFA JUMP JUMPDEST SWAP1 POP SWAP2 SWAP1 POP JUMP JUMPDEST PUSH1 0x0 PUSH1 0x20 DUP3 ADD SWAP1 POP DUP2 DUP2 SUB PUSH1 0x0 DUP4 ADD MSTORE PUSH3 0x57F8 DUP2 PUSH3 0x4F3C JUMP JUMPDEST SWAP1 POP SWAP2 SWAP1 POP JUMP JUMPDEST PUSH1 0x0 PUSH1 0x20 DUP3 ADD SWAP1 POP DUP2 DUP2 SUB PUSH1 0x0 DUP4 ADD MSTORE PUSH3 0x581A DUP2 PUSH3 0x4FA4 JUMP JUMPDEST SWAP1 POP SWAP2 SWAP1 POP JUMP JUMPDEST PUSH1 0x0 PUSH1 0x20 DUP3 ADD SWAP1 POP DUP2 DUP2 SUB PUSH1 0x0 DUP4 ADD MSTORE PUSH3 0x583C DUP2 PUSH3 0x4FE6 JUMP JUMPDEST SWAP1 POP SWAP2 SWAP1 POP JUMP JUMPDEST PUSH1 0x0 PUSH1 0x20 DUP3 ADD SWAP1 POP DUP2 DUP2 SUB PUSH1 0x0 DUP4 ADD MSTORE PUSH3 0x585E DUP2 PUSH3 0x5028 JUMP JUMPDEST SWAP1 POP SWAP2 SWAP1 POP JUMP JUMPDEST PUSH1 0x0 PUSH1 0x20 DUP3 ADD SWAP1 POP DUP2 DUP2 SUB PUSH1 0x0 DUP4 ADD MSTORE PUSH3 0x5880 DUP2 PUSH3 0x506A JUMP JUMPDEST SWAP1 POP SWAP2 SWAP1 POP JUMP JUMPDEST PUSH1 0x0 PUSH1 0x20 DUP3 ADD SWAP1 POP DUP2 DUP2 SUB PUSH1 0x0 DUP4 ADD MSTORE PUSH3 0x58A2 DUP2 PUSH3 0x50EE JUMP JUMPDEST SWAP1 POP SWAP2 SWAP1 POP JUMP JUMPDEST PUSH1 0x0 PUSH1 0x20 DUP3 ADD SWAP1 POP DUP2 DUP2 SUB PUSH1 0x0 DUP4 ADD MSTORE PUSH3 0x58C5 DUP2 DUP5 PUSH3 0x526C JUMP JUMPDEST SWAP1 POP SWAP3 SWAP2 POP POP JUMP JUMPDEST PUSH1 0x0 PUSH1 0x40 DUP3 ADD SWAP1 POP DUP2 DUP2 SUB PUSH1 0x0 DUP4 ADD MSTORE PUSH3 0x58E9 DUP2 DUP6 PUSH3 0x526C JUMP JUMPDEST SWAP1 POP DUP2 DUP2 SUB PUSH1 0x20 DUP4 ADD MSTORE PUSH3 0x58FF DUP2 DUP5 PUSH3 0x4A20 JUMP JUMPDEST SWAP1 POP SWAP4 SWAP3 POP POP POP JUMP JUMPDEST PUSH1 0x0 PUSH1 0x20 DUP3 ADD SWAP1 POP DUP2 DUP2 SUB PUSH1 0x0 DUP4 ADD MSTORE PUSH3 0x5924 DUP2 DUP5 PUSH3 0x53D0 JUMP JUMPDEST SWAP1 POP SWAP3 SWAP2 POP POP JUMP JUMPDEST PUSH1 0x0 PUSH1 0x20 DUP3 ADD SWAP1 POP PUSH3 0x5943 PUSH1 0x0 DUP4 ADD DUP5 PUSH3 0x54E8 JUMP JUMPDEST SWAP3 SWAP2 POP POP JUMP JUMPDEST PUSH1 0x0 PUSH1 0x40 MLOAD SWAP1 POP DUP2 DUP2 ADD DUP2 DUP2 LT PUSH8 0xFFFFFFFFFFFFFFFF DUP3 GT OR ISZERO PUSH3 0x596D JUMPI PUSH1 0x0 DUP1 REVERT JUMPDEST DUP1 PUSH1 0x40 MSTORE POP SWAP2 SWAP1 POP JUMP JUMPDEST PUSH1 0x0 PUSH8 0xFFFFFFFFFFFFFFFF DUP3 GT ISZERO PUSH3 0x598F JUMPI PUSH1 0x0 DUP1 REVERT JUMPDEST PUSH1 0x20 DUP3 MUL SWAP1 POP PUSH1 0x20 DUP2 ADD SWAP1 POP SWAP2 SWAP1 POP JUMP JUMPDEST PUSH1 0x0 PUSH8 0xFFFFFFFFFFFFFFFF DUP3 GT ISZERO PUSH3 0x59B8 JUMPI PUSH1 0x0 DUP1 REVERT JUMPDEST PUSH1 0x20 DUP3 MUL SWAP1 POP PUSH1 0x20 DUP2 ADD SWAP1 POP SWAP2 SWAP1 POP JUMP JUMPDEST PUSH1 0x0 PUSH8 0xFFFFFFFFFFFFFFFF DUP3 GT ISZERO PUSH3 0x59E1 JUMPI PUSH1 0x0 DUP1 REVERT JUMPDEST PUSH1 0x1F NOT PUSH1 0x1F DUP4 ADD AND SWAP1 POP PUSH1 0x20 DUP2 ADD SWAP1 POP SWAP2 SWAP1 POP JUMP JUMPDEST PUSH1 0x0 DUP2 SWAP1 POP PUSH1 0x20 DUP3 ADD SWAP1 POP SWAP2 SWAP1 POP JUMP JUMPDEST PUSH1 0x0 DUP2 MLOAD SWAP1 POP SWAP2 SWAP1 POP JUMP JUMPDEST PUSH1 0x0 DUP2 MLOAD SWAP1 POP SWAP2 SWAP1 POP JUMP JUMPDEST PUSH1 0x0 DUP2 MLOAD SWAP1 POP SWAP2 SWAP1 POP JUMP JUMPDEST PUSH1 0x0 PUSH1 0x20 DUP3 ADD SWAP1 POP SWAP2 SWAP1 POP JUMP JUMPDEST PUSH1 0x0 DUP3 DUP3 MSTORE PUSH1 0x20 DUP3 ADD SWAP1 POP SWAP3 SWAP2 POP POP JUMP JUMPDEST PUSH1 0x0 DUP3 DUP3 MSTORE PUSH1 0x20 DUP3 ADD SWAP1 POP SWAP3 SWAP2 POP POP JUMP JUMPDEST PUSH1 0x0 DUP3 DUP3 MSTORE PUSH1 0x20 DUP3 ADD SWAP1 POP SWAP3 SWAP2 POP POP JUMP JUMPDEST PUSH1 0x0 DUP3 DUP3 MSTORE PUSH1 0x20 DUP3 ADD SWAP1 POP SWAP3 SWAP2 POP POP JUMP JUMPDEST PUSH1 0x0 DUP2 SWAP1 POP SWAP3 SWAP2 POP POP JUMP JUMPDEST PUSH1 0x0 PUSH3 0x5A90 DUP3 PUSH3 0x5B33 JUMP JUMPDEST SWAP1 POP SWAP2 SWAP1 POP JUMP JUMPDEST PUSH1 0x0 PUSH3 0x5AA4 DUP3 PUSH3 0x5B33 JUMP JUMPDEST SWAP1 POP SWAP2 SWAP1 POP JUMP JUMPDEST PUSH1 0x0 DUP2 ISZERO ISZERO SWAP1 POP SWAP2 SWAP1 POP JUMP JUMPDEST PUSH1 0x0 PUSH3 0x5AC4 DUP3 PUSH3 0x5A97 JUMP JUMPDEST SWAP1 POP SWAP2 SWAP1 POP JUMP JUMPDEST PUSH1 0x0 PUSH3 0x5AD8 DUP3 PUSH3 0x5A83 JUMP JUMPDEST SWAP1 POP SWAP2 SWAP1 POP JUMP JUMPDEST PUSH1 0x0 DUP2 SWAP1 POP PUSH3 0x5AEF DUP3 PUSH3 0x5C8F JUMP JUMPDEST SWAP2 SWAP1 POP JUMP JUMPDEST PUSH1 0x0 DUP2 SWAP1 POP PUSH3 0x5B04 DUP3 PUSH3 0x5C9D JUMP JUMPDEST SWAP2 SWAP1 POP JUMP JUMPDEST PUSH1 0x0 DUP2 SWAP1 POP PUSH3 0x5B19 DUP3 PUSH3 0x5CAB JUMP JUMPDEST SWAP2 SWAP1 POP JUMP JUMPDEST PUSH1 0x0 DUP2 SWAP1 POP PUSH3 0x5B2E DUP3 PUSH3 0x5CB9 JUMP JUMPDEST SWAP2 SWAP1 POP JUMP JUMPDEST PUSH1 0x0 PUSH20 0xFFFFFFFFFFFFFFFFFFFFFFFFFFFFFFFFFFFFFFFF DUP3 AND SWAP1 POP SWAP2 SWAP1 POP JUMP JUMPDEST PUSH1 0x0 DUP2 SWAP1 POP SWAP2 SWAP1 POP JUMP JUMPDEST PUSH1 0x0 PUSH3 0x5B6A DUP3 PUSH3 0x5C11 JUMP JUMPDEST SWAP1 POP SWAP2 SWAP1 POP JUMP JUMPDEST PUSH1 0x0 PUSH3 0x5B7E DUP3 PUSH3 0x5B85 JUMP JUMPDEST SWAP1 POP SWAP2 SWAP1 POP JUMP JUMPDEST PUSH1 0x0 PUSH3 0x5B92 DUP3 PUSH3 0x5B33 JUMP JUMPDEST SWAP1 POP SWAP2 SWAP1 POP JUMP JUMPDEST PUSH1 0x0 PUSH3 0x5BA6 DUP3 PUSH3 0x5BAD JUMP JUMPDEST SWAP1 POP SWAP2 SWAP1 POP JUMP JUMPDEST PUSH1 0x0 PUSH3 0x5BBA DUP3 PUSH3 0x5B33 JUMP JUMPDEST SWAP1 POP SWAP2 SWAP1 POP JUMP JUMPDEST PUSH1 0x0 PUSH3 0x5BCE DUP3 PUSH3 0x5ADF JUMP JUMPDEST SWAP1 POP SWAP2 SWAP1 POP JUMP JUMPDEST PUSH1 0x0 PUSH3 0x5BE2 DUP3 PUSH3 0x5AF4 JUMP JUMPDEST SWAP1 POP SWAP2 SWAP1 POP JUMP JUMPDEST PUSH1 0x0 PUSH3 0x5BF6 DUP3 PUSH3 0x5B09 JUMP JUMPDEST SWAP1 POP SWAP2 SWAP1 POP JUMP JUMPDEST PUSH1 0x0 PUSH3 0x5C0A DUP3 PUSH3 0x5B1E JUMP JUMPDEST SWAP1 POP SWAP2 SWAP1 POP JUMP JUMPDEST PUSH1 0x0 PUSH3 0x5C1E DUP3 PUSH3 0x5C25 JUMP JUMPDEST SWAP1 POP SWAP2 SWAP1 POP JUMP JUMPDEST PUSH1 0x0 PUSH3 0x5C32 DUP3 PUSH3 0x5B33 JUMP JUMPDEST SWAP1 POP SWAP2 SWAP1 POP JUMP JUMPDEST DUP3 DUP2 DUP4 CALLDATACOPY PUSH1 0x0 DUP4 DUP4 ADD MSTORE POP POP POP JUMP JUMPDEST PUSH1 0x0 JUMPDEST DUP4 DUP2 LT ISZERO PUSH3 0x5C68 JUMPI DUP1 DUP3 ADD MLOAD DUP2 DUP5 ADD MSTORE PUSH1 0x20 DUP2 ADD SWAP1 POP PUSH3 0x5C4B JUMP JUMPDEST DUP4 DUP2 GT ISZERO PUSH3 0x5C78 JUMPI PUSH1 0x0 DUP5 DUP5 ADD MSTORE JUMPDEST POP POP POP POP JUMP JUMPDEST PUSH1 0x0 PUSH1 0x1F NOT PUSH1 0x1F DUP4 ADD AND SWAP1 POP SWAP2 SWAP1 POP JUMP JUMPDEST PUSH1 0x2 DUP2 LT PUSH3 0x5C9A JUMPI INVALID JUMPDEST POP JUMP JUMPDEST PUSH1 0x7 DUP2 LT PUSH3 0x5CA8 JUMPI INVALID JUMPDEST POP JUMP JUMPDEST PUSH1 0x4 DUP2 LT PUSH3 0x5CB6 JUMPI INVALID JUMPDEST POP JUMP JUMPDEST PUSH1 0x4 DUP2 LT PUSH3 0x5CC4 JUMPI INVALID JUMPDEST POP JUMP JUMPDEST PUSH3 0x5CD2 DUP2 PUSH3 0x5A83 JUMP JUMPDEST DUP2 EQ PUSH3 0x5CDE JUMPI PUSH1 0x0 DUP1 REVERT JUMPDEST POP JUMP JUMPDEST PUSH3 0x5CEC DUP2 PUSH3 0x5A97 JUMP JUMPDEST DUP2 EQ PUSH3 0x5CF8 JUMPI PUSH1 0x0 DUP1 REVERT JUMPDEST POP JUMP JUMPDEST PUSH3 0x5D06 DUP2 PUSH3 0x5AAB JUMP JUMPDEST DUP2 EQ PUSH3 0x5D12 JUMPI PUSH1 0x0 DUP1 REVERT JUMPDEST POP JUMP JUMPDEST PUSH3 0x5D20 DUP2 PUSH3 0x5AB7 JUMP JUMPDEST DUP2 EQ PUSH3 0x5D2C JUMPI PUSH1 0x0 DUP1 REVERT JUMPDEST POP JUMP JUMPDEST PUSH3 0x5D3A DUP2 PUSH3 0x5ACB JUMP JUMPDEST DUP2 EQ PUSH3 0x5D46 JUMPI PUSH1 0x0 DUP1 REVERT JUMPDEST POP JUMP JUMPDEST PUSH1 0x2 DUP2 LT PUSH3 0x5D57 JUMPI PUSH1 0x0 DUP1 REVERT JUMPDEST POP JUMP JUMPDEST PUSH1 0x7 DUP2 LT PUSH3 0x5D68 JUMPI PUSH1 0x0 DUP1 REVERT JUMPDEST POP JUMP JUMPDEST PUSH1 0x4 DUP2 LT PUSH3 0x5D79 JUMPI PUSH1 0x0 DUP1 REVERT JUMPDEST POP JUMP JUMPDEST PUSH1 0x4 DUP2 LT PUSH3 0x5D8A JUMPI PUSH1 0x0 DUP1 REVERT JUMPDEST POP JUMP JUMPDEST PUSH1 0x4 DUP2 LT PUSH3 0x5D9B JUMPI PUSH1 0x0 DUP1 REVERT JUMPDEST POP JUMP JUMPDEST PUSH3 0x5DA9 DUP2 PUSH3 0x5B53 JUMP JUMPDEST DUP2 EQ PUSH3 0x5DB5 JUMPI PUSH1 0x0 DUP1 REVERT JUMPDEST POP JUMP INVALID PUSH1 0x80 PUSH1 0x40 MSTORE CALLVALUE DUP1 ISZERO PUSH2 0x10 JUMPI PUSH1 0x0 DUP1 REVERT JUMPDEST POP PUSH1 0x40 MLOAD PUSH2 0x8CA CODESIZE SUB DUP1 PUSH2 0x8CA DUP4 CODECOPY DUP2 DUP2 ADD PUSH1 0x40 MSTORE PUSH2 0x32 SWAP2 SWAP1 DUP2 ADD SWAP1 PUSH2 0x148 JUMP JUMPDEST DUP1 PUSH1 0x0 SWAP1 DUP1 MLOAD SWAP1 PUSH1 0x20 ADD SWAP1 PUSH2 0x48 SWAP3 SWAP2 SWAP1 PUSH2 0x4F JUMP JUMPDEST POP POP PUSH2 0x215 JUMP JUMPDEST DUP3 DUP1 SLOAD PUSH1 0x1 DUP2 PUSH1 0x1 AND ISZERO PUSH2 0x100 MUL SUB AND PUSH1 0x2 SWAP1 DIV SWAP1 PUSH1 0x0 MSTORE PUSH1 0x20 PUSH1 0x0 KECCAK256 SWAP1 PUSH1 0x1F ADD PUSH1 0x20 SWAP1 DIV DUP2 ADD SWAP3 DUP3 PUSH1 0x1F LT PUSH2 0x90 JUMPI DUP1 MLOAD PUSH1 0xFF NOT AND DUP4 DUP1 ADD OR DUP6 SSTORE PUSH2 0xBE JUMP JUMPDEST DUP3 DUP1 ADD PUSH1 0x1 ADD DUP6 SSTORE DUP3 ISZERO PUSH2 0xBE JUMPI SWAP2 DUP3 ADD JUMPDEST DUP3 DUP2 GT ISZERO PUSH2 0xBD JUMPI DUP3 MLOAD DUP3 SSTORE SWAP2 PUSH1 0x20 ADD SWAP2 SWAP1 PUSH1 0x1 ADD SWAP1 PUSH2 0xA2 JUMP JUMPDEST JUMPDEST POP SWAP1 POP PUSH2 0xCB SWAP2 SWAP1 PUSH2 0xCF JUMP JUMPDEST POP SWAP1 JUMP JUMPDEST PUSH2 0xF1 SWAP2 SWAP1 JUMPDEST DUP1 DUP3 GT ISZERO PUSH2 0xED JUMPI PUSH1 0x0 DUP2 PUSH1 0x0 SWAP1 SSTORE POP PUSH1 0x1 ADD PUSH2 0xD5 JUMP JUMPDEST POP SWAP1 JUMP JUMPDEST SWAP1 JUMP JUMPDEST PUSH1 0x0 DUP3 PUSH1 0x1F DUP4 ADD SLT PUSH2 0x105 JUMPI PUSH1 0x0 DUP1 REVERT JUMPDEST DUP2 MLOAD PUSH2 0x118 PUSH2 0x113 DUP3 PUSH2 0x1B6 JUMP JUMPDEST PUSH2 0x189 JUMP JUMPDEST SWAP2 POP DUP1 DUP3 MSTORE PUSH1 0x20 DUP4 ADD PUSH1 0x20 DUP4 ADD DUP6 DUP4 DUP4 ADD GT ISZERO PUSH2 0x134 JUMPI PUSH1 0x0 DUP1 REVERT JUMPDEST PUSH2 0x13F DUP4 DUP3 DUP5 PUSH2 0x1E2 JUMP JUMPDEST POP POP POP SWAP3 SWAP2 POP POP JUMP JUMPDEST PUSH1 0x0 PUSH1 0x20 DUP3 DUP5 SUB SLT ISZERO PUSH2 0x15A JUMPI PUSH1 0x0 DUP1 REVERT JUMPDEST PUSH1 0x0 DUP3 ADD MLOAD PUSH8 0xFFFFFFFFFFFFFFFF DUP2 GT ISZERO PUSH2 0x174 JUMPI PUSH1 0x0 DUP1 REVERT JUMPDEST PUSH2 0x180 DUP5 DUP3 DUP6 ADD PUSH2 0xF4 JUMP JUMPDEST SWAP2 POP POP SWAP3 SWAP2 POP POP JUMP JUMPDEST PUSH1 0x0 PUSH1 0x40 MLOAD SWAP1 POP DUP2 DUP2 ADD DUP2 DUP2 LT PUSH8 0xFFFFFFFFFFFFFFFF DUP3 GT OR ISZERO PUSH2 0x1AC JUMPI PUSH1 0x0 DUP1 REVERT JUMPDEST DUP1 PUSH1 0x40 MSTORE POP SWAP2 SWAP1 POP JUMP JUMPDEST PUSH1 0x0 PUSH8 0xFFFFFFFFFFFFFFFF DUP3 GT ISZERO PUSH2 0x1CD JUMPI PUSH1 0x0 DUP1 REVERT JUMPDEST PUSH1 0x1F NOT PUSH1 0x1F DUP4 ADD AND SWAP1 POP PUSH1 0x20 DUP2 ADD SWAP1 POP SWAP2 SWAP1 POP JUMP JUMPDEST PUSH1 0x0 JUMPDEST DUP4 DUP2 LT ISZERO PUSH2 0x200 JUMPI DUP1 DUP3 ADD MLOAD DUP2 DUP5 ADD MSTORE PUSH1 0x20 DUP2 ADD SWAP1 POP PUSH2 0x1E5 JUMP JUMPDEST DUP4 DUP2 GT ISZERO PUSH2 0x20F JUMPI PUSH1 0x0 DUP5 DUP5 ADD MSTORE JUMPDEST POP POP POP POP JUMP JUMPDEST PUSH2 0x6A6 DUP1 PUSH2 0x224 PUSH1 0x0 CODECOPY PUSH1 0x0 RETURN INVALID PUSH1 0x80 PUSH1 0x40 MSTORE PUSH1 0x4 CALLDATASIZE LT PUSH2 0x4A JUMPI PUSH1 0x0 CALLDATALOAD PUSH1 0xE0 SHR DUP1 PUSH4 0x38CC4831 EQ PUSH2 0x4C JUMPI DUP1 PUSH4 0x4F95A04B EQ PUSH2 0x77 JUMPI DUP1 PUSH4 0xBEABACC8 EQ PUSH2 0x93 JUMPI DUP1 PUSH4 0xE1F21C67 EQ PUSH2 0xBC JUMPI DUP1 PUSH4 0xFB1E6A62 EQ PUSH2 0xE5 JUMPI JUMPDEST STOP JUMPDEST CALLVALUE DUP1 ISZERO PUSH2 0x58 JUMPI PUSH1 0x0 DUP1 REVERT JUMPDEST POP PUSH2 0x61 PUSH2 0x110 JUMP JUMPDEST PUSH1 0x40 MLOAD PUSH2 0x6E SWAP2 SWAP1 PUSH2 0x4BE JUMP JUMPDEST PUSH1 0x40 MLOAD DUP1 SWAP2 SUB SWAP1 RETURN JUMPDEST PUSH2 0x91 PUSH1 0x4 DUP1 CALLDATASIZE SUB PUSH2 0x8C SWAP2 SWAP1 DUP2 ADD SWAP1 PUSH2 0x3A4 JUMP JUMPDEST PUSH2 0x118 JUMP JUMPDEST STOP JUMPDEST CALLVALUE DUP1 ISZERO PUSH2 0x9F JUMPI PUSH1 0x0 DUP1 REVERT JUMPDEST POP PUSH2 0xBA PUSH1 0x4 DUP1 CALLDATASIZE SUB PUSH2 0xB5 SWAP2 SWAP1 DUP2 ADD SWAP1 PUSH2 0x409 JUMP JUMPDEST PUSH2 0x163 JUMP JUMPDEST STOP JUMPDEST CALLVALUE DUP1 ISZERO PUSH2 0xC8 JUMPI PUSH1 0x0 DUP1 REVERT JUMPDEST POP PUSH2 0xE3 PUSH1 0x4 DUP1 CALLDATASIZE SUB PUSH2 0xDE SWAP2 SWAP1 DUP2 ADD SWAP1 PUSH2 0x409 JUMP JUMPDEST PUSH2 0x1FE JUMP JUMPDEST STOP JUMPDEST CALLVALUE DUP1 ISZERO PUSH2 0xF1 JUMPI PUSH1 0x0 DUP1 REVERT JUMPDEST POP PUSH2 0xFA PUSH2 0x299 JUMP JUMPDEST PUSH1 0x40 MLOAD PUSH2 0x107 SWAP2 SWAP1 PUSH2 0x502 JUMP JUMPDEST PUSH1 0x40 MLOAD DUP1 SWAP2 SUB SWAP1 RETURN JUMPDEST PUSH1 0x0 ADDRESS SWAP1 POP SWAP1 JUMP JUMPDEST DUP2 PUSH20 0xFFFFFFFFFFFFFFFFFFFFFFFFFFFFFFFFFFFFFFFF AND PUSH2 0x8FC DUP3 SWAP1 DUP2 ISZERO MUL SWAP1 PUSH1 0x40 MLOAD PUSH1 0x0 PUSH1 0x40 MLOAD DUP1 DUP4 SUB DUP2 DUP6 DUP9 DUP9 CALL SWAP4 POP POP POP POP ISZERO DUP1 ISZERO PUSH2 0x15E JUMPI RETURNDATASIZE PUSH1 0x0 DUP1 RETURNDATACOPY RETURNDATASIZE PUSH1 0x0 REVERT JUMPDEST POP POP POP JUMP JUMPDEST DUP3 PUSH20 0xFFFFFFFFFFFFFFFFFFFFFFFFFFFFFFFFFFFFFFFF AND PUSH4 0xA9059CBB DUP4 DUP4 PUSH1 0x40 MLOAD DUP4 PUSH4 0xFFFFFFFF AND PUSH1 0xE0 SHL DUP2 MSTORE PUSH1 0x4 ADD PUSH2 0x19E SWAP3 SWAP2 SWAP1 PUSH2 0x4D9 JUMP JUMPDEST PUSH1 0x20 PUSH1 0x40 MLOAD DUP1 DUP4 SUB DUP2 PUSH1 0x0 DUP8 DUP1 EXTCODESIZE ISZERO DUP1 ISZERO PUSH2 0x1B8 JUMPI PUSH1 0x0 DUP1 REVERT JUMPDEST POP GAS CALL ISZERO DUP1 ISZERO PUSH2 0x1CC JUMPI RETURNDATASIZE PUSH1 0x0 DUP1 RETURNDATACOPY RETURNDATASIZE PUSH1 0x0 REVERT JUMPDEST POP POP POP POP PUSH1 0x40 MLOAD RETURNDATASIZE PUSH1 0x1F NOT PUSH1 0x1F DUP3 ADD AND DUP3 ADD DUP1 PUSH1 0x40 MSTORE POP PUSH2 0x1F0 SWAP2 SWAP1 DUP2 ADD SWAP1 PUSH2 0x3E0 JUMP JUMPDEST PUSH2 0x1F9 JUMPI PUSH1 0x0 DUP1 REVERT JUMPDEST POP POP POP JUMP JUMPDEST DUP3 PUSH20 0xFFFFFFFFFFFFFFFFFFFFFFFFFFFFFFFFFFFFFFFF AND PUSH4 0x95EA7B3 DUP4 DUP4 PUSH1 0x40 MLOAD DUP4 PUSH4 0xFFFFFFFF AND PUSH1 0xE0 SHL DUP2 MSTORE PUSH1 0x4 ADD PUSH2 0x239 SWAP3 SWAP2 SWAP1 PUSH2 0x4D9 JUMP JUMPDEST PUSH1 0x20 PUSH1 0x40 MLOAD DUP1 DUP4 SUB DUP2 PUSH1 0x0 DUP8 DUP1 EXTCODESIZE ISZERO DUP1 ISZERO PUSH2 0x253 JUMPI PUSH1 0x0 DUP1 REVERT JUMPDEST POP GAS CALL ISZERO DUP1 ISZERO PUSH2 0x267 JUMPI RETURNDATASIZE PUSH1 0x0 DUP1 RETURNDATACOPY RETURNDATASIZE PUSH1 0x0 REVERT JUMPDEST POP POP POP POP PUSH1 0x40 MLOAD RETURNDATASIZE PUSH1 0x1F NOT PUSH1 0x1F DUP3 ADD AND DUP3 ADD DUP1 PUSH1 0x40 MSTORE POP PUSH2 0x28B SWAP2 SWAP1 DUP2 ADD SWAP1 PUSH2 0x3E0 JUMP JUMPDEST PUSH2 0x294 JUMPI PUSH1 0x0 DUP1 REVERT JUMPDEST POP POP POP JUMP JUMPDEST PUSH1 0x60 PUSH1 0x0 DUP1 SLOAD PUSH1 0x1 DUP2 PUSH1 0x1 AND ISZERO PUSH2 0x100 MUL SUB AND PUSH1 0x2 SWAP1 DIV DUP1 PUSH1 0x1F ADD PUSH1 0x20 DUP1 SWAP2 DIV MUL PUSH1 0x20 ADD PUSH1 0x40 MLOAD SWAP1 DUP2 ADD PUSH1 0x40 MSTORE DUP1 SWAP3 SWAP2 SWAP1 DUP2 DUP2 MSTORE PUSH1 0x20 ADD DUP3 DUP1 SLOAD PUSH1 0x1 DUP2 PUSH1 0x1 AND ISZERO PUSH2 0x100 MUL SUB AND PUSH1 0x2 SWAP1 DIV DUP1 ISZERO PUSH2 0x331 JUMPI DUP1 PUSH1 0x1F LT PUSH2 0x306 JUMPI PUSH2 0x100 DUP1 DUP4 SLOAD DIV MUL DUP4 MSTORE SWAP2 PUSH1 0x20 ADD SWAP2 PUSH2 0x331 JUMP JUMPDEST DUP3 ADD SWAP2 SWAP1 PUSH1 0x0 MSTORE PUSH1 0x20 PUSH1 0x0 KECCAK256 SWAP1 JUMPDEST DUP2 SLOAD DUP2 MSTORE SWAP1 PUSH1 0x1 ADD SWAP1 PUSH1 0x20 ADD DUP1 DUP4 GT PUSH2 0x314 JUMPI DUP3 SWAP1 SUB PUSH1 0x1F AND DUP3 ADD SWAP2 JUMPDEST POP POP POP POP POP SWAP1 POP SWAP1 JUMP JUMPDEST PUSH1 0x0 DUP2 CALLDATALOAD SWAP1 POP PUSH2 0x34A DUP2 PUSH2 0x5F0 JUMP JUMPDEST SWAP3 SWAP2 POP POP JUMP JUMPDEST PUSH1 0x0 DUP2 CALLDATALOAD SWAP1 POP PUSH2 0x35F DUP2 PUSH2 0x607 JUMP JUMPDEST SWAP3 SWAP2 POP POP JUMP JUMPDEST PUSH1 0x0 DUP2 MLOAD SWAP1 POP PUSH2 0x374 DUP2 PUSH2 0x61E JUMP JUMPDEST SWAP3 SWAP2 POP POP JUMP JUMPDEST PUSH1 0x0 DUP2 CALLDATALOAD SWAP1 POP PUSH2 0x389 DUP2 PUSH2 0x635 JUMP JUMPDEST SWAP3 SWAP2 POP POP JUMP JUMPDEST PUSH1 0x0 DUP2 CALLDATALOAD SWAP1 POP PUSH2 0x39E DUP2 PUSH2 0x64C JUMP JUMPDEST SWAP3 SWAP2 POP POP JUMP JUMPDEST PUSH1 0x0 DUP1 PUSH1 0x40 DUP4 DUP6 SUB SLT ISZERO PUSH2 0x3B7 JUMPI PUSH1 0x0 DUP1 REVERT JUMPDEST PUSH1 0x0 PUSH2 0x3C5 DUP6 DUP3 DUP7 ADD PUSH2 0x350 JUMP JUMPDEST SWAP3 POP POP PUSH1 0x20 PUSH2 0x3D6 DUP6 DUP3 DUP7 ADD PUSH2 0x38F JUMP JUMPDEST SWAP2 POP POP SWAP3 POP SWAP3 SWAP1 POP JUMP JUMPDEST PUSH1 0x0 PUSH1 0x20 DUP3 DUP5 SUB SLT ISZERO PUSH2 0x3F2 JUMPI PUSH1 0x0 DUP1 REVERT JUMPDEST PUSH1 0x0 PUSH2 0x400 DUP5 DUP3 DUP6 ADD PUSH2 0x365 JUMP JUMPDEST SWAP2 POP POP SWAP3 SWAP2 POP POP JUMP JUMPDEST PUSH1 0x0 DUP1 PUSH1 0x0 PUSH1 0x60 DUP5 DUP7 SUB SLT ISZERO PUSH2 0x41E JUMPI PUSH1 0x0 DUP1 REVERT JUMPDEST PUSH1 0x0 PUSH2 0x42C DUP7 DUP3 DUP8 ADD PUSH2 0x37A JUMP JUMPDEST SWAP4 POP POP PUSH1 0x20 PUSH2 0x43D DUP7 DUP3 DUP8 ADD PUSH2 0x33B JUMP JUMPDEST SWAP3 POP POP PUSH1 0x40 PUSH2 0x44E DUP7 DUP3 DUP8 ADD PUSH2 0x38F JUMP JUMPDEST SWAP2 POP POP SWAP3 POP SWAP3 POP SWAP3 JUMP JUMPDEST PUSH2 0x461 DUP2 PUSH2 0x552 JUMP JUMPDEST DUP3 MSTORE POP POP JUMP JUMPDEST PUSH2 0x470 DUP2 PUSH2 0x540 JUMP JUMPDEST DUP3 MSTORE POP POP JUMP JUMPDEST PUSH1 0x0 PUSH2 0x481 DUP3 PUSH2 0x524 JUMP JUMPDEST PUSH2 0x48B DUP2 DUP6 PUSH2 0x52F JUMP JUMPDEST SWAP4 POP PUSH2 0x49B DUP2 DUP6 PUSH1 0x20 DUP7 ADD PUSH2 0x5AC JUMP JUMPDEST PUSH2 0x4A4 DUP2 PUSH2 0x5DF JUMP JUMPDEST DUP5 ADD SWAP2 POP POP SWAP3 SWAP2 POP POP JUMP JUMPDEST PUSH2 0x4B8 DUP2 PUSH2 0x5A2 JUMP JUMPDEST DUP3 MSTORE POP POP JUMP JUMPDEST PUSH1 0x0 PUSH1 0x20 DUP3 ADD SWAP1 POP PUSH2 0x4D3 PUSH1 0x0 DUP4 ADD DUP5 PUSH2 0x458 JUMP JUMPDEST SWAP3 SWAP2 POP POP JUMP JUMPDEST PUSH1 0x0 PUSH1 0x40 DUP3 ADD SWAP1 POP PUSH2 0x4EE PUSH1 0x0 DUP4 ADD DUP6 PUSH2 0x467 JUMP JUMPDEST PUSH2 0x4FB PUSH1 0x20 DUP4 ADD DUP5 PUSH2 0x4AF JUMP JUMPDEST SWAP4 SWAP3 POP POP POP JUMP JUMPDEST PUSH1 0x0 PUSH1 0x20 DUP3 ADD SWAP1 POP DUP2 DUP2 SUB PUSH1 0x0 DUP4 ADD MSTORE PUSH2 0x51C DUP2 DUP5 PUSH2 0x476 JUMP JUMPDEST SWAP1 POP SWAP3 SWAP2 POP POP JUMP JUMPDEST PUSH1 0x0 DUP2 MLOAD SWAP1 POP SWAP2 SWAP1 POP JUMP JUMPDEST PUSH1 0x0 DUP3 DUP3 MSTORE PUSH1 0x20 DUP3 ADD SWAP1 POP SWAP3 SWAP2 POP POP JUMP JUMPDEST PUSH1 0x0 PUSH2 0x54B DUP3 PUSH2 0x582 JUMP JUMPDEST SWAP1 POP SWAP2 SWAP1 POP JUMP JUMPDEST PUSH1 0x0 PUSH2 0x55D DUP3 PUSH2 0x582 JUMP JUMPDEST SWAP1 POP SWAP2 SWAP1 POP JUMP JUMPDEST PUSH1 0x0 DUP2 ISZERO ISZERO SWAP1 POP SWAP2 SWAP1 POP JUMP JUMPDEST PUSH1 0x0 PUSH2 0x57B DUP3 PUSH2 0x540 JUMP JUMPDEST SWAP1 POP SWAP2 SWAP1 POP JUMP JUMPDEST PUSH1 0x0 PUSH20 0xFFFFFFFFFFFFFFFFFFFFFFFFFFFFFFFFFFFFFFFF DUP3 AND SWAP1 POP SWAP2 SWAP1 POP JUMP JUMPDEST PUSH1 0x0 DUP2 SWAP1 POP SWAP2 SWAP1 POP JUMP JUMPDEST PUSH1 0x0 JUMPDEST DUP4 DUP2 LT ISZERO PUSH2 0x5CA JUMPI DUP1 DUP3 ADD MLOAD DUP2 DUP5 ADD MSTORE PUSH1 0x20 DUP2 ADD SWAP1 POP PUSH2 0x5AF JUMP JUMPDEST DUP4 DUP2 GT ISZERO PUSH2 0x5D9 JUMPI PUSH1 0x0 DUP5 DUP5 ADD MSTORE JUMPDEST POP POP POP POP JUMP JUMPDEST PUSH1 0x0 PUSH1 0x1F NOT PUSH1 0x1F DUP4 ADD AND SWAP1 POP SWAP2 SWAP1 POP JUMP JUMPDEST PUSH2 0x5F9 DUP2 PUSH2 0x540 JUMP JUMPDEST DUP2 EQ PUSH2 0x604 JUMPI PUSH1 0x0 DUP1 REVERT JUMPDEST POP JUMP JUMPDEST PUSH2 0x610 DUP2 PUSH2 0x552 JUMP JUMPDEST DUP2 EQ PUSH2 0x61B JUMPI PUSH1 0x0 DUP1 REVERT JUMPDEST POP JUMP JUMPDEST PUSH2 0x627 DUP2 PUSH2 0x564 JUMP JUMPDEST DUP2 EQ PUSH2 0x632 JUMPI PUSH1 0x0 DUP1 REVERT JUMPDEST POP JUMP JUMPDEST PUSH2 0x63E DUP2 PUSH2 0x570 JUMP JUMPDEST DUP2 EQ PUSH2 0x649 JUMPI PUSH1 0x0 DUP1 REVERT JUMPDEST POP JUMP JUMPDEST PUSH2 0x655 DUP2 PUSH2 0x5A2 JUMP JUMPDEST DUP2 EQ PUSH2 0x660 JUMPI PUSH1 0x0 DUP1 REVERT JUMPDEST POP JUMP INVALID LOG3 PUSH6 0x627A7A723158 KECCAK256 LOG4 0xCE 0xD9 RETURN 0xB5 INVALID PUSH29 0x39634E3F948672597C94B23E87AB7FB01C5F9310CBAA7085C76C657870 PUSH6 0x72696D656E74 PUSH2 0x6CF5 PUSH5 0x736F6C6343 STOP SDIV LT STOP BLOCKHASH LOG3 PUSH6 0x627A7A723158 KECCAK256 LOG2 0xC3 SDIV 0xF7 0xC3 0x29 SWAP11 0xB6 0xC6 PUSH29 0x323596EA93B8296D3709BA30A33C6C780DF303521136C657870657269 PUSH14 0x656E74616CF564736F6C63430005 LT STOP BLOCKHASH "
		},
		"gasEstimates": {
			"creation": {
				"codeDepositCost": "5261800",
				"executionCost": "infinite",
				"totalCost": "infinite"
			},
			"external": {
				"accept((string,string,string,uint8,uint8,string,string,(address,uint8,uint256,string,uint256,uint256,address,address),(uint8),(uint256,string,uint256,uint256),uint256,address),(uint256,uint256,string)[])": "infinite",
				"decide(string,string,uint8)": "infinite",
				"discoProposalCount(string)": "infinite",
				"doVote((string,string,address,uint256,uint256,uint256))": "infinite",
				"fullSet((string,string,string,uint8,uint8,string,string,(address,uint8,uint256,string,uint256,uint256,address,address),(uint8),(uint256,string,uint256,uint256),uint256,address),(uint256,uint256,string)[])": "infinite",
				"proposalDetail(string,string)": "infinite",
				"proposalStatus(string,string)": "infinite",
				"releaseProposal(string,string)": "infinite",
				"setDiscoBase(address)": "21382",
				"setIROBase(address)": "21448"
			},
			"internal": {
				"getPoolId(string memory,string memory)": "infinite",
				"getPoolId(struct Proposal.ProposalDetail memory)": "infinite",
				"internalDiscoProposalDetail(string memory)": "infinite",
				"internalProposal(string memory,string memory)": "infinite"
			}
		},
		"methodIdentifiers": {
			"accept((string,string,string,uint8,uint8,string,string,(address,uint8,uint256,string,uint256,uint256,address,address),(uint8),(uint256,string,uint256,uint256),uint256,address),(uint256,uint256,string)[])": "268d792c",
			"decide(string,string,uint8)": "d46d6d8a",
			"discoProposalCount(string)": "8f65e697",
			"doVote((string,string,address,uint256,uint256,uint256))": "59f7f240",
			"fullSet((string,string,string,uint8,uint8,string,string,(address,uint8,uint256,string,uint256,uint256,address,address),(uint8),(uint256,string,uint256,uint256),uint256,address),(uint256,uint256,string)[])": "2b4a249f",
			"proposalDetail(string,string)": "3122fef1",
			"proposalStatus(string,string)": "474b58c2",
			"releaseProposal(string,string)": "0f5e1849",
			"setDiscoBase(address)": "72d92f28",
			"setIROBase(address)": "ffb135a8"
		}
	},
	"abi": [
		{
			"inputs": [
				{
					"internalType": "address",
					"name": "_iroAddress",
					"type": "address"
				},
				{
					"internalType": "address",
					"name": "_discoAddress",
					"type": "address"
				}
			],
			"payable": false,
			"stateMutability": "nonpayable",
			"type": "constructor"
		},
		{
			"anonymous": false,
			"inputs": [
				{
					"indexed": true,
					"internalType": "string",
					"name": "id",
					"type": "string"
				},
				{
					"components": [
						{
							"internalType": "string",
							"name": "discoId",
							"type": "string"
						},
						{
							"internalType": "string",
							"name": "serialId",
							"type": "string"
						},
						{
							"internalType": "string",
							"name": "title",
							"type": "string"
						},
						{
							"internalType": "enum Proposal.ProposalStatus",
							"name": "status",
							"type": "uint8"
						},
						{
							"internalType": "enum Proposal.ProposalMode",
							"name": "mode",
							"type": "uint8"
						},
						{
							"internalType": "string",
							"name": "contact",
							"type": "string"
						},
						{
							"internalType": "string",
							"name": "description",
							"type": "string"
						},
						{
							"components": [
								{
									"internalType": "address",
									"name": "payer",
									"type": "address"
								},
								{
									"internalType": "enum Proposal.PaymentMode",
									"name": "mode",
									"type": "uint8"
								},
								{
									"internalType": "uint256",
									"name": "totalMonths",
									"type": "uint256"
								},
								{
									"internalType": "string",
									"name": "date",
									"type": "string"
								},
								{
									"internalType": "uint256",
									"name": "paymentAmount",
									"type": "uint256"
								},
								{
									"internalType": "uint256",
									"name": "totalAmount",
									"type": "uint256"
								},
								{
									"internalType": "contract IERC20",
									"name": "token",
									"type": "address"
								},
								{
									"internalType": "contract FundPool",
									"name": "pool",
									"type": "address"
								}
							],
							"internalType": "struct Proposal.Payment",
							"name": "payment",
							"type": "tuple"
						},
						{
							"components": [
								{
									"internalType": "enum IRO.ProposerDriver",
									"name": "driver",
									"type": "uint8"
								}
							],
							"internalType": "struct Proposal.ProposerSetup",
							"name": "proposerSetup",
							"type": "tuple"
						},
						{
							"components": [
								{
									"internalType": "uint256",
									"name": "voteMinSupporters",
									"type": "uint256"
								},
								{
									"internalType": "string",
									"name": "voteMinApprovalPercent",
									"type": "string"
								},
								{
									"internalType": "uint256",
									"name": "voteDurationHours",
									"type": "uint256"
								},
								{
									"internalType": "uint256",
									"name": "voteEndTime",
									"type": "uint256"
								}
							],
							"internalType": "struct Proposal.VoterSetup",
							"name": "voteSetup",
							"type": "tuple"
						},
						{
							"internalType": "uint256",
							"name": "blockTime",
							"type": "uint256"
						},
						{
							"internalType": "address",
							"name": "proposer",
							"type": "address"
						}
					],
					"indexed": false,
					"internalType": "struct Proposal.ProposalDetail",
					"name": "proposal",
					"type": "tuple"
				},
				{
					"components": [
						{
							"internalType": "uint256",
							"name": "index",
							"type": "uint256"
						},
						{
							"internalType": "uint256",
							"name": "token",
							"type": "uint256"
						},
						{
							"internalType": "string",
							"name": "terms",
							"type": "string"
						}
					],
					"indexed": false,
					"internalType": "struct Proposal.PaymentDetail[]",
					"name": "paymentDetails",
					"type": "tuple[]"
				}
			],
			"name": "accepted",
			"type": "event"
		},
		{
			"anonymous": false,
			"inputs": [
				{
					"indexed": true,
					"internalType": "string",
					"name": "id",
					"type": "string"
				},
				{
					"indexed": false,
					"internalType": "enum Proposal.ProposalStatus",
					"name": "original",
					"type": "uint8"
				},
				{
					"indexed": false,
					"internalType": "enum Proposal.ProposalStatus",
					"name": "target",
					"type": "uint8"
				}
			],
			"name": "statusChanged",
			"type": "event"
		},
		{
			"anonymous": false,
			"inputs": [
				{
					"indexed": true,
					"internalType": "string",
					"name": "id",
					"type": "string"
				},
				{
					"components": [
						{
							"internalType": "string",
							"name": "discoId",
							"type": "string"
						},
						{
							"internalType": "string",
							"name": "serialId",
							"type": "string"
						},
						{
							"internalType": "address",
							"name": "voter",
							"type": "address"
						},
						{
							"internalType": "uint256",
							"name": "pos",
							"type": "uint256"
						},
						{
							"internalType": "uint256",
							"name": "neg",
							"type": "uint256"
						},
						{
							"internalType": "uint256",
							"name": "voteBt",
							"type": "uint256"
						}
					],
					"indexed": false,
					"internalType": "struct Proposal.Vote",
					"name": "v",
					"type": "tuple"
				}
			],
			"name": "voted",
			"type": "event"
		},
		{
			"constant": false,
			"inputs": [
				{
					"components": [
						{
							"internalType": "string",
							"name": "discoId",
							"type": "string"
						},
						{
							"internalType": "string",
							"name": "serialId",
							"type": "string"
						},
						{
							"internalType": "string",
							"name": "title",
							"type": "string"
						},
						{
							"internalType": "enum Proposal.ProposalStatus",
							"name": "status",
							"type": "uint8"
						},
						{
							"internalType": "enum Proposal.ProposalMode",
							"name": "mode",
							"type": "uint8"
						},
						{
							"internalType": "string",
							"name": "contact",
							"type": "string"
						},
						{
							"internalType": "string",
							"name": "description",
							"type": "string"
						},
						{
							"components": [
								{
									"internalType": "address",
									"name": "payer",
									"type": "address"
								},
								{
									"internalType": "enum Proposal.PaymentMode",
									"name": "mode",
									"type": "uint8"
								},
								{
									"internalType": "uint256",
									"name": "totalMonths",
									"type": "uint256"
								},
								{
									"internalType": "string",
									"name": "date",
									"type": "string"
								},
								{
									"internalType": "uint256",
									"name": "paymentAmount",
									"type": "uint256"
								},
								{
									"internalType": "uint256",
									"name": "totalAmount",
									"type": "uint256"
								},
								{
									"internalType": "contract IERC20",
									"name": "token",
									"type": "address"
								},
								{
									"internalType": "contract FundPool",
									"name": "pool",
									"type": "address"
								}
							],
							"internalType": "struct Proposal.Payment",
							"name": "payment",
							"type": "tuple"
						},
						{
							"components": [
								{
									"internalType": "enum IRO.ProposerDriver",
									"name": "driver",
									"type": "uint8"
								}
							],
							"internalType": "struct Proposal.ProposerSetup",
							"name": "proposerSetup",
							"type": "tuple"
						},
						{
							"components": [
								{
									"internalType": "uint256",
									"name": "voteMinSupporters",
									"type": "uint256"
								},
								{
									"internalType": "string",
									"name": "voteMinApprovalPercent",
									"type": "string"
								},
								{
									"internalType": "uint256",
									"name": "voteDurationHours",
									"type": "uint256"
								},
								{
									"internalType": "uint256",
									"name": "voteEndTime",
									"type": "uint256"
								}
							],
							"internalType": "struct Proposal.VoterSetup",
							"name": "voteSetup",
							"type": "tuple"
						},
						{
							"internalType": "uint256",
							"name": "blockTime",
							"type": "uint256"
						},
						{
							"internalType": "address",
							"name": "proposer",
							"type": "address"
						}
					],
					"internalType": "struct Proposal.ProposalDetail",
					"name": "proposal",
					"type": "tuple"
				},
				{
					"components": [
						{
							"internalType": "uint256",
							"name": "index",
							"type": "uint256"
						},
						{
							"internalType": "uint256",
							"name": "token",
							"type": "uint256"
						},
						{
							"internalType": "string",
							"name": "terms",
							"type": "string"
						}
					],
					"internalType": "struct Proposal.PaymentDetail[]",
					"name": "paymentDetails",
					"type": "tuple[]"
				}
			],
			"name": "accept",
			"outputs": [
				{
					"components": [
						{
							"internalType": "string",
							"name": "discoId",
							"type": "string"
						},
						{
							"internalType": "string",
							"name": "serialId",
							"type": "string"
						},
						{
							"internalType": "string",
							"name": "title",
							"type": "string"
						},
						{
							"internalType": "enum Proposal.ProposalStatus",
							"name": "status",
							"type": "uint8"
						},
						{
							"internalType": "enum Proposal.ProposalMode",
							"name": "mode",
							"type": "uint8"
						},
						{
							"internalType": "string",
							"name": "contact",
							"type": "string"
						},
						{
							"internalType": "string",
							"name": "description",
							"type": "string"
						},
						{
							"components": [
								{
									"internalType": "address",
									"name": "payer",
									"type": "address"
								},
								{
									"internalType": "enum Proposal.PaymentMode",
									"name": "mode",
									"type": "uint8"
								},
								{
									"internalType": "uint256",
									"name": "totalMonths",
									"type": "uint256"
								},
								{
									"internalType": "string",
									"name": "date",
									"type": "string"
								},
								{
									"internalType": "uint256",
									"name": "paymentAmount",
									"type": "uint256"
								},
								{
									"internalType": "uint256",
									"name": "totalAmount",
									"type": "uint256"
								},
								{
									"internalType": "contract IERC20",
									"name": "token",
									"type": "address"
								},
								{
									"internalType": "contract FundPool",
									"name": "pool",
									"type": "address"
								}
							],
							"internalType": "struct Proposal.Payment",
							"name": "payment",
							"type": "tuple"
						},
						{
							"components": [
								{
									"internalType": "enum IRO.ProposerDriver",
									"name": "driver",
									"type": "uint8"
								}
							],
							"internalType": "struct Proposal.ProposerSetup",
							"name": "proposerSetup",
							"type": "tuple"
						},
						{
							"components": [
								{
									"internalType": "uint256",
									"name": "voteMinSupporters",
									"type": "uint256"
								},
								{
									"internalType": "string",
									"name": "voteMinApprovalPercent",
									"type": "string"
								},
								{
									"internalType": "uint256",
									"name": "voteDurationHours",
									"type": "uint256"
								},
								{
									"internalType": "uint256",
									"name": "voteEndTime",
									"type": "uint256"
								}
							],
							"internalType": "struct Proposal.VoterSetup",
							"name": "voteSetup",
							"type": "tuple"
						},
						{
							"internalType": "uint256",
							"name": "blockTime",
							"type": "uint256"
						},
						{
							"internalType": "address",
							"name": "proposer",
							"type": "address"
						}
					],
					"internalType": "struct Proposal.ProposalDetail",
					"name": "",
					"type": "tuple"
				}
			],
			"payable": true,
			"stateMutability": "payable",
			"type": "function"
		},
		{
			"constant": false,
			"inputs": [
				{
					"internalType": "string",
					"name": "id",
					"type": "string"
				},
				{
					"internalType": "string",
					"name": "serialId",
					"type": "string"
				},
				{
					"internalType": "enum Proposal.ProposalStatus",
					"name": "target",
					"type": "uint8"
				}
			],
			"name": "decide",
			"outputs": [],
			"payable": false,
			"stateMutability": "nonpayable",
			"type": "function"
		},
		{
			"constant": true,
			"inputs": [
				{
					"internalType": "string",
					"name": "id",
					"type": "string"
				}
			],
			"name": "discoProposalCount",
			"outputs": [
				{
					"internalType": "uint256",
					"name": "",
					"type": "uint256"
				}
			],
			"payable": false,
			"stateMutability": "view",
			"type": "function"
		},
		{
			"constant": false,
			"inputs": [
				{
					"components": [
						{
							"internalType": "string",
							"name": "discoId",
							"type": "string"
						},
						{
							"internalType": "string",
							"name": "serialId",
							"type": "string"
						},
						{
							"internalType": "address",
							"name": "voter",
							"type": "address"
						},
						{
							"internalType": "uint256",
							"name": "pos",
							"type": "uint256"
						},
						{
							"internalType": "uint256",
							"name": "neg",
							"type": "uint256"
						},
						{
							"internalType": "uint256",
							"name": "voteBt",
							"type": "uint256"
						}
					],
					"internalType": "struct Proposal.Vote",
					"name": "v",
					"type": "tuple"
				}
			],
			"name": "doVote",
			"outputs": [],
			"payable": true,
			"stateMutability": "payable",
			"type": "function"
		},
		{
			"constant": false,
			"inputs": [
				{
					"components": [
						{
							"internalType": "string",
							"name": "discoId",
							"type": "string"
						},
						{
							"internalType": "string",
							"name": "serialId",
							"type": "string"
						},
						{
							"internalType": "string",
							"name": "title",
							"type": "string"
						},
						{
							"internalType": "enum Proposal.ProposalStatus",
							"name": "status",
							"type": "uint8"
						},
						{
							"internalType": "enum Proposal.ProposalMode",
							"name": "mode",
							"type": "uint8"
						},
						{
							"internalType": "string",
							"name": "contact",
							"type": "string"
						},
						{
							"internalType": "string",
							"name": "description",
							"type": "string"
						},
						{
							"components": [
								{
									"internalType": "address",
									"name": "payer",
									"type": "address"
								},
								{
									"internalType": "enum Proposal.PaymentMode",
									"name": "mode",
									"type": "uint8"
								},
								{
									"internalType": "uint256",
									"name": "totalMonths",
									"type": "uint256"
								},
								{
									"internalType": "string",
									"name": "date",
									"type": "string"
								},
								{
									"internalType": "uint256",
									"name": "paymentAmount",
									"type": "uint256"
								},
								{
									"internalType": "uint256",
									"name": "totalAmount",
									"type": "uint256"
								},
								{
									"internalType": "contract IERC20",
									"name": "token",
									"type": "address"
								},
								{
									"internalType": "contract FundPool",
									"name": "pool",
									"type": "address"
								}
							],
							"internalType": "struct Proposal.Payment",
							"name": "payment",
							"type": "tuple"
						},
						{
							"components": [
								{
									"internalType": "enum IRO.ProposerDriver",
									"name": "driver",
									"type": "uint8"
								}
							],
							"internalType": "struct Proposal.ProposerSetup",
							"name": "proposerSetup",
							"type": "tuple"
						},
						{
							"components": [
								{
									"internalType": "uint256",
									"name": "voteMinSupporters",
									"type": "uint256"
								},
								{
									"internalType": "string",
									"name": "voteMinApprovalPercent",
									"type": "string"
								},
								{
									"internalType": "uint256",
									"name": "voteDurationHours",
									"type": "uint256"
								},
								{
									"internalType": "uint256",
									"name": "voteEndTime",
									"type": "uint256"
								}
							],
							"internalType": "struct Proposal.VoterSetup",
							"name": "voteSetup",
							"type": "tuple"
						},
						{
							"internalType": "uint256",
							"name": "blockTime",
							"type": "uint256"
						},
						{
							"internalType": "address",
							"name": "proposer",
							"type": "address"
						}
					],
					"internalType": "struct Proposal.ProposalDetail",
					"name": "proposal",
					"type": "tuple"
				},
				{
					"components": [
						{
							"internalType": "uint256",
							"name": "index",
							"type": "uint256"
						},
						{
							"internalType": "uint256",
							"name": "token",
							"type": "uint256"
						},
						{
							"internalType": "string",
							"name": "terms",
							"type": "string"
						}
					],
					"internalType": "struct Proposal.PaymentDetail[]",
					"name": "paymentDetails",
					"type": "tuple[]"
				}
			],
			"name": "fullSet",
			"outputs": [
				{
					"components": [
						{
							"internalType": "string",
							"name": "discoId",
							"type": "string"
						},
						{
							"internalType": "string",
							"name": "serialId",
							"type": "string"
						},
						{
							"internalType": "string",
							"name": "title",
							"type": "string"
						},
						{
							"internalType": "enum Proposal.ProposalStatus",
							"name": "status",
							"type": "uint8"
						},
						{
							"internalType": "enum Proposal.ProposalMode",
							"name": "mode",
							"type": "uint8"
						},
						{
							"internalType": "string",
							"name": "contact",
							"type": "string"
						},
						{
							"internalType": "string",
							"name": "description",
							"type": "string"
						},
						{
							"components": [
								{
									"internalType": "address",
									"name": "payer",
									"type": "address"
								},
								{
									"internalType": "enum Proposal.PaymentMode",
									"name": "mode",
									"type": "uint8"
								},
								{
									"internalType": "uint256",
									"name": "totalMonths",
									"type": "uint256"
								},
								{
									"internalType": "string",
									"name": "date",
									"type": "string"
								},
								{
									"internalType": "uint256",
									"name": "paymentAmount",
									"type": "uint256"
								},
								{
									"internalType": "uint256",
									"name": "totalAmount",
									"type": "uint256"
								},
								{
									"internalType": "contract IERC20",
									"name": "token",
									"type": "address"
								},
								{
									"internalType": "contract FundPool",
									"name": "pool",
									"type": "address"
								}
							],
							"internalType": "struct Proposal.Payment",
							"name": "payment",
							"type": "tuple"
						},
						{
							"components": [
								{
									"internalType": "enum IRO.ProposerDriver",
									"name": "driver",
									"type": "uint8"
								}
							],
							"internalType": "struct Proposal.ProposerSetup",
							"name": "proposerSetup",
							"type": "tuple"
						},
						{
							"components": [
								{
									"internalType": "uint256",
									"name": "voteMinSupporters",
									"type": "uint256"
								},
								{
									"internalType": "string",
									"name": "voteMinApprovalPercent",
									"type": "string"
								},
								{
									"internalType": "uint256",
									"name": "voteDurationHours",
									"type": "uint256"
								},
								{
									"internalType": "uint256",
									"name": "voteEndTime",
									"type": "uint256"
								}
							],
							"internalType": "struct Proposal.VoterSetup",
							"name": "voteSetup",
							"type": "tuple"
						},
						{
							"internalType": "uint256",
							"name": "blockTime",
							"type": "uint256"
						},
						{
							"internalType": "address",
							"name": "proposer",
							"type": "address"
						}
					],
					"internalType": "struct Proposal.ProposalDetail",
					"name": "",
					"type": "tuple"
				}
			],
			"payable": false,
			"stateMutability": "nonpayable",
			"type": "function"
		},
		{
			"constant": true,
			"inputs": [
				{
					"internalType": "string",
					"name": "id",
					"type": "string"
				},
				{
					"internalType": "string",
					"name": "serialId",
					"type": "string"
				}
			],
			"name": "proposalDetail",
			"outputs": [
				{
					"components": [
						{
							"internalType": "string",
							"name": "discoId",
							"type": "string"
						},
						{
							"internalType": "string",
							"name": "serialId",
							"type": "string"
						},
						{
							"internalType": "string",
							"name": "title",
							"type": "string"
						},
						{
							"internalType": "enum Proposal.ProposalStatus",
							"name": "status",
							"type": "uint8"
						},
						{
							"internalType": "enum Proposal.ProposalMode",
							"name": "mode",
							"type": "uint8"
						},
						{
							"internalType": "string",
							"name": "contact",
							"type": "string"
						},
						{
							"internalType": "string",
							"name": "description",
							"type": "string"
						},
						{
							"components": [
								{
									"internalType": "address",
									"name": "payer",
									"type": "address"
								},
								{
									"internalType": "enum Proposal.PaymentMode",
									"name": "mode",
									"type": "uint8"
								},
								{
									"internalType": "uint256",
									"name": "totalMonths",
									"type": "uint256"
								},
								{
									"internalType": "string",
									"name": "date",
									"type": "string"
								},
								{
									"internalType": "uint256",
									"name": "paymentAmount",
									"type": "uint256"
								},
								{
									"internalType": "uint256",
									"name": "totalAmount",
									"type": "uint256"
								},
								{
									"internalType": "contract IERC20",
									"name": "token",
									"type": "address"
								},
								{
									"internalType": "contract FundPool",
									"name": "pool",
									"type": "address"
								}
							],
							"internalType": "struct Proposal.Payment",
							"name": "payment",
							"type": "tuple"
						},
						{
							"components": [
								{
									"internalType": "enum IRO.ProposerDriver",
									"name": "driver",
									"type": "uint8"
								}
							],
							"internalType": "struct Proposal.ProposerSetup",
							"name": "proposerSetup",
							"type": "tuple"
						},
						{
							"components": [
								{
									"internalType": "uint256",
									"name": "voteMinSupporters",
									"type": "uint256"
								},
								{
									"internalType": "string",
									"name": "voteMinApprovalPercent",
									"type": "string"
								},
								{
									"internalType": "uint256",
									"name": "voteDurationHours",
									"type": "uint256"
								},
								{
									"internalType": "uint256",
									"name": "voteEndTime",
									"type": "uint256"
								}
							],
							"internalType": "struct Proposal.VoterSetup",
							"name": "voteSetup",
							"type": "tuple"
						},
						{
							"internalType": "uint256",
							"name": "blockTime",
							"type": "uint256"
						},
						{
							"internalType": "address",
							"name": "proposer",
							"type": "address"
						}
					],
					"internalType": "struct Proposal.ProposalDetail",
					"name": "",
					"type": "tuple"
				},
				{
					"components": [
						{
							"internalType": "uint256",
							"name": "index",
							"type": "uint256"
						},
						{
							"internalType": "uint256",
							"name": "token",
							"type": "uint256"
						},
						{
							"internalType": "string",
							"name": "terms",
							"type": "string"
						}
					],
					"internalType": "struct Proposal.PaymentDetail[]",
					"name": "paymentDetails",
					"type": "tuple[]"
				}
			],
			"payable": false,
			"stateMutability": "view",
			"type": "function"
		},
		{
			"constant": true,
			"inputs": [
				{
					"internalType": "string",
					"name": "id",
					"type": "string"
				},
				{
					"internalType": "string",
					"name": "serialId",
					"type": "string"
				}
			],
			"name": "proposalStatus",
			"outputs": [
				{
					"internalType": "enum Proposal.ProposalStatus",
					"name": "",
					"type": "uint8"
				}
			],
			"payable": false,
			"stateMutability": "view",
			"type": "function"
		},
		{
			"constant": false,
			"inputs": [
				{
					"internalType": "string",
					"name": "discoId",
					"type": "string"
				},
				{
					"internalType": "string",
					"name": "serialId",
					"type": "string"
				}
			],
			"name": "releaseProposal",
			"outputs": [],
			"payable": false,
			"stateMutability": "nonpayable",
			"type": "function"
		},
		{
			"constant": false,
			"inputs": [
				{
					"internalType": "address",
					"name": "_discoAddress",
					"type": "address"
				}
			],
			"name": "setDiscoBase",
			"outputs": [],
			"payable": false,
			"stateMutability": "nonpayable",
			"type": "function"
		},
		{
			"constant": false,
			"inputs": [
				{
					"internalType": "address",
					"name": "_iroAddress",
					"type": "address"
				}
			],
			"name": "setIROBase",
			"outputs": [],
			"payable": false,
			"stateMutability": "nonpayable",
			"type": "function"
		}
	]
}