{
	"data": {
		"bytecode": {
			"linkReferences": {
				"contracts/libraries/NumUtils.sol": {
					"NumUtils": [
						{
							"length": 20,
							"start": 4182
						}
					]
				}
			},
			"object": "60806040523480156200001157600080fd5b5060405162004fcb38038062004fcb8339810160408190526200003491620000c8565b600080546001600160a01b031916331790556200005a816001600160e01b036200006116565b5062000173565b6001600160a01b038116620000935760405162461bcd60e51b81526004016200008a906200012c565b60405180910390fd5b600180546001600160a01b0319166001600160a01b0392909216919091179055565b8051620000c28162000159565b92915050565b600060208284031215620000db57600080fd5b6000620000e98484620000b5565b949350505050565b6000620001006015836200013e565b7f69726f206164647265737320697320656d7074792e0000000000000000000000815260200192915050565b60208082528101620000c281620000f1565b90815260200190565b60006001600160a01b038216620000c2565b620001648162000147565b81146200017057600080fd5b50565b614e4880620001836000396000f3fe608060405260043610620000925760003560e01c8063474b58c21162000061578063474b58c2146200014757806359f7f240146200017b5780638f65e6971462000192578063d46d6d8a14620001c6578063ffb135a814620001eb5762000092565b80630f5e18491462000097578063268d792c14620000be5780632b4a249f14620000ed5780633122fef11462000112575b600080fd5b348015620000a457600080fd5b50620000bc620000b6366004620038fd565b62000210565b005b620000d5620000cf366004620039ff565b620006bc565b604051620000e4919062004507565b60405180910390f35b348015620000fa57600080fd5b50620000d56200010c366004620039ff565b620013f0565b3480156200011f57600080fd5b506200013762000131366004620038fd565b620017ee565b604051620000e49291906200451a565b3480156200015457600080fd5b506200016c62000166366004620038fd565b620019cf565b604051620000e49190620043c9565b620000bc6200018c36600462003aa5565b62001a84565b3480156200019f57600080fd5b50620001b7620001b1366004620038b8565b62001e4a565b604051620000e4919062004556565b348015620001d357600080fd5b50620000bc620001e536600462003972565b62001e77565b348015620001f857600080fd5b50620000bc6200020a36600462003855565b62002262565b6200021a62002b08565b6200028f85858080601f01602080910402602001604051908101604052809392919081815260200183838082843760009201919091525050604080516020601f89018190048102820181019092528781529250879150869081908401838280828437600092019190915250620022ad92505050565b905083620002ba5760405162461bcd60e51b8152600401620002b1906200449b565b60405180910390fd5b600081606001516003811115620002cd57fe5b1415620002ee5760405162461bcd60e51b8152600401620002b19062004489565b620002f862002b8d565b600154825160405163ef7ae53f60e01b81526001600160a01b039092169163ef7ae53f916200032a91600401620043f8565b60006040518083038186803b1580156200034357600080fd5b505afa15801562000358573d6000803e3d6000fd5b505050506040513d6000823e601f3d908101601f1916820160405262000382919081019062003a6d565b905060008260e0015160c00151905060606200040888888080601f01602080910402602001604051908101604052809392919081815260200183838082843760009201919091525050604080516020601f8c018190048102820181019092528a815292508a91508990819084018382808284376000920191909152506200291392505050565b905060606005826040516200041e919062004345565b9081526020016040518091039020805480602002602001604051908101604052809291908181526020016000905b82821015620005f05760008481526020908190206040805160068602909201805460026001821615610100026000190190911604601f8101859004909402830160e090810190925260c0830184815292939092849290918491840182828015620004fa5780601f10620004ce57610100808354040283529160200191620004fa565b820191906000526020600020905b815481529060010190602001808311620004dc57829003601f168201915b50505050508152602001600182018054600181600116156101000203166002900480601f016020809104026020016040519081016040528092919081815260200182805460018160011615610100020316600290048015620005a05780601f106200057457610100808354040283529160200191620005a0565b820191906000526020600020905b8154815290600101906020018083116200058257829003601f168201915b505050918352505060028201546001600160a01b0316602080830191909152600383015460408301526004830154606083015260059092015460809091015290825260019290920191016200044c565b5050505060e086810151015190915060005b8251811015620006af576200061662002bcc565b8382815181106200062357fe5b60200260200101519050826001600160a01b031663beabacc887836040015184608001518560600151016040518463ffffffff1660e01b81526004016200066d93929190620043aa565b600060405180830381600087803b1580156200068857600080fd5b505af11580156200069d573d6000803e3d6000fd5b50506001909301925062000602915050565b5050505050505050505050565b620006c662002b08565b602083015151620006eb5760405162461bcd60e51b8152600401620002b190620044bf565b8251516200070d5760405162461bcd60e51b8152600401620002b19062004441565b60006002846000015160405162000725919062004345565b908152602001604051809103902090506200073f62002b08565b81856020015160405162000754919062004345565b9081526040805160209281900383018120805460026001821615610100026000190190911604601f810185900490940282016101a09081019093526101808201848152919390928492918491840182828015620007f55780601f10620007c957610100808354040283529160200191620007f5565b820191906000526020600020905b815481529060010190602001808311620007d757829003601f168201915b50505050508152602001600182018054600181600116156101000203166002900480601f0160208091040260200160405190810160405280929190818152602001828054600181600116156101000203166002900480156200089b5780601f106200086f576101008083540402835291602001916200089b565b820191906000526020600020905b8154815290600101906020018083116200087d57829003601f168201915b5050509183525050600282810180546040805160206001841615610100026000190190931694909404601f81018390048302850183019091528084529381019390830182828015620009315780601f10620009055761010080835404028352916020019162000931565b820191906000526020600020905b8154815290600101906020018083116200091357829003601f168201915b505050918352505060038281015460209092019160ff16908111156200095357fe5b60038111156200095f57fe5b81526020016003820160019054906101000a900460ff1660068111156200098257fe5b60068111156200098e57fe5b815260048201805460408051602060026001851615610100026000190190941693909304601f810184900484028201840190925281815293820193929183018282801562000a205780601f10620009f45761010080835404028352916020019162000a20565b820191906000526020600020905b81548152906001019060200180831162000a0257829003601f168201915b505050918352505060058201805460408051602060026001851615610100026000190190941693909304601f810184900484028201840190925281815293820193929183018282801562000ab85780601f1062000a8c5761010080835404028352916020019162000ab8565b820191906000526020600020905b81548152906001019060200180831162000a9a57829003601f168201915b50505091835250506040805161010081019091526006830180546001600160a01b0381168352602093840193830190600160a01b900460ff16600181111562000afd57fe5b600181111562000b0957fe5b815260200160018201548152602001600282018054600181600116156101000203166002900480601f01602080910402602001604051908101604052809291908181526020018280546001816001161561010002031660029004801562000bb45780601f1062000b885761010080835404028352916020019162000bb4565b820191906000526020600020905b81548152906001019060200180831162000b9657829003601f168201915b5050509183525050600382810154602080840191909152600484015460408085019190915260058501546001600160a01b0390811660608601526006909501549094166080909301929092529284528151808201909252600d85018054949091019391929091839160ff9091169081111562000c2c57fe5b600381111562000c3857fe5b905250815260408051608081018252600e840180548252600f850180548451602060026001841615610100026000190190931692909204601f810183900483028201830190965285815295810195939492938186019390929183018282801562000ce65780601f1062000cba5761010080835404028352916020019162000ce6565b820191906000526020600020905b81548152906001019060200180831162000cc857829003601f168201915b505050918352505060028201546020808301919091526003909201546040918201529183526012840154908301526013909201546001600160a01b03169101528051519091501562000d4c5760405162461bcd60e51b8152600401620002b190620044ad565b62000d5662002b8d565b600154865160405163ef7ae53f60e01b81526001600160a01b039092169163ef7ae53f9162000d8891600401620043f8565b60006040518083038186803b15801562000da157600080fd5b505afa15801562000db6573d6000803e3d6000fd5b505050506040513d6000823e601f3d908101601f1916820160405262000de0919081019062003a6d565b80515190915062000e055760405162461bcd60e51b8152600401620002b1906200441d565b62000e0f62002c0b565b50604081015160008151600381111562000e2557fe5b141562000e465760405162461bcd60e51b8152600401620002b1906200442f565b60405180602001604052808260000151600381111562000e6257fe5b905261010088015262000e7462002c2d565b50606082015160008151600381111562000e8a57fe5b141562000eab5760405162461bcd60e51b8152600401620002b190620044e3565b61012088015160400151429060009062000f585760a0830151604051631bd9515560e01b815273__$b7c937b1c964930440937011c7042b2cdd$__91631bd951559162000efc9190600401620043f8565b60206040518083038186803b15801562000f1557600080fd5b505af415801562000f2a573d6000803e3d6000fd5b505050506040513d601f19601f8201168201806040525062000f50919081019062003add565b905062000f64565b50610120890151604001515b6040518060800160405280846060015181526020018460800151815260200182815260200182610e100284018152508a6101200181905250600062000fb186602001516040015162002941565b60e08c01516001600160a01b03821660c0909101529050606062000fd58c62002af2565b90508060405162000fe69062002c6b565b62000ff29190620043f8565b604051809103906000f0801580156200100f573d6000803e3d6000fd5b5060e0808e01516001600160a01b039092169101528a5160005b81811015620010bf5760038360405162001044919062004345565b90815260200160405180910390208d82815181106200105f57fe5b60209081029190910181015182546001818101808655600095865294849020835160039093020191825582840151908201556040820151805192939192620010ae926002850192019062002c79565b505060019092019150620010299050565b506101608d01516001600160a01b0316620010dc57336101608e01525b6101408d0185905260208d01516040518e918c91620010fc919062004345565b908152602001604051809103902060008201518160000190805190602001906200112892919062002c79565b50602082810151805162001143926001850192019062002c79565b50604082015180516200116191600284019160209091019062002c79565b5060608201518160030160006101000a81548160ff021916908360038111156200118757fe5b0217905550608082015160038201805461ff001916610100836006811115620011ac57fe5b021790555060a08201518051620011ce91600484019160209091019062002c79565b5060c08201518051620011ec91600584019160209091019062002c79565b5060e082015180516006830180546001600160a01b0319166001600160a01b0390921691909117808255602083015190829060ff60a01b1916600160a01b8360018111156200123757fe5b021790555060408201516001820155606082015180516200126391600284019160209091019062002c79565b50608082015160038281019190915560a0830151600483015560c08301516005830180546001600160a01b03199081166001600160a01b039384161790915560e090940151600690930180549094169216919091179091556101008301518051600d8401805492939092839160ff19909116906001908490811115620012e557fe5b021790555050506101208201518051600e830190815560208083015180516200131592600f870192019062002c79565b506040828101516002830155606090920151600390910155610140830151601283015561016090920151601390910180546001600160a01b0319166001600160a01b039092169190911790558d519051600491620013739162004345565b9081526040519081900360209081018220805460010190558e0151620013999162004345565b60405180910390207f74b2e2a4d866c513222fe0222feef41e081ec60e6879885dd70b6b7a305c3c1e8e8e604051620013d49291906200451a565b60405180910390a28c9a50505050505050505050505b92915050565b620013fa62002b08565b6020830151516200141f5760405162461bcd60e51b8152600401620002b190620044bf565b825151620014415760405162461bcd60e51b8152600401620002b19062004441565b60006002846000015160405162001459919062004345565b90815260200160405180910390209050838185602001516040516200147f919062004345565b90815260200160405180910390206000820151816000019080519060200190620014ab92919062002c79565b506020828101518051620014c6926001850192019062002c79565b5060408201518051620014e491600284019160209091019062002c79565b5060608201518160030160006101000a81548160ff021916908360038111156200150a57fe5b0217905550608082015160038201805461ff0019166101008360068111156200152f57fe5b021790555060a082015180516200155191600484019160209091019062002c79565b5060c082015180516200156f91600584019160209091019062002c79565b5060e082015180516006830180546001600160a01b0319166001600160a01b0390921691909117808255602083015190829060ff60a01b1916600160a01b836001811115620015ba57fe5b02179055506040820151600182015560608201518051620015e691600284019160209091019062002c79565b50608082015160038281019190915560a0830151600483015560c08301516005830180546001600160a01b03199081166001600160a01b039384161790915560e090940151600690930180549094169216919091179091556101008301518051600d8401805492939092839160ff199091169060019084908111156200166857fe5b021790555050506101208201518051600e830190815560208083015180516200169892600f870192019062002c79565b5060408201516002820155606091820151600390910155610140830151601283015561016090920151601390910180546001600160a01b0319166001600160a01b03909216919091179055620016ee8562002af2565b845190915060005b818110156200178c5760038360405162001711919062004345565b90815260200160405180910390208682815181106200172c57fe5b602090810291909101810151825460018181018086556000958652948490208351600390930201918255828401519082015560408201518051929391926200177b926002850192019062002c79565b505060019092019150620016f69050565b508560200151604051620017a1919062004345565b60405180910390207f74b2e2a4d866c513222fe0222feef41e081ec60e6879885dd70b6b7a305c3c1e8787604051620017dc9291906200451a565b60405180910390a25093949350505050565b620017f862002b08565b60606200180462002b08565b6200187987878080601f01602080910402602001604051908101604052809392919081815260200183838082843760009201919091525050604080516020601f8b018190048102820181019092528981529250899150889081908401838280828437600092019190915250620022ad92505050565b90506060620018888262002af2565b9050816003826040516200189d919062004345565b908152602001604051809103902080805480602002602001604051908101604052809291908181526020016000905b82821015620019ba57838290600052602060002090600302016040518060600160405290816000820154815260200160018201548152602001600282018054600181600116156101000203166002900480601f016020809104026020016040519081016040528092919081815260200182805460018160011615610100020316600290048015620019a15780601f106200197557610100808354040283529160200191620019a1565b820191906000526020600020905b8154815290600101906020018083116200198357829003601f168201915b50505050508152505081526020019060010190620018cc565b50505050905093509350505094509492505050565b6000620019db62002b08565b62001a5086868080601f01602080910402602001604051908101604052809392919081815260200183838082843760009201919091525050604080516020601f8a018190048102820181019092528881529250889150879081908401838280828437600092019190915250620022ad92505050565b80515190915062001a755760405162461bcd60e51b8152600401620002b1906200449b565b6060015190505b949350505050565b62001a8e62002b08565b62001aa282600001518360200151620022ad565b82515190915062001ac75760405162461bcd60e51b8152600401620002b1906200449b565b60008160600151600381111562001ada57fe5b1462001afa5760405162461bcd60e51b8152600401620002b190620044f5565b62001b0462002cfe565b506101208101516060810151429081111562001b345760405162461bcd60e51b8152600401620002b190620044d1565b600084608001518560600151011162001b615760405162461bcd60e51b8152600401620002b19062004477565b62001b6b62002b8d565b600154845160405163ef7ae53f60e01b81526001600160a01b039092169163ef7ae53f9162001b9d91600401620043f8565b60006040518083038186803b15801562001bb657600080fd5b505afa15801562001bcb573d6000803e3d6000fd5b505050506040513d6000823e601f3d908101601f1916820160405262001bf5919081019062003a6d565b905060008460e0015160c001519050806001600160a01b03166323b872dd338760e0015160e001516001600160a01b03166338cc48316040518163ffffffff1660e01b815260040160206040518083038186803b15801562001c5657600080fd5b505afa15801562001c6b573d6000803e3d6000fd5b505050506040513d601f19601f8201168201806040525062001c91919081019062003876565b89608001518a60600151016040518463ffffffff1660e01b815260040162001cbc939291906200437c565b602060405180830381600087803b15801562001cd757600080fd5b505af115801562001cec573d6000803e3d6000fd5b505050506040513d601f19601f8201168201806040525062001d12919081019062003897565b504260a08701523360408701528551602087015160609162001d349162002913565b905060058160405162001d48919062004345565b908152604051602091819003820190208054600181018083556000928352918390208a51805193948c9460069094029092019262001d8a928492019062002c79565b50602082810151805162001da5926001850192019062002c79565b506040828101516002830180546001600160a01b0319166001600160a01b03909216919091179055606083015160038301556080830151600483015560a0909201516005909101556020880151905162001e00925062004345565b60405180910390207f1fc2188cf86b2fdff0c37c3a4cc9ac40d660cb3ed78875f759054aa66515180f8860405162001e39919062004543565b60405180910390a250505050505050565b60006004838360405162001e6092919062004336565b908152602001604051809103902054905092915050565b62001e8162002b08565b62001ef686868080601f01602080910402602001604051908101604052809392919081815260200183838082843760009201919091525050604080516020601f8a018190048102820181019092528881529250889150879081908401838280828437600092019190915250620022ad92505050565b80515190915062001f1b5760405162461bcd60e51b8152600401620002b1906200440b565b8060600151600381111562001f2c57fe5b82600381111562001f3957fe5b146200225a576060810180519083600381111562001f5357fe5b9081600381111562001f6157fe5b905250815160405160009160029162001f7b919062004345565b908152602001604051809103902090508281878760405162001f9f92919062004336565b9081526020016040518091039020600082015181600001908051906020019062001fcb92919062002c79565b50602082810151805162001fe6926001850192019062002c79565b50604082015180516200200491600284019160209091019062002c79565b5060608201518160030160006101000a81548160ff021916908360038111156200202a57fe5b0217905550608082015160038201805461ff0019166101008360068111156200204f57fe5b021790555060a082015180516200207191600484019160209091019062002c79565b5060c082015180516200208f91600584019160209091019062002c79565b5060e082015180516006830180546001600160a01b0319166001600160a01b0390921691909117808255602083015190829060ff60a01b1916600160a01b836001811115620020da57fe5b021790555060408201516001820155606082015180516200210691600284019160209091019062002c79565b50608082015160038281019190915560a0830151600483015560c08301516005830180546001600160a01b03199081166001600160a01b039384161790915560e090940151600690930180549094169216919091179091556101008301518051600d8401805492939092839160ff199091169060019084908111156200218857fe5b021790555050506101208201518051600e83019081556020808301518051620021b892600f870192019062002c79565b506040828101516002830155606090920151600390910155610140830151601283015561016090920151601390910180546001600160a01b0319166001600160a01b039092169190911790555162002214908990899062004336565b60405180910390207f984b6675ffc22e1f752662b0ce0a6e95adb7944d816aa2d09e6995c9b20a198a83866040516200224f929190620043d9565b60405180910390a250505b505050505050565b6001600160a01b0381166200228b5760405162461bcd60e51b8152600401620002b19062004465565b600180546001600160a01b0319166001600160a01b0392909216919091179055565b620022b762002b08565b8251620022d85760405162461bcd60e51b8152600401620002b19062004453565b8151620022f95760405162461bcd60e51b8152600401620002b190620044bf565b60006002846040516200230d919062004345565b908152602001604051809103902090506200232762002b08565b818460405162002338919062004345565b9081526040805160209281900383018120805460026001821615610100026000190190911604601f810185900490940282016101a09081019093526101808201848152919390928492918491840182828015620023d95780601f10620023ad57610100808354040283529160200191620023d9565b820191906000526020600020905b815481529060010190602001808311620023bb57829003601f168201915b50505050508152602001600182018054600181600116156101000203166002900480601f0160208091040260200160405190810160405280929190818152602001828054600181600116156101000203166002900480156200247f5780601f1062002453576101008083540402835291602001916200247f565b820191906000526020600020905b8154815290600101906020018083116200246157829003601f168201915b5050509183525050600282810180546040805160206001841615610100026000190190931694909404601f81018390048302850183019091528084529381019390830182828015620025155780601f10620024e95761010080835404028352916020019162002515565b820191906000526020600020905b815481529060010190602001808311620024f757829003601f168201915b505050918352505060038281015460209092019160ff16908111156200253757fe5b60038111156200254357fe5b81526020016003820160019054906101000a900460ff1660068111156200256657fe5b60068111156200257257fe5b815260048201805460408051602060026001851615610100026000190190941693909304601f8101849004840282018401909252818152938201939291830182828015620026045780601f10620025d85761010080835404028352916020019162002604565b820191906000526020600020905b815481529060010190602001808311620025e657829003601f168201915b505050918352505060058201805460408051602060026001851615610100026000190190941693909304601f81018490048402820184019092528181529382019392918301828280156200269c5780601f1062002670576101008083540402835291602001916200269c565b820191906000526020600020905b8154815290600101906020018083116200267e57829003601f168201915b50505091835250506040805161010081019091526006830180546001600160a01b0381168352602093840193830190600160a01b900460ff166001811115620026e157fe5b6001811115620026ed57fe5b815260200160018201548152602001600282018054600181600116156101000203166002900480601f016020809104026020016040519081016040528092919081815260200182805460018160011615610100020316600290048015620027985780601f106200276c5761010080835404028352916020019162002798565b820191906000526020600020905b8154815290600101906020018083116200277a57829003601f168201915b5050509183525050600382810154602080840191909152600484015460408085019190915260058501546001600160a01b0390811660608601526006909501549094166080909301929092529284528151808201909252600d85018054949091019391929091839160ff909116908111156200281057fe5b60038111156200281c57fe5b905250815260408051608081018252600e840180548252600f850180548451602060026001841615610100026000190190931692909204601f8101839004830282018301909652858152958101959394929381860193909291830182828015620028ca5780601f106200289e57610100808354040283529160200191620028ca565b820191906000526020600020905b815481529060010190602001808311620028ac57829003601f168201915b505050918352505060028201546020808301919091526003909201546040918201529183526012840154908301526013909201546001600160a01b031691015295945050505050565b606082826040516020016200292a92919062004353565b604051602081830303815290604052905092915050565b60008181808060025b602a81101562002ae557610100840293508481815181106200296857fe5b0160200151855160f89190911c93508590600183019081106200298757fe5b016020015160f81c915060616001600160a01b03841610801590620029b657506066836001600160a01b031611155b15620029c85760578303925062002a31565b6041836001600160a01b031610158015620029ed57506046836001600160a01b031611155b15620029ff5760378303925062002a31565b6030836001600160a01b03161015801562002a2457506039836001600160a01b031611155b1562002a31576030830392505b6061826001600160a01b03161015801562002a5657506066826001600160a01b031611155b1562002a685760578203915062002ad1565b6041826001600160a01b03161015801562002a8d57506046826001600160a01b031611155b1562002a9f5760378203915062002ad1565b6030826001600160a01b03161015801562002ac457506039826001600160a01b031611155b1562002ad1576030820391505b60108302820193909301926002016200294a565b509193505050505b919050565b6060620013ea8260000151836020015162002913565b6040518061018001604052806060815260200160608152602001606081526020016000600381111562002b3757fe5b815260200160008152602001606081526020016060815260200162002b5b62002d26565b815260200162002b6a62002d7e565b815260200162002b7962002cfe565b815260006020820181905260409091015290565b60405180608001604052806060815260200162002ba962002d92565b815260200162002bb862002c0b565b815260200162002bc762002c2d565b905290565b6040518060c00160405280606081526020016060815260200160006001600160a01b031681526020016000815260200160008152602001600081525090565b6040805160608101909152806000815260200160008152602001606081525090565b6040805160e0810190915280600081526020016060815260200160608152602001600081526020016060815260200160608152602001606081525090565b6106ce806200473883390190565b828054600181600116156101000203166002900490600052602060002090601f016020900481019282601f1062002cbc57805160ff191683800117855562002cec565b8280016001018555821562002cec579182015b8281111562002cec57825182559160200191906001019062002ccf565b5062002cfa92915062002dba565b5090565b6040518060800160405280600081526020016060815260200160008152602001600081525090565b6040805161010081019091526000808252602082019081526020016000815260200160608152602001600081526020016000815260200160006001600160a01b0316815260200160006001600160a01b031681525090565b604080516020810190915280600062002bc7565b6040518060800160405280606081526020016060815260200160608152602001606081525090565b62002dd791905b8082111562002cfa576000815560010162002dc1565b90565b8035620013ea81620046d5565b8051620013ea81620046d5565b600082601f83011262002e0657600080fd5b815162002e1d62002e17826200458d565b62004566565b9150818183526020840193506020810190508385602084028201111562002e4357600080fd5b60005b8381101562002e73578162002e5c888262002de7565b845250602092830192919091019060010162002e46565b5050505092915050565b600082601f83011262002e8f57600080fd5b813562002ea062002e17826200458d565b81815260209384019390925082018360005b8381101562002e73578135860162002ecb88826200301e565b845250602092830192919091019060010162002eb2565b8051620013ea81620046ec565b8035620013ea81620046f7565b8035620013ea8162004702565b8035620013ea8162004710565b8035620013ea816200471e565b8051620013ea816200471e565b60008083601f84011262002f4357600080fd5b5081356001600160401b0381111562002f5b57600080fd5b60208301915083600182028301111562002f7457600080fd5b9250929050565b600082601f83011262002f8d57600080fd5b813562002f9e62002e1782620045ae565b9150808252602083016020830185838301111562002fbb57600080fd5b62002fc88382846200466c565b50505092915050565b600082601f83011262002fe357600080fd5b815162002ff462002e1782620045ae565b915080825260208301602083018583830111156200301157600080fd5b62002fc883828462004678565b6000606082840312156200303157600080fd5b6200303d606062004566565b905060006200304d84846200383b565b825250602062003060848483016200383b565b60208301525060408201356001600160401b038111156200308057600080fd5b6200308e8482850162002f7b565b60408301525092915050565b60006101008284031215620030ae57600080fd5b620030bb61010062004566565b90506000620030cb848462002dda565b8252506020620030de8484830162002efc565b6020830152506040620030f4848285016200383b565b60408301525060608201356001600160401b038111156200311457600080fd5b620031228482850162002f7b565b606083015250608062003138848285016200383b565b60808301525060a06200314e848285016200383b565b60a08301525060c0620031648482850162002eef565b60c08301525060e06200317a8482850162002eef565b60e08301525092915050565b600061018082840312156200319a57600080fd5b620031a761018062004566565b905081356001600160401b03811115620031c057600080fd5b620031ce8482850162002f7b565b82525060208201356001600160401b03811115620031eb57600080fd5b620031f98482850162002f7b565b60208301525060408201356001600160401b038111156200321957600080fd5b620032278482850162002f7b565b60408301525060606200323d8482850162002f16565b6060830152506080620032538482850162002f09565b60808301525060a08201356001600160401b038111156200327357600080fd5b620032818482850162002f7b565b60a08301525060c08201356001600160401b03811115620032a157600080fd5b620032af8482850162002f7b565b60c08301525060e08201356001600160401b03811115620032cf57600080fd5b620032dd848285016200309a565b60e083015250610100620032f484828501620033d1565b610100830152506101208201356001600160401b038111156200331657600080fd5b6200332484828501620037ba565b610120830152506101406200333c848285016200383b565b61014083015250610160620033548482850162002dda565b6101608301525092915050565b6000606082840312156200337457600080fd5b62003380606062004566565b9050600062003390848462002f23565b8252506020620033a38484830162003848565b60208301525060408201516001600160401b03811115620033c357600080fd5b6200308e8482850162002df4565b600060208284031215620033e457600080fd5b620033f0602062004566565b9050600062003400848462002f16565b82525092915050565b6000608082840312156200341c57600080fd5b62003428608062004566565b82519091506001600160401b038111156200344257600080fd5b620034508482850162002fd1565b82525060208201516001600160401b038111156200346d57600080fd5b6200347b84828501620034e3565b60208301525060408201516001600160401b038111156200349b57600080fd5b620034a98482850162003361565b60408301525060608201516001600160401b03811115620034c957600080fd5b620034d78482850162003686565b60608301525092915050565b600060808284031215620034f657600080fd5b62003502608062004566565b82519091506001600160401b038111156200351c57600080fd5b6200352a8482850162002fd1565b82525060208201516001600160401b038111156200354757600080fd5b620035558482850162002fd1565b60208301525060408201516001600160401b038111156200357557600080fd5b620035838482850162002fd1565b60408301525060608201516001600160401b03811115620035a357600080fd5b620034d78482850162002df4565b600060c08284031215620035c457600080fd5b620035d060c062004566565b905081356001600160401b03811115620035e957600080fd5b620035f78482850162002f7b565b82525060208201356001600160401b038111156200361457600080fd5b620036228482850162002f7b565b6020830152506040620036388482850162002dda565b60408301525060606200364e848285016200383b565b606083015250608062003664848285016200383b565b60808301525060a06200367a848285016200383b565b60a08301525092915050565b600060e082840312156200369957600080fd5b620036a560e062004566565b90506000620036b5848462002f23565b82525060208201516001600160401b03811115620036d257600080fd5b620036e08482850162002fd1565b60208301525060408201516001600160401b038111156200370057600080fd5b6200370e8482850162002df4565b6040830152506060620037248482850162003848565b60608301525060808201516001600160401b038111156200374457600080fd5b620037528482850162002fd1565b60808301525060a08201516001600160401b038111156200377257600080fd5b620037808482850162002fd1565b60a08301525060c08201516001600160401b03811115620037a057600080fd5b620037ae8482850162002fd1565b60c08301525092915050565b600060808284031215620037cd57600080fd5b620037d9608062004566565b90506000620037e984846200383b565b82525060208201356001600160401b038111156200380657600080fd5b620038148482850162002f7b565b60208301525060406200382a848285016200383b565b6040830152506060620034d7848285015b8035620013ea816200472c565b8051620013ea816200472c565b6000602082840312156200386857600080fd5b600062001a7c848462002dda565b6000602082840312156200388957600080fd5b600062001a7c848462002de7565b600060208284031215620038aa57600080fd5b600062001a7c848462002ee2565b60008060208385031215620038cc57600080fd5b82356001600160401b03811115620038e357600080fd5b620038f18582860162002f30565b92509250509250929050565b600080600080604085870312156200391457600080fd5b84356001600160401b038111156200392b57600080fd5b620039398782880162002f30565b945094505060208501356001600160401b038111156200395857600080fd5b620039668782880162002f30565b95989497509550505050565b6000806000806000606086880312156200398b57600080fd5b85356001600160401b03811115620039a257600080fd5b620039b08882890162002f30565b955095505060208601356001600160401b03811115620039cf57600080fd5b620039dd8882890162002f30565b93509350506040620039f28882890162002f16565b9150509295509295909350565b6000806040838503121562003a1357600080fd5b82356001600160401b0381111562003a2a57600080fd5b62003a388582860162003186565b92505060208301356001600160401b0381111562003a5557600080fd5b62003a638582860162002e7d565b9150509250929050565b60006020828403121562003a8057600080fd5b81516001600160401b0381111562003a9757600080fd5b62001a7c8482850162003409565b60006020828403121562003ab857600080fd5b81356001600160401b0381111562003acf57600080fd5b62001a7c84828501620035b1565b60006020828403121562003af057600080fd5b600062001a7c848462003848565b600062003b0c838362003ff2565b9392505050565b62003b1e8162004638565b82525050565b62003b1e81620045e9565b600062003b3c82620045dc565b62003b488185620045e0565b93508360208202850162003b5c85620045d6565b8060005b8581101562003b9c578484038952815162003b7c858262003afe565b945062003b8983620045d6565b60209a909a019992505060010162003b60565b5091979650505050505050565b62003b1e81620045fb565b62003b1e8162004645565b62003b1e8162004652565b62003b1e816200465f565b600062003be3838562002aed565b935062003bf28385846200466c565b50500190565b600062003c0582620045dc565b62003c118185620045e0565b935062003c2381856020860162004678565b62003c2e81620046a7565b9093019392505050565b600062003c4582620045dc565b62003c51818562002aed565b935062003c6381856020860162004678565b9290920192915050565b600062003c7c601183620045e0565b70383937b837b9b0b61036b4b9b9b4b7339760791b815260200192915050565b600062003cab601883620045e0565b7f626173652073657474696e67206e6f74206578697374732e0000000000000000815260200192915050565b600062003ce6601c83620045e0565b7f70726f706f7365722073657474696e67206e6f74206578697374732e00000000815260200192915050565b600062003d21601a83620045e0565b7f70726f706f73616c20646973636f496420697320656d70747921000000000000815260200192915050565b600062003d5c601283620045e0565b71646973636f20696420697320656d7074792160701b815260200192915050565b600062003d8c601583620045e0565b7434b9379030b2323932b9b99034b99032b6b83a3c9760591b815260200192915050565b600062003dbf601e83620045e0565b7f6120696e76616c696420766f74652c20766f7465206e756d203c3d20302e0000815260200192915050565b600062003dfa602383620045e0565b7f7468652070726f706f73616c20636f756c64206e6f742062652072656c65617381526232b21760e91b602082015260400192915050565b600062003e41601e83620045e0565b7f70726f706f73616c206d697373696e672c20636865636b2066697273742e0000815260200192915050565b600062003e7c603f83620045e0565b7f70726f706f73616c20616c7265616479206578697374732c20706c656173652081527f7265706c61636520776974682074686520636f6e7472616374206f776e657200602082015260400192915050565b600062003edd601b83620045e0565b7f70726f706f73616c2073657269616c496420697320656d707479210000000000815260200192915050565b600062003f18601083620045e0565b6f3b37ba329034b99032bc3834b932b21760811b815260200192915050565b600062003f46601983620045e0565b7f766f7465722073657474696e67206e6f74206578697374732e00000000000000815260200192915050565b600062003f8160018362002aed565b600160fe1b815260010192915050565b600062003fa0603a83620045e0565b7f7468652070726f706f73616c20636f756c64206e6f7420626520766f7465642081527f7768656e20737461747573206973206e6f7420766f74696e672e000000000000602082015260400192915050565b805160009060608401906200400885826200432b565b5060208301516200401d60208601826200432b565b506040830151848203604086015262004037828262003bf8565b95945050505050565b805160009061010084019062004057858262003b24565b5060208301516200406c602086018262003bb4565b5060408301516200408160408601826200432b565b50606083015184820360608601526200409b828262003bf8565b9150506080830151620040b260808601826200432b565b5060a0830151620040c760a08601826200432b565b5060c0830151620040dc60c086018262003ba9565b5060e0830151620040f160e086018262003ba9565b509392505050565b80516101808084526000919084019062004114828262003bf8565b9150506020830151848203602086015262004130828262003bf8565b915050604083015184820360408601526200414c828262003bf8565b915050606083015162004163606086018262003bca565b50608083015162004178608086018262003bbf565b5060a083015184820360a086015262004192828262003bf8565b91505060c083015184820360c0860152620041ae828262003bf8565b91505060e083015184820360e0860152620041ca828262004040565b915050610100830151620041e36101008601826200422f565b50610120830151848203610120860152620041ff8282620042d4565b915050610140830151620042186101408601826200432b565b50610160830151620040f161016086018262003b24565b8051602083019062004242848262003bca565b50505050565b805160c08084526000919084019062004262828262003bf8565b915050602083015184820360208601526200427e828262003bf8565b915050604083015162004295604086018262003b24565b506060830151620042aa60608601826200432b565b506080830151620042bf60808601826200432b565b5060a0830151620040f160a08601826200432b565b80516000906080840190620042ea85826200432b565b506020830151848203602086015262004304828262003bf8565b91505060408301516200431b60408601826200432b565b506060830151620040f160608601825b62003b1e8162002dd7565b600062001a7c82848662003bd5565b600062003b0c828462003c38565b600062004361828562003c38565b91506200436e8262003f72565b915062001a7c828462003c38565b606081016200438c828662003b13565b6200439b602083018562003b13565b62001a7c60408301846200432b565b60608101620043ba828662003ba9565b6200439b602083018562003b24565b60208101620013ea828462003bca565b60408101620043e9828562003bca565b62003b0c602083018462003bca565b6020808252810162003b0c818462003bf8565b60208082528101620013ea8162003c6d565b60208082528101620013ea8162003c9c565b60208082528101620013ea8162003cd7565b60208082528101620013ea8162003d12565b60208082528101620013ea8162003d4d565b60208082528101620013ea8162003d7d565b60208082528101620013ea8162003db0565b60208082528101620013ea8162003deb565b60208082528101620013ea8162003e32565b60208082528101620013ea8162003e6d565b60208082528101620013ea8162003ece565b60208082528101620013ea8162003f09565b60208082528101620013ea8162003f37565b60208082528101620013ea8162003f91565b6020808252810162003b0c8184620040f9565b604080825281016200452d8185620040f9565b9050818103602083015262001a7c818462003b2f565b6020808252810162003b0c818462004248565b60208101620013ea82846200432b565b6040518181016001600160401b03811182821017156200458557600080fd5b604052919050565b60006001600160401b03821115620045a457600080fd5b5060209081020190565b60006001600160401b03821115620045c557600080fd5b506020601f91909101601f19160190565b60200190565b5190565b90815260200190565b6000620013ea826200462c565b151590565b6000620013ea82620045e9565b8062002aed81620046b1565b8062002aed81620046bf565b8062002aed81620046ca565b6001600160a01b031690565b6000620013ea82620045fb565b6000620013ea8262004608565b6000620013ea8262004614565b6000620013ea8262004620565b82818337506000910152565b60005b83811015620046955781810151838201526020016200467b565b83811115620042425750506000910152565b601f01601f191690565b60028110620046bc57fe5b50565b60078110620046bc57fe5b60048110620046bc57fe5b620046e081620045e9565b8114620046bc57600080fd5b620046e081620045f6565b620046e081620045fb565b60028110620046bc57600080fd5b60078110620046bc57600080fd5b60048110620046bc57600080fd5b620046e08162002dd756fe608060405234801561001057600080fd5b506040516106ce3803806106ce83398101604081905261002f91610138565b8051610042906000906020840190610049565b50506101f1565b828054600181600116156101000203166002900490600052602060002090601f016020900481019282601f1061008a57805160ff19168380011785556100b7565b828001600101855582156100b7579182015b828111156100b757825182559160200191906001019061009c565b506100c39291506100c7565b5090565b6100e191905b808211156100c357600081556001016100cd565b90565b600082601f8301126100f557600080fd5b81516101086101038261019a565b610174565b9150808252602083016020830185838301111561012457600080fd5b61012f8382846101c1565b50505092915050565b60006020828403121561014a57600080fd5b81516001600160401b0381111561016057600080fd5b61016c848285016100e4565b949350505050565b6040518181016001600160401b038111828210171561019257600080fd5b604052919050565b60006001600160401b038211156101b057600080fd5b506020601f91909101601f19160190565b60005b838110156101dc5781810151838201526020016101c4565b838111156101eb576000848401525b50505050565b6104ce806102006000396000f3fe60806040526004361061004a5760003560e01c806338cc48311461004c5780634f95a04b14610077578063beabacc81461008a578063e1f21c67146100aa578063fb1e6a62146100ca575b005b34801561005857600080fd5b506100616100ec565b60405161006e91906103a7565b60405180910390f35b61004a6100853660046102aa565b6100f0565b34801561009657600080fd5b5061004a6100a536600461030a565b61012b565b3480156100b657600080fd5b5061004a6100c536600461030a565b6101b4565b3480156100d657600080fd5b506100df6101e2565b60405161006e91906103d7565b3090565b6040516001600160a01b0383169082156108fc029083906000818181858888f19350505050158015610126573d6000803e3d6000fd5b505050565b60405163a9059cbb60e01b81526001600160a01b0384169063a9059cbb9061015990859085906004016103b5565b602060405180830381600087803b15801561017357600080fd5b505af1158015610187573d6000803e3d6000fd5b505050506040513d601f19601f820116820180604052506101ab91908101906102e4565b61012657600080fd5b60405163095ea7b360e01b81526001600160a01b0384169063095ea7b39061015990859085906004016103b5565b60008054604080516020601f600260001961010060018816150201909516949094049384018190048102820181019092528281526060939092909183018282801561026e5780601f106102435761010080835404028352916020019161026e565b820191906000526020600020905b81548152906001019060200180831161025157829003601f168201915b5050505050905090565b803561028381610459565b92915050565b805161028381610470565b803561028381610479565b803561028381610482565b600080604083850312156102bd57600080fd5b60006102c98585610278565b92505060206102da8582860161029f565b9150509250929050565b6000602082840312156102f657600080fd5b60006103028484610289565b949350505050565b60008060006060848603121561031f57600080fd5b600061032b8686610294565b935050602061033c86828701610278565b925050604061034d8682870161029f565b9150509250925092565b610360816103f5565b82525050565b6000610371826103e8565b61037b81856103ec565b935061038b81856020860161041f565b6103948161044f565b9093019392505050565b6103608161041c565b602081016102838284610357565b604081016103c38285610357565b6103d0602083018461039e565b9392505050565b602080825281016103d08184610366565b5190565b90815260200190565b600061028382610410565b151590565b6000610283826103f5565b6001600160a01b031690565b90565b60005b8381101561043a578181015183820152602001610422565b83811115610449576000848401525b50505050565b601f01601f191690565b610462816103f5565b811461046d57600080fd5b50565b61046281610400565b61046281610405565b6104628161041c56fea365627a7a72315820eaa136ef91da104d909c61bdc7149a98d6bc69247577ad099b82d74edf838ff16c6578706572696d656e74616cf564736f6c63430005110040a365627a7a72315820f47e8826e4d9eb23c5f748c118f2fb51f39fcb0e438d0f749d64744c624353cf6c6578706572696d656e74616cf564736f6c63430005110040",
			"opcodes": "PUSH1 0x80 PUSH1 0x40 MSTORE CALLVALUE DUP1 ISZERO PUSH3 0x11 JUMPI PUSH1 0x0 DUP1 REVERT JUMPDEST POP PUSH1 0x40 MLOAD PUSH3 0x4FCB CODESIZE SUB DUP1 PUSH3 0x4FCB DUP4 CODECOPY DUP2 ADD PUSH1 0x40 DUP2 SWAP1 MSTORE PUSH3 0x34 SWAP2 PUSH3 0xC8 JUMP JUMPDEST PUSH1 0x0 DUP1 SLOAD PUSH1 0x1 PUSH1 0x1 PUSH1 0xA0 SHL SUB NOT AND CALLER OR SWAP1 SSTORE PUSH3 0x5A DUP2 PUSH1 0x1 PUSH1 0x1 PUSH1 0xE0 SHL SUB PUSH3 0x61 AND JUMP JUMPDEST POP PUSH3 0x173 JUMP JUMPDEST PUSH1 0x1 PUSH1 0x1 PUSH1 0xA0 SHL SUB DUP2 AND PUSH3 0x93 JUMPI PUSH1 0x40 MLOAD PUSH3 0x461BCD PUSH1 0xE5 SHL DUP2 MSTORE PUSH1 0x4 ADD PUSH3 0x8A SWAP1 PUSH3 0x12C JUMP JUMPDEST PUSH1 0x40 MLOAD DUP1 SWAP2 SUB SWAP1 REVERT JUMPDEST PUSH1 0x1 DUP1 SLOAD PUSH1 0x1 PUSH1 0x1 PUSH1 0xA0 SHL SUB NOT AND PUSH1 0x1 PUSH1 0x1 PUSH1 0xA0 SHL SUB SWAP3 SWAP1 SWAP3 AND SWAP2 SWAP1 SWAP2 OR SWAP1 SSTORE JUMP JUMPDEST DUP1 MLOAD PUSH3 0xC2 DUP2 PUSH3 0x159 JUMP JUMPDEST SWAP3 SWAP2 POP POP JUMP JUMPDEST PUSH1 0x0 PUSH1 0x20 DUP3 DUP5 SUB SLT ISZERO PUSH3 0xDB JUMPI PUSH1 0x0 DUP1 REVERT JUMPDEST PUSH1 0x0 PUSH3 0xE9 DUP5 DUP5 PUSH3 0xB5 JUMP JUMPDEST SWAP5 SWAP4 POP POP POP POP JUMP JUMPDEST PUSH1 0x0 PUSH3 0x100 PUSH1 0x15 DUP4 PUSH3 0x13E JUMP JUMPDEST PUSH32 0x69726F206164647265737320697320656D7074792E0000000000000000000000 DUP2 MSTORE PUSH1 0x20 ADD SWAP3 SWAP2 POP POP JUMP JUMPDEST PUSH1 0x20 DUP1 DUP3 MSTORE DUP2 ADD PUSH3 0xC2 DUP2 PUSH3 0xF1 JUMP JUMPDEST SWAP1 DUP2 MSTORE PUSH1 0x20 ADD SWAP1 JUMP JUMPDEST PUSH1 0x0 PUSH1 0x1 PUSH1 0x1 PUSH1 0xA0 SHL SUB DUP3 AND PUSH3 0xC2 JUMP JUMPDEST PUSH3 0x164 DUP2 PUSH3 0x147 JUMP JUMPDEST DUP2 EQ PUSH3 0x170 JUMPI PUSH1 0x0 DUP1 REVERT JUMPDEST POP JUMP JUMPDEST PUSH2 0x4E48 DUP1 PUSH3 0x183 PUSH1 0x0 CODECOPY PUSH1 0x0 RETURN INVALID PUSH1 0x80 PUSH1 0x40 MSTORE PUSH1 0x4 CALLDATASIZE LT PUSH3 0x92 JUMPI PUSH1 0x0 CALLDATALOAD PUSH1 0xE0 SHR DUP1 PUSH4 0x474B58C2 GT PUSH3 0x61 JUMPI DUP1 PUSH4 0x474B58C2 EQ PUSH3 0x147 JUMPI DUP1 PUSH4 0x59F7F240 EQ PUSH3 0x17B JUMPI DUP1 PUSH4 0x8F65E697 EQ PUSH3 0x192 JUMPI DUP1 PUSH4 0xD46D6D8A EQ PUSH3 0x1C6 JUMPI DUP1 PUSH4 0xFFB135A8 EQ PUSH3 0x1EB JUMPI PUSH3 0x92 JUMP JUMPDEST DUP1 PUSH4 0xF5E1849 EQ PUSH3 0x97 JUMPI DUP1 PUSH4 0x268D792C EQ PUSH3 0xBE JUMPI DUP1 PUSH4 0x2B4A249F EQ PUSH3 0xED JUMPI DUP1 PUSH4 0x3122FEF1 EQ PUSH3 0x112 JUMPI JUMPDEST PUSH1 0x0 DUP1 REVERT JUMPDEST CALLVALUE DUP1 ISZERO PUSH3 0xA4 JUMPI PUSH1 0x0 DUP1 REVERT JUMPDEST POP PUSH3 0xBC PUSH3 0xB6 CALLDATASIZE PUSH1 0x4 PUSH3 0x38FD JUMP JUMPDEST PUSH3 0x210 JUMP JUMPDEST STOP JUMPDEST PUSH3 0xD5 PUSH3 0xCF CALLDATASIZE PUSH1 0x4 PUSH3 0x39FF JUMP JUMPDEST PUSH3 0x6BC JUMP JUMPDEST PUSH1 0x40 MLOAD PUSH3 0xE4 SWAP2 SWAP1 PUSH3 0x4507 JUMP JUMPDEST PUSH1 0x40 MLOAD DUP1 SWAP2 SUB SWAP1 RETURN JUMPDEST CALLVALUE DUP1 ISZERO PUSH3 0xFA JUMPI PUSH1 0x0 DUP1 REVERT JUMPDEST POP PUSH3 0xD5 PUSH3 0x10C CALLDATASIZE PUSH1 0x4 PUSH3 0x39FF JUMP JUMPDEST PUSH3 0x13F0 JUMP JUMPDEST CALLVALUE DUP1 ISZERO PUSH3 0x11F JUMPI PUSH1 0x0 DUP1 REVERT JUMPDEST POP PUSH3 0x137 PUSH3 0x131 CALLDATASIZE PUSH1 0x4 PUSH3 0x38FD JUMP JUMPDEST PUSH3 0x17EE JUMP JUMPDEST PUSH1 0x40 MLOAD PUSH3 0xE4 SWAP3 SWAP2 SWAP1 PUSH3 0x451A JUMP JUMPDEST CALLVALUE DUP1 ISZERO PUSH3 0x154 JUMPI PUSH1 0x0 DUP1 REVERT JUMPDEST POP PUSH3 0x16C PUSH3 0x166 CALLDATASIZE PUSH1 0x4 PUSH3 0x38FD JUMP JUMPDEST PUSH3 0x19CF JUMP JUMPDEST PUSH1 0x40 MLOAD PUSH3 0xE4 SWAP2 SWAP1 PUSH3 0x43C9 JUMP JUMPDEST PUSH3 0xBC PUSH3 0x18C CALLDATASIZE PUSH1 0x4 PUSH3 0x3AA5 JUMP JUMPDEST PUSH3 0x1A84 JUMP JUMPDEST CALLVALUE DUP1 ISZERO PUSH3 0x19F JUMPI PUSH1 0x0 DUP1 REVERT JUMPDEST POP PUSH3 0x1B7 PUSH3 0x1B1 CALLDATASIZE PUSH1 0x4 PUSH3 0x38B8 JUMP JUMPDEST PUSH3 0x1E4A JUMP JUMPDEST PUSH1 0x40 MLOAD PUSH3 0xE4 SWAP2 SWAP1 PUSH3 0x4556 JUMP JUMPDEST CALLVALUE DUP1 ISZERO PUSH3 0x1D3 JUMPI PUSH1 0x0 DUP1 REVERT JUMPDEST POP PUSH3 0xBC PUSH3 0x1E5 CALLDATASIZE PUSH1 0x4 PUSH3 0x3972 JUMP JUMPDEST PUSH3 0x1E77 JUMP JUMPDEST CALLVALUE DUP1 ISZERO PUSH3 0x1F8 JUMPI PUSH1 0x0 DUP1 REVERT JUMPDEST POP PUSH3 0xBC PUSH3 0x20A CALLDATASIZE PUSH1 0x4 PUSH3 0x3855 JUMP JUMPDEST PUSH3 0x2262 JUMP JUMPDEST PUSH3 0x21A PUSH3 0x2B08 JUMP JUMPDEST PUSH3 0x28F DUP6 DUP6 DUP1 DUP1 PUSH1 0x1F ADD PUSH1 0x20 DUP1 SWAP2 DIV MUL PUSH1 0x20 ADD PUSH1 0x40 MLOAD SWAP1 DUP2 ADD PUSH1 0x40 MSTORE DUP1 SWAP4 SWAP3 SWAP2 SWAP1 DUP2 DUP2 MSTORE PUSH1 0x20 ADD DUP4 DUP4 DUP1 DUP3 DUP5 CALLDATACOPY PUSH1 0x0 SWAP3 ADD SWAP2 SWAP1 SWAP2 MSTORE POP POP PUSH1 0x40 DUP1 MLOAD PUSH1 0x20 PUSH1 0x1F DUP10 ADD DUP2 SWAP1 DIV DUP2 MUL DUP3 ADD DUP2 ADD SWAP1 SWAP3 MSTORE DUP8 DUP2 MSTORE SWAP3 POP DUP8 SWAP2 POP DUP7 SWAP1 DUP2 SWAP1 DUP5 ADD DUP4 DUP3 DUP1 DUP3 DUP5 CALLDATACOPY PUSH1 0x0 SWAP3 ADD SWAP2 SWAP1 SWAP2 MSTORE POP PUSH3 0x22AD SWAP3 POP POP POP JUMP JUMPDEST SWAP1 POP DUP4 PUSH3 0x2BA JUMPI PUSH1 0x40 MLOAD PUSH3 0x461BCD PUSH1 0xE5 SHL DUP2 MSTORE PUSH1 0x4 ADD PUSH3 0x2B1 SWAP1 PUSH3 0x449B JUMP JUMPDEST PUSH1 0x40 MLOAD DUP1 SWAP2 SUB SWAP1 REVERT JUMPDEST PUSH1 0x0 DUP2 PUSH1 0x60 ADD MLOAD PUSH1 0x3 DUP2 GT ISZERO PUSH3 0x2CD JUMPI INVALID JUMPDEST EQ ISZERO PUSH3 0x2EE JUMPI PUSH1 0x40 MLOAD PUSH3 0x461BCD PUSH1 0xE5 SHL DUP2 MSTORE PUSH1 0x4 ADD PUSH3 0x2B1 SWAP1 PUSH3 0x4489 JUMP JUMPDEST PUSH3 0x2F8 PUSH3 0x2B8D JUMP JUMPDEST PUSH1 0x1 SLOAD DUP3 MLOAD PUSH1 0x40 MLOAD PUSH4 0xEF7AE53F PUSH1 0xE0 SHL DUP2 MSTORE PUSH1 0x1 PUSH1 0x1 PUSH1 0xA0 SHL SUB SWAP1 SWAP3 AND SWAP2 PUSH4 0xEF7AE53F SWAP2 PUSH3 0x32A SWAP2 PUSH1 0x4 ADD PUSH3 0x43F8 JUMP JUMPDEST PUSH1 0x0 PUSH1 0x40 MLOAD DUP1 DUP4 SUB DUP2 DUP7 DUP1 EXTCODESIZE ISZERO DUP1 ISZERO PUSH3 0x343 JUMPI PUSH1 0x0 DUP1 REVERT JUMPDEST POP GAS STATICCALL ISZERO DUP1 ISZERO PUSH3 0x358 JUMPI RETURNDATASIZE PUSH1 0x0 DUP1 RETURNDATACOPY RETURNDATASIZE PUSH1 0x0 REVERT JUMPDEST POP POP POP POP PUSH1 0x40 MLOAD RETURNDATASIZE PUSH1 0x0 DUP3 RETURNDATACOPY PUSH1 0x1F RETURNDATASIZE SWAP1 DUP2 ADD PUSH1 0x1F NOT AND DUP3 ADD PUSH1 0x40 MSTORE PUSH3 0x382 SWAP2 SWAP1 DUP2 ADD SWAP1 PUSH3 0x3A6D JUMP JUMPDEST SWAP1 POP PUSH1 0x0 DUP3 PUSH1 0xE0 ADD MLOAD PUSH1 0xC0 ADD MLOAD SWAP1 POP PUSH1 0x60 PUSH3 0x408 DUP9 DUP9 DUP1 DUP1 PUSH1 0x1F ADD PUSH1 0x20 DUP1 SWAP2 DIV MUL PUSH1 0x20 ADD PUSH1 0x40 MLOAD SWAP1 DUP2 ADD PUSH1 0x40 MSTORE DUP1 SWAP4 SWAP3 SWAP2 SWAP1 DUP2 DUP2 MSTORE PUSH1 0x20 ADD DUP4 DUP4 DUP1 DUP3 DUP5 CALLDATACOPY PUSH1 0x0 SWAP3 ADD SWAP2 SWAP1 SWAP2 MSTORE POP POP PUSH1 0x40 DUP1 MLOAD PUSH1 0x20 PUSH1 0x1F DUP13 ADD DUP2 SWAP1 DIV DUP2 MUL DUP3 ADD DUP2 ADD SWAP1 SWAP3 MSTORE DUP11 DUP2 MSTORE SWAP3 POP DUP11 SWAP2 POP DUP10 SWAP1 DUP2 SWAP1 DUP5 ADD DUP4 DUP3 DUP1 DUP3 DUP5 CALLDATACOPY PUSH1 0x0 SWAP3 ADD SWAP2 SWAP1 SWAP2 MSTORE POP PUSH3 0x2913 SWAP3 POP POP POP JUMP JUMPDEST SWAP1 POP PUSH1 0x60 PUSH1 0x5 DUP3 PUSH1 0x40 MLOAD PUSH3 0x41E SWAP2 SWAP1 PUSH3 0x4345 JUMP JUMPDEST SWAP1 DUP2 MSTORE PUSH1 0x20 ADD PUSH1 0x40 MLOAD DUP1 SWAP2 SUB SWAP1 KECCAK256 DUP1 SLOAD DUP1 PUSH1 0x20 MUL PUSH1 0x20 ADD PUSH1 0x40 MLOAD SWAP1 DUP2 ADD PUSH1 0x40 MSTORE DUP1 SWAP3 SWAP2 SWAP1 DUP2 DUP2 MSTORE PUSH1 0x20 ADD PUSH1 0x0 SWAP1 JUMPDEST DUP3 DUP3 LT ISZERO PUSH3 0x5F0 JUMPI PUSH1 0x0 DUP5 DUP2 MSTORE PUSH1 0x20 SWAP1 DUP2 SWAP1 KECCAK256 PUSH1 0x40 DUP1 MLOAD PUSH1 0x6 DUP7 MUL SWAP1 SWAP3 ADD DUP1 SLOAD PUSH1 0x2 PUSH1 0x1 DUP3 AND ISZERO PUSH2 0x100 MUL PUSH1 0x0 NOT ADD SWAP1 SWAP2 AND DIV PUSH1 0x1F DUP2 ADD DUP6 SWAP1 DIV SWAP1 SWAP5 MUL DUP4 ADD PUSH1 0xE0 SWAP1 DUP2 ADD SWAP1 SWAP3 MSTORE PUSH1 0xC0 DUP4 ADD DUP5 DUP2 MSTORE SWAP3 SWAP4 SWAP1 SWAP3 DUP5 SWAP3 SWAP1 SWAP2 DUP5 SWAP2 DUP5 ADD DUP3 DUP3 DUP1 ISZERO PUSH3 0x4FA JUMPI DUP1 PUSH1 0x1F LT PUSH3 0x4CE JUMPI PUSH2 0x100 DUP1 DUP4 SLOAD DIV MUL DUP4 MSTORE SWAP2 PUSH1 0x20 ADD SWAP2 PUSH3 0x4FA JUMP JUMPDEST DUP3 ADD SWAP2 SWAP1 PUSH1 0x0 MSTORE PUSH1 0x20 PUSH1 0x0 KECCAK256 SWAP1 JUMPDEST DUP2 SLOAD DUP2 MSTORE SWAP1 PUSH1 0x1 ADD SWAP1 PUSH1 0x20 ADD DUP1 DUP4 GT PUSH3 0x4DC JUMPI DUP3 SWAP1 SUB PUSH1 0x1F AND DUP3 ADD SWAP2 JUMPDEST POP POP POP POP POP DUP2 MSTORE PUSH1 0x20 ADD PUSH1 0x1 DUP3 ADD DUP1 SLOAD PUSH1 0x1 DUP2 PUSH1 0x1 AND ISZERO PUSH2 0x100 MUL SUB AND PUSH1 0x2 SWAP1 DIV DUP1 PUSH1 0x1F ADD PUSH1 0x20 DUP1 SWAP2 DIV MUL PUSH1 0x20 ADD PUSH1 0x40 MLOAD SWAP1 DUP2 ADD PUSH1 0x40 MSTORE DUP1 SWAP3 SWAP2 SWAP1 DUP2 DUP2 MSTORE PUSH1 0x20 ADD DUP3 DUP1 SLOAD PUSH1 0x1 DUP2 PUSH1 0x1 AND ISZERO PUSH2 0x100 MUL SUB AND PUSH1 0x2 SWAP1 DIV DUP1 ISZERO PUSH3 0x5A0 JUMPI DUP1 PUSH1 0x1F LT PUSH3 0x574 JUMPI PUSH2 0x100 DUP1 DUP4 SLOAD DIV MUL DUP4 MSTORE SWAP2 PUSH1 0x20 ADD SWAP2 PUSH3 0x5A0 JUMP JUMPDEST DUP3 ADD SWAP2 SWAP1 PUSH1 0x0 MSTORE PUSH1 0x20 PUSH1 0x0 KECCAK256 SWAP1 JUMPDEST DUP2 SLOAD DUP2 MSTORE SWAP1 PUSH1 0x1 ADD SWAP1 PUSH1 0x20 ADD DUP1 DUP4 GT PUSH3 0x582 JUMPI DUP3 SWAP1 SUB PUSH1 0x1F AND DUP3 ADD SWAP2 JUMPDEST POP POP POP SWAP2 DUP4 MSTORE POP POP PUSH1 0x2 DUP3 ADD SLOAD PUSH1 0x1 PUSH1 0x1 PUSH1 0xA0 SHL SUB AND PUSH1 0x20 DUP1 DUP4 ADD SWAP2 SWAP1 SWAP2 MSTORE PUSH1 0x3 DUP4 ADD SLOAD PUSH1 0x40 DUP4 ADD MSTORE PUSH1 0x4 DUP4 ADD SLOAD PUSH1 0x60 DUP4 ADD MSTORE PUSH1 0x5 SWAP1 SWAP3 ADD SLOAD PUSH1 0x80 SWAP1 SWAP2 ADD MSTORE SWAP1 DUP3 MSTORE PUSH1 0x1 SWAP3 SWAP1 SWAP3 ADD SWAP2 ADD PUSH3 0x44C JUMP JUMPDEST POP POP POP POP PUSH1 0xE0 DUP7 DUP2 ADD MLOAD ADD MLOAD SWAP1 SWAP2 POP PUSH1 0x0 JUMPDEST DUP3 MLOAD DUP2 LT ISZERO PUSH3 0x6AF JUMPI PUSH3 0x616 PUSH3 0x2BCC JUMP JUMPDEST DUP4 DUP3 DUP2 MLOAD DUP2 LT PUSH3 0x623 JUMPI INVALID JUMPDEST PUSH1 0x20 MUL PUSH1 0x20 ADD ADD MLOAD SWAP1 POP DUP3 PUSH1 0x1 PUSH1 0x1 PUSH1 0xA0 SHL SUB AND PUSH4 0xBEABACC8 DUP8 DUP4 PUSH1 0x40 ADD MLOAD DUP5 PUSH1 0x80 ADD MLOAD DUP6 PUSH1 0x60 ADD MLOAD ADD PUSH1 0x40 MLOAD DUP5 PUSH4 0xFFFFFFFF AND PUSH1 0xE0 SHL DUP2 MSTORE PUSH1 0x4 ADD PUSH3 0x66D SWAP4 SWAP3 SWAP2 SWAP1 PUSH3 0x43AA JUMP JUMPDEST PUSH1 0x0 PUSH1 0x40 MLOAD DUP1 DUP4 SUB DUP2 PUSH1 0x0 DUP8 DUP1 EXTCODESIZE ISZERO DUP1 ISZERO PUSH3 0x688 JUMPI PUSH1 0x0 DUP1 REVERT JUMPDEST POP GAS CALL ISZERO DUP1 ISZERO PUSH3 0x69D JUMPI RETURNDATASIZE PUSH1 0x0 DUP1 RETURNDATACOPY RETURNDATASIZE PUSH1 0x0 REVERT JUMPDEST POP POP PUSH1 0x1 SWAP1 SWAP4 ADD SWAP3 POP PUSH3 0x602 SWAP2 POP POP JUMP JUMPDEST POP POP POP POP POP POP POP POP POP POP POP JUMP JUMPDEST PUSH3 0x6C6 PUSH3 0x2B08 JUMP JUMPDEST PUSH1 0x20 DUP4 ADD MLOAD MLOAD PUSH3 0x6EB JUMPI PUSH1 0x40 MLOAD PUSH3 0x461BCD PUSH1 0xE5 SHL DUP2 MSTORE PUSH1 0x4 ADD PUSH3 0x2B1 SWAP1 PUSH3 0x44BF JUMP JUMPDEST DUP3 MLOAD MLOAD PUSH3 0x70D JUMPI PUSH1 0x40 MLOAD PUSH3 0x461BCD PUSH1 0xE5 SHL DUP2 MSTORE PUSH1 0x4 ADD PUSH3 0x2B1 SWAP1 PUSH3 0x4441 JUMP JUMPDEST PUSH1 0x0 PUSH1 0x2 DUP5 PUSH1 0x0 ADD MLOAD PUSH1 0x40 MLOAD PUSH3 0x725 SWAP2 SWAP1 PUSH3 0x4345 JUMP JUMPDEST SWAP1 DUP2 MSTORE PUSH1 0x20 ADD PUSH1 0x40 MLOAD DUP1 SWAP2 SUB SWAP1 KECCAK256 SWAP1 POP PUSH3 0x73F PUSH3 0x2B08 JUMP JUMPDEST DUP2 DUP6 PUSH1 0x20 ADD MLOAD PUSH1 0x40 MLOAD PUSH3 0x754 SWAP2 SWAP1 PUSH3 0x4345 JUMP JUMPDEST SWAP1 DUP2 MSTORE PUSH1 0x40 DUP1 MLOAD PUSH1 0x20 SWAP3 DUP2 SWAP1 SUB DUP4 ADD DUP2 KECCAK256 DUP1 SLOAD PUSH1 0x2 PUSH1 0x1 DUP3 AND ISZERO PUSH2 0x100 MUL PUSH1 0x0 NOT ADD SWAP1 SWAP2 AND DIV PUSH1 0x1F DUP2 ADD DUP6 SWAP1 DIV SWAP1 SWAP5 MUL DUP3 ADD PUSH2 0x1A0 SWAP1 DUP2 ADD SWAP1 SWAP4 MSTORE PUSH2 0x180 DUP3 ADD DUP5 DUP2 MSTORE SWAP2 SWAP4 SWAP1 SWAP3 DUP5 SWAP3 SWAP2 DUP5 SWAP2 DUP5 ADD DUP3 DUP3 DUP1 ISZERO PUSH3 0x7F5 JUMPI DUP1 PUSH1 0x1F LT PUSH3 0x7C9 JUMPI PUSH2 0x100 DUP1 DUP4 SLOAD DIV MUL DUP4 MSTORE SWAP2 PUSH1 0x20 ADD SWAP2 PUSH3 0x7F5 JUMP JUMPDEST DUP3 ADD SWAP2 SWAP1 PUSH1 0x0 MSTORE PUSH1 0x20 PUSH1 0x0 KECCAK256 SWAP1 JUMPDEST DUP2 SLOAD DUP2 MSTORE SWAP1 PUSH1 0x1 ADD SWAP1 PUSH1 0x20 ADD DUP1 DUP4 GT PUSH3 0x7D7 JUMPI DUP3 SWAP1 SUB PUSH1 0x1F AND DUP3 ADD SWAP2 JUMPDEST POP POP POP POP POP DUP2 MSTORE PUSH1 0x20 ADD PUSH1 0x1 DUP3 ADD DUP1 SLOAD PUSH1 0x1 DUP2 PUSH1 0x1 AND ISZERO PUSH2 0x100 MUL SUB AND PUSH1 0x2 SWAP1 DIV DUP1 PUSH1 0x1F ADD PUSH1 0x20 DUP1 SWAP2 DIV MUL PUSH1 0x20 ADD PUSH1 0x40 MLOAD SWAP1 DUP2 ADD PUSH1 0x40 MSTORE DUP1 SWAP3 SWAP2 SWAP1 DUP2 DUP2 MSTORE PUSH1 0x20 ADD DUP3 DUP1 SLOAD PUSH1 0x1 DUP2 PUSH1 0x1 AND ISZERO PUSH2 0x100 MUL SUB AND PUSH1 0x2 SWAP1 DIV DUP1 ISZERO PUSH3 0x89B JUMPI DUP1 PUSH1 0x1F LT PUSH3 0x86F JUMPI PUSH2 0x100 DUP1 DUP4 SLOAD DIV MUL DUP4 MSTORE SWAP2 PUSH1 0x20 ADD SWAP2 PUSH3 0x89B JUMP JUMPDEST DUP3 ADD SWAP2 SWAP1 PUSH1 0x0 MSTORE PUSH1 0x20 PUSH1 0x0 KECCAK256 SWAP1 JUMPDEST DUP2 SLOAD DUP2 MSTORE SWAP1 PUSH1 0x1 ADD SWAP1 PUSH1 0x20 ADD DUP1 DUP4 GT PUSH3 0x87D JUMPI DUP3 SWAP1 SUB PUSH1 0x1F AND DUP3 ADD SWAP2 JUMPDEST POP POP POP SWAP2 DUP4 MSTORE POP POP PUSH1 0x2 DUP3 DUP2 ADD DUP1 SLOAD PUSH1 0x40 DUP1 MLOAD PUSH1 0x20 PUSH1 0x1 DUP5 AND ISZERO PUSH2 0x100 MUL PUSH1 0x0 NOT ADD SWAP1 SWAP4 AND SWAP5 SWAP1 SWAP5 DIV PUSH1 0x1F DUP2 ADD DUP4 SWAP1 DIV DUP4 MUL DUP6 ADD DUP4 ADD SWAP1 SWAP2 MSTORE DUP1 DUP5 MSTORE SWAP4 DUP2 ADD SWAP4 SWAP1 DUP4 ADD DUP3 DUP3 DUP1 ISZERO PUSH3 0x931 JUMPI DUP1 PUSH1 0x1F LT PUSH3 0x905 JUMPI PUSH2 0x100 DUP1 DUP4 SLOAD DIV MUL DUP4 MSTORE SWAP2 PUSH1 0x20 ADD SWAP2 PUSH3 0x931 JUMP JUMPDEST DUP3 ADD SWAP2 SWAP1 PUSH1 0x0 MSTORE PUSH1 0x20 PUSH1 0x0 KECCAK256 SWAP1 JUMPDEST DUP2 SLOAD DUP2 MSTORE SWAP1 PUSH1 0x1 ADD SWAP1 PUSH1 0x20 ADD DUP1 DUP4 GT PUSH3 0x913 JUMPI DUP3 SWAP1 SUB PUSH1 0x1F AND DUP3 ADD SWAP2 JUMPDEST POP POP POP SWAP2 DUP4 MSTORE POP POP PUSH1 0x3 DUP3 DUP2 ADD SLOAD PUSH1 0x20 SWAP1 SWAP3 ADD SWAP2 PUSH1 0xFF AND SWAP1 DUP2 GT ISZERO PUSH3 0x953 JUMPI INVALID JUMPDEST PUSH1 0x3 DUP2 GT ISZERO PUSH3 0x95F JUMPI INVALID JUMPDEST DUP2 MSTORE PUSH1 0x20 ADD PUSH1 0x3 DUP3 ADD PUSH1 0x1 SWAP1 SLOAD SWAP1 PUSH2 0x100 EXP SWAP1 DIV PUSH1 0xFF AND PUSH1 0x6 DUP2 GT ISZERO PUSH3 0x982 JUMPI INVALID JUMPDEST PUSH1 0x6 DUP2 GT ISZERO PUSH3 0x98E JUMPI INVALID JUMPDEST DUP2 MSTORE PUSH1 0x4 DUP3 ADD DUP1 SLOAD PUSH1 0x40 DUP1 MLOAD PUSH1 0x20 PUSH1 0x2 PUSH1 0x1 DUP6 AND ISZERO PUSH2 0x100 MUL PUSH1 0x0 NOT ADD SWAP1 SWAP5 AND SWAP4 SWAP1 SWAP4 DIV PUSH1 0x1F DUP2 ADD DUP5 SWAP1 DIV DUP5 MUL DUP3 ADD DUP5 ADD SWAP1 SWAP3 MSTORE DUP2 DUP2 MSTORE SWAP4 DUP3 ADD SWAP4 SWAP3 SWAP2 DUP4 ADD DUP3 DUP3 DUP1 ISZERO PUSH3 0xA20 JUMPI DUP1 PUSH1 0x1F LT PUSH3 0x9F4 JUMPI PUSH2 0x100 DUP1 DUP4 SLOAD DIV MUL DUP4 MSTORE SWAP2 PUSH1 0x20 ADD SWAP2 PUSH3 0xA20 JUMP JUMPDEST DUP3 ADD SWAP2 SWAP1 PUSH1 0x0 MSTORE PUSH1 0x20 PUSH1 0x0 KECCAK256 SWAP1 JUMPDEST DUP2 SLOAD DUP2 MSTORE SWAP1 PUSH1 0x1 ADD SWAP1 PUSH1 0x20 ADD DUP1 DUP4 GT PUSH3 0xA02 JUMPI DUP3 SWAP1 SUB PUSH1 0x1F AND DUP3 ADD SWAP2 JUMPDEST POP POP POP SWAP2 DUP4 MSTORE POP POP PUSH1 0x5 DUP3 ADD DUP1 SLOAD PUSH1 0x40 DUP1 MLOAD PUSH1 0x20 PUSH1 0x2 PUSH1 0x1 DUP6 AND ISZERO PUSH2 0x100 MUL PUSH1 0x0 NOT ADD SWAP1 SWAP5 AND SWAP4 SWAP1 SWAP4 DIV PUSH1 0x1F DUP2 ADD DUP5 SWAP1 DIV DUP5 MUL DUP3 ADD DUP5 ADD SWAP1 SWAP3 MSTORE DUP2 DUP2 MSTORE SWAP4 DUP3 ADD SWAP4 SWAP3 SWAP2 DUP4 ADD DUP3 DUP3 DUP1 ISZERO PUSH3 0xAB8 JUMPI DUP1 PUSH1 0x1F LT PUSH3 0xA8C JUMPI PUSH2 0x100 DUP1 DUP4 SLOAD DIV MUL DUP4 MSTORE SWAP2 PUSH1 0x20 ADD SWAP2 PUSH3 0xAB8 JUMP JUMPDEST DUP3 ADD SWAP2 SWAP1 PUSH1 0x0 MSTORE PUSH1 0x20 PUSH1 0x0 KECCAK256 SWAP1 JUMPDEST DUP2 SLOAD DUP2 MSTORE SWAP1 PUSH1 0x1 ADD SWAP1 PUSH1 0x20 ADD DUP1 DUP4 GT PUSH3 0xA9A JUMPI DUP3 SWAP1 SUB PUSH1 0x1F AND DUP3 ADD SWAP2 JUMPDEST POP POP POP SWAP2 DUP4 MSTORE POP POP PUSH1 0x40 DUP1 MLOAD PUSH2 0x100 DUP2 ADD SWAP1 SWAP2 MSTORE PUSH1 0x6 DUP4 ADD DUP1 SLOAD PUSH1 0x1 PUSH1 0x1 PUSH1 0xA0 SHL SUB DUP2 AND DUP4 MSTORE PUSH1 0x20 SWAP4 DUP5 ADD SWAP4 DUP4 ADD SWAP1 PUSH1 0x1 PUSH1 0xA0 SHL SWAP1 DIV PUSH1 0xFF AND PUSH1 0x1 DUP2 GT ISZERO PUSH3 0xAFD JUMPI INVALID JUMPDEST PUSH1 0x1 DUP2 GT ISZERO PUSH3 0xB09 JUMPI INVALID JUMPDEST DUP2 MSTORE PUSH1 0x20 ADD PUSH1 0x1 DUP3 ADD SLOAD DUP2 MSTORE PUSH1 0x20 ADD PUSH1 0x2 DUP3 ADD DUP1 SLOAD PUSH1 0x1 DUP2 PUSH1 0x1 AND ISZERO PUSH2 0x100 MUL SUB AND PUSH1 0x2 SWAP1 DIV DUP1 PUSH1 0x1F ADD PUSH1 0x20 DUP1 SWAP2 DIV MUL PUSH1 0x20 ADD PUSH1 0x40 MLOAD SWAP1 DUP2 ADD PUSH1 0x40 MSTORE DUP1 SWAP3 SWAP2 SWAP1 DUP2 DUP2 MSTORE PUSH1 0x20 ADD DUP3 DUP1 SLOAD PUSH1 0x1 DUP2 PUSH1 0x1 AND ISZERO PUSH2 0x100 MUL SUB AND PUSH1 0x2 SWAP1 DIV DUP1 ISZERO PUSH3 0xBB4 JUMPI DUP1 PUSH1 0x1F LT PUSH3 0xB88 JUMPI PUSH2 0x100 DUP1 DUP4 SLOAD DIV MUL DUP4 MSTORE SWAP2 PUSH1 0x20 ADD SWAP2 PUSH3 0xBB4 JUMP JUMPDEST DUP3 ADD SWAP2 SWAP1 PUSH1 0x0 MSTORE PUSH1 0x20 PUSH1 0x0 KECCAK256 SWAP1 JUMPDEST DUP2 SLOAD DUP2 MSTORE SWAP1 PUSH1 0x1 ADD SWAP1 PUSH1 0x20 ADD DUP1 DUP4 GT PUSH3 0xB96 JUMPI DUP3 SWAP1 SUB PUSH1 0x1F AND DUP3 ADD SWAP2 JUMPDEST POP POP POP SWAP2 DUP4 MSTORE POP POP PUSH1 0x3 DUP3 DUP2 ADD SLOAD PUSH1 0x20 DUP1 DUP5 ADD SWAP2 SWAP1 SWAP2 MSTORE PUSH1 0x4 DUP5 ADD SLOAD PUSH1 0x40 DUP1 DUP6 ADD SWAP2 SWAP1 SWAP2 MSTORE PUSH1 0x5 DUP6 ADD SLOAD PUSH1 0x1 PUSH1 0x1 PUSH1 0xA0 SHL SUB SWAP1 DUP2 AND PUSH1 0x60 DUP7 ADD MSTORE PUSH1 0x6 SWAP1 SWAP6 ADD SLOAD SWAP1 SWAP5 AND PUSH1 0x80 SWAP1 SWAP4 ADD SWAP3 SWAP1 SWAP3 MSTORE SWAP3 DUP5 MSTORE DUP2 MLOAD DUP1 DUP3 ADD SWAP1 SWAP3 MSTORE PUSH1 0xD DUP6 ADD DUP1 SLOAD SWAP5 SWAP1 SWAP2 ADD SWAP4 SWAP2 SWAP3 SWAP1 SWAP2 DUP4 SWAP2 PUSH1 0xFF SWAP1 SWAP2 AND SWAP1 DUP2 GT ISZERO PUSH3 0xC2C JUMPI INVALID JUMPDEST PUSH1 0x3 DUP2 GT ISZERO PUSH3 0xC38 JUMPI INVALID JUMPDEST SWAP1 MSTORE POP DUP2 MSTORE PUSH1 0x40 DUP1 MLOAD PUSH1 0x80 DUP2 ADD DUP3 MSTORE PUSH1 0xE DUP5 ADD DUP1 SLOAD DUP3 MSTORE PUSH1 0xF DUP6 ADD DUP1 SLOAD DUP5 MLOAD PUSH1 0x20 PUSH1 0x2 PUSH1 0x1 DUP5 AND ISZERO PUSH2 0x100 MUL PUSH1 0x0 NOT ADD SWAP1 SWAP4 AND SWAP3 SWAP1 SWAP3 DIV PUSH1 0x1F DUP2 ADD DUP4 SWAP1 DIV DUP4 MUL DUP3 ADD DUP4 ADD SWAP1 SWAP7 MSTORE DUP6 DUP2 MSTORE SWAP6 DUP2 ADD SWAP6 SWAP4 SWAP5 SWAP3 SWAP4 DUP2 DUP7 ADD SWAP4 SWAP1 SWAP3 SWAP2 DUP4 ADD DUP3 DUP3 DUP1 ISZERO PUSH3 0xCE6 JUMPI DUP1 PUSH1 0x1F LT PUSH3 0xCBA JUMPI PUSH2 0x100 DUP1 DUP4 SLOAD DIV MUL DUP4 MSTORE SWAP2 PUSH1 0x20 ADD SWAP2 PUSH3 0xCE6 JUMP JUMPDEST DUP3 ADD SWAP2 SWAP1 PUSH1 0x0 MSTORE PUSH1 0x20 PUSH1 0x0 KECCAK256 SWAP1 JUMPDEST DUP2 SLOAD DUP2 MSTORE SWAP1 PUSH1 0x1 ADD SWAP1 PUSH1 0x20 ADD DUP1 DUP4 GT PUSH3 0xCC8 JUMPI DUP3 SWAP1 SUB PUSH1 0x1F AND DUP3 ADD SWAP2 JUMPDEST POP POP POP SWAP2 DUP4 MSTORE POP POP PUSH1 0x2 DUP3 ADD SLOAD PUSH1 0x20 DUP1 DUP4 ADD SWAP2 SWAP1 SWAP2 MSTORE PUSH1 0x3 SWAP1 SWAP3 ADD SLOAD PUSH1 0x40 SWAP2 DUP3 ADD MSTORE SWAP2 DUP4 MSTORE PUSH1 0x12 DUP5 ADD SLOAD SWAP1 DUP4 ADD MSTORE PUSH1 0x13 SWAP1 SWAP3 ADD SLOAD PUSH1 0x1 PUSH1 0x1 PUSH1 0xA0 SHL SUB AND SWAP2 ADD MSTORE DUP1 MLOAD MLOAD SWAP1 SWAP2 POP ISZERO PUSH3 0xD4C JUMPI PUSH1 0x40 MLOAD PUSH3 0x461BCD PUSH1 0xE5 SHL DUP2 MSTORE PUSH1 0x4 ADD PUSH3 0x2B1 SWAP1 PUSH3 0x44AD JUMP JUMPDEST PUSH3 0xD56 PUSH3 0x2B8D JUMP JUMPDEST PUSH1 0x1 SLOAD DUP7 MLOAD PUSH1 0x40 MLOAD PUSH4 0xEF7AE53F PUSH1 0xE0 SHL DUP2 MSTORE PUSH1 0x1 PUSH1 0x1 PUSH1 0xA0 SHL SUB SWAP1 SWAP3 AND SWAP2 PUSH4 0xEF7AE53F SWAP2 PUSH3 0xD88 SWAP2 PUSH1 0x4 ADD PUSH3 0x43F8 JUMP JUMPDEST PUSH1 0x0 PUSH1 0x40 MLOAD DUP1 DUP4 SUB DUP2 DUP7 DUP1 EXTCODESIZE ISZERO DUP1 ISZERO PUSH3 0xDA1 JUMPI PUSH1 0x0 DUP1 REVERT JUMPDEST POP GAS STATICCALL ISZERO DUP1 ISZERO PUSH3 0xDB6 JUMPI RETURNDATASIZE PUSH1 0x0 DUP1 RETURNDATACOPY RETURNDATASIZE PUSH1 0x0 REVERT JUMPDEST POP POP POP POP PUSH1 0x40 MLOAD RETURNDATASIZE PUSH1 0x0 DUP3 RETURNDATACOPY PUSH1 0x1F RETURNDATASIZE SWAP1 DUP2 ADD PUSH1 0x1F NOT AND DUP3 ADD PUSH1 0x40 MSTORE PUSH3 0xDE0 SWAP2 SWAP1 DUP2 ADD SWAP1 PUSH3 0x3A6D JUMP JUMPDEST DUP1 MLOAD MLOAD SWAP1 SWAP2 POP PUSH3 0xE05 JUMPI PUSH1 0x40 MLOAD PUSH3 0x461BCD PUSH1 0xE5 SHL DUP2 MSTORE PUSH1 0x4 ADD PUSH3 0x2B1 SWAP1 PUSH3 0x441D JUMP JUMPDEST PUSH3 0xE0F PUSH3 0x2C0B JUMP JUMPDEST POP PUSH1 0x40 DUP2 ADD MLOAD PUSH1 0x0 DUP2 MLOAD PUSH1 0x3 DUP2 GT ISZERO PUSH3 0xE25 JUMPI INVALID JUMPDEST EQ ISZERO PUSH3 0xE46 JUMPI PUSH1 0x40 MLOAD PUSH3 0x461BCD PUSH1 0xE5 SHL DUP2 MSTORE PUSH1 0x4 ADD PUSH3 0x2B1 SWAP1 PUSH3 0x442F JUMP JUMPDEST PUSH1 0x40 MLOAD DUP1 PUSH1 0x20 ADD PUSH1 0x40 MSTORE DUP1 DUP3 PUSH1 0x0 ADD MLOAD PUSH1 0x3 DUP2 GT ISZERO PUSH3 0xE62 JUMPI INVALID JUMPDEST SWAP1 MSTORE PUSH2 0x100 DUP9 ADD MSTORE PUSH3 0xE74 PUSH3 0x2C2D JUMP JUMPDEST POP PUSH1 0x60 DUP3 ADD MLOAD PUSH1 0x0 DUP2 MLOAD PUSH1 0x3 DUP2 GT ISZERO PUSH3 0xE8A JUMPI INVALID JUMPDEST EQ ISZERO PUSH3 0xEAB JUMPI PUSH1 0x40 MLOAD PUSH3 0x461BCD PUSH1 0xE5 SHL DUP2 MSTORE PUSH1 0x4 ADD PUSH3 0x2B1 SWAP1 PUSH3 0x44E3 JUMP JUMPDEST PUSH2 0x120 DUP9 ADD MLOAD PUSH1 0x40 ADD MLOAD TIMESTAMP SWAP1 PUSH1 0x0 SWAP1 PUSH3 0xF58 JUMPI PUSH1 0xA0 DUP4 ADD MLOAD PUSH1 0x40 MLOAD PUSH4 0x1BD95155 PUSH1 0xE0 SHL DUP2 MSTORE PUSH20 0x0 SWAP2 PUSH4 0x1BD95155 SWAP2 PUSH3 0xEFC SWAP2 SWAP1 PUSH1 0x4 ADD PUSH3 0x43F8 JUMP JUMPDEST PUSH1 0x20 PUSH1 0x40 MLOAD DUP1 DUP4 SUB DUP2 DUP7 DUP1 EXTCODESIZE ISZERO DUP1 ISZERO PUSH3 0xF15 JUMPI PUSH1 0x0 DUP1 REVERT JUMPDEST POP GAS DELEGATECALL ISZERO DUP1 ISZERO PUSH3 0xF2A JUMPI RETURNDATASIZE PUSH1 0x0 DUP1 RETURNDATACOPY RETURNDATASIZE PUSH1 0x0 REVERT JUMPDEST POP POP POP POP PUSH1 0x40 MLOAD RETURNDATASIZE PUSH1 0x1F NOT PUSH1 0x1F DUP3 ADD AND DUP3 ADD DUP1 PUSH1 0x40 MSTORE POP PUSH3 0xF50 SWAP2 SWAP1 DUP2 ADD SWAP1 PUSH3 0x3ADD JUMP JUMPDEST SWAP1 POP PUSH3 0xF64 JUMP JUMPDEST POP PUSH2 0x120 DUP10 ADD MLOAD PUSH1 0x40 ADD MLOAD JUMPDEST PUSH1 0x40 MLOAD DUP1 PUSH1 0x80 ADD PUSH1 0x40 MSTORE DUP1 DUP5 PUSH1 0x60 ADD MLOAD DUP2 MSTORE PUSH1 0x20 ADD DUP5 PUSH1 0x80 ADD MLOAD DUP2 MSTORE PUSH1 0x20 ADD DUP3 DUP2 MSTORE PUSH1 0x20 ADD DUP3 PUSH2 0xE10 MUL DUP5 ADD DUP2 MSTORE POP DUP11 PUSH2 0x120 ADD DUP2 SWAP1 MSTORE POP PUSH1 0x0 PUSH3 0xFB1 DUP7 PUSH1 0x20 ADD MLOAD PUSH1 0x40 ADD MLOAD PUSH3 0x2941 JUMP JUMPDEST PUSH1 0xE0 DUP13 ADD MLOAD PUSH1 0x1 PUSH1 0x1 PUSH1 0xA0 SHL SUB DUP3 AND PUSH1 0xC0 SWAP1 SWAP2 ADD MSTORE SWAP1 POP PUSH1 0x60 PUSH3 0xFD5 DUP13 PUSH3 0x2AF2 JUMP JUMPDEST SWAP1 POP DUP1 PUSH1 0x40 MLOAD PUSH3 0xFE6 SWAP1 PUSH3 0x2C6B JUMP JUMPDEST PUSH3 0xFF2 SWAP2 SWAP1 PUSH3 0x43F8 JUMP JUMPDEST PUSH1 0x40 MLOAD DUP1 SWAP2 SUB SWAP1 PUSH1 0x0 CREATE DUP1 ISZERO DUP1 ISZERO PUSH3 0x100F JUMPI RETURNDATASIZE PUSH1 0x0 DUP1 RETURNDATACOPY RETURNDATASIZE PUSH1 0x0 REVERT JUMPDEST POP PUSH1 0xE0 DUP1 DUP15 ADD MLOAD PUSH1 0x1 PUSH1 0x1 PUSH1 0xA0 SHL SUB SWAP1 SWAP3 AND SWAP2 ADD MSTORE DUP11 MLOAD PUSH1 0x0 JUMPDEST DUP2 DUP2 LT ISZERO PUSH3 0x10BF JUMPI PUSH1 0x3 DUP4 PUSH1 0x40 MLOAD PUSH3 0x1044 SWAP2 SWAP1 PUSH3 0x4345 JUMP JUMPDEST SWAP1 DUP2 MSTORE PUSH1 0x20 ADD PUSH1 0x40 MLOAD DUP1 SWAP2 SUB SWAP1 KECCAK256 DUP14 DUP3 DUP2 MLOAD DUP2 LT PUSH3 0x105F JUMPI INVALID JUMPDEST PUSH1 0x20 SWAP1 DUP2 MUL SWAP2 SWAP1 SWAP2 ADD DUP2 ADD MLOAD DUP3 SLOAD PUSH1 0x1 DUP2 DUP2 ADD DUP1 DUP7 SSTORE PUSH1 0x0 SWAP6 DUP7 MSTORE SWAP5 DUP5 SWAP1 KECCAK256 DUP4 MLOAD PUSH1 0x3 SWAP1 SWAP4 MUL ADD SWAP2 DUP3 SSTORE DUP3 DUP5 ADD MLOAD SWAP1 DUP3 ADD SSTORE PUSH1 0x40 DUP3 ADD MLOAD DUP1 MLOAD SWAP3 SWAP4 SWAP2 SWAP3 PUSH3 0x10AE SWAP3 PUSH1 0x2 DUP6 ADD SWAP3 ADD SWAP1 PUSH3 0x2C79 JUMP JUMPDEST POP POP PUSH1 0x1 SWAP1 SWAP3 ADD SWAP2 POP PUSH3 0x1029 SWAP1 POP JUMP JUMPDEST POP PUSH2 0x160 DUP14 ADD MLOAD PUSH1 0x1 PUSH1 0x1 PUSH1 0xA0 SHL SUB AND PUSH3 0x10DC JUMPI CALLER PUSH2 0x160 DUP15 ADD MSTORE JUMPDEST PUSH2 0x140 DUP14 ADD DUP6 SWAP1 MSTORE PUSH1 0x20 DUP14 ADD MLOAD PUSH1 0x40 MLOAD DUP15 SWAP2 DUP13 SWAP2 PUSH3 0x10FC SWAP2 SWAP1 PUSH3 0x4345 JUMP JUMPDEST SWAP1 DUP2 MSTORE PUSH1 0x20 ADD PUSH1 0x40 MLOAD DUP1 SWAP2 SUB SWAP1 KECCAK256 PUSH1 0x0 DUP3 ADD MLOAD DUP2 PUSH1 0x0 ADD SWAP1 DUP1 MLOAD SWAP1 PUSH1 0x20 ADD SWAP1 PUSH3 0x1128 SWAP3 SWAP2 SWAP1 PUSH3 0x2C79 JUMP JUMPDEST POP PUSH1 0x20 DUP3 DUP2 ADD MLOAD DUP1 MLOAD PUSH3 0x1143 SWAP3 PUSH1 0x1 DUP6 ADD SWAP3 ADD SWAP1 PUSH3 0x2C79 JUMP JUMPDEST POP PUSH1 0x40 DUP3 ADD MLOAD DUP1 MLOAD PUSH3 0x1161 SWAP2 PUSH1 0x2 DUP5 ADD SWAP2 PUSH1 0x20 SWAP1 SWAP2 ADD SWAP1 PUSH3 0x2C79 JUMP JUMPDEST POP PUSH1 0x60 DUP3 ADD MLOAD DUP2 PUSH1 0x3 ADD PUSH1 0x0 PUSH2 0x100 EXP DUP2 SLOAD DUP2 PUSH1 0xFF MUL NOT AND SWAP1 DUP4 PUSH1 0x3 DUP2 GT ISZERO PUSH3 0x1187 JUMPI INVALID JUMPDEST MUL OR SWAP1 SSTORE POP PUSH1 0x80 DUP3 ADD MLOAD PUSH1 0x3 DUP3 ADD DUP1 SLOAD PUSH2 0xFF00 NOT AND PUSH2 0x100 DUP4 PUSH1 0x6 DUP2 GT ISZERO PUSH3 0x11AC JUMPI INVALID JUMPDEST MUL OR SWAP1 SSTORE POP PUSH1 0xA0 DUP3 ADD MLOAD DUP1 MLOAD PUSH3 0x11CE SWAP2 PUSH1 0x4 DUP5 ADD SWAP2 PUSH1 0x20 SWAP1 SWAP2 ADD SWAP1 PUSH3 0x2C79 JUMP JUMPDEST POP PUSH1 0xC0 DUP3 ADD MLOAD DUP1 MLOAD PUSH3 0x11EC SWAP2 PUSH1 0x5 DUP5 ADD SWAP2 PUSH1 0x20 SWAP1 SWAP2 ADD SWAP1 PUSH3 0x2C79 JUMP JUMPDEST POP PUSH1 0xE0 DUP3 ADD MLOAD DUP1 MLOAD PUSH1 0x6 DUP4 ADD DUP1 SLOAD PUSH1 0x1 PUSH1 0x1 PUSH1 0xA0 SHL SUB NOT AND PUSH1 0x1 PUSH1 0x1 PUSH1 0xA0 SHL SUB SWAP1 SWAP3 AND SWAP2 SWAP1 SWAP2 OR DUP1 DUP3 SSTORE PUSH1 0x20 DUP4 ADD MLOAD SWAP1 DUP3 SWAP1 PUSH1 0xFF PUSH1 0xA0 SHL NOT AND PUSH1 0x1 PUSH1 0xA0 SHL DUP4 PUSH1 0x1 DUP2 GT ISZERO PUSH3 0x1237 JUMPI INVALID JUMPDEST MUL OR SWAP1 SSTORE POP PUSH1 0x40 DUP3 ADD MLOAD PUSH1 0x1 DUP3 ADD SSTORE PUSH1 0x60 DUP3 ADD MLOAD DUP1 MLOAD PUSH3 0x1263 SWAP2 PUSH1 0x2 DUP5 ADD SWAP2 PUSH1 0x20 SWAP1 SWAP2 ADD SWAP1 PUSH3 0x2C79 JUMP JUMPDEST POP PUSH1 0x80 DUP3 ADD MLOAD PUSH1 0x3 DUP3 DUP2 ADD SWAP2 SWAP1 SWAP2 SSTORE PUSH1 0xA0 DUP4 ADD MLOAD PUSH1 0x4 DUP4 ADD SSTORE PUSH1 0xC0 DUP4 ADD MLOAD PUSH1 0x5 DUP4 ADD DUP1 SLOAD PUSH1 0x1 PUSH1 0x1 PUSH1 0xA0 SHL SUB NOT SWAP1 DUP2 AND PUSH1 0x1 PUSH1 0x1 PUSH1 0xA0 SHL SUB SWAP4 DUP5 AND OR SWAP1 SWAP2 SSTORE PUSH1 0xE0 SWAP1 SWAP5 ADD MLOAD PUSH1 0x6 SWAP1 SWAP4 ADD DUP1 SLOAD SWAP1 SWAP5 AND SWAP3 AND SWAP2 SWAP1 SWAP2 OR SWAP1 SWAP2 SSTORE PUSH2 0x100 DUP4 ADD MLOAD DUP1 MLOAD PUSH1 0xD DUP5 ADD DUP1 SLOAD SWAP3 SWAP4 SWAP1 SWAP3 DUP4 SWAP2 PUSH1 0xFF NOT SWAP1 SWAP2 AND SWAP1 PUSH1 0x1 SWAP1 DUP5 SWAP1 DUP2 GT ISZERO PUSH3 0x12E5 JUMPI INVALID JUMPDEST MUL OR SWAP1 SSTORE POP POP POP PUSH2 0x120 DUP3 ADD MLOAD DUP1 MLOAD PUSH1 0xE DUP4 ADD SWAP1 DUP2 SSTORE PUSH1 0x20 DUP1 DUP4 ADD MLOAD DUP1 MLOAD PUSH3 0x1315 SWAP3 PUSH1 0xF DUP8 ADD SWAP3 ADD SWAP1 PUSH3 0x2C79 JUMP JUMPDEST POP PUSH1 0x40 DUP3 DUP2 ADD MLOAD PUSH1 0x2 DUP4 ADD SSTORE PUSH1 0x60 SWAP1 SWAP3 ADD MLOAD PUSH1 0x3 SWAP1 SWAP2 ADD SSTORE PUSH2 0x140 DUP4 ADD MLOAD PUSH1 0x12 DUP4 ADD SSTORE PUSH2 0x160 SWAP1 SWAP3 ADD MLOAD PUSH1 0x13 SWAP1 SWAP2 ADD DUP1 SLOAD PUSH1 0x1 PUSH1 0x1 PUSH1 0xA0 SHL SUB NOT AND PUSH1 0x1 PUSH1 0x1 PUSH1 0xA0 SHL SUB SWAP1 SWAP3 AND SWAP2 SWAP1 SWAP2 OR SWAP1 SSTORE DUP14 MLOAD SWAP1 MLOAD PUSH1 0x4 SWAP2 PUSH3 0x1373 SWAP2 PUSH3 0x4345 JUMP JUMPDEST SWAP1 DUP2 MSTORE PUSH1 0x40 MLOAD SWAP1 DUP2 SWAP1 SUB PUSH1 0x20 SWAP1 DUP2 ADD DUP3 KECCAK256 DUP1 SLOAD PUSH1 0x1 ADD SWAP1 SSTORE DUP15 ADD MLOAD PUSH3 0x1399 SWAP2 PUSH3 0x4345 JUMP JUMPDEST PUSH1 0x40 MLOAD DUP1 SWAP2 SUB SWAP1 KECCAK256 PUSH32 0x74B2E2A4D866C513222FE0222FEEF41E081EC60E6879885DD70B6B7A305C3C1E DUP15 DUP15 PUSH1 0x40 MLOAD PUSH3 0x13D4 SWAP3 SWAP2 SWAP1 PUSH3 0x451A JUMP JUMPDEST PUSH1 0x40 MLOAD DUP1 SWAP2 SUB SWAP1 LOG2 DUP13 SWAP11 POP POP POP POP POP POP POP POP POP POP POP JUMPDEST SWAP3 SWAP2 POP POP JUMP JUMPDEST PUSH3 0x13FA PUSH3 0x2B08 JUMP JUMPDEST PUSH1 0x20 DUP4 ADD MLOAD MLOAD PUSH3 0x141F JUMPI PUSH1 0x40 MLOAD PUSH3 0x461BCD PUSH1 0xE5 SHL DUP2 MSTORE PUSH1 0x4 ADD PUSH3 0x2B1 SWAP1 PUSH3 0x44BF JUMP JUMPDEST DUP3 MLOAD MLOAD PUSH3 0x1441 JUMPI PUSH1 0x40 MLOAD PUSH3 0x461BCD PUSH1 0xE5 SHL DUP2 MSTORE PUSH1 0x4 ADD PUSH3 0x2B1 SWAP1 PUSH3 0x4441 JUMP JUMPDEST PUSH1 0x0 PUSH1 0x2 DUP5 PUSH1 0x0 ADD MLOAD PUSH1 0x40 MLOAD PUSH3 0x1459 SWAP2 SWAP1 PUSH3 0x4345 JUMP JUMPDEST SWAP1 DUP2 MSTORE PUSH1 0x20 ADD PUSH1 0x40 MLOAD DUP1 SWAP2 SUB SWAP1 KECCAK256 SWAP1 POP DUP4 DUP2 DUP6 PUSH1 0x20 ADD MLOAD PUSH1 0x40 MLOAD PUSH3 0x147F SWAP2 SWAP1 PUSH3 0x4345 JUMP JUMPDEST SWAP1 DUP2 MSTORE PUSH1 0x20 ADD PUSH1 0x40 MLOAD DUP1 SWAP2 SUB SWAP1 KECCAK256 PUSH1 0x0 DUP3 ADD MLOAD DUP2 PUSH1 0x0 ADD SWAP1 DUP1 MLOAD SWAP1 PUSH1 0x20 ADD SWAP1 PUSH3 0x14AB SWAP3 SWAP2 SWAP1 PUSH3 0x2C79 JUMP JUMPDEST POP PUSH1 0x20 DUP3 DUP2 ADD MLOAD DUP1 MLOAD PUSH3 0x14C6 SWAP3 PUSH1 0x1 DUP6 ADD SWAP3 ADD SWAP1 PUSH3 0x2C79 JUMP JUMPDEST POP PUSH1 0x40 DUP3 ADD MLOAD DUP1 MLOAD PUSH3 0x14E4 SWAP2 PUSH1 0x2 DUP5 ADD SWAP2 PUSH1 0x20 SWAP1 SWAP2 ADD SWAP1 PUSH3 0x2C79 JUMP JUMPDEST POP PUSH1 0x60 DUP3 ADD MLOAD DUP2 PUSH1 0x3 ADD PUSH1 0x0 PUSH2 0x100 EXP DUP2 SLOAD DUP2 PUSH1 0xFF MUL NOT AND SWAP1 DUP4 PUSH1 0x3 DUP2 GT ISZERO PUSH3 0x150A JUMPI INVALID JUMPDEST MUL OR SWAP1 SSTORE POP PUSH1 0x80 DUP3 ADD MLOAD PUSH1 0x3 DUP3 ADD DUP1 SLOAD PUSH2 0xFF00 NOT AND PUSH2 0x100 DUP4 PUSH1 0x6 DUP2 GT ISZERO PUSH3 0x152F JUMPI INVALID JUMPDEST MUL OR SWAP1 SSTORE POP PUSH1 0xA0 DUP3 ADD MLOAD DUP1 MLOAD PUSH3 0x1551 SWAP2 PUSH1 0x4 DUP5 ADD SWAP2 PUSH1 0x20 SWAP1 SWAP2 ADD SWAP1 PUSH3 0x2C79 JUMP JUMPDEST POP PUSH1 0xC0 DUP3 ADD MLOAD DUP1 MLOAD PUSH3 0x156F SWAP2 PUSH1 0x5 DUP5 ADD SWAP2 PUSH1 0x20 SWAP1 SWAP2 ADD SWAP1 PUSH3 0x2C79 JUMP JUMPDEST POP PUSH1 0xE0 DUP3 ADD MLOAD DUP1 MLOAD PUSH1 0x6 DUP4 ADD DUP1 SLOAD PUSH1 0x1 PUSH1 0x1 PUSH1 0xA0 SHL SUB NOT AND PUSH1 0x1 PUSH1 0x1 PUSH1 0xA0 SHL SUB SWAP1 SWAP3 AND SWAP2 SWAP1 SWAP2 OR DUP1 DUP3 SSTORE PUSH1 0x20 DUP4 ADD MLOAD SWAP1 DUP3 SWAP1 PUSH1 0xFF PUSH1 0xA0 SHL NOT AND PUSH1 0x1 PUSH1 0xA0 SHL DUP4 PUSH1 0x1 DUP2 GT ISZERO PUSH3 0x15BA JUMPI INVALID JUMPDEST MUL OR SWAP1 SSTORE POP PUSH1 0x40 DUP3 ADD MLOAD PUSH1 0x1 DUP3 ADD SSTORE PUSH1 0x60 DUP3 ADD MLOAD DUP1 MLOAD PUSH3 0x15E6 SWAP2 PUSH1 0x2 DUP5 ADD SWAP2 PUSH1 0x20 SWAP1 SWAP2 ADD SWAP1 PUSH3 0x2C79 JUMP JUMPDEST POP PUSH1 0x80 DUP3 ADD MLOAD PUSH1 0x3 DUP3 DUP2 ADD SWAP2 SWAP1 SWAP2 SSTORE PUSH1 0xA0 DUP4 ADD MLOAD PUSH1 0x4 DUP4 ADD SSTORE PUSH1 0xC0 DUP4 ADD MLOAD PUSH1 0x5 DUP4 ADD DUP1 SLOAD PUSH1 0x1 PUSH1 0x1 PUSH1 0xA0 SHL SUB NOT SWAP1 DUP2 AND PUSH1 0x1 PUSH1 0x1 PUSH1 0xA0 SHL SUB SWAP4 DUP5 AND OR SWAP1 SWAP2 SSTORE PUSH1 0xE0 SWAP1 SWAP5 ADD MLOAD PUSH1 0x6 SWAP1 SWAP4 ADD DUP1 SLOAD SWAP1 SWAP5 AND SWAP3 AND SWAP2 SWAP1 SWAP2 OR SWAP1 SWAP2 SSTORE PUSH2 0x100 DUP4 ADD MLOAD DUP1 MLOAD PUSH1 0xD DUP5 ADD DUP1 SLOAD SWAP3 SWAP4 SWAP1 SWAP3 DUP4 SWAP2 PUSH1 0xFF NOT SWAP1 SWAP2 AND SWAP1 PUSH1 0x1 SWAP1 DUP5 SWAP1 DUP2 GT ISZERO PUSH3 0x1668 JUMPI INVALID JUMPDEST MUL OR SWAP1 SSTORE POP POP POP PUSH2 0x120 DUP3 ADD MLOAD DUP1 MLOAD PUSH1 0xE DUP4 ADD SWAP1 DUP2 SSTORE PUSH1 0x20 DUP1 DUP4 ADD MLOAD DUP1 MLOAD PUSH3 0x1698 SWAP3 PUSH1 0xF DUP8 ADD SWAP3 ADD SWAP1 PUSH3 0x2C79 JUMP JUMPDEST POP PUSH1 0x40 DUP3 ADD MLOAD PUSH1 0x2 DUP3 ADD SSTORE PUSH1 0x60 SWAP2 DUP3 ADD MLOAD PUSH1 0x3 SWAP1 SWAP2 ADD SSTORE PUSH2 0x140 DUP4 ADD MLOAD PUSH1 0x12 DUP4 ADD SSTORE PUSH2 0x160 SWAP1 SWAP3 ADD MLOAD PUSH1 0x13 SWAP1 SWAP2 ADD DUP1 SLOAD PUSH1 0x1 PUSH1 0x1 PUSH1 0xA0 SHL SUB NOT AND PUSH1 0x1 PUSH1 0x1 PUSH1 0xA0 SHL SUB SWAP1 SWAP3 AND SWAP2 SWAP1 SWAP2 OR SWAP1 SSTORE PUSH3 0x16EE DUP6 PUSH3 0x2AF2 JUMP JUMPDEST DUP5 MLOAD SWAP1 SWAP2 POP PUSH1 0x0 JUMPDEST DUP2 DUP2 LT ISZERO PUSH3 0x178C JUMPI PUSH1 0x3 DUP4 PUSH1 0x40 MLOAD PUSH3 0x1711 SWAP2 SWAP1 PUSH3 0x4345 JUMP JUMPDEST SWAP1 DUP2 MSTORE PUSH1 0x20 ADD PUSH1 0x40 MLOAD DUP1 SWAP2 SUB SWAP1 KECCAK256 DUP7 DUP3 DUP2 MLOAD DUP2 LT PUSH3 0x172C JUMPI INVALID JUMPDEST PUSH1 0x20 SWAP1 DUP2 MUL SWAP2 SWAP1 SWAP2 ADD DUP2 ADD MLOAD DUP3 SLOAD PUSH1 0x1 DUP2 DUP2 ADD DUP1 DUP7 SSTORE PUSH1 0x0 SWAP6 DUP7 MSTORE SWAP5 DUP5 SWAP1 KECCAK256 DUP4 MLOAD PUSH1 0x3 SWAP1 SWAP4 MUL ADD SWAP2 DUP3 SSTORE DUP3 DUP5 ADD MLOAD SWAP1 DUP3 ADD SSTORE PUSH1 0x40 DUP3 ADD MLOAD DUP1 MLOAD SWAP3 SWAP4 SWAP2 SWAP3 PUSH3 0x177B SWAP3 PUSH1 0x2 DUP6 ADD SWAP3 ADD SWAP1 PUSH3 0x2C79 JUMP JUMPDEST POP POP PUSH1 0x1 SWAP1 SWAP3 ADD SWAP2 POP PUSH3 0x16F6 SWAP1 POP JUMP JUMPDEST POP DUP6 PUSH1 0x20 ADD MLOAD PUSH1 0x40 MLOAD PUSH3 0x17A1 SWAP2 SWAP1 PUSH3 0x4345 JUMP JUMPDEST PUSH1 0x40 MLOAD DUP1 SWAP2 SUB SWAP1 KECCAK256 PUSH32 0x74B2E2A4D866C513222FE0222FEEF41E081EC60E6879885DD70B6B7A305C3C1E DUP8 DUP8 PUSH1 0x40 MLOAD PUSH3 0x17DC SWAP3 SWAP2 SWAP1 PUSH3 0x451A JUMP JUMPDEST PUSH1 0x40 MLOAD DUP1 SWAP2 SUB SWAP1 LOG2 POP SWAP4 SWAP5 SWAP4 POP POP POP POP JUMP JUMPDEST PUSH3 0x17F8 PUSH3 0x2B08 JUMP JUMPDEST PUSH1 0x60 PUSH3 0x1804 PUSH3 0x2B08 JUMP JUMPDEST PUSH3 0x1879 DUP8 DUP8 DUP1 DUP1 PUSH1 0x1F ADD PUSH1 0x20 DUP1 SWAP2 DIV MUL PUSH1 0x20 ADD PUSH1 0x40 MLOAD SWAP1 DUP2 ADD PUSH1 0x40 MSTORE DUP1 SWAP4 SWAP3 SWAP2 SWAP1 DUP2 DUP2 MSTORE PUSH1 0x20 ADD DUP4 DUP4 DUP1 DUP3 DUP5 CALLDATACOPY PUSH1 0x0 SWAP3 ADD SWAP2 SWAP1 SWAP2 MSTORE POP POP PUSH1 0x40 DUP1 MLOAD PUSH1 0x20 PUSH1 0x1F DUP12 ADD DUP2 SWAP1 DIV DUP2 MUL DUP3 ADD DUP2 ADD SWAP1 SWAP3 MSTORE DUP10 DUP2 MSTORE SWAP3 POP DUP10 SWAP2 POP DUP9 SWAP1 DUP2 SWAP1 DUP5 ADD DUP4 DUP3 DUP1 DUP3 DUP5 CALLDATACOPY PUSH1 0x0 SWAP3 ADD SWAP2 SWAP1 SWAP2 MSTORE POP PUSH3 0x22AD SWAP3 POP POP POP JUMP JUMPDEST SWAP1 POP PUSH1 0x60 PUSH3 0x1888 DUP3 PUSH3 0x2AF2 JUMP JUMPDEST SWAP1 POP DUP2 PUSH1 0x3 DUP3 PUSH1 0x40 MLOAD PUSH3 0x189D SWAP2 SWAP1 PUSH3 0x4345 JUMP JUMPDEST SWAP1 DUP2 MSTORE PUSH1 0x20 ADD PUSH1 0x40 MLOAD DUP1 SWAP2 SUB SWAP1 KECCAK256 DUP1 DUP1 SLOAD DUP1 PUSH1 0x20 MUL PUSH1 0x20 ADD PUSH1 0x40 MLOAD SWAP1 DUP2 ADD PUSH1 0x40 MSTORE DUP1 SWAP3 SWAP2 SWAP1 DUP2 DUP2 MSTORE PUSH1 0x20 ADD PUSH1 0x0 SWAP1 JUMPDEST DUP3 DUP3 LT ISZERO PUSH3 0x19BA JUMPI DUP4 DUP3 SWAP1 PUSH1 0x0 MSTORE PUSH1 0x20 PUSH1 0x0 KECCAK256 SWAP1 PUSH1 0x3 MUL ADD PUSH1 0x40 MLOAD DUP1 PUSH1 0x60 ADD PUSH1 0x40 MSTORE SWAP1 DUP2 PUSH1 0x0 DUP3 ADD SLOAD DUP2 MSTORE PUSH1 0x20 ADD PUSH1 0x1 DUP3 ADD SLOAD DUP2 MSTORE PUSH1 0x20 ADD PUSH1 0x2 DUP3 ADD DUP1 SLOAD PUSH1 0x1 DUP2 PUSH1 0x1 AND ISZERO PUSH2 0x100 MUL SUB AND PUSH1 0x2 SWAP1 DIV DUP1 PUSH1 0x1F ADD PUSH1 0x20 DUP1 SWAP2 DIV MUL PUSH1 0x20 ADD PUSH1 0x40 MLOAD SWAP1 DUP2 ADD PUSH1 0x40 MSTORE DUP1 SWAP3 SWAP2 SWAP1 DUP2 DUP2 MSTORE PUSH1 0x20 ADD DUP3 DUP1 SLOAD PUSH1 0x1 DUP2 PUSH1 0x1 AND ISZERO PUSH2 0x100 MUL SUB AND PUSH1 0x2 SWAP1 DIV DUP1 ISZERO PUSH3 0x19A1 JUMPI DUP1 PUSH1 0x1F LT PUSH3 0x1975 JUMPI PUSH2 0x100 DUP1 DUP4 SLOAD DIV MUL DUP4 MSTORE SWAP2 PUSH1 0x20 ADD SWAP2 PUSH3 0x19A1 JUMP JUMPDEST DUP3 ADD SWAP2 SWAP1 PUSH1 0x0 MSTORE PUSH1 0x20 PUSH1 0x0 KECCAK256 SWAP1 JUMPDEST DUP2 SLOAD DUP2 MSTORE SWAP1 PUSH1 0x1 ADD SWAP1 PUSH1 0x20 ADD DUP1 DUP4 GT PUSH3 0x1983 JUMPI DUP3 SWAP1 SUB PUSH1 0x1F AND DUP3 ADD SWAP2 JUMPDEST POP POP POP POP POP DUP2 MSTORE POP POP DUP2 MSTORE PUSH1 0x20 ADD SWAP1 PUSH1 0x1 ADD SWAP1 PUSH3 0x18CC JUMP JUMPDEST POP POP POP POP SWAP1 POP SWAP4 POP SWAP4 POP POP POP SWAP5 POP SWAP5 SWAP3 POP POP POP JUMP JUMPDEST PUSH1 0x0 PUSH3 0x19DB PUSH3 0x2B08 JUMP JUMPDEST PUSH3 0x1A50 DUP7 DUP7 DUP1 DUP1 PUSH1 0x1F ADD PUSH1 0x20 DUP1 SWAP2 DIV MUL PUSH1 0x20 ADD PUSH1 0x40 MLOAD SWAP1 DUP2 ADD PUSH1 0x40 MSTORE DUP1 SWAP4 SWAP3 SWAP2 SWAP1 DUP2 DUP2 MSTORE PUSH1 0x20 ADD DUP4 DUP4 DUP1 DUP3 DUP5 CALLDATACOPY PUSH1 0x0 SWAP3 ADD SWAP2 SWAP1 SWAP2 MSTORE POP POP PUSH1 0x40 DUP1 MLOAD PUSH1 0x20 PUSH1 0x1F DUP11 ADD DUP2 SWAP1 DIV DUP2 MUL DUP3 ADD DUP2 ADD SWAP1 SWAP3 MSTORE DUP9 DUP2 MSTORE SWAP3 POP DUP9 SWAP2 POP DUP8 SWAP1 DUP2 SWAP1 DUP5 ADD DUP4 DUP3 DUP1 DUP3 DUP5 CALLDATACOPY PUSH1 0x0 SWAP3 ADD SWAP2 SWAP1 SWAP2 MSTORE POP PUSH3 0x22AD SWAP3 POP POP POP JUMP JUMPDEST DUP1 MLOAD MLOAD SWAP1 SWAP2 POP PUSH3 0x1A75 JUMPI PUSH1 0x40 MLOAD PUSH3 0x461BCD PUSH1 0xE5 SHL DUP2 MSTORE PUSH1 0x4 ADD PUSH3 0x2B1 SWAP1 PUSH3 0x449B JUMP JUMPDEST PUSH1 0x60 ADD MLOAD SWAP1 POP JUMPDEST SWAP5 SWAP4 POP POP POP POP JUMP JUMPDEST PUSH3 0x1A8E PUSH3 0x2B08 JUMP JUMPDEST PUSH3 0x1AA2 DUP3 PUSH1 0x0 ADD MLOAD DUP4 PUSH1 0x20 ADD MLOAD PUSH3 0x22AD JUMP JUMPDEST DUP3 MLOAD MLOAD SWAP1 SWAP2 POP PUSH3 0x1AC7 JUMPI PUSH1 0x40 MLOAD PUSH3 0x461BCD PUSH1 0xE5 SHL DUP2 MSTORE PUSH1 0x4 ADD PUSH3 0x2B1 SWAP1 PUSH3 0x449B JUMP JUMPDEST PUSH1 0x0 DUP2 PUSH1 0x60 ADD MLOAD PUSH1 0x3 DUP2 GT ISZERO PUSH3 0x1ADA JUMPI INVALID JUMPDEST EQ PUSH3 0x1AFA JUMPI PUSH1 0x40 MLOAD PUSH3 0x461BCD PUSH1 0xE5 SHL DUP2 MSTORE PUSH1 0x4 ADD PUSH3 0x2B1 SWAP1 PUSH3 0x44F5 JUMP JUMPDEST PUSH3 0x1B04 PUSH3 0x2CFE JUMP JUMPDEST POP PUSH2 0x120 DUP2 ADD MLOAD PUSH1 0x60 DUP2 ADD MLOAD TIMESTAMP SWAP1 DUP2 GT ISZERO PUSH3 0x1B34 JUMPI PUSH1 0x40 MLOAD PUSH3 0x461BCD PUSH1 0xE5 SHL DUP2 MSTORE PUSH1 0x4 ADD PUSH3 0x2B1 SWAP1 PUSH3 0x44D1 JUMP JUMPDEST PUSH1 0x0 DUP5 PUSH1 0x80 ADD MLOAD DUP6 PUSH1 0x60 ADD MLOAD ADD GT PUSH3 0x1B61 JUMPI PUSH1 0x40 MLOAD PUSH3 0x461BCD PUSH1 0xE5 SHL DUP2 MSTORE PUSH1 0x4 ADD PUSH3 0x2B1 SWAP1 PUSH3 0x4477 JUMP JUMPDEST PUSH3 0x1B6B PUSH3 0x2B8D JUMP JUMPDEST PUSH1 0x1 SLOAD DUP5 MLOAD PUSH1 0x40 MLOAD PUSH4 0xEF7AE53F PUSH1 0xE0 SHL DUP2 MSTORE PUSH1 0x1 PUSH1 0x1 PUSH1 0xA0 SHL SUB SWAP1 SWAP3 AND SWAP2 PUSH4 0xEF7AE53F SWAP2 PUSH3 0x1B9D SWAP2 PUSH1 0x4 ADD PUSH3 0x43F8 JUMP JUMPDEST PUSH1 0x0 PUSH1 0x40 MLOAD DUP1 DUP4 SUB DUP2 DUP7 DUP1 EXTCODESIZE ISZERO DUP1 ISZERO PUSH3 0x1BB6 JUMPI PUSH1 0x0 DUP1 REVERT JUMPDEST POP GAS STATICCALL ISZERO DUP1 ISZERO PUSH3 0x1BCB JUMPI RETURNDATASIZE PUSH1 0x0 DUP1 RETURNDATACOPY RETURNDATASIZE PUSH1 0x0 REVERT JUMPDEST POP POP POP POP PUSH1 0x40 MLOAD RETURNDATASIZE PUSH1 0x0 DUP3 RETURNDATACOPY PUSH1 0x1F RETURNDATASIZE SWAP1 DUP2 ADD PUSH1 0x1F NOT AND DUP3 ADD PUSH1 0x40 MSTORE PUSH3 0x1BF5 SWAP2 SWAP1 DUP2 ADD SWAP1 PUSH3 0x3A6D JUMP JUMPDEST SWAP1 POP PUSH1 0x0 DUP5 PUSH1 0xE0 ADD MLOAD PUSH1 0xC0 ADD MLOAD SWAP1 POP DUP1 PUSH1 0x1 PUSH1 0x1 PUSH1 0xA0 SHL SUB AND PUSH4 0x23B872DD CALLER DUP8 PUSH1 0xE0 ADD MLOAD PUSH1 0xE0 ADD MLOAD PUSH1 0x1 PUSH1 0x1 PUSH1 0xA0 SHL SUB AND PUSH4 0x38CC4831 PUSH1 0x40 MLOAD DUP2 PUSH4 0xFFFFFFFF AND PUSH1 0xE0 SHL DUP2 MSTORE PUSH1 0x4 ADD PUSH1 0x20 PUSH1 0x40 MLOAD DUP1 DUP4 SUB DUP2 DUP7 DUP1 EXTCODESIZE ISZERO DUP1 ISZERO PUSH3 0x1C56 JUMPI PUSH1 0x0 DUP1 REVERT JUMPDEST POP GAS STATICCALL ISZERO DUP1 ISZERO PUSH3 0x1C6B JUMPI RETURNDATASIZE PUSH1 0x0 DUP1 RETURNDATACOPY RETURNDATASIZE PUSH1 0x0 REVERT JUMPDEST POP POP POP POP PUSH1 0x40 MLOAD RETURNDATASIZE PUSH1 0x1F NOT PUSH1 0x1F DUP3 ADD AND DUP3 ADD DUP1 PUSH1 0x40 MSTORE POP PUSH3 0x1C91 SWAP2 SWAP1 DUP2 ADD SWAP1 PUSH3 0x3876 JUMP JUMPDEST DUP10 PUSH1 0x80 ADD MLOAD DUP11 PUSH1 0x60 ADD MLOAD ADD PUSH1 0x40 MLOAD DUP5 PUSH4 0xFFFFFFFF AND PUSH1 0xE0 SHL DUP2 MSTORE PUSH1 0x4 ADD PUSH3 0x1CBC SWAP4 SWAP3 SWAP2 SWAP1 PUSH3 0x437C JUMP JUMPDEST PUSH1 0x20 PUSH1 0x40 MLOAD DUP1 DUP4 SUB DUP2 PUSH1 0x0 DUP8 DUP1 EXTCODESIZE ISZERO DUP1 ISZERO PUSH3 0x1CD7 JUMPI PUSH1 0x0 DUP1 REVERT JUMPDEST POP GAS CALL ISZERO DUP1 ISZERO PUSH3 0x1CEC JUMPI RETURNDATASIZE PUSH1 0x0 DUP1 RETURNDATACOPY RETURNDATASIZE PUSH1 0x0 REVERT JUMPDEST POP POP POP POP PUSH1 0x40 MLOAD RETURNDATASIZE PUSH1 0x1F NOT PUSH1 0x1F DUP3 ADD AND DUP3 ADD DUP1 PUSH1 0x40 MSTORE POP PUSH3 0x1D12 SWAP2 SWAP1 DUP2 ADD SWAP1 PUSH3 0x3897 JUMP JUMPDEST POP TIMESTAMP PUSH1 0xA0 DUP8 ADD MSTORE CALLER PUSH1 0x40 DUP8 ADD MSTORE DUP6 MLOAD PUSH1 0x20 DUP8 ADD MLOAD PUSH1 0x60 SWAP2 PUSH3 0x1D34 SWAP2 PUSH3 0x2913 JUMP JUMPDEST SWAP1 POP PUSH1 0x5 DUP2 PUSH1 0x40 MLOAD PUSH3 0x1D48 SWAP2 SWAP1 PUSH3 0x4345 JUMP JUMPDEST SWAP1 DUP2 MSTORE PUSH1 0x40 MLOAD PUSH1 0x20 SWAP2 DUP2 SWAP1 SUB DUP3 ADD SWAP1 KECCAK256 DUP1 SLOAD PUSH1 0x1 DUP2 ADD DUP1 DUP4 SSTORE PUSH1 0x0 SWAP3 DUP4 MSTORE SWAP2 DUP4 SWAP1 KECCAK256 DUP11 MLOAD DUP1 MLOAD SWAP4 SWAP5 DUP13 SWAP5 PUSH1 0x6 SWAP1 SWAP5 MUL SWAP1 SWAP3 ADD SWAP3 PUSH3 0x1D8A SWAP3 DUP5 SWAP3 ADD SWAP1 PUSH3 0x2C79 JUMP JUMPDEST POP PUSH1 0x20 DUP3 DUP2 ADD MLOAD DUP1 MLOAD PUSH3 0x1DA5 SWAP3 PUSH1 0x1 DUP6 ADD SWAP3 ADD SWAP1 PUSH3 0x2C79 JUMP JUMPDEST POP PUSH1 0x40 DUP3 DUP2 ADD MLOAD PUSH1 0x2 DUP4 ADD DUP1 SLOAD PUSH1 0x1 PUSH1 0x1 PUSH1 0xA0 SHL SUB NOT AND PUSH1 0x1 PUSH1 0x1 PUSH1 0xA0 SHL SUB SWAP1 SWAP3 AND SWAP2 SWAP1 SWAP2 OR SWAP1 SSTORE PUSH1 0x60 DUP4 ADD MLOAD PUSH1 0x3 DUP4 ADD SSTORE PUSH1 0x80 DUP4 ADD MLOAD PUSH1 0x4 DUP4 ADD SSTORE PUSH1 0xA0 SWAP1 SWAP3 ADD MLOAD PUSH1 0x5 SWAP1 SWAP2 ADD SSTORE PUSH1 0x20 DUP9 ADD MLOAD SWAP1 MLOAD PUSH3 0x1E00 SWAP3 POP PUSH3 0x4345 JUMP JUMPDEST PUSH1 0x40 MLOAD DUP1 SWAP2 SUB SWAP1 KECCAK256 PUSH32 0x1FC2188CF86B2FDFF0C37C3A4CC9AC40D660CB3ED78875F759054AA66515180F DUP9 PUSH1 0x40 MLOAD PUSH3 0x1E39 SWAP2 SWAP1 PUSH3 0x4543 JUMP JUMPDEST PUSH1 0x40 MLOAD DUP1 SWAP2 SUB SWAP1 LOG2 POP POP POP POP POP POP POP JUMP JUMPDEST PUSH1 0x0 PUSH1 0x4 DUP4 DUP4 PUSH1 0x40 MLOAD PUSH3 0x1E60 SWAP3 SWAP2 SWAP1 PUSH3 0x4336 JUMP JUMPDEST SWAP1 DUP2 MSTORE PUSH1 0x20 ADD PUSH1 0x40 MLOAD DUP1 SWAP2 SUB SWAP1 KECCAK256 SLOAD SWAP1 POP SWAP3 SWAP2 POP POP JUMP JUMPDEST PUSH3 0x1E81 PUSH3 0x2B08 JUMP JUMPDEST PUSH3 0x1EF6 DUP7 DUP7 DUP1 DUP1 PUSH1 0x1F ADD PUSH1 0x20 DUP1 SWAP2 DIV MUL PUSH1 0x20 ADD PUSH1 0x40 MLOAD SWAP1 DUP2 ADD PUSH1 0x40 MSTORE DUP1 SWAP4 SWAP3 SWAP2 SWAP1 DUP2 DUP2 MSTORE PUSH1 0x20 ADD DUP4 DUP4 DUP1 DUP3 DUP5 CALLDATACOPY PUSH1 0x0 SWAP3 ADD SWAP2 SWAP1 SWAP2 MSTORE POP POP PUSH1 0x40 DUP1 MLOAD PUSH1 0x20 PUSH1 0x1F DUP11 ADD DUP2 SWAP1 DIV DUP2 MUL DUP3 ADD DUP2 ADD SWAP1 SWAP3 MSTORE DUP9 DUP2 MSTORE SWAP3 POP DUP9 SWAP2 POP DUP8 SWAP1 DUP2 SWAP1 DUP5 ADD DUP4 DUP3 DUP1 DUP3 DUP5 CALLDATACOPY PUSH1 0x0 SWAP3 ADD SWAP2 SWAP1 SWAP2 MSTORE POP PUSH3 0x22AD SWAP3 POP POP POP JUMP JUMPDEST DUP1 MLOAD MLOAD SWAP1 SWAP2 POP PUSH3 0x1F1B JUMPI PUSH1 0x40 MLOAD PUSH3 0x461BCD PUSH1 0xE5 SHL DUP2 MSTORE PUSH1 0x4 ADD PUSH3 0x2B1 SWAP1 PUSH3 0x440B JUMP JUMPDEST DUP1 PUSH1 0x60 ADD MLOAD PUSH1 0x3 DUP2 GT ISZERO PUSH3 0x1F2C JUMPI INVALID JUMPDEST DUP3 PUSH1 0x3 DUP2 GT ISZERO PUSH3 0x1F39 JUMPI INVALID JUMPDEST EQ PUSH3 0x225A JUMPI PUSH1 0x60 DUP2 ADD DUP1 MLOAD SWAP1 DUP4 PUSH1 0x3 DUP2 GT ISZERO PUSH3 0x1F53 JUMPI INVALID JUMPDEST SWAP1 DUP2 PUSH1 0x3 DUP2 GT ISZERO PUSH3 0x1F61 JUMPI INVALID JUMPDEST SWAP1 MSTORE POP DUP2 MLOAD PUSH1 0x40 MLOAD PUSH1 0x0 SWAP2 PUSH1 0x2 SWAP2 PUSH3 0x1F7B SWAP2 SWAP1 PUSH3 0x4345 JUMP JUMPDEST SWAP1 DUP2 MSTORE PUSH1 0x20 ADD PUSH1 0x40 MLOAD DUP1 SWAP2 SUB SWAP1 KECCAK256 SWAP1 POP DUP3 DUP2 DUP8 DUP8 PUSH1 0x40 MLOAD PUSH3 0x1F9F SWAP3 SWAP2 SWAP1 PUSH3 0x4336 JUMP JUMPDEST SWAP1 DUP2 MSTORE PUSH1 0x20 ADD PUSH1 0x40 MLOAD DUP1 SWAP2 SUB SWAP1 KECCAK256 PUSH1 0x0 DUP3 ADD MLOAD DUP2 PUSH1 0x0 ADD SWAP1 DUP1 MLOAD SWAP1 PUSH1 0x20 ADD SWAP1 PUSH3 0x1FCB SWAP3 SWAP2 SWAP1 PUSH3 0x2C79 JUMP JUMPDEST POP PUSH1 0x20 DUP3 DUP2 ADD MLOAD DUP1 MLOAD PUSH3 0x1FE6 SWAP3 PUSH1 0x1 DUP6 ADD SWAP3 ADD SWAP1 PUSH3 0x2C79 JUMP JUMPDEST POP PUSH1 0x40 DUP3 ADD MLOAD DUP1 MLOAD PUSH3 0x2004 SWAP2 PUSH1 0x2 DUP5 ADD SWAP2 PUSH1 0x20 SWAP1 SWAP2 ADD SWAP1 PUSH3 0x2C79 JUMP JUMPDEST POP PUSH1 0x60 DUP3 ADD MLOAD DUP2 PUSH1 0x3 ADD PUSH1 0x0 PUSH2 0x100 EXP DUP2 SLOAD DUP2 PUSH1 0xFF MUL NOT AND SWAP1 DUP4 PUSH1 0x3 DUP2 GT ISZERO PUSH3 0x202A JUMPI INVALID JUMPDEST MUL OR SWAP1 SSTORE POP PUSH1 0x80 DUP3 ADD MLOAD PUSH1 0x3 DUP3 ADD DUP1 SLOAD PUSH2 0xFF00 NOT AND PUSH2 0x100 DUP4 PUSH1 0x6 DUP2 GT ISZERO PUSH3 0x204F JUMPI INVALID JUMPDEST MUL OR SWAP1 SSTORE POP PUSH1 0xA0 DUP3 ADD MLOAD DUP1 MLOAD PUSH3 0x2071 SWAP2 PUSH1 0x4 DUP5 ADD SWAP2 PUSH1 0x20 SWAP1 SWAP2 ADD SWAP1 PUSH3 0x2C79 JUMP JUMPDEST POP PUSH1 0xC0 DUP3 ADD MLOAD DUP1 MLOAD PUSH3 0x208F SWAP2 PUSH1 0x5 DUP5 ADD SWAP2 PUSH1 0x20 SWAP1 SWAP2 ADD SWAP1 PUSH3 0x2C79 JUMP JUMPDEST POP PUSH1 0xE0 DUP3 ADD MLOAD DUP1 MLOAD PUSH1 0x6 DUP4 ADD DUP1 SLOAD PUSH1 0x1 PUSH1 0x1 PUSH1 0xA0 SHL SUB NOT AND PUSH1 0x1 PUSH1 0x1 PUSH1 0xA0 SHL SUB SWAP1 SWAP3 AND SWAP2 SWAP1 SWAP2 OR DUP1 DUP3 SSTORE PUSH1 0x20 DUP4 ADD MLOAD SWAP1 DUP3 SWAP1 PUSH1 0xFF PUSH1 0xA0 SHL NOT AND PUSH1 0x1 PUSH1 0xA0 SHL DUP4 PUSH1 0x1 DUP2 GT ISZERO PUSH3 0x20DA JUMPI INVALID JUMPDEST MUL OR SWAP1 SSTORE POP PUSH1 0x40 DUP3 ADD MLOAD PUSH1 0x1 DUP3 ADD SSTORE PUSH1 0x60 DUP3 ADD MLOAD DUP1 MLOAD PUSH3 0x2106 SWAP2 PUSH1 0x2 DUP5 ADD SWAP2 PUSH1 0x20 SWAP1 SWAP2 ADD SWAP1 PUSH3 0x2C79 JUMP JUMPDEST POP PUSH1 0x80 DUP3 ADD MLOAD PUSH1 0x3 DUP3 DUP2 ADD SWAP2 SWAP1 SWAP2 SSTORE PUSH1 0xA0 DUP4 ADD MLOAD PUSH1 0x4 DUP4 ADD SSTORE PUSH1 0xC0 DUP4 ADD MLOAD PUSH1 0x5 DUP4 ADD DUP1 SLOAD PUSH1 0x1 PUSH1 0x1 PUSH1 0xA0 SHL SUB NOT SWAP1 DUP2 AND PUSH1 0x1 PUSH1 0x1 PUSH1 0xA0 SHL SUB SWAP4 DUP5 AND OR SWAP1 SWAP2 SSTORE PUSH1 0xE0 SWAP1 SWAP5 ADD MLOAD PUSH1 0x6 SWAP1 SWAP4 ADD DUP1 SLOAD SWAP1 SWAP5 AND SWAP3 AND SWAP2 SWAP1 SWAP2 OR SWAP1 SWAP2 SSTORE PUSH2 0x100 DUP4 ADD MLOAD DUP1 MLOAD PUSH1 0xD DUP5 ADD DUP1 SLOAD SWAP3 SWAP4 SWAP1 SWAP3 DUP4 SWAP2 PUSH1 0xFF NOT SWAP1 SWAP2 AND SWAP1 PUSH1 0x1 SWAP1 DUP5 SWAP1 DUP2 GT ISZERO PUSH3 0x2188 JUMPI INVALID JUMPDEST MUL OR SWAP1 SSTORE POP POP POP PUSH2 0x120 DUP3 ADD MLOAD DUP1 MLOAD PUSH1 0xE DUP4 ADD SWAP1 DUP2 SSTORE PUSH1 0x20 DUP1 DUP4 ADD MLOAD DUP1 MLOAD PUSH3 0x21B8 SWAP3 PUSH1 0xF DUP8 ADD SWAP3 ADD SWAP1 PUSH3 0x2C79 JUMP JUMPDEST POP PUSH1 0x40 DUP3 DUP2 ADD MLOAD PUSH1 0x2 DUP4 ADD SSTORE PUSH1 0x60 SWAP1 SWAP3 ADD MLOAD PUSH1 0x3 SWAP1 SWAP2 ADD SSTORE PUSH2 0x140 DUP4 ADD MLOAD PUSH1 0x12 DUP4 ADD SSTORE PUSH2 0x160 SWAP1 SWAP3 ADD MLOAD PUSH1 0x13 SWAP1 SWAP2 ADD DUP1 SLOAD PUSH1 0x1 PUSH1 0x1 PUSH1 0xA0 SHL SUB NOT AND PUSH1 0x1 PUSH1 0x1 PUSH1 0xA0 SHL SUB SWAP1 SWAP3 AND SWAP2 SWAP1 SWAP2 OR SWAP1 SSTORE MLOAD PUSH3 0x2214 SWAP1 DUP10 SWAP1 DUP10 SWAP1 PUSH3 0x4336 JUMP JUMPDEST PUSH1 0x40 MLOAD DUP1 SWAP2 SUB SWAP1 KECCAK256 PUSH32 0x984B6675FFC22E1F752662B0CE0A6E95ADB7944D816AA2D09E6995C9B20A198A DUP4 DUP7 PUSH1 0x40 MLOAD PUSH3 0x224F SWAP3 SWAP2 SWAP1 PUSH3 0x43D9 JUMP JUMPDEST PUSH1 0x40 MLOAD DUP1 SWAP2 SUB SWAP1 LOG2 POP POP JUMPDEST POP POP POP POP POP POP JUMP JUMPDEST PUSH1 0x1 PUSH1 0x1 PUSH1 0xA0 SHL SUB DUP2 AND PUSH3 0x228B JUMPI PUSH1 0x40 MLOAD PUSH3 0x461BCD PUSH1 0xE5 SHL DUP2 MSTORE PUSH1 0x4 ADD PUSH3 0x2B1 SWAP1 PUSH3 0x4465 JUMP JUMPDEST PUSH1 0x1 DUP1 SLOAD PUSH1 0x1 PUSH1 0x1 PUSH1 0xA0 SHL SUB NOT AND PUSH1 0x1 PUSH1 0x1 PUSH1 0xA0 SHL SUB SWAP3 SWAP1 SWAP3 AND SWAP2 SWAP1 SWAP2 OR SWAP1 SSTORE JUMP JUMPDEST PUSH3 0x22B7 PUSH3 0x2B08 JUMP JUMPDEST DUP3 MLOAD PUSH3 0x22D8 JUMPI PUSH1 0x40 MLOAD PUSH3 0x461BCD PUSH1 0xE5 SHL DUP2 MSTORE PUSH1 0x4 ADD PUSH3 0x2B1 SWAP1 PUSH3 0x4453 JUMP JUMPDEST DUP2 MLOAD PUSH3 0x22F9 JUMPI PUSH1 0x40 MLOAD PUSH3 0x461BCD PUSH1 0xE5 SHL DUP2 MSTORE PUSH1 0x4 ADD PUSH3 0x2B1 SWAP1 PUSH3 0x44BF JUMP JUMPDEST PUSH1 0x0 PUSH1 0x2 DUP5 PUSH1 0x40 MLOAD PUSH3 0x230D SWAP2 SWAP1 PUSH3 0x4345 JUMP JUMPDEST SWAP1 DUP2 MSTORE PUSH1 0x20 ADD PUSH1 0x40 MLOAD DUP1 SWAP2 SUB SWAP1 KECCAK256 SWAP1 POP PUSH3 0x2327 PUSH3 0x2B08 JUMP JUMPDEST DUP2 DUP5 PUSH1 0x40 MLOAD PUSH3 0x2338 SWAP2 SWAP1 PUSH3 0x4345 JUMP JUMPDEST SWAP1 DUP2 MSTORE PUSH1 0x40 DUP1 MLOAD PUSH1 0x20 SWAP3 DUP2 SWAP1 SUB DUP4 ADD DUP2 KECCAK256 DUP1 SLOAD PUSH1 0x2 PUSH1 0x1 DUP3 AND ISZERO PUSH2 0x100 MUL PUSH1 0x0 NOT ADD SWAP1 SWAP2 AND DIV PUSH1 0x1F DUP2 ADD DUP6 SWAP1 DIV SWAP1 SWAP5 MUL DUP3 ADD PUSH2 0x1A0 SWAP1 DUP2 ADD SWAP1 SWAP4 MSTORE PUSH2 0x180 DUP3 ADD DUP5 DUP2 MSTORE SWAP2 SWAP4 SWAP1 SWAP3 DUP5 SWAP3 SWAP2 DUP5 SWAP2 DUP5 ADD DUP3 DUP3 DUP1 ISZERO PUSH3 0x23D9 JUMPI DUP1 PUSH1 0x1F LT PUSH3 0x23AD JUMPI PUSH2 0x100 DUP1 DUP4 SLOAD DIV MUL DUP4 MSTORE SWAP2 PUSH1 0x20 ADD SWAP2 PUSH3 0x23D9 JUMP JUMPDEST DUP3 ADD SWAP2 SWAP1 PUSH1 0x0 MSTORE PUSH1 0x20 PUSH1 0x0 KECCAK256 SWAP1 JUMPDEST DUP2 SLOAD DUP2 MSTORE SWAP1 PUSH1 0x1 ADD SWAP1 PUSH1 0x20 ADD DUP1 DUP4 GT PUSH3 0x23BB JUMPI DUP3 SWAP1 SUB PUSH1 0x1F AND DUP3 ADD SWAP2 JUMPDEST POP POP POP POP POP DUP2 MSTORE PUSH1 0x20 ADD PUSH1 0x1 DUP3 ADD DUP1 SLOAD PUSH1 0x1 DUP2 PUSH1 0x1 AND ISZERO PUSH2 0x100 MUL SUB AND PUSH1 0x2 SWAP1 DIV DUP1 PUSH1 0x1F ADD PUSH1 0x20 DUP1 SWAP2 DIV MUL PUSH1 0x20 ADD PUSH1 0x40 MLOAD SWAP1 DUP2 ADD PUSH1 0x40 MSTORE DUP1 SWAP3 SWAP2 SWAP1 DUP2 DUP2 MSTORE PUSH1 0x20 ADD DUP3 DUP1 SLOAD PUSH1 0x1 DUP2 PUSH1 0x1 AND ISZERO PUSH2 0x100 MUL SUB AND PUSH1 0x2 SWAP1 DIV DUP1 ISZERO PUSH3 0x247F JUMPI DUP1 PUSH1 0x1F LT PUSH3 0x2453 JUMPI PUSH2 0x100 DUP1 DUP4 SLOAD DIV MUL DUP4 MSTORE SWAP2 PUSH1 0x20 ADD SWAP2 PUSH3 0x247F JUMP JUMPDEST DUP3 ADD SWAP2 SWAP1 PUSH1 0x0 MSTORE PUSH1 0x20 PUSH1 0x0 KECCAK256 SWAP1 JUMPDEST DUP2 SLOAD DUP2 MSTORE SWAP1 PUSH1 0x1 ADD SWAP1 PUSH1 0x20 ADD DUP1 DUP4 GT PUSH3 0x2461 JUMPI DUP3 SWAP1 SUB PUSH1 0x1F AND DUP3 ADD SWAP2 JUMPDEST POP POP POP SWAP2 DUP4 MSTORE POP POP PUSH1 0x2 DUP3 DUP2 ADD DUP1 SLOAD PUSH1 0x40 DUP1 MLOAD PUSH1 0x20 PUSH1 0x1 DUP5 AND ISZERO PUSH2 0x100 MUL PUSH1 0x0 NOT ADD SWAP1 SWAP4 AND SWAP5 SWAP1 SWAP5 DIV PUSH1 0x1F DUP2 ADD DUP4 SWAP1 DIV DUP4 MUL DUP6 ADD DUP4 ADD SWAP1 SWAP2 MSTORE DUP1 DUP5 MSTORE SWAP4 DUP2 ADD SWAP4 SWAP1 DUP4 ADD DUP3 DUP3 DUP1 ISZERO PUSH3 0x2515 JUMPI DUP1 PUSH1 0x1F LT PUSH3 0x24E9 JUMPI PUSH2 0x100 DUP1 DUP4 SLOAD DIV MUL DUP4 MSTORE SWAP2 PUSH1 0x20 ADD SWAP2 PUSH3 0x2515 JUMP JUMPDEST DUP3 ADD SWAP2 SWAP1 PUSH1 0x0 MSTORE PUSH1 0x20 PUSH1 0x0 KECCAK256 SWAP1 JUMPDEST DUP2 SLOAD DUP2 MSTORE SWAP1 PUSH1 0x1 ADD SWAP1 PUSH1 0x20 ADD DUP1 DUP4 GT PUSH3 0x24F7 JUMPI DUP3 SWAP1 SUB PUSH1 0x1F AND DUP3 ADD SWAP2 JUMPDEST POP POP POP SWAP2 DUP4 MSTORE POP POP PUSH1 0x3 DUP3 DUP2 ADD SLOAD PUSH1 0x20 SWAP1 SWAP3 ADD SWAP2 PUSH1 0xFF AND SWAP1 DUP2 GT ISZERO PUSH3 0x2537 JUMPI INVALID JUMPDEST PUSH1 0x3 DUP2 GT ISZERO PUSH3 0x2543 JUMPI INVALID JUMPDEST DUP2 MSTORE PUSH1 0x20 ADD PUSH1 0x3 DUP3 ADD PUSH1 0x1 SWAP1 SLOAD SWAP1 PUSH2 0x100 EXP SWAP1 DIV PUSH1 0xFF AND PUSH1 0x6 DUP2 GT ISZERO PUSH3 0x2566 JUMPI INVALID JUMPDEST PUSH1 0x6 DUP2 GT ISZERO PUSH3 0x2572 JUMPI INVALID JUMPDEST DUP2 MSTORE PUSH1 0x4 DUP3 ADD DUP1 SLOAD PUSH1 0x40 DUP1 MLOAD PUSH1 0x20 PUSH1 0x2 PUSH1 0x1 DUP6 AND ISZERO PUSH2 0x100 MUL PUSH1 0x0 NOT ADD SWAP1 SWAP5 AND SWAP4 SWAP1 SWAP4 DIV PUSH1 0x1F DUP2 ADD DUP5 SWAP1 DIV DUP5 MUL DUP3 ADD DUP5 ADD SWAP1 SWAP3 MSTORE DUP2 DUP2 MSTORE SWAP4 DUP3 ADD SWAP4 SWAP3 SWAP2 DUP4 ADD DUP3 DUP3 DUP1 ISZERO PUSH3 0x2604 JUMPI DUP1 PUSH1 0x1F LT PUSH3 0x25D8 JUMPI PUSH2 0x100 DUP1 DUP4 SLOAD DIV MUL DUP4 MSTORE SWAP2 PUSH1 0x20 ADD SWAP2 PUSH3 0x2604 JUMP JUMPDEST DUP3 ADD SWAP2 SWAP1 PUSH1 0x0 MSTORE PUSH1 0x20 PUSH1 0x0 KECCAK256 SWAP1 JUMPDEST DUP2 SLOAD DUP2 MSTORE SWAP1 PUSH1 0x1 ADD SWAP1 PUSH1 0x20 ADD DUP1 DUP4 GT PUSH3 0x25E6 JUMPI DUP3 SWAP1 SUB PUSH1 0x1F AND DUP3 ADD SWAP2 JUMPDEST POP POP POP SWAP2 DUP4 MSTORE POP POP PUSH1 0x5 DUP3 ADD DUP1 SLOAD PUSH1 0x40 DUP1 MLOAD PUSH1 0x20 PUSH1 0x2 PUSH1 0x1 DUP6 AND ISZERO PUSH2 0x100 MUL PUSH1 0x0 NOT ADD SWAP1 SWAP5 AND SWAP4 SWAP1 SWAP4 DIV PUSH1 0x1F DUP2 ADD DUP5 SWAP1 DIV DUP5 MUL DUP3 ADD DUP5 ADD SWAP1 SWAP3 MSTORE DUP2 DUP2 MSTORE SWAP4 DUP3 ADD SWAP4 SWAP3 SWAP2 DUP4 ADD DUP3 DUP3 DUP1 ISZERO PUSH3 0x269C JUMPI DUP1 PUSH1 0x1F LT PUSH3 0x2670 JUMPI PUSH2 0x100 DUP1 DUP4 SLOAD DIV MUL DUP4 MSTORE SWAP2 PUSH1 0x20 ADD SWAP2 PUSH3 0x269C JUMP JUMPDEST DUP3 ADD SWAP2 SWAP1 PUSH1 0x0 MSTORE PUSH1 0x20 PUSH1 0x0 KECCAK256 SWAP1 JUMPDEST DUP2 SLOAD DUP2 MSTORE SWAP1 PUSH1 0x1 ADD SWAP1 PUSH1 0x20 ADD DUP1 DUP4 GT PUSH3 0x267E JUMPI DUP3 SWAP1 SUB PUSH1 0x1F AND DUP3 ADD SWAP2 JUMPDEST POP POP POP SWAP2 DUP4 MSTORE POP POP PUSH1 0x40 DUP1 MLOAD PUSH2 0x100 DUP2 ADD SWAP1 SWAP2 MSTORE PUSH1 0x6 DUP4 ADD DUP1 SLOAD PUSH1 0x1 PUSH1 0x1 PUSH1 0xA0 SHL SUB DUP2 AND DUP4 MSTORE PUSH1 0x20 SWAP4 DUP5 ADD SWAP4 DUP4 ADD SWAP1 PUSH1 0x1 PUSH1 0xA0 SHL SWAP1 DIV PUSH1 0xFF AND PUSH1 0x1 DUP2 GT ISZERO PUSH3 0x26E1 JUMPI INVALID JUMPDEST PUSH1 0x1 DUP2 GT ISZERO PUSH3 0x26ED JUMPI INVALID JUMPDEST DUP2 MSTORE PUSH1 0x20 ADD PUSH1 0x1 DUP3 ADD SLOAD DUP2 MSTORE PUSH1 0x20 ADD PUSH1 0x2 DUP3 ADD DUP1 SLOAD PUSH1 0x1 DUP2 PUSH1 0x1 AND ISZERO PUSH2 0x100 MUL SUB AND PUSH1 0x2 SWAP1 DIV DUP1 PUSH1 0x1F ADD PUSH1 0x20 DUP1 SWAP2 DIV MUL PUSH1 0x20 ADD PUSH1 0x40 MLOAD SWAP1 DUP2 ADD PUSH1 0x40 MSTORE DUP1 SWAP3 SWAP2 SWAP1 DUP2 DUP2 MSTORE PUSH1 0x20 ADD DUP3 DUP1 SLOAD PUSH1 0x1 DUP2 PUSH1 0x1 AND ISZERO PUSH2 0x100 MUL SUB AND PUSH1 0x2 SWAP1 DIV DUP1 ISZERO PUSH3 0x2798 JUMPI DUP1 PUSH1 0x1F LT PUSH3 0x276C JUMPI PUSH2 0x100 DUP1 DUP4 SLOAD DIV MUL DUP4 MSTORE SWAP2 PUSH1 0x20 ADD SWAP2 PUSH3 0x2798 JUMP JUMPDEST DUP3 ADD SWAP2 SWAP1 PUSH1 0x0 MSTORE PUSH1 0x20 PUSH1 0x0 KECCAK256 SWAP1 JUMPDEST DUP2 SLOAD DUP2 MSTORE SWAP1 PUSH1 0x1 ADD SWAP1 PUSH1 0x20 ADD DUP1 DUP4 GT PUSH3 0x277A JUMPI DUP3 SWAP1 SUB PUSH1 0x1F AND DUP3 ADD SWAP2 JUMPDEST POP POP POP SWAP2 DUP4 MSTORE POP POP PUSH1 0x3 DUP3 DUP2 ADD SLOAD PUSH1 0x20 DUP1 DUP5 ADD SWAP2 SWAP1 SWAP2 MSTORE PUSH1 0x4 DUP5 ADD SLOAD PUSH1 0x40 DUP1 DUP6 ADD SWAP2 SWAP1 SWAP2 MSTORE PUSH1 0x5 DUP6 ADD SLOAD PUSH1 0x1 PUSH1 0x1 PUSH1 0xA0 SHL SUB SWAP1 DUP2 AND PUSH1 0x60 DUP7 ADD MSTORE PUSH1 0x6 SWAP1 SWAP6 ADD SLOAD SWAP1 SWAP5 AND PUSH1 0x80 SWAP1 SWAP4 ADD SWAP3 SWAP1 SWAP3 MSTORE SWAP3 DUP5 MSTORE DUP2 MLOAD DUP1 DUP3 ADD SWAP1 SWAP3 MSTORE PUSH1 0xD DUP6 ADD DUP1 SLOAD SWAP5 SWAP1 SWAP2 ADD SWAP4 SWAP2 SWAP3 SWAP1 SWAP2 DUP4 SWAP2 PUSH1 0xFF SWAP1 SWAP2 AND SWAP1 DUP2 GT ISZERO PUSH3 0x2810 JUMPI INVALID JUMPDEST PUSH1 0x3 DUP2 GT ISZERO PUSH3 0x281C JUMPI INVALID JUMPDEST SWAP1 MSTORE POP DUP2 MSTORE PUSH1 0x40 DUP1 MLOAD PUSH1 0x80 DUP2 ADD DUP3 MSTORE PUSH1 0xE DUP5 ADD DUP1 SLOAD DUP3 MSTORE PUSH1 0xF DUP6 ADD DUP1 SLOAD DUP5 MLOAD PUSH1 0x20 PUSH1 0x2 PUSH1 0x1 DUP5 AND ISZERO PUSH2 0x100 MUL PUSH1 0x0 NOT ADD SWAP1 SWAP4 AND SWAP3 SWAP1 SWAP3 DIV PUSH1 0x1F DUP2 ADD DUP4 SWAP1 DIV DUP4 MUL DUP3 ADD DUP4 ADD SWAP1 SWAP7 MSTORE DUP6 DUP2 MSTORE SWAP6 DUP2 ADD SWAP6 SWAP4 SWAP5 SWAP3 SWAP4 DUP2 DUP7 ADD SWAP4 SWAP1 SWAP3 SWAP2 DUP4 ADD DUP3 DUP3 DUP1 ISZERO PUSH3 0x28CA JUMPI DUP1 PUSH1 0x1F LT PUSH3 0x289E JUMPI PUSH2 0x100 DUP1 DUP4 SLOAD DIV MUL DUP4 MSTORE SWAP2 PUSH1 0x20 ADD SWAP2 PUSH3 0x28CA JUMP JUMPDEST DUP3 ADD SWAP2 SWAP1 PUSH1 0x0 MSTORE PUSH1 0x20 PUSH1 0x0 KECCAK256 SWAP1 JUMPDEST DUP2 SLOAD DUP2 MSTORE SWAP1 PUSH1 0x1 ADD SWAP1 PUSH1 0x20 ADD DUP1 DUP4 GT PUSH3 0x28AC JUMPI DUP3 SWAP1 SUB PUSH1 0x1F AND DUP3 ADD SWAP2 JUMPDEST POP POP POP SWAP2 DUP4 MSTORE POP POP PUSH1 0x2 DUP3 ADD SLOAD PUSH1 0x20 DUP1 DUP4 ADD SWAP2 SWAP1 SWAP2 MSTORE PUSH1 0x3 SWAP1 SWAP3 ADD SLOAD PUSH1 0x40 SWAP2 DUP3 ADD MSTORE SWAP2 DUP4 MSTORE PUSH1 0x12 DUP5 ADD SLOAD SWAP1 DUP4 ADD MSTORE PUSH1 0x13 SWAP1 SWAP3 ADD SLOAD PUSH1 0x1 PUSH1 0x1 PUSH1 0xA0 SHL SUB AND SWAP2 ADD MSTORE SWAP6 SWAP5 POP POP POP POP POP JUMP JUMPDEST PUSH1 0x60 DUP3 DUP3 PUSH1 0x40 MLOAD PUSH1 0x20 ADD PUSH3 0x292A SWAP3 SWAP2 SWAP1 PUSH3 0x4353 JUMP JUMPDEST PUSH1 0x40 MLOAD PUSH1 0x20 DUP2 DUP4 SUB SUB DUP2 MSTORE SWAP1 PUSH1 0x40 MSTORE SWAP1 POP SWAP3 SWAP2 POP POP JUMP JUMPDEST PUSH1 0x0 DUP2 DUP2 DUP1 DUP1 PUSH1 0x2 JUMPDEST PUSH1 0x2A DUP2 LT ISZERO PUSH3 0x2AE5 JUMPI PUSH2 0x100 DUP5 MUL SWAP4 POP DUP5 DUP2 DUP2 MLOAD DUP2 LT PUSH3 0x2968 JUMPI INVALID JUMPDEST ADD PUSH1 0x20 ADD MLOAD DUP6 MLOAD PUSH1 0xF8 SWAP2 SWAP1 SWAP2 SHR SWAP4 POP DUP6 SWAP1 PUSH1 0x1 DUP4 ADD SWAP1 DUP2 LT PUSH3 0x2987 JUMPI INVALID JUMPDEST ADD PUSH1 0x20 ADD MLOAD PUSH1 0xF8 SHR SWAP2 POP PUSH1 0x61 PUSH1 0x1 PUSH1 0x1 PUSH1 0xA0 SHL SUB DUP5 AND LT DUP1 ISZERO SWAP1 PUSH3 0x29B6 JUMPI POP PUSH1 0x66 DUP4 PUSH1 0x1 PUSH1 0x1 PUSH1 0xA0 SHL SUB AND GT ISZERO JUMPDEST ISZERO PUSH3 0x29C8 JUMPI PUSH1 0x57 DUP4 SUB SWAP3 POP PUSH3 0x2A31 JUMP JUMPDEST PUSH1 0x41 DUP4 PUSH1 0x1 PUSH1 0x1 PUSH1 0xA0 SHL SUB AND LT ISZERO DUP1 ISZERO PUSH3 0x29ED JUMPI POP PUSH1 0x46 DUP4 PUSH1 0x1 PUSH1 0x1 PUSH1 0xA0 SHL SUB AND GT ISZERO JUMPDEST ISZERO PUSH3 0x29FF JUMPI PUSH1 0x37 DUP4 SUB SWAP3 POP PUSH3 0x2A31 JUMP JUMPDEST PUSH1 0x30 DUP4 PUSH1 0x1 PUSH1 0x1 PUSH1 0xA0 SHL SUB AND LT ISZERO DUP1 ISZERO PUSH3 0x2A24 JUMPI POP PUSH1 0x39 DUP4 PUSH1 0x1 PUSH1 0x1 PUSH1 0xA0 SHL SUB AND GT ISZERO JUMPDEST ISZERO PUSH3 0x2A31 JUMPI PUSH1 0x30 DUP4 SUB SWAP3 POP JUMPDEST PUSH1 0x61 DUP3 PUSH1 0x1 PUSH1 0x1 PUSH1 0xA0 SHL SUB AND LT ISZERO DUP1 ISZERO PUSH3 0x2A56 JUMPI POP PUSH1 0x66 DUP3 PUSH1 0x1 PUSH1 0x1 PUSH1 0xA0 SHL SUB AND GT ISZERO JUMPDEST ISZERO PUSH3 0x2A68 JUMPI PUSH1 0x57 DUP3 SUB SWAP2 POP PUSH3 0x2AD1 JUMP JUMPDEST PUSH1 0x41 DUP3 PUSH1 0x1 PUSH1 0x1 PUSH1 0xA0 SHL SUB AND LT ISZERO DUP1 ISZERO PUSH3 0x2A8D JUMPI POP PUSH1 0x46 DUP3 PUSH1 0x1 PUSH1 0x1 PUSH1 0xA0 SHL SUB AND GT ISZERO JUMPDEST ISZERO PUSH3 0x2A9F JUMPI PUSH1 0x37 DUP3 SUB SWAP2 POP PUSH3 0x2AD1 JUMP JUMPDEST PUSH1 0x30 DUP3 PUSH1 0x1 PUSH1 0x1 PUSH1 0xA0 SHL SUB AND LT ISZERO DUP1 ISZERO PUSH3 0x2AC4 JUMPI POP PUSH1 0x39 DUP3 PUSH1 0x1 PUSH1 0x1 PUSH1 0xA0 SHL SUB AND GT ISZERO JUMPDEST ISZERO PUSH3 0x2AD1 JUMPI PUSH1 0x30 DUP3 SUB SWAP2 POP JUMPDEST PUSH1 0x10 DUP4 MUL DUP3 ADD SWAP4 SWAP1 SWAP4 ADD SWAP3 PUSH1 0x2 ADD PUSH3 0x294A JUMP JUMPDEST POP SWAP2 SWAP4 POP POP POP POP JUMPDEST SWAP2 SWAP1 POP JUMP JUMPDEST PUSH1 0x60 PUSH3 0x13EA DUP3 PUSH1 0x0 ADD MLOAD DUP4 PUSH1 0x20 ADD MLOAD PUSH3 0x2913 JUMP JUMPDEST PUSH1 0x40 MLOAD DUP1 PUSH2 0x180 ADD PUSH1 0x40 MSTORE DUP1 PUSH1 0x60 DUP2 MSTORE PUSH1 0x20 ADD PUSH1 0x60 DUP2 MSTORE PUSH1 0x20 ADD PUSH1 0x60 DUP2 MSTORE PUSH1 0x20 ADD PUSH1 0x0 PUSH1 0x3 DUP2 GT ISZERO PUSH3 0x2B37 JUMPI INVALID JUMPDEST DUP2 MSTORE PUSH1 0x20 ADD PUSH1 0x0 DUP2 MSTORE PUSH1 0x20 ADD PUSH1 0x60 DUP2 MSTORE PUSH1 0x20 ADD PUSH1 0x60 DUP2 MSTORE PUSH1 0x20 ADD PUSH3 0x2B5B PUSH3 0x2D26 JUMP JUMPDEST DUP2 MSTORE PUSH1 0x20 ADD PUSH3 0x2B6A PUSH3 0x2D7E JUMP JUMPDEST DUP2 MSTORE PUSH1 0x20 ADD PUSH3 0x2B79 PUSH3 0x2CFE JUMP JUMPDEST DUP2 MSTORE PUSH1 0x0 PUSH1 0x20 DUP3 ADD DUP2 SWAP1 MSTORE PUSH1 0x40 SWAP1 SWAP2 ADD MSTORE SWAP1 JUMP JUMPDEST PUSH1 0x40 MLOAD DUP1 PUSH1 0x80 ADD PUSH1 0x40 MSTORE DUP1 PUSH1 0x60 DUP2 MSTORE PUSH1 0x20 ADD PUSH3 0x2BA9 PUSH3 0x2D92 JUMP JUMPDEST DUP2 MSTORE PUSH1 0x20 ADD PUSH3 0x2BB8 PUSH3 0x2C0B JUMP JUMPDEST DUP2 MSTORE PUSH1 0x20 ADD PUSH3 0x2BC7 PUSH3 0x2C2D JUMP JUMPDEST SWAP1 MSTORE SWAP1 JUMP JUMPDEST PUSH1 0x40 MLOAD DUP1 PUSH1 0xC0 ADD PUSH1 0x40 MSTORE DUP1 PUSH1 0x60 DUP2 MSTORE PUSH1 0x20 ADD PUSH1 0x60 DUP2 MSTORE PUSH1 0x20 ADD PUSH1 0x0 PUSH1 0x1 PUSH1 0x1 PUSH1 0xA0 SHL SUB AND DUP2 MSTORE PUSH1 0x20 ADD PUSH1 0x0 DUP2 MSTORE PUSH1 0x20 ADD PUSH1 0x0 DUP2 MSTORE PUSH1 0x20 ADD PUSH1 0x0 DUP2 MSTORE POP SWAP1 JUMP JUMPDEST PUSH1 0x40 DUP1 MLOAD PUSH1 0x60 DUP2 ADD SWAP1 SWAP2 MSTORE DUP1 PUSH1 0x0 DUP2 MSTORE PUSH1 0x20 ADD PUSH1 0x0 DUP2 MSTORE PUSH1 0x20 ADD PUSH1 0x60 DUP2 MSTORE POP SWAP1 JUMP JUMPDEST PUSH1 0x40 DUP1 MLOAD PUSH1 0xE0 DUP2 ADD SWAP1 SWAP2 MSTORE DUP1 PUSH1 0x0 DUP2 MSTORE PUSH1 0x20 ADD PUSH1 0x60 DUP2 MSTORE PUSH1 0x20 ADD PUSH1 0x60 DUP2 MSTORE PUSH1 0x20 ADD PUSH1 0x0 DUP2 MSTORE PUSH1 0x20 ADD PUSH1 0x60 DUP2 MSTORE PUSH1 0x20 ADD PUSH1 0x60 DUP2 MSTORE PUSH1 0x20 ADD PUSH1 0x60 DUP2 MSTORE POP SWAP1 JUMP JUMPDEST PUSH2 0x6CE DUP1 PUSH3 0x4738 DUP4 CODECOPY ADD SWAP1 JUMP JUMPDEST DUP3 DUP1 SLOAD PUSH1 0x1 DUP2 PUSH1 0x1 AND ISZERO PUSH2 0x100 MUL SUB AND PUSH1 0x2 SWAP1 DIV SWAP1 PUSH1 0x0 MSTORE PUSH1 0x20 PUSH1 0x0 KECCAK256 SWAP1 PUSH1 0x1F ADD PUSH1 0x20 SWAP1 DIV DUP2 ADD SWAP3 DUP3 PUSH1 0x1F LT PUSH3 0x2CBC JUMPI DUP1 MLOAD PUSH1 0xFF NOT AND DUP4 DUP1 ADD OR DUP6 SSTORE PUSH3 0x2CEC JUMP JUMPDEST DUP3 DUP1 ADD PUSH1 0x1 ADD DUP6 SSTORE DUP3 ISZERO PUSH3 0x2CEC JUMPI SWAP2 DUP3 ADD JUMPDEST DUP3 DUP2 GT ISZERO PUSH3 0x2CEC JUMPI DUP3 MLOAD DUP3 SSTORE SWAP2 PUSH1 0x20 ADD SWAP2 SWAP1 PUSH1 0x1 ADD SWAP1 PUSH3 0x2CCF JUMP JUMPDEST POP PUSH3 0x2CFA SWAP3 SWAP2 POP PUSH3 0x2DBA JUMP JUMPDEST POP SWAP1 JUMP JUMPDEST PUSH1 0x40 MLOAD DUP1 PUSH1 0x80 ADD PUSH1 0x40 MSTORE DUP1 PUSH1 0x0 DUP2 MSTORE PUSH1 0x20 ADD PUSH1 0x60 DUP2 MSTORE PUSH1 0x20 ADD PUSH1 0x0 DUP2 MSTORE PUSH1 0x20 ADD PUSH1 0x0 DUP2 MSTORE POP SWAP1 JUMP JUMPDEST PUSH1 0x40 DUP1 MLOAD PUSH2 0x100 DUP2 ADD SWAP1 SWAP2 MSTORE PUSH1 0x0 DUP1 DUP3 MSTORE PUSH1 0x20 DUP3 ADD SWAP1 DUP2 MSTORE PUSH1 0x20 ADD PUSH1 0x0 DUP2 MSTORE PUSH1 0x20 ADD PUSH1 0x60 DUP2 MSTORE PUSH1 0x20 ADD PUSH1 0x0 DUP2 MSTORE PUSH1 0x20 ADD PUSH1 0x0 DUP2 MSTORE PUSH1 0x20 ADD PUSH1 0x0 PUSH1 0x1 PUSH1 0x1 PUSH1 0xA0 SHL SUB AND DUP2 MSTORE PUSH1 0x20 ADD PUSH1 0x0 PUSH1 0x1 PUSH1 0x1 PUSH1 0xA0 SHL SUB AND DUP2 MSTORE POP SWAP1 JUMP JUMPDEST PUSH1 0x40 DUP1 MLOAD PUSH1 0x20 DUP2 ADD SWAP1 SWAP2 MSTORE DUP1 PUSH1 0x0 PUSH3 0x2BC7 JUMP JUMPDEST PUSH1 0x40 MLOAD DUP1 PUSH1 0x80 ADD PUSH1 0x40 MSTORE DUP1 PUSH1 0x60 DUP2 MSTORE PUSH1 0x20 ADD PUSH1 0x60 DUP2 MSTORE PUSH1 0x20 ADD PUSH1 0x60 DUP2 MSTORE PUSH1 0x20 ADD PUSH1 0x60 DUP2 MSTORE POP SWAP1 JUMP JUMPDEST PUSH3 0x2DD7 SWAP2 SWAP1 JUMPDEST DUP1 DUP3 GT ISZERO PUSH3 0x2CFA JUMPI PUSH1 0x0 DUP2 SSTORE PUSH1 0x1 ADD PUSH3 0x2DC1 JUMP JUMPDEST SWAP1 JUMP JUMPDEST DUP1 CALLDATALOAD PUSH3 0x13EA DUP2 PUSH3 0x46D5 JUMP JUMPDEST DUP1 MLOAD PUSH3 0x13EA DUP2 PUSH3 0x46D5 JUMP JUMPDEST PUSH1 0x0 DUP3 PUSH1 0x1F DUP4 ADD SLT PUSH3 0x2E06 JUMPI PUSH1 0x0 DUP1 REVERT JUMPDEST DUP2 MLOAD PUSH3 0x2E1D PUSH3 0x2E17 DUP3 PUSH3 0x458D JUMP JUMPDEST PUSH3 0x4566 JUMP JUMPDEST SWAP2 POP DUP2 DUP2 DUP4 MSTORE PUSH1 0x20 DUP5 ADD SWAP4 POP PUSH1 0x20 DUP2 ADD SWAP1 POP DUP4 DUP6 PUSH1 0x20 DUP5 MUL DUP3 ADD GT ISZERO PUSH3 0x2E43 JUMPI PUSH1 0x0 DUP1 REVERT JUMPDEST PUSH1 0x0 JUMPDEST DUP4 DUP2 LT ISZERO PUSH3 0x2E73 JUMPI DUP2 PUSH3 0x2E5C DUP9 DUP3 PUSH3 0x2DE7 JUMP JUMPDEST DUP5 MSTORE POP PUSH1 0x20 SWAP3 DUP4 ADD SWAP3 SWAP2 SWAP1 SWAP2 ADD SWAP1 PUSH1 0x1 ADD PUSH3 0x2E46 JUMP JUMPDEST POP POP POP POP SWAP3 SWAP2 POP POP JUMP JUMPDEST PUSH1 0x0 DUP3 PUSH1 0x1F DUP4 ADD SLT PUSH3 0x2E8F JUMPI PUSH1 0x0 DUP1 REVERT JUMPDEST DUP2 CALLDATALOAD PUSH3 0x2EA0 PUSH3 0x2E17 DUP3 PUSH3 0x458D JUMP JUMPDEST DUP2 DUP2 MSTORE PUSH1 0x20 SWAP4 DUP5 ADD SWAP4 SWAP1 SWAP3 POP DUP3 ADD DUP4 PUSH1 0x0 JUMPDEST DUP4 DUP2 LT ISZERO PUSH3 0x2E73 JUMPI DUP2 CALLDATALOAD DUP7 ADD PUSH3 0x2ECB DUP9 DUP3 PUSH3 0x301E JUMP JUMPDEST DUP5 MSTORE POP PUSH1 0x20 SWAP3 DUP4 ADD SWAP3 SWAP2 SWAP1 SWAP2 ADD SWAP1 PUSH1 0x1 ADD PUSH3 0x2EB2 JUMP JUMPDEST DUP1 MLOAD PUSH3 0x13EA DUP2 PUSH3 0x46EC JUMP JUMPDEST DUP1 CALLDATALOAD PUSH3 0x13EA DUP2 PUSH3 0x46F7 JUMP JUMPDEST DUP1 CALLDATALOAD PUSH3 0x13EA DUP2 PUSH3 0x4702 JUMP JUMPDEST DUP1 CALLDATALOAD PUSH3 0x13EA DUP2 PUSH3 0x4710 JUMP JUMPDEST DUP1 CALLDATALOAD PUSH3 0x13EA DUP2 PUSH3 0x471E JUMP JUMPDEST DUP1 MLOAD PUSH3 0x13EA DUP2 PUSH3 0x471E JUMP JUMPDEST PUSH1 0x0 DUP1 DUP4 PUSH1 0x1F DUP5 ADD SLT PUSH3 0x2F43 JUMPI PUSH1 0x0 DUP1 REVERT JUMPDEST POP DUP2 CALLDATALOAD PUSH1 0x1 PUSH1 0x1 PUSH1 0x40 SHL SUB DUP2 GT ISZERO PUSH3 0x2F5B JUMPI PUSH1 0x0 DUP1 REVERT JUMPDEST PUSH1 0x20 DUP4 ADD SWAP2 POP DUP4 PUSH1 0x1 DUP3 MUL DUP4 ADD GT ISZERO PUSH3 0x2F74 JUMPI PUSH1 0x0 DUP1 REVERT JUMPDEST SWAP3 POP SWAP3 SWAP1 POP JUMP JUMPDEST PUSH1 0x0 DUP3 PUSH1 0x1F DUP4 ADD SLT PUSH3 0x2F8D JUMPI PUSH1 0x0 DUP1 REVERT JUMPDEST DUP2 CALLDATALOAD PUSH3 0x2F9E PUSH3 0x2E17 DUP3 PUSH3 0x45AE JUMP JUMPDEST SWAP2 POP DUP1 DUP3 MSTORE PUSH1 0x20 DUP4 ADD PUSH1 0x20 DUP4 ADD DUP6 DUP4 DUP4 ADD GT ISZERO PUSH3 0x2FBB JUMPI PUSH1 0x0 DUP1 REVERT JUMPDEST PUSH3 0x2FC8 DUP4 DUP3 DUP5 PUSH3 0x466C JUMP JUMPDEST POP POP POP SWAP3 SWAP2 POP POP JUMP JUMPDEST PUSH1 0x0 DUP3 PUSH1 0x1F DUP4 ADD SLT PUSH3 0x2FE3 JUMPI PUSH1 0x0 DUP1 REVERT JUMPDEST DUP2 MLOAD PUSH3 0x2FF4 PUSH3 0x2E17 DUP3 PUSH3 0x45AE JUMP JUMPDEST SWAP2 POP DUP1 DUP3 MSTORE PUSH1 0x20 DUP4 ADD PUSH1 0x20 DUP4 ADD DUP6 DUP4 DUP4 ADD GT ISZERO PUSH3 0x3011 JUMPI PUSH1 0x0 DUP1 REVERT JUMPDEST PUSH3 0x2FC8 DUP4 DUP3 DUP5 PUSH3 0x4678 JUMP JUMPDEST PUSH1 0x0 PUSH1 0x60 DUP3 DUP5 SUB SLT ISZERO PUSH3 0x3031 JUMPI PUSH1 0x0 DUP1 REVERT JUMPDEST PUSH3 0x303D PUSH1 0x60 PUSH3 0x4566 JUMP JUMPDEST SWAP1 POP PUSH1 0x0 PUSH3 0x304D DUP5 DUP5 PUSH3 0x383B JUMP JUMPDEST DUP3 MSTORE POP PUSH1 0x20 PUSH3 0x3060 DUP5 DUP5 DUP4 ADD PUSH3 0x383B JUMP JUMPDEST PUSH1 0x20 DUP4 ADD MSTORE POP PUSH1 0x40 DUP3 ADD CALLDATALOAD PUSH1 0x1 PUSH1 0x1 PUSH1 0x40 SHL SUB DUP2 GT ISZERO PUSH3 0x3080 JUMPI PUSH1 0x0 DUP1 REVERT JUMPDEST PUSH3 0x308E DUP5 DUP3 DUP6 ADD PUSH3 0x2F7B JUMP JUMPDEST PUSH1 0x40 DUP4 ADD MSTORE POP SWAP3 SWAP2 POP POP JUMP JUMPDEST PUSH1 0x0 PUSH2 0x100 DUP3 DUP5 SUB SLT ISZERO PUSH3 0x30AE JUMPI PUSH1 0x0 DUP1 REVERT JUMPDEST PUSH3 0x30BB PUSH2 0x100 PUSH3 0x4566 JUMP JUMPDEST SWAP1 POP PUSH1 0x0 PUSH3 0x30CB DUP5 DUP5 PUSH3 0x2DDA JUMP JUMPDEST DUP3 MSTORE POP PUSH1 0x20 PUSH3 0x30DE DUP5 DUP5 DUP4 ADD PUSH3 0x2EFC JUMP JUMPDEST PUSH1 0x20 DUP4 ADD MSTORE POP PUSH1 0x40 PUSH3 0x30F4 DUP5 DUP3 DUP6 ADD PUSH3 0x383B JUMP JUMPDEST PUSH1 0x40 DUP4 ADD MSTORE POP PUSH1 0x60 DUP3 ADD CALLDATALOAD PUSH1 0x1 PUSH1 0x1 PUSH1 0x40 SHL SUB DUP2 GT ISZERO PUSH3 0x3114 JUMPI PUSH1 0x0 DUP1 REVERT JUMPDEST PUSH3 0x3122 DUP5 DUP3 DUP6 ADD PUSH3 0x2F7B JUMP JUMPDEST PUSH1 0x60 DUP4 ADD MSTORE POP PUSH1 0x80 PUSH3 0x3138 DUP5 DUP3 DUP6 ADD PUSH3 0x383B JUMP JUMPDEST PUSH1 0x80 DUP4 ADD MSTORE POP PUSH1 0xA0 PUSH3 0x314E DUP5 DUP3 DUP6 ADD PUSH3 0x383B JUMP JUMPDEST PUSH1 0xA0 DUP4 ADD MSTORE POP PUSH1 0xC0 PUSH3 0x3164 DUP5 DUP3 DUP6 ADD PUSH3 0x2EEF JUMP JUMPDEST PUSH1 0xC0 DUP4 ADD MSTORE POP PUSH1 0xE0 PUSH3 0x317A DUP5 DUP3 DUP6 ADD PUSH3 0x2EEF JUMP JUMPDEST PUSH1 0xE0 DUP4 ADD MSTORE POP SWAP3 SWAP2 POP POP JUMP JUMPDEST PUSH1 0x0 PUSH2 0x180 DUP3 DUP5 SUB SLT ISZERO PUSH3 0x319A JUMPI PUSH1 0x0 DUP1 REVERT JUMPDEST PUSH3 0x31A7 PUSH2 0x180 PUSH3 0x4566 JUMP JUMPDEST SWAP1 POP DUP2 CALLDATALOAD PUSH1 0x1 PUSH1 0x1 PUSH1 0x40 SHL SUB DUP2 GT ISZERO PUSH3 0x31C0 JUMPI PUSH1 0x0 DUP1 REVERT JUMPDEST PUSH3 0x31CE DUP5 DUP3 DUP6 ADD PUSH3 0x2F7B JUMP JUMPDEST DUP3 MSTORE POP PUSH1 0x20 DUP3 ADD CALLDATALOAD PUSH1 0x1 PUSH1 0x1 PUSH1 0x40 SHL SUB DUP2 GT ISZERO PUSH3 0x31EB JUMPI PUSH1 0x0 DUP1 REVERT JUMPDEST PUSH3 0x31F9 DUP5 DUP3 DUP6 ADD PUSH3 0x2F7B JUMP JUMPDEST PUSH1 0x20 DUP4 ADD MSTORE POP PUSH1 0x40 DUP3 ADD CALLDATALOAD PUSH1 0x1 PUSH1 0x1 PUSH1 0x40 SHL SUB DUP2 GT ISZERO PUSH3 0x3219 JUMPI PUSH1 0x0 DUP1 REVERT JUMPDEST PUSH3 0x3227 DUP5 DUP3 DUP6 ADD PUSH3 0x2F7B JUMP JUMPDEST PUSH1 0x40 DUP4 ADD MSTORE POP PUSH1 0x60 PUSH3 0x323D DUP5 DUP3 DUP6 ADD PUSH3 0x2F16 JUMP JUMPDEST PUSH1 0x60 DUP4 ADD MSTORE POP PUSH1 0x80 PUSH3 0x3253 DUP5 DUP3 DUP6 ADD PUSH3 0x2F09 JUMP JUMPDEST PUSH1 0x80 DUP4 ADD MSTORE POP PUSH1 0xA0 DUP3 ADD CALLDATALOAD PUSH1 0x1 PUSH1 0x1 PUSH1 0x40 SHL SUB DUP2 GT ISZERO PUSH3 0x3273 JUMPI PUSH1 0x0 DUP1 REVERT JUMPDEST PUSH3 0x3281 DUP5 DUP3 DUP6 ADD PUSH3 0x2F7B JUMP JUMPDEST PUSH1 0xA0 DUP4 ADD MSTORE POP PUSH1 0xC0 DUP3 ADD CALLDATALOAD PUSH1 0x1 PUSH1 0x1 PUSH1 0x40 SHL SUB DUP2 GT ISZERO PUSH3 0x32A1 JUMPI PUSH1 0x0 DUP1 REVERT JUMPDEST PUSH3 0x32AF DUP5 DUP3 DUP6 ADD PUSH3 0x2F7B JUMP JUMPDEST PUSH1 0xC0 DUP4 ADD MSTORE POP PUSH1 0xE0 DUP3 ADD CALLDATALOAD PUSH1 0x1 PUSH1 0x1 PUSH1 0x40 SHL SUB DUP2 GT ISZERO PUSH3 0x32CF JUMPI PUSH1 0x0 DUP1 REVERT JUMPDEST PUSH3 0x32DD DUP5 DUP3 DUP6 ADD PUSH3 0x309A JUMP JUMPDEST PUSH1 0xE0 DUP4 ADD MSTORE POP PUSH2 0x100 PUSH3 0x32F4 DUP5 DUP3 DUP6 ADD PUSH3 0x33D1 JUMP JUMPDEST PUSH2 0x100 DUP4 ADD MSTORE POP PUSH2 0x120 DUP3 ADD CALLDATALOAD PUSH1 0x1 PUSH1 0x1 PUSH1 0x40 SHL SUB DUP2 GT ISZERO PUSH3 0x3316 JUMPI PUSH1 0x0 DUP1 REVERT JUMPDEST PUSH3 0x3324 DUP5 DUP3 DUP6 ADD PUSH3 0x37BA JUMP JUMPDEST PUSH2 0x120 DUP4 ADD MSTORE POP PUSH2 0x140 PUSH3 0x333C DUP5 DUP3 DUP6 ADD PUSH3 0x383B JUMP JUMPDEST PUSH2 0x140 DUP4 ADD MSTORE POP PUSH2 0x160 PUSH3 0x3354 DUP5 DUP3 DUP6 ADD PUSH3 0x2DDA JUMP JUMPDEST PUSH2 0x160 DUP4 ADD MSTORE POP SWAP3 SWAP2 POP POP JUMP JUMPDEST PUSH1 0x0 PUSH1 0x60 DUP3 DUP5 SUB SLT ISZERO PUSH3 0x3374 JUMPI PUSH1 0x0 DUP1 REVERT JUMPDEST PUSH3 0x3380 PUSH1 0x60 PUSH3 0x4566 JUMP JUMPDEST SWAP1 POP PUSH1 0x0 PUSH3 0x3390 DUP5 DUP5 PUSH3 0x2F23 JUMP JUMPDEST DUP3 MSTORE POP PUSH1 0x20 PUSH3 0x33A3 DUP5 DUP5 DUP4 ADD PUSH3 0x3848 JUMP JUMPDEST PUSH1 0x20 DUP4 ADD MSTORE POP PUSH1 0x40 DUP3 ADD MLOAD PUSH1 0x1 PUSH1 0x1 PUSH1 0x40 SHL SUB DUP2 GT ISZERO PUSH3 0x33C3 JUMPI PUSH1 0x0 DUP1 REVERT JUMPDEST PUSH3 0x308E DUP5 DUP3 DUP6 ADD PUSH3 0x2DF4 JUMP JUMPDEST PUSH1 0x0 PUSH1 0x20 DUP3 DUP5 SUB SLT ISZERO PUSH3 0x33E4 JUMPI PUSH1 0x0 DUP1 REVERT JUMPDEST PUSH3 0x33F0 PUSH1 0x20 PUSH3 0x4566 JUMP JUMPDEST SWAP1 POP PUSH1 0x0 PUSH3 0x3400 DUP5 DUP5 PUSH3 0x2F16 JUMP JUMPDEST DUP3 MSTORE POP SWAP3 SWAP2 POP POP JUMP JUMPDEST PUSH1 0x0 PUSH1 0x80 DUP3 DUP5 SUB SLT ISZERO PUSH3 0x341C JUMPI PUSH1 0x0 DUP1 REVERT JUMPDEST PUSH3 0x3428 PUSH1 0x80 PUSH3 0x4566 JUMP JUMPDEST DUP3 MLOAD SWAP1 SWAP2 POP PUSH1 0x1 PUSH1 0x1 PUSH1 0x40 SHL SUB DUP2 GT ISZERO PUSH3 0x3442 JUMPI PUSH1 0x0 DUP1 REVERT JUMPDEST PUSH3 0x3450 DUP5 DUP3 DUP6 ADD PUSH3 0x2FD1 JUMP JUMPDEST DUP3 MSTORE POP PUSH1 0x20 DUP3 ADD MLOAD PUSH1 0x1 PUSH1 0x1 PUSH1 0x40 SHL SUB DUP2 GT ISZERO PUSH3 0x346D JUMPI PUSH1 0x0 DUP1 REVERT JUMPDEST PUSH3 0x347B DUP5 DUP3 DUP6 ADD PUSH3 0x34E3 JUMP JUMPDEST PUSH1 0x20 DUP4 ADD MSTORE POP PUSH1 0x40 DUP3 ADD MLOAD PUSH1 0x1 PUSH1 0x1 PUSH1 0x40 SHL SUB DUP2 GT ISZERO PUSH3 0x349B JUMPI PUSH1 0x0 DUP1 REVERT JUMPDEST PUSH3 0x34A9 DUP5 DUP3 DUP6 ADD PUSH3 0x3361 JUMP JUMPDEST PUSH1 0x40 DUP4 ADD MSTORE POP PUSH1 0x60 DUP3 ADD MLOAD PUSH1 0x1 PUSH1 0x1 PUSH1 0x40 SHL SUB DUP2 GT ISZERO PUSH3 0x34C9 JUMPI PUSH1 0x0 DUP1 REVERT JUMPDEST PUSH3 0x34D7 DUP5 DUP3 DUP6 ADD PUSH3 0x3686 JUMP JUMPDEST PUSH1 0x60 DUP4 ADD MSTORE POP SWAP3 SWAP2 POP POP JUMP JUMPDEST PUSH1 0x0 PUSH1 0x80 DUP3 DUP5 SUB SLT ISZERO PUSH3 0x34F6 JUMPI PUSH1 0x0 DUP1 REVERT JUMPDEST PUSH3 0x3502 PUSH1 0x80 PUSH3 0x4566 JUMP JUMPDEST DUP3 MLOAD SWAP1 SWAP2 POP PUSH1 0x1 PUSH1 0x1 PUSH1 0x40 SHL SUB DUP2 GT ISZERO PUSH3 0x351C JUMPI PUSH1 0x0 DUP1 REVERT JUMPDEST PUSH3 0x352A DUP5 DUP3 DUP6 ADD PUSH3 0x2FD1 JUMP JUMPDEST DUP3 MSTORE POP PUSH1 0x20 DUP3 ADD MLOAD PUSH1 0x1 PUSH1 0x1 PUSH1 0x40 SHL SUB DUP2 GT ISZERO PUSH3 0x3547 JUMPI PUSH1 0x0 DUP1 REVERT JUMPDEST PUSH3 0x3555 DUP5 DUP3 DUP6 ADD PUSH3 0x2FD1 JUMP JUMPDEST PUSH1 0x20 DUP4 ADD MSTORE POP PUSH1 0x40 DUP3 ADD MLOAD PUSH1 0x1 PUSH1 0x1 PUSH1 0x40 SHL SUB DUP2 GT ISZERO PUSH3 0x3575 JUMPI PUSH1 0x0 DUP1 REVERT JUMPDEST PUSH3 0x3583 DUP5 DUP3 DUP6 ADD PUSH3 0x2FD1 JUMP JUMPDEST PUSH1 0x40 DUP4 ADD MSTORE POP PUSH1 0x60 DUP3 ADD MLOAD PUSH1 0x1 PUSH1 0x1 PUSH1 0x40 SHL SUB DUP2 GT ISZERO PUSH3 0x35A3 JUMPI PUSH1 0x0 DUP1 REVERT JUMPDEST PUSH3 0x34D7 DUP5 DUP3 DUP6 ADD PUSH3 0x2DF4 JUMP JUMPDEST PUSH1 0x0 PUSH1 0xC0 DUP3 DUP5 SUB SLT ISZERO PUSH3 0x35C4 JUMPI PUSH1 0x0 DUP1 REVERT JUMPDEST PUSH3 0x35D0 PUSH1 0xC0 PUSH3 0x4566 JUMP JUMPDEST SWAP1 POP DUP2 CALLDATALOAD PUSH1 0x1 PUSH1 0x1 PUSH1 0x40 SHL SUB DUP2 GT ISZERO PUSH3 0x35E9 JUMPI PUSH1 0x0 DUP1 REVERT JUMPDEST PUSH3 0x35F7 DUP5 DUP3 DUP6 ADD PUSH3 0x2F7B JUMP JUMPDEST DUP3 MSTORE POP PUSH1 0x20 DUP3 ADD CALLDATALOAD PUSH1 0x1 PUSH1 0x1 PUSH1 0x40 SHL SUB DUP2 GT ISZERO PUSH3 0x3614 JUMPI PUSH1 0x0 DUP1 REVERT JUMPDEST PUSH3 0x3622 DUP5 DUP3 DUP6 ADD PUSH3 0x2F7B JUMP JUMPDEST PUSH1 0x20 DUP4 ADD MSTORE POP PUSH1 0x40 PUSH3 0x3638 DUP5 DUP3 DUP6 ADD PUSH3 0x2DDA JUMP JUMPDEST PUSH1 0x40 DUP4 ADD MSTORE POP PUSH1 0x60 PUSH3 0x364E DUP5 DUP3 DUP6 ADD PUSH3 0x383B JUMP JUMPDEST PUSH1 0x60 DUP4 ADD MSTORE POP PUSH1 0x80 PUSH3 0x3664 DUP5 DUP3 DUP6 ADD PUSH3 0x383B JUMP JUMPDEST PUSH1 0x80 DUP4 ADD MSTORE POP PUSH1 0xA0 PUSH3 0x367A DUP5 DUP3 DUP6 ADD PUSH3 0x383B JUMP JUMPDEST PUSH1 0xA0 DUP4 ADD MSTORE POP SWAP3 SWAP2 POP POP JUMP JUMPDEST PUSH1 0x0 PUSH1 0xE0 DUP3 DUP5 SUB SLT ISZERO PUSH3 0x3699 JUMPI PUSH1 0x0 DUP1 REVERT JUMPDEST PUSH3 0x36A5 PUSH1 0xE0 PUSH3 0x4566 JUMP JUMPDEST SWAP1 POP PUSH1 0x0 PUSH3 0x36B5 DUP5 DUP5 PUSH3 0x2F23 JUMP JUMPDEST DUP3 MSTORE POP PUSH1 0x20 DUP3 ADD MLOAD PUSH1 0x1 PUSH1 0x1 PUSH1 0x40 SHL SUB DUP2 GT ISZERO PUSH3 0x36D2 JUMPI PUSH1 0x0 DUP1 REVERT JUMPDEST PUSH3 0x36E0 DUP5 DUP3 DUP6 ADD PUSH3 0x2FD1 JUMP JUMPDEST PUSH1 0x20 DUP4 ADD MSTORE POP PUSH1 0x40 DUP3 ADD MLOAD PUSH1 0x1 PUSH1 0x1 PUSH1 0x40 SHL SUB DUP2 GT ISZERO PUSH3 0x3700 JUMPI PUSH1 0x0 DUP1 REVERT JUMPDEST PUSH3 0x370E DUP5 DUP3 DUP6 ADD PUSH3 0x2DF4 JUMP JUMPDEST PUSH1 0x40 DUP4 ADD MSTORE POP PUSH1 0x60 PUSH3 0x3724 DUP5 DUP3 DUP6 ADD PUSH3 0x3848 JUMP JUMPDEST PUSH1 0x60 DUP4 ADD MSTORE POP PUSH1 0x80 DUP3 ADD MLOAD PUSH1 0x1 PUSH1 0x1 PUSH1 0x40 SHL SUB DUP2 GT ISZERO PUSH3 0x3744 JUMPI PUSH1 0x0 DUP1 REVERT JUMPDEST PUSH3 0x3752 DUP5 DUP3 DUP6 ADD PUSH3 0x2FD1 JUMP JUMPDEST PUSH1 0x80 DUP4 ADD MSTORE POP PUSH1 0xA0 DUP3 ADD MLOAD PUSH1 0x1 PUSH1 0x1 PUSH1 0x40 SHL SUB DUP2 GT ISZERO PUSH3 0x3772 JUMPI PUSH1 0x0 DUP1 REVERT JUMPDEST PUSH3 0x3780 DUP5 DUP3 DUP6 ADD PUSH3 0x2FD1 JUMP JUMPDEST PUSH1 0xA0 DUP4 ADD MSTORE POP PUSH1 0xC0 DUP3 ADD MLOAD PUSH1 0x1 PUSH1 0x1 PUSH1 0x40 SHL SUB DUP2 GT ISZERO PUSH3 0x37A0 JUMPI PUSH1 0x0 DUP1 REVERT JUMPDEST PUSH3 0x37AE DUP5 DUP3 DUP6 ADD PUSH3 0x2FD1 JUMP JUMPDEST PUSH1 0xC0 DUP4 ADD MSTORE POP SWAP3 SWAP2 POP POP JUMP JUMPDEST PUSH1 0x0 PUSH1 0x80 DUP3 DUP5 SUB SLT ISZERO PUSH3 0x37CD JUMPI PUSH1 0x0 DUP1 REVERT JUMPDEST PUSH3 0x37D9 PUSH1 0x80 PUSH3 0x4566 JUMP JUMPDEST SWAP1 POP PUSH1 0x0 PUSH3 0x37E9 DUP5 DUP5 PUSH3 0x383B JUMP JUMPDEST DUP3 MSTORE POP PUSH1 0x20 DUP3 ADD CALLDATALOAD PUSH1 0x1 PUSH1 0x1 PUSH1 0x40 SHL SUB DUP2 GT ISZERO PUSH3 0x3806 JUMPI PUSH1 0x0 DUP1 REVERT JUMPDEST PUSH3 0x3814 DUP5 DUP3 DUP6 ADD PUSH3 0x2F7B JUMP JUMPDEST PUSH1 0x20 DUP4 ADD MSTORE POP PUSH1 0x40 PUSH3 0x382A DUP5 DUP3 DUP6 ADD PUSH3 0x383B JUMP JUMPDEST PUSH1 0x40 DUP4 ADD MSTORE POP PUSH1 0x60 PUSH3 0x34D7 DUP5 DUP3 DUP6 ADD JUMPDEST DUP1 CALLDATALOAD PUSH3 0x13EA DUP2 PUSH3 0x472C JUMP JUMPDEST DUP1 MLOAD PUSH3 0x13EA DUP2 PUSH3 0x472C JUMP JUMPDEST PUSH1 0x0 PUSH1 0x20 DUP3 DUP5 SUB SLT ISZERO PUSH3 0x3868 JUMPI PUSH1 0x0 DUP1 REVERT JUMPDEST PUSH1 0x0 PUSH3 0x1A7C DUP5 DUP5 PUSH3 0x2DDA JUMP JUMPDEST PUSH1 0x0 PUSH1 0x20 DUP3 DUP5 SUB SLT ISZERO PUSH3 0x3889 JUMPI PUSH1 0x0 DUP1 REVERT JUMPDEST PUSH1 0x0 PUSH3 0x1A7C DUP5 DUP5 PUSH3 0x2DE7 JUMP JUMPDEST PUSH1 0x0 PUSH1 0x20 DUP3 DUP5 SUB SLT ISZERO PUSH3 0x38AA JUMPI PUSH1 0x0 DUP1 REVERT JUMPDEST PUSH1 0x0 PUSH3 0x1A7C DUP5 DUP5 PUSH3 0x2EE2 JUMP JUMPDEST PUSH1 0x0 DUP1 PUSH1 0x20 DUP4 DUP6 SUB SLT ISZERO PUSH3 0x38CC JUMPI PUSH1 0x0 DUP1 REVERT JUMPDEST DUP3 CALLDATALOAD PUSH1 0x1 PUSH1 0x1 PUSH1 0x40 SHL SUB DUP2 GT ISZERO PUSH3 0x38E3 JUMPI PUSH1 0x0 DUP1 REVERT JUMPDEST PUSH3 0x38F1 DUP6 DUP3 DUP7 ADD PUSH3 0x2F30 JUMP JUMPDEST SWAP3 POP SWAP3 POP POP SWAP3 POP SWAP3 SWAP1 POP JUMP JUMPDEST PUSH1 0x0 DUP1 PUSH1 0x0 DUP1 PUSH1 0x40 DUP6 DUP8 SUB SLT ISZERO PUSH3 0x3914 JUMPI PUSH1 0x0 DUP1 REVERT JUMPDEST DUP5 CALLDATALOAD PUSH1 0x1 PUSH1 0x1 PUSH1 0x40 SHL SUB DUP2 GT ISZERO PUSH3 0x392B JUMPI PUSH1 0x0 DUP1 REVERT JUMPDEST PUSH3 0x3939 DUP8 DUP3 DUP9 ADD PUSH3 0x2F30 JUMP JUMPDEST SWAP5 POP SWAP5 POP POP PUSH1 0x20 DUP6 ADD CALLDATALOAD PUSH1 0x1 PUSH1 0x1 PUSH1 0x40 SHL SUB DUP2 GT ISZERO PUSH3 0x3958 JUMPI PUSH1 0x0 DUP1 REVERT JUMPDEST PUSH3 0x3966 DUP8 DUP3 DUP9 ADD PUSH3 0x2F30 JUMP JUMPDEST SWAP6 SWAP9 SWAP5 SWAP8 POP SWAP6 POP POP POP POP JUMP JUMPDEST PUSH1 0x0 DUP1 PUSH1 0x0 DUP1 PUSH1 0x0 PUSH1 0x60 DUP7 DUP9 SUB SLT ISZERO PUSH3 0x398B JUMPI PUSH1 0x0 DUP1 REVERT JUMPDEST DUP6 CALLDATALOAD PUSH1 0x1 PUSH1 0x1 PUSH1 0x40 SHL SUB DUP2 GT ISZERO PUSH3 0x39A2 JUMPI PUSH1 0x0 DUP1 REVERT JUMPDEST PUSH3 0x39B0 DUP9 DUP3 DUP10 ADD PUSH3 0x2F30 JUMP JUMPDEST SWAP6 POP SWAP6 POP POP PUSH1 0x20 DUP7 ADD CALLDATALOAD PUSH1 0x1 PUSH1 0x1 PUSH1 0x40 SHL SUB DUP2 GT ISZERO PUSH3 0x39CF JUMPI PUSH1 0x0 DUP1 REVERT JUMPDEST PUSH3 0x39DD DUP9 DUP3 DUP10 ADD PUSH3 0x2F30 JUMP JUMPDEST SWAP4 POP SWAP4 POP POP PUSH1 0x40 PUSH3 0x39F2 DUP9 DUP3 DUP10 ADD PUSH3 0x2F16 JUMP JUMPDEST SWAP2 POP POP SWAP3 SWAP6 POP SWAP3 SWAP6 SWAP1 SWAP4 POP JUMP JUMPDEST PUSH1 0x0 DUP1 PUSH1 0x40 DUP4 DUP6 SUB SLT ISZERO PUSH3 0x3A13 JUMPI PUSH1 0x0 DUP1 REVERT JUMPDEST DUP3 CALLDATALOAD PUSH1 0x1 PUSH1 0x1 PUSH1 0x40 SHL SUB DUP2 GT ISZERO PUSH3 0x3A2A JUMPI PUSH1 0x0 DUP1 REVERT JUMPDEST PUSH3 0x3A38 DUP6 DUP3 DUP7 ADD PUSH3 0x3186 JUMP JUMPDEST SWAP3 POP POP PUSH1 0x20 DUP4 ADD CALLDATALOAD PUSH1 0x1 PUSH1 0x1 PUSH1 0x40 SHL SUB DUP2 GT ISZERO PUSH3 0x3A55 JUMPI PUSH1 0x0 DUP1 REVERT JUMPDEST PUSH3 0x3A63 DUP6 DUP3 DUP7 ADD PUSH3 0x2E7D JUMP JUMPDEST SWAP2 POP POP SWAP3 POP SWAP3 SWAP1 POP JUMP JUMPDEST PUSH1 0x0 PUSH1 0x20 DUP3 DUP5 SUB SLT ISZERO PUSH3 0x3A80 JUMPI PUSH1 0x0 DUP1 REVERT JUMPDEST DUP2 MLOAD PUSH1 0x1 PUSH1 0x1 PUSH1 0x40 SHL SUB DUP2 GT ISZERO PUSH3 0x3A97 JUMPI PUSH1 0x0 DUP1 REVERT JUMPDEST PUSH3 0x1A7C DUP5 DUP3 DUP6 ADD PUSH3 0x3409 JUMP JUMPDEST PUSH1 0x0 PUSH1 0x20 DUP3 DUP5 SUB SLT ISZERO PUSH3 0x3AB8 JUMPI PUSH1 0x0 DUP1 REVERT JUMPDEST DUP2 CALLDATALOAD PUSH1 0x1 PUSH1 0x1 PUSH1 0x40 SHL SUB DUP2 GT ISZERO PUSH3 0x3ACF JUMPI PUSH1 0x0 DUP1 REVERT JUMPDEST PUSH3 0x1A7C DUP5 DUP3 DUP6 ADD PUSH3 0x35B1 JUMP JUMPDEST PUSH1 0x0 PUSH1 0x20 DUP3 DUP5 SUB SLT ISZERO PUSH3 0x3AF0 JUMPI PUSH1 0x0 DUP1 REVERT JUMPDEST PUSH1 0x0 PUSH3 0x1A7C DUP5 DUP5 PUSH3 0x3848 JUMP JUMPDEST PUSH1 0x0 PUSH3 0x3B0C DUP4 DUP4 PUSH3 0x3FF2 JUMP JUMPDEST SWAP4 SWAP3 POP POP POP JUMP JUMPDEST PUSH3 0x3B1E DUP2 PUSH3 0x4638 JUMP JUMPDEST DUP3 MSTORE POP POP JUMP JUMPDEST PUSH3 0x3B1E DUP2 PUSH3 0x45E9 JUMP JUMPDEST PUSH1 0x0 PUSH3 0x3B3C DUP3 PUSH3 0x45DC JUMP JUMPDEST PUSH3 0x3B48 DUP2 DUP6 PUSH3 0x45E0 JUMP JUMPDEST SWAP4 POP DUP4 PUSH1 0x20 DUP3 MUL DUP6 ADD PUSH3 0x3B5C DUP6 PUSH3 0x45D6 JUMP JUMPDEST DUP1 PUSH1 0x0 JUMPDEST DUP6 DUP2 LT ISZERO PUSH3 0x3B9C JUMPI DUP5 DUP5 SUB DUP10 MSTORE DUP2 MLOAD PUSH3 0x3B7C DUP6 DUP3 PUSH3 0x3AFE JUMP JUMPDEST SWAP5 POP PUSH3 0x3B89 DUP4 PUSH3 0x45D6 JUMP JUMPDEST PUSH1 0x20 SWAP11 SWAP1 SWAP11 ADD SWAP10 SWAP3 POP POP PUSH1 0x1 ADD PUSH3 0x3B60 JUMP JUMPDEST POP SWAP2 SWAP8 SWAP7 POP POP POP POP POP POP POP JUMP JUMPDEST PUSH3 0x3B1E DUP2 PUSH3 0x45FB JUMP JUMPDEST PUSH3 0x3B1E DUP2 PUSH3 0x4645 JUMP JUMPDEST PUSH3 0x3B1E DUP2 PUSH3 0x4652 JUMP JUMPDEST PUSH3 0x3B1E DUP2 PUSH3 0x465F JUMP JUMPDEST PUSH1 0x0 PUSH3 0x3BE3 DUP4 DUP6 PUSH3 0x2AED JUMP JUMPDEST SWAP4 POP PUSH3 0x3BF2 DUP4 DUP6 DUP5 PUSH3 0x466C JUMP JUMPDEST POP POP ADD SWAP1 JUMP JUMPDEST PUSH1 0x0 PUSH3 0x3C05 DUP3 PUSH3 0x45DC JUMP JUMPDEST PUSH3 0x3C11 DUP2 DUP6 PUSH3 0x45E0 JUMP JUMPDEST SWAP4 POP PUSH3 0x3C23 DUP2 DUP6 PUSH1 0x20 DUP7 ADD PUSH3 0x4678 JUMP JUMPDEST PUSH3 0x3C2E DUP2 PUSH3 0x46A7 JUMP JUMPDEST SWAP1 SWAP4 ADD SWAP4 SWAP3 POP POP POP JUMP JUMPDEST PUSH1 0x0 PUSH3 0x3C45 DUP3 PUSH3 0x45DC JUMP JUMPDEST PUSH3 0x3C51 DUP2 DUP6 PUSH3 0x2AED JUMP JUMPDEST SWAP4 POP PUSH3 0x3C63 DUP2 DUP6 PUSH1 0x20 DUP7 ADD PUSH3 0x4678 JUMP JUMPDEST SWAP3 SWAP1 SWAP3 ADD SWAP3 SWAP2 POP POP JUMP JUMPDEST PUSH1 0x0 PUSH3 0x3C7C PUSH1 0x11 DUP4 PUSH3 0x45E0 JUMP JUMPDEST PUSH17 0x383937B837B9B0B61036B4B9B9B4B73397 PUSH1 0x79 SHL DUP2 MSTORE PUSH1 0x20 ADD SWAP3 SWAP2 POP POP JUMP JUMPDEST PUSH1 0x0 PUSH3 0x3CAB PUSH1 0x18 DUP4 PUSH3 0x45E0 JUMP JUMPDEST PUSH32 0x626173652073657474696E67206E6F74206578697374732E0000000000000000 DUP2 MSTORE PUSH1 0x20 ADD SWAP3 SWAP2 POP POP JUMP JUMPDEST PUSH1 0x0 PUSH3 0x3CE6 PUSH1 0x1C DUP4 PUSH3 0x45E0 JUMP JUMPDEST PUSH32 0x70726F706F7365722073657474696E67206E6F74206578697374732E00000000 DUP2 MSTORE PUSH1 0x20 ADD SWAP3 SWAP2 POP POP JUMP JUMPDEST PUSH1 0x0 PUSH3 0x3D21 PUSH1 0x1A DUP4 PUSH3 0x45E0 JUMP JUMPDEST PUSH32 0x70726F706F73616C20646973636F496420697320656D70747921000000000000 DUP2 MSTORE PUSH1 0x20 ADD SWAP3 SWAP2 POP POP JUMP JUMPDEST PUSH1 0x0 PUSH3 0x3D5C PUSH1 0x12 DUP4 PUSH3 0x45E0 JUMP JUMPDEST PUSH18 0x646973636F20696420697320656D70747921 PUSH1 0x70 SHL DUP2 MSTORE PUSH1 0x20 ADD SWAP3 SWAP2 POP POP JUMP JUMPDEST PUSH1 0x0 PUSH3 0x3D8C PUSH1 0x15 DUP4 PUSH3 0x45E0 JUMP JUMPDEST PUSH21 0x34B9379030B2323932B9B99034B99032B6B83A3C97 PUSH1 0x59 SHL DUP2 MSTORE PUSH1 0x20 ADD SWAP3 SWAP2 POP POP JUMP JUMPDEST PUSH1 0x0 PUSH3 0x3DBF PUSH1 0x1E DUP4 PUSH3 0x45E0 JUMP JUMPDEST PUSH32 0x6120696E76616C696420766F74652C20766F7465206E756D203C3D20302E0000 DUP2 MSTORE PUSH1 0x20 ADD SWAP3 SWAP2 POP POP JUMP JUMPDEST PUSH1 0x0 PUSH3 0x3DFA PUSH1 0x23 DUP4 PUSH3 0x45E0 JUMP JUMPDEST PUSH32 0x7468652070726F706F73616C20636F756C64206E6F742062652072656C656173 DUP2 MSTORE PUSH3 0x32B217 PUSH1 0xE9 SHL PUSH1 0x20 DUP3 ADD MSTORE PUSH1 0x40 ADD SWAP3 SWAP2 POP POP JUMP JUMPDEST PUSH1 0x0 PUSH3 0x3E41 PUSH1 0x1E DUP4 PUSH3 0x45E0 JUMP JUMPDEST PUSH32 0x70726F706F73616C206D697373696E672C20636865636B2066697273742E0000 DUP2 MSTORE PUSH1 0x20 ADD SWAP3 SWAP2 POP POP JUMP JUMPDEST PUSH1 0x0 PUSH3 0x3E7C PUSH1 0x3F DUP4 PUSH3 0x45E0 JUMP JUMPDEST PUSH32 0x70726F706F73616C20616C7265616479206578697374732C20706C6561736520 DUP2 MSTORE PUSH32 0x7265706C61636520776974682074686520636F6E7472616374206F776E657200 PUSH1 0x20 DUP3 ADD MSTORE PUSH1 0x40 ADD SWAP3 SWAP2 POP POP JUMP JUMPDEST PUSH1 0x0 PUSH3 0x3EDD PUSH1 0x1B DUP4 PUSH3 0x45E0 JUMP JUMPDEST PUSH32 0x70726F706F73616C2073657269616C496420697320656D707479210000000000 DUP2 MSTORE PUSH1 0x20 ADD SWAP3 SWAP2 POP POP JUMP JUMPDEST PUSH1 0x0 PUSH3 0x3F18 PUSH1 0x10 DUP4 PUSH3 0x45E0 JUMP JUMPDEST PUSH16 0x3B37BA329034B99032BC3834B932B217 PUSH1 0x81 SHL DUP2 MSTORE PUSH1 0x20 ADD SWAP3 SWAP2 POP POP JUMP JUMPDEST PUSH1 0x0 PUSH3 0x3F46 PUSH1 0x19 DUP4 PUSH3 0x45E0 JUMP JUMPDEST PUSH32 0x766F7465722073657474696E67206E6F74206578697374732E00000000000000 DUP2 MSTORE PUSH1 0x20 ADD SWAP3 SWAP2 POP POP JUMP JUMPDEST PUSH1 0x0 PUSH3 0x3F81 PUSH1 0x1 DUP4 PUSH3 0x2AED JUMP JUMPDEST PUSH1 0x1 PUSH1 0xFE SHL DUP2 MSTORE PUSH1 0x1 ADD SWAP3 SWAP2 POP POP JUMP JUMPDEST PUSH1 0x0 PUSH3 0x3FA0 PUSH1 0x3A DUP4 PUSH3 0x45E0 JUMP JUMPDEST PUSH32 0x7468652070726F706F73616C20636F756C64206E6F7420626520766F74656420 DUP2 MSTORE PUSH32 0x7768656E20737461747573206973206E6F7420766F74696E672E000000000000 PUSH1 0x20 DUP3 ADD MSTORE PUSH1 0x40 ADD SWAP3 SWAP2 POP POP JUMP JUMPDEST DUP1 MLOAD PUSH1 0x0 SWAP1 PUSH1 0x60 DUP5 ADD SWAP1 PUSH3 0x4008 DUP6 DUP3 PUSH3 0x432B JUMP JUMPDEST POP PUSH1 0x20 DUP4 ADD MLOAD PUSH3 0x401D PUSH1 0x20 DUP7 ADD DUP3 PUSH3 0x432B JUMP JUMPDEST POP PUSH1 0x40 DUP4 ADD MLOAD DUP5 DUP3 SUB PUSH1 0x40 DUP7 ADD MSTORE PUSH3 0x4037 DUP3 DUP3 PUSH3 0x3BF8 JUMP JUMPDEST SWAP6 SWAP5 POP POP POP POP POP JUMP JUMPDEST DUP1 MLOAD PUSH1 0x0 SWAP1 PUSH2 0x100 DUP5 ADD SWAP1 PUSH3 0x4057 DUP6 DUP3 PUSH3 0x3B24 JUMP JUMPDEST POP PUSH1 0x20 DUP4 ADD MLOAD PUSH3 0x406C PUSH1 0x20 DUP7 ADD DUP3 PUSH3 0x3BB4 JUMP JUMPDEST POP PUSH1 0x40 DUP4 ADD MLOAD PUSH3 0x4081 PUSH1 0x40 DUP7 ADD DUP3 PUSH3 0x432B JUMP JUMPDEST POP PUSH1 0x60 DUP4 ADD MLOAD DUP5 DUP3 SUB PUSH1 0x60 DUP7 ADD MSTORE PUSH3 0x409B DUP3 DUP3 PUSH3 0x3BF8 JUMP JUMPDEST SWAP2 POP POP PUSH1 0x80 DUP4 ADD MLOAD PUSH3 0x40B2 PUSH1 0x80 DUP7 ADD DUP3 PUSH3 0x432B JUMP JUMPDEST POP PUSH1 0xA0 DUP4 ADD MLOAD PUSH3 0x40C7 PUSH1 0xA0 DUP7 ADD DUP3 PUSH3 0x432B JUMP JUMPDEST POP PUSH1 0xC0 DUP4 ADD MLOAD PUSH3 0x40DC PUSH1 0xC0 DUP7 ADD DUP3 PUSH3 0x3BA9 JUMP JUMPDEST POP PUSH1 0xE0 DUP4 ADD MLOAD PUSH3 0x40F1 PUSH1 0xE0 DUP7 ADD DUP3 PUSH3 0x3BA9 JUMP JUMPDEST POP SWAP4 SWAP3 POP POP POP JUMP JUMPDEST DUP1 MLOAD PUSH2 0x180 DUP1 DUP5 MSTORE PUSH1 0x0 SWAP2 SWAP1 DUP5 ADD SWAP1 PUSH3 0x4114 DUP3 DUP3 PUSH3 0x3BF8 JUMP JUMPDEST SWAP2 POP POP PUSH1 0x20 DUP4 ADD MLOAD DUP5 DUP3 SUB PUSH1 0x20 DUP7 ADD MSTORE PUSH3 0x4130 DUP3 DUP3 PUSH3 0x3BF8 JUMP JUMPDEST SWAP2 POP POP PUSH1 0x40 DUP4 ADD MLOAD DUP5 DUP3 SUB PUSH1 0x40 DUP7 ADD MSTORE PUSH3 0x414C DUP3 DUP3 PUSH3 0x3BF8 JUMP JUMPDEST SWAP2 POP POP PUSH1 0x60 DUP4 ADD MLOAD PUSH3 0x4163 PUSH1 0x60 DUP7 ADD DUP3 PUSH3 0x3BCA JUMP JUMPDEST POP PUSH1 0x80 DUP4 ADD MLOAD PUSH3 0x4178 PUSH1 0x80 DUP7 ADD DUP3 PUSH3 0x3BBF JUMP JUMPDEST POP PUSH1 0xA0 DUP4 ADD MLOAD DUP5 DUP3 SUB PUSH1 0xA0 DUP7 ADD MSTORE PUSH3 0x4192 DUP3 DUP3 PUSH3 0x3BF8 JUMP JUMPDEST SWAP2 POP POP PUSH1 0xC0 DUP4 ADD MLOAD DUP5 DUP3 SUB PUSH1 0xC0 DUP7 ADD MSTORE PUSH3 0x41AE DUP3 DUP3 PUSH3 0x3BF8 JUMP JUMPDEST SWAP2 POP POP PUSH1 0xE0 DUP4 ADD MLOAD DUP5 DUP3 SUB PUSH1 0xE0 DUP7 ADD MSTORE PUSH3 0x41CA DUP3 DUP3 PUSH3 0x4040 JUMP JUMPDEST SWAP2 POP POP PUSH2 0x100 DUP4 ADD MLOAD PUSH3 0x41E3 PUSH2 0x100 DUP7 ADD DUP3 PUSH3 0x422F JUMP JUMPDEST POP PUSH2 0x120 DUP4 ADD MLOAD DUP5 DUP3 SUB PUSH2 0x120 DUP7 ADD MSTORE PUSH3 0x41FF DUP3 DUP3 PUSH3 0x42D4 JUMP JUMPDEST SWAP2 POP POP PUSH2 0x140 DUP4 ADD MLOAD PUSH3 0x4218 PUSH2 0x140 DUP7 ADD DUP3 PUSH3 0x432B JUMP JUMPDEST POP PUSH2 0x160 DUP4 ADD MLOAD PUSH3 0x40F1 PUSH2 0x160 DUP7 ADD DUP3 PUSH3 0x3B24 JUMP JUMPDEST DUP1 MLOAD PUSH1 0x20 DUP4 ADD SWAP1 PUSH3 0x4242 DUP5 DUP3 PUSH3 0x3BCA JUMP JUMPDEST POP POP POP POP JUMP JUMPDEST DUP1 MLOAD PUSH1 0xC0 DUP1 DUP5 MSTORE PUSH1 0x0 SWAP2 SWAP1 DUP5 ADD SWAP1 PUSH3 0x4262 DUP3 DUP3 PUSH3 0x3BF8 JUMP JUMPDEST SWAP2 POP POP PUSH1 0x20 DUP4 ADD MLOAD DUP5 DUP3 SUB PUSH1 0x20 DUP7 ADD MSTORE PUSH3 0x427E DUP3 DUP3 PUSH3 0x3BF8 JUMP JUMPDEST SWAP2 POP POP PUSH1 0x40 DUP4 ADD MLOAD PUSH3 0x4295 PUSH1 0x40 DUP7 ADD DUP3 PUSH3 0x3B24 JUMP JUMPDEST POP PUSH1 0x60 DUP4 ADD MLOAD PUSH3 0x42AA PUSH1 0x60 DUP7 ADD DUP3 PUSH3 0x432B JUMP JUMPDEST POP PUSH1 0x80 DUP4 ADD MLOAD PUSH3 0x42BF PUSH1 0x80 DUP7 ADD DUP3 PUSH3 0x432B JUMP JUMPDEST POP PUSH1 0xA0 DUP4 ADD MLOAD PUSH3 0x40F1 PUSH1 0xA0 DUP7 ADD DUP3 PUSH3 0x432B JUMP JUMPDEST DUP1 MLOAD PUSH1 0x0 SWAP1 PUSH1 0x80 DUP5 ADD SWAP1 PUSH3 0x42EA DUP6 DUP3 PUSH3 0x432B JUMP JUMPDEST POP PUSH1 0x20 DUP4 ADD MLOAD DUP5 DUP3 SUB PUSH1 0x20 DUP7 ADD MSTORE PUSH3 0x4304 DUP3 DUP3 PUSH3 0x3BF8 JUMP JUMPDEST SWAP2 POP POP PUSH1 0x40 DUP4 ADD MLOAD PUSH3 0x431B PUSH1 0x40 DUP7 ADD DUP3 PUSH3 0x432B JUMP JUMPDEST POP PUSH1 0x60 DUP4 ADD MLOAD PUSH3 0x40F1 PUSH1 0x60 DUP7 ADD DUP3 JUMPDEST PUSH3 0x3B1E DUP2 PUSH3 0x2DD7 JUMP JUMPDEST PUSH1 0x0 PUSH3 0x1A7C DUP3 DUP5 DUP7 PUSH3 0x3BD5 JUMP JUMPDEST PUSH1 0x0 PUSH3 0x3B0C DUP3 DUP5 PUSH3 0x3C38 JUMP JUMPDEST PUSH1 0x0 PUSH3 0x4361 DUP3 DUP6 PUSH3 0x3C38 JUMP JUMPDEST SWAP2 POP PUSH3 0x436E DUP3 PUSH3 0x3F72 JUMP JUMPDEST SWAP2 POP PUSH3 0x1A7C DUP3 DUP5 PUSH3 0x3C38 JUMP JUMPDEST PUSH1 0x60 DUP2 ADD PUSH3 0x438C DUP3 DUP7 PUSH3 0x3B13 JUMP JUMPDEST PUSH3 0x439B PUSH1 0x20 DUP4 ADD DUP6 PUSH3 0x3B13 JUMP JUMPDEST PUSH3 0x1A7C PUSH1 0x40 DUP4 ADD DUP5 PUSH3 0x432B JUMP JUMPDEST PUSH1 0x60 DUP2 ADD PUSH3 0x43BA DUP3 DUP7 PUSH3 0x3BA9 JUMP JUMPDEST PUSH3 0x439B PUSH1 0x20 DUP4 ADD DUP6 PUSH3 0x3B24 JUMP JUMPDEST PUSH1 0x20 DUP2 ADD PUSH3 0x13EA DUP3 DUP5 PUSH3 0x3BCA JUMP JUMPDEST PUSH1 0x40 DUP2 ADD PUSH3 0x43E9 DUP3 DUP6 PUSH3 0x3BCA JUMP JUMPDEST PUSH3 0x3B0C PUSH1 0x20 DUP4 ADD DUP5 PUSH3 0x3BCA JUMP JUMPDEST PUSH1 0x20 DUP1 DUP3 MSTORE DUP2 ADD PUSH3 0x3B0C DUP2 DUP5 PUSH3 0x3BF8 JUMP JUMPDEST PUSH1 0x20 DUP1 DUP3 MSTORE DUP2 ADD PUSH3 0x13EA DUP2 PUSH3 0x3C6D JUMP JUMPDEST PUSH1 0x20 DUP1 DUP3 MSTORE DUP2 ADD PUSH3 0x13EA DUP2 PUSH3 0x3C9C JUMP JUMPDEST PUSH1 0x20 DUP1 DUP3 MSTORE DUP2 ADD PUSH3 0x13EA DUP2 PUSH3 0x3CD7 JUMP JUMPDEST PUSH1 0x20 DUP1 DUP3 MSTORE DUP2 ADD PUSH3 0x13EA DUP2 PUSH3 0x3D12 JUMP JUMPDEST PUSH1 0x20 DUP1 DUP3 MSTORE DUP2 ADD PUSH3 0x13EA DUP2 PUSH3 0x3D4D JUMP JUMPDEST PUSH1 0x20 DUP1 DUP3 MSTORE DUP2 ADD PUSH3 0x13EA DUP2 PUSH3 0x3D7D JUMP JUMPDEST PUSH1 0x20 DUP1 DUP3 MSTORE DUP2 ADD PUSH3 0x13EA DUP2 PUSH3 0x3DB0 JUMP JUMPDEST PUSH1 0x20 DUP1 DUP3 MSTORE DUP2 ADD PUSH3 0x13EA DUP2 PUSH3 0x3DEB JUMP JUMPDEST PUSH1 0x20 DUP1 DUP3 MSTORE DUP2 ADD PUSH3 0x13EA DUP2 PUSH3 0x3E32 JUMP JUMPDEST PUSH1 0x20 DUP1 DUP3 MSTORE DUP2 ADD PUSH3 0x13EA DUP2 PUSH3 0x3E6D JUMP JUMPDEST PUSH1 0x20 DUP1 DUP3 MSTORE DUP2 ADD PUSH3 0x13EA DUP2 PUSH3 0x3ECE JUMP JUMPDEST PUSH1 0x20 DUP1 DUP3 MSTORE DUP2 ADD PUSH3 0x13EA DUP2 PUSH3 0x3F09 JUMP JUMPDEST PUSH1 0x20 DUP1 DUP3 MSTORE DUP2 ADD PUSH3 0x13EA DUP2 PUSH3 0x3F37 JUMP JUMPDEST PUSH1 0x20 DUP1 DUP3 MSTORE DUP2 ADD PUSH3 0x13EA DUP2 PUSH3 0x3F91 JUMP JUMPDEST PUSH1 0x20 DUP1 DUP3 MSTORE DUP2 ADD PUSH3 0x3B0C DUP2 DUP5 PUSH3 0x40F9 JUMP JUMPDEST PUSH1 0x40 DUP1 DUP3 MSTORE DUP2 ADD PUSH3 0x452D DUP2 DUP6 PUSH3 0x40F9 JUMP JUMPDEST SWAP1 POP DUP2 DUP2 SUB PUSH1 0x20 DUP4 ADD MSTORE PUSH3 0x1A7C DUP2 DUP5 PUSH3 0x3B2F JUMP JUMPDEST PUSH1 0x20 DUP1 DUP3 MSTORE DUP2 ADD PUSH3 0x3B0C DUP2 DUP5 PUSH3 0x4248 JUMP JUMPDEST PUSH1 0x20 DUP2 ADD PUSH3 0x13EA DUP3 DUP5 PUSH3 0x432B JUMP JUMPDEST PUSH1 0x40 MLOAD DUP2 DUP2 ADD PUSH1 0x1 PUSH1 0x1 PUSH1 0x40 SHL SUB DUP2 GT DUP3 DUP3 LT OR ISZERO PUSH3 0x4585 JUMPI PUSH1 0x0 DUP1 REVERT JUMPDEST PUSH1 0x40 MSTORE SWAP2 SWAP1 POP JUMP JUMPDEST PUSH1 0x0 PUSH1 0x1 PUSH1 0x1 PUSH1 0x40 SHL SUB DUP3 GT ISZERO PUSH3 0x45A4 JUMPI PUSH1 0x0 DUP1 REVERT JUMPDEST POP PUSH1 0x20 SWAP1 DUP2 MUL ADD SWAP1 JUMP JUMPDEST PUSH1 0x0 PUSH1 0x1 PUSH1 0x1 PUSH1 0x40 SHL SUB DUP3 GT ISZERO PUSH3 0x45C5 JUMPI PUSH1 0x0 DUP1 REVERT JUMPDEST POP PUSH1 0x20 PUSH1 0x1F SWAP2 SWAP1 SWAP2 ADD PUSH1 0x1F NOT AND ADD SWAP1 JUMP JUMPDEST PUSH1 0x20 ADD SWAP1 JUMP JUMPDEST MLOAD SWAP1 JUMP JUMPDEST SWAP1 DUP2 MSTORE PUSH1 0x20 ADD SWAP1 JUMP JUMPDEST PUSH1 0x0 PUSH3 0x13EA DUP3 PUSH3 0x462C JUMP JUMPDEST ISZERO ISZERO SWAP1 JUMP JUMPDEST PUSH1 0x0 PUSH3 0x13EA DUP3 PUSH3 0x45E9 JUMP JUMPDEST DUP1 PUSH3 0x2AED DUP2 PUSH3 0x46B1 JUMP JUMPDEST DUP1 PUSH3 0x2AED DUP2 PUSH3 0x46BF JUMP JUMPDEST DUP1 PUSH3 0x2AED DUP2 PUSH3 0x46CA JUMP JUMPDEST PUSH1 0x1 PUSH1 0x1 PUSH1 0xA0 SHL SUB AND SWAP1 JUMP JUMPDEST PUSH1 0x0 PUSH3 0x13EA DUP3 PUSH3 0x45FB JUMP JUMPDEST PUSH1 0x0 PUSH3 0x13EA DUP3 PUSH3 0x4608 JUMP JUMPDEST PUSH1 0x0 PUSH3 0x13EA DUP3 PUSH3 0x4614 JUMP JUMPDEST PUSH1 0x0 PUSH3 0x13EA DUP3 PUSH3 0x4620 JUMP JUMPDEST DUP3 DUP2 DUP4 CALLDATACOPY POP PUSH1 0x0 SWAP2 ADD MSTORE JUMP JUMPDEST PUSH1 0x0 JUMPDEST DUP4 DUP2 LT ISZERO PUSH3 0x4695 JUMPI DUP2 DUP2 ADD MLOAD DUP4 DUP3 ADD MSTORE PUSH1 0x20 ADD PUSH3 0x467B JUMP JUMPDEST DUP4 DUP2 GT ISZERO PUSH3 0x4242 JUMPI POP POP PUSH1 0x0 SWAP2 ADD MSTORE JUMP JUMPDEST PUSH1 0x1F ADD PUSH1 0x1F NOT AND SWAP1 JUMP JUMPDEST PUSH1 0x2 DUP2 LT PUSH3 0x46BC JUMPI INVALID JUMPDEST POP JUMP JUMPDEST PUSH1 0x7 DUP2 LT PUSH3 0x46BC JUMPI INVALID JUMPDEST PUSH1 0x4 DUP2 LT PUSH3 0x46BC JUMPI INVALID JUMPDEST PUSH3 0x46E0 DUP2 PUSH3 0x45E9 JUMP JUMPDEST DUP2 EQ PUSH3 0x46BC JUMPI PUSH1 0x0 DUP1 REVERT JUMPDEST PUSH3 0x46E0 DUP2 PUSH3 0x45F6 JUMP JUMPDEST PUSH3 0x46E0 DUP2 PUSH3 0x45FB JUMP JUMPDEST PUSH1 0x2 DUP2 LT PUSH3 0x46BC JUMPI PUSH1 0x0 DUP1 REVERT JUMPDEST PUSH1 0x7 DUP2 LT PUSH3 0x46BC JUMPI PUSH1 0x0 DUP1 REVERT JUMPDEST PUSH1 0x4 DUP2 LT PUSH3 0x46BC JUMPI PUSH1 0x0 DUP1 REVERT JUMPDEST PUSH3 0x46E0 DUP2 PUSH3 0x2DD7 JUMP INVALID PUSH1 0x80 PUSH1 0x40 MSTORE CALLVALUE DUP1 ISZERO PUSH2 0x10 JUMPI PUSH1 0x0 DUP1 REVERT JUMPDEST POP PUSH1 0x40 MLOAD PUSH2 0x6CE CODESIZE SUB DUP1 PUSH2 0x6CE DUP4 CODECOPY DUP2 ADD PUSH1 0x40 DUP2 SWAP1 MSTORE PUSH2 0x2F SWAP2 PUSH2 0x138 JUMP JUMPDEST DUP1 MLOAD PUSH2 0x42 SWAP1 PUSH1 0x0 SWAP1 PUSH1 0x20 DUP5 ADD SWAP1 PUSH2 0x49 JUMP JUMPDEST POP POP PUSH2 0x1F1 JUMP JUMPDEST DUP3 DUP1 SLOAD PUSH1 0x1 DUP2 PUSH1 0x1 AND ISZERO PUSH2 0x100 MUL SUB AND PUSH1 0x2 SWAP1 DIV SWAP1 PUSH1 0x0 MSTORE PUSH1 0x20 PUSH1 0x0 KECCAK256 SWAP1 PUSH1 0x1F ADD PUSH1 0x20 SWAP1 DIV DUP2 ADD SWAP3 DUP3 PUSH1 0x1F LT PUSH2 0x8A JUMPI DUP1 MLOAD PUSH1 0xFF NOT AND DUP4 DUP1 ADD OR DUP6 SSTORE PUSH2 0xB7 JUMP JUMPDEST DUP3 DUP1 ADD PUSH1 0x1 ADD DUP6 SSTORE DUP3 ISZERO PUSH2 0xB7 JUMPI SWAP2 DUP3 ADD JUMPDEST DUP3 DUP2 GT ISZERO PUSH2 0xB7 JUMPI DUP3 MLOAD DUP3 SSTORE SWAP2 PUSH1 0x20 ADD SWAP2 SWAP1 PUSH1 0x1 ADD SWAP1 PUSH2 0x9C JUMP JUMPDEST POP PUSH2 0xC3 SWAP3 SWAP2 POP PUSH2 0xC7 JUMP JUMPDEST POP SWAP1 JUMP JUMPDEST PUSH2 0xE1 SWAP2 SWAP1 JUMPDEST DUP1 DUP3 GT ISZERO PUSH2 0xC3 JUMPI PUSH1 0x0 DUP2 SSTORE PUSH1 0x1 ADD PUSH2 0xCD JUMP JUMPDEST SWAP1 JUMP JUMPDEST PUSH1 0x0 DUP3 PUSH1 0x1F DUP4 ADD SLT PUSH2 0xF5 JUMPI PUSH1 0x0 DUP1 REVERT JUMPDEST DUP2 MLOAD PUSH2 0x108 PUSH2 0x103 DUP3 PUSH2 0x19A JUMP JUMPDEST PUSH2 0x174 JUMP JUMPDEST SWAP2 POP DUP1 DUP3 MSTORE PUSH1 0x20 DUP4 ADD PUSH1 0x20 DUP4 ADD DUP6 DUP4 DUP4 ADD GT ISZERO PUSH2 0x124 JUMPI PUSH1 0x0 DUP1 REVERT JUMPDEST PUSH2 0x12F DUP4 DUP3 DUP5 PUSH2 0x1C1 JUMP JUMPDEST POP POP POP SWAP3 SWAP2 POP POP JUMP JUMPDEST PUSH1 0x0 PUSH1 0x20 DUP3 DUP5 SUB SLT ISZERO PUSH2 0x14A JUMPI PUSH1 0x0 DUP1 REVERT JUMPDEST DUP2 MLOAD PUSH1 0x1 PUSH1 0x1 PUSH1 0x40 SHL SUB DUP2 GT ISZERO PUSH2 0x160 JUMPI PUSH1 0x0 DUP1 REVERT JUMPDEST PUSH2 0x16C DUP5 DUP3 DUP6 ADD PUSH2 0xE4 JUMP JUMPDEST SWAP5 SWAP4 POP POP POP POP JUMP JUMPDEST PUSH1 0x40 MLOAD DUP2 DUP2 ADD PUSH1 0x1 PUSH1 0x1 PUSH1 0x40 SHL SUB DUP2 GT DUP3 DUP3 LT OR ISZERO PUSH2 0x192 JUMPI PUSH1 0x0 DUP1 REVERT JUMPDEST PUSH1 0x40 MSTORE SWAP2 SWAP1 POP JUMP JUMPDEST PUSH1 0x0 PUSH1 0x1 PUSH1 0x1 PUSH1 0x40 SHL SUB DUP3 GT ISZERO PUSH2 0x1B0 JUMPI PUSH1 0x0 DUP1 REVERT JUMPDEST POP PUSH1 0x20 PUSH1 0x1F SWAP2 SWAP1 SWAP2 ADD PUSH1 0x1F NOT AND ADD SWAP1 JUMP JUMPDEST PUSH1 0x0 JUMPDEST DUP4 DUP2 LT ISZERO PUSH2 0x1DC JUMPI DUP2 DUP2 ADD MLOAD DUP4 DUP3 ADD MSTORE PUSH1 0x20 ADD PUSH2 0x1C4 JUMP JUMPDEST DUP4 DUP2 GT ISZERO PUSH2 0x1EB JUMPI PUSH1 0x0 DUP5 DUP5 ADD MSTORE JUMPDEST POP POP POP POP JUMP JUMPDEST PUSH2 0x4CE DUP1 PUSH2 0x200 PUSH1 0x0 CODECOPY PUSH1 0x0 RETURN INVALID PUSH1 0x80 PUSH1 0x40 MSTORE PUSH1 0x4 CALLDATASIZE LT PUSH2 0x4A JUMPI PUSH1 0x0 CALLDATALOAD PUSH1 0xE0 SHR DUP1 PUSH4 0x38CC4831 EQ PUSH2 0x4C JUMPI DUP1 PUSH4 0x4F95A04B EQ PUSH2 0x77 JUMPI DUP1 PUSH4 0xBEABACC8 EQ PUSH2 0x8A JUMPI DUP1 PUSH4 0xE1F21C67 EQ PUSH2 0xAA JUMPI DUP1 PUSH4 0xFB1E6A62 EQ PUSH2 0xCA JUMPI JUMPDEST STOP JUMPDEST CALLVALUE DUP1 ISZERO PUSH2 0x58 JUMPI PUSH1 0x0 DUP1 REVERT JUMPDEST POP PUSH2 0x61 PUSH2 0xEC JUMP JUMPDEST PUSH1 0x40 MLOAD PUSH2 0x6E SWAP2 SWAP1 PUSH2 0x3A7 JUMP JUMPDEST PUSH1 0x40 MLOAD DUP1 SWAP2 SUB SWAP1 RETURN JUMPDEST PUSH2 0x4A PUSH2 0x85 CALLDATASIZE PUSH1 0x4 PUSH2 0x2AA JUMP JUMPDEST PUSH2 0xF0 JUMP JUMPDEST CALLVALUE DUP1 ISZERO PUSH2 0x96 JUMPI PUSH1 0x0 DUP1 REVERT JUMPDEST POP PUSH2 0x4A PUSH2 0xA5 CALLDATASIZE PUSH1 0x4 PUSH2 0x30A JUMP JUMPDEST PUSH2 0x12B JUMP JUMPDEST CALLVALUE DUP1 ISZERO PUSH2 0xB6 JUMPI PUSH1 0x0 DUP1 REVERT JUMPDEST POP PUSH2 0x4A PUSH2 0xC5 CALLDATASIZE PUSH1 0x4 PUSH2 0x30A JUMP JUMPDEST PUSH2 0x1B4 JUMP JUMPDEST CALLVALUE DUP1 ISZERO PUSH2 0xD6 JUMPI PUSH1 0x0 DUP1 REVERT JUMPDEST POP PUSH2 0xDF PUSH2 0x1E2 JUMP JUMPDEST PUSH1 0x40 MLOAD PUSH2 0x6E SWAP2 SWAP1 PUSH2 0x3D7 JUMP JUMPDEST ADDRESS SWAP1 JUMP JUMPDEST PUSH1 0x40 MLOAD PUSH1 0x1 PUSH1 0x1 PUSH1 0xA0 SHL SUB DUP4 AND SWAP1 DUP3 ISZERO PUSH2 0x8FC MUL SWAP1 DUP4 SWAP1 PUSH1 0x0 DUP2 DUP2 DUP2 DUP6 DUP9 DUP9 CALL SWAP4 POP POP POP POP ISZERO DUP1 ISZERO PUSH2 0x126 JUMPI RETURNDATASIZE PUSH1 0x0 DUP1 RETURNDATACOPY RETURNDATASIZE PUSH1 0x0 REVERT JUMPDEST POP POP POP JUMP JUMPDEST PUSH1 0x40 MLOAD PUSH4 0xA9059CBB PUSH1 0xE0 SHL DUP2 MSTORE PUSH1 0x1 PUSH1 0x1 PUSH1 0xA0 SHL SUB DUP5 AND SWAP1 PUSH4 0xA9059CBB SWAP1 PUSH2 0x159 SWAP1 DUP6 SWAP1 DUP6 SWAP1 PUSH1 0x4 ADD PUSH2 0x3B5 JUMP JUMPDEST PUSH1 0x20 PUSH1 0x40 MLOAD DUP1 DUP4 SUB DUP2 PUSH1 0x0 DUP8 DUP1 EXTCODESIZE ISZERO DUP1 ISZERO PUSH2 0x173 JUMPI PUSH1 0x0 DUP1 REVERT JUMPDEST POP GAS CALL ISZERO DUP1 ISZERO PUSH2 0x187 JUMPI RETURNDATASIZE PUSH1 0x0 DUP1 RETURNDATACOPY RETURNDATASIZE PUSH1 0x0 REVERT JUMPDEST POP POP POP POP PUSH1 0x40 MLOAD RETURNDATASIZE PUSH1 0x1F NOT PUSH1 0x1F DUP3 ADD AND DUP3 ADD DUP1 PUSH1 0x40 MSTORE POP PUSH2 0x1AB SWAP2 SWAP1 DUP2 ADD SWAP1 PUSH2 0x2E4 JUMP JUMPDEST PUSH2 0x126 JUMPI PUSH1 0x0 DUP1 REVERT JUMPDEST PUSH1 0x40 MLOAD PUSH4 0x95EA7B3 PUSH1 0xE0 SHL DUP2 MSTORE PUSH1 0x1 PUSH1 0x1 PUSH1 0xA0 SHL SUB DUP5 AND SWAP1 PUSH4 0x95EA7B3 SWAP1 PUSH2 0x159 SWAP1 DUP6 SWAP1 DUP6 SWAP1 PUSH1 0x4 ADD PUSH2 0x3B5 JUMP JUMPDEST PUSH1 0x0 DUP1 SLOAD PUSH1 0x40 DUP1 MLOAD PUSH1 0x20 PUSH1 0x1F PUSH1 0x2 PUSH1 0x0 NOT PUSH2 0x100 PUSH1 0x1 DUP9 AND ISZERO MUL ADD SWAP1 SWAP6 AND SWAP5 SWAP1 SWAP5 DIV SWAP4 DUP5 ADD DUP2 SWAP1 DIV DUP2 MUL DUP3 ADD DUP2 ADD SWAP1 SWAP3 MSTORE DUP3 DUP2 MSTORE PUSH1 0x60 SWAP4 SWAP1 SWAP3 SWAP1 SWAP2 DUP4 ADD DUP3 DUP3 DUP1 ISZERO PUSH2 0x26E JUMPI DUP1 PUSH1 0x1F LT PUSH2 0x243 JUMPI PUSH2 0x100 DUP1 DUP4 SLOAD DIV MUL DUP4 MSTORE SWAP2 PUSH1 0x20 ADD SWAP2 PUSH2 0x26E JUMP JUMPDEST DUP3 ADD SWAP2 SWAP1 PUSH1 0x0 MSTORE PUSH1 0x20 PUSH1 0x0 KECCAK256 SWAP1 JUMPDEST DUP2 SLOAD DUP2 MSTORE SWAP1 PUSH1 0x1 ADD SWAP1 PUSH1 0x20 ADD DUP1 DUP4 GT PUSH2 0x251 JUMPI DUP3 SWAP1 SUB PUSH1 0x1F AND DUP3 ADD SWAP2 JUMPDEST POP POP POP POP POP SWAP1 POP SWAP1 JUMP JUMPDEST DUP1 CALLDATALOAD PUSH2 0x283 DUP2 PUSH2 0x459 JUMP JUMPDEST SWAP3 SWAP2 POP POP JUMP JUMPDEST DUP1 MLOAD PUSH2 0x283 DUP2 PUSH2 0x470 JUMP JUMPDEST DUP1 CALLDATALOAD PUSH2 0x283 DUP2 PUSH2 0x479 JUMP JUMPDEST DUP1 CALLDATALOAD PUSH2 0x283 DUP2 PUSH2 0x482 JUMP JUMPDEST PUSH1 0x0 DUP1 PUSH1 0x40 DUP4 DUP6 SUB SLT ISZERO PUSH2 0x2BD JUMPI PUSH1 0x0 DUP1 REVERT JUMPDEST PUSH1 0x0 PUSH2 0x2C9 DUP6 DUP6 PUSH2 0x278 JUMP JUMPDEST SWAP3 POP POP PUSH1 0x20 PUSH2 0x2DA DUP6 DUP3 DUP7 ADD PUSH2 0x29F JUMP JUMPDEST SWAP2 POP POP SWAP3 POP SWAP3 SWAP1 POP JUMP JUMPDEST PUSH1 0x0 PUSH1 0x20 DUP3 DUP5 SUB SLT ISZERO PUSH2 0x2F6 JUMPI PUSH1 0x0 DUP1 REVERT JUMPDEST PUSH1 0x0 PUSH2 0x302 DUP5 DUP5 PUSH2 0x289 JUMP JUMPDEST SWAP5 SWAP4 POP POP POP POP JUMP JUMPDEST PUSH1 0x0 DUP1 PUSH1 0x0 PUSH1 0x60 DUP5 DUP7 SUB SLT ISZERO PUSH2 0x31F JUMPI PUSH1 0x0 DUP1 REVERT JUMPDEST PUSH1 0x0 PUSH2 0x32B DUP7 DUP7 PUSH2 0x294 JUMP JUMPDEST SWAP4 POP POP PUSH1 0x20 PUSH2 0x33C DUP7 DUP3 DUP8 ADD PUSH2 0x278 JUMP JUMPDEST SWAP3 POP POP PUSH1 0x40 PUSH2 0x34D DUP7 DUP3 DUP8 ADD PUSH2 0x29F JUMP JUMPDEST SWAP2 POP POP SWAP3 POP SWAP3 POP SWAP3 JUMP JUMPDEST PUSH2 0x360 DUP2 PUSH2 0x3F5 JUMP JUMPDEST DUP3 MSTORE POP POP JUMP JUMPDEST PUSH1 0x0 PUSH2 0x371 DUP3 PUSH2 0x3E8 JUMP JUMPDEST PUSH2 0x37B DUP2 DUP6 PUSH2 0x3EC JUMP JUMPDEST SWAP4 POP PUSH2 0x38B DUP2 DUP6 PUSH1 0x20 DUP7 ADD PUSH2 0x41F JUMP JUMPDEST PUSH2 0x394 DUP2 PUSH2 0x44F JUMP JUMPDEST SWAP1 SWAP4 ADD SWAP4 SWAP3 POP POP POP JUMP JUMPDEST PUSH2 0x360 DUP2 PUSH2 0x41C JUMP JUMPDEST PUSH1 0x20 DUP2 ADD PUSH2 0x283 DUP3 DUP5 PUSH2 0x357 JUMP JUMPDEST PUSH1 0x40 DUP2 ADD PUSH2 0x3C3 DUP3 DUP6 PUSH2 0x357 JUMP JUMPDEST PUSH2 0x3D0 PUSH1 0x20 DUP4 ADD DUP5 PUSH2 0x39E JUMP JUMPDEST SWAP4 SWAP3 POP POP POP JUMP JUMPDEST PUSH1 0x20 DUP1 DUP3 MSTORE DUP2 ADD PUSH2 0x3D0 DUP2 DUP5 PUSH2 0x366 JUMP JUMPDEST MLOAD SWAP1 JUMP JUMPDEST SWAP1 DUP2 MSTORE PUSH1 0x20 ADD SWAP1 JUMP JUMPDEST PUSH1 0x0 PUSH2 0x283 DUP3 PUSH2 0x410 JUMP JUMPDEST ISZERO ISZERO SWAP1 JUMP JUMPDEST PUSH1 0x0 PUSH2 0x283 DUP3 PUSH2 0x3F5 JUMP JUMPDEST PUSH1 0x1 PUSH1 0x1 PUSH1 0xA0 SHL SUB AND SWAP1 JUMP JUMPDEST SWAP1 JUMP JUMPDEST PUSH1 0x0 JUMPDEST DUP4 DUP2 LT ISZERO PUSH2 0x43A JUMPI DUP2 DUP2 ADD MLOAD DUP4 DUP3 ADD MSTORE PUSH1 0x20 ADD PUSH2 0x422 JUMP JUMPDEST DUP4 DUP2 GT ISZERO PUSH2 0x449 JUMPI PUSH1 0x0 DUP5 DUP5 ADD MSTORE JUMPDEST POP POP POP POP JUMP JUMPDEST PUSH1 0x1F ADD PUSH1 0x1F NOT AND SWAP1 JUMP JUMPDEST PUSH2 0x462 DUP2 PUSH2 0x3F5 JUMP JUMPDEST DUP2 EQ PUSH2 0x46D JUMPI PUSH1 0x0 DUP1 REVERT JUMPDEST POP JUMP JUMPDEST PUSH2 0x462 DUP2 PUSH2 0x400 JUMP JUMPDEST PUSH2 0x462 DUP2 PUSH2 0x405 JUMP JUMPDEST PUSH2 0x462 DUP2 PUSH2 0x41C JUMP INVALID LOG3 PUSH6 0x627A7A723158 KECCAK256 0xEA LOG1 CALLDATASIZE 0xEF SWAP2 0xDA LT 0x4D SWAP1 SWAP13 PUSH2 0xBDC7 EQ SWAP11 SWAP9 0xD6 0xBC PUSH10 0x247577AD099B82D74EDF DUP4 DUP16 CALL PUSH13 0x6578706572696D656E74616CF5 PUSH5 0x736F6C6343 STOP SDIV GT STOP BLOCKHASH LOG3 PUSH6 0x627A7A723158 KECCAK256 DELEGATECALL PUSH31 0x8826E4D9EB23C5F748C118F2FB51F39FCB0E438D0F749D64744C624353CF6C PUSH6 0x78706572696D PUSH6 0x6E74616CF564 PUSH20 0x6F6C634300051100400000000000000000000000 "
		},
		"gasEstimates": {
			"creation": {
				"codeDepositCost": "4008000",
				"executionCost": "infinite",
				"totalCost": "infinite"
			},
			"external": {
				"accept((string,string,string,uint8,uint8,string,string,(address,uint8,uint256,string,uint256,uint256,address,address),(uint8),(uint256,string,uint256,uint256),uint256,address),(uint256,uint256,string)[])": "infinite",
				"decide(string,string,uint8)": "infinite",
				"discoProposalCount(string)": "infinite",
				"doVote((string,string,address,uint256,uint256,uint256))": "infinite",
				"fullSet((string,string,string,uint8,uint8,string,string,(address,uint8,uint256,string,uint256,uint256,address,address),(uint8),(uint256,string,uint256,uint256),uint256,address),(uint256,uint256,string)[])": "infinite",
				"proposalDetail(string,string)": "infinite",
				"proposalStatus(string,string)": "infinite",
				"releaseProposal(string,string)": "infinite",
				"setIROBase(address)": "infinite"
			},
			"internal": {
				"getPoolId(string memory,string memory)": "infinite",
				"getPoolId(struct Proposal.ProposalDetail memory)": "infinite",
				"internalDiscoProposalDetail(string memory)": "infinite",
				"internalProposal(string memory,string memory)": "infinite",
				"parseAddr(string memory)": "infinite"
			}
		},
		"methodIdentifiers": {
			"accept((string,string,string,uint8,uint8,string,string,(address,uint8,uint256,string,uint256,uint256,address,address),(uint8),(uint256,string,uint256,uint256),uint256,address),(uint256,uint256,string)[])": "268d792c",
			"decide(string,string,uint8)": "d46d6d8a",
			"discoProposalCount(string)": "8f65e697",
			"doVote((string,string,address,uint256,uint256,uint256))": "59f7f240",
			"fullSet((string,string,string,uint8,uint8,string,string,(address,uint8,uint256,string,uint256,uint256,address,address),(uint8),(uint256,string,uint256,uint256),uint256,address),(uint256,uint256,string)[])": "2b4a249f",
			"proposalDetail(string,string)": "3122fef1",
			"proposalStatus(string,string)": "474b58c2",
			"releaseProposal(string,string)": "0f5e1849",
			"setIROBase(address)": "ffb135a8"
		}
	},
	"abi": [
		{
			"inputs": [
				{
					"internalType": "address",
					"name": "_iroAddress",
					"type": "address"
				}
			],
			"payable": false,
			"stateMutability": "nonpayable",
			"type": "constructor"
		},
		{
			"anonymous": false,
			"inputs": [
				{
					"indexed": true,
					"internalType": "string",
					"name": "id",
					"type": "string"
				},
				{
					"components": [
						{
							"internalType": "string",
							"name": "discoId",
							"type": "string"
						},
						{
							"internalType": "string",
							"name": "serialId",
							"type": "string"
						},
						{
							"internalType": "string",
							"name": "title",
							"type": "string"
						},
						{
							"internalType": "enum Proposal.ProposalStatus",
							"name": "status",
							"type": "uint8"
						},
						{
							"internalType": "enum Proposal.ProposalMode",
							"name": "mode",
							"type": "uint8"
						},
						{
							"internalType": "string",
							"name": "contact",
							"type": "string"
						},
						{
							"internalType": "string",
							"name": "description",
							"type": "string"
						},
						{
							"components": [
								{
									"internalType": "address",
									"name": "payer",
									"type": "address"
								},
								{
									"internalType": "enum Proposal.PaymentMode",
									"name": "mode",
									"type": "uint8"
								},
								{
									"internalType": "uint256",
									"name": "totalMonths",
									"type": "uint256"
								},
								{
									"internalType": "string",
									"name": "date",
									"type": "string"
								},
								{
									"internalType": "uint256",
									"name": "paymentAmount",
									"type": "uint256"
								},
								{
									"internalType": "uint256",
									"name": "totalAmount",
									"type": "uint256"
								},
								{
									"internalType": "contract IERC20",
									"name": "token",
									"type": "address"
								},
								{
									"internalType": "contract FundPool",
									"name": "pool",
									"type": "address"
								}
							],
							"internalType": "struct Proposal.Payment",
							"name": "payment",
							"type": "tuple"
						},
						{
							"components": [
								{
									"internalType": "enum IRO.ProposerDriver",
									"name": "driver",
									"type": "uint8"
								}
							],
							"internalType": "struct Proposal.ProposerSetup",
							"name": "proposerSetup",
							"type": "tuple"
						},
						{
							"components": [
								{
									"internalType": "uint256",
									"name": "voteMinSupporters",
									"type": "uint256"
								},
								{
									"internalType": "string",
									"name": "voteMinApprovalPercent",
									"type": "string"
								},
								{
									"internalType": "uint256",
									"name": "voteDurationHours",
									"type": "uint256"
								},
								{
									"internalType": "uint256",
									"name": "voteEndTime",
									"type": "uint256"
								}
							],
							"internalType": "struct Proposal.VoterSetup",
							"name": "voteSetup",
							"type": "tuple"
						},
						{
							"internalType": "uint256",
							"name": "blockTime",
							"type": "uint256"
						},
						{
							"internalType": "address",
							"name": "proposer",
							"type": "address"
						}
					],
					"indexed": false,
					"internalType": "struct Proposal.ProposalDetail",
					"name": "proposal",
					"type": "tuple"
				},
				{
					"components": [
						{
							"internalType": "uint256",
							"name": "index",
							"type": "uint256"
						},
						{
							"internalType": "uint256",
							"name": "token",
							"type": "uint256"
						},
						{
							"internalType": "string",
							"name": "terms",
							"type": "string"
						}
					],
					"indexed": false,
					"internalType": "struct Proposal.PaymentDetail[]",
					"name": "paymentDetails",
					"type": "tuple[]"
				}
			],
			"name": "accepted",
			"type": "event"
		},
		{
			"anonymous": false,
			"inputs": [
				{
					"indexed": true,
					"internalType": "string",
					"name": "id",
					"type": "string"
				},
				{
					"indexed": false,
					"internalType": "enum Proposal.ProposalStatus",
					"name": "original",
					"type": "uint8"
				},
				{
					"indexed": false,
					"internalType": "enum Proposal.ProposalStatus",
					"name": "target",
					"type": "uint8"
				}
			],
			"name": "statusChanged",
			"type": "event"
		},
		{
			"anonymous": false,
			"inputs": [
				{
					"indexed": true,
					"internalType": "string",
					"name": "id",
					"type": "string"
				},
				{
					"components": [
						{
							"internalType": "string",
							"name": "discoId",
							"type": "string"
						},
						{
							"internalType": "string",
							"name": "serialId",
							"type": "string"
						},
						{
							"internalType": "address",
							"name": "voter",
							"type": "address"
						},
						{
							"internalType": "uint256",
							"name": "pos",
							"type": "uint256"
						},
						{
							"internalType": "uint256",
							"name": "neg",
							"type": "uint256"
						},
						{
							"internalType": "uint256",
							"name": "voteBt",
							"type": "uint256"
						}
					],
					"indexed": false,
					"internalType": "struct Proposal.Vote",
					"name": "v",
					"type": "tuple"
				}
			],
			"name": "voted",
			"type": "event"
		},
		{
			"constant": false,
			"inputs": [
				{
					"components": [
						{
							"internalType": "string",
							"name": "discoId",
							"type": "string"
						},
						{
							"internalType": "string",
							"name": "serialId",
							"type": "string"
						},
						{
							"internalType": "string",
							"name": "title",
							"type": "string"
						},
						{
							"internalType": "enum Proposal.ProposalStatus",
							"name": "status",
							"type": "uint8"
						},
						{
							"internalType": "enum Proposal.ProposalMode",
							"name": "mode",
							"type": "uint8"
						},
						{
							"internalType": "string",
							"name": "contact",
							"type": "string"
						},
						{
							"internalType": "string",
							"name": "description",
							"type": "string"
						},
						{
							"components": [
								{
									"internalType": "address",
									"name": "payer",
									"type": "address"
								},
								{
									"internalType": "enum Proposal.PaymentMode",
									"name": "mode",
									"type": "uint8"
								},
								{
									"internalType": "uint256",
									"name": "totalMonths",
									"type": "uint256"
								},
								{
									"internalType": "string",
									"name": "date",
									"type": "string"
								},
								{
									"internalType": "uint256",
									"name": "paymentAmount",
									"type": "uint256"
								},
								{
									"internalType": "uint256",
									"name": "totalAmount",
									"type": "uint256"
								},
								{
									"internalType": "contract IERC20",
									"name": "token",
									"type": "address"
								},
								{
									"internalType": "contract FundPool",
									"name": "pool",
									"type": "address"
								}
							],
							"internalType": "struct Proposal.Payment",
							"name": "payment",
							"type": "tuple"
						},
						{
							"components": [
								{
									"internalType": "enum IRO.ProposerDriver",
									"name": "driver",
									"type": "uint8"
								}
							],
							"internalType": "struct Proposal.ProposerSetup",
							"name": "proposerSetup",
							"type": "tuple"
						},
						{
							"components": [
								{
									"internalType": "uint256",
									"name": "voteMinSupporters",
									"type": "uint256"
								},
								{
									"internalType": "string",
									"name": "voteMinApprovalPercent",
									"type": "string"
								},
								{
									"internalType": "uint256",
									"name": "voteDurationHours",
									"type": "uint256"
								},
								{
									"internalType": "uint256",
									"name": "voteEndTime",
									"type": "uint256"
								}
							],
							"internalType": "struct Proposal.VoterSetup",
							"name": "voteSetup",
							"type": "tuple"
						},
						{
							"internalType": "uint256",
							"name": "blockTime",
							"type": "uint256"
						},
						{
							"internalType": "address",
							"name": "proposer",
							"type": "address"
						}
					],
					"internalType": "struct Proposal.ProposalDetail",
					"name": "proposal",
					"type": "tuple"
				},
				{
					"components": [
						{
							"internalType": "uint256",
							"name": "index",
							"type": "uint256"
						},
						{
							"internalType": "uint256",
							"name": "token",
							"type": "uint256"
						},
						{
							"internalType": "string",
							"name": "terms",
							"type": "string"
						}
					],
					"internalType": "struct Proposal.PaymentDetail[]",
					"name": "paymentDetails",
					"type": "tuple[]"
				}
			],
			"name": "accept",
			"outputs": [
				{
					"components": [
						{
							"internalType": "string",
							"name": "discoId",
							"type": "string"
						},
						{
							"internalType": "string",
							"name": "serialId",
							"type": "string"
						},
						{
							"internalType": "string",
							"name": "title",
							"type": "string"
						},
						{
							"internalType": "enum Proposal.ProposalStatus",
							"name": "status",
							"type": "uint8"
						},
						{
							"internalType": "enum Proposal.ProposalMode",
							"name": "mode",
							"type": "uint8"
						},
						{
							"internalType": "string",
							"name": "contact",
							"type": "string"
						},
						{
							"internalType": "string",
							"name": "description",
							"type": "string"
						},
						{
							"components": [
								{
									"internalType": "address",
									"name": "payer",
									"type": "address"
								},
								{
									"internalType": "enum Proposal.PaymentMode",
									"name": "mode",
									"type": "uint8"
								},
								{
									"internalType": "uint256",
									"name": "totalMonths",
									"type": "uint256"
								},
								{
									"internalType": "string",
									"name": "date",
									"type": "string"
								},
								{
									"internalType": "uint256",
									"name": "paymentAmount",
									"type": "uint256"
								},
								{
									"internalType": "uint256",
									"name": "totalAmount",
									"type": "uint256"
								},
								{
									"internalType": "contract IERC20",
									"name": "token",
									"type": "address"
								},
								{
									"internalType": "contract FundPool",
									"name": "pool",
									"type": "address"
								}
							],
							"internalType": "struct Proposal.Payment",
							"name": "payment",
							"type": "tuple"
						},
						{
							"components": [
								{
									"internalType": "enum IRO.ProposerDriver",
									"name": "driver",
									"type": "uint8"
								}
							],
							"internalType": "struct Proposal.ProposerSetup",
							"name": "proposerSetup",
							"type": "tuple"
						},
						{
							"components": [
								{
									"internalType": "uint256",
									"name": "voteMinSupporters",
									"type": "uint256"
								},
								{
									"internalType": "string",
									"name": "voteMinApprovalPercent",
									"type": "string"
								},
								{
									"internalType": "uint256",
									"name": "voteDurationHours",
									"type": "uint256"
								},
								{
									"internalType": "uint256",
									"name": "voteEndTime",
									"type": "uint256"
								}
							],
							"internalType": "struct Proposal.VoterSetup",
							"name": "voteSetup",
							"type": "tuple"
						},
						{
							"internalType": "uint256",
							"name": "blockTime",
							"type": "uint256"
						},
						{
							"internalType": "address",
							"name": "proposer",
							"type": "address"
						}
					],
					"internalType": "struct Proposal.ProposalDetail",
					"name": "",
					"type": "tuple"
				}
			],
			"payable": true,
			"stateMutability": "payable",
			"type": "function"
		},
		{
			"constant": false,
			"inputs": [
				{
					"internalType": "string",
					"name": "id",
					"type": "string"
				},
				{
					"internalType": "string",
					"name": "serialId",
					"type": "string"
				},
				{
					"internalType": "enum Proposal.ProposalStatus",
					"name": "target",
					"type": "uint8"
				}
			],
			"name": "decide",
			"outputs": [],
			"payable": false,
			"stateMutability": "nonpayable",
			"type": "function"
		},
		{
			"constant": true,
			"inputs": [
				{
					"internalType": "string",
					"name": "id",
					"type": "string"
				}
			],
			"name": "discoProposalCount",
			"outputs": [
				{
					"internalType": "uint256",
					"name": "",
					"type": "uint256"
				}
			],
			"payable": false,
			"stateMutability": "view",
			"type": "function"
		},
		{
			"constant": false,
			"inputs": [
				{
					"components": [
						{
							"internalType": "string",
							"name": "discoId",
							"type": "string"
						},
						{
							"internalType": "string",
							"name": "serialId",
							"type": "string"
						},
						{
							"internalType": "address",
							"name": "voter",
							"type": "address"
						},
						{
							"internalType": "uint256",
							"name": "pos",
							"type": "uint256"
						},
						{
							"internalType": "uint256",
							"name": "neg",
							"type": "uint256"
						},
						{
							"internalType": "uint256",
							"name": "voteBt",
							"type": "uint256"
						}
					],
					"internalType": "struct Proposal.Vote",
					"name": "v",
					"type": "tuple"
				}
			],
			"name": "doVote",
			"outputs": [],
			"payable": true,
			"stateMutability": "payable",
			"type": "function"
		},
		{
			"constant": false,
			"inputs": [
				{
					"components": [
						{
							"internalType": "string",
							"name": "discoId",
							"type": "string"
						},
						{
							"internalType": "string",
							"name": "serialId",
							"type": "string"
						},
						{
							"internalType": "string",
							"name": "title",
							"type": "string"
						},
						{
							"internalType": "enum Proposal.ProposalStatus",
							"name": "status",
							"type": "uint8"
						},
						{
							"internalType": "enum Proposal.ProposalMode",
							"name": "mode",
							"type": "uint8"
						},
						{
							"internalType": "string",
							"name": "contact",
							"type": "string"
						},
						{
							"internalType": "string",
							"name": "description",
							"type": "string"
						},
						{
							"components": [
								{
									"internalType": "address",
									"name": "payer",
									"type": "address"
								},
								{
									"internalType": "enum Proposal.PaymentMode",
									"name": "mode",
									"type": "uint8"
								},
								{
									"internalType": "uint256",
									"name": "totalMonths",
									"type": "uint256"
								},
								{
									"internalType": "string",
									"name": "date",
									"type": "string"
								},
								{
									"internalType": "uint256",
									"name": "paymentAmount",
									"type": "uint256"
								},
								{
									"internalType": "uint256",
									"name": "totalAmount",
									"type": "uint256"
								},
								{
									"internalType": "contract IERC20",
									"name": "token",
									"type": "address"
								},
								{
									"internalType": "contract FundPool",
									"name": "pool",
									"type": "address"
								}
							],
							"internalType": "struct Proposal.Payment",
							"name": "payment",
							"type": "tuple"
						},
						{
							"components": [
								{
									"internalType": "enum IRO.ProposerDriver",
									"name": "driver",
									"type": "uint8"
								}
							],
							"internalType": "struct Proposal.ProposerSetup",
							"name": "proposerSetup",
							"type": "tuple"
						},
						{
							"components": [
								{
									"internalType": "uint256",
									"name": "voteMinSupporters",
									"type": "uint256"
								},
								{
									"internalType": "string",
									"name": "voteMinApprovalPercent",
									"type": "string"
								},
								{
									"internalType": "uint256",
									"name": "voteDurationHours",
									"type": "uint256"
								},
								{
									"internalType": "uint256",
									"name": "voteEndTime",
									"type": "uint256"
								}
							],
							"internalType": "struct Proposal.VoterSetup",
							"name": "voteSetup",
							"type": "tuple"
						},
						{
							"internalType": "uint256",
							"name": "blockTime",
							"type": "uint256"
						},
						{
							"internalType": "address",
							"name": "proposer",
							"type": "address"
						}
					],
					"internalType": "struct Proposal.ProposalDetail",
					"name": "proposal",
					"type": "tuple"
				},
				{
					"components": [
						{
							"internalType": "uint256",
							"name": "index",
							"type": "uint256"
						},
						{
							"internalType": "uint256",
							"name": "token",
							"type": "uint256"
						},
						{
							"internalType": "string",
							"name": "terms",
							"type": "string"
						}
					],
					"internalType": "struct Proposal.PaymentDetail[]",
					"name": "paymentDetails",
					"type": "tuple[]"
				}
			],
			"name": "fullSet",
			"outputs": [
				{
					"components": [
						{
							"internalType": "string",
							"name": "discoId",
							"type": "string"
						},
						{
							"internalType": "string",
							"name": "serialId",
							"type": "string"
						},
						{
							"internalType": "string",
							"name": "title",
							"type": "string"
						},
						{
							"internalType": "enum Proposal.ProposalStatus",
							"name": "status",
							"type": "uint8"
						},
						{
							"internalType": "enum Proposal.ProposalMode",
							"name": "mode",
							"type": "uint8"
						},
						{
							"internalType": "string",
							"name": "contact",
							"type": "string"
						},
						{
							"internalType": "string",
							"name": "description",
							"type": "string"
						},
						{
							"components": [
								{
									"internalType": "address",
									"name": "payer",
									"type": "address"
								},
								{
									"internalType": "enum Proposal.PaymentMode",
									"name": "mode",
									"type": "uint8"
								},
								{
									"internalType": "uint256",
									"name": "totalMonths",
									"type": "uint256"
								},
								{
									"internalType": "string",
									"name": "date",
									"type": "string"
								},
								{
									"internalType": "uint256",
									"name": "paymentAmount",
									"type": "uint256"
								},
								{
									"internalType": "uint256",
									"name": "totalAmount",
									"type": "uint256"
								},
								{
									"internalType": "contract IERC20",
									"name": "token",
									"type": "address"
								},
								{
									"internalType": "contract FundPool",
									"name": "pool",
									"type": "address"
								}
							],
							"internalType": "struct Proposal.Payment",
							"name": "payment",
							"type": "tuple"
						},
						{
							"components": [
								{
									"internalType": "enum IRO.ProposerDriver",
									"name": "driver",
									"type": "uint8"
								}
							],
							"internalType": "struct Proposal.ProposerSetup",
							"name": "proposerSetup",
							"type": "tuple"
						},
						{
							"components": [
								{
									"internalType": "uint256",
									"name": "voteMinSupporters",
									"type": "uint256"
								},
								{
									"internalType": "string",
									"name": "voteMinApprovalPercent",
									"type": "string"
								},
								{
									"internalType": "uint256",
									"name": "voteDurationHours",
									"type": "uint256"
								},
								{
									"internalType": "uint256",
									"name": "voteEndTime",
									"type": "uint256"
								}
							],
							"internalType": "struct Proposal.VoterSetup",
							"name": "voteSetup",
							"type": "tuple"
						},
						{
							"internalType": "uint256",
							"name": "blockTime",
							"type": "uint256"
						},
						{
							"internalType": "address",
							"name": "proposer",
							"type": "address"
						}
					],
					"internalType": "struct Proposal.ProposalDetail",
					"name": "",
					"type": "tuple"
				}
			],
			"payable": false,
			"stateMutability": "nonpayable",
			"type": "function"
		},
		{
			"constant": true,
			"inputs": [
				{
					"internalType": "string",
					"name": "id",
					"type": "string"
				},
				{
					"internalType": "string",
					"name": "serialId",
					"type": "string"
				}
			],
			"name": "proposalDetail",
			"outputs": [
				{
					"components": [
						{
							"internalType": "string",
							"name": "discoId",
							"type": "string"
						},
						{
							"internalType": "string",
							"name": "serialId",
							"type": "string"
						},
						{
							"internalType": "string",
							"name": "title",
							"type": "string"
						},
						{
							"internalType": "enum Proposal.ProposalStatus",
							"name": "status",
							"type": "uint8"
						},
						{
							"internalType": "enum Proposal.ProposalMode",
							"name": "mode",
							"type": "uint8"
						},
						{
							"internalType": "string",
							"name": "contact",
							"type": "string"
						},
						{
							"internalType": "string",
							"name": "description",
							"type": "string"
						},
						{
							"components": [
								{
									"internalType": "address",
									"name": "payer",
									"type": "address"
								},
								{
									"internalType": "enum Proposal.PaymentMode",
									"name": "mode",
									"type": "uint8"
								},
								{
									"internalType": "uint256",
									"name": "totalMonths",
									"type": "uint256"
								},
								{
									"internalType": "string",
									"name": "date",
									"type": "string"
								},
								{
									"internalType": "uint256",
									"name": "paymentAmount",
									"type": "uint256"
								},
								{
									"internalType": "uint256",
									"name": "totalAmount",
									"type": "uint256"
								},
								{
									"internalType": "contract IERC20",
									"name": "token",
									"type": "address"
								},
								{
									"internalType": "contract FundPool",
									"name": "pool",
									"type": "address"
								}
							],
							"internalType": "struct Proposal.Payment",
							"name": "payment",
							"type": "tuple"
						},
						{
							"components": [
								{
									"internalType": "enum IRO.ProposerDriver",
									"name": "driver",
									"type": "uint8"
								}
							],
							"internalType": "struct Proposal.ProposerSetup",
							"name": "proposerSetup",
							"type": "tuple"
						},
						{
							"components": [
								{
									"internalType": "uint256",
									"name": "voteMinSupporters",
									"type": "uint256"
								},
								{
									"internalType": "string",
									"name": "voteMinApprovalPercent",
									"type": "string"
								},
								{
									"internalType": "uint256",
									"name": "voteDurationHours",
									"type": "uint256"
								},
								{
									"internalType": "uint256",
									"name": "voteEndTime",
									"type": "uint256"
								}
							],
							"internalType": "struct Proposal.VoterSetup",
							"name": "voteSetup",
							"type": "tuple"
						},
						{
							"internalType": "uint256",
							"name": "blockTime",
							"type": "uint256"
						},
						{
							"internalType": "address",
							"name": "proposer",
							"type": "address"
						}
					],
					"internalType": "struct Proposal.ProposalDetail",
					"name": "",
					"type": "tuple"
				},
				{
					"components": [
						{
							"internalType": "uint256",
							"name": "index",
							"type": "uint256"
						},
						{
							"internalType": "uint256",
							"name": "token",
							"type": "uint256"
						},
						{
							"internalType": "string",
							"name": "terms",
							"type": "string"
						}
					],
					"internalType": "struct Proposal.PaymentDetail[]",
					"name": "paymentDetails",
					"type": "tuple[]"
				}
			],
			"payable": false,
			"stateMutability": "view",
			"type": "function"
		},
		{
			"constant": true,
			"inputs": [
				{
					"internalType": "string",
					"name": "id",
					"type": "string"
				},
				{
					"internalType": "string",
					"name": "serialId",
					"type": "string"
				}
			],
			"name": "proposalStatus",
			"outputs": [
				{
					"internalType": "enum Proposal.ProposalStatus",
					"name": "",
					"type": "uint8"
				}
			],
			"payable": false,
			"stateMutability": "view",
			"type": "function"
		},
		{
			"constant": false,
			"inputs": [
				{
					"internalType": "string",
					"name": "discoId",
					"type": "string"
				},
				{
					"internalType": "string",
					"name": "serialId",
					"type": "string"
				}
			],
			"name": "releaseProposal",
			"outputs": [],
			"payable": false,
			"stateMutability": "nonpayable",
			"type": "function"
		},
		{
			"constant": false,
			"inputs": [
				{
					"internalType": "address",
					"name": "_iroAddress",
					"type": "address"
				}
			],
			"name": "setIROBase",
			"outputs": [],
			"payable": false,
			"stateMutability": "nonpayable",
			"type": "function"
		}
	]
}