{
	"data": {
		"bytecode": {
			"linkReferences": {
				"contracts/libraries/NumUtils.sol": {
					"NumUtils": [
						{
							"length": 20,
							"start": 5473
						}
					]
				}
			},
			"object": "60806040523480156200001157600080fd5b506040516200698a3803806200698a83398181016040526200003791908101906200015d565b336000806101000a81548173ffffffffffffffffffffffffffffffffffffffff021916908373ffffffffffffffffffffffffffffffffffffffff16021790555062000088816200008f60201b60201c565b506200024c565b600073ffffffffffffffffffffffffffffffffffffffff168173ffffffffffffffffffffffffffffffffffffffff16141562000102576040517f08c379a0000000000000000000000000000000000000000000000000000000008152600401620000f990620001cb565b60405180910390fd5b80600160006101000a81548173ffffffffffffffffffffffffffffffffffffffff021916908373ffffffffffffffffffffffffffffffffffffffff16021790555050565b600081519050620001578162000232565b92915050565b6000602082840312156200017057600080fd5b6000620001808482850162000146565b91505092915050565b600062000198601583620001ed565b91507f69726f206164647265737320697320656d7074792e00000000000000000000006000830152602082019050919050565b60006020820190508181036000830152620001e68162000189565b9050919050565b600082825260208201905092915050565b60006200020b8262000212565b9050919050565b600073ffffffffffffffffffffffffffffffffffffffff82169050919050565b6200023d81620001fe565b81146200024957600080fd5b50565b61672e806200025c6000396000f3fe608060405260043610620000925760003560e01c8063474b58c21162000061578063474b58c2146200018457806359f7f24014620001c85780638f65e69714620001e8578063d46d6d8a146200022c578063ffb135a8146200025a5762000092565b80630f5e18491462000097578063268d792c14620000c55780632b4a249f14620000fb5780633122fef1146200013f575b600080fd5b348015620000a457600080fd5b50620000c36004803603620000bd91908101906200486d565b62000288565b005b620000e36004803603620000dd91908101906200497b565b62000857565b604051620000f2919062005912565b60405180910390f35b3480156200010857600080fd5b506200012760048036036200012191908101906200497b565b620019be565b60405162000136919062005912565b60405180910390f35b3480156200014c57600080fd5b506200016b60048036036200016591908101906200486d565b62001ee3565b6040516200017b92919062005936565b60405180910390f35b3480156200019157600080fd5b50620001b06004803603620001aa91908101906200486d565b620020e3565b604051620001bf919062005680565b60405180910390f35b620001e66004803603620001e0919081019062004a33565b620021e1565b005b348015620001f557600080fd5b506200021460048036036200020e919081019062004824565b62002706565b60405162000223919062005995565b60405180910390f35b3480156200023957600080fd5b50620002586004803603620002529190810190620048e9565b62002733565b005b3480156200026757600080fd5b50620002866004803603620002809190810190620047a0565b62002c25565b005b62000292620037b5565b6200032685858080601f016020809104026020016040519081016040528093929190818152602001838380828437600081840152601f19601f8201169050808301925050505050505084848080601f016020809104026020016040519081016040528093929190818152602001838380828437600081840152601f19601f8201169050808301925050505050505062002cdc565b9050600085859050141562000372576040517f08c379a0000000000000000000000000000000000000000000000000000000008152600401620003699062005846565b60405180910390fd5b600060038111156200038057fe5b816060015160038111156200039157fe5b1415620003d5576040517f08c379a0000000000000000000000000000000000000000000000000000000008152600401620003cc9062005824565b60405180910390fd5b620003df6200385c565b600160009054906101000a900473ffffffffffffffffffffffffffffffffffffffff1673ffffffffffffffffffffffffffffffffffffffff1663ef7ae53f83600001516040518263ffffffff1660e01b8152600401620004409190620056ca565b60006040518083038186803b1580156200045957600080fd5b505afa1580156200046e573d6000803e3d6000fd5b505050506040513d6000823e3d601f19601f82011682018060405250620004999190810190620049ee565b905060008260e0015160c00151905060606200053e88888080601f016020809104026020016040519081016040528093929190818152602001838380828437600081840152601f19601f8201169050808301925050505050505087878080601f016020809104026020016040519081016040528093929190818152602001838380828437600081840152601f19601f82011690508083019250505050505050620034fd565b90506060600582604051620005549190620055b8565b9081526020016040518091039020805480602002602001604051908101604052809291908181526020016000905b828210156200077657838290600052602060002090600602016040518060c0016040529081600082018054600181600116156101000203166002900480601f016020809104026020016040519081016040528092919081815260200182805460018160011615610100020316600290048015620006435780601f10620006175761010080835404028352916020019162000643565b820191906000526020600020905b8154815290600101906020018083116200062557829003601f168201915b50505050508152602001600182018054600181600116156101000203166002900480601f016020809104026020016040519081016040528092919081815260200182805460018160011615610100020316600290048015620006e95780601f10620006bd57610100808354040283529160200191620006e9565b820191906000526020600020905b815481529060010190602001808311620006cb57829003601f168201915b505050505081526020016002820160009054906101000a900473ffffffffffffffffffffffffffffffffffffffff1673ffffffffffffffffffffffffffffffffffffffff1673ffffffffffffffffffffffffffffffffffffffff16815260200160038201548152602001600482015481526020016005820154815250508152602001906001019062000582565b50505050905060008560e0015160e00151905060008090505b82518110156200084a57620007a36200389c565b838281518110620007b057fe5b602002602001015190508273ffffffffffffffffffffffffffffffffffffffff1663beabacc887836040015184608001518560600151016040518463ffffffff1660e01b8152600401620008079392919062005643565b600060405180830381600087803b1580156200082257600080fd5b505af115801562000837573d6000803e3d6000fd5b505050505080806001019150506200078f565b5050505050505050505050565b62000861620037b5565b60008360200151511415620008ad576040517f08c379a0000000000000000000000000000000000000000000000000000000008152600401620008a4906200588a565b60405180910390fd5b60008360000151511415620008f9576040517f08c379a0000000000000000000000000000000000000000000000000000000008152600401620008f0906200579c565b60405180910390fd5b6000600284600001516040516200091191906200559f565b908152602001604051809103902090506200092b620037b5565b8185602001516040516200094091906200559f565b908152602001604051809103902060405180610180016040529081600082018054600181600116156101000203166002900480601f016020809104026020016040519081016040528092919081815260200182805460018160011615610100020316600290048015620009f75780601f10620009cb57610100808354040283529160200191620009f7565b820191906000526020600020905b815481529060010190602001808311620009d957829003601f168201915b50505050508152602001600182018054600181600116156101000203166002900480601f01602080910402602001604051908101604052809291908181526020018280546001816001161561010002031660029004801562000a9d5780601f1062000a715761010080835404028352916020019162000a9d565b820191906000526020600020905b81548152906001019060200180831162000a7f57829003601f168201915b50505050508152602001600282018054600181600116156101000203166002900480601f01602080910402602001604051908101604052809291908181526020018280546001816001161561010002031660029004801562000b435780601f1062000b175761010080835404028352916020019162000b43565b820191906000526020600020905b81548152906001019060200180831162000b2557829003601f168201915b505050505081526020016003820160009054906101000a900460ff16600381111562000b6b57fe5b600381111562000b7757fe5b81526020016003820160019054906101000a900460ff16600681111562000b9a57fe5b600681111562000ba657fe5b8152602001600482018054600181600116156101000203166002900480601f01602080910402602001604051908101604052809291908181526020018280546001816001161561010002031660029004801562000c475780601f1062000c1b5761010080835404028352916020019162000c47565b820191906000526020600020905b81548152906001019060200180831162000c2957829003601f168201915b50505050508152602001600582018054600181600116156101000203166002900480601f01602080910402602001604051908101604052809291908181526020018280546001816001161561010002031660029004801562000ced5780601f1062000cc15761010080835404028352916020019162000ced565b820191906000526020600020905b81548152906001019060200180831162000ccf57829003601f168201915b5050505050815260200160068201604051806101000160405290816000820160009054906101000a900473ffffffffffffffffffffffffffffffffffffffff1673ffffffffffffffffffffffffffffffffffffffff1673ffffffffffffffffffffffffffffffffffffffff1681526020016000820160149054906101000a900460ff16600181111562000d7c57fe5b600181111562000d8857fe5b815260200160018201548152602001600282018054600181600116156101000203166002900480601f01602080910402602001604051908101604052809291908181526020018280546001816001161561010002031660029004801562000e335780601f1062000e075761010080835404028352916020019162000e33565b820191906000526020600020905b81548152906001019060200180831162000e1557829003601f168201915b5050505050815260200160038201548152602001600482015481526020016005820160009054906101000a900473ffffffffffffffffffffffffffffffffffffffff1673ffffffffffffffffffffffffffffffffffffffff1673ffffffffffffffffffffffffffffffffffffffff1681526020016006820160009054906101000a900473ffffffffffffffffffffffffffffffffffffffff1673ffffffffffffffffffffffffffffffffffffffff1673ffffffffffffffffffffffffffffffffffffffff16815250508152602001600d82016040518060200160405290816000820160009054906101000a900460ff16600381111562000f2f57fe5b600381111562000f3b57fe5b815250508152602001600e820160405180608001604052908160008201548152602001600182018054600181600116156101000203166002900480601f01602080910402602001604051908101604052809291908181526020018280546001816001161561010002031660029004801562000ffa5780601f1062000fce5761010080835404028352916020019162000ffa565b820191906000526020600020905b81548152906001019060200180831162000fdc57829003601f168201915b50505050508152602001600282015481526020016003820154815250508152602001601282015481526020016013820160009054906101000a900473ffffffffffffffffffffffffffffffffffffffff1673ffffffffffffffffffffffffffffffffffffffff1673ffffffffffffffffffffffffffffffffffffffff16815250509050600081600001515114620010c8576040517f08c379a0000000000000000000000000000000000000000000000000000000008152600401620010bf9062005868565b60405180910390fd5b620010d26200385c565b600160009054906101000a900473ffffffffffffffffffffffffffffffffffffffff1673ffffffffffffffffffffffffffffffffffffffff1663ef7ae53f87600001516040518263ffffffff1660e01b8152600401620011339190620056ca565b60006040518083038186803b1580156200114c57600080fd5b505afa15801562001161573d6000803e3d6000fd5b505050506040513d6000823e3d601f19601f820116820180604052506200118c9190810190620049ee565b905060008160000151511415620011da576040517f08c379a0000000000000000000000000000000000000000000000000000000008152600401620011d19062005758565b60405180910390fd5b620011e4620038e8565b8160400151905060006003811115620011f957fe5b816000015160038111156200120a57fe5b14156200124e576040517f08c379a000000000000000000000000000000000000000000000000000000000815260040162001245906200577a565b60405180910390fd5b6040518060200160405280826000015160038111156200126a57fe5b8152508761010001819052506200128062003915565b82606001519050600060038111156200129557fe5b81600001516003811115620012a657fe5b1415620012ea576040517f08c379a0000000000000000000000000000000000000000000000000000000008152600401620012e190620058ce565b60405180910390fd5b60004290506000808a61012001516040015114156200139c5773__$b7c937b1c964930440937011c7042b2cdd$__631bd951558460a001516040518263ffffffff1660e01b8152600401620013409190620056ee565b60206040518083038186803b1580156200135957600080fd5b505af41580156200136e573d6000803e3d6000fd5b505050506040513d601f19601f8201168201806040525062001394919081019062004a78565b9050620013a9565b8961012001516040015190505b60405180608001604052808460600151815260200184608001518152602001828152602001610e10830284018152508a61012001819052506000620013f68660200151604001516200352b565b9050808b60e0015160c0019073ffffffffffffffffffffffffffffffffffffffff16908173ffffffffffffffffffffffffffffffffffffffff16815250506060620014418c62003798565b90508060405162001452906200395e565b6200145e919062005712565b604051809103906000f0801580156200147b573d6000803e3d6000fd5b508c60e0015160e0019073ffffffffffffffffffffffffffffffffffffffff16908173ffffffffffffffffffffffffffffffffffffffff168152505060008b51905060008090505b818110156200157057600383604051620014de9190620055b8565b90815260200160405180910390208d8281518110620014f957fe5b602002602001015190806001815401808255809150509060018203906000526020600020906003020160009091929091909150600082015181600001556020820151816001015560408201518160020190805190602001906200155e9291906200396c565b505050508080600101915050620014c3565b50600073ffffffffffffffffffffffffffffffffffffffff168d610160015173ffffffffffffffffffffffffffffffffffffffff161415620015e657338d610160019073ffffffffffffffffffffffffffffffffffffffff16908173ffffffffffffffffffffffffffffffffffffffff16815250505b848d6101400181815250508c8a8e602001516040516200160791906200559f565b90815260200160405180910390206000820151816000019080519060200190620016339291906200396c565b506020820151816001019080519060200190620016529291906200396c565b506040820151816002019080519060200190620016719291906200396c565b5060608201518160030160006101000a81548160ff021916908360038111156200169757fe5b021790555060808201518160030160016101000a81548160ff02191690836006811115620016c157fe5b021790555060a0820151816004019080519060200190620016e49291906200396c565b5060c0820151816005019080519060200190620017039291906200396c565b5060e08201518160060160008201518160000160006101000a81548173ffffffffffffffffffffffffffffffffffffffff021916908373ffffffffffffffffffffffffffffffffffffffff16021790555060208201518160000160146101000a81548160ff021916908360018111156200177957fe5b0217905550604082015181600101556060820151816002019080519060200190620017a69291906200396c565b506080820151816003015560a0820151816004015560c08201518160050160006101000a81548173ffffffffffffffffffffffffffffffffffffffff021916908373ffffffffffffffffffffffffffffffffffffffff16021790555060e08201518160060160006101000a81548173ffffffffffffffffffffffffffffffffffffffff021916908373ffffffffffffffffffffffffffffffffffffffff160217905550505061010082015181600d0160008201518160000160006101000a81548160ff021916908360038111156200187a57fe5b0217905550505061012082015181600e01600082015181600001556020820151816001019080519060200190620018b39291906200396c565b506040820151816002015560608201518160030155505061014082015181601201556101608201518160130160006101000a81548173ffffffffffffffffffffffffffffffffffffffff021916908373ffffffffffffffffffffffffffffffffffffffff16021790555090505060048d600001516040516200193691906200559f565b9081526020016040518091039020600081548092919060010191905055508c602001516040516200196891906200559f565b60405180910390207f74b2e2a4d866c513222fe0222feef41e081ec60e6879885dd70b6b7a305c3c1e8e8e604051620019a392919062005936565b60405180910390a28c9a505050505050505050505092915050565b620019c8620037b5565b6000836020015151141562001a14576040517f08c379a000000000000000000000000000000000000000000000000000000000815260040162001a0b906200588a565b60405180910390fd5b6000836000015151141562001a60576040517f08c379a000000000000000000000000000000000000000000000000000000000815260040162001a57906200579c565b60405180910390fd5b60006002846000015160405162001a7891906200559f565b908152602001604051809103902090508381856020015160405162001a9e91906200559f565b9081526020016040518091039020600082015181600001908051906020019062001aca9291906200396c565b50602082015181600101908051906020019062001ae99291906200396c565b50604082015181600201908051906020019062001b089291906200396c565b5060608201518160030160006101000a81548160ff0219169083600381111562001b2e57fe5b021790555060808201518160030160016101000a81548160ff0219169083600681111562001b5857fe5b021790555060a082015181600401908051906020019062001b7b9291906200396c565b5060c082015181600501908051906020019062001b9a9291906200396c565b5060e08201518160060160008201518160000160006101000a81548173ffffffffffffffffffffffffffffffffffffffff021916908373ffffffffffffffffffffffffffffffffffffffff16021790555060208201518160000160146101000a81548160ff0219169083600181111562001c1057fe5b021790555060408201518160010155606082015181600201908051906020019062001c3d9291906200396c565b506080820151816003015560a0820151816004015560c08201518160050160006101000a81548173ffffffffffffffffffffffffffffffffffffffff021916908373ffffffffffffffffffffffffffffffffffffffff16021790555060e08201518160060160006101000a81548173ffffffffffffffffffffffffffffffffffffffff021916908373ffffffffffffffffffffffffffffffffffffffff160217905550505061010082015181600d0160008201518160000160006101000a81548160ff0219169083600381111562001d1157fe5b0217905550505061012082015181600e0160008201518160000155602082015181600101908051906020019062001d4a9291906200396c565b506040820151816002015560608201518160030155505061014082015181601201556101608201518160130160006101000a81548173ffffffffffffffffffffffffffffffffffffffff021916908373ffffffffffffffffffffffffffffffffffffffff160217905550905050606062001dc48562003798565b905060008451905060008090505b8181101562001e7f5760038360405162001ded9190620055b8565b908152602001604051809103902086828151811062001e0857fe5b6020026020010151908060018154018082558091505090600182039060005260206000209060030201600090919290919091506000820151816000015560208201518160010155604082015181600201908051906020019062001e6d9291906200396c565b50505050808060010191505062001dd2565b50856020015160405162001e9491906200559f565b60405180910390207f74b2e2a4d866c513222fe0222feef41e081ec60e6879885dd70b6b7a305c3c1e878760405162001ecf92919062005936565b60405180910390a285935050505092915050565b62001eed620037b5565b606062001ef9620037b5565b62001f8d87878080601f016020809104026020016040519081016040528093929190818152602001838380828437600081840152601f19601f8201169050808301925050505050505086868080601f016020809104026020016040519081016040528093929190818152602001838380828437600081840152601f19601f8201169050808301925050505050505062002cdc565b9050606062001f9c8262003798565b90508160038260405162001fb19190620055b8565b908152602001604051809103902080805480602002602001604051908101604052809291908181526020016000905b82821015620020ce57838290600052602060002090600302016040518060600160405290816000820154815260200160018201548152602001600282018054600181600116156101000203166002900480601f016020809104026020016040519081016040528092919081815260200182805460018160011615610100020316600290048015620020b55780601f106200208957610100808354040283529160200191620020b5565b820191906000526020600020905b8154815290600101906020018083116200209757829003601f168201915b5050505050815250508152602001906001019062001fe0565b50505050905093509350505094509492505050565b6000620020ef620037b5565b6200218386868080601f016020809104026020016040519081016040528093929190818152602001838380828437600081840152601f19601f8201169050808301925050505050505085858080601f016020809104026020016040519081016040528093929190818152602001838380828437600081840152601f19601f8201169050808301925050505050505062002cdc565b905060008160000151511415620021d1576040517f08c379a0000000000000000000000000000000000000000000000000000000008152600401620021c89062005846565b60405180910390fd5b8060600151915050949350505050565b620021eb620037b5565b620021ff8260000151836020015162002cdc565b9050600082600001515114156200224d576040517f08c379a0000000000000000000000000000000000000000000000000000000008152600401620022449062005846565b60405180910390fd5b600060038111156200225b57fe5b816060015160038111156200226c57fe5b14620022af576040517f08c379a0000000000000000000000000000000000000000000000000000000008152600401620022a690620058f0565b60405180910390fd5b620022b9620039f3565b81610120015190506000429050816060015181111562002310576040517f08c379a00000000000000000000000000000000000000000000000000000000081526004016200230790620058ac565b60405180910390fd5b600084608001518560600151011162002360576040517f08c379a0000000000000000000000000000000000000000000000000000000008152600401620023579062005802565b60405180910390fd5b6200236a6200385c565b600160009054906101000a900473ffffffffffffffffffffffffffffffffffffffff1673ffffffffffffffffffffffffffffffffffffffff1663ef7ae53f85600001516040518263ffffffff1660e01b8152600401620023cb9190620056ca565b60006040518083038186803b158015620023e457600080fd5b505afa158015620023f9573d6000803e3d6000fd5b505050506040513d6000823e3d601f19601f82011682018060405250620024249190810190620049ee565b905060008460e0015160c0015190508073ffffffffffffffffffffffffffffffffffffffff166323b872dd338760e0015160e0015173ffffffffffffffffffffffffffffffffffffffff166338cc48316040518163ffffffff1660e01b815260040160206040518083038186803b1580156200249f57600080fd5b505afa158015620024b4573d6000803e3d6000fd5b505050506040513d601f19601f82011682018060405250620024da9190810190620047cc565b89608001518a60600151016040518463ffffffff1660e01b8152600401620025059392919062005606565b602060405180830381600087803b1580156200252057600080fd5b505af115801562002535573d6000803e3d6000fd5b505050506040513d601f19601f820116820180604052506200255b9190810190620047f8565b50428660a001818152505033866040019073ffffffffffffffffffffffffffffffffffffffff16908173ffffffffffffffffffffffffffffffffffffffff16815250506060620025b487600001518860200151620034fd565b9050600581604051620025c89190620055b8565b908152602001604051809103902087908060018154018082558091505090600182039060005260206000209060060201600090919290919091506000820151816000019080519060200190620026209291906200396c565b5060208201518160010190805190602001906200263f9291906200396c565b5060408201518160020160006101000a81548173ffffffffffffffffffffffffffffffffffffffff021916908373ffffffffffffffffffffffffffffffffffffffff160217905550606082015181600301556080820151816004015560a082015181600501555050508560200151604051620026bc91906200559f565b60405180910390207f1fc2188cf86b2fdff0c37c3a4cc9ac40d660cb3ed78875f759054aa66515180f88604051620026f5919062005971565b60405180910390a250505050505050565b6000600483836040516200271c92919062005584565b908152602001604051809103902054905092915050565b6200273d620037b5565b620027d186868080601f016020809104026020016040519081016040528093929190818152602001838380828437600081840152601f19601f8201169050808301925050505050505085858080601f016020809104026020016040519081016040528093929190818152602001838380828437600081840152601f19601f8201169050808301925050505050505062002cdc565b9050600081600001515114156200281f576040517f08c379a0000000000000000000000000000000000000000000000000000000008152600401620028169062005736565b60405180910390fd5b806060015160038111156200283057fe5b8260038111156200283d57fe5b1462002c1d5760008160600151905082826060019060038111156200285e57fe5b908160038111156200286c57fe5b815250506000600283600001516040516200288891906200559f565b9081526020016040518091039020905082818787604051620028ac92919062005584565b90815260200160405180910390206000820151816000019080519060200190620028d89291906200396c565b506020820151816001019080519060200190620028f79291906200396c565b506040820151816002019080519060200190620029169291906200396c565b5060608201518160030160006101000a81548160ff021916908360038111156200293c57fe5b021790555060808201518160030160016101000a81548160ff021916908360068111156200296657fe5b021790555060a0820151816004019080519060200190620029899291906200396c565b5060c0820151816005019080519060200190620029a89291906200396c565b5060e08201518160060160008201518160000160006101000a81548173ffffffffffffffffffffffffffffffffffffffff021916908373ffffffffffffffffffffffffffffffffffffffff16021790555060208201518160000160146101000a81548160ff0219169083600181111562002a1e57fe5b021790555060408201518160010155606082015181600201908051906020019062002a4b9291906200396c565b506080820151816003015560a0820151816004015560c08201518160050160006101000a81548173ffffffffffffffffffffffffffffffffffffffff021916908373ffffffffffffffffffffffffffffffffffffffff16021790555060e08201518160060160006101000a81548173ffffffffffffffffffffffffffffffffffffffff021916908373ffffffffffffffffffffffffffffffffffffffff160217905550505061010082015181600d0160008201518160000160006101000a81548160ff0219169083600381111562002b1f57fe5b0217905550505061012082015181600e0160008201518160000155602082015181600101908051906020019062002b589291906200396c565b506040820151816002015560608201518160030155505061014082015181601201556101608201518160130160006101000a81548173ffffffffffffffffffffffffffffffffffffffff021916908373ffffffffffffffffffffffffffffffffffffffff160217905550905050878760405162002bd792919062005584565b60405180910390207f984b6675ffc22e1f752662b0ce0a6e95adb7944d816aa2d09e6995c9b20a198a838660405162002c129291906200569d565b60405180910390a250505b505050505050565b600073ffffffffffffffffffffffffffffffffffffffff168173ffffffffffffffffffffffffffffffffffffffff16141562002c98576040517f08c379a000000000000000000000000000000000000000000000000000000000815260040162002c8f90620057e0565b60405180910390fd5b80600160006101000a81548173ffffffffffffffffffffffffffffffffffffffff021916908373ffffffffffffffffffffffffffffffffffffffff16021790555050565b62002ce6620037b5565b60008351141562002d2e576040517f08c379a000000000000000000000000000000000000000000000000000000000815260040162002d2590620057be565b60405180910390fd5b60008251141562002d76576040517f08c379a000000000000000000000000000000000000000000000000000000000815260040162002d6d906200588a565b60405180910390fd5b600060028460405162002d8a9190620055b8565b9081526020016040518091039020905062002da4620037b5565b818460405162002db59190620055b8565b908152602001604051809103902060405180610180016040529081600082018054600181600116156101000203166002900480601f01602080910402602001604051908101604052809291908181526020018280546001816001161561010002031660029004801562002e6c5780601f1062002e405761010080835404028352916020019162002e6c565b820191906000526020600020905b81548152906001019060200180831162002e4e57829003601f168201915b50505050508152602001600182018054600181600116156101000203166002900480601f01602080910402602001604051908101604052809291908181526020018280546001816001161561010002031660029004801562002f125780601f1062002ee65761010080835404028352916020019162002f12565b820191906000526020600020905b81548152906001019060200180831162002ef457829003601f168201915b50505050508152602001600282018054600181600116156101000203166002900480601f01602080910402602001604051908101604052809291908181526020018280546001816001161561010002031660029004801562002fb85780601f1062002f8c5761010080835404028352916020019162002fb8565b820191906000526020600020905b81548152906001019060200180831162002f9a57829003601f168201915b505050505081526020016003820160009054906101000a900460ff16600381111562002fe057fe5b600381111562002fec57fe5b81526020016003820160019054906101000a900460ff1660068111156200300f57fe5b60068111156200301b57fe5b8152602001600482018054600181600116156101000203166002900480601f016020809104026020016040519081016040528092919081815260200182805460018160011615610100020316600290048015620030bc5780601f106200309057610100808354040283529160200191620030bc565b820191906000526020600020905b8154815290600101906020018083116200309e57829003601f168201915b50505050508152602001600582018054600181600116156101000203166002900480601f016020809104026020016040519081016040528092919081815260200182805460018160011615610100020316600290048015620031625780601f10620031365761010080835404028352916020019162003162565b820191906000526020600020905b8154815290600101906020018083116200314457829003601f168201915b5050505050815260200160068201604051806101000160405290816000820160009054906101000a900473ffffffffffffffffffffffffffffffffffffffff1673ffffffffffffffffffffffffffffffffffffffff1673ffffffffffffffffffffffffffffffffffffffff1681526020016000820160149054906101000a900460ff166001811115620031f157fe5b6001811115620031fd57fe5b815260200160018201548152602001600282018054600181600116156101000203166002900480601f016020809104026020016040519081016040528092919081815260200182805460018160011615610100020316600290048015620032a85780601f106200327c57610100808354040283529160200191620032a8565b820191906000526020600020905b8154815290600101906020018083116200328a57829003601f168201915b5050505050815260200160038201548152602001600482015481526020016005820160009054906101000a900473ffffffffffffffffffffffffffffffffffffffff1673ffffffffffffffffffffffffffffffffffffffff1673ffffffffffffffffffffffffffffffffffffffff1681526020016006820160009054906101000a900473ffffffffffffffffffffffffffffffffffffffff1673ffffffffffffffffffffffffffffffffffffffff1673ffffffffffffffffffffffffffffffffffffffff16815250508152602001600d82016040518060200160405290816000820160009054906101000a900460ff166003811115620033a457fe5b6003811115620033b057fe5b815250508152602001600e820160405180608001604052908160008201548152602001600182018054600181600116156101000203166002900480601f0160208091040260200160405190810160405280929190818152602001828054600181600116156101000203166002900480156200346f5780601f1062003443576101008083540402835291602001916200346f565b820191906000526020600020905b8154815290600101906020018083116200345157829003601f168201915b50505050508152602001600282015481526020016003820154815250508152602001601282015481526020016013820160009054906101000a900473ffffffffffffffffffffffffffffffffffffffff1673ffffffffffffffffffffffffffffffffffffffff1673ffffffffffffffffffffffffffffffffffffffff16815250509050809250505092915050565b6060828260405160200162003514929190620055d1565b604051602081830303815290604052905092915050565b6000606082905060008090506000806000600290505b602a8110156200378b57610100840293508481815181106200355f57fe5b602001015160f81c60f81b60f81c60ff1692508460018201815181106200358257fe5b602001015160f81c60f81b60f81c60ff16915060618373ffffffffffffffffffffffffffffffffffffffff1610158015620035d4575060668373ffffffffffffffffffffffffffffffffffffffff1611155b15620035e65760578303925062003685565b60418373ffffffffffffffffffffffffffffffffffffffff161015801562003625575060468373ffffffffffffffffffffffffffffffffffffffff1611155b15620036375760378303925062003684565b60308373ffffffffffffffffffffffffffffffffffffffff161015801562003676575060398373ffffffffffffffffffffffffffffffffffffffff1611155b1562003683576030830392505b5b5b60618273ffffffffffffffffffffffffffffffffffffffff1610158015620036c4575060668273ffffffffffffffffffffffffffffffffffffffff1611155b15620036d65760578203915062003775565b60418273ffffffffffffffffffffffffffffffffffffffff161015801562003715575060468273ffffffffffffffffffffffffffffffffffffffff1611155b15620037275760378203915062003774565b60308273ffffffffffffffffffffffffffffffffffffffff161015801562003766575060398273ffffffffffffffffffffffffffffffffffffffff1611155b1562003773576030820391505b5b5b8160108402018401935060028101905062003541565b5082945050505050919050565b6060620037ae82600001518360200151620034fd565b9050919050565b60405180610180016040528060608152602001606081526020016060815260200160006003811115620037e457fe5b815260200160006006811115620037f757fe5b815260200160608152602001606081526020016200381462003a1b565b81526020016200382362003aae565b81526020016200383262003acd565b815260200160008152602001600073ffffffffffffffffffffffffffffffffffffffff1681525090565b6040518060800160405280606081526020016200387862003af5565b81526020016200388762003b1d565b81526020016200389662003b4a565b81525090565b6040518060c001604052806060815260200160608152602001600073ffffffffffffffffffffffffffffffffffffffff1681526020016000815260200160008152602001600081525090565b6040518060600160405280600060038111156200390157fe5b815260200160008152602001606081525090565b6040518060e00160405280600060038111156200392e57fe5b81526020016060815260200160608152602001600081526020016060815260200160608152602001606081525090565b6108ca8062005e2283390190565b828054600181600116156101000203166002900490600052602060002090601f016020900481019282601f10620039af57805160ff1916838001178555620039e0565b82800160010185558215620039e0579182015b82811115620039df578251825591602001919060010190620039c2565b5b509050620039ef919062003b93565b5090565b6040518060800160405280600081526020016060815260200160008152602001600081525090565b604051806101000160405280600073ffffffffffffffffffffffffffffffffffffffff1681526020016000600181111562003a5257fe5b815260200160008152602001606081526020016000815260200160008152602001600073ffffffffffffffffffffffffffffffffffffffff168152602001600073ffffffffffffffffffffffffffffffffffffffff1681525090565b60405180602001604052806000600381111562003ac757fe5b81525090565b6040518060800160405280600081526020016060815260200160008152602001600081525090565b6040518060800160405280606081526020016060815260200160608152602001606081525090565b60405180606001604052806000600381111562003b3657fe5b815260200160008152602001606081525090565b6040518060e001604052806000600381111562003b6357fe5b81526020016060815260200160608152602001600081526020016060815260200160608152602001606081525090565b62003bb891905b8082111562003bb457600081600090555060010162003b9a565b5090565b90565b60008135905062003bcc8162005d30565b92915050565b60008151905062003be38162005d30565b92915050565b60008151905062003bfa8162005d4a565b92915050565b600082601f83011262003c1257600080fd5b815162003c2962003c2382620059e0565b620059b2565b9150818183526020840193506020810190508385602084028201111562003c4f57600080fd5b60005b8381101562003c83578162003c68888262003bd2565b84526020840193506020830192505060018101905062003c52565b5050505092915050565b600082601f83011262003c9f57600080fd5b813562003cb662003cb08262005a09565b620059b2565b9150818183526020840193506020810190508360005b8381101562003d00578135860162003ce5888262003ede565b84526020840193506020830192505060018101905062003ccc565b5050505092915050565b60008151905062003d1b8162005d64565b92915050565b60008135905062003d328162005d7e565b92915050565b60008135905062003d498162005d98565b92915050565b60008135905062003d608162005db2565b92915050565b60008135905062003d778162005dc3565b92915050565b60008135905062003d8e8162005dd4565b92915050565b60008135905062003da58162005de5565b92915050565b60008151905062003dbc8162005de5565b92915050565b60008151905062003dd38162005df6565b92915050565b60008083601f84011262003dec57600080fd5b8235905067ffffffffffffffff81111562003e0657600080fd5b60208301915083600182028301111562003e1f57600080fd5b9250929050565b600082601f83011262003e3857600080fd5b813562003e4f62003e498262005a32565b620059b2565b9150808252602083016020830185838301111562003e6c57600080fd5b62003e7983828462005ca2565b50505092915050565b600082601f83011262003e9457600080fd5b815162003eab62003ea58262005a32565b620059b2565b9150808252602083016020830185838301111562003ec857600080fd5b62003ed583828462005cb1565b50505092915050565b60006060828403121562003ef157600080fd5b62003efd6060620059b2565b9050600062003f0f8482850162004772565b600083015250602062003f258482850162004772565b602083015250604082013567ffffffffffffffff81111562003f4657600080fd5b62003f548482850162003e26565b60408301525092915050565b6000610100828403121562003f7457600080fd5b62003f81610100620059b2565b9050600062003f938482850162003bbb565b600083015250602062003fa98482850162003d4f565b602083015250604062003fbf8482850162004772565b604083015250606082013567ffffffffffffffff81111562003fe057600080fd5b62003fee8482850162003e26565b6060830152506080620040048482850162004772565b60808301525060a06200401a8482850162004772565b60a08301525060c0620040308482850162003d38565b60c08301525060e0620040468482850162003d21565b60e08301525092915050565b600061018082840312156200406657600080fd5b62004073610180620059b2565b9050600082013567ffffffffffffffff8111156200409057600080fd5b6200409e8482850162003e26565b600083015250602082013567ffffffffffffffff811115620040bf57600080fd5b620040cd8482850162003e26565b602083015250604082013567ffffffffffffffff811115620040ee57600080fd5b620040fc8482850162003e26565b6040830152506060620041128482850162003d7d565b6060830152506080620041288482850162003d66565b60808301525060a082013567ffffffffffffffff8111156200414957600080fd5b620041578482850162003e26565b60a08301525060c082013567ffffffffffffffff8111156200417857600080fd5b620041868482850162003e26565b60c08301525060e082013567ffffffffffffffff811115620041a757600080fd5b620041b58482850162003f60565b60e083015250610100620041cc84828501620042bc565b6101008301525061012082013567ffffffffffffffff811115620041ef57600080fd5b620041fd84828501620046da565b61012083015250610140620042158482850162004772565b610140830152506101606200422d8482850162003bbb565b6101608301525092915050565b6000606082840312156200424d57600080fd5b620042596060620059b2565b905060006200426b8482850162003dab565b6000830152506020620042818482850162004789565b602083015250604082015167ffffffffffffffff811115620042a257600080fd5b620042b08482850162003c00565b60408301525092915050565b600060208284031215620042cf57600080fd5b620042db6020620059b2565b90506000620042ed8482850162003d94565b60008301525092915050565b6000608082840312156200430c57600080fd5b620043186080620059b2565b9050600082015167ffffffffffffffff8111156200433557600080fd5b620043438482850162003e82565b600083015250602082015167ffffffffffffffff8111156200436457600080fd5b6200437284828501620043dc565b602083015250604082015167ffffffffffffffff8111156200439357600080fd5b620043a1848285016200423a565b604083015250606082015167ffffffffffffffff811115620043c257600080fd5b620043d0848285016200459c565b60608301525092915050565b600060808284031215620043ef57600080fd5b620043fb6080620059b2565b9050600082015167ffffffffffffffff8111156200441857600080fd5b620044268482850162003e82565b600083015250602082015167ffffffffffffffff8111156200444757600080fd5b620044558482850162003e82565b602083015250604082015167ffffffffffffffff8111156200447657600080fd5b620044848482850162003e82565b604083015250606082015167ffffffffffffffff811115620044a557600080fd5b620044b38482850162003c00565b60608301525092915050565b600060c08284031215620044d257600080fd5b620044de60c0620059b2565b9050600082013567ffffffffffffffff811115620044fb57600080fd5b620045098482850162003e26565b600083015250602082013567ffffffffffffffff8111156200452a57600080fd5b620045388482850162003e26565b60208301525060406200454e8482850162003bbb565b6040830152506060620045648482850162004772565b60608301525060806200457a8482850162004772565b60808301525060a0620045908482850162004772565b60a08301525092915050565b600060e08284031215620045af57600080fd5b620045bb60e0620059b2565b90506000620045cd8482850162003dc2565b600083015250602082015167ffffffffffffffff811115620045ee57600080fd5b620045fc8482850162003e82565b602083015250604082015167ffffffffffffffff8111156200461d57600080fd5b6200462b8482850162003c00565b6040830152506060620046418482850162004789565b606083015250608082015167ffffffffffffffff8111156200466257600080fd5b620046708482850162003e82565b60808301525060a082015167ffffffffffffffff8111156200469157600080fd5b6200469f8482850162003e82565b60a08301525060c082015167ffffffffffffffff811115620046c057600080fd5b620046ce8482850162003e82565b60c08301525092915050565b600060808284031215620046ed57600080fd5b620046f96080620059b2565b905060006200470b8482850162004772565b600083015250602082013567ffffffffffffffff8111156200472c57600080fd5b6200473a8482850162003e26565b6020830152506040620047508482850162004772565b6040830152506060620047668482850162004772565b60608301525092915050565b600081359050620047838162005e07565b92915050565b6000815190506200479a8162005e07565b92915050565b600060208284031215620047b357600080fd5b6000620047c38482850162003bbb565b91505092915050565b600060208284031215620047df57600080fd5b6000620047ef8482850162003be9565b91505092915050565b6000602082840312156200480b57600080fd5b60006200481b8482850162003d0a565b91505092915050565b600080602083850312156200483857600080fd5b600083013567ffffffffffffffff8111156200485357600080fd5b620048618582860162003dd9565b92509250509250929050565b600080600080604085870312156200488457600080fd5b600085013567ffffffffffffffff8111156200489f57600080fd5b620048ad8782880162003dd9565b9450945050602085013567ffffffffffffffff811115620048cd57600080fd5b620048db8782880162003dd9565b925092505092959194509250565b6000806000806000606086880312156200490257600080fd5b600086013567ffffffffffffffff8111156200491d57600080fd5b6200492b8882890162003dd9565b9550955050602086013567ffffffffffffffff8111156200494b57600080fd5b620049598882890162003dd9565b935093505060406200496e8882890162003d7d565b9150509295509295909350565b600080604083850312156200498f57600080fd5b600083013567ffffffffffffffff811115620049aa57600080fd5b620049b88582860162004052565b925050602083013567ffffffffffffffff811115620049d657600080fd5b620049e48582860162003c8d565b9150509250929050565b60006020828403121562004a0157600080fd5b600082015167ffffffffffffffff81111562004a1c57600080fd5b62004a2a84828501620042f9565b91505092915050565b60006020828403121562004a4657600080fd5b600082013567ffffffffffffffff81111562004a6157600080fd5b62004a6f84828501620044bf565b91505092915050565b60006020828403121562004a8b57600080fd5b600062004a9b8482850162004789565b91505092915050565b600062004ab28383620051e1565b905092915050565b62004ac58162005bc6565b82525050565b62004ad68162005aec565b82525050565b62004ae78162005aec565b82525050565b600062004afa8262005a6f565b62004b06818562005a9d565b93508360208202850162004b1a8562005a5f565b8060005b8581101562004b5c578484038952815162004b3a858262004aa4565b945062004b478362005a90565b925060208a0199505060018101905062004b1e565b50829750879550505050505092915050565b62004b798162005bda565b82525050565b62004b8a8162005c02565b82525050565b62004b9b8162005c02565b82525050565b62004bac8162005c2a565b82525050565b62004bbd8162005c3e565b82525050565b62004bce8162005c52565b82525050565b62004bdf8162005c52565b82525050565b62004bf08162005c66565b82525050565b600062004c04838562005ae1565b935062004c1383858462005ca2565b82840190509392505050565b600062004c2c8262005a85565b62004c38818562005abf565b935062004c4a81856020860162005cb1565b62004c558162005ce7565b840191505092915050565b600062004c6d8262005a85565b62004c79818562005ae1565b935062004c8b81856020860162005cb1565b80840191505092915050565b600062004ca48262005a7a565b62004cb0818562005aae565b935062004cc281856020860162005cb1565b62004ccd8162005ce7565b840191505092915050565b600062004ce58262005a7a565b62004cf1818562005abf565b935062004d0381856020860162005cb1565b62004d0e8162005ce7565b840191505092915050565b600062004d268262005a7a565b62004d32818562005ad0565b935062004d4481856020860162005cb1565b62004d4f8162005ce7565b840191505092915050565b600062004d678262005a7a565b62004d73818562005ae1565b935062004d8581856020860162005cb1565b80840191505092915050565b600062004da060118362005abf565b91507f70726f706f73616c206d697373696e672e0000000000000000000000000000006000830152602082019050919050565b600062004de260188362005abf565b91507f626173652073657474696e67206e6f74206578697374732e00000000000000006000830152602082019050919050565b600062004e24601c8362005abf565b91507f70726f706f7365722073657474696e67206e6f74206578697374732e000000006000830152602082019050919050565b600062004e66601a8362005abf565b91507f70726f706f73616c20646973636f496420697320656d707479210000000000006000830152602082019050919050565b600062004ea860128362005abf565b91507f646973636f20696420697320656d7074792100000000000000000000000000006000830152602082019050919050565b600062004eea60158362005abf565b91507f69726f206164647265737320697320656d7074792e00000000000000000000006000830152602082019050919050565b600062004f2c601e8362005abf565b91507f6120696e76616c696420766f74652c20766f7465206e756d203c3d20302e00006000830152602082019050919050565b600062004f6e60238362005abf565b91507f7468652070726f706f73616c20636f756c64206e6f742062652072656c65617360008301527f65642e00000000000000000000000000000000000000000000000000000000006020830152604082019050919050565b600062004fd6601e8362005abf565b91507f70726f706f73616c206d697373696e672c20636865636b2066697273742e00006000830152602082019050919050565b600062005018603f8362005abf565b91507f70726f706f73616c20616c7265616479206578697374732c20706c656173652060008301527f7265706c61636520776974682074686520636f6e7472616374206f776e6572006020830152604082019050919050565b600062005080601b8362005abf565b91507f70726f706f73616c2073657269616c496420697320656d7074792100000000006000830152602082019050919050565b6000620050c260108362005abf565b91507f766f746520697320657870697265642e000000000000000000000000000000006000830152602082019050919050565b60006200510460198362005abf565b91507f766f7465722073657474696e67206e6f74206578697374732e000000000000006000830152602082019050919050565b60006200514660018362005ae1565b91507f40000000000000000000000000000000000000000000000000000000000000006000830152600182019050919050565b600062005188603a8362005abf565b91507f7468652070726f706f73616c20636f756c64206e6f7420626520766f7465642060008301527f7768656e20737461747573206973206e6f7420766f74696e672e0000000000006020830152604082019050919050565b6000606083016000830151620051fb600086018262005562565b50602083015162005210602086018262005562565b50604083015184820360408601526200522a828262004c97565b9150508091505092915050565b60006101008301600083015162005252600086018262004acb565b50602083015162005267602086018262004ba1565b5060408301516200527c604086018262005562565b506060830151848203606086015262005296828262004c97565b9150506080830151620052ad608086018262005562565b5060a0830151620052c260a086018262005562565b5060c0830151620052d760c086018262004b7f565b5060e0830151620052ec60e086018262004b6e565b508091505092915050565b600061018083016000830151848203600086015262005317828262004c97565b9150506020830151848203602086015262005333828262004c97565b915050604083015184820360408601526200534f828262004c97565b915050606083015162005366606086018262004bc3565b5060808301516200537b608086018262004bb2565b5060a083015184820360a086015262005395828262004c97565b91505060c083015184820360c0860152620053b1828262004c97565b91505060e083015184820360e0860152620053cd828262005237565b915050610100830151620053e66101008601826200543d565b50610120830151848203610120860152620054028282620054f7565b9150506101408301516200541b61014086018262005562565b506101608301516200543261016086018262004acb565b508091505092915050565b60208201600082015162005455600085018262004be5565b50505050565b600060c08301600083015184820360008601526200547a828262004c97565b9150506020830151848203602086015262005496828262004c97565b9150506040830151620054ad604086018262004acb565b506060830151620054c2606086018262005562565b506080830151620054d7608086018262005562565b5060a0830151620054ec60a086018262005562565b508091505092915050565b600060808301600083015162005511600086018262005562565b50602083015184820360208601526200552b828262004c97565b915050604083015162005542604086018262005562565b50606083015162005557606086018262005562565b508091505092915050565b6200556d8162005bbc565b82525050565b6200557e8162005bbc565b82525050565b60006200559382848662004bf6565b91508190509392505050565b6000620055ad828462004d5a565b915081905092915050565b6000620055c6828462004c60565b915081905092915050565b6000620055df828562004c60565b9150620055ec8262005137565b9150620055fa828462004c60565b91508190509392505050565b60006060820190506200561d600083018662004aba565b6200562c602083018562004aba565b6200563b604083018462005573565b949350505050565b60006060820190506200565a600083018662004b90565b62005669602083018562004adc565b62005678604083018462005573565b949350505050565b600060208201905062005697600083018462004bd4565b92915050565b6000604082019050620056b4600083018562004bd4565b620056c3602083018462004bd4565b9392505050565b60006020820190508181036000830152620056e6818462004cd8565b905092915050565b600060208201905081810360008301526200570a818462004d19565b905092915050565b600060208201905081810360008301526200572e818462004c1f565b905092915050565b60006020820190508181036000830152620057518162004d91565b9050919050565b60006020820190508181036000830152620057738162004dd3565b9050919050565b60006020820190508181036000830152620057958162004e15565b9050919050565b60006020820190508181036000830152620057b78162004e57565b9050919050565b60006020820190508181036000830152620057d98162004e99565b9050919050565b60006020820190508181036000830152620057fb8162004edb565b9050919050565b600060208201905081810360008301526200581d8162004f1d565b9050919050565b600060208201905081810360008301526200583f8162004f5f565b9050919050565b60006020820190508181036000830152620058618162004fc7565b9050919050565b60006020820190508181036000830152620058838162005009565b9050919050565b60006020820190508181036000830152620058a58162005071565b9050919050565b60006020820190508181036000830152620058c781620050b3565b9050919050565b60006020820190508181036000830152620058e981620050f5565b9050919050565b600060208201905081810360008301526200590b8162005179565b9050919050565b600060208201905081810360008301526200592e8184620052f7565b905092915050565b60006040820190508181036000830152620059528185620052f7565b9050818103602083015262005968818462004aed565b90509392505050565b600060208201905081810360008301526200598d81846200545b565b905092915050565b6000602082019050620059ac600083018462005573565b92915050565b6000604051905081810181811067ffffffffffffffff82111715620059d657600080fd5b8060405250919050565b600067ffffffffffffffff821115620059f857600080fd5b602082029050602081019050919050565b600067ffffffffffffffff82111562005a2157600080fd5b602082029050602081019050919050565b600067ffffffffffffffff82111562005a4a57600080fd5b601f19601f8301169050602081019050919050565b6000819050602082019050919050565b600081519050919050565b600081519050919050565b600081519050919050565b6000602082019050919050565b600082825260208201905092915050565b600082825260208201905092915050565b600082825260208201905092915050565b600082825260208201905092915050565b600081905092915050565b600062005af98262005b9c565b9050919050565b600062005b0d8262005b9c565b9050919050565b60008115159050919050565b600062005b2d8262005b00565b9050919050565b600062005b418262005aec565b9050919050565b600081905062005b588262005cf8565b919050565b600081905062005b6d8262005d06565b919050565b600081905062005b828262005d14565b919050565b600081905062005b978262005d22565b919050565b600073ffffffffffffffffffffffffffffffffffffffff82169050919050565b6000819050919050565b600062005bd38262005c7a565b9050919050565b600062005be78262005bee565b9050919050565b600062005bfb8262005b9c565b9050919050565b600062005c0f8262005c16565b9050919050565b600062005c238262005b9c565b9050919050565b600062005c378262005b48565b9050919050565b600062005c4b8262005b5d565b9050919050565b600062005c5f8262005b72565b9050919050565b600062005c738262005b87565b9050919050565b600062005c878262005c8e565b9050919050565b600062005c9b8262005b9c565b9050919050565b82818337600083830152505050565b60005b8381101562005cd157808201518184015260208101905062005cb4565b8381111562005ce1576000848401525b50505050565b6000601f19601f8301169050919050565b6002811062005d0357fe5b50565b6007811062005d1157fe5b50565b6004811062005d1f57fe5b50565b6004811062005d2d57fe5b50565b62005d3b8162005aec565b811462005d4757600080fd5b50565b62005d558162005b00565b811462005d6157600080fd5b50565b62005d6f8162005b14565b811462005d7b57600080fd5b50565b62005d898162005b20565b811462005d9557600080fd5b50565b62005da38162005b34565b811462005daf57600080fd5b50565b6002811062005dc057600080fd5b50565b6007811062005dd157600080fd5b50565b6004811062005de257600080fd5b50565b6004811062005df357600080fd5b50565b6004811062005e0457600080fd5b50565b62005e128162005bbc565b811462005e1e57600080fd5b5056fe608060405234801561001057600080fd5b506040516108ca3803806108ca83398181016040526100329190810190610148565b806000908051906020019061004892919061004f565b5050610215565b828054600181600116156101000203166002900490600052602060002090601f016020900481019282601f1061009057805160ff19168380011785556100be565b828001600101855582156100be579182015b828111156100bd5782518255916020019190600101906100a2565b5b5090506100cb91906100cf565b5090565b6100f191905b808211156100ed5760008160009055506001016100d5565b5090565b90565b600082601f83011261010557600080fd5b8151610118610113826101b6565b610189565b9150808252602083016020830185838301111561013457600080fd5b61013f8382846101e2565b50505092915050565b60006020828403121561015a57600080fd5b600082015167ffffffffffffffff81111561017457600080fd5b610180848285016100f4565b91505092915050565b6000604051905081810181811067ffffffffffffffff821117156101ac57600080fd5b8060405250919050565b600067ffffffffffffffff8211156101cd57600080fd5b601f19601f8301169050602081019050919050565b60005b838110156102005780820151818401526020810190506101e5565b8381111561020f576000848401525b50505050565b6106a6806102246000396000f3fe60806040526004361061004a5760003560e01c806338cc48311461004c5780634f95a04b14610077578063beabacc814610093578063e1f21c67146100bc578063fb1e6a62146100e5575b005b34801561005857600080fd5b50610061610110565b60405161006e91906104be565b60405180910390f35b610091600480360361008c91908101906103a4565b610118565b005b34801561009f57600080fd5b506100ba60048036036100b59190810190610409565b610163565b005b3480156100c857600080fd5b506100e360048036036100de9190810190610409565b6101fe565b005b3480156100f157600080fd5b506100fa610299565b6040516101079190610502565b60405180910390f35b600030905090565b8173ffffffffffffffffffffffffffffffffffffffff166108fc829081150290604051600060405180830381858888f1935050505015801561015e573d6000803e3d6000fd5b505050565b8273ffffffffffffffffffffffffffffffffffffffff1663a9059cbb83836040518363ffffffff1660e01b815260040161019e9291906104d9565b602060405180830381600087803b1580156101b857600080fd5b505af11580156101cc573d6000803e3d6000fd5b505050506040513d601f19601f820116820180604052506101f091908101906103e0565b6101f957600080fd5b505050565b8273ffffffffffffffffffffffffffffffffffffffff1663095ea7b383836040518363ffffffff1660e01b81526004016102399291906104d9565b602060405180830381600087803b15801561025357600080fd5b505af1158015610267573d6000803e3d6000fd5b505050506040513d601f19601f8201168201806040525061028b91908101906103e0565b61029457600080fd5b505050565b606060008054600181600116156101000203166002900480601f0160208091040260200160405190810160405280929190818152602001828054600181600116156101000203166002900480156103315780601f1061030657610100808354040283529160200191610331565b820191906000526020600020905b81548152906001019060200180831161031457829003601f168201915b5050505050905090565b60008135905061034a816105f0565b92915050565b60008135905061035f81610607565b92915050565b6000815190506103748161061e565b92915050565b60008135905061038981610635565b92915050565b60008135905061039e8161064c565b92915050565b600080604083850312156103b757600080fd5b60006103c585828601610350565b92505060206103d68582860161038f565b9150509250929050565b6000602082840312156103f257600080fd5b600061040084828501610365565b91505092915050565b60008060006060848603121561041e57600080fd5b600061042c8682870161037a565b935050602061043d8682870161033b565b925050604061044e8682870161038f565b9150509250925092565b61046181610552565b82525050565b61047081610540565b82525050565b600061048182610524565b61048b818561052f565b935061049b8185602086016105ac565b6104a4816105df565b840191505092915050565b6104b8816105a2565b82525050565b60006020820190506104d36000830184610458565b92915050565b60006040820190506104ee6000830185610467565b6104fb60208301846104af565b9392505050565b6000602082019050818103600083015261051c8184610476565b905092915050565b600081519050919050565b600082825260208201905092915050565b600061054b82610582565b9050919050565b600061055d82610582565b9050919050565b60008115159050919050565b600061057b82610540565b9050919050565b600073ffffffffffffffffffffffffffffffffffffffff82169050919050565b6000819050919050565b60005b838110156105ca5780820151818401526020810190506105af565b838111156105d9576000848401525b50505050565b6000601f19601f8301169050919050565b6105f981610540565b811461060457600080fd5b50565b61061081610552565b811461061b57600080fd5b50565b61062781610564565b811461063257600080fd5b50565b61063e81610570565b811461064957600080fd5b50565b610655816105a2565b811461066057600080fd5b5056fea365627a7a72315820cb50326a501ba87e9a4e89164aeacd557d4a494a1182775f71210e83a5523e076c6578706572696d656e74616cf564736f6c63430005100040a365627a7a7231582036342fdb4d47d9f614c609d67d7d73a7616ac9290dcda212c61f4d4b4fa689e36c6578706572696d656e74616cf564736f6c63430005100040",
			"opcodes": "PUSH1 0x80 PUSH1 0x40 MSTORE CALLVALUE DUP1 ISZERO PUSH3 0x11 JUMPI PUSH1 0x0 DUP1 REVERT JUMPDEST POP PUSH1 0x40 MLOAD PUSH3 0x698A CODESIZE SUB DUP1 PUSH3 0x698A DUP4 CODECOPY DUP2 DUP2 ADD PUSH1 0x40 MSTORE PUSH3 0x37 SWAP2 SWAP1 DUP2 ADD SWAP1 PUSH3 0x15D JUMP JUMPDEST CALLER PUSH1 0x0 DUP1 PUSH2 0x100 EXP DUP2 SLOAD DUP2 PUSH20 0xFFFFFFFFFFFFFFFFFFFFFFFFFFFFFFFFFFFFFFFF MUL NOT AND SWAP1 DUP4 PUSH20 0xFFFFFFFFFFFFFFFFFFFFFFFFFFFFFFFFFFFFFFFF AND MUL OR SWAP1 SSTORE POP PUSH3 0x88 DUP2 PUSH3 0x8F PUSH1 0x20 SHL PUSH1 0x20 SHR JUMP JUMPDEST POP PUSH3 0x24C JUMP JUMPDEST PUSH1 0x0 PUSH20 0xFFFFFFFFFFFFFFFFFFFFFFFFFFFFFFFFFFFFFFFF AND DUP2 PUSH20 0xFFFFFFFFFFFFFFFFFFFFFFFFFFFFFFFFFFFFFFFF AND EQ ISZERO PUSH3 0x102 JUMPI PUSH1 0x40 MLOAD PUSH32 0x8C379A000000000000000000000000000000000000000000000000000000000 DUP2 MSTORE PUSH1 0x4 ADD PUSH3 0xF9 SWAP1 PUSH3 0x1CB JUMP JUMPDEST PUSH1 0x40 MLOAD DUP1 SWAP2 SUB SWAP1 REVERT JUMPDEST DUP1 PUSH1 0x1 PUSH1 0x0 PUSH2 0x100 EXP DUP2 SLOAD DUP2 PUSH20 0xFFFFFFFFFFFFFFFFFFFFFFFFFFFFFFFFFFFFFFFF MUL NOT AND SWAP1 DUP4 PUSH20 0xFFFFFFFFFFFFFFFFFFFFFFFFFFFFFFFFFFFFFFFF AND MUL OR SWAP1 SSTORE POP POP JUMP JUMPDEST PUSH1 0x0 DUP2 MLOAD SWAP1 POP PUSH3 0x157 DUP2 PUSH3 0x232 JUMP JUMPDEST SWAP3 SWAP2 POP POP JUMP JUMPDEST PUSH1 0x0 PUSH1 0x20 DUP3 DUP5 SUB SLT ISZERO PUSH3 0x170 JUMPI PUSH1 0x0 DUP1 REVERT JUMPDEST PUSH1 0x0 PUSH3 0x180 DUP5 DUP3 DUP6 ADD PUSH3 0x146 JUMP JUMPDEST SWAP2 POP POP SWAP3 SWAP2 POP POP JUMP JUMPDEST PUSH1 0x0 PUSH3 0x198 PUSH1 0x15 DUP4 PUSH3 0x1ED JUMP JUMPDEST SWAP2 POP PUSH32 0x69726F206164647265737320697320656D7074792E0000000000000000000000 PUSH1 0x0 DUP4 ADD MSTORE PUSH1 0x20 DUP3 ADD SWAP1 POP SWAP2 SWAP1 POP JUMP JUMPDEST PUSH1 0x0 PUSH1 0x20 DUP3 ADD SWAP1 POP DUP2 DUP2 SUB PUSH1 0x0 DUP4 ADD MSTORE PUSH3 0x1E6 DUP2 PUSH3 0x189 JUMP JUMPDEST SWAP1 POP SWAP2 SWAP1 POP JUMP JUMPDEST PUSH1 0x0 DUP3 DUP3 MSTORE PUSH1 0x20 DUP3 ADD SWAP1 POP SWAP3 SWAP2 POP POP JUMP JUMPDEST PUSH1 0x0 PUSH3 0x20B DUP3 PUSH3 0x212 JUMP JUMPDEST SWAP1 POP SWAP2 SWAP1 POP JUMP JUMPDEST PUSH1 0x0 PUSH20 0xFFFFFFFFFFFFFFFFFFFFFFFFFFFFFFFFFFFFFFFF DUP3 AND SWAP1 POP SWAP2 SWAP1 POP JUMP JUMPDEST PUSH3 0x23D DUP2 PUSH3 0x1FE JUMP JUMPDEST DUP2 EQ PUSH3 0x249 JUMPI PUSH1 0x0 DUP1 REVERT JUMPDEST POP JUMP JUMPDEST PUSH2 0x672E DUP1 PUSH3 0x25C PUSH1 0x0 CODECOPY PUSH1 0x0 RETURN INVALID PUSH1 0x80 PUSH1 0x40 MSTORE PUSH1 0x4 CALLDATASIZE LT PUSH3 0x92 JUMPI PUSH1 0x0 CALLDATALOAD PUSH1 0xE0 SHR DUP1 PUSH4 0x474B58C2 GT PUSH3 0x61 JUMPI DUP1 PUSH4 0x474B58C2 EQ PUSH3 0x184 JUMPI DUP1 PUSH4 0x59F7F240 EQ PUSH3 0x1C8 JUMPI DUP1 PUSH4 0x8F65E697 EQ PUSH3 0x1E8 JUMPI DUP1 PUSH4 0xD46D6D8A EQ PUSH3 0x22C JUMPI DUP1 PUSH4 0xFFB135A8 EQ PUSH3 0x25A JUMPI PUSH3 0x92 JUMP JUMPDEST DUP1 PUSH4 0xF5E1849 EQ PUSH3 0x97 JUMPI DUP1 PUSH4 0x268D792C EQ PUSH3 0xC5 JUMPI DUP1 PUSH4 0x2B4A249F EQ PUSH3 0xFB JUMPI DUP1 PUSH4 0x3122FEF1 EQ PUSH3 0x13F JUMPI JUMPDEST PUSH1 0x0 DUP1 REVERT JUMPDEST CALLVALUE DUP1 ISZERO PUSH3 0xA4 JUMPI PUSH1 0x0 DUP1 REVERT JUMPDEST POP PUSH3 0xC3 PUSH1 0x4 DUP1 CALLDATASIZE SUB PUSH3 0xBD SWAP2 SWAP1 DUP2 ADD SWAP1 PUSH3 0x486D JUMP JUMPDEST PUSH3 0x288 JUMP JUMPDEST STOP JUMPDEST PUSH3 0xE3 PUSH1 0x4 DUP1 CALLDATASIZE SUB PUSH3 0xDD SWAP2 SWAP1 DUP2 ADD SWAP1 PUSH3 0x497B JUMP JUMPDEST PUSH3 0x857 JUMP JUMPDEST PUSH1 0x40 MLOAD PUSH3 0xF2 SWAP2 SWAP1 PUSH3 0x5912 JUMP JUMPDEST PUSH1 0x40 MLOAD DUP1 SWAP2 SUB SWAP1 RETURN JUMPDEST CALLVALUE DUP1 ISZERO PUSH3 0x108 JUMPI PUSH1 0x0 DUP1 REVERT JUMPDEST POP PUSH3 0x127 PUSH1 0x4 DUP1 CALLDATASIZE SUB PUSH3 0x121 SWAP2 SWAP1 DUP2 ADD SWAP1 PUSH3 0x497B JUMP JUMPDEST PUSH3 0x19BE JUMP JUMPDEST PUSH1 0x40 MLOAD PUSH3 0x136 SWAP2 SWAP1 PUSH3 0x5912 JUMP JUMPDEST PUSH1 0x40 MLOAD DUP1 SWAP2 SUB SWAP1 RETURN JUMPDEST CALLVALUE DUP1 ISZERO PUSH3 0x14C JUMPI PUSH1 0x0 DUP1 REVERT JUMPDEST POP PUSH3 0x16B PUSH1 0x4 DUP1 CALLDATASIZE SUB PUSH3 0x165 SWAP2 SWAP1 DUP2 ADD SWAP1 PUSH3 0x486D JUMP JUMPDEST PUSH3 0x1EE3 JUMP JUMPDEST PUSH1 0x40 MLOAD PUSH3 0x17B SWAP3 SWAP2 SWAP1 PUSH3 0x5936 JUMP JUMPDEST PUSH1 0x40 MLOAD DUP1 SWAP2 SUB SWAP1 RETURN JUMPDEST CALLVALUE DUP1 ISZERO PUSH3 0x191 JUMPI PUSH1 0x0 DUP1 REVERT JUMPDEST POP PUSH3 0x1B0 PUSH1 0x4 DUP1 CALLDATASIZE SUB PUSH3 0x1AA SWAP2 SWAP1 DUP2 ADD SWAP1 PUSH3 0x486D JUMP JUMPDEST PUSH3 0x20E3 JUMP JUMPDEST PUSH1 0x40 MLOAD PUSH3 0x1BF SWAP2 SWAP1 PUSH3 0x5680 JUMP JUMPDEST PUSH1 0x40 MLOAD DUP1 SWAP2 SUB SWAP1 RETURN JUMPDEST PUSH3 0x1E6 PUSH1 0x4 DUP1 CALLDATASIZE SUB PUSH3 0x1E0 SWAP2 SWAP1 DUP2 ADD SWAP1 PUSH3 0x4A33 JUMP JUMPDEST PUSH3 0x21E1 JUMP JUMPDEST STOP JUMPDEST CALLVALUE DUP1 ISZERO PUSH3 0x1F5 JUMPI PUSH1 0x0 DUP1 REVERT JUMPDEST POP PUSH3 0x214 PUSH1 0x4 DUP1 CALLDATASIZE SUB PUSH3 0x20E SWAP2 SWAP1 DUP2 ADD SWAP1 PUSH3 0x4824 JUMP JUMPDEST PUSH3 0x2706 JUMP JUMPDEST PUSH1 0x40 MLOAD PUSH3 0x223 SWAP2 SWAP1 PUSH3 0x5995 JUMP JUMPDEST PUSH1 0x40 MLOAD DUP1 SWAP2 SUB SWAP1 RETURN JUMPDEST CALLVALUE DUP1 ISZERO PUSH3 0x239 JUMPI PUSH1 0x0 DUP1 REVERT JUMPDEST POP PUSH3 0x258 PUSH1 0x4 DUP1 CALLDATASIZE SUB PUSH3 0x252 SWAP2 SWAP1 DUP2 ADD SWAP1 PUSH3 0x48E9 JUMP JUMPDEST PUSH3 0x2733 JUMP JUMPDEST STOP JUMPDEST CALLVALUE DUP1 ISZERO PUSH3 0x267 JUMPI PUSH1 0x0 DUP1 REVERT JUMPDEST POP PUSH3 0x286 PUSH1 0x4 DUP1 CALLDATASIZE SUB PUSH3 0x280 SWAP2 SWAP1 DUP2 ADD SWAP1 PUSH3 0x47A0 JUMP JUMPDEST PUSH3 0x2C25 JUMP JUMPDEST STOP JUMPDEST PUSH3 0x292 PUSH3 0x37B5 JUMP JUMPDEST PUSH3 0x326 DUP6 DUP6 DUP1 DUP1 PUSH1 0x1F ADD PUSH1 0x20 DUP1 SWAP2 DIV MUL PUSH1 0x20 ADD PUSH1 0x40 MLOAD SWAP1 DUP2 ADD PUSH1 0x40 MSTORE DUP1 SWAP4 SWAP3 SWAP2 SWAP1 DUP2 DUP2 MSTORE PUSH1 0x20 ADD DUP4 DUP4 DUP1 DUP3 DUP5 CALLDATACOPY PUSH1 0x0 DUP2 DUP5 ADD MSTORE PUSH1 0x1F NOT PUSH1 0x1F DUP3 ADD AND SWAP1 POP DUP1 DUP4 ADD SWAP3 POP POP POP POP POP POP POP DUP5 DUP5 DUP1 DUP1 PUSH1 0x1F ADD PUSH1 0x20 DUP1 SWAP2 DIV MUL PUSH1 0x20 ADD PUSH1 0x40 MLOAD SWAP1 DUP2 ADD PUSH1 0x40 MSTORE DUP1 SWAP4 SWAP3 SWAP2 SWAP1 DUP2 DUP2 MSTORE PUSH1 0x20 ADD DUP4 DUP4 DUP1 DUP3 DUP5 CALLDATACOPY PUSH1 0x0 DUP2 DUP5 ADD MSTORE PUSH1 0x1F NOT PUSH1 0x1F DUP3 ADD AND SWAP1 POP DUP1 DUP4 ADD SWAP3 POP POP POP POP POP POP POP PUSH3 0x2CDC JUMP JUMPDEST SWAP1 POP PUSH1 0x0 DUP6 DUP6 SWAP1 POP EQ ISZERO PUSH3 0x372 JUMPI PUSH1 0x40 MLOAD PUSH32 0x8C379A000000000000000000000000000000000000000000000000000000000 DUP2 MSTORE PUSH1 0x4 ADD PUSH3 0x369 SWAP1 PUSH3 0x5846 JUMP JUMPDEST PUSH1 0x40 MLOAD DUP1 SWAP2 SUB SWAP1 REVERT JUMPDEST PUSH1 0x0 PUSH1 0x3 DUP2 GT ISZERO PUSH3 0x380 JUMPI INVALID JUMPDEST DUP2 PUSH1 0x60 ADD MLOAD PUSH1 0x3 DUP2 GT ISZERO PUSH3 0x391 JUMPI INVALID JUMPDEST EQ ISZERO PUSH3 0x3D5 JUMPI PUSH1 0x40 MLOAD PUSH32 0x8C379A000000000000000000000000000000000000000000000000000000000 DUP2 MSTORE PUSH1 0x4 ADD PUSH3 0x3CC SWAP1 PUSH3 0x5824 JUMP JUMPDEST PUSH1 0x40 MLOAD DUP1 SWAP2 SUB SWAP1 REVERT JUMPDEST PUSH3 0x3DF PUSH3 0x385C JUMP JUMPDEST PUSH1 0x1 PUSH1 0x0 SWAP1 SLOAD SWAP1 PUSH2 0x100 EXP SWAP1 DIV PUSH20 0xFFFFFFFFFFFFFFFFFFFFFFFFFFFFFFFFFFFFFFFF AND PUSH20 0xFFFFFFFFFFFFFFFFFFFFFFFFFFFFFFFFFFFFFFFF AND PUSH4 0xEF7AE53F DUP4 PUSH1 0x0 ADD MLOAD PUSH1 0x40 MLOAD DUP3 PUSH4 0xFFFFFFFF AND PUSH1 0xE0 SHL DUP2 MSTORE PUSH1 0x4 ADD PUSH3 0x440 SWAP2 SWAP1 PUSH3 0x56CA JUMP JUMPDEST PUSH1 0x0 PUSH1 0x40 MLOAD DUP1 DUP4 SUB DUP2 DUP7 DUP1 EXTCODESIZE ISZERO DUP1 ISZERO PUSH3 0x459 JUMPI PUSH1 0x0 DUP1 REVERT JUMPDEST POP GAS STATICCALL ISZERO DUP1 ISZERO PUSH3 0x46E JUMPI RETURNDATASIZE PUSH1 0x0 DUP1 RETURNDATACOPY RETURNDATASIZE PUSH1 0x0 REVERT JUMPDEST POP POP POP POP PUSH1 0x40 MLOAD RETURNDATASIZE PUSH1 0x0 DUP3 RETURNDATACOPY RETURNDATASIZE PUSH1 0x1F NOT PUSH1 0x1F DUP3 ADD AND DUP3 ADD DUP1 PUSH1 0x40 MSTORE POP PUSH3 0x499 SWAP2 SWAP1 DUP2 ADD SWAP1 PUSH3 0x49EE JUMP JUMPDEST SWAP1 POP PUSH1 0x0 DUP3 PUSH1 0xE0 ADD MLOAD PUSH1 0xC0 ADD MLOAD SWAP1 POP PUSH1 0x60 PUSH3 0x53E DUP9 DUP9 DUP1 DUP1 PUSH1 0x1F ADD PUSH1 0x20 DUP1 SWAP2 DIV MUL PUSH1 0x20 ADD PUSH1 0x40 MLOAD SWAP1 DUP2 ADD PUSH1 0x40 MSTORE DUP1 SWAP4 SWAP3 SWAP2 SWAP1 DUP2 DUP2 MSTORE PUSH1 0x20 ADD DUP4 DUP4 DUP1 DUP3 DUP5 CALLDATACOPY PUSH1 0x0 DUP2 DUP5 ADD MSTORE PUSH1 0x1F NOT PUSH1 0x1F DUP3 ADD AND SWAP1 POP DUP1 DUP4 ADD SWAP3 POP POP POP POP POP POP POP DUP8 DUP8 DUP1 DUP1 PUSH1 0x1F ADD PUSH1 0x20 DUP1 SWAP2 DIV MUL PUSH1 0x20 ADD PUSH1 0x40 MLOAD SWAP1 DUP2 ADD PUSH1 0x40 MSTORE DUP1 SWAP4 SWAP3 SWAP2 SWAP1 DUP2 DUP2 MSTORE PUSH1 0x20 ADD DUP4 DUP4 DUP1 DUP3 DUP5 CALLDATACOPY PUSH1 0x0 DUP2 DUP5 ADD MSTORE PUSH1 0x1F NOT PUSH1 0x1F DUP3 ADD AND SWAP1 POP DUP1 DUP4 ADD SWAP3 POP POP POP POP POP POP POP PUSH3 0x34FD JUMP JUMPDEST SWAP1 POP PUSH1 0x60 PUSH1 0x5 DUP3 PUSH1 0x40 MLOAD PUSH3 0x554 SWAP2 SWAP1 PUSH3 0x55B8 JUMP JUMPDEST SWAP1 DUP2 MSTORE PUSH1 0x20 ADD PUSH1 0x40 MLOAD DUP1 SWAP2 SUB SWAP1 KECCAK256 DUP1 SLOAD DUP1 PUSH1 0x20 MUL PUSH1 0x20 ADD PUSH1 0x40 MLOAD SWAP1 DUP2 ADD PUSH1 0x40 MSTORE DUP1 SWAP3 SWAP2 SWAP1 DUP2 DUP2 MSTORE PUSH1 0x20 ADD PUSH1 0x0 SWAP1 JUMPDEST DUP3 DUP3 LT ISZERO PUSH3 0x776 JUMPI DUP4 DUP3 SWAP1 PUSH1 0x0 MSTORE PUSH1 0x20 PUSH1 0x0 KECCAK256 SWAP1 PUSH1 0x6 MUL ADD PUSH1 0x40 MLOAD DUP1 PUSH1 0xC0 ADD PUSH1 0x40 MSTORE SWAP1 DUP2 PUSH1 0x0 DUP3 ADD DUP1 SLOAD PUSH1 0x1 DUP2 PUSH1 0x1 AND ISZERO PUSH2 0x100 MUL SUB AND PUSH1 0x2 SWAP1 DIV DUP1 PUSH1 0x1F ADD PUSH1 0x20 DUP1 SWAP2 DIV MUL PUSH1 0x20 ADD PUSH1 0x40 MLOAD SWAP1 DUP2 ADD PUSH1 0x40 MSTORE DUP1 SWAP3 SWAP2 SWAP1 DUP2 DUP2 MSTORE PUSH1 0x20 ADD DUP3 DUP1 SLOAD PUSH1 0x1 DUP2 PUSH1 0x1 AND ISZERO PUSH2 0x100 MUL SUB AND PUSH1 0x2 SWAP1 DIV DUP1 ISZERO PUSH3 0x643 JUMPI DUP1 PUSH1 0x1F LT PUSH3 0x617 JUMPI PUSH2 0x100 DUP1 DUP4 SLOAD DIV MUL DUP4 MSTORE SWAP2 PUSH1 0x20 ADD SWAP2 PUSH3 0x643 JUMP JUMPDEST DUP3 ADD SWAP2 SWAP1 PUSH1 0x0 MSTORE PUSH1 0x20 PUSH1 0x0 KECCAK256 SWAP1 JUMPDEST DUP2 SLOAD DUP2 MSTORE SWAP1 PUSH1 0x1 ADD SWAP1 PUSH1 0x20 ADD DUP1 DUP4 GT PUSH3 0x625 JUMPI DUP3 SWAP1 SUB PUSH1 0x1F AND DUP3 ADD SWAP2 JUMPDEST POP POP POP POP POP DUP2 MSTORE PUSH1 0x20 ADD PUSH1 0x1 DUP3 ADD DUP1 SLOAD PUSH1 0x1 DUP2 PUSH1 0x1 AND ISZERO PUSH2 0x100 MUL SUB AND PUSH1 0x2 SWAP1 DIV DUP1 PUSH1 0x1F ADD PUSH1 0x20 DUP1 SWAP2 DIV MUL PUSH1 0x20 ADD PUSH1 0x40 MLOAD SWAP1 DUP2 ADD PUSH1 0x40 MSTORE DUP1 SWAP3 SWAP2 SWAP1 DUP2 DUP2 MSTORE PUSH1 0x20 ADD DUP3 DUP1 SLOAD PUSH1 0x1 DUP2 PUSH1 0x1 AND ISZERO PUSH2 0x100 MUL SUB AND PUSH1 0x2 SWAP1 DIV DUP1 ISZERO PUSH3 0x6E9 JUMPI DUP1 PUSH1 0x1F LT PUSH3 0x6BD JUMPI PUSH2 0x100 DUP1 DUP4 SLOAD DIV MUL DUP4 MSTORE SWAP2 PUSH1 0x20 ADD SWAP2 PUSH3 0x6E9 JUMP JUMPDEST DUP3 ADD SWAP2 SWAP1 PUSH1 0x0 MSTORE PUSH1 0x20 PUSH1 0x0 KECCAK256 SWAP1 JUMPDEST DUP2 SLOAD DUP2 MSTORE SWAP1 PUSH1 0x1 ADD SWAP1 PUSH1 0x20 ADD DUP1 DUP4 GT PUSH3 0x6CB JUMPI DUP3 SWAP1 SUB PUSH1 0x1F AND DUP3 ADD SWAP2 JUMPDEST POP POP POP POP POP DUP2 MSTORE PUSH1 0x20 ADD PUSH1 0x2 DUP3 ADD PUSH1 0x0 SWAP1 SLOAD SWAP1 PUSH2 0x100 EXP SWAP1 DIV PUSH20 0xFFFFFFFFFFFFFFFFFFFFFFFFFFFFFFFFFFFFFFFF AND PUSH20 0xFFFFFFFFFFFFFFFFFFFFFFFFFFFFFFFFFFFFFFFF AND PUSH20 0xFFFFFFFFFFFFFFFFFFFFFFFFFFFFFFFFFFFFFFFF AND DUP2 MSTORE PUSH1 0x20 ADD PUSH1 0x3 DUP3 ADD SLOAD DUP2 MSTORE PUSH1 0x20 ADD PUSH1 0x4 DUP3 ADD SLOAD DUP2 MSTORE PUSH1 0x20 ADD PUSH1 0x5 DUP3 ADD SLOAD DUP2 MSTORE POP POP DUP2 MSTORE PUSH1 0x20 ADD SWAP1 PUSH1 0x1 ADD SWAP1 PUSH3 0x582 JUMP JUMPDEST POP POP POP POP SWAP1 POP PUSH1 0x0 DUP6 PUSH1 0xE0 ADD MLOAD PUSH1 0xE0 ADD MLOAD SWAP1 POP PUSH1 0x0 DUP1 SWAP1 POP JUMPDEST DUP3 MLOAD DUP2 LT ISZERO PUSH3 0x84A JUMPI PUSH3 0x7A3 PUSH3 0x389C JUMP JUMPDEST DUP4 DUP3 DUP2 MLOAD DUP2 LT PUSH3 0x7B0 JUMPI INVALID JUMPDEST PUSH1 0x20 MUL PUSH1 0x20 ADD ADD MLOAD SWAP1 POP DUP3 PUSH20 0xFFFFFFFFFFFFFFFFFFFFFFFFFFFFFFFFFFFFFFFF AND PUSH4 0xBEABACC8 DUP8 DUP4 PUSH1 0x40 ADD MLOAD DUP5 PUSH1 0x80 ADD MLOAD DUP6 PUSH1 0x60 ADD MLOAD ADD PUSH1 0x40 MLOAD DUP5 PUSH4 0xFFFFFFFF AND PUSH1 0xE0 SHL DUP2 MSTORE PUSH1 0x4 ADD PUSH3 0x807 SWAP4 SWAP3 SWAP2 SWAP1 PUSH3 0x5643 JUMP JUMPDEST PUSH1 0x0 PUSH1 0x40 MLOAD DUP1 DUP4 SUB DUP2 PUSH1 0x0 DUP8 DUP1 EXTCODESIZE ISZERO DUP1 ISZERO PUSH3 0x822 JUMPI PUSH1 0x0 DUP1 REVERT JUMPDEST POP GAS CALL ISZERO DUP1 ISZERO PUSH3 0x837 JUMPI RETURNDATASIZE PUSH1 0x0 DUP1 RETURNDATACOPY RETURNDATASIZE PUSH1 0x0 REVERT JUMPDEST POP POP POP POP POP DUP1 DUP1 PUSH1 0x1 ADD SWAP2 POP POP PUSH3 0x78F JUMP JUMPDEST POP POP POP POP POP POP POP POP POP POP POP JUMP JUMPDEST PUSH3 0x861 PUSH3 0x37B5 JUMP JUMPDEST PUSH1 0x0 DUP4 PUSH1 0x20 ADD MLOAD MLOAD EQ ISZERO PUSH3 0x8AD JUMPI PUSH1 0x40 MLOAD PUSH32 0x8C379A000000000000000000000000000000000000000000000000000000000 DUP2 MSTORE PUSH1 0x4 ADD PUSH3 0x8A4 SWAP1 PUSH3 0x588A JUMP JUMPDEST PUSH1 0x40 MLOAD DUP1 SWAP2 SUB SWAP1 REVERT JUMPDEST PUSH1 0x0 DUP4 PUSH1 0x0 ADD MLOAD MLOAD EQ ISZERO PUSH3 0x8F9 JUMPI PUSH1 0x40 MLOAD PUSH32 0x8C379A000000000000000000000000000000000000000000000000000000000 DUP2 MSTORE PUSH1 0x4 ADD PUSH3 0x8F0 SWAP1 PUSH3 0x579C JUMP JUMPDEST PUSH1 0x40 MLOAD DUP1 SWAP2 SUB SWAP1 REVERT JUMPDEST PUSH1 0x0 PUSH1 0x2 DUP5 PUSH1 0x0 ADD MLOAD PUSH1 0x40 MLOAD PUSH3 0x911 SWAP2 SWAP1 PUSH3 0x559F JUMP JUMPDEST SWAP1 DUP2 MSTORE PUSH1 0x20 ADD PUSH1 0x40 MLOAD DUP1 SWAP2 SUB SWAP1 KECCAK256 SWAP1 POP PUSH3 0x92B PUSH3 0x37B5 JUMP JUMPDEST DUP2 DUP6 PUSH1 0x20 ADD MLOAD PUSH1 0x40 MLOAD PUSH3 0x940 SWAP2 SWAP1 PUSH3 0x559F JUMP JUMPDEST SWAP1 DUP2 MSTORE PUSH1 0x20 ADD PUSH1 0x40 MLOAD DUP1 SWAP2 SUB SWAP1 KECCAK256 PUSH1 0x40 MLOAD DUP1 PUSH2 0x180 ADD PUSH1 0x40 MSTORE SWAP1 DUP2 PUSH1 0x0 DUP3 ADD DUP1 SLOAD PUSH1 0x1 DUP2 PUSH1 0x1 AND ISZERO PUSH2 0x100 MUL SUB AND PUSH1 0x2 SWAP1 DIV DUP1 PUSH1 0x1F ADD PUSH1 0x20 DUP1 SWAP2 DIV MUL PUSH1 0x20 ADD PUSH1 0x40 MLOAD SWAP1 DUP2 ADD PUSH1 0x40 MSTORE DUP1 SWAP3 SWAP2 SWAP1 DUP2 DUP2 MSTORE PUSH1 0x20 ADD DUP3 DUP1 SLOAD PUSH1 0x1 DUP2 PUSH1 0x1 AND ISZERO PUSH2 0x100 MUL SUB AND PUSH1 0x2 SWAP1 DIV DUP1 ISZERO PUSH3 0x9F7 JUMPI DUP1 PUSH1 0x1F LT PUSH3 0x9CB JUMPI PUSH2 0x100 DUP1 DUP4 SLOAD DIV MUL DUP4 MSTORE SWAP2 PUSH1 0x20 ADD SWAP2 PUSH3 0x9F7 JUMP JUMPDEST DUP3 ADD SWAP2 SWAP1 PUSH1 0x0 MSTORE PUSH1 0x20 PUSH1 0x0 KECCAK256 SWAP1 JUMPDEST DUP2 SLOAD DUP2 MSTORE SWAP1 PUSH1 0x1 ADD SWAP1 PUSH1 0x20 ADD DUP1 DUP4 GT PUSH3 0x9D9 JUMPI DUP3 SWAP1 SUB PUSH1 0x1F AND DUP3 ADD SWAP2 JUMPDEST POP POP POP POP POP DUP2 MSTORE PUSH1 0x20 ADD PUSH1 0x1 DUP3 ADD DUP1 SLOAD PUSH1 0x1 DUP2 PUSH1 0x1 AND ISZERO PUSH2 0x100 MUL SUB AND PUSH1 0x2 SWAP1 DIV DUP1 PUSH1 0x1F ADD PUSH1 0x20 DUP1 SWAP2 DIV MUL PUSH1 0x20 ADD PUSH1 0x40 MLOAD SWAP1 DUP2 ADD PUSH1 0x40 MSTORE DUP1 SWAP3 SWAP2 SWAP1 DUP2 DUP2 MSTORE PUSH1 0x20 ADD DUP3 DUP1 SLOAD PUSH1 0x1 DUP2 PUSH1 0x1 AND ISZERO PUSH2 0x100 MUL SUB AND PUSH1 0x2 SWAP1 DIV DUP1 ISZERO PUSH3 0xA9D JUMPI DUP1 PUSH1 0x1F LT PUSH3 0xA71 JUMPI PUSH2 0x100 DUP1 DUP4 SLOAD DIV MUL DUP4 MSTORE SWAP2 PUSH1 0x20 ADD SWAP2 PUSH3 0xA9D JUMP JUMPDEST DUP3 ADD SWAP2 SWAP1 PUSH1 0x0 MSTORE PUSH1 0x20 PUSH1 0x0 KECCAK256 SWAP1 JUMPDEST DUP2 SLOAD DUP2 MSTORE SWAP1 PUSH1 0x1 ADD SWAP1 PUSH1 0x20 ADD DUP1 DUP4 GT PUSH3 0xA7F JUMPI DUP3 SWAP1 SUB PUSH1 0x1F AND DUP3 ADD SWAP2 JUMPDEST POP POP POP POP POP DUP2 MSTORE PUSH1 0x20 ADD PUSH1 0x2 DUP3 ADD DUP1 SLOAD PUSH1 0x1 DUP2 PUSH1 0x1 AND ISZERO PUSH2 0x100 MUL SUB AND PUSH1 0x2 SWAP1 DIV DUP1 PUSH1 0x1F ADD PUSH1 0x20 DUP1 SWAP2 DIV MUL PUSH1 0x20 ADD PUSH1 0x40 MLOAD SWAP1 DUP2 ADD PUSH1 0x40 MSTORE DUP1 SWAP3 SWAP2 SWAP1 DUP2 DUP2 MSTORE PUSH1 0x20 ADD DUP3 DUP1 SLOAD PUSH1 0x1 DUP2 PUSH1 0x1 AND ISZERO PUSH2 0x100 MUL SUB AND PUSH1 0x2 SWAP1 DIV DUP1 ISZERO PUSH3 0xB43 JUMPI DUP1 PUSH1 0x1F LT PUSH3 0xB17 JUMPI PUSH2 0x100 DUP1 DUP4 SLOAD DIV MUL DUP4 MSTORE SWAP2 PUSH1 0x20 ADD SWAP2 PUSH3 0xB43 JUMP JUMPDEST DUP3 ADD SWAP2 SWAP1 PUSH1 0x0 MSTORE PUSH1 0x20 PUSH1 0x0 KECCAK256 SWAP1 JUMPDEST DUP2 SLOAD DUP2 MSTORE SWAP1 PUSH1 0x1 ADD SWAP1 PUSH1 0x20 ADD DUP1 DUP4 GT PUSH3 0xB25 JUMPI DUP3 SWAP1 SUB PUSH1 0x1F AND DUP3 ADD SWAP2 JUMPDEST POP POP POP POP POP DUP2 MSTORE PUSH1 0x20 ADD PUSH1 0x3 DUP3 ADD PUSH1 0x0 SWAP1 SLOAD SWAP1 PUSH2 0x100 EXP SWAP1 DIV PUSH1 0xFF AND PUSH1 0x3 DUP2 GT ISZERO PUSH3 0xB6B JUMPI INVALID JUMPDEST PUSH1 0x3 DUP2 GT ISZERO PUSH3 0xB77 JUMPI INVALID JUMPDEST DUP2 MSTORE PUSH1 0x20 ADD PUSH1 0x3 DUP3 ADD PUSH1 0x1 SWAP1 SLOAD SWAP1 PUSH2 0x100 EXP SWAP1 DIV PUSH1 0xFF AND PUSH1 0x6 DUP2 GT ISZERO PUSH3 0xB9A JUMPI INVALID JUMPDEST PUSH1 0x6 DUP2 GT ISZERO PUSH3 0xBA6 JUMPI INVALID JUMPDEST DUP2 MSTORE PUSH1 0x20 ADD PUSH1 0x4 DUP3 ADD DUP1 SLOAD PUSH1 0x1 DUP2 PUSH1 0x1 AND ISZERO PUSH2 0x100 MUL SUB AND PUSH1 0x2 SWAP1 DIV DUP1 PUSH1 0x1F ADD PUSH1 0x20 DUP1 SWAP2 DIV MUL PUSH1 0x20 ADD PUSH1 0x40 MLOAD SWAP1 DUP2 ADD PUSH1 0x40 MSTORE DUP1 SWAP3 SWAP2 SWAP1 DUP2 DUP2 MSTORE PUSH1 0x20 ADD DUP3 DUP1 SLOAD PUSH1 0x1 DUP2 PUSH1 0x1 AND ISZERO PUSH2 0x100 MUL SUB AND PUSH1 0x2 SWAP1 DIV DUP1 ISZERO PUSH3 0xC47 JUMPI DUP1 PUSH1 0x1F LT PUSH3 0xC1B JUMPI PUSH2 0x100 DUP1 DUP4 SLOAD DIV MUL DUP4 MSTORE SWAP2 PUSH1 0x20 ADD SWAP2 PUSH3 0xC47 JUMP JUMPDEST DUP3 ADD SWAP2 SWAP1 PUSH1 0x0 MSTORE PUSH1 0x20 PUSH1 0x0 KECCAK256 SWAP1 JUMPDEST DUP2 SLOAD DUP2 MSTORE SWAP1 PUSH1 0x1 ADD SWAP1 PUSH1 0x20 ADD DUP1 DUP4 GT PUSH3 0xC29 JUMPI DUP3 SWAP1 SUB PUSH1 0x1F AND DUP3 ADD SWAP2 JUMPDEST POP POP POP POP POP DUP2 MSTORE PUSH1 0x20 ADD PUSH1 0x5 DUP3 ADD DUP1 SLOAD PUSH1 0x1 DUP2 PUSH1 0x1 AND ISZERO PUSH2 0x100 MUL SUB AND PUSH1 0x2 SWAP1 DIV DUP1 PUSH1 0x1F ADD PUSH1 0x20 DUP1 SWAP2 DIV MUL PUSH1 0x20 ADD PUSH1 0x40 MLOAD SWAP1 DUP2 ADD PUSH1 0x40 MSTORE DUP1 SWAP3 SWAP2 SWAP1 DUP2 DUP2 MSTORE PUSH1 0x20 ADD DUP3 DUP1 SLOAD PUSH1 0x1 DUP2 PUSH1 0x1 AND ISZERO PUSH2 0x100 MUL SUB AND PUSH1 0x2 SWAP1 DIV DUP1 ISZERO PUSH3 0xCED JUMPI DUP1 PUSH1 0x1F LT PUSH3 0xCC1 JUMPI PUSH2 0x100 DUP1 DUP4 SLOAD DIV MUL DUP4 MSTORE SWAP2 PUSH1 0x20 ADD SWAP2 PUSH3 0xCED JUMP JUMPDEST DUP3 ADD SWAP2 SWAP1 PUSH1 0x0 MSTORE PUSH1 0x20 PUSH1 0x0 KECCAK256 SWAP1 JUMPDEST DUP2 SLOAD DUP2 MSTORE SWAP1 PUSH1 0x1 ADD SWAP1 PUSH1 0x20 ADD DUP1 DUP4 GT PUSH3 0xCCF JUMPI DUP3 SWAP1 SUB PUSH1 0x1F AND DUP3 ADD SWAP2 JUMPDEST POP POP POP POP POP DUP2 MSTORE PUSH1 0x20 ADD PUSH1 0x6 DUP3 ADD PUSH1 0x40 MLOAD DUP1 PUSH2 0x100 ADD PUSH1 0x40 MSTORE SWAP1 DUP2 PUSH1 0x0 DUP3 ADD PUSH1 0x0 SWAP1 SLOAD SWAP1 PUSH2 0x100 EXP SWAP1 DIV PUSH20 0xFFFFFFFFFFFFFFFFFFFFFFFFFFFFFFFFFFFFFFFF AND PUSH20 0xFFFFFFFFFFFFFFFFFFFFFFFFFFFFFFFFFFFFFFFF AND PUSH20 0xFFFFFFFFFFFFFFFFFFFFFFFFFFFFFFFFFFFFFFFF AND DUP2 MSTORE PUSH1 0x20 ADD PUSH1 0x0 DUP3 ADD PUSH1 0x14 SWAP1 SLOAD SWAP1 PUSH2 0x100 EXP SWAP1 DIV PUSH1 0xFF AND PUSH1 0x1 DUP2 GT ISZERO PUSH3 0xD7C JUMPI INVALID JUMPDEST PUSH1 0x1 DUP2 GT ISZERO PUSH3 0xD88 JUMPI INVALID JUMPDEST DUP2 MSTORE PUSH1 0x20 ADD PUSH1 0x1 DUP3 ADD SLOAD DUP2 MSTORE PUSH1 0x20 ADD PUSH1 0x2 DUP3 ADD DUP1 SLOAD PUSH1 0x1 DUP2 PUSH1 0x1 AND ISZERO PUSH2 0x100 MUL SUB AND PUSH1 0x2 SWAP1 DIV DUP1 PUSH1 0x1F ADD PUSH1 0x20 DUP1 SWAP2 DIV MUL PUSH1 0x20 ADD PUSH1 0x40 MLOAD SWAP1 DUP2 ADD PUSH1 0x40 MSTORE DUP1 SWAP3 SWAP2 SWAP1 DUP2 DUP2 MSTORE PUSH1 0x20 ADD DUP3 DUP1 SLOAD PUSH1 0x1 DUP2 PUSH1 0x1 AND ISZERO PUSH2 0x100 MUL SUB AND PUSH1 0x2 SWAP1 DIV DUP1 ISZERO PUSH3 0xE33 JUMPI DUP1 PUSH1 0x1F LT PUSH3 0xE07 JUMPI PUSH2 0x100 DUP1 DUP4 SLOAD DIV MUL DUP4 MSTORE SWAP2 PUSH1 0x20 ADD SWAP2 PUSH3 0xE33 JUMP JUMPDEST DUP3 ADD SWAP2 SWAP1 PUSH1 0x0 MSTORE PUSH1 0x20 PUSH1 0x0 KECCAK256 SWAP1 JUMPDEST DUP2 SLOAD DUP2 MSTORE SWAP1 PUSH1 0x1 ADD SWAP1 PUSH1 0x20 ADD DUP1 DUP4 GT PUSH3 0xE15 JUMPI DUP3 SWAP1 SUB PUSH1 0x1F AND DUP3 ADD SWAP2 JUMPDEST POP POP POP POP POP DUP2 MSTORE PUSH1 0x20 ADD PUSH1 0x3 DUP3 ADD SLOAD DUP2 MSTORE PUSH1 0x20 ADD PUSH1 0x4 DUP3 ADD SLOAD DUP2 MSTORE PUSH1 0x20 ADD PUSH1 0x5 DUP3 ADD PUSH1 0x0 SWAP1 SLOAD SWAP1 PUSH2 0x100 EXP SWAP1 DIV PUSH20 0xFFFFFFFFFFFFFFFFFFFFFFFFFFFFFFFFFFFFFFFF AND PUSH20 0xFFFFFFFFFFFFFFFFFFFFFFFFFFFFFFFFFFFFFFFF AND PUSH20 0xFFFFFFFFFFFFFFFFFFFFFFFFFFFFFFFFFFFFFFFF AND DUP2 MSTORE PUSH1 0x20 ADD PUSH1 0x6 DUP3 ADD PUSH1 0x0 SWAP1 SLOAD SWAP1 PUSH2 0x100 EXP SWAP1 DIV PUSH20 0xFFFFFFFFFFFFFFFFFFFFFFFFFFFFFFFFFFFFFFFF AND PUSH20 0xFFFFFFFFFFFFFFFFFFFFFFFFFFFFFFFFFFFFFFFF AND PUSH20 0xFFFFFFFFFFFFFFFFFFFFFFFFFFFFFFFFFFFFFFFF AND DUP2 MSTORE POP POP DUP2 MSTORE PUSH1 0x20 ADD PUSH1 0xD DUP3 ADD PUSH1 0x40 MLOAD DUP1 PUSH1 0x20 ADD PUSH1 0x40 MSTORE SWAP1 DUP2 PUSH1 0x0 DUP3 ADD PUSH1 0x0 SWAP1 SLOAD SWAP1 PUSH2 0x100 EXP SWAP1 DIV PUSH1 0xFF AND PUSH1 0x3 DUP2 GT ISZERO PUSH3 0xF2F JUMPI INVALID JUMPDEST PUSH1 0x3 DUP2 GT ISZERO PUSH3 0xF3B JUMPI INVALID JUMPDEST DUP2 MSTORE POP POP DUP2 MSTORE PUSH1 0x20 ADD PUSH1 0xE DUP3 ADD PUSH1 0x40 MLOAD DUP1 PUSH1 0x80 ADD PUSH1 0x40 MSTORE SWAP1 DUP2 PUSH1 0x0 DUP3 ADD SLOAD DUP2 MSTORE PUSH1 0x20 ADD PUSH1 0x1 DUP3 ADD DUP1 SLOAD PUSH1 0x1 DUP2 PUSH1 0x1 AND ISZERO PUSH2 0x100 MUL SUB AND PUSH1 0x2 SWAP1 DIV DUP1 PUSH1 0x1F ADD PUSH1 0x20 DUP1 SWAP2 DIV MUL PUSH1 0x20 ADD PUSH1 0x40 MLOAD SWAP1 DUP2 ADD PUSH1 0x40 MSTORE DUP1 SWAP3 SWAP2 SWAP1 DUP2 DUP2 MSTORE PUSH1 0x20 ADD DUP3 DUP1 SLOAD PUSH1 0x1 DUP2 PUSH1 0x1 AND ISZERO PUSH2 0x100 MUL SUB AND PUSH1 0x2 SWAP1 DIV DUP1 ISZERO PUSH3 0xFFA JUMPI DUP1 PUSH1 0x1F LT PUSH3 0xFCE JUMPI PUSH2 0x100 DUP1 DUP4 SLOAD DIV MUL DUP4 MSTORE SWAP2 PUSH1 0x20 ADD SWAP2 PUSH3 0xFFA JUMP JUMPDEST DUP3 ADD SWAP2 SWAP1 PUSH1 0x0 MSTORE PUSH1 0x20 PUSH1 0x0 KECCAK256 SWAP1 JUMPDEST DUP2 SLOAD DUP2 MSTORE SWAP1 PUSH1 0x1 ADD SWAP1 PUSH1 0x20 ADD DUP1 DUP4 GT PUSH3 0xFDC JUMPI DUP3 SWAP1 SUB PUSH1 0x1F AND DUP3 ADD SWAP2 JUMPDEST POP POP POP POP POP DUP2 MSTORE PUSH1 0x20 ADD PUSH1 0x2 DUP3 ADD SLOAD DUP2 MSTORE PUSH1 0x20 ADD PUSH1 0x3 DUP3 ADD SLOAD DUP2 MSTORE POP POP DUP2 MSTORE PUSH1 0x20 ADD PUSH1 0x12 DUP3 ADD SLOAD DUP2 MSTORE PUSH1 0x20 ADD PUSH1 0x13 DUP3 ADD PUSH1 0x0 SWAP1 SLOAD SWAP1 PUSH2 0x100 EXP SWAP1 DIV PUSH20 0xFFFFFFFFFFFFFFFFFFFFFFFFFFFFFFFFFFFFFFFF AND PUSH20 0xFFFFFFFFFFFFFFFFFFFFFFFFFFFFFFFFFFFFFFFF AND PUSH20 0xFFFFFFFFFFFFFFFFFFFFFFFFFFFFFFFFFFFFFFFF AND DUP2 MSTORE POP POP SWAP1 POP PUSH1 0x0 DUP2 PUSH1 0x0 ADD MLOAD MLOAD EQ PUSH3 0x10C8 JUMPI PUSH1 0x40 MLOAD PUSH32 0x8C379A000000000000000000000000000000000000000000000000000000000 DUP2 MSTORE PUSH1 0x4 ADD PUSH3 0x10BF SWAP1 PUSH3 0x5868 JUMP JUMPDEST PUSH1 0x40 MLOAD DUP1 SWAP2 SUB SWAP1 REVERT JUMPDEST PUSH3 0x10D2 PUSH3 0x385C JUMP JUMPDEST PUSH1 0x1 PUSH1 0x0 SWAP1 SLOAD SWAP1 PUSH2 0x100 EXP SWAP1 DIV PUSH20 0xFFFFFFFFFFFFFFFFFFFFFFFFFFFFFFFFFFFFFFFF AND PUSH20 0xFFFFFFFFFFFFFFFFFFFFFFFFFFFFFFFFFFFFFFFF AND PUSH4 0xEF7AE53F DUP8 PUSH1 0x0 ADD MLOAD PUSH1 0x40 MLOAD DUP3 PUSH4 0xFFFFFFFF AND PUSH1 0xE0 SHL DUP2 MSTORE PUSH1 0x4 ADD PUSH3 0x1133 SWAP2 SWAP1 PUSH3 0x56CA JUMP JUMPDEST PUSH1 0x0 PUSH1 0x40 MLOAD DUP1 DUP4 SUB DUP2 DUP7 DUP1 EXTCODESIZE ISZERO DUP1 ISZERO PUSH3 0x114C JUMPI PUSH1 0x0 DUP1 REVERT JUMPDEST POP GAS STATICCALL ISZERO DUP1 ISZERO PUSH3 0x1161 JUMPI RETURNDATASIZE PUSH1 0x0 DUP1 RETURNDATACOPY RETURNDATASIZE PUSH1 0x0 REVERT JUMPDEST POP POP POP POP PUSH1 0x40 MLOAD RETURNDATASIZE PUSH1 0x0 DUP3 RETURNDATACOPY RETURNDATASIZE PUSH1 0x1F NOT PUSH1 0x1F DUP3 ADD AND DUP3 ADD DUP1 PUSH1 0x40 MSTORE POP PUSH3 0x118C SWAP2 SWAP1 DUP2 ADD SWAP1 PUSH3 0x49EE JUMP JUMPDEST SWAP1 POP PUSH1 0x0 DUP2 PUSH1 0x0 ADD MLOAD MLOAD EQ ISZERO PUSH3 0x11DA JUMPI PUSH1 0x40 MLOAD PUSH32 0x8C379A000000000000000000000000000000000000000000000000000000000 DUP2 MSTORE PUSH1 0x4 ADD PUSH3 0x11D1 SWAP1 PUSH3 0x5758 JUMP JUMPDEST PUSH1 0x40 MLOAD DUP1 SWAP2 SUB SWAP1 REVERT JUMPDEST PUSH3 0x11E4 PUSH3 0x38E8 JUMP JUMPDEST DUP2 PUSH1 0x40 ADD MLOAD SWAP1 POP PUSH1 0x0 PUSH1 0x3 DUP2 GT ISZERO PUSH3 0x11F9 JUMPI INVALID JUMPDEST DUP2 PUSH1 0x0 ADD MLOAD PUSH1 0x3 DUP2 GT ISZERO PUSH3 0x120A JUMPI INVALID JUMPDEST EQ ISZERO PUSH3 0x124E JUMPI PUSH1 0x40 MLOAD PUSH32 0x8C379A000000000000000000000000000000000000000000000000000000000 DUP2 MSTORE PUSH1 0x4 ADD PUSH3 0x1245 SWAP1 PUSH3 0x577A JUMP JUMPDEST PUSH1 0x40 MLOAD DUP1 SWAP2 SUB SWAP1 REVERT JUMPDEST PUSH1 0x40 MLOAD DUP1 PUSH1 0x20 ADD PUSH1 0x40 MSTORE DUP1 DUP3 PUSH1 0x0 ADD MLOAD PUSH1 0x3 DUP2 GT ISZERO PUSH3 0x126A JUMPI INVALID JUMPDEST DUP2 MSTORE POP DUP8 PUSH2 0x100 ADD DUP2 SWAP1 MSTORE POP PUSH3 0x1280 PUSH3 0x3915 JUMP JUMPDEST DUP3 PUSH1 0x60 ADD MLOAD SWAP1 POP PUSH1 0x0 PUSH1 0x3 DUP2 GT ISZERO PUSH3 0x1295 JUMPI INVALID JUMPDEST DUP2 PUSH1 0x0 ADD MLOAD PUSH1 0x3 DUP2 GT ISZERO PUSH3 0x12A6 JUMPI INVALID JUMPDEST EQ ISZERO PUSH3 0x12EA JUMPI PUSH1 0x40 MLOAD PUSH32 0x8C379A000000000000000000000000000000000000000000000000000000000 DUP2 MSTORE PUSH1 0x4 ADD PUSH3 0x12E1 SWAP1 PUSH3 0x58CE JUMP JUMPDEST PUSH1 0x40 MLOAD DUP1 SWAP2 SUB SWAP1 REVERT JUMPDEST PUSH1 0x0 TIMESTAMP SWAP1 POP PUSH1 0x0 DUP1 DUP11 PUSH2 0x120 ADD MLOAD PUSH1 0x40 ADD MLOAD EQ ISZERO PUSH3 0x139C JUMPI PUSH20 0x0 PUSH4 0x1BD95155 DUP5 PUSH1 0xA0 ADD MLOAD PUSH1 0x40 MLOAD DUP3 PUSH4 0xFFFFFFFF AND PUSH1 0xE0 SHL DUP2 MSTORE PUSH1 0x4 ADD PUSH3 0x1340 SWAP2 SWAP1 PUSH3 0x56EE JUMP JUMPDEST PUSH1 0x20 PUSH1 0x40 MLOAD DUP1 DUP4 SUB DUP2 DUP7 DUP1 EXTCODESIZE ISZERO DUP1 ISZERO PUSH3 0x1359 JUMPI PUSH1 0x0 DUP1 REVERT JUMPDEST POP GAS DELEGATECALL ISZERO DUP1 ISZERO PUSH3 0x136E JUMPI RETURNDATASIZE PUSH1 0x0 DUP1 RETURNDATACOPY RETURNDATASIZE PUSH1 0x0 REVERT JUMPDEST POP POP POP POP PUSH1 0x40 MLOAD RETURNDATASIZE PUSH1 0x1F NOT PUSH1 0x1F DUP3 ADD AND DUP3 ADD DUP1 PUSH1 0x40 MSTORE POP PUSH3 0x1394 SWAP2 SWAP1 DUP2 ADD SWAP1 PUSH3 0x4A78 JUMP JUMPDEST SWAP1 POP PUSH3 0x13A9 JUMP JUMPDEST DUP10 PUSH2 0x120 ADD MLOAD PUSH1 0x40 ADD MLOAD SWAP1 POP JUMPDEST PUSH1 0x40 MLOAD DUP1 PUSH1 0x80 ADD PUSH1 0x40 MSTORE DUP1 DUP5 PUSH1 0x60 ADD MLOAD DUP2 MSTORE PUSH1 0x20 ADD DUP5 PUSH1 0x80 ADD MLOAD DUP2 MSTORE PUSH1 0x20 ADD DUP3 DUP2 MSTORE PUSH1 0x20 ADD PUSH2 0xE10 DUP4 MUL DUP5 ADD DUP2 MSTORE POP DUP11 PUSH2 0x120 ADD DUP2 SWAP1 MSTORE POP PUSH1 0x0 PUSH3 0x13F6 DUP7 PUSH1 0x20 ADD MLOAD PUSH1 0x40 ADD MLOAD PUSH3 0x352B JUMP JUMPDEST SWAP1 POP DUP1 DUP12 PUSH1 0xE0 ADD MLOAD PUSH1 0xC0 ADD SWAP1 PUSH20 0xFFFFFFFFFFFFFFFFFFFFFFFFFFFFFFFFFFFFFFFF AND SWAP1 DUP2 PUSH20 0xFFFFFFFFFFFFFFFFFFFFFFFFFFFFFFFFFFFFFFFF AND DUP2 MSTORE POP POP PUSH1 0x60 PUSH3 0x1441 DUP13 PUSH3 0x3798 JUMP JUMPDEST SWAP1 POP DUP1 PUSH1 0x40 MLOAD PUSH3 0x1452 SWAP1 PUSH3 0x395E JUMP JUMPDEST PUSH3 0x145E SWAP2 SWAP1 PUSH3 0x5712 JUMP JUMPDEST PUSH1 0x40 MLOAD DUP1 SWAP2 SUB SWAP1 PUSH1 0x0 CREATE DUP1 ISZERO DUP1 ISZERO PUSH3 0x147B JUMPI RETURNDATASIZE PUSH1 0x0 DUP1 RETURNDATACOPY RETURNDATASIZE PUSH1 0x0 REVERT JUMPDEST POP DUP13 PUSH1 0xE0 ADD MLOAD PUSH1 0xE0 ADD SWAP1 PUSH20 0xFFFFFFFFFFFFFFFFFFFFFFFFFFFFFFFFFFFFFFFF AND SWAP1 DUP2 PUSH20 0xFFFFFFFFFFFFFFFFFFFFFFFFFFFFFFFFFFFFFFFF AND DUP2 MSTORE POP POP PUSH1 0x0 DUP12 MLOAD SWAP1 POP PUSH1 0x0 DUP1 SWAP1 POP JUMPDEST DUP2 DUP2 LT ISZERO PUSH3 0x1570 JUMPI PUSH1 0x3 DUP4 PUSH1 0x40 MLOAD PUSH3 0x14DE SWAP2 SWAP1 PUSH3 0x55B8 JUMP JUMPDEST SWAP1 DUP2 MSTORE PUSH1 0x20 ADD PUSH1 0x40 MLOAD DUP1 SWAP2 SUB SWAP1 KECCAK256 DUP14 DUP3 DUP2 MLOAD DUP2 LT PUSH3 0x14F9 JUMPI INVALID JUMPDEST PUSH1 0x20 MUL PUSH1 0x20 ADD ADD MLOAD SWAP1 DUP1 PUSH1 0x1 DUP2 SLOAD ADD DUP1 DUP3 SSTORE DUP1 SWAP2 POP POP SWAP1 PUSH1 0x1 DUP3 SUB SWAP1 PUSH1 0x0 MSTORE PUSH1 0x20 PUSH1 0x0 KECCAK256 SWAP1 PUSH1 0x3 MUL ADD PUSH1 0x0 SWAP1 SWAP2 SWAP3 SWAP1 SWAP2 SWAP1 SWAP2 POP PUSH1 0x0 DUP3 ADD MLOAD DUP2 PUSH1 0x0 ADD SSTORE PUSH1 0x20 DUP3 ADD MLOAD DUP2 PUSH1 0x1 ADD SSTORE PUSH1 0x40 DUP3 ADD MLOAD DUP2 PUSH1 0x2 ADD SWAP1 DUP1 MLOAD SWAP1 PUSH1 0x20 ADD SWAP1 PUSH3 0x155E SWAP3 SWAP2 SWAP1 PUSH3 0x396C JUMP JUMPDEST POP POP POP POP DUP1 DUP1 PUSH1 0x1 ADD SWAP2 POP POP PUSH3 0x14C3 JUMP JUMPDEST POP PUSH1 0x0 PUSH20 0xFFFFFFFFFFFFFFFFFFFFFFFFFFFFFFFFFFFFFFFF AND DUP14 PUSH2 0x160 ADD MLOAD PUSH20 0xFFFFFFFFFFFFFFFFFFFFFFFFFFFFFFFFFFFFFFFF AND EQ ISZERO PUSH3 0x15E6 JUMPI CALLER DUP14 PUSH2 0x160 ADD SWAP1 PUSH20 0xFFFFFFFFFFFFFFFFFFFFFFFFFFFFFFFFFFFFFFFF AND SWAP1 DUP2 PUSH20 0xFFFFFFFFFFFFFFFFFFFFFFFFFFFFFFFFFFFFFFFF AND DUP2 MSTORE POP POP JUMPDEST DUP5 DUP14 PUSH2 0x140 ADD DUP2 DUP2 MSTORE POP POP DUP13 DUP11 DUP15 PUSH1 0x20 ADD MLOAD PUSH1 0x40 MLOAD PUSH3 0x1607 SWAP2 SWAP1 PUSH3 0x559F JUMP JUMPDEST SWAP1 DUP2 MSTORE PUSH1 0x20 ADD PUSH1 0x40 MLOAD DUP1 SWAP2 SUB SWAP1 KECCAK256 PUSH1 0x0 DUP3 ADD MLOAD DUP2 PUSH1 0x0 ADD SWAP1 DUP1 MLOAD SWAP1 PUSH1 0x20 ADD SWAP1 PUSH3 0x1633 SWAP3 SWAP2 SWAP1 PUSH3 0x396C JUMP JUMPDEST POP PUSH1 0x20 DUP3 ADD MLOAD DUP2 PUSH1 0x1 ADD SWAP1 DUP1 MLOAD SWAP1 PUSH1 0x20 ADD SWAP1 PUSH3 0x1652 SWAP3 SWAP2 SWAP1 PUSH3 0x396C JUMP JUMPDEST POP PUSH1 0x40 DUP3 ADD MLOAD DUP2 PUSH1 0x2 ADD SWAP1 DUP1 MLOAD SWAP1 PUSH1 0x20 ADD SWAP1 PUSH3 0x1671 SWAP3 SWAP2 SWAP1 PUSH3 0x396C JUMP JUMPDEST POP PUSH1 0x60 DUP3 ADD MLOAD DUP2 PUSH1 0x3 ADD PUSH1 0x0 PUSH2 0x100 EXP DUP2 SLOAD DUP2 PUSH1 0xFF MUL NOT AND SWAP1 DUP4 PUSH1 0x3 DUP2 GT ISZERO PUSH3 0x1697 JUMPI INVALID JUMPDEST MUL OR SWAP1 SSTORE POP PUSH1 0x80 DUP3 ADD MLOAD DUP2 PUSH1 0x3 ADD PUSH1 0x1 PUSH2 0x100 EXP DUP2 SLOAD DUP2 PUSH1 0xFF MUL NOT AND SWAP1 DUP4 PUSH1 0x6 DUP2 GT ISZERO PUSH3 0x16C1 JUMPI INVALID JUMPDEST MUL OR SWAP1 SSTORE POP PUSH1 0xA0 DUP3 ADD MLOAD DUP2 PUSH1 0x4 ADD SWAP1 DUP1 MLOAD SWAP1 PUSH1 0x20 ADD SWAP1 PUSH3 0x16E4 SWAP3 SWAP2 SWAP1 PUSH3 0x396C JUMP JUMPDEST POP PUSH1 0xC0 DUP3 ADD MLOAD DUP2 PUSH1 0x5 ADD SWAP1 DUP1 MLOAD SWAP1 PUSH1 0x20 ADD SWAP1 PUSH3 0x1703 SWAP3 SWAP2 SWAP1 PUSH3 0x396C JUMP JUMPDEST POP PUSH1 0xE0 DUP3 ADD MLOAD DUP2 PUSH1 0x6 ADD PUSH1 0x0 DUP3 ADD MLOAD DUP2 PUSH1 0x0 ADD PUSH1 0x0 PUSH2 0x100 EXP DUP2 SLOAD DUP2 PUSH20 0xFFFFFFFFFFFFFFFFFFFFFFFFFFFFFFFFFFFFFFFF MUL NOT AND SWAP1 DUP4 PUSH20 0xFFFFFFFFFFFFFFFFFFFFFFFFFFFFFFFFFFFFFFFF AND MUL OR SWAP1 SSTORE POP PUSH1 0x20 DUP3 ADD MLOAD DUP2 PUSH1 0x0 ADD PUSH1 0x14 PUSH2 0x100 EXP DUP2 SLOAD DUP2 PUSH1 0xFF MUL NOT AND SWAP1 DUP4 PUSH1 0x1 DUP2 GT ISZERO PUSH3 0x1779 JUMPI INVALID JUMPDEST MUL OR SWAP1 SSTORE POP PUSH1 0x40 DUP3 ADD MLOAD DUP2 PUSH1 0x1 ADD SSTORE PUSH1 0x60 DUP3 ADD MLOAD DUP2 PUSH1 0x2 ADD SWAP1 DUP1 MLOAD SWAP1 PUSH1 0x20 ADD SWAP1 PUSH3 0x17A6 SWAP3 SWAP2 SWAP1 PUSH3 0x396C JUMP JUMPDEST POP PUSH1 0x80 DUP3 ADD MLOAD DUP2 PUSH1 0x3 ADD SSTORE PUSH1 0xA0 DUP3 ADD MLOAD DUP2 PUSH1 0x4 ADD SSTORE PUSH1 0xC0 DUP3 ADD MLOAD DUP2 PUSH1 0x5 ADD PUSH1 0x0 PUSH2 0x100 EXP DUP2 SLOAD DUP2 PUSH20 0xFFFFFFFFFFFFFFFFFFFFFFFFFFFFFFFFFFFFFFFF MUL NOT AND SWAP1 DUP4 PUSH20 0xFFFFFFFFFFFFFFFFFFFFFFFFFFFFFFFFFFFFFFFF AND MUL OR SWAP1 SSTORE POP PUSH1 0xE0 DUP3 ADD MLOAD DUP2 PUSH1 0x6 ADD PUSH1 0x0 PUSH2 0x100 EXP DUP2 SLOAD DUP2 PUSH20 0xFFFFFFFFFFFFFFFFFFFFFFFFFFFFFFFFFFFFFFFF MUL NOT AND SWAP1 DUP4 PUSH20 0xFFFFFFFFFFFFFFFFFFFFFFFFFFFFFFFFFFFFFFFF AND MUL OR SWAP1 SSTORE POP POP POP PUSH2 0x100 DUP3 ADD MLOAD DUP2 PUSH1 0xD ADD PUSH1 0x0 DUP3 ADD MLOAD DUP2 PUSH1 0x0 ADD PUSH1 0x0 PUSH2 0x100 EXP DUP2 SLOAD DUP2 PUSH1 0xFF MUL NOT AND SWAP1 DUP4 PUSH1 0x3 DUP2 GT ISZERO PUSH3 0x187A JUMPI INVALID JUMPDEST MUL OR SWAP1 SSTORE POP POP POP PUSH2 0x120 DUP3 ADD MLOAD DUP2 PUSH1 0xE ADD PUSH1 0x0 DUP3 ADD MLOAD DUP2 PUSH1 0x0 ADD SSTORE PUSH1 0x20 DUP3 ADD MLOAD DUP2 PUSH1 0x1 ADD SWAP1 DUP1 MLOAD SWAP1 PUSH1 0x20 ADD SWAP1 PUSH3 0x18B3 SWAP3 SWAP2 SWAP1 PUSH3 0x396C JUMP JUMPDEST POP PUSH1 0x40 DUP3 ADD MLOAD DUP2 PUSH1 0x2 ADD SSTORE PUSH1 0x60 DUP3 ADD MLOAD DUP2 PUSH1 0x3 ADD SSTORE POP POP PUSH2 0x140 DUP3 ADD MLOAD DUP2 PUSH1 0x12 ADD SSTORE PUSH2 0x160 DUP3 ADD MLOAD DUP2 PUSH1 0x13 ADD PUSH1 0x0 PUSH2 0x100 EXP DUP2 SLOAD DUP2 PUSH20 0xFFFFFFFFFFFFFFFFFFFFFFFFFFFFFFFFFFFFFFFF MUL NOT AND SWAP1 DUP4 PUSH20 0xFFFFFFFFFFFFFFFFFFFFFFFFFFFFFFFFFFFFFFFF AND MUL OR SWAP1 SSTORE POP SWAP1 POP POP PUSH1 0x4 DUP14 PUSH1 0x0 ADD MLOAD PUSH1 0x40 MLOAD PUSH3 0x1936 SWAP2 SWAP1 PUSH3 0x559F JUMP JUMPDEST SWAP1 DUP2 MSTORE PUSH1 0x20 ADD PUSH1 0x40 MLOAD DUP1 SWAP2 SUB SWAP1 KECCAK256 PUSH1 0x0 DUP2 SLOAD DUP1 SWAP3 SWAP2 SWAP1 PUSH1 0x1 ADD SWAP2 SWAP1 POP SSTORE POP DUP13 PUSH1 0x20 ADD MLOAD PUSH1 0x40 MLOAD PUSH3 0x1968 SWAP2 SWAP1 PUSH3 0x559F JUMP JUMPDEST PUSH1 0x40 MLOAD DUP1 SWAP2 SUB SWAP1 KECCAK256 PUSH32 0x74B2E2A4D866C513222FE0222FEEF41E081EC60E6879885DD70B6B7A305C3C1E DUP15 DUP15 PUSH1 0x40 MLOAD PUSH3 0x19A3 SWAP3 SWAP2 SWAP1 PUSH3 0x5936 JUMP JUMPDEST PUSH1 0x40 MLOAD DUP1 SWAP2 SUB SWAP1 LOG2 DUP13 SWAP11 POP POP POP POP POP POP POP POP POP POP POP SWAP3 SWAP2 POP POP JUMP JUMPDEST PUSH3 0x19C8 PUSH3 0x37B5 JUMP JUMPDEST PUSH1 0x0 DUP4 PUSH1 0x20 ADD MLOAD MLOAD EQ ISZERO PUSH3 0x1A14 JUMPI PUSH1 0x40 MLOAD PUSH32 0x8C379A000000000000000000000000000000000000000000000000000000000 DUP2 MSTORE PUSH1 0x4 ADD PUSH3 0x1A0B SWAP1 PUSH3 0x588A JUMP JUMPDEST PUSH1 0x40 MLOAD DUP1 SWAP2 SUB SWAP1 REVERT JUMPDEST PUSH1 0x0 DUP4 PUSH1 0x0 ADD MLOAD MLOAD EQ ISZERO PUSH3 0x1A60 JUMPI PUSH1 0x40 MLOAD PUSH32 0x8C379A000000000000000000000000000000000000000000000000000000000 DUP2 MSTORE PUSH1 0x4 ADD PUSH3 0x1A57 SWAP1 PUSH3 0x579C JUMP JUMPDEST PUSH1 0x40 MLOAD DUP1 SWAP2 SUB SWAP1 REVERT JUMPDEST PUSH1 0x0 PUSH1 0x2 DUP5 PUSH1 0x0 ADD MLOAD PUSH1 0x40 MLOAD PUSH3 0x1A78 SWAP2 SWAP1 PUSH3 0x559F JUMP JUMPDEST SWAP1 DUP2 MSTORE PUSH1 0x20 ADD PUSH1 0x40 MLOAD DUP1 SWAP2 SUB SWAP1 KECCAK256 SWAP1 POP DUP4 DUP2 DUP6 PUSH1 0x20 ADD MLOAD PUSH1 0x40 MLOAD PUSH3 0x1A9E SWAP2 SWAP1 PUSH3 0x559F JUMP JUMPDEST SWAP1 DUP2 MSTORE PUSH1 0x20 ADD PUSH1 0x40 MLOAD DUP1 SWAP2 SUB SWAP1 KECCAK256 PUSH1 0x0 DUP3 ADD MLOAD DUP2 PUSH1 0x0 ADD SWAP1 DUP1 MLOAD SWAP1 PUSH1 0x20 ADD SWAP1 PUSH3 0x1ACA SWAP3 SWAP2 SWAP1 PUSH3 0x396C JUMP JUMPDEST POP PUSH1 0x20 DUP3 ADD MLOAD DUP2 PUSH1 0x1 ADD SWAP1 DUP1 MLOAD SWAP1 PUSH1 0x20 ADD SWAP1 PUSH3 0x1AE9 SWAP3 SWAP2 SWAP1 PUSH3 0x396C JUMP JUMPDEST POP PUSH1 0x40 DUP3 ADD MLOAD DUP2 PUSH1 0x2 ADD SWAP1 DUP1 MLOAD SWAP1 PUSH1 0x20 ADD SWAP1 PUSH3 0x1B08 SWAP3 SWAP2 SWAP1 PUSH3 0x396C JUMP JUMPDEST POP PUSH1 0x60 DUP3 ADD MLOAD DUP2 PUSH1 0x3 ADD PUSH1 0x0 PUSH2 0x100 EXP DUP2 SLOAD DUP2 PUSH1 0xFF MUL NOT AND SWAP1 DUP4 PUSH1 0x3 DUP2 GT ISZERO PUSH3 0x1B2E JUMPI INVALID JUMPDEST MUL OR SWAP1 SSTORE POP PUSH1 0x80 DUP3 ADD MLOAD DUP2 PUSH1 0x3 ADD PUSH1 0x1 PUSH2 0x100 EXP DUP2 SLOAD DUP2 PUSH1 0xFF MUL NOT AND SWAP1 DUP4 PUSH1 0x6 DUP2 GT ISZERO PUSH3 0x1B58 JUMPI INVALID JUMPDEST MUL OR SWAP1 SSTORE POP PUSH1 0xA0 DUP3 ADD MLOAD DUP2 PUSH1 0x4 ADD SWAP1 DUP1 MLOAD SWAP1 PUSH1 0x20 ADD SWAP1 PUSH3 0x1B7B SWAP3 SWAP2 SWAP1 PUSH3 0x396C JUMP JUMPDEST POP PUSH1 0xC0 DUP3 ADD MLOAD DUP2 PUSH1 0x5 ADD SWAP1 DUP1 MLOAD SWAP1 PUSH1 0x20 ADD SWAP1 PUSH3 0x1B9A SWAP3 SWAP2 SWAP1 PUSH3 0x396C JUMP JUMPDEST POP PUSH1 0xE0 DUP3 ADD MLOAD DUP2 PUSH1 0x6 ADD PUSH1 0x0 DUP3 ADD MLOAD DUP2 PUSH1 0x0 ADD PUSH1 0x0 PUSH2 0x100 EXP DUP2 SLOAD DUP2 PUSH20 0xFFFFFFFFFFFFFFFFFFFFFFFFFFFFFFFFFFFFFFFF MUL NOT AND SWAP1 DUP4 PUSH20 0xFFFFFFFFFFFFFFFFFFFFFFFFFFFFFFFFFFFFFFFF AND MUL OR SWAP1 SSTORE POP PUSH1 0x20 DUP3 ADD MLOAD DUP2 PUSH1 0x0 ADD PUSH1 0x14 PUSH2 0x100 EXP DUP2 SLOAD DUP2 PUSH1 0xFF MUL NOT AND SWAP1 DUP4 PUSH1 0x1 DUP2 GT ISZERO PUSH3 0x1C10 JUMPI INVALID JUMPDEST MUL OR SWAP1 SSTORE POP PUSH1 0x40 DUP3 ADD MLOAD DUP2 PUSH1 0x1 ADD SSTORE PUSH1 0x60 DUP3 ADD MLOAD DUP2 PUSH1 0x2 ADD SWAP1 DUP1 MLOAD SWAP1 PUSH1 0x20 ADD SWAP1 PUSH3 0x1C3D SWAP3 SWAP2 SWAP1 PUSH3 0x396C JUMP JUMPDEST POP PUSH1 0x80 DUP3 ADD MLOAD DUP2 PUSH1 0x3 ADD SSTORE PUSH1 0xA0 DUP3 ADD MLOAD DUP2 PUSH1 0x4 ADD SSTORE PUSH1 0xC0 DUP3 ADD MLOAD DUP2 PUSH1 0x5 ADD PUSH1 0x0 PUSH2 0x100 EXP DUP2 SLOAD DUP2 PUSH20 0xFFFFFFFFFFFFFFFFFFFFFFFFFFFFFFFFFFFFFFFF MUL NOT AND SWAP1 DUP4 PUSH20 0xFFFFFFFFFFFFFFFFFFFFFFFFFFFFFFFFFFFFFFFF AND MUL OR SWAP1 SSTORE POP PUSH1 0xE0 DUP3 ADD MLOAD DUP2 PUSH1 0x6 ADD PUSH1 0x0 PUSH2 0x100 EXP DUP2 SLOAD DUP2 PUSH20 0xFFFFFFFFFFFFFFFFFFFFFFFFFFFFFFFFFFFFFFFF MUL NOT AND SWAP1 DUP4 PUSH20 0xFFFFFFFFFFFFFFFFFFFFFFFFFFFFFFFFFFFFFFFF AND MUL OR SWAP1 SSTORE POP POP POP PUSH2 0x100 DUP3 ADD MLOAD DUP2 PUSH1 0xD ADD PUSH1 0x0 DUP3 ADD MLOAD DUP2 PUSH1 0x0 ADD PUSH1 0x0 PUSH2 0x100 EXP DUP2 SLOAD DUP2 PUSH1 0xFF MUL NOT AND SWAP1 DUP4 PUSH1 0x3 DUP2 GT ISZERO PUSH3 0x1D11 JUMPI INVALID JUMPDEST MUL OR SWAP1 SSTORE POP POP POP PUSH2 0x120 DUP3 ADD MLOAD DUP2 PUSH1 0xE ADD PUSH1 0x0 DUP3 ADD MLOAD DUP2 PUSH1 0x0 ADD SSTORE PUSH1 0x20 DUP3 ADD MLOAD DUP2 PUSH1 0x1 ADD SWAP1 DUP1 MLOAD SWAP1 PUSH1 0x20 ADD SWAP1 PUSH3 0x1D4A SWAP3 SWAP2 SWAP1 PUSH3 0x396C JUMP JUMPDEST POP PUSH1 0x40 DUP3 ADD MLOAD DUP2 PUSH1 0x2 ADD SSTORE PUSH1 0x60 DUP3 ADD MLOAD DUP2 PUSH1 0x3 ADD SSTORE POP POP PUSH2 0x140 DUP3 ADD MLOAD DUP2 PUSH1 0x12 ADD SSTORE PUSH2 0x160 DUP3 ADD MLOAD DUP2 PUSH1 0x13 ADD PUSH1 0x0 PUSH2 0x100 EXP DUP2 SLOAD DUP2 PUSH20 0xFFFFFFFFFFFFFFFFFFFFFFFFFFFFFFFFFFFFFFFF MUL NOT AND SWAP1 DUP4 PUSH20 0xFFFFFFFFFFFFFFFFFFFFFFFFFFFFFFFFFFFFFFFF AND MUL OR SWAP1 SSTORE POP SWAP1 POP POP PUSH1 0x60 PUSH3 0x1DC4 DUP6 PUSH3 0x3798 JUMP JUMPDEST SWAP1 POP PUSH1 0x0 DUP5 MLOAD SWAP1 POP PUSH1 0x0 DUP1 SWAP1 POP JUMPDEST DUP2 DUP2 LT ISZERO PUSH3 0x1E7F JUMPI PUSH1 0x3 DUP4 PUSH1 0x40 MLOAD PUSH3 0x1DED SWAP2 SWAP1 PUSH3 0x55B8 JUMP JUMPDEST SWAP1 DUP2 MSTORE PUSH1 0x20 ADD PUSH1 0x40 MLOAD DUP1 SWAP2 SUB SWAP1 KECCAK256 DUP7 DUP3 DUP2 MLOAD DUP2 LT PUSH3 0x1E08 JUMPI INVALID JUMPDEST PUSH1 0x20 MUL PUSH1 0x20 ADD ADD MLOAD SWAP1 DUP1 PUSH1 0x1 DUP2 SLOAD ADD DUP1 DUP3 SSTORE DUP1 SWAP2 POP POP SWAP1 PUSH1 0x1 DUP3 SUB SWAP1 PUSH1 0x0 MSTORE PUSH1 0x20 PUSH1 0x0 KECCAK256 SWAP1 PUSH1 0x3 MUL ADD PUSH1 0x0 SWAP1 SWAP2 SWAP3 SWAP1 SWAP2 SWAP1 SWAP2 POP PUSH1 0x0 DUP3 ADD MLOAD DUP2 PUSH1 0x0 ADD SSTORE PUSH1 0x20 DUP3 ADD MLOAD DUP2 PUSH1 0x1 ADD SSTORE PUSH1 0x40 DUP3 ADD MLOAD DUP2 PUSH1 0x2 ADD SWAP1 DUP1 MLOAD SWAP1 PUSH1 0x20 ADD SWAP1 PUSH3 0x1E6D SWAP3 SWAP2 SWAP1 PUSH3 0x396C JUMP JUMPDEST POP POP POP POP DUP1 DUP1 PUSH1 0x1 ADD SWAP2 POP POP PUSH3 0x1DD2 JUMP JUMPDEST POP DUP6 PUSH1 0x20 ADD MLOAD PUSH1 0x40 MLOAD PUSH3 0x1E94 SWAP2 SWAP1 PUSH3 0x559F JUMP JUMPDEST PUSH1 0x40 MLOAD DUP1 SWAP2 SUB SWAP1 KECCAK256 PUSH32 0x74B2E2A4D866C513222FE0222FEEF41E081EC60E6879885DD70B6B7A305C3C1E DUP8 DUP8 PUSH1 0x40 MLOAD PUSH3 0x1ECF SWAP3 SWAP2 SWAP1 PUSH3 0x5936 JUMP JUMPDEST PUSH1 0x40 MLOAD DUP1 SWAP2 SUB SWAP1 LOG2 DUP6 SWAP4 POP POP POP POP SWAP3 SWAP2 POP POP JUMP JUMPDEST PUSH3 0x1EED PUSH3 0x37B5 JUMP JUMPDEST PUSH1 0x60 PUSH3 0x1EF9 PUSH3 0x37B5 JUMP JUMPDEST PUSH3 0x1F8D DUP8 DUP8 DUP1 DUP1 PUSH1 0x1F ADD PUSH1 0x20 DUP1 SWAP2 DIV MUL PUSH1 0x20 ADD PUSH1 0x40 MLOAD SWAP1 DUP2 ADD PUSH1 0x40 MSTORE DUP1 SWAP4 SWAP3 SWAP2 SWAP1 DUP2 DUP2 MSTORE PUSH1 0x20 ADD DUP4 DUP4 DUP1 DUP3 DUP5 CALLDATACOPY PUSH1 0x0 DUP2 DUP5 ADD MSTORE PUSH1 0x1F NOT PUSH1 0x1F DUP3 ADD AND SWAP1 POP DUP1 DUP4 ADD SWAP3 POP POP POP POP POP POP POP DUP7 DUP7 DUP1 DUP1 PUSH1 0x1F ADD PUSH1 0x20 DUP1 SWAP2 DIV MUL PUSH1 0x20 ADD PUSH1 0x40 MLOAD SWAP1 DUP2 ADD PUSH1 0x40 MSTORE DUP1 SWAP4 SWAP3 SWAP2 SWAP1 DUP2 DUP2 MSTORE PUSH1 0x20 ADD DUP4 DUP4 DUP1 DUP3 DUP5 CALLDATACOPY PUSH1 0x0 DUP2 DUP5 ADD MSTORE PUSH1 0x1F NOT PUSH1 0x1F DUP3 ADD AND SWAP1 POP DUP1 DUP4 ADD SWAP3 POP POP POP POP POP POP POP PUSH3 0x2CDC JUMP JUMPDEST SWAP1 POP PUSH1 0x60 PUSH3 0x1F9C DUP3 PUSH3 0x3798 JUMP JUMPDEST SWAP1 POP DUP2 PUSH1 0x3 DUP3 PUSH1 0x40 MLOAD PUSH3 0x1FB1 SWAP2 SWAP1 PUSH3 0x55B8 JUMP JUMPDEST SWAP1 DUP2 MSTORE PUSH1 0x20 ADD PUSH1 0x40 MLOAD DUP1 SWAP2 SUB SWAP1 KECCAK256 DUP1 DUP1 SLOAD DUP1 PUSH1 0x20 MUL PUSH1 0x20 ADD PUSH1 0x40 MLOAD SWAP1 DUP2 ADD PUSH1 0x40 MSTORE DUP1 SWAP3 SWAP2 SWAP1 DUP2 DUP2 MSTORE PUSH1 0x20 ADD PUSH1 0x0 SWAP1 JUMPDEST DUP3 DUP3 LT ISZERO PUSH3 0x20CE JUMPI DUP4 DUP3 SWAP1 PUSH1 0x0 MSTORE PUSH1 0x20 PUSH1 0x0 KECCAK256 SWAP1 PUSH1 0x3 MUL ADD PUSH1 0x40 MLOAD DUP1 PUSH1 0x60 ADD PUSH1 0x40 MSTORE SWAP1 DUP2 PUSH1 0x0 DUP3 ADD SLOAD DUP2 MSTORE PUSH1 0x20 ADD PUSH1 0x1 DUP3 ADD SLOAD DUP2 MSTORE PUSH1 0x20 ADD PUSH1 0x2 DUP3 ADD DUP1 SLOAD PUSH1 0x1 DUP2 PUSH1 0x1 AND ISZERO PUSH2 0x100 MUL SUB AND PUSH1 0x2 SWAP1 DIV DUP1 PUSH1 0x1F ADD PUSH1 0x20 DUP1 SWAP2 DIV MUL PUSH1 0x20 ADD PUSH1 0x40 MLOAD SWAP1 DUP2 ADD PUSH1 0x40 MSTORE DUP1 SWAP3 SWAP2 SWAP1 DUP2 DUP2 MSTORE PUSH1 0x20 ADD DUP3 DUP1 SLOAD PUSH1 0x1 DUP2 PUSH1 0x1 AND ISZERO PUSH2 0x100 MUL SUB AND PUSH1 0x2 SWAP1 DIV DUP1 ISZERO PUSH3 0x20B5 JUMPI DUP1 PUSH1 0x1F LT PUSH3 0x2089 JUMPI PUSH2 0x100 DUP1 DUP4 SLOAD DIV MUL DUP4 MSTORE SWAP2 PUSH1 0x20 ADD SWAP2 PUSH3 0x20B5 JUMP JUMPDEST DUP3 ADD SWAP2 SWAP1 PUSH1 0x0 MSTORE PUSH1 0x20 PUSH1 0x0 KECCAK256 SWAP1 JUMPDEST DUP2 SLOAD DUP2 MSTORE SWAP1 PUSH1 0x1 ADD SWAP1 PUSH1 0x20 ADD DUP1 DUP4 GT PUSH3 0x2097 JUMPI DUP3 SWAP1 SUB PUSH1 0x1F AND DUP3 ADD SWAP2 JUMPDEST POP POP POP POP POP DUP2 MSTORE POP POP DUP2 MSTORE PUSH1 0x20 ADD SWAP1 PUSH1 0x1 ADD SWAP1 PUSH3 0x1FE0 JUMP JUMPDEST POP POP POP POP SWAP1 POP SWAP4 POP SWAP4 POP POP POP SWAP5 POP SWAP5 SWAP3 POP POP POP JUMP JUMPDEST PUSH1 0x0 PUSH3 0x20EF PUSH3 0x37B5 JUMP JUMPDEST PUSH3 0x2183 DUP7 DUP7 DUP1 DUP1 PUSH1 0x1F ADD PUSH1 0x20 DUP1 SWAP2 DIV MUL PUSH1 0x20 ADD PUSH1 0x40 MLOAD SWAP1 DUP2 ADD PUSH1 0x40 MSTORE DUP1 SWAP4 SWAP3 SWAP2 SWAP1 DUP2 DUP2 MSTORE PUSH1 0x20 ADD DUP4 DUP4 DUP1 DUP3 DUP5 CALLDATACOPY PUSH1 0x0 DUP2 DUP5 ADD MSTORE PUSH1 0x1F NOT PUSH1 0x1F DUP3 ADD AND SWAP1 POP DUP1 DUP4 ADD SWAP3 POP POP POP POP POP POP POP DUP6 DUP6 DUP1 DUP1 PUSH1 0x1F ADD PUSH1 0x20 DUP1 SWAP2 DIV MUL PUSH1 0x20 ADD PUSH1 0x40 MLOAD SWAP1 DUP2 ADD PUSH1 0x40 MSTORE DUP1 SWAP4 SWAP3 SWAP2 SWAP1 DUP2 DUP2 MSTORE PUSH1 0x20 ADD DUP4 DUP4 DUP1 DUP3 DUP5 CALLDATACOPY PUSH1 0x0 DUP2 DUP5 ADD MSTORE PUSH1 0x1F NOT PUSH1 0x1F DUP3 ADD AND SWAP1 POP DUP1 DUP4 ADD SWAP3 POP POP POP POP POP POP POP PUSH3 0x2CDC JUMP JUMPDEST SWAP1 POP PUSH1 0x0 DUP2 PUSH1 0x0 ADD MLOAD MLOAD EQ ISZERO PUSH3 0x21D1 JUMPI PUSH1 0x40 MLOAD PUSH32 0x8C379A000000000000000000000000000000000000000000000000000000000 DUP2 MSTORE PUSH1 0x4 ADD PUSH3 0x21C8 SWAP1 PUSH3 0x5846 JUMP JUMPDEST PUSH1 0x40 MLOAD DUP1 SWAP2 SUB SWAP1 REVERT JUMPDEST DUP1 PUSH1 0x60 ADD MLOAD SWAP2 POP POP SWAP5 SWAP4 POP POP POP POP JUMP JUMPDEST PUSH3 0x21EB PUSH3 0x37B5 JUMP JUMPDEST PUSH3 0x21FF DUP3 PUSH1 0x0 ADD MLOAD DUP4 PUSH1 0x20 ADD MLOAD PUSH3 0x2CDC JUMP JUMPDEST SWAP1 POP PUSH1 0x0 DUP3 PUSH1 0x0 ADD MLOAD MLOAD EQ ISZERO PUSH3 0x224D JUMPI PUSH1 0x40 MLOAD PUSH32 0x8C379A000000000000000000000000000000000000000000000000000000000 DUP2 MSTORE PUSH1 0x4 ADD PUSH3 0x2244 SWAP1 PUSH3 0x5846 JUMP JUMPDEST PUSH1 0x40 MLOAD DUP1 SWAP2 SUB SWAP1 REVERT JUMPDEST PUSH1 0x0 PUSH1 0x3 DUP2 GT ISZERO PUSH3 0x225B JUMPI INVALID JUMPDEST DUP2 PUSH1 0x60 ADD MLOAD PUSH1 0x3 DUP2 GT ISZERO PUSH3 0x226C JUMPI INVALID JUMPDEST EQ PUSH3 0x22AF JUMPI PUSH1 0x40 MLOAD PUSH32 0x8C379A000000000000000000000000000000000000000000000000000000000 DUP2 MSTORE PUSH1 0x4 ADD PUSH3 0x22A6 SWAP1 PUSH3 0x58F0 JUMP JUMPDEST PUSH1 0x40 MLOAD DUP1 SWAP2 SUB SWAP1 REVERT JUMPDEST PUSH3 0x22B9 PUSH3 0x39F3 JUMP JUMPDEST DUP2 PUSH2 0x120 ADD MLOAD SWAP1 POP PUSH1 0x0 TIMESTAMP SWAP1 POP DUP2 PUSH1 0x60 ADD MLOAD DUP2 GT ISZERO PUSH3 0x2310 JUMPI PUSH1 0x40 MLOAD PUSH32 0x8C379A000000000000000000000000000000000000000000000000000000000 DUP2 MSTORE PUSH1 0x4 ADD PUSH3 0x2307 SWAP1 PUSH3 0x58AC JUMP JUMPDEST PUSH1 0x40 MLOAD DUP1 SWAP2 SUB SWAP1 REVERT JUMPDEST PUSH1 0x0 DUP5 PUSH1 0x80 ADD MLOAD DUP6 PUSH1 0x60 ADD MLOAD ADD GT PUSH3 0x2360 JUMPI PUSH1 0x40 MLOAD PUSH32 0x8C379A000000000000000000000000000000000000000000000000000000000 DUP2 MSTORE PUSH1 0x4 ADD PUSH3 0x2357 SWAP1 PUSH3 0x5802 JUMP JUMPDEST PUSH1 0x40 MLOAD DUP1 SWAP2 SUB SWAP1 REVERT JUMPDEST PUSH3 0x236A PUSH3 0x385C JUMP JUMPDEST PUSH1 0x1 PUSH1 0x0 SWAP1 SLOAD SWAP1 PUSH2 0x100 EXP SWAP1 DIV PUSH20 0xFFFFFFFFFFFFFFFFFFFFFFFFFFFFFFFFFFFFFFFF AND PUSH20 0xFFFFFFFFFFFFFFFFFFFFFFFFFFFFFFFFFFFFFFFF AND PUSH4 0xEF7AE53F DUP6 PUSH1 0x0 ADD MLOAD PUSH1 0x40 MLOAD DUP3 PUSH4 0xFFFFFFFF AND PUSH1 0xE0 SHL DUP2 MSTORE PUSH1 0x4 ADD PUSH3 0x23CB SWAP2 SWAP1 PUSH3 0x56CA JUMP JUMPDEST PUSH1 0x0 PUSH1 0x40 MLOAD DUP1 DUP4 SUB DUP2 DUP7 DUP1 EXTCODESIZE ISZERO DUP1 ISZERO PUSH3 0x23E4 JUMPI PUSH1 0x0 DUP1 REVERT JUMPDEST POP GAS STATICCALL ISZERO DUP1 ISZERO PUSH3 0x23F9 JUMPI RETURNDATASIZE PUSH1 0x0 DUP1 RETURNDATACOPY RETURNDATASIZE PUSH1 0x0 REVERT JUMPDEST POP POP POP POP PUSH1 0x40 MLOAD RETURNDATASIZE PUSH1 0x0 DUP3 RETURNDATACOPY RETURNDATASIZE PUSH1 0x1F NOT PUSH1 0x1F DUP3 ADD AND DUP3 ADD DUP1 PUSH1 0x40 MSTORE POP PUSH3 0x2424 SWAP2 SWAP1 DUP2 ADD SWAP1 PUSH3 0x49EE JUMP JUMPDEST SWAP1 POP PUSH1 0x0 DUP5 PUSH1 0xE0 ADD MLOAD PUSH1 0xC0 ADD MLOAD SWAP1 POP DUP1 PUSH20 0xFFFFFFFFFFFFFFFFFFFFFFFFFFFFFFFFFFFFFFFF AND PUSH4 0x23B872DD CALLER DUP8 PUSH1 0xE0 ADD MLOAD PUSH1 0xE0 ADD MLOAD PUSH20 0xFFFFFFFFFFFFFFFFFFFFFFFFFFFFFFFFFFFFFFFF AND PUSH4 0x38CC4831 PUSH1 0x40 MLOAD DUP2 PUSH4 0xFFFFFFFF AND PUSH1 0xE0 SHL DUP2 MSTORE PUSH1 0x4 ADD PUSH1 0x20 PUSH1 0x40 MLOAD DUP1 DUP4 SUB DUP2 DUP7 DUP1 EXTCODESIZE ISZERO DUP1 ISZERO PUSH3 0x249F JUMPI PUSH1 0x0 DUP1 REVERT JUMPDEST POP GAS STATICCALL ISZERO DUP1 ISZERO PUSH3 0x24B4 JUMPI RETURNDATASIZE PUSH1 0x0 DUP1 RETURNDATACOPY RETURNDATASIZE PUSH1 0x0 REVERT JUMPDEST POP POP POP POP PUSH1 0x40 MLOAD RETURNDATASIZE PUSH1 0x1F NOT PUSH1 0x1F DUP3 ADD AND DUP3 ADD DUP1 PUSH1 0x40 MSTORE POP PUSH3 0x24DA SWAP2 SWAP1 DUP2 ADD SWAP1 PUSH3 0x47CC JUMP JUMPDEST DUP10 PUSH1 0x80 ADD MLOAD DUP11 PUSH1 0x60 ADD MLOAD ADD PUSH1 0x40 MLOAD DUP5 PUSH4 0xFFFFFFFF AND PUSH1 0xE0 SHL DUP2 MSTORE PUSH1 0x4 ADD PUSH3 0x2505 SWAP4 SWAP3 SWAP2 SWAP1 PUSH3 0x5606 JUMP JUMPDEST PUSH1 0x20 PUSH1 0x40 MLOAD DUP1 DUP4 SUB DUP2 PUSH1 0x0 DUP8 DUP1 EXTCODESIZE ISZERO DUP1 ISZERO PUSH3 0x2520 JUMPI PUSH1 0x0 DUP1 REVERT JUMPDEST POP GAS CALL ISZERO DUP1 ISZERO PUSH3 0x2535 JUMPI RETURNDATASIZE PUSH1 0x0 DUP1 RETURNDATACOPY RETURNDATASIZE PUSH1 0x0 REVERT JUMPDEST POP POP POP POP PUSH1 0x40 MLOAD RETURNDATASIZE PUSH1 0x1F NOT PUSH1 0x1F DUP3 ADD AND DUP3 ADD DUP1 PUSH1 0x40 MSTORE POP PUSH3 0x255B SWAP2 SWAP1 DUP2 ADD SWAP1 PUSH3 0x47F8 JUMP JUMPDEST POP TIMESTAMP DUP7 PUSH1 0xA0 ADD DUP2 DUP2 MSTORE POP POP CALLER DUP7 PUSH1 0x40 ADD SWAP1 PUSH20 0xFFFFFFFFFFFFFFFFFFFFFFFFFFFFFFFFFFFFFFFF AND SWAP1 DUP2 PUSH20 0xFFFFFFFFFFFFFFFFFFFFFFFFFFFFFFFFFFFFFFFF AND DUP2 MSTORE POP POP PUSH1 0x60 PUSH3 0x25B4 DUP8 PUSH1 0x0 ADD MLOAD DUP9 PUSH1 0x20 ADD MLOAD PUSH3 0x34FD JUMP JUMPDEST SWAP1 POP PUSH1 0x5 DUP2 PUSH1 0x40 MLOAD PUSH3 0x25C8 SWAP2 SWAP1 PUSH3 0x55B8 JUMP JUMPDEST SWAP1 DUP2 MSTORE PUSH1 0x20 ADD PUSH1 0x40 MLOAD DUP1 SWAP2 SUB SWAP1 KECCAK256 DUP8 SWAP1 DUP1 PUSH1 0x1 DUP2 SLOAD ADD DUP1 DUP3 SSTORE DUP1 SWAP2 POP POP SWAP1 PUSH1 0x1 DUP3 SUB SWAP1 PUSH1 0x0 MSTORE PUSH1 0x20 PUSH1 0x0 KECCAK256 SWAP1 PUSH1 0x6 MUL ADD PUSH1 0x0 SWAP1 SWAP2 SWAP3 SWAP1 SWAP2 SWAP1 SWAP2 POP PUSH1 0x0 DUP3 ADD MLOAD DUP2 PUSH1 0x0 ADD SWAP1 DUP1 MLOAD SWAP1 PUSH1 0x20 ADD SWAP1 PUSH3 0x2620 SWAP3 SWAP2 SWAP1 PUSH3 0x396C JUMP JUMPDEST POP PUSH1 0x20 DUP3 ADD MLOAD DUP2 PUSH1 0x1 ADD SWAP1 DUP1 MLOAD SWAP1 PUSH1 0x20 ADD SWAP1 PUSH3 0x263F SWAP3 SWAP2 SWAP1 PUSH3 0x396C JUMP JUMPDEST POP PUSH1 0x40 DUP3 ADD MLOAD DUP2 PUSH1 0x2 ADD PUSH1 0x0 PUSH2 0x100 EXP DUP2 SLOAD DUP2 PUSH20 0xFFFFFFFFFFFFFFFFFFFFFFFFFFFFFFFFFFFFFFFF MUL NOT AND SWAP1 DUP4 PUSH20 0xFFFFFFFFFFFFFFFFFFFFFFFFFFFFFFFFFFFFFFFF AND MUL OR SWAP1 SSTORE POP PUSH1 0x60 DUP3 ADD MLOAD DUP2 PUSH1 0x3 ADD SSTORE PUSH1 0x80 DUP3 ADD MLOAD DUP2 PUSH1 0x4 ADD SSTORE PUSH1 0xA0 DUP3 ADD MLOAD DUP2 PUSH1 0x5 ADD SSTORE POP POP POP DUP6 PUSH1 0x20 ADD MLOAD PUSH1 0x40 MLOAD PUSH3 0x26BC SWAP2 SWAP1 PUSH3 0x559F JUMP JUMPDEST PUSH1 0x40 MLOAD DUP1 SWAP2 SUB SWAP1 KECCAK256 PUSH32 0x1FC2188CF86B2FDFF0C37C3A4CC9AC40D660CB3ED78875F759054AA66515180F DUP9 PUSH1 0x40 MLOAD PUSH3 0x26F5 SWAP2 SWAP1 PUSH3 0x5971 JUMP JUMPDEST PUSH1 0x40 MLOAD DUP1 SWAP2 SUB SWAP1 LOG2 POP POP POP POP POP POP POP JUMP JUMPDEST PUSH1 0x0 PUSH1 0x4 DUP4 DUP4 PUSH1 0x40 MLOAD PUSH3 0x271C SWAP3 SWAP2 SWAP1 PUSH3 0x5584 JUMP JUMPDEST SWAP1 DUP2 MSTORE PUSH1 0x20 ADD PUSH1 0x40 MLOAD DUP1 SWAP2 SUB SWAP1 KECCAK256 SLOAD SWAP1 POP SWAP3 SWAP2 POP POP JUMP JUMPDEST PUSH3 0x273D PUSH3 0x37B5 JUMP JUMPDEST PUSH3 0x27D1 DUP7 DUP7 DUP1 DUP1 PUSH1 0x1F ADD PUSH1 0x20 DUP1 SWAP2 DIV MUL PUSH1 0x20 ADD PUSH1 0x40 MLOAD SWAP1 DUP2 ADD PUSH1 0x40 MSTORE DUP1 SWAP4 SWAP3 SWAP2 SWAP1 DUP2 DUP2 MSTORE PUSH1 0x20 ADD DUP4 DUP4 DUP1 DUP3 DUP5 CALLDATACOPY PUSH1 0x0 DUP2 DUP5 ADD MSTORE PUSH1 0x1F NOT PUSH1 0x1F DUP3 ADD AND SWAP1 POP DUP1 DUP4 ADD SWAP3 POP POP POP POP POP POP POP DUP6 DUP6 DUP1 DUP1 PUSH1 0x1F ADD PUSH1 0x20 DUP1 SWAP2 DIV MUL PUSH1 0x20 ADD PUSH1 0x40 MLOAD SWAP1 DUP2 ADD PUSH1 0x40 MSTORE DUP1 SWAP4 SWAP3 SWAP2 SWAP1 DUP2 DUP2 MSTORE PUSH1 0x20 ADD DUP4 DUP4 DUP1 DUP3 DUP5 CALLDATACOPY PUSH1 0x0 DUP2 DUP5 ADD MSTORE PUSH1 0x1F NOT PUSH1 0x1F DUP3 ADD AND SWAP1 POP DUP1 DUP4 ADD SWAP3 POP POP POP POP POP POP POP PUSH3 0x2CDC JUMP JUMPDEST SWAP1 POP PUSH1 0x0 DUP2 PUSH1 0x0 ADD MLOAD MLOAD EQ ISZERO PUSH3 0x281F JUMPI PUSH1 0x40 MLOAD PUSH32 0x8C379A000000000000000000000000000000000000000000000000000000000 DUP2 MSTORE PUSH1 0x4 ADD PUSH3 0x2816 SWAP1 PUSH3 0x5736 JUMP JUMPDEST PUSH1 0x40 MLOAD DUP1 SWAP2 SUB SWAP1 REVERT JUMPDEST DUP1 PUSH1 0x60 ADD MLOAD PUSH1 0x3 DUP2 GT ISZERO PUSH3 0x2830 JUMPI INVALID JUMPDEST DUP3 PUSH1 0x3 DUP2 GT ISZERO PUSH3 0x283D JUMPI INVALID JUMPDEST EQ PUSH3 0x2C1D JUMPI PUSH1 0x0 DUP2 PUSH1 0x60 ADD MLOAD SWAP1 POP DUP3 DUP3 PUSH1 0x60 ADD SWAP1 PUSH1 0x3 DUP2 GT ISZERO PUSH3 0x285E JUMPI INVALID JUMPDEST SWAP1 DUP2 PUSH1 0x3 DUP2 GT ISZERO PUSH3 0x286C JUMPI INVALID JUMPDEST DUP2 MSTORE POP POP PUSH1 0x0 PUSH1 0x2 DUP4 PUSH1 0x0 ADD MLOAD PUSH1 0x40 MLOAD PUSH3 0x2888 SWAP2 SWAP1 PUSH3 0x559F JUMP JUMPDEST SWAP1 DUP2 MSTORE PUSH1 0x20 ADD PUSH1 0x40 MLOAD DUP1 SWAP2 SUB SWAP1 KECCAK256 SWAP1 POP DUP3 DUP2 DUP8 DUP8 PUSH1 0x40 MLOAD PUSH3 0x28AC SWAP3 SWAP2 SWAP1 PUSH3 0x5584 JUMP JUMPDEST SWAP1 DUP2 MSTORE PUSH1 0x20 ADD PUSH1 0x40 MLOAD DUP1 SWAP2 SUB SWAP1 KECCAK256 PUSH1 0x0 DUP3 ADD MLOAD DUP2 PUSH1 0x0 ADD SWAP1 DUP1 MLOAD SWAP1 PUSH1 0x20 ADD SWAP1 PUSH3 0x28D8 SWAP3 SWAP2 SWAP1 PUSH3 0x396C JUMP JUMPDEST POP PUSH1 0x20 DUP3 ADD MLOAD DUP2 PUSH1 0x1 ADD SWAP1 DUP1 MLOAD SWAP1 PUSH1 0x20 ADD SWAP1 PUSH3 0x28F7 SWAP3 SWAP2 SWAP1 PUSH3 0x396C JUMP JUMPDEST POP PUSH1 0x40 DUP3 ADD MLOAD DUP2 PUSH1 0x2 ADD SWAP1 DUP1 MLOAD SWAP1 PUSH1 0x20 ADD SWAP1 PUSH3 0x2916 SWAP3 SWAP2 SWAP1 PUSH3 0x396C JUMP JUMPDEST POP PUSH1 0x60 DUP3 ADD MLOAD DUP2 PUSH1 0x3 ADD PUSH1 0x0 PUSH2 0x100 EXP DUP2 SLOAD DUP2 PUSH1 0xFF MUL NOT AND SWAP1 DUP4 PUSH1 0x3 DUP2 GT ISZERO PUSH3 0x293C JUMPI INVALID JUMPDEST MUL OR SWAP1 SSTORE POP PUSH1 0x80 DUP3 ADD MLOAD DUP2 PUSH1 0x3 ADD PUSH1 0x1 PUSH2 0x100 EXP DUP2 SLOAD DUP2 PUSH1 0xFF MUL NOT AND SWAP1 DUP4 PUSH1 0x6 DUP2 GT ISZERO PUSH3 0x2966 JUMPI INVALID JUMPDEST MUL OR SWAP1 SSTORE POP PUSH1 0xA0 DUP3 ADD MLOAD DUP2 PUSH1 0x4 ADD SWAP1 DUP1 MLOAD SWAP1 PUSH1 0x20 ADD SWAP1 PUSH3 0x2989 SWAP3 SWAP2 SWAP1 PUSH3 0x396C JUMP JUMPDEST POP PUSH1 0xC0 DUP3 ADD MLOAD DUP2 PUSH1 0x5 ADD SWAP1 DUP1 MLOAD SWAP1 PUSH1 0x20 ADD SWAP1 PUSH3 0x29A8 SWAP3 SWAP2 SWAP1 PUSH3 0x396C JUMP JUMPDEST POP PUSH1 0xE0 DUP3 ADD MLOAD DUP2 PUSH1 0x6 ADD PUSH1 0x0 DUP3 ADD MLOAD DUP2 PUSH1 0x0 ADD PUSH1 0x0 PUSH2 0x100 EXP DUP2 SLOAD DUP2 PUSH20 0xFFFFFFFFFFFFFFFFFFFFFFFFFFFFFFFFFFFFFFFF MUL NOT AND SWAP1 DUP4 PUSH20 0xFFFFFFFFFFFFFFFFFFFFFFFFFFFFFFFFFFFFFFFF AND MUL OR SWAP1 SSTORE POP PUSH1 0x20 DUP3 ADD MLOAD DUP2 PUSH1 0x0 ADD PUSH1 0x14 PUSH2 0x100 EXP DUP2 SLOAD DUP2 PUSH1 0xFF MUL NOT AND SWAP1 DUP4 PUSH1 0x1 DUP2 GT ISZERO PUSH3 0x2A1E JUMPI INVALID JUMPDEST MUL OR SWAP1 SSTORE POP PUSH1 0x40 DUP3 ADD MLOAD DUP2 PUSH1 0x1 ADD SSTORE PUSH1 0x60 DUP3 ADD MLOAD DUP2 PUSH1 0x2 ADD SWAP1 DUP1 MLOAD SWAP1 PUSH1 0x20 ADD SWAP1 PUSH3 0x2A4B SWAP3 SWAP2 SWAP1 PUSH3 0x396C JUMP JUMPDEST POP PUSH1 0x80 DUP3 ADD MLOAD DUP2 PUSH1 0x3 ADD SSTORE PUSH1 0xA0 DUP3 ADD MLOAD DUP2 PUSH1 0x4 ADD SSTORE PUSH1 0xC0 DUP3 ADD MLOAD DUP2 PUSH1 0x5 ADD PUSH1 0x0 PUSH2 0x100 EXP DUP2 SLOAD DUP2 PUSH20 0xFFFFFFFFFFFFFFFFFFFFFFFFFFFFFFFFFFFFFFFF MUL NOT AND SWAP1 DUP4 PUSH20 0xFFFFFFFFFFFFFFFFFFFFFFFFFFFFFFFFFFFFFFFF AND MUL OR SWAP1 SSTORE POP PUSH1 0xE0 DUP3 ADD MLOAD DUP2 PUSH1 0x6 ADD PUSH1 0x0 PUSH2 0x100 EXP DUP2 SLOAD DUP2 PUSH20 0xFFFFFFFFFFFFFFFFFFFFFFFFFFFFFFFFFFFFFFFF MUL NOT AND SWAP1 DUP4 PUSH20 0xFFFFFFFFFFFFFFFFFFFFFFFFFFFFFFFFFFFFFFFF AND MUL OR SWAP1 SSTORE POP POP POP PUSH2 0x100 DUP3 ADD MLOAD DUP2 PUSH1 0xD ADD PUSH1 0x0 DUP3 ADD MLOAD DUP2 PUSH1 0x0 ADD PUSH1 0x0 PUSH2 0x100 EXP DUP2 SLOAD DUP2 PUSH1 0xFF MUL NOT AND SWAP1 DUP4 PUSH1 0x3 DUP2 GT ISZERO PUSH3 0x2B1F JUMPI INVALID JUMPDEST MUL OR SWAP1 SSTORE POP POP POP PUSH2 0x120 DUP3 ADD MLOAD DUP2 PUSH1 0xE ADD PUSH1 0x0 DUP3 ADD MLOAD DUP2 PUSH1 0x0 ADD SSTORE PUSH1 0x20 DUP3 ADD MLOAD DUP2 PUSH1 0x1 ADD SWAP1 DUP1 MLOAD SWAP1 PUSH1 0x20 ADD SWAP1 PUSH3 0x2B58 SWAP3 SWAP2 SWAP1 PUSH3 0x396C JUMP JUMPDEST POP PUSH1 0x40 DUP3 ADD MLOAD DUP2 PUSH1 0x2 ADD SSTORE PUSH1 0x60 DUP3 ADD MLOAD DUP2 PUSH1 0x3 ADD SSTORE POP POP PUSH2 0x140 DUP3 ADD MLOAD DUP2 PUSH1 0x12 ADD SSTORE PUSH2 0x160 DUP3 ADD MLOAD DUP2 PUSH1 0x13 ADD PUSH1 0x0 PUSH2 0x100 EXP DUP2 SLOAD DUP2 PUSH20 0xFFFFFFFFFFFFFFFFFFFFFFFFFFFFFFFFFFFFFFFF MUL NOT AND SWAP1 DUP4 PUSH20 0xFFFFFFFFFFFFFFFFFFFFFFFFFFFFFFFFFFFFFFFF AND MUL OR SWAP1 SSTORE POP SWAP1 POP POP DUP8 DUP8 PUSH1 0x40 MLOAD PUSH3 0x2BD7 SWAP3 SWAP2 SWAP1 PUSH3 0x5584 JUMP JUMPDEST PUSH1 0x40 MLOAD DUP1 SWAP2 SUB SWAP1 KECCAK256 PUSH32 0x984B6675FFC22E1F752662B0CE0A6E95ADB7944D816AA2D09E6995C9B20A198A DUP4 DUP7 PUSH1 0x40 MLOAD PUSH3 0x2C12 SWAP3 SWAP2 SWAP1 PUSH3 0x569D JUMP JUMPDEST PUSH1 0x40 MLOAD DUP1 SWAP2 SUB SWAP1 LOG2 POP POP JUMPDEST POP POP POP POP POP POP JUMP JUMPDEST PUSH1 0x0 PUSH20 0xFFFFFFFFFFFFFFFFFFFFFFFFFFFFFFFFFFFFFFFF AND DUP2 PUSH20 0xFFFFFFFFFFFFFFFFFFFFFFFFFFFFFFFFFFFFFFFF AND EQ ISZERO PUSH3 0x2C98 JUMPI PUSH1 0x40 MLOAD PUSH32 0x8C379A000000000000000000000000000000000000000000000000000000000 DUP2 MSTORE PUSH1 0x4 ADD PUSH3 0x2C8F SWAP1 PUSH3 0x57E0 JUMP JUMPDEST PUSH1 0x40 MLOAD DUP1 SWAP2 SUB SWAP1 REVERT JUMPDEST DUP1 PUSH1 0x1 PUSH1 0x0 PUSH2 0x100 EXP DUP2 SLOAD DUP2 PUSH20 0xFFFFFFFFFFFFFFFFFFFFFFFFFFFFFFFFFFFFFFFF MUL NOT AND SWAP1 DUP4 PUSH20 0xFFFFFFFFFFFFFFFFFFFFFFFFFFFFFFFFFFFFFFFF AND MUL OR SWAP1 SSTORE POP POP JUMP JUMPDEST PUSH3 0x2CE6 PUSH3 0x37B5 JUMP JUMPDEST PUSH1 0x0 DUP4 MLOAD EQ ISZERO PUSH3 0x2D2E JUMPI PUSH1 0x40 MLOAD PUSH32 0x8C379A000000000000000000000000000000000000000000000000000000000 DUP2 MSTORE PUSH1 0x4 ADD PUSH3 0x2D25 SWAP1 PUSH3 0x57BE JUMP JUMPDEST PUSH1 0x40 MLOAD DUP1 SWAP2 SUB SWAP1 REVERT JUMPDEST PUSH1 0x0 DUP3 MLOAD EQ ISZERO PUSH3 0x2D76 JUMPI PUSH1 0x40 MLOAD PUSH32 0x8C379A000000000000000000000000000000000000000000000000000000000 DUP2 MSTORE PUSH1 0x4 ADD PUSH3 0x2D6D SWAP1 PUSH3 0x588A JUMP JUMPDEST PUSH1 0x40 MLOAD DUP1 SWAP2 SUB SWAP1 REVERT JUMPDEST PUSH1 0x0 PUSH1 0x2 DUP5 PUSH1 0x40 MLOAD PUSH3 0x2D8A SWAP2 SWAP1 PUSH3 0x55B8 JUMP JUMPDEST SWAP1 DUP2 MSTORE PUSH1 0x20 ADD PUSH1 0x40 MLOAD DUP1 SWAP2 SUB SWAP1 KECCAK256 SWAP1 POP PUSH3 0x2DA4 PUSH3 0x37B5 JUMP JUMPDEST DUP2 DUP5 PUSH1 0x40 MLOAD PUSH3 0x2DB5 SWAP2 SWAP1 PUSH3 0x55B8 JUMP JUMPDEST SWAP1 DUP2 MSTORE PUSH1 0x20 ADD PUSH1 0x40 MLOAD DUP1 SWAP2 SUB SWAP1 KECCAK256 PUSH1 0x40 MLOAD DUP1 PUSH2 0x180 ADD PUSH1 0x40 MSTORE SWAP1 DUP2 PUSH1 0x0 DUP3 ADD DUP1 SLOAD PUSH1 0x1 DUP2 PUSH1 0x1 AND ISZERO PUSH2 0x100 MUL SUB AND PUSH1 0x2 SWAP1 DIV DUP1 PUSH1 0x1F ADD PUSH1 0x20 DUP1 SWAP2 DIV MUL PUSH1 0x20 ADD PUSH1 0x40 MLOAD SWAP1 DUP2 ADD PUSH1 0x40 MSTORE DUP1 SWAP3 SWAP2 SWAP1 DUP2 DUP2 MSTORE PUSH1 0x20 ADD DUP3 DUP1 SLOAD PUSH1 0x1 DUP2 PUSH1 0x1 AND ISZERO PUSH2 0x100 MUL SUB AND PUSH1 0x2 SWAP1 DIV DUP1 ISZERO PUSH3 0x2E6C JUMPI DUP1 PUSH1 0x1F LT PUSH3 0x2E40 JUMPI PUSH2 0x100 DUP1 DUP4 SLOAD DIV MUL DUP4 MSTORE SWAP2 PUSH1 0x20 ADD SWAP2 PUSH3 0x2E6C JUMP JUMPDEST DUP3 ADD SWAP2 SWAP1 PUSH1 0x0 MSTORE PUSH1 0x20 PUSH1 0x0 KECCAK256 SWAP1 JUMPDEST DUP2 SLOAD DUP2 MSTORE SWAP1 PUSH1 0x1 ADD SWAP1 PUSH1 0x20 ADD DUP1 DUP4 GT PUSH3 0x2E4E JUMPI DUP3 SWAP1 SUB PUSH1 0x1F AND DUP3 ADD SWAP2 JUMPDEST POP POP POP POP POP DUP2 MSTORE PUSH1 0x20 ADD PUSH1 0x1 DUP3 ADD DUP1 SLOAD PUSH1 0x1 DUP2 PUSH1 0x1 AND ISZERO PUSH2 0x100 MUL SUB AND PUSH1 0x2 SWAP1 DIV DUP1 PUSH1 0x1F ADD PUSH1 0x20 DUP1 SWAP2 DIV MUL PUSH1 0x20 ADD PUSH1 0x40 MLOAD SWAP1 DUP2 ADD PUSH1 0x40 MSTORE DUP1 SWAP3 SWAP2 SWAP1 DUP2 DUP2 MSTORE PUSH1 0x20 ADD DUP3 DUP1 SLOAD PUSH1 0x1 DUP2 PUSH1 0x1 AND ISZERO PUSH2 0x100 MUL SUB AND PUSH1 0x2 SWAP1 DIV DUP1 ISZERO PUSH3 0x2F12 JUMPI DUP1 PUSH1 0x1F LT PUSH3 0x2EE6 JUMPI PUSH2 0x100 DUP1 DUP4 SLOAD DIV MUL DUP4 MSTORE SWAP2 PUSH1 0x20 ADD SWAP2 PUSH3 0x2F12 JUMP JUMPDEST DUP3 ADD SWAP2 SWAP1 PUSH1 0x0 MSTORE PUSH1 0x20 PUSH1 0x0 KECCAK256 SWAP1 JUMPDEST DUP2 SLOAD DUP2 MSTORE SWAP1 PUSH1 0x1 ADD SWAP1 PUSH1 0x20 ADD DUP1 DUP4 GT PUSH3 0x2EF4 JUMPI DUP3 SWAP1 SUB PUSH1 0x1F AND DUP3 ADD SWAP2 JUMPDEST POP POP POP POP POP DUP2 MSTORE PUSH1 0x20 ADD PUSH1 0x2 DUP3 ADD DUP1 SLOAD PUSH1 0x1 DUP2 PUSH1 0x1 AND ISZERO PUSH2 0x100 MUL SUB AND PUSH1 0x2 SWAP1 DIV DUP1 PUSH1 0x1F ADD PUSH1 0x20 DUP1 SWAP2 DIV MUL PUSH1 0x20 ADD PUSH1 0x40 MLOAD SWAP1 DUP2 ADD PUSH1 0x40 MSTORE DUP1 SWAP3 SWAP2 SWAP1 DUP2 DUP2 MSTORE PUSH1 0x20 ADD DUP3 DUP1 SLOAD PUSH1 0x1 DUP2 PUSH1 0x1 AND ISZERO PUSH2 0x100 MUL SUB AND PUSH1 0x2 SWAP1 DIV DUP1 ISZERO PUSH3 0x2FB8 JUMPI DUP1 PUSH1 0x1F LT PUSH3 0x2F8C JUMPI PUSH2 0x100 DUP1 DUP4 SLOAD DIV MUL DUP4 MSTORE SWAP2 PUSH1 0x20 ADD SWAP2 PUSH3 0x2FB8 JUMP JUMPDEST DUP3 ADD SWAP2 SWAP1 PUSH1 0x0 MSTORE PUSH1 0x20 PUSH1 0x0 KECCAK256 SWAP1 JUMPDEST DUP2 SLOAD DUP2 MSTORE SWAP1 PUSH1 0x1 ADD SWAP1 PUSH1 0x20 ADD DUP1 DUP4 GT PUSH3 0x2F9A JUMPI DUP3 SWAP1 SUB PUSH1 0x1F AND DUP3 ADD SWAP2 JUMPDEST POP POP POP POP POP DUP2 MSTORE PUSH1 0x20 ADD PUSH1 0x3 DUP3 ADD PUSH1 0x0 SWAP1 SLOAD SWAP1 PUSH2 0x100 EXP SWAP1 DIV PUSH1 0xFF AND PUSH1 0x3 DUP2 GT ISZERO PUSH3 0x2FE0 JUMPI INVALID JUMPDEST PUSH1 0x3 DUP2 GT ISZERO PUSH3 0x2FEC JUMPI INVALID JUMPDEST DUP2 MSTORE PUSH1 0x20 ADD PUSH1 0x3 DUP3 ADD PUSH1 0x1 SWAP1 SLOAD SWAP1 PUSH2 0x100 EXP SWAP1 DIV PUSH1 0xFF AND PUSH1 0x6 DUP2 GT ISZERO PUSH3 0x300F JUMPI INVALID JUMPDEST PUSH1 0x6 DUP2 GT ISZERO PUSH3 0x301B JUMPI INVALID JUMPDEST DUP2 MSTORE PUSH1 0x20 ADD PUSH1 0x4 DUP3 ADD DUP1 SLOAD PUSH1 0x1 DUP2 PUSH1 0x1 AND ISZERO PUSH2 0x100 MUL SUB AND PUSH1 0x2 SWAP1 DIV DUP1 PUSH1 0x1F ADD PUSH1 0x20 DUP1 SWAP2 DIV MUL PUSH1 0x20 ADD PUSH1 0x40 MLOAD SWAP1 DUP2 ADD PUSH1 0x40 MSTORE DUP1 SWAP3 SWAP2 SWAP1 DUP2 DUP2 MSTORE PUSH1 0x20 ADD DUP3 DUP1 SLOAD PUSH1 0x1 DUP2 PUSH1 0x1 AND ISZERO PUSH2 0x100 MUL SUB AND PUSH1 0x2 SWAP1 DIV DUP1 ISZERO PUSH3 0x30BC JUMPI DUP1 PUSH1 0x1F LT PUSH3 0x3090 JUMPI PUSH2 0x100 DUP1 DUP4 SLOAD DIV MUL DUP4 MSTORE SWAP2 PUSH1 0x20 ADD SWAP2 PUSH3 0x30BC JUMP JUMPDEST DUP3 ADD SWAP2 SWAP1 PUSH1 0x0 MSTORE PUSH1 0x20 PUSH1 0x0 KECCAK256 SWAP1 JUMPDEST DUP2 SLOAD DUP2 MSTORE SWAP1 PUSH1 0x1 ADD SWAP1 PUSH1 0x20 ADD DUP1 DUP4 GT PUSH3 0x309E JUMPI DUP3 SWAP1 SUB PUSH1 0x1F AND DUP3 ADD SWAP2 JUMPDEST POP POP POP POP POP DUP2 MSTORE PUSH1 0x20 ADD PUSH1 0x5 DUP3 ADD DUP1 SLOAD PUSH1 0x1 DUP2 PUSH1 0x1 AND ISZERO PUSH2 0x100 MUL SUB AND PUSH1 0x2 SWAP1 DIV DUP1 PUSH1 0x1F ADD PUSH1 0x20 DUP1 SWAP2 DIV MUL PUSH1 0x20 ADD PUSH1 0x40 MLOAD SWAP1 DUP2 ADD PUSH1 0x40 MSTORE DUP1 SWAP3 SWAP2 SWAP1 DUP2 DUP2 MSTORE PUSH1 0x20 ADD DUP3 DUP1 SLOAD PUSH1 0x1 DUP2 PUSH1 0x1 AND ISZERO PUSH2 0x100 MUL SUB AND PUSH1 0x2 SWAP1 DIV DUP1 ISZERO PUSH3 0x3162 JUMPI DUP1 PUSH1 0x1F LT PUSH3 0x3136 JUMPI PUSH2 0x100 DUP1 DUP4 SLOAD DIV MUL DUP4 MSTORE SWAP2 PUSH1 0x20 ADD SWAP2 PUSH3 0x3162 JUMP JUMPDEST DUP3 ADD SWAP2 SWAP1 PUSH1 0x0 MSTORE PUSH1 0x20 PUSH1 0x0 KECCAK256 SWAP1 JUMPDEST DUP2 SLOAD DUP2 MSTORE SWAP1 PUSH1 0x1 ADD SWAP1 PUSH1 0x20 ADD DUP1 DUP4 GT PUSH3 0x3144 JUMPI DUP3 SWAP1 SUB PUSH1 0x1F AND DUP3 ADD SWAP2 JUMPDEST POP POP POP POP POP DUP2 MSTORE PUSH1 0x20 ADD PUSH1 0x6 DUP3 ADD PUSH1 0x40 MLOAD DUP1 PUSH2 0x100 ADD PUSH1 0x40 MSTORE SWAP1 DUP2 PUSH1 0x0 DUP3 ADD PUSH1 0x0 SWAP1 SLOAD SWAP1 PUSH2 0x100 EXP SWAP1 DIV PUSH20 0xFFFFFFFFFFFFFFFFFFFFFFFFFFFFFFFFFFFFFFFF AND PUSH20 0xFFFFFFFFFFFFFFFFFFFFFFFFFFFFFFFFFFFFFFFF AND PUSH20 0xFFFFFFFFFFFFFFFFFFFFFFFFFFFFFFFFFFFFFFFF AND DUP2 MSTORE PUSH1 0x20 ADD PUSH1 0x0 DUP3 ADD PUSH1 0x14 SWAP1 SLOAD SWAP1 PUSH2 0x100 EXP SWAP1 DIV PUSH1 0xFF AND PUSH1 0x1 DUP2 GT ISZERO PUSH3 0x31F1 JUMPI INVALID JUMPDEST PUSH1 0x1 DUP2 GT ISZERO PUSH3 0x31FD JUMPI INVALID JUMPDEST DUP2 MSTORE PUSH1 0x20 ADD PUSH1 0x1 DUP3 ADD SLOAD DUP2 MSTORE PUSH1 0x20 ADD PUSH1 0x2 DUP3 ADD DUP1 SLOAD PUSH1 0x1 DUP2 PUSH1 0x1 AND ISZERO PUSH2 0x100 MUL SUB AND PUSH1 0x2 SWAP1 DIV DUP1 PUSH1 0x1F ADD PUSH1 0x20 DUP1 SWAP2 DIV MUL PUSH1 0x20 ADD PUSH1 0x40 MLOAD SWAP1 DUP2 ADD PUSH1 0x40 MSTORE DUP1 SWAP3 SWAP2 SWAP1 DUP2 DUP2 MSTORE PUSH1 0x20 ADD DUP3 DUP1 SLOAD PUSH1 0x1 DUP2 PUSH1 0x1 AND ISZERO PUSH2 0x100 MUL SUB AND PUSH1 0x2 SWAP1 DIV DUP1 ISZERO PUSH3 0x32A8 JUMPI DUP1 PUSH1 0x1F LT PUSH3 0x327C JUMPI PUSH2 0x100 DUP1 DUP4 SLOAD DIV MUL DUP4 MSTORE SWAP2 PUSH1 0x20 ADD SWAP2 PUSH3 0x32A8 JUMP JUMPDEST DUP3 ADD SWAP2 SWAP1 PUSH1 0x0 MSTORE PUSH1 0x20 PUSH1 0x0 KECCAK256 SWAP1 JUMPDEST DUP2 SLOAD DUP2 MSTORE SWAP1 PUSH1 0x1 ADD SWAP1 PUSH1 0x20 ADD DUP1 DUP4 GT PUSH3 0x328A JUMPI DUP3 SWAP1 SUB PUSH1 0x1F AND DUP3 ADD SWAP2 JUMPDEST POP POP POP POP POP DUP2 MSTORE PUSH1 0x20 ADD PUSH1 0x3 DUP3 ADD SLOAD DUP2 MSTORE PUSH1 0x20 ADD PUSH1 0x4 DUP3 ADD SLOAD DUP2 MSTORE PUSH1 0x20 ADD PUSH1 0x5 DUP3 ADD PUSH1 0x0 SWAP1 SLOAD SWAP1 PUSH2 0x100 EXP SWAP1 DIV PUSH20 0xFFFFFFFFFFFFFFFFFFFFFFFFFFFFFFFFFFFFFFFF AND PUSH20 0xFFFFFFFFFFFFFFFFFFFFFFFFFFFFFFFFFFFFFFFF AND PUSH20 0xFFFFFFFFFFFFFFFFFFFFFFFFFFFFFFFFFFFFFFFF AND DUP2 MSTORE PUSH1 0x20 ADD PUSH1 0x6 DUP3 ADD PUSH1 0x0 SWAP1 SLOAD SWAP1 PUSH2 0x100 EXP SWAP1 DIV PUSH20 0xFFFFFFFFFFFFFFFFFFFFFFFFFFFFFFFFFFFFFFFF AND PUSH20 0xFFFFFFFFFFFFFFFFFFFFFFFFFFFFFFFFFFFFFFFF AND PUSH20 0xFFFFFFFFFFFFFFFFFFFFFFFFFFFFFFFFFFFFFFFF AND DUP2 MSTORE POP POP DUP2 MSTORE PUSH1 0x20 ADD PUSH1 0xD DUP3 ADD PUSH1 0x40 MLOAD DUP1 PUSH1 0x20 ADD PUSH1 0x40 MSTORE SWAP1 DUP2 PUSH1 0x0 DUP3 ADD PUSH1 0x0 SWAP1 SLOAD SWAP1 PUSH2 0x100 EXP SWAP1 DIV PUSH1 0xFF AND PUSH1 0x3 DUP2 GT ISZERO PUSH3 0x33A4 JUMPI INVALID JUMPDEST PUSH1 0x3 DUP2 GT ISZERO PUSH3 0x33B0 JUMPI INVALID JUMPDEST DUP2 MSTORE POP POP DUP2 MSTORE PUSH1 0x20 ADD PUSH1 0xE DUP3 ADD PUSH1 0x40 MLOAD DUP1 PUSH1 0x80 ADD PUSH1 0x40 MSTORE SWAP1 DUP2 PUSH1 0x0 DUP3 ADD SLOAD DUP2 MSTORE PUSH1 0x20 ADD PUSH1 0x1 DUP3 ADD DUP1 SLOAD PUSH1 0x1 DUP2 PUSH1 0x1 AND ISZERO PUSH2 0x100 MUL SUB AND PUSH1 0x2 SWAP1 DIV DUP1 PUSH1 0x1F ADD PUSH1 0x20 DUP1 SWAP2 DIV MUL PUSH1 0x20 ADD PUSH1 0x40 MLOAD SWAP1 DUP2 ADD PUSH1 0x40 MSTORE DUP1 SWAP3 SWAP2 SWAP1 DUP2 DUP2 MSTORE PUSH1 0x20 ADD DUP3 DUP1 SLOAD PUSH1 0x1 DUP2 PUSH1 0x1 AND ISZERO PUSH2 0x100 MUL SUB AND PUSH1 0x2 SWAP1 DIV DUP1 ISZERO PUSH3 0x346F JUMPI DUP1 PUSH1 0x1F LT PUSH3 0x3443 JUMPI PUSH2 0x100 DUP1 DUP4 SLOAD DIV MUL DUP4 MSTORE SWAP2 PUSH1 0x20 ADD SWAP2 PUSH3 0x346F JUMP JUMPDEST DUP3 ADD SWAP2 SWAP1 PUSH1 0x0 MSTORE PUSH1 0x20 PUSH1 0x0 KECCAK256 SWAP1 JUMPDEST DUP2 SLOAD DUP2 MSTORE SWAP1 PUSH1 0x1 ADD SWAP1 PUSH1 0x20 ADD DUP1 DUP4 GT PUSH3 0x3451 JUMPI DUP3 SWAP1 SUB PUSH1 0x1F AND DUP3 ADD SWAP2 JUMPDEST POP POP POP POP POP DUP2 MSTORE PUSH1 0x20 ADD PUSH1 0x2 DUP3 ADD SLOAD DUP2 MSTORE PUSH1 0x20 ADD PUSH1 0x3 DUP3 ADD SLOAD DUP2 MSTORE POP POP DUP2 MSTORE PUSH1 0x20 ADD PUSH1 0x12 DUP3 ADD SLOAD DUP2 MSTORE PUSH1 0x20 ADD PUSH1 0x13 DUP3 ADD PUSH1 0x0 SWAP1 SLOAD SWAP1 PUSH2 0x100 EXP SWAP1 DIV PUSH20 0xFFFFFFFFFFFFFFFFFFFFFFFFFFFFFFFFFFFFFFFF AND PUSH20 0xFFFFFFFFFFFFFFFFFFFFFFFFFFFFFFFFFFFFFFFF AND PUSH20 0xFFFFFFFFFFFFFFFFFFFFFFFFFFFFFFFFFFFFFFFF AND DUP2 MSTORE POP POP SWAP1 POP DUP1 SWAP3 POP POP POP SWAP3 SWAP2 POP POP JUMP JUMPDEST PUSH1 0x60 DUP3 DUP3 PUSH1 0x40 MLOAD PUSH1 0x20 ADD PUSH3 0x3514 SWAP3 SWAP2 SWAP1 PUSH3 0x55D1 JUMP JUMPDEST PUSH1 0x40 MLOAD PUSH1 0x20 DUP2 DUP4 SUB SUB DUP2 MSTORE SWAP1 PUSH1 0x40 MSTORE SWAP1 POP SWAP3 SWAP2 POP POP JUMP JUMPDEST PUSH1 0x0 PUSH1 0x60 DUP3 SWAP1 POP PUSH1 0x0 DUP1 SWAP1 POP PUSH1 0x0 DUP1 PUSH1 0x0 PUSH1 0x2 SWAP1 POP JUMPDEST PUSH1 0x2A DUP2 LT ISZERO PUSH3 0x378B JUMPI PUSH2 0x100 DUP5 MUL SWAP4 POP DUP5 DUP2 DUP2 MLOAD DUP2 LT PUSH3 0x355F JUMPI INVALID JUMPDEST PUSH1 0x20 ADD ADD MLOAD PUSH1 0xF8 SHR PUSH1 0xF8 SHL PUSH1 0xF8 SHR PUSH1 0xFF AND SWAP3 POP DUP5 PUSH1 0x1 DUP3 ADD DUP2 MLOAD DUP2 LT PUSH3 0x3582 JUMPI INVALID JUMPDEST PUSH1 0x20 ADD ADD MLOAD PUSH1 0xF8 SHR PUSH1 0xF8 SHL PUSH1 0xF8 SHR PUSH1 0xFF AND SWAP2 POP PUSH1 0x61 DUP4 PUSH20 0xFFFFFFFFFFFFFFFFFFFFFFFFFFFFFFFFFFFFFFFF AND LT ISZERO DUP1 ISZERO PUSH3 0x35D4 JUMPI POP PUSH1 0x66 DUP4 PUSH20 0xFFFFFFFFFFFFFFFFFFFFFFFFFFFFFFFFFFFFFFFF AND GT ISZERO JUMPDEST ISZERO PUSH3 0x35E6 JUMPI PUSH1 0x57 DUP4 SUB SWAP3 POP PUSH3 0x3685 JUMP JUMPDEST PUSH1 0x41 DUP4 PUSH20 0xFFFFFFFFFFFFFFFFFFFFFFFFFFFFFFFFFFFFFFFF AND LT ISZERO DUP1 ISZERO PUSH3 0x3625 JUMPI POP PUSH1 0x46 DUP4 PUSH20 0xFFFFFFFFFFFFFFFFFFFFFFFFFFFFFFFFFFFFFFFF AND GT ISZERO JUMPDEST ISZERO PUSH3 0x3637 JUMPI PUSH1 0x37 DUP4 SUB SWAP3 POP PUSH3 0x3684 JUMP JUMPDEST PUSH1 0x30 DUP4 PUSH20 0xFFFFFFFFFFFFFFFFFFFFFFFFFFFFFFFFFFFFFFFF AND LT ISZERO DUP1 ISZERO PUSH3 0x3676 JUMPI POP PUSH1 0x39 DUP4 PUSH20 0xFFFFFFFFFFFFFFFFFFFFFFFFFFFFFFFFFFFFFFFF AND GT ISZERO JUMPDEST ISZERO PUSH3 0x3683 JUMPI PUSH1 0x30 DUP4 SUB SWAP3 POP JUMPDEST JUMPDEST JUMPDEST PUSH1 0x61 DUP3 PUSH20 0xFFFFFFFFFFFFFFFFFFFFFFFFFFFFFFFFFFFFFFFF AND LT ISZERO DUP1 ISZERO PUSH3 0x36C4 JUMPI POP PUSH1 0x66 DUP3 PUSH20 0xFFFFFFFFFFFFFFFFFFFFFFFFFFFFFFFFFFFFFFFF AND GT ISZERO JUMPDEST ISZERO PUSH3 0x36D6 JUMPI PUSH1 0x57 DUP3 SUB SWAP2 POP PUSH3 0x3775 JUMP JUMPDEST PUSH1 0x41 DUP3 PUSH20 0xFFFFFFFFFFFFFFFFFFFFFFFFFFFFFFFFFFFFFFFF AND LT ISZERO DUP1 ISZERO PUSH3 0x3715 JUMPI POP PUSH1 0x46 DUP3 PUSH20 0xFFFFFFFFFFFFFFFFFFFFFFFFFFFFFFFFFFFFFFFF AND GT ISZERO JUMPDEST ISZERO PUSH3 0x3727 JUMPI PUSH1 0x37 DUP3 SUB SWAP2 POP PUSH3 0x3774 JUMP JUMPDEST PUSH1 0x30 DUP3 PUSH20 0xFFFFFFFFFFFFFFFFFFFFFFFFFFFFFFFFFFFFFFFF AND LT ISZERO DUP1 ISZERO PUSH3 0x3766 JUMPI POP PUSH1 0x39 DUP3 PUSH20 0xFFFFFFFFFFFFFFFFFFFFFFFFFFFFFFFFFFFFFFFF AND GT ISZERO JUMPDEST ISZERO PUSH3 0x3773 JUMPI PUSH1 0x30 DUP3 SUB SWAP2 POP JUMPDEST JUMPDEST JUMPDEST DUP2 PUSH1 0x10 DUP5 MUL ADD DUP5 ADD SWAP4 POP PUSH1 0x2 DUP2 ADD SWAP1 POP PUSH3 0x3541 JUMP JUMPDEST POP DUP3 SWAP5 POP POP POP POP POP SWAP2 SWAP1 POP JUMP JUMPDEST PUSH1 0x60 PUSH3 0x37AE DUP3 PUSH1 0x0 ADD MLOAD DUP4 PUSH1 0x20 ADD MLOAD PUSH3 0x34FD JUMP JUMPDEST SWAP1 POP SWAP2 SWAP1 POP JUMP JUMPDEST PUSH1 0x40 MLOAD DUP1 PUSH2 0x180 ADD PUSH1 0x40 MSTORE DUP1 PUSH1 0x60 DUP2 MSTORE PUSH1 0x20 ADD PUSH1 0x60 DUP2 MSTORE PUSH1 0x20 ADD PUSH1 0x60 DUP2 MSTORE PUSH1 0x20 ADD PUSH1 0x0 PUSH1 0x3 DUP2 GT ISZERO PUSH3 0x37E4 JUMPI INVALID JUMPDEST DUP2 MSTORE PUSH1 0x20 ADD PUSH1 0x0 PUSH1 0x6 DUP2 GT ISZERO PUSH3 0x37F7 JUMPI INVALID JUMPDEST DUP2 MSTORE PUSH1 0x20 ADD PUSH1 0x60 DUP2 MSTORE PUSH1 0x20 ADD PUSH1 0x60 DUP2 MSTORE PUSH1 0x20 ADD PUSH3 0x3814 PUSH3 0x3A1B JUMP JUMPDEST DUP2 MSTORE PUSH1 0x20 ADD PUSH3 0x3823 PUSH3 0x3AAE JUMP JUMPDEST DUP2 MSTORE PUSH1 0x20 ADD PUSH3 0x3832 PUSH3 0x3ACD JUMP JUMPDEST DUP2 MSTORE PUSH1 0x20 ADD PUSH1 0x0 DUP2 MSTORE PUSH1 0x20 ADD PUSH1 0x0 PUSH20 0xFFFFFFFFFFFFFFFFFFFFFFFFFFFFFFFFFFFFFFFF AND DUP2 MSTORE POP SWAP1 JUMP JUMPDEST PUSH1 0x40 MLOAD DUP1 PUSH1 0x80 ADD PUSH1 0x40 MSTORE DUP1 PUSH1 0x60 DUP2 MSTORE PUSH1 0x20 ADD PUSH3 0x3878 PUSH3 0x3AF5 JUMP JUMPDEST DUP2 MSTORE PUSH1 0x20 ADD PUSH3 0x3887 PUSH3 0x3B1D JUMP JUMPDEST DUP2 MSTORE PUSH1 0x20 ADD PUSH3 0x3896 PUSH3 0x3B4A JUMP JUMPDEST DUP2 MSTORE POP SWAP1 JUMP JUMPDEST PUSH1 0x40 MLOAD DUP1 PUSH1 0xC0 ADD PUSH1 0x40 MSTORE DUP1 PUSH1 0x60 DUP2 MSTORE PUSH1 0x20 ADD PUSH1 0x60 DUP2 MSTORE PUSH1 0x20 ADD PUSH1 0x0 PUSH20 0xFFFFFFFFFFFFFFFFFFFFFFFFFFFFFFFFFFFFFFFF AND DUP2 MSTORE PUSH1 0x20 ADD PUSH1 0x0 DUP2 MSTORE PUSH1 0x20 ADD PUSH1 0x0 DUP2 MSTORE PUSH1 0x20 ADD PUSH1 0x0 DUP2 MSTORE POP SWAP1 JUMP JUMPDEST PUSH1 0x40 MLOAD DUP1 PUSH1 0x60 ADD PUSH1 0x40 MSTORE DUP1 PUSH1 0x0 PUSH1 0x3 DUP2 GT ISZERO PUSH3 0x3901 JUMPI INVALID JUMPDEST DUP2 MSTORE PUSH1 0x20 ADD PUSH1 0x0 DUP2 MSTORE PUSH1 0x20 ADD PUSH1 0x60 DUP2 MSTORE POP SWAP1 JUMP JUMPDEST PUSH1 0x40 MLOAD DUP1 PUSH1 0xE0 ADD PUSH1 0x40 MSTORE DUP1 PUSH1 0x0 PUSH1 0x3 DUP2 GT ISZERO PUSH3 0x392E JUMPI INVALID JUMPDEST DUP2 MSTORE PUSH1 0x20 ADD PUSH1 0x60 DUP2 MSTORE PUSH1 0x20 ADD PUSH1 0x60 DUP2 MSTORE PUSH1 0x20 ADD PUSH1 0x0 DUP2 MSTORE PUSH1 0x20 ADD PUSH1 0x60 DUP2 MSTORE PUSH1 0x20 ADD PUSH1 0x60 DUP2 MSTORE PUSH1 0x20 ADD PUSH1 0x60 DUP2 MSTORE POP SWAP1 JUMP JUMPDEST PUSH2 0x8CA DUP1 PUSH3 0x5E22 DUP4 CODECOPY ADD SWAP1 JUMP JUMPDEST DUP3 DUP1 SLOAD PUSH1 0x1 DUP2 PUSH1 0x1 AND ISZERO PUSH2 0x100 MUL SUB AND PUSH1 0x2 SWAP1 DIV SWAP1 PUSH1 0x0 MSTORE PUSH1 0x20 PUSH1 0x0 KECCAK256 SWAP1 PUSH1 0x1F ADD PUSH1 0x20 SWAP1 DIV DUP2 ADD SWAP3 DUP3 PUSH1 0x1F LT PUSH3 0x39AF JUMPI DUP1 MLOAD PUSH1 0xFF NOT AND DUP4 DUP1 ADD OR DUP6 SSTORE PUSH3 0x39E0 JUMP JUMPDEST DUP3 DUP1 ADD PUSH1 0x1 ADD DUP6 SSTORE DUP3 ISZERO PUSH3 0x39E0 JUMPI SWAP2 DUP3 ADD JUMPDEST DUP3 DUP2 GT ISZERO PUSH3 0x39DF JUMPI DUP3 MLOAD DUP3 SSTORE SWAP2 PUSH1 0x20 ADD SWAP2 SWAP1 PUSH1 0x1 ADD SWAP1 PUSH3 0x39C2 JUMP JUMPDEST JUMPDEST POP SWAP1 POP PUSH3 0x39EF SWAP2 SWAP1 PUSH3 0x3B93 JUMP JUMPDEST POP SWAP1 JUMP JUMPDEST PUSH1 0x40 MLOAD DUP1 PUSH1 0x80 ADD PUSH1 0x40 MSTORE DUP1 PUSH1 0x0 DUP2 MSTORE PUSH1 0x20 ADD PUSH1 0x60 DUP2 MSTORE PUSH1 0x20 ADD PUSH1 0x0 DUP2 MSTORE PUSH1 0x20 ADD PUSH1 0x0 DUP2 MSTORE POP SWAP1 JUMP JUMPDEST PUSH1 0x40 MLOAD DUP1 PUSH2 0x100 ADD PUSH1 0x40 MSTORE DUP1 PUSH1 0x0 PUSH20 0xFFFFFFFFFFFFFFFFFFFFFFFFFFFFFFFFFFFFFFFF AND DUP2 MSTORE PUSH1 0x20 ADD PUSH1 0x0 PUSH1 0x1 DUP2 GT ISZERO PUSH3 0x3A52 JUMPI INVALID JUMPDEST DUP2 MSTORE PUSH1 0x20 ADD PUSH1 0x0 DUP2 MSTORE PUSH1 0x20 ADD PUSH1 0x60 DUP2 MSTORE PUSH1 0x20 ADD PUSH1 0x0 DUP2 MSTORE PUSH1 0x20 ADD PUSH1 0x0 DUP2 MSTORE PUSH1 0x20 ADD PUSH1 0x0 PUSH20 0xFFFFFFFFFFFFFFFFFFFFFFFFFFFFFFFFFFFFFFFF AND DUP2 MSTORE PUSH1 0x20 ADD PUSH1 0x0 PUSH20 0xFFFFFFFFFFFFFFFFFFFFFFFFFFFFFFFFFFFFFFFF AND DUP2 MSTORE POP SWAP1 JUMP JUMPDEST PUSH1 0x40 MLOAD DUP1 PUSH1 0x20 ADD PUSH1 0x40 MSTORE DUP1 PUSH1 0x0 PUSH1 0x3 DUP2 GT ISZERO PUSH3 0x3AC7 JUMPI INVALID JUMPDEST DUP2 MSTORE POP SWAP1 JUMP JUMPDEST PUSH1 0x40 MLOAD DUP1 PUSH1 0x80 ADD PUSH1 0x40 MSTORE DUP1 PUSH1 0x0 DUP2 MSTORE PUSH1 0x20 ADD PUSH1 0x60 DUP2 MSTORE PUSH1 0x20 ADD PUSH1 0x0 DUP2 MSTORE PUSH1 0x20 ADD PUSH1 0x0 DUP2 MSTORE POP SWAP1 JUMP JUMPDEST PUSH1 0x40 MLOAD DUP1 PUSH1 0x80 ADD PUSH1 0x40 MSTORE DUP1 PUSH1 0x60 DUP2 MSTORE PUSH1 0x20 ADD PUSH1 0x60 DUP2 MSTORE PUSH1 0x20 ADD PUSH1 0x60 DUP2 MSTORE PUSH1 0x20 ADD PUSH1 0x60 DUP2 MSTORE POP SWAP1 JUMP JUMPDEST PUSH1 0x40 MLOAD DUP1 PUSH1 0x60 ADD PUSH1 0x40 MSTORE DUP1 PUSH1 0x0 PUSH1 0x3 DUP2 GT ISZERO PUSH3 0x3B36 JUMPI INVALID JUMPDEST DUP2 MSTORE PUSH1 0x20 ADD PUSH1 0x0 DUP2 MSTORE PUSH1 0x20 ADD PUSH1 0x60 DUP2 MSTORE POP SWAP1 JUMP JUMPDEST PUSH1 0x40 MLOAD DUP1 PUSH1 0xE0 ADD PUSH1 0x40 MSTORE DUP1 PUSH1 0x0 PUSH1 0x3 DUP2 GT ISZERO PUSH3 0x3B63 JUMPI INVALID JUMPDEST DUP2 MSTORE PUSH1 0x20 ADD PUSH1 0x60 DUP2 MSTORE PUSH1 0x20 ADD PUSH1 0x60 DUP2 MSTORE PUSH1 0x20 ADD PUSH1 0x0 DUP2 MSTORE PUSH1 0x20 ADD PUSH1 0x60 DUP2 MSTORE PUSH1 0x20 ADD PUSH1 0x60 DUP2 MSTORE PUSH1 0x20 ADD PUSH1 0x60 DUP2 MSTORE POP SWAP1 JUMP JUMPDEST PUSH3 0x3BB8 SWAP2 SWAP1 JUMPDEST DUP1 DUP3 GT ISZERO PUSH3 0x3BB4 JUMPI PUSH1 0x0 DUP2 PUSH1 0x0 SWAP1 SSTORE POP PUSH1 0x1 ADD PUSH3 0x3B9A JUMP JUMPDEST POP SWAP1 JUMP JUMPDEST SWAP1 JUMP JUMPDEST PUSH1 0x0 DUP2 CALLDATALOAD SWAP1 POP PUSH3 0x3BCC DUP2 PUSH3 0x5D30 JUMP JUMPDEST SWAP3 SWAP2 POP POP JUMP JUMPDEST PUSH1 0x0 DUP2 MLOAD SWAP1 POP PUSH3 0x3BE3 DUP2 PUSH3 0x5D30 JUMP JUMPDEST SWAP3 SWAP2 POP POP JUMP JUMPDEST PUSH1 0x0 DUP2 MLOAD SWAP1 POP PUSH3 0x3BFA DUP2 PUSH3 0x5D4A JUMP JUMPDEST SWAP3 SWAP2 POP POP JUMP JUMPDEST PUSH1 0x0 DUP3 PUSH1 0x1F DUP4 ADD SLT PUSH3 0x3C12 JUMPI PUSH1 0x0 DUP1 REVERT JUMPDEST DUP2 MLOAD PUSH3 0x3C29 PUSH3 0x3C23 DUP3 PUSH3 0x59E0 JUMP JUMPDEST PUSH3 0x59B2 JUMP JUMPDEST SWAP2 POP DUP2 DUP2 DUP4 MSTORE PUSH1 0x20 DUP5 ADD SWAP4 POP PUSH1 0x20 DUP2 ADD SWAP1 POP DUP4 DUP6 PUSH1 0x20 DUP5 MUL DUP3 ADD GT ISZERO PUSH3 0x3C4F JUMPI PUSH1 0x0 DUP1 REVERT JUMPDEST PUSH1 0x0 JUMPDEST DUP4 DUP2 LT ISZERO PUSH3 0x3C83 JUMPI DUP2 PUSH3 0x3C68 DUP9 DUP3 PUSH3 0x3BD2 JUMP JUMPDEST DUP5 MSTORE PUSH1 0x20 DUP5 ADD SWAP4 POP PUSH1 0x20 DUP4 ADD SWAP3 POP POP PUSH1 0x1 DUP2 ADD SWAP1 POP PUSH3 0x3C52 JUMP JUMPDEST POP POP POP POP SWAP3 SWAP2 POP POP JUMP JUMPDEST PUSH1 0x0 DUP3 PUSH1 0x1F DUP4 ADD SLT PUSH3 0x3C9F JUMPI PUSH1 0x0 DUP1 REVERT JUMPDEST DUP2 CALLDATALOAD PUSH3 0x3CB6 PUSH3 0x3CB0 DUP3 PUSH3 0x5A09 JUMP JUMPDEST PUSH3 0x59B2 JUMP JUMPDEST SWAP2 POP DUP2 DUP2 DUP4 MSTORE PUSH1 0x20 DUP5 ADD SWAP4 POP PUSH1 0x20 DUP2 ADD SWAP1 POP DUP4 PUSH1 0x0 JUMPDEST DUP4 DUP2 LT ISZERO PUSH3 0x3D00 JUMPI DUP2 CALLDATALOAD DUP7 ADD PUSH3 0x3CE5 DUP9 DUP3 PUSH3 0x3EDE JUMP JUMPDEST DUP5 MSTORE PUSH1 0x20 DUP5 ADD SWAP4 POP PUSH1 0x20 DUP4 ADD SWAP3 POP POP PUSH1 0x1 DUP2 ADD SWAP1 POP PUSH3 0x3CCC JUMP JUMPDEST POP POP POP POP SWAP3 SWAP2 POP POP JUMP JUMPDEST PUSH1 0x0 DUP2 MLOAD SWAP1 POP PUSH3 0x3D1B DUP2 PUSH3 0x5D64 JUMP JUMPDEST SWAP3 SWAP2 POP POP JUMP JUMPDEST PUSH1 0x0 DUP2 CALLDATALOAD SWAP1 POP PUSH3 0x3D32 DUP2 PUSH3 0x5D7E JUMP JUMPDEST SWAP3 SWAP2 POP POP JUMP JUMPDEST PUSH1 0x0 DUP2 CALLDATALOAD SWAP1 POP PUSH3 0x3D49 DUP2 PUSH3 0x5D98 JUMP JUMPDEST SWAP3 SWAP2 POP POP JUMP JUMPDEST PUSH1 0x0 DUP2 CALLDATALOAD SWAP1 POP PUSH3 0x3D60 DUP2 PUSH3 0x5DB2 JUMP JUMPDEST SWAP3 SWAP2 POP POP JUMP JUMPDEST PUSH1 0x0 DUP2 CALLDATALOAD SWAP1 POP PUSH3 0x3D77 DUP2 PUSH3 0x5DC3 JUMP JUMPDEST SWAP3 SWAP2 POP POP JUMP JUMPDEST PUSH1 0x0 DUP2 CALLDATALOAD SWAP1 POP PUSH3 0x3D8E DUP2 PUSH3 0x5DD4 JUMP JUMPDEST SWAP3 SWAP2 POP POP JUMP JUMPDEST PUSH1 0x0 DUP2 CALLDATALOAD SWAP1 POP PUSH3 0x3DA5 DUP2 PUSH3 0x5DE5 JUMP JUMPDEST SWAP3 SWAP2 POP POP JUMP JUMPDEST PUSH1 0x0 DUP2 MLOAD SWAP1 POP PUSH3 0x3DBC DUP2 PUSH3 0x5DE5 JUMP JUMPDEST SWAP3 SWAP2 POP POP JUMP JUMPDEST PUSH1 0x0 DUP2 MLOAD SWAP1 POP PUSH3 0x3DD3 DUP2 PUSH3 0x5DF6 JUMP JUMPDEST SWAP3 SWAP2 POP POP JUMP JUMPDEST PUSH1 0x0 DUP1 DUP4 PUSH1 0x1F DUP5 ADD SLT PUSH3 0x3DEC JUMPI PUSH1 0x0 DUP1 REVERT JUMPDEST DUP3 CALLDATALOAD SWAP1 POP PUSH8 0xFFFFFFFFFFFFFFFF DUP2 GT ISZERO PUSH3 0x3E06 JUMPI PUSH1 0x0 DUP1 REVERT JUMPDEST PUSH1 0x20 DUP4 ADD SWAP2 POP DUP4 PUSH1 0x1 DUP3 MUL DUP4 ADD GT ISZERO PUSH3 0x3E1F JUMPI PUSH1 0x0 DUP1 REVERT JUMPDEST SWAP3 POP SWAP3 SWAP1 POP JUMP JUMPDEST PUSH1 0x0 DUP3 PUSH1 0x1F DUP4 ADD SLT PUSH3 0x3E38 JUMPI PUSH1 0x0 DUP1 REVERT JUMPDEST DUP2 CALLDATALOAD PUSH3 0x3E4F PUSH3 0x3E49 DUP3 PUSH3 0x5A32 JUMP JUMPDEST PUSH3 0x59B2 JUMP JUMPDEST SWAP2 POP DUP1 DUP3 MSTORE PUSH1 0x20 DUP4 ADD PUSH1 0x20 DUP4 ADD DUP6 DUP4 DUP4 ADD GT ISZERO PUSH3 0x3E6C JUMPI PUSH1 0x0 DUP1 REVERT JUMPDEST PUSH3 0x3E79 DUP4 DUP3 DUP5 PUSH3 0x5CA2 JUMP JUMPDEST POP POP POP SWAP3 SWAP2 POP POP JUMP JUMPDEST PUSH1 0x0 DUP3 PUSH1 0x1F DUP4 ADD SLT PUSH3 0x3E94 JUMPI PUSH1 0x0 DUP1 REVERT JUMPDEST DUP2 MLOAD PUSH3 0x3EAB PUSH3 0x3EA5 DUP3 PUSH3 0x5A32 JUMP JUMPDEST PUSH3 0x59B2 JUMP JUMPDEST SWAP2 POP DUP1 DUP3 MSTORE PUSH1 0x20 DUP4 ADD PUSH1 0x20 DUP4 ADD DUP6 DUP4 DUP4 ADD GT ISZERO PUSH3 0x3EC8 JUMPI PUSH1 0x0 DUP1 REVERT JUMPDEST PUSH3 0x3ED5 DUP4 DUP3 DUP5 PUSH3 0x5CB1 JUMP JUMPDEST POP POP POP SWAP3 SWAP2 POP POP JUMP JUMPDEST PUSH1 0x0 PUSH1 0x60 DUP3 DUP5 SUB SLT ISZERO PUSH3 0x3EF1 JUMPI PUSH1 0x0 DUP1 REVERT JUMPDEST PUSH3 0x3EFD PUSH1 0x60 PUSH3 0x59B2 JUMP JUMPDEST SWAP1 POP PUSH1 0x0 PUSH3 0x3F0F DUP5 DUP3 DUP6 ADD PUSH3 0x4772 JUMP JUMPDEST PUSH1 0x0 DUP4 ADD MSTORE POP PUSH1 0x20 PUSH3 0x3F25 DUP5 DUP3 DUP6 ADD PUSH3 0x4772 JUMP JUMPDEST PUSH1 0x20 DUP4 ADD MSTORE POP PUSH1 0x40 DUP3 ADD CALLDATALOAD PUSH8 0xFFFFFFFFFFFFFFFF DUP2 GT ISZERO PUSH3 0x3F46 JUMPI PUSH1 0x0 DUP1 REVERT JUMPDEST PUSH3 0x3F54 DUP5 DUP3 DUP6 ADD PUSH3 0x3E26 JUMP JUMPDEST PUSH1 0x40 DUP4 ADD MSTORE POP SWAP3 SWAP2 POP POP JUMP JUMPDEST PUSH1 0x0 PUSH2 0x100 DUP3 DUP5 SUB SLT ISZERO PUSH3 0x3F74 JUMPI PUSH1 0x0 DUP1 REVERT JUMPDEST PUSH3 0x3F81 PUSH2 0x100 PUSH3 0x59B2 JUMP JUMPDEST SWAP1 POP PUSH1 0x0 PUSH3 0x3F93 DUP5 DUP3 DUP6 ADD PUSH3 0x3BBB JUMP JUMPDEST PUSH1 0x0 DUP4 ADD MSTORE POP PUSH1 0x20 PUSH3 0x3FA9 DUP5 DUP3 DUP6 ADD PUSH3 0x3D4F JUMP JUMPDEST PUSH1 0x20 DUP4 ADD MSTORE POP PUSH1 0x40 PUSH3 0x3FBF DUP5 DUP3 DUP6 ADD PUSH3 0x4772 JUMP JUMPDEST PUSH1 0x40 DUP4 ADD MSTORE POP PUSH1 0x60 DUP3 ADD CALLDATALOAD PUSH8 0xFFFFFFFFFFFFFFFF DUP2 GT ISZERO PUSH3 0x3FE0 JUMPI PUSH1 0x0 DUP1 REVERT JUMPDEST PUSH3 0x3FEE DUP5 DUP3 DUP6 ADD PUSH3 0x3E26 JUMP JUMPDEST PUSH1 0x60 DUP4 ADD MSTORE POP PUSH1 0x80 PUSH3 0x4004 DUP5 DUP3 DUP6 ADD PUSH3 0x4772 JUMP JUMPDEST PUSH1 0x80 DUP4 ADD MSTORE POP PUSH1 0xA0 PUSH3 0x401A DUP5 DUP3 DUP6 ADD PUSH3 0x4772 JUMP JUMPDEST PUSH1 0xA0 DUP4 ADD MSTORE POP PUSH1 0xC0 PUSH3 0x4030 DUP5 DUP3 DUP6 ADD PUSH3 0x3D38 JUMP JUMPDEST PUSH1 0xC0 DUP4 ADD MSTORE POP PUSH1 0xE0 PUSH3 0x4046 DUP5 DUP3 DUP6 ADD PUSH3 0x3D21 JUMP JUMPDEST PUSH1 0xE0 DUP4 ADD MSTORE POP SWAP3 SWAP2 POP POP JUMP JUMPDEST PUSH1 0x0 PUSH2 0x180 DUP3 DUP5 SUB SLT ISZERO PUSH3 0x4066 JUMPI PUSH1 0x0 DUP1 REVERT JUMPDEST PUSH3 0x4073 PUSH2 0x180 PUSH3 0x59B2 JUMP JUMPDEST SWAP1 POP PUSH1 0x0 DUP3 ADD CALLDATALOAD PUSH8 0xFFFFFFFFFFFFFFFF DUP2 GT ISZERO PUSH3 0x4090 JUMPI PUSH1 0x0 DUP1 REVERT JUMPDEST PUSH3 0x409E DUP5 DUP3 DUP6 ADD PUSH3 0x3E26 JUMP JUMPDEST PUSH1 0x0 DUP4 ADD MSTORE POP PUSH1 0x20 DUP3 ADD CALLDATALOAD PUSH8 0xFFFFFFFFFFFFFFFF DUP2 GT ISZERO PUSH3 0x40BF JUMPI PUSH1 0x0 DUP1 REVERT JUMPDEST PUSH3 0x40CD DUP5 DUP3 DUP6 ADD PUSH3 0x3E26 JUMP JUMPDEST PUSH1 0x20 DUP4 ADD MSTORE POP PUSH1 0x40 DUP3 ADD CALLDATALOAD PUSH8 0xFFFFFFFFFFFFFFFF DUP2 GT ISZERO PUSH3 0x40EE JUMPI PUSH1 0x0 DUP1 REVERT JUMPDEST PUSH3 0x40FC DUP5 DUP3 DUP6 ADD PUSH3 0x3E26 JUMP JUMPDEST PUSH1 0x40 DUP4 ADD MSTORE POP PUSH1 0x60 PUSH3 0x4112 DUP5 DUP3 DUP6 ADD PUSH3 0x3D7D JUMP JUMPDEST PUSH1 0x60 DUP4 ADD MSTORE POP PUSH1 0x80 PUSH3 0x4128 DUP5 DUP3 DUP6 ADD PUSH3 0x3D66 JUMP JUMPDEST PUSH1 0x80 DUP4 ADD MSTORE POP PUSH1 0xA0 DUP3 ADD CALLDATALOAD PUSH8 0xFFFFFFFFFFFFFFFF DUP2 GT ISZERO PUSH3 0x4149 JUMPI PUSH1 0x0 DUP1 REVERT JUMPDEST PUSH3 0x4157 DUP5 DUP3 DUP6 ADD PUSH3 0x3E26 JUMP JUMPDEST PUSH1 0xA0 DUP4 ADD MSTORE POP PUSH1 0xC0 DUP3 ADD CALLDATALOAD PUSH8 0xFFFFFFFFFFFFFFFF DUP2 GT ISZERO PUSH3 0x4178 JUMPI PUSH1 0x0 DUP1 REVERT JUMPDEST PUSH3 0x4186 DUP5 DUP3 DUP6 ADD PUSH3 0x3E26 JUMP JUMPDEST PUSH1 0xC0 DUP4 ADD MSTORE POP PUSH1 0xE0 DUP3 ADD CALLDATALOAD PUSH8 0xFFFFFFFFFFFFFFFF DUP2 GT ISZERO PUSH3 0x41A7 JUMPI PUSH1 0x0 DUP1 REVERT JUMPDEST PUSH3 0x41B5 DUP5 DUP3 DUP6 ADD PUSH3 0x3F60 JUMP JUMPDEST PUSH1 0xE0 DUP4 ADD MSTORE POP PUSH2 0x100 PUSH3 0x41CC DUP5 DUP3 DUP6 ADD PUSH3 0x42BC JUMP JUMPDEST PUSH2 0x100 DUP4 ADD MSTORE POP PUSH2 0x120 DUP3 ADD CALLDATALOAD PUSH8 0xFFFFFFFFFFFFFFFF DUP2 GT ISZERO PUSH3 0x41EF JUMPI PUSH1 0x0 DUP1 REVERT JUMPDEST PUSH3 0x41FD DUP5 DUP3 DUP6 ADD PUSH3 0x46DA JUMP JUMPDEST PUSH2 0x120 DUP4 ADD MSTORE POP PUSH2 0x140 PUSH3 0x4215 DUP5 DUP3 DUP6 ADD PUSH3 0x4772 JUMP JUMPDEST PUSH2 0x140 DUP4 ADD MSTORE POP PUSH2 0x160 PUSH3 0x422D DUP5 DUP3 DUP6 ADD PUSH3 0x3BBB JUMP JUMPDEST PUSH2 0x160 DUP4 ADD MSTORE POP SWAP3 SWAP2 POP POP JUMP JUMPDEST PUSH1 0x0 PUSH1 0x60 DUP3 DUP5 SUB SLT ISZERO PUSH3 0x424D JUMPI PUSH1 0x0 DUP1 REVERT JUMPDEST PUSH3 0x4259 PUSH1 0x60 PUSH3 0x59B2 JUMP JUMPDEST SWAP1 POP PUSH1 0x0 PUSH3 0x426B DUP5 DUP3 DUP6 ADD PUSH3 0x3DAB JUMP JUMPDEST PUSH1 0x0 DUP4 ADD MSTORE POP PUSH1 0x20 PUSH3 0x4281 DUP5 DUP3 DUP6 ADD PUSH3 0x4789 JUMP JUMPDEST PUSH1 0x20 DUP4 ADD MSTORE POP PUSH1 0x40 DUP3 ADD MLOAD PUSH8 0xFFFFFFFFFFFFFFFF DUP2 GT ISZERO PUSH3 0x42A2 JUMPI PUSH1 0x0 DUP1 REVERT JUMPDEST PUSH3 0x42B0 DUP5 DUP3 DUP6 ADD PUSH3 0x3C00 JUMP JUMPDEST PUSH1 0x40 DUP4 ADD MSTORE POP SWAP3 SWAP2 POP POP JUMP JUMPDEST PUSH1 0x0 PUSH1 0x20 DUP3 DUP5 SUB SLT ISZERO PUSH3 0x42CF JUMPI PUSH1 0x0 DUP1 REVERT JUMPDEST PUSH3 0x42DB PUSH1 0x20 PUSH3 0x59B2 JUMP JUMPDEST SWAP1 POP PUSH1 0x0 PUSH3 0x42ED DUP5 DUP3 DUP6 ADD PUSH3 0x3D94 JUMP JUMPDEST PUSH1 0x0 DUP4 ADD MSTORE POP SWAP3 SWAP2 POP POP JUMP JUMPDEST PUSH1 0x0 PUSH1 0x80 DUP3 DUP5 SUB SLT ISZERO PUSH3 0x430C JUMPI PUSH1 0x0 DUP1 REVERT JUMPDEST PUSH3 0x4318 PUSH1 0x80 PUSH3 0x59B2 JUMP JUMPDEST SWAP1 POP PUSH1 0x0 DUP3 ADD MLOAD PUSH8 0xFFFFFFFFFFFFFFFF DUP2 GT ISZERO PUSH3 0x4335 JUMPI PUSH1 0x0 DUP1 REVERT JUMPDEST PUSH3 0x4343 DUP5 DUP3 DUP6 ADD PUSH3 0x3E82 JUMP JUMPDEST PUSH1 0x0 DUP4 ADD MSTORE POP PUSH1 0x20 DUP3 ADD MLOAD PUSH8 0xFFFFFFFFFFFFFFFF DUP2 GT ISZERO PUSH3 0x4364 JUMPI PUSH1 0x0 DUP1 REVERT JUMPDEST PUSH3 0x4372 DUP5 DUP3 DUP6 ADD PUSH3 0x43DC JUMP JUMPDEST PUSH1 0x20 DUP4 ADD MSTORE POP PUSH1 0x40 DUP3 ADD MLOAD PUSH8 0xFFFFFFFFFFFFFFFF DUP2 GT ISZERO PUSH3 0x4393 JUMPI PUSH1 0x0 DUP1 REVERT JUMPDEST PUSH3 0x43A1 DUP5 DUP3 DUP6 ADD PUSH3 0x423A JUMP JUMPDEST PUSH1 0x40 DUP4 ADD MSTORE POP PUSH1 0x60 DUP3 ADD MLOAD PUSH8 0xFFFFFFFFFFFFFFFF DUP2 GT ISZERO PUSH3 0x43C2 JUMPI PUSH1 0x0 DUP1 REVERT JUMPDEST PUSH3 0x43D0 DUP5 DUP3 DUP6 ADD PUSH3 0x459C JUMP JUMPDEST PUSH1 0x60 DUP4 ADD MSTORE POP SWAP3 SWAP2 POP POP JUMP JUMPDEST PUSH1 0x0 PUSH1 0x80 DUP3 DUP5 SUB SLT ISZERO PUSH3 0x43EF JUMPI PUSH1 0x0 DUP1 REVERT JUMPDEST PUSH3 0x43FB PUSH1 0x80 PUSH3 0x59B2 JUMP JUMPDEST SWAP1 POP PUSH1 0x0 DUP3 ADD MLOAD PUSH8 0xFFFFFFFFFFFFFFFF DUP2 GT ISZERO PUSH3 0x4418 JUMPI PUSH1 0x0 DUP1 REVERT JUMPDEST PUSH3 0x4426 DUP5 DUP3 DUP6 ADD PUSH3 0x3E82 JUMP JUMPDEST PUSH1 0x0 DUP4 ADD MSTORE POP PUSH1 0x20 DUP3 ADD MLOAD PUSH8 0xFFFFFFFFFFFFFFFF DUP2 GT ISZERO PUSH3 0x4447 JUMPI PUSH1 0x0 DUP1 REVERT JUMPDEST PUSH3 0x4455 DUP5 DUP3 DUP6 ADD PUSH3 0x3E82 JUMP JUMPDEST PUSH1 0x20 DUP4 ADD MSTORE POP PUSH1 0x40 DUP3 ADD MLOAD PUSH8 0xFFFFFFFFFFFFFFFF DUP2 GT ISZERO PUSH3 0x4476 JUMPI PUSH1 0x0 DUP1 REVERT JUMPDEST PUSH3 0x4484 DUP5 DUP3 DUP6 ADD PUSH3 0x3E82 JUMP JUMPDEST PUSH1 0x40 DUP4 ADD MSTORE POP PUSH1 0x60 DUP3 ADD MLOAD PUSH8 0xFFFFFFFFFFFFFFFF DUP2 GT ISZERO PUSH3 0x44A5 JUMPI PUSH1 0x0 DUP1 REVERT JUMPDEST PUSH3 0x44B3 DUP5 DUP3 DUP6 ADD PUSH3 0x3C00 JUMP JUMPDEST PUSH1 0x60 DUP4 ADD MSTORE POP SWAP3 SWAP2 POP POP JUMP JUMPDEST PUSH1 0x0 PUSH1 0xC0 DUP3 DUP5 SUB SLT ISZERO PUSH3 0x44D2 JUMPI PUSH1 0x0 DUP1 REVERT JUMPDEST PUSH3 0x44DE PUSH1 0xC0 PUSH3 0x59B2 JUMP JUMPDEST SWAP1 POP PUSH1 0x0 DUP3 ADD CALLDATALOAD PUSH8 0xFFFFFFFFFFFFFFFF DUP2 GT ISZERO PUSH3 0x44FB JUMPI PUSH1 0x0 DUP1 REVERT JUMPDEST PUSH3 0x4509 DUP5 DUP3 DUP6 ADD PUSH3 0x3E26 JUMP JUMPDEST PUSH1 0x0 DUP4 ADD MSTORE POP PUSH1 0x20 DUP3 ADD CALLDATALOAD PUSH8 0xFFFFFFFFFFFFFFFF DUP2 GT ISZERO PUSH3 0x452A JUMPI PUSH1 0x0 DUP1 REVERT JUMPDEST PUSH3 0x4538 DUP5 DUP3 DUP6 ADD PUSH3 0x3E26 JUMP JUMPDEST PUSH1 0x20 DUP4 ADD MSTORE POP PUSH1 0x40 PUSH3 0x454E DUP5 DUP3 DUP6 ADD PUSH3 0x3BBB JUMP JUMPDEST PUSH1 0x40 DUP4 ADD MSTORE POP PUSH1 0x60 PUSH3 0x4564 DUP5 DUP3 DUP6 ADD PUSH3 0x4772 JUMP JUMPDEST PUSH1 0x60 DUP4 ADD MSTORE POP PUSH1 0x80 PUSH3 0x457A DUP5 DUP3 DUP6 ADD PUSH3 0x4772 JUMP JUMPDEST PUSH1 0x80 DUP4 ADD MSTORE POP PUSH1 0xA0 PUSH3 0x4590 DUP5 DUP3 DUP6 ADD PUSH3 0x4772 JUMP JUMPDEST PUSH1 0xA0 DUP4 ADD MSTORE POP SWAP3 SWAP2 POP POP JUMP JUMPDEST PUSH1 0x0 PUSH1 0xE0 DUP3 DUP5 SUB SLT ISZERO PUSH3 0x45AF JUMPI PUSH1 0x0 DUP1 REVERT JUMPDEST PUSH3 0x45BB PUSH1 0xE0 PUSH3 0x59B2 JUMP JUMPDEST SWAP1 POP PUSH1 0x0 PUSH3 0x45CD DUP5 DUP3 DUP6 ADD PUSH3 0x3DC2 JUMP JUMPDEST PUSH1 0x0 DUP4 ADD MSTORE POP PUSH1 0x20 DUP3 ADD MLOAD PUSH8 0xFFFFFFFFFFFFFFFF DUP2 GT ISZERO PUSH3 0x45EE JUMPI PUSH1 0x0 DUP1 REVERT JUMPDEST PUSH3 0x45FC DUP5 DUP3 DUP6 ADD PUSH3 0x3E82 JUMP JUMPDEST PUSH1 0x20 DUP4 ADD MSTORE POP PUSH1 0x40 DUP3 ADD MLOAD PUSH8 0xFFFFFFFFFFFFFFFF DUP2 GT ISZERO PUSH3 0x461D JUMPI PUSH1 0x0 DUP1 REVERT JUMPDEST PUSH3 0x462B DUP5 DUP3 DUP6 ADD PUSH3 0x3C00 JUMP JUMPDEST PUSH1 0x40 DUP4 ADD MSTORE POP PUSH1 0x60 PUSH3 0x4641 DUP5 DUP3 DUP6 ADD PUSH3 0x4789 JUMP JUMPDEST PUSH1 0x60 DUP4 ADD MSTORE POP PUSH1 0x80 DUP3 ADD MLOAD PUSH8 0xFFFFFFFFFFFFFFFF DUP2 GT ISZERO PUSH3 0x4662 JUMPI PUSH1 0x0 DUP1 REVERT JUMPDEST PUSH3 0x4670 DUP5 DUP3 DUP6 ADD PUSH3 0x3E82 JUMP JUMPDEST PUSH1 0x80 DUP4 ADD MSTORE POP PUSH1 0xA0 DUP3 ADD MLOAD PUSH8 0xFFFFFFFFFFFFFFFF DUP2 GT ISZERO PUSH3 0x4691 JUMPI PUSH1 0x0 DUP1 REVERT JUMPDEST PUSH3 0x469F DUP5 DUP3 DUP6 ADD PUSH3 0x3E82 JUMP JUMPDEST PUSH1 0xA0 DUP4 ADD MSTORE POP PUSH1 0xC0 DUP3 ADD MLOAD PUSH8 0xFFFFFFFFFFFFFFFF DUP2 GT ISZERO PUSH3 0x46C0 JUMPI PUSH1 0x0 DUP1 REVERT JUMPDEST PUSH3 0x46CE DUP5 DUP3 DUP6 ADD PUSH3 0x3E82 JUMP JUMPDEST PUSH1 0xC0 DUP4 ADD MSTORE POP SWAP3 SWAP2 POP POP JUMP JUMPDEST PUSH1 0x0 PUSH1 0x80 DUP3 DUP5 SUB SLT ISZERO PUSH3 0x46ED JUMPI PUSH1 0x0 DUP1 REVERT JUMPDEST PUSH3 0x46F9 PUSH1 0x80 PUSH3 0x59B2 JUMP JUMPDEST SWAP1 POP PUSH1 0x0 PUSH3 0x470B DUP5 DUP3 DUP6 ADD PUSH3 0x4772 JUMP JUMPDEST PUSH1 0x0 DUP4 ADD MSTORE POP PUSH1 0x20 DUP3 ADD CALLDATALOAD PUSH8 0xFFFFFFFFFFFFFFFF DUP2 GT ISZERO PUSH3 0x472C JUMPI PUSH1 0x0 DUP1 REVERT JUMPDEST PUSH3 0x473A DUP5 DUP3 DUP6 ADD PUSH3 0x3E26 JUMP JUMPDEST PUSH1 0x20 DUP4 ADD MSTORE POP PUSH1 0x40 PUSH3 0x4750 DUP5 DUP3 DUP6 ADD PUSH3 0x4772 JUMP JUMPDEST PUSH1 0x40 DUP4 ADD MSTORE POP PUSH1 0x60 PUSH3 0x4766 DUP5 DUP3 DUP6 ADD PUSH3 0x4772 JUMP JUMPDEST PUSH1 0x60 DUP4 ADD MSTORE POP SWAP3 SWAP2 POP POP JUMP JUMPDEST PUSH1 0x0 DUP2 CALLDATALOAD SWAP1 POP PUSH3 0x4783 DUP2 PUSH3 0x5E07 JUMP JUMPDEST SWAP3 SWAP2 POP POP JUMP JUMPDEST PUSH1 0x0 DUP2 MLOAD SWAP1 POP PUSH3 0x479A DUP2 PUSH3 0x5E07 JUMP JUMPDEST SWAP3 SWAP2 POP POP JUMP JUMPDEST PUSH1 0x0 PUSH1 0x20 DUP3 DUP5 SUB SLT ISZERO PUSH3 0x47B3 JUMPI PUSH1 0x0 DUP1 REVERT JUMPDEST PUSH1 0x0 PUSH3 0x47C3 DUP5 DUP3 DUP6 ADD PUSH3 0x3BBB JUMP JUMPDEST SWAP2 POP POP SWAP3 SWAP2 POP POP JUMP JUMPDEST PUSH1 0x0 PUSH1 0x20 DUP3 DUP5 SUB SLT ISZERO PUSH3 0x47DF JUMPI PUSH1 0x0 DUP1 REVERT JUMPDEST PUSH1 0x0 PUSH3 0x47EF DUP5 DUP3 DUP6 ADD PUSH3 0x3BE9 JUMP JUMPDEST SWAP2 POP POP SWAP3 SWAP2 POP POP JUMP JUMPDEST PUSH1 0x0 PUSH1 0x20 DUP3 DUP5 SUB SLT ISZERO PUSH3 0x480B JUMPI PUSH1 0x0 DUP1 REVERT JUMPDEST PUSH1 0x0 PUSH3 0x481B DUP5 DUP3 DUP6 ADD PUSH3 0x3D0A JUMP JUMPDEST SWAP2 POP POP SWAP3 SWAP2 POP POP JUMP JUMPDEST PUSH1 0x0 DUP1 PUSH1 0x20 DUP4 DUP6 SUB SLT ISZERO PUSH3 0x4838 JUMPI PUSH1 0x0 DUP1 REVERT JUMPDEST PUSH1 0x0 DUP4 ADD CALLDATALOAD PUSH8 0xFFFFFFFFFFFFFFFF DUP2 GT ISZERO PUSH3 0x4853 JUMPI PUSH1 0x0 DUP1 REVERT JUMPDEST PUSH3 0x4861 DUP6 DUP3 DUP7 ADD PUSH3 0x3DD9 JUMP JUMPDEST SWAP3 POP SWAP3 POP POP SWAP3 POP SWAP3 SWAP1 POP JUMP JUMPDEST PUSH1 0x0 DUP1 PUSH1 0x0 DUP1 PUSH1 0x40 DUP6 DUP8 SUB SLT ISZERO PUSH3 0x4884 JUMPI PUSH1 0x0 DUP1 REVERT JUMPDEST PUSH1 0x0 DUP6 ADD CALLDATALOAD PUSH8 0xFFFFFFFFFFFFFFFF DUP2 GT ISZERO PUSH3 0x489F JUMPI PUSH1 0x0 DUP1 REVERT JUMPDEST PUSH3 0x48AD DUP8 DUP3 DUP9 ADD PUSH3 0x3DD9 JUMP JUMPDEST SWAP5 POP SWAP5 POP POP PUSH1 0x20 DUP6 ADD CALLDATALOAD PUSH8 0xFFFFFFFFFFFFFFFF DUP2 GT ISZERO PUSH3 0x48CD JUMPI PUSH1 0x0 DUP1 REVERT JUMPDEST PUSH3 0x48DB DUP8 DUP3 DUP9 ADD PUSH3 0x3DD9 JUMP JUMPDEST SWAP3 POP SWAP3 POP POP SWAP3 SWAP6 SWAP2 SWAP5 POP SWAP3 POP JUMP JUMPDEST PUSH1 0x0 DUP1 PUSH1 0x0 DUP1 PUSH1 0x0 PUSH1 0x60 DUP7 DUP9 SUB SLT ISZERO PUSH3 0x4902 JUMPI PUSH1 0x0 DUP1 REVERT JUMPDEST PUSH1 0x0 DUP7 ADD CALLDATALOAD PUSH8 0xFFFFFFFFFFFFFFFF DUP2 GT ISZERO PUSH3 0x491D JUMPI PUSH1 0x0 DUP1 REVERT JUMPDEST PUSH3 0x492B DUP9 DUP3 DUP10 ADD PUSH3 0x3DD9 JUMP JUMPDEST SWAP6 POP SWAP6 POP POP PUSH1 0x20 DUP7 ADD CALLDATALOAD PUSH8 0xFFFFFFFFFFFFFFFF DUP2 GT ISZERO PUSH3 0x494B JUMPI PUSH1 0x0 DUP1 REVERT JUMPDEST PUSH3 0x4959 DUP9 DUP3 DUP10 ADD PUSH3 0x3DD9 JUMP JUMPDEST SWAP4 POP SWAP4 POP POP PUSH1 0x40 PUSH3 0x496E DUP9 DUP3 DUP10 ADD PUSH3 0x3D7D JUMP JUMPDEST SWAP2 POP POP SWAP3 SWAP6 POP SWAP3 SWAP6 SWAP1 SWAP4 POP JUMP JUMPDEST PUSH1 0x0 DUP1 PUSH1 0x40 DUP4 DUP6 SUB SLT ISZERO PUSH3 0x498F JUMPI PUSH1 0x0 DUP1 REVERT JUMPDEST PUSH1 0x0 DUP4 ADD CALLDATALOAD PUSH8 0xFFFFFFFFFFFFFFFF DUP2 GT ISZERO PUSH3 0x49AA JUMPI PUSH1 0x0 DUP1 REVERT JUMPDEST PUSH3 0x49B8 DUP6 DUP3 DUP7 ADD PUSH3 0x4052 JUMP JUMPDEST SWAP3 POP POP PUSH1 0x20 DUP4 ADD CALLDATALOAD PUSH8 0xFFFFFFFFFFFFFFFF DUP2 GT ISZERO PUSH3 0x49D6 JUMPI PUSH1 0x0 DUP1 REVERT JUMPDEST PUSH3 0x49E4 DUP6 DUP3 DUP7 ADD PUSH3 0x3C8D JUMP JUMPDEST SWAP2 POP POP SWAP3 POP SWAP3 SWAP1 POP JUMP JUMPDEST PUSH1 0x0 PUSH1 0x20 DUP3 DUP5 SUB SLT ISZERO PUSH3 0x4A01 JUMPI PUSH1 0x0 DUP1 REVERT JUMPDEST PUSH1 0x0 DUP3 ADD MLOAD PUSH8 0xFFFFFFFFFFFFFFFF DUP2 GT ISZERO PUSH3 0x4A1C JUMPI PUSH1 0x0 DUP1 REVERT JUMPDEST PUSH3 0x4A2A DUP5 DUP3 DUP6 ADD PUSH3 0x42F9 JUMP JUMPDEST SWAP2 POP POP SWAP3 SWAP2 POP POP JUMP JUMPDEST PUSH1 0x0 PUSH1 0x20 DUP3 DUP5 SUB SLT ISZERO PUSH3 0x4A46 JUMPI PUSH1 0x0 DUP1 REVERT JUMPDEST PUSH1 0x0 DUP3 ADD CALLDATALOAD PUSH8 0xFFFFFFFFFFFFFFFF DUP2 GT ISZERO PUSH3 0x4A61 JUMPI PUSH1 0x0 DUP1 REVERT JUMPDEST PUSH3 0x4A6F DUP5 DUP3 DUP6 ADD PUSH3 0x44BF JUMP JUMPDEST SWAP2 POP POP SWAP3 SWAP2 POP POP JUMP JUMPDEST PUSH1 0x0 PUSH1 0x20 DUP3 DUP5 SUB SLT ISZERO PUSH3 0x4A8B JUMPI PUSH1 0x0 DUP1 REVERT JUMPDEST PUSH1 0x0 PUSH3 0x4A9B DUP5 DUP3 DUP6 ADD PUSH3 0x4789 JUMP JUMPDEST SWAP2 POP POP SWAP3 SWAP2 POP POP JUMP JUMPDEST PUSH1 0x0 PUSH3 0x4AB2 DUP4 DUP4 PUSH3 0x51E1 JUMP JUMPDEST SWAP1 POP SWAP3 SWAP2 POP POP JUMP JUMPDEST PUSH3 0x4AC5 DUP2 PUSH3 0x5BC6 JUMP JUMPDEST DUP3 MSTORE POP POP JUMP JUMPDEST PUSH3 0x4AD6 DUP2 PUSH3 0x5AEC JUMP JUMPDEST DUP3 MSTORE POP POP JUMP JUMPDEST PUSH3 0x4AE7 DUP2 PUSH3 0x5AEC JUMP JUMPDEST DUP3 MSTORE POP POP JUMP JUMPDEST PUSH1 0x0 PUSH3 0x4AFA DUP3 PUSH3 0x5A6F JUMP JUMPDEST PUSH3 0x4B06 DUP2 DUP6 PUSH3 0x5A9D JUMP JUMPDEST SWAP4 POP DUP4 PUSH1 0x20 DUP3 MUL DUP6 ADD PUSH3 0x4B1A DUP6 PUSH3 0x5A5F JUMP JUMPDEST DUP1 PUSH1 0x0 JUMPDEST DUP6 DUP2 LT ISZERO PUSH3 0x4B5C JUMPI DUP5 DUP5 SUB DUP10 MSTORE DUP2 MLOAD PUSH3 0x4B3A DUP6 DUP3 PUSH3 0x4AA4 JUMP JUMPDEST SWAP5 POP PUSH3 0x4B47 DUP4 PUSH3 0x5A90 JUMP JUMPDEST SWAP3 POP PUSH1 0x20 DUP11 ADD SWAP10 POP POP PUSH1 0x1 DUP2 ADD SWAP1 POP PUSH3 0x4B1E JUMP JUMPDEST POP DUP3 SWAP8 POP DUP8 SWAP6 POP POP POP POP POP POP SWAP3 SWAP2 POP POP JUMP JUMPDEST PUSH3 0x4B79 DUP2 PUSH3 0x5BDA JUMP JUMPDEST DUP3 MSTORE POP POP JUMP JUMPDEST PUSH3 0x4B8A DUP2 PUSH3 0x5C02 JUMP JUMPDEST DUP3 MSTORE POP POP JUMP JUMPDEST PUSH3 0x4B9B DUP2 PUSH3 0x5C02 JUMP JUMPDEST DUP3 MSTORE POP POP JUMP JUMPDEST PUSH3 0x4BAC DUP2 PUSH3 0x5C2A JUMP JUMPDEST DUP3 MSTORE POP POP JUMP JUMPDEST PUSH3 0x4BBD DUP2 PUSH3 0x5C3E JUMP JUMPDEST DUP3 MSTORE POP POP JUMP JUMPDEST PUSH3 0x4BCE DUP2 PUSH3 0x5C52 JUMP JUMPDEST DUP3 MSTORE POP POP JUMP JUMPDEST PUSH3 0x4BDF DUP2 PUSH3 0x5C52 JUMP JUMPDEST DUP3 MSTORE POP POP JUMP JUMPDEST PUSH3 0x4BF0 DUP2 PUSH3 0x5C66 JUMP JUMPDEST DUP3 MSTORE POP POP JUMP JUMPDEST PUSH1 0x0 PUSH3 0x4C04 DUP4 DUP6 PUSH3 0x5AE1 JUMP JUMPDEST SWAP4 POP PUSH3 0x4C13 DUP4 DUP6 DUP5 PUSH3 0x5CA2 JUMP JUMPDEST DUP3 DUP5 ADD SWAP1 POP SWAP4 SWAP3 POP POP POP JUMP JUMPDEST PUSH1 0x0 PUSH3 0x4C2C DUP3 PUSH3 0x5A85 JUMP JUMPDEST PUSH3 0x4C38 DUP2 DUP6 PUSH3 0x5ABF JUMP JUMPDEST SWAP4 POP PUSH3 0x4C4A DUP2 DUP6 PUSH1 0x20 DUP7 ADD PUSH3 0x5CB1 JUMP JUMPDEST PUSH3 0x4C55 DUP2 PUSH3 0x5CE7 JUMP JUMPDEST DUP5 ADD SWAP2 POP POP SWAP3 SWAP2 POP POP JUMP JUMPDEST PUSH1 0x0 PUSH3 0x4C6D DUP3 PUSH3 0x5A85 JUMP JUMPDEST PUSH3 0x4C79 DUP2 DUP6 PUSH3 0x5AE1 JUMP JUMPDEST SWAP4 POP PUSH3 0x4C8B DUP2 DUP6 PUSH1 0x20 DUP7 ADD PUSH3 0x5CB1 JUMP JUMPDEST DUP1 DUP5 ADD SWAP2 POP POP SWAP3 SWAP2 POP POP JUMP JUMPDEST PUSH1 0x0 PUSH3 0x4CA4 DUP3 PUSH3 0x5A7A JUMP JUMPDEST PUSH3 0x4CB0 DUP2 DUP6 PUSH3 0x5AAE JUMP JUMPDEST SWAP4 POP PUSH3 0x4CC2 DUP2 DUP6 PUSH1 0x20 DUP7 ADD PUSH3 0x5CB1 JUMP JUMPDEST PUSH3 0x4CCD DUP2 PUSH3 0x5CE7 JUMP JUMPDEST DUP5 ADD SWAP2 POP POP SWAP3 SWAP2 POP POP JUMP JUMPDEST PUSH1 0x0 PUSH3 0x4CE5 DUP3 PUSH3 0x5A7A JUMP JUMPDEST PUSH3 0x4CF1 DUP2 DUP6 PUSH3 0x5ABF JUMP JUMPDEST SWAP4 POP PUSH3 0x4D03 DUP2 DUP6 PUSH1 0x20 DUP7 ADD PUSH3 0x5CB1 JUMP JUMPDEST PUSH3 0x4D0E DUP2 PUSH3 0x5CE7 JUMP JUMPDEST DUP5 ADD SWAP2 POP POP SWAP3 SWAP2 POP POP JUMP JUMPDEST PUSH1 0x0 PUSH3 0x4D26 DUP3 PUSH3 0x5A7A JUMP JUMPDEST PUSH3 0x4D32 DUP2 DUP6 PUSH3 0x5AD0 JUMP JUMPDEST SWAP4 POP PUSH3 0x4D44 DUP2 DUP6 PUSH1 0x20 DUP7 ADD PUSH3 0x5CB1 JUMP JUMPDEST PUSH3 0x4D4F DUP2 PUSH3 0x5CE7 JUMP JUMPDEST DUP5 ADD SWAP2 POP POP SWAP3 SWAP2 POP POP JUMP JUMPDEST PUSH1 0x0 PUSH3 0x4D67 DUP3 PUSH3 0x5A7A JUMP JUMPDEST PUSH3 0x4D73 DUP2 DUP6 PUSH3 0x5AE1 JUMP JUMPDEST SWAP4 POP PUSH3 0x4D85 DUP2 DUP6 PUSH1 0x20 DUP7 ADD PUSH3 0x5CB1 JUMP JUMPDEST DUP1 DUP5 ADD SWAP2 POP POP SWAP3 SWAP2 POP POP JUMP JUMPDEST PUSH1 0x0 PUSH3 0x4DA0 PUSH1 0x11 DUP4 PUSH3 0x5ABF JUMP JUMPDEST SWAP2 POP PUSH32 0x70726F706F73616C206D697373696E672E000000000000000000000000000000 PUSH1 0x0 DUP4 ADD MSTORE PUSH1 0x20 DUP3 ADD SWAP1 POP SWAP2 SWAP1 POP JUMP JUMPDEST PUSH1 0x0 PUSH3 0x4DE2 PUSH1 0x18 DUP4 PUSH3 0x5ABF JUMP JUMPDEST SWAP2 POP PUSH32 0x626173652073657474696E67206E6F74206578697374732E0000000000000000 PUSH1 0x0 DUP4 ADD MSTORE PUSH1 0x20 DUP3 ADD SWAP1 POP SWAP2 SWAP1 POP JUMP JUMPDEST PUSH1 0x0 PUSH3 0x4E24 PUSH1 0x1C DUP4 PUSH3 0x5ABF JUMP JUMPDEST SWAP2 POP PUSH32 0x70726F706F7365722073657474696E67206E6F74206578697374732E00000000 PUSH1 0x0 DUP4 ADD MSTORE PUSH1 0x20 DUP3 ADD SWAP1 POP SWAP2 SWAP1 POP JUMP JUMPDEST PUSH1 0x0 PUSH3 0x4E66 PUSH1 0x1A DUP4 PUSH3 0x5ABF JUMP JUMPDEST SWAP2 POP PUSH32 0x70726F706F73616C20646973636F496420697320656D70747921000000000000 PUSH1 0x0 DUP4 ADD MSTORE PUSH1 0x20 DUP3 ADD SWAP1 POP SWAP2 SWAP1 POP JUMP JUMPDEST PUSH1 0x0 PUSH3 0x4EA8 PUSH1 0x12 DUP4 PUSH3 0x5ABF JUMP JUMPDEST SWAP2 POP PUSH32 0x646973636F20696420697320656D707479210000000000000000000000000000 PUSH1 0x0 DUP4 ADD MSTORE PUSH1 0x20 DUP3 ADD SWAP1 POP SWAP2 SWAP1 POP JUMP JUMPDEST PUSH1 0x0 PUSH3 0x4EEA PUSH1 0x15 DUP4 PUSH3 0x5ABF JUMP JUMPDEST SWAP2 POP PUSH32 0x69726F206164647265737320697320656D7074792E0000000000000000000000 PUSH1 0x0 DUP4 ADD MSTORE PUSH1 0x20 DUP3 ADD SWAP1 POP SWAP2 SWAP1 POP JUMP JUMPDEST PUSH1 0x0 PUSH3 0x4F2C PUSH1 0x1E DUP4 PUSH3 0x5ABF JUMP JUMPDEST SWAP2 POP PUSH32 0x6120696E76616C696420766F74652C20766F7465206E756D203C3D20302E0000 PUSH1 0x0 DUP4 ADD MSTORE PUSH1 0x20 DUP3 ADD SWAP1 POP SWAP2 SWAP1 POP JUMP JUMPDEST PUSH1 0x0 PUSH3 0x4F6E PUSH1 0x23 DUP4 PUSH3 0x5ABF JUMP JUMPDEST SWAP2 POP PUSH32 0x7468652070726F706F73616C20636F756C64206E6F742062652072656C656173 PUSH1 0x0 DUP4 ADD MSTORE PUSH32 0x65642E0000000000000000000000000000000000000000000000000000000000 PUSH1 0x20 DUP4 ADD MSTORE PUSH1 0x40 DUP3 ADD SWAP1 POP SWAP2 SWAP1 POP JUMP JUMPDEST PUSH1 0x0 PUSH3 0x4FD6 PUSH1 0x1E DUP4 PUSH3 0x5ABF JUMP JUMPDEST SWAP2 POP PUSH32 0x70726F706F73616C206D697373696E672C20636865636B2066697273742E0000 PUSH1 0x0 DUP4 ADD MSTORE PUSH1 0x20 DUP3 ADD SWAP1 POP SWAP2 SWAP1 POP JUMP JUMPDEST PUSH1 0x0 PUSH3 0x5018 PUSH1 0x3F DUP4 PUSH3 0x5ABF JUMP JUMPDEST SWAP2 POP PUSH32 0x70726F706F73616C20616C7265616479206578697374732C20706C6561736520 PUSH1 0x0 DUP4 ADD MSTORE PUSH32 0x7265706C61636520776974682074686520636F6E7472616374206F776E657200 PUSH1 0x20 DUP4 ADD MSTORE PUSH1 0x40 DUP3 ADD SWAP1 POP SWAP2 SWAP1 POP JUMP JUMPDEST PUSH1 0x0 PUSH3 0x5080 PUSH1 0x1B DUP4 PUSH3 0x5ABF JUMP JUMPDEST SWAP2 POP PUSH32 0x70726F706F73616C2073657269616C496420697320656D707479210000000000 PUSH1 0x0 DUP4 ADD MSTORE PUSH1 0x20 DUP3 ADD SWAP1 POP SWAP2 SWAP1 POP JUMP JUMPDEST PUSH1 0x0 PUSH3 0x50C2 PUSH1 0x10 DUP4 PUSH3 0x5ABF JUMP JUMPDEST SWAP2 POP PUSH32 0x766F746520697320657870697265642E00000000000000000000000000000000 PUSH1 0x0 DUP4 ADD MSTORE PUSH1 0x20 DUP3 ADD SWAP1 POP SWAP2 SWAP1 POP JUMP JUMPDEST PUSH1 0x0 PUSH3 0x5104 PUSH1 0x19 DUP4 PUSH3 0x5ABF JUMP JUMPDEST SWAP2 POP PUSH32 0x766F7465722073657474696E67206E6F74206578697374732E00000000000000 PUSH1 0x0 DUP4 ADD MSTORE PUSH1 0x20 DUP3 ADD SWAP1 POP SWAP2 SWAP1 POP JUMP JUMPDEST PUSH1 0x0 PUSH3 0x5146 PUSH1 0x1 DUP4 PUSH3 0x5AE1 JUMP JUMPDEST SWAP2 POP PUSH32 0x4000000000000000000000000000000000000000000000000000000000000000 PUSH1 0x0 DUP4 ADD MSTORE PUSH1 0x1 DUP3 ADD SWAP1 POP SWAP2 SWAP1 POP JUMP JUMPDEST PUSH1 0x0 PUSH3 0x5188 PUSH1 0x3A DUP4 PUSH3 0x5ABF JUMP JUMPDEST SWAP2 POP PUSH32 0x7468652070726F706F73616C20636F756C64206E6F7420626520766F74656420 PUSH1 0x0 DUP4 ADD MSTORE PUSH32 0x7768656E20737461747573206973206E6F7420766F74696E672E000000000000 PUSH1 0x20 DUP4 ADD MSTORE PUSH1 0x40 DUP3 ADD SWAP1 POP SWAP2 SWAP1 POP JUMP JUMPDEST PUSH1 0x0 PUSH1 0x60 DUP4 ADD PUSH1 0x0 DUP4 ADD MLOAD PUSH3 0x51FB PUSH1 0x0 DUP7 ADD DUP3 PUSH3 0x5562 JUMP JUMPDEST POP PUSH1 0x20 DUP4 ADD MLOAD PUSH3 0x5210 PUSH1 0x20 DUP7 ADD DUP3 PUSH3 0x5562 JUMP JUMPDEST POP PUSH1 0x40 DUP4 ADD MLOAD DUP5 DUP3 SUB PUSH1 0x40 DUP7 ADD MSTORE PUSH3 0x522A DUP3 DUP3 PUSH3 0x4C97 JUMP JUMPDEST SWAP2 POP POP DUP1 SWAP2 POP POP SWAP3 SWAP2 POP POP JUMP JUMPDEST PUSH1 0x0 PUSH2 0x100 DUP4 ADD PUSH1 0x0 DUP4 ADD MLOAD PUSH3 0x5252 PUSH1 0x0 DUP7 ADD DUP3 PUSH3 0x4ACB JUMP JUMPDEST POP PUSH1 0x20 DUP4 ADD MLOAD PUSH3 0x5267 PUSH1 0x20 DUP7 ADD DUP3 PUSH3 0x4BA1 JUMP JUMPDEST POP PUSH1 0x40 DUP4 ADD MLOAD PUSH3 0x527C PUSH1 0x40 DUP7 ADD DUP3 PUSH3 0x5562 JUMP JUMPDEST POP PUSH1 0x60 DUP4 ADD MLOAD DUP5 DUP3 SUB PUSH1 0x60 DUP7 ADD MSTORE PUSH3 0x5296 DUP3 DUP3 PUSH3 0x4C97 JUMP JUMPDEST SWAP2 POP POP PUSH1 0x80 DUP4 ADD MLOAD PUSH3 0x52AD PUSH1 0x80 DUP7 ADD DUP3 PUSH3 0x5562 JUMP JUMPDEST POP PUSH1 0xA0 DUP4 ADD MLOAD PUSH3 0x52C2 PUSH1 0xA0 DUP7 ADD DUP3 PUSH3 0x5562 JUMP JUMPDEST POP PUSH1 0xC0 DUP4 ADD MLOAD PUSH3 0x52D7 PUSH1 0xC0 DUP7 ADD DUP3 PUSH3 0x4B7F JUMP JUMPDEST POP PUSH1 0xE0 DUP4 ADD MLOAD PUSH3 0x52EC PUSH1 0xE0 DUP7 ADD DUP3 PUSH3 0x4B6E JUMP JUMPDEST POP DUP1 SWAP2 POP POP SWAP3 SWAP2 POP POP JUMP JUMPDEST PUSH1 0x0 PUSH2 0x180 DUP4 ADD PUSH1 0x0 DUP4 ADD MLOAD DUP5 DUP3 SUB PUSH1 0x0 DUP7 ADD MSTORE PUSH3 0x5317 DUP3 DUP3 PUSH3 0x4C97 JUMP JUMPDEST SWAP2 POP POP PUSH1 0x20 DUP4 ADD MLOAD DUP5 DUP3 SUB PUSH1 0x20 DUP7 ADD MSTORE PUSH3 0x5333 DUP3 DUP3 PUSH3 0x4C97 JUMP JUMPDEST SWAP2 POP POP PUSH1 0x40 DUP4 ADD MLOAD DUP5 DUP3 SUB PUSH1 0x40 DUP7 ADD MSTORE PUSH3 0x534F DUP3 DUP3 PUSH3 0x4C97 JUMP JUMPDEST SWAP2 POP POP PUSH1 0x60 DUP4 ADD MLOAD PUSH3 0x5366 PUSH1 0x60 DUP7 ADD DUP3 PUSH3 0x4BC3 JUMP JUMPDEST POP PUSH1 0x80 DUP4 ADD MLOAD PUSH3 0x537B PUSH1 0x80 DUP7 ADD DUP3 PUSH3 0x4BB2 JUMP JUMPDEST POP PUSH1 0xA0 DUP4 ADD MLOAD DUP5 DUP3 SUB PUSH1 0xA0 DUP7 ADD MSTORE PUSH3 0x5395 DUP3 DUP3 PUSH3 0x4C97 JUMP JUMPDEST SWAP2 POP POP PUSH1 0xC0 DUP4 ADD MLOAD DUP5 DUP3 SUB PUSH1 0xC0 DUP7 ADD MSTORE PUSH3 0x53B1 DUP3 DUP3 PUSH3 0x4C97 JUMP JUMPDEST SWAP2 POP POP PUSH1 0xE0 DUP4 ADD MLOAD DUP5 DUP3 SUB PUSH1 0xE0 DUP7 ADD MSTORE PUSH3 0x53CD DUP3 DUP3 PUSH3 0x5237 JUMP JUMPDEST SWAP2 POP POP PUSH2 0x100 DUP4 ADD MLOAD PUSH3 0x53E6 PUSH2 0x100 DUP7 ADD DUP3 PUSH3 0x543D JUMP JUMPDEST POP PUSH2 0x120 DUP4 ADD MLOAD DUP5 DUP3 SUB PUSH2 0x120 DUP7 ADD MSTORE PUSH3 0x5402 DUP3 DUP3 PUSH3 0x54F7 JUMP JUMPDEST SWAP2 POP POP PUSH2 0x140 DUP4 ADD MLOAD PUSH3 0x541B PUSH2 0x140 DUP7 ADD DUP3 PUSH3 0x5562 JUMP JUMPDEST POP PUSH2 0x160 DUP4 ADD MLOAD PUSH3 0x5432 PUSH2 0x160 DUP7 ADD DUP3 PUSH3 0x4ACB JUMP JUMPDEST POP DUP1 SWAP2 POP POP SWAP3 SWAP2 POP POP JUMP JUMPDEST PUSH1 0x20 DUP3 ADD PUSH1 0x0 DUP3 ADD MLOAD PUSH3 0x5455 PUSH1 0x0 DUP6 ADD DUP3 PUSH3 0x4BE5 JUMP JUMPDEST POP POP POP POP JUMP JUMPDEST PUSH1 0x0 PUSH1 0xC0 DUP4 ADD PUSH1 0x0 DUP4 ADD MLOAD DUP5 DUP3 SUB PUSH1 0x0 DUP7 ADD MSTORE PUSH3 0x547A DUP3 DUP3 PUSH3 0x4C97 JUMP JUMPDEST SWAP2 POP POP PUSH1 0x20 DUP4 ADD MLOAD DUP5 DUP3 SUB PUSH1 0x20 DUP7 ADD MSTORE PUSH3 0x5496 DUP3 DUP3 PUSH3 0x4C97 JUMP JUMPDEST SWAP2 POP POP PUSH1 0x40 DUP4 ADD MLOAD PUSH3 0x54AD PUSH1 0x40 DUP7 ADD DUP3 PUSH3 0x4ACB JUMP JUMPDEST POP PUSH1 0x60 DUP4 ADD MLOAD PUSH3 0x54C2 PUSH1 0x60 DUP7 ADD DUP3 PUSH3 0x5562 JUMP JUMPDEST POP PUSH1 0x80 DUP4 ADD MLOAD PUSH3 0x54D7 PUSH1 0x80 DUP7 ADD DUP3 PUSH3 0x5562 JUMP JUMPDEST POP PUSH1 0xA0 DUP4 ADD MLOAD PUSH3 0x54EC PUSH1 0xA0 DUP7 ADD DUP3 PUSH3 0x5562 JUMP JUMPDEST POP DUP1 SWAP2 POP POP SWAP3 SWAP2 POP POP JUMP JUMPDEST PUSH1 0x0 PUSH1 0x80 DUP4 ADD PUSH1 0x0 DUP4 ADD MLOAD PUSH3 0x5511 PUSH1 0x0 DUP7 ADD DUP3 PUSH3 0x5562 JUMP JUMPDEST POP PUSH1 0x20 DUP4 ADD MLOAD DUP5 DUP3 SUB PUSH1 0x20 DUP7 ADD MSTORE PUSH3 0x552B DUP3 DUP3 PUSH3 0x4C97 JUMP JUMPDEST SWAP2 POP POP PUSH1 0x40 DUP4 ADD MLOAD PUSH3 0x5542 PUSH1 0x40 DUP7 ADD DUP3 PUSH3 0x5562 JUMP JUMPDEST POP PUSH1 0x60 DUP4 ADD MLOAD PUSH3 0x5557 PUSH1 0x60 DUP7 ADD DUP3 PUSH3 0x5562 JUMP JUMPDEST POP DUP1 SWAP2 POP POP SWAP3 SWAP2 POP POP JUMP JUMPDEST PUSH3 0x556D DUP2 PUSH3 0x5BBC JUMP JUMPDEST DUP3 MSTORE POP POP JUMP JUMPDEST PUSH3 0x557E DUP2 PUSH3 0x5BBC JUMP JUMPDEST DUP3 MSTORE POP POP JUMP JUMPDEST PUSH1 0x0 PUSH3 0x5593 DUP3 DUP5 DUP7 PUSH3 0x4BF6 JUMP JUMPDEST SWAP2 POP DUP2 SWAP1 POP SWAP4 SWAP3 POP POP POP JUMP JUMPDEST PUSH1 0x0 PUSH3 0x55AD DUP3 DUP5 PUSH3 0x4D5A JUMP JUMPDEST SWAP2 POP DUP2 SWAP1 POP SWAP3 SWAP2 POP POP JUMP JUMPDEST PUSH1 0x0 PUSH3 0x55C6 DUP3 DUP5 PUSH3 0x4C60 JUMP JUMPDEST SWAP2 POP DUP2 SWAP1 POP SWAP3 SWAP2 POP POP JUMP JUMPDEST PUSH1 0x0 PUSH3 0x55DF DUP3 DUP6 PUSH3 0x4C60 JUMP JUMPDEST SWAP2 POP PUSH3 0x55EC DUP3 PUSH3 0x5137 JUMP JUMPDEST SWAP2 POP PUSH3 0x55FA DUP3 DUP5 PUSH3 0x4C60 JUMP JUMPDEST SWAP2 POP DUP2 SWAP1 POP SWAP4 SWAP3 POP POP POP JUMP JUMPDEST PUSH1 0x0 PUSH1 0x60 DUP3 ADD SWAP1 POP PUSH3 0x561D PUSH1 0x0 DUP4 ADD DUP7 PUSH3 0x4ABA JUMP JUMPDEST PUSH3 0x562C PUSH1 0x20 DUP4 ADD DUP6 PUSH3 0x4ABA JUMP JUMPDEST PUSH3 0x563B PUSH1 0x40 DUP4 ADD DUP5 PUSH3 0x5573 JUMP JUMPDEST SWAP5 SWAP4 POP POP POP POP JUMP JUMPDEST PUSH1 0x0 PUSH1 0x60 DUP3 ADD SWAP1 POP PUSH3 0x565A PUSH1 0x0 DUP4 ADD DUP7 PUSH3 0x4B90 JUMP JUMPDEST PUSH3 0x5669 PUSH1 0x20 DUP4 ADD DUP6 PUSH3 0x4ADC JUMP JUMPDEST PUSH3 0x5678 PUSH1 0x40 DUP4 ADD DUP5 PUSH3 0x5573 JUMP JUMPDEST SWAP5 SWAP4 POP POP POP POP JUMP JUMPDEST PUSH1 0x0 PUSH1 0x20 DUP3 ADD SWAP1 POP PUSH3 0x5697 PUSH1 0x0 DUP4 ADD DUP5 PUSH3 0x4BD4 JUMP JUMPDEST SWAP3 SWAP2 POP POP JUMP JUMPDEST PUSH1 0x0 PUSH1 0x40 DUP3 ADD SWAP1 POP PUSH3 0x56B4 PUSH1 0x0 DUP4 ADD DUP6 PUSH3 0x4BD4 JUMP JUMPDEST PUSH3 0x56C3 PUSH1 0x20 DUP4 ADD DUP5 PUSH3 0x4BD4 JUMP JUMPDEST SWAP4 SWAP3 POP POP POP JUMP JUMPDEST PUSH1 0x0 PUSH1 0x20 DUP3 ADD SWAP1 POP DUP2 DUP2 SUB PUSH1 0x0 DUP4 ADD MSTORE PUSH3 0x56E6 DUP2 DUP5 PUSH3 0x4CD8 JUMP JUMPDEST SWAP1 POP SWAP3 SWAP2 POP POP JUMP JUMPDEST PUSH1 0x0 PUSH1 0x20 DUP3 ADD SWAP1 POP DUP2 DUP2 SUB PUSH1 0x0 DUP4 ADD MSTORE PUSH3 0x570A DUP2 DUP5 PUSH3 0x4D19 JUMP JUMPDEST SWAP1 POP SWAP3 SWAP2 POP POP JUMP JUMPDEST PUSH1 0x0 PUSH1 0x20 DUP3 ADD SWAP1 POP DUP2 DUP2 SUB PUSH1 0x0 DUP4 ADD MSTORE PUSH3 0x572E DUP2 DUP5 PUSH3 0x4C1F JUMP JUMPDEST SWAP1 POP SWAP3 SWAP2 POP POP JUMP JUMPDEST PUSH1 0x0 PUSH1 0x20 DUP3 ADD SWAP1 POP DUP2 DUP2 SUB PUSH1 0x0 DUP4 ADD MSTORE PUSH3 0x5751 DUP2 PUSH3 0x4D91 JUMP JUMPDEST SWAP1 POP SWAP2 SWAP1 POP JUMP JUMPDEST PUSH1 0x0 PUSH1 0x20 DUP3 ADD SWAP1 POP DUP2 DUP2 SUB PUSH1 0x0 DUP4 ADD MSTORE PUSH3 0x5773 DUP2 PUSH3 0x4DD3 JUMP JUMPDEST SWAP1 POP SWAP2 SWAP1 POP JUMP JUMPDEST PUSH1 0x0 PUSH1 0x20 DUP3 ADD SWAP1 POP DUP2 DUP2 SUB PUSH1 0x0 DUP4 ADD MSTORE PUSH3 0x5795 DUP2 PUSH3 0x4E15 JUMP JUMPDEST SWAP1 POP SWAP2 SWAP1 POP JUMP JUMPDEST PUSH1 0x0 PUSH1 0x20 DUP3 ADD SWAP1 POP DUP2 DUP2 SUB PUSH1 0x0 DUP4 ADD MSTORE PUSH3 0x57B7 DUP2 PUSH3 0x4E57 JUMP JUMPDEST SWAP1 POP SWAP2 SWAP1 POP JUMP JUMPDEST PUSH1 0x0 PUSH1 0x20 DUP3 ADD SWAP1 POP DUP2 DUP2 SUB PUSH1 0x0 DUP4 ADD MSTORE PUSH3 0x57D9 DUP2 PUSH3 0x4E99 JUMP JUMPDEST SWAP1 POP SWAP2 SWAP1 POP JUMP JUMPDEST PUSH1 0x0 PUSH1 0x20 DUP3 ADD SWAP1 POP DUP2 DUP2 SUB PUSH1 0x0 DUP4 ADD MSTORE PUSH3 0x57FB DUP2 PUSH3 0x4EDB JUMP JUMPDEST SWAP1 POP SWAP2 SWAP1 POP JUMP JUMPDEST PUSH1 0x0 PUSH1 0x20 DUP3 ADD SWAP1 POP DUP2 DUP2 SUB PUSH1 0x0 DUP4 ADD MSTORE PUSH3 0x581D DUP2 PUSH3 0x4F1D JUMP JUMPDEST SWAP1 POP SWAP2 SWAP1 POP JUMP JUMPDEST PUSH1 0x0 PUSH1 0x20 DUP3 ADD SWAP1 POP DUP2 DUP2 SUB PUSH1 0x0 DUP4 ADD MSTORE PUSH3 0x583F DUP2 PUSH3 0x4F5F JUMP JUMPDEST SWAP1 POP SWAP2 SWAP1 POP JUMP JUMPDEST PUSH1 0x0 PUSH1 0x20 DUP3 ADD SWAP1 POP DUP2 DUP2 SUB PUSH1 0x0 DUP4 ADD MSTORE PUSH3 0x5861 DUP2 PUSH3 0x4FC7 JUMP JUMPDEST SWAP1 POP SWAP2 SWAP1 POP JUMP JUMPDEST PUSH1 0x0 PUSH1 0x20 DUP3 ADD SWAP1 POP DUP2 DUP2 SUB PUSH1 0x0 DUP4 ADD MSTORE PUSH3 0x5883 DUP2 PUSH3 0x5009 JUMP JUMPDEST SWAP1 POP SWAP2 SWAP1 POP JUMP JUMPDEST PUSH1 0x0 PUSH1 0x20 DUP3 ADD SWAP1 POP DUP2 DUP2 SUB PUSH1 0x0 DUP4 ADD MSTORE PUSH3 0x58A5 DUP2 PUSH3 0x5071 JUMP JUMPDEST SWAP1 POP SWAP2 SWAP1 POP JUMP JUMPDEST PUSH1 0x0 PUSH1 0x20 DUP3 ADD SWAP1 POP DUP2 DUP2 SUB PUSH1 0x0 DUP4 ADD MSTORE PUSH3 0x58C7 DUP2 PUSH3 0x50B3 JUMP JUMPDEST SWAP1 POP SWAP2 SWAP1 POP JUMP JUMPDEST PUSH1 0x0 PUSH1 0x20 DUP3 ADD SWAP1 POP DUP2 DUP2 SUB PUSH1 0x0 DUP4 ADD MSTORE PUSH3 0x58E9 DUP2 PUSH3 0x50F5 JUMP JUMPDEST SWAP1 POP SWAP2 SWAP1 POP JUMP JUMPDEST PUSH1 0x0 PUSH1 0x20 DUP3 ADD SWAP1 POP DUP2 DUP2 SUB PUSH1 0x0 DUP4 ADD MSTORE PUSH3 0x590B DUP2 PUSH3 0x5179 JUMP JUMPDEST SWAP1 POP SWAP2 SWAP1 POP JUMP JUMPDEST PUSH1 0x0 PUSH1 0x20 DUP3 ADD SWAP1 POP DUP2 DUP2 SUB PUSH1 0x0 DUP4 ADD MSTORE PUSH3 0x592E DUP2 DUP5 PUSH3 0x52F7 JUMP JUMPDEST SWAP1 POP SWAP3 SWAP2 POP POP JUMP JUMPDEST PUSH1 0x0 PUSH1 0x40 DUP3 ADD SWAP1 POP DUP2 DUP2 SUB PUSH1 0x0 DUP4 ADD MSTORE PUSH3 0x5952 DUP2 DUP6 PUSH3 0x52F7 JUMP JUMPDEST SWAP1 POP DUP2 DUP2 SUB PUSH1 0x20 DUP4 ADD MSTORE PUSH3 0x5968 DUP2 DUP5 PUSH3 0x4AED JUMP JUMPDEST SWAP1 POP SWAP4 SWAP3 POP POP POP JUMP JUMPDEST PUSH1 0x0 PUSH1 0x20 DUP3 ADD SWAP1 POP DUP2 DUP2 SUB PUSH1 0x0 DUP4 ADD MSTORE PUSH3 0x598D DUP2 DUP5 PUSH3 0x545B JUMP JUMPDEST SWAP1 POP SWAP3 SWAP2 POP POP JUMP JUMPDEST PUSH1 0x0 PUSH1 0x20 DUP3 ADD SWAP1 POP PUSH3 0x59AC PUSH1 0x0 DUP4 ADD DUP5 PUSH3 0x5573 JUMP JUMPDEST SWAP3 SWAP2 POP POP JUMP JUMPDEST PUSH1 0x0 PUSH1 0x40 MLOAD SWAP1 POP DUP2 DUP2 ADD DUP2 DUP2 LT PUSH8 0xFFFFFFFFFFFFFFFF DUP3 GT OR ISZERO PUSH3 0x59D6 JUMPI PUSH1 0x0 DUP1 REVERT JUMPDEST DUP1 PUSH1 0x40 MSTORE POP SWAP2 SWAP1 POP JUMP JUMPDEST PUSH1 0x0 PUSH8 0xFFFFFFFFFFFFFFFF DUP3 GT ISZERO PUSH3 0x59F8 JUMPI PUSH1 0x0 DUP1 REVERT JUMPDEST PUSH1 0x20 DUP3 MUL SWAP1 POP PUSH1 0x20 DUP2 ADD SWAP1 POP SWAP2 SWAP1 POP JUMP JUMPDEST PUSH1 0x0 PUSH8 0xFFFFFFFFFFFFFFFF DUP3 GT ISZERO PUSH3 0x5A21 JUMPI PUSH1 0x0 DUP1 REVERT JUMPDEST PUSH1 0x20 DUP3 MUL SWAP1 POP PUSH1 0x20 DUP2 ADD SWAP1 POP SWAP2 SWAP1 POP JUMP JUMPDEST PUSH1 0x0 PUSH8 0xFFFFFFFFFFFFFFFF DUP3 GT ISZERO PUSH3 0x5A4A JUMPI PUSH1 0x0 DUP1 REVERT JUMPDEST PUSH1 0x1F NOT PUSH1 0x1F DUP4 ADD AND SWAP1 POP PUSH1 0x20 DUP2 ADD SWAP1 POP SWAP2 SWAP1 POP JUMP JUMPDEST PUSH1 0x0 DUP2 SWAP1 POP PUSH1 0x20 DUP3 ADD SWAP1 POP SWAP2 SWAP1 POP JUMP JUMPDEST PUSH1 0x0 DUP2 MLOAD SWAP1 POP SWAP2 SWAP1 POP JUMP JUMPDEST PUSH1 0x0 DUP2 MLOAD SWAP1 POP SWAP2 SWAP1 POP JUMP JUMPDEST PUSH1 0x0 DUP2 MLOAD SWAP1 POP SWAP2 SWAP1 POP JUMP JUMPDEST PUSH1 0x0 PUSH1 0x20 DUP3 ADD SWAP1 POP SWAP2 SWAP1 POP JUMP JUMPDEST PUSH1 0x0 DUP3 DUP3 MSTORE PUSH1 0x20 DUP3 ADD SWAP1 POP SWAP3 SWAP2 POP POP JUMP JUMPDEST PUSH1 0x0 DUP3 DUP3 MSTORE PUSH1 0x20 DUP3 ADD SWAP1 POP SWAP3 SWAP2 POP POP JUMP JUMPDEST PUSH1 0x0 DUP3 DUP3 MSTORE PUSH1 0x20 DUP3 ADD SWAP1 POP SWAP3 SWAP2 POP POP JUMP JUMPDEST PUSH1 0x0 DUP3 DUP3 MSTORE PUSH1 0x20 DUP3 ADD SWAP1 POP SWAP3 SWAP2 POP POP JUMP JUMPDEST PUSH1 0x0 DUP2 SWAP1 POP SWAP3 SWAP2 POP POP JUMP JUMPDEST PUSH1 0x0 PUSH3 0x5AF9 DUP3 PUSH3 0x5B9C JUMP JUMPDEST SWAP1 POP SWAP2 SWAP1 POP JUMP JUMPDEST PUSH1 0x0 PUSH3 0x5B0D DUP3 PUSH3 0x5B9C JUMP JUMPDEST SWAP1 POP SWAP2 SWAP1 POP JUMP JUMPDEST PUSH1 0x0 DUP2 ISZERO ISZERO SWAP1 POP SWAP2 SWAP1 POP JUMP JUMPDEST PUSH1 0x0 PUSH3 0x5B2D DUP3 PUSH3 0x5B00 JUMP JUMPDEST SWAP1 POP SWAP2 SWAP1 POP JUMP JUMPDEST PUSH1 0x0 PUSH3 0x5B41 DUP3 PUSH3 0x5AEC JUMP JUMPDEST SWAP1 POP SWAP2 SWAP1 POP JUMP JUMPDEST PUSH1 0x0 DUP2 SWAP1 POP PUSH3 0x5B58 DUP3 PUSH3 0x5CF8 JUMP JUMPDEST SWAP2 SWAP1 POP JUMP JUMPDEST PUSH1 0x0 DUP2 SWAP1 POP PUSH3 0x5B6D DUP3 PUSH3 0x5D06 JUMP JUMPDEST SWAP2 SWAP1 POP JUMP JUMPDEST PUSH1 0x0 DUP2 SWAP1 POP PUSH3 0x5B82 DUP3 PUSH3 0x5D14 JUMP JUMPDEST SWAP2 SWAP1 POP JUMP JUMPDEST PUSH1 0x0 DUP2 SWAP1 POP PUSH3 0x5B97 DUP3 PUSH3 0x5D22 JUMP JUMPDEST SWAP2 SWAP1 POP JUMP JUMPDEST PUSH1 0x0 PUSH20 0xFFFFFFFFFFFFFFFFFFFFFFFFFFFFFFFFFFFFFFFF DUP3 AND SWAP1 POP SWAP2 SWAP1 POP JUMP JUMPDEST PUSH1 0x0 DUP2 SWAP1 POP SWAP2 SWAP1 POP JUMP JUMPDEST PUSH1 0x0 PUSH3 0x5BD3 DUP3 PUSH3 0x5C7A JUMP JUMPDEST SWAP1 POP SWAP2 SWAP1 POP JUMP JUMPDEST PUSH1 0x0 PUSH3 0x5BE7 DUP3 PUSH3 0x5BEE JUMP JUMPDEST SWAP1 POP SWAP2 SWAP1 POP JUMP JUMPDEST PUSH1 0x0 PUSH3 0x5BFB DUP3 PUSH3 0x5B9C JUMP JUMPDEST SWAP1 POP SWAP2 SWAP1 POP JUMP JUMPDEST PUSH1 0x0 PUSH3 0x5C0F DUP3 PUSH3 0x5C16 JUMP JUMPDEST SWAP1 POP SWAP2 SWAP1 POP JUMP JUMPDEST PUSH1 0x0 PUSH3 0x5C23 DUP3 PUSH3 0x5B9C JUMP JUMPDEST SWAP1 POP SWAP2 SWAP1 POP JUMP JUMPDEST PUSH1 0x0 PUSH3 0x5C37 DUP3 PUSH3 0x5B48 JUMP JUMPDEST SWAP1 POP SWAP2 SWAP1 POP JUMP JUMPDEST PUSH1 0x0 PUSH3 0x5C4B DUP3 PUSH3 0x5B5D JUMP JUMPDEST SWAP1 POP SWAP2 SWAP1 POP JUMP JUMPDEST PUSH1 0x0 PUSH3 0x5C5F DUP3 PUSH3 0x5B72 JUMP JUMPDEST SWAP1 POP SWAP2 SWAP1 POP JUMP JUMPDEST PUSH1 0x0 PUSH3 0x5C73 DUP3 PUSH3 0x5B87 JUMP JUMPDEST SWAP1 POP SWAP2 SWAP1 POP JUMP JUMPDEST PUSH1 0x0 PUSH3 0x5C87 DUP3 PUSH3 0x5C8E JUMP JUMPDEST SWAP1 POP SWAP2 SWAP1 POP JUMP JUMPDEST PUSH1 0x0 PUSH3 0x5C9B DUP3 PUSH3 0x5B9C JUMP JUMPDEST SWAP1 POP SWAP2 SWAP1 POP JUMP JUMPDEST DUP3 DUP2 DUP4 CALLDATACOPY PUSH1 0x0 DUP4 DUP4 ADD MSTORE POP POP POP JUMP JUMPDEST PUSH1 0x0 JUMPDEST DUP4 DUP2 LT ISZERO PUSH3 0x5CD1 JUMPI DUP1 DUP3 ADD MLOAD DUP2 DUP5 ADD MSTORE PUSH1 0x20 DUP2 ADD SWAP1 POP PUSH3 0x5CB4 JUMP JUMPDEST DUP4 DUP2 GT ISZERO PUSH3 0x5CE1 JUMPI PUSH1 0x0 DUP5 DUP5 ADD MSTORE JUMPDEST POP POP POP POP JUMP JUMPDEST PUSH1 0x0 PUSH1 0x1F NOT PUSH1 0x1F DUP4 ADD AND SWAP1 POP SWAP2 SWAP1 POP JUMP JUMPDEST PUSH1 0x2 DUP2 LT PUSH3 0x5D03 JUMPI INVALID JUMPDEST POP JUMP JUMPDEST PUSH1 0x7 DUP2 LT PUSH3 0x5D11 JUMPI INVALID JUMPDEST POP JUMP JUMPDEST PUSH1 0x4 DUP2 LT PUSH3 0x5D1F JUMPI INVALID JUMPDEST POP JUMP JUMPDEST PUSH1 0x4 DUP2 LT PUSH3 0x5D2D JUMPI INVALID JUMPDEST POP JUMP JUMPDEST PUSH3 0x5D3B DUP2 PUSH3 0x5AEC JUMP JUMPDEST DUP2 EQ PUSH3 0x5D47 JUMPI PUSH1 0x0 DUP1 REVERT JUMPDEST POP JUMP JUMPDEST PUSH3 0x5D55 DUP2 PUSH3 0x5B00 JUMP JUMPDEST DUP2 EQ PUSH3 0x5D61 JUMPI PUSH1 0x0 DUP1 REVERT JUMPDEST POP JUMP JUMPDEST PUSH3 0x5D6F DUP2 PUSH3 0x5B14 JUMP JUMPDEST DUP2 EQ PUSH3 0x5D7B JUMPI PUSH1 0x0 DUP1 REVERT JUMPDEST POP JUMP JUMPDEST PUSH3 0x5D89 DUP2 PUSH3 0x5B20 JUMP JUMPDEST DUP2 EQ PUSH3 0x5D95 JUMPI PUSH1 0x0 DUP1 REVERT JUMPDEST POP JUMP JUMPDEST PUSH3 0x5DA3 DUP2 PUSH3 0x5B34 JUMP JUMPDEST DUP2 EQ PUSH3 0x5DAF JUMPI PUSH1 0x0 DUP1 REVERT JUMPDEST POP JUMP JUMPDEST PUSH1 0x2 DUP2 LT PUSH3 0x5DC0 JUMPI PUSH1 0x0 DUP1 REVERT JUMPDEST POP JUMP JUMPDEST PUSH1 0x7 DUP2 LT PUSH3 0x5DD1 JUMPI PUSH1 0x0 DUP1 REVERT JUMPDEST POP JUMP JUMPDEST PUSH1 0x4 DUP2 LT PUSH3 0x5DE2 JUMPI PUSH1 0x0 DUP1 REVERT JUMPDEST POP JUMP JUMPDEST PUSH1 0x4 DUP2 LT PUSH3 0x5DF3 JUMPI PUSH1 0x0 DUP1 REVERT JUMPDEST POP JUMP JUMPDEST PUSH1 0x4 DUP2 LT PUSH3 0x5E04 JUMPI PUSH1 0x0 DUP1 REVERT JUMPDEST POP JUMP JUMPDEST PUSH3 0x5E12 DUP2 PUSH3 0x5BBC JUMP JUMPDEST DUP2 EQ PUSH3 0x5E1E JUMPI PUSH1 0x0 DUP1 REVERT JUMPDEST POP JUMP INVALID PUSH1 0x80 PUSH1 0x40 MSTORE CALLVALUE DUP1 ISZERO PUSH2 0x10 JUMPI PUSH1 0x0 DUP1 REVERT JUMPDEST POP PUSH1 0x40 MLOAD PUSH2 0x8CA CODESIZE SUB DUP1 PUSH2 0x8CA DUP4 CODECOPY DUP2 DUP2 ADD PUSH1 0x40 MSTORE PUSH2 0x32 SWAP2 SWAP1 DUP2 ADD SWAP1 PUSH2 0x148 JUMP JUMPDEST DUP1 PUSH1 0x0 SWAP1 DUP1 MLOAD SWAP1 PUSH1 0x20 ADD SWAP1 PUSH2 0x48 SWAP3 SWAP2 SWAP1 PUSH2 0x4F JUMP JUMPDEST POP POP PUSH2 0x215 JUMP JUMPDEST DUP3 DUP1 SLOAD PUSH1 0x1 DUP2 PUSH1 0x1 AND ISZERO PUSH2 0x100 MUL SUB AND PUSH1 0x2 SWAP1 DIV SWAP1 PUSH1 0x0 MSTORE PUSH1 0x20 PUSH1 0x0 KECCAK256 SWAP1 PUSH1 0x1F ADD PUSH1 0x20 SWAP1 DIV DUP2 ADD SWAP3 DUP3 PUSH1 0x1F LT PUSH2 0x90 JUMPI DUP1 MLOAD PUSH1 0xFF NOT AND DUP4 DUP1 ADD OR DUP6 SSTORE PUSH2 0xBE JUMP JUMPDEST DUP3 DUP1 ADD PUSH1 0x1 ADD DUP6 SSTORE DUP3 ISZERO PUSH2 0xBE JUMPI SWAP2 DUP3 ADD JUMPDEST DUP3 DUP2 GT ISZERO PUSH2 0xBD JUMPI DUP3 MLOAD DUP3 SSTORE SWAP2 PUSH1 0x20 ADD SWAP2 SWAP1 PUSH1 0x1 ADD SWAP1 PUSH2 0xA2 JUMP JUMPDEST JUMPDEST POP SWAP1 POP PUSH2 0xCB SWAP2 SWAP1 PUSH2 0xCF JUMP JUMPDEST POP SWAP1 JUMP JUMPDEST PUSH2 0xF1 SWAP2 SWAP1 JUMPDEST DUP1 DUP3 GT ISZERO PUSH2 0xED JUMPI PUSH1 0x0 DUP2 PUSH1 0x0 SWAP1 SSTORE POP PUSH1 0x1 ADD PUSH2 0xD5 JUMP JUMPDEST POP SWAP1 JUMP JUMPDEST SWAP1 JUMP JUMPDEST PUSH1 0x0 DUP3 PUSH1 0x1F DUP4 ADD SLT PUSH2 0x105 JUMPI PUSH1 0x0 DUP1 REVERT JUMPDEST DUP2 MLOAD PUSH2 0x118 PUSH2 0x113 DUP3 PUSH2 0x1B6 JUMP JUMPDEST PUSH2 0x189 JUMP JUMPDEST SWAP2 POP DUP1 DUP3 MSTORE PUSH1 0x20 DUP4 ADD PUSH1 0x20 DUP4 ADD DUP6 DUP4 DUP4 ADD GT ISZERO PUSH2 0x134 JUMPI PUSH1 0x0 DUP1 REVERT JUMPDEST PUSH2 0x13F DUP4 DUP3 DUP5 PUSH2 0x1E2 JUMP JUMPDEST POP POP POP SWAP3 SWAP2 POP POP JUMP JUMPDEST PUSH1 0x0 PUSH1 0x20 DUP3 DUP5 SUB SLT ISZERO PUSH2 0x15A JUMPI PUSH1 0x0 DUP1 REVERT JUMPDEST PUSH1 0x0 DUP3 ADD MLOAD PUSH8 0xFFFFFFFFFFFFFFFF DUP2 GT ISZERO PUSH2 0x174 JUMPI PUSH1 0x0 DUP1 REVERT JUMPDEST PUSH2 0x180 DUP5 DUP3 DUP6 ADD PUSH2 0xF4 JUMP JUMPDEST SWAP2 POP POP SWAP3 SWAP2 POP POP JUMP JUMPDEST PUSH1 0x0 PUSH1 0x40 MLOAD SWAP1 POP DUP2 DUP2 ADD DUP2 DUP2 LT PUSH8 0xFFFFFFFFFFFFFFFF DUP3 GT OR ISZERO PUSH2 0x1AC JUMPI PUSH1 0x0 DUP1 REVERT JUMPDEST DUP1 PUSH1 0x40 MSTORE POP SWAP2 SWAP1 POP JUMP JUMPDEST PUSH1 0x0 PUSH8 0xFFFFFFFFFFFFFFFF DUP3 GT ISZERO PUSH2 0x1CD JUMPI PUSH1 0x0 DUP1 REVERT JUMPDEST PUSH1 0x1F NOT PUSH1 0x1F DUP4 ADD AND SWAP1 POP PUSH1 0x20 DUP2 ADD SWAP1 POP SWAP2 SWAP1 POP JUMP JUMPDEST PUSH1 0x0 JUMPDEST DUP4 DUP2 LT ISZERO PUSH2 0x200 JUMPI DUP1 DUP3 ADD MLOAD DUP2 DUP5 ADD MSTORE PUSH1 0x20 DUP2 ADD SWAP1 POP PUSH2 0x1E5 JUMP JUMPDEST DUP4 DUP2 GT ISZERO PUSH2 0x20F JUMPI PUSH1 0x0 DUP5 DUP5 ADD MSTORE JUMPDEST POP POP POP POP JUMP JUMPDEST PUSH2 0x6A6 DUP1 PUSH2 0x224 PUSH1 0x0 CODECOPY PUSH1 0x0 RETURN INVALID PUSH1 0x80 PUSH1 0x40 MSTORE PUSH1 0x4 CALLDATASIZE LT PUSH2 0x4A JUMPI PUSH1 0x0 CALLDATALOAD PUSH1 0xE0 SHR DUP1 PUSH4 0x38CC4831 EQ PUSH2 0x4C JUMPI DUP1 PUSH4 0x4F95A04B EQ PUSH2 0x77 JUMPI DUP1 PUSH4 0xBEABACC8 EQ PUSH2 0x93 JUMPI DUP1 PUSH4 0xE1F21C67 EQ PUSH2 0xBC JUMPI DUP1 PUSH4 0xFB1E6A62 EQ PUSH2 0xE5 JUMPI JUMPDEST STOP JUMPDEST CALLVALUE DUP1 ISZERO PUSH2 0x58 JUMPI PUSH1 0x0 DUP1 REVERT JUMPDEST POP PUSH2 0x61 PUSH2 0x110 JUMP JUMPDEST PUSH1 0x40 MLOAD PUSH2 0x6E SWAP2 SWAP1 PUSH2 0x4BE JUMP JUMPDEST PUSH1 0x40 MLOAD DUP1 SWAP2 SUB SWAP1 RETURN JUMPDEST PUSH2 0x91 PUSH1 0x4 DUP1 CALLDATASIZE SUB PUSH2 0x8C SWAP2 SWAP1 DUP2 ADD SWAP1 PUSH2 0x3A4 JUMP JUMPDEST PUSH2 0x118 JUMP JUMPDEST STOP JUMPDEST CALLVALUE DUP1 ISZERO PUSH2 0x9F JUMPI PUSH1 0x0 DUP1 REVERT JUMPDEST POP PUSH2 0xBA PUSH1 0x4 DUP1 CALLDATASIZE SUB PUSH2 0xB5 SWAP2 SWAP1 DUP2 ADD SWAP1 PUSH2 0x409 JUMP JUMPDEST PUSH2 0x163 JUMP JUMPDEST STOP JUMPDEST CALLVALUE DUP1 ISZERO PUSH2 0xC8 JUMPI PUSH1 0x0 DUP1 REVERT JUMPDEST POP PUSH2 0xE3 PUSH1 0x4 DUP1 CALLDATASIZE SUB PUSH2 0xDE SWAP2 SWAP1 DUP2 ADD SWAP1 PUSH2 0x409 JUMP JUMPDEST PUSH2 0x1FE JUMP JUMPDEST STOP JUMPDEST CALLVALUE DUP1 ISZERO PUSH2 0xF1 JUMPI PUSH1 0x0 DUP1 REVERT JUMPDEST POP PUSH2 0xFA PUSH2 0x299 JUMP JUMPDEST PUSH1 0x40 MLOAD PUSH2 0x107 SWAP2 SWAP1 PUSH2 0x502 JUMP JUMPDEST PUSH1 0x40 MLOAD DUP1 SWAP2 SUB SWAP1 RETURN JUMPDEST PUSH1 0x0 ADDRESS SWAP1 POP SWAP1 JUMP JUMPDEST DUP2 PUSH20 0xFFFFFFFFFFFFFFFFFFFFFFFFFFFFFFFFFFFFFFFF AND PUSH2 0x8FC DUP3 SWAP1 DUP2 ISZERO MUL SWAP1 PUSH1 0x40 MLOAD PUSH1 0x0 PUSH1 0x40 MLOAD DUP1 DUP4 SUB DUP2 DUP6 DUP9 DUP9 CALL SWAP4 POP POP POP POP ISZERO DUP1 ISZERO PUSH2 0x15E JUMPI RETURNDATASIZE PUSH1 0x0 DUP1 RETURNDATACOPY RETURNDATASIZE PUSH1 0x0 REVERT JUMPDEST POP POP POP JUMP JUMPDEST DUP3 PUSH20 0xFFFFFFFFFFFFFFFFFFFFFFFFFFFFFFFFFFFFFFFF AND PUSH4 0xA9059CBB DUP4 DUP4 PUSH1 0x40 MLOAD DUP4 PUSH4 0xFFFFFFFF AND PUSH1 0xE0 SHL DUP2 MSTORE PUSH1 0x4 ADD PUSH2 0x19E SWAP3 SWAP2 SWAP1 PUSH2 0x4D9 JUMP JUMPDEST PUSH1 0x20 PUSH1 0x40 MLOAD DUP1 DUP4 SUB DUP2 PUSH1 0x0 DUP8 DUP1 EXTCODESIZE ISZERO DUP1 ISZERO PUSH2 0x1B8 JUMPI PUSH1 0x0 DUP1 REVERT JUMPDEST POP GAS CALL ISZERO DUP1 ISZERO PUSH2 0x1CC JUMPI RETURNDATASIZE PUSH1 0x0 DUP1 RETURNDATACOPY RETURNDATASIZE PUSH1 0x0 REVERT JUMPDEST POP POP POP POP PUSH1 0x40 MLOAD RETURNDATASIZE PUSH1 0x1F NOT PUSH1 0x1F DUP3 ADD AND DUP3 ADD DUP1 PUSH1 0x40 MSTORE POP PUSH2 0x1F0 SWAP2 SWAP1 DUP2 ADD SWAP1 PUSH2 0x3E0 JUMP JUMPDEST PUSH2 0x1F9 JUMPI PUSH1 0x0 DUP1 REVERT JUMPDEST POP POP POP JUMP JUMPDEST DUP3 PUSH20 0xFFFFFFFFFFFFFFFFFFFFFFFFFFFFFFFFFFFFFFFF AND PUSH4 0x95EA7B3 DUP4 DUP4 PUSH1 0x40 MLOAD DUP4 PUSH4 0xFFFFFFFF AND PUSH1 0xE0 SHL DUP2 MSTORE PUSH1 0x4 ADD PUSH2 0x239 SWAP3 SWAP2 SWAP1 PUSH2 0x4D9 JUMP JUMPDEST PUSH1 0x20 PUSH1 0x40 MLOAD DUP1 DUP4 SUB DUP2 PUSH1 0x0 DUP8 DUP1 EXTCODESIZE ISZERO DUP1 ISZERO PUSH2 0x253 JUMPI PUSH1 0x0 DUP1 REVERT JUMPDEST POP GAS CALL ISZERO DUP1 ISZERO PUSH2 0x267 JUMPI RETURNDATASIZE PUSH1 0x0 DUP1 RETURNDATACOPY RETURNDATASIZE PUSH1 0x0 REVERT JUMPDEST POP POP POP POP PUSH1 0x40 MLOAD RETURNDATASIZE PUSH1 0x1F NOT PUSH1 0x1F DUP3 ADD AND DUP3 ADD DUP1 PUSH1 0x40 MSTORE POP PUSH2 0x28B SWAP2 SWAP1 DUP2 ADD SWAP1 PUSH2 0x3E0 JUMP JUMPDEST PUSH2 0x294 JUMPI PUSH1 0x0 DUP1 REVERT JUMPDEST POP POP POP JUMP JUMPDEST PUSH1 0x60 PUSH1 0x0 DUP1 SLOAD PUSH1 0x1 DUP2 PUSH1 0x1 AND ISZERO PUSH2 0x100 MUL SUB AND PUSH1 0x2 SWAP1 DIV DUP1 PUSH1 0x1F ADD PUSH1 0x20 DUP1 SWAP2 DIV MUL PUSH1 0x20 ADD PUSH1 0x40 MLOAD SWAP1 DUP2 ADD PUSH1 0x40 MSTORE DUP1 SWAP3 SWAP2 SWAP1 DUP2 DUP2 MSTORE PUSH1 0x20 ADD DUP3 DUP1 SLOAD PUSH1 0x1 DUP2 PUSH1 0x1 AND ISZERO PUSH2 0x100 MUL SUB AND PUSH1 0x2 SWAP1 DIV DUP1 ISZERO PUSH2 0x331 JUMPI DUP1 PUSH1 0x1F LT PUSH2 0x306 JUMPI PUSH2 0x100 DUP1 DUP4 SLOAD DIV MUL DUP4 MSTORE SWAP2 PUSH1 0x20 ADD SWAP2 PUSH2 0x331 JUMP JUMPDEST DUP3 ADD SWAP2 SWAP1 PUSH1 0x0 MSTORE PUSH1 0x20 PUSH1 0x0 KECCAK256 SWAP1 JUMPDEST DUP2 SLOAD DUP2 MSTORE SWAP1 PUSH1 0x1 ADD SWAP1 PUSH1 0x20 ADD DUP1 DUP4 GT PUSH2 0x314 JUMPI DUP3 SWAP1 SUB PUSH1 0x1F AND DUP3 ADD SWAP2 JUMPDEST POP POP POP POP POP SWAP1 POP SWAP1 JUMP JUMPDEST PUSH1 0x0 DUP2 CALLDATALOAD SWAP1 POP PUSH2 0x34A DUP2 PUSH2 0x5F0 JUMP JUMPDEST SWAP3 SWAP2 POP POP JUMP JUMPDEST PUSH1 0x0 DUP2 CALLDATALOAD SWAP1 POP PUSH2 0x35F DUP2 PUSH2 0x607 JUMP JUMPDEST SWAP3 SWAP2 POP POP JUMP JUMPDEST PUSH1 0x0 DUP2 MLOAD SWAP1 POP PUSH2 0x374 DUP2 PUSH2 0x61E JUMP JUMPDEST SWAP3 SWAP2 POP POP JUMP JUMPDEST PUSH1 0x0 DUP2 CALLDATALOAD SWAP1 POP PUSH2 0x389 DUP2 PUSH2 0x635 JUMP JUMPDEST SWAP3 SWAP2 POP POP JUMP JUMPDEST PUSH1 0x0 DUP2 CALLDATALOAD SWAP1 POP PUSH2 0x39E DUP2 PUSH2 0x64C JUMP JUMPDEST SWAP3 SWAP2 POP POP JUMP JUMPDEST PUSH1 0x0 DUP1 PUSH1 0x40 DUP4 DUP6 SUB SLT ISZERO PUSH2 0x3B7 JUMPI PUSH1 0x0 DUP1 REVERT JUMPDEST PUSH1 0x0 PUSH2 0x3C5 DUP6 DUP3 DUP7 ADD PUSH2 0x350 JUMP JUMPDEST SWAP3 POP POP PUSH1 0x20 PUSH2 0x3D6 DUP6 DUP3 DUP7 ADD PUSH2 0x38F JUMP JUMPDEST SWAP2 POP POP SWAP3 POP SWAP3 SWAP1 POP JUMP JUMPDEST PUSH1 0x0 PUSH1 0x20 DUP3 DUP5 SUB SLT ISZERO PUSH2 0x3F2 JUMPI PUSH1 0x0 DUP1 REVERT JUMPDEST PUSH1 0x0 PUSH2 0x400 DUP5 DUP3 DUP6 ADD PUSH2 0x365 JUMP JUMPDEST SWAP2 POP POP SWAP3 SWAP2 POP POP JUMP JUMPDEST PUSH1 0x0 DUP1 PUSH1 0x0 PUSH1 0x60 DUP5 DUP7 SUB SLT ISZERO PUSH2 0x41E JUMPI PUSH1 0x0 DUP1 REVERT JUMPDEST PUSH1 0x0 PUSH2 0x42C DUP7 DUP3 DUP8 ADD PUSH2 0x37A JUMP JUMPDEST SWAP4 POP POP PUSH1 0x20 PUSH2 0x43D DUP7 DUP3 DUP8 ADD PUSH2 0x33B JUMP JUMPDEST SWAP3 POP POP PUSH1 0x40 PUSH2 0x44E DUP7 DUP3 DUP8 ADD PUSH2 0x38F JUMP JUMPDEST SWAP2 POP POP SWAP3 POP SWAP3 POP SWAP3 JUMP JUMPDEST PUSH2 0x461 DUP2 PUSH2 0x552 JUMP JUMPDEST DUP3 MSTORE POP POP JUMP JUMPDEST PUSH2 0x470 DUP2 PUSH2 0x540 JUMP JUMPDEST DUP3 MSTORE POP POP JUMP JUMPDEST PUSH1 0x0 PUSH2 0x481 DUP3 PUSH2 0x524 JUMP JUMPDEST PUSH2 0x48B DUP2 DUP6 PUSH2 0x52F JUMP JUMPDEST SWAP4 POP PUSH2 0x49B DUP2 DUP6 PUSH1 0x20 DUP7 ADD PUSH2 0x5AC JUMP JUMPDEST PUSH2 0x4A4 DUP2 PUSH2 0x5DF JUMP JUMPDEST DUP5 ADD SWAP2 POP POP SWAP3 SWAP2 POP POP JUMP JUMPDEST PUSH2 0x4B8 DUP2 PUSH2 0x5A2 JUMP JUMPDEST DUP3 MSTORE POP POP JUMP JUMPDEST PUSH1 0x0 PUSH1 0x20 DUP3 ADD SWAP1 POP PUSH2 0x4D3 PUSH1 0x0 DUP4 ADD DUP5 PUSH2 0x458 JUMP JUMPDEST SWAP3 SWAP2 POP POP JUMP JUMPDEST PUSH1 0x0 PUSH1 0x40 DUP3 ADD SWAP1 POP PUSH2 0x4EE PUSH1 0x0 DUP4 ADD DUP6 PUSH2 0x467 JUMP JUMPDEST PUSH2 0x4FB PUSH1 0x20 DUP4 ADD DUP5 PUSH2 0x4AF JUMP JUMPDEST SWAP4 SWAP3 POP POP POP JUMP JUMPDEST PUSH1 0x0 PUSH1 0x20 DUP3 ADD SWAP1 POP DUP2 DUP2 SUB PUSH1 0x0 DUP4 ADD MSTORE PUSH2 0x51C DUP2 DUP5 PUSH2 0x476 JUMP JUMPDEST SWAP1 POP SWAP3 SWAP2 POP POP JUMP JUMPDEST PUSH1 0x0 DUP2 MLOAD SWAP1 POP SWAP2 SWAP1 POP JUMP JUMPDEST PUSH1 0x0 DUP3 DUP3 MSTORE PUSH1 0x20 DUP3 ADD SWAP1 POP SWAP3 SWAP2 POP POP JUMP JUMPDEST PUSH1 0x0 PUSH2 0x54B DUP3 PUSH2 0x582 JUMP JUMPDEST SWAP1 POP SWAP2 SWAP1 POP JUMP JUMPDEST PUSH1 0x0 PUSH2 0x55D DUP3 PUSH2 0x582 JUMP JUMPDEST SWAP1 POP SWAP2 SWAP1 POP JUMP JUMPDEST PUSH1 0x0 DUP2 ISZERO ISZERO SWAP1 POP SWAP2 SWAP1 POP JUMP JUMPDEST PUSH1 0x0 PUSH2 0x57B DUP3 PUSH2 0x540 JUMP JUMPDEST SWAP1 POP SWAP2 SWAP1 POP JUMP JUMPDEST PUSH1 0x0 PUSH20 0xFFFFFFFFFFFFFFFFFFFFFFFFFFFFFFFFFFFFFFFF DUP3 AND SWAP1 POP SWAP2 SWAP1 POP JUMP JUMPDEST PUSH1 0x0 DUP2 SWAP1 POP SWAP2 SWAP1 POP JUMP JUMPDEST PUSH1 0x0 JUMPDEST DUP4 DUP2 LT ISZERO PUSH2 0x5CA JUMPI DUP1 DUP3 ADD MLOAD DUP2 DUP5 ADD MSTORE PUSH1 0x20 DUP2 ADD SWAP1 POP PUSH2 0x5AF JUMP JUMPDEST DUP4 DUP2 GT ISZERO PUSH2 0x5D9 JUMPI PUSH1 0x0 DUP5 DUP5 ADD MSTORE JUMPDEST POP POP POP POP JUMP JUMPDEST PUSH1 0x0 PUSH1 0x1F NOT PUSH1 0x1F DUP4 ADD AND SWAP1 POP SWAP2 SWAP1 POP JUMP JUMPDEST PUSH2 0x5F9 DUP2 PUSH2 0x540 JUMP JUMPDEST DUP2 EQ PUSH2 0x604 JUMPI PUSH1 0x0 DUP1 REVERT JUMPDEST POP JUMP JUMPDEST PUSH2 0x610 DUP2 PUSH2 0x552 JUMP JUMPDEST DUP2 EQ PUSH2 0x61B JUMPI PUSH1 0x0 DUP1 REVERT JUMPDEST POP JUMP JUMPDEST PUSH2 0x627 DUP2 PUSH2 0x564 JUMP JUMPDEST DUP2 EQ PUSH2 0x632 JUMPI PUSH1 0x0 DUP1 REVERT JUMPDEST POP JUMP JUMPDEST PUSH2 0x63E DUP2 PUSH2 0x570 JUMP JUMPDEST DUP2 EQ PUSH2 0x649 JUMPI PUSH1 0x0 DUP1 REVERT JUMPDEST POP JUMP JUMPDEST PUSH2 0x655 DUP2 PUSH2 0x5A2 JUMP JUMPDEST DUP2 EQ PUSH2 0x660 JUMPI PUSH1 0x0 DUP1 REVERT JUMPDEST POP JUMP INVALID LOG3 PUSH6 0x627A7A723158 KECCAK256 0xCB POP ORIGIN PUSH11 0x501BA87E9A4E89164AEACD SSTORE PUSH30 0x4A494A1182775F71210E83A5523E076C6578706572696D656E74616CF564 PUSH20 0x6F6C63430005100040A365627A7A723158203634 0x2F 0xDB 0x4D SELFBALANCE 0xD9 0xF6 EQ 0xC6 MULMOD 0xD6 PUSH30 0x7D73A7616AC9290DCDA212C61F4D4B4FA689E36C6578706572696D656E74 PUSH2 0x6CF5 PUSH5 0x736F6C6343 STOP SDIV LT STOP BLOCKHASH "
		},
		"gasEstimates": {
			"creation": {
				"codeDepositCost": "5282800",
				"executionCost": "infinite",
				"totalCost": "infinite"
			},
			"external": {
				"accept((string,string,string,uint8,uint8,string,string,(address,uint8,uint256,string,uint256,uint256,address,address),(uint8),(uint256,string,uint256,uint256),uint256,address),(uint256,uint256,string)[])": "infinite",
				"decide(string,string,uint8)": "infinite",
				"discoProposalCount(string)": "infinite",
				"doVote((string,string,address,uint256,uint256,uint256))": "infinite",
				"fullSet((string,string,string,uint8,uint8,string,string,(address,uint8,uint256,string,uint256,uint256,address,address),(uint8),(uint256,string,uint256,uint256),uint256,address),(uint256,uint256,string)[])": "infinite",
				"proposalDetail(string,string)": "infinite",
				"proposalStatus(string,string)": "infinite",
				"releaseProposal(string,string)": "infinite",
				"setIROBase(address)": "21448"
			},
			"internal": {
				"getPoolId(string memory,string memory)": "infinite",
				"getPoolId(struct Proposal.ProposalDetail memory)": "infinite",
				"internalDiscoProposalDetail(string memory)": "infinite",
				"internalProposal(string memory,string memory)": "infinite",
				"parseAddr(string memory)": "infinite"
			}
		},
		"methodIdentifiers": {
			"accept((string,string,string,uint8,uint8,string,string,(address,uint8,uint256,string,uint256,uint256,address,address),(uint8),(uint256,string,uint256,uint256),uint256,address),(uint256,uint256,string)[])": "268d792c",
			"decide(string,string,uint8)": "d46d6d8a",
			"discoProposalCount(string)": "8f65e697",
			"doVote((string,string,address,uint256,uint256,uint256))": "59f7f240",
			"fullSet((string,string,string,uint8,uint8,string,string,(address,uint8,uint256,string,uint256,uint256,address,address),(uint8),(uint256,string,uint256,uint256),uint256,address),(uint256,uint256,string)[])": "2b4a249f",
			"proposalDetail(string,string)": "3122fef1",
			"proposalStatus(string,string)": "474b58c2",
			"releaseProposal(string,string)": "0f5e1849",
			"setIROBase(address)": "ffb135a8"
		}
	},
	"abi": [
		{
			"inputs": [
				{
					"internalType": "address",
					"name": "_iroAddress",
					"type": "address"
				}
			],
			"payable": false,
			"stateMutability": "nonpayable",
			"type": "constructor"
		},
		{
			"anonymous": false,
			"inputs": [
				{
					"indexed": true,
					"internalType": "string",
					"name": "id",
					"type": "string"
				},
				{
					"components": [
						{
							"internalType": "string",
							"name": "discoId",
							"type": "string"
						},
						{
							"internalType": "string",
							"name": "serialId",
							"type": "string"
						},
						{
							"internalType": "string",
							"name": "title",
							"type": "string"
						},
						{
							"internalType": "enum Proposal.ProposalStatus",
							"name": "status",
							"type": "uint8"
						},
						{
							"internalType": "enum Proposal.ProposalMode",
							"name": "mode",
							"type": "uint8"
						},
						{
							"internalType": "string",
							"name": "contact",
							"type": "string"
						},
						{
							"internalType": "string",
							"name": "description",
							"type": "string"
						},
						{
							"components": [
								{
									"internalType": "address",
									"name": "payer",
									"type": "address"
								},
								{
									"internalType": "enum Proposal.PaymentMode",
									"name": "mode",
									"type": "uint8"
								},
								{
									"internalType": "uint256",
									"name": "totalMonths",
									"type": "uint256"
								},
								{
									"internalType": "string",
									"name": "date",
									"type": "string"
								},
								{
									"internalType": "uint256",
									"name": "paymentAmount",
									"type": "uint256"
								},
								{
									"internalType": "uint256",
									"name": "totalAmount",
									"type": "uint256"
								},
								{
									"internalType": "contract IERC20",
									"name": "token",
									"type": "address"
								},
								{
									"internalType": "contract FundPool",
									"name": "pool",
									"type": "address"
								}
							],
							"internalType": "struct Proposal.Payment",
							"name": "payment",
							"type": "tuple"
						},
						{
							"components": [
								{
									"internalType": "enum IRO.ProposerDriver",
									"name": "driver",
									"type": "uint8"
								}
							],
							"internalType": "struct Proposal.ProposerSetup",
							"name": "proposerSetup",
							"type": "tuple"
						},
						{
							"components": [
								{
									"internalType": "uint256",
									"name": "voteMinSupporters",
									"type": "uint256"
								},
								{
									"internalType": "string",
									"name": "voteMinApprovalPercent",
									"type": "string"
								},
								{
									"internalType": "uint256",
									"name": "voteDurationHours",
									"type": "uint256"
								},
								{
									"internalType": "uint256",
									"name": "voteEndTime",
									"type": "uint256"
								}
							],
							"internalType": "struct Proposal.VoterSetup",
							"name": "voteSetup",
							"type": "tuple"
						},
						{
							"internalType": "uint256",
							"name": "blockTime",
							"type": "uint256"
						},
						{
							"internalType": "address",
							"name": "proposer",
							"type": "address"
						}
					],
					"indexed": false,
					"internalType": "struct Proposal.ProposalDetail",
					"name": "proposal",
					"type": "tuple"
				},
				{
					"components": [
						{
							"internalType": "uint256",
							"name": "index",
							"type": "uint256"
						},
						{
							"internalType": "uint256",
							"name": "token",
							"type": "uint256"
						},
						{
							"internalType": "string",
							"name": "terms",
							"type": "string"
						}
					],
					"indexed": false,
					"internalType": "struct Proposal.PaymentDetail[]",
					"name": "paymentDetails",
					"type": "tuple[]"
				}
			],
			"name": "accepted",
			"type": "event"
		},
		{
			"anonymous": false,
			"inputs": [
				{
					"indexed": true,
					"internalType": "string",
					"name": "id",
					"type": "string"
				},
				{
					"indexed": false,
					"internalType": "enum Proposal.ProposalStatus",
					"name": "original",
					"type": "uint8"
				},
				{
					"indexed": false,
					"internalType": "enum Proposal.ProposalStatus",
					"name": "target",
					"type": "uint8"
				}
			],
			"name": "statusChanged",
			"type": "event"
		},
		{
			"anonymous": false,
			"inputs": [
				{
					"indexed": true,
					"internalType": "string",
					"name": "id",
					"type": "string"
				},
				{
					"components": [
						{
							"internalType": "string",
							"name": "discoId",
							"type": "string"
						},
						{
							"internalType": "string",
							"name": "serialId",
							"type": "string"
						},
						{
							"internalType": "address",
							"name": "voter",
							"type": "address"
						},
						{
							"internalType": "uint256",
							"name": "pos",
							"type": "uint256"
						},
						{
							"internalType": "uint256",
							"name": "neg",
							"type": "uint256"
						},
						{
							"internalType": "uint256",
							"name": "voteBt",
							"type": "uint256"
						}
					],
					"indexed": false,
					"internalType": "struct Proposal.Vote",
					"name": "v",
					"type": "tuple"
				}
			],
			"name": "voted",
			"type": "event"
		},
		{
			"constant": false,
			"inputs": [
				{
					"components": [
						{
							"internalType": "string",
							"name": "discoId",
							"type": "string"
						},
						{
							"internalType": "string",
							"name": "serialId",
							"type": "string"
						},
						{
							"internalType": "string",
							"name": "title",
							"type": "string"
						},
						{
							"internalType": "enum Proposal.ProposalStatus",
							"name": "status",
							"type": "uint8"
						},
						{
							"internalType": "enum Proposal.ProposalMode",
							"name": "mode",
							"type": "uint8"
						},
						{
							"internalType": "string",
							"name": "contact",
							"type": "string"
						},
						{
							"internalType": "string",
							"name": "description",
							"type": "string"
						},
						{
							"components": [
								{
									"internalType": "address",
									"name": "payer",
									"type": "address"
								},
								{
									"internalType": "enum Proposal.PaymentMode",
									"name": "mode",
									"type": "uint8"
								},
								{
									"internalType": "uint256",
									"name": "totalMonths",
									"type": "uint256"
								},
								{
									"internalType": "string",
									"name": "date",
									"type": "string"
								},
								{
									"internalType": "uint256",
									"name": "paymentAmount",
									"type": "uint256"
								},
								{
									"internalType": "uint256",
									"name": "totalAmount",
									"type": "uint256"
								},
								{
									"internalType": "contract IERC20",
									"name": "token",
									"type": "address"
								},
								{
									"internalType": "contract FundPool",
									"name": "pool",
									"type": "address"
								}
							],
							"internalType": "struct Proposal.Payment",
							"name": "payment",
							"type": "tuple"
						},
						{
							"components": [
								{
									"internalType": "enum IRO.ProposerDriver",
									"name": "driver",
									"type": "uint8"
								}
							],
							"internalType": "struct Proposal.ProposerSetup",
							"name": "proposerSetup",
							"type": "tuple"
						},
						{
							"components": [
								{
									"internalType": "uint256",
									"name": "voteMinSupporters",
									"type": "uint256"
								},
								{
									"internalType": "string",
									"name": "voteMinApprovalPercent",
									"type": "string"
								},
								{
									"internalType": "uint256",
									"name": "voteDurationHours",
									"type": "uint256"
								},
								{
									"internalType": "uint256",
									"name": "voteEndTime",
									"type": "uint256"
								}
							],
							"internalType": "struct Proposal.VoterSetup",
							"name": "voteSetup",
							"type": "tuple"
						},
						{
							"internalType": "uint256",
							"name": "blockTime",
							"type": "uint256"
						},
						{
							"internalType": "address",
							"name": "proposer",
							"type": "address"
						}
					],
					"internalType": "struct Proposal.ProposalDetail",
					"name": "proposal",
					"type": "tuple"
				},
				{
					"components": [
						{
							"internalType": "uint256",
							"name": "index",
							"type": "uint256"
						},
						{
							"internalType": "uint256",
							"name": "token",
							"type": "uint256"
						},
						{
							"internalType": "string",
							"name": "terms",
							"type": "string"
						}
					],
					"internalType": "struct Proposal.PaymentDetail[]",
					"name": "paymentDetails",
					"type": "tuple[]"
				}
			],
			"name": "accept",
			"outputs": [
				{
					"components": [
						{
							"internalType": "string",
							"name": "discoId",
							"type": "string"
						},
						{
							"internalType": "string",
							"name": "serialId",
							"type": "string"
						},
						{
							"internalType": "string",
							"name": "title",
							"type": "string"
						},
						{
							"internalType": "enum Proposal.ProposalStatus",
							"name": "status",
							"type": "uint8"
						},
						{
							"internalType": "enum Proposal.ProposalMode",
							"name": "mode",
							"type": "uint8"
						},
						{
							"internalType": "string",
							"name": "contact",
							"type": "string"
						},
						{
							"internalType": "string",
							"name": "description",
							"type": "string"
						},
						{
							"components": [
								{
									"internalType": "address",
									"name": "payer",
									"type": "address"
								},
								{
									"internalType": "enum Proposal.PaymentMode",
									"name": "mode",
									"type": "uint8"
								},
								{
									"internalType": "uint256",
									"name": "totalMonths",
									"type": "uint256"
								},
								{
									"internalType": "string",
									"name": "date",
									"type": "string"
								},
								{
									"internalType": "uint256",
									"name": "paymentAmount",
									"type": "uint256"
								},
								{
									"internalType": "uint256",
									"name": "totalAmount",
									"type": "uint256"
								},
								{
									"internalType": "contract IERC20",
									"name": "token",
									"type": "address"
								},
								{
									"internalType": "contract FundPool",
									"name": "pool",
									"type": "address"
								}
							],
							"internalType": "struct Proposal.Payment",
							"name": "payment",
							"type": "tuple"
						},
						{
							"components": [
								{
									"internalType": "enum IRO.ProposerDriver",
									"name": "driver",
									"type": "uint8"
								}
							],
							"internalType": "struct Proposal.ProposerSetup",
							"name": "proposerSetup",
							"type": "tuple"
						},
						{
							"components": [
								{
									"internalType": "uint256",
									"name": "voteMinSupporters",
									"type": "uint256"
								},
								{
									"internalType": "string",
									"name": "voteMinApprovalPercent",
									"type": "string"
								},
								{
									"internalType": "uint256",
									"name": "voteDurationHours",
									"type": "uint256"
								},
								{
									"internalType": "uint256",
									"name": "voteEndTime",
									"type": "uint256"
								}
							],
							"internalType": "struct Proposal.VoterSetup",
							"name": "voteSetup",
							"type": "tuple"
						},
						{
							"internalType": "uint256",
							"name": "blockTime",
							"type": "uint256"
						},
						{
							"internalType": "address",
							"name": "proposer",
							"type": "address"
						}
					],
					"internalType": "struct Proposal.ProposalDetail",
					"name": "",
					"type": "tuple"
				}
			],
			"payable": true,
			"stateMutability": "payable",
			"type": "function"
		},
		{
			"constant": false,
			"inputs": [
				{
					"internalType": "string",
					"name": "id",
					"type": "string"
				},
				{
					"internalType": "string",
					"name": "serialId",
					"type": "string"
				},
				{
					"internalType": "enum Proposal.ProposalStatus",
					"name": "target",
					"type": "uint8"
				}
			],
			"name": "decide",
			"outputs": [],
			"payable": false,
			"stateMutability": "nonpayable",
			"type": "function"
		},
		{
			"constant": true,
			"inputs": [
				{
					"internalType": "string",
					"name": "id",
					"type": "string"
				}
			],
			"name": "discoProposalCount",
			"outputs": [
				{
					"internalType": "uint256",
					"name": "",
					"type": "uint256"
				}
			],
			"payable": false,
			"stateMutability": "view",
			"type": "function"
		},
		{
			"constant": false,
			"inputs": [
				{
					"components": [
						{
							"internalType": "string",
							"name": "discoId",
							"type": "string"
						},
						{
							"internalType": "string",
							"name": "serialId",
							"type": "string"
						},
						{
							"internalType": "address",
							"name": "voter",
							"type": "address"
						},
						{
							"internalType": "uint256",
							"name": "pos",
							"type": "uint256"
						},
						{
							"internalType": "uint256",
							"name": "neg",
							"type": "uint256"
						},
						{
							"internalType": "uint256",
							"name": "voteBt",
							"type": "uint256"
						}
					],
					"internalType": "struct Proposal.Vote",
					"name": "v",
					"type": "tuple"
				}
			],
			"name": "doVote",
			"outputs": [],
			"payable": true,
			"stateMutability": "payable",
			"type": "function"
		},
		{
			"constant": false,
			"inputs": [
				{
					"components": [
						{
							"internalType": "string",
							"name": "discoId",
							"type": "string"
						},
						{
							"internalType": "string",
							"name": "serialId",
							"type": "string"
						},
						{
							"internalType": "string",
							"name": "title",
							"type": "string"
						},
						{
							"internalType": "enum Proposal.ProposalStatus",
							"name": "status",
							"type": "uint8"
						},
						{
							"internalType": "enum Proposal.ProposalMode",
							"name": "mode",
							"type": "uint8"
						},
						{
							"internalType": "string",
							"name": "contact",
							"type": "string"
						},
						{
							"internalType": "string",
							"name": "description",
							"type": "string"
						},
						{
							"components": [
								{
									"internalType": "address",
									"name": "payer",
									"type": "address"
								},
								{
									"internalType": "enum Proposal.PaymentMode",
									"name": "mode",
									"type": "uint8"
								},
								{
									"internalType": "uint256",
									"name": "totalMonths",
									"type": "uint256"
								},
								{
									"internalType": "string",
									"name": "date",
									"type": "string"
								},
								{
									"internalType": "uint256",
									"name": "paymentAmount",
									"type": "uint256"
								},
								{
									"internalType": "uint256",
									"name": "totalAmount",
									"type": "uint256"
								},
								{
									"internalType": "contract IERC20",
									"name": "token",
									"type": "address"
								},
								{
									"internalType": "contract FundPool",
									"name": "pool",
									"type": "address"
								}
							],
							"internalType": "struct Proposal.Payment",
							"name": "payment",
							"type": "tuple"
						},
						{
							"components": [
								{
									"internalType": "enum IRO.ProposerDriver",
									"name": "driver",
									"type": "uint8"
								}
							],
							"internalType": "struct Proposal.ProposerSetup",
							"name": "proposerSetup",
							"type": "tuple"
						},
						{
							"components": [
								{
									"internalType": "uint256",
									"name": "voteMinSupporters",
									"type": "uint256"
								},
								{
									"internalType": "string",
									"name": "voteMinApprovalPercent",
									"type": "string"
								},
								{
									"internalType": "uint256",
									"name": "voteDurationHours",
									"type": "uint256"
								},
								{
									"internalType": "uint256",
									"name": "voteEndTime",
									"type": "uint256"
								}
							],
							"internalType": "struct Proposal.VoterSetup",
							"name": "voteSetup",
							"type": "tuple"
						},
						{
							"internalType": "uint256",
							"name": "blockTime",
							"type": "uint256"
						},
						{
							"internalType": "address",
							"name": "proposer",
							"type": "address"
						}
					],
					"internalType": "struct Proposal.ProposalDetail",
					"name": "proposal",
					"type": "tuple"
				},
				{
					"components": [
						{
							"internalType": "uint256",
							"name": "index",
							"type": "uint256"
						},
						{
							"internalType": "uint256",
							"name": "token",
							"type": "uint256"
						},
						{
							"internalType": "string",
							"name": "terms",
							"type": "string"
						}
					],
					"internalType": "struct Proposal.PaymentDetail[]",
					"name": "paymentDetails",
					"type": "tuple[]"
				}
			],
			"name": "fullSet",
			"outputs": [
				{
					"components": [
						{
							"internalType": "string",
							"name": "discoId",
							"type": "string"
						},
						{
							"internalType": "string",
							"name": "serialId",
							"type": "string"
						},
						{
							"internalType": "string",
							"name": "title",
							"type": "string"
						},
						{
							"internalType": "enum Proposal.ProposalStatus",
							"name": "status",
							"type": "uint8"
						},
						{
							"internalType": "enum Proposal.ProposalMode",
							"name": "mode",
							"type": "uint8"
						},
						{
							"internalType": "string",
							"name": "contact",
							"type": "string"
						},
						{
							"internalType": "string",
							"name": "description",
							"type": "string"
						},
						{
							"components": [
								{
									"internalType": "address",
									"name": "payer",
									"type": "address"
								},
								{
									"internalType": "enum Proposal.PaymentMode",
									"name": "mode",
									"type": "uint8"
								},
								{
									"internalType": "uint256",
									"name": "totalMonths",
									"type": "uint256"
								},
								{
									"internalType": "string",
									"name": "date",
									"type": "string"
								},
								{
									"internalType": "uint256",
									"name": "paymentAmount",
									"type": "uint256"
								},
								{
									"internalType": "uint256",
									"name": "totalAmount",
									"type": "uint256"
								},
								{
									"internalType": "contract IERC20",
									"name": "token",
									"type": "address"
								},
								{
									"internalType": "contract FundPool",
									"name": "pool",
									"type": "address"
								}
							],
							"internalType": "struct Proposal.Payment",
							"name": "payment",
							"type": "tuple"
						},
						{
							"components": [
								{
									"internalType": "enum IRO.ProposerDriver",
									"name": "driver",
									"type": "uint8"
								}
							],
							"internalType": "struct Proposal.ProposerSetup",
							"name": "proposerSetup",
							"type": "tuple"
						},
						{
							"components": [
								{
									"internalType": "uint256",
									"name": "voteMinSupporters",
									"type": "uint256"
								},
								{
									"internalType": "string",
									"name": "voteMinApprovalPercent",
									"type": "string"
								},
								{
									"internalType": "uint256",
									"name": "voteDurationHours",
									"type": "uint256"
								},
								{
									"internalType": "uint256",
									"name": "voteEndTime",
									"type": "uint256"
								}
							],
							"internalType": "struct Proposal.VoterSetup",
							"name": "voteSetup",
							"type": "tuple"
						},
						{
							"internalType": "uint256",
							"name": "blockTime",
							"type": "uint256"
						},
						{
							"internalType": "address",
							"name": "proposer",
							"type": "address"
						}
					],
					"internalType": "struct Proposal.ProposalDetail",
					"name": "",
					"type": "tuple"
				}
			],
			"payable": false,
			"stateMutability": "nonpayable",
			"type": "function"
		},
		{
			"constant": true,
			"inputs": [
				{
					"internalType": "string",
					"name": "id",
					"type": "string"
				},
				{
					"internalType": "string",
					"name": "serialId",
					"type": "string"
				}
			],
			"name": "proposalDetail",
			"outputs": [
				{
					"components": [
						{
							"internalType": "string",
							"name": "discoId",
							"type": "string"
						},
						{
							"internalType": "string",
							"name": "serialId",
							"type": "string"
						},
						{
							"internalType": "string",
							"name": "title",
							"type": "string"
						},
						{
							"internalType": "enum Proposal.ProposalStatus",
							"name": "status",
							"type": "uint8"
						},
						{
							"internalType": "enum Proposal.ProposalMode",
							"name": "mode",
							"type": "uint8"
						},
						{
							"internalType": "string",
							"name": "contact",
							"type": "string"
						},
						{
							"internalType": "string",
							"name": "description",
							"type": "string"
						},
						{
							"components": [
								{
									"internalType": "address",
									"name": "payer",
									"type": "address"
								},
								{
									"internalType": "enum Proposal.PaymentMode",
									"name": "mode",
									"type": "uint8"
								},
								{
									"internalType": "uint256",
									"name": "totalMonths",
									"type": "uint256"
								},
								{
									"internalType": "string",
									"name": "date",
									"type": "string"
								},
								{
									"internalType": "uint256",
									"name": "paymentAmount",
									"type": "uint256"
								},
								{
									"internalType": "uint256",
									"name": "totalAmount",
									"type": "uint256"
								},
								{
									"internalType": "contract IERC20",
									"name": "token",
									"type": "address"
								},
								{
									"internalType": "contract FundPool",
									"name": "pool",
									"type": "address"
								}
							],
							"internalType": "struct Proposal.Payment",
							"name": "payment",
							"type": "tuple"
						},
						{
							"components": [
								{
									"internalType": "enum IRO.ProposerDriver",
									"name": "driver",
									"type": "uint8"
								}
							],
							"internalType": "struct Proposal.ProposerSetup",
							"name": "proposerSetup",
							"type": "tuple"
						},
						{
							"components": [
								{
									"internalType": "uint256",
									"name": "voteMinSupporters",
									"type": "uint256"
								},
								{
									"internalType": "string",
									"name": "voteMinApprovalPercent",
									"type": "string"
								},
								{
									"internalType": "uint256",
									"name": "voteDurationHours",
									"type": "uint256"
								},
								{
									"internalType": "uint256",
									"name": "voteEndTime",
									"type": "uint256"
								}
							],
							"internalType": "struct Proposal.VoterSetup",
							"name": "voteSetup",
							"type": "tuple"
						},
						{
							"internalType": "uint256",
							"name": "blockTime",
							"type": "uint256"
						},
						{
							"internalType": "address",
							"name": "proposer",
							"type": "address"
						}
					],
					"internalType": "struct Proposal.ProposalDetail",
					"name": "",
					"type": "tuple"
				},
				{
					"components": [
						{
							"internalType": "uint256",
							"name": "index",
							"type": "uint256"
						},
						{
							"internalType": "uint256",
							"name": "token",
							"type": "uint256"
						},
						{
							"internalType": "string",
							"name": "terms",
							"type": "string"
						}
					],
					"internalType": "struct Proposal.PaymentDetail[]",
					"name": "paymentDetails",
					"type": "tuple[]"
				}
			],
			"payable": false,
			"stateMutability": "view",
			"type": "function"
		},
		{
			"constant": true,
			"inputs": [
				{
					"internalType": "string",
					"name": "id",
					"type": "string"
				},
				{
					"internalType": "string",
					"name": "serialId",
					"type": "string"
				}
			],
			"name": "proposalStatus",
			"outputs": [
				{
					"internalType": "enum Proposal.ProposalStatus",
					"name": "",
					"type": "uint8"
				}
			],
			"payable": false,
			"stateMutability": "view",
			"type": "function"
		},
		{
			"constant": false,
			"inputs": [
				{
					"internalType": "string",
					"name": "discoId",
					"type": "string"
				},
				{
					"internalType": "string",
					"name": "serialId",
					"type": "string"
				}
			],
			"name": "releaseProposal",
			"outputs": [],
			"payable": false,
			"stateMutability": "nonpayable",
			"type": "function"
		},
		{
			"constant": false,
			"inputs": [
				{
					"internalType": "address",
					"name": "_iroAddress",
					"type": "address"
				}
			],
			"name": "setIROBase",
			"outputs": [],
			"payable": false,
			"stateMutability": "nonpayable",
			"type": "function"
		}
	]
}