{
  "contractName": "Bounty",
  "abi": [
    {
      "inputs": [],
      "payable": false,
      "stateMutability": "nonpayable",
      "type": "constructor"
    },
    {
      "constant": false,
      "inputs": [
        {
          "internalType": "address payable",
          "name": "addr",
          "type": "address"
        }
      ],
      "name": "setConbise",
      "outputs": [],
      "payable": false,
      "stateMutability": "nonpayable",
      "type": "function"
    },
    {
      "constant": false,
      "inputs": [
        {
          "internalType": "string",
          "name": "id",
          "type": "string"
        },
        {
          "internalType": "string",
          "name": "startupName",
          "type": "string"
        },
        {
          "internalType": "string",
          "name": "title",
          "type": "string"
        },
        {
          "internalType": "string",
          "name": "intro",
          "type": "string"
        },
        {
          "internalType": "address[]",
          "name": "paymentToken",
          "type": "address[]"
        },
        {
          "internalType": "uint256[]",
          "name": "paymentValue",
          "type": "uint256[]"
        }
      ],
      "name": "newBounty",
      "outputs": [],
      "payable": true,
      "stateMutability": "payable",
      "type": "function"
    },
    {
      "constant": true,
      "inputs": [
        {
          "internalType": "string",
          "name": "id",
          "type": "string"
        }
      ],
      "name": "getBounty",
      "outputs": [
        {
          "internalType": "string",
          "name": "startupName",
          "type": "string"
        },
        {
          "internalType": "string",
          "name": "title",
          "type": "string"
        },
        {
          "internalType": "string",
          "name": "intro",
          "type": "string"
        },
        {
          "internalType": "address[]",
          "name": "paymentToken",
          "type": "address[]"
        },
        {
          "internalType": "uint256[]",
          "name": "paymentValue",
          "type": "uint256[]"
        }
      ],
      "payable": false,
      "stateMutability": "view",
      "type": "function"
    }
  ],
  "bytecode": "0x608060405234801561001057600080fd5b50336000806101000a81548173ffffffffffffffffffffffffffffffffffffffff021916908373ffffffffffffffffffffffffffffffffffffffff160217905550611092806100606000396000f3fe6080604052600436106100345760003560e01c806357f56061146100395780639a895e1a146102e2578063d544294d1461068a575b600080fd5b34801561004557600080fd5b506100ff6004803603602081101561005c57600080fd5b810190808035906020019064010000000081111561007957600080fd5b82018360208201111561008b57600080fd5b803590602001918460018302840111640100000000831117156100ad57600080fd5b91908080601f016020809104026020016040519081016040528093929190818152602001838380828437600081840152601f19601f8201169050808301925050505050505091929192905050506106db565b60405180806020018060200180602001806020018060200186810386528b818151815260200191508051906020019080838360005b8381101561014f578082015181840152602081019050610134565b50505050905090810190601f16801561017c5780820380516001836020036101000a031916815260200191505b5086810385528a818151815260200191508051906020019080838360005b838110156101b557808201518184015260208101905061019a565b50505050905090810190601f1680156101e25780820380516001836020036101000a031916815260200191505b50868103845289818151815260200191508051906020019080838360005b8381101561021b578082015181840152602081019050610200565b50505050905090810190601f1680156102485780820380516001836020036101000a031916815260200191505b50868103835288818151815260200191508051906020019060200280838360005b83811015610284578082015181840152602081019050610269565b50505050905001868103825287818151815260200191508051906020019060200280838360005b838110156102c65780820151818401526020810190506102ab565b505050509050019a505050505050505050505060405180910390f35b610688600480360360c08110156102f857600080fd5b810190808035906020019064010000000081111561031557600080fd5b82018360208201111561032757600080fd5b8035906020019184600183028401116401000000008311171561034957600080fd5b91908080601f016020809104026020016040519081016040528093929190818152602001838380828437600081840152601f19601f820116905080830192505050505050509192919290803590602001906401000000008111156103ac57600080fd5b8201836020820111156103be57600080fd5b803590602001918460018302840111640100000000831117156103e057600080fd5b91908080601f016020809104026020016040519081016040528093929190818152602001838380828437600081840152601f19601f8201169050808301925050505050505091929192908035906020019064010000000081111561044357600080fd5b82018360208201111561045557600080fd5b8035906020019184600183028401116401000000008311171561047757600080fd5b91908080601f016020809104026020016040519081016040528093929190818152602001838380828437600081840152601f19601f820116905080830192505050505050509192919290803590602001906401000000008111156104da57600080fd5b8201836020820111156104ec57600080fd5b8035906020019184600183028401116401000000008311171561050e57600080fd5b91908080601f016020809104026020016040519081016040528093929190818152602001838380828437600081840152601f19601f8201169050808301925050505050505091929192908035906020019064010000000081111561057157600080fd5b82018360208201111561058357600080fd5b803590602001918460208302840111640100000000831117156105a557600080fd5b919080806020026020016040519081016040528093929190818152602001838360200280828437600081840152601f19601f8201169050808301925050505050505091929192908035906020019064010000000081111561060557600080fd5b82018360208201111561061757600080fd5b8035906020019184602083028401116401000000008311171561063957600080fd5b919080806020026020016040519081016040528093929190818152602001838360200280828437600081840152601f19601f820116905080830192505050505050509192919290505050610bc0565b005b34801561069657600080fd5b506106d9600480360360208110156106ad57600080fd5b81019080803573ffffffffffffffffffffffffffffffffffffffff169060200190929190505050610dd2565b005b60608060608060606002866040518082805190602001908083835b6020831061071957805182526020820191506020810190506020830392506106f6565b6001836020036101000a03801982511681845116808217855250505050505090500191505090815260200160405180910390206000016002876040518082805190602001908083835b602083106107855780518252602082019150602081019050602083039250610762565b6001836020036101000a03801982511681845116808217855250505050505090500191505090815260200160405180910390206001016002886040518082805190602001908083835b602083106107f157805182526020820191506020810190506020830392506107ce565b6001836020036101000a03801982511681845116808217855250505050505090500191505090815260200160405180910390206002016002896040518082805190602001908083835b6020831061085d578051825260208201915060208101905060208303925061083a565b6001836020036101000a038019825116818451168082178552505050505050905001915050908152602001604051809103902060030160028a6040518082805190602001908083835b602083106108c957805182526020820191506020810190506020830392506108a6565b6001836020036101000a0380198251168184511680821785525050505050509050019150509081526020016040518091039020600401848054600181600116156101000203166002900480601f0160208091040260200160405190810160405280929190818152602001828054600181600116156101000203166002900480156109945780601f1061096957610100808354040283529160200191610994565b820191906000526020600020905b81548152906001019060200180831161097757829003601f168201915b50505050509450838054600181600116156101000203166002900480601f016020809104026020016040519081016040528092919081815260200182805460018160011615610100020316600290048015610a305780601f10610a0557610100808354040283529160200191610a30565b820191906000526020600020905b815481529060010190602001808311610a1357829003601f168201915b50505050509350828054600181600116156101000203166002900480601f016020809104026020016040519081016040528092919081815260200182805460018160011615610100020316600290048015610acc5780601f10610aa157610100808354040283529160200191610acc565b820191906000526020600020905b815481529060010190602001808311610aaf57829003601f168201915b5050505050925081805480602002602001604051908101604052809291908181526020018280548015610b5457602002820191906000526020600020905b8160009054906101000a900473ffffffffffffffffffffffffffffffffffffffff1673ffffffffffffffffffffffffffffffffffffffff1681526020019060010190808311610b0a575b5050505050915080805480602002602001604051908101604052809291908181526020018280548015610ba657602002820191906000526020600020905b815481526020019060010190808311610b92575b505050505090509450945094509450945091939590929450565b67016345785d8a0000341015610bd557600080fd5b600073ffffffffffffffffffffffffffffffffffffffff16600160009054906101000a900473ffffffffffffffffffffffffffffffffffffffff1673ffffffffffffffffffffffffffffffffffffffff161415610c3157600080fd5b610c39610e6f565b6040518060a00160405280878152602001868152602001858152602001848152602001838152509050806002886040518082805190602001908083835b60208310610c995780518252602082019150602081019050602083039250610c76565b6001836020036101000a03801982511681845116808217855250505050505090500191505090815260200160405180910390206000820151816000019080519060200190610ce8929190610e9e565b506020820151816001019080519060200190610d05929190610e9e565b506040820151816002019080519060200190610d22929190610e9e565b506060820151816003019080519060200190610d3f929190610f1e565b506080820151816004019080519060200190610d5c929190610fa8565b50905050600160009054906101000a900473ffffffffffffffffffffffffffffffffffffffff1673ffffffffffffffffffffffffffffffffffffffff166108fc349081150290604051600060405180830381858888f19350505050158015610dc8573d6000803e3d6000fd5b5050505050505050565b6000809054906101000a900473ffffffffffffffffffffffffffffffffffffffff1673ffffffffffffffffffffffffffffffffffffffff163373ffffffffffffffffffffffffffffffffffffffff1614610e2b57600080fd5b80600160006101000a81548173ffffffffffffffffffffffffffffffffffffffff021916908373ffffffffffffffffffffffffffffffffffffffff16021790555050565b6040518060a0016040528060608152602001606081526020016060815260200160608152602001606081525090565b828054600181600116156101000203166002900490600052602060002090601f016020900481019282601f10610edf57805160ff1916838001178555610f0d565b82800160010185558215610f0d579182015b82811115610f0c578251825591602001919060010190610ef1565b5b509050610f1a9190610ff5565b5090565b828054828255906000526020600020908101928215610f97579160200282015b82811115610f965782518260006101000a81548173ffffffffffffffffffffffffffffffffffffffff021916908373ffffffffffffffffffffffffffffffffffffffff16021790555091602001919060010190610f3e565b5b509050610fa4919061101a565b5090565b828054828255906000526020600020908101928215610fe4579160200282015b82811115610fe3578251825591602001919060010190610fc8565b5b509050610ff19190610ff5565b5090565b61101791905b80821115611013576000816000905550600101610ffb565b5090565b90565b61105a91905b8082111561105657600081816101000a81549073ffffffffffffffffffffffffffffffffffffffff021916905550600101611020565b5090565b9056fea265627a7a7231582064c46d362564075eb0daff95897dca86ed44fe076a37387c1426ab5ea70c0e6b64736f6c63430005100032",
  "source": "// bounty 信息上链\r\npragma solidity >=0.4.21 <0.7.0;\r\n\r\ncontract Bounty {\r\n  // 我的钱包地址\r\n  address private _owner;\r\n  // 收款地址\r\n  address payable private _conbase;\r\n\r\n// 声明bounty的结构体 \r\nstruct Profile {\r\n    string startupName;\r\n    string title;\r\n    string intro;\r\n    address[] paymentToken;\r\n    uint256[] paymentValue;\r\n  }\r\n\r\n// payment\r\nstruct Payment {\r\n  string token;\r\n  uint256 value;\r\n}\r\n  \r\n  // 一个id对应一个bounty\r\n  mapping (string => Profile) bounty;\r\n\r\n  modifier isOnwer() {\r\n    require(msg.sender == _owner);\r\n    _;\r\n  }\r\n\r\n  constructor() public {\r\n    _owner = msg.sender;\r\n  }\r\n\r\n  function setConbise(address payable addr) isOnwer public {\r\n    _conbase = addr;\r\n  }\r\n\r\n  // bounty 上链\r\n  function newBounty(\r\n    string memory id, \r\n    string memory startupName, \r\n    string memory title,\r\n    string memory intro,\r\n    address[] memory paymentToken,\r\n    uint256[] memory paymentValue\r\n  ) public payable{\r\n      require(msg.value >= 1e17);\r\n      require(_conbase != address(0));\r\n      Profile memory p = Profile(startupName, title, intro, paymentToken, paymentValue);\r\n      bounty[id] = p;\r\n      _conbase.transfer(msg.value);\r\n\r\n  }\r\n\r\n  // 根据id返回当前上链的bounty内容\r\n  function getBounty(string memory id) public view returns (\r\n    string memory startupName, \r\n    string memory title,\r\n    string memory intro,\r\n    address[] memory paymentToken,\r\n    uint256[] memory paymentValue\r\n  ) {\r\n    return (\r\n      bounty[id].startupName,\r\n      bounty[id].title,\r\n      bounty[id].intro,\r\n      bounty[id].paymentToken,\r\n      bounty[id].paymentValue\r\n    );\r\n  }\r\n}\r\n",
  "sourcePath": "F:/cos-contract-com/contracts/Bounty.sol",
  "compiler": {
    "name": "solc",
    "version": "0.5.16+commit.9c3226ce.Emscripten.clang"
  },
  "schemaVersion": "3.2.3",
  "updatedAt": "2020-12-19T13:09:36.347Z",
  "devdoc": {
    "methods": {}
  },
  "userdoc": {
    "methods": {}
  }
}