{
  "contractName": "DiscoAddr",
  "abi": [
    {
      "inputs": [
        {
          "internalType": "string",
          "name": "discoId",
          "type": "string"
        }
      ],
      "payable": false,
      "stateMutability": "nonpayable",
      "type": "constructor"
    },
    {
      "constant": true,
      "inputs": [],
      "name": "id",
      "outputs": [
        {
          "internalType": "string",
          "name": "",
          "type": "string"
        }
      ],
      "payable": false,
      "stateMutability": "view",
      "type": "function"
    },
    {
      "constant": true,
      "inputs": [],
      "name": "getDiscoId",
      "outputs": [
        {
          "internalType": "string",
          "name": "",
          "type": "string"
        }
      ],
      "payable": false,
      "stateMutability": "view",
      "type": "function"
    }
  ],
  "bytecode": "0x608060405234801561001057600080fd5b5060405161053f38038061053f83398181016040526100329190810190610148565b806000908051906020019061004892919061004f565b5050610215565b828054600181600116156101000203166002900490600052602060002090601f016020900481019282601f1061009057805160ff19168380011785556100be565b828001600101855582156100be579182015b828111156100bd5782518255916020019190600101906100a2565b5b5090506100cb91906100cf565b5090565b6100f191905b808211156100ed5760008160009055506001016100d5565b5090565b90565b600082601f83011261010557600080fd5b8151610118610113826101b6565b610189565b9150808252602083016020830185838301111561013457600080fd5b61013f8382846101e2565b50505092915050565b60006020828403121561015a57600080fd5b600082015167ffffffffffffffff81111561017457600080fd5b610180848285016100f4565b91505092915050565b6000604051905081810181811067ffffffffffffffff821117156101ac57600080fd5b8060405250919050565b600067ffffffffffffffff8211156101cd57600080fd5b601f19601f8301169050602081019050919050565b60005b838110156102005780820151818401526020810190506101e5565b8381111561020f576000848401525b50505050565b61031b806102246000396000f3fe608060405234801561001057600080fd5b50600436106100365760003560e01c8063af640d0f1461003b578063fb1e6a6214610059575b600080fd5b610043610077565b6040516100509190610229565b60405180910390f35b610061610115565b60405161006e919061024b565b60405180910390f35b60008054600181600116156101000203166002900480601f01602080910402602001604051908101604052809291908181526020018280546001816001161561010002031660029004801561010d5780601f106100e25761010080835404028352916020019161010d565b820191906000526020600020905b8154815290600101906020018083116100f057829003601f168201915b505050505081565b606060008054600181600116156101000203166002900480601f0160208091040260200160405190810160405280929190818152602001828054600181600116156101000203166002900480156101ad5780601f10610182576101008083540402835291602001916101ad565b820191906000526020600020905b81548152906001019060200180831161019057829003601f168201915b5050505050905090565b60006101c282610278565b6101cc8185610283565b93506101dc818560208601610294565b6101e5816102c7565b840191505092915050565b60006101fb8261026d565b6102058185610283565b9350610215818560208601610294565b61021e816102c7565b840191505092915050565b6000602082019050818103600083015261024381846101f0565b905092915050565b6000602082019050818103600083015261026581846101b7565b905092915050565b600081519050919050565b600081519050919050565b600082825260208201905092915050565b60005b838110156102b2578082015181840152602081019050610297565b838111156102c1576000848401525b50505050565b6000601f19601f830116905091905056fea365627a7a72315820fbe6e805084ceae888737b92b9c1334de550184e1d82400aa901b00d325b14bb6c6578706572696d656e74616cf564736f6c63430005100040",
  "source": "// Disco 上链\r\npragma solidity >=0.4.21 <0.7.0;\r\npragma experimental ABIEncoderV2;\r\n\r\ncontract Disco {\r\n    address private _owner;\r\n    address payable private _coinbase;\r\n\r\n\r\n    // disco\r\n    struct DiscoInfo {\r\n        string id;\r\n        address walletAddr;\r\n        address tokenAddr;\r\n        string description;\r\n        uint256 fundRaisingStartedAt;\r\n        uint256 fundRaisingEndedAt;\r\n        uint256 investmentReward;\r\n        uint256 rewardDeclineRate;\r\n        uint256 shareToken;\r\n        uint256 minFundRaising;\r\n        uint256 addLiquidityPool;\r\n        uint256 totalDepositToken;\r\n    }\r\n\r\n    // disco 投资人信息\r\n    struct DiscoInvestor {\r\n        // 投资人地址\r\n        address investor;\r\n        // 投资金额, 可以多次投资\r\n        uint value;\r\n        // 时间\r\n        uint time;\r\n        // // 募资比例获得TOKEN\r\n        // uint256 sharedToken;\r\n        // // 奖励TOKEN\r\n        // uint256 rewardedToken;\r\n    }\r\n\r\n    // disco的状态\r\n    struct DiscoStatus {\r\n        // 募资是否结束\r\n        bool isFinished;\r\n        // 募资是否成功\r\n        bool isSuccess;\r\n        // 募资是否开启；\r\n        bool isEnabled;\r\n    }\r\n\r\n    struct DiscoInvestAddr {\r\n        DiscoAddr discoAddr;\r\n    }\r\n\r\n    // 记录创建的disco\r\n    mapping(string => DiscoInfo) public discos;\r\n    // 记录投资人\r\n    mapping(string => DiscoInvestor) public investors;\r\n    // 记录投资的状态\r\n    mapping(string => DiscoStatus) public status;\r\n    // 记录 disco 的募资地址\r\n    mapping(string => DiscoInvestAddr) public discoAddress;\r\n\r\n    // 创建\r\n    event createdDisco(string discoId, DiscoAddr addr);\r\n    // 开启\r\n    // event enabledDisco(string discoId, address discoAddr);\r\n    event enabledDisco(string discoId);\r\n    // 募资成功的时候\r\n    event fundraisingSucceed(string discoId);\r\n    //募资结束（成功）\r\n    event fundraisingFinished(string discoIdo);\r\n    // 募资失败\r\n    event fundraisingFailed(string discoId);\r\n    // 投资者向 disco 投钱\r\n    event investToDisco(string discoId, address investorAddr, uint amount);\r\n\r\n    // 判断是否是本人\r\n    modifier isOwner() {\r\n        require(msg.sender == _owner, \"Caller is not owner!\");\r\n        _;\r\n    }\r\n\r\n    constructor()\r\n    public {\r\n        _owner = msg.sender;\r\n    }\r\n\r\n    function setCoinBase(address payable addr)\r\n    isOwner\r\n    public {\r\n        _coinbase = addr;\r\n    }\r\n\r\n    //  获取当前时间\r\n    function getDate() public view returns (uint256){\r\n        return now;\r\n    }\r\n\r\n    // 创建Disco\r\n    /**\r\n    * @param d  tuple forward.\r\n    **/\r\n    function newDisco(DiscoInfo memory d) public payable {\r\n        require(bytes(d.id).length != 0);\r\n        DiscoStatus memory s = DiscoStatus(\r\n            false,\r\n            false,\r\n            false\r\n        );\r\n        discos[d.id] = d;\r\n        status[d.id] = s;\r\n        // 生成新的合约地址, discoAddr 既是DiscoAddr 的实例， 也是上链部署的地址\r\n        DiscoAddr addr = new DiscoAddr(d.id);\r\n        // disco id 与 disco 合约地址的映射\r\n        DiscoInvestAddr memory discoInvestAddr = DiscoInvestAddr(addr);\r\n        discoAddress[d.id] = discoInvestAddr;\r\n        // disco 创建成功\r\n        emit createdDisco(d.id, addr);\r\n    }\r\n\r\n\r\n    /**\r\n     * @dev 开启disco\r\n     */\r\n    function enableDisco(string calldata id) external {\r\n        require(_coinbase != address(0));\r\n        require(discos[id].fundRaisingStartedAt > getDate(), '当前时间需要大于disco的开始募资时间');\r\n        require(discos[id].fundRaisingEndedAt < getDate(), '当前时间需要小于disco的结束募资时间');\r\n        require(!status[id].isEnabled, '当前disco需要未被开启过');\r\n\r\n        status[id].isEnabled = true;\r\n        // 发送开启募资的事件\r\n        emit enabledDisco(id);\r\n    }\r\n\r\n\r\n\r\n    /**\r\n     * @dev 后端调用， 触发disco的结束， 由合约来判断disco的募资是否成功\r\n     */\r\n    function finishedDisco(string calldata id) external {\r\n        require(!status[id].isFinished);\r\n        status[id].isFinished = true;\r\n\r\n        // TODO 结束的时候需要检查募资是否成功或者失败\r\n        status[id].isSuccess = true;\r\n        // if ('成功') {\r\n        //   status[id].isSuccess = true;\r\n        //   // TODO 开启流动性 swap\r\n        // } else {\r\n        //   status[id].isSuccess = false;\r\n        // }\r\n        emit fundraisingFinished(id);\r\n    }\r\n\r\n    // 发起募资, 记录募资的信息， 可能会多次募资\r\n    function investor(string calldata id, uint256 time) external payable {\r\n        //  require(_coinbase != address(0));\r\n        DiscoInvestor memory d = DiscoInvestor(\r\n            _coinbase,\r\n            msg.value,\r\n            time\r\n        );\r\n        investors[id] = d;\r\n        _coinbase.transfer(msg.value);\r\n\r\n        emit investToDisco(id, _coinbase, msg.value);\r\n    }\r\n}\r\n\r\n\r\n// 生成募资合约\r\ncontract DiscoAddr {\r\n\r\n    string public id;\r\n    // suppose the deployed contract has a purpose\r\n\r\n    constructor(string memory discoId) public {\r\n        id = discoId;\r\n    }\r\n\r\n\r\n    function getDiscoId() external view returns (string memory) {\r\n        return id;\r\n    }\r\n}\r\n",
  "sourcePath": "/Users/Eason/Documents/comunion/cos-contract-com/contracts/Disco.sol",
  "compiler": {
    "name": "solc",
    "version": "0.5.16+commit.9c3226ce.Emscripten.clang"
  },
  "schemaVersion": "3.3.4",
  "updatedAt": "2021-03-04T04:10:10.610Z",
  "devdoc": {
    "methods": {}
  },
  "userdoc": {
    "methods": {}
  }
}