{
  "contractName": "Disco",
  "abi": [
    {
      "inputs": [],
      "payable": false,
      "stateMutability": "nonpayable",
      "type": "constructor"
    },
    {
      "anonymous": false,
      "inputs": [
        {
          "indexed": false,
          "internalType": "string",
          "name": "discoId",
          "type": "string"
        }
      ],
      "name": "createdDisco",
      "type": "event"
    },
    {
      "anonymous": false,
      "inputs": [
        {
          "indexed": false,
          "internalType": "string",
          "name": "discoId",
          "type": "string"
        }
      ],
      "name": "enabeldDisco",
      "type": "event"
    },
    {
      "anonymous": false,
      "inputs": [
        {
          "indexed": false,
          "internalType": "string",
          "name": "discoId",
          "type": "string"
        }
      ],
      "name": "fundraisingFailed",
      "type": "event"
    },
    {
      "anonymous": false,
      "inputs": [
        {
          "indexed": false,
          "internalType": "string",
          "name": "discoIdo",
          "type": "string"
        }
      ],
      "name": "fundraisingFinished",
      "type": "event"
    },
    {
      "anonymous": false,
      "inputs": [
        {
          "indexed": false,
          "internalType": "string",
          "name": "discoId",
          "type": "string"
        }
      ],
      "name": "fundraisingSuccessed",
      "type": "event"
    },
    {
      "constant": true,
      "inputs": [
        {
          "internalType": "string",
          "name": "",
          "type": "string"
        }
      ],
      "name": "discos",
      "outputs": [
        {
          "internalType": "address",
          "name": "walletAddr",
          "type": "address"
        },
        {
          "internalType": "address",
          "name": "tokenContract",
          "type": "address"
        },
        {
          "internalType": "string",
          "name": "description",
          "type": "string"
        },
        {
          "internalType": "uint256",
          "name": "fundRaisingTimeFrom",
          "type": "uint256"
        },
        {
          "internalType": "uint256",
          "name": "fundRaisingTimeTo",
          "type": "uint256"
        },
        {
          "internalType": "uint256",
          "name": "investmentReward",
          "type": "uint256"
        },
        {
          "internalType": "uint256",
          "name": "rewardDeclineRate",
          "type": "uint256"
        },
        {
          "internalType": "uint256",
          "name": "shareToken",
          "type": "uint256"
        },
        {
          "internalType": "uint256",
          "name": "minFundRaising",
          "type": "uint256"
        },
        {
          "internalType": "uint256",
          "name": "addLiquidityPool",
          "type": "uint256"
        },
        {
          "internalType": "uint256",
          "name": "totalDepositToken",
          "type": "uint256"
        }
      ],
      "payable": false,
      "stateMutability": "view",
      "type": "function"
    },
    {
      "constant": true,
      "inputs": [
        {
          "internalType": "string",
          "name": "",
          "type": "string"
        }
      ],
      "name": "investors",
      "outputs": [
        {
          "internalType": "address",
          "name": "investor",
          "type": "address"
        },
        {
          "internalType": "uint256",
          "name": "value",
          "type": "uint256"
        },
        {
          "internalType": "uint256",
          "name": "time",
          "type": "uint256"
        },
        {
          "internalType": "uint256",
          "name": "sharedToken",
          "type": "uint256"
        },
        {
          "internalType": "uint256",
          "name": "rewardedToken",
          "type": "uint256"
        }
      ],
      "payable": false,
      "stateMutability": "view",
      "type": "function"
    },
    {
      "constant": true,
      "inputs": [
        {
          "internalType": "string",
          "name": "",
          "type": "string"
        }
      ],
      "name": "status",
      "outputs": [
        {
          "internalType": "bool",
          "name": "isFinished",
          "type": "bool"
        },
        {
          "internalType": "bool",
          "name": "isSuccess",
          "type": "bool"
        },
        {
          "internalType": "bool",
          "name": "isEnabled",
          "type": "bool"
        }
      ],
      "payable": false,
      "stateMutability": "view",
      "type": "function"
    },
    {
      "constant": false,
      "inputs": [
        {
          "internalType": "address payable",
          "name": "addr",
          "type": "address"
        }
      ],
      "name": "setCoinBase",
      "outputs": [],
      "payable": false,
      "stateMutability": "nonpayable",
      "type": "function"
    },
    {
      "constant": true,
      "inputs": [],
      "name": "getCoinBase",
      "outputs": [
        {
          "internalType": "address",
          "name": "",
          "type": "address"
        }
      ],
      "payable": false,
      "stateMutability": "view",
      "type": "function"
    },
    {
      "constant": true,
      "inputs": [],
      "name": "getDate",
      "outputs": [
        {
          "internalType": "uint256",
          "name": "",
          "type": "uint256"
        }
      ],
      "payable": false,
      "stateMutability": "view",
      "type": "function"
    },
    {
      "constant": false,
      "inputs": [
        {
          "internalType": "string",
          "name": "id",
          "type": "string"
        },
        {
          "internalType": "address",
          "name": "walletAddr",
          "type": "address"
        },
        {
          "internalType": "address",
          "name": "tokenContract",
          "type": "address"
        },
        {
          "internalType": "string",
          "name": "description",
          "type": "string"
        },
        {
          "internalType": "uint256",
          "name": "fundRaisingTimeFrom",
          "type": "uint256"
        },
        {
          "internalType": "uint256",
          "name": "fundRaisingTimeTo",
          "type": "uint256"
        },
        {
          "internalType": "uint256",
          "name": "investmentReward",
          "type": "uint256"
        },
        {
          "internalType": "uint256",
          "name": "rewardDeclineRate",
          "type": "uint256"
        },
        {
          "internalType": "uint256",
          "name": "shareToken",
          "type": "uint256"
        },
        {
          "internalType": "uint256",
          "name": "minFundRaising",
          "type": "uint256"
        },
        {
          "internalType": "uint256",
          "name": "addLiquidityPool",
          "type": "uint256"
        },
        {
          "internalType": "uint256",
          "name": "totalDepositToken",
          "type": "uint256"
        }
      ],
      "name": "newDisco",
      "outputs": [],
      "payable": false,
      "stateMutability": "nonpayable",
      "type": "function"
    },
    {
      "constant": false,
      "inputs": [
        {
          "internalType": "string",
          "name": "id",
          "type": "string"
        }
      ],
      "name": "enableDisco",
      "outputs": [],
      "payable": false,
      "stateMutability": "nonpayable",
      "type": "function"
    },
    {
      "constant": true,
      "inputs": [
        {
          "internalType": "string",
          "name": "id",
          "type": "string"
        }
      ],
      "name": "getDisco",
      "outputs": [
        {
          "internalType": "address",
          "name": "walletAddr",
          "type": "address"
        },
        {
          "internalType": "address",
          "name": "tokenContract",
          "type": "address"
        },
        {
          "internalType": "string",
          "name": "description",
          "type": "string"
        }
      ],
      "payable": false,
      "stateMutability": "view",
      "type": "function"
    },
    {
      "constant": false,
      "inputs": [
        {
          "internalType": "string",
          "name": "id",
          "type": "string"
        },
        {
          "internalType": "address",
          "name": "investorAddress",
          "type": "address"
        },
        {
          "internalType": "uint256",
          "name": "value",
          "type": "uint256"
        },
        {
          "internalType": "uint256",
          "name": "time",
          "type": "uint256"
        },
        {
          "internalType": "uint256",
          "name": "sharedToken",
          "type": "uint256"
        },
        {
          "internalType": "uint256",
          "name": "rewardedToken",
          "type": "uint256"
        }
      ],
      "name": "investor",
      "outputs": [],
      "payable": false,
      "stateMutability": "nonpayable",
      "type": "function"
    }
  ],
  "bytecode": "0x608060405234801561001057600080fd5b50336000806101000a81548173ffffffffffffffffffffffffffffffffffffffff021916908373ffffffffffffffffffffffffffffffffffffffff1602179055506118fa806100606000396000f3fe608060405234801561001057600080fd5b506004361061009e5760003560e01c80635b396f0a116100665780635b396f0a14610574578063971ce6411461068b578063c79d1921146106d5578063e8ca64f414610790578063e9dd570a146108795761009e565b806303036345146100a3578063283e2e04146101a65780632df79172146101ea578063430fe9c1146103bc578063530378a6146103da575b600080fd5b6101a4600480360360c08110156100b957600080fd5b81019080803590602001906401000000008111156100d657600080fd5b8201836020820111156100e857600080fd5b8035906020019184600183028401116401000000008311171561010a57600080fd5b91908080601f016020809104026020016040519081016040528093929190818152602001838380828437600081840152601f19601f820116905080830192505050505050509192919290803573ffffffffffffffffffffffffffffffffffffffff16906020019092919080359060200190929190803590602001909291908035906020019092919080359060200190929190505050610a5c565b005b6101e8600480360360208110156101bc57600080fd5b81019080803573ffffffffffffffffffffffffffffffffffffffff169060200190929190505050610b88565b005b6102a36004803603602081101561020057600080fd5b810190808035906020019064010000000081111561021d57600080fd5b82018360208201111561022f57600080fd5b8035906020019184600183028401116401000000008311171561025157600080fd5b91908080601f016020809104026020016040519081016040528093929190818152602001838380828437600081840152601f19601f820116905080830192505050505050509192919290505050610c25565b604051808c73ffffffffffffffffffffffffffffffffffffffff1673ffffffffffffffffffffffffffffffffffffffff1681526020018b73ffffffffffffffffffffffffffffffffffffffff1673ffffffffffffffffffffffffffffffffffffffff168152602001806020018a815260200189815260200188815260200187815260200186815260200185815260200184815260200183815260200182810382528b818151815260200191508051906020019080838360005b8381101561037757808201518184015260208101905061035c565b50505050905090810190601f1680156103a45780820380516001836020036101000a031916815260200191505b509c5050505050505050505050505060405180910390f35b6103c4610d6d565b6040518082815260200191505060405180910390f35b610493600480360360208110156103f057600080fd5b810190808035906020019064010000000081111561040d57600080fd5b82018360208201111561041f57600080fd5b8035906020019184600183028401116401000000008311171561044157600080fd5b91908080601f016020809104026020016040519081016040528093929190818152602001838380828437600081840152601f19601f820116905080830192505050505050509192919290505050610d75565b604051808473ffffffffffffffffffffffffffffffffffffffff1673ffffffffffffffffffffffffffffffffffffffff1681526020018373ffffffffffffffffffffffffffffffffffffffff1673ffffffffffffffffffffffffffffffffffffffff16815260200180602001828103825283818151815260200191508051906020019080838360005b8381101561053757808201518184015260208101905061051c565b50505050905090810190601f1680156105645780820380516001836020036101000a031916815260200191505b5094505050505060405180910390f35b61062d6004803603602081101561058a57600080fd5b81019080803590602001906401000000008111156105a757600080fd5b8201836020820111156105b957600080fd5b803590602001918460018302840111640100000000831117156105db57600080fd5b91908080601f016020809104026020016040519081016040528093929190818152602001838380828437600081840152601f19601f820116905080830192505050505050509192919290505050610fa9565b604051808673ffffffffffffffffffffffffffffffffffffffff1673ffffffffffffffffffffffffffffffffffffffff1681526020018581526020018481526020018381526020018281526020019550505050505060405180910390f35b610693611015565b604051808273ffffffffffffffffffffffffffffffffffffffff1673ffffffffffffffffffffffffffffffffffffffff16815260200191505060405180910390f35b61078e600480360360208110156106eb57600080fd5b810190808035906020019064010000000081111561070857600080fd5b82018360208201111561071a57600080fd5b8035906020019184600183028401116401000000008311171561073c57600080fd5b91908080601f016020809104026020016040519081016040528093929190818152602001838380828437600081840152601f19601f82011690508083019250505050505050919291929050505061103f565b005b610849600480360360208110156107a657600080fd5b81019080803590602001906401000000008111156107c357600080fd5b8201836020820111156107d557600080fd5b803590602001918460018302840111640100000000831117156107f757600080fd5b91908080601f016020809104026020016040519081016040528093929190818152602001838380828437600081840152601f19601f8201169050808301925050505050505091929192905050506112d7565b60405180841515151581526020018315151515815260200182151515158152602001935050505060405180910390f35b610a5a600480360361018081101561089057600080fd5b81019080803590602001906401000000008111156108ad57600080fd5b8201836020820111156108bf57600080fd5b803590602001918460018302840111640100000000831117156108e157600080fd5b91908080601f016020809104026020016040519081016040528093929190818152602001838380828437600081840152601f19601f820116905080830192505050505050509192919290803573ffffffffffffffffffffffffffffffffffffffff169060200190929190803573ffffffffffffffffffffffffffffffffffffffff1690602001909291908035906020019064010000000081111561098457600080fd5b82018360208201111561099657600080fd5b803590602001918460018302840111640100000000831117156109b857600080fd5b91908080601f016020809104026020016040519081016040528093929190818152602001838380828437600081840152601f19601f820116905080830192505050505050509192919290803590602001909291908035906020019092919080359060200190929190803590602001909291908035906020019092919080359060200190929190803590602001909291908035906020019092919050505061133e565b005b610a6461172e565b6040518060a001604052808773ffffffffffffffffffffffffffffffffffffffff168152602001868152602001858152602001848152602001838152509050806003886040518082805190602001908083835b60208310610ada5780518252602082019150602081019050602083039250610ab7565b6001836020036101000a038019825116818451168082178552505050505050905001915050908152602001604051809103902060008201518160000160006101000a81548173ffffffffffffffffffffffffffffffffffffffff021916908373ffffffffffffffffffffffffffffffffffffffff1602179055506020820151816001015560408201518160020155606082015181600301556080820151816004015590505050505050505050565b6000809054906101000a900473ffffffffffffffffffffffffffffffffffffffff1673ffffffffffffffffffffffffffffffffffffffff163373ffffffffffffffffffffffffffffffffffffffff1614610be157600080fd5b80600160006101000a81548173ffffffffffffffffffffffffffffffffffffffff021916908373ffffffffffffffffffffffffffffffffffffffff16021790555050565b6002818051602081018201805184825260208301602085012081835280955050505050506000915090508060000160009054906101000a900473ffffffffffffffffffffffffffffffffffffffff16908060010160009054906101000a900473ffffffffffffffffffffffffffffffffffffffff1690806002018054600181600116156101000203166002900480601f016020809104026020016040519081016040528092919081815260200182805460018160011615610100020316600290048015610d335780601f10610d0857610100808354040283529160200191610d33565b820191906000526020600020905b815481529060010190602001808311610d1657829003601f168201915b50505050509080600301549080600401549080600501549080600601549080600701549080600801549080600901549080600a015490508b565b600042905090565b60008060606002846040518082805190602001908083835b60208310610db05780518252602082019150602081019050602083039250610d8d565b6001836020036101000a038019825116818451168082178552505050505050905001915050908152602001604051809103902060000160009054906101000a900473ffffffffffffffffffffffffffffffffffffffff166002856040518082805190602001908083835b60208310610e3d5780518252602082019150602081019050602083039250610e1a565b6001836020036101000a038019825116818451168082178552505050505050905001915050908152602001604051809103902060010160009054906101000a900473ffffffffffffffffffffffffffffffffffffffff166002866040518082805190602001908083835b60208310610eca5780518252602082019150602081019050602083039250610ea7565b6001836020036101000a0380198251168184511680821785525050505050509050019150509081526020016040518091039020600201808054600181600116156101000203166002900480601f016020809104026020016040519081016040528092919081815260200182805460018160011615610100020316600290048015610f955780601f10610f6a57610100808354040283529160200191610f95565b820191906000526020600020905b815481529060010190602001808311610f7857829003601f168201915b505050505090509250925092509193909250565b6003818051602081018201805184825260208301602085012081835280955050505050506000915090508060000160009054906101000a900473ffffffffffffffffffffffffffffffffffffffff16908060010154908060020154908060030154908060040154905085565b6000600160009054906101000a900473ffffffffffffffffffffffffffffffffffffffff16905090565b426002826040518082805190602001908083835b602083106110765780518252602082019150602081019050602083039250611053565b6001836020036101000a038019825116818451168082178552505050505050905001915050908152602001604051809103902060030154116110b757600080fd5b426002826040518082805190602001908083835b602083106110ee57805182526020820191506020810190506020830392506110cb565b6001836020036101000a0380198251168184511680821785525050505050509050019150509081526020016040518091039020600401541061112f57600080fd5b6004816040518082805190602001908083835b602083106111655780518252602082019150602081019050602083039250611142565b6001836020036101000a038019825116818451168082178552505050505050905001915050908152602001604051809103902060000160029054906101000a900460ff16156111b357600080fd5b60016004826040518082805190602001908083835b602083106111eb57805182526020820191506020810190506020830392506111c8565b6001836020036101000a038019825116818451168082178552505050505050905001915050908152602001604051809103902060000160026101000a81548160ff0219169083151502179055507fcfa31555536c860c0561cbc991ef9f394d1c8e01437d111f26ee08ca1228392b816040518080602001828103825283818151815260200191508051906020019080838360005b8381101561129a57808201518184015260208101905061127f565b50505050905090810190601f1680156112c75780820380516001836020036101000a031916815260200191505b509250505060405180910390a150565b6004818051602081018201805184825260208301602085012081835280955050505050506000915090508060000160009054906101000a900460ff16908060000160019054906101000a900460ff16908060000160029054906101000a900460ff16905083565b600073ffffffffffffffffffffffffffffffffffffffff16600160009054906101000a900473ffffffffffffffffffffffffffffffffffffffff1673ffffffffffffffffffffffffffffffffffffffff16141561139a57600080fd5b6113a2611773565b6040518061016001604052808d73ffffffffffffffffffffffffffffffffffffffff1681526020018c73ffffffffffffffffffffffffffffffffffffffff1681526020018b81526020018a81526020018981526020018881526020018781526020018681526020018581526020018481526020018381525090506114246117f9565b60405180606001604052806000151581526020016000151581526020016000151581525090508160028f6040518082805190602001908083835b60208310611481578051825260208201915060208101905060208303925061145e565b6001836020036101000a038019825116818451168082178552505050505050905001915050908152602001604051809103902060008201518160000160006101000a81548173ffffffffffffffffffffffffffffffffffffffff021916908373ffffffffffffffffffffffffffffffffffffffff16021790555060208201518160010160006101000a81548173ffffffffffffffffffffffffffffffffffffffff021916908373ffffffffffffffffffffffffffffffffffffffff160217905550604082015181600201908051906020019061155e929190611820565b50606082015181600301556080820151816004015560a0820151816005015560c0820151816006015560e082015181600701556101008201518160080155610120820151816009015561014082015181600a01559050508060048f6040518082805190602001908083835b602083106115ec57805182526020820191506020810190506020830392506115c9565b6001836020036101000a038019825116818451168082178552505050505050905001915050908152602001604051809103902060008201518160000160006101000a81548160ff02191690831515021790555060208201518160000160016101000a81548160ff02191690831515021790555060408201518160000160026101000a81548160ff0219169083151502179055509050507f70c273c4ef6d4736a04d6cd282b941b06fd94cc05df355ac361930089e2c7c348e6040518080602001828103825283818151815260200191508051906020019080838360005b838110156116e45780820151818401526020810190506116c9565b50505050905090810190601f1680156117115780820380516001836020036101000a031916815260200191505b509250505060405180910390a15050505050505050505050505050565b6040518060a00160405280600073ffffffffffffffffffffffffffffffffffffffff168152602001600081526020016000815260200160008152602001600081525090565b604051806101600160405280600073ffffffffffffffffffffffffffffffffffffffff168152602001600073ffffffffffffffffffffffffffffffffffffffff1681526020016060815260200160008152602001600081526020016000815260200160008152602001600081526020016000815260200160008152602001600081525090565b60405180606001604052806000151581526020016000151581526020016000151581525090565b828054600181600116156101000203166002900490600052602060002090601f016020900481019282601f1061186157805160ff191683800117855561188f565b8280016001018555821561188f579182015b8281111561188e578251825591602001919060010190611873565b5b50905061189c91906118a0565b5090565b6118c291905b808211156118be5760008160009055506001016118a6565b5090565b9056fea265627a7a723158206ae92dfe12f9fffcd4720f602c6ed7f436055012e1b40b0b4603609ad54baf6e64736f6c63430005100032",
  "source": "// Disco \r\npragma solidity >=0.4.21 <0.7.0;\r\n\r\n\r\ncontract Disco {\r\n  address private _owner;\r\n  address payable private _coinbase;\r\n\r\n\r\n  // disco\r\n  struct DiscoInfo {\r\n    address walletAddr;\r\n    address tokenContract;\r\n    string description;\r\n    uint256 fundRaisingTimeFrom;\r\n    uint256 fundRaisingTimeTo;\r\n    uint256 investmentReward;\r\n    uint256 rewardDeclineRate;\r\n    uint256 shareToken;\r\n    uint256 minFundRaising;\r\n    uint256 addLiquidityPool;\r\n    uint256 totalDepositToken;\r\n  }\r\n\r\n  // disco \r\n  struct DiscoInvestor {\r\n    // \r\n    address investor;\r\n    // , \r\n    uint value;\r\n     // \r\n    uint time;\r\n    // TOKEN\r\n    uint256 sharedToken;\r\n    // \bTOKEN\r\n    uint256 rewardedToken;\r\n  }\r\n\r\n  // disco\r\n  struct DiscoStatus {\r\n    // \r\n    bool isFinished;\r\n    // \r\n    bool isSuccess;\r\n    // \r\n    bool isEnabled;\r\n  }\r\n\r\n  // disco\r\n  mapping (string => DiscoInfo) public discos;\r\n  // \r\n  mapping (string => DiscoInvestor) public investors;\r\n  // \r\n  mapping (string => DiscoStatus) public status;\r\n\r\n  // \r\n  event createdDisco(string discoId);\r\n  // \r\n  event enabeldDisco(string discoId);\r\n  // \r\n  event fundraisingSuccessed(string discoId);\r\n  //\r\n  event fundraisingFinished(string discoIdo);\r\n  // \r\n  event fundraisingFailed(string discoId);\r\n\r\n  // \r\n  modifier isOwner() {\r\n    require(msg.sender == _owner);\r\n    _;\r\n  }\r\n\r\n  constructor()\r\n    public {\r\n        _owner = msg.sender;\r\n  }\r\n\r\n  function setCoinBase(address payable addr) isOwner public {\r\n    _coinbase = addr;\r\n  }\r\n\r\n  function getCoinBase() public view returns(address) {\r\n    return _coinbase;\r\n  }\r\n\r\n  // \r\n  function getDate() public view returns(uint256){\r\n    return now;\r\n  }\r\n\r\n   /**\r\n     *  TODO\r\n    */\r\n  // function () payable {\r\n  //     // require('');\r\n  //     uint amount = msg.value;\r\n  //     balanceOf[msg.sender] += amount;\r\n  //     // amountRaised += amount;\r\n  //     // tokenReward.transfer(msg.sender, amount / price);\r\n  //     // TODO\r\n  //     FundTransfer(msg.sender, amount, true);\r\n  // }\r\n\r\n  // Disco\r\n  function newDisco(\r\n    string memory id,\r\n    address walletAddr,\r\n    address tokenContract,\r\n    string memory description,\r\n    uint256 fundRaisingTimeFrom,\r\n    uint256 fundRaisingTimeTo,\r\n    uint256 investmentReward,\r\n    uint256 rewardDeclineRate,\r\n    uint256 shareToken,\r\n    uint256 minFundRaising,\r\n    uint256 addLiquidityPool,\r\n    uint256 totalDepositToken\r\n  ) public {\r\n    require(_coinbase != address(0));\r\n    DiscoInfo memory d = DiscoInfo(\r\n      walletAddr,\r\n      tokenContract,\r\n      description,\r\n      fundRaisingTimeFrom,\r\n      fundRaisingTimeTo,\r\n      investmentReward,\r\n      rewardDeclineRate,\r\n      shareToken,\r\n      minFundRaising,\r\n      addLiquidityPool,\r\n      totalDepositToken\r\n    );\r\n    DiscoStatus memory s = DiscoStatus(\r\n      false,\r\n      false,\r\n      false\r\n    );\r\n    discos[id] = d;\r\n    status[id] = s;\r\n    \r\n    // disco \r\n    emit createdDisco(id);\r\n  }\r\n\r\n    // \r\n  function enableDisco(string memory id) public {\r\n    require(discos[id].fundRaisingTimeFrom > now);\r\n    require(discos[id].fundRaisingTimeTo < now);\r\n    require(!status[id].isEnabled);\r\n    status[id].isEnabled = true;\r\n    // \r\n    emit enabeldDisco(id);\r\n  }\r\n\r\n\r\n  //  disco\r\n  function getDisco(string memory id) public view \r\n  returns(\r\n    address walletAddr,\r\n    address tokenContract,\r\n    string memory description\r\n    // uint256 fundRaisingTimeFrom,\r\n    // uint256 fundRaisingTimeTo,\r\n    // uint256 investmentReward,\r\n    // uint256 rewardDeclineRate,\r\n    // uint256 shareToken,\r\n    // uint256 minFundRaising,\r\n    // uint256 addLiquidityPool,\r\n    // uint256 totalDepositToken\r\n  ) {\r\n    return (\r\n      discos[id].walletAddr,\r\n      discos[id].tokenContract,\r\n      discos[id].description\r\n      // discos[id].fundRaisingTimeFrom,\r\n      // discos[id].fundRaisingTimeTo,\r\n      // discos[id].investmentReward,\r\n      // discos[id].rewardDeclineRate,\r\n      // discos[id].shareToken,\r\n      // discos[id].minFundRaising,\r\n      // discos[id].addLiquidityPool,\r\n      // discos[id].totalDepositToken\r\n    );\r\n  }\r\n\r\n  // // \r\n  // function finishedDisco(string memory id) public returns(bool) {\r\n  //   require(!status[id].isFinished);\r\n  //   status[id].isFinished = true;\r\n\r\n  //   // TODO \r\n  //   if ('') {\r\n  //     status[id].isSuccess = true;\r\n  //     // TODO  swap\r\n  //   } else {\r\n  //     status[id].isSuccess = false;\r\n  //   }\r\n  //   emit fundraisingFinished(id);\r\n  // }\r\n\r\n  // ,  \r\n  function investor(\r\n      string memory id,\r\n      address investorAddress,\r\n      uint256 value,\r\n      uint256 time,\r\n      uint256 sharedToken,\r\n      uint256 rewardedToken\r\n    ) public {\r\n     DiscoInvestor memory i = DiscoInvestor(\r\n      investorAddress, \r\n      value, \r\n      time,\r\n      sharedToken,\r\n      rewardedToken\r\n    );\r\n    investors[id] = i;\r\n  }\r\n}\r\n",
  "sourcePath": "F:/cos-contract-com/contracts/Disco.sol",
  "compiler": {
    "name": "solc",
    "version": "0.5.16+commit.9c3226ce.Emscripten.clang"
  },
  "schemaVersion": "3.2.3",
  "updatedAt": "2020-12-19T13:50:50.330Z",
  "devdoc": {
    "methods": {}
  },
  "userdoc": {
    "methods": {
      "newDisco(string,address,address,string,uint256,uint256,uint256,uint256,uint256,uint256,uint256,uint256)": {
        "notice": " TODO"
      }
    }
  }
}