{
  "contractName": "DiscoAddr",
  "abi": [
    {
      "inputs": [
        {
          "internalType": "string",
          "name": "discoId",
          "type": "string"
        }
      ],
      "payable": false,
      "stateMutability": "nonpayable",
      "type": "constructor"
    },
    {
      "constant": true,
      "inputs": [],
      "name": "id",
      "outputs": [
        {
          "internalType": "string",
          "name": "",
          "type": "string"
        }
      ],
      "payable": false,
      "stateMutability": "view",
      "type": "function"
    },
    {
      "constant": true,
      "inputs": [],
      "name": "getDiscoId",
      "outputs": [
        {
          "internalType": "string",
          "name": "",
          "type": "string"
        }
      ],
      "payable": false,
      "stateMutability": "view",
      "type": "function"
    }
  ],
  "bytecode": "0x608060405234801561001057600080fd5b506040516104753803806104758339818101604052602081101561003357600080fd5b810190808051604051939291908464010000000082111561005357600080fd5b8382019150602082018581111561006957600080fd5b825186600182028301116401000000008211171561008657600080fd5b8083526020830192505050908051906020019080838360005b838110156100ba57808201518184015260208101905061009f565b50505050905090810190601f1680156100e75780820380516001836020036101000a031916815260200191505b50604052505050806000908051906020019061010492919061010b565b50506101b0565b828054600181600116156101000203166002900490600052602060002090601f016020900481019282601f1061014c57805160ff191683800117855561017a565b8280016001018555821561017a579182015b8281111561017957825182559160200191906001019061015e565b5b509050610187919061018b565b5090565b6101ad91905b808211156101a9576000816000905550600101610191565b5090565b90565b6102b6806101bf6000396000f3fe608060405234801561001057600080fd5b50600436106100365760003560e01c8063af640d0f1461003b578063fb1e6a62146100be575b600080fd5b610043610141565b6040518080602001828103825283818151815260200191508051906020019080838360005b83811015610083578082015181840152602081019050610068565b50505050905090810190601f1680156100b05780820380516001836020036101000a031916815260200191505b509250505060405180910390f35b6100c66101df565b6040518080602001828103825283818151815260200191508051906020019080838360005b838110156101065780820151818401526020810190506100eb565b50505050905090810190601f1680156101335780820380516001836020036101000a031916815260200191505b509250505060405180910390f35b60008054600181600116156101000203166002900480601f0160208091040260200160405190810160405280929190818152602001828054600181600116156101000203166002900480156101d75780601f106101ac576101008083540402835291602001916101d7565b820191906000526020600020905b8154815290600101906020018083116101ba57829003601f168201915b505050505081565b606060008054600181600116156101000203166002900480601f0160208091040260200160405190810160405280929190818152602001828054600181600116156101000203166002900480156102775780601f1061024c57610100808354040283529160200191610277565b820191906000526020600020905b81548152906001019060200180831161025a57829003601f168201915b505050505090509056fea265627a7a7231582099443fbd834cfc3513c2dcefacd596ff8c648178fc0b53b84fa257c3e0bf922f64736f6c63430005100032",
  "source": "// Disco 上链\r\npragma solidity >=0.4.21 <0.7.0;\r\n\r\ncontract Disco {\r\n  address private _owner;\r\n  address payable private _coinbase;\r\n\r\n\r\n  // disco\r\n  struct DiscoInfo {\r\n    address walletAddr;\r\n    address tokenAddr;\r\n    string description;\r\n    uint256 fundRaisingStartedAt;\r\n    uint256 fundRaisingEndedAt;\r\n    uint256 investmentReward;\r\n    uint256 rewardDeclineRate;\r\n    uint256 shareToken;\r\n    uint256 minFundRaising;\r\n    uint256 addLiquidityPool;\r\n    uint256 totalDepositToken;\r\n  }\r\n\r\n  // disco 投资人信息\r\n  struct DiscoInvestor {\r\n    // 投资人地址\r\n    address investor;\r\n    // 投资金额, 可以多次投资\r\n    uint value;\r\n     // 时间\r\n    uint time;\r\n    // 募资比例获得TOKEN\r\n    uint256 sharedToken;\r\n    // \b奖励TOKEN\r\n    uint256 rewardedToken;\r\n  }\r\n\r\n  // disco的状态\r\n  struct DiscoStatus {\r\n    // 募资是否结束\r\n    bool isFinished;\r\n    // 募资是否成功\r\n    bool isSuccess;\r\n    // 募资是否开启；\r\n    bool isEnabled;\r\n  }\r\n\r\n  // 记录创建的disco\r\n  mapping (string => DiscoInfo) public discos;\r\n  // 记录投资人\r\n  mapping (string => DiscoInvestor) public investors;\r\n  // 记录投资的状态\r\n  mapping (string => DiscoStatus) public status;\r\n\r\n  // 创建\r\n  event createdDisco(string discoId, DiscoAddr addr);\r\n  // 开启\r\n  // event enabeldDisco(string discoId, address discoAddr);\r\n  event enabeldDisco(string discoId);\r\n  // 募资成功的时候\r\n  event fundraisingSuccessed(string discoId);\r\n  //募资结束（成功）\r\n  event fundraisingFinished(string discoIdo);\r\n  // 募资失败\r\n  event fundraisingFailed(string discoId);\r\n  // 投资者向 disco 投钱\r\n  event investToDisco(string discoId, address investorAddr, uint amount);\r\n\r\n  // 判断是否是本人\r\n  modifier isOwner() {\r\n    require(msg.sender == _owner);\r\n    _;\r\n  }\r\n\r\n  constructor()\r\n    public {\r\n        _owner = msg.sender;\r\n  }\r\n\r\n  function setCoinBase (address payable addr)\r\n      isOwner\r\n      public {\r\n        _coinbase = addr;\r\n  }\r\n\r\n  //  获取当前时间\r\n  function getDate() public view returns(uint256){\r\n    return now;\r\n  }\r\n\r\n  // 募资转账\r\n  // function () payable {\r\n  //     // require('募资没有结束');\r\n  //     uint amount = msg.value;\r\n  //     balanceOf[msg.sender] += amount;\r\n  //     // amountRaised += amount;\r\n  //     // tokenReward.transfer(msg.sender, amount / price);\r\n  //     // TODO\r\n  //     FundTransfer(msg.sender, amount, true);\r\n  // }\r\n\r\n\r\n   // 创建Disco\r\n  function newDisco(\r\n    string memory id,\r\n    address walletAddr,\r\n    address tokenAddr,\r\n    string memory description,\r\n    uint256 fundRaisingStartedAt,\r\n    uint256 fundRaisingEndedAt,\r\n    uint256 investmentReward,\r\n    uint256 rewardDeclineRate,\r\n    uint256 shareToken,\r\n    uint256 minFundRaising,\r\n    uint256 addLiquidityPool,\r\n    uint256 totalDepositToken\r\n  ) public payable {\r\n    // require(msg.value >= 0);\r\n    // require(_coinbase != address(0));\r\n    DiscoInfo memory d = DiscoInfo(\r\n      walletAddr,\r\n      tokenAddr,\r\n      description,\r\n      fundRaisingStartedAt,\r\n      fundRaisingEndedAt,\r\n      investmentReward,\r\n      rewardDeclineRate,\r\n      shareToken,\r\n      minFundRaising,\r\n      addLiquidityPool,\r\n      totalDepositToken\r\n    );\r\n    DiscoStatus memory s = DiscoStatus(\r\n      false,\r\n      false,\r\n      false\r\n    );\r\n    discos[id] = d;\r\n    status[id] = s;\r\n\r\n\r\n     // 生成新的合约地址, discoAddr 既是DiscoAddr 的实例， 也是上链部署的地址\r\n    DiscoAddr addr = new DiscoAddr(id);\r\n       // disco 创建成功\r\n    emit createdDisco(id, addr);\r\n  }\r\n\r\n    // 开启募资\r\n  function enableDisco(string memory id)\r\n    public\r\n    //  returns (address fundFaisingContractAddr)\r\n     {\r\n    require(discos[id].fundRaisingStartedAt > getDate());\r\n    require(discos[id].fundRaisingEndedAt < getDate());\r\n    require(!status[id].isEnabled);\r\n    status[id].isEnabled = true;\r\n\r\n\r\n    // 发送开启募资的事件\r\n    emit enabeldDisco(id);\r\n    // return addr;\r\n  }\r\n\r\n\r\n  // function getDisco(string memory id) public view returns(string DiscoInfo) {\r\n  //   return discos[id];\r\n  // }\r\n\r\n  // // 募资结束\r\n  // function finishedDisco(string memory id) public returns(bool) {\r\n  //   require(!status[id].isFinished);\r\n  //   status[id].isFinished = true;\r\n\r\n  //   // TODO 结束的时候需要检查募资是否成功或者失败\r\n  //   if ('成功') {\r\n  //     status[id].isSuccess = true;\r\n  //     // TODO 开启流动性 swap\r\n  //   } else {\r\n  //     status[id].isSuccess = false;\r\n  //   }\r\n  //   emit fundraisingFinished(id);\r\n  // }\r\n\r\n  // 发起募资, 记录募资的信息， 可能会多次募资\r\n  function investor(\r\n      string memory id,\r\n      address investorAddress,\r\n      uint256 value,\r\n      uint256 time,\r\n      uint256 sharedToken,\r\n      uint256 rewardedToken\r\n    ) public {\r\n     DiscoInvestor memory i = DiscoInvestor(\r\n      investorAddress,\r\n      value,\r\n      time,\r\n      sharedToken,\r\n      rewardedToken\r\n    );\r\n    investors[id] = i;\r\n  }\r\n}\r\n\r\n// 生成募资合约\r\ncontract DiscoAddr {\r\n\r\n  string public id;\r\n  // suppose the deployed contract has a purpose\r\n\r\n  constructor(string memory discoId) public {\r\n    id = discoId;\r\n  }\r\n\r\n\r\n  function getDiscoId() public view returns(string memory) {\r\n    return id;\r\n  }\r\n}\r\n",
  "sourcePath": "F:/cos-contract-com/contracts/Disco.sol",
  "compiler": {
    "name": "solc",
    "version": "0.5.16+commit.9c3226ce.Emscripten.clang"
  },
  "schemaVersion": "3.2.3",
  "updatedAt": "2021-01-23T17:18:19.091Z",
  "devdoc": {
    "methods": {}
  },
  "userdoc": {
    "methods": {}
  }
}