{
  "contractName": "Disco",
  "abi": [
    {
      "inputs": [],
      "payable": false,
      "stateMutability": "nonpayable",
      "type": "constructor"
    },
    {
      "anonymous": false,
      "inputs": [
        {
          "indexed": false,
          "internalType": "string",
          "name": "discoId",
          "type": "string"
        },
        {
          "indexed": false,
          "internalType": "contract DiscoAddr",
          "name": "addr",
          "type": "address"
        }
      ],
      "name": "createdDisco",
      "type": "event"
    },
    {
      "anonymous": false,
      "inputs": [
        {
          "indexed": false,
          "internalType": "string",
          "name": "discoId",
          "type": "string"
        }
      ],
      "name": "enabledDisco",
      "type": "event"
    },
    {
      "anonymous": false,
      "inputs": [
        {
          "indexed": false,
          "internalType": "string",
          "name": "discoId",
          "type": "string"
        }
      ],
      "name": "fundraisingFailed",
      "type": "event"
    },
    {
      "anonymous": false,
      "inputs": [
        {
          "indexed": false,
          "internalType": "string",
          "name": "discoIdo",
          "type": "string"
        }
      ],
      "name": "fundraisingFinished",
      "type": "event"
    },
    {
      "anonymous": false,
      "inputs": [
        {
          "indexed": false,
          "internalType": "string",
          "name": "discoId",
          "type": "string"
        }
      ],
      "name": "fundraisingSucceed",
      "type": "event"
    },
    {
      "anonymous": false,
      "inputs": [
        {
          "indexed": false,
          "internalType": "string",
          "name": "discoId",
          "type": "string"
        },
        {
          "indexed": false,
          "internalType": "address",
          "name": "investorAddr",
          "type": "address"
        },
        {
          "indexed": false,
          "internalType": "uint256",
          "name": "amount",
          "type": "uint256"
        }
      ],
      "name": "investToDisco",
      "type": "event"
    },
    {
      "constant": true,
      "inputs": [
        {
          "internalType": "string",
          "name": "",
          "type": "string"
        }
      ],
      "name": "discoAddress",
      "outputs": [
        {
          "internalType": "contract DiscoAddr",
          "name": "discoAddr",
          "type": "address"
        }
      ],
      "payable": false,
      "stateMutability": "view",
      "type": "function"
    },
    {
      "constant": true,
      "inputs": [
        {
          "internalType": "string",
          "name": "",
          "type": "string"
        }
      ],
      "name": "discos",
      "outputs": [
        {
          "internalType": "string",
          "name": "id",
          "type": "string"
        },
        {
          "internalType": "address",
          "name": "walletAddr",
          "type": "address"
        },
        {
          "internalType": "address",
          "name": "tokenAddr",
          "type": "address"
        },
        {
          "internalType": "string",
          "name": "description",
          "type": "string"
        },
        {
          "internalType": "uint256",
          "name": "fundRaisingStartedAt",
          "type": "uint256"
        },
        {
          "internalType": "uint256",
          "name": "fundRaisingEndedAt",
          "type": "uint256"
        },
        {
          "internalType": "uint256",
          "name": "investmentReward",
          "type": "uint256"
        },
        {
          "internalType": "uint256",
          "name": "rewardDeclineRate",
          "type": "uint256"
        },
        {
          "internalType": "uint256",
          "name": "shareToken",
          "type": "uint256"
        },
        {
          "internalType": "uint256",
          "name": "minFundRaising",
          "type": "uint256"
        },
        {
          "internalType": "uint256",
          "name": "addLiquidityPool",
          "type": "uint256"
        },
        {
          "internalType": "uint256",
          "name": "totalDepositToken",
          "type": "uint256"
        }
      ],
      "payable": false,
      "stateMutability": "view",
      "type": "function"
    },
    {
      "constant": true,
      "inputs": [
        {
          "internalType": "string",
          "name": "",
          "type": "string"
        }
      ],
      "name": "investors",
      "outputs": [
        {
          "internalType": "address",
          "name": "investor",
          "type": "address"
        },
        {
          "internalType": "uint256",
          "name": "value",
          "type": "uint256"
        },
        {
          "internalType": "uint256",
          "name": "time",
          "type": "uint256"
        }
      ],
      "payable": false,
      "stateMutability": "view",
      "type": "function"
    },
    {
      "constant": true,
      "inputs": [
        {
          "internalType": "string",
          "name": "",
          "type": "string"
        }
      ],
      "name": "status",
      "outputs": [
        {
          "internalType": "bool",
          "name": "isFinished",
          "type": "bool"
        },
        {
          "internalType": "bool",
          "name": "isSuccess",
          "type": "bool"
        },
        {
          "internalType": "bool",
          "name": "isEnabled",
          "type": "bool"
        }
      ],
      "payable": false,
      "stateMutability": "view",
      "type": "function"
    },
    {
      "constant": false,
      "inputs": [
        {
          "internalType": "address payable",
          "name": "addr",
          "type": "address"
        }
      ],
      "name": "setCoinBase",
      "outputs": [],
      "payable": false,
      "stateMutability": "nonpayable",
      "type": "function"
    },
    {
      "constant": true,
      "inputs": [],
      "name": "getDate",
      "outputs": [
        {
          "internalType": "uint256",
          "name": "",
          "type": "uint256"
        }
      ],
      "payable": false,
      "stateMutability": "view",
      "type": "function"
    },
    {
      "constant": false,
      "inputs": [
        {
          "components": [
            {
              "internalType": "string",
              "name": "id",
              "type": "string"
            },
            {
              "internalType": "address",
              "name": "walletAddr",
              "type": "address"
            },
            {
              "internalType": "address",
              "name": "tokenAddr",
              "type": "address"
            },
            {
              "internalType": "string",
              "name": "description",
              "type": "string"
            },
            {
              "internalType": "uint256",
              "name": "fundRaisingStartedAt",
              "type": "uint256"
            },
            {
              "internalType": "uint256",
              "name": "fundRaisingEndedAt",
              "type": "uint256"
            },
            {
              "internalType": "uint256",
              "name": "investmentReward",
              "type": "uint256"
            },
            {
              "internalType": "uint256",
              "name": "rewardDeclineRate",
              "type": "uint256"
            },
            {
              "internalType": "uint256",
              "name": "shareToken",
              "type": "uint256"
            },
            {
              "internalType": "uint256",
              "name": "minFundRaising",
              "type": "uint256"
            },
            {
              "internalType": "uint256",
              "name": "addLiquidityPool",
              "type": "uint256"
            },
            {
              "internalType": "uint256",
              "name": "totalDepositToken",
              "type": "uint256"
            }
          ],
          "internalType": "struct Disco.DiscoInfo",
          "name": "d",
          "type": "tuple"
        }
      ],
      "name": "newDisco",
      "outputs": [],
      "payable": true,
      "stateMutability": "payable",
      "type": "function"
    },
    {
      "constant": false,
      "inputs": [
        {
          "internalType": "string",
          "name": "id",
          "type": "string"
        }
      ],
      "name": "enableDisco",
      "outputs": [],
      "payable": false,
      "stateMutability": "nonpayable",
      "type": "function"
    },
    {
      "constant": false,
      "inputs": [
        {
          "internalType": "string",
          "name": "id",
          "type": "string"
        }
      ],
      "name": "finishedDisco",
      "outputs": [],
      "payable": false,
      "stateMutability": "nonpayable",
      "type": "function"
    },
    {
      "constant": false,
      "inputs": [
        {
          "internalType": "string",
          "name": "id",
          "type": "string"
        },
        {
          "internalType": "uint256",
          "name": "time",
          "type": "uint256"
        }
      ],
      "name": "investor",
      "outputs": [],
      "payable": true,
      "stateMutability": "payable",
      "type": "function"
    }
  ],
  "bytecode": "0x608060405234801561001057600080fd5b50336000806101000a81548173ffffffffffffffffffffffffffffffffffffffff021916908373ffffffffffffffffffffffffffffffffffffffff1602179055506120b2806100606000396000f3fe6080604052600436106200009e5760003560e01c80635e56fb0111620000615780635e56fb0114620001b65780637a328a7e14620001fa578063b16e68eb1462000228578063c79d19211462000248578063e8ca64f41462000276576200009e565b8063283e2e0414620000a35780632df7917214620000d1578063430fe9c1146200012057806348569ee914620001505780635b396f0a1462000170575b600080fd5b348015620000b057600080fd5b50620000cf6004803603620000c991908101906200125a565b620002bc565b005b348015620000de57600080fd5b50620000fd6004803603620000f791908101906200132d565b62000392565b604051620001179c9b9a999897969594939291906200178f565b60405180910390f35b3480156200012d57600080fd5b506200013862000580565b6040516200014791906200192b565b60405180910390f35b6200016e600480360362000168919081019062001372565b62000588565b005b3480156200017d57600080fd5b506200019c60048036036200019691908101906200132d565b620008c2565b604051620001ad9392919062001668565b60405180910390f35b348015620001c357600080fd5b50620001e26004803603620001dc91908101906200132d565b62000922565b604051620001f19190620016e2565b60405180910390f35b3480156200020757600080fd5b5062000226600480360362000220919081019062001286565b62000976565b005b620002466004803603620002409190810190620012cf565b62000a6f565b005b3480156200025557600080fd5b506200027460048036036200026e919081019062001286565b62000c20565b005b3480156200028357600080fd5b50620002a260048036036200029c91908101906200132d565b62000e56565b604051620002b393929190620016a5565b60405180910390f35b6000809054906101000a900473ffffffffffffffffffffffffffffffffffffffff1673ffffffffffffffffffffffffffffffffffffffff163373ffffffffffffffffffffffffffffffffffffffff16146200034e576040517f08c379a00000000000000000000000000000000000000000000000000000000081526004016200034590620018e7565b60405180910390fd5b80600160006101000a81548173ffffffffffffffffffffffffffffffffffffffff021916908373ffffffffffffffffffffffffffffffffffffffff16021790555050565b600281805160208101820180518482526020830160208501208183528095505050505050600091509050806000018054600181600116156101000203166002900480601f016020809104026020016040519081016040528092919081815260200182805460018160011615610100020316600290048015620004585780601f106200042c5761010080835404028352916020019162000458565b820191906000526020600020905b8154815290600101906020018083116200043a57829003601f168201915b5050505050908060010160009054906101000a900473ffffffffffffffffffffffffffffffffffffffff16908060020160009054906101000a900473ffffffffffffffffffffffffffffffffffffffff1690806003018054600181600116156101000203166002900480601f016020809104026020016040519081016040528092919081815260200182805460018160011615610100020316600290048015620005465780601f106200051a5761010080835404028352916020019162000546565b820191906000526020600020905b8154815290600101906020018083116200052857829003601f168201915b50505050509080600401549080600501549080600601549080600701549080600801549080600901549080600a01549080600b015490508c565b600042905090565b600081600001515114156200059c57600080fd5b620005a662000ebd565b60405180606001604052806000151581526020016000151581526020016000151581525090508160028360000151604051620005e391906200164f565b908152602001604051809103902060008201518160000190805190602001906200060f92919062000ee4565b5060208201518160010160006101000a81548173ffffffffffffffffffffffffffffffffffffffff021916908373ffffffffffffffffffffffffffffffffffffffff16021790555060408201518160020160006101000a81548173ffffffffffffffffffffffffffffffffffffffff021916908373ffffffffffffffffffffffffffffffffffffffff1602179055506060820151816003019080519060200190620006bc92919062000ee4565b506080820151816004015560a0820151816005015560c0820151816006015560e082015181600701556101008201518160080155610120820151816009015561014082015181600a015561016082015181600b015590505080600483600001516040516200072b91906200164f565b908152602001604051809103902060008201518160000160006101000a81548160ff02191690831515021790555060208201518160000160016101000a81548160ff02191690831515021790555060408201518160000160026101000a81548160ff02191690831515021790555090505060008260000151604051620007b19062000f6b565b620007bd91906200176b565b604051809103906000f080158015620007da573d6000803e3d6000fd5b509050620007e762000f79565b60405180602001604052808373ffffffffffffffffffffffffffffffffffffffff16815250905080600585600001516040516200082591906200164f565b908152602001604051809103902060008201518160000160006101000a81548173ffffffffffffffffffffffffffffffffffffffff021916908373ffffffffffffffffffffffffffffffffffffffff1602179055509050507ff7e24b64c3d2ed7d191ce3009c2e12632005b58578ce39e23f97eaec9fd6c3e1846000015183604051620008b49291906200186f565b60405180910390a150505050565b6003818051602081018201805184825260208301602085012081835280955050505050506000915090508060000160009054906101000a900473ffffffffffffffffffffffffffffffffffffffff16908060010154908060020154905083565b6005818051602081018201805184825260208301602085012081835280955050505050506000915090508060000160009054906101000a900473ffffffffffffffffffffffffffffffffffffffff16905081565b600482826040516200098a92919062001634565b908152602001604051809103902060000160009054906101000a900460ff1615620009b457600080fd5b600160048383604051620009ca92919062001634565b908152602001604051809103902060000160006101000a81548160ff02191690831515021790555060016004838360405162000a0892919062001634565b908152602001604051809103902060000160016101000a81548160ff0219169083151502179055507ff160f3dffe03db5b7581857432e80e041e79cf7cbac4f9e90bd6b522f685deee828260405162000a63929190620016ff565b60405180910390a15050565b62000a7962000fa2565b6040518060600160405280600160009054906101000a900473ffffffffffffffffffffffffffffffffffffffff1673ffffffffffffffffffffffffffffffffffffffff168152602001348152602001838152509050806003858560405162000ae392919062001634565b908152602001604051809103902060008201518160000160006101000a81548173ffffffffffffffffffffffffffffffffffffffff021916908373ffffffffffffffffffffffffffffffffffffffff1602179055506020820151816001015560408201518160020155905050600160009054906101000a900473ffffffffffffffffffffffffffffffffffffffff1673ffffffffffffffffffffffffffffffffffffffff166108fc349081150290604051600060405180830381858888f1935050505015801562000bb8573d6000803e3d6000fd5b507f5fec6c2d2d376aa6f4c793e34f6cc71d65285bd07d1e709292fafc2b28bf2fbe8484600160009054906101000a900473ffffffffffffffffffffffffffffffffffffffff163460405162000c12949392919062001725565b60405180910390a150505050565b600073ffffffffffffffffffffffffffffffffffffffff16600160009054906101000a900473ffffffffffffffffffffffffffffffffffffffff1673ffffffffffffffffffffffffffffffffffffffff16141562000c7d57600080fd5b62000c8762000580565b6002838360405162000c9b92919062001634565b9081526020016040518091039020600401541162000cf0576040517f08c379a000000000000000000000000000000000000000000000000000000000815260040162000ce79062001909565b60405180910390fd5b62000cfa62000580565b6002838360405162000d0e92919062001634565b9081526020016040518091039020600501541062000d63576040517f08c379a000000000000000000000000000000000000000000000000000000000815260040162000d5a90620018c5565b60405180910390fd5b6004828260405162000d7792919062001634565b908152602001604051809103902060000160029054906101000a900460ff161562000dd9576040517f08c379a000000000000000000000000000000000000000000000000000000000815260040162000dd090620018a3565b60405180910390fd5b60016004838360405162000def92919062001634565b908152602001604051809103902060000160026101000a81548160ff0219169083151502179055507f44ec18e6fb6c9893aa22a7236add99d912e21075f568b1f65c6b3d7a65e285d8828260405162000e4a929190620016ff565b60405180910390a15050565b6004818051602081018201805184825260208301602085012081835280955050505050506000915090508060000160009054906101000a900460ff16908060000160019054906101000a900460ff16908060000160029054906101000a900460ff16905083565b60405180606001604052806000151581526020016000151581526020016000151581525090565b828054600181600116156101000203166002900490600052602060002090601f016020900481019282601f1062000f2757805160ff191683800117855562000f58565b8280016001018555821562000f58579182015b8281111562000f5757825182559160200191906001019062000f3a565b5b50905062000f67919062000fd9565b5090565b61053f8062001b3183390190565b6040518060200160405280600073ffffffffffffffffffffffffffffffffffffffff1681525090565b6040518060600160405280600073ffffffffffffffffffffffffffffffffffffffff16815260200160008152602001600081525090565b62000ffe91905b8082111562000ffa57600081600090555060010162000fe0565b5090565b90565b600081359050620010128162001ae2565b92915050565b600081359050620010298162001afc565b92915050565b60008083601f8401126200104257600080fd5b8235905067ffffffffffffffff8111156200105c57600080fd5b6020830191508360018202830111156200107557600080fd5b9250929050565b600082601f8301126200108e57600080fd5b8135620010a56200109f8262001976565b62001948565b91508082526020830160208301858383011115620010c257600080fd5b620010cf83828462001a8c565b50505092915050565b60006101808284031215620010ec57600080fd5b620010f961018062001948565b9050600082013567ffffffffffffffff8111156200111657600080fd5b62001124848285016200107c565b60008301525060206200113a8482850162001001565b6020830152506040620011508482850162001001565b604083015250606082013567ffffffffffffffff8111156200117157600080fd5b6200117f848285016200107c565b6060830152506080620011958482850162001243565b60808301525060a0620011ab8482850162001243565b60a08301525060c0620011c18482850162001243565b60c08301525060e0620011d78482850162001243565b60e083015250610100620011ee8482850162001243565b61010083015250610120620012068482850162001243565b610120830152506101406200121e8482850162001243565b61014083015250610160620012368482850162001243565b6101608301525092915050565b600081359050620012548162001b16565b92915050565b6000602082840312156200126d57600080fd5b60006200127d8482850162001018565b91505092915050565b600080602083850312156200129a57600080fd5b600083013567ffffffffffffffff811115620012b557600080fd5b620012c3858286016200102f565b92509250509250929050565b600080600060408486031215620012e557600080fd5b600084013567ffffffffffffffff8111156200130057600080fd5b6200130e868287016200102f565b93509350506020620013238682870162001243565b9150509250925092565b6000602082840312156200134057600080fd5b600082013567ffffffffffffffff8111156200135b57600080fd5b62001369848285016200107c565b91505092915050565b6000602082840312156200138557600080fd5b600082013567ffffffffffffffff811115620013a057600080fd5b620013ae84828501620010d8565b91505092915050565b620013c28162001a28565b82525050565b620013d381620019ca565b82525050565b620013e481620019f2565b82525050565b620013f58162001a3c565b82525050565b6000620014098385620019ae565b93506200141883858462001a8c565b620014238362001ad1565b840190509392505050565b60006200143c8385620019bf565b93506200144b83858462001a8c565b82840190509392505050565b60006200146482620019a3565b620014708185620019ae565b93506200148281856020860162001a9b565b6200148d8162001ad1565b840191505092915050565b6000620014a582620019a3565b620014b18185620019bf565b9350620014c381856020860162001a9b565b80840191505092915050565b6000620014de602083620019ae565b91507fe5bd93e5898d646973636fe99c80e8a681e69caae8a2abe5bc80e590afe8bf876000830152602082019050919050565b600062001520603283620019ae565b91507fe5bd93e5898de697b6e997b4e99c80e8a681e5b08fe4ba8e646973636fe79a8460008301527fe7bb93e69d9fe58b9fe8b584e697b6e997b400000000000000000000000000006020830152604082019050919050565b600062001588601483620019ae565b91507f43616c6c6572206973206e6f74206f776e6572210000000000000000000000006000830152602082019050919050565b6000620015ca603283620019ae565b91507fe5bd93e5898de697b6e997b4e99c80e8a681e5a4a7e4ba8e646973636fe79a8460008301527fe5bc80e5a78be58b9fe8b584e697b6e997b400000000000000000000000000006020830152604082019050919050565b6200162e8162001a1e565b82525050565b6000620016438284866200142e565b91508190509392505050565b60006200165d828462001498565b915081905092915050565b60006060820190506200167f6000830186620013c8565b6200168e602083018562001623565b6200169d604083018462001623565b949350505050565b6000606082019050620016bc6000830186620013d9565b620016cb6020830185620013d9565b620016da6040830184620013d9565b949350505050565b6000602082019050620016f96000830184620013ea565b92915050565b600060208201905081810360008301526200171c818486620013fb565b90509392505050565b6000606082019050818103600083015262001742818688620013fb565b9050620017536020830185620013b7565b62001762604083018462001623565b95945050505050565b6000602082019050818103600083015262001787818462001457565b905092915050565b6000610180820190508181036000830152620017ac818f62001457565b9050620017bd602083018e620013c8565b620017cc604083018d620013c8565b8181036060830152620017e0818c62001457565b9050620017f1608083018b62001623565b6200180060a083018a62001623565b6200180f60c083018962001623565b6200181e60e083018862001623565b6200182e61010083018762001623565b6200183e61012083018662001623565b6200184e61014083018562001623565b6200185e61016083018462001623565b9d9c50505050505050505050505050565b600060408201905081810360008301526200188b818562001457565b90506200189c6020830184620013ea565b9392505050565b60006020820190508181036000830152620018be81620014cf565b9050919050565b60006020820190508181036000830152620018e08162001511565b9050919050565b60006020820190508181036000830152620019028162001579565b9050919050565b600060208201905081810360008301526200192481620015bb565b9050919050565b600060208201905062001942600083018462001623565b92915050565b6000604051905081810181811067ffffffffffffffff821117156200196c57600080fd5b8060405250919050565b600067ffffffffffffffff8211156200198e57600080fd5b601f19601f8301169050602081019050919050565b600081519050919050565b600082825260208201905092915050565b600081905092915050565b6000620019d782620019fe565b9050919050565b6000620019eb82620019fe565b9050919050565b60008115159050919050565b600073ffffffffffffffffffffffffffffffffffffffff82169050919050565b6000819050919050565b600062001a358262001a64565b9050919050565b600062001a498262001a50565b9050919050565b600062001a5d82620019fe565b9050919050565b600062001a718262001a78565b9050919050565b600062001a8582620019fe565b9050919050565b82818337600083830152505050565b60005b8381101562001abb57808201518184015260208101905062001a9e565b8381111562001acb576000848401525b50505050565b6000601f19601f8301169050919050565b62001aed81620019ca565b811462001af957600080fd5b50565b62001b0781620019de565b811462001b1357600080fd5b50565b62001b218162001a1e565b811462001b2d57600080fd5b5056fe608060405234801561001057600080fd5b5060405161053f38038061053f83398181016040526100329190810190610148565b806000908051906020019061004892919061004f565b5050610215565b828054600181600116156101000203166002900490600052602060002090601f016020900481019282601f1061009057805160ff19168380011785556100be565b828001600101855582156100be579182015b828111156100bd5782518255916020019190600101906100a2565b5b5090506100cb91906100cf565b5090565b6100f191905b808211156100ed5760008160009055506001016100d5565b5090565b90565b600082601f83011261010557600080fd5b8151610118610113826101b6565b610189565b9150808252602083016020830185838301111561013457600080fd5b61013f8382846101e2565b50505092915050565b60006020828403121561015a57600080fd5b600082015167ffffffffffffffff81111561017457600080fd5b610180848285016100f4565b91505092915050565b6000604051905081810181811067ffffffffffffffff821117156101ac57600080fd5b8060405250919050565b600067ffffffffffffffff8211156101cd57600080fd5b601f19601f8301169050602081019050919050565b60005b838110156102005780820151818401526020810190506101e5565b8381111561020f576000848401525b50505050565b61031b806102246000396000f3fe608060405234801561001057600080fd5b50600436106100365760003560e01c8063af640d0f1461003b578063fb1e6a6214610059575b600080fd5b610043610077565b6040516100509190610229565b60405180910390f35b610061610115565b60405161006e919061024b565b60405180910390f35b60008054600181600116156101000203166002900480601f01602080910402602001604051908101604052809291908181526020018280546001816001161561010002031660029004801561010d5780601f106100e25761010080835404028352916020019161010d565b820191906000526020600020905b8154815290600101906020018083116100f057829003601f168201915b505050505081565b606060008054600181600116156101000203166002900480601f0160208091040260200160405190810160405280929190818152602001828054600181600116156101000203166002900480156101ad5780601f10610182576101008083540402835291602001916101ad565b820191906000526020600020905b81548152906001019060200180831161019057829003601f168201915b5050505050905090565b60006101c282610278565b6101cc8185610283565b93506101dc818560208601610294565b6101e5816102c7565b840191505092915050565b60006101fb8261026d565b6102058185610283565b9350610215818560208601610294565b61021e816102c7565b840191505092915050565b6000602082019050818103600083015261024381846101f0565b905092915050565b6000602082019050818103600083015261026581846101b7565b905092915050565b600081519050919050565b600081519050919050565b600082825260208201905092915050565b60005b838110156102b2578082015181840152602081019050610297565b838111156102c1576000848401525b50505050565b6000601f19601f830116905091905056fea365627a7a72315820fbe6e805084ceae888737b92b9c1334de550184e1d82400aa901b00d325b14bb6c6578706572696d656e74616cf564736f6c63430005100040a365627a7a72315820fca90ec958bdd5f4ec121b43f7fc113dc30c667b5289188818be833c8271b37d6c6578706572696d656e74616cf564736f6c63430005100040",
  "source": "// Disco \r\npragma solidity >=0.4.21 <0.7.0;\r\npragma experimental ABIEncoderV2;\r\n\r\ncontract Disco {\r\n    address private _owner;\r\n    address payable private _coinbase;\r\n\r\n\r\n    // disco\r\n    struct DiscoInfo {\r\n        string id;\r\n        address walletAddr;\r\n        address tokenAddr;\r\n        string description;\r\n        uint256 fundRaisingStartedAt;\r\n        uint256 fundRaisingEndedAt;\r\n        uint256 investmentReward;\r\n        uint256 rewardDeclineRate;\r\n        uint256 shareToken;\r\n        uint256 minFundRaising;\r\n        uint256 addLiquidityPool;\r\n        uint256 totalDepositToken;\r\n    }\r\n\r\n    // disco \r\n    struct DiscoInvestor {\r\n        // \r\n        address investor;\r\n        // , \r\n        uint value;\r\n        // \r\n        uint time;\r\n        // // TOKEN\r\n        // uint256 sharedToken;\r\n        // // TOKEN\r\n        // uint256 rewardedToken;\r\n    }\r\n\r\n    // disco\r\n    struct DiscoStatus {\r\n        // \r\n        bool isFinished;\r\n        // \r\n        bool isSuccess;\r\n        // \r\n        bool isEnabled;\r\n    }\r\n\r\n    struct DiscoInvestAddr {\r\n        DiscoAddr discoAddr;\r\n    }\r\n\r\n    // disco\r\n    mapping(string => DiscoInfo) public discos;\r\n    // \r\n    mapping(string => DiscoInvestor) public investors;\r\n    // \r\n    mapping(string => DiscoStatus) public status;\r\n    //  disco \r\n    mapping(string => DiscoInvestAddr) public discoAddress;\r\n\r\n    // \r\n    event createdDisco(string discoId, DiscoAddr addr);\r\n    // \r\n    // event enabledDisco(string discoId, address discoAddr);\r\n    event enabledDisco(string discoId);\r\n    // \r\n    event fundraisingSucceed(string discoId);\r\n    //\r\n    event fundraisingFinished(string discoIdo);\r\n    // \r\n    event fundraisingFailed(string discoId);\r\n    //  disco \r\n    event investToDisco(string discoId, address investorAddr, uint amount);\r\n\r\n    // \r\n    modifier isOwner() {\r\n        require(msg.sender == _owner, \"Caller is not owner!\");\r\n        _;\r\n    }\r\n\r\n    constructor()\r\n    public {\r\n        _owner = msg.sender;\r\n    }\r\n\r\n    function setCoinBase(address payable addr)\r\n    isOwner\r\n    public {\r\n        _coinbase = addr;\r\n    }\r\n\r\n    //  \r\n    function getDate() public view returns (uint256){\r\n        return now;\r\n    }\r\n\r\n    // Disco\r\n    /**\r\n    * @param d  tuple forward.\r\n    **/\r\n    function newDisco(DiscoInfo memory d) public payable {\r\n        require(bytes(d.id).length != 0);\r\n        DiscoStatus memory s = DiscoStatus(\r\n            false,\r\n            false,\r\n            false\r\n        );\r\n        discos[d.id] = d;\r\n        status[d.id] = s;\r\n        // , discoAddr DiscoAddr  \r\n        DiscoAddr addr = new DiscoAddr(d.id);\r\n        // disco id  disco \r\n        DiscoInvestAddr memory discoInvestAddr = DiscoInvestAddr(addr);\r\n        discoAddress[d.id] = discoInvestAddr;\r\n        // disco \r\n        emit createdDisco(d.id, addr);\r\n    }\r\n\r\n\r\n    /**\r\n     * @dev disco\r\n     */\r\n    function enableDisco(string calldata id) external {\r\n        require(_coinbase != address(0));\r\n        require(discos[id].fundRaisingStartedAt > getDate(), 'disco');\r\n        require(discos[id].fundRaisingEndedAt < getDate(), 'disco');\r\n        require(!status[id].isEnabled, 'disco');\r\n\r\n        status[id].isEnabled = true;\r\n        // \r\n        emit enabledDisco(id);\r\n    }\r\n\r\n\r\n\r\n    /**\r\n     * @dev  disco disco\r\n     */\r\n    function finishedDisco(string calldata id) external {\r\n        require(!status[id].isFinished);\r\n        status[id].isFinished = true;\r\n\r\n        // TODO \r\n        status[id].isSuccess = true;\r\n        // if ('') {\r\n        //   status[id].isSuccess = true;\r\n        //   // TODO  swap\r\n        // } else {\r\n        //   status[id].isSuccess = false;\r\n        // }\r\n        emit fundraisingFinished(id);\r\n    }\r\n\r\n    // ,  \r\n    function investor(string calldata id, uint256 time) external payable {\r\n        //  require(_coinbase != address(0));\r\n        DiscoInvestor memory d = DiscoInvestor(\r\n            _coinbase,\r\n            msg.value,\r\n            time\r\n        );\r\n        investors[id] = d;\r\n        _coinbase.transfer(msg.value);\r\n\r\n        emit investToDisco(id, _coinbase, msg.value);\r\n    }\r\n}\r\n\r\n\r\n// \r\ncontract DiscoAddr {\r\n\r\n    string public id;\r\n    // suppose the deployed contract has a purpose\r\n\r\n    constructor(string memory discoId) public {\r\n        id = discoId;\r\n    }\r\n\r\n\r\n    function getDiscoId() external view returns (string memory) {\r\n        return id;\r\n    }\r\n}\r\n",
  "sourcePath": "/Users/Eason/Documents/comunion/cos-contract-com/contracts/Disco.sol",
  "compiler": {
    "name": "solc",
    "version": "0.5.16+commit.9c3226ce.Emscripten.clang"
  },
  "schemaVersion": "3.3.4",
  "updatedAt": "2021-03-04T04:10:10.601Z",
  "devdoc": {
    "methods": {
      "enableDisco(string)": {
        "details": "disco"
      },
      "finishedDisco(string)": {
        "details": " disco disco"
      },
      "newDisco((string,address,address,string,uint256,uint256,uint256,uint256,uint256,uint256,uint256,uint256))": {
        "params": {
          "d": "tuple forward.*"
        }
      }
    }
  },
  "userdoc": {
    "methods": {}
  }
}