{
  "contractName": "Disco",
  "abi": [
    {
      "inputs": [],
      "payable": false,
      "stateMutability": "nonpayable",
      "type": "constructor"
    },
    {
      "anonymous": false,
      "inputs": [
        {
          "indexed": false,
          "internalType": "string",
          "name": "discoId",
          "type": "string"
        },
        {
          "indexed": false,
          "internalType": "contract DiscoAddr",
          "name": "addr",
          "type": "address"
        }
      ],
      "name": "createdDisco",
      "type": "event"
    },
    {
      "anonymous": false,
      "inputs": [
        {
          "indexed": false,
          "internalType": "string",
          "name": "discoId",
          "type": "string"
        }
      ],
      "name": "enabeldDisco",
      "type": "event"
    },
    {
      "anonymous": false,
      "inputs": [
        {
          "indexed": false,
          "internalType": "string",
          "name": "discoId",
          "type": "string"
        }
      ],
      "name": "fundraisingFailed",
      "type": "event"
    },
    {
      "anonymous": false,
      "inputs": [
        {
          "indexed": false,
          "internalType": "string",
          "name": "discoIdo",
          "type": "string"
        }
      ],
      "name": "fundraisingFinished",
      "type": "event"
    },
    {
      "anonymous": false,
      "inputs": [
        {
          "indexed": false,
          "internalType": "string",
          "name": "discoId",
          "type": "string"
        }
      ],
      "name": "fundraisingSuccessed",
      "type": "event"
    },
    {
      "anonymous": false,
      "inputs": [
        {
          "indexed": false,
          "internalType": "string",
          "name": "discoId",
          "type": "string"
        },
        {
          "indexed": false,
          "internalType": "address",
          "name": "investorAddr",
          "type": "address"
        },
        {
          "indexed": false,
          "internalType": "uint256",
          "name": "amount",
          "type": "uint256"
        }
      ],
      "name": "investToDisco",
      "type": "event"
    },
    {
      "constant": true,
      "inputs": [
        {
          "internalType": "string",
          "name": "",
          "type": "string"
        }
      ],
      "name": "discoAddress",
      "outputs": [
        {
          "internalType": "contract DiscoAddr",
          "name": "discoAddr",
          "type": "address"
        }
      ],
      "payable": false,
      "stateMutability": "view",
      "type": "function"
    },
    {
      "constant": true,
      "inputs": [
        {
          "internalType": "string",
          "name": "",
          "type": "string"
        }
      ],
      "name": "discos",
      "outputs": [
        {
          "internalType": "address",
          "name": "walletAddr",
          "type": "address"
        },
        {
          "internalType": "address",
          "name": "tokenAddr",
          "type": "address"
        },
        {
          "internalType": "string",
          "name": "description",
          "type": "string"
        },
        {
          "internalType": "uint256",
          "name": "fundRaisingStartedAt",
          "type": "uint256"
        },
        {
          "internalType": "uint256",
          "name": "fundRaisingEndedAt",
          "type": "uint256"
        },
        {
          "internalType": "uint256",
          "name": "investmentReward",
          "type": "uint256"
        },
        {
          "internalType": "uint256",
          "name": "rewardDeclineRate",
          "type": "uint256"
        },
        {
          "internalType": "uint256",
          "name": "shareToken",
          "type": "uint256"
        },
        {
          "internalType": "uint256",
          "name": "minFundRaising",
          "type": "uint256"
        },
        {
          "internalType": "uint256",
          "name": "addLiquidityPool",
          "type": "uint256"
        },
        {
          "internalType": "uint256",
          "name": "totalDepositToken",
          "type": "uint256"
        }
      ],
      "payable": false,
      "stateMutability": "view",
      "type": "function"
    },
    {
      "constant": true,
      "inputs": [
        {
          "internalType": "string",
          "name": "",
          "type": "string"
        }
      ],
      "name": "investors",
      "outputs": [
        {
          "internalType": "address",
          "name": "investor",
          "type": "address"
        },
        {
          "internalType": "uint256",
          "name": "value",
          "type": "uint256"
        },
        {
          "internalType": "uint256",
          "name": "time",
          "type": "uint256"
        }
      ],
      "payable": false,
      "stateMutability": "view",
      "type": "function"
    },
    {
      "constant": true,
      "inputs": [
        {
          "internalType": "string",
          "name": "",
          "type": "string"
        }
      ],
      "name": "status",
      "outputs": [
        {
          "internalType": "bool",
          "name": "isFinished",
          "type": "bool"
        },
        {
          "internalType": "bool",
          "name": "isSuccess",
          "type": "bool"
        },
        {
          "internalType": "bool",
          "name": "isEnabled",
          "type": "bool"
        }
      ],
      "payable": false,
      "stateMutability": "view",
      "type": "function"
    },
    {
      "constant": false,
      "inputs": [
        {
          "internalType": "address payable",
          "name": "addr",
          "type": "address"
        }
      ],
      "name": "setCoinBase",
      "outputs": [],
      "payable": false,
      "stateMutability": "nonpayable",
      "type": "function"
    },
    {
      "constant": true,
      "inputs": [],
      "name": "getDate",
      "outputs": [
        {
          "internalType": "uint256",
          "name": "",
          "type": "uint256"
        }
      ],
      "payable": false,
      "stateMutability": "view",
      "type": "function"
    },
    {
      "constant": false,
      "inputs": [
        {
          "internalType": "string",
          "name": "id",
          "type": "string"
        },
        {
          "internalType": "address",
          "name": "walletAddr",
          "type": "address"
        },
        {
          "internalType": "address",
          "name": "tokenAddr",
          "type": "address"
        },
        {
          "internalType": "string",
          "name": "description",
          "type": "string"
        },
        {
          "internalType": "uint256",
          "name": "fundRaisingStartedAt",
          "type": "uint256"
        },
        {
          "internalType": "uint256",
          "name": "fundRaisingEndedAt",
          "type": "uint256"
        },
        {
          "internalType": "uint256",
          "name": "investmentReward",
          "type": "uint256"
        },
        {
          "internalType": "uint256",
          "name": "rewardDeclineRate",
          "type": "uint256"
        },
        {
          "internalType": "uint256",
          "name": "shareToken",
          "type": "uint256"
        },
        {
          "internalType": "uint256",
          "name": "minFundRaising",
          "type": "uint256"
        },
        {
          "internalType": "uint256",
          "name": "addLiquidityPool",
          "type": "uint256"
        },
        {
          "internalType": "uint256",
          "name": "totalDepositToken",
          "type": "uint256"
        }
      ],
      "name": "newDisco",
      "outputs": [],
      "payable": true,
      "stateMutability": "payable",
      "type": "function"
    },
    {
      "constant": false,
      "inputs": [
        {
          "internalType": "string",
          "name": "id",
          "type": "string"
        }
      ],
      "name": "enableDisco",
      "outputs": [],
      "payable": false,
      "stateMutability": "nonpayable",
      "type": "function"
    },
    {
      "constant": false,
      "inputs": [
        {
          "internalType": "string",
          "name": "id",
          "type": "string"
        }
      ],
      "name": "finishedDisco",
      "outputs": [],
      "payable": false,
      "stateMutability": "nonpayable",
      "type": "function"
    },
    {
      "constant": false,
      "inputs": [
        {
          "internalType": "string",
          "name": "id",
          "type": "string"
        },
        {
          "internalType": "address payable",
          "name": "investorAddress",
          "type": "address"
        },
        {
          "internalType": "uint256",
          "name": "time",
          "type": "uint256"
        }
      ],
      "name": "investor",
      "outputs": [],
      "payable": true,
      "stateMutability": "payable",
      "type": "function"
    }
  ],
  "bytecode": "0x608060405234801561001057600080fd5b50336000806101000a81548173ffffffffffffffffffffffffffffffffffffffff021916908373ffffffffffffffffffffffffffffffffffffffff160217905550611ffa806100606000396000f3fe6080604052600436106200009e5760003560e01c80637a328a7e11620000615780637a328a7e146200053b57806380afeef3146200060a578063c79d192114620006f5578063e8ca64f414620007c4578063e9dd570a14620008c1576200009e565b8063283e2e0414620000a35780632df7917214620000f8578063430fe9c114620002e15780635b396f0a146200030f5780635e56fb01146200042c575b600080fd5b348015620000b057600080fd5b50620000f660048036036020811015620000c957600080fd5b81019080803573ffffffffffffffffffffffffffffffffffffffff16906020019092919050505062000aad565b005b3480156200010557600080fd5b50620001c5600480360360208110156200011e57600080fd5b81019080803590602001906401000000008111156200013c57600080fd5b8201836020820111156200014f57600080fd5b803590602001918460018302840111640100000000831117156200017257600080fd5b91908080601f016020809104026020016040519081016040528093929190818152602001838380828437600081840152601f19601f82011690508083019250505050505050919291929050505062000b4b565b604051808c73ffffffffffffffffffffffffffffffffffffffff1673ffffffffffffffffffffffffffffffffffffffff1681526020018b73ffffffffffffffffffffffffffffffffffffffff1673ffffffffffffffffffffffffffffffffffffffff168152602001806020018a815260200189815260200188815260200187815260200186815260200185815260200184815260200183815260200182810382528b818151815260200191508051906020019080838360005b838110156200029b5780820151818401526020810190506200027e565b50505050905090810190601f168015620002c95780820380516001836020036101000a031916815260200191505b509c5050505050505050505050505060405180910390f35b348015620002ee57600080fd5b50620002f962000c97565b6040518082815260200191505060405180910390f35b3480156200031c57600080fd5b50620003dc600480360360208110156200033557600080fd5b81019080803590602001906401000000008111156200035357600080fd5b8201836020820111156200036657600080fd5b803590602001918460018302840111640100000000831117156200038957600080fd5b91908080601f016020809104026020016040519081016040528093929190818152602001838380828437600081840152601f19601f82011690508083019250505050505050919291929050505062000c9f565b604051808473ffffffffffffffffffffffffffffffffffffffff1673ffffffffffffffffffffffffffffffffffffffff168152602001838152602001828152602001935050505060405180910390f35b3480156200043957600080fd5b50620004f9600480360360208110156200045257600080fd5b81019080803590602001906401000000008111156200047057600080fd5b8201836020820111156200048357600080fd5b80359060200191846001830284011164010000000083111715620004a657600080fd5b91908080601f016020809104026020016040519081016040528093929190818152602001838380828437600081840152601f19601f82011690508083019250505050505050919291929050505062000cff565b604051808273ffffffffffffffffffffffffffffffffffffffff1673ffffffffffffffffffffffffffffffffffffffff16815260200191505060405180910390f35b3480156200054857600080fd5b5062000608600480360360208110156200056157600080fd5b81019080803590602001906401000000008111156200057f57600080fd5b8201836020820111156200059257600080fd5b80359060200191846001830284011164010000000083111715620005b557600080fd5b91908080601f016020809104026020016040519081016040528093929190818152602001838380828437600081840152601f19601f82011690508083019250505050505050919291929050505062000d53565b005b620006f3600480360360608110156200062257600080fd5b81019080803590602001906401000000008111156200064057600080fd5b8201836020820111156200065357600080fd5b803590602001918460018302840111640100000000831117156200067657600080fd5b91908080601f016020809104026020016040519081016040528093929190818152602001838380828437600081840152601f19601f820116905080830192505050505050509192919290803573ffffffffffffffffffffffffffffffffffffffff1690602001909291908035906020019092919050505062000f8a565b005b3480156200070257600080fd5b50620007c2600480360360208110156200071b57600080fd5b81019080803590602001906401000000008111156200073957600080fd5b8201836020820111156200074c57600080fd5b803590602001918460018302840111640100000000831117156200076f57600080fd5b91908080601f016020809104026020016040519081016040528093929190818152602001838380828437600081840152601f19601f82011690508083019250505050505050919291929050505062001217565b005b348015620007d157600080fd5b506200089160048036036020811015620007ea57600080fd5b81019080803590602001906401000000008111156200080857600080fd5b8201836020820111156200081b57600080fd5b803590602001918460018302840111640100000000831117156200083e57600080fd5b91908080601f016020809104026020016040519081016040528093929190818152602001838380828437600081840152601f19601f820116905080830192505050505050509192919290505050620014cf565b60405180841515151581526020018315151515815260200182151515158152602001935050505060405180910390f35b62000aab6004803603610180811015620008da57600080fd5b8101908080359060200190640100000000811115620008f857600080fd5b8201836020820111156200090b57600080fd5b803590602001918460018302840111640100000000831117156200092e57600080fd5b91908080601f016020809104026020016040519081016040528093929190818152602001838380828437600081840152601f19601f820116905080830192505050505050509192919290803573ffffffffffffffffffffffffffffffffffffffff169060200190929190803573ffffffffffffffffffffffffffffffffffffffff16906020019092919080359060200190640100000000811115620009d257600080fd5b820183602082011115620009e557600080fd5b8035906020019184600183028401116401000000008311171562000a0857600080fd5b91908080601f016020809104026020016040519081016040528093929190818152602001838380828437600081840152601f19601f820116905080830192505050505050509192919290803590602001909291908035906020019092919080359060200190929190803590602001909291908035906020019092919080359060200190929190803590602001909291908035906020019092919050505062001536565b005b6000809054906101000a900473ffffffffffffffffffffffffffffffffffffffff1673ffffffffffffffffffffffffffffffffffffffff163373ffffffffffffffffffffffffffffffffffffffff161462000b0757600080fd5b80600160006101000a81548173ffffffffffffffffffffffffffffffffffffffff021916908373ffffffffffffffffffffffffffffffffffffffff16021790555050565b6002818051602081018201805184825260208301602085012081835280955050505050506000915090508060000160009054906101000a900473ffffffffffffffffffffffffffffffffffffffff16908060010160009054906101000a900473ffffffffffffffffffffffffffffffffffffffff1690806002018054600181600116156101000203166002900480601f01602080910402602001604051908101604052809291908181526020018280546001816001161561010002031660029004801562000c5d5780601f1062000c315761010080835404028352916020019162000c5d565b820191906000526020600020905b81548152906001019060200180831162000c3f57829003601f168201915b50505050509080600301549080600401549080600501549080600601549080600701549080600801549080600901549080600a015490508b565b600042905090565b6003818051602081018201805184825260208301602085012081835280955050505050506000915090508060000160009054906101000a900473ffffffffffffffffffffffffffffffffffffffff16908060010154908060020154905083565b6005818051602081018201805184825260208301602085012081835280955050505050506000915090508060000160009054906101000a900473ffffffffffffffffffffffffffffffffffffffff16905081565b6004816040518082805190602001908083835b6020831062000d8b578051825260208201915060208101905060208303925062000d66565b6001836020036101000a038019825116818451168082178552505050505050905001915050908152602001604051809103902060000160009054906101000a900460ff161562000dda57600080fd5b60016004826040518082805190602001908083835b6020831062000e14578051825260208201915060208101905060208303925062000def565b6001836020036101000a038019825116818451168082178552505050505050905001915050908152602001604051809103902060000160006101000a81548160ff02191690831515021790555060016004826040518082805190602001908083835b6020831062000e9b578051825260208201915060208101905060208303925062000e76565b6001836020036101000a038019825116818451168082178552505050505050905001915050908152602001604051809103902060000160016101000a81548160ff0219169083151502179055507ff160f3dffe03db5b7581857432e80e041e79cf7cbac4f9e90bd6b522f685deee816040518080602001828103825283818151815260200191508051906020019080838360005b8381101562000f4c57808201518184015260208101905062000f2f565b50505050905090810190601f16801562000f7a5780820380516001836020036101000a031916815260200191505b509250505060405180910390a150565b600073ffffffffffffffffffffffffffffffffffffffff16600160009054906101000a900473ffffffffffffffffffffffffffffffffffffffff1673ffffffffffffffffffffffffffffffffffffffff16141562000fe757600080fd5b62000ff1620019af565b60405180606001604052808473ffffffffffffffffffffffffffffffffffffffff168152602001348152602001838152509050806003856040518082805190602001908083835b602083106200105d578051825260208201915060208101905060208303925062001038565b6001836020036101000a038019825116818451168082178552505050505050905001915050908152602001604051809103902060008201518160000160006101000a81548173ffffffffffffffffffffffffffffffffffffffff021916908373ffffffffffffffffffffffffffffffffffffffff16021790555060208201518160010155604082015181600201559050508273ffffffffffffffffffffffffffffffffffffffff166108fc349081150290604051600060405180830381858888f1935050505015801562001135573d6000803e3d6000fd5b507f5fec6c2d2d376aa6f4c793e34f6cc71d65285bd07d1e709292fafc2b28bf2fbe84843460405180806020018473ffffffffffffffffffffffffffffffffffffffff1673ffffffffffffffffffffffffffffffffffffffff168152602001838152602001828103825285818151815260200191508051906020019080838360005b83811015620011d4578082015181840152602081019050620011b7565b50505050905090810190601f168015620012025780820380516001836020036101000a031916815260200191505b5094505050505060405180910390a150505050565b6200122162000c97565b6002826040518082805190602001908083835b6020831062001259578051825260208201915060208101905060208303925062001234565b6001836020036101000a038019825116818451168082178552505050505050905001915050908152602001604051809103902060030154116200129b57600080fd5b620012a562000c97565b6002826040518082805190602001908083835b60208310620012dd5780518252602082019150602081019050602083039250620012b8565b6001836020036101000a038019825116818451168082178552505050505050905001915050908152602001604051809103902060040154106200131f57600080fd5b6004816040518082805190602001908083835b6020831062001357578051825260208201915060208101905060208303925062001332565b6001836020036101000a038019825116818451168082178552505050505050905001915050908152602001604051809103902060000160029054906101000a900460ff1615620013a657600080fd5b60016004826040518082805190602001908083835b60208310620013e05780518252602082019150602081019050602083039250620013bb565b6001836020036101000a038019825116818451168082178552505050505050905001915050908152602001604051809103902060000160026101000a81548160ff0219169083151502179055507fcfa31555536c860c0561cbc991ef9f394d1c8e01437d111f26ee08ca1228392b816040518080602001828103825283818151815260200191508051906020019080838360005b838110156200149157808201518184015260208101905062001474565b50505050905090810190601f168015620014bf5780820380516001836020036101000a031916815260200191505b509250505060405180910390a150565b6004818051602081018201805184825260208301602085012081835280955050505050506000915090508060000160009054906101000a900460ff16908060000160019054906101000a900460ff16908060000160029054906101000a900460ff16905083565b62001540620019e6565b6040518061016001604052808d73ffffffffffffffffffffffffffffffffffffffff1681526020018c73ffffffffffffffffffffffffffffffffffffffff1681526020018b81526020018a8152602001898152602001888152602001878152602001868152602001858152602001848152602001838152509050620015c462001a6c565b60405180606001604052806000151581526020016000151581526020016000151581525090508160028f6040518082805190602001908083835b60208310620016235780518252602082019150602081019050602083039250620015fe565b6001836020036101000a038019825116818451168082178552505050505050905001915050908152602001604051809103902060008201518160000160006101000a81548173ffffffffffffffffffffffffffffffffffffffff021916908373ffffffffffffffffffffffffffffffffffffffff16021790555060208201518160010160006101000a81548173ffffffffffffffffffffffffffffffffffffffff021916908373ffffffffffffffffffffffffffffffffffffffff16021790555060408201518160020190805190602001906200170292919062001a93565b50606082015181600301556080820151816004015560a0820151816005015560c0820151816006015560e082015181600701556101008201518160080155610120820151816009015561014082015181600a01559050508060048f6040518082805190602001908083835b602083106200179257805182526020820191506020810190506020830392506200176d565b6001836020036101000a038019825116818451168082178552505050505050905001915050908152602001604051809103902060008201518160000160006101000a81548160ff02191690831515021790555060208201518160000160016101000a81548160ff02191690831515021790555060408201518160000160026101000a81548160ff02191690831515021790555090505060008e604051620018399062001b1a565b8080602001828103825283818151815260200191508051906020019080838360005b83811015620018785780820151818401526020810190506200185b565b50505050905090810190601f168015620018a65780820380516001836020036101000a031916815260200191505b5092505050604051809103906000f080158015620018c8573d6000803e3d6000fd5b5090507ff7e24b64c3d2ed7d191ce3009c2e12632005b58578ce39e23f97eaec9fd6c3e18f8260405180806020018373ffffffffffffffffffffffffffffffffffffffff1673ffffffffffffffffffffffffffffffffffffffff168152602001828103825284818151815260200191508051906020019080838360005b838110156200196257808201518184015260208101905062001945565b50505050905090810190601f168015620019905780820380516001836020036101000a031916815260200191505b50935050505060405180910390a1505050505050505050505050505050565b6040518060600160405280600073ffffffffffffffffffffffffffffffffffffffff16815260200160008152602001600081525090565b604051806101600160405280600073ffffffffffffffffffffffffffffffffffffffff168152602001600073ffffffffffffffffffffffffffffffffffffffff1681526020016060815260200160008152602001600081526020016000815260200160008152602001600081526020016000815260200160008152602001600081525090565b60405180606001604052806000151581526020016000151581526020016000151581525090565b828054600181600116156101000203166002900490600052602060002090601f016020900481019282601f1062001ad657805160ff191683800117855562001b07565b8280016001018555821562001b07579182015b8281111562001b0657825182559160200191906001019062001ae9565b5b50905062001b16919062001b28565b5090565b6104758062001b5183390190565b62001b4d91905b8082111562001b4957600081600090555060010162001b2f565b5090565b9056fe608060405234801561001057600080fd5b506040516104753803806104758339818101604052602081101561003357600080fd5b810190808051604051939291908464010000000082111561005357600080fd5b8382019150602082018581111561006957600080fd5b825186600182028301116401000000008211171561008657600080fd5b8083526020830192505050908051906020019080838360005b838110156100ba57808201518184015260208101905061009f565b50505050905090810190601f1680156100e75780820380516001836020036101000a031916815260200191505b50604052505050806000908051906020019061010492919061010b565b50506101b0565b828054600181600116156101000203166002900490600052602060002090601f016020900481019282601f1061014c57805160ff191683800117855561017a565b8280016001018555821561017a579182015b8281111561017957825182559160200191906001019061015e565b5b509050610187919061018b565b5090565b6101ad91905b808211156101a9576000816000905550600101610191565b5090565b90565b6102b6806101bf6000396000f3fe608060405234801561001057600080fd5b50600436106100365760003560e01c8063af640d0f1461003b578063fb1e6a62146100be575b600080fd5b610043610141565b6040518080602001828103825283818151815260200191508051906020019080838360005b83811015610083578082015181840152602081019050610068565b50505050905090810190601f1680156100b05780820380516001836020036101000a031916815260200191505b509250505060405180910390f35b6100c66101df565b6040518080602001828103825283818151815260200191508051906020019080838360005b838110156101065780820151818401526020810190506100eb565b50505050905090810190601f1680156101335780820380516001836020036101000a031916815260200191505b509250505060405180910390f35b60008054600181600116156101000203166002900480601f0160208091040260200160405190810160405280929190818152602001828054600181600116156101000203166002900480156101d75780601f106101ac576101008083540402835291602001916101d7565b820191906000526020600020905b8154815290600101906020018083116101ba57829003601f168201915b505050505081565b606060008054600181600116156101000203166002900480601f0160208091040260200160405190810160405280929190818152602001828054600181600116156101000203166002900480156102775780601f1061024c57610100808354040283529160200191610277565b820191906000526020600020905b81548152906001019060200180831161025a57829003601f168201915b505050505090509056fea265627a7a72315820500d0aba540b30a077f0c0384eebbcf402b56ecb6a7625a47425ea8aa60dfa8964736f6c63430005100032a265627a7a72315820e165e119bbbf16db5da2339360818dd3d48e87ee99e2a0cb8f7cd0d259a121e164736f6c63430005100032",
  "source": "// Disco \r\npragma solidity >=0.4.21 <0.7.0;\r\n\r\ncontract Disco {\r\n  address private _owner;\r\n  address payable private _coinbase;\r\n\r\n\r\n  // disco\r\n  struct DiscoInfo {\r\n    address walletAddr;\r\n    address tokenAddr;\r\n    string description;\r\n    uint256 fundRaisingStartedAt;\r\n    uint256 fundRaisingEndedAt;\r\n    uint256 investmentReward;\r\n    uint256 rewardDeclineRate;\r\n    uint256 shareToken;\r\n    uint256 minFundRaising;\r\n    uint256 addLiquidityPool;\r\n    uint256 totalDepositToken;\r\n  }\r\n\r\n  // disco \r\n  struct DiscoInvestor {\r\n    // \r\n    address investor;\r\n    // , \r\n    uint value;\r\n     // \r\n    uint time;\r\n    // // TOKEN\r\n    // uint256 sharedToken;\r\n    // // TOKEN\r\n    // uint256 rewardedToken;\r\n  }\r\n\r\n  // disco\r\n  struct DiscoStatus {\r\n    // \r\n    bool isFinished;\r\n    // \r\n    bool isSuccess;\r\n    // \r\n    bool isEnabled;\r\n  }\r\n\r\n  struct DiscoInvestAddr {\r\n    DiscoAddr discoAddr;\r\n  }\r\n\r\n  // disco\r\n  mapping (string => DiscoInfo) public discos;\r\n  // \r\n  mapping (string => DiscoInvestor) public investors;\r\n  // \r\n  mapping (string => DiscoStatus) public status;\r\n  //  disco \r\n  mapping (string => DiscoInvestAddr) public discoAddress;\r\n\r\n  // \r\n  event createdDisco(string discoId, DiscoAddr addr);\r\n  // \r\n  // event enabeldDisco(string discoId, address discoAddr);\r\n  event enabeldDisco(string discoId);\r\n  // \r\n  event fundraisingSuccessed(string discoId);\r\n  //\r\n  event fundraisingFinished(string discoIdo);\r\n  // \r\n  event fundraisingFailed(string discoId);\r\n  //  disco \r\n  event investToDisco(string discoId, address investorAddr, uint amount);\r\n\r\n  // \r\n  modifier isOwner() {\r\n    require(msg.sender == _owner);\r\n    _;\r\n  }\r\n\r\n  constructor()\r\n    public {\r\n        _owner = msg.sender;\r\n  }\r\n\r\n  function setCoinBase (address payable addr)\r\n      isOwner\r\n      public {\r\n        _coinbase = addr;\r\n  }\r\n\r\n  //  \r\n  function getDate() public view returns(uint256){\r\n    return now;\r\n  }\r\n\r\n  // Disco\r\n  function newDisco(\r\n    string memory id,\r\n    address walletAddr,\r\n    address tokenAddr,\r\n    string memory description,\r\n    uint256 fundRaisingStartedAt,\r\n    uint256 fundRaisingEndedAt,\r\n    uint256 investmentReward,\r\n    uint256 rewardDeclineRate,\r\n    uint256 shareToken,\r\n    uint256 minFundRaising,\r\n    uint256 addLiquidityPool,\r\n    uint256 totalDepositToken\r\n  ) public payable {\r\n    DiscoInfo memory d = DiscoInfo(\r\n      walletAddr,\r\n      tokenAddr,\r\n      description,\r\n      fundRaisingStartedAt,\r\n      fundRaisingEndedAt,\r\n      investmentReward,\r\n      rewardDeclineRate,\r\n      shareToken,\r\n      minFundRaising,\r\n      addLiquidityPool,\r\n      totalDepositToken\r\n    );\r\n    DiscoStatus memory s = DiscoStatus(\r\n      false,\r\n      false,\r\n      false\r\n    );\r\n    discos[id] = d;\r\n    status[id] = s;\r\n\r\n\r\n    // , discoAddr DiscoAddr  \r\n    DiscoAddr addr = new DiscoAddr(id);\r\n    // disco id  disco \r\n    // DiscoInvestAddr memory discoInvestAddr = DiscoInvestAddr(addr);\r\n    // discoAddress[id] = discoInvestAddr;\r\n       // disco \r\n    emit createdDisco(id, addr);\r\n  }\r\n\r\n\r\n  /**\r\n   * @dev disco\r\n   */\r\n  function enableDisco(string memory id) public {\r\n    require(discos[id].fundRaisingStartedAt > getDate());\r\n    require(discos[id].fundRaisingEndedAt < getDate());\r\n    require(!status[id].isEnabled);\r\n\r\n    status[id].isEnabled = true;\r\n    // \r\n    emit enabeldDisco(id);\r\n  }\r\n\r\n\r\n\r\n  /**\r\n   * @dev  disco disco\r\n   */\r\n  function finishedDisco(string memory id) public {\r\n    require(!status[id].isFinished);\r\n    status[id].isFinished = true;\r\n\r\n    // TODO \r\n    status[id].isSuccess = true;\r\n    // if ('') {\r\n    //   status[id].isSuccess = true;\r\n    //   // TODO  swap\r\n    // } else {\r\n    //   status[id].isSuccess = false;\r\n    // }\r\n    emit fundraisingFinished(id);\r\n  }\r\n\r\n  // ,  \r\n  function investor(\r\n    string memory id,\r\n    address payable investorAddress,\r\n    uint256 time) public payable{\r\n     require(_coinbase != address(0));\r\n     DiscoInvestor memory d = DiscoInvestor(\r\n      investorAddress,\r\n      msg.value,\r\n      time\r\n    );\r\n    investors[id] = d;\r\n    investorAddress.transfer(msg.value);\r\n\r\n    emit investToDisco(id, investorAddress, msg.value);\r\n  }\r\n}\r\n\r\n// \r\ncontract DiscoAddr {\r\n\r\n  string public id;\r\n  // suppose the deployed contract has a purpose\r\n\r\n  constructor(string memory discoId) public {\r\n    id = discoId;\r\n  }\r\n\r\n\r\n  function getDiscoId() public view returns(string memory) {\r\n    return id;\r\n  }\r\n}\r\n",
  "sourcePath": "F:/cos-contract-com/contracts/Disco.sol",
  "compiler": {
    "name": "solc",
    "version": "0.5.16+commit.9c3226ce.Emscripten.clang"
  },
  "schemaVersion": "3.2.3",
  "updatedAt": "2021-01-27T15:56:55.511Z",
  "devdoc": {
    "methods": {
      "enableDisco(string)": {
        "details": "disco"
      },
      "finishedDisco(string)": {
        "details": " disco disco"
      }
    }
  },
  "userdoc": {
    "methods": {}
  }
}