{
  "contractName": "Disco",
  "abi": [
    {
      "inputs": [],
      "payable": false,
      "stateMutability": "nonpayable",
      "type": "constructor"
    },
    {
      "anonymous": false,
      "inputs": [
        {
          "indexed": false,
          "internalType": "string",
          "name": "discoId",
          "type": "string"
        }
      ],
      "name": "createdDisco",
      "type": "event"
    },
    {
      "anonymous": false,
      "inputs": [
        {
          "indexed": false,
          "internalType": "string",
          "name": "discoId",
          "type": "string"
        }
      ],
      "name": "enabeldDisco",
      "type": "event"
    },
    {
      "anonymous": false,
      "inputs": [
        {
          "indexed": false,
          "internalType": "string",
          "name": "discoId",
          "type": "string"
        }
      ],
      "name": "fundraisingFailed",
      "type": "event"
    },
    {
      "anonymous": false,
      "inputs": [
        {
          "indexed": false,
          "internalType": "string",
          "name": "discoIdo",
          "type": "string"
        }
      ],
      "name": "fundraisingFinished",
      "type": "event"
    },
    {
      "anonymous": false,
      "inputs": [
        {
          "indexed": false,
          "internalType": "string",
          "name": "discoId",
          "type": "string"
        }
      ],
      "name": "fundraisingSuccessed",
      "type": "event"
    },
    {
      "anonymous": false,
      "inputs": [
        {
          "indexed": false,
          "internalType": "string",
          "name": "discoId",
          "type": "string"
        }
      ],
      "name": "investToDisco",
      "type": "event"
    },
    {
      "constant": true,
      "inputs": [
        {
          "internalType": "string",
          "name": "",
          "type": "string"
        }
      ],
      "name": "discos",
      "outputs": [
        {
          "internalType": "address",
          "name": "walletAddr",
          "type": "address"
        },
        {
          "internalType": "address",
          "name": "tokenAddr",
          "type": "address"
        },
        {
          "internalType": "string",
          "name": "description",
          "type": "string"
        },
        {
          "internalType": "uint256",
          "name": "fundRaisingStartedAt",
          "type": "uint256"
        },
        {
          "internalType": "uint256",
          "name": "fundRaisingEndedAt",
          "type": "uint256"
        },
        {
          "internalType": "uint256",
          "name": "investmentReward",
          "type": "uint256"
        },
        {
          "internalType": "uint256",
          "name": "rewardDeclineRate",
          "type": "uint256"
        },
        {
          "internalType": "uint256",
          "name": "shareToken",
          "type": "uint256"
        },
        {
          "internalType": "uint256",
          "name": "minFundRaising",
          "type": "uint256"
        },
        {
          "internalType": "uint256",
          "name": "addLiquidityPool",
          "type": "uint256"
        },
        {
          "internalType": "uint256",
          "name": "totalDepositToken",
          "type": "uint256"
        }
      ],
      "payable": false,
      "stateMutability": "view",
      "type": "function"
    },
    {
      "constant": true,
      "inputs": [
        {
          "internalType": "string",
          "name": "",
          "type": "string"
        }
      ],
      "name": "investors",
      "outputs": [
        {
          "internalType": "address",
          "name": "investor",
          "type": "address"
        },
        {
          "internalType": "uint256",
          "name": "value",
          "type": "uint256"
        },
        {
          "internalType": "uint256",
          "name": "time",
          "type": "uint256"
        },
        {
          "internalType": "uint256",
          "name": "sharedToken",
          "type": "uint256"
        },
        {
          "internalType": "uint256",
          "name": "rewardedToken",
          "type": "uint256"
        }
      ],
      "payable": false,
      "stateMutability": "view",
      "type": "function"
    },
    {
      "constant": true,
      "inputs": [
        {
          "internalType": "string",
          "name": "",
          "type": "string"
        }
      ],
      "name": "status",
      "outputs": [
        {
          "internalType": "bool",
          "name": "isFinished",
          "type": "bool"
        },
        {
          "internalType": "bool",
          "name": "isSuccess",
          "type": "bool"
        },
        {
          "internalType": "bool",
          "name": "isEnabled",
          "type": "bool"
        }
      ],
      "payable": false,
      "stateMutability": "view",
      "type": "function"
    },
    {
      "constant": false,
      "inputs": [
        {
          "internalType": "address payable",
          "name": "addr",
          "type": "address"
        }
      ],
      "name": "setCoinBase",
      "outputs": [],
      "payable": false,
      "stateMutability": "nonpayable",
      "type": "function"
    },
    {
      "constant": true,
      "inputs": [],
      "name": "getCoinBase",
      "outputs": [
        {
          "internalType": "address",
          "name": "",
          "type": "address"
        }
      ],
      "payable": false,
      "stateMutability": "view",
      "type": "function"
    },
    {
      "constant": true,
      "inputs": [],
      "name": "getDate",
      "outputs": [
        {
          "internalType": "uint256",
          "name": "",
          "type": "uint256"
        }
      ],
      "payable": false,
      "stateMutability": "view",
      "type": "function"
    },
    {
      "constant": false,
      "inputs": [
        {
          "internalType": "string",
          "name": "id",
          "type": "string"
        },
        {
          "internalType": "address",
          "name": "walletAddr",
          "type": "address"
        },
        {
          "internalType": "address",
          "name": "tokenAddr",
          "type": "address"
        },
        {
          "internalType": "string",
          "name": "description",
          "type": "string"
        },
        {
          "internalType": "uint256",
          "name": "fundRaisingStartedAt",
          "type": "uint256"
        },
        {
          "internalType": "uint256",
          "name": "fundRaisingEndedAt",
          "type": "uint256"
        },
        {
          "internalType": "uint256",
          "name": "investmentReward",
          "type": "uint256"
        },
        {
          "internalType": "uint256",
          "name": "rewardDeclineRate",
          "type": "uint256"
        },
        {
          "internalType": "uint256",
          "name": "shareToken",
          "type": "uint256"
        },
        {
          "internalType": "uint256",
          "name": "minFundRaising",
          "type": "uint256"
        },
        {
          "internalType": "uint256",
          "name": "addLiquidityPool",
          "type": "uint256"
        },
        {
          "internalType": "uint256",
          "name": "totalDepositToken",
          "type": "uint256"
        }
      ],
      "name": "newDisco",
      "outputs": [],
      "payable": false,
      "stateMutability": "nonpayable",
      "type": "function"
    },
    {
      "constant": false,
      "inputs": [
        {
          "internalType": "string",
          "name": "id",
          "type": "string"
        }
      ],
      "name": "enableDisco",
      "outputs": [],
      "payable": false,
      "stateMutability": "nonpayable",
      "type": "function"
    },
    {
      "constant": false,
      "inputs": [
        {
          "internalType": "string",
          "name": "id",
          "type": "string"
        },
        {
          "internalType": "address",
          "name": "investorAddress",
          "type": "address"
        },
        {
          "internalType": "uint256",
          "name": "value",
          "type": "uint256"
        },
        {
          "internalType": "uint256",
          "name": "time",
          "type": "uint256"
        },
        {
          "internalType": "uint256",
          "name": "sharedToken",
          "type": "uint256"
        },
        {
          "internalType": "uint256",
          "name": "rewardedToken",
          "type": "uint256"
        }
      ],
      "name": "investor",
      "outputs": [],
      "payable": false,
      "stateMutability": "nonpayable",
      "type": "function"
    }
  ],
  "bytecode": "0x608060405234801561001057600080fd5b50336000806101000a81548173ffffffffffffffffffffffffffffffffffffffff021916908373ffffffffffffffffffffffffffffffffffffffff160217905550611521806100606000396000f3fe608060405234801561001057600080fd5b50600436106100935760003560e01c80635b396f0a116100665780635b396f0a146103cf578063971ce641146104e6578063c79d192114610530578063e8ca64f4146105eb578063e9dd570a146106d457610093565b80630303634514610098578063283e2e041461019b5780632df79172146101df578063430fe9c1146103b1575b600080fd5b610199600480360360c08110156100ae57600080fd5b81019080803590602001906401000000008111156100cb57600080fd5b8201836020820111156100dd57600080fd5b803590602001918460018302840111640100000000831117156100ff57600080fd5b91908080601f016020809104026020016040519081016040528093929190818152602001838380828437600081840152601f19601f820116905080830192505050505050509192919290803573ffffffffffffffffffffffffffffffffffffffff169060200190929190803590602001909291908035906020019092919080359060200190929190803590602001909291905050506108b7565b005b6101dd600480360360208110156101b157600080fd5b81019080803573ffffffffffffffffffffffffffffffffffffffff1690602001909291905050506109e3565b005b610298600480360360208110156101f557600080fd5b810190808035906020019064010000000081111561021257600080fd5b82018360208201111561022457600080fd5b8035906020019184600183028401116401000000008311171561024657600080fd5b91908080601f016020809104026020016040519081016040528093929190818152602001838380828437600081840152601f19601f820116905080830192505050505050509192919290505050610a80565b604051808c73ffffffffffffffffffffffffffffffffffffffff1673ffffffffffffffffffffffffffffffffffffffff1681526020018b73ffffffffffffffffffffffffffffffffffffffff1673ffffffffffffffffffffffffffffffffffffffff168152602001806020018a815260200189815260200188815260200187815260200186815260200185815260200184815260200183815260200182810382528b818151815260200191508051906020019080838360005b8381101561036c578082015181840152602081019050610351565b50505050905090810190601f1680156103995780820380516001836020036101000a031916815260200191505b509c5050505050505050505050505060405180910390f35b6103b9610bc8565b6040518082815260200191505060405180910390f35b610488600480360360208110156103e557600080fd5b810190808035906020019064010000000081111561040257600080fd5b82018360208201111561041457600080fd5b8035906020019184600183028401116401000000008311171561043657600080fd5b91908080601f016020809104026020016040519081016040528093929190818152602001838380828437600081840152601f19601f820116905080830192505050505050509192919290505050610bd0565b604051808673ffffffffffffffffffffffffffffffffffffffff1673ffffffffffffffffffffffffffffffffffffffff1681526020018581526020018481526020018381526020018281526020019550505050505060405180910390f35b6104ee610c3c565b604051808273ffffffffffffffffffffffffffffffffffffffff1673ffffffffffffffffffffffffffffffffffffffff16815260200191505060405180910390f35b6105e96004803603602081101561054657600080fd5b810190808035906020019064010000000081111561056357600080fd5b82018360208201111561057557600080fd5b8035906020019184600183028401116401000000008311171561059757600080fd5b91908080601f016020809104026020016040519081016040528093929190818152602001838380828437600081840152601f19601f820116905080830192505050505050509192919290505050610c66565b005b6106a46004803603602081101561060157600080fd5b810190808035906020019064010000000081111561061e57600080fd5b82018360208201111561063057600080fd5b8035906020019184600183028401116401000000008311171561065257600080fd5b91908080601f016020809104026020016040519081016040528093929190818152602001838380828437600081840152601f19601f820116905080830192505050505050509192919290505050610efe565b60405180841515151581526020018315151515815260200182151515158152602001935050505060405180910390f35b6108b560048036036101808110156106eb57600080fd5b810190808035906020019064010000000081111561070857600080fd5b82018360208201111561071a57600080fd5b8035906020019184600183028401116401000000008311171561073c57600080fd5b91908080601f016020809104026020016040519081016040528093929190818152602001838380828437600081840152601f19601f820116905080830192505050505050509192919290803573ffffffffffffffffffffffffffffffffffffffff169060200190929190803573ffffffffffffffffffffffffffffffffffffffff169060200190929190803590602001906401000000008111156107df57600080fd5b8201836020820111156107f157600080fd5b8035906020019184600183028401116401000000008311171561081357600080fd5b91908080601f016020809104026020016040519081016040528093929190818152602001838380828437600081840152601f19601f8201169050808301925050505050505091929192908035906020019092919080359060200190929190803590602001909291908035906020019092919080359060200190929190803590602001909291908035906020019092919080359060200190929190505050610f65565b005b6108bf611355565b6040518060a001604052808773ffffffffffffffffffffffffffffffffffffffff168152602001868152602001858152602001848152602001838152509050806003886040518082805190602001908083835b602083106109355780518252602082019150602081019050602083039250610912565b6001836020036101000a038019825116818451168082178552505050505050905001915050908152602001604051809103902060008201518160000160006101000a81548173ffffffffffffffffffffffffffffffffffffffff021916908373ffffffffffffffffffffffffffffffffffffffff1602179055506020820151816001015560408201518160020155606082015181600301556080820151816004015590505050505050505050565b6000809054906101000a900473ffffffffffffffffffffffffffffffffffffffff1673ffffffffffffffffffffffffffffffffffffffff163373ffffffffffffffffffffffffffffffffffffffff1614610a3c57600080fd5b80600160006101000a81548173ffffffffffffffffffffffffffffffffffffffff021916908373ffffffffffffffffffffffffffffffffffffffff16021790555050565b6002818051602081018201805184825260208301602085012081835280955050505050506000915090508060000160009054906101000a900473ffffffffffffffffffffffffffffffffffffffff16908060010160009054906101000a900473ffffffffffffffffffffffffffffffffffffffff1690806002018054600181600116156101000203166002900480601f016020809104026020016040519081016040528092919081815260200182805460018160011615610100020316600290048015610b8e5780601f10610b6357610100808354040283529160200191610b8e565b820191906000526020600020905b815481529060010190602001808311610b7157829003601f168201915b50505050509080600301549080600401549080600501549080600601549080600701549080600801549080600901549080600a015490508b565b600042905090565b6003818051602081018201805184825260208301602085012081835280955050505050506000915090508060000160009054906101000a900473ffffffffffffffffffffffffffffffffffffffff16908060010154908060020154908060030154908060040154905085565b6000600160009054906101000a900473ffffffffffffffffffffffffffffffffffffffff16905090565b426002826040518082805190602001908083835b60208310610c9d5780518252602082019150602081019050602083039250610c7a565b6001836020036101000a03801982511681845116808217855250505050505090500191505090815260200160405180910390206003015411610cde57600080fd5b426002826040518082805190602001908083835b60208310610d155780518252602082019150602081019050602083039250610cf2565b6001836020036101000a03801982511681845116808217855250505050505090500191505090815260200160405180910390206004015410610d5657600080fd5b6004816040518082805190602001908083835b60208310610d8c5780518252602082019150602081019050602083039250610d69565b6001836020036101000a038019825116818451168082178552505050505050905001915050908152602001604051809103902060000160029054906101000a900460ff1615610dda57600080fd5b60016004826040518082805190602001908083835b60208310610e125780518252602082019150602081019050602083039250610def565b6001836020036101000a038019825116818451168082178552505050505050905001915050908152602001604051809103902060000160026101000a81548160ff0219169083151502179055507fcfa31555536c860c0561cbc991ef9f394d1c8e01437d111f26ee08ca1228392b816040518080602001828103825283818151815260200191508051906020019080838360005b83811015610ec1578082015181840152602081019050610ea6565b50505050905090810190601f168015610eee5780820380516001836020036101000a031916815260200191505b509250505060405180910390a150565b6004818051602081018201805184825260208301602085012081835280955050505050506000915090508060000160009054906101000a900460ff16908060000160019054906101000a900460ff16908060000160029054906101000a900460ff16905083565b600073ffffffffffffffffffffffffffffffffffffffff16600160009054906101000a900473ffffffffffffffffffffffffffffffffffffffff1673ffffffffffffffffffffffffffffffffffffffff161415610fc157600080fd5b610fc961139a565b6040518061016001604052808d73ffffffffffffffffffffffffffffffffffffffff1681526020018c73ffffffffffffffffffffffffffffffffffffffff1681526020018b81526020018a815260200189815260200188815260200187815260200186815260200185815260200184815260200183815250905061104b611420565b60405180606001604052806000151581526020016000151581526020016000151581525090508160028f6040518082805190602001908083835b602083106110a85780518252602082019150602081019050602083039250611085565b6001836020036101000a038019825116818451168082178552505050505050905001915050908152602001604051809103902060008201518160000160006101000a81548173ffffffffffffffffffffffffffffffffffffffff021916908373ffffffffffffffffffffffffffffffffffffffff16021790555060208201518160010160006101000a81548173ffffffffffffffffffffffffffffffffffffffff021916908373ffffffffffffffffffffffffffffffffffffffff1602179055506040820151816002019080519060200190611185929190611447565b50606082015181600301556080820151816004015560a0820151816005015560c0820151816006015560e082015181600701556101008201518160080155610120820151816009015561014082015181600a01559050508060048f6040518082805190602001908083835b6020831061121357805182526020820191506020810190506020830392506111f0565b6001836020036101000a038019825116818451168082178552505050505050905001915050908152602001604051809103902060008201518160000160006101000a81548160ff02191690831515021790555060208201518160000160016101000a81548160ff02191690831515021790555060408201518160000160026101000a81548160ff0219169083151502179055509050507f70c273c4ef6d4736a04d6cd282b941b06fd94cc05df355ac361930089e2c7c348e6040518080602001828103825283818151815260200191508051906020019080838360005b8381101561130b5780820151818401526020810190506112f0565b50505050905090810190601f1680156113385780820380516001836020036101000a031916815260200191505b509250505060405180910390a15050505050505050505050505050565b6040518060a00160405280600073ffffffffffffffffffffffffffffffffffffffff168152602001600081526020016000815260200160008152602001600081525090565b604051806101600160405280600073ffffffffffffffffffffffffffffffffffffffff168152602001600073ffffffffffffffffffffffffffffffffffffffff1681526020016060815260200160008152602001600081526020016000815260200160008152602001600081526020016000815260200160008152602001600081525090565b60405180606001604052806000151581526020016000151581526020016000151581525090565b828054600181600116156101000203166002900490600052602060002090601f016020900481019282601f1061148857805160ff19168380011785556114b6565b828001600101855582156114b6579182015b828111156114b557825182559160200191906001019061149a565b5b5090506114c391906114c7565b5090565b6114e991905b808211156114e55760008160009055506001016114cd565b5090565b9056fea265627a7a72315820ee03743593a7b73ecda47372922ae66093945b99950f7cde6dbd5fac797bb9c864736f6c63430005100032",
  "source": "// Disco 上链\r\npragma solidity >=0.4.21 <0.7.0;\r\n\r\ncontract Disco {\r\n  address private _owner;\r\n  address payable private _coinbase;\r\n\r\n\r\n  // disco\r\n  struct DiscoInfo {\r\n    address walletAddr;\r\n    address tokenAddr;\r\n    string description;\r\n    uint256 fundRaisingStartedAt;\r\n    uint256 fundRaisingEndedAt;\r\n    uint256 investmentReward;\r\n    uint256 rewardDeclineRate;\r\n    uint256 shareToken;\r\n    uint256 minFundRaising;\r\n    uint256 addLiquidityPool;\r\n    uint256 totalDepositToken;\r\n  }\r\n\r\n  // disco 投资人信息\r\n  struct DiscoInvestor {\r\n    // 投资人地址\r\n    address investor;\r\n    // 投资金额, 可以多次投资\r\n    uint value;\r\n     // 时间\r\n    uint time;\r\n    // 募资比例获得TOKEN\r\n    uint256 sharedToken;\r\n    // \b奖励TOKEN\r\n    uint256 rewardedToken;\r\n  }\r\n\r\n  // disco的状态\r\n  struct DiscoStatus {\r\n    // 募资是否结束\r\n    bool isFinished;\r\n    // 募资是否成功\r\n    bool isSuccess;\r\n    // 募资是否开启；\r\n    bool isEnabled;\r\n  }\r\n\r\n  // 记录创建的disco\r\n  mapping (string => DiscoInfo) public discos;\r\n  // 记录投资人\r\n  mapping (string => DiscoInvestor) public investors;\r\n  // 记录投资的状态\r\n  mapping (string => DiscoStatus) public status;\r\n\r\n  // 创建\r\n  event createdDisco(string discoId);\r\n  // 开启\r\n  event enabeldDisco(string discoId);\r\n  // 募资成功的时候\r\n  event fundraisingSuccessed(string discoId);\r\n  //募资结束（成功）\r\n  event fundraisingFinished(string discoIdo);\r\n  // 募资失败\r\n  event fundraisingFailed(string discoId);\r\n  // 投资者向 disco 投钱\r\n  event investToDisco(string discoId);\r\n\r\n  // 判断是否是本人\r\n  modifier isOwner() {\r\n    require(msg.sender == _owner);\r\n    _;\r\n  }\r\n\r\n  constructor()\r\n    public {\r\n        _owner = msg.sender;\r\n  }\r\n\r\n  function setCoinBase(address payable addr) isOwner public {\r\n    _coinbase = addr;\r\n  }\r\n\r\n  function getCoinBase() public view returns(address) {\r\n    return _coinbase;\r\n  }\r\n\r\n  //  获取当前时间\r\n  function getDate() public view returns(uint256){\r\n    return now;\r\n  }\r\n\r\n   /**\r\n     * 募资转账 TODO\r\n    */\r\n  // function () payable {\r\n  //     // require('募资没有结束');\r\n  //     uint amount = msg.value;\r\n  //     balanceOf[msg.sender] += amount;\r\n  //     // amountRaised += amount;\r\n  //     // tokenReward.transfer(msg.sender, amount / price);\r\n  //     // TODO\r\n  //     FundTransfer(msg.sender, amount, true);\r\n  // }\r\n\r\n  // 创建Disco\r\n  function newDisco(\r\n    string memory id,\r\n    address walletAddr,\r\n    address tokenAddr,\r\n    string memory description,\r\n    uint256 fundRaisingStartedAt,\r\n    uint256 fundRaisingEndedAt,\r\n    uint256 investmentReward,\r\n    uint256 rewardDeclineRate,\r\n    uint256 shareToken,\r\n    uint256 minFundRaising,\r\n    uint256 addLiquidityPool,\r\n    uint256 totalDepositToken\r\n  ) public {\r\n    require(_coinbase != address(0));\r\n    DiscoInfo memory d = DiscoInfo(\r\n      walletAddr,\r\n      tokenAddr,\r\n      description,\r\n      fundRaisingStartedAt,\r\n      fundRaisingEndedAt,\r\n      investmentReward,\r\n      rewardDeclineRate,\r\n      shareToken,\r\n      minFundRaising,\r\n      addLiquidityPool,\r\n      totalDepositToken\r\n    );\r\n    DiscoStatus memory s = DiscoStatus(\r\n      false,\r\n      false,\r\n      false\r\n    );\r\n    discos[id] = d;\r\n    status[id] = s;\r\n\r\n    // disco 创建成功\r\n    emit createdDisco(id);\r\n  }\r\n\r\n    // 开启募资\r\n  function enableDisco(string memory id) public {\r\n    require(discos[id].fundRaisingStartedAt > now);\r\n    require(discos[id].fundRaisingEndedAt < now);\r\n    require(!status[id].isEnabled);\r\n    status[id].isEnabled = true;\r\n    // 发送开启募资的事件\r\n    emit enabeldDisco(id);\r\n  }\r\n\r\n\r\n  // 获取 disco\r\n  // function getDisco(string memory id) public view returns(string DiscoInfo) {\r\n  //   return discos[id];\r\n  // }\r\n\r\n  // // 募资结束\r\n  // function finishedDisco(string memory id) public returns(bool) {\r\n  //   require(!status[id].isFinished);\r\n  //   status[id].isFinished = true;\r\n\r\n  //   // TODO 结束的时候需要检查募资是否成功或者失败\r\n  //   if ('成功') {\r\n  //     status[id].isSuccess = true;\r\n  //     // TODO 开启流动性 swap\r\n  //   } else {\r\n  //     status[id].isSuccess = false;\r\n  //   }\r\n  //   emit fundraisingFinished(id);\r\n  // }\r\n\r\n  // 发起募资, 记录募资的信息， 可能会多次募资\r\n  function investor(\r\n      string memory id,\r\n      address investorAddress,\r\n      uint256 value,\r\n      uint256 time,\r\n      uint256 sharedToken,\r\n      uint256 rewardedToken\r\n    ) public {\r\n     DiscoInvestor memory i = DiscoInvestor(\r\n      investorAddress,\r\n      value,\r\n      time,\r\n      sharedToken,\r\n      rewardedToken\r\n    );\r\n    investors[id] = i;\r\n  }\r\n}\r\n",
  "sourcePath": "F:/cos-contract-com/contracts/Disco.sol",
  "compiler": {
    "name": "solc",
    "version": "0.5.16+commit.9c3226ce.Emscripten.clang"
  },
  "schemaVersion": "3.2.3",
  "updatedAt": "2021-01-10T15:08:25.021Z",
  "devdoc": {
    "methods": {}
  },
  "userdoc": {
    "methods": {
      "newDisco(string,address,address,string,uint256,uint256,uint256,uint256,uint256,uint256,uint256,uint256)": {
        "notice": "募资转账 TODO"
      }
    }
  }
}